{
	"buy_back.sol": {
		"BuyBack": {
			"abi": [
				{
					"inputs": [
						{
							"internalType": "address",
							"name": "_paymentToken",
							"type": "address"
						},
						{
							"internalType": "address",
							"name": "_roboMoney",
							"type": "address"
						},
						{
							"internalType": "uint256",
							"name": "_premiumRate",
							"type": "uint256"
						},
						{
							"internalType": "uint256",
							"name": "_targetPrice",
							"type": "uint256"
						}
					],
					"stateMutability": "nonpayable",
					"type": "constructor"
				},
				{
					"anonymous": false,
					"inputs": [
						{
							"indexed": true,
							"internalType": "address",
							"name": "buyer",
							"type": "address"
						},
						{
							"indexed": false,
							"internalType": "uint256",
							"name": "roboMoneyAmount",
							"type": "uint256"
						},
						{
							"indexed": false,
							"internalType": "uint256",
							"name": "tokenSpent",
							"type": "uint256"
						}
					],
					"name": "BuyBackExecuted",
					"type": "event"
				},
				{
					"anonymous": false,
					"inputs": [
						{
							"indexed": true,
							"internalType": "address",
							"name": "previousOwner",
							"type": "address"
						},
						{
							"indexed": true,
							"internalType": "address",
							"name": "newOwner",
							"type": "address"
						}
					],
					"name": "OwnershipTransferred",
					"type": "event"
				},
				{
					"inputs": [
						{
							"internalType": "uint256",
							"name": "roboMoneyAmount",
							"type": "uint256"
						}
					],
					"name": "buyback",
					"outputs": [],
					"stateMutability": "nonpayable",
					"type": "function"
				},
				{
					"inputs": [
						{
							"internalType": "uint256",
							"name": "roboMoneyAmount",
							"type": "uint256"
						}
					],
					"name": "canExecuteBuyback",
					"outputs": [
						{
							"internalType": "bool",
							"name": "",
							"type": "bool"
						}
					],
					"stateMutability": "view",
					"type": "function"
				},
				{
					"inputs": [],
					"name": "contractTokenBalance",
					"outputs": [
						{
							"internalType": "uint256",
							"name": "",
							"type": "uint256"
						}
					],
					"stateMutability": "view",
					"type": "function"
				},
				{
					"inputs": [
						{
							"internalType": "uint256",
							"name": "amount",
							"type": "uint256"
						}
					],
					"name": "depositPaymentToken",
					"outputs": [],
					"stateMutability": "nonpayable",
					"type": "function"
				},
				{
					"inputs": [],
					"name": "maxBuyableRoboMoney",
					"outputs": [
						{
							"internalType": "uint256",
							"name": "",
							"type": "uint256"
						}
					],
					"stateMutability": "view",
					"type": "function"
				},
				{
					"inputs": [],
					"name": "owner",
					"outputs": [
						{
							"internalType": "address",
							"name": "",
							"type": "address"
						}
					],
					"stateMutability": "view",
					"type": "function"
				},
				{
					"inputs": [],
					"name": "paymentToken",
					"outputs": [
						{
							"internalType": "address",
							"name": "",
							"type": "address"
						}
					],
					"stateMutability": "view",
					"type": "function"
				},
				{
					"inputs": [],
					"name": "premiumRate",
					"outputs": [
						{
							"internalType": "uint256",
							"name": "",
							"type": "uint256"
						}
					],
					"stateMutability": "view",
					"type": "function"
				},
				{
					"inputs": [],
					"name": "roboMoney",
					"outputs": [
						{
							"internalType": "address",
							"name": "",
							"type": "address"
						}
					],
					"stateMutability": "view",
					"type": "function"
				},
				{
					"inputs": [
						{
							"internalType": "uint256",
							"name": "_premiumRate",
							"type": "uint256"
						}
					],
					"name": "setPremiumRate",
					"outputs": [],
					"stateMutability": "nonpayable",
					"type": "function"
				},
				{
					"inputs": [
						{
							"internalType": "uint256",
							"name": "_targetPrice",
							"type": "uint256"
						}
					],
					"name": "setTargetPrice",
					"outputs": [],
					"stateMutability": "nonpayable",
					"type": "function"
				},
				{
					"inputs": [],
					"name": "targetPrice",
					"outputs": [
						{
							"internalType": "uint256",
							"name": "",
							"type": "uint256"
						}
					],
					"stateMutability": "view",
					"type": "function"
				},
				{
					"inputs": [
						{
							"internalType": "address",
							"name": "newOwner",
							"type": "address"
						}
					],
					"name": "transferOwnership",
					"outputs": [],
					"stateMutability": "nonpayable",
					"type": "function"
				},
				{
					"inputs": [
						{
							"internalType": "uint256",
							"name": "amount",
							"type": "uint256"
						}
					],
					"name": "withdrawPaymentToken",
					"outputs": [],
					"stateMutability": "nonpayable",
					"type": "function"
				}
			],
			"devdoc": {
				"kind": "dev",
				"methods": {
					"buyback(uint256)": {
						"params": {
							"roboMoneyAmount": "Amount of RoboMoney tokens to sell/buy back."
						}
					},
					"canExecuteBuyback(uint256)": {
						"details": "Checks if the contract has enough payment tokens to buy back `roboMoneyAmount` at the current premium rate."
					},
					"contractTokenBalance()": {
						"details": "Returns the current contract balance of the payment token."
					},
					"depositPaymentToken(uint256)": {
						"details": "Owner can deposit payment tokens into the contract to fund future buybacks."
					},
					"maxBuyableRoboMoney()": {
						"details": "Returns the maximum amount of RoboMoney the contract can buy back given its current payment token balance and the premium rate."
					},
					"withdrawPaymentToken(uint256)": {
						"details": "Owner can withdraw payment tokens from the contract (for leftover tokens, etc.)."
					}
				},
				"version": 1
			},
			"evm": {
				"assembly": "    /* \"buy_back.sol\":1198:6924  contract BuyBack {... */\n  mstore(0x40, 0x80)\n    /* \"buy_back.sol\":1861:2186  constructor(... */\n  callvalue\n  dup1\n  iszero\n  tag_1\n  jumpi\n  revert(0x00, 0x00)\ntag_1:\n  pop\n  mload(0x40)\n  sub(codesize, bytecodeSize)\n  dup1\n  bytecodeSize\n  dup4\n  codecopy\n  dup2\n  add\n  0x40\n  dup2\n  swap1\n  mstore\n  tag_2\n  swap2\n  tag_3\n  jump\t// in\ntag_2:\n    /* \"buy_back.sol\":2014:2019  owner */\n  0x00\n    /* \"buy_back.sol\":2014:2032  owner = msg.sender */\n  dup1\n  sload\n  not(sub(shl(0xa0, 0x01), 0x01))\n  swap1\n  dup2\n  and\n    /* \"buy_back.sol\":2022:2032  msg.sender */\n  caller\n    /* \"buy_back.sol\":2014:2032  owner = msg.sender */\n  or\n  swap1\n  swap2\n  sstore\n  0x01\n    /* \"buy_back.sol\":2043:2071  paymentToken = _paymentToken */\n  dup1\n  sload\n  sub(shl(0xa0, 0x01), 0x01)\n  swap7\n  dup8\n  and\n  swap1\n  dup4\n  and\n  or\n  swap1\n  sstore\n    /* \"buy_back.sol\":2082:2091  roboMoney */\n  0x02\n    /* \"buy_back.sol\":2082:2104  roboMoney = _roboMoney */\n  dup1\n  sload\n  swap5\n  swap1\n  swap6\n  and\n  swap4\n  and\n  swap3\n  swap1\n  swap3\n  or\n  swap1\n  swap3\n  sstore\n    /* \"buy_back.sol\":2115:2126  premiumRate */\n  0x03\n    /* \"buy_back.sol\":2115:2141  premiumRate = _premiumRate */\n  swap2\n  swap1\n  swap2\n  sstore\n    /* \"buy_back.sol\":2152:2163  targetPrice */\n  0x04\n    /* \"buy_back.sol\":2152:2178  targetPrice = _targetPrice */\n  sstore\n    /* \"buy_back.sol\":1198:6924  contract BuyBack {... */\n  jump(tag_8)\n    /* \"#utility.yul\":14:191   */\ntag_7:\n    /* \"#utility.yul\":93:106   */\n  dup1\n  mload\n  sub(shl(0xa0, 0x01), 0x01)\n    /* \"#utility.yul\":135:166   */\n  dup2\n  and\n    /* \"#utility.yul\":125:167   */\n  dup2\n  eq\n    /* \"#utility.yul\":115:185   */\n  tag_10\n  jumpi\n    /* \"#utility.yul\":181:182   */\n  0x00\n    /* \"#utility.yul\":178:179   */\n  0x00\n    /* \"#utility.yul\":171:183   */\n  revert\n    /* \"#utility.yul\":115:185   */\ntag_10:\n    /* \"#utility.yul\":14:191   */\n  swap2\n  swap1\n  pop\n  jump\t// out\n    /* \"#utility.yul\":196:710   */\ntag_3:\n    /* \"#utility.yul\":293:299   */\n  0x00\n    /* \"#utility.yul\":301:307   */\n  0x00\n    /* \"#utility.yul\":309:315   */\n  0x00\n    /* \"#utility.yul\":317:323   */\n  0x00\n    /* \"#utility.yul\":370:373   */\n  0x80\n    /* \"#utility.yul\":358:367   */\n  dup6\n    /* \"#utility.yul\":349:356   */\n  dup8\n    /* \"#utility.yul\":345:368   */\n  sub\n    /* \"#utility.yul\":341:374   */\n  slt\n    /* \"#utility.yul\":338:391   */\n  iszero\n  tag_12\n  jumpi\n    /* \"#utility.yul\":387:388   */\n  0x00\n    /* \"#utility.yul\":384:385   */\n  0x00\n    /* \"#utility.yul\":377:389   */\n  revert\n    /* \"#utility.yul\":338:391   */\ntag_12:\n    /* \"#utility.yul\":410:450   */\n  tag_13\n    /* \"#utility.yul\":440:449   */\n  dup6\n    /* \"#utility.yul\":410:450   */\n  tag_7\n  jump\t// in\ntag_13:\n    /* \"#utility.yul\":400:450   */\n  swap4\n  pop\n    /* \"#utility.yul\":469:518   */\n  tag_14\n    /* \"#utility.yul\":514:516   */\n  0x20\n    /* \"#utility.yul\":503:512   */\n  dup7\n    /* \"#utility.yul\":499:517   */\n  add\n    /* \"#utility.yul\":469:518   */\n  tag_7\n  jump\t// in\ntag_14:\n    /* \"#utility.yul\":580:582   */\n  0x40\n    /* \"#utility.yul\":565:583   */\n  dup7\n  add\n    /* \"#utility.yul\":559:584   */\n  mload\n    /* \"#utility.yul\":674:676   */\n  0x60\n    /* \"#utility.yul\":659:677   */\n  swap1\n  swap7\n  add\n    /* \"#utility.yul\":653:678   */\n  mload\n    /* \"#utility.yul\":196:710   */\n  swap5\n  swap8\n    /* \"#utility.yul\":459:518   */\n  swap1\n  swap7\n  pop\n    /* \"#utility.yul\":196:710   */\n  swap3\n  pop\n  pop\n  pop\n  jump\t// out\ntag_8:\n    /* \"buy_back.sol\":1198:6924  contract BuyBack {... */\n  dataSize(sub_0)\n  dup1\n  dataOffset(sub_0)\n  0x00\n  codecopy\n  0x00\n  return\nstop\n\nsub_0: assembly {\n        /* \"buy_back.sol\":1198:6924  contract BuyBack {... */\n      mstore(0x40, 0x80)\n      callvalue\n      dup1\n      iszero\n      tag_1\n      jumpi\n      revert(0x00, 0x00)\n    tag_1:\n      pop\n      jumpi(tag_2, lt(calldatasize, 0x04))\n      shr(0xe0, calldataload(0x00))\n      dup1\n      0x839ea2d9\n      gt\n      tag_17\n      jumpi\n      dup1\n      0x9e9aed62\n      gt\n      tag_18\n      jumpi\n      dup1\n      0x9e9aed62\n      eq\n      tag_13\n      jumpi\n      dup1\n      0xce1d1f1f\n      eq\n      tag_14\n      jumpi\n      dup1\n      0xdc38679c\n      eq\n      tag_15\n      jumpi\n      dup1\n      0xf2fde38b\n      eq\n      tag_16\n      jumpi\n      revert(0x00, 0x00)\n    tag_18:\n      dup1\n      0x839ea2d9\n      eq\n      tag_10\n      jumpi\n      dup1\n      0x8da5cb5b\n      eq\n      tag_11\n      jumpi\n      dup1\n      0x9063ee20\n      eq\n      tag_12\n      jumpi\n      revert(0x00, 0x00)\n    tag_17:\n      dup1\n      0x6a64eff8\n      gt\n      tag_19\n      jumpi\n      dup1\n      0x6a64eff8\n      eq\n      tag_6\n      jumpi\n      dup1\n      0x79a9fa1c\n      eq\n      tag_7\n      jumpi\n      dup1\n      0x7ef7ba20\n      eq\n      tag_8\n      jumpi\n      dup1\n      0x7ff8b57a\n      eq\n      tag_9\n      jumpi\n      revert(0x00, 0x00)\n    tag_19:\n      dup1\n      0x07e675fa\n      eq\n      tag_3\n      jumpi\n      dup1\n      0x3013ce29\n      eq\n      tag_4\n      jumpi\n      dup1\n      0x5d0040d3\n      eq\n      tag_5\n      jumpi\n    tag_2:\n      revert(0x00, 0x00)\n        /* \"buy_back.sol\":5135:5552  function withdrawPaymentToken(uint256 amount) external onlyOwner {... */\n    tag_3:\n      tag_20\n      tag_21\n      calldatasize\n      0x04\n      tag_22\n      jump\t// in\n    tag_21:\n      tag_23\n      jump\t// in\n    tag_20:\n      stop\n        /* \"buy_back.sol\":1249:1276  address public paymentToken */\n    tag_4:\n      sload(0x01)\n      tag_24\n      swap1\n      sub(shl(0xa0, 0x01), 0x01)\n      and\n      dup2\n      jump\n    tag_24:\n      mload(0x40)\n      sub(shl(0xa0, 0x01), 0x01)\n        /* \"#utility.yul\":363:395   */\n      swap1\n      swap2\n      and\n        /* \"#utility.yul\":345:396   */\n      dup2\n      mstore\n        /* \"#utility.yul\":333:335   */\n      0x20\n        /* \"#utility.yul\":318:336   */\n      add\n        /* \"buy_back.sol\":1249:1276  address public paymentToken */\n    tag_26:\n      mload(0x40)\n      dup1\n      swap2\n      sub\n      swap1\n      return\n        /* \"buy_back.sol\":1537:1563  uint256 public premiumRate */\n    tag_5:\n      tag_28\n      sload(0x03)\n      dup2\n      jump\n    tag_28:\n      mload(0x40)\n        /* \"#utility.yul\":553:578   */\n      swap1\n      dup2\n      mstore\n        /* \"#utility.yul\":541:543   */\n      0x20\n        /* \"#utility.yul\":526:544   */\n      add\n        /* \"buy_back.sol\":1537:1563  uint256 public premiumRate */\n      tag_26\n        /* \"#utility.yul\":407:584   */\n      jump\n        /* \"buy_back.sol\":2533:2643  function setTargetPrice(uint256 _targetPrice) external onlyOwner {... */\n    tag_6:\n      tag_20\n      tag_33\n      calldatasize\n      0x04\n      tag_22\n      jump\t// in\n    tag_33:\n      tag_34\n      jump\t// in\n        /* \"buy_back.sol\":3152:4622  function buyback(uint256 roboMoneyAmount) external {... */\n    tag_7:\n      tag_20\n      tag_36\n      calldatasize\n      0x04\n      tag_22\n      jump\t// in\n    tag_36:\n      tag_37\n      jump\t// in\n        /* \"buy_back.sol\":1327:1351  address public roboMoney */\n    tag_8:\n      sload(0x02)\n      tag_24\n      swap1\n      sub(shl(0xa0, 0x01), 0x01)\n      and\n      dup2\n      jump\n        /* \"buy_back.sol\":2300:2525  function setPremiumRate(uint256 _premiumRate) external onlyOwner {... */\n    tag_9:\n      tag_20\n      tag_42\n      calldatasize\n      0x04\n      tag_22\n      jump\t// in\n    tag_42:\n      tag_43\n      jump\t// in\n        /* \"buy_back.sol\":6557:6921  function canExecuteBuyback(uint256 roboMoneyAmount) external view returns (bool) {... */\n    tag_10:\n      tag_44\n      tag_45\n      calldatasize\n      0x04\n      tag_22\n      jump\t// in\n    tag_45:\n      tag_46\n      jump\t// in\n    tag_44:\n      mload(0x40)\n        /* \"#utility.yul\":754:768   */\n      swap1\n      iszero\n        /* \"#utility.yul\":747:769   */\n      iszero\n        /* \"#utility.yul\":729:770   */\n      dup2\n      mstore\n        /* \"#utility.yul\":717:719   */\n      0x20\n        /* \"#utility.yul\":702:720   */\n      add\n        /* \"buy_back.sol\":6557:6921  function canExecuteBuyback(uint256 roboMoneyAmount) external view returns (bool) {... */\n      tag_26\n        /* \"#utility.yul\":589:776   */\n      jump\n        /* \"buy_back.sol\":1222:1242  address public owner */\n    tag_11:\n      sload(0x00)\n      tag_24\n      swap1\n      sub(shl(0xa0, 0x01), 0x01)\n      and\n      dup2\n      jump\n        /* \"buy_back.sol\":4737:5015  function depositPaymentToken(uint256 amount) external onlyOwner {... */\n    tag_12:\n      tag_20\n      tag_53\n      calldatasize\n      0x04\n      tag_22\n      jump\t// in\n    tag_53:\n      tag_54\n      jump\t// in\n        /* \"buy_back.sol\":5650:5785  function contractTokenBalance() external view returns (uint256) {... */\n    tag_13:\n      tag_28\n      tag_56\n      jump\t// in\n        /* \"buy_back.sol\":5960:6402  function maxBuyableRoboMoney() external view returns (uint256) {... */\n    tag_14:\n      tag_28\n      tag_59\n      jump\t// in\n        /* \"buy_back.sol\":1589:1615  uint256 public targetPrice */\n    tag_15:\n      tag_28\n      sload(0x04)\n      dup2\n      jump\n        /* \"buy_back.sol\":2651:2881  function transferOwnership(address newOwner) external onlyOwner {... */\n    tag_16:\n      tag_20\n      tag_65\n      calldatasize\n      0x04\n      tag_66\n      jump\t// in\n    tag_65:\n      tag_67\n      jump\t// in\n        /* \"buy_back.sol\":5135:5552  function withdrawPaymentToken(uint256 amount) external onlyOwner {... */\n    tag_23:\n        /* \"buy_back.sol\":2248:2253  owner */\n      and(sub(shl(0xa0, 0x01), 0x01), sload(0x00))\n        /* \"buy_back.sol\":2234:2244  msg.sender */\n      caller\n        /* \"buy_back.sol\":2234:2253  msg.sender == owner */\n      eq\n        /* \"buy_back.sol\":2226:2272  require(msg.sender == owner, \"Not authorized\") */\n      tag_69\n      jumpi\n      mload(0x40)\n      shl(0xe5, 0x461bcd)\n      dup2\n      mstore\n      0x04\n      add\n      tag_70\n      swap1\n      tag_71\n      jump\t// in\n    tag_70:\n      mload(0x40)\n      dup1\n      swap2\n      sub\n      swap1\n      revert\n    tag_69:\n        /* \"buy_back.sol\":5228:5229  0 */\n      0x00\n        /* \"buy_back.sol\":5219:5225  amount */\n      dup2\n        /* \"buy_back.sol\":5219:5229  amount > 0 */\n      gt\n        /* \"buy_back.sol\":5211:5254  require(amount > 0, \"Withdraw must be > 0\") */\n      tag_73\n      jumpi\n      mload(0x40)\n      shl(0xe5, 0x461bcd)\n      dup2\n      mstore\n        /* \"#utility.yul\":1617:1619   */\n      0x20\n        /* \"buy_back.sol\":5211:5254  require(amount > 0, \"Withdraw must be > 0\") */\n      0x04\n      dup3\n      add\n        /* \"#utility.yul\":1599:1620   */\n      mstore\n        /* \"#utility.yul\":1656:1658   */\n      0x14\n        /* \"#utility.yul\":1636:1654   */\n      0x24\n      dup3\n      add\n        /* \"#utility.yul\":1629:1659   */\n      mstore\n      shl(0x64, 0x05769746864726177206d757374206265203e203)\n        /* \"#utility.yul\":1675:1693   */\n      0x44\n      dup3\n      add\n        /* \"#utility.yul\":1668:1718   */\n      mstore\n        /* \"#utility.yul\":1735:1753   */\n      0x64\n      add\n        /* \"buy_back.sol\":5211:5254  require(amount > 0, \"Withdraw must be > 0\") */\n      tag_70\n        /* \"#utility.yul\":1415:1759   */\n      jump\n        /* \"buy_back.sol\":5211:5254  require(amount > 0, \"Withdraw must be > 0\") */\n    tag_73:\n        /* \"buy_back.sol\":5297:5309  paymentToken */\n      sload(0x01)\n        /* \"buy_back.sol\":5290:5335  IERC20(paymentToken).balanceOf(address(this)) */\n      mload(0x40)\n      shl(0xe0, 0x70a08231)\n      dup2\n      mstore\n        /* \"buy_back.sol\":5329:5333  this */\n      address\n        /* \"buy_back.sol\":5290:5335  IERC20(paymentToken).balanceOf(address(this)) */\n      0x04\n      dup3\n      add\n        /* \"#utility.yul\":345:396   */\n      mstore\n        /* \"buy_back.sol\":5265:5287  uint256 currentBalance */\n      0x00\n      swap2\n      sub(shl(0xa0, 0x01), 0x01)\n        /* \"buy_back.sol\":5297:5309  paymentToken */\n      and\n      swap1\n        /* \"buy_back.sol\":5290:5320  IERC20(paymentToken).balanceOf */\n      0x70a08231\n      swap1\n        /* \"#utility.yul\":318:336   */\n      0x24\n      add\n        /* \"buy_back.sol\":5290:5335  IERC20(paymentToken).balanceOf(address(this)) */\n      0x20\n      mload(0x40)\n      dup1\n      dup4\n      sub\n      dup2\n      dup7\n      gas\n      staticcall\n      iszero\n      dup1\n      iszero\n      tag_78\n      jumpi\n      returndatacopy(0x00, 0x00, returndatasize)\n      revert(0x00, returndatasize)\n    tag_78:\n      pop\n      pop\n      pop\n      pop\n      mload(0x40)\n      returndatasize\n      not(0x1f)\n      0x1f\n      dup3\n      add\n      and\n      dup3\n      add\n      dup1\n      0x40\n      mstore\n      pop\n      dup2\n      add\n      swap1\n      tag_79\n      swap2\n      swap1\n      tag_80\n      jump\t// in\n    tag_79:\n        /* \"buy_back.sol\":5265:5335  uint256 currentBalance = IERC20(paymentToken).balanceOf(address(this)) */\n      swap1\n      pop\n        /* \"buy_back.sol\":5364:5378  currentBalance */\n      dup1\n        /* \"buy_back.sol\":5354:5360  amount */\n      dup3\n        /* \"buy_back.sol\":5354:5378  amount <= currentBalance */\n      gt\n      iszero\n        /* \"buy_back.sol\":5346:5412  require(amount <= currentBalance, \"Not enough tokens in contract\") */\n      tag_81\n      jumpi\n      mload(0x40)\n      shl(0xe5, 0x461bcd)\n      dup2\n      mstore\n        /* \"#utility.yul\":2155:2157   */\n      0x20\n        /* \"buy_back.sol\":5346:5412  require(amount <= currentBalance, \"Not enough tokens in contract\") */\n      0x04\n      dup3\n      add\n        /* \"#utility.yul\":2137:2158   */\n      mstore\n        /* \"#utility.yul\":2194:2196   */\n      0x1d\n        /* \"#utility.yul\":2174:2192   */\n      0x24\n      dup3\n      add\n        /* \"#utility.yul\":2167:2197   */\n      mstore\n        /* \"#utility.yul\":2233:2264   */\n      0x4e6f7420656e6f75676820746f6b656e7320696e20636f6e7472616374000000\n        /* \"#utility.yul\":2213:2231   */\n      0x44\n      dup3\n      add\n        /* \"#utility.yul\":2206:2265   */\n      mstore\n        /* \"#utility.yul\":2282:2300   */\n      0x64\n      add\n        /* \"buy_back.sol\":5346:5412  require(amount <= currentBalance, \"Not enough tokens in contract\") */\n      tag_70\n        /* \"#utility.yul\":1953:2306   */\n      jump\n        /* \"buy_back.sol\":5346:5412  require(amount <= currentBalance, \"Not enough tokens in contract\") */\n    tag_81:\n        /* \"buy_back.sol\":5445:5457  paymentToken */\n      sload(0x01)\n        /* \"buy_back.sol\":5423:5435  bool success */\n      0x00\n        /* \"buy_back.sol\":5468:5473  owner */\n      dup1\n      sload\n        /* \"buy_back.sol\":5438:5482  IERC20(paymentToken).transfer(owner, amount) */\n      mload(0x40)\n      shl(0xe0, 0xa9059cbb)\n      dup2\n      mstore\n      sub(shl(0xa0, 0x01), 0x01)\n        /* \"buy_back.sol\":5468:5473  owner */\n      swap2\n      dup3\n      and\n        /* \"buy_back.sol\":5438:5482  IERC20(paymentToken).transfer(owner, amount) */\n      0x04\n      dup3\n      add\n        /* \"#utility.yul\":2485:2536   */\n      mstore\n        /* \"#utility.yul\":2552:2570   */\n      0x24\n      dup2\n      add\n        /* \"#utility.yul\":2545:2579   */\n      dup7\n      swap1\n      mstore\n        /* \"buy_back.sol\":5423:5435  bool success */\n      swap2\n      swap3\n        /* \"buy_back.sol\":5445:5457  paymentToken */\n      and\n      swap1\n        /* \"buy_back.sol\":5438:5467  IERC20(paymentToken).transfer */\n      0xa9059cbb\n      swap1\n        /* \"#utility.yul\":2458:2476   */\n      0x44\n      add\n        /* \"buy_back.sol\":5438:5482  IERC20(paymentToken).transfer(owner, amount) */\n      0x20\n      mload(0x40)\n      dup1\n      dup4\n      sub\n      dup2\n      0x00\n      dup8\n      gas\n      call\n      iszero\n      dup1\n      iszero\n      tag_87\n      jumpi\n      returndatacopy(0x00, 0x00, returndatasize)\n      revert(0x00, returndatasize)\n    tag_87:\n      pop\n      pop\n      pop\n      pop\n      mload(0x40)\n      returndatasize\n      not(0x1f)\n      0x1f\n      dup3\n      add\n      and\n      dup3\n      add\n      dup1\n      0x40\n      mstore\n      pop\n      dup2\n      add\n      swap1\n      tag_88\n      swap2\n      swap1\n      tag_89\n      jump\t// in\n    tag_88:\n        /* \"buy_back.sol\":5423:5482  bool success = IERC20(paymentToken).transfer(owner, amount) */\n      swap1\n      pop\n        /* \"buy_back.sol\":5501:5508  success */\n      dup1\n        /* \"buy_back.sol\":5493:5544  require(success, \"Payment token withdrawal failed\") */\n      tag_90\n      jumpi\n      mload(0x40)\n      shl(0xe5, 0x461bcd)\n      dup2\n      mstore\n        /* \"#utility.yul\":3074:3076   */\n      0x20\n        /* \"buy_back.sol\":5493:5544  require(success, \"Payment token withdrawal failed\") */\n      0x04\n      dup3\n      add\n        /* \"#utility.yul\":3056:3077   */\n      mstore\n        /* \"#utility.yul\":3113:3115   */\n      0x1f\n        /* \"#utility.yul\":3093:3111   */\n      0x24\n      dup3\n      add\n        /* \"#utility.yul\":3086:3116   */\n      mstore\n        /* \"#utility.yul\":3152:3185   */\n      0x5061796d656e7420746f6b656e207769746864726177616c206661696c656400\n        /* \"#utility.yul\":3132:3150   */\n      0x44\n      dup3\n      add\n        /* \"#utility.yul\":3125:3186   */\n      mstore\n        /* \"#utility.yul\":3203:3221   */\n      0x64\n      add\n        /* \"buy_back.sol\":5493:5544  require(success, \"Payment token withdrawal failed\") */\n      tag_70\n        /* \"#utility.yul\":2872:3227   */\n      jump\n        /* \"buy_back.sol\":5493:5544  require(success, \"Payment token withdrawal failed\") */\n    tag_90:\n        /* \"buy_back.sol\":5200:5552  {... */\n      pop\n      pop\n        /* \"buy_back.sol\":5135:5552  function withdrawPaymentToken(uint256 amount) external onlyOwner {... */\n      pop\n      jump\t// out\n        /* \"buy_back.sol\":2533:2643  function setTargetPrice(uint256 _targetPrice) external onlyOwner {... */\n    tag_34:\n        /* \"buy_back.sol\":2248:2253  owner */\n      and(sub(shl(0xa0, 0x01), 0x01), sload(0x00))\n        /* \"buy_back.sol\":2234:2244  msg.sender */\n      caller\n        /* \"buy_back.sol\":2234:2253  msg.sender == owner */\n      eq\n        /* \"buy_back.sol\":2226:2272  require(msg.sender == owner, \"Not authorized\") */\n      tag_94\n      jumpi\n      mload(0x40)\n      shl(0xe5, 0x461bcd)\n      dup2\n      mstore\n      0x04\n      add\n      tag_70\n      swap1\n      tag_71\n      jump\t// in\n    tag_94:\n        /* \"buy_back.sol\":2609:2620  targetPrice */\n      0x04\n        /* \"buy_back.sol\":2609:2635  targetPrice = _targetPrice */\n      sstore\n        /* \"buy_back.sol\":2533:2643  function setTargetPrice(uint256 _targetPrice) external onlyOwner {... */\n      jump\t// out\n        /* \"buy_back.sol\":3152:4622  function buyback(uint256 roboMoneyAmount) external {... */\n    tag_37:\n        /* \"buy_back.sol\":3240:3241  0 */\n      0x00\n        /* \"buy_back.sol\":3222:3237  roboMoneyAmount */\n      dup2\n        /* \"buy_back.sol\":3222:3241  roboMoneyAmount > 0 */\n      gt\n        /* \"buy_back.sol\":3214:3268  require(roboMoneyAmount > 0, \"Must deposit RoboMoney\") */\n      tag_98\n      jumpi\n      mload(0x40)\n      shl(0xe5, 0x461bcd)\n      dup2\n      mstore\n        /* \"#utility.yul\":3434:3436   */\n      0x20\n        /* \"buy_back.sol\":3214:3268  require(roboMoneyAmount > 0, \"Must deposit RoboMoney\") */\n      0x04\n      dup3\n      add\n        /* \"#utility.yul\":3416:3437   */\n      mstore\n        /* \"#utility.yul\":3473:3475   */\n      0x16\n        /* \"#utility.yul\":3453:3471   */\n      0x24\n      dup3\n      add\n        /* \"#utility.yul\":3446:3476   */\n      mstore\n      shl(0x50, 0x4d757374206465706f73697420526f626f4d6f6e6579)\n        /* \"#utility.yul\":3492:3510   */\n      0x44\n      dup3\n      add\n        /* \"#utility.yul\":3485:3537   */\n      mstore\n        /* \"#utility.yul\":3554:3572   */\n      0x64\n      add\n        /* \"buy_back.sol\":3214:3268  require(roboMoneyAmount > 0, \"Must deposit RoboMoney\") */\n      tag_70\n        /* \"#utility.yul\":3232:3578   */\n      jump\n        /* \"buy_back.sol\":3214:3268  require(roboMoneyAmount > 0, \"Must deposit RoboMoney\") */\n    tag_98:\n        /* \"buy_back.sol\":3354:3363  roboMoney */\n      sload(0x02)\n        /* \"buy_back.sol\":3343:3401  IRoboMoney(roboMoney).allowance(msg.sender, address(this)) */\n      mload(0x40)\n      shl(0xe1, 0x6eb1769f)\n      dup2\n      mstore\n        /* \"buy_back.sol\":3375:3385  msg.sender */\n      caller\n        /* \"buy_back.sol\":3343:3401  IRoboMoney(roboMoney).allowance(msg.sender, address(this)) */\n      0x04\n      dup3\n      add\n        /* \"#utility.yul\":3757:3808   */\n      mstore\n        /* \"buy_back.sol\":3395:3399  this */\n      address\n        /* \"#utility.yul\":3824:3842   */\n      0x24\n      dup3\n      add\n        /* \"#utility.yul\":3817:3877   */\n      mstore\n        /* \"buy_back.sol\":3323:3340  uint256 allowance */\n      0x00\n      swap2\n      sub(shl(0xa0, 0x01), 0x01)\n        /* \"buy_back.sol\":3354:3363  roboMoney */\n      and\n      swap1\n        /* \"buy_back.sol\":3343:3374  IRoboMoney(roboMoney).allowance */\n      0xdd62ed3e\n      swap1\n        /* \"#utility.yul\":3730:3748   */\n      0x44\n      add\n        /* \"buy_back.sol\":3343:3401  IRoboMoney(roboMoney).allowance(msg.sender, address(this)) */\n      0x20\n      mload(0x40)\n      dup1\n      dup4\n      sub\n      dup2\n      dup7\n      gas\n      staticcall\n      iszero\n      dup1\n      iszero\n      tag_104\n      jumpi\n      returndatacopy(0x00, 0x00, returndatasize)\n      revert(0x00, returndatasize)\n    tag_104:\n      pop\n      pop\n      pop\n      pop\n      mload(0x40)\n      returndatasize\n      not(0x1f)\n      0x1f\n      dup3\n      add\n      and\n      dup3\n      add\n      dup1\n      0x40\n      mstore\n      pop\n      dup2\n      add\n      swap1\n      tag_105\n      swap2\n      swap1\n      tag_80\n      jump\t// in\n    tag_105:\n        /* \"buy_back.sol\":3323:3401  uint256 allowance = IRoboMoney(roboMoney).allowance(msg.sender, address(this)) */\n      swap1\n      pop\n        /* \"buy_back.sol\":3433:3448  roboMoneyAmount */\n      dup2\n        /* \"buy_back.sol\":3420:3429  allowance */\n      dup2\n        /* \"buy_back.sol\":3420:3448  allowance >= roboMoneyAmount */\n      lt\n      iszero\n        /* \"buy_back.sol\":3412:3485  require(allowance >= roboMoneyAmount, \"Insufficient RoboMoney allowance\") */\n      tag_106\n      jumpi\n      mload(0x40)\n      shl(0xe5, 0x461bcd)\n      dup2\n      mstore\n        /* \"#utility.yul\":4090:4092   */\n      0x20\n        /* \"buy_back.sol\":3412:3485  require(allowance >= roboMoneyAmount, \"Insufficient RoboMoney allowance\") */\n      0x04\n      dup3\n      add\n        /* \"#utility.yul\":4072:4093   */\n      dup2\n      swap1\n      mstore\n        /* \"#utility.yul\":4109:4127   */\n      0x24\n      dup3\n      add\n        /* \"#utility.yul\":4102:4132   */\n      mstore\n        /* \"#utility.yul\":4168:4202   */\n      0x496e73756666696369656e7420526f626f4d6f6e657920616c6c6f77616e6365\n        /* \"#utility.yul\":4148:4166   */\n      0x44\n      dup3\n      add\n        /* \"#utility.yul\":4141:4203   */\n      mstore\n        /* \"#utility.yul\":4220:4238   */\n      0x64\n      add\n        /* \"buy_back.sol\":3412:3485  require(allowance >= roboMoneyAmount, \"Insufficient RoboMoney allowance\") */\n      tag_70\n        /* \"#utility.yul\":3888:4244   */\n      jump\n        /* \"buy_back.sol\":3412:3485  require(allowance >= roboMoneyAmount, \"Insufficient RoboMoney allowance\") */\n    tag_106:\n        /* \"buy_back.sol\":3581:3590  roboMoney */\n      sload(0x02)\n        /* \"buy_back.sol\":3570:3648  IRoboMoney(roboMoney).transferFrom(msg.sender, address(this), roboMoneyAmount) */\n      mload(0x40)\n      shl(0xe0, 0x23b872dd)\n      dup2\n      mstore\n        /* \"buy_back.sol\":3605:3615  msg.sender */\n      caller\n        /* \"buy_back.sol\":3570:3648  IRoboMoney(roboMoney).transferFrom(msg.sender, address(this), roboMoneyAmount) */\n      0x04\n      dup3\n      add\n        /* \"#utility.yul\":4451:4502   */\n      mstore\n        /* \"buy_back.sol\":3625:3629  this */\n      address\n        /* \"#utility.yul\":4518:4536   */\n      0x24\n      dup3\n      add\n        /* \"#utility.yul\":4511:4571   */\n      mstore\n        /* \"#utility.yul\":4587:4605   */\n      0x44\n      dup2\n      add\n        /* \"#utility.yul\":4580:4614   */\n      dup5\n      swap1\n      mstore\n        /* \"buy_back.sol\":3551:3567  bool transferred */\n      0x00\n      swap2\n      sub(shl(0xa0, 0x01), 0x01)\n        /* \"buy_back.sol\":3581:3590  roboMoney */\n      and\n      swap1\n        /* \"buy_back.sol\":3570:3604  IRoboMoney(roboMoney).transferFrom */\n      0x23b872dd\n      swap1\n        /* \"#utility.yul\":4424:4442   */\n      0x64\n      add\n        /* \"buy_back.sol\":3570:3648  IRoboMoney(roboMoney).transferFrom(msg.sender, address(this), roboMoneyAmount) */\n      0x20\n      mload(0x40)\n      dup1\n      dup4\n      sub\n      dup2\n      0x00\n      dup8\n      gas\n      call\n      iszero\n      dup1\n      iszero\n      tag_112\n      jumpi\n      returndatacopy(0x00, 0x00, returndatasize)\n      revert(0x00, returndatasize)\n    tag_112:\n      pop\n      pop\n      pop\n      pop\n      mload(0x40)\n      returndatasize\n      not(0x1f)\n      0x1f\n      dup3\n      add\n      and\n      dup3\n      add\n      dup1\n      0x40\n      mstore\n      pop\n      dup2\n      add\n      swap1\n      tag_113\n      swap2\n      swap1\n      tag_89\n      jump\t// in\n    tag_113:\n        /* \"buy_back.sol\":3551:3648  bool transferred = IRoboMoney(roboMoney).transferFrom(msg.sender, address(this), roboMoneyAmount) */\n      swap1\n      pop\n        /* \"buy_back.sol\":3667:3678  transferred */\n      dup1\n        /* \"buy_back.sol\":3659:3708  require(transferred, \"RoboMoney transfer failed\") */\n      tag_114\n      jumpi\n      mload(0x40)\n      shl(0xe5, 0x461bcd)\n      dup2\n      mstore\n        /* \"#utility.yul\":4827:4829   */\n      0x20\n        /* \"buy_back.sol\":3659:3708  require(transferred, \"RoboMoney transfer failed\") */\n      0x04\n      dup3\n      add\n        /* \"#utility.yul\":4809:4830   */\n      mstore\n        /* \"#utility.yul\":4866:4868   */\n      0x19\n        /* \"#utility.yul\":4846:4864   */\n      0x24\n      dup3\n      add\n        /* \"#utility.yul\":4839:4869   */\n      mstore\n        /* \"#utility.yul\":4905:4932   */\n      0x526f626f4d6f6e6579207472616e73666572206661696c656400000000000000\n        /* \"#utility.yul\":4885:4903   */\n      0x44\n      dup3\n      add\n        /* \"#utility.yul\":4878:4933   */\n      mstore\n        /* \"#utility.yul\":4950:4968   */\n      0x64\n      add\n        /* \"buy_back.sol\":3659:3708  require(transferred, \"RoboMoney transfer failed\") */\n      tag_70\n        /* \"#utility.yul\":4625:4974   */\n      jump\n        /* \"buy_back.sol\":3659:3708  require(transferred, \"RoboMoney transfer failed\") */\n    tag_114:\n        /* \"buy_back.sol\":3859:3879  uint256 premiumPrice */\n      0x00\n        /* \"buy_back.sol\":3920:3923  100 */\n      0x64\n        /* \"buy_back.sol\":3904:3915  premiumRate */\n      sload(0x03)\n        /* \"buy_back.sol\":3898:3901  100 */\n      0x64\n        /* \"buy_back.sol\":3898:3915  100 + premiumRate */\n      tag_117\n      swap2\n      swap1\n      tag_118\n      jump\t// in\n    tag_117:\n        /* \"buy_back.sol\":3883:3894  targetPrice */\n      sload(0x04)\n        /* \"buy_back.sol\":3883:3916  targetPrice * (100 + premiumRate) */\n      tag_119\n      swap2\n      swap1\n      tag_120\n      jump\t// in\n    tag_119:\n        /* \"buy_back.sol\":3882:3923  (targetPrice * (100 + premiumRate)) / 100 */\n      tag_121\n      swap2\n      swap1\n      tag_122\n      jump\t// in\n    tag_121:\n        /* \"buy_back.sol\":3859:3923  uint256 premiumPrice = (targetPrice * (100 + premiumRate)) / 100 */\n      swap1\n      pop\n        /* \"buy_back.sol\":3934:3953  uint256 tokenAmount */\n      0x00\n        /* \"buy_back.sol\":3991:3995  1e18 */\n      0x0de0b6b3a7640000\n        /* \"buy_back.sol\":3957:3987  roboMoneyAmount * premiumPrice */\n      tag_123\n        /* \"buy_back.sol\":3859:3923  uint256 premiumPrice = (targetPrice * (100 + premiumRate)) / 100 */\n      dup4\n        /* \"buy_back.sol\":3957:3972  roboMoneyAmount */\n      dup8\n        /* \"buy_back.sol\":3957:3987  roboMoneyAmount * premiumPrice */\n      tag_120\n      jump\t// in\n    tag_123:\n        /* \"buy_back.sol\":3956:3995  (roboMoneyAmount * premiumPrice) / 1e18 */\n      tag_124\n      swap2\n      swap1\n      tag_122\n      jump\t// in\n    tag_124:\n        /* \"buy_back.sol\":4096:4108  paymentToken */\n      sload(0x01)\n        /* \"buy_back.sol\":4089:4134  IERC20(paymentToken).balanceOf(address(this)) */\n      mload(0x40)\n      shl(0xe0, 0x70a08231)\n      dup2\n      mstore\n        /* \"buy_back.sol\":4128:4132  this */\n      address\n        /* \"buy_back.sol\":4089:4134  IERC20(paymentToken).balanceOf(address(this)) */\n      0x04\n      dup3\n      add\n        /* \"#utility.yul\":345:396   */\n      mstore\n        /* \"buy_back.sol\":3934:3995  uint256 tokenAmount = (roboMoneyAmount * premiumPrice) / 1e18 */\n      swap2\n      swap3\n      pop\n        /* \"buy_back.sol\":4064:4086  uint256 currentBalance */\n      0x00\n      swap2\n      sub(shl(0xa0, 0x01), 0x01)\n        /* \"buy_back.sol\":4096:4108  paymentToken */\n      swap1\n      swap2\n      and\n      swap1\n        /* \"buy_back.sol\":4089:4119  IERC20(paymentToken).balanceOf */\n      0x70a08231\n      swap1\n        /* \"#utility.yul\":318:336   */\n      0x24\n      add\n        /* \"buy_back.sol\":4089:4134  IERC20(paymentToken).balanceOf(address(this)) */\n      0x20\n      mload(0x40)\n      dup1\n      dup4\n      sub\n      dup2\n      dup7\n      gas\n      staticcall\n      iszero\n      dup1\n      iszero\n      tag_127\n      jumpi\n      returndatacopy(0x00, 0x00, returndatasize)\n      revert(0x00, returndatasize)\n    tag_127:\n      pop\n      pop\n      pop\n      pop\n      mload(0x40)\n      returndatasize\n      not(0x1f)\n      0x1f\n      dup3\n      add\n      and\n      dup3\n      add\n      dup1\n      0x40\n      mstore\n      pop\n      dup2\n      add\n      swap1\n      tag_128\n      swap2\n      swap1\n      tag_80\n      jump\t// in\n    tag_128:\n        /* \"buy_back.sol\":4064:4134  uint256 currentBalance = IERC20(paymentToken).balanceOf(address(this)) */\n      swap1\n      pop\n        /* \"buy_back.sol\":4171:4182  tokenAmount */\n      dup2\n        /* \"buy_back.sol\":4153:4167  currentBalance */\n      dup2\n        /* \"buy_back.sol\":4153:4182  currentBalance >= tokenAmount */\n      lt\n      iszero\n        /* \"buy_back.sol\":4145:4222  require(currentBalance >= tokenAmount, \"Not enough paymentToken in contract\") */\n      tag_129\n      jumpi\n      mload(0x40)\n      shl(0xe5, 0x461bcd)\n      dup2\n      mstore\n        /* \"#utility.yul\":5838:5840   */\n      0x20\n        /* \"buy_back.sol\":4145:4222  require(currentBalance >= tokenAmount, \"Not enough paymentToken in contract\") */\n      0x04\n      dup3\n      add\n        /* \"#utility.yul\":5820:5841   */\n      mstore\n        /* \"#utility.yul\":5877:5879   */\n      0x23\n        /* \"#utility.yul\":5857:5875   */\n      0x24\n      dup3\n      add\n        /* \"#utility.yul\":5850:5880   */\n      mstore\n        /* \"#utility.yul\":5916:5950   */\n      0x4e6f7420656e6f756768207061796d656e74546f6b656e20696e20636f6e7472\n        /* \"#utility.yul\":5896:5914   */\n      0x44\n      dup3\n      add\n        /* \"#utility.yul\":5889:5951   */\n      mstore\n      shl(0xea, 0x1858dd)\n        /* \"#utility.yul\":5967:5985   */\n      0x64\n      dup3\n      add\n        /* \"#utility.yul\":5960:5993   */\n      mstore\n        /* \"#utility.yul\":6010:6029   */\n      0x84\n      add\n        /* \"buy_back.sol\":4145:4222  require(currentBalance >= tokenAmount, \"Not enough paymentToken in contract\") */\n      tag_70\n        /* \"#utility.yul\":5636:6035   */\n      jump\n        /* \"buy_back.sol\":4145:4222  require(currentBalance >= tokenAmount, \"Not enough paymentToken in contract\") */\n    tag_129:\n        /* \"buy_back.sol\":4305:4317  paymentToken */\n      sload(0x01)\n        /* \"buy_back.sol\":4298:4352  IERC20(paymentToken).transfer(msg.sender, tokenAmount) */\n      mload(0x40)\n      shl(0xe0, 0xa9059cbb)\n      dup2\n      mstore\n        /* \"buy_back.sol\":4328:4338  msg.sender */\n      caller\n        /* \"buy_back.sol\":4298:4352  IERC20(paymentToken).transfer(msg.sender, tokenAmount) */\n      0x04\n      dup3\n      add\n        /* \"#utility.yul\":2485:2536   */\n      mstore\n        /* \"#utility.yul\":2552:2570   */\n      0x24\n      dup2\n      add\n        /* \"#utility.yul\":2545:2579   */\n      dup5\n      swap1\n      mstore\n        /* \"buy_back.sol\":4281:4295  bool tokenSent */\n      0x00\n      swap2\n      sub(shl(0xa0, 0x01), 0x01)\n        /* \"buy_back.sol\":4305:4317  paymentToken */\n      and\n      swap1\n        /* \"buy_back.sol\":4298:4327  IERC20(paymentToken).transfer */\n      0xa9059cbb\n      swap1\n        /* \"#utility.yul\":2458:2476   */\n      0x44\n      add\n        /* \"buy_back.sol\":4298:4352  IERC20(paymentToken).transfer(msg.sender, tokenAmount) */\n      0x20\n      mload(0x40)\n      dup1\n      dup4\n      sub\n      dup2\n      0x00\n      dup8\n      gas\n      call\n      iszero\n      dup1\n      iszero\n      tag_134\n      jumpi\n      returndatacopy(0x00, 0x00, returndatasize)\n      revert(0x00, returndatasize)\n    tag_134:\n      pop\n      pop\n      pop\n      pop\n      mload(0x40)\n      returndatasize\n      not(0x1f)\n      0x1f\n      dup3\n      add\n      and\n      dup3\n      add\n      dup1\n      0x40\n      mstore\n      pop\n      dup2\n      add\n      swap1\n      tag_135\n      swap2\n      swap1\n      tag_89\n      jump\t// in\n    tag_135:\n        /* \"buy_back.sol\":4281:4352  bool tokenSent = IERC20(paymentToken).transfer(msg.sender, tokenAmount) */\n      swap1\n      pop\n        /* \"buy_back.sol\":4371:4380  tokenSent */\n      dup1\n        /* \"buy_back.sol\":4363:4414  require(tokenSent, \"Payment token transfer failed\") */\n      tag_136\n      jumpi\n      mload(0x40)\n      shl(0xe5, 0x461bcd)\n      dup2\n      mstore\n        /* \"#utility.yul\":6242:6244   */\n      0x20\n        /* \"buy_back.sol\":4363:4414  require(tokenSent, \"Payment token transfer failed\") */\n      0x04\n      dup3\n      add\n        /* \"#utility.yul\":6224:6245   */\n      mstore\n        /* \"#utility.yul\":6281:6283   */\n      0x1d\n        /* \"#utility.yul\":6261:6279   */\n      0x24\n      dup3\n      add\n        /* \"#utility.yul\":6254:6284   */\n      mstore\n        /* \"#utility.yul\":6320:6351   */\n      0x5061796d656e7420746f6b656e207472616e73666572206661696c6564000000\n        /* \"#utility.yul\":6300:6318   */\n      0x44\n      dup3\n      add\n        /* \"#utility.yul\":6293:6352   */\n      mstore\n        /* \"#utility.yul\":6369:6387   */\n      0x64\n      add\n        /* \"buy_back.sol\":4363:4414  require(tokenSent, \"Payment token transfer failed\") */\n      tag_70\n        /* \"#utility.yul\":6040:6393   */\n      jump\n        /* \"buy_back.sol\":4363:4414  require(tokenSent, \"Payment token transfer failed\") */\n    tag_136:\n        /* \"buy_back.sol\":4492:4501  roboMoney */\n      sload(0x02)\n        /* \"buy_back.sol\":4481:4539  IRoboMoney(roboMoney).burn(address(this), roboMoneyAmount) */\n      mload(0x40)\n      shl(0xe2, 0x2770a7eb)\n      dup2\n      mstore\n        /* \"buy_back.sol\":4516:4520  this */\n      address\n        /* \"buy_back.sol\":4481:4539  IRoboMoney(roboMoney).burn(address(this), roboMoneyAmount) */\n      0x04\n      dup3\n      add\n        /* \"#utility.yul\":2485:2536   */\n      mstore\n        /* \"#utility.yul\":2552:2570   */\n      0x24\n      dup2\n      add\n        /* \"#utility.yul\":2545:2579   */\n      dup10\n      swap1\n      mstore\n      sub(shl(0xa0, 0x01), 0x01)\n        /* \"buy_back.sol\":4492:4501  roboMoney */\n      swap1\n      swap2\n      and\n      swap1\n        /* \"buy_back.sol\":4481:4507  IRoboMoney(roboMoney).burn */\n      0x9dc29fac\n      swap1\n        /* \"#utility.yul\":2458:2476   */\n      0x44\n      add\n        /* \"buy_back.sol\":4481:4539  IRoboMoney(roboMoney).burn(address(this), roboMoneyAmount) */\n      0x00\n      mload(0x40)\n      dup1\n      dup4\n      sub\n      dup2\n      0x00\n      dup8\n      dup1\n      extcodesize\n      iszero\n      dup1\n      iszero\n      tag_140\n      jumpi\n      revert(0x00, 0x00)\n    tag_140:\n      pop\n      gas\n      call\n      iszero\n      dup1\n      iszero\n      tag_142\n      jumpi\n      returndatacopy(0x00, 0x00, returndatasize)\n      revert(0x00, returndatasize)\n    tag_142:\n      pop\n      pop\n        /* \"buy_back.sol\":4557:4614  BuyBackExecuted(msg.sender, roboMoneyAmount, tokenAmount) */\n      0x40\n      dup1\n      mload\n        /* \"#utility.yul\":6572:6597   */\n      dup11\n      dup2\n      mstore\n        /* \"#utility.yul\":6628:6630   */\n      0x20\n        /* \"#utility.yul\":6613:6631   */\n      dup2\n      add\n        /* \"#utility.yul\":6606:6640   */\n      dup8\n      swap1\n      mstore\n        /* \"buy_back.sol\":4573:4583  msg.sender */\n      caller\n      swap4\n      pop\n        /* \"buy_back.sol\":4557:4614  BuyBackExecuted(msg.sender, roboMoneyAmount, tokenAmount) */\n      0xcb7f55d0b91628d4520b789339dae4803ab07182ea89d138acbd965dac51dc65\n      swap3\n      pop\n        /* \"#utility.yul\":6545:6563   */\n      add\n        /* \"buy_back.sol\":4557:4614  BuyBackExecuted(msg.sender, roboMoneyAmount, tokenAmount) */\n      mload(0x40)\n      dup1\n      swap2\n      sub\n      swap1\n      log2\n        /* \"buy_back.sol\":3203:4622  {... */\n      pop\n      pop\n      pop\n      pop\n      pop\n      pop\n        /* \"buy_back.sol\":3152:4622  function buyback(uint256 roboMoneyAmount) external {... */\n      pop\n      jump\t// out\n        /* \"buy_back.sol\":2300:2525  function setPremiumRate(uint256 _premiumRate) external onlyOwner {... */\n    tag_43:\n        /* \"buy_back.sol\":2248:2253  owner */\n      and(sub(shl(0xa0, 0x01), 0x01), sload(0x00))\n        /* \"buy_back.sol\":2234:2244  msg.sender */\n      caller\n        /* \"buy_back.sol\":2234:2253  msg.sender == owner */\n      eq\n        /* \"buy_back.sol\":2226:2272  require(msg.sender == owner, \"Not authorized\") */\n      tag_146\n      jumpi\n      mload(0x40)\n      shl(0xe5, 0x461bcd)\n      dup2\n      mstore\n      0x04\n      add\n      tag_70\n      swap1\n      tag_71\n      jump\t// in\n    tag_146:\n        /* \"buy_back.sol\":2452:2455  100 */\n      0x64\n        /* \"buy_back.sol\":2436:2448  _premiumRate */\n      dup2\n        /* \"buy_back.sol\":2436:2455  _premiumRate <= 100 */\n      gt\n      iszero\n        /* \"buy_back.sol\":2428:2480  require(_premiumRate <= 100, \"Invalid premium rate\") */\n      tag_149\n      jumpi\n      mload(0x40)\n      shl(0xe5, 0x461bcd)\n      dup2\n      mstore\n        /* \"#utility.yul\":6853:6855   */\n      0x20\n        /* \"buy_back.sol\":2428:2480  require(_premiumRate <= 100, \"Invalid premium rate\") */\n      0x04\n      dup3\n      add\n        /* \"#utility.yul\":6835:6856   */\n      mstore\n        /* \"#utility.yul\":6892:6894   */\n      0x14\n        /* \"#utility.yul\":6872:6890   */\n      0x24\n      dup3\n      add\n        /* \"#utility.yul\":6865:6895   */\n      mstore\n      shl(0x60, 0x496e76616c6964207072656d69756d2072617465)\n        /* \"#utility.yul\":6911:6929   */\n      0x44\n      dup3\n      add\n        /* \"#utility.yul\":6904:6954   */\n      mstore\n        /* \"#utility.yul\":6971:6989   */\n      0x64\n      add\n        /* \"buy_back.sol\":2428:2480  require(_premiumRate <= 100, \"Invalid premium rate\") */\n      tag_70\n        /* \"#utility.yul\":6651:6995   */\n      jump\n        /* \"buy_back.sol\":2428:2480  require(_premiumRate <= 100, \"Invalid premium rate\") */\n    tag_149:\n        /* \"buy_back.sol\":2491:2502  premiumRate */\n      0x03\n        /* \"buy_back.sol\":2491:2517  premiumRate = _premiumRate */\n      sstore\n        /* \"buy_back.sol\":2300:2525  function setPremiumRate(uint256 _premiumRate) external onlyOwner {... */\n      jump\t// out\n        /* \"buy_back.sol\":6557:6921  function canExecuteBuyback(uint256 roboMoneyAmount) external view returns (bool) {... */\n    tag_46:\n        /* \"buy_back.sol\":6632:6636  bool */\n      0x00\n        /* \"buy_back.sol\":6649:6669  uint256 premiumPrice */\n      0x00\n        /* \"buy_back.sol\":6710:6713  100 */\n      0x64\n        /* \"buy_back.sol\":6694:6705  premiumRate */\n      sload(0x03)\n        /* \"buy_back.sol\":6688:6691  100 */\n      0x64\n        /* \"buy_back.sol\":6688:6705  100 + premiumRate */\n      tag_153\n      swap2\n      swap1\n      tag_118\n      jump\t// in\n    tag_153:\n        /* \"buy_back.sol\":6673:6684  targetPrice */\n      sload(0x04)\n        /* \"buy_back.sol\":6673:6706  targetPrice * (100 + premiumRate) */\n      tag_154\n      swap2\n      swap1\n      tag_120\n      jump\t// in\n    tag_154:\n        /* \"buy_back.sol\":6672:6713  (targetPrice * (100 + premiumRate)) / 100 */\n      tag_155\n      swap2\n      swap1\n      tag_122\n      jump\t// in\n    tag_155:\n        /* \"buy_back.sol\":6649:6713  uint256 premiumPrice = (targetPrice * (100 + premiumRate)) / 100 */\n      swap1\n      pop\n        /* \"buy_back.sol\":6724:6743  uint256 tokenAmount */\n      0x00\n        /* \"buy_back.sol\":6781:6785  1e18 */\n      0x0de0b6b3a7640000\n        /* \"buy_back.sol\":6747:6777  roboMoneyAmount * premiumPrice */\n      tag_156\n        /* \"buy_back.sol\":6649:6713  uint256 premiumPrice = (targetPrice * (100 + premiumRate)) / 100 */\n      dup4\n        /* \"buy_back.sol\":6747:6762  roboMoneyAmount */\n      dup7\n        /* \"buy_back.sol\":6747:6777  roboMoneyAmount * premiumPrice */\n      tag_120\n      jump\t// in\n    tag_156:\n        /* \"buy_back.sol\":6746:6785  (roboMoneyAmount * premiumPrice) / 1e18 */\n      tag_157\n      swap2\n      swap1\n      tag_122\n      jump\t// in\n    tag_157:\n        /* \"buy_back.sol\":6828:6840  paymentToken */\n      sload(0x01)\n        /* \"buy_back.sol\":6821:6866  IERC20(paymentToken).balanceOf(address(this)) */\n      mload(0x40)\n      shl(0xe0, 0x70a08231)\n      dup2\n      mstore\n        /* \"buy_back.sol\":6860:6864  this */\n      address\n        /* \"buy_back.sol\":6821:6866  IERC20(paymentToken).balanceOf(address(this)) */\n      0x04\n      dup3\n      add\n        /* \"#utility.yul\":345:396   */\n      mstore\n        /* \"buy_back.sol\":6724:6785  uint256 tokenAmount = (roboMoneyAmount * premiumPrice) / 1e18 */\n      swap2\n      swap3\n      pop\n        /* \"buy_back.sol\":6796:6818  uint256 currentBalance */\n      0x00\n      swap2\n      sub(shl(0xa0, 0x01), 0x01)\n        /* \"buy_back.sol\":6828:6840  paymentToken */\n      swap1\n      swap2\n      and\n      swap1\n        /* \"buy_back.sol\":6821:6851  IERC20(paymentToken).balanceOf */\n      0x70a08231\n      swap1\n        /* \"#utility.yul\":318:336   */\n      0x24\n      add\n        /* \"buy_back.sol\":6821:6866  IERC20(paymentToken).balanceOf(address(this)) */\n      0x20\n      mload(0x40)\n      dup1\n      dup4\n      sub\n      dup2\n      dup7\n      gas\n      staticcall\n      iszero\n      dup1\n      iszero\n      tag_160\n      jumpi\n      returndatacopy(0x00, 0x00, returndatasize)\n      revert(0x00, returndatasize)\n    tag_160:\n      pop\n      pop\n      pop\n      pop\n      mload(0x40)\n      returndatasize\n      not(0x1f)\n      0x1f\n      dup3\n      add\n      and\n      dup3\n      add\n      dup1\n      0x40\n      mstore\n      pop\n      dup2\n      add\n      swap1\n      tag_161\n      swap2\n      swap1\n      tag_80\n      jump\t// in\n    tag_161:\n        /* \"buy_back.sol\":6884:6913  currentBalance >= tokenAmount */\n      swap2\n      swap1\n      swap2\n      lt\n      iszero\n      swap5\n        /* \"buy_back.sol\":6557:6921  function canExecuteBuyback(uint256 roboMoneyAmount) external view returns (bool) {... */\n      swap4\n      pop\n      pop\n      pop\n      pop\n      jump\t// out\n        /* \"buy_back.sol\":4737:5015  function depositPaymentToken(uint256 amount) external onlyOwner {... */\n    tag_54:\n        /* \"buy_back.sol\":2248:2253  owner */\n      and(sub(shl(0xa0, 0x01), 0x01), sload(0x00))\n        /* \"buy_back.sol\":2234:2244  msg.sender */\n      caller\n        /* \"buy_back.sol\":2234:2253  msg.sender == owner */\n      eq\n        /* \"buy_back.sol\":2226:2272  require(msg.sender == owner, \"Not authorized\") */\n      tag_163\n      jumpi\n      mload(0x40)\n      shl(0xe5, 0x461bcd)\n      dup2\n      mstore\n      0x04\n      add\n      tag_70\n      swap1\n      tag_71\n      jump\t// in\n    tag_163:\n        /* \"buy_back.sol\":4829:4830  0 */\n      0x00\n        /* \"buy_back.sol\":4820:4826  amount */\n      dup2\n        /* \"buy_back.sol\":4820:4830  amount > 0 */\n      gt\n        /* \"buy_back.sol\":4812:4854  require(amount > 0, \"Deposit must be > 0\") */\n      tag_166\n      jumpi\n      mload(0x40)\n      shl(0xe5, 0x461bcd)\n      dup2\n      mstore\n        /* \"#utility.yul\":7202:7204   */\n      0x20\n        /* \"buy_back.sol\":4812:4854  require(amount > 0, \"Deposit must be > 0\") */\n      0x04\n      dup3\n      add\n        /* \"#utility.yul\":7184:7205   */\n      mstore\n        /* \"#utility.yul\":7241:7243   */\n      0x13\n        /* \"#utility.yul\":7221:7239   */\n      0x24\n      dup3\n      add\n        /* \"#utility.yul\":7214:7244   */\n      mstore\n      shl(0x6c, 0x04465706f736974206d757374206265203e203)\n        /* \"#utility.yul\":7260:7278   */\n      0x44\n      dup3\n      add\n        /* \"#utility.yul\":7253:7302   */\n      mstore\n        /* \"#utility.yul\":7319:7337   */\n      0x64\n      add\n        /* \"buy_back.sol\":4812:4854  require(amount > 0, \"Deposit must be > 0\") */\n      tag_70\n        /* \"#utility.yul\":7000:7343   */\n      jump\n        /* \"buy_back.sol\":4812:4854  require(amount > 0, \"Deposit must be > 0\") */\n    tag_166:\n        /* \"buy_back.sol\":4887:4899  paymentToken */\n      sload(0x01)\n        /* \"buy_back.sol\":4880:4948  IERC20(paymentToken).transferFrom(msg.sender, address(this), amount) */\n      mload(0x40)\n      shl(0xe0, 0x23b872dd)\n      dup2\n      mstore\n        /* \"buy_back.sol\":4914:4924  msg.sender */\n      caller\n        /* \"buy_back.sol\":4880:4948  IERC20(paymentToken).transferFrom(msg.sender, address(this), amount) */\n      0x04\n      dup3\n      add\n        /* \"#utility.yul\":4451:4502   */\n      mstore\n        /* \"buy_back.sol\":4934:4938  this */\n      address\n        /* \"#utility.yul\":4518:4536   */\n      0x24\n      dup3\n      add\n        /* \"#utility.yul\":4511:4571   */\n      mstore\n        /* \"#utility.yul\":4587:4605   */\n      0x44\n      dup2\n      add\n        /* \"#utility.yul\":4580:4614   */\n      dup4\n      swap1\n      mstore\n        /* \"buy_back.sol\":4865:4877  bool success */\n      0x00\n      swap2\n      sub(shl(0xa0, 0x01), 0x01)\n        /* \"buy_back.sol\":4887:4899  paymentToken */\n      and\n      swap1\n        /* \"buy_back.sol\":4880:4913  IERC20(paymentToken).transferFrom */\n      0x23b872dd\n      swap1\n        /* \"#utility.yul\":4424:4442   */\n      0x64\n      add\n        /* \"buy_back.sol\":4880:4948  IERC20(paymentToken).transferFrom(msg.sender, address(this), amount) */\n      0x20\n      mload(0x40)\n      dup1\n      dup4\n      sub\n      dup2\n      0x00\n      dup8\n      gas\n      call\n      iszero\n      dup1\n      iszero\n      tag_171\n      jumpi\n      returndatacopy(0x00, 0x00, returndatasize)\n      revert(0x00, returndatasize)\n    tag_171:\n      pop\n      pop\n      pop\n      pop\n      mload(0x40)\n      returndatasize\n      not(0x1f)\n      0x1f\n      dup3\n      add\n      and\n      dup3\n      add\n      dup1\n      0x40\n      mstore\n      pop\n      dup2\n      add\n      swap1\n      tag_172\n      swap2\n      swap1\n      tag_89\n      jump\t// in\n    tag_172:\n        /* \"buy_back.sol\":4865:4948  bool success = IERC20(paymentToken).transferFrom(msg.sender, address(this), amount) */\n      swap1\n      pop\n        /* \"buy_back.sol\":4967:4974  success */\n      dup1\n        /* \"buy_back.sol\":4959:5007  require(success, \"Payment token deposit failed\") */\n      tag_173\n      jumpi\n      mload(0x40)\n      shl(0xe5, 0x461bcd)\n      dup2\n      mstore\n        /* \"#utility.yul\":7550:7552   */\n      0x20\n        /* \"buy_back.sol\":4959:5007  require(success, \"Payment token deposit failed\") */\n      0x04\n      dup3\n      add\n        /* \"#utility.yul\":7532:7553   */\n      mstore\n        /* \"#utility.yul\":7589:7591   */\n      0x1c\n        /* \"#utility.yul\":7569:7587   */\n      0x24\n      dup3\n      add\n        /* \"#utility.yul\":7562:7592   */\n      mstore\n        /* \"#utility.yul\":7628:7658   */\n      0x5061796d656e7420746f6b656e206465706f736974206661696c656400000000\n        /* \"#utility.yul\":7608:7626   */\n      0x44\n      dup3\n      add\n        /* \"#utility.yul\":7601:7659   */\n      mstore\n        /* \"#utility.yul\":7676:7694   */\n      0x64\n      add\n        /* \"buy_back.sol\":4959:5007  require(success, \"Payment token deposit failed\") */\n      tag_70\n        /* \"#utility.yul\":7348:7700   */\n      jump\n        /* \"buy_back.sol\":4959:5007  require(success, \"Payment token deposit failed\") */\n    tag_173:\n        /* \"buy_back.sol\":4801:5015  {... */\n      pop\n        /* \"buy_back.sol\":4737:5015  function depositPaymentToken(uint256 amount) external onlyOwner {... */\n      pop\n      jump\t// out\n        /* \"buy_back.sol\":5650:5785  function contractTokenBalance() external view returns (uint256) {... */\n    tag_56:\n        /* \"buy_back.sol\":5739:5751  paymentToken */\n      sload(0x01)\n        /* \"buy_back.sol\":5732:5777  IERC20(paymentToken).balanceOf(address(this)) */\n      mload(0x40)\n      shl(0xe0, 0x70a08231)\n      dup2\n      mstore\n        /* \"buy_back.sol\":5771:5775  this */\n      address\n        /* \"buy_back.sol\":5732:5777  IERC20(paymentToken).balanceOf(address(this)) */\n      0x04\n      dup3\n      add\n        /* \"#utility.yul\":345:396   */\n      mstore\n        /* \"buy_back.sol\":5705:5712  uint256 */\n      0x00\n      swap2\n      sub(shl(0xa0, 0x01), 0x01)\n        /* \"buy_back.sol\":5739:5751  paymentToken */\n      and\n      swap1\n        /* \"buy_back.sol\":5732:5762  IERC20(paymentToken).balanceOf */\n      0x70a08231\n      swap1\n        /* \"#utility.yul\":318:336   */\n      0x24\n      add\n        /* \"buy_back.sol\":5732:5777  IERC20(paymentToken).balanceOf(address(this)) */\n      0x20\n      mload(0x40)\n      dup1\n      dup4\n      sub\n      dup2\n      dup7\n      gas\n      staticcall\n      iszero\n      dup1\n      iszero\n      tag_179\n      jumpi\n      returndatacopy(0x00, 0x00, returndatasize)\n      revert(0x00, returndatasize)\n    tag_179:\n      pop\n      pop\n      pop\n      pop\n      mload(0x40)\n      returndatasize\n      not(0x1f)\n      0x1f\n      dup3\n      add\n      and\n      dup3\n      add\n      dup1\n      0x40\n      mstore\n      pop\n      dup2\n      add\n      swap1\n      tag_180\n      swap2\n      swap1\n      tag_80\n      jump\t// in\n    tag_180:\n        /* \"buy_back.sol\":5725:5777  return IERC20(paymentToken).balanceOf(address(this)) */\n      swap1\n      pop\n        /* \"buy_back.sol\":5650:5785  function contractTokenBalance() external view returns (uint256) {... */\n      swap1\n      jump\t// out\n        /* \"buy_back.sol\":5960:6402  function maxBuyableRoboMoney() external view returns (uint256) {... */\n    tag_59:\n        /* \"buy_back.sol\":6066:6078  paymentToken */\n      sload(0x01)\n        /* \"buy_back.sol\":6059:6104  IERC20(paymentToken).balanceOf(address(this)) */\n      mload(0x40)\n      shl(0xe0, 0x70a08231)\n      dup2\n      mstore\n        /* \"buy_back.sol\":6098:6102  this */\n      address\n        /* \"buy_back.sol\":6059:6104  IERC20(paymentToken).balanceOf(address(this)) */\n      0x04\n      dup3\n      add\n        /* \"#utility.yul\":345:396   */\n      mstore\n        /* \"buy_back.sol\":6014:6021  uint256 */\n      0x00\n      swap2\n      dup3\n      swap2\n      sub(shl(0xa0, 0x01), 0x01)\n        /* \"buy_back.sol\":6066:6078  paymentToken */\n      swap1\n      swap2\n      and\n      swap1\n        /* \"buy_back.sol\":6059:6089  IERC20(paymentToken).balanceOf */\n      0x70a08231\n      swap1\n        /* \"#utility.yul\":318:336   */\n      0x24\n      add\n        /* \"buy_back.sol\":6059:6104  IERC20(paymentToken).balanceOf(address(this)) */\n      0x20\n      mload(0x40)\n      dup1\n      dup4\n      sub\n      dup2\n      dup7\n      gas\n      staticcall\n      iszero\n      dup1\n      iszero\n      tag_184\n      jumpi\n      returndatacopy(0x00, 0x00, returndatasize)\n      revert(0x00, returndatasize)\n    tag_184:\n      pop\n      pop\n      pop\n      pop\n      mload(0x40)\n      returndatasize\n      not(0x1f)\n      0x1f\n      dup3\n      add\n      and\n      dup3\n      add\n      dup1\n      0x40\n      mstore\n      pop\n      dup2\n      add\n      swap1\n      tag_185\n      swap2\n      swap1\n      tag_80\n      jump\t// in\n    tag_185:\n        /* \"buy_back.sol\":6034:6104  uint256 currentBalance = IERC20(paymentToken).balanceOf(address(this)) */\n      swap1\n      pop\n        /* \"buy_back.sol\":6115:6135  uint256 premiumPrice */\n      0x00\n        /* \"buy_back.sol\":6176:6179  100 */\n      0x64\n        /* \"buy_back.sol\":6160:6171  premiumRate */\n      sload(0x03)\n        /* \"buy_back.sol\":6154:6157  100 */\n      0x64\n        /* \"buy_back.sol\":6154:6171  100 + premiumRate */\n      tag_186\n      swap2\n      swap1\n      tag_118\n      jump\t// in\n    tag_186:\n        /* \"buy_back.sol\":6139:6150  targetPrice */\n      sload(0x04)\n        /* \"buy_back.sol\":6139:6172  targetPrice * (100 + premiumRate) */\n      tag_187\n      swap2\n      swap1\n      tag_120\n      jump\t// in\n    tag_187:\n        /* \"buy_back.sol\":6138:6179  (targetPrice * (100 + premiumRate)) / 100 */\n      tag_188\n      swap2\n      swap1\n      tag_122\n      jump\t// in\n    tag_188:\n        /* \"buy_back.sol\":6115:6179  uint256 premiumPrice = (targetPrice * (100 + premiumRate)) / 100 */\n      swap1\n      pop\n        /* \"buy_back.sol\":6196:6208  premiumPrice */\n      dup1\n        /* \"buy_back.sol\":6212:6213  0 */\n      0x00\n        /* \"buy_back.sol\":6196:6213  premiumPrice == 0 */\n      sub\n        /* \"buy_back.sol\":6192:6250  if (premiumPrice == 0) {... */\n      tag_189\n      jumpi\n        /* \"buy_back.sol\":6237:6238  0 */\n      0x00\n        /* \"buy_back.sol\":6230:6238  return 0 */\n      swap3\n      pop\n      pop\n      pop\n        /* \"buy_back.sol\":5960:6402  function maxBuyableRoboMoney() external view returns (uint256) {... */\n      swap1\n      jump\t// out\n        /* \"buy_back.sol\":6192:6250  if (premiumPrice == 0) {... */\n    tag_189:\n        /* \"buy_back.sol\":6382:6394  premiumPrice */\n      dup1\n        /* \"buy_back.sol\":6357:6378  currentBalance * 1e18 */\n      tag_190\n        /* \"buy_back.sol\":6357:6371  currentBalance */\n      dup4\n        /* \"buy_back.sol\":6374:6378  1e18 */\n      0x0de0b6b3a7640000\n        /* \"buy_back.sol\":6357:6378  currentBalance * 1e18 */\n      tag_120\n      jump\t// in\n    tag_190:\n        /* \"buy_back.sol\":6356:6394  (currentBalance * 1e18) / premiumPrice */\n      tag_191\n      swap2\n      swap1\n      tag_122\n      jump\t// in\n    tag_191:\n        /* \"buy_back.sol\":6349:6394  return (currentBalance * 1e18) / premiumPrice */\n      swap3\n      pop\n      pop\n      pop\n        /* \"buy_back.sol\":5960:6402  function maxBuyableRoboMoney() external view returns (uint256) {... */\n      swap1\n      jump\t// out\n        /* \"buy_back.sol\":2651:2881  function transferOwnership(address newOwner) external onlyOwner {... */\n    tag_67:\n        /* \"buy_back.sol\":2248:2253  owner */\n      and(sub(shl(0xa0, 0x01), 0x01), sload(0x00))\n        /* \"buy_back.sol\":2234:2244  msg.sender */\n      caller\n        /* \"buy_back.sol\":2234:2253  msg.sender == owner */\n      eq\n        /* \"buy_back.sol\":2226:2272  require(msg.sender == owner, \"Not authorized\") */\n      tag_193\n      jumpi\n      mload(0x40)\n      shl(0xe5, 0x461bcd)\n      dup2\n      mstore\n      0x04\n      add\n      tag_70\n      swap1\n      tag_71\n      jump\t// in\n    tag_193:\n      sub(shl(0xa0, 0x01), 0x01)\n        /* \"buy_back.sol\":2734:2756  newOwner != address(0) */\n      dup2\n      and\n        /* \"buy_back.sol\":2726:2793  require(newOwner != address(0), \"New owner cannot be zero address\") */\n      tag_196\n      jumpi\n      mload(0x40)\n      shl(0xe5, 0x461bcd)\n      dup2\n      mstore\n        /* \"#utility.yul\":7907:7909   */\n      0x20\n        /* \"buy_back.sol\":2726:2793  require(newOwner != address(0), \"New owner cannot be zero address\") */\n      0x04\n      dup3\n      add\n        /* \"#utility.yul\":7889:7910   */\n      dup2\n      swap1\n      mstore\n        /* \"#utility.yul\":7926:7944   */\n      0x24\n      dup3\n      add\n        /* \"#utility.yul\":7919:7949   */\n      mstore\n        /* \"#utility.yul\":7985:8019   */\n      0x4e6577206f776e65722063616e6e6f74206265207a65726f2061646472657373\n        /* \"#utility.yul\":7965:7983   */\n      0x44\n      dup3\n      add\n        /* \"#utility.yul\":7958:8020   */\n      mstore\n        /* \"#utility.yul\":8037:8055   */\n      0x64\n      add\n        /* \"buy_back.sol\":2726:2793  require(newOwner != address(0), \"New owner cannot be zero address\") */\n      tag_70\n        /* \"#utility.yul\":7705:8061   */\n      jump\n        /* \"buy_back.sol\":2726:2793  require(newOwner != address(0), \"New owner cannot be zero address\") */\n    tag_196:\n        /* \"buy_back.sol\":2830:2835  owner */\n      0x00\n      dup1\n      sload\n        /* \"buy_back.sol\":2809:2846  OwnershipTransferred(owner, newOwner) */\n      mload(0x40)\n      sub(shl(0xa0, 0x01), 0x01)\n      dup1\n      dup6\n      and\n      swap4\n        /* \"buy_back.sol\":2830:2835  owner */\n      swap3\n      and\n      swap2\n        /* \"buy_back.sol\":2809:2846  OwnershipTransferred(owner, newOwner) */\n      0x8be0079c531659141344cd1fd0a4f28419497f9722a3daafe3b4186f6b6457e0\n      swap2\n      log3\n        /* \"buy_back.sol\":2857:2862  owner */\n      0x00\n        /* \"buy_back.sol\":2857:2873  owner = newOwner */\n      dup1\n      sload\n      not(sub(shl(0xa0, 0x01), 0x01))\n      and\n      sub(shl(0xa0, 0x01), 0x01)\n      swap3\n      swap1\n      swap3\n      and\n      swap2\n      swap1\n      swap2\n      or\n      swap1\n      sstore\n        /* \"buy_back.sol\":2651:2881  function transferOwnership(address newOwner) external onlyOwner {... */\n      jump\t// out\n        /* \"#utility.yul\":14:194   */\n    tag_22:\n        /* \"#utility.yul\":73:79   */\n      0x00\n        /* \"#utility.yul\":126:128   */\n      0x20\n        /* \"#utility.yul\":114:123   */\n      dup3\n        /* \"#utility.yul\":105:112   */\n      dup5\n        /* \"#utility.yul\":101:124   */\n      sub\n        /* \"#utility.yul\":97:129   */\n      slt\n        /* \"#utility.yul\":94:146   */\n      iszero\n      tag_202\n      jumpi\n        /* \"#utility.yul\":142:143   */\n      0x00\n        /* \"#utility.yul\":139:140   */\n      0x00\n        /* \"#utility.yul\":132:144   */\n      revert\n        /* \"#utility.yul\":94:146   */\n    tag_202:\n      pop\n        /* \"#utility.yul\":165:188   */\n      calldataload\n      swap2\n        /* \"#utility.yul\":14:194   */\n      swap1\n      pop\n      jump\t// out\n        /* \"#utility.yul\":781:1067   */\n    tag_66:\n        /* \"#utility.yul\":840:846   */\n      0x00\n        /* \"#utility.yul\":893:895   */\n      0x20\n        /* \"#utility.yul\":881:890   */\n      dup3\n        /* \"#utility.yul\":872:879   */\n      dup5\n        /* \"#utility.yul\":868:891   */\n      sub\n        /* \"#utility.yul\":864:896   */\n      slt\n        /* \"#utility.yul\":861:913   */\n      iszero\n      tag_207\n      jumpi\n        /* \"#utility.yul\":909:910   */\n      0x00\n        /* \"#utility.yul\":906:907   */\n      0x00\n        /* \"#utility.yul\":899:911   */\n      revert\n        /* \"#utility.yul\":861:913   */\n    tag_207:\n        /* \"#utility.yul\":935:958   */\n      dup2\n      calldataload\n      sub(shl(0xa0, 0x01), 0x01)\n        /* \"#utility.yul\":987:1018   */\n      dup2\n      and\n        /* \"#utility.yul\":977:1019   */\n      dup2\n      eq\n        /* \"#utility.yul\":967:1037   */\n      tag_208\n      jumpi\n        /* \"#utility.yul\":1033:1034   */\n      0x00\n        /* \"#utility.yul\":1030:1031   */\n      0x00\n        /* \"#utility.yul\":1023:1035   */\n      revert\n        /* \"#utility.yul\":967:1037   */\n    tag_208:\n        /* \"#utility.yul\":1056:1061   */\n      swap4\n        /* \"#utility.yul\":781:1067   */\n      swap3\n      pop\n      pop\n      pop\n      jump\t// out\n        /* \"#utility.yul\":1072:1410   */\n    tag_71:\n        /* \"#utility.yul\":1274:1276   */\n      0x20\n        /* \"#utility.yul\":1256:1277   */\n      dup1\n      dup3\n      mstore\n        /* \"#utility.yul\":1313:1315   */\n      0x0e\n        /* \"#utility.yul\":1293:1311   */\n      swap1\n      dup3\n      add\n        /* \"#utility.yul\":1286:1316   */\n      mstore\n      shl(0x92, 0x139bdd08185d5d1a1bdc9a5e9959)\n        /* \"#utility.yul\":1347:1349   */\n      0x40\n        /* \"#utility.yul\":1332:1350   */\n      dup3\n      add\n        /* \"#utility.yul\":1325:1369   */\n      mstore\n        /* \"#utility.yul\":1401:1403   */\n      0x60\n        /* \"#utility.yul\":1386:1404   */\n      add\n      swap1\n        /* \"#utility.yul\":1072:1410   */\n      jump\t// out\n        /* \"#utility.yul\":1764:1948   */\n    tag_80:\n        /* \"#utility.yul\":1834:1840   */\n      0x00\n        /* \"#utility.yul\":1887:1889   */\n      0x20\n        /* \"#utility.yul\":1875:1884   */\n      dup3\n        /* \"#utility.yul\":1866:1873   */\n      dup5\n        /* \"#utility.yul\":1862:1885   */\n      sub\n        /* \"#utility.yul\":1858:1890   */\n      slt\n        /* \"#utility.yul\":1855:1907   */\n      iszero\n      tag_212\n      jumpi\n        /* \"#utility.yul\":1903:1904   */\n      0x00\n        /* \"#utility.yul\":1900:1901   */\n      0x00\n        /* \"#utility.yul\":1893:1905   */\n      revert\n        /* \"#utility.yul\":1855:1907   */\n    tag_212:\n      pop\n        /* \"#utility.yul\":1926:1942   */\n      mload\n      swap2\n        /* \"#utility.yul\":1764:1948   */\n      swap1\n      pop\n      jump\t// out\n        /* \"#utility.yul\":2590:2867   */\n    tag_89:\n        /* \"#utility.yul\":2657:2663   */\n      0x00\n        /* \"#utility.yul\":2710:2712   */\n      0x20\n        /* \"#utility.yul\":2698:2707   */\n      dup3\n        /* \"#utility.yul\":2689:2696   */\n      dup5\n        /* \"#utility.yul\":2685:2708   */\n      sub\n        /* \"#utility.yul\":2681:2713   */\n      slt\n        /* \"#utility.yul\":2678:2730   */\n      iszero\n      tag_216\n      jumpi\n        /* \"#utility.yul\":2726:2727   */\n      0x00\n        /* \"#utility.yul\":2723:2724   */\n      0x00\n        /* \"#utility.yul\":2716:2728   */\n      revert\n        /* \"#utility.yul\":2678:2730   */\n    tag_216:\n        /* \"#utility.yul\":2758:2767   */\n      dup2\n        /* \"#utility.yul\":2752:2768   */\n      mload\n        /* \"#utility.yul\":2811:2816   */\n      dup1\n        /* \"#utility.yul\":2804:2817   */\n      iszero\n        /* \"#utility.yul\":2797:2818   */\n      iszero\n        /* \"#utility.yul\":2790:2795   */\n      dup2\n        /* \"#utility.yul\":2787:2819   */\n      eq\n        /* \"#utility.yul\":2777:2837   */\n      tag_208\n      jumpi\n        /* \"#utility.yul\":2833:2834   */\n      0x00\n        /* \"#utility.yul\":2830:2831   */\n      0x00\n        /* \"#utility.yul\":2823:2835   */\n      revert\n        /* \"#utility.yul\":4979:5106   */\n    tag_199:\n        /* \"#utility.yul\":5040:5050   */\n      0x4e487b71\n        /* \"#utility.yul\":5035:5038   */\n      0xe0\n        /* \"#utility.yul\":5031:5051   */\n      shl\n        /* \"#utility.yul\":5028:5029   */\n      0x00\n        /* \"#utility.yul\":5021:5052   */\n      mstore\n        /* \"#utility.yul\":5071:5075   */\n      0x11\n        /* \"#utility.yul\":5068:5069   */\n      0x04\n        /* \"#utility.yul\":5061:5076   */\n      mstore\n        /* \"#utility.yul\":5095:5099   */\n      0x24\n        /* \"#utility.yul\":5092:5093   */\n      0x00\n        /* \"#utility.yul\":5085:5100   */\n      revert\n        /* \"#utility.yul\":5111:5236   */\n    tag_118:\n        /* \"#utility.yul\":5176:5185   */\n      dup1\n      dup3\n      add\n        /* \"#utility.yul\":5197:5207   */\n      dup1\n      dup3\n      gt\n        /* \"#utility.yul\":5194:5230   */\n      iszero\n      tag_227\n      jumpi\n        /* \"#utility.yul\":5210:5228   */\n      tag_227\n      tag_199\n      jump\t// in\n    tag_227:\n        /* \"#utility.yul\":5111:5236   */\n      swap3\n      swap2\n      pop\n      pop\n      jump\t// out\n        /* \"#utility.yul\":5241:5409   */\n    tag_120:\n        /* \"#utility.yul\":5314:5323   */\n      dup1\n      dup3\n      mul\n        /* \"#utility.yul\":5345:5354   */\n      dup2\n      iszero\n        /* \"#utility.yul\":5362:5377   */\n      dup3\n      dup3\n      div\n        /* \"#utility.yul\":5356:5378   */\n      dup5\n      eq\n        /* \"#utility.yul\":5342:5379   */\n      or\n        /* \"#utility.yul\":5332:5403   */\n      tag_227\n      jumpi\n        /* \"#utility.yul\":5383:5401   */\n      tag_227\n      tag_199\n      jump\t// in\n        /* \"#utility.yul\":5414:5631   */\n    tag_122:\n        /* \"#utility.yul\":5454:5455   */\n      0x00\n        /* \"#utility.yul\":5480:5481   */\n      dup3\n        /* \"#utility.yul\":5470:5602   */\n      tag_232\n      jumpi\n        /* \"#utility.yul\":5524:5534   */\n      0x4e487b71\n        /* \"#utility.yul\":5519:5522   */\n      0xe0\n        /* \"#utility.yul\":5515:5535   */\n      shl\n        /* \"#utility.yul\":5512:5513   */\n      0x00\n        /* \"#utility.yul\":5505:5536   */\n      mstore\n        /* \"#utility.yul\":5559:5563   */\n      0x12\n        /* \"#utility.yul\":5556:5557   */\n      0x04\n        /* \"#utility.yul\":5549:5564   */\n      mstore\n        /* \"#utility.yul\":5587:5591   */\n      0x24\n        /* \"#utility.yul\":5584:5585   */\n      0x00\n        /* \"#utility.yul\":5577:5592   */\n      revert\n        /* \"#utility.yul\":5470:5602   */\n    tag_232:\n      pop\n        /* \"#utility.yul\":5616:5625   */\n      div\n      swap1\n        /* \"#utility.yul\":5414:5631   */\n      jump\t// out\n\n    auxdata: 0xa264697066735822122048f1eb5c4047509b381cc9861f020fcafa8455d829ac7688808983cb4e5eb14e64736f6c634300081c0033\n}\n",
				"bytecode": {
					"linkReferences": {},
					"object": "6080604052348015600e575f5ffd5b50604051610f16380380610f16833981016040819052602b91608c565b5f80546001600160a01b03199081163317909155600180546001600160a01b03968716908316179055600280549490951693169290921790925560039190915560045560c7565b80516001600160a01b03811681146087575f5ffd5b919050565b5f5f5f5f60808587031215609e575f5ffd5b60a5856072565b935060b1602086016072565b6040860151606090960151949790965092505050565b610e42806100d45f395ff3fe608060405234801561000f575f5ffd5b50600436106100e5575f3560e01c8063839ea2d9116100885780639e9aed62116100635780639e9aed62146101d9578063ce1d1f1f146101e1578063dc38679c146101e9578063f2fde38b146101f2575f5ffd5b8063839ea2d9146101915780638da5cb5b146101b45780639063ee20146101c6575f5ffd5b80636a64eff8116100c35780636a64eff81461014557806379a9fa1c146101585780637ef7ba201461016b5780637ff8b57a1461017e575f5ffd5b806307e675fa146100e95780633013ce29146100fe5780635d0040d31461012e575b5f5ffd5b6100fc6100f7366004610d07565b610205565b005b600154610111906001600160a01b031681565b6040516001600160a01b0390911681526020015b60405180910390f35b61013760035481565b604051908152602001610125565b6100fc610153366004610d07565b610404565b6100fc610166366004610d07565b610432565b600254610111906001600160a01b031681565b6100fc61018c366004610d07565b61087d565b6101a461019f366004610d07565b6108f3565b6040519015158152602001610125565b5f54610111906001600160a01b031681565b6100fc6101d4366004610d07565b6109b9565b610137610af2565b610137610b61565b61013760045481565b6100fc610200366004610d1e565b610c2f565b5f546001600160a01b031633146102375760405162461bcd60e51b815260040161022e90610d4b565b60405180910390fd5b5f811161027d5760405162461bcd60e51b815260206004820152601460248201527305769746864726177206d757374206265203e20360641b604482015260640161022e565b6001546040516370a0823160e01b81523060048201525f916001600160a01b0316906370a0823190602401602060405180830381865afa1580156102c3573d5f5f3e3d5ffd5b505050506040513d601f19601f820116820180604052508101906102e79190610d73565b9050808211156103395760405162461bcd60e51b815260206004820152601d60248201527f4e6f7420656e6f75676820746f6b656e7320696e20636f6e7472616374000000604482015260640161022e565b6001545f805460405163a9059cbb60e01b81526001600160a01b039182166004820152602481018690529192169063a9059cbb906044016020604051808303815f875af115801561038c573d5f5f3e3d5ffd5b505050506040513d601f19601f820116820180604052508101906103b09190610d8a565b9050806103ff5760405162461bcd60e51b815260206004820152601f60248201527f5061796d656e7420746f6b656e207769746864726177616c206661696c656400604482015260640161022e565b505050565b5f546001600160a01b0316331461042d5760405162461bcd60e51b815260040161022e90610d4b565b600455565b5f811161047a5760405162461bcd60e51b81526020600482015260166024820152754d757374206465706f73697420526f626f4d6f6e657960501b604482015260640161022e565b600254604051636eb1769f60e11b81523360048201523060248201525f916001600160a01b03169063dd62ed3e90604401602060405180830381865afa1580156104c6573d5f5f3e3d5ffd5b505050506040513d601f19601f820116820180604052508101906104ea9190610d73565b90508181101561053c5760405162461bcd60e51b815260206004820181905260248201527f496e73756666696369656e7420526f626f4d6f6e657920616c6c6f77616e6365604482015260640161022e565b6002546040516323b872dd60e01b8152336004820152306024820152604481018490525f916001600160a01b0316906323b872dd906064016020604051808303815f875af1158015610590573d5f5f3e3d5ffd5b505050506040513d601f19601f820116820180604052508101906105b49190610d8a565b9050806106035760405162461bcd60e51b815260206004820152601960248201527f526f626f4d6f6e6579207472616e73666572206661696c656400000000000000604482015260640161022e565b5f606460035460646106159190610dbd565b6004546106229190610dd6565b61062c9190610ded565b90505f670de0b6b3a76400006106428387610dd6565b61064c9190610ded565b6001546040516370a0823160e01b81523060048201529192505f916001600160a01b03909116906370a0823190602401602060405180830381865afa158015610697573d5f5f3e3d5ffd5b505050506040513d601f19601f820116820180604052508101906106bb9190610d73565b9050818110156107195760405162461bcd60e51b815260206004820152602360248201527f4e6f7420656e6f756768207061796d656e74546f6b656e20696e20636f6e74726044820152621858dd60ea1b606482015260840161022e565b60015460405163a9059cbb60e01b8152336004820152602481018490525f916001600160a01b03169063a9059cbb906044016020604051808303815f875af1158015610767573d5f5f3e3d5ffd5b505050506040513d601f19601f8201168201806040525081019061078b9190610d8a565b9050806107da5760405162461bcd60e51b815260206004820152601d60248201527f5061796d656e7420746f6b656e207472616e73666572206661696c6564000000604482015260640161022e565b600254604051632770a7eb60e21b8152306004820152602481018990526001600160a01b0390911690639dc29fac906044015f604051808303815f87803b158015610823575f5ffd5b505af1158015610835573d5f5f3e3d5ffd5b5050604080518a8152602081018790523393507fcb7f55d0b91628d4520b789339dae4803ab07182ea89d138acbd965dac51dc6592500160405180910390a250505050505050565b5f546001600160a01b031633146108a65760405162461bcd60e51b815260040161022e90610d4b565b60648111156108ee5760405162461bcd60e51b8152602060048201526014602482015273496e76616c6964207072656d69756d207261746560601b604482015260640161022e565b600355565b5f5f606460035460646109069190610dbd565b6004546109139190610dd6565b61091d9190610ded565b90505f670de0b6b3a76400006109338386610dd6565b61093d9190610ded565b6001546040516370a0823160e01b81523060048201529192505f916001600160a01b03909116906370a0823190602401602060405180830381865afa158015610988573d5f5f3e3d5ffd5b505050506040513d601f19601f820116820180604052508101906109ac9190610d73565b9190911015949350505050565b5f546001600160a01b031633146109e25760405162461bcd60e51b815260040161022e90610d4b565b5f8111610a275760405162461bcd60e51b815260206004820152601360248201527204465706f736974206d757374206265203e203606c1b604482015260640161022e565b6001546040516323b872dd60e01b8152336004820152306024820152604481018390525f916001600160a01b0316906323b872dd906064016020604051808303815f875af1158015610a7b573d5f5f3e3d5ffd5b505050506040513d601f19601f82011682018060405250810190610a9f9190610d8a565b905080610aee5760405162461bcd60e51b815260206004820152601c60248201527f5061796d656e7420746f6b656e206465706f736974206661696c656400000000604482015260640161022e565b5050565b6001546040516370a0823160e01b81523060048201525f916001600160a01b0316906370a0823190602401602060405180830381865afa158015610b38573d5f5f3e3d5ffd5b505050506040513d601f19601f82011682018060405250810190610b5c9190610d73565b905090565b6001546040516370a0823160e01b81523060048201525f9182916001600160a01b03909116906370a0823190602401602060405180830381865afa158015610bab573d5f5f3e3d5ffd5b505050506040513d601f19601f82011682018060405250810190610bcf9190610d73565b90505f60646003546064610be39190610dbd565b600454610bf09190610dd6565b610bfa9190610ded565b9050805f03610c0b575f9250505090565b80610c1e83670de0b6b3a7640000610dd6565b610c289190610ded565b9250505090565b5f546001600160a01b03163314610c585760405162461bcd60e51b815260040161022e90610d4b565b6001600160a01b038116610cae5760405162461bcd60e51b815260206004820181905260248201527f4e6577206f776e65722063616e6e6f74206265207a65726f2061646472657373604482015260640161022e565b5f80546040516001600160a01b03808516939216917f8be0079c531659141344cd1fd0a4f28419497f9722a3daafe3b4186f6b6457e091a35f80546001600160a01b0319166001600160a01b0392909216919091179055565b5f60208284031215610d17575f5ffd5b5035919050565b5f60208284031215610d2e575f5ffd5b81356001600160a01b0381168114610d44575f5ffd5b9392505050565b6020808252600e908201526d139bdd08185d5d1a1bdc9a5e995960921b604082015260600190565b5f60208284031215610d83575f5ffd5b5051919050565b5f60208284031215610d9a575f5ffd5b81518015158114610d44575f5ffd5b634e487b7160e01b5f52601160045260245ffd5b80820180821115610dd057610dd0610da9565b92915050565b8082028115828204841417610dd057610dd0610da9565b5f82610e0757634e487b7160e01b5f52601260045260245ffd5b50049056fea264697066735822122048f1eb5c4047509b381cc9861f020fcafa8455d829ac7688808983cb4e5eb14e64736f6c634300081c0033",
					"opcodes": "PUSH1 0x80 PUSH1 0x40 MSTORE CALLVALUE DUP1 ISZERO PUSH1 0xE JUMPI PUSH0 PUSH0 REVERT JUMPDEST POP PUSH1 0x40 MLOAD PUSH2 0xF16 CODESIZE SUB DUP1 PUSH2 0xF16 DUP4 CODECOPY DUP2 ADD PUSH1 0x40 DUP2 SWAP1 MSTORE PUSH1 0x2B SWAP2 PUSH1 0x8C JUMP JUMPDEST PUSH0 DUP1 SLOAD PUSH1 0x1 PUSH1 0x1 PUSH1 0xA0 SHL SUB NOT SWAP1 DUP2 AND CALLER OR SWAP1 SWAP2 SSTORE PUSH1 0x1 DUP1 SLOAD PUSH1 0x1 PUSH1 0x1 PUSH1 0xA0 SHL SUB SWAP7 DUP8 AND SWAP1 DUP4 AND OR SWAP1 SSTORE PUSH1 0x2 DUP1 SLOAD SWAP5 SWAP1 SWAP6 AND SWAP4 AND SWAP3 SWAP1 SWAP3 OR SWAP1 SWAP3 SSTORE PUSH1 0x3 SWAP2 SWAP1 SWAP2 SSTORE PUSH1 0x4 SSTORE PUSH1 0xC7 JUMP JUMPDEST DUP1 MLOAD PUSH1 0x1 PUSH1 0x1 PUSH1 0xA0 SHL SUB DUP2 AND DUP2 EQ PUSH1 0x87 JUMPI PUSH0 PUSH0 REVERT JUMPDEST SWAP2 SWAP1 POP JUMP JUMPDEST PUSH0 PUSH0 PUSH0 PUSH0 PUSH1 0x80 DUP6 DUP8 SUB SLT ISZERO PUSH1 0x9E JUMPI PUSH0 PUSH0 REVERT JUMPDEST PUSH1 0xA5 DUP6 PUSH1 0x72 JUMP JUMPDEST SWAP4 POP PUSH1 0xB1 PUSH1 0x20 DUP7 ADD PUSH1 0x72 JUMP JUMPDEST PUSH1 0x40 DUP7 ADD MLOAD PUSH1 0x60 SWAP1 SWAP7 ADD MLOAD SWAP5 SWAP8 SWAP1 SWAP7 POP SWAP3 POP POP POP JUMP JUMPDEST PUSH2 0xE42 DUP1 PUSH2 0xD4 PUSH0 CODECOPY PUSH0 RETURN INVALID PUSH1 0x80 PUSH1 0x40 MSTORE CALLVALUE DUP1 ISZERO PUSH2 0xF JUMPI PUSH0 PUSH0 REVERT JUMPDEST POP PUSH1 0x4 CALLDATASIZE LT PUSH2 0xE5 JUMPI PUSH0 CALLDATALOAD PUSH1 0xE0 SHR DUP1 PUSH4 0x839EA2D9 GT PUSH2 0x88 JUMPI DUP1 PUSH4 0x9E9AED62 GT PUSH2 0x63 JUMPI DUP1 PUSH4 0x9E9AED62 EQ PUSH2 0x1D9 JUMPI DUP1 PUSH4 0xCE1D1F1F EQ PUSH2 0x1E1 JUMPI DUP1 PUSH4 0xDC38679C EQ PUSH2 0x1E9 JUMPI DUP1 PUSH4 0xF2FDE38B EQ PUSH2 0x1F2 JUMPI PUSH0 PUSH0 REVERT JUMPDEST DUP1 PUSH4 0x839EA2D9 EQ PUSH2 0x191 JUMPI DUP1 PUSH4 0x8DA5CB5B EQ PUSH2 0x1B4 JUMPI DUP1 PUSH4 0x9063EE20 EQ PUSH2 0x1C6 JUMPI PUSH0 PUSH0 REVERT JUMPDEST DUP1 PUSH4 0x6A64EFF8 GT PUSH2 0xC3 JUMPI DUP1 PUSH4 0x6A64EFF8 EQ PUSH2 0x145 JUMPI DUP1 PUSH4 0x79A9FA1C EQ PUSH2 0x158 JUMPI DUP1 PUSH4 0x7EF7BA20 EQ PUSH2 0x16B JUMPI DUP1 PUSH4 0x7FF8B57A EQ PUSH2 0x17E JUMPI PUSH0 PUSH0 REVERT JUMPDEST DUP1 PUSH4 0x7E675FA EQ PUSH2 0xE9 JUMPI DUP1 PUSH4 0x3013CE29 EQ PUSH2 0xFE JUMPI DUP1 PUSH4 0x5D0040D3 EQ PUSH2 0x12E JUMPI JUMPDEST PUSH0 PUSH0 REVERT JUMPDEST PUSH2 0xFC PUSH2 0xF7 CALLDATASIZE PUSH1 0x4 PUSH2 0xD07 JUMP JUMPDEST PUSH2 0x205 JUMP JUMPDEST STOP JUMPDEST PUSH1 0x1 SLOAD PUSH2 0x111 SWAP1 PUSH1 0x1 PUSH1 0x1 PUSH1 0xA0 SHL SUB AND DUP2 JUMP JUMPDEST PUSH1 0x40 MLOAD PUSH1 0x1 PUSH1 0x1 PUSH1 0xA0 SHL SUB SWAP1 SWAP2 AND DUP2 MSTORE PUSH1 0x20 ADD JUMPDEST PUSH1 0x40 MLOAD DUP1 SWAP2 SUB SWAP1 RETURN JUMPDEST PUSH2 0x137 PUSH1 0x3 SLOAD DUP2 JUMP JUMPDEST PUSH1 0x40 MLOAD SWAP1 DUP2 MSTORE PUSH1 0x20 ADD PUSH2 0x125 JUMP JUMPDEST PUSH2 0xFC PUSH2 0x153 CALLDATASIZE PUSH1 0x4 PUSH2 0xD07 JUMP JUMPDEST PUSH2 0x404 JUMP JUMPDEST PUSH2 0xFC PUSH2 0x166 CALLDATASIZE PUSH1 0x4 PUSH2 0xD07 JUMP JUMPDEST PUSH2 0x432 JUMP JUMPDEST PUSH1 0x2 SLOAD PUSH2 0x111 SWAP1 PUSH1 0x1 PUSH1 0x1 PUSH1 0xA0 SHL SUB AND DUP2 JUMP JUMPDEST PUSH2 0xFC PUSH2 0x18C CALLDATASIZE PUSH1 0x4 PUSH2 0xD07 JUMP JUMPDEST PUSH2 0x87D JUMP JUMPDEST PUSH2 0x1A4 PUSH2 0x19F CALLDATASIZE PUSH1 0x4 PUSH2 0xD07 JUMP JUMPDEST PUSH2 0x8F3 JUMP JUMPDEST PUSH1 0x40 MLOAD SWAP1 ISZERO ISZERO DUP2 MSTORE PUSH1 0x20 ADD PUSH2 0x125 JUMP JUMPDEST PUSH0 SLOAD PUSH2 0x111 SWAP1 PUSH1 0x1 PUSH1 0x1 PUSH1 0xA0 SHL SUB AND DUP2 JUMP JUMPDEST PUSH2 0xFC PUSH2 0x1D4 CALLDATASIZE PUSH1 0x4 PUSH2 0xD07 JUMP JUMPDEST PUSH2 0x9B9 JUMP JUMPDEST PUSH2 0x137 PUSH2 0xAF2 JUMP JUMPDEST PUSH2 0x137 PUSH2 0xB61 JUMP JUMPDEST PUSH2 0x137 PUSH1 0x4 SLOAD DUP2 JUMP JUMPDEST PUSH2 0xFC PUSH2 0x200 CALLDATASIZE PUSH1 0x4 PUSH2 0xD1E JUMP JUMPDEST PUSH2 0xC2F JUMP JUMPDEST PUSH0 SLOAD PUSH1 0x1 PUSH1 0x1 PUSH1 0xA0 SHL SUB AND CALLER EQ PUSH2 0x237 JUMPI PUSH1 0x40 MLOAD PUSH3 0x461BCD PUSH1 0xE5 SHL DUP2 MSTORE PUSH1 0x4 ADD PUSH2 0x22E SWAP1 PUSH2 0xD4B JUMP JUMPDEST PUSH1 0x40 MLOAD DUP1 SWAP2 SUB SWAP1 REVERT JUMPDEST PUSH0 DUP2 GT PUSH2 0x27D JUMPI PUSH1 0x40 MLOAD PUSH3 0x461BCD PUSH1 0xE5 SHL DUP2 MSTORE PUSH1 0x20 PUSH1 0x4 DUP3 ADD MSTORE PUSH1 0x14 PUSH1 0x24 DUP3 ADD MSTORE PUSH20 0x5769746864726177206D757374206265203E203 PUSH1 0x64 SHL PUSH1 0x44 DUP3 ADD MSTORE PUSH1 0x64 ADD PUSH2 0x22E JUMP JUMPDEST PUSH1 0x1 SLOAD PUSH1 0x40 MLOAD PUSH4 0x70A08231 PUSH1 0xE0 SHL DUP2 MSTORE ADDRESS PUSH1 0x4 DUP3 ADD MSTORE PUSH0 SWAP2 PUSH1 0x1 PUSH1 0x1 PUSH1 0xA0 SHL SUB AND SWAP1 PUSH4 0x70A08231 SWAP1 PUSH1 0x24 ADD PUSH1 0x20 PUSH1 0x40 MLOAD DUP1 DUP4 SUB DUP2 DUP7 GAS STATICCALL ISZERO DUP1 ISZERO PUSH2 0x2C3 JUMPI RETURNDATASIZE PUSH0 PUSH0 RETURNDATACOPY RETURNDATASIZE PUSH0 REVERT JUMPDEST POP POP POP POP PUSH1 0x40 MLOAD RETURNDATASIZE PUSH1 0x1F NOT PUSH1 0x1F DUP3 ADD AND DUP3 ADD DUP1 PUSH1 0x40 MSTORE POP DUP2 ADD SWAP1 PUSH2 0x2E7 SWAP2 SWAP1 PUSH2 0xD73 JUMP JUMPDEST SWAP1 POP DUP1 DUP3 GT ISZERO PUSH2 0x339 JUMPI PUSH1 0x40 MLOAD PUSH3 0x461BCD PUSH1 0xE5 SHL DUP2 MSTORE PUSH1 0x20 PUSH1 0x4 DUP3 ADD MSTORE PUSH1 0x1D PUSH1 0x24 DUP3 ADD MSTORE PUSH32 0x4E6F7420656E6F75676820746F6B656E7320696E20636F6E7472616374000000 PUSH1 0x44 DUP3 ADD MSTORE PUSH1 0x64 ADD PUSH2 0x22E JUMP JUMPDEST PUSH1 0x1 SLOAD PUSH0 DUP1 SLOAD PUSH1 0x40 MLOAD PUSH4 0xA9059CBB PUSH1 0xE0 SHL DUP2 MSTORE PUSH1 0x1 PUSH1 0x1 PUSH1 0xA0 SHL SUB SWAP2 DUP3 AND PUSH1 0x4 DUP3 ADD MSTORE PUSH1 0x24 DUP2 ADD DUP7 SWAP1 MSTORE SWAP2 SWAP3 AND SWAP1 PUSH4 0xA9059CBB SWAP1 PUSH1 0x44 ADD PUSH1 0x20 PUSH1 0x40 MLOAD DUP1 DUP4 SUB DUP2 PUSH0 DUP8 GAS CALL ISZERO DUP1 ISZERO PUSH2 0x38C JUMPI RETURNDATASIZE PUSH0 PUSH0 RETURNDATACOPY RETURNDATASIZE PUSH0 REVERT JUMPDEST POP POP POP POP PUSH1 0x40 MLOAD RETURNDATASIZE PUSH1 0x1F NOT PUSH1 0x1F DUP3 ADD AND DUP3 ADD DUP1 PUSH1 0x40 MSTORE POP DUP2 ADD SWAP1 PUSH2 0x3B0 SWAP2 SWAP1 PUSH2 0xD8A JUMP JUMPDEST SWAP1 POP DUP1 PUSH2 0x3FF JUMPI PUSH1 0x40 MLOAD PUSH3 0x461BCD PUSH1 0xE5 SHL DUP2 MSTORE PUSH1 0x20 PUSH1 0x4 DUP3 ADD MSTORE PUSH1 0x1F PUSH1 0x24 DUP3 ADD MSTORE PUSH32 0x5061796D656E7420746F6B656E207769746864726177616C206661696C656400 PUSH1 0x44 DUP3 ADD MSTORE PUSH1 0x64 ADD PUSH2 0x22E JUMP JUMPDEST POP POP POP JUMP JUMPDEST PUSH0 SLOAD PUSH1 0x1 PUSH1 0x1 PUSH1 0xA0 SHL SUB AND CALLER EQ PUSH2 0x42D JUMPI PUSH1 0x40 MLOAD PUSH3 0x461BCD PUSH1 0xE5 SHL DUP2 MSTORE PUSH1 0x4 ADD PUSH2 0x22E SWAP1 PUSH2 0xD4B JUMP JUMPDEST PUSH1 0x4 SSTORE JUMP JUMPDEST PUSH0 DUP2 GT PUSH2 0x47A JUMPI PUSH1 0x40 MLOAD PUSH3 0x461BCD PUSH1 0xE5 SHL DUP2 MSTORE PUSH1 0x20 PUSH1 0x4 DUP3 ADD MSTORE PUSH1 0x16 PUSH1 0x24 DUP3 ADD MSTORE PUSH22 0x4D757374206465706F73697420526F626F4D6F6E6579 PUSH1 0x50 SHL PUSH1 0x44 DUP3 ADD MSTORE PUSH1 0x64 ADD PUSH2 0x22E JUMP JUMPDEST PUSH1 0x2 SLOAD PUSH1 0x40 MLOAD PUSH4 0x6EB1769F PUSH1 0xE1 SHL DUP2 MSTORE CALLER PUSH1 0x4 DUP3 ADD MSTORE ADDRESS PUSH1 0x24 DUP3 ADD MSTORE PUSH0 SWAP2 PUSH1 0x1 PUSH1 0x1 PUSH1 0xA0 SHL SUB AND SWAP1 PUSH4 0xDD62ED3E SWAP1 PUSH1 0x44 ADD PUSH1 0x20 PUSH1 0x40 MLOAD DUP1 DUP4 SUB DUP2 DUP7 GAS STATICCALL ISZERO DUP1 ISZERO PUSH2 0x4C6 JUMPI RETURNDATASIZE PUSH0 PUSH0 RETURNDATACOPY RETURNDATASIZE PUSH0 REVERT JUMPDEST POP POP POP POP PUSH1 0x40 MLOAD RETURNDATASIZE PUSH1 0x1F NOT PUSH1 0x1F DUP3 ADD AND DUP3 ADD DUP1 PUSH1 0x40 MSTORE POP DUP2 ADD SWAP1 PUSH2 0x4EA SWAP2 SWAP1 PUSH2 0xD73 JUMP JUMPDEST SWAP1 POP DUP2 DUP2 LT ISZERO PUSH2 0x53C JUMPI PUSH1 0x40 MLOAD PUSH3 0x461BCD PUSH1 0xE5 SHL DUP2 MSTORE PUSH1 0x20 PUSH1 0x4 DUP3 ADD DUP2 SWAP1 MSTORE PUSH1 0x24 DUP3 ADD MSTORE PUSH32 0x496E73756666696369656E7420526F626F4D6F6E657920616C6C6F77616E6365 PUSH1 0x44 DUP3 ADD MSTORE PUSH1 0x64 ADD PUSH2 0x22E JUMP JUMPDEST PUSH1 0x2 SLOAD PUSH1 0x40 MLOAD PUSH4 0x23B872DD PUSH1 0xE0 SHL DUP2 MSTORE CALLER PUSH1 0x4 DUP3 ADD MSTORE ADDRESS PUSH1 0x24 DUP3 ADD MSTORE PUSH1 0x44 DUP2 ADD DUP5 SWAP1 MSTORE PUSH0 SWAP2 PUSH1 0x1 PUSH1 0x1 PUSH1 0xA0 SHL SUB AND SWAP1 PUSH4 0x23B872DD SWAP1 PUSH1 0x64 ADD PUSH1 0x20 PUSH1 0x40 MLOAD DUP1 DUP4 SUB DUP2 PUSH0 DUP8 GAS CALL ISZERO DUP1 ISZERO PUSH2 0x590 JUMPI RETURNDATASIZE PUSH0 PUSH0 RETURNDATACOPY RETURNDATASIZE PUSH0 REVERT JUMPDEST POP POP POP POP PUSH1 0x40 MLOAD RETURNDATASIZE PUSH1 0x1F NOT PUSH1 0x1F DUP3 ADD AND DUP3 ADD DUP1 PUSH1 0x40 MSTORE POP DUP2 ADD SWAP1 PUSH2 0x5B4 SWAP2 SWAP1 PUSH2 0xD8A JUMP JUMPDEST SWAP1 POP DUP1 PUSH2 0x603 JUMPI PUSH1 0x40 MLOAD PUSH3 0x461BCD PUSH1 0xE5 SHL DUP2 MSTORE PUSH1 0x20 PUSH1 0x4 DUP3 ADD MSTORE PUSH1 0x19 PUSH1 0x24 DUP3 ADD MSTORE PUSH32 0x526F626F4D6F6E6579207472616E73666572206661696C656400000000000000 PUSH1 0x44 DUP3 ADD MSTORE PUSH1 0x64 ADD PUSH2 0x22E JUMP JUMPDEST PUSH0 PUSH1 0x64 PUSH1 0x3 SLOAD PUSH1 0x64 PUSH2 0x615 SWAP2 SWAP1 PUSH2 0xDBD JUMP JUMPDEST PUSH1 0x4 SLOAD PUSH2 0x622 SWAP2 SWAP1 PUSH2 0xDD6 JUMP JUMPDEST PUSH2 0x62C SWAP2 SWAP1 PUSH2 0xDED JUMP JUMPDEST SWAP1 POP PUSH0 PUSH8 0xDE0B6B3A7640000 PUSH2 0x642 DUP4 DUP8 PUSH2 0xDD6 JUMP JUMPDEST PUSH2 0x64C SWAP2 SWAP1 PUSH2 0xDED JUMP JUMPDEST PUSH1 0x1 SLOAD PUSH1 0x40 MLOAD PUSH4 0x70A08231 PUSH1 0xE0 SHL DUP2 MSTORE ADDRESS PUSH1 0x4 DUP3 ADD MSTORE SWAP2 SWAP3 POP PUSH0 SWAP2 PUSH1 0x1 PUSH1 0x1 PUSH1 0xA0 SHL SUB SWAP1 SWAP2 AND SWAP1 PUSH4 0x70A08231 SWAP1 PUSH1 0x24 ADD PUSH1 0x20 PUSH1 0x40 MLOAD DUP1 DUP4 SUB DUP2 DUP7 GAS STATICCALL ISZERO DUP1 ISZERO PUSH2 0x697 JUMPI RETURNDATASIZE PUSH0 PUSH0 RETURNDATACOPY RETURNDATASIZE PUSH0 REVERT JUMPDEST POP POP POP POP PUSH1 0x40 MLOAD RETURNDATASIZE PUSH1 0x1F NOT PUSH1 0x1F DUP3 ADD AND DUP3 ADD DUP1 PUSH1 0x40 MSTORE POP DUP2 ADD SWAP1 PUSH2 0x6BB SWAP2 SWAP1 PUSH2 0xD73 JUMP JUMPDEST SWAP1 POP DUP2 DUP2 LT ISZERO PUSH2 0x719 JUMPI PUSH1 0x40 MLOAD PUSH3 0x461BCD PUSH1 0xE5 SHL DUP2 MSTORE PUSH1 0x20 PUSH1 0x4 DUP3 ADD MSTORE PUSH1 0x23 PUSH1 0x24 DUP3 ADD MSTORE PUSH32 0x4E6F7420656E6F756768207061796D656E74546F6B656E20696E20636F6E7472 PUSH1 0x44 DUP3 ADD MSTORE PUSH3 0x1858DD PUSH1 0xEA SHL PUSH1 0x64 DUP3 ADD MSTORE PUSH1 0x84 ADD PUSH2 0x22E JUMP JUMPDEST PUSH1 0x1 SLOAD PUSH1 0x40 MLOAD PUSH4 0xA9059CBB PUSH1 0xE0 SHL DUP2 MSTORE CALLER PUSH1 0x4 DUP3 ADD MSTORE PUSH1 0x24 DUP2 ADD DUP5 SWAP1 MSTORE PUSH0 SWAP2 PUSH1 0x1 PUSH1 0x1 PUSH1 0xA0 SHL SUB AND SWAP1 PUSH4 0xA9059CBB SWAP1 PUSH1 0x44 ADD PUSH1 0x20 PUSH1 0x40 MLOAD DUP1 DUP4 SUB DUP2 PUSH0 DUP8 GAS CALL ISZERO DUP1 ISZERO PUSH2 0x767 JUMPI RETURNDATASIZE PUSH0 PUSH0 RETURNDATACOPY RETURNDATASIZE PUSH0 REVERT JUMPDEST POP POP POP POP PUSH1 0x40 MLOAD RETURNDATASIZE PUSH1 0x1F NOT PUSH1 0x1F DUP3 ADD AND DUP3 ADD DUP1 PUSH1 0x40 MSTORE POP DUP2 ADD SWAP1 PUSH2 0x78B SWAP2 SWAP1 PUSH2 0xD8A JUMP JUMPDEST SWAP1 POP DUP1 PUSH2 0x7DA JUMPI PUSH1 0x40 MLOAD PUSH3 0x461BCD PUSH1 0xE5 SHL DUP2 MSTORE PUSH1 0x20 PUSH1 0x4 DUP3 ADD MSTORE PUSH1 0x1D PUSH1 0x24 DUP3 ADD MSTORE PUSH32 0x5061796D656E7420746F6B656E207472616E73666572206661696C6564000000 PUSH1 0x44 DUP3 ADD MSTORE PUSH1 0x64 ADD PUSH2 0x22E JUMP JUMPDEST PUSH1 0x2 SLOAD PUSH1 0x40 MLOAD PUSH4 0x2770A7EB PUSH1 0xE2 SHL DUP2 MSTORE ADDRESS PUSH1 0x4 DUP3 ADD MSTORE PUSH1 0x24 DUP2 ADD DUP10 SWAP1 MSTORE PUSH1 0x1 PUSH1 0x1 PUSH1 0xA0 SHL SUB SWAP1 SWAP2 AND SWAP1 PUSH4 0x9DC29FAC SWAP1 PUSH1 0x44 ADD PUSH0 PUSH1 0x40 MLOAD DUP1 DUP4 SUB DUP2 PUSH0 DUP8 DUP1 EXTCODESIZE ISZERO DUP1 ISZERO PUSH2 0x823 JUMPI PUSH0 PUSH0 REVERT JUMPDEST POP GAS CALL ISZERO DUP1 ISZERO PUSH2 0x835 JUMPI RETURNDATASIZE PUSH0 PUSH0 RETURNDATACOPY RETURNDATASIZE PUSH0 REVERT JUMPDEST POP POP PUSH1 0x40 DUP1 MLOAD DUP11 DUP2 MSTORE PUSH1 0x20 DUP2 ADD DUP8 SWAP1 MSTORE CALLER SWAP4 POP PUSH32 0xCB7F55D0B91628D4520B789339DAE4803AB07182EA89D138ACBD965DAC51DC65 SWAP3 POP ADD PUSH1 0x40 MLOAD DUP1 SWAP2 SUB SWAP1 LOG2 POP POP POP POP POP POP POP JUMP JUMPDEST PUSH0 SLOAD PUSH1 0x1 PUSH1 0x1 PUSH1 0xA0 SHL SUB AND CALLER EQ PUSH2 0x8A6 JUMPI PUSH1 0x40 MLOAD PUSH3 0x461BCD PUSH1 0xE5 SHL DUP2 MSTORE PUSH1 0x4 ADD PUSH2 0x22E SWAP1 PUSH2 0xD4B JUMP JUMPDEST PUSH1 0x64 DUP2 GT ISZERO PUSH2 0x8EE JUMPI PUSH1 0x40 MLOAD PUSH3 0x461BCD PUSH1 0xE5 SHL DUP2 MSTORE PUSH1 0x20 PUSH1 0x4 DUP3 ADD MSTORE PUSH1 0x14 PUSH1 0x24 DUP3 ADD MSTORE PUSH20 0x496E76616C6964207072656D69756D2072617465 PUSH1 0x60 SHL PUSH1 0x44 DUP3 ADD MSTORE PUSH1 0x64 ADD PUSH2 0x22E JUMP JUMPDEST PUSH1 0x3 SSTORE JUMP JUMPDEST PUSH0 PUSH0 PUSH1 0x64 PUSH1 0x3 SLOAD PUSH1 0x64 PUSH2 0x906 SWAP2 SWAP1 PUSH2 0xDBD JUMP JUMPDEST PUSH1 0x4 SLOAD PUSH2 0x913 SWAP2 SWAP1 PUSH2 0xDD6 JUMP JUMPDEST PUSH2 0x91D SWAP2 SWAP1 PUSH2 0xDED JUMP JUMPDEST SWAP1 POP PUSH0 PUSH8 0xDE0B6B3A7640000 PUSH2 0x933 DUP4 DUP7 PUSH2 0xDD6 JUMP JUMPDEST PUSH2 0x93D SWAP2 SWAP1 PUSH2 0xDED JUMP JUMPDEST PUSH1 0x1 SLOAD PUSH1 0x40 MLOAD PUSH4 0x70A08231 PUSH1 0xE0 SHL DUP2 MSTORE ADDRESS PUSH1 0x4 DUP3 ADD MSTORE SWAP2 SWAP3 POP PUSH0 SWAP2 PUSH1 0x1 PUSH1 0x1 PUSH1 0xA0 SHL SUB SWAP1 SWAP2 AND SWAP1 PUSH4 0x70A08231 SWAP1 PUSH1 0x24 ADD PUSH1 0x20 PUSH1 0x40 MLOAD DUP1 DUP4 SUB DUP2 DUP7 GAS STATICCALL ISZERO DUP1 ISZERO PUSH2 0x988 JUMPI RETURNDATASIZE PUSH0 PUSH0 RETURNDATACOPY RETURNDATASIZE PUSH0 REVERT JUMPDEST POP POP POP POP PUSH1 0x40 MLOAD RETURNDATASIZE PUSH1 0x1F NOT PUSH1 0x1F DUP3 ADD AND DUP3 ADD DUP1 PUSH1 0x40 MSTORE POP DUP2 ADD SWAP1 PUSH2 0x9AC SWAP2 SWAP1 PUSH2 0xD73 JUMP JUMPDEST SWAP2 SWAP1 SWAP2 LT ISZERO SWAP5 SWAP4 POP POP POP POP JUMP JUMPDEST PUSH0 SLOAD PUSH1 0x1 PUSH1 0x1 PUSH1 0xA0 SHL SUB AND CALLER EQ PUSH2 0x9E2 JUMPI PUSH1 0x40 MLOAD PUSH3 0x461BCD PUSH1 0xE5 SHL DUP2 MSTORE PUSH1 0x4 ADD PUSH2 0x22E SWAP1 PUSH2 0xD4B JUMP JUMPDEST PUSH0 DUP2 GT PUSH2 0xA27 JUMPI PUSH1 0x40 MLOAD PUSH3 0x461BCD PUSH1 0xE5 SHL DUP2 MSTORE PUSH1 0x20 PUSH1 0x4 DUP3 ADD MSTORE PUSH1 0x13 PUSH1 0x24 DUP3 ADD MSTORE PUSH19 0x4465706F736974206D757374206265203E203 PUSH1 0x6C SHL PUSH1 0x44 DUP3 ADD MSTORE PUSH1 0x64 ADD PUSH2 0x22E JUMP JUMPDEST PUSH1 0x1 SLOAD PUSH1 0x40 MLOAD PUSH4 0x23B872DD PUSH1 0xE0 SHL DUP2 MSTORE CALLER PUSH1 0x4 DUP3 ADD MSTORE ADDRESS PUSH1 0x24 DUP3 ADD MSTORE PUSH1 0x44 DUP2 ADD DUP4 SWAP1 MSTORE PUSH0 SWAP2 PUSH1 0x1 PUSH1 0x1 PUSH1 0xA0 SHL SUB AND SWAP1 PUSH4 0x23B872DD SWAP1 PUSH1 0x64 ADD PUSH1 0x20 PUSH1 0x40 MLOAD DUP1 DUP4 SUB DUP2 PUSH0 DUP8 GAS CALL ISZERO DUP1 ISZERO PUSH2 0xA7B JUMPI RETURNDATASIZE PUSH0 PUSH0 RETURNDATACOPY RETURNDATASIZE PUSH0 REVERT JUMPDEST POP POP POP POP PUSH1 0x40 MLOAD RETURNDATASIZE PUSH1 0x1F NOT PUSH1 0x1F DUP3 ADD AND DUP3 ADD DUP1 PUSH1 0x40 MSTORE POP DUP2 ADD SWAP1 PUSH2 0xA9F SWAP2 SWAP1 PUSH2 0xD8A JUMP JUMPDEST SWAP1 POP DUP1 PUSH2 0xAEE JUMPI PUSH1 0x40 MLOAD PUSH3 0x461BCD PUSH1 0xE5 SHL DUP2 MSTORE PUSH1 0x20 PUSH1 0x4 DUP3 ADD MSTORE PUSH1 0x1C PUSH1 0x24 DUP3 ADD MSTORE PUSH32 0x5061796D656E7420746F6B656E206465706F736974206661696C656400000000 PUSH1 0x44 DUP3 ADD MSTORE PUSH1 0x64 ADD PUSH2 0x22E JUMP JUMPDEST POP POP JUMP JUMPDEST PUSH1 0x1 SLOAD PUSH1 0x40 MLOAD PUSH4 0x70A08231 PUSH1 0xE0 SHL DUP2 MSTORE ADDRESS PUSH1 0x4 DUP3 ADD MSTORE PUSH0 SWAP2 PUSH1 0x1 PUSH1 0x1 PUSH1 0xA0 SHL SUB AND SWAP1 PUSH4 0x70A08231 SWAP1 PUSH1 0x24 ADD PUSH1 0x20 PUSH1 0x40 MLOAD DUP1 DUP4 SUB DUP2 DUP7 GAS STATICCALL ISZERO DUP1 ISZERO PUSH2 0xB38 JUMPI RETURNDATASIZE PUSH0 PUSH0 RETURNDATACOPY RETURNDATASIZE PUSH0 REVERT JUMPDEST POP POP POP POP PUSH1 0x40 MLOAD RETURNDATASIZE PUSH1 0x1F NOT PUSH1 0x1F DUP3 ADD AND DUP3 ADD DUP1 PUSH1 0x40 MSTORE POP DUP2 ADD SWAP1 PUSH2 0xB5C SWAP2 SWAP1 PUSH2 0xD73 JUMP JUMPDEST SWAP1 POP SWAP1 JUMP JUMPDEST PUSH1 0x1 SLOAD PUSH1 0x40 MLOAD PUSH4 0x70A08231 PUSH1 0xE0 SHL DUP2 MSTORE ADDRESS PUSH1 0x4 DUP3 ADD MSTORE PUSH0 SWAP2 DUP3 SWAP2 PUSH1 0x1 PUSH1 0x1 PUSH1 0xA0 SHL SUB SWAP1 SWAP2 AND SWAP1 PUSH4 0x70A08231 SWAP1 PUSH1 0x24 ADD PUSH1 0x20 PUSH1 0x40 MLOAD DUP1 DUP4 SUB DUP2 DUP7 GAS STATICCALL ISZERO DUP1 ISZERO PUSH2 0xBAB JUMPI RETURNDATASIZE PUSH0 PUSH0 RETURNDATACOPY RETURNDATASIZE PUSH0 REVERT JUMPDEST POP POP POP POP PUSH1 0x40 MLOAD RETURNDATASIZE PUSH1 0x1F NOT PUSH1 0x1F DUP3 ADD AND DUP3 ADD DUP1 PUSH1 0x40 MSTORE POP DUP2 ADD SWAP1 PUSH2 0xBCF SWAP2 SWAP1 PUSH2 0xD73 JUMP JUMPDEST SWAP1 POP PUSH0 PUSH1 0x64 PUSH1 0x3 SLOAD PUSH1 0x64 PUSH2 0xBE3 SWAP2 SWAP1 PUSH2 0xDBD JUMP JUMPDEST PUSH1 0x4 SLOAD PUSH2 0xBF0 SWAP2 SWAP1 PUSH2 0xDD6 JUMP JUMPDEST PUSH2 0xBFA SWAP2 SWAP1 PUSH2 0xDED JUMP JUMPDEST SWAP1 POP DUP1 PUSH0 SUB PUSH2 0xC0B JUMPI PUSH0 SWAP3 POP POP POP SWAP1 JUMP JUMPDEST DUP1 PUSH2 0xC1E DUP4 PUSH8 0xDE0B6B3A7640000 PUSH2 0xDD6 JUMP JUMPDEST PUSH2 0xC28 SWAP2 SWAP1 PUSH2 0xDED JUMP JUMPDEST SWAP3 POP POP POP SWAP1 JUMP JUMPDEST PUSH0 SLOAD PUSH1 0x1 PUSH1 0x1 PUSH1 0xA0 SHL SUB AND CALLER EQ PUSH2 0xC58 JUMPI PUSH1 0x40 MLOAD PUSH3 0x461BCD PUSH1 0xE5 SHL DUP2 MSTORE PUSH1 0x4 ADD PUSH2 0x22E SWAP1 PUSH2 0xD4B JUMP JUMPDEST PUSH1 0x1 PUSH1 0x1 PUSH1 0xA0 SHL SUB DUP2 AND PUSH2 0xCAE JUMPI PUSH1 0x40 MLOAD PUSH3 0x461BCD PUSH1 0xE5 SHL DUP2 MSTORE PUSH1 0x20 PUSH1 0x4 DUP3 ADD DUP2 SWAP1 MSTORE PUSH1 0x24 DUP3 ADD MSTORE PUSH32 0x4E6577206F776E65722063616E6E6F74206265207A65726F2061646472657373 PUSH1 0x44 DUP3 ADD MSTORE PUSH1 0x64 ADD PUSH2 0x22E JUMP JUMPDEST PUSH0 DUP1 SLOAD PUSH1 0x40 MLOAD PUSH1 0x1 PUSH1 0x1 PUSH1 0xA0 SHL SUB DUP1 DUP6 AND SWAP4 SWAP3 AND SWAP2 PUSH32 0x8BE0079C531659141344CD1FD0A4F28419497F9722A3DAAFE3B4186F6B6457E0 SWAP2 LOG3 PUSH0 DUP1 SLOAD PUSH1 0x1 PUSH1 0x1 PUSH1 0xA0 SHL SUB NOT AND PUSH1 0x1 PUSH1 0x1 PUSH1 0xA0 SHL SUB SWAP3 SWAP1 SWAP3 AND SWAP2 SWAP1 SWAP2 OR SWAP1 SSTORE JUMP JUMPDEST PUSH0 PUSH1 0x20 DUP3 DUP5 SUB SLT ISZERO PUSH2 0xD17 JUMPI PUSH0 PUSH0 REVERT JUMPDEST POP CALLDATALOAD SWAP2 SWAP1 POP JUMP JUMPDEST PUSH0 PUSH1 0x20 DUP3 DUP5 SUB SLT ISZERO PUSH2 0xD2E JUMPI PUSH0 PUSH0 REVERT JUMPDEST DUP2 CALLDATALOAD PUSH1 0x1 PUSH1 0x1 PUSH1 0xA0 SHL SUB DUP2 AND DUP2 EQ PUSH2 0xD44 JUMPI PUSH0 PUSH0 REVERT JUMPDEST SWAP4 SWAP3 POP POP POP JUMP JUMPDEST PUSH1 0x20 DUP1 DUP3 MSTORE PUSH1 0xE SWAP1 DUP3 ADD MSTORE PUSH14 0x139BDD08185D5D1A1BDC9A5E9959 PUSH1 0x92 SHL PUSH1 0x40 DUP3 ADD MSTORE PUSH1 0x60 ADD SWAP1 JUMP JUMPDEST PUSH0 PUSH1 0x20 DUP3 DUP5 SUB SLT ISZERO PUSH2 0xD83 JUMPI PUSH0 PUSH0 REVERT JUMPDEST POP MLOAD SWAP2 SWAP1 POP JUMP JUMPDEST PUSH0 PUSH1 0x20 DUP3 DUP5 SUB SLT ISZERO PUSH2 0xD9A JUMPI PUSH0 PUSH0 REVERT JUMPDEST DUP2 MLOAD DUP1 ISZERO ISZERO DUP2 EQ PUSH2 0xD44 JUMPI PUSH0 PUSH0 REVERT JUMPDEST PUSH4 0x4E487B71 PUSH1 0xE0 SHL PUSH0 MSTORE PUSH1 0x11 PUSH1 0x4 MSTORE PUSH1 0x24 PUSH0 REVERT JUMPDEST DUP1 DUP3 ADD DUP1 DUP3 GT ISZERO PUSH2 0xDD0 JUMPI PUSH2 0xDD0 PUSH2 0xDA9 JUMP JUMPDEST SWAP3 SWAP2 POP POP JUMP JUMPDEST DUP1 DUP3 MUL DUP2 ISZERO DUP3 DUP3 DIV DUP5 EQ OR PUSH2 0xDD0 JUMPI PUSH2 0xDD0 PUSH2 0xDA9 JUMP JUMPDEST PUSH0 DUP3 PUSH2 0xE07 JUMPI PUSH4 0x4E487B71 PUSH1 0xE0 SHL PUSH0 MSTORE PUSH1 0x12 PUSH1 0x4 MSTORE PUSH1 0x24 PUSH0 REVERT JUMPDEST POP DIV SWAP1 JUMP INVALID LOG2 PUSH5 0x6970667358 0x22 SLT KECCAK256 BASEFEE CALL 0xEB TLOAD BLOCKHASH SELFBALANCE POP SWAP12 CODESIZE SHR 0xC9 DUP7 0x1F MUL 0xF 0xCA STATICCALL DUP5 SSTORE 0xD8 0x29 0xAC PUSH23 0x88808983CB4E5EB14E64736F6C634300081C0033000000 "
				},
				"gasEstimates": {
					"creation": {
						"codeDepositCost": "730000",
						"executionCost": "infinite",
						"totalCost": "infinite"
					},
					"external": {
						"buyback(uint256)": "infinite",
						"canExecuteBuyback(uint256)": "infinite",
						"contractTokenBalance()": "infinite",
						"depositPaymentToken(uint256)": "infinite",
						"maxBuyableRoboMoney()": "infinite",
						"owner()": "2369",
						"paymentToken()": "2371",
						"premiumRate()": "2362",
						"roboMoney()": "2392",
						"setPremiumRate(uint256)": "24576",
						"setTargetPrice(uint256)": "24484",
						"targetPrice()": "2360",
						"transferOwnership(address)": "30448",
						"withdrawPaymentToken(uint256)": "infinite"
					}
				},
				"methodIdentifiers": {
					"buyback(uint256)": "79a9fa1c",
					"canExecuteBuyback(uint256)": "839ea2d9",
					"contractTokenBalance()": "9e9aed62",
					"depositPaymentToken(uint256)": "9063ee20",
					"maxBuyableRoboMoney()": "ce1d1f1f",
					"owner()": "8da5cb5b",
					"paymentToken()": "3013ce29",
					"premiumRate()": "5d0040d3",
					"roboMoney()": "7ef7ba20",
					"setPremiumRate(uint256)": "7ff8b57a",
					"setTargetPrice(uint256)": "6a64eff8",
					"targetPrice()": "dc38679c",
					"transferOwnership(address)": "f2fde38b",
					"withdrawPaymentToken(uint256)": "07e675fa"
				}
			},
			"storageLayout": {
				"storage": [
					{
						"astId": 110,
						"contract": "buy_back.sol:BuyBack",
						"label": "owner",
						"offset": 0,
						"slot": "0",
						"type": "t_address"
					},
					{
						"astId": 112,
						"contract": "buy_back.sol:BuyBack",
						"label": "paymentToken",
						"offset": 0,
						"slot": "1",
						"type": "t_address"
					},
					{
						"astId": 114,
						"contract": "buy_back.sol:BuyBack",
						"label": "roboMoney",
						"offset": 0,
						"slot": "2",
						"type": "t_address"
					},
					{
						"astId": 116,
						"contract": "buy_back.sol:BuyBack",
						"label": "premiumRate",
						"offset": 0,
						"slot": "3",
						"type": "t_uint256"
					},
					{
						"astId": 118,
						"contract": "buy_back.sol:BuyBack",
						"label": "targetPrice",
						"offset": 0,
						"slot": "4",
						"type": "t_uint256"
					}
				],
				"types": {
					"t_address": {
						"encoding": "inplace",
						"label": "address",
						"numberOfBytes": "20"
					},
					"t_uint256": {
						"encoding": "inplace",
						"label": "uint256",
						"numberOfBytes": "32"
					}
				}
			},
			"userdoc": {
				"kind": "user",
				"methods": {
					"buyback(uint256)": {
						"notice": "Buys back RoboMoney from msg.sender at the configured premium rate, paying out the specified ERC20 `paymentToken`, and then burns the RoboMoney."
					}
				},
				"version": 1
			}
		}
	}
}