{
	"bonding_contract.sol": {
		"Bonding": {
			"abi": [
				{
					"inputs": [
						{
							"internalType": "address",
							"name": "_weth",
							"type": "address"
						},
						{
							"internalType": "address",
							"name": "_mlAMPL",
							"type": "address"
						}
					],
					"stateMutability": "nonpayable",
					"type": "constructor"
				},
				{
					"anonymous": false,
					"inputs": [
						{
							"indexed": true,
							"internalType": "address",
							"name": "user",
							"type": "address"
						},
						{
							"indexed": false,
							"internalType": "uint256",
							"name": "wethAmount",
							"type": "uint256"
						},
						{
							"indexed": false,
							"internalType": "uint256",
							"name": "mlAMPLAmount",
							"type": "uint256"
						}
					],
					"name": "BondPurchased",
					"type": "event"
				},
				{
					"anonymous": false,
					"inputs": [
						{
							"indexed": false,
							"internalType": "string",
							"name": "message",
							"type": "string"
						},
						{
							"indexed": false,
							"internalType": "uint256",
							"name": "value",
							"type": "uint256"
						}
					],
					"name": "Debug",
					"type": "event"
				},
				{
					"anonymous": false,
					"inputs": [
						{
							"indexed": true,
							"internalType": "address",
							"name": "oldOwner",
							"type": "address"
						},
						{
							"indexed": true,
							"internalType": "address",
							"name": "newOwner",
							"type": "address"
						}
					],
					"name": "OwnershipTransferred",
					"type": "event"
				},
				{
					"anonymous": false,
					"inputs": [
						{
							"indexed": true,
							"internalType": "address",
							"name": "token",
							"type": "address"
						},
						{
							"indexed": true,
							"internalType": "address",
							"name": "recipient",
							"type": "address"
						},
						{
							"indexed": false,
							"internalType": "uint256",
							"name": "amount",
							"type": "uint256"
						}
					],
					"name": "Withdrawn",
					"type": "event"
				},
				{
					"inputs": [
						{
							"internalType": "uint256",
							"name": "wethAmount",
							"type": "uint256"
						}
					],
					"name": "bond",
					"outputs": [],
					"stateMutability": "nonpayable",
					"type": "function"
				},
				{
					"inputs": [],
					"name": "checkContractMLAMPLBalance",
					"outputs": [
						{
							"internalType": "uint256",
							"name": "",
							"type": "uint256"
						}
					],
					"stateMutability": "view",
					"type": "function"
				},
				{
					"inputs": [
						{
							"internalType": "address",
							"name": "user",
							"type": "address"
						}
					],
					"name": "checkMLAMPLBalance",
					"outputs": [
						{
							"internalType": "uint256",
							"name": "",
							"type": "uint256"
						}
					],
					"stateMutability": "view",
					"type": "function"
				},
				{
					"inputs": [
						{
							"internalType": "address",
							"name": "user",
							"type": "address"
						}
					],
					"name": "checkWETHAllowance",
					"outputs": [
						{
							"internalType": "uint256",
							"name": "",
							"type": "uint256"
						}
					],
					"stateMutability": "view",
					"type": "function"
				},
				{
					"inputs": [
						{
							"internalType": "address",
							"name": "user",
							"type": "address"
						}
					],
					"name": "checkWETHBalance",
					"outputs": [
						{
							"internalType": "uint256",
							"name": "",
							"type": "uint256"
						}
					],
					"stateMutability": "view",
					"type": "function"
				},
				{
					"inputs": [],
					"name": "discountRate",
					"outputs": [
						{
							"internalType": "uint256",
							"name": "",
							"type": "uint256"
						}
					],
					"stateMutability": "view",
					"type": "function"
				},
				{
					"inputs": [],
					"name": "mlAMPL",
					"outputs": [
						{
							"internalType": "address",
							"name": "",
							"type": "address"
						}
					],
					"stateMutability": "view",
					"type": "function"
				},
				{
					"inputs": [],
					"name": "owner",
					"outputs": [
						{
							"internalType": "address",
							"name": "",
							"type": "address"
						}
					],
					"stateMutability": "view",
					"type": "function"
				},
				{
					"inputs": [
						{
							"internalType": "uint256",
							"name": "_discountRate",
							"type": "uint256"
						}
					],
					"name": "setDiscountRate",
					"outputs": [],
					"stateMutability": "nonpayable",
					"type": "function"
				},
				{
					"inputs": [
						{
							"internalType": "uint256",
							"name": "_targetPrice",
							"type": "uint256"
						}
					],
					"name": "setTargetPrice",
					"outputs": [],
					"stateMutability": "nonpayable",
					"type": "function"
				},
				{
					"inputs": [],
					"name": "targetPrice",
					"outputs": [
						{
							"internalType": "uint256",
							"name": "",
							"type": "uint256"
						}
					],
					"stateMutability": "view",
					"type": "function"
				},
				{
					"inputs": [
						{
							"internalType": "address",
							"name": "newOwner",
							"type": "address"
						}
					],
					"name": "transferOwnership",
					"outputs": [],
					"stateMutability": "nonpayable",
					"type": "function"
				},
				{
					"inputs": [],
					"name": "weth",
					"outputs": [
						{
							"internalType": "address",
							"name": "",
							"type": "address"
						}
					],
					"stateMutability": "view",
					"type": "function"
				},
				{
					"inputs": [
						{
							"internalType": "address",
							"name": "token",
							"type": "address"
						},
						{
							"internalType": "uint256",
							"name": "amount",
							"type": "uint256"
						},
						{
							"internalType": "address",
							"name": "recipient",
							"type": "address"
						}
					],
					"name": "withdraw",
					"outputs": [],
					"stateMutability": "nonpayable",
					"type": "function"
				}
			],
			"devdoc": {
				"kind": "dev",
				"methods": {},
				"version": 1
			},
			"evm": {
				"assembly": "    /* \"bonding_contract.sol\":1569:5677  contract Bonding {... */\n  mstore(0x40, 0x80)\n    /* \"bonding_contract.sol\":1758:1759  5 */\n  0x05\n    /* \"bonding_contract.sol\":1728:1759  uint256 public discountRate = 5 */\n  0x03\n  sstore\n    /* \"bonding_contract.sol\":1810:1825  367377597059803 */\n  0x014e20c32bd2db\n    /* \"bonding_contract.sol\":1781:1825  uint256 public targetPrice = 367377597059803 */\n  0x04\n  sstore\n    /* \"bonding_contract.sol\":2199:2330  constructor(address _weth, address _mlAMPL) {... */\n  callvalue\n  dup1\n  iszero\n  tag_1\n  jumpi\n  revert(0x00, 0x00)\ntag_1:\n  pop\n  mload(0x40)\n  sub(codesize, bytecodeSize)\n  dup1\n  bytecodeSize\n  dup4\n  codecopy\n  dup2\n  dup2\n  add\n  0x40\n  mstore\n  dup2\n  add\n  swap1\n  tag_2\n  swap2\n  swap1\n  tag_3\n  jump\t// in\ntag_2:\n    /* \"bonding_contract.sol\":2262:2272  msg.sender */\n  caller\n    /* \"bonding_contract.sol\":2254:2259  owner */\n  0x00\n  0x00\n    /* \"bonding_contract.sol\":2254:2272  owner = msg.sender */\n  0x0100\n  exp\n  dup2\n  sload\n  dup2\n  0xffffffffffffffffffffffffffffffffffffffff\n  mul\n  not\n  and\n  swap1\n  dup4\n  0xffffffffffffffffffffffffffffffffffffffff\n  and\n  mul\n  or\n  swap1\n  sstore\n  pop\n    /* \"bonding_contract.sol\":2290:2295  _weth */\n  dup2\n    /* \"bonding_contract.sol\":2283:2287  weth */\n  0x01\n  0x00\n    /* \"bonding_contract.sol\":2283:2295  weth = _weth */\n  0x0100\n  exp\n  dup2\n  sload\n  dup2\n  0xffffffffffffffffffffffffffffffffffffffff\n  mul\n  not\n  and\n  swap1\n  dup4\n  0xffffffffffffffffffffffffffffffffffffffff\n  and\n  mul\n  or\n  swap1\n  sstore\n  pop\n    /* \"bonding_contract.sol\":2315:2322  _mlAMPL */\n  dup1\n    /* \"bonding_contract.sol\":2306:2312  mlAMPL */\n  0x02\n  0x00\n    /* \"bonding_contract.sol\":2306:2322  mlAMPL = _mlAMPL */\n  0x0100\n  exp\n  dup2\n  sload\n  dup2\n  0xffffffffffffffffffffffffffffffffffffffff\n  mul\n  not\n  and\n  swap1\n  dup4\n  0xffffffffffffffffffffffffffffffffffffffff\n  and\n  mul\n  or\n  swap1\n  sstore\n  pop\n    /* \"bonding_contract.sol\":2199:2330  constructor(address _weth, address _mlAMPL) {... */\n  pop\n  pop\n    /* \"bonding_contract.sol\":1569:5677  contract Bonding {... */\n  jump(tag_6)\n    /* \"#utility.yul\":88:205   */\ntag_8:\n    /* \"#utility.yul\":197:198   */\n  0x00\n    /* \"#utility.yul\":194:195   */\n  0x00\n    /* \"#utility.yul\":187:199   */\n  revert\n    /* \"#utility.yul\":334:460   */\ntag_10:\n    /* \"#utility.yul\":371:378   */\n  0x00\n    /* \"#utility.yul\":411:453   */\n  0xffffffffffffffffffffffffffffffffffffffff\n    /* \"#utility.yul\":404:409   */\n  dup3\n    /* \"#utility.yul\":400:454   */\n  and\n    /* \"#utility.yul\":389:454   */\n  swap1\n  pop\n    /* \"#utility.yul\":334:460   */\n  swap2\n  swap1\n  pop\n  jump\t// out\n    /* \"#utility.yul\":466:562   */\ntag_11:\n    /* \"#utility.yul\":503:510   */\n  0x00\n    /* \"#utility.yul\":532:556   */\n  tag_20\n    /* \"#utility.yul\":550:555   */\n  dup3\n    /* \"#utility.yul\":532:556   */\n  tag_10\n  jump\t// in\ntag_20:\n    /* \"#utility.yul\":521:556   */\n  swap1\n  pop\n    /* \"#utility.yul\":466:562   */\n  swap2\n  swap1\n  pop\n  jump\t// out\n    /* \"#utility.yul\":568:690   */\ntag_12:\n    /* \"#utility.yul\":641:665   */\n  tag_22\n    /* \"#utility.yul\":659:664   */\n  dup2\n    /* \"#utility.yul\":641:665   */\n  tag_11\n  jump\t// in\ntag_22:\n    /* \"#utility.yul\":634:639   */\n  dup2\n    /* \"#utility.yul\":631:666   */\n  eq\n    /* \"#utility.yul\":621:684   */\n  tag_23\n  jumpi\n    /* \"#utility.yul\":680:681   */\n  0x00\n    /* \"#utility.yul\":677:678   */\n  0x00\n    /* \"#utility.yul\":670:682   */\n  revert\n    /* \"#utility.yul\":621:684   */\ntag_23:\n    /* \"#utility.yul\":568:690   */\n  pop\n  jump\t// out\n    /* \"#utility.yul\":696:839   */\ntag_13:\n    /* \"#utility.yul\":753:758   */\n  0x00\n    /* \"#utility.yul\":784:790   */\n  dup2\n    /* \"#utility.yul\":778:791   */\n  mload\n    /* \"#utility.yul\":769:791   */\n  swap1\n  pop\n    /* \"#utility.yul\":800:833   */\n  tag_25\n    /* \"#utility.yul\":827:832   */\n  dup2\n    /* \"#utility.yul\":800:833   */\n  tag_12\n  jump\t// in\ntag_25:\n    /* \"#utility.yul\":696:839   */\n  swap3\n  swap2\n  pop\n  pop\n  jump\t// out\n    /* \"#utility.yul\":845:1352   */\ntag_3:\n    /* \"#utility.yul\":924:930   */\n  0x00\n    /* \"#utility.yul\":932:938   */\n  0x00\n    /* \"#utility.yul\":981:983   */\n  0x40\n    /* \"#utility.yul\":969:978   */\n  dup4\n    /* \"#utility.yul\":960:967   */\n  dup6\n    /* \"#utility.yul\":956:979   */\n  sub\n    /* \"#utility.yul\":952:984   */\n  slt\n    /* \"#utility.yul\":949:1068   */\n  iszero\n  tag_27\n  jumpi\n    /* \"#utility.yul\":987:1066   */\n  tag_28\n  tag_8\n  jump\t// in\ntag_28:\n    /* \"#utility.yul\":949:1068   */\ntag_27:\n    /* \"#utility.yul\":1107:1108   */\n  0x00\n    /* \"#utility.yul\":1132:1196   */\n  tag_29\n    /* \"#utility.yul\":1188:1195   */\n  dup6\n    /* \"#utility.yul\":1179:1185   */\n  dup3\n    /* \"#utility.yul\":1168:1177   */\n  dup7\n    /* \"#utility.yul\":1164:1186   */\n  add\n    /* \"#utility.yul\":1132:1196   */\n  tag_13\n  jump\t// in\ntag_29:\n    /* \"#utility.yul\":1122:1196   */\n  swap3\n  pop\n    /* \"#utility.yul\":1078:1206   */\n  pop\n    /* \"#utility.yul\":1245:1247   */\n  0x20\n    /* \"#utility.yul\":1271:1335   */\n  tag_30\n    /* \"#utility.yul\":1327:1334   */\n  dup6\n    /* \"#utility.yul\":1318:1324   */\n  dup3\n    /* \"#utility.yul\":1307:1316   */\n  dup7\n    /* \"#utility.yul\":1303:1325   */\n  add\n    /* \"#utility.yul\":1271:1335   */\n  tag_13\n  jump\t// in\ntag_30:\n    /* \"#utility.yul\":1261:1335   */\n  swap2\n  pop\n    /* \"#utility.yul\":1216:1345   */\n  pop\n    /* \"#utility.yul\":845:1352   */\n  swap3\n  pop\n  swap3\n  swap1\n  pop\n  jump\t// out\n    /* \"bonding_contract.sol\":1569:5677  contract Bonding {... */\ntag_6:\n  dataSize(sub_0)\n  dup1\n  dataOffset(sub_0)\n  0x00\n  codecopy\n  0x00\n  return\nstop\n\nsub_0: assembly {\n        /* \"bonding_contract.sol\":1569:5677  contract Bonding {... */\n      mstore(0x40, 0x80)\n      callvalue\n      dup1\n      iszero\n      tag_1\n      jumpi\n      revert(0x00, 0x00)\n    tag_1:\n      pop\n      jumpi(tag_2, lt(calldatasize, 0x04))\n      shr(0xe0, calldataload(0x00))\n      dup1\n      0x8da5cb5b\n      gt\n      tag_17\n      jumpi\n      dup1\n      0xbbf6119a\n      gt\n      tag_18\n      jumpi\n      dup1\n      0xbbf6119a\n      eq\n      tag_13\n      jumpi\n      dup1\n      0xdc38679c\n      eq\n      tag_14\n      jumpi\n      dup1\n      0xe6c0e6d5\n      eq\n      tag_15\n      jumpi\n      dup1\n      0xf2fde38b\n      eq\n      tag_16\n      jumpi\n      jump(tag_2)\n    tag_18:\n      dup1\n      0x8da5cb5b\n      eq\n      tag_10\n      jumpi\n      dup1\n      0x9940686e\n      eq\n      tag_11\n      jumpi\n      dup1\n      0xb357964b\n      eq\n      tag_12\n      jumpi\n      jump(tag_2)\n    tag_17:\n      dup1\n      0x69328dec\n      gt\n      tag_19\n      jumpi\n      dup1\n      0x69328dec\n      eq\n      tag_6\n      jumpi\n      dup1\n      0x6a64eff8\n      eq\n      tag_7\n      jumpi\n      dup1\n      0x7c69febd\n      eq\n      tag_8\n      jumpi\n      dup1\n      0x861b67ab\n      eq\n      tag_9\n      jumpi\n      jump(tag_2)\n    tag_19:\n      dup1\n      0x3a6eb3df\n      eq\n      tag_3\n      jumpi\n      dup1\n      0x3fc8cef3\n      eq\n      tag_4\n      jumpi\n      dup1\n      0x5e3124ed\n      eq\n      tag_5\n      jumpi\n    tag_2:\n      revert(0x00, 0x00)\n        /* \"bonding_contract.sol\":1671:1692  address public mlAMPL */\n    tag_3:\n      tag_20\n      tag_21\n      jump\t// in\n    tag_20:\n      mload(0x40)\n      tag_22\n      swap2\n      swap1\n      tag_23\n      jump\t// in\n    tag_22:\n      mload(0x40)\n      dup1\n      swap2\n      sub\n      swap1\n      return\n        /* \"bonding_contract.sol\":1620:1639  address public weth */\n    tag_4:\n      tag_24\n      tag_25\n      jump\t// in\n    tag_24:\n      mload(0x40)\n      tag_26\n      swap2\n      swap1\n      tag_23\n      jump\t// in\n    tag_26:\n      mload(0x40)\n      dup1\n      swap2\n      sub\n      swap1\n      return\n        /* \"bonding_contract.sol\":5538:5674  function checkContractMLAMPLBalance() external view returns (uint256) {... */\n    tag_5:\n      tag_27\n      tag_28\n      jump\t// in\n    tag_27:\n      mload(0x40)\n      tag_29\n      swap2\n      swap1\n      tag_30\n      jump\t// in\n    tag_29:\n      mload(0x40)\n      dup1\n      swap2\n      sub\n      swap1\n      return\n        /* \"bonding_contract.sol\":4616:5084  function withdraw(address token, uint256 amount, address recipient) external onlyOwner {... */\n    tag_6:\n      tag_31\n      0x04\n      dup1\n      calldatasize\n      sub\n      dup2\n      add\n      swap1\n      tag_32\n      swap2\n      swap1\n      tag_33\n      jump\t// in\n    tag_32:\n      tag_34\n      jump\t// in\n    tag_31:\n      stop\n        /* \"bonding_contract.sol\":2631:2741  function setTargetPrice(uint256 _targetPrice) external onlyOwner {... */\n    tag_7:\n      tag_35\n      0x04\n      dup1\n      calldatasize\n      sub\n      dup2\n      add\n      swap1\n      tag_36\n      swap2\n      swap1\n      tag_37\n      jump\t// in\n    tag_36:\n      tag_38\n      jump\t// in\n    tag_35:\n      stop\n        /* \"bonding_contract.sol\":2444:2623  function setDiscountRate(uint256 _discountRate) external onlyOwner {... */\n    tag_8:\n      tag_39\n      0x04\n      dup1\n      calldatasize\n      sub\n      dup2\n      add\n      swap1\n      tag_40\n      swap2\n      swap1\n      tag_37\n      jump\t// in\n    tag_40:\n      tag_41\n      jump\t// in\n    tag_39:\n      stop\n        /* \"bonding_contract.sol\":5399:5530  function checkMLAMPLBalance(address user) external view returns (uint256) {... */\n    tag_9:\n      tag_42\n      0x04\n      dup1\n      calldatasize\n      sub\n      dup2\n      add\n      swap1\n      tag_43\n      swap2\n      swap1\n      tag_44\n      jump\t// in\n    tag_43:\n      tag_45\n      jump\t// in\n    tag_42:\n      mload(0x40)\n      tag_46\n      swap2\n      swap1\n      tag_30\n      jump\t// in\n    tag_46:\n      mload(0x40)\n      dup1\n      swap2\n      sub\n      swap1\n      return\n        /* \"bonding_contract.sol\":1593:1613  address public owner */\n    tag_10:\n      tag_47\n      tag_48\n      jump\t// in\n    tag_47:\n      mload(0x40)\n      tag_49\n      swap2\n      swap1\n      tag_23\n      jump\t// in\n    tag_49:\n      mload(0x40)\n      dup1\n      swap2\n      sub\n      swap1\n      return\n        /* \"bonding_contract.sol\":2987:4608  function bond(uint256 wethAmount) external {... */\n    tag_11:\n      tag_50\n      0x04\n      dup1\n      calldatasize\n      sub\n      dup2\n      add\n      swap1\n      tag_51\n      swap2\n      swap1\n      tag_37\n      jump\t// in\n    tag_51:\n      tag_52\n      jump\t// in\n    tag_50:\n      stop\n        /* \"bonding_contract.sol\":5116:5258  function checkWETHAllowance(address user) external view returns (uint256) {... */\n    tag_12:\n      tag_53\n      0x04\n      dup1\n      calldatasize\n      sub\n      dup2\n      add\n      swap1\n      tag_54\n      swap2\n      swap1\n      tag_44\n      jump\t// in\n    tag_54:\n      tag_55\n      jump\t// in\n    tag_53:\n      mload(0x40)\n      tag_56\n      swap2\n      swap1\n      tag_30\n      jump\t// in\n    tag_56:\n      mload(0x40)\n      dup1\n      swap2\n      sub\n      swap1\n      return\n        /* \"bonding_contract.sol\":5266:5391  function checkWETHBalance(address user) external view returns (uint256) {... */\n    tag_13:\n      tag_57\n      0x04\n      dup1\n      calldatasize\n      sub\n      dup2\n      add\n      swap1\n      tag_58\n      swap2\n      swap1\n      tag_44\n      jump\t// in\n    tag_58:\n      tag_59\n      jump\t// in\n    tag_57:\n      mload(0x40)\n      tag_60\n      swap2\n      swap1\n      tag_30\n      jump\t// in\n    tag_60:\n      mload(0x40)\n      dup1\n      swap2\n      sub\n      swap1\n      return\n        /* \"bonding_contract.sol\":1781:1825  uint256 public targetPrice = 367377597059803 */\n    tag_14:\n      tag_61\n      tag_62\n      jump\t// in\n    tag_61:\n      mload(0x40)\n      tag_63\n      swap2\n      swap1\n      tag_30\n      jump\t// in\n    tag_63:\n      mload(0x40)\n      dup1\n      swap2\n      sub\n      swap1\n      return\n        /* \"bonding_contract.sol\":1728:1759  uint256 public discountRate = 5 */\n    tag_15:\n      tag_64\n      tag_65\n      jump\t// in\n    tag_64:\n      mload(0x40)\n      tag_66\n      swap2\n      swap1\n      tag_30\n      jump\t// in\n    tag_66:\n      mload(0x40)\n      dup1\n      swap2\n      sub\n      swap1\n      return\n        /* \"bonding_contract.sol\":2749:2979  function transferOwnership(address newOwner) external onlyOwner {... */\n    tag_16:\n      tag_67\n      0x04\n      dup1\n      calldatasize\n      sub\n      dup2\n      add\n      swap1\n      tag_68\n      swap2\n      swap1\n      tag_44\n      jump\t// in\n    tag_68:\n      tag_69\n      jump\t// in\n    tag_67:\n      stop\n        /* \"bonding_contract.sol\":1671:1692  address public mlAMPL */\n    tag_21:\n      0x02\n      0x00\n      swap1\n      sload\n      swap1\n      0x0100\n      exp\n      swap1\n      div\n      0xffffffffffffffffffffffffffffffffffffffff\n      and\n      dup2\n      jump\t// out\n        /* \"bonding_contract.sol\":1620:1639  address public weth */\n    tag_25:\n      0x01\n      0x00\n      swap1\n      sload\n      swap1\n      0x0100\n      exp\n      swap1\n      div\n      0xffffffffffffffffffffffffffffffffffffffff\n      and\n      dup2\n      jump\t// out\n        /* \"bonding_contract.sol\":5538:5674  function checkContractMLAMPLBalance() external view returns (uint256) {... */\n    tag_28:\n        /* \"bonding_contract.sol\":5599:5606  uint256 */\n      0x00\n        /* \"bonding_contract.sol\":5634:5640  mlAMPL */\n      0x02\n      0x00\n      swap1\n      sload\n      swap1\n      0x0100\n      exp\n      swap1\n      div\n      0xffffffffffffffffffffffffffffffffffffffff\n      and\n        /* \"bonding_contract.sol\":5626:5651  IMLAMPL(mlAMPL).balanceOf */\n      0xffffffffffffffffffffffffffffffffffffffff\n      and\n      0x70a08231\n        /* \"bonding_contract.sol\":5660:5664  this */\n      address\n        /* \"bonding_contract.sol\":5626:5666  IMLAMPL(mlAMPL).balanceOf(address(this)) */\n      mload(0x40)\n      dup3\n      0xffffffff\n      and\n      0xe0\n      shl\n      dup2\n      mstore\n      0x04\n      add\n      tag_71\n      swap2\n      swap1\n      tag_23\n      jump\t// in\n    tag_71:\n      0x20\n      mload(0x40)\n      dup1\n      dup4\n      sub\n      dup2\n      dup7\n      gas\n      staticcall\n      iszero\n      dup1\n      iszero\n      tag_73\n      jumpi\n      returndatacopy(0x00, 0x00, returndatasize)\n      revert(0x00, returndatasize)\n    tag_73:\n      pop\n      pop\n      pop\n      pop\n      mload(0x40)\n      returndatasize\n      not(0x1f)\n      0x1f\n      dup3\n      add\n      and\n      dup3\n      add\n      dup1\n      0x40\n      mstore\n      pop\n      dup2\n      add\n      swap1\n      tag_74\n      swap2\n      swap1\n      tag_75\n      jump\t// in\n    tag_74:\n        /* \"bonding_contract.sol\":5619:5666  return IMLAMPL(mlAMPL).balanceOf(address(this)) */\n      swap1\n      pop\n        /* \"bonding_contract.sol\":5538:5674  function checkContractMLAMPLBalance() external view returns (uint256) {... */\n      swap1\n      jump\t// out\n        /* \"bonding_contract.sol\":4616:5084  function withdraw(address token, uint256 amount, address recipient) external onlyOwner {... */\n    tag_34:\n        /* \"bonding_contract.sol\":2392:2397  owner */\n      0x00\n      0x00\n      swap1\n      sload\n      swap1\n      0x0100\n      exp\n      swap1\n      div\n      0xffffffffffffffffffffffffffffffffffffffff\n      and\n        /* \"bonding_contract.sol\":2378:2397  msg.sender == owner */\n      0xffffffffffffffffffffffffffffffffffffffff\n      and\n        /* \"bonding_contract.sol\":2378:2388  msg.sender */\n      caller\n        /* \"bonding_contract.sol\":2378:2397  msg.sender == owner */\n      0xffffffffffffffffffffffffffffffffffffffff\n      and\n      eq\n        /* \"bonding_contract.sol\":2370:2416  require(msg.sender == owner, \"Not authorized\") */\n      tag_77\n      jumpi\n      mload(0x40)\n      0x08c379a000000000000000000000000000000000000000000000000000000000\n      dup2\n      mstore\n      0x04\n      add\n      tag_78\n      swap1\n      tag_79\n      jump\t// in\n    tag_78:\n      mload(0x40)\n      dup1\n      swap2\n      sub\n      swap1\n      revert\n    tag_77:\n        /* \"bonding_contract.sol\":4743:4744  0 */\n      0x00\n        /* \"bonding_contract.sol\":4722:4745  recipient != address(0) */\n      0xffffffffffffffffffffffffffffffffffffffff\n      and\n        /* \"bonding_contract.sol\":4722:4731  recipient */\n      dup2\n        /* \"bonding_contract.sol\":4722:4745  recipient != address(0) */\n      0xffffffffffffffffffffffffffffffffffffffff\n      and\n      sub\n        /* \"bonding_contract.sol\":4714:4775  require(recipient != address(0), \"Invalid recipient address\") */\n      tag_81\n      jumpi\n      mload(0x40)\n      0x08c379a000000000000000000000000000000000000000000000000000000000\n      dup2\n      mstore\n      0x04\n      add\n      tag_82\n      swap1\n      tag_83\n      jump\t// in\n    tag_82:\n      mload(0x40)\n      dup1\n      swap2\n      sub\n      swap1\n      revert\n    tag_81:\n        /* \"bonding_contract.sol\":4803:4804  0 */\n      0x00\n        /* \"bonding_contract.sol\":4794:4800  amount */\n      dup3\n        /* \"bonding_contract.sol\":4794:4804  amount > 0 */\n      gt\n        /* \"bonding_contract.sol\":4786:4841  require(amount > 0, \"Amount must be greater than zero\") */\n      tag_84\n      jumpi\n      mload(0x40)\n      0x08c379a000000000000000000000000000000000000000000000000000000000\n      dup2\n      mstore\n      0x04\n      add\n      tag_85\n      swap1\n      tag_86\n      jump\t// in\n    tag_85:\n      mload(0x40)\n      dup1\n      swap2\n      sub\n      swap1\n      revert\n    tag_84:\n        /* \"bonding_contract.sol\":4854:4869  uint256 balance */\n      0x00\n        /* \"bonding_contract.sol\":4879:4884  token */\n      dup4\n        /* \"bonding_contract.sol\":4872:4895  IERC20(token).balanceOf */\n      0xffffffffffffffffffffffffffffffffffffffff\n      and\n      0x70a08231\n        /* \"bonding_contract.sol\":4904:4908  this */\n      address\n        /* \"bonding_contract.sol\":4872:4910  IERC20(token).balanceOf(address(this)) */\n      mload(0x40)\n      dup3\n      0xffffffff\n      and\n      0xe0\n      shl\n      dup2\n      mstore\n      0x04\n      add\n      tag_87\n      swap2\n      swap1\n      tag_23\n      jump\t// in\n    tag_87:\n      0x20\n      mload(0x40)\n      dup1\n      dup4\n      sub\n      dup2\n      dup7\n      gas\n      staticcall\n      iszero\n      dup1\n      iszero\n      tag_89\n      jumpi\n      returndatacopy(0x00, 0x00, returndatasize)\n      revert(0x00, returndatasize)\n    tag_89:\n      pop\n      pop\n      pop\n      pop\n      mload(0x40)\n      returndatasize\n      not(0x1f)\n      0x1f\n      dup3\n      add\n      and\n      dup3\n      add\n      dup1\n      0x40\n      mstore\n      pop\n      dup2\n      add\n      swap1\n      tag_90\n      swap2\n      swap1\n      tag_75\n      jump\t// in\n    tag_90:\n        /* \"bonding_contract.sol\":4854:4910  uint256 balance = IERC20(token).balanceOf(address(this)) */\n      swap1\n      pop\n        /* \"bonding_contract.sol\":4940:4946  amount */\n      dup3\n        /* \"bonding_contract.sol\":4929:4936  balance */\n      dup2\n        /* \"bonding_contract.sol\":4929:4946  balance >= amount */\n      lt\n      iszero\n        /* \"bonding_contract.sol\":4921:4971  require(balance >= amount, \"Insufficient balance\") */\n      tag_91\n      jumpi\n      mload(0x40)\n      0x08c379a000000000000000000000000000000000000000000000000000000000\n      dup2\n      mstore\n      0x04\n      add\n      tag_92\n      swap1\n      tag_93\n      jump\t// in\n    tag_92:\n      mload(0x40)\n      dup1\n      swap2\n      sub\n      swap1\n      revert\n    tag_91:\n        /* \"bonding_contract.sol\":4991:4996  token */\n      dup4\n        /* \"bonding_contract.sol\":4984:5006  IERC20(token).transfer */\n      0xffffffffffffffffffffffffffffffffffffffff\n      and\n      0xa9059cbb\n        /* \"bonding_contract.sol\":5007:5016  recipient */\n      dup4\n        /* \"bonding_contract.sol\":5018:5024  amount */\n      dup6\n        /* \"bonding_contract.sol\":4984:5025  IERC20(token).transfer(recipient, amount) */\n      mload(0x40)\n      dup4\n      0xffffffff\n      and\n      0xe0\n      shl\n      dup2\n      mstore\n      0x04\n      add\n      tag_94\n      swap3\n      swap2\n      swap1\n      tag_95\n      jump\t// in\n    tag_94:\n      0x20\n      mload(0x40)\n      dup1\n      dup4\n      sub\n      dup2\n      0x00\n      dup8\n      gas\n      call\n      iszero\n      dup1\n      iszero\n      tag_97\n      jumpi\n      returndatacopy(0x00, 0x00, returndatasize)\n      revert(0x00, returndatasize)\n    tag_97:\n      pop\n      pop\n      pop\n      pop\n      mload(0x40)\n      returndatasize\n      not(0x1f)\n      0x1f\n      dup3\n      add\n      and\n      dup3\n      add\n      dup1\n      0x40\n      mstore\n      pop\n      dup2\n      add\n      swap1\n      tag_98\n      swap2\n      swap1\n      tag_99\n      jump\t// in\n    tag_98:\n      pop\n        /* \"bonding_contract.sol\":5058:5067  recipient */\n      dup2\n        /* \"bonding_contract.sol\":5041:5076  Withdrawn(token, recipient, amount) */\n      0xffffffffffffffffffffffffffffffffffffffff\n      and\n        /* \"bonding_contract.sol\":5051:5056  token */\n      dup5\n        /* \"bonding_contract.sol\":5041:5076  Withdrawn(token, recipient, amount) */\n      0xffffffffffffffffffffffffffffffffffffffff\n      and\n      0xd1c19fbcd4551a5edfb66d43d2e337c04837afda3482b42bdf569a8fccdae5fb\n        /* \"bonding_contract.sol\":5069:5075  amount */\n      dup6\n        /* \"bonding_contract.sol\":5041:5076  Withdrawn(token, recipient, amount) */\n      mload(0x40)\n      tag_100\n      swap2\n      swap1\n      tag_30\n      jump\t// in\n    tag_100:\n      mload(0x40)\n      dup1\n      swap2\n      sub\n      swap1\n      log3\n        /* \"bonding_contract.sol\":4703:5084  {... */\n      pop\n        /* \"bonding_contract.sol\":4616:5084  function withdraw(address token, uint256 amount, address recipient) external onlyOwner {... */\n      pop\n      pop\n      pop\n      jump\t// out\n        /* \"bonding_contract.sol\":2631:2741  function setTargetPrice(uint256 _targetPrice) external onlyOwner {... */\n    tag_38:\n        /* \"bonding_contract.sol\":2392:2397  owner */\n      0x00\n      0x00\n      swap1\n      sload\n      swap1\n      0x0100\n      exp\n      swap1\n      div\n      0xffffffffffffffffffffffffffffffffffffffff\n      and\n        /* \"bonding_contract.sol\":2378:2397  msg.sender == owner */\n      0xffffffffffffffffffffffffffffffffffffffff\n      and\n        /* \"bonding_contract.sol\":2378:2388  msg.sender */\n      caller\n        /* \"bonding_contract.sol\":2378:2397  msg.sender == owner */\n      0xffffffffffffffffffffffffffffffffffffffff\n      and\n      eq\n        /* \"bonding_contract.sol\":2370:2416  require(msg.sender == owner, \"Not authorized\") */\n      tag_102\n      jumpi\n      mload(0x40)\n      0x08c379a000000000000000000000000000000000000000000000000000000000\n      dup2\n      mstore\n      0x04\n      add\n      tag_103\n      swap1\n      tag_79\n      jump\t// in\n    tag_103:\n      mload(0x40)\n      dup1\n      swap2\n      sub\n      swap1\n      revert\n    tag_102:\n        /* \"bonding_contract.sol\":2721:2733  _targetPrice */\n      dup1\n        /* \"bonding_contract.sol\":2707:2718  targetPrice */\n      0x04\n        /* \"bonding_contract.sol\":2707:2733  targetPrice = _targetPrice */\n      dup2\n      swap1\n      sstore\n      pop\n        /* \"bonding_contract.sol\":2631:2741  function setTargetPrice(uint256 _targetPrice) external onlyOwner {... */\n      pop\n      jump\t// out\n        /* \"bonding_contract.sol\":2444:2623  function setDiscountRate(uint256 _discountRate) external onlyOwner {... */\n    tag_41:\n        /* \"bonding_contract.sol\":2392:2397  owner */\n      0x00\n      0x00\n      swap1\n      sload\n      swap1\n      0x0100\n      exp\n      swap1\n      div\n      0xffffffffffffffffffffffffffffffffffffffff\n      and\n        /* \"bonding_contract.sol\":2378:2397  msg.sender == owner */\n      0xffffffffffffffffffffffffffffffffffffffff\n      and\n        /* \"bonding_contract.sol\":2378:2388  msg.sender */\n      caller\n        /* \"bonding_contract.sol\":2378:2397  msg.sender == owner */\n      0xffffffffffffffffffffffffffffffffffffffff\n      and\n      eq\n        /* \"bonding_contract.sol\":2370:2416  require(msg.sender == owner, \"Not authorized\") */\n      tag_106\n      jumpi\n      mload(0x40)\n      0x08c379a000000000000000000000000000000000000000000000000000000000\n      dup2\n      mstore\n      0x04\n      add\n      tag_107\n      swap1\n      tag_79\n      jump\t// in\n    tag_107:\n      mload(0x40)\n      dup1\n      swap2\n      sub\n      swap1\n      revert\n    tag_106:\n        /* \"bonding_contract.sol\":2547:2550  100 */\n      0x64\n        /* \"bonding_contract.sol\":2530:2543  _discountRate */\n      dup2\n        /* \"bonding_contract.sol\":2530:2550  _discountRate <= 100 */\n      gt\n      iszero\n        /* \"bonding_contract.sol\":2522:2576  require(_discountRate <= 100, \"Invalid discount rate\") */\n      tag_109\n      jumpi\n      mload(0x40)\n      0x08c379a000000000000000000000000000000000000000000000000000000000\n      dup2\n      mstore\n      0x04\n      add\n      tag_110\n      swap1\n      tag_111\n      jump\t// in\n    tag_110:\n      mload(0x40)\n      dup1\n      swap2\n      sub\n      swap1\n      revert\n    tag_109:\n        /* \"bonding_contract.sol\":2602:2615  _discountRate */\n      dup1\n        /* \"bonding_contract.sol\":2587:2599  discountRate */\n      0x03\n        /* \"bonding_contract.sol\":2587:2615  discountRate = _discountRate */\n      dup2\n      swap1\n      sstore\n      pop\n        /* \"bonding_contract.sol\":2444:2623  function setDiscountRate(uint256 _discountRate) external onlyOwner {... */\n      pop\n      jump\t// out\n        /* \"bonding_contract.sol\":5399:5530  function checkMLAMPLBalance(address user) external view returns (uint256) {... */\n    tag_45:\n        /* \"bonding_contract.sol\":5464:5471  uint256 */\n      0x00\n        /* \"bonding_contract.sol\":5499:5505  mlAMPL */\n      0x02\n      0x00\n      swap1\n      sload\n      swap1\n      0x0100\n      exp\n      swap1\n      div\n      0xffffffffffffffffffffffffffffffffffffffff\n      and\n        /* \"bonding_contract.sol\":5491:5516  IMLAMPL(mlAMPL).balanceOf */\n      0xffffffffffffffffffffffffffffffffffffffff\n      and\n      0x70a08231\n        /* \"bonding_contract.sol\":5517:5521  user */\n      dup4\n        /* \"bonding_contract.sol\":5491:5522  IMLAMPL(mlAMPL).balanceOf(user) */\n      mload(0x40)\n      dup3\n      0xffffffff\n      and\n      0xe0\n      shl\n      dup2\n      mstore\n      0x04\n      add\n      tag_113\n      swap2\n      swap1\n      tag_23\n      jump\t// in\n    tag_113:\n      0x20\n      mload(0x40)\n      dup1\n      dup4\n      sub\n      dup2\n      dup7\n      gas\n      staticcall\n      iszero\n      dup1\n      iszero\n      tag_115\n      jumpi\n      returndatacopy(0x00, 0x00, returndatasize)\n      revert(0x00, returndatasize)\n    tag_115:\n      pop\n      pop\n      pop\n      pop\n      mload(0x40)\n      returndatasize\n      not(0x1f)\n      0x1f\n      dup3\n      add\n      and\n      dup3\n      add\n      dup1\n      0x40\n      mstore\n      pop\n      dup2\n      add\n      swap1\n      tag_116\n      swap2\n      swap1\n      tag_75\n      jump\t// in\n    tag_116:\n        /* \"bonding_contract.sol\":5484:5522  return IMLAMPL(mlAMPL).balanceOf(user) */\n      swap1\n      pop\n        /* \"bonding_contract.sol\":5399:5530  function checkMLAMPLBalance(address user) external view returns (uint256) {... */\n      swap2\n      swap1\n      pop\n      jump\t// out\n        /* \"bonding_contract.sol\":1593:1613  address public owner */\n    tag_48:\n      0x00\n      0x00\n      swap1\n      sload\n      swap1\n      0x0100\n      exp\n      swap1\n      div\n      0xffffffffffffffffffffffffffffffffffffffff\n      and\n      dup2\n      jump\t// out\n        /* \"bonding_contract.sol\":2987:4608  function bond(uint256 wethAmount) external {... */\n    tag_52:\n        /* \"bonding_contract.sol\":3062:3063  0 */\n      0x00\n        /* \"bonding_contract.sol\":3049:3059  wethAmount */\n      dup2\n        /* \"bonding_contract.sol\":3049:3063  wethAmount > 0 */\n      gt\n        /* \"bonding_contract.sol\":3041:3085  require(wethAmount > 0, \"Must deposit WETH\") */\n      tag_118\n      jumpi\n      mload(0x40)\n      0x08c379a000000000000000000000000000000000000000000000000000000000\n      dup2\n      mstore\n      0x04\n      add\n      tag_119\n      swap1\n      tag_120\n      jump\t// in\n    tag_119:\n      mload(0x40)\n      dup1\n      swap2\n      sub\n      swap1\n      revert\n    tag_118:\n        /* \"bonding_contract.sol\":3141:3158  uint256 allowance */\n      0x00\n        /* \"bonding_contract.sol\":3167:3171  weth */\n      0x01\n      0x00\n      swap1\n      sload\n      swap1\n      0x0100\n      exp\n      swap1\n      div\n      0xffffffffffffffffffffffffffffffffffffffff\n      and\n        /* \"bonding_contract.sol\":3161:3182  IWETH(weth).allowance */\n      0xffffffffffffffffffffffffffffffffffffffff\n      and\n      0xdd62ed3e\n        /* \"bonding_contract.sol\":3183:3193  msg.sender */\n      caller\n        /* \"bonding_contract.sol\":3203:3207  this */\n      address\n        /* \"bonding_contract.sol\":3161:3209  IWETH(weth).allowance(msg.sender, address(this)) */\n      mload(0x40)\n      dup4\n      0xffffffff\n      and\n      0xe0\n      shl\n      dup2\n      mstore\n      0x04\n      add\n      tag_121\n      swap3\n      swap2\n      swap1\n      tag_122\n      jump\t// in\n    tag_121:\n      0x20\n      mload(0x40)\n      dup1\n      dup4\n      sub\n      dup2\n      dup7\n      gas\n      staticcall\n      iszero\n      dup1\n      iszero\n      tag_124\n      jumpi\n      returndatacopy(0x00, 0x00, returndatasize)\n      revert(0x00, returndatasize)\n    tag_124:\n      pop\n      pop\n      pop\n      pop\n      mload(0x40)\n      returndatasize\n      not(0x1f)\n      0x1f\n      dup3\n      add\n      and\n      dup3\n      add\n      dup1\n      0x40\n      mstore\n      pop\n      dup2\n      add\n      swap1\n      tag_125\n      swap2\n      swap1\n      tag_75\n      jump\t// in\n    tag_125:\n        /* \"bonding_contract.sol\":3141:3209  uint256 allowance = IWETH(weth).allowance(msg.sender, address(this)) */\n      swap1\n      pop\n        /* \"bonding_contract.sol\":3241:3251  wethAmount */\n      dup2\n        /* \"bonding_contract.sol\":3228:3237  allowance */\n      dup2\n        /* \"bonding_contract.sol\":3228:3251  allowance >= wethAmount */\n      lt\n      iszero\n        /* \"bonding_contract.sol\":3220:3280  require(allowance >= wethAmount, \"Allowance not sufficient\") */\n      tag_126\n      jumpi\n      mload(0x40)\n      0x08c379a000000000000000000000000000000000000000000000000000000000\n      dup2\n      mstore\n      0x04\n      add\n      tag_127\n      swap1\n      tag_128\n      jump\t// in\n    tag_127:\n      mload(0x40)\n      dup1\n      swap2\n      sub\n      swap1\n      revert\n    tag_126:\n        /* \"bonding_contract.sol\":3356:3360  weth */\n      0x01\n      0x00\n      swap1\n      sload\n      swap1\n      0x0100\n      exp\n      swap1\n      div\n      0xffffffffffffffffffffffffffffffffffffffff\n      and\n        /* \"bonding_contract.sol\":3350:3374  IWETH(weth).transferFrom */\n      0xffffffffffffffffffffffffffffffffffffffff\n      and\n      0x23b872dd\n        /* \"bonding_contract.sol\":3375:3385  msg.sender */\n      caller\n        /* \"bonding_contract.sol\":3395:3399  this */\n      address\n        /* \"bonding_contract.sol\":3402:3412  wethAmount */\n      dup6\n        /* \"bonding_contract.sol\":3350:3413  IWETH(weth).transferFrom(msg.sender, address(this), wethAmount) */\n      mload(0x40)\n      dup5\n      0xffffffff\n      and\n      0xe0\n      shl\n      dup2\n      mstore\n      0x04\n      add\n      tag_129\n      swap4\n      swap3\n      swap2\n      swap1\n      tag_130\n      jump\t// in\n    tag_129:\n      0x20\n      mload(0x40)\n      dup1\n      dup4\n      sub\n      dup2\n      0x00\n      dup8\n      gas\n      call\n      iszero\n      dup1\n      iszero\n      tag_132\n      jumpi\n      returndatacopy(0x00, 0x00, returndatasize)\n      revert(0x00, returndatasize)\n    tag_132:\n      pop\n      pop\n      pop\n      pop\n      mload(0x40)\n      returndatasize\n      not(0x1f)\n      0x1f\n      dup3\n      add\n      and\n      dup3\n      add\n      dup1\n      0x40\n      mstore\n      pop\n      dup2\n      add\n      swap1\n      tag_133\n      swap2\n      swap1\n      tag_99\n      jump\t// in\n    tag_133:\n      pop\n        /* \"bonding_contract.sol\":3477:3500  uint256 discountedPrice */\n      0x00\n        /* \"bonding_contract.sol\":3542:3545  100 */\n      0x64\n        /* \"bonding_contract.sol\":3525:3537  discountRate */\n      sload(0x03)\n        /* \"bonding_contract.sol\":3519:3522  100 */\n      0x64\n        /* \"bonding_contract.sol\":3519:3537  100 - discountRate */\n      tag_134\n      swap2\n      swap1\n      tag_135\n      jump\t// in\n    tag_134:\n        /* \"bonding_contract.sol\":3504:3515  targetPrice */\n      sload(0x04)\n        /* \"bonding_contract.sol\":3504:3538  targetPrice * (100 - discountRate) */\n      tag_136\n      swap2\n      swap1\n      tag_137\n      jump\t// in\n    tag_136:\n        /* \"bonding_contract.sol\":3503:3545  (targetPrice * (100 - discountRate)) / 100 */\n      tag_138\n      swap2\n      swap1\n      tag_139\n      jump\t// in\n    tag_138:\n        /* \"bonding_contract.sol\":3477:3545  uint256 discountedPrice = (targetPrice * (100 - discountRate)) / 100 */\n      swap1\n      pop\n        /* \"bonding_contract.sol\":3556:3576  uint256 mlAMPLAmount */\n      0x00\n        /* \"bonding_contract.sol\":3601:3616  discountedPrice */\n      dup2\n        /* \"bonding_contract.sol\":3593:3597  1e18 */\n      0x0de0b6b3a7640000\n        /* \"bonding_contract.sol\":3580:3590  wethAmount */\n      dup6\n        /* \"bonding_contract.sol\":3580:3597  wethAmount * 1e18 */\n      tag_140\n      swap2\n      swap1\n      tag_137\n      jump\t// in\n    tag_140:\n        /* \"bonding_contract.sol\":3579:3616  (wethAmount * 1e18) / discountedPrice */\n      tag_141\n      swap2\n      swap1\n      tag_139\n      jump\t// in\n    tag_141:\n        /* \"bonding_contract.sol\":3556:3616  uint256 mlAMPLAmount = (wethAmount * 1e18) / discountedPrice */\n      swap1\n      pop\n        /* \"bonding_contract.sol\":3682:3704  uint256 currentBalance */\n      0x00\n        /* \"bonding_contract.sol\":3715:3721  mlAMPL */\n      0x02\n      0x00\n      swap1\n      sload\n      swap1\n      0x0100\n      exp\n      swap1\n      div\n      0xffffffffffffffffffffffffffffffffffffffff\n      and\n        /* \"bonding_contract.sol\":3707:3732  IMLAMPL(mlAMPL).balanceOf */\n      0xffffffffffffffffffffffffffffffffffffffff\n      and\n      0x70a08231\n        /* \"bonding_contract.sol\":3741:3745  this */\n      address\n        /* \"bonding_contract.sol\":3707:3747  IMLAMPL(mlAMPL).balanceOf(address(this)) */\n      mload(0x40)\n      dup3\n      0xffffffff\n      and\n      0xe0\n      shl\n      dup2\n      mstore\n      0x04\n      add\n      tag_142\n      swap2\n      swap1\n      tag_23\n      jump\t// in\n    tag_142:\n      0x20\n      mload(0x40)\n      dup1\n      dup4\n      sub\n      dup2\n      dup7\n      gas\n      staticcall\n      iszero\n      dup1\n      iszero\n      tag_144\n      jumpi\n      returndatacopy(0x00, 0x00, returndatasize)\n      revert(0x00, returndatasize)\n    tag_144:\n      pop\n      pop\n      pop\n      pop\n      mload(0x40)\n      returndatasize\n      not(0x1f)\n      0x1f\n      dup3\n      add\n      and\n      dup3\n      add\n      dup1\n      0x40\n      mstore\n      pop\n      dup2\n      add\n      swap1\n      tag_145\n      swap2\n      swap1\n      tag_75\n      jump\t// in\n    tag_145:\n        /* \"bonding_contract.sol\":3682:3747  uint256 currentBalance = IMLAMPL(mlAMPL).balanceOf(address(this)) */\n      swap1\n      pop\n        /* \"bonding_contract.sol\":3779:3791  mlAMPLAmount */\n      dup2\n        /* \"bonding_contract.sol\":3762:3776  currentBalance */\n      dup2\n        /* \"bonding_contract.sol\":3762:3791  currentBalance < mlAMPLAmount */\n      lt\n        /* \"bonding_contract.sol\":3758:4429  if (currentBalance < mlAMPLAmount) {... */\n      iszero\n      tag_146\n      jumpi\n        /* \"bonding_contract.sol\":3808:3826  uint256 mintAmount */\n      0x00\n        /* \"bonding_contract.sol\":3844:3858  currentBalance */\n      dup2\n        /* \"bonding_contract.sol\":3829:3841  mlAMPLAmount */\n      dup4\n        /* \"bonding_contract.sol\":3829:3858  mlAMPLAmount - currentBalance */\n      tag_147\n      swap2\n      swap1\n      tag_135\n      jump\t// in\n    tag_147:\n        /* \"bonding_contract.sol\":3808:3858  uint256 mintAmount = mlAMPLAmount - currentBalance */\n      swap1\n      pop\n        /* \"bonding_contract.sol\":3934:3953  uint256 totalSupply */\n      0x00\n        /* \"bonding_contract.sol\":3964:3970  mlAMPL */\n      0x02\n      0x00\n      swap1\n      sload\n      swap1\n      0x0100\n      exp\n      swap1\n      div\n      0xffffffffffffffffffffffffffffffffffffffff\n      and\n        /* \"bonding_contract.sol\":3956:3983  IMLAMPL(mlAMPL).totalSupply */\n      0xffffffffffffffffffffffffffffffffffffffff\n      and\n      0x18160ddd\n        /* \"bonding_contract.sol\":3956:3985  IMLAMPL(mlAMPL).totalSupply() */\n      mload(0x40)\n      dup2\n      0xffffffff\n      and\n      0xe0\n      shl\n      dup2\n      mstore\n      0x04\n      add\n      0x20\n      mload(0x40)\n      dup1\n      dup4\n      sub\n      dup2\n      dup7\n      gas\n      staticcall\n      iszero\n      dup1\n      iszero\n      tag_149\n      jumpi\n      returndatacopy(0x00, 0x00, returndatasize)\n      revert(0x00, returndatasize)\n    tag_149:\n      pop\n      pop\n      pop\n      pop\n      mload(0x40)\n      returndatasize\n      not(0x1f)\n      0x1f\n      dup3\n      add\n      and\n      dup3\n      add\n      dup1\n      0x40\n      mstore\n      pop\n      dup2\n      add\n      swap1\n      tag_150\n      swap2\n      swap1\n      tag_75\n      jump\t// in\n    tag_150:\n        /* \"bonding_contract.sol\":3934:3985  uint256 totalSupply = IMLAMPL(mlAMPL).totalSupply() */\n      swap1\n      pop\n        /* \"bonding_contract.sol\":4019:4020  0 */\n      0x00\n        /* \"bonding_contract.sol\":4004:4015  totalSupply */\n      dup2\n        /* \"bonding_contract.sol\":4004:4020  totalSupply == 0 */\n      sub\n        /* \"bonding_contract.sol\":4000:4418  if (totalSupply == 0) {... */\n      tag_151\n      jumpi\n        /* \"bonding_contract.sol\":4087:4093  mlAMPL */\n      0x02\n      0x00\n      swap1\n      sload\n      swap1\n      0x0100\n      exp\n      swap1\n      div\n      0xffffffffffffffffffffffffffffffffffffffff\n      and\n        /* \"bonding_contract.sol\":4079:4111  IMLAMPL(mlAMPL).initializeSupply */\n      0xffffffffffffffffffffffffffffffffffffffff\n      and\n      0xd9e63bb1\n        /* \"bonding_contract.sol\":4112:4122  mintAmount */\n      dup4\n        /* \"bonding_contract.sol\":4079:4123  IMLAMPL(mlAMPL).initializeSupply(mintAmount) */\n      mload(0x40)\n      dup3\n      0xffffffff\n      and\n      0xe0\n      shl\n      dup2\n      mstore\n      0x04\n      add\n      tag_152\n      swap2\n      swap1\n      tag_30\n      jump\t// in\n    tag_152:\n      0x00\n      mload(0x40)\n      dup1\n      dup4\n      sub\n      dup2\n      0x00\n      dup8\n      dup1\n      extcodesize\n      iszero\n      dup1\n      iszero\n      tag_153\n      jumpi\n      revert(0x00, 0x00)\n    tag_153:\n      pop\n      gas\n      call\n      iszero\n      dup1\n      iszero\n      tag_155\n      jumpi\n      returndatacopy(0x00, 0x00, returndatasize)\n      revert(0x00, returndatasize)\n    tag_155:\n      pop\n      pop\n      pop\n      pop\n        /* \"bonding_contract.sol\":4147:4186  Debug(\"Initialized Supply\", mintAmount) */\n      0x3c5ad147104e56be34a9176a6692f7df8d2f4b29a5af06bc6b98970d329d6577\n        /* \"bonding_contract.sol\":4175:4185  mintAmount */\n      dup3\n        /* \"bonding_contract.sol\":4147:4186  Debug(\"Initialized Supply\", mintAmount) */\n      mload(0x40)\n      tag_156\n      swap2\n      swap1\n      tag_157\n      jump\t// in\n    tag_156:\n      mload(0x40)\n      dup1\n      swap2\n      sub\n      swap1\n      log1\n        /* \"bonding_contract.sol\":4000:4418  if (totalSupply == 0) {... */\n      jump(tag_158)\n    tag_151:\n        /* \"bonding_contract.sol\":4305:4311  mlAMPL */\n      0x02\n      0x00\n      swap1\n      sload\n      swap1\n      0x0100\n      exp\n      swap1\n      div\n      0xffffffffffffffffffffffffffffffffffffffff\n      and\n        /* \"bonding_contract.sol\":4297:4317  IMLAMPL(mlAMPL).mint */\n      0xffffffffffffffffffffffffffffffffffffffff\n      and\n      0x40c10f19\n        /* \"bonding_contract.sol\":4326:4330  this */\n      address\n        /* \"bonding_contract.sol\":4333:4343  mintAmount */\n      dup5\n        /* \"bonding_contract.sol\":4297:4344  IMLAMPL(mlAMPL).mint(address(this), mintAmount) */\n      mload(0x40)\n      dup4\n      0xffffffff\n      and\n      0xe0\n      shl\n      dup2\n      mstore\n      0x04\n      add\n      tag_159\n      swap3\n      swap2\n      swap1\n      tag_95\n      jump\t// in\n    tag_159:\n      0x00\n      mload(0x40)\n      dup1\n      dup4\n      sub\n      dup2\n      0x00\n      dup8\n      dup1\n      extcodesize\n      iszero\n      dup1\n      iszero\n      tag_160\n      jumpi\n      revert(0x00, 0x00)\n    tag_160:\n      pop\n      gas\n      call\n      iszero\n      dup1\n      iszero\n      tag_162\n      jumpi\n      returndatacopy(0x00, 0x00, returndatasize)\n      revert(0x00, returndatasize)\n    tag_162:\n      pop\n      pop\n      pop\n      pop\n        /* \"bonding_contract.sol\":4368:4402  Debug(\"Minted Tokens\", mintAmount) */\n      0x3c5ad147104e56be34a9176a6692f7df8d2f4b29a5af06bc6b98970d329d6577\n        /* \"bonding_contract.sol\":4391:4401  mintAmount */\n      dup3\n        /* \"bonding_contract.sol\":4368:4402  Debug(\"Minted Tokens\", mintAmount) */\n      mload(0x40)\n      tag_163\n      swap2\n      swap1\n      tag_164\n      jump\t// in\n    tag_163:\n      mload(0x40)\n      dup1\n      swap2\n      sub\n      swap1\n      log1\n        /* \"bonding_contract.sol\":4000:4418  if (totalSupply == 0) {... */\n    tag_158:\n        /* \"bonding_contract.sol\":3793:4429  {... */\n      pop\n      pop\n        /* \"bonding_contract.sol\":3758:4429  if (currentBalance < mlAMPLAmount) {... */\n    tag_146:\n        /* \"bonding_contract.sol\":4489:4495  mlAMPL */\n      0x02\n      0x00\n      swap1\n      sload\n      swap1\n      0x0100\n      exp\n      swap1\n      div\n      0xffffffffffffffffffffffffffffffffffffffff\n      and\n        /* \"bonding_contract.sol\":4481:4505  IMLAMPL(mlAMPL).transfer */\n      0xffffffffffffffffffffffffffffffffffffffff\n      and\n      0xa9059cbb\n        /* \"bonding_contract.sol\":4506:4516  msg.sender */\n      caller\n        /* \"bonding_contract.sol\":4518:4530  mlAMPLAmount */\n      dup5\n        /* \"bonding_contract.sol\":4481:4531  IMLAMPL(mlAMPL).transfer(msg.sender, mlAMPLAmount) */\n      mload(0x40)\n      dup4\n      0xffffffff\n      and\n      0xe0\n      shl\n      dup2\n      mstore\n      0x04\n      add\n      tag_165\n      swap3\n      swap2\n      swap1\n      tag_95\n      jump\t// in\n    tag_165:\n      0x20\n      mload(0x40)\n      dup1\n      dup4\n      sub\n      dup2\n      0x00\n      dup8\n      gas\n      call\n      iszero\n      dup1\n      iszero\n      tag_167\n      jumpi\n      returndatacopy(0x00, 0x00, returndatasize)\n      revert(0x00, returndatasize)\n    tag_167:\n      pop\n      pop\n      pop\n      pop\n      mload(0x40)\n      returndatasize\n      not(0x1f)\n      0x1f\n      dup3\n      add\n      and\n      dup3\n      add\n      dup1\n      0x40\n      mstore\n      pop\n      dup2\n      add\n      swap1\n      tag_168\n      swap2\n      swap1\n      tag_99\n      jump\t// in\n    tag_168:\n      pop\n        /* \"bonding_contract.sol\":4563:4573  msg.sender */\n      caller\n        /* \"bonding_contract.sol\":4549:4600  BondPurchased(msg.sender, wethAmount, mlAMPLAmount) */\n      0xffffffffffffffffffffffffffffffffffffffff\n      and\n      0x0db13e87b3f9c3b8f5f3acad928df55c52ba6bf7795af4ec069de5e23caacb37\n        /* \"bonding_contract.sol\":4575:4585  wethAmount */\n      dup7\n        /* \"bonding_contract.sol\":4587:4599  mlAMPLAmount */\n      dup5\n        /* \"bonding_contract.sol\":4549:4600  BondPurchased(msg.sender, wethAmount, mlAMPLAmount) */\n      mload(0x40)\n      tag_169\n      swap3\n      swap2\n      swap1\n      tag_170\n      jump\t// in\n    tag_169:\n      mload(0x40)\n      dup1\n      swap2\n      sub\n      swap1\n      log2\n        /* \"bonding_contract.sol\":3030:4608  {... */\n      pop\n      pop\n      pop\n      pop\n        /* \"bonding_contract.sol\":2987:4608  function bond(uint256 wethAmount) external {... */\n      pop\n      jump\t// out\n        /* \"bonding_contract.sol\":5116:5258  function checkWETHAllowance(address user) external view returns (uint256) {... */\n    tag_55:\n        /* \"bonding_contract.sol\":5181:5188  uint256 */\n      0x00\n        /* \"bonding_contract.sol\":5214:5218  weth */\n      0x01\n      0x00\n      swap1\n      sload\n      swap1\n      0x0100\n      exp\n      swap1\n      div\n      0xffffffffffffffffffffffffffffffffffffffff\n      and\n        /* \"bonding_contract.sol\":5208:5229  IWETH(weth).allowance */\n      0xffffffffffffffffffffffffffffffffffffffff\n      and\n      0xdd62ed3e\n        /* \"bonding_contract.sol\":5230:5234  user */\n      dup4\n        /* \"bonding_contract.sol\":5244:5248  this */\n      address\n        /* \"bonding_contract.sol\":5208:5250  IWETH(weth).allowance(user, address(this)) */\n      mload(0x40)\n      dup4\n      0xffffffff\n      and\n      0xe0\n      shl\n      dup2\n      mstore\n      0x04\n      add\n      tag_172\n      swap3\n      swap2\n      swap1\n      tag_122\n      jump\t// in\n    tag_172:\n      0x20\n      mload(0x40)\n      dup1\n      dup4\n      sub\n      dup2\n      dup7\n      gas\n      staticcall\n      iszero\n      dup1\n      iszero\n      tag_174\n      jumpi\n      returndatacopy(0x00, 0x00, returndatasize)\n      revert(0x00, returndatasize)\n    tag_174:\n      pop\n      pop\n      pop\n      pop\n      mload(0x40)\n      returndatasize\n      not(0x1f)\n      0x1f\n      dup3\n      add\n      and\n      dup3\n      add\n      dup1\n      0x40\n      mstore\n      pop\n      dup2\n      add\n      swap1\n      tag_175\n      swap2\n      swap1\n      tag_75\n      jump\t// in\n    tag_175:\n        /* \"bonding_contract.sol\":5201:5250  return IWETH(weth).allowance(user, address(this)) */\n      swap1\n      pop\n        /* \"bonding_contract.sol\":5116:5258  function checkWETHAllowance(address user) external view returns (uint256) {... */\n      swap2\n      swap1\n      pop\n      jump\t// out\n        /* \"bonding_contract.sol\":5266:5391  function checkWETHBalance(address user) external view returns (uint256) {... */\n    tag_59:\n        /* \"bonding_contract.sol\":5329:5336  uint256 */\n      0x00\n        /* \"bonding_contract.sol\":5362:5366  weth */\n      0x01\n      0x00\n      swap1\n      sload\n      swap1\n      0x0100\n      exp\n      swap1\n      div\n      0xffffffffffffffffffffffffffffffffffffffff\n      and\n        /* \"bonding_contract.sol\":5356:5377  IWETH(weth).balanceOf */\n      0xffffffffffffffffffffffffffffffffffffffff\n      and\n      0x70a08231\n        /* \"bonding_contract.sol\":5378:5382  user */\n      dup4\n        /* \"bonding_contract.sol\":5356:5383  IWETH(weth).balanceOf(user) */\n      mload(0x40)\n      dup3\n      0xffffffff\n      and\n      0xe0\n      shl\n      dup2\n      mstore\n      0x04\n      add\n      tag_177\n      swap2\n      swap1\n      tag_23\n      jump\t// in\n    tag_177:\n      0x20\n      mload(0x40)\n      dup1\n      dup4\n      sub\n      dup2\n      dup7\n      gas\n      staticcall\n      iszero\n      dup1\n      iszero\n      tag_179\n      jumpi\n      returndatacopy(0x00, 0x00, returndatasize)\n      revert(0x00, returndatasize)\n    tag_179:\n      pop\n      pop\n      pop\n      pop\n      mload(0x40)\n      returndatasize\n      not(0x1f)\n      0x1f\n      dup3\n      add\n      and\n      dup3\n      add\n      dup1\n      0x40\n      mstore\n      pop\n      dup2\n      add\n      swap1\n      tag_180\n      swap2\n      swap1\n      tag_75\n      jump\t// in\n    tag_180:\n        /* \"bonding_contract.sol\":5349:5383  return IWETH(weth).balanceOf(user) */\n      swap1\n      pop\n        /* \"bonding_contract.sol\":5266:5391  function checkWETHBalance(address user) external view returns (uint256) {... */\n      swap2\n      swap1\n      pop\n      jump\t// out\n        /* \"bonding_contract.sol\":1781:1825  uint256 public targetPrice = 367377597059803 */\n    tag_62:\n      sload(0x04)\n      dup2\n      jump\t// out\n        /* \"bonding_contract.sol\":1728:1759  uint256 public discountRate = 5 */\n    tag_65:\n      sload(0x03)\n      dup2\n      jump\t// out\n        /* \"bonding_contract.sol\":2749:2979  function transferOwnership(address newOwner) external onlyOwner {... */\n    tag_69:\n        /* \"bonding_contract.sol\":2392:2397  owner */\n      0x00\n      0x00\n      swap1\n      sload\n      swap1\n      0x0100\n      exp\n      swap1\n      div\n      0xffffffffffffffffffffffffffffffffffffffff\n      and\n        /* \"bonding_contract.sol\":2378:2397  msg.sender == owner */\n      0xffffffffffffffffffffffffffffffffffffffff\n      and\n        /* \"bonding_contract.sol\":2378:2388  msg.sender */\n      caller\n        /* \"bonding_contract.sol\":2378:2397  msg.sender == owner */\n      0xffffffffffffffffffffffffffffffffffffffff\n      and\n      eq\n        /* \"bonding_contract.sol\":2370:2416  require(msg.sender == owner, \"Not authorized\") */\n      tag_182\n      jumpi\n      mload(0x40)\n      0x08c379a000000000000000000000000000000000000000000000000000000000\n      dup2\n      mstore\n      0x04\n      add\n      tag_183\n      swap1\n      tag_79\n      jump\t// in\n    tag_183:\n      mload(0x40)\n      dup1\n      swap2\n      sub\n      swap1\n      revert\n    tag_182:\n        /* \"bonding_contract.sol\":2852:2853  0 */\n      0x00\n        /* \"bonding_contract.sol\":2832:2854  newOwner != address(0) */\n      0xffffffffffffffffffffffffffffffffffffffff\n      and\n        /* \"bonding_contract.sol\":2832:2840  newOwner */\n      dup2\n        /* \"bonding_contract.sol\":2832:2854  newOwner != address(0) */\n      0xffffffffffffffffffffffffffffffffffffffff\n      and\n      sub\n        /* \"bonding_contract.sol\":2824:2891  require(newOwner != address(0), \"New owner cannot be zero address\") */\n      tag_185\n      jumpi\n      mload(0x40)\n      0x08c379a000000000000000000000000000000000000000000000000000000000\n      dup2\n      mstore\n      0x04\n      add\n      tag_186\n      swap1\n      tag_187\n      jump\t// in\n    tag_186:\n      mload(0x40)\n      dup1\n      swap2\n      sub\n      swap1\n      revert\n    tag_185:\n        /* \"bonding_contract.sol\":2935:2943  newOwner */\n      dup1\n        /* \"bonding_contract.sol\":2907:2944  OwnershipTransferred(owner, newOwner) */\n      0xffffffffffffffffffffffffffffffffffffffff\n      and\n        /* \"bonding_contract.sol\":2928:2933  owner */\n      0x00\n      0x00\n      swap1\n      sload\n      swap1\n      0x0100\n      exp\n      swap1\n      div\n      0xffffffffffffffffffffffffffffffffffffffff\n      and\n        /* \"bonding_contract.sol\":2907:2944  OwnershipTransferred(owner, newOwner) */\n      0xffffffffffffffffffffffffffffffffffffffff\n      and\n      0x8be0079c531659141344cd1fd0a4f28419497f9722a3daafe3b4186f6b6457e0\n      mload(0x40)\n      mload(0x40)\n      dup1\n      swap2\n      sub\n      swap1\n      log3\n        /* \"bonding_contract.sol\":2963:2971  newOwner */\n      dup1\n        /* \"bonding_contract.sol\":2955:2960  owner */\n      0x00\n      0x00\n        /* \"bonding_contract.sol\":2955:2971  owner = newOwner */\n      0x0100\n      exp\n      dup2\n      sload\n      dup2\n      0xffffffffffffffffffffffffffffffffffffffff\n      mul\n      not\n      and\n      swap1\n      dup4\n      0xffffffffffffffffffffffffffffffffffffffff\n      and\n      mul\n      or\n      swap1\n      sstore\n      pop\n        /* \"bonding_contract.sol\":2749:2979  function transferOwnership(address newOwner) external onlyOwner {... */\n      pop\n      jump\t// out\n        /* \"#utility.yul\":7:133   */\n    tag_188:\n        /* \"#utility.yul\":44:51   */\n      0x00\n        /* \"#utility.yul\":84:126   */\n      0xffffffffffffffffffffffffffffffffffffffff\n        /* \"#utility.yul\":77:82   */\n      dup3\n        /* \"#utility.yul\":73:127   */\n      and\n        /* \"#utility.yul\":62:127   */\n      swap1\n      pop\n        /* \"#utility.yul\":7:133   */\n      swap2\n      swap1\n      pop\n      jump\t// out\n        /* \"#utility.yul\":139:235   */\n    tag_189:\n        /* \"#utility.yul\":176:183   */\n      0x00\n        /* \"#utility.yul\":205:229   */\n      tag_230\n        /* \"#utility.yul\":223:228   */\n      dup3\n        /* \"#utility.yul\":205:229   */\n      tag_188\n      jump\t// in\n    tag_230:\n        /* \"#utility.yul\":194:229   */\n      swap1\n      pop\n        /* \"#utility.yul\":139:235   */\n      swap2\n      swap1\n      pop\n      jump\t// out\n        /* \"#utility.yul\":241:359   */\n    tag_190:\n        /* \"#utility.yul\":328:352   */\n      tag_232\n        /* \"#utility.yul\":346:351   */\n      dup2\n        /* \"#utility.yul\":328:352   */\n      tag_189\n      jump\t// in\n    tag_232:\n        /* \"#utility.yul\":323:326   */\n      dup3\n        /* \"#utility.yul\":316:353   */\n      mstore\n        /* \"#utility.yul\":241:359   */\n      pop\n      pop\n      jump\t// out\n        /* \"#utility.yul\":365:587   */\n    tag_23:\n        /* \"#utility.yul\":458:462   */\n      0x00\n        /* \"#utility.yul\":496:498   */\n      0x20\n        /* \"#utility.yul\":485:494   */\n      dup3\n        /* \"#utility.yul\":481:499   */\n      add\n        /* \"#utility.yul\":473:499   */\n      swap1\n      pop\n        /* \"#utility.yul\":509:580   */\n      tag_234\n        /* \"#utility.yul\":577:578   */\n      0x00\n        /* \"#utility.yul\":566:575   */\n      dup4\n        /* \"#utility.yul\":562:579   */\n      add\n        /* \"#utility.yul\":553:559   */\n      dup5\n        /* \"#utility.yul\":509:580   */\n      tag_190\n      jump\t// in\n    tag_234:\n        /* \"#utility.yul\":365:587   */\n      swap3\n      swap2\n      pop\n      pop\n      jump\t// out\n        /* \"#utility.yul\":593:670   */\n    tag_191:\n        /* \"#utility.yul\":630:637   */\n      0x00\n        /* \"#utility.yul\":659:664   */\n      dup2\n        /* \"#utility.yul\":648:664   */\n      swap1\n      pop\n        /* \"#utility.yul\":593:670   */\n      swap2\n      swap1\n      pop\n      jump\t// out\n        /* \"#utility.yul\":676:794   */\n    tag_192:\n        /* \"#utility.yul\":763:787   */\n      tag_237\n        /* \"#utility.yul\":781:786   */\n      dup2\n        /* \"#utility.yul\":763:787   */\n      tag_191\n      jump\t// in\n    tag_237:\n        /* \"#utility.yul\":758:761   */\n      dup3\n        /* \"#utility.yul\":751:788   */\n      mstore\n        /* \"#utility.yul\":676:794   */\n      pop\n      pop\n      jump\t// out\n        /* \"#utility.yul\":800:1022   */\n    tag_30:\n        /* \"#utility.yul\":893:897   */\n      0x00\n        /* \"#utility.yul\":931:933   */\n      0x20\n        /* \"#utility.yul\":920:929   */\n      dup3\n        /* \"#utility.yul\":916:934   */\n      add\n        /* \"#utility.yul\":908:934   */\n      swap1\n      pop\n        /* \"#utility.yul\":944:1015   */\n      tag_239\n        /* \"#utility.yul\":1012:1013   */\n      0x00\n        /* \"#utility.yul\":1001:1010   */\n      dup4\n        /* \"#utility.yul\":997:1014   */\n      add\n        /* \"#utility.yul\":988:994   */\n      dup5\n        /* \"#utility.yul\":944:1015   */\n      tag_192\n      jump\t// in\n    tag_239:\n        /* \"#utility.yul\":800:1022   */\n      swap3\n      swap2\n      pop\n      pop\n      jump\t// out\n        /* \"#utility.yul\":1109:1226   */\n    tag_194:\n        /* \"#utility.yul\":1218:1219   */\n      0x00\n        /* \"#utility.yul\":1215:1216   */\n      0x00\n        /* \"#utility.yul\":1208:1220   */\n      revert\n        /* \"#utility.yul\":1355:1477   */\n    tag_196:\n        /* \"#utility.yul\":1428:1452   */\n      tag_244\n        /* \"#utility.yul\":1446:1451   */\n      dup2\n        /* \"#utility.yul\":1428:1452   */\n      tag_189\n      jump\t// in\n    tag_244:\n        /* \"#utility.yul\":1421:1426   */\n      dup2\n        /* \"#utility.yul\":1418:1453   */\n      eq\n        /* \"#utility.yul\":1408:1471   */\n      tag_245\n      jumpi\n        /* \"#utility.yul\":1467:1468   */\n      0x00\n        /* \"#utility.yul\":1464:1465   */\n      0x00\n        /* \"#utility.yul\":1457:1469   */\n      revert\n        /* \"#utility.yul\":1408:1471   */\n    tag_245:\n        /* \"#utility.yul\":1355:1477   */\n      pop\n      jump\t// out\n        /* \"#utility.yul\":1483:1622   */\n    tag_197:\n        /* \"#utility.yul\":1529:1534   */\n      0x00\n        /* \"#utility.yul\":1567:1573   */\n      dup2\n        /* \"#utility.yul\":1554:1574   */\n      calldataload\n        /* \"#utility.yul\":1545:1574   */\n      swap1\n      pop\n        /* \"#utility.yul\":1583:1616   */\n      tag_247\n        /* \"#utility.yul\":1610:1615   */\n      dup2\n        /* \"#utility.yul\":1583:1616   */\n      tag_196\n      jump\t// in\n    tag_247:\n        /* \"#utility.yul\":1483:1622   */\n      swap3\n      swap2\n      pop\n      pop\n      jump\t// out\n        /* \"#utility.yul\":1628:1750   */\n    tag_198:\n        /* \"#utility.yul\":1701:1725   */\n      tag_249\n        /* \"#utility.yul\":1719:1724   */\n      dup2\n        /* \"#utility.yul\":1701:1725   */\n      tag_191\n      jump\t// in\n    tag_249:\n        /* \"#utility.yul\":1694:1699   */\n      dup2\n        /* \"#utility.yul\":1691:1726   */\n      eq\n        /* \"#utility.yul\":1681:1744   */\n      tag_250\n      jumpi\n        /* \"#utility.yul\":1740:1741   */\n      0x00\n        /* \"#utility.yul\":1737:1738   */\n      0x00\n        /* \"#utility.yul\":1730:1742   */\n      revert\n        /* \"#utility.yul\":1681:1744   */\n    tag_250:\n        /* \"#utility.yul\":1628:1750   */\n      pop\n      jump\t// out\n        /* \"#utility.yul\":1756:1895   */\n    tag_199:\n        /* \"#utility.yul\":1802:1807   */\n      0x00\n        /* \"#utility.yul\":1840:1846   */\n      dup2\n        /* \"#utility.yul\":1827:1847   */\n      calldataload\n        /* \"#utility.yul\":1818:1847   */\n      swap1\n      pop\n        /* \"#utility.yul\":1856:1889   */\n      tag_252\n        /* \"#utility.yul\":1883:1888   */\n      dup2\n        /* \"#utility.yul\":1856:1889   */\n      tag_198\n      jump\t// in\n    tag_252:\n        /* \"#utility.yul\":1756:1895   */\n      swap3\n      swap2\n      pop\n      pop\n      jump\t// out\n        /* \"#utility.yul\":1901:2520   */\n    tag_33:\n        /* \"#utility.yul\":1978:1984   */\n      0x00\n        /* \"#utility.yul\":1986:1992   */\n      0x00\n        /* \"#utility.yul\":1994:2000   */\n      0x00\n        /* \"#utility.yul\":2043:2045   */\n      0x60\n        /* \"#utility.yul\":2031:2040   */\n      dup5\n        /* \"#utility.yul\":2022:2029   */\n      dup7\n        /* \"#utility.yul\":2018:2041   */\n      sub\n        /* \"#utility.yul\":2014:2046   */\n      slt\n        /* \"#utility.yul\":2011:2130   */\n      iszero\n      tag_254\n      jumpi\n        /* \"#utility.yul\":2049:2128   */\n      tag_255\n      tag_194\n      jump\t// in\n    tag_255:\n        /* \"#utility.yul\":2011:2130   */\n    tag_254:\n        /* \"#utility.yul\":2169:2170   */\n      0x00\n        /* \"#utility.yul\":2194:2247   */\n      tag_256\n        /* \"#utility.yul\":2239:2246   */\n      dup7\n        /* \"#utility.yul\":2230:2236   */\n      dup3\n        /* \"#utility.yul\":2219:2228   */\n      dup8\n        /* \"#utility.yul\":2215:2237   */\n      add\n        /* \"#utility.yul\":2194:2247   */\n      tag_197\n      jump\t// in\n    tag_256:\n        /* \"#utility.yul\":2184:2247   */\n      swap4\n      pop\n        /* \"#utility.yul\":2140:2257   */\n      pop\n        /* \"#utility.yul\":2296:2298   */\n      0x20\n        /* \"#utility.yul\":2322:2375   */\n      tag_257\n        /* \"#utility.yul\":2367:2374   */\n      dup7\n        /* \"#utility.yul\":2358:2364   */\n      dup3\n        /* \"#utility.yul\":2347:2356   */\n      dup8\n        /* \"#utility.yul\":2343:2365   */\n      add\n        /* \"#utility.yul\":2322:2375   */\n      tag_199\n      jump\t// in\n    tag_257:\n        /* \"#utility.yul\":2312:2375   */\n      swap3\n      pop\n        /* \"#utility.yul\":2267:2385   */\n      pop\n        /* \"#utility.yul\":2424:2426   */\n      0x40\n        /* \"#utility.yul\":2450:2503   */\n      tag_258\n        /* \"#utility.yul\":2495:2502   */\n      dup7\n        /* \"#utility.yul\":2486:2492   */\n      dup3\n        /* \"#utility.yul\":2475:2484   */\n      dup8\n        /* \"#utility.yul\":2471:2493   */\n      add\n        /* \"#utility.yul\":2450:2503   */\n      tag_197\n      jump\t// in\n    tag_258:\n        /* \"#utility.yul\":2440:2503   */\n      swap2\n      pop\n        /* \"#utility.yul\":2395:2513   */\n      pop\n        /* \"#utility.yul\":1901:2520   */\n      swap3\n      pop\n      swap3\n      pop\n      swap3\n      jump\t// out\n        /* \"#utility.yul\":2526:2855   */\n    tag_37:\n        /* \"#utility.yul\":2585:2591   */\n      0x00\n        /* \"#utility.yul\":2634:2636   */\n      0x20\n        /* \"#utility.yul\":2622:2631   */\n      dup3\n        /* \"#utility.yul\":2613:2620   */\n      dup5\n        /* \"#utility.yul\":2609:2632   */\n      sub\n        /* \"#utility.yul\":2605:2637   */\n      slt\n        /* \"#utility.yul\":2602:2721   */\n      iszero\n      tag_260\n      jumpi\n        /* \"#utility.yul\":2640:2719   */\n      tag_261\n      tag_194\n      jump\t// in\n    tag_261:\n        /* \"#utility.yul\":2602:2721   */\n    tag_260:\n        /* \"#utility.yul\":2760:2761   */\n      0x00\n        /* \"#utility.yul\":2785:2838   */\n      tag_262\n        /* \"#utility.yul\":2830:2837   */\n      dup5\n        /* \"#utility.yul\":2821:2827   */\n      dup3\n        /* \"#utility.yul\":2810:2819   */\n      dup6\n        /* \"#utility.yul\":2806:2828   */\n      add\n        /* \"#utility.yul\":2785:2838   */\n      tag_199\n      jump\t// in\n    tag_262:\n        /* \"#utility.yul\":2775:2838   */\n      swap2\n      pop\n        /* \"#utility.yul\":2731:2848   */\n      pop\n        /* \"#utility.yul\":2526:2855   */\n      swap3\n      swap2\n      pop\n      pop\n      jump\t// out\n        /* \"#utility.yul\":2861:3190   */\n    tag_44:\n        /* \"#utility.yul\":2920:2926   */\n      0x00\n        /* \"#utility.yul\":2969:2971   */\n      0x20\n        /* \"#utility.yul\":2957:2966   */\n      dup3\n        /* \"#utility.yul\":2948:2955   */\n      dup5\n        /* \"#utility.yul\":2944:2967   */\n      sub\n        /* \"#utility.yul\":2940:2972   */\n      slt\n        /* \"#utility.yul\":2937:3056   */\n      iszero\n      tag_264\n      jumpi\n        /* \"#utility.yul\":2975:3054   */\n      tag_265\n      tag_194\n      jump\t// in\n    tag_265:\n        /* \"#utility.yul\":2937:3056   */\n    tag_264:\n        /* \"#utility.yul\":3095:3096   */\n      0x00\n        /* \"#utility.yul\":3120:3173   */\n      tag_266\n        /* \"#utility.yul\":3165:3172   */\n      dup5\n        /* \"#utility.yul\":3156:3162   */\n      dup3\n        /* \"#utility.yul\":3145:3154   */\n      dup6\n        /* \"#utility.yul\":3141:3163   */\n      add\n        /* \"#utility.yul\":3120:3173   */\n      tag_197\n      jump\t// in\n    tag_266:\n        /* \"#utility.yul\":3110:3173   */\n      swap2\n      pop\n        /* \"#utility.yul\":3066:3183   */\n      pop\n        /* \"#utility.yul\":2861:3190   */\n      swap3\n      swap2\n      pop\n      pop\n      jump\t// out\n        /* \"#utility.yul\":3196:3339   */\n    tag_200:\n        /* \"#utility.yul\":3253:3258   */\n      0x00\n        /* \"#utility.yul\":3284:3290   */\n      dup2\n        /* \"#utility.yul\":3278:3291   */\n      mload\n        /* \"#utility.yul\":3269:3291   */\n      swap1\n      pop\n        /* \"#utility.yul\":3300:3333   */\n      tag_268\n        /* \"#utility.yul\":3327:3332   */\n      dup2\n        /* \"#utility.yul\":3300:3333   */\n      tag_198\n      jump\t// in\n    tag_268:\n        /* \"#utility.yul\":3196:3339   */\n      swap3\n      swap2\n      pop\n      pop\n      jump\t// out\n        /* \"#utility.yul\":3345:3696   */\n    tag_75:\n        /* \"#utility.yul\":3415:3421   */\n      0x00\n        /* \"#utility.yul\":3464:3466   */\n      0x20\n        /* \"#utility.yul\":3452:3461   */\n      dup3\n        /* \"#utility.yul\":3443:3450   */\n      dup5\n        /* \"#utility.yul\":3439:3462   */\n      sub\n        /* \"#utility.yul\":3435:3467   */\n      slt\n        /* \"#utility.yul\":3432:3551   */\n      iszero\n      tag_270\n      jumpi\n        /* \"#utility.yul\":3470:3549   */\n      tag_271\n      tag_194\n      jump\t// in\n    tag_271:\n        /* \"#utility.yul\":3432:3551   */\n    tag_270:\n        /* \"#utility.yul\":3590:3591   */\n      0x00\n        /* \"#utility.yul\":3615:3679   */\n      tag_272\n        /* \"#utility.yul\":3671:3678   */\n      dup5\n        /* \"#utility.yul\":3662:3668   */\n      dup3\n        /* \"#utility.yul\":3651:3660   */\n      dup6\n        /* \"#utility.yul\":3647:3669   */\n      add\n        /* \"#utility.yul\":3615:3679   */\n      tag_200\n      jump\t// in\n    tag_272:\n        /* \"#utility.yul\":3605:3679   */\n      swap2\n      pop\n        /* \"#utility.yul\":3561:3689   */\n      pop\n        /* \"#utility.yul\":3345:3696   */\n      swap3\n      swap2\n      pop\n      pop\n      jump\t// out\n        /* \"#utility.yul\":3702:3871   */\n    tag_201:\n        /* \"#utility.yul\":3786:3797   */\n      0x00\n        /* \"#utility.yul\":3820:3826   */\n      dup3\n        /* \"#utility.yul\":3815:3818   */\n      dup3\n        /* \"#utility.yul\":3808:3827   */\n      mstore\n        /* \"#utility.yul\":3860:3864   */\n      0x20\n        /* \"#utility.yul\":3855:3858   */\n      dup3\n        /* \"#utility.yul\":3851:3865   */\n      add\n        /* \"#utility.yul\":3836:3865   */\n      swap1\n      pop\n        /* \"#utility.yul\":3702:3871   */\n      swap3\n      swap2\n      pop\n      pop\n      jump\t// out\n        /* \"#utility.yul\":3877:4041   */\n    tag_202:\n        /* \"#utility.yul\":4017:4033   */\n      0x4e6f7420617574686f72697a6564000000000000000000000000000000000000\n        /* \"#utility.yul\":4013:4014   */\n      0x00\n        /* \"#utility.yul\":4005:4011   */\n      dup3\n        /* \"#utility.yul\":4001:4015   */\n      add\n        /* \"#utility.yul\":3994:4034   */\n      mstore\n        /* \"#utility.yul\":3877:4041   */\n      pop\n      jump\t// out\n        /* \"#utility.yul\":4047:4413   */\n    tag_203:\n        /* \"#utility.yul\":4189:4192   */\n      0x00\n        /* \"#utility.yul\":4210:4277   */\n      tag_276\n        /* \"#utility.yul\":4274:4276   */\n      0x0e\n        /* \"#utility.yul\":4269:4272   */\n      dup4\n        /* \"#utility.yul\":4210:4277   */\n      tag_201\n      jump\t// in\n    tag_276:\n        /* \"#utility.yul\":4203:4277   */\n      swap2\n      pop\n        /* \"#utility.yul\":4286:4379   */\n      tag_277\n        /* \"#utility.yul\":4375:4378   */\n      dup3\n        /* \"#utility.yul\":4286:4379   */\n      tag_202\n      jump\t// in\n    tag_277:\n        /* \"#utility.yul\":4404:4406   */\n      0x20\n        /* \"#utility.yul\":4399:4402   */\n      dup3\n        /* \"#utility.yul\":4395:4407   */\n      add\n        /* \"#utility.yul\":4388:4407   */\n      swap1\n      pop\n        /* \"#utility.yul\":4047:4413   */\n      swap2\n      swap1\n      pop\n      jump\t// out\n        /* \"#utility.yul\":4419:4838   */\n    tag_79:\n        /* \"#utility.yul\":4585:4589   */\n      0x00\n        /* \"#utility.yul\":4623:4625   */\n      0x20\n        /* \"#utility.yul\":4612:4621   */\n      dup3\n        /* \"#utility.yul\":4608:4626   */\n      add\n        /* \"#utility.yul\":4600:4626   */\n      swap1\n      pop\n        /* \"#utility.yul\":4672:4681   */\n      dup2\n        /* \"#utility.yul\":4666:4670   */\n      dup2\n        /* \"#utility.yul\":4662:4682   */\n      sub\n        /* \"#utility.yul\":4658:4659   */\n      0x00\n        /* \"#utility.yul\":4647:4656   */\n      dup4\n        /* \"#utility.yul\":4643:4660   */\n      add\n        /* \"#utility.yul\":4636:4683   */\n      mstore\n        /* \"#utility.yul\":4700:4831   */\n      tag_279\n        /* \"#utility.yul\":4826:4830   */\n      dup2\n        /* \"#utility.yul\":4700:4831   */\n      tag_203\n      jump\t// in\n    tag_279:\n        /* \"#utility.yul\":4692:4831   */\n      swap1\n      pop\n        /* \"#utility.yul\":4419:4838   */\n      swap2\n      swap1\n      pop\n      jump\t// out\n        /* \"#utility.yul\":4844:5019   */\n    tag_204:\n        /* \"#utility.yul\":4984:5011   */\n      0x496e76616c696420726563697069656e74206164647265737300000000000000\n        /* \"#utility.yul\":4980:4981   */\n      0x00\n        /* \"#utility.yul\":4972:4978   */\n      dup3\n        /* \"#utility.yul\":4968:4982   */\n      add\n        /* \"#utility.yul\":4961:5012   */\n      mstore\n        /* \"#utility.yul\":4844:5019   */\n      pop\n      jump\t// out\n        /* \"#utility.yul\":5025:5391   */\n    tag_205:\n        /* \"#utility.yul\":5167:5170   */\n      0x00\n        /* \"#utility.yul\":5188:5255   */\n      tag_282\n        /* \"#utility.yul\":5252:5254   */\n      0x19\n        /* \"#utility.yul\":5247:5250   */\n      dup4\n        /* \"#utility.yul\":5188:5255   */\n      tag_201\n      jump\t// in\n    tag_282:\n        /* \"#utility.yul\":5181:5255   */\n      swap2\n      pop\n        /* \"#utility.yul\":5264:5357   */\n      tag_283\n        /* \"#utility.yul\":5353:5356   */\n      dup3\n        /* \"#utility.yul\":5264:5357   */\n      tag_204\n      jump\t// in\n    tag_283:\n        /* \"#utility.yul\":5382:5384   */\n      0x20\n        /* \"#utility.yul\":5377:5380   */\n      dup3\n        /* \"#utility.yul\":5373:5385   */\n      add\n        /* \"#utility.yul\":5366:5385   */\n      swap1\n      pop\n        /* \"#utility.yul\":5025:5391   */\n      swap2\n      swap1\n      pop\n      jump\t// out\n        /* \"#utility.yul\":5397:5816   */\n    tag_83:\n        /* \"#utility.yul\":5563:5567   */\n      0x00\n        /* \"#utility.yul\":5601:5603   */\n      0x20\n        /* \"#utility.yul\":5590:5599   */\n      dup3\n        /* \"#utility.yul\":5586:5604   */\n      add\n        /* \"#utility.yul\":5578:5604   */\n      swap1\n      pop\n        /* \"#utility.yul\":5650:5659   */\n      dup2\n        /* \"#utility.yul\":5644:5648   */\n      dup2\n        /* \"#utility.yul\":5640:5660   */\n      sub\n        /* \"#utility.yul\":5636:5637   */\n      0x00\n        /* \"#utility.yul\":5625:5634   */\n      dup4\n        /* \"#utility.yul\":5621:5638   */\n      add\n        /* \"#utility.yul\":5614:5661   */\n      mstore\n        /* \"#utility.yul\":5678:5809   */\n      tag_285\n        /* \"#utility.yul\":5804:5808   */\n      dup2\n        /* \"#utility.yul\":5678:5809   */\n      tag_205\n      jump\t// in\n    tag_285:\n        /* \"#utility.yul\":5670:5809   */\n      swap1\n      pop\n        /* \"#utility.yul\":5397:5816   */\n      swap2\n      swap1\n      pop\n      jump\t// out\n        /* \"#utility.yul\":5822:6004   */\n    tag_206:\n        /* \"#utility.yul\":5962:5996   */\n      0x416d6f756e74206d7573742062652067726561746572207468616e207a65726f\n        /* \"#utility.yul\":5958:5959   */\n      0x00\n        /* \"#utility.yul\":5950:5956   */\n      dup3\n        /* \"#utility.yul\":5946:5960   */\n      add\n        /* \"#utility.yul\":5939:5997   */\n      mstore\n        /* \"#utility.yul\":5822:6004   */\n      pop\n      jump\t// out\n        /* \"#utility.yul\":6010:6376   */\n    tag_207:\n        /* \"#utility.yul\":6152:6155   */\n      0x00\n        /* \"#utility.yul\":6173:6240   */\n      tag_288\n        /* \"#utility.yul\":6237:6239   */\n      0x20\n        /* \"#utility.yul\":6232:6235   */\n      dup4\n        /* \"#utility.yul\":6173:6240   */\n      tag_201\n      jump\t// in\n    tag_288:\n        /* \"#utility.yul\":6166:6240   */\n      swap2\n      pop\n        /* \"#utility.yul\":6249:6342   */\n      tag_289\n        /* \"#utility.yul\":6338:6341   */\n      dup3\n        /* \"#utility.yul\":6249:6342   */\n      tag_206\n      jump\t// in\n    tag_289:\n        /* \"#utility.yul\":6367:6369   */\n      0x20\n        /* \"#utility.yul\":6362:6365   */\n      dup3\n        /* \"#utility.yul\":6358:6370   */\n      add\n        /* \"#utility.yul\":6351:6370   */\n      swap1\n      pop\n        /* \"#utility.yul\":6010:6376   */\n      swap2\n      swap1\n      pop\n      jump\t// out\n        /* \"#utility.yul\":6382:6801   */\n    tag_86:\n        /* \"#utility.yul\":6548:6552   */\n      0x00\n        /* \"#utility.yul\":6586:6588   */\n      0x20\n        /* \"#utility.yul\":6575:6584   */\n      dup3\n        /* \"#utility.yul\":6571:6589   */\n      add\n        /* \"#utility.yul\":6563:6589   */\n      swap1\n      pop\n        /* \"#utility.yul\":6635:6644   */\n      dup2\n        /* \"#utility.yul\":6629:6633   */\n      dup2\n        /* \"#utility.yul\":6625:6645   */\n      sub\n        /* \"#utility.yul\":6621:6622   */\n      0x00\n        /* \"#utility.yul\":6610:6619   */\n      dup4\n        /* \"#utility.yul\":6606:6623   */\n      add\n        /* \"#utility.yul\":6599:6646   */\n      mstore\n        /* \"#utility.yul\":6663:6794   */\n      tag_291\n        /* \"#utility.yul\":6789:6793   */\n      dup2\n        /* \"#utility.yul\":6663:6794   */\n      tag_207\n      jump\t// in\n    tag_291:\n        /* \"#utility.yul\":6655:6794   */\n      swap1\n      pop\n        /* \"#utility.yul\":6382:6801   */\n      swap2\n      swap1\n      pop\n      jump\t// out\n        /* \"#utility.yul\":6807:6977   */\n    tag_208:\n        /* \"#utility.yul\":6947:6969   */\n      0x496e73756666696369656e742062616c616e6365000000000000000000000000\n        /* \"#utility.yul\":6943:6944   */\n      0x00\n        /* \"#utility.yul\":6935:6941   */\n      dup3\n        /* \"#utility.yul\":6931:6945   */\n      add\n        /* \"#utility.yul\":6924:6970   */\n      mstore\n        /* \"#utility.yul\":6807:6977   */\n      pop\n      jump\t// out\n        /* \"#utility.yul\":6983:7349   */\n    tag_209:\n        /* \"#utility.yul\":7125:7128   */\n      0x00\n        /* \"#utility.yul\":7146:7213   */\n      tag_294\n        /* \"#utility.yul\":7210:7212   */\n      0x14\n        /* \"#utility.yul\":7205:7208   */\n      dup4\n        /* \"#utility.yul\":7146:7213   */\n      tag_201\n      jump\t// in\n    tag_294:\n        /* \"#utility.yul\":7139:7213   */\n      swap2\n      pop\n        /* \"#utility.yul\":7222:7315   */\n      tag_295\n        /* \"#utility.yul\":7311:7314   */\n      dup3\n        /* \"#utility.yul\":7222:7315   */\n      tag_208\n      jump\t// in\n    tag_295:\n        /* \"#utility.yul\":7340:7342   */\n      0x20\n        /* \"#utility.yul\":7335:7338   */\n      dup3\n        /* \"#utility.yul\":7331:7343   */\n      add\n        /* \"#utility.yul\":7324:7343   */\n      swap1\n      pop\n        /* \"#utility.yul\":6983:7349   */\n      swap2\n      swap1\n      pop\n      jump\t// out\n        /* \"#utility.yul\":7355:7774   */\n    tag_93:\n        /* \"#utility.yul\":7521:7525   */\n      0x00\n        /* \"#utility.yul\":7559:7561   */\n      0x20\n        /* \"#utility.yul\":7548:7557   */\n      dup3\n        /* \"#utility.yul\":7544:7562   */\n      add\n        /* \"#utility.yul\":7536:7562   */\n      swap1\n      pop\n        /* \"#utility.yul\":7608:7617   */\n      dup2\n        /* \"#utility.yul\":7602:7606   */\n      dup2\n        /* \"#utility.yul\":7598:7618   */\n      sub\n        /* \"#utility.yul\":7594:7595   */\n      0x00\n        /* \"#utility.yul\":7583:7592   */\n      dup4\n        /* \"#utility.yul\":7579:7596   */\n      add\n        /* \"#utility.yul\":7572:7619   */\n      mstore\n        /* \"#utility.yul\":7636:7767   */\n      tag_297\n        /* \"#utility.yul\":7762:7766   */\n      dup2\n        /* \"#utility.yul\":7636:7767   */\n      tag_209\n      jump\t// in\n    tag_297:\n        /* \"#utility.yul\":7628:7767   */\n      swap1\n      pop\n        /* \"#utility.yul\":7355:7774   */\n      swap2\n      swap1\n      pop\n      jump\t// out\n        /* \"#utility.yul\":7780:8112   */\n    tag_95:\n        /* \"#utility.yul\":7901:7905   */\n      0x00\n        /* \"#utility.yul\":7939:7941   */\n      0x40\n        /* \"#utility.yul\":7928:7937   */\n      dup3\n        /* \"#utility.yul\":7924:7942   */\n      add\n        /* \"#utility.yul\":7916:7942   */\n      swap1\n      pop\n        /* \"#utility.yul\":7952:8023   */\n      tag_299\n        /* \"#utility.yul\":8020:8021   */\n      0x00\n        /* \"#utility.yul\":8009:8018   */\n      dup4\n        /* \"#utility.yul\":8005:8022   */\n      add\n        /* \"#utility.yul\":7996:8002   */\n      dup6\n        /* \"#utility.yul\":7952:8023   */\n      tag_190\n      jump\t// in\n    tag_299:\n        /* \"#utility.yul\":8033:8105   */\n      tag_300\n        /* \"#utility.yul\":8101:8103   */\n      0x20\n        /* \"#utility.yul\":8090:8099   */\n      dup4\n        /* \"#utility.yul\":8086:8104   */\n      add\n        /* \"#utility.yul\":8077:8083   */\n      dup5\n        /* \"#utility.yul\":8033:8105   */\n      tag_192\n      jump\t// in\n    tag_300:\n        /* \"#utility.yul\":7780:8112   */\n      swap4\n      swap3\n      pop\n      pop\n      pop\n      jump\t// out\n        /* \"#utility.yul\":8118:8208   */\n    tag_210:\n        /* \"#utility.yul\":8152:8159   */\n      0x00\n        /* \"#utility.yul\":8195:8200   */\n      dup2\n        /* \"#utility.yul\":8188:8201   */\n      iszero\n        /* \"#utility.yul\":8181:8202   */\n      iszero\n        /* \"#utility.yul\":8170:8202   */\n      swap1\n      pop\n        /* \"#utility.yul\":8118:8208   */\n      swap2\n      swap1\n      pop\n      jump\t// out\n        /* \"#utility.yul\":8214:8330   */\n    tag_211:\n        /* \"#utility.yul\":8284:8305   */\n      tag_303\n        /* \"#utility.yul\":8299:8304   */\n      dup2\n        /* \"#utility.yul\":8284:8305   */\n      tag_210\n      jump\t// in\n    tag_303:\n        /* \"#utility.yul\":8277:8282   */\n      dup2\n        /* \"#utility.yul\":8274:8306   */\n      eq\n        /* \"#utility.yul\":8264:8324   */\n      tag_304\n      jumpi\n        /* \"#utility.yul\":8320:8321   */\n      0x00\n        /* \"#utility.yul\":8317:8318   */\n      0x00\n        /* \"#utility.yul\":8310:8322   */\n      revert\n        /* \"#utility.yul\":8264:8324   */\n    tag_304:\n        /* \"#utility.yul\":8214:8330   */\n      pop\n      jump\t// out\n        /* \"#utility.yul\":8336:8473   */\n    tag_212:\n        /* \"#utility.yul\":8390:8395   */\n      0x00\n        /* \"#utility.yul\":8421:8427   */\n      dup2\n        /* \"#utility.yul\":8415:8428   */\n      mload\n        /* \"#utility.yul\":8406:8428   */\n      swap1\n      pop\n        /* \"#utility.yul\":8437:8467   */\n      tag_306\n        /* \"#utility.yul\":8461:8466   */\n      dup2\n        /* \"#utility.yul\":8437:8467   */\n      tag_211\n      jump\t// in\n    tag_306:\n        /* \"#utility.yul\":8336:8473   */\n      swap3\n      swap2\n      pop\n      pop\n      jump\t// out\n        /* \"#utility.yul\":8479:8824   */\n    tag_99:\n        /* \"#utility.yul\":8546:8552   */\n      0x00\n        /* \"#utility.yul\":8595:8597   */\n      0x20\n        /* \"#utility.yul\":8583:8592   */\n      dup3\n        /* \"#utility.yul\":8574:8581   */\n      dup5\n        /* \"#utility.yul\":8570:8593   */\n      sub\n        /* \"#utility.yul\":8566:8598   */\n      slt\n        /* \"#utility.yul\":8563:8682   */\n      iszero\n      tag_308\n      jumpi\n        /* \"#utility.yul\":8601:8680   */\n      tag_309\n      tag_194\n      jump\t// in\n    tag_309:\n        /* \"#utility.yul\":8563:8682   */\n    tag_308:\n        /* \"#utility.yul\":8721:8722   */\n      0x00\n        /* \"#utility.yul\":8746:8807   */\n      tag_310\n        /* \"#utility.yul\":8799:8806   */\n      dup5\n        /* \"#utility.yul\":8790:8796   */\n      dup3\n        /* \"#utility.yul\":8779:8788   */\n      dup6\n        /* \"#utility.yul\":8775:8797   */\n      add\n        /* \"#utility.yul\":8746:8807   */\n      tag_212\n      jump\t// in\n    tag_310:\n        /* \"#utility.yul\":8736:8807   */\n      swap2\n      pop\n        /* \"#utility.yul\":8692:8817   */\n      pop\n        /* \"#utility.yul\":8479:8824   */\n      swap3\n      swap2\n      pop\n      pop\n      jump\t// out\n        /* \"#utility.yul\":8830:9001   */\n    tag_213:\n        /* \"#utility.yul\":8970:8993   */\n      0x496e76616c696420646973636f756e7420726174650000000000000000000000\n        /* \"#utility.yul\":8966:8967   */\n      0x00\n        /* \"#utility.yul\":8958:8964   */\n      dup3\n        /* \"#utility.yul\":8954:8968   */\n      add\n        /* \"#utility.yul\":8947:8994   */\n      mstore\n        /* \"#utility.yul\":8830:9001   */\n      pop\n      jump\t// out\n        /* \"#utility.yul\":9007:9373   */\n    tag_214:\n        /* \"#utility.yul\":9149:9152   */\n      0x00\n        /* \"#utility.yul\":9170:9237   */\n      tag_313\n        /* \"#utility.yul\":9234:9236   */\n      0x15\n        /* \"#utility.yul\":9229:9232   */\n      dup4\n        /* \"#utility.yul\":9170:9237   */\n      tag_201\n      jump\t// in\n    tag_313:\n        /* \"#utility.yul\":9163:9237   */\n      swap2\n      pop\n        /* \"#utility.yul\":9246:9339   */\n      tag_314\n        /* \"#utility.yul\":9335:9338   */\n      dup3\n        /* \"#utility.yul\":9246:9339   */\n      tag_213\n      jump\t// in\n    tag_314:\n        /* \"#utility.yul\":9364:9366   */\n      0x20\n        /* \"#utility.yul\":9359:9362   */\n      dup3\n        /* \"#utility.yul\":9355:9367   */\n      add\n        /* \"#utility.yul\":9348:9367   */\n      swap1\n      pop\n        /* \"#utility.yul\":9007:9373   */\n      swap2\n      swap1\n      pop\n      jump\t// out\n        /* \"#utility.yul\":9379:9798   */\n    tag_111:\n        /* \"#utility.yul\":9545:9549   */\n      0x00\n        /* \"#utility.yul\":9583:9585   */\n      0x20\n        /* \"#utility.yul\":9572:9581   */\n      dup3\n        /* \"#utility.yul\":9568:9586   */\n      add\n        /* \"#utility.yul\":9560:9586   */\n      swap1\n      pop\n        /* \"#utility.yul\":9632:9641   */\n      dup2\n        /* \"#utility.yul\":9626:9630   */\n      dup2\n        /* \"#utility.yul\":9622:9642   */\n      sub\n        /* \"#utility.yul\":9618:9619   */\n      0x00\n        /* \"#utility.yul\":9607:9616   */\n      dup4\n        /* \"#utility.yul\":9603:9620   */\n      add\n        /* \"#utility.yul\":9596:9643   */\n      mstore\n        /* \"#utility.yul\":9660:9791   */\n      tag_316\n        /* \"#utility.yul\":9786:9790   */\n      dup2\n        /* \"#utility.yul\":9660:9791   */\n      tag_214\n      jump\t// in\n    tag_316:\n        /* \"#utility.yul\":9652:9791   */\n      swap1\n      pop\n        /* \"#utility.yul\":9379:9798   */\n      swap2\n      swap1\n      pop\n      jump\t// out\n        /* \"#utility.yul\":9804:9971   */\n    tag_215:\n        /* \"#utility.yul\":9944:9963   */\n      0x4d757374206465706f7369742057455448000000000000000000000000000000\n        /* \"#utility.yul\":9940:9941   */\n      0x00\n        /* \"#utility.yul\":9932:9938   */\n      dup3\n        /* \"#utility.yul\":9928:9942   */\n      add\n        /* \"#utility.yul\":9921:9964   */\n      mstore\n        /* \"#utility.yul\":9804:9971   */\n      pop\n      jump\t// out\n        /* \"#utility.yul\":9977:10343   */\n    tag_216:\n        /* \"#utility.yul\":10119:10122   */\n      0x00\n        /* \"#utility.yul\":10140:10207   */\n      tag_319\n        /* \"#utility.yul\":10204:10206   */\n      0x11\n        /* \"#utility.yul\":10199:10202   */\n      dup4\n        /* \"#utility.yul\":10140:10207   */\n      tag_201\n      jump\t// in\n    tag_319:\n        /* \"#utility.yul\":10133:10207   */\n      swap2\n      pop\n        /* \"#utility.yul\":10216:10309   */\n      tag_320\n        /* \"#utility.yul\":10305:10308   */\n      dup3\n        /* \"#utility.yul\":10216:10309   */\n      tag_215\n      jump\t// in\n    tag_320:\n        /* \"#utility.yul\":10334:10336   */\n      0x20\n        /* \"#utility.yul\":10329:10332   */\n      dup3\n        /* \"#utility.yul\":10325:10337   */\n      add\n        /* \"#utility.yul\":10318:10337   */\n      swap1\n      pop\n        /* \"#utility.yul\":9977:10343   */\n      swap2\n      swap1\n      pop\n      jump\t// out\n        /* \"#utility.yul\":10349:10768   */\n    tag_120:\n        /* \"#utility.yul\":10515:10519   */\n      0x00\n        /* \"#utility.yul\":10553:10555   */\n      0x20\n        /* \"#utility.yul\":10542:10551   */\n      dup3\n        /* \"#utility.yul\":10538:10556   */\n      add\n        /* \"#utility.yul\":10530:10556   */\n      swap1\n      pop\n        /* \"#utility.yul\":10602:10611   */\n      dup2\n        /* \"#utility.yul\":10596:10600   */\n      dup2\n        /* \"#utility.yul\":10592:10612   */\n      sub\n        /* \"#utility.yul\":10588:10589   */\n      0x00\n        /* \"#utility.yul\":10577:10586   */\n      dup4\n        /* \"#utility.yul\":10573:10590   */\n      add\n        /* \"#utility.yul\":10566:10613   */\n      mstore\n        /* \"#utility.yul\":10630:10761   */\n      tag_322\n        /* \"#utility.yul\":10756:10760   */\n      dup2\n        /* \"#utility.yul\":10630:10761   */\n      tag_216\n      jump\t// in\n    tag_322:\n        /* \"#utility.yul\":10622:10761   */\n      swap1\n      pop\n        /* \"#utility.yul\":10349:10768   */\n      swap2\n      swap1\n      pop\n      jump\t// out\n        /* \"#utility.yul\":10774:11106   */\n    tag_122:\n        /* \"#utility.yul\":10895:10899   */\n      0x00\n        /* \"#utility.yul\":10933:10935   */\n      0x40\n        /* \"#utility.yul\":10922:10931   */\n      dup3\n        /* \"#utility.yul\":10918:10936   */\n      add\n        /* \"#utility.yul\":10910:10936   */\n      swap1\n      pop\n        /* \"#utility.yul\":10946:11017   */\n      tag_324\n        /* \"#utility.yul\":11014:11015   */\n      0x00\n        /* \"#utility.yul\":11003:11012   */\n      dup4\n        /* \"#utility.yul\":10999:11016   */\n      add\n        /* \"#utility.yul\":10990:10996   */\n      dup6\n        /* \"#utility.yul\":10946:11017   */\n      tag_190\n      jump\t// in\n    tag_324:\n        /* \"#utility.yul\":11027:11099   */\n      tag_325\n        /* \"#utility.yul\":11095:11097   */\n      0x20\n        /* \"#utility.yul\":11084:11093   */\n      dup4\n        /* \"#utility.yul\":11080:11098   */\n      add\n        /* \"#utility.yul\":11071:11077   */\n      dup5\n        /* \"#utility.yul\":11027:11099   */\n      tag_190\n      jump\t// in\n    tag_325:\n        /* \"#utility.yul\":10774:11106   */\n      swap4\n      swap3\n      pop\n      pop\n      pop\n      jump\t// out\n        /* \"#utility.yul\":11112:11286   */\n    tag_217:\n        /* \"#utility.yul\":11252:11278   */\n      0x416c6c6f77616e6365206e6f742073756666696369656e740000000000000000\n        /* \"#utility.yul\":11248:11249   */\n      0x00\n        /* \"#utility.yul\":11240:11246   */\n      dup3\n        /* \"#utility.yul\":11236:11250   */\n      add\n        /* \"#utility.yul\":11229:11279   */\n      mstore\n        /* \"#utility.yul\":11112:11286   */\n      pop\n      jump\t// out\n        /* \"#utility.yul\":11292:11658   */\n    tag_218:\n        /* \"#utility.yul\":11434:11437   */\n      0x00\n        /* \"#utility.yul\":11455:11522   */\n      tag_328\n        /* \"#utility.yul\":11519:11521   */\n      0x18\n        /* \"#utility.yul\":11514:11517   */\n      dup4\n        /* \"#utility.yul\":11455:11522   */\n      tag_201\n      jump\t// in\n    tag_328:\n        /* \"#utility.yul\":11448:11522   */\n      swap2\n      pop\n        /* \"#utility.yul\":11531:11624   */\n      tag_329\n        /* \"#utility.yul\":11620:11623   */\n      dup3\n        /* \"#utility.yul\":11531:11624   */\n      tag_217\n      jump\t// in\n    tag_329:\n        /* \"#utility.yul\":11649:11651   */\n      0x20\n        /* \"#utility.yul\":11644:11647   */\n      dup3\n        /* \"#utility.yul\":11640:11652   */\n      add\n        /* \"#utility.yul\":11633:11652   */\n      swap1\n      pop\n        /* \"#utility.yul\":11292:11658   */\n      swap2\n      swap1\n      pop\n      jump\t// out\n        /* \"#utility.yul\":11664:12083   */\n    tag_128:\n        /* \"#utility.yul\":11830:11834   */\n      0x00\n        /* \"#utility.yul\":11868:11870   */\n      0x20\n        /* \"#utility.yul\":11857:11866   */\n      dup3\n        /* \"#utility.yul\":11853:11871   */\n      add\n        /* \"#utility.yul\":11845:11871   */\n      swap1\n      pop\n        /* \"#utility.yul\":11917:11926   */\n      dup2\n        /* \"#utility.yul\":11911:11915   */\n      dup2\n        /* \"#utility.yul\":11907:11927   */\n      sub\n        /* \"#utility.yul\":11903:11904   */\n      0x00\n        /* \"#utility.yul\":11892:11901   */\n      dup4\n        /* \"#utility.yul\":11888:11905   */\n      add\n        /* \"#utility.yul\":11881:11928   */\n      mstore\n        /* \"#utility.yul\":11945:12076   */\n      tag_331\n        /* \"#utility.yul\":12071:12075   */\n      dup2\n        /* \"#utility.yul\":11945:12076   */\n      tag_218\n      jump\t// in\n    tag_331:\n        /* \"#utility.yul\":11937:12076   */\n      swap1\n      pop\n        /* \"#utility.yul\":11664:12083   */\n      swap2\n      swap1\n      pop\n      jump\t// out\n        /* \"#utility.yul\":12089:12531   */\n    tag_130:\n        /* \"#utility.yul\":12238:12242   */\n      0x00\n        /* \"#utility.yul\":12276:12278   */\n      0x60\n        /* \"#utility.yul\":12265:12274   */\n      dup3\n        /* \"#utility.yul\":12261:12279   */\n      add\n        /* \"#utility.yul\":12253:12279   */\n      swap1\n      pop\n        /* \"#utility.yul\":12289:12360   */\n      tag_333\n        /* \"#utility.yul\":12357:12358   */\n      0x00\n        /* \"#utility.yul\":12346:12355   */\n      dup4\n        /* \"#utility.yul\":12342:12359   */\n      add\n        /* \"#utility.yul\":12333:12339   */\n      dup7\n        /* \"#utility.yul\":12289:12360   */\n      tag_190\n      jump\t// in\n    tag_333:\n        /* \"#utility.yul\":12370:12442   */\n      tag_334\n        /* \"#utility.yul\":12438:12440   */\n      0x20\n        /* \"#utility.yul\":12427:12436   */\n      dup4\n        /* \"#utility.yul\":12423:12441   */\n      add\n        /* \"#utility.yul\":12414:12420   */\n      dup6\n        /* \"#utility.yul\":12370:12442   */\n      tag_190\n      jump\t// in\n    tag_334:\n        /* \"#utility.yul\":12452:12524   */\n      tag_335\n        /* \"#utility.yul\":12520:12522   */\n      0x40\n        /* \"#utility.yul\":12509:12518   */\n      dup4\n        /* \"#utility.yul\":12505:12523   */\n      add\n        /* \"#utility.yul\":12496:12502   */\n      dup5\n        /* \"#utility.yul\":12452:12524   */\n      tag_192\n      jump\t// in\n    tag_335:\n        /* \"#utility.yul\":12089:12531   */\n      swap5\n      swap4\n      pop\n      pop\n      pop\n      pop\n      jump\t// out\n        /* \"#utility.yul\":12537:12717   */\n    tag_219:\n        /* \"#utility.yul\":12585:12662   */\n      0x4e487b7100000000000000000000000000000000000000000000000000000000\n        /* \"#utility.yul\":12582:12583   */\n      0x00\n        /* \"#utility.yul\":12575:12663   */\n      mstore\n        /* \"#utility.yul\":12682:12686   */\n      0x11\n        /* \"#utility.yul\":12679:12680   */\n      0x04\n        /* \"#utility.yul\":12672:12687   */\n      mstore\n        /* \"#utility.yul\":12706:12710   */\n      0x24\n        /* \"#utility.yul\":12703:12704   */\n      0x00\n        /* \"#utility.yul\":12696:12711   */\n      revert\n        /* \"#utility.yul\":12723:12917   */\n    tag_135:\n        /* \"#utility.yul\":12763:12767   */\n      0x00\n        /* \"#utility.yul\":12783:12803   */\n      tag_338\n        /* \"#utility.yul\":12801:12802   */\n      dup3\n        /* \"#utility.yul\":12783:12803   */\n      tag_191\n      jump\t// in\n    tag_338:\n        /* \"#utility.yul\":12778:12803   */\n      swap2\n      pop\n        /* \"#utility.yul\":12817:12837   */\n      tag_339\n        /* \"#utility.yul\":12835:12836   */\n      dup4\n        /* \"#utility.yul\":12817:12837   */\n      tag_191\n      jump\t// in\n    tag_339:\n        /* \"#utility.yul\":12812:12837   */\n      swap3\n      pop\n        /* \"#utility.yul\":12861:12862   */\n      dup3\n        /* \"#utility.yul\":12858:12859   */\n      dup3\n        /* \"#utility.yul\":12854:12863   */\n      sub\n        /* \"#utility.yul\":12846:12863   */\n      swap1\n      pop\n        /* \"#utility.yul\":12885:12886   */\n      dup2\n        /* \"#utility.yul\":12879:12883   */\n      dup2\n        /* \"#utility.yul\":12876:12887   */\n      gt\n        /* \"#utility.yul\":12873:12910   */\n      iszero\n      tag_340\n      jumpi\n        /* \"#utility.yul\":12890:12908   */\n      tag_341\n      tag_219\n      jump\t// in\n    tag_341:\n        /* \"#utility.yul\":12873:12910   */\n    tag_340:\n        /* \"#utility.yul\":12723:12917   */\n      swap3\n      swap2\n      pop\n      pop\n      jump\t// out\n        /* \"#utility.yul\":12923:13333   */\n    tag_137:\n        /* \"#utility.yul\":12963:12970   */\n      0x00\n        /* \"#utility.yul\":12986:13006   */\n      tag_343\n        /* \"#utility.yul\":13004:13005   */\n      dup3\n        /* \"#utility.yul\":12986:13006   */\n      tag_191\n      jump\t// in\n    tag_343:\n        /* \"#utility.yul\":12981:13006   */\n      swap2\n      pop\n        /* \"#utility.yul\":13020:13040   */\n      tag_344\n        /* \"#utility.yul\":13038:13039   */\n      dup4\n        /* \"#utility.yul\":13020:13040   */\n      tag_191\n      jump\t// in\n    tag_344:\n        /* \"#utility.yul\":13015:13040   */\n      swap3\n      pop\n        /* \"#utility.yul\":13075:13076   */\n      dup3\n        /* \"#utility.yul\":13072:13073   */\n      dup3\n        /* \"#utility.yul\":13068:13077   */\n      mul\n        /* \"#utility.yul\":13097:13127   */\n      tag_345\n        /* \"#utility.yul\":13115:13126   */\n      dup2\n        /* \"#utility.yul\":13097:13127   */\n      tag_191\n      jump\t// in\n    tag_345:\n        /* \"#utility.yul\":13086:13127   */\n      swap2\n      pop\n        /* \"#utility.yul\":13276:13277   */\n      dup3\n        /* \"#utility.yul\":13267:13274   */\n      dup3\n        /* \"#utility.yul\":13263:13278   */\n      div\n        /* \"#utility.yul\":13260:13261   */\n      dup5\n        /* \"#utility.yul\":13257:13279   */\n      eq\n        /* \"#utility.yul\":13237:13238   */\n      dup4\n        /* \"#utility.yul\":13230:13239   */\n      iszero\n        /* \"#utility.yul\":13210:13293   */\n      or\n        /* \"#utility.yul\":13187:13326   */\n      tag_346\n      jumpi\n        /* \"#utility.yul\":13306:13324   */\n      tag_347\n      tag_219\n      jump\t// in\n    tag_347:\n        /* \"#utility.yul\":13187:13326   */\n    tag_346:\n        /* \"#utility.yul\":12971:13333   */\n      pop\n        /* \"#utility.yul\":12923:13333   */\n      swap3\n      swap2\n      pop\n      pop\n      jump\t// out\n        /* \"#utility.yul\":13339:13519   */\n    tag_220:\n        /* \"#utility.yul\":13387:13464   */\n      0x4e487b7100000000000000000000000000000000000000000000000000000000\n        /* \"#utility.yul\":13384:13385   */\n      0x00\n        /* \"#utility.yul\":13377:13465   */\n      mstore\n        /* \"#utility.yul\":13484:13488   */\n      0x12\n        /* \"#utility.yul\":13481:13482   */\n      0x04\n        /* \"#utility.yul\":13474:13489   */\n      mstore\n        /* \"#utility.yul\":13508:13512   */\n      0x24\n        /* \"#utility.yul\":13505:13506   */\n      0x00\n        /* \"#utility.yul\":13498:13513   */\n      revert\n        /* \"#utility.yul\":13525:13710   */\n    tag_139:\n        /* \"#utility.yul\":13565:13566   */\n      0x00\n        /* \"#utility.yul\":13582:13602   */\n      tag_350\n        /* \"#utility.yul\":13600:13601   */\n      dup3\n        /* \"#utility.yul\":13582:13602   */\n      tag_191\n      jump\t// in\n    tag_350:\n        /* \"#utility.yul\":13577:13602   */\n      swap2\n      pop\n        /* \"#utility.yul\":13616:13636   */\n      tag_351\n        /* \"#utility.yul\":13634:13635   */\n      dup4\n        /* \"#utility.yul\":13616:13636   */\n      tag_191\n      jump\t// in\n    tag_351:\n        /* \"#utility.yul\":13611:13636   */\n      swap3\n      pop\n        /* \"#utility.yul\":13655:13656   */\n      dup3\n        /* \"#utility.yul\":13645:13680   */\n      tag_352\n      jumpi\n        /* \"#utility.yul\":13660:13678   */\n      tag_353\n      tag_220\n      jump\t// in\n    tag_353:\n        /* \"#utility.yul\":13645:13680   */\n    tag_352:\n        /* \"#utility.yul\":13702:13703   */\n      dup3\n        /* \"#utility.yul\":13699:13700   */\n      dup3\n        /* \"#utility.yul\":13695:13704   */\n      div\n        /* \"#utility.yul\":13690:13704   */\n      swap1\n      pop\n        /* \"#utility.yul\":13525:13710   */\n      swap3\n      swap2\n      pop\n      pop\n      jump\t// out\n        /* \"#utility.yul\":13716:13884   */\n    tag_221:\n        /* \"#utility.yul\":13856:13876   */\n      0x496e697469616c697a656420537570706c790000000000000000000000000000\n        /* \"#utility.yul\":13852:13853   */\n      0x00\n        /* \"#utility.yul\":13844:13850   */\n      dup3\n        /* \"#utility.yul\":13840:13854   */\n      add\n        /* \"#utility.yul\":13833:13877   */\n      mstore\n        /* \"#utility.yul\":13716:13884   */\n      pop\n      jump\t// out\n        /* \"#utility.yul\":13890:14256   */\n    tag_222:\n        /* \"#utility.yul\":14032:14035   */\n      0x00\n        /* \"#utility.yul\":14053:14120   */\n      tag_356\n        /* \"#utility.yul\":14117:14119   */\n      0x12\n        /* \"#utility.yul\":14112:14115   */\n      dup4\n        /* \"#utility.yul\":14053:14120   */\n      tag_201\n      jump\t// in\n    tag_356:\n        /* \"#utility.yul\":14046:14120   */\n      swap2\n      pop\n        /* \"#utility.yul\":14129:14222   */\n      tag_357\n        /* \"#utility.yul\":14218:14221   */\n      dup3\n        /* \"#utility.yul\":14129:14222   */\n      tag_221\n      jump\t// in\n    tag_357:\n        /* \"#utility.yul\":14247:14249   */\n      0x20\n        /* \"#utility.yul\":14242:14245   */\n      dup3\n        /* \"#utility.yul\":14238:14250   */\n      add\n        /* \"#utility.yul\":14231:14250   */\n      swap1\n      pop\n        /* \"#utility.yul\":13890:14256   */\n      swap2\n      swap1\n      pop\n      jump\t// out\n        /* \"#utility.yul\":14262:14791   */\n    tag_157:\n        /* \"#utility.yul\":14456:14460   */\n      0x00\n        /* \"#utility.yul\":14494:14496   */\n      0x40\n        /* \"#utility.yul\":14483:14492   */\n      dup3\n        /* \"#utility.yul\":14479:14497   */\n      add\n        /* \"#utility.yul\":14471:14497   */\n      swap1\n      pop\n        /* \"#utility.yul\":14543:14552   */\n      dup2\n        /* \"#utility.yul\":14537:14541   */\n      dup2\n        /* \"#utility.yul\":14533:14553   */\n      sub\n        /* \"#utility.yul\":14529:14530   */\n      0x00\n        /* \"#utility.yul\":14518:14527   */\n      dup4\n        /* \"#utility.yul\":14514:14531   */\n      add\n        /* \"#utility.yul\":14507:14554   */\n      mstore\n        /* \"#utility.yul\":14571:14702   */\n      tag_359\n        /* \"#utility.yul\":14697:14701   */\n      dup2\n        /* \"#utility.yul\":14571:14702   */\n      tag_222\n      jump\t// in\n    tag_359:\n        /* \"#utility.yul\":14563:14702   */\n      swap1\n      pop\n        /* \"#utility.yul\":14712:14784   */\n      tag_360\n        /* \"#utility.yul\":14780:14782   */\n      0x20\n        /* \"#utility.yul\":14769:14778   */\n      dup4\n        /* \"#utility.yul\":14765:14783   */\n      add\n        /* \"#utility.yul\":14756:14762   */\n      dup5\n        /* \"#utility.yul\":14712:14784   */\n      tag_192\n      jump\t// in\n    tag_360:\n        /* \"#utility.yul\":14262:14791   */\n      swap3\n      swap2\n      pop\n      pop\n      jump\t// out\n        /* \"#utility.yul\":14797:14960   */\n    tag_223:\n        /* \"#utility.yul\":14937:14952   */\n      0x4d696e74656420546f6b656e7300000000000000000000000000000000000000\n        /* \"#utility.yul\":14933:14934   */\n      0x00\n        /* \"#utility.yul\":14925:14931   */\n      dup3\n        /* \"#utility.yul\":14921:14935   */\n      add\n        /* \"#utility.yul\":14914:14953   */\n      mstore\n        /* \"#utility.yul\":14797:14960   */\n      pop\n      jump\t// out\n        /* \"#utility.yul\":14966:15332   */\n    tag_224:\n        /* \"#utility.yul\":15108:15111   */\n      0x00\n        /* \"#utility.yul\":15129:15196   */\n      tag_363\n        /* \"#utility.yul\":15193:15195   */\n      0x0d\n        /* \"#utility.yul\":15188:15191   */\n      dup4\n        /* \"#utility.yul\":15129:15196   */\n      tag_201\n      jump\t// in\n    tag_363:\n        /* \"#utility.yul\":15122:15196   */\n      swap2\n      pop\n        /* \"#utility.yul\":15205:15298   */\n      tag_364\n        /* \"#utility.yul\":15294:15297   */\n      dup3\n        /* \"#utility.yul\":15205:15298   */\n      tag_223\n      jump\t// in\n    tag_364:\n        /* \"#utility.yul\":15323:15325   */\n      0x20\n        /* \"#utility.yul\":15318:15321   */\n      dup3\n        /* \"#utility.yul\":15314:15326   */\n      add\n        /* \"#utility.yul\":15307:15326   */\n      swap1\n      pop\n        /* \"#utility.yul\":14966:15332   */\n      swap2\n      swap1\n      pop\n      jump\t// out\n        /* \"#utility.yul\":15338:15867   */\n    tag_164:\n        /* \"#utility.yul\":15532:15536   */\n      0x00\n        /* \"#utility.yul\":15570:15572   */\n      0x40\n        /* \"#utility.yul\":15559:15568   */\n      dup3\n        /* \"#utility.yul\":15555:15573   */\n      add\n        /* \"#utility.yul\":15547:15573   */\n      swap1\n      pop\n        /* \"#utility.yul\":15619:15628   */\n      dup2\n        /* \"#utility.yul\":15613:15617   */\n      dup2\n        /* \"#utility.yul\":15609:15629   */\n      sub\n        /* \"#utility.yul\":15605:15606   */\n      0x00\n        /* \"#utility.yul\":15594:15603   */\n      dup4\n        /* \"#utility.yul\":15590:15607   */\n      add\n        /* \"#utility.yul\":15583:15630   */\n      mstore\n        /* \"#utility.yul\":15647:15778   */\n      tag_366\n        /* \"#utility.yul\":15773:15777   */\n      dup2\n        /* \"#utility.yul\":15647:15778   */\n      tag_224\n      jump\t// in\n    tag_366:\n        /* \"#utility.yul\":15639:15778   */\n      swap1\n      pop\n        /* \"#utility.yul\":15788:15860   */\n      tag_367\n        /* \"#utility.yul\":15856:15858   */\n      0x20\n        /* \"#utility.yul\":15845:15854   */\n      dup4\n        /* \"#utility.yul\":15841:15859   */\n      add\n        /* \"#utility.yul\":15832:15838   */\n      dup5\n        /* \"#utility.yul\":15788:15860   */\n      tag_192\n      jump\t// in\n    tag_367:\n        /* \"#utility.yul\":15338:15867   */\n      swap3\n      swap2\n      pop\n      pop\n      jump\t// out\n        /* \"#utility.yul\":15873:16205   */\n    tag_170:\n        /* \"#utility.yul\":15994:15998   */\n      0x00\n        /* \"#utility.yul\":16032:16034   */\n      0x40\n        /* \"#utility.yul\":16021:16030   */\n      dup3\n        /* \"#utility.yul\":16017:16035   */\n      add\n        /* \"#utility.yul\":16009:16035   */\n      swap1\n      pop\n        /* \"#utility.yul\":16045:16116   */\n      tag_369\n        /* \"#utility.yul\":16113:16114   */\n      0x00\n        /* \"#utility.yul\":16102:16111   */\n      dup4\n        /* \"#utility.yul\":16098:16115   */\n      add\n        /* \"#utility.yul\":16089:16095   */\n      dup6\n        /* \"#utility.yul\":16045:16116   */\n      tag_192\n      jump\t// in\n    tag_369:\n        /* \"#utility.yul\":16126:16198   */\n      tag_370\n        /* \"#utility.yul\":16194:16196   */\n      0x20\n        /* \"#utility.yul\":16183:16192   */\n      dup4\n        /* \"#utility.yul\":16179:16197   */\n      add\n        /* \"#utility.yul\":16170:16176   */\n      dup5\n        /* \"#utility.yul\":16126:16198   */\n      tag_192\n      jump\t// in\n    tag_370:\n        /* \"#utility.yul\":15873:16205   */\n      swap4\n      swap3\n      pop\n      pop\n      pop\n      jump\t// out\n        /* \"#utility.yul\":16211:16393   */\n    tag_225:\n        /* \"#utility.yul\":16351:16385   */\n      0x4e6577206f776e65722063616e6e6f74206265207a65726f2061646472657373\n        /* \"#utility.yul\":16347:16348   */\n      0x00\n        /* \"#utility.yul\":16339:16345   */\n      dup3\n        /* \"#utility.yul\":16335:16349   */\n      add\n        /* \"#utility.yul\":16328:16386   */\n      mstore\n        /* \"#utility.yul\":16211:16393   */\n      pop\n      jump\t// out\n        /* \"#utility.yul\":16399:16765   */\n    tag_226:\n        /* \"#utility.yul\":16541:16544   */\n      0x00\n        /* \"#utility.yul\":16562:16629   */\n      tag_373\n        /* \"#utility.yul\":16626:16628   */\n      0x20\n        /* \"#utility.yul\":16621:16624   */\n      dup4\n        /* \"#utility.yul\":16562:16629   */\n      tag_201\n      jump\t// in\n    tag_373:\n        /* \"#utility.yul\":16555:16629   */\n      swap2\n      pop\n        /* \"#utility.yul\":16638:16731   */\n      tag_374\n        /* \"#utility.yul\":16727:16730   */\n      dup3\n        /* \"#utility.yul\":16638:16731   */\n      tag_225\n      jump\t// in\n    tag_374:\n        /* \"#utility.yul\":16756:16758   */\n      0x20\n        /* \"#utility.yul\":16751:16754   */\n      dup3\n        /* \"#utility.yul\":16747:16759   */\n      add\n        /* \"#utility.yul\":16740:16759   */\n      swap1\n      pop\n        /* \"#utility.yul\":16399:16765   */\n      swap2\n      swap1\n      pop\n      jump\t// out\n        /* \"#utility.yul\":16771:17190   */\n    tag_187:\n        /* \"#utility.yul\":16937:16941   */\n      0x00\n        /* \"#utility.yul\":16975:16977   */\n      0x20\n        /* \"#utility.yul\":16964:16973   */\n      dup3\n        /* \"#utility.yul\":16960:16978   */\n      add\n        /* \"#utility.yul\":16952:16978   */\n      swap1\n      pop\n        /* \"#utility.yul\":17024:17033   */\n      dup2\n        /* \"#utility.yul\":17018:17022   */\n      dup2\n        /* \"#utility.yul\":17014:17034   */\n      sub\n        /* \"#utility.yul\":17010:17011   */\n      0x00\n        /* \"#utility.yul\":16999:17008   */\n      dup4\n        /* \"#utility.yul\":16995:17012   */\n      add\n        /* \"#utility.yul\":16988:17035   */\n      mstore\n        /* \"#utility.yul\":17052:17183   */\n      tag_376\n        /* \"#utility.yul\":17178:17182   */\n      dup2\n        /* \"#utility.yul\":17052:17183   */\n      tag_226\n      jump\t// in\n    tag_376:\n        /* \"#utility.yul\":17044:17183   */\n      swap1\n      pop\n        /* \"#utility.yul\":16771:17190   */\n      swap2\n      swap1\n      pop\n      jump\t// out\n\n    auxdata: 0xa26469706673582212205a313efed7656c8ad01df914332bc8175b5d1c1f7ffb0dd690e357aa07feeb2364736f6c634300081c0033\n}\n",
				"bytecode": {
					"linkReferences": {},
					"object": "6080604052600560035566014e20c32bd2db60045534801561001f575f5ffd5b50604051611b8e380380611b8e83398181016040528101906100419190610165565b335f5f6101000a81548173ffffffffffffffffffffffffffffffffffffffff021916908373ffffffffffffffffffffffffffffffffffffffff1602179055508160015f6101000a81548173ffffffffffffffffffffffffffffffffffffffff021916908373ffffffffffffffffffffffffffffffffffffffff1602179055508060025f6101000a81548173ffffffffffffffffffffffffffffffffffffffff021916908373ffffffffffffffffffffffffffffffffffffffff16021790555050506101a3565b5f5ffd5b5f73ffffffffffffffffffffffffffffffffffffffff82169050919050565b5f6101348261010b565b9050919050565b6101448161012a565b811461014e575f5ffd5b50565b5f8151905061015f8161013b565b92915050565b5f5f6040838503121561017b5761017a610107565b5b5f61018885828601610151565b925050602061019985828601610151565b9150509250929050565b6119de806101b05f395ff3fe608060405234801561000f575f5ffd5b50600436106100e8575f3560e01c80638da5cb5b1161008a578063bbf6119a11610064578063bbf6119a14610234578063dc38679c14610264578063e6c0e6d514610282578063f2fde38b146102a0576100e8565b80638da5cb5b146101ca5780639940686e146101e8578063b357964b14610204576100e8565b806369328dec116100c657806369328dec146101465780636a64eff8146101625780637c69febd1461017e578063861b67ab1461019a576100e8565b80633a6eb3df146100ec5780633fc8cef31461010a5780635e3124ed14610128575b5f5ffd5b6100f46102bc565b60405161010191906111dd565b60405180910390f35b6101126102e1565b60405161011f91906111dd565b60405180910390f35b610130610306565b60405161013d919061120e565b60405180910390f35b610160600480360381019061015b919061127f565b6103a5565b005b61017c600480360381019061017791906112cf565b610688565b005b610198600480360381019061019391906112cf565b610720565b005b6101b460048036038101906101af91906112fa565b6107fc565b6040516101c1919061120e565b60405180910390f35b6101d261089d565b6040516101df91906111dd565b60405180910390f35b61020260048036038101906101fd91906112cf565b6108c1565b005b61021e600480360381019061021991906112fa565b610e96565b60405161022b919061120e565b60405180910390f35b61024e600480360381019061024991906112fa565b610f39565b60405161025b919061120e565b60405180910390f35b61026c610fda565b604051610279919061120e565b60405180910390f35b61028a610fe0565b604051610297919061120e565b60405180910390f35b6102ba60048036038101906102b591906112fa565b610fe6565b005b60025f9054906101000a900473ffffffffffffffffffffffffffffffffffffffff1681565b60015f9054906101000a900473ffffffffffffffffffffffffffffffffffffffff1681565b5f60025f9054906101000a900473ffffffffffffffffffffffffffffffffffffffff1673ffffffffffffffffffffffffffffffffffffffff166370a08231306040518263ffffffff1660e01b815260040161036191906111dd565b602060405180830381865afa15801561037c573d5f5f3e3d5ffd5b505050506040513d601f19601f820116820180604052508101906103a09190611339565b905090565b5f5f9054906101000a900473ffffffffffffffffffffffffffffffffffffffff1673ffffffffffffffffffffffffffffffffffffffff163373ffffffffffffffffffffffffffffffffffffffff1614610433576040517f08c379a000000000000000000000000000000000000000000000000000000000815260040161042a906113be565b60405180910390fd5b5f73ffffffffffffffffffffffffffffffffffffffff168173ffffffffffffffffffffffffffffffffffffffff16036104a1576040517f08c379a000000000000000000000000000000000000000000000000000000000815260040161049890611426565b60405180910390fd5b5f82116104e3576040517f08c379a00000000000000000000000000000000000000000000000000000000081526004016104da9061148e565b60405180910390fd5b5f8373ffffffffffffffffffffffffffffffffffffffff166370a08231306040518263ffffffff1660e01b815260040161051d91906111dd565b602060405180830381865afa158015610538573d5f5f3e3d5ffd5b505050506040513d601f19601f8201168201806040525081019061055c9190611339565b9050828110156105a1576040517f08c379a0000000000000000000000000000000000000000000000000000000008152600401610598906114f6565b60405180910390fd5b8373ffffffffffffffffffffffffffffffffffffffff1663a9059cbb83856040518363ffffffff1660e01b81526004016105dc929190611514565b6020604051808303815f875af11580156105f8573d5f5f3e3d5ffd5b505050506040513d601f19601f8201168201806040525081019061061c9190611570565b508173ffffffffffffffffffffffffffffffffffffffff168473ffffffffffffffffffffffffffffffffffffffff167fd1c19fbcd4551a5edfb66d43d2e337c04837afda3482b42bdf569a8fccdae5fb8560405161067a919061120e565b60405180910390a350505050565b5f5f9054906101000a900473ffffffffffffffffffffffffffffffffffffffff1673ffffffffffffffffffffffffffffffffffffffff163373ffffffffffffffffffffffffffffffffffffffff1614610716576040517f08c379a000000000000000000000000000000000000000000000000000000000815260040161070d906113be565b60405180910390fd5b8060048190555050565b5f5f9054906101000a900473ffffffffffffffffffffffffffffffffffffffff1673ffffffffffffffffffffffffffffffffffffffff163373ffffffffffffffffffffffffffffffffffffffff16146107ae576040517f08c379a00000000000000000000000000000000000000000000000000000000081526004016107a5906113be565b60405180910390fd5b60648111156107f2576040517f08c379a00000000000000000000000000000000000000000000000000000000081526004016107e9906115e5565b60405180910390fd5b8060038190555050565b5f60025f9054906101000a900473ffffffffffffffffffffffffffffffffffffffff1673ffffffffffffffffffffffffffffffffffffffff166370a08231836040518263ffffffff1660e01b815260040161085791906111dd565b602060405180830381865afa158015610872573d5f5f3e3d5ffd5b505050506040513d601f19601f820116820180604052508101906108969190611339565b9050919050565b5f5f9054906101000a900473ffffffffffffffffffffffffffffffffffffffff1681565b5f8111610903576040517f08c379a00000000000000000000000000000000000000000000000000000000081526004016108fa9061164d565b60405180910390fd5b5f60015f9054906101000a900473ffffffffffffffffffffffffffffffffffffffff1673ffffffffffffffffffffffffffffffffffffffff1663dd62ed3e33306040518363ffffffff1660e01b815260040161096092919061166b565b602060405180830381865afa15801561097b573d5f5f3e3d5ffd5b505050506040513d601f19601f8201168201806040525081019061099f9190611339565b9050818110156109e4576040517f08c379a00000000000000000000000000000000000000000000000000000000081526004016109db906116dc565b60405180910390fd5b60015f9054906101000a900473ffffffffffffffffffffffffffffffffffffffff1673ffffffffffffffffffffffffffffffffffffffff166323b872dd3330856040518463ffffffff1660e01b8152600401610a42939291906116fa565b6020604051808303815f875af1158015610a5e573d5f5f3e3d5ffd5b505050506040513d601f19601f82011682018060405250810190610a829190611570565b505f60646003546064610a95919061175c565b600454610aa2919061178f565b610aac91906117fd565b90505f81670de0b6b3a764000085610ac4919061178f565b610ace91906117fd565b90505f60025f9054906101000a900473ffffffffffffffffffffffffffffffffffffffff1673ffffffffffffffffffffffffffffffffffffffff166370a08231306040518263ffffffff1660e01b8152600401610b2b91906111dd565b602060405180830381865afa158015610b46573d5f5f3e3d5ffd5b505050506040513d601f19601f82011682018060405250810190610b6a9190611339565b905081811015610da2575f8183610b81919061175c565b90505f60025f9054906101000a900473ffffffffffffffffffffffffffffffffffffffff1673ffffffffffffffffffffffffffffffffffffffff166318160ddd6040518163ffffffff1660e01b8152600401602060405180830381865afa158015610bee573d5f5f3e3d5ffd5b505050506040513d601f19601f82011682018060405250810190610c129190611339565b90505f8103610cde5760025f9054906101000a900473ffffffffffffffffffffffffffffffffffffffff1673ffffffffffffffffffffffffffffffffffffffff1663d9e63bb1836040518263ffffffff1660e01b8152600401610c75919061120e565b5f604051808303815f87803b158015610c8c575f5ffd5b505af1158015610c9e573d5f5f3e3d5ffd5b505050507f3c5ad147104e56be34a9176a6692f7df8d2f4b29a5af06bc6b98970d329d657782604051610cd19190611877565b60405180910390a1610d9f565b60025f9054906101000a900473ffffffffffffffffffffffffffffffffffffffff1673ffffffffffffffffffffffffffffffffffffffff166340c10f1930846040518363ffffffff1660e01b8152600401610d3a929190611514565b5f604051808303815f87803b158015610d51575f5ffd5b505af1158015610d63573d5f5f3e3d5ffd5b505050507f3c5ad147104e56be34a9176a6692f7df8d2f4b29a5af06bc6b98970d329d657782604051610d9691906118ed565b60405180910390a15b50505b60025f9054906101000a900473ffffffffffffffffffffffffffffffffffffffff1673ffffffffffffffffffffffffffffffffffffffff1663a9059cbb33846040518363ffffffff1660e01b8152600401610dfe929190611514565b6020604051808303815f875af1158015610e1a573d5f5f3e3d5ffd5b505050506040513d601f19601f82011682018060405250810190610e3e9190611570565b503373ffffffffffffffffffffffffffffffffffffffff167f0db13e87b3f9c3b8f5f3acad928df55c52ba6bf7795af4ec069de5e23caacb378684604051610e87929190611919565b60405180910390a25050505050565b5f60015f9054906101000a900473ffffffffffffffffffffffffffffffffffffffff1673ffffffffffffffffffffffffffffffffffffffff1663dd62ed3e83306040518363ffffffff1660e01b8152600401610ef392919061166b565b602060405180830381865afa158015610f0e573d5f5f3e3d5ffd5b505050506040513d601f19601f82011682018060405250810190610f329190611339565b9050919050565b5f60015f9054906101000a900473ffffffffffffffffffffffffffffffffffffffff1673ffffffffffffffffffffffffffffffffffffffff166370a08231836040518263ffffffff1660e01b8152600401610f9491906111dd565b602060405180830381865afa158015610faf573d5f5f3e3d5ffd5b505050506040513d601f19601f82011682018060405250810190610fd39190611339565b9050919050565b60045481565b60035481565b5f5f9054906101000a900473ffffffffffffffffffffffffffffffffffffffff1673ffffffffffffffffffffffffffffffffffffffff163373ffffffffffffffffffffffffffffffffffffffff1614611074576040517f08c379a000000000000000000000000000000000000000000000000000000000815260040161106b906113be565b60405180910390fd5b5f73ffffffffffffffffffffffffffffffffffffffff168173ffffffffffffffffffffffffffffffffffffffff16036110e2576040517f08c379a00000000000000000000000000000000000000000000000000000000081526004016110d99061198a565b60405180910390fd5b8073ffffffffffffffffffffffffffffffffffffffff165f5f9054906101000a900473ffffffffffffffffffffffffffffffffffffffff1673ffffffffffffffffffffffffffffffffffffffff167f8be0079c531659141344cd1fd0a4f28419497f9722a3daafe3b4186f6b6457e060405160405180910390a3805f5f6101000a81548173ffffffffffffffffffffffffffffffffffffffff021916908373ffffffffffffffffffffffffffffffffffffffff16021790555050565b5f73ffffffffffffffffffffffffffffffffffffffff82169050919050565b5f6111c78261119e565b9050919050565b6111d7816111bd565b82525050565b5f6020820190506111f05f8301846111ce565b92915050565b5f819050919050565b611208816111f6565b82525050565b5f6020820190506112215f8301846111ff565b92915050565b5f5ffd5b611234816111bd565b811461123e575f5ffd5b50565b5f8135905061124f8161122b565b92915050565b61125e816111f6565b8114611268575f5ffd5b50565b5f8135905061127981611255565b92915050565b5f5f5f6060848603121561129657611295611227565b5b5f6112a386828701611241565b93505060206112b48682870161126b565b92505060406112c586828701611241565b9150509250925092565b5f602082840312156112e4576112e3611227565b5b5f6112f18482850161126b565b91505092915050565b5f6020828403121561130f5761130e611227565b5b5f61131c84828501611241565b91505092915050565b5f8151905061133381611255565b92915050565b5f6020828403121561134e5761134d611227565b5b5f61135b84828501611325565b91505092915050565b5f82825260208201905092915050565b7f4e6f7420617574686f72697a65640000000000000000000000000000000000005f82015250565b5f6113a8600e83611364565b91506113b382611374565b602082019050919050565b5f6020820190508181035f8301526113d58161139c565b9050919050565b7f496e76616c696420726563697069656e742061646472657373000000000000005f82015250565b5f611410601983611364565b915061141b826113dc565b602082019050919050565b5f6020820190508181035f83015261143d81611404565b9050919050565b7f416d6f756e74206d7573742062652067726561746572207468616e207a65726f5f82015250565b5f611478602083611364565b915061148382611444565b602082019050919050565b5f6020820190508181035f8301526114a58161146c565b9050919050565b7f496e73756666696369656e742062616c616e63650000000000000000000000005f82015250565b5f6114e0601483611364565b91506114eb826114ac565b602082019050919050565b5f6020820190508181035f83015261150d816114d4565b9050919050565b5f6040820190506115275f8301856111ce565b61153460208301846111ff565b9392505050565b5f8115159050919050565b61154f8161153b565b8114611559575f5ffd5b50565b5f8151905061156a81611546565b92915050565b5f6020828403121561158557611584611227565b5b5f6115928482850161155c565b91505092915050565b7f496e76616c696420646973636f756e74207261746500000000000000000000005f82015250565b5f6115cf601583611364565b91506115da8261159b565b602082019050919050565b5f6020820190508181035f8301526115fc816115c3565b9050919050565b7f4d757374206465706f73697420574554480000000000000000000000000000005f82015250565b5f611637601183611364565b915061164282611603565b602082019050919050565b5f6020820190508181035f8301526116648161162b565b9050919050565b5f60408201905061167e5f8301856111ce565b61168b60208301846111ce565b9392505050565b7f416c6c6f77616e6365206e6f742073756666696369656e7400000000000000005f82015250565b5f6116c6601883611364565b91506116d182611692565b602082019050919050565b5f6020820190508181035f8301526116f3816116ba565b9050919050565b5f60608201905061170d5f8301866111ce565b61171a60208301856111ce565b61172760408301846111ff565b949350505050565b7f4e487b71000000000000000000000000000000000000000000000000000000005f52601160045260245ffd5b5f611766826111f6565b9150611771836111f6565b92508282039050818111156117895761178861172f565b5b92915050565b5f611799826111f6565b91506117a4836111f6565b92508282026117b2816111f6565b915082820484148315176117c9576117c861172f565b5b5092915050565b7f4e487b71000000000000000000000000000000000000000000000000000000005f52601260045260245ffd5b5f611807826111f6565b9150611812836111f6565b925082611822576118216117d0565b5b828204905092915050565b7f496e697469616c697a656420537570706c7900000000000000000000000000005f82015250565b5f611861601283611364565b915061186c8261182d565b602082019050919050565b5f6040820190508181035f83015261188e81611855565b905061189d60208301846111ff565b92915050565b7f4d696e74656420546f6b656e73000000000000000000000000000000000000005f82015250565b5f6118d7600d83611364565b91506118e2826118a3565b602082019050919050565b5f6040820190508181035f830152611904816118cb565b905061191360208301846111ff565b92915050565b5f60408201905061192c5f8301856111ff565b61193960208301846111ff565b9392505050565b7f4e6577206f776e65722063616e6e6f74206265207a65726f20616464726573735f82015250565b5f611974602083611364565b915061197f82611940565b602082019050919050565b5f6020820190508181035f8301526119a181611968565b905091905056fea26469706673582212205a313efed7656c8ad01df914332bc8175b5d1c1f7ffb0dd690e357aa07feeb2364736f6c634300081c0033",
					"opcodes": "PUSH1 0x80 PUSH1 0x40 MSTORE PUSH1 0x5 PUSH1 0x3 SSTORE PUSH7 0x14E20C32BD2DB PUSH1 0x4 SSTORE CALLVALUE DUP1 ISZERO PUSH2 0x1F JUMPI PUSH0 PUSH0 REVERT JUMPDEST POP PUSH1 0x40 MLOAD PUSH2 0x1B8E CODESIZE SUB DUP1 PUSH2 0x1B8E DUP4 CODECOPY DUP2 DUP2 ADD PUSH1 0x40 MSTORE DUP2 ADD SWAP1 PUSH2 0x41 SWAP2 SWAP1 PUSH2 0x165 JUMP JUMPDEST CALLER PUSH0 PUSH0 PUSH2 0x100 EXP DUP2 SLOAD DUP2 PUSH20 0xFFFFFFFFFFFFFFFFFFFFFFFFFFFFFFFFFFFFFFFF MUL NOT AND SWAP1 DUP4 PUSH20 0xFFFFFFFFFFFFFFFFFFFFFFFFFFFFFFFFFFFFFFFF AND MUL OR SWAP1 SSTORE POP DUP2 PUSH1 0x1 PUSH0 PUSH2 0x100 EXP DUP2 SLOAD DUP2 PUSH20 0xFFFFFFFFFFFFFFFFFFFFFFFFFFFFFFFFFFFFFFFF MUL NOT AND SWAP1 DUP4 PUSH20 0xFFFFFFFFFFFFFFFFFFFFFFFFFFFFFFFFFFFFFFFF AND MUL OR SWAP1 SSTORE POP DUP1 PUSH1 0x2 PUSH0 PUSH2 0x100 EXP DUP2 SLOAD DUP2 PUSH20 0xFFFFFFFFFFFFFFFFFFFFFFFFFFFFFFFFFFFFFFFF MUL NOT AND SWAP1 DUP4 PUSH20 0xFFFFFFFFFFFFFFFFFFFFFFFFFFFFFFFFFFFFFFFF AND MUL OR SWAP1 SSTORE POP POP POP PUSH2 0x1A3 JUMP JUMPDEST PUSH0 PUSH0 REVERT JUMPDEST PUSH0 PUSH20 0xFFFFFFFFFFFFFFFFFFFFFFFFFFFFFFFFFFFFFFFF DUP3 AND SWAP1 POP SWAP2 SWAP1 POP JUMP JUMPDEST PUSH0 PUSH2 0x134 DUP3 PUSH2 0x10B JUMP JUMPDEST SWAP1 POP SWAP2 SWAP1 POP JUMP JUMPDEST PUSH2 0x144 DUP2 PUSH2 0x12A JUMP JUMPDEST DUP2 EQ PUSH2 0x14E JUMPI PUSH0 PUSH0 REVERT JUMPDEST POP JUMP JUMPDEST PUSH0 DUP2 MLOAD SWAP1 POP PUSH2 0x15F DUP2 PUSH2 0x13B JUMP JUMPDEST SWAP3 SWAP2 POP POP JUMP JUMPDEST PUSH0 PUSH0 PUSH1 0x40 DUP4 DUP6 SUB SLT ISZERO PUSH2 0x17B JUMPI PUSH2 0x17A PUSH2 0x107 JUMP JUMPDEST JUMPDEST PUSH0 PUSH2 0x188 DUP6 DUP3 DUP7 ADD PUSH2 0x151 JUMP JUMPDEST SWAP3 POP POP PUSH1 0x20 PUSH2 0x199 DUP6 DUP3 DUP7 ADD PUSH2 0x151 JUMP JUMPDEST SWAP2 POP POP SWAP3 POP SWAP3 SWAP1 POP JUMP JUMPDEST PUSH2 0x19DE DUP1 PUSH2 0x1B0 PUSH0 CODECOPY PUSH0 RETURN INVALID PUSH1 0x80 PUSH1 0x40 MSTORE CALLVALUE DUP1 ISZERO PUSH2 0xF JUMPI PUSH0 PUSH0 REVERT JUMPDEST POP PUSH1 0x4 CALLDATASIZE LT PUSH2 0xE8 JUMPI PUSH0 CALLDATALOAD PUSH1 0xE0 SHR DUP1 PUSH4 0x8DA5CB5B GT PUSH2 0x8A JUMPI DUP1 PUSH4 0xBBF6119A GT PUSH2 0x64 JUMPI DUP1 PUSH4 0xBBF6119A EQ PUSH2 0x234 JUMPI DUP1 PUSH4 0xDC38679C EQ PUSH2 0x264 JUMPI DUP1 PUSH4 0xE6C0E6D5 EQ PUSH2 0x282 JUMPI DUP1 PUSH4 0xF2FDE38B EQ PUSH2 0x2A0 JUMPI PUSH2 0xE8 JUMP JUMPDEST DUP1 PUSH4 0x8DA5CB5B EQ PUSH2 0x1CA JUMPI DUP1 PUSH4 0x9940686E EQ PUSH2 0x1E8 JUMPI DUP1 PUSH4 0xB357964B EQ PUSH2 0x204 JUMPI PUSH2 0xE8 JUMP JUMPDEST DUP1 PUSH4 0x69328DEC GT PUSH2 0xC6 JUMPI DUP1 PUSH4 0x69328DEC EQ PUSH2 0x146 JUMPI DUP1 PUSH4 0x6A64EFF8 EQ PUSH2 0x162 JUMPI DUP1 PUSH4 0x7C69FEBD EQ PUSH2 0x17E JUMPI DUP1 PUSH4 0x861B67AB EQ PUSH2 0x19A JUMPI PUSH2 0xE8 JUMP JUMPDEST DUP1 PUSH4 0x3A6EB3DF EQ PUSH2 0xEC JUMPI DUP1 PUSH4 0x3FC8CEF3 EQ PUSH2 0x10A JUMPI DUP1 PUSH4 0x5E3124ED EQ PUSH2 0x128 JUMPI JUMPDEST PUSH0 PUSH0 REVERT JUMPDEST PUSH2 0xF4 PUSH2 0x2BC JUMP JUMPDEST PUSH1 0x40 MLOAD PUSH2 0x101 SWAP2 SWAP1 PUSH2 0x11DD JUMP JUMPDEST PUSH1 0x40 MLOAD DUP1 SWAP2 SUB SWAP1 RETURN JUMPDEST PUSH2 0x112 PUSH2 0x2E1 JUMP JUMPDEST PUSH1 0x40 MLOAD PUSH2 0x11F SWAP2 SWAP1 PUSH2 0x11DD JUMP JUMPDEST PUSH1 0x40 MLOAD DUP1 SWAP2 SUB SWAP1 RETURN JUMPDEST PUSH2 0x130 PUSH2 0x306 JUMP JUMPDEST PUSH1 0x40 MLOAD PUSH2 0x13D SWAP2 SWAP1 PUSH2 0x120E JUMP JUMPDEST PUSH1 0x40 MLOAD DUP1 SWAP2 SUB SWAP1 RETURN JUMPDEST PUSH2 0x160 PUSH1 0x4 DUP1 CALLDATASIZE SUB DUP2 ADD SWAP1 PUSH2 0x15B SWAP2 SWAP1 PUSH2 0x127F JUMP JUMPDEST PUSH2 0x3A5 JUMP JUMPDEST STOP JUMPDEST PUSH2 0x17C PUSH1 0x4 DUP1 CALLDATASIZE SUB DUP2 ADD SWAP1 PUSH2 0x177 SWAP2 SWAP1 PUSH2 0x12CF JUMP JUMPDEST PUSH2 0x688 JUMP JUMPDEST STOP JUMPDEST PUSH2 0x198 PUSH1 0x4 DUP1 CALLDATASIZE SUB DUP2 ADD SWAP1 PUSH2 0x193 SWAP2 SWAP1 PUSH2 0x12CF JUMP JUMPDEST PUSH2 0x720 JUMP JUMPDEST STOP JUMPDEST PUSH2 0x1B4 PUSH1 0x4 DUP1 CALLDATASIZE SUB DUP2 ADD SWAP1 PUSH2 0x1AF SWAP2 SWAP1 PUSH2 0x12FA JUMP JUMPDEST PUSH2 0x7FC JUMP JUMPDEST PUSH1 0x40 MLOAD PUSH2 0x1C1 SWAP2 SWAP1 PUSH2 0x120E JUMP JUMPDEST PUSH1 0x40 MLOAD DUP1 SWAP2 SUB SWAP1 RETURN JUMPDEST PUSH2 0x1D2 PUSH2 0x89D JUMP JUMPDEST PUSH1 0x40 MLOAD PUSH2 0x1DF SWAP2 SWAP1 PUSH2 0x11DD JUMP JUMPDEST PUSH1 0x40 MLOAD DUP1 SWAP2 SUB SWAP1 RETURN JUMPDEST PUSH2 0x202 PUSH1 0x4 DUP1 CALLDATASIZE SUB DUP2 ADD SWAP1 PUSH2 0x1FD SWAP2 SWAP1 PUSH2 0x12CF JUMP JUMPDEST PUSH2 0x8C1 JUMP JUMPDEST STOP JUMPDEST PUSH2 0x21E PUSH1 0x4 DUP1 CALLDATASIZE SUB DUP2 ADD SWAP1 PUSH2 0x219 SWAP2 SWAP1 PUSH2 0x12FA JUMP JUMPDEST PUSH2 0xE96 JUMP JUMPDEST PUSH1 0x40 MLOAD PUSH2 0x22B SWAP2 SWAP1 PUSH2 0x120E JUMP JUMPDEST PUSH1 0x40 MLOAD DUP1 SWAP2 SUB SWAP1 RETURN JUMPDEST PUSH2 0x24E PUSH1 0x4 DUP1 CALLDATASIZE SUB DUP2 ADD SWAP1 PUSH2 0x249 SWAP2 SWAP1 PUSH2 0x12FA JUMP JUMPDEST PUSH2 0xF39 JUMP JUMPDEST PUSH1 0x40 MLOAD PUSH2 0x25B SWAP2 SWAP1 PUSH2 0x120E JUMP JUMPDEST PUSH1 0x40 MLOAD DUP1 SWAP2 SUB SWAP1 RETURN JUMPDEST PUSH2 0x26C PUSH2 0xFDA JUMP JUMPDEST PUSH1 0x40 MLOAD PUSH2 0x279 SWAP2 SWAP1 PUSH2 0x120E JUMP JUMPDEST PUSH1 0x40 MLOAD DUP1 SWAP2 SUB SWAP1 RETURN JUMPDEST PUSH2 0x28A PUSH2 0xFE0 JUMP JUMPDEST PUSH1 0x40 MLOAD PUSH2 0x297 SWAP2 SWAP1 PUSH2 0x120E JUMP JUMPDEST PUSH1 0x40 MLOAD DUP1 SWAP2 SUB SWAP1 RETURN JUMPDEST PUSH2 0x2BA PUSH1 0x4 DUP1 CALLDATASIZE SUB DUP2 ADD SWAP1 PUSH2 0x2B5 SWAP2 SWAP1 PUSH2 0x12FA JUMP JUMPDEST PUSH2 0xFE6 JUMP JUMPDEST STOP JUMPDEST PUSH1 0x2 PUSH0 SWAP1 SLOAD SWAP1 PUSH2 0x100 EXP SWAP1 DIV PUSH20 0xFFFFFFFFFFFFFFFFFFFFFFFFFFFFFFFFFFFFFFFF AND DUP2 JUMP JUMPDEST PUSH1 0x1 PUSH0 SWAP1 SLOAD SWAP1 PUSH2 0x100 EXP SWAP1 DIV PUSH20 0xFFFFFFFFFFFFFFFFFFFFFFFFFFFFFFFFFFFFFFFF AND DUP2 JUMP JUMPDEST PUSH0 PUSH1 0x2 PUSH0 SWAP1 SLOAD SWAP1 PUSH2 0x100 EXP SWAP1 DIV PUSH20 0xFFFFFFFFFFFFFFFFFFFFFFFFFFFFFFFFFFFFFFFF AND PUSH20 0xFFFFFFFFFFFFFFFFFFFFFFFFFFFFFFFFFFFFFFFF AND PUSH4 0x70A08231 ADDRESS PUSH1 0x40 MLOAD DUP3 PUSH4 0xFFFFFFFF AND PUSH1 0xE0 SHL DUP2 MSTORE PUSH1 0x4 ADD PUSH2 0x361 SWAP2 SWAP1 PUSH2 0x11DD JUMP JUMPDEST PUSH1 0x20 PUSH1 0x40 MLOAD DUP1 DUP4 SUB DUP2 DUP7 GAS STATICCALL ISZERO DUP1 ISZERO PUSH2 0x37C JUMPI RETURNDATASIZE PUSH0 PUSH0 RETURNDATACOPY RETURNDATASIZE PUSH0 REVERT JUMPDEST POP POP POP POP PUSH1 0x40 MLOAD RETURNDATASIZE PUSH1 0x1F NOT PUSH1 0x1F DUP3 ADD AND DUP3 ADD DUP1 PUSH1 0x40 MSTORE POP DUP2 ADD SWAP1 PUSH2 0x3A0 SWAP2 SWAP1 PUSH2 0x1339 JUMP JUMPDEST SWAP1 POP SWAP1 JUMP JUMPDEST PUSH0 PUSH0 SWAP1 SLOAD SWAP1 PUSH2 0x100 EXP SWAP1 DIV PUSH20 0xFFFFFFFFFFFFFFFFFFFFFFFFFFFFFFFFFFFFFFFF AND PUSH20 0xFFFFFFFFFFFFFFFFFFFFFFFFFFFFFFFFFFFFFFFF AND CALLER PUSH20 0xFFFFFFFFFFFFFFFFFFFFFFFFFFFFFFFFFFFFFFFF AND EQ PUSH2 0x433 JUMPI PUSH1 0x40 MLOAD PUSH32 0x8C379A000000000000000000000000000000000000000000000000000000000 DUP2 MSTORE PUSH1 0x4 ADD PUSH2 0x42A SWAP1 PUSH2 0x13BE JUMP JUMPDEST PUSH1 0x40 MLOAD DUP1 SWAP2 SUB SWAP1 REVERT JUMPDEST PUSH0 PUSH20 0xFFFFFFFFFFFFFFFFFFFFFFFFFFFFFFFFFFFFFFFF AND DUP2 PUSH20 0xFFFFFFFFFFFFFFFFFFFFFFFFFFFFFFFFFFFFFFFF AND SUB PUSH2 0x4A1 JUMPI PUSH1 0x40 MLOAD PUSH32 0x8C379A000000000000000000000000000000000000000000000000000000000 DUP2 MSTORE PUSH1 0x4 ADD PUSH2 0x498 SWAP1 PUSH2 0x1426 JUMP JUMPDEST PUSH1 0x40 MLOAD DUP1 SWAP2 SUB SWAP1 REVERT JUMPDEST PUSH0 DUP3 GT PUSH2 0x4E3 JUMPI PUSH1 0x40 MLOAD PUSH32 0x8C379A000000000000000000000000000000000000000000000000000000000 DUP2 MSTORE PUSH1 0x4 ADD PUSH2 0x4DA SWAP1 PUSH2 0x148E JUMP JUMPDEST PUSH1 0x40 MLOAD DUP1 SWAP2 SUB SWAP1 REVERT JUMPDEST PUSH0 DUP4 PUSH20 0xFFFFFFFFFFFFFFFFFFFFFFFFFFFFFFFFFFFFFFFF AND PUSH4 0x70A08231 ADDRESS PUSH1 0x40 MLOAD DUP3 PUSH4 0xFFFFFFFF AND PUSH1 0xE0 SHL DUP2 MSTORE PUSH1 0x4 ADD PUSH2 0x51D SWAP2 SWAP1 PUSH2 0x11DD JUMP JUMPDEST PUSH1 0x20 PUSH1 0x40 MLOAD DUP1 DUP4 SUB DUP2 DUP7 GAS STATICCALL ISZERO DUP1 ISZERO PUSH2 0x538 JUMPI RETURNDATASIZE PUSH0 PUSH0 RETURNDATACOPY RETURNDATASIZE PUSH0 REVERT JUMPDEST POP POP POP POP PUSH1 0x40 MLOAD RETURNDATASIZE PUSH1 0x1F NOT PUSH1 0x1F DUP3 ADD AND DUP3 ADD DUP1 PUSH1 0x40 MSTORE POP DUP2 ADD SWAP1 PUSH2 0x55C SWAP2 SWAP1 PUSH2 0x1339 JUMP JUMPDEST SWAP1 POP DUP3 DUP2 LT ISZERO PUSH2 0x5A1 JUMPI PUSH1 0x40 MLOAD PUSH32 0x8C379A000000000000000000000000000000000000000000000000000000000 DUP2 MSTORE PUSH1 0x4 ADD PUSH2 0x598 SWAP1 PUSH2 0x14F6 JUMP JUMPDEST PUSH1 0x40 MLOAD DUP1 SWAP2 SUB SWAP1 REVERT JUMPDEST DUP4 PUSH20 0xFFFFFFFFFFFFFFFFFFFFFFFFFFFFFFFFFFFFFFFF AND PUSH4 0xA9059CBB DUP4 DUP6 PUSH1 0x40 MLOAD DUP4 PUSH4 0xFFFFFFFF AND PUSH1 0xE0 SHL DUP2 MSTORE PUSH1 0x4 ADD PUSH2 0x5DC SWAP3 SWAP2 SWAP1 PUSH2 0x1514 JUMP JUMPDEST PUSH1 0x20 PUSH1 0x40 MLOAD DUP1 DUP4 SUB DUP2 PUSH0 DUP8 GAS CALL ISZERO DUP1 ISZERO PUSH2 0x5F8 JUMPI RETURNDATASIZE PUSH0 PUSH0 RETURNDATACOPY RETURNDATASIZE PUSH0 REVERT JUMPDEST POP POP POP POP PUSH1 0x40 MLOAD RETURNDATASIZE PUSH1 0x1F NOT PUSH1 0x1F DUP3 ADD AND DUP3 ADD DUP1 PUSH1 0x40 MSTORE POP DUP2 ADD SWAP1 PUSH2 0x61C SWAP2 SWAP1 PUSH2 0x1570 JUMP JUMPDEST POP DUP2 PUSH20 0xFFFFFFFFFFFFFFFFFFFFFFFFFFFFFFFFFFFFFFFF AND DUP5 PUSH20 0xFFFFFFFFFFFFFFFFFFFFFFFFFFFFFFFFFFFFFFFF AND PUSH32 0xD1C19FBCD4551A5EDFB66D43D2E337C04837AFDA3482B42BDF569A8FCCDAE5FB DUP6 PUSH1 0x40 MLOAD PUSH2 0x67A SWAP2 SWAP1 PUSH2 0x120E JUMP JUMPDEST PUSH1 0x40 MLOAD DUP1 SWAP2 SUB SWAP1 LOG3 POP POP POP POP JUMP JUMPDEST PUSH0 PUSH0 SWAP1 SLOAD SWAP1 PUSH2 0x100 EXP SWAP1 DIV PUSH20 0xFFFFFFFFFFFFFFFFFFFFFFFFFFFFFFFFFFFFFFFF AND PUSH20 0xFFFFFFFFFFFFFFFFFFFFFFFFFFFFFFFFFFFFFFFF AND CALLER PUSH20 0xFFFFFFFFFFFFFFFFFFFFFFFFFFFFFFFFFFFFFFFF AND EQ PUSH2 0x716 JUMPI PUSH1 0x40 MLOAD PUSH32 0x8C379A000000000000000000000000000000000000000000000000000000000 DUP2 MSTORE PUSH1 0x4 ADD PUSH2 0x70D SWAP1 PUSH2 0x13BE JUMP JUMPDEST PUSH1 0x40 MLOAD DUP1 SWAP2 SUB SWAP1 REVERT JUMPDEST DUP1 PUSH1 0x4 DUP2 SWAP1 SSTORE POP POP JUMP JUMPDEST PUSH0 PUSH0 SWAP1 SLOAD SWAP1 PUSH2 0x100 EXP SWAP1 DIV PUSH20 0xFFFFFFFFFFFFFFFFFFFFFFFFFFFFFFFFFFFFFFFF AND PUSH20 0xFFFFFFFFFFFFFFFFFFFFFFFFFFFFFFFFFFFFFFFF AND CALLER PUSH20 0xFFFFFFFFFFFFFFFFFFFFFFFFFFFFFFFFFFFFFFFF AND EQ PUSH2 0x7AE JUMPI PUSH1 0x40 MLOAD PUSH32 0x8C379A000000000000000000000000000000000000000000000000000000000 DUP2 MSTORE PUSH1 0x4 ADD PUSH2 0x7A5 SWAP1 PUSH2 0x13BE JUMP JUMPDEST PUSH1 0x40 MLOAD DUP1 SWAP2 SUB SWAP1 REVERT JUMPDEST PUSH1 0x64 DUP2 GT ISZERO PUSH2 0x7F2 JUMPI PUSH1 0x40 MLOAD PUSH32 0x8C379A000000000000000000000000000000000000000000000000000000000 DUP2 MSTORE PUSH1 0x4 ADD PUSH2 0x7E9 SWAP1 PUSH2 0x15E5 JUMP JUMPDEST PUSH1 0x40 MLOAD DUP1 SWAP2 SUB SWAP1 REVERT JUMPDEST DUP1 PUSH1 0x3 DUP2 SWAP1 SSTORE POP POP JUMP JUMPDEST PUSH0 PUSH1 0x2 PUSH0 SWAP1 SLOAD SWAP1 PUSH2 0x100 EXP SWAP1 DIV PUSH20 0xFFFFFFFFFFFFFFFFFFFFFFFFFFFFFFFFFFFFFFFF AND PUSH20 0xFFFFFFFFFFFFFFFFFFFFFFFFFFFFFFFFFFFFFFFF AND PUSH4 0x70A08231 DUP4 PUSH1 0x40 MLOAD DUP3 PUSH4 0xFFFFFFFF AND PUSH1 0xE0 SHL DUP2 MSTORE PUSH1 0x4 ADD PUSH2 0x857 SWAP2 SWAP1 PUSH2 0x11DD JUMP JUMPDEST PUSH1 0x20 PUSH1 0x40 MLOAD DUP1 DUP4 SUB DUP2 DUP7 GAS STATICCALL ISZERO DUP1 ISZERO PUSH2 0x872 JUMPI RETURNDATASIZE PUSH0 PUSH0 RETURNDATACOPY RETURNDATASIZE PUSH0 REVERT JUMPDEST POP POP POP POP PUSH1 0x40 MLOAD RETURNDATASIZE PUSH1 0x1F NOT PUSH1 0x1F DUP3 ADD AND DUP3 ADD DUP1 PUSH1 0x40 MSTORE POP DUP2 ADD SWAP1 PUSH2 0x896 SWAP2 SWAP1 PUSH2 0x1339 JUMP JUMPDEST SWAP1 POP SWAP2 SWAP1 POP JUMP JUMPDEST PUSH0 PUSH0 SWAP1 SLOAD SWAP1 PUSH2 0x100 EXP SWAP1 DIV PUSH20 0xFFFFFFFFFFFFFFFFFFFFFFFFFFFFFFFFFFFFFFFF AND DUP2 JUMP JUMPDEST PUSH0 DUP2 GT PUSH2 0x903 JUMPI PUSH1 0x40 MLOAD PUSH32 0x8C379A000000000000000000000000000000000000000000000000000000000 DUP2 MSTORE PUSH1 0x4 ADD PUSH2 0x8FA SWAP1 PUSH2 0x164D JUMP JUMPDEST PUSH1 0x40 MLOAD DUP1 SWAP2 SUB SWAP1 REVERT JUMPDEST PUSH0 PUSH1 0x1 PUSH0 SWAP1 SLOAD SWAP1 PUSH2 0x100 EXP SWAP1 DIV PUSH20 0xFFFFFFFFFFFFFFFFFFFFFFFFFFFFFFFFFFFFFFFF AND PUSH20 0xFFFFFFFFFFFFFFFFFFFFFFFFFFFFFFFFFFFFFFFF AND PUSH4 0xDD62ED3E CALLER ADDRESS PUSH1 0x40 MLOAD DUP4 PUSH4 0xFFFFFFFF AND PUSH1 0xE0 SHL DUP2 MSTORE PUSH1 0x4 ADD PUSH2 0x960 SWAP3 SWAP2 SWAP1 PUSH2 0x166B JUMP JUMPDEST PUSH1 0x20 PUSH1 0x40 MLOAD DUP1 DUP4 SUB DUP2 DUP7 GAS STATICCALL ISZERO DUP1 ISZERO PUSH2 0x97B JUMPI RETURNDATASIZE PUSH0 PUSH0 RETURNDATACOPY RETURNDATASIZE PUSH0 REVERT JUMPDEST POP POP POP POP PUSH1 0x40 MLOAD RETURNDATASIZE PUSH1 0x1F NOT PUSH1 0x1F DUP3 ADD AND DUP3 ADD DUP1 PUSH1 0x40 MSTORE POP DUP2 ADD SWAP1 PUSH2 0x99F SWAP2 SWAP1 PUSH2 0x1339 JUMP JUMPDEST SWAP1 POP DUP2 DUP2 LT ISZERO PUSH2 0x9E4 JUMPI PUSH1 0x40 MLOAD PUSH32 0x8C379A000000000000000000000000000000000000000000000000000000000 DUP2 MSTORE PUSH1 0x4 ADD PUSH2 0x9DB SWAP1 PUSH2 0x16DC JUMP JUMPDEST PUSH1 0x40 MLOAD DUP1 SWAP2 SUB SWAP1 REVERT JUMPDEST PUSH1 0x1 PUSH0 SWAP1 SLOAD SWAP1 PUSH2 0x100 EXP SWAP1 DIV PUSH20 0xFFFFFFFFFFFFFFFFFFFFFFFFFFFFFFFFFFFFFFFF AND PUSH20 0xFFFFFFFFFFFFFFFFFFFFFFFFFFFFFFFFFFFFFFFF AND PUSH4 0x23B872DD CALLER ADDRESS DUP6 PUSH1 0x40 MLOAD DUP5 PUSH4 0xFFFFFFFF AND PUSH1 0xE0 SHL DUP2 MSTORE PUSH1 0x4 ADD PUSH2 0xA42 SWAP4 SWAP3 SWAP2 SWAP1 PUSH2 0x16FA JUMP JUMPDEST PUSH1 0x20 PUSH1 0x40 MLOAD DUP1 DUP4 SUB DUP2 PUSH0 DUP8 GAS CALL ISZERO DUP1 ISZERO PUSH2 0xA5E JUMPI RETURNDATASIZE PUSH0 PUSH0 RETURNDATACOPY RETURNDATASIZE PUSH0 REVERT JUMPDEST POP POP POP POP PUSH1 0x40 MLOAD RETURNDATASIZE PUSH1 0x1F NOT PUSH1 0x1F DUP3 ADD AND DUP3 ADD DUP1 PUSH1 0x40 MSTORE POP DUP2 ADD SWAP1 PUSH2 0xA82 SWAP2 SWAP1 PUSH2 0x1570 JUMP JUMPDEST POP PUSH0 PUSH1 0x64 PUSH1 0x3 SLOAD PUSH1 0x64 PUSH2 0xA95 SWAP2 SWAP1 PUSH2 0x175C JUMP JUMPDEST PUSH1 0x4 SLOAD PUSH2 0xAA2 SWAP2 SWAP1 PUSH2 0x178F JUMP JUMPDEST PUSH2 0xAAC SWAP2 SWAP1 PUSH2 0x17FD JUMP JUMPDEST SWAP1 POP PUSH0 DUP2 PUSH8 0xDE0B6B3A7640000 DUP6 PUSH2 0xAC4 SWAP2 SWAP1 PUSH2 0x178F JUMP JUMPDEST PUSH2 0xACE SWAP2 SWAP1 PUSH2 0x17FD JUMP JUMPDEST SWAP1 POP PUSH0 PUSH1 0x2 PUSH0 SWAP1 SLOAD SWAP1 PUSH2 0x100 EXP SWAP1 DIV PUSH20 0xFFFFFFFFFFFFFFFFFFFFFFFFFFFFFFFFFFFFFFFF AND PUSH20 0xFFFFFFFFFFFFFFFFFFFFFFFFFFFFFFFFFFFFFFFF AND PUSH4 0x70A08231 ADDRESS PUSH1 0x40 MLOAD DUP3 PUSH4 0xFFFFFFFF AND PUSH1 0xE0 SHL DUP2 MSTORE PUSH1 0x4 ADD PUSH2 0xB2B SWAP2 SWAP1 PUSH2 0x11DD JUMP JUMPDEST PUSH1 0x20 PUSH1 0x40 MLOAD DUP1 DUP4 SUB DUP2 DUP7 GAS STATICCALL ISZERO DUP1 ISZERO PUSH2 0xB46 JUMPI RETURNDATASIZE PUSH0 PUSH0 RETURNDATACOPY RETURNDATASIZE PUSH0 REVERT JUMPDEST POP POP POP POP PUSH1 0x40 MLOAD RETURNDATASIZE PUSH1 0x1F NOT PUSH1 0x1F DUP3 ADD AND DUP3 ADD DUP1 PUSH1 0x40 MSTORE POP DUP2 ADD SWAP1 PUSH2 0xB6A SWAP2 SWAP1 PUSH2 0x1339 JUMP JUMPDEST SWAP1 POP DUP2 DUP2 LT ISZERO PUSH2 0xDA2 JUMPI PUSH0 DUP2 DUP4 PUSH2 0xB81 SWAP2 SWAP1 PUSH2 0x175C JUMP JUMPDEST SWAP1 POP PUSH0 PUSH1 0x2 PUSH0 SWAP1 SLOAD SWAP1 PUSH2 0x100 EXP SWAP1 DIV PUSH20 0xFFFFFFFFFFFFFFFFFFFFFFFFFFFFFFFFFFFFFFFF AND PUSH20 0xFFFFFFFFFFFFFFFFFFFFFFFFFFFFFFFFFFFFFFFF AND PUSH4 0x18160DDD PUSH1 0x40 MLOAD DUP2 PUSH4 0xFFFFFFFF AND PUSH1 0xE0 SHL DUP2 MSTORE PUSH1 0x4 ADD PUSH1 0x20 PUSH1 0x40 MLOAD DUP1 DUP4 SUB DUP2 DUP7 GAS STATICCALL ISZERO DUP1 ISZERO PUSH2 0xBEE JUMPI RETURNDATASIZE PUSH0 PUSH0 RETURNDATACOPY RETURNDATASIZE PUSH0 REVERT JUMPDEST POP POP POP POP PUSH1 0x40 MLOAD RETURNDATASIZE PUSH1 0x1F NOT PUSH1 0x1F DUP3 ADD AND DUP3 ADD DUP1 PUSH1 0x40 MSTORE POP DUP2 ADD SWAP1 PUSH2 0xC12 SWAP2 SWAP1 PUSH2 0x1339 JUMP JUMPDEST SWAP1 POP PUSH0 DUP2 SUB PUSH2 0xCDE JUMPI PUSH1 0x2 PUSH0 SWAP1 SLOAD SWAP1 PUSH2 0x100 EXP SWAP1 DIV PUSH20 0xFFFFFFFFFFFFFFFFFFFFFFFFFFFFFFFFFFFFFFFF AND PUSH20 0xFFFFFFFFFFFFFFFFFFFFFFFFFFFFFFFFFFFFFFFF AND PUSH4 0xD9E63BB1 DUP4 PUSH1 0x40 MLOAD DUP3 PUSH4 0xFFFFFFFF AND PUSH1 0xE0 SHL DUP2 MSTORE PUSH1 0x4 ADD PUSH2 0xC75 SWAP2 SWAP1 PUSH2 0x120E JUMP JUMPDEST PUSH0 PUSH1 0x40 MLOAD DUP1 DUP4 SUB DUP2 PUSH0 DUP8 DUP1 EXTCODESIZE ISZERO DUP1 ISZERO PUSH2 0xC8C JUMPI PUSH0 PUSH0 REVERT JUMPDEST POP GAS CALL ISZERO DUP1 ISZERO PUSH2 0xC9E JUMPI RETURNDATASIZE PUSH0 PUSH0 RETURNDATACOPY RETURNDATASIZE PUSH0 REVERT JUMPDEST POP POP POP POP PUSH32 0x3C5AD147104E56BE34A9176A6692F7DF8D2F4B29A5AF06BC6B98970D329D6577 DUP3 PUSH1 0x40 MLOAD PUSH2 0xCD1 SWAP2 SWAP1 PUSH2 0x1877 JUMP JUMPDEST PUSH1 0x40 MLOAD DUP1 SWAP2 SUB SWAP1 LOG1 PUSH2 0xD9F JUMP JUMPDEST PUSH1 0x2 PUSH0 SWAP1 SLOAD SWAP1 PUSH2 0x100 EXP SWAP1 DIV PUSH20 0xFFFFFFFFFFFFFFFFFFFFFFFFFFFFFFFFFFFFFFFF AND PUSH20 0xFFFFFFFFFFFFFFFFFFFFFFFFFFFFFFFFFFFFFFFF AND PUSH4 0x40C10F19 ADDRESS DUP5 PUSH1 0x40 MLOAD DUP4 PUSH4 0xFFFFFFFF AND PUSH1 0xE0 SHL DUP2 MSTORE PUSH1 0x4 ADD PUSH2 0xD3A SWAP3 SWAP2 SWAP1 PUSH2 0x1514 JUMP JUMPDEST PUSH0 PUSH1 0x40 MLOAD DUP1 DUP4 SUB DUP2 PUSH0 DUP8 DUP1 EXTCODESIZE ISZERO DUP1 ISZERO PUSH2 0xD51 JUMPI PUSH0 PUSH0 REVERT JUMPDEST POP GAS CALL ISZERO DUP1 ISZERO PUSH2 0xD63 JUMPI RETURNDATASIZE PUSH0 PUSH0 RETURNDATACOPY RETURNDATASIZE PUSH0 REVERT JUMPDEST POP POP POP POP PUSH32 0x3C5AD147104E56BE34A9176A6692F7DF8D2F4B29A5AF06BC6B98970D329D6577 DUP3 PUSH1 0x40 MLOAD PUSH2 0xD96 SWAP2 SWAP1 PUSH2 0x18ED JUMP JUMPDEST PUSH1 0x40 MLOAD DUP1 SWAP2 SUB SWAP1 LOG1 JUMPDEST POP POP JUMPDEST PUSH1 0x2 PUSH0 SWAP1 SLOAD SWAP1 PUSH2 0x100 EXP SWAP1 DIV PUSH20 0xFFFFFFFFFFFFFFFFFFFFFFFFFFFFFFFFFFFFFFFF AND PUSH20 0xFFFFFFFFFFFFFFFFFFFFFFFFFFFFFFFFFFFFFFFF AND PUSH4 0xA9059CBB CALLER DUP5 PUSH1 0x40 MLOAD DUP4 PUSH4 0xFFFFFFFF AND PUSH1 0xE0 SHL DUP2 MSTORE PUSH1 0x4 ADD PUSH2 0xDFE SWAP3 SWAP2 SWAP1 PUSH2 0x1514 JUMP JUMPDEST PUSH1 0x20 PUSH1 0x40 MLOAD DUP1 DUP4 SUB DUP2 PUSH0 DUP8 GAS CALL ISZERO DUP1 ISZERO PUSH2 0xE1A JUMPI RETURNDATASIZE PUSH0 PUSH0 RETURNDATACOPY RETURNDATASIZE PUSH0 REVERT JUMPDEST POP POP POP POP PUSH1 0x40 MLOAD RETURNDATASIZE PUSH1 0x1F NOT PUSH1 0x1F DUP3 ADD AND DUP3 ADD DUP1 PUSH1 0x40 MSTORE POP DUP2 ADD SWAP1 PUSH2 0xE3E SWAP2 SWAP1 PUSH2 0x1570 JUMP JUMPDEST POP CALLER PUSH20 0xFFFFFFFFFFFFFFFFFFFFFFFFFFFFFFFFFFFFFFFF AND PUSH32 0xDB13E87B3F9C3B8F5F3ACAD928DF55C52BA6BF7795AF4EC069DE5E23CAACB37 DUP7 DUP5 PUSH1 0x40 MLOAD PUSH2 0xE87 SWAP3 SWAP2 SWAP1 PUSH2 0x1919 JUMP JUMPDEST PUSH1 0x40 MLOAD DUP1 SWAP2 SUB SWAP1 LOG2 POP POP POP POP POP JUMP JUMPDEST PUSH0 PUSH1 0x1 PUSH0 SWAP1 SLOAD SWAP1 PUSH2 0x100 EXP SWAP1 DIV PUSH20 0xFFFFFFFFFFFFFFFFFFFFFFFFFFFFFFFFFFFFFFFF AND PUSH20 0xFFFFFFFFFFFFFFFFFFFFFFFFFFFFFFFFFFFFFFFF AND PUSH4 0xDD62ED3E DUP4 ADDRESS PUSH1 0x40 MLOAD DUP4 PUSH4 0xFFFFFFFF AND PUSH1 0xE0 SHL DUP2 MSTORE PUSH1 0x4 ADD PUSH2 0xEF3 SWAP3 SWAP2 SWAP1 PUSH2 0x166B JUMP JUMPDEST PUSH1 0x20 PUSH1 0x40 MLOAD DUP1 DUP4 SUB DUP2 DUP7 GAS STATICCALL ISZERO DUP1 ISZERO PUSH2 0xF0E JUMPI RETURNDATASIZE PUSH0 PUSH0 RETURNDATACOPY RETURNDATASIZE PUSH0 REVERT JUMPDEST POP POP POP POP PUSH1 0x40 MLOAD RETURNDATASIZE PUSH1 0x1F NOT PUSH1 0x1F DUP3 ADD AND DUP3 ADD DUP1 PUSH1 0x40 MSTORE POP DUP2 ADD SWAP1 PUSH2 0xF32 SWAP2 SWAP1 PUSH2 0x1339 JUMP JUMPDEST SWAP1 POP SWAP2 SWAP1 POP JUMP JUMPDEST PUSH0 PUSH1 0x1 PUSH0 SWAP1 SLOAD SWAP1 PUSH2 0x100 EXP SWAP1 DIV PUSH20 0xFFFFFFFFFFFFFFFFFFFFFFFFFFFFFFFFFFFFFFFF AND PUSH20 0xFFFFFFFFFFFFFFFFFFFFFFFFFFFFFFFFFFFFFFFF AND PUSH4 0x70A08231 DUP4 PUSH1 0x40 MLOAD DUP3 PUSH4 0xFFFFFFFF AND PUSH1 0xE0 SHL DUP2 MSTORE PUSH1 0x4 ADD PUSH2 0xF94 SWAP2 SWAP1 PUSH2 0x11DD JUMP JUMPDEST PUSH1 0x20 PUSH1 0x40 MLOAD DUP1 DUP4 SUB DUP2 DUP7 GAS STATICCALL ISZERO DUP1 ISZERO PUSH2 0xFAF JUMPI RETURNDATASIZE PUSH0 PUSH0 RETURNDATACOPY RETURNDATASIZE PUSH0 REVERT JUMPDEST POP POP POP POP PUSH1 0x40 MLOAD RETURNDATASIZE PUSH1 0x1F NOT PUSH1 0x1F DUP3 ADD AND DUP3 ADD DUP1 PUSH1 0x40 MSTORE POP DUP2 ADD SWAP1 PUSH2 0xFD3 SWAP2 SWAP1 PUSH2 0x1339 JUMP JUMPDEST SWAP1 POP SWAP2 SWAP1 POP JUMP JUMPDEST PUSH1 0x4 SLOAD DUP2 JUMP JUMPDEST PUSH1 0x3 SLOAD DUP2 JUMP JUMPDEST PUSH0 PUSH0 SWAP1 SLOAD SWAP1 PUSH2 0x100 EXP SWAP1 DIV PUSH20 0xFFFFFFFFFFFFFFFFFFFFFFFFFFFFFFFFFFFFFFFF AND PUSH20 0xFFFFFFFFFFFFFFFFFFFFFFFFFFFFFFFFFFFFFFFF AND CALLER PUSH20 0xFFFFFFFFFFFFFFFFFFFFFFFFFFFFFFFFFFFFFFFF AND EQ PUSH2 0x1074 JUMPI PUSH1 0x40 MLOAD PUSH32 0x8C379A000000000000000000000000000000000000000000000000000000000 DUP2 MSTORE PUSH1 0x4 ADD PUSH2 0x106B SWAP1 PUSH2 0x13BE JUMP JUMPDEST PUSH1 0x40 MLOAD DUP1 SWAP2 SUB SWAP1 REVERT JUMPDEST PUSH0 PUSH20 0xFFFFFFFFFFFFFFFFFFFFFFFFFFFFFFFFFFFFFFFF AND DUP2 PUSH20 0xFFFFFFFFFFFFFFFFFFFFFFFFFFFFFFFFFFFFFFFF AND SUB PUSH2 0x10E2 JUMPI PUSH1 0x40 MLOAD PUSH32 0x8C379A000000000000000000000000000000000000000000000000000000000 DUP2 MSTORE PUSH1 0x4 ADD PUSH2 0x10D9 SWAP1 PUSH2 0x198A JUMP JUMPDEST PUSH1 0x40 MLOAD DUP1 SWAP2 SUB SWAP1 REVERT JUMPDEST DUP1 PUSH20 0xFFFFFFFFFFFFFFFFFFFFFFFFFFFFFFFFFFFFFFFF AND PUSH0 PUSH0 SWAP1 SLOAD SWAP1 PUSH2 0x100 EXP SWAP1 DIV PUSH20 0xFFFFFFFFFFFFFFFFFFFFFFFFFFFFFFFFFFFFFFFF AND PUSH20 0xFFFFFFFFFFFFFFFFFFFFFFFFFFFFFFFFFFFFFFFF AND PUSH32 0x8BE0079C531659141344CD1FD0A4F28419497F9722A3DAAFE3B4186F6B6457E0 PUSH1 0x40 MLOAD PUSH1 0x40 MLOAD DUP1 SWAP2 SUB SWAP1 LOG3 DUP1 PUSH0 PUSH0 PUSH2 0x100 EXP DUP2 SLOAD DUP2 PUSH20 0xFFFFFFFFFFFFFFFFFFFFFFFFFFFFFFFFFFFFFFFF MUL NOT AND SWAP1 DUP4 PUSH20 0xFFFFFFFFFFFFFFFFFFFFFFFFFFFFFFFFFFFFFFFF AND MUL OR SWAP1 SSTORE POP POP JUMP JUMPDEST PUSH0 PUSH20 0xFFFFFFFFFFFFFFFFFFFFFFFFFFFFFFFFFFFFFFFF DUP3 AND SWAP1 POP SWAP2 SWAP1 POP JUMP JUMPDEST PUSH0 PUSH2 0x11C7 DUP3 PUSH2 0x119E JUMP JUMPDEST SWAP1 POP SWAP2 SWAP1 POP JUMP JUMPDEST PUSH2 0x11D7 DUP2 PUSH2 0x11BD JUMP JUMPDEST DUP3 MSTORE POP POP JUMP JUMPDEST PUSH0 PUSH1 0x20 DUP3 ADD SWAP1 POP PUSH2 0x11F0 PUSH0 DUP4 ADD DUP5 PUSH2 0x11CE JUMP JUMPDEST SWAP3 SWAP2 POP POP JUMP JUMPDEST PUSH0 DUP2 SWAP1 POP SWAP2 SWAP1 POP JUMP JUMPDEST PUSH2 0x1208 DUP2 PUSH2 0x11F6 JUMP JUMPDEST DUP3 MSTORE POP POP JUMP JUMPDEST PUSH0 PUSH1 0x20 DUP3 ADD SWAP1 POP PUSH2 0x1221 PUSH0 DUP4 ADD DUP5 PUSH2 0x11FF JUMP JUMPDEST SWAP3 SWAP2 POP POP JUMP JUMPDEST PUSH0 PUSH0 REVERT JUMPDEST PUSH2 0x1234 DUP2 PUSH2 0x11BD JUMP JUMPDEST DUP2 EQ PUSH2 0x123E JUMPI PUSH0 PUSH0 REVERT JUMPDEST POP JUMP JUMPDEST PUSH0 DUP2 CALLDATALOAD SWAP1 POP PUSH2 0x124F DUP2 PUSH2 0x122B JUMP JUMPDEST SWAP3 SWAP2 POP POP JUMP JUMPDEST PUSH2 0x125E DUP2 PUSH2 0x11F6 JUMP JUMPDEST DUP2 EQ PUSH2 0x1268 JUMPI PUSH0 PUSH0 REVERT JUMPDEST POP JUMP JUMPDEST PUSH0 DUP2 CALLDATALOAD SWAP1 POP PUSH2 0x1279 DUP2 PUSH2 0x1255 JUMP JUMPDEST SWAP3 SWAP2 POP POP JUMP JUMPDEST PUSH0 PUSH0 PUSH0 PUSH1 0x60 DUP5 DUP7 SUB SLT ISZERO PUSH2 0x1296 JUMPI PUSH2 0x1295 PUSH2 0x1227 JUMP JUMPDEST JUMPDEST PUSH0 PUSH2 0x12A3 DUP7 DUP3 DUP8 ADD PUSH2 0x1241 JUMP JUMPDEST SWAP4 POP POP PUSH1 0x20 PUSH2 0x12B4 DUP7 DUP3 DUP8 ADD PUSH2 0x126B JUMP JUMPDEST SWAP3 POP POP PUSH1 0x40 PUSH2 0x12C5 DUP7 DUP3 DUP8 ADD PUSH2 0x1241 JUMP JUMPDEST SWAP2 POP POP SWAP3 POP SWAP3 POP SWAP3 JUMP JUMPDEST PUSH0 PUSH1 0x20 DUP3 DUP5 SUB SLT ISZERO PUSH2 0x12E4 JUMPI PUSH2 0x12E3 PUSH2 0x1227 JUMP JUMPDEST JUMPDEST PUSH0 PUSH2 0x12F1 DUP5 DUP3 DUP6 ADD PUSH2 0x126B JUMP JUMPDEST SWAP2 POP POP SWAP3 SWAP2 POP POP JUMP JUMPDEST PUSH0 PUSH1 0x20 DUP3 DUP5 SUB SLT ISZERO PUSH2 0x130F JUMPI PUSH2 0x130E PUSH2 0x1227 JUMP JUMPDEST JUMPDEST PUSH0 PUSH2 0x131C DUP5 DUP3 DUP6 ADD PUSH2 0x1241 JUMP JUMPDEST SWAP2 POP POP SWAP3 SWAP2 POP POP JUMP JUMPDEST PUSH0 DUP2 MLOAD SWAP1 POP PUSH2 0x1333 DUP2 PUSH2 0x1255 JUMP JUMPDEST SWAP3 SWAP2 POP POP JUMP JUMPDEST PUSH0 PUSH1 0x20 DUP3 DUP5 SUB SLT ISZERO PUSH2 0x134E JUMPI PUSH2 0x134D PUSH2 0x1227 JUMP JUMPDEST JUMPDEST PUSH0 PUSH2 0x135B DUP5 DUP3 DUP6 ADD PUSH2 0x1325 JUMP JUMPDEST SWAP2 POP POP SWAP3 SWAP2 POP POP JUMP JUMPDEST PUSH0 DUP3 DUP3 MSTORE PUSH1 0x20 DUP3 ADD SWAP1 POP SWAP3 SWAP2 POP POP JUMP JUMPDEST PUSH32 0x4E6F7420617574686F72697A6564000000000000000000000000000000000000 PUSH0 DUP3 ADD MSTORE POP JUMP JUMPDEST PUSH0 PUSH2 0x13A8 PUSH1 0xE DUP4 PUSH2 0x1364 JUMP JUMPDEST SWAP2 POP PUSH2 0x13B3 DUP3 PUSH2 0x1374 JUMP JUMPDEST PUSH1 0x20 DUP3 ADD SWAP1 POP SWAP2 SWAP1 POP JUMP JUMPDEST PUSH0 PUSH1 0x20 DUP3 ADD SWAP1 POP DUP2 DUP2 SUB PUSH0 DUP4 ADD MSTORE PUSH2 0x13D5 DUP2 PUSH2 0x139C JUMP JUMPDEST SWAP1 POP SWAP2 SWAP1 POP JUMP JUMPDEST PUSH32 0x496E76616C696420726563697069656E74206164647265737300000000000000 PUSH0 DUP3 ADD MSTORE POP JUMP JUMPDEST PUSH0 PUSH2 0x1410 PUSH1 0x19 DUP4 PUSH2 0x1364 JUMP JUMPDEST SWAP2 POP PUSH2 0x141B DUP3 PUSH2 0x13DC JUMP JUMPDEST PUSH1 0x20 DUP3 ADD SWAP1 POP SWAP2 SWAP1 POP JUMP JUMPDEST PUSH0 PUSH1 0x20 DUP3 ADD SWAP1 POP DUP2 DUP2 SUB PUSH0 DUP4 ADD MSTORE PUSH2 0x143D DUP2 PUSH2 0x1404 JUMP JUMPDEST SWAP1 POP SWAP2 SWAP1 POP JUMP JUMPDEST PUSH32 0x416D6F756E74206D7573742062652067726561746572207468616E207A65726F PUSH0 DUP3 ADD MSTORE POP JUMP JUMPDEST PUSH0 PUSH2 0x1478 PUSH1 0x20 DUP4 PUSH2 0x1364 JUMP JUMPDEST SWAP2 POP PUSH2 0x1483 DUP3 PUSH2 0x1444 JUMP JUMPDEST PUSH1 0x20 DUP3 ADD SWAP1 POP SWAP2 SWAP1 POP JUMP JUMPDEST PUSH0 PUSH1 0x20 DUP3 ADD SWAP1 POP DUP2 DUP2 SUB PUSH0 DUP4 ADD MSTORE PUSH2 0x14A5 DUP2 PUSH2 0x146C JUMP JUMPDEST SWAP1 POP SWAP2 SWAP1 POP JUMP JUMPDEST PUSH32 0x496E73756666696369656E742062616C616E6365000000000000000000000000 PUSH0 DUP3 ADD MSTORE POP JUMP JUMPDEST PUSH0 PUSH2 0x14E0 PUSH1 0x14 DUP4 PUSH2 0x1364 JUMP JUMPDEST SWAP2 POP PUSH2 0x14EB DUP3 PUSH2 0x14AC JUMP JUMPDEST PUSH1 0x20 DUP3 ADD SWAP1 POP SWAP2 SWAP1 POP JUMP JUMPDEST PUSH0 PUSH1 0x20 DUP3 ADD SWAP1 POP DUP2 DUP2 SUB PUSH0 DUP4 ADD MSTORE PUSH2 0x150D DUP2 PUSH2 0x14D4 JUMP JUMPDEST SWAP1 POP SWAP2 SWAP1 POP JUMP JUMPDEST PUSH0 PUSH1 0x40 DUP3 ADD SWAP1 POP PUSH2 0x1527 PUSH0 DUP4 ADD DUP6 PUSH2 0x11CE JUMP JUMPDEST PUSH2 0x1534 PUSH1 0x20 DUP4 ADD DUP5 PUSH2 0x11FF JUMP JUMPDEST SWAP4 SWAP3 POP POP POP JUMP JUMPDEST PUSH0 DUP2 ISZERO ISZERO SWAP1 POP SWAP2 SWAP1 POP JUMP JUMPDEST PUSH2 0x154F DUP2 PUSH2 0x153B JUMP JUMPDEST DUP2 EQ PUSH2 0x1559 JUMPI PUSH0 PUSH0 REVERT JUMPDEST POP JUMP JUMPDEST PUSH0 DUP2 MLOAD SWAP1 POP PUSH2 0x156A DUP2 PUSH2 0x1546 JUMP JUMPDEST SWAP3 SWAP2 POP POP JUMP JUMPDEST PUSH0 PUSH1 0x20 DUP3 DUP5 SUB SLT ISZERO PUSH2 0x1585 JUMPI PUSH2 0x1584 PUSH2 0x1227 JUMP JUMPDEST JUMPDEST PUSH0 PUSH2 0x1592 DUP5 DUP3 DUP6 ADD PUSH2 0x155C JUMP JUMPDEST SWAP2 POP POP SWAP3 SWAP2 POP POP JUMP JUMPDEST PUSH32 0x496E76616C696420646973636F756E7420726174650000000000000000000000 PUSH0 DUP3 ADD MSTORE POP JUMP JUMPDEST PUSH0 PUSH2 0x15CF PUSH1 0x15 DUP4 PUSH2 0x1364 JUMP JUMPDEST SWAP2 POP PUSH2 0x15DA DUP3 PUSH2 0x159B JUMP JUMPDEST PUSH1 0x20 DUP3 ADD SWAP1 POP SWAP2 SWAP1 POP JUMP JUMPDEST PUSH0 PUSH1 0x20 DUP3 ADD SWAP1 POP DUP2 DUP2 SUB PUSH0 DUP4 ADD MSTORE PUSH2 0x15FC DUP2 PUSH2 0x15C3 JUMP JUMPDEST SWAP1 POP SWAP2 SWAP1 POP JUMP JUMPDEST PUSH32 0x4D757374206465706F7369742057455448000000000000000000000000000000 PUSH0 DUP3 ADD MSTORE POP JUMP JUMPDEST PUSH0 PUSH2 0x1637 PUSH1 0x11 DUP4 PUSH2 0x1364 JUMP JUMPDEST SWAP2 POP PUSH2 0x1642 DUP3 PUSH2 0x1603 JUMP JUMPDEST PUSH1 0x20 DUP3 ADD SWAP1 POP SWAP2 SWAP1 POP JUMP JUMPDEST PUSH0 PUSH1 0x20 DUP3 ADD SWAP1 POP DUP2 DUP2 SUB PUSH0 DUP4 ADD MSTORE PUSH2 0x1664 DUP2 PUSH2 0x162B JUMP JUMPDEST SWAP1 POP SWAP2 SWAP1 POP JUMP JUMPDEST PUSH0 PUSH1 0x40 DUP3 ADD SWAP1 POP PUSH2 0x167E PUSH0 DUP4 ADD DUP6 PUSH2 0x11CE JUMP JUMPDEST PUSH2 0x168B PUSH1 0x20 DUP4 ADD DUP5 PUSH2 0x11CE JUMP JUMPDEST SWAP4 SWAP3 POP POP POP JUMP JUMPDEST PUSH32 0x416C6C6F77616E6365206E6F742073756666696369656E740000000000000000 PUSH0 DUP3 ADD MSTORE POP JUMP JUMPDEST PUSH0 PUSH2 0x16C6 PUSH1 0x18 DUP4 PUSH2 0x1364 JUMP JUMPDEST SWAP2 POP PUSH2 0x16D1 DUP3 PUSH2 0x1692 JUMP JUMPDEST PUSH1 0x20 DUP3 ADD SWAP1 POP SWAP2 SWAP1 POP JUMP JUMPDEST PUSH0 PUSH1 0x20 DUP3 ADD SWAP1 POP DUP2 DUP2 SUB PUSH0 DUP4 ADD MSTORE PUSH2 0x16F3 DUP2 PUSH2 0x16BA JUMP JUMPDEST SWAP1 POP SWAP2 SWAP1 POP JUMP JUMPDEST PUSH0 PUSH1 0x60 DUP3 ADD SWAP1 POP PUSH2 0x170D PUSH0 DUP4 ADD DUP7 PUSH2 0x11CE JUMP JUMPDEST PUSH2 0x171A PUSH1 0x20 DUP4 ADD DUP6 PUSH2 0x11CE JUMP JUMPDEST PUSH2 0x1727 PUSH1 0x40 DUP4 ADD DUP5 PUSH2 0x11FF JUMP JUMPDEST SWAP5 SWAP4 POP POP POP POP JUMP JUMPDEST PUSH32 0x4E487B7100000000000000000000000000000000000000000000000000000000 PUSH0 MSTORE PUSH1 0x11 PUSH1 0x4 MSTORE PUSH1 0x24 PUSH0 REVERT JUMPDEST PUSH0 PUSH2 0x1766 DUP3 PUSH2 0x11F6 JUMP JUMPDEST SWAP2 POP PUSH2 0x1771 DUP4 PUSH2 0x11F6 JUMP JUMPDEST SWAP3 POP DUP3 DUP3 SUB SWAP1 POP DUP2 DUP2 GT ISZERO PUSH2 0x1789 JUMPI PUSH2 0x1788 PUSH2 0x172F JUMP JUMPDEST JUMPDEST SWAP3 SWAP2 POP POP JUMP JUMPDEST PUSH0 PUSH2 0x1799 DUP3 PUSH2 0x11F6 JUMP JUMPDEST SWAP2 POP PUSH2 0x17A4 DUP4 PUSH2 0x11F6 JUMP JUMPDEST SWAP3 POP DUP3 DUP3 MUL PUSH2 0x17B2 DUP2 PUSH2 0x11F6 JUMP JUMPDEST SWAP2 POP DUP3 DUP3 DIV DUP5 EQ DUP4 ISZERO OR PUSH2 0x17C9 JUMPI PUSH2 0x17C8 PUSH2 0x172F JUMP JUMPDEST JUMPDEST POP SWAP3 SWAP2 POP POP JUMP JUMPDEST PUSH32 0x4E487B7100000000000000000000000000000000000000000000000000000000 PUSH0 MSTORE PUSH1 0x12 PUSH1 0x4 MSTORE PUSH1 0x24 PUSH0 REVERT JUMPDEST PUSH0 PUSH2 0x1807 DUP3 PUSH2 0x11F6 JUMP JUMPDEST SWAP2 POP PUSH2 0x1812 DUP4 PUSH2 0x11F6 JUMP JUMPDEST SWAP3 POP DUP3 PUSH2 0x1822 JUMPI PUSH2 0x1821 PUSH2 0x17D0 JUMP JUMPDEST JUMPDEST DUP3 DUP3 DIV SWAP1 POP SWAP3 SWAP2 POP POP JUMP JUMPDEST PUSH32 0x496E697469616C697A656420537570706C790000000000000000000000000000 PUSH0 DUP3 ADD MSTORE POP JUMP JUMPDEST PUSH0 PUSH2 0x1861 PUSH1 0x12 DUP4 PUSH2 0x1364 JUMP JUMPDEST SWAP2 POP PUSH2 0x186C DUP3 PUSH2 0x182D JUMP JUMPDEST PUSH1 0x20 DUP3 ADD SWAP1 POP SWAP2 SWAP1 POP JUMP JUMPDEST PUSH0 PUSH1 0x40 DUP3 ADD SWAP1 POP DUP2 DUP2 SUB PUSH0 DUP4 ADD MSTORE PUSH2 0x188E DUP2 PUSH2 0x1855 JUMP JUMPDEST SWAP1 POP PUSH2 0x189D PUSH1 0x20 DUP4 ADD DUP5 PUSH2 0x11FF JUMP JUMPDEST SWAP3 SWAP2 POP POP JUMP JUMPDEST PUSH32 0x4D696E74656420546F6B656E7300000000000000000000000000000000000000 PUSH0 DUP3 ADD MSTORE POP JUMP JUMPDEST PUSH0 PUSH2 0x18D7 PUSH1 0xD DUP4 PUSH2 0x1364 JUMP JUMPDEST SWAP2 POP PUSH2 0x18E2 DUP3 PUSH2 0x18A3 JUMP JUMPDEST PUSH1 0x20 DUP3 ADD SWAP1 POP SWAP2 SWAP1 POP JUMP JUMPDEST PUSH0 PUSH1 0x40 DUP3 ADD SWAP1 POP DUP2 DUP2 SUB PUSH0 DUP4 ADD MSTORE PUSH2 0x1904 DUP2 PUSH2 0x18CB JUMP JUMPDEST SWAP1 POP PUSH2 0x1913 PUSH1 0x20 DUP4 ADD DUP5 PUSH2 0x11FF JUMP JUMPDEST SWAP3 SWAP2 POP POP JUMP JUMPDEST PUSH0 PUSH1 0x40 DUP3 ADD SWAP1 POP PUSH2 0x192C PUSH0 DUP4 ADD DUP6 PUSH2 0x11FF JUMP JUMPDEST PUSH2 0x1939 PUSH1 0x20 DUP4 ADD DUP5 PUSH2 0x11FF JUMP JUMPDEST SWAP4 SWAP3 POP POP POP JUMP JUMPDEST PUSH32 0x4E6577206F776E65722063616E6E6F74206265207A65726F2061646472657373 PUSH0 DUP3 ADD MSTORE POP JUMP JUMPDEST PUSH0 PUSH2 0x1974 PUSH1 0x20 DUP4 PUSH2 0x1364 JUMP JUMPDEST SWAP2 POP PUSH2 0x197F DUP3 PUSH2 0x1940 JUMP JUMPDEST PUSH1 0x20 DUP3 ADD SWAP1 POP SWAP2 SWAP1 POP JUMP JUMPDEST PUSH0 PUSH1 0x20 DUP3 ADD SWAP1 POP DUP2 DUP2 SUB PUSH0 DUP4 ADD MSTORE PUSH2 0x19A1 DUP2 PUSH2 0x1968 JUMP JUMPDEST SWAP1 POP SWAP2 SWAP1 POP JUMP INVALID LOG2 PUSH5 0x6970667358 0x22 SLT KECCAK256 GAS BALANCE RETURNDATACOPY INVALID 0xD7 PUSH6 0x6C8AD01DF914 CALLER 0x2B 0xC8 OR JUMPDEST TSTORE SHR 0x1F PUSH32 0xFB0DD690E357AA07FEEB2364736F6C634300081C003300000000000000000000 "
				},
				"gasEstimates": {
					"creation": {
						"codeDepositCost": "1324400",
						"executionCost": "infinite",
						"totalCost": "infinite"
					},
					"external": {
						"bond(uint256)": "infinite",
						"checkContractMLAMPLBalance()": "infinite",
						"checkMLAMPLBalance(address)": "infinite",
						"checkWETHAllowance(address)": "infinite",
						"checkWETHBalance(address)": "infinite",
						"discountRate()": "2491",
						"mlAMPL()": "2532",
						"owner()": "2530",
						"setDiscountRate(uint256)": "24776",
						"setTargetPrice(uint256)": "24728",
						"targetPrice()": "2469",
						"transferOwnership(address)": "30683",
						"weth()": "2554",
						"withdraw(address,uint256,address)": "infinite"
					}
				},
				"methodIdentifiers": {
					"bond(uint256)": "9940686e",
					"checkContractMLAMPLBalance()": "5e3124ed",
					"checkMLAMPLBalance(address)": "861b67ab",
					"checkWETHAllowance(address)": "b357964b",
					"checkWETHBalance(address)": "bbf6119a",
					"discountRate()": "e6c0e6d5",
					"mlAMPL()": "3a6eb3df",
					"owner()": "8da5cb5b",
					"setDiscountRate(uint256)": "7c69febd",
					"setTargetPrice(uint256)": "6a64eff8",
					"targetPrice()": "dc38679c",
					"transferOwnership(address)": "f2fde38b",
					"weth()": "3fc8cef3",
					"withdraw(address,uint256,address)": "69328dec"
				}
			},
			"storageLayout": {
				"storage": [
					{
						"astId": 150,
						"contract": "bonding_contract.sol:Bonding",
						"label": "owner",
						"offset": 0,
						"slot": "0",
						"type": "t_address"
					},
					{
						"astId": 152,
						"contract": "bonding_contract.sol:Bonding",
						"label": "weth",
						"offset": 0,
						"slot": "1",
						"type": "t_address"
					},
					{
						"astId": 154,
						"contract": "bonding_contract.sol:Bonding",
						"label": "mlAMPL",
						"offset": 0,
						"slot": "2",
						"type": "t_address"
					},
					{
						"astId": 157,
						"contract": "bonding_contract.sol:Bonding",
						"label": "discountRate",
						"offset": 0,
						"slot": "3",
						"type": "t_uint256"
					},
					{
						"astId": 160,
						"contract": "bonding_contract.sol:Bonding",
						"label": "targetPrice",
						"offset": 0,
						"slot": "4",
						"type": "t_uint256"
					}
				],
				"types": {
					"t_address": {
						"encoding": "inplace",
						"label": "address",
						"numberOfBytes": "20"
					},
					"t_uint256": {
						"encoding": "inplace",
						"label": "uint256",
						"numberOfBytes": "32"
					}
				}
			},
			"userdoc": {
				"kind": "user",
				"methods": {},
				"version": 1
			}
		}
	}
}