{
	"bonding_contract.sol": {
		"Bonding": {
			"abi": [
				{
					"inputs": [
						{
							"internalType": "address",
							"name": "_weth",
							"type": "address"
						},
						{
							"internalType": "address",
							"name": "_mlAMPL",
							"type": "address"
						},
						{
							"internalType": "address",
							"name": "_uniswapRouter",
							"type": "address"
						}
					],
					"stateMutability": "nonpayable",
					"type": "constructor"
				},
				{
					"anonymous": false,
					"inputs": [
						{
							"indexed": true,
							"internalType": "address",
							"name": "user",
							"type": "address"
						},
						{
							"indexed": false,
							"internalType": "uint256",
							"name": "wethAmount",
							"type": "uint256"
						},
						{
							"indexed": false,
							"internalType": "uint256",
							"name": "mlAMPLAmount",
							"type": "uint256"
						}
					],
					"name": "BondPurchased",
					"type": "event"
				},
				{
					"inputs": [
						{
							"internalType": "uint256",
							"name": "wethAmount",
							"type": "uint256"
						}
					],
					"name": "bond",
					"outputs": [],
					"stateMutability": "nonpayable",
					"type": "function"
				},
				{
					"inputs": [],
					"name": "discountRate",
					"outputs": [
						{
							"internalType": "uint256",
							"name": "",
							"type": "uint256"
						}
					],
					"stateMutability": "view",
					"type": "function"
				},
				{
					"inputs": [],
					"name": "mlAMPL",
					"outputs": [
						{
							"internalType": "address",
							"name": "",
							"type": "address"
						}
					],
					"stateMutability": "view",
					"type": "function"
				},
				{
					"inputs": [],
					"name": "owner",
					"outputs": [
						{
							"internalType": "address",
							"name": "",
							"type": "address"
						}
					],
					"stateMutability": "view",
					"type": "function"
				},
				{
					"inputs": [
						{
							"internalType": "uint256",
							"name": "_discountRate",
							"type": "uint256"
						}
					],
					"name": "setDiscountRate",
					"outputs": [],
					"stateMutability": "nonpayable",
					"type": "function"
				},
				{
					"inputs": [
						{
							"internalType": "uint256",
							"name": "_targetPrice",
							"type": "uint256"
						}
					],
					"name": "setTargetPrice",
					"outputs": [],
					"stateMutability": "nonpayable",
					"type": "function"
				},
				{
					"inputs": [],
					"name": "targetPrice",
					"outputs": [
						{
							"internalType": "uint256",
							"name": "",
							"type": "uint256"
						}
					],
					"stateMutability": "view",
					"type": "function"
				},
				{
					"inputs": [],
					"name": "uniswapRouter",
					"outputs": [
						{
							"internalType": "address",
							"name": "",
							"type": "address"
						}
					],
					"stateMutability": "view",
					"type": "function"
				},
				{
					"inputs": [],
					"name": "weth",
					"outputs": [
						{
							"internalType": "address",
							"name": "",
							"type": "address"
						}
					],
					"stateMutability": "view",
					"type": "function"
				}
			],
			"devdoc": {
				"kind": "dev",
				"methods": {},
				"version": 1
			},
			"evm": {
				"assembly": "    /* \"bonding_contract.sol\":868:3131  contract Bonding {... */\n  mstore(0x40, 0x80)\n    /* \"bonding_contract.sol\":1121:1122  5 */\n  0x05\n    /* \"bonding_contract.sol\":1091:1122  uint256 public discountRate = 5 */\n  0x04\n  sstore\n    /* \"bonding_contract.sol\":1173:1177  1e18 */\n  0x0de0b6b3a7640000\n    /* \"bonding_contract.sol\":1144:1177  uint256 public targetPrice = 1e18 */\n  0x05\n  sstore\n    /* \"bonding_contract.sol\":1329:1525  constructor(address _weth, address _mlAMPL, address _uniswapRouter) {... */\n  callvalue\n  dup1\n  iszero\n  tag_1\n  jumpi\n  0x00\n  dup1\n  revert\ntag_1:\n  pop\n  mload(0x40)\n  sub(codesize, bytecodeSize)\n  dup1\n  bytecodeSize\n  dup4\n  codecopy\n  dup2\n  dup2\n  add\n  0x40\n  mstore\n  dup2\n  add\n  swap1\n  tag_2\n  swap2\n  swap1\n  tag_3\n  jump\t// in\ntag_2:\n    /* \"bonding_contract.sol\":1416:1426  msg.sender */\n  caller\n    /* \"bonding_contract.sol\":1408:1413  owner */\n  0x00\n  dup1\n    /* \"bonding_contract.sol\":1408:1426  owner = msg.sender */\n  0x0100\n  exp\n  dup2\n  sload\n  dup2\n  0xffffffffffffffffffffffffffffffffffffffff\n  mul\n  not\n  and\n  swap1\n  dup4\n  0xffffffffffffffffffffffffffffffffffffffff\n  and\n  mul\n  or\n  swap1\n  sstore\n  pop\n    /* \"bonding_contract.sol\":1444:1449  _weth */\n  dup3\n    /* \"bonding_contract.sol\":1437:1441  weth */\n  0x01\n  0x00\n    /* \"bonding_contract.sol\":1437:1449  weth = _weth */\n  0x0100\n  exp\n  dup2\n  sload\n  dup2\n  0xffffffffffffffffffffffffffffffffffffffff\n  mul\n  not\n  and\n  swap1\n  dup4\n  0xffffffffffffffffffffffffffffffffffffffff\n  and\n  mul\n  or\n  swap1\n  sstore\n  pop\n    /* \"bonding_contract.sol\":1469:1476  _mlAMPL */\n  dup2\n    /* \"bonding_contract.sol\":1460:1466  mlAMPL */\n  0x02\n  0x00\n    /* \"bonding_contract.sol\":1460:1476  mlAMPL = _mlAMPL */\n  0x0100\n  exp\n  dup2\n  sload\n  dup2\n  0xffffffffffffffffffffffffffffffffffffffff\n  mul\n  not\n  and\n  swap1\n  dup4\n  0xffffffffffffffffffffffffffffffffffffffff\n  and\n  mul\n  or\n  swap1\n  sstore\n  pop\n    /* \"bonding_contract.sol\":1503:1517  _uniswapRouter */\n  dup1\n    /* \"bonding_contract.sol\":1487:1500  uniswapRouter */\n  0x03\n  0x00\n    /* \"bonding_contract.sol\":1487:1517  uniswapRouter = _uniswapRouter */\n  0x0100\n  exp\n  dup2\n  sload\n  dup2\n  0xffffffffffffffffffffffffffffffffffffffff\n  mul\n  not\n  and\n  swap1\n  dup4\n  0xffffffffffffffffffffffffffffffffffffffff\n  and\n  mul\n  or\n  swap1\n  sstore\n  pop\n    /* \"bonding_contract.sol\":1329:1525  constructor(address _weth, address _mlAMPL, address _uniswapRouter) {... */\n  pop\n  pop\n  pop\n    /* \"bonding_contract.sol\":868:3131  contract Bonding {... */\n  jump(tag_6)\n    /* \"#utility.yul\":88:205   */\ntag_8:\n    /* \"#utility.yul\":197:198   */\n  0x00\n    /* \"#utility.yul\":194:195   */\n  dup1\n    /* \"#utility.yul\":187:199   */\n  revert\n    /* \"#utility.yul\":334:460   */\ntag_10:\n    /* \"#utility.yul\":371:378   */\n  0x00\n    /* \"#utility.yul\":411:453   */\n  0xffffffffffffffffffffffffffffffffffffffff\n    /* \"#utility.yul\":404:409   */\n  dup3\n    /* \"#utility.yul\":400:454   */\n  and\n    /* \"#utility.yul\":389:454   */\n  swap1\n  pop\n    /* \"#utility.yul\":334:460   */\n  swap2\n  swap1\n  pop\n  jump\t// out\n    /* \"#utility.yul\":466:562   */\ntag_11:\n    /* \"#utility.yul\":503:510   */\n  0x00\n    /* \"#utility.yul\":532:556   */\n  tag_20\n    /* \"#utility.yul\":550:555   */\n  dup3\n    /* \"#utility.yul\":532:556   */\n  tag_10\n  jump\t// in\ntag_20:\n    /* \"#utility.yul\":521:556   */\n  swap1\n  pop\n    /* \"#utility.yul\":466:562   */\n  swap2\n  swap1\n  pop\n  jump\t// out\n    /* \"#utility.yul\":568:690   */\ntag_12:\n    /* \"#utility.yul\":641:665   */\n  tag_22\n    /* \"#utility.yul\":659:664   */\n  dup2\n    /* \"#utility.yul\":641:665   */\n  tag_11\n  jump\t// in\ntag_22:\n    /* \"#utility.yul\":634:639   */\n  dup2\n    /* \"#utility.yul\":631:666   */\n  eq\n    /* \"#utility.yul\":621:684   */\n  tag_23\n  jumpi\n    /* \"#utility.yul\":680:681   */\n  0x00\n    /* \"#utility.yul\":677:678   */\n  dup1\n    /* \"#utility.yul\":670:682   */\n  revert\n    /* \"#utility.yul\":621:684   */\ntag_23:\n    /* \"#utility.yul\":568:690   */\n  pop\n  jump\t// out\n    /* \"#utility.yul\":696:839   */\ntag_13:\n    /* \"#utility.yul\":753:758   */\n  0x00\n    /* \"#utility.yul\":784:790   */\n  dup2\n    /* \"#utility.yul\":778:791   */\n  mload\n    /* \"#utility.yul\":769:791   */\n  swap1\n  pop\n    /* \"#utility.yul\":800:833   */\n  tag_25\n    /* \"#utility.yul\":827:832   */\n  dup2\n    /* \"#utility.yul\":800:833   */\n  tag_12\n  jump\t// in\ntag_25:\n    /* \"#utility.yul\":696:839   */\n  swap3\n  swap2\n  pop\n  pop\n  jump\t// out\n    /* \"#utility.yul\":845:1508   */\ntag_3:\n    /* \"#utility.yul\":933:939   */\n  0x00\n    /* \"#utility.yul\":941:947   */\n  dup1\n    /* \"#utility.yul\":949:955   */\n  0x00\n    /* \"#utility.yul\":998:1000   */\n  0x60\n    /* \"#utility.yul\":986:995   */\n  dup5\n    /* \"#utility.yul\":977:984   */\n  dup7\n    /* \"#utility.yul\":973:996   */\n  sub\n    /* \"#utility.yul\":969:1001   */\n  slt\n    /* \"#utility.yul\":966:1085   */\n  iszero\n  tag_27\n  jumpi\n    /* \"#utility.yul\":1004:1083   */\n  tag_28\n  tag_8\n  jump\t// in\ntag_28:\n    /* \"#utility.yul\":966:1085   */\ntag_27:\n    /* \"#utility.yul\":1124:1125   */\n  0x00\n    /* \"#utility.yul\":1149:1213   */\n  tag_29\n    /* \"#utility.yul\":1205:1212   */\n  dup7\n    /* \"#utility.yul\":1196:1202   */\n  dup3\n    /* \"#utility.yul\":1185:1194   */\n  dup8\n    /* \"#utility.yul\":1181:1203   */\n  add\n    /* \"#utility.yul\":1149:1213   */\n  tag_13\n  jump\t// in\ntag_29:\n    /* \"#utility.yul\":1139:1213   */\n  swap4\n  pop\n    /* \"#utility.yul\":1095:1223   */\n  pop\n    /* \"#utility.yul\":1262:1264   */\n  0x20\n    /* \"#utility.yul\":1288:1352   */\n  tag_30\n    /* \"#utility.yul\":1344:1351   */\n  dup7\n    /* \"#utility.yul\":1335:1341   */\n  dup3\n    /* \"#utility.yul\":1324:1333   */\n  dup8\n    /* \"#utility.yul\":1320:1342   */\n  add\n    /* \"#utility.yul\":1288:1352   */\n  tag_13\n  jump\t// in\ntag_30:\n    /* \"#utility.yul\":1278:1352   */\n  swap3\n  pop\n    /* \"#utility.yul\":1233:1362   */\n  pop\n    /* \"#utility.yul\":1401:1403   */\n  0x40\n    /* \"#utility.yul\":1427:1491   */\n  tag_31\n    /* \"#utility.yul\":1483:1490   */\n  dup7\n    /* \"#utility.yul\":1474:1480   */\n  dup3\n    /* \"#utility.yul\":1463:1472   */\n  dup8\n    /* \"#utility.yul\":1459:1481   */\n  add\n    /* \"#utility.yul\":1427:1491   */\n  tag_13\n  jump\t// in\ntag_31:\n    /* \"#utility.yul\":1417:1491   */\n  swap2\n  pop\n    /* \"#utility.yul\":1372:1501   */\n  pop\n    /* \"#utility.yul\":845:1508   */\n  swap3\n  pop\n  swap3\n  pop\n  swap3\n  jump\t// out\n    /* \"bonding_contract.sol\":868:3131  contract Bonding {... */\ntag_6:\n  dataSize(sub_0)\n  dup1\n  dataOffset(sub_0)\n  0x00\n  codecopy\n  0x00\n  return\nstop\n\nsub_0: assembly {\n        /* \"bonding_contract.sol\":868:3131  contract Bonding {... */\n      mstore(0x40, 0x80)\n      callvalue\n      dup1\n      iszero\n      tag_1\n      jumpi\n      0x00\n      dup1\n      revert\n    tag_1:\n      pop\n      jumpi(tag_2, lt(calldatasize, 0x04))\n      shr(0xe0, calldataload(0x00))\n      dup1\n      0x7c69febd\n      gt\n      tag_12\n      jumpi\n      dup1\n      0x7c69febd\n      eq\n      tag_7\n      jumpi\n      dup1\n      0x8da5cb5b\n      eq\n      tag_8\n      jumpi\n      dup1\n      0x9940686e\n      eq\n      tag_9\n      jumpi\n      dup1\n      0xdc38679c\n      eq\n      tag_10\n      jumpi\n      dup1\n      0xe6c0e6d5\n      eq\n      tag_11\n      jumpi\n      jump(tag_2)\n    tag_12:\n      dup1\n      0x3a6eb3df\n      eq\n      tag_3\n      jumpi\n      dup1\n      0x3fc8cef3\n      eq\n      tag_4\n      jumpi\n      dup1\n      0x6a64eff8\n      eq\n      tag_5\n      jumpi\n      dup1\n      0x735de9f7\n      eq\n      tag_6\n      jumpi\n    tag_2:\n      0x00\n      dup1\n      revert\n        /* \"bonding_contract.sol\":970:991  address public mlAMPL */\n    tag_3:\n      tag_13\n      tag_14\n      jump\t// in\n    tag_13:\n      mload(0x40)\n      tag_15\n      swap2\n      swap1\n      tag_16\n      jump\t// in\n    tag_15:\n      mload(0x40)\n      dup1\n      swap2\n      sub\n      swap1\n      return\n        /* \"bonding_contract.sol\":919:938  address public weth */\n    tag_4:\n      tag_17\n      tag_18\n      jump\t// in\n    tag_17:\n      mload(0x40)\n      tag_19\n      swap2\n      swap1\n      tag_16\n      jump\t// in\n    tag_19:\n      mload(0x40)\n      dup1\n      swap2\n      sub\n      swap1\n      return\n        /* \"bonding_contract.sol\":1826:1936  function setTargetPrice(uint256 _targetPrice) external onlyOwner {... */\n    tag_5:\n      tag_20\n      0x04\n      dup1\n      calldatasize\n      sub\n      dup2\n      add\n      swap1\n      tag_21\n      swap2\n      swap1\n      tag_22\n      jump\t// in\n    tag_21:\n      tag_23\n      jump\t// in\n    tag_20:\n      stop\n        /* \"bonding_contract.sol\":1025:1053  address public uniswapRouter */\n    tag_6:\n      tag_24\n      tag_25\n      jump\t// in\n    tag_24:\n      mload(0x40)\n      tag_26\n      swap2\n      swap1\n      tag_16\n      jump\t// in\n    tag_26:\n      mload(0x40)\n      dup1\n      swap2\n      sub\n      swap1\n      return\n        /* \"bonding_contract.sol\":1639:1818  function setDiscountRate(uint256 _discountRate) external onlyOwner {... */\n    tag_7:\n      tag_27\n      0x04\n      dup1\n      calldatasize\n      sub\n      dup2\n      add\n      swap1\n      tag_28\n      swap2\n      swap1\n      tag_22\n      jump\t// in\n    tag_28:\n      tag_29\n      jump\t// in\n    tag_27:\n      stop\n        /* \"bonding_contract.sol\":892:912  address public owner */\n    tag_8:\n      tag_30\n      tag_31\n      jump\t// in\n    tag_30:\n      mload(0x40)\n      tag_32\n      swap2\n      swap1\n      tag_16\n      jump\t// in\n    tag_32:\n      mload(0x40)\n      dup1\n      swap2\n      sub\n      swap1\n      return\n        /* \"bonding_contract.sol\":1944:3128  function bond(uint256 wethAmount) external {... */\n    tag_9:\n      tag_33\n      0x04\n      dup1\n      calldatasize\n      sub\n      dup2\n      add\n      swap1\n      tag_34\n      swap2\n      swap1\n      tag_22\n      jump\t// in\n    tag_34:\n      tag_35\n      jump\t// in\n    tag_33:\n      stop\n        /* \"bonding_contract.sol\":1144:1177  uint256 public targetPrice = 1e18 */\n    tag_10:\n      tag_36\n      tag_37\n      jump\t// in\n    tag_36:\n      mload(0x40)\n      tag_38\n      swap2\n      swap1\n      tag_39\n      jump\t// in\n    tag_38:\n      mload(0x40)\n      dup1\n      swap2\n      sub\n      swap1\n      return\n        /* \"bonding_contract.sol\":1091:1122  uint256 public discountRate = 5 */\n    tag_11:\n      tag_40\n      tag_41\n      jump\t// in\n    tag_40:\n      mload(0x40)\n      tag_42\n      swap2\n      swap1\n      tag_39\n      jump\t// in\n    tag_42:\n      mload(0x40)\n      dup1\n      swap2\n      sub\n      swap1\n      return\n        /* \"bonding_contract.sol\":970:991  address public mlAMPL */\n    tag_14:\n      0x02\n      0x00\n      swap1\n      sload\n      swap1\n      0x0100\n      exp\n      swap1\n      div\n      0xffffffffffffffffffffffffffffffffffffffff\n      and\n      dup2\n      jump\t// out\n        /* \"bonding_contract.sol\":919:938  address public weth */\n    tag_18:\n      0x01\n      0x00\n      swap1\n      sload\n      swap1\n      0x0100\n      exp\n      swap1\n      div\n      0xffffffffffffffffffffffffffffffffffffffff\n      and\n      dup2\n      jump\t// out\n        /* \"bonding_contract.sol\":1826:1936  function setTargetPrice(uint256 _targetPrice) external onlyOwner {... */\n    tag_23:\n        /* \"bonding_contract.sol\":1587:1592  owner */\n      0x00\n      dup1\n      sload\n      swap1\n      0x0100\n      exp\n      swap1\n      div\n      0xffffffffffffffffffffffffffffffffffffffff\n      and\n        /* \"bonding_contract.sol\":1573:1592  msg.sender == owner */\n      0xffffffffffffffffffffffffffffffffffffffff\n      and\n        /* \"bonding_contract.sol\":1573:1583  msg.sender */\n      caller\n        /* \"bonding_contract.sol\":1573:1592  msg.sender == owner */\n      0xffffffffffffffffffffffffffffffffffffffff\n      and\n      eq\n        /* \"bonding_contract.sol\":1565:1611  require(msg.sender == owner, \"Not authorized\") */\n      tag_44\n      jumpi\n      mload(0x40)\n      0x08c379a000000000000000000000000000000000000000000000000000000000\n      dup2\n      mstore\n      0x04\n      add\n      tag_45\n      swap1\n      tag_46\n      jump\t// in\n    tag_45:\n      mload(0x40)\n      dup1\n      swap2\n      sub\n      swap1\n      revert\n    tag_44:\n        /* \"bonding_contract.sol\":1916:1928  _targetPrice */\n      dup1\n        /* \"bonding_contract.sol\":1902:1913  targetPrice */\n      0x05\n        /* \"bonding_contract.sol\":1902:1928  targetPrice = _targetPrice */\n      dup2\n      swap1\n      sstore\n      pop\n        /* \"bonding_contract.sol\":1826:1936  function setTargetPrice(uint256 _targetPrice) external onlyOwner {... */\n      pop\n      jump\t// out\n        /* \"bonding_contract.sol\":1025:1053  address public uniswapRouter */\n    tag_25:\n      0x03\n      0x00\n      swap1\n      sload\n      swap1\n      0x0100\n      exp\n      swap1\n      div\n      0xffffffffffffffffffffffffffffffffffffffff\n      and\n      dup2\n      jump\t// out\n        /* \"bonding_contract.sol\":1639:1818  function setDiscountRate(uint256 _discountRate) external onlyOwner {... */\n    tag_29:\n        /* \"bonding_contract.sol\":1587:1592  owner */\n      0x00\n      dup1\n      sload\n      swap1\n      0x0100\n      exp\n      swap1\n      div\n      0xffffffffffffffffffffffffffffffffffffffff\n      and\n        /* \"bonding_contract.sol\":1573:1592  msg.sender == owner */\n      0xffffffffffffffffffffffffffffffffffffffff\n      and\n        /* \"bonding_contract.sol\":1573:1583  msg.sender */\n      caller\n        /* \"bonding_contract.sol\":1573:1592  msg.sender == owner */\n      0xffffffffffffffffffffffffffffffffffffffff\n      and\n      eq\n        /* \"bonding_contract.sol\":1565:1611  require(msg.sender == owner, \"Not authorized\") */\n      tag_49\n      jumpi\n      mload(0x40)\n      0x08c379a000000000000000000000000000000000000000000000000000000000\n      dup2\n      mstore\n      0x04\n      add\n      tag_50\n      swap1\n      tag_46\n      jump\t// in\n    tag_50:\n      mload(0x40)\n      dup1\n      swap2\n      sub\n      swap1\n      revert\n    tag_49:\n        /* \"bonding_contract.sol\":1742:1745  100 */\n      0x64\n        /* \"bonding_contract.sol\":1725:1738  _discountRate */\n      dup2\n        /* \"bonding_contract.sol\":1725:1745  _discountRate <= 100 */\n      gt\n      iszero\n        /* \"bonding_contract.sol\":1717:1771  require(_discountRate <= 100, \"Invalid discount rate\") */\n      tag_52\n      jumpi\n      mload(0x40)\n      0x08c379a000000000000000000000000000000000000000000000000000000000\n      dup2\n      mstore\n      0x04\n      add\n      tag_53\n      swap1\n      tag_54\n      jump\t// in\n    tag_53:\n      mload(0x40)\n      dup1\n      swap2\n      sub\n      swap1\n      revert\n    tag_52:\n        /* \"bonding_contract.sol\":1797:1810  _discountRate */\n      dup1\n        /* \"bonding_contract.sol\":1782:1794  discountRate */\n      0x04\n        /* \"bonding_contract.sol\":1782:1810  discountRate = _discountRate */\n      dup2\n      swap1\n      sstore\n      pop\n        /* \"bonding_contract.sol\":1639:1818  function setDiscountRate(uint256 _discountRate) external onlyOwner {... */\n      pop\n      jump\t// out\n        /* \"bonding_contract.sol\":892:912  address public owner */\n    tag_31:\n      0x00\n      dup1\n      sload\n      swap1\n      0x0100\n      exp\n      swap1\n      div\n      0xffffffffffffffffffffffffffffffffffffffff\n      and\n      dup2\n      jump\t// out\n        /* \"bonding_contract.sol\":1944:3128  function bond(uint256 wethAmount) external {... */\n    tag_35:\n        /* \"bonding_contract.sol\":2019:2020  0 */\n      0x00\n        /* \"bonding_contract.sol\":2006:2016  wethAmount */\n      dup2\n        /* \"bonding_contract.sol\":2006:2020  wethAmount > 0 */\n      gt\n        /* \"bonding_contract.sol\":1998:2042  require(wethAmount > 0, \"Must deposit WETH\") */\n      tag_56\n      jumpi\n      mload(0x40)\n      0x08c379a000000000000000000000000000000000000000000000000000000000\n      dup2\n      mstore\n      0x04\n      add\n      tag_57\n      swap1\n      tag_58\n      jump\t// in\n    tag_57:\n      mload(0x40)\n      dup1\n      swap2\n      sub\n      swap1\n      revert\n    tag_56:\n        /* \"bonding_contract.sol\":2118:2122  weth */\n      0x01\n      0x00\n      swap1\n      sload\n      swap1\n      0x0100\n      exp\n      swap1\n      div\n      0xffffffffffffffffffffffffffffffffffffffff\n      and\n        /* \"bonding_contract.sol\":2112:2136  IWETH(weth).transferFrom */\n      0xffffffffffffffffffffffffffffffffffffffff\n      and\n      0x23b872dd\n        /* \"bonding_contract.sol\":2137:2147  msg.sender */\n      caller\n        /* \"bonding_contract.sol\":2157:2161  this */\n      address\n        /* \"bonding_contract.sol\":2164:2174  wethAmount */\n      dup5\n        /* \"bonding_contract.sol\":2112:2175  IWETH(weth).transferFrom(msg.sender, address(this), wethAmount) */\n      mload(0x40)\n      dup5\n      0xffffffff\n      and\n      0xe0\n      shl\n      dup2\n      mstore\n      0x04\n      add\n      tag_59\n      swap4\n      swap3\n      swap2\n      swap1\n      tag_60\n      jump\t// in\n    tag_59:\n      0x20\n      mload(0x40)\n      dup1\n      dup4\n      sub\n      dup2\n      0x00\n      dup8\n      gas\n      call\n      iszero\n      dup1\n      iszero\n      tag_62\n      jumpi\n      returndatasize\n      0x00\n      dup1\n      returndatacopy\n      revert(0x00, returndatasize)\n    tag_62:\n      pop\n      pop\n      pop\n      pop\n      mload(0x40)\n      returndatasize\n      not(0x1f)\n      0x1f\n      dup3\n      add\n      and\n      dup3\n      add\n      dup1\n      0x40\n      mstore\n      pop\n      dup2\n      add\n      swap1\n      tag_63\n      swap2\n      swap1\n      tag_64\n      jump\t// in\n    tag_63:\n      pop\n        /* \"bonding_contract.sol\":2239:2262  uint256 discountedPrice */\n      0x00\n        /* \"bonding_contract.sol\":2304:2307  100 */\n      0x64\n        /* \"bonding_contract.sol\":2287:2299  discountRate */\n      sload(0x04)\n        /* \"bonding_contract.sol\":2281:2284  100 */\n      0x64\n        /* \"bonding_contract.sol\":2281:2299  100 - discountRate */\n      tag_65\n      swap2\n      swap1\n      tag_66\n      jump\t// in\n    tag_65:\n        /* \"bonding_contract.sol\":2266:2277  targetPrice */\n      sload(0x05)\n        /* \"bonding_contract.sol\":2266:2300  targetPrice * (100 - discountRate) */\n      tag_67\n      swap2\n      swap1\n      tag_68\n      jump\t// in\n    tag_67:\n        /* \"bonding_contract.sol\":2265:2307  (targetPrice * (100 - discountRate)) / 100 */\n      tag_69\n      swap2\n      swap1\n      tag_70\n      jump\t// in\n    tag_69:\n        /* \"bonding_contract.sol\":2239:2307  uint256 discountedPrice = (targetPrice * (100 - discountRate)) / 100 */\n      swap1\n      pop\n        /* \"bonding_contract.sol\":2318:2338  uint256 mlAMPLAmount */\n      0x00\n        /* \"bonding_contract.sol\":2363:2378  discountedPrice */\n      dup2\n        /* \"bonding_contract.sol\":2355:2359  1e18 */\n      0x0de0b6b3a7640000\n        /* \"bonding_contract.sol\":2342:2352  wethAmount */\n      dup5\n        /* \"bonding_contract.sol\":2342:2359  wethAmount * 1e18 */\n      tag_71\n      swap2\n      swap1\n      tag_68\n      jump\t// in\n    tag_71:\n        /* \"bonding_contract.sol\":2341:2378  (wethAmount * 1e18) / discountedPrice */\n      tag_72\n      swap2\n      swap1\n      tag_70\n      jump\t// in\n    tag_72:\n        /* \"bonding_contract.sol\":2318:2378  uint256 mlAMPLAmount = (wethAmount * 1e18) / discountedPrice */\n      swap1\n      pop\n        /* \"bonding_contract.sol\":2449:2455  mlAMPL */\n      0x02\n      0x00\n      swap1\n      sload\n      swap1\n      0x0100\n      exp\n      swap1\n      div\n      0xffffffffffffffffffffffffffffffffffffffff\n      and\n        /* \"bonding_contract.sol\":2442:2465  IERC20(mlAMPL).transfer */\n      0xffffffffffffffffffffffffffffffffffffffff\n      and\n      0xa9059cbb\n        /* \"bonding_contract.sol\":2466:2476  msg.sender */\n      caller\n        /* \"bonding_contract.sol\":2478:2490  mlAMPLAmount */\n      dup4\n        /* \"bonding_contract.sol\":2442:2491  IERC20(mlAMPL).transfer(msg.sender, mlAMPLAmount) */\n      mload(0x40)\n      dup4\n      0xffffffff\n      and\n      0xe0\n      shl\n      dup2\n      mstore\n      0x04\n      add\n      tag_73\n      swap3\n      swap2\n      swap1\n      tag_74\n      jump\t// in\n    tag_73:\n      0x20\n      mload(0x40)\n      dup1\n      dup4\n      sub\n      dup2\n      0x00\n      dup8\n      gas\n      call\n      iszero\n      dup1\n      iszero\n      tag_76\n      jumpi\n      returndatasize\n      0x00\n      dup1\n      returndatacopy\n      revert(0x00, returndatasize)\n    tag_76:\n      pop\n      pop\n      pop\n      pop\n      mload(0x40)\n      returndatasize\n      not(0x1f)\n      0x1f\n      dup3\n      add\n      and\n      dup3\n      add\n      dup1\n      0x40\n      mstore\n      pop\n      dup2\n      add\n      swap1\n      tag_77\n      swap2\n      swap1\n      tag_64\n      jump\t// in\n    tag_77:\n      pop\n        /* \"bonding_contract.sol\":2571:2577  mlAMPL */\n      0x02\n      0x00\n      swap1\n      sload\n      swap1\n      0x0100\n      exp\n      swap1\n      div\n      0xffffffffffffffffffffffffffffffffffffffff\n      and\n        /* \"bonding_contract.sol\":2564:2586  IERC20(mlAMPL).approve */\n      0xffffffffffffffffffffffffffffffffffffffff\n      and\n      0x095ea7b3\n        /* \"bonding_contract.sol\":2587:2600  uniswapRouter */\n      0x03\n      0x00\n      swap1\n      sload\n      swap1\n      0x0100\n      exp\n      swap1\n      div\n      0xffffffffffffffffffffffffffffffffffffffff\n      and\n        /* \"bonding_contract.sol\":2602:2614  mlAMPLAmount */\n      dup4\n        /* \"bonding_contract.sol\":2564:2615  IERC20(mlAMPL).approve(uniswapRouter, mlAMPLAmount) */\n      mload(0x40)\n      dup4\n      0xffffffff\n      and\n      0xe0\n      shl\n      dup2\n      mstore\n      0x04\n      add\n      tag_78\n      swap3\n      swap2\n      swap1\n      tag_74\n      jump\t// in\n    tag_78:\n      0x20\n      mload(0x40)\n      dup1\n      dup4\n      sub\n      dup2\n      0x00\n      dup8\n      gas\n      call\n      iszero\n      dup1\n      iszero\n      tag_80\n      jumpi\n      returndatasize\n      0x00\n      dup1\n      returndatacopy\n      revert(0x00, returndatasize)\n    tag_80:\n      pop\n      pop\n      pop\n      pop\n      mload(0x40)\n      returndatasize\n      not(0x1f)\n      0x1f\n      dup3\n      add\n      and\n      dup3\n      add\n      dup1\n      0x40\n      mstore\n      pop\n      dup2\n      add\n      swap1\n      tag_81\n      swap2\n      swap1\n      tag_64\n      jump\t// in\n    tag_81:\n      pop\n        /* \"bonding_contract.sol\":2632:2636  weth */\n      0x01\n      0x00\n      swap1\n      sload\n      swap1\n      0x0100\n      exp\n      swap1\n      div\n      0xffffffffffffffffffffffffffffffffffffffff\n      and\n        /* \"bonding_contract.sol\":2626:2645  IWETH(weth).approve */\n      0xffffffffffffffffffffffffffffffffffffffff\n      and\n      0x095ea7b3\n        /* \"bonding_contract.sol\":2646:2659  uniswapRouter */\n      0x03\n      0x00\n      swap1\n      sload\n      swap1\n      0x0100\n      exp\n      swap1\n      div\n      0xffffffffffffffffffffffffffffffffffffffff\n      and\n        /* \"bonding_contract.sol\":2661:2671  wethAmount */\n      dup6\n        /* \"bonding_contract.sol\":2626:2672  IWETH(weth).approve(uniswapRouter, wethAmount) */\n      mload(0x40)\n      dup4\n      0xffffffff\n      and\n      0xe0\n      shl\n      dup2\n      mstore\n      0x04\n      add\n      tag_82\n      swap3\n      swap2\n      swap1\n      tag_74\n      jump\t// in\n    tag_82:\n      0x20\n      mload(0x40)\n      dup1\n      dup4\n      sub\n      dup2\n      0x00\n      dup8\n      gas\n      call\n      iszero\n      dup1\n      iszero\n      tag_84\n      jumpi\n      returndatasize\n      0x00\n      dup1\n      returndatacopy\n      revert(0x00, returndatasize)\n    tag_84:\n      pop\n      pop\n      pop\n      pop\n      mload(0x40)\n      returndatasize\n      not(0x1f)\n      0x1f\n      dup3\n      add\n      and\n      dup3\n      add\n      dup1\n      0x40\n      mstore\n      pop\n      dup2\n      add\n      swap1\n      tag_85\n      swap2\n      swap1\n      tag_64\n      jump\t// in\n    tag_85:\n      pop\n        /* \"bonding_contract.sol\":2744:2757  uniswapRouter */\n      0x03\n      0x00\n      swap1\n      sload\n      swap1\n      0x0100\n      exp\n      swap1\n      div\n      0xffffffffffffffffffffffffffffffffffffffff\n      and\n        /* \"bonding_contract.sol\":2727:2771  IUniswapV2Router(uniswapRouter).addLiquidity */\n      0xffffffffffffffffffffffffffffffffffffffff\n      and\n      0xe8e33700\n        /* \"bonding_contract.sol\":2786:2790  weth */\n      0x01\n      0x00\n      swap1\n      sload\n      swap1\n      0x0100\n      exp\n      swap1\n      div\n      0xffffffffffffffffffffffffffffffffffffffff\n      and\n        /* \"bonding_contract.sol\":2805:2811  mlAMPL */\n      0x02\n      0x00\n      swap1\n      sload\n      swap1\n      0x0100\n      exp\n      swap1\n      div\n      0xffffffffffffffffffffffffffffffffffffffff\n      and\n        /* \"bonding_contract.sol\":2826:2836  wethAmount */\n      dup7\n        /* \"bonding_contract.sol\":2851:2863  mlAMPLAmount */\n      dup6\n        /* \"bonding_contract.sol\":2878:2879  0 */\n      0x00\n        /* \"bonding_contract.sol\":2917:2918  0 */\n      dup1\n        /* \"bonding_contract.sol\":2964:2968  this */\n      address\n        /* \"bonding_contract.sol\":3025:3040  block.timestamp */\n      timestamp\n        /* \"bonding_contract.sol\":2727:3051  IUniswapV2Router(uniswapRouter).addLiquidity(... */\n      mload(0x40)\n      dup10\n      0xffffffff\n      and\n      0xe0\n      shl\n      dup2\n      mstore\n      0x04\n      add\n      tag_86\n      swap9\n      swap8\n      swap7\n      swap6\n      swap5\n      swap4\n      swap3\n      swap2\n      swap1\n      tag_87\n      jump\t// in\n    tag_86:\n      0x60\n      mload(0x40)\n      dup1\n      dup4\n      sub\n      dup2\n      0x00\n      dup8\n      gas\n      call\n      iszero\n      dup1\n      iszero\n      tag_89\n      jumpi\n      returndatasize\n      0x00\n      dup1\n      returndatacopy\n      revert(0x00, returndatasize)\n    tag_89:\n      pop\n      pop\n      pop\n      pop\n      mload(0x40)\n      returndatasize\n      not(0x1f)\n      0x1f\n      dup3\n      add\n      and\n      dup3\n      add\n      dup1\n      0x40\n      mstore\n      pop\n      dup2\n      add\n      swap1\n      tag_90\n      swap2\n      swap1\n      tag_91\n      jump\t// in\n    tag_90:\n      pop\n      pop\n      pop\n        /* \"bonding_contract.sol\":3083:3093  msg.sender */\n      caller\n        /* \"bonding_contract.sol\":3069:3120  BondPurchased(msg.sender, wethAmount, mlAMPLAmount) */\n      0xffffffffffffffffffffffffffffffffffffffff\n      and\n      0x0db13e87b3f9c3b8f5f3acad928df55c52ba6bf7795af4ec069de5e23caacb37\n        /* \"bonding_contract.sol\":3095:3105  wethAmount */\n      dup5\n        /* \"bonding_contract.sol\":3107:3119  mlAMPLAmount */\n      dup4\n        /* \"bonding_contract.sol\":3069:3120  BondPurchased(msg.sender, wethAmount, mlAMPLAmount) */\n      mload(0x40)\n      tag_92\n      swap3\n      swap2\n      swap1\n      tag_93\n      jump\t// in\n    tag_92:\n      mload(0x40)\n      dup1\n      swap2\n      sub\n      swap1\n      log2\n        /* \"bonding_contract.sol\":1987:3128  {... */\n      pop\n      pop\n        /* \"bonding_contract.sol\":1944:3128  function bond(uint256 wethAmount) external {... */\n      pop\n      jump\t// out\n        /* \"bonding_contract.sol\":1144:1177  uint256 public targetPrice = 1e18 */\n    tag_37:\n      sload(0x05)\n      dup2\n      jump\t// out\n        /* \"bonding_contract.sol\":1091:1122  uint256 public discountRate = 5 */\n    tag_41:\n      sload(0x04)\n      dup2\n      jump\t// out\n        /* \"#utility.yul\":7:133   */\n    tag_94:\n        /* \"#utility.yul\":44:51   */\n      0x00\n        /* \"#utility.yul\":84:126   */\n      0xffffffffffffffffffffffffffffffffffffffff\n        /* \"#utility.yul\":77:82   */\n      dup3\n        /* \"#utility.yul\":73:127   */\n      and\n        /* \"#utility.yul\":62:127   */\n      swap1\n      pop\n        /* \"#utility.yul\":7:133   */\n      swap2\n      swap1\n      pop\n      jump\t// out\n        /* \"#utility.yul\":139:235   */\n    tag_95:\n        /* \"#utility.yul\":176:183   */\n      0x00\n        /* \"#utility.yul\":205:229   */\n      tag_124\n        /* \"#utility.yul\":223:228   */\n      dup3\n        /* \"#utility.yul\":205:229   */\n      tag_94\n      jump\t// in\n    tag_124:\n        /* \"#utility.yul\":194:229   */\n      swap1\n      pop\n        /* \"#utility.yul\":139:235   */\n      swap2\n      swap1\n      pop\n      jump\t// out\n        /* \"#utility.yul\":241:359   */\n    tag_96:\n        /* \"#utility.yul\":328:352   */\n      tag_126\n        /* \"#utility.yul\":346:351   */\n      dup2\n        /* \"#utility.yul\":328:352   */\n      tag_95\n      jump\t// in\n    tag_126:\n        /* \"#utility.yul\":323:326   */\n      dup3\n        /* \"#utility.yul\":316:353   */\n      mstore\n        /* \"#utility.yul\":241:359   */\n      pop\n      pop\n      jump\t// out\n        /* \"#utility.yul\":365:587   */\n    tag_16:\n        /* \"#utility.yul\":458:462   */\n      0x00\n        /* \"#utility.yul\":496:498   */\n      0x20\n        /* \"#utility.yul\":485:494   */\n      dup3\n        /* \"#utility.yul\":481:499   */\n      add\n        /* \"#utility.yul\":473:499   */\n      swap1\n      pop\n        /* \"#utility.yul\":509:580   */\n      tag_128\n        /* \"#utility.yul\":577:578   */\n      0x00\n        /* \"#utility.yul\":566:575   */\n      dup4\n        /* \"#utility.yul\":562:579   */\n      add\n        /* \"#utility.yul\":553:559   */\n      dup5\n        /* \"#utility.yul\":509:580   */\n      tag_96\n      jump\t// in\n    tag_128:\n        /* \"#utility.yul\":365:587   */\n      swap3\n      swap2\n      pop\n      pop\n      jump\t// out\n        /* \"#utility.yul\":674:791   */\n    tag_98:\n        /* \"#utility.yul\":783:784   */\n      0x00\n        /* \"#utility.yul\":780:781   */\n      dup1\n        /* \"#utility.yul\":773:785   */\n      revert\n        /* \"#utility.yul\":920:997   */\n    tag_100:\n        /* \"#utility.yul\":957:964   */\n      0x00\n        /* \"#utility.yul\":986:991   */\n      dup2\n        /* \"#utility.yul\":975:991   */\n      swap1\n      pop\n        /* \"#utility.yul\":920:997   */\n      swap2\n      swap1\n      pop\n      jump\t// out\n        /* \"#utility.yul\":1003:1125   */\n    tag_101:\n        /* \"#utility.yul\":1076:1100   */\n      tag_134\n        /* \"#utility.yul\":1094:1099   */\n      dup2\n        /* \"#utility.yul\":1076:1100   */\n      tag_100\n      jump\t// in\n    tag_134:\n        /* \"#utility.yul\":1069:1074   */\n      dup2\n        /* \"#utility.yul\":1066:1101   */\n      eq\n        /* \"#utility.yul\":1056:1119   */\n      tag_135\n      jumpi\n        /* \"#utility.yul\":1115:1116   */\n      0x00\n        /* \"#utility.yul\":1112:1113   */\n      dup1\n        /* \"#utility.yul\":1105:1117   */\n      revert\n        /* \"#utility.yul\":1056:1119   */\n    tag_135:\n        /* \"#utility.yul\":1003:1125   */\n      pop\n      jump\t// out\n        /* \"#utility.yul\":1131:1270   */\n    tag_102:\n        /* \"#utility.yul\":1177:1182   */\n      0x00\n        /* \"#utility.yul\":1215:1221   */\n      dup2\n        /* \"#utility.yul\":1202:1222   */\n      calldataload\n        /* \"#utility.yul\":1193:1222   */\n      swap1\n      pop\n        /* \"#utility.yul\":1231:1264   */\n      tag_137\n        /* \"#utility.yul\":1258:1263   */\n      dup2\n        /* \"#utility.yul\":1231:1264   */\n      tag_101\n      jump\t// in\n    tag_137:\n        /* \"#utility.yul\":1131:1270   */\n      swap3\n      swap2\n      pop\n      pop\n      jump\t// out\n        /* \"#utility.yul\":1276:1605   */\n    tag_22:\n        /* \"#utility.yul\":1335:1341   */\n      0x00\n        /* \"#utility.yul\":1384:1386   */\n      0x20\n        /* \"#utility.yul\":1372:1381   */\n      dup3\n        /* \"#utility.yul\":1363:1370   */\n      dup5\n        /* \"#utility.yul\":1359:1382   */\n      sub\n        /* \"#utility.yul\":1355:1387   */\n      slt\n        /* \"#utility.yul\":1352:1471   */\n      iszero\n      tag_139\n      jumpi\n        /* \"#utility.yul\":1390:1469   */\n      tag_140\n      tag_98\n      jump\t// in\n    tag_140:\n        /* \"#utility.yul\":1352:1471   */\n    tag_139:\n        /* \"#utility.yul\":1510:1511   */\n      0x00\n        /* \"#utility.yul\":1535:1588   */\n      tag_141\n        /* \"#utility.yul\":1580:1587   */\n      dup5\n        /* \"#utility.yul\":1571:1577   */\n      dup3\n        /* \"#utility.yul\":1560:1569   */\n      dup6\n        /* \"#utility.yul\":1556:1578   */\n      add\n        /* \"#utility.yul\":1535:1588   */\n      tag_102\n      jump\t// in\n    tag_141:\n        /* \"#utility.yul\":1525:1588   */\n      swap2\n      pop\n        /* \"#utility.yul\":1481:1598   */\n      pop\n        /* \"#utility.yul\":1276:1605   */\n      swap3\n      swap2\n      pop\n      pop\n      jump\t// out\n        /* \"#utility.yul\":1611:1729   */\n    tag_103:\n        /* \"#utility.yul\":1698:1722   */\n      tag_143\n        /* \"#utility.yul\":1716:1721   */\n      dup2\n        /* \"#utility.yul\":1698:1722   */\n      tag_100\n      jump\t// in\n    tag_143:\n        /* \"#utility.yul\":1693:1696   */\n      dup3\n        /* \"#utility.yul\":1686:1723   */\n      mstore\n        /* \"#utility.yul\":1611:1729   */\n      pop\n      pop\n      jump\t// out\n        /* \"#utility.yul\":1735:1957   */\n    tag_39:\n        /* \"#utility.yul\":1828:1832   */\n      0x00\n        /* \"#utility.yul\":1866:1868   */\n      0x20\n        /* \"#utility.yul\":1855:1864   */\n      dup3\n        /* \"#utility.yul\":1851:1869   */\n      add\n        /* \"#utility.yul\":1843:1869   */\n      swap1\n      pop\n        /* \"#utility.yul\":1879:1950   */\n      tag_145\n        /* \"#utility.yul\":1947:1948   */\n      0x00\n        /* \"#utility.yul\":1936:1945   */\n      dup4\n        /* \"#utility.yul\":1932:1949   */\n      add\n        /* \"#utility.yul\":1923:1929   */\n      dup5\n        /* \"#utility.yul\":1879:1950   */\n      tag_103\n      jump\t// in\n    tag_145:\n        /* \"#utility.yul\":1735:1957   */\n      swap3\n      swap2\n      pop\n      pop\n      jump\t// out\n        /* \"#utility.yul\":1963:2132   */\n    tag_104:\n        /* \"#utility.yul\":2047:2058   */\n      0x00\n        /* \"#utility.yul\":2081:2087   */\n      dup3\n        /* \"#utility.yul\":2076:2079   */\n      dup3\n        /* \"#utility.yul\":2069:2088   */\n      mstore\n        /* \"#utility.yul\":2121:2125   */\n      0x20\n        /* \"#utility.yul\":2116:2119   */\n      dup3\n        /* \"#utility.yul\":2112:2126   */\n      add\n        /* \"#utility.yul\":2097:2126   */\n      swap1\n      pop\n        /* \"#utility.yul\":1963:2132   */\n      swap3\n      swap2\n      pop\n      pop\n      jump\t// out\n        /* \"#utility.yul\":2138:2302   */\n    tag_105:\n        /* \"#utility.yul\":2278:2294   */\n      0x4e6f7420617574686f72697a6564000000000000000000000000000000000000\n        /* \"#utility.yul\":2274:2275   */\n      0x00\n        /* \"#utility.yul\":2266:2272   */\n      dup3\n        /* \"#utility.yul\":2262:2276   */\n      add\n        /* \"#utility.yul\":2255:2295   */\n      mstore\n        /* \"#utility.yul\":2138:2302   */\n      pop\n      jump\t// out\n        /* \"#utility.yul\":2308:2674   */\n    tag_106:\n        /* \"#utility.yul\":2450:2453   */\n      0x00\n        /* \"#utility.yul\":2471:2538   */\n      tag_149\n        /* \"#utility.yul\":2535:2537   */\n      0x0e\n        /* \"#utility.yul\":2530:2533   */\n      dup4\n        /* \"#utility.yul\":2471:2538   */\n      tag_104\n      jump\t// in\n    tag_149:\n        /* \"#utility.yul\":2464:2538   */\n      swap2\n      pop\n        /* \"#utility.yul\":2547:2640   */\n      tag_150\n        /* \"#utility.yul\":2636:2639   */\n      dup3\n        /* \"#utility.yul\":2547:2640   */\n      tag_105\n      jump\t// in\n    tag_150:\n        /* \"#utility.yul\":2665:2667   */\n      0x20\n        /* \"#utility.yul\":2660:2663   */\n      dup3\n        /* \"#utility.yul\":2656:2668   */\n      add\n        /* \"#utility.yul\":2649:2668   */\n      swap1\n      pop\n        /* \"#utility.yul\":2308:2674   */\n      swap2\n      swap1\n      pop\n      jump\t// out\n        /* \"#utility.yul\":2680:3099   */\n    tag_46:\n        /* \"#utility.yul\":2846:2850   */\n      0x00\n        /* \"#utility.yul\":2884:2886   */\n      0x20\n        /* \"#utility.yul\":2873:2882   */\n      dup3\n        /* \"#utility.yul\":2869:2887   */\n      add\n        /* \"#utility.yul\":2861:2887   */\n      swap1\n      pop\n        /* \"#utility.yul\":2933:2942   */\n      dup2\n        /* \"#utility.yul\":2927:2931   */\n      dup2\n        /* \"#utility.yul\":2923:2943   */\n      sub\n        /* \"#utility.yul\":2919:2920   */\n      0x00\n        /* \"#utility.yul\":2908:2917   */\n      dup4\n        /* \"#utility.yul\":2904:2921   */\n      add\n        /* \"#utility.yul\":2897:2944   */\n      mstore\n        /* \"#utility.yul\":2961:3092   */\n      tag_152\n        /* \"#utility.yul\":3087:3091   */\n      dup2\n        /* \"#utility.yul\":2961:3092   */\n      tag_106\n      jump\t// in\n    tag_152:\n        /* \"#utility.yul\":2953:3092   */\n      swap1\n      pop\n        /* \"#utility.yul\":2680:3099   */\n      swap2\n      swap1\n      pop\n      jump\t// out\n        /* \"#utility.yul\":3105:3276   */\n    tag_107:\n        /* \"#utility.yul\":3245:3268   */\n      0x496e76616c696420646973636f756e7420726174650000000000000000000000\n        /* \"#utility.yul\":3241:3242   */\n      0x00\n        /* \"#utility.yul\":3233:3239   */\n      dup3\n        /* \"#utility.yul\":3229:3243   */\n      add\n        /* \"#utility.yul\":3222:3269   */\n      mstore\n        /* \"#utility.yul\":3105:3276   */\n      pop\n      jump\t// out\n        /* \"#utility.yul\":3282:3648   */\n    tag_108:\n        /* \"#utility.yul\":3424:3427   */\n      0x00\n        /* \"#utility.yul\":3445:3512   */\n      tag_155\n        /* \"#utility.yul\":3509:3511   */\n      0x15\n        /* \"#utility.yul\":3504:3507   */\n      dup4\n        /* \"#utility.yul\":3445:3512   */\n      tag_104\n      jump\t// in\n    tag_155:\n        /* \"#utility.yul\":3438:3512   */\n      swap2\n      pop\n        /* \"#utility.yul\":3521:3614   */\n      tag_156\n        /* \"#utility.yul\":3610:3613   */\n      dup3\n        /* \"#utility.yul\":3521:3614   */\n      tag_107\n      jump\t// in\n    tag_156:\n        /* \"#utility.yul\":3639:3641   */\n      0x20\n        /* \"#utility.yul\":3634:3637   */\n      dup3\n        /* \"#utility.yul\":3630:3642   */\n      add\n        /* \"#utility.yul\":3623:3642   */\n      swap1\n      pop\n        /* \"#utility.yul\":3282:3648   */\n      swap2\n      swap1\n      pop\n      jump\t// out\n        /* \"#utility.yul\":3654:4073   */\n    tag_54:\n        /* \"#utility.yul\":3820:3824   */\n      0x00\n        /* \"#utility.yul\":3858:3860   */\n      0x20\n        /* \"#utility.yul\":3847:3856   */\n      dup3\n        /* \"#utility.yul\":3843:3861   */\n      add\n        /* \"#utility.yul\":3835:3861   */\n      swap1\n      pop\n        /* \"#utility.yul\":3907:3916   */\n      dup2\n        /* \"#utility.yul\":3901:3905   */\n      dup2\n        /* \"#utility.yul\":3897:3917   */\n      sub\n        /* \"#utility.yul\":3893:3894   */\n      0x00\n        /* \"#utility.yul\":3882:3891   */\n      dup4\n        /* \"#utility.yul\":3878:3895   */\n      add\n        /* \"#utility.yul\":3871:3918   */\n      mstore\n        /* \"#utility.yul\":3935:4066   */\n      tag_158\n        /* \"#utility.yul\":4061:4065   */\n      dup2\n        /* \"#utility.yul\":3935:4066   */\n      tag_108\n      jump\t// in\n    tag_158:\n        /* \"#utility.yul\":3927:4066   */\n      swap1\n      pop\n        /* \"#utility.yul\":3654:4073   */\n      swap2\n      swap1\n      pop\n      jump\t// out\n        /* \"#utility.yul\":4079:4246   */\n    tag_109:\n        /* \"#utility.yul\":4219:4238   */\n      0x4d757374206465706f7369742057455448000000000000000000000000000000\n        /* \"#utility.yul\":4215:4216   */\n      0x00\n        /* \"#utility.yul\":4207:4213   */\n      dup3\n        /* \"#utility.yul\":4203:4217   */\n      add\n        /* \"#utility.yul\":4196:4239   */\n      mstore\n        /* \"#utility.yul\":4079:4246   */\n      pop\n      jump\t// out\n        /* \"#utility.yul\":4252:4618   */\n    tag_110:\n        /* \"#utility.yul\":4394:4397   */\n      0x00\n        /* \"#utility.yul\":4415:4482   */\n      tag_161\n        /* \"#utility.yul\":4479:4481   */\n      0x11\n        /* \"#utility.yul\":4474:4477   */\n      dup4\n        /* \"#utility.yul\":4415:4482   */\n      tag_104\n      jump\t// in\n    tag_161:\n        /* \"#utility.yul\":4408:4482   */\n      swap2\n      pop\n        /* \"#utility.yul\":4491:4584   */\n      tag_162\n        /* \"#utility.yul\":4580:4583   */\n      dup3\n        /* \"#utility.yul\":4491:4584   */\n      tag_109\n      jump\t// in\n    tag_162:\n        /* \"#utility.yul\":4609:4611   */\n      0x20\n        /* \"#utility.yul\":4604:4607   */\n      dup3\n        /* \"#utility.yul\":4600:4612   */\n      add\n        /* \"#utility.yul\":4593:4612   */\n      swap1\n      pop\n        /* \"#utility.yul\":4252:4618   */\n      swap2\n      swap1\n      pop\n      jump\t// out\n        /* \"#utility.yul\":4624:5043   */\n    tag_58:\n        /* \"#utility.yul\":4790:4794   */\n      0x00\n        /* \"#utility.yul\":4828:4830   */\n      0x20\n        /* \"#utility.yul\":4817:4826   */\n      dup3\n        /* \"#utility.yul\":4813:4831   */\n      add\n        /* \"#utility.yul\":4805:4831   */\n      swap1\n      pop\n        /* \"#utility.yul\":4877:4886   */\n      dup2\n        /* \"#utility.yul\":4871:4875   */\n      dup2\n        /* \"#utility.yul\":4867:4887   */\n      sub\n        /* \"#utility.yul\":4863:4864   */\n      0x00\n        /* \"#utility.yul\":4852:4861   */\n      dup4\n        /* \"#utility.yul\":4848:4865   */\n      add\n        /* \"#utility.yul\":4841:4888   */\n      mstore\n        /* \"#utility.yul\":4905:5036   */\n      tag_164\n        /* \"#utility.yul\":5031:5035   */\n      dup2\n        /* \"#utility.yul\":4905:5036   */\n      tag_110\n      jump\t// in\n    tag_164:\n        /* \"#utility.yul\":4897:5036   */\n      swap1\n      pop\n        /* \"#utility.yul\":4624:5043   */\n      swap2\n      swap1\n      pop\n      jump\t// out\n        /* \"#utility.yul\":5049:5491   */\n    tag_60:\n        /* \"#utility.yul\":5198:5202   */\n      0x00\n        /* \"#utility.yul\":5236:5238   */\n      0x60\n        /* \"#utility.yul\":5225:5234   */\n      dup3\n        /* \"#utility.yul\":5221:5239   */\n      add\n        /* \"#utility.yul\":5213:5239   */\n      swap1\n      pop\n        /* \"#utility.yul\":5249:5320   */\n      tag_166\n        /* \"#utility.yul\":5317:5318   */\n      0x00\n        /* \"#utility.yul\":5306:5315   */\n      dup4\n        /* \"#utility.yul\":5302:5319   */\n      add\n        /* \"#utility.yul\":5293:5299   */\n      dup7\n        /* \"#utility.yul\":5249:5320   */\n      tag_96\n      jump\t// in\n    tag_166:\n        /* \"#utility.yul\":5330:5402   */\n      tag_167\n        /* \"#utility.yul\":5398:5400   */\n      0x20\n        /* \"#utility.yul\":5387:5396   */\n      dup4\n        /* \"#utility.yul\":5383:5401   */\n      add\n        /* \"#utility.yul\":5374:5380   */\n      dup6\n        /* \"#utility.yul\":5330:5402   */\n      tag_96\n      jump\t// in\n    tag_167:\n        /* \"#utility.yul\":5412:5484   */\n      tag_168\n        /* \"#utility.yul\":5480:5482   */\n      0x40\n        /* \"#utility.yul\":5469:5478   */\n      dup4\n        /* \"#utility.yul\":5465:5483   */\n      add\n        /* \"#utility.yul\":5456:5462   */\n      dup5\n        /* \"#utility.yul\":5412:5484   */\n      tag_103\n      jump\t// in\n    tag_168:\n        /* \"#utility.yul\":5049:5491   */\n      swap5\n      swap4\n      pop\n      pop\n      pop\n      pop\n      jump\t// out\n        /* \"#utility.yul\":5497:5587   */\n    tag_111:\n        /* \"#utility.yul\":5531:5538   */\n      0x00\n        /* \"#utility.yul\":5574:5579   */\n      dup2\n        /* \"#utility.yul\":5567:5580   */\n      iszero\n        /* \"#utility.yul\":5560:5581   */\n      iszero\n        /* \"#utility.yul\":5549:5581   */\n      swap1\n      pop\n        /* \"#utility.yul\":5497:5587   */\n      swap2\n      swap1\n      pop\n      jump\t// out\n        /* \"#utility.yul\":5593:5709   */\n    tag_112:\n        /* \"#utility.yul\":5663:5684   */\n      tag_171\n        /* \"#utility.yul\":5678:5683   */\n      dup2\n        /* \"#utility.yul\":5663:5684   */\n      tag_111\n      jump\t// in\n    tag_171:\n        /* \"#utility.yul\":5656:5661   */\n      dup2\n        /* \"#utility.yul\":5653:5685   */\n      eq\n        /* \"#utility.yul\":5643:5703   */\n      tag_172\n      jumpi\n        /* \"#utility.yul\":5699:5700   */\n      0x00\n        /* \"#utility.yul\":5696:5697   */\n      dup1\n        /* \"#utility.yul\":5689:5701   */\n      revert\n        /* \"#utility.yul\":5643:5703   */\n    tag_172:\n        /* \"#utility.yul\":5593:5709   */\n      pop\n      jump\t// out\n        /* \"#utility.yul\":5715:5852   */\n    tag_113:\n        /* \"#utility.yul\":5769:5774   */\n      0x00\n        /* \"#utility.yul\":5800:5806   */\n      dup2\n        /* \"#utility.yul\":5794:5807   */\n      mload\n        /* \"#utility.yul\":5785:5807   */\n      swap1\n      pop\n        /* \"#utility.yul\":5816:5846   */\n      tag_174\n        /* \"#utility.yul\":5840:5845   */\n      dup2\n        /* \"#utility.yul\":5816:5846   */\n      tag_112\n      jump\t// in\n    tag_174:\n        /* \"#utility.yul\":5715:5852   */\n      swap3\n      swap2\n      pop\n      pop\n      jump\t// out\n        /* \"#utility.yul\":5858:6203   */\n    tag_64:\n        /* \"#utility.yul\":5925:5931   */\n      0x00\n        /* \"#utility.yul\":5974:5976   */\n      0x20\n        /* \"#utility.yul\":5962:5971   */\n      dup3\n        /* \"#utility.yul\":5953:5960   */\n      dup5\n        /* \"#utility.yul\":5949:5972   */\n      sub\n        /* \"#utility.yul\":5945:5977   */\n      slt\n        /* \"#utility.yul\":5942:6061   */\n      iszero\n      tag_176\n      jumpi\n        /* \"#utility.yul\":5980:6059   */\n      tag_177\n      tag_98\n      jump\t// in\n    tag_177:\n        /* \"#utility.yul\":5942:6061   */\n    tag_176:\n        /* \"#utility.yul\":6100:6101   */\n      0x00\n        /* \"#utility.yul\":6125:6186   */\n      tag_178\n        /* \"#utility.yul\":6178:6185   */\n      dup5\n        /* \"#utility.yul\":6169:6175   */\n      dup3\n        /* \"#utility.yul\":6158:6167   */\n      dup6\n        /* \"#utility.yul\":6154:6176   */\n      add\n        /* \"#utility.yul\":6125:6186   */\n      tag_113\n      jump\t// in\n    tag_178:\n        /* \"#utility.yul\":6115:6186   */\n      swap2\n      pop\n        /* \"#utility.yul\":6071:6196   */\n      pop\n        /* \"#utility.yul\":5858:6203   */\n      swap3\n      swap2\n      pop\n      pop\n      jump\t// out\n        /* \"#utility.yul\":6209:6389   */\n    tag_114:\n        /* \"#utility.yul\":6257:6334   */\n      0x4e487b7100000000000000000000000000000000000000000000000000000000\n        /* \"#utility.yul\":6254:6255   */\n      0x00\n        /* \"#utility.yul\":6247:6335   */\n      mstore\n        /* \"#utility.yul\":6354:6358   */\n      0x11\n        /* \"#utility.yul\":6351:6352   */\n      0x04\n        /* \"#utility.yul\":6344:6359   */\n      mstore\n        /* \"#utility.yul\":6378:6382   */\n      0x24\n        /* \"#utility.yul\":6375:6376   */\n      0x00\n        /* \"#utility.yul\":6368:6383   */\n      revert\n        /* \"#utility.yul\":6395:6589   */\n    tag_66:\n        /* \"#utility.yul\":6435:6439   */\n      0x00\n        /* \"#utility.yul\":6455:6475   */\n      tag_181\n        /* \"#utility.yul\":6473:6474   */\n      dup3\n        /* \"#utility.yul\":6455:6475   */\n      tag_100\n      jump\t// in\n    tag_181:\n        /* \"#utility.yul\":6450:6475   */\n      swap2\n      pop\n        /* \"#utility.yul\":6489:6509   */\n      tag_182\n        /* \"#utility.yul\":6507:6508   */\n      dup4\n        /* \"#utility.yul\":6489:6509   */\n      tag_100\n      jump\t// in\n    tag_182:\n        /* \"#utility.yul\":6484:6509   */\n      swap3\n      pop\n        /* \"#utility.yul\":6533:6534   */\n      dup3\n        /* \"#utility.yul\":6530:6531   */\n      dup3\n        /* \"#utility.yul\":6526:6535   */\n      sub\n        /* \"#utility.yul\":6518:6535   */\n      swap1\n      pop\n        /* \"#utility.yul\":6557:6558   */\n      dup2\n        /* \"#utility.yul\":6551:6555   */\n      dup2\n        /* \"#utility.yul\":6548:6559   */\n      gt\n        /* \"#utility.yul\":6545:6582   */\n      iszero\n      tag_183\n      jumpi\n        /* \"#utility.yul\":6562:6580   */\n      tag_184\n      tag_114\n      jump\t// in\n    tag_184:\n        /* \"#utility.yul\":6545:6582   */\n    tag_183:\n        /* \"#utility.yul\":6395:6589   */\n      swap3\n      swap2\n      pop\n      pop\n      jump\t// out\n        /* \"#utility.yul\":6595:7005   */\n    tag_68:\n        /* \"#utility.yul\":6635:6642   */\n      0x00\n        /* \"#utility.yul\":6658:6678   */\n      tag_186\n        /* \"#utility.yul\":6676:6677   */\n      dup3\n        /* \"#utility.yul\":6658:6678   */\n      tag_100\n      jump\t// in\n    tag_186:\n        /* \"#utility.yul\":6653:6678   */\n      swap2\n      pop\n        /* \"#utility.yul\":6692:6712   */\n      tag_187\n        /* \"#utility.yul\":6710:6711   */\n      dup4\n        /* \"#utility.yul\":6692:6712   */\n      tag_100\n      jump\t// in\n    tag_187:\n        /* \"#utility.yul\":6687:6712   */\n      swap3\n      pop\n        /* \"#utility.yul\":6747:6748   */\n      dup3\n        /* \"#utility.yul\":6744:6745   */\n      dup3\n        /* \"#utility.yul\":6740:6749   */\n      mul\n        /* \"#utility.yul\":6769:6799   */\n      tag_188\n        /* \"#utility.yul\":6787:6798   */\n      dup2\n        /* \"#utility.yul\":6769:6799   */\n      tag_100\n      jump\t// in\n    tag_188:\n        /* \"#utility.yul\":6758:6799   */\n      swap2\n      pop\n        /* \"#utility.yul\":6948:6949   */\n      dup3\n        /* \"#utility.yul\":6939:6946   */\n      dup3\n        /* \"#utility.yul\":6935:6950   */\n      div\n        /* \"#utility.yul\":6932:6933   */\n      dup5\n        /* \"#utility.yul\":6929:6951   */\n      eq\n        /* \"#utility.yul\":6909:6910   */\n      dup4\n        /* \"#utility.yul\":6902:6911   */\n      iszero\n        /* \"#utility.yul\":6882:6965   */\n      or\n        /* \"#utility.yul\":6859:6998   */\n      tag_189\n      jumpi\n        /* \"#utility.yul\":6978:6996   */\n      tag_190\n      tag_114\n      jump\t// in\n    tag_190:\n        /* \"#utility.yul\":6859:6998   */\n    tag_189:\n        /* \"#utility.yul\":6643:7005   */\n      pop\n        /* \"#utility.yul\":6595:7005   */\n      swap3\n      swap2\n      pop\n      pop\n      jump\t// out\n        /* \"#utility.yul\":7011:7191   */\n    tag_115:\n        /* \"#utility.yul\":7059:7136   */\n      0x4e487b7100000000000000000000000000000000000000000000000000000000\n        /* \"#utility.yul\":7056:7057   */\n      0x00\n        /* \"#utility.yul\":7049:7137   */\n      mstore\n        /* \"#utility.yul\":7156:7160   */\n      0x12\n        /* \"#utility.yul\":7153:7154   */\n      0x04\n        /* \"#utility.yul\":7146:7161   */\n      mstore\n        /* \"#utility.yul\":7180:7184   */\n      0x24\n        /* \"#utility.yul\":7177:7178   */\n      0x00\n        /* \"#utility.yul\":7170:7185   */\n      revert\n        /* \"#utility.yul\":7197:7382   */\n    tag_70:\n        /* \"#utility.yul\":7237:7238   */\n      0x00\n        /* \"#utility.yul\":7254:7274   */\n      tag_193\n        /* \"#utility.yul\":7272:7273   */\n      dup3\n        /* \"#utility.yul\":7254:7274   */\n      tag_100\n      jump\t// in\n    tag_193:\n        /* \"#utility.yul\":7249:7274   */\n      swap2\n      pop\n        /* \"#utility.yul\":7288:7308   */\n      tag_194\n        /* \"#utility.yul\":7306:7307   */\n      dup4\n        /* \"#utility.yul\":7288:7308   */\n      tag_100\n      jump\t// in\n    tag_194:\n        /* \"#utility.yul\":7283:7308   */\n      swap3\n      pop\n        /* \"#utility.yul\":7327:7328   */\n      dup3\n        /* \"#utility.yul\":7317:7352   */\n      tag_195\n      jumpi\n        /* \"#utility.yul\":7332:7350   */\n      tag_196\n      tag_115\n      jump\t// in\n    tag_196:\n        /* \"#utility.yul\":7317:7352   */\n    tag_195:\n        /* \"#utility.yul\":7374:7375   */\n      dup3\n        /* \"#utility.yul\":7371:7372   */\n      dup3\n        /* \"#utility.yul\":7367:7376   */\n      div\n        /* \"#utility.yul\":7362:7376   */\n      swap1\n      pop\n        /* \"#utility.yul\":7197:7382   */\n      swap3\n      swap2\n      pop\n      pop\n      jump\t// out\n        /* \"#utility.yul\":7388:7720   */\n    tag_74:\n        /* \"#utility.yul\":7509:7513   */\n      0x00\n        /* \"#utility.yul\":7547:7549   */\n      0x40\n        /* \"#utility.yul\":7536:7545   */\n      dup3\n        /* \"#utility.yul\":7532:7550   */\n      add\n        /* \"#utility.yul\":7524:7550   */\n      swap1\n      pop\n        /* \"#utility.yul\":7560:7631   */\n      tag_198\n        /* \"#utility.yul\":7628:7629   */\n      0x00\n        /* \"#utility.yul\":7617:7626   */\n      dup4\n        /* \"#utility.yul\":7613:7630   */\n      add\n        /* \"#utility.yul\":7604:7610   */\n      dup6\n        /* \"#utility.yul\":7560:7631   */\n      tag_96\n      jump\t// in\n    tag_198:\n        /* \"#utility.yul\":7641:7713   */\n      tag_199\n        /* \"#utility.yul\":7709:7711   */\n      0x20\n        /* \"#utility.yul\":7698:7707   */\n      dup4\n        /* \"#utility.yul\":7694:7712   */\n      add\n        /* \"#utility.yul\":7685:7691   */\n      dup5\n        /* \"#utility.yul\":7641:7713   */\n      tag_103\n      jump\t// in\n    tag_199:\n        /* \"#utility.yul\":7388:7720   */\n      swap4\n      swap3\n      pop\n      pop\n      pop\n      jump\t// out\n        /* \"#utility.yul\":7726:7811   */\n    tag_116:\n        /* \"#utility.yul\":7771:7778   */\n      0x00\n        /* \"#utility.yul\":7800:7805   */\n      dup2\n        /* \"#utility.yul\":7789:7805   */\n      swap1\n      pop\n        /* \"#utility.yul\":7726:7811   */\n      swap2\n      swap1\n      pop\n      jump\t// out\n        /* \"#utility.yul\":7817:7877   */\n    tag_117:\n        /* \"#utility.yul\":7845:7848   */\n      0x00\n        /* \"#utility.yul\":7866:7871   */\n      dup2\n        /* \"#utility.yul\":7859:7871   */\n      swap1\n      pop\n        /* \"#utility.yul\":7817:7877   */\n      swap2\n      swap1\n      pop\n      jump\t// out\n        /* \"#utility.yul\":7883:8041   */\n    tag_118:\n        /* \"#utility.yul\":7941:7950   */\n      0x00\n        /* \"#utility.yul\":7974:8035   */\n      tag_203\n        /* \"#utility.yul\":7992:8034   */\n      tag_204\n        /* \"#utility.yul\":8001:8033   */\n      tag_205\n        /* \"#utility.yul\":8027:8032   */\n      dup5\n        /* \"#utility.yul\":8001:8033   */\n      tag_116\n      jump\t// in\n    tag_205:\n        /* \"#utility.yul\":7992:8034   */\n      tag_117\n      jump\t// in\n    tag_204:\n        /* \"#utility.yul\":7974:8035   */\n      tag_100\n      jump\t// in\n    tag_203:\n        /* \"#utility.yul\":7961:8035   */\n      swap1\n      pop\n        /* \"#utility.yul\":7883:8041   */\n      swap2\n      swap1\n      pop\n      jump\t// out\n        /* \"#utility.yul\":8047:8194   */\n    tag_119:\n        /* \"#utility.yul\":8142:8187   */\n      tag_207\n        /* \"#utility.yul\":8181:8186   */\n      dup2\n        /* \"#utility.yul\":8142:8187   */\n      tag_118\n      jump\t// in\n    tag_207:\n        /* \"#utility.yul\":8137:8140   */\n      dup3\n        /* \"#utility.yul\":8130:8188   */\n      mstore\n        /* \"#utility.yul\":8047:8194   */\n      pop\n      pop\n      jump\t// out\n        /* \"#utility.yul\":8200:9229   */\n    tag_87:\n        /* \"#utility.yul\":8505:8509   */\n      0x00\n        /* \"#utility.yul\":8543:8546   */\n      0x0100\n        /* \"#utility.yul\":8532:8541   */\n      dup3\n        /* \"#utility.yul\":8528:8547   */\n      add\n        /* \"#utility.yul\":8520:8547   */\n      swap1\n      pop\n        /* \"#utility.yul\":8557:8628   */\n      tag_209\n        /* \"#utility.yul\":8625:8626   */\n      0x00\n        /* \"#utility.yul\":8614:8623   */\n      dup4\n        /* \"#utility.yul\":8610:8627   */\n      add\n        /* \"#utility.yul\":8601:8607   */\n      dup12\n        /* \"#utility.yul\":8557:8628   */\n      tag_96\n      jump\t// in\n    tag_209:\n        /* \"#utility.yul\":8638:8710   */\n      tag_210\n        /* \"#utility.yul\":8706:8708   */\n      0x20\n        /* \"#utility.yul\":8695:8704   */\n      dup4\n        /* \"#utility.yul\":8691:8709   */\n      add\n        /* \"#utility.yul\":8682:8688   */\n      dup11\n        /* \"#utility.yul\":8638:8710   */\n      tag_96\n      jump\t// in\n    tag_210:\n        /* \"#utility.yul\":8720:8792   */\n      tag_211\n        /* \"#utility.yul\":8788:8790   */\n      0x40\n        /* \"#utility.yul\":8777:8786   */\n      dup4\n        /* \"#utility.yul\":8773:8791   */\n      add\n        /* \"#utility.yul\":8764:8770   */\n      dup10\n        /* \"#utility.yul\":8720:8792   */\n      tag_103\n      jump\t// in\n    tag_211:\n        /* \"#utility.yul\":8802:8874   */\n      tag_212\n        /* \"#utility.yul\":8870:8872   */\n      0x60\n        /* \"#utility.yul\":8859:8868   */\n      dup4\n        /* \"#utility.yul\":8855:8873   */\n      add\n        /* \"#utility.yul\":8846:8852   */\n      dup9\n        /* \"#utility.yul\":8802:8874   */\n      tag_103\n      jump\t// in\n    tag_212:\n        /* \"#utility.yul\":8884:8965   */\n      tag_213\n        /* \"#utility.yul\":8960:8963   */\n      0x80\n        /* \"#utility.yul\":8949:8958   */\n      dup4\n        /* \"#utility.yul\":8945:8964   */\n      add\n        /* \"#utility.yul\":8936:8942   */\n      dup8\n        /* \"#utility.yul\":8884:8965   */\n      tag_119\n      jump\t// in\n    tag_213:\n        /* \"#utility.yul\":8975:9056   */\n      tag_214\n        /* \"#utility.yul\":9051:9054   */\n      0xa0\n        /* \"#utility.yul\":9040:9049   */\n      dup4\n        /* \"#utility.yul\":9036:9055   */\n      add\n        /* \"#utility.yul\":9027:9033   */\n      dup7\n        /* \"#utility.yul\":8975:9056   */\n      tag_119\n      jump\t// in\n    tag_214:\n        /* \"#utility.yul\":9066:9139   */\n      tag_215\n        /* \"#utility.yul\":9134:9137   */\n      0xc0\n        /* \"#utility.yul\":9123:9132   */\n      dup4\n        /* \"#utility.yul\":9119:9138   */\n      add\n        /* \"#utility.yul\":9110:9116   */\n      dup6\n        /* \"#utility.yul\":9066:9139   */\n      tag_96\n      jump\t// in\n    tag_215:\n        /* \"#utility.yul\":9149:9222   */\n      tag_216\n        /* \"#utility.yul\":9217:9220   */\n      0xe0\n        /* \"#utility.yul\":9206:9215   */\n      dup4\n        /* \"#utility.yul\":9202:9221   */\n      add\n        /* \"#utility.yul\":9193:9199   */\n      dup5\n        /* \"#utility.yul\":9149:9222   */\n      tag_103\n      jump\t// in\n    tag_216:\n        /* \"#utility.yul\":8200:9229   */\n      swap10\n      swap9\n      pop\n      pop\n      pop\n      pop\n      pop\n      pop\n      pop\n      pop\n      pop\n      jump\t// out\n        /* \"#utility.yul\":9235:9378   */\n    tag_120:\n        /* \"#utility.yul\":9292:9297   */\n      0x00\n        /* \"#utility.yul\":9323:9329   */\n      dup2\n        /* \"#utility.yul\":9317:9330   */\n      mload\n        /* \"#utility.yul\":9308:9330   */\n      swap1\n      pop\n        /* \"#utility.yul\":9339:9372   */\n      tag_218\n        /* \"#utility.yul\":9366:9371   */\n      dup2\n        /* \"#utility.yul\":9339:9372   */\n      tag_101\n      jump\t// in\n    tag_218:\n        /* \"#utility.yul\":9235:9378   */\n      swap3\n      swap2\n      pop\n      pop\n      jump\t// out\n        /* \"#utility.yul\":9384:10047   */\n    tag_91:\n        /* \"#utility.yul\":9472:9478   */\n      0x00\n        /* \"#utility.yul\":9480:9486   */\n      dup1\n        /* \"#utility.yul\":9488:9494   */\n      0x00\n        /* \"#utility.yul\":9537:9539   */\n      0x60\n        /* \"#utility.yul\":9525:9534   */\n      dup5\n        /* \"#utility.yul\":9516:9523   */\n      dup7\n        /* \"#utility.yul\":9512:9535   */\n      sub\n        /* \"#utility.yul\":9508:9540   */\n      slt\n        /* \"#utility.yul\":9505:9624   */\n      iszero\n      tag_220\n      jumpi\n        /* \"#utility.yul\":9543:9622   */\n      tag_221\n      tag_98\n      jump\t// in\n    tag_221:\n        /* \"#utility.yul\":9505:9624   */\n    tag_220:\n        /* \"#utility.yul\":9663:9664   */\n      0x00\n        /* \"#utility.yul\":9688:9752   */\n      tag_222\n        /* \"#utility.yul\":9744:9751   */\n      dup7\n        /* \"#utility.yul\":9735:9741   */\n      dup3\n        /* \"#utility.yul\":9724:9733   */\n      dup8\n        /* \"#utility.yul\":9720:9742   */\n      add\n        /* \"#utility.yul\":9688:9752   */\n      tag_120\n      jump\t// in\n    tag_222:\n        /* \"#utility.yul\":9678:9752   */\n      swap4\n      pop\n        /* \"#utility.yul\":9634:9762   */\n      pop\n        /* \"#utility.yul\":9801:9803   */\n      0x20\n        /* \"#utility.yul\":9827:9891   */\n      tag_223\n        /* \"#utility.yul\":9883:9890   */\n      dup7\n        /* \"#utility.yul\":9874:9880   */\n      dup3\n        /* \"#utility.yul\":9863:9872   */\n      dup8\n        /* \"#utility.yul\":9859:9881   */\n      add\n        /* \"#utility.yul\":9827:9891   */\n      tag_120\n      jump\t// in\n    tag_223:\n        /* \"#utility.yul\":9817:9891   */\n      swap3\n      pop\n        /* \"#utility.yul\":9772:9901   */\n      pop\n        /* \"#utility.yul\":9940:9942   */\n      0x40\n        /* \"#utility.yul\":9966:10030   */\n      tag_224\n        /* \"#utility.yul\":10022:10029   */\n      dup7\n        /* \"#utility.yul\":10013:10019   */\n      dup3\n        /* \"#utility.yul\":10002:10011   */\n      dup8\n        /* \"#utility.yul\":9998:10020   */\n      add\n        /* \"#utility.yul\":9966:10030   */\n      tag_120\n      jump\t// in\n    tag_224:\n        /* \"#utility.yul\":9956:10030   */\n      swap2\n      pop\n        /* \"#utility.yul\":9911:10040   */\n      pop\n        /* \"#utility.yul\":9384:10047   */\n      swap3\n      pop\n      swap3\n      pop\n      swap3\n      jump\t// out\n        /* \"#utility.yul\":10053:10385   */\n    tag_93:\n        /* \"#utility.yul\":10174:10178   */\n      0x00\n        /* \"#utility.yul\":10212:10214   */\n      0x40\n        /* \"#utility.yul\":10201:10210   */\n      dup3\n        /* \"#utility.yul\":10197:10215   */\n      add\n        /* \"#utility.yul\":10189:10215   */\n      swap1\n      pop\n        /* \"#utility.yul\":10225:10296   */\n      tag_226\n        /* \"#utility.yul\":10293:10294   */\n      0x00\n        /* \"#utility.yul\":10282:10291   */\n      dup4\n        /* \"#utility.yul\":10278:10295   */\n      add\n        /* \"#utility.yul\":10269:10275   */\n      dup6\n        /* \"#utility.yul\":10225:10296   */\n      tag_103\n      jump\t// in\n    tag_226:\n        /* \"#utility.yul\":10306:10378   */\n      tag_227\n        /* \"#utility.yul\":10374:10376   */\n      0x20\n        /* \"#utility.yul\":10363:10372   */\n      dup4\n        /* \"#utility.yul\":10359:10377   */\n      add\n        /* \"#utility.yul\":10350:10356   */\n      dup5\n        /* \"#utility.yul\":10306:10378   */\n      tag_103\n      jump\t// in\n    tag_227:\n        /* \"#utility.yul\":10053:10385   */\n      swap4\n      swap3\n      pop\n      pop\n      pop\n      jump\t// out\n\n    auxdata: 0xa264697066735822122098cc02bc5805b71c0458b285e37cf1e84bad9a176385e7a2875e79fb155ce73464736f6c63430008160033\n}\n",
				"bytecode": {
					"linkReferences": {},
					"object": "60806040526005600455670de0b6b3a764000060055534801562000021575f80fd5b5060405162000fb438038062000fb48339818101604052810190620000479190620001b4565b335f806101000a81548173ffffffffffffffffffffffffffffffffffffffff021916908373ffffffffffffffffffffffffffffffffffffffff1602179055508260015f6101000a81548173ffffffffffffffffffffffffffffffffffffffff021916908373ffffffffffffffffffffffffffffffffffffffff1602179055508160025f6101000a81548173ffffffffffffffffffffffffffffffffffffffff021916908373ffffffffffffffffffffffffffffffffffffffff1602179055508060035f6101000a81548173ffffffffffffffffffffffffffffffffffffffff021916908373ffffffffffffffffffffffffffffffffffffffff1602179055505050506200020d565b5f80fd5b5f73ffffffffffffffffffffffffffffffffffffffff82169050919050565b5f6200017e8262000153565b9050919050565b620001908162000172565b81146200019b575f80fd5b50565b5f81519050620001ae8162000185565b92915050565b5f805f60608486031215620001ce57620001cd6200014f565b5b5f620001dd868287016200019e565b9350506020620001f0868287016200019e565b925050604062000203868287016200019e565b9150509250925092565b610d99806200021b5f395ff3fe608060405234801561000f575f80fd5b5060043610610091575f3560e01c80637c69febd116100645780637c69febd1461010b5780638da5cb5b146101275780639940686e14610145578063dc38679c14610161578063e6c0e6d51461017f57610091565b80633a6eb3df146100955780633fc8cef3146100b35780636a64eff8146100d1578063735de9f7146100ed575b5f80fd5b61009d61019d565b6040516100aa9190610875565b60405180910390f35b6100bb6101c2565b6040516100c89190610875565b60405180910390f35b6100eb60048036038101906100e691906108c5565b6101e7565b005b6100f561027e565b6040516101029190610875565b60405180910390f35b610125600480360381019061012091906108c5565b6102a3565b005b61012f61037e565b60405161013c9190610875565b60405180910390f35b61015f600480360381019061015a91906108c5565b6103a1565b005b61016961082a565b60405161017691906108ff565b60405180910390f35b610187610830565b60405161019491906108ff565b60405180910390f35b60025f9054906101000a900473ffffffffffffffffffffffffffffffffffffffff1681565b60015f9054906101000a900473ffffffffffffffffffffffffffffffffffffffff1681565b5f8054906101000a900473ffffffffffffffffffffffffffffffffffffffff1673ffffffffffffffffffffffffffffffffffffffff163373ffffffffffffffffffffffffffffffffffffffff1614610274576040517f08c379a000000000000000000000000000000000000000000000000000000000815260040161026b90610972565b60405180910390fd5b8060058190555050565b60035f9054906101000a900473ffffffffffffffffffffffffffffffffffffffff1681565b5f8054906101000a900473ffffffffffffffffffffffffffffffffffffffff1673ffffffffffffffffffffffffffffffffffffffff163373ffffffffffffffffffffffffffffffffffffffff1614610330576040517f08c379a000000000000000000000000000000000000000000000000000000000815260040161032790610972565b60405180910390fd5b6064811115610374576040517f08c379a000000000000000000000000000000000000000000000000000000000815260040161036b906109da565b60405180910390fd5b8060048190555050565b5f8054906101000a900473ffffffffffffffffffffffffffffffffffffffff1681565b5f81116103e3576040517f08c379a00000000000000000000000000000000000000000000000000000000081526004016103da90610a42565b60405180910390fd5b60015f9054906101000a900473ffffffffffffffffffffffffffffffffffffffff1673ffffffffffffffffffffffffffffffffffffffff166323b872dd3330846040518463ffffffff1660e01b815260040161044193929190610a60565b6020604051808303815f875af115801561045d573d5f803e3d5ffd5b505050506040513d601f19601f820116820180604052508101906104819190610aca565b505f606460045460646104949190610b22565b6005546104a19190610b55565b6104ab9190610bc3565b90505f81670de0b6b3a7640000846104c39190610b55565b6104cd9190610bc3565b905060025f9054906101000a900473ffffffffffffffffffffffffffffffffffffffff1673ffffffffffffffffffffffffffffffffffffffff1663a9059cbb33836040518363ffffffff1660e01b815260040161052b929190610bf3565b6020604051808303815f875af1158015610547573d5f803e3d5ffd5b505050506040513d601f19601f8201168201806040525081019061056b9190610aca565b5060025f9054906101000a900473ffffffffffffffffffffffffffffffffffffffff1673ffffffffffffffffffffffffffffffffffffffff1663095ea7b360035f9054906101000a900473ffffffffffffffffffffffffffffffffffffffff16836040518363ffffffff1660e01b81526004016105e9929190610bf3565b6020604051808303815f875af1158015610605573d5f803e3d5ffd5b505050506040513d601f19601f820116820180604052508101906106299190610aca565b5060015f9054906101000a900473ffffffffffffffffffffffffffffffffffffffff1673ffffffffffffffffffffffffffffffffffffffff1663095ea7b360035f9054906101000a900473ffffffffffffffffffffffffffffffffffffffff16856040518363ffffffff1660e01b81526004016106a7929190610bf3565b6020604051808303815f875af11580156106c3573d5f803e3d5ffd5b505050506040513d601f19601f820116820180604052508101906106e79190610aca565b5060035f9054906101000a900473ffffffffffffffffffffffffffffffffffffffff1673ffffffffffffffffffffffffffffffffffffffff1663e8e3370060015f9054906101000a900473ffffffffffffffffffffffffffffffffffffffff1660025f9054906101000a900473ffffffffffffffffffffffffffffffffffffffff1686855f8030426040518963ffffffff1660e01b8152600401610792989796959493929190610c5c565b6060604051808303815f875af11580156107ae573d5f803e3d5ffd5b505050506040513d601f19601f820116820180604052508101906107d29190610cec565b5050503373ffffffffffffffffffffffffffffffffffffffff167f0db13e87b3f9c3b8f5f3acad928df55c52ba6bf7795af4ec069de5e23caacb37848360405161081d929190610d3c565b60405180910390a2505050565b60055481565b60045481565b5f73ffffffffffffffffffffffffffffffffffffffff82169050919050565b5f61085f82610836565b9050919050565b61086f81610855565b82525050565b5f6020820190506108885f830184610866565b92915050565b5f80fd5b5f819050919050565b6108a481610892565b81146108ae575f80fd5b50565b5f813590506108bf8161089b565b92915050565b5f602082840312156108da576108d961088e565b5b5f6108e7848285016108b1565b91505092915050565b6108f981610892565b82525050565b5f6020820190506109125f8301846108f0565b92915050565b5f82825260208201905092915050565b7f4e6f7420617574686f72697a65640000000000000000000000000000000000005f82015250565b5f61095c600e83610918565b915061096782610928565b602082019050919050565b5f6020820190508181035f83015261098981610950565b9050919050565b7f496e76616c696420646973636f756e74207261746500000000000000000000005f82015250565b5f6109c4601583610918565b91506109cf82610990565b602082019050919050565b5f6020820190508181035f8301526109f1816109b8565b9050919050565b7f4d757374206465706f73697420574554480000000000000000000000000000005f82015250565b5f610a2c601183610918565b9150610a37826109f8565b602082019050919050565b5f6020820190508181035f830152610a5981610a20565b9050919050565b5f606082019050610a735f830186610866565b610a806020830185610866565b610a8d60408301846108f0565b949350505050565b5f8115159050919050565b610aa981610a95565b8114610ab3575f80fd5b50565b5f81519050610ac481610aa0565b92915050565b5f60208284031215610adf57610ade61088e565b5b5f610aec84828501610ab6565b91505092915050565b7f4e487b71000000000000000000000000000000000000000000000000000000005f52601160045260245ffd5b5f610b2c82610892565b9150610b3783610892565b9250828203905081811115610b4f57610b4e610af5565b5b92915050565b5f610b5f82610892565b9150610b6a83610892565b9250828202610b7881610892565b91508282048414831517610b8f57610b8e610af5565b5b5092915050565b7f4e487b71000000000000000000000000000000000000000000000000000000005f52601260045260245ffd5b5f610bcd82610892565b9150610bd883610892565b925082610be857610be7610b96565b5b828204905092915050565b5f604082019050610c065f830185610866565b610c1360208301846108f0565b9392505050565b5f819050919050565b5f819050919050565b5f610c46610c41610c3c84610c1a565b610c23565b610892565b9050919050565b610c5681610c2c565b82525050565b5f61010082019050610c705f83018b610866565b610c7d602083018a610866565b610c8a60408301896108f0565b610c9760608301886108f0565b610ca46080830187610c4d565b610cb160a0830186610c4d565b610cbe60c0830185610866565b610ccb60e08301846108f0565b9998505050505050505050565b5f81519050610ce68161089b565b92915050565b5f805f60608486031215610d0357610d0261088e565b5b5f610d1086828701610cd8565b9350506020610d2186828701610cd8565b9250506040610d3286828701610cd8565b9150509250925092565b5f604082019050610d4f5f8301856108f0565b610d5c60208301846108f0565b939250505056fea264697066735822122098cc02bc5805b71c0458b285e37cf1e84bad9a176385e7a2875e79fb155ce73464736f6c63430008160033",
					"opcodes": "PUSH1 0x80 PUSH1 0x40 MSTORE PUSH1 0x5 PUSH1 0x4 SSTORE PUSH8 0xDE0B6B3A7640000 PUSH1 0x5 SSTORE CALLVALUE DUP1 ISZERO PUSH3 0x21 JUMPI PUSH0 DUP1 REVERT JUMPDEST POP PUSH1 0x40 MLOAD PUSH3 0xFB4 CODESIZE SUB DUP1 PUSH3 0xFB4 DUP4 CODECOPY DUP2 DUP2 ADD PUSH1 0x40 MSTORE DUP2 ADD SWAP1 PUSH3 0x47 SWAP2 SWAP1 PUSH3 0x1B4 JUMP JUMPDEST CALLER PUSH0 DUP1 PUSH2 0x100 EXP DUP2 SLOAD DUP2 PUSH20 0xFFFFFFFFFFFFFFFFFFFFFFFFFFFFFFFFFFFFFFFF MUL NOT AND SWAP1 DUP4 PUSH20 0xFFFFFFFFFFFFFFFFFFFFFFFFFFFFFFFFFFFFFFFF AND MUL OR SWAP1 SSTORE POP DUP3 PUSH1 0x1 PUSH0 PUSH2 0x100 EXP DUP2 SLOAD DUP2 PUSH20 0xFFFFFFFFFFFFFFFFFFFFFFFFFFFFFFFFFFFFFFFF MUL NOT AND SWAP1 DUP4 PUSH20 0xFFFFFFFFFFFFFFFFFFFFFFFFFFFFFFFFFFFFFFFF AND MUL OR SWAP1 SSTORE POP DUP2 PUSH1 0x2 PUSH0 PUSH2 0x100 EXP DUP2 SLOAD DUP2 PUSH20 0xFFFFFFFFFFFFFFFFFFFFFFFFFFFFFFFFFFFFFFFF MUL NOT AND SWAP1 DUP4 PUSH20 0xFFFFFFFFFFFFFFFFFFFFFFFFFFFFFFFFFFFFFFFF AND MUL OR SWAP1 SSTORE POP DUP1 PUSH1 0x3 PUSH0 PUSH2 0x100 EXP DUP2 SLOAD DUP2 PUSH20 0xFFFFFFFFFFFFFFFFFFFFFFFFFFFFFFFFFFFFFFFF MUL NOT AND SWAP1 DUP4 PUSH20 0xFFFFFFFFFFFFFFFFFFFFFFFFFFFFFFFFFFFFFFFF AND MUL OR SWAP1 SSTORE POP POP POP POP PUSH3 0x20D JUMP JUMPDEST PUSH0 DUP1 REVERT JUMPDEST PUSH0 PUSH20 0xFFFFFFFFFFFFFFFFFFFFFFFFFFFFFFFFFFFFFFFF DUP3 AND SWAP1 POP SWAP2 SWAP1 POP JUMP JUMPDEST PUSH0 PUSH3 0x17E DUP3 PUSH3 0x153 JUMP JUMPDEST SWAP1 POP SWAP2 SWAP1 POP JUMP JUMPDEST PUSH3 0x190 DUP2 PUSH3 0x172 JUMP JUMPDEST DUP2 EQ PUSH3 0x19B JUMPI PUSH0 DUP1 REVERT JUMPDEST POP JUMP JUMPDEST PUSH0 DUP2 MLOAD SWAP1 POP PUSH3 0x1AE DUP2 PUSH3 0x185 JUMP JUMPDEST SWAP3 SWAP2 POP POP JUMP JUMPDEST PUSH0 DUP1 PUSH0 PUSH1 0x60 DUP5 DUP7 SUB SLT ISZERO PUSH3 0x1CE JUMPI PUSH3 0x1CD PUSH3 0x14F JUMP JUMPDEST JUMPDEST PUSH0 PUSH3 0x1DD DUP7 DUP3 DUP8 ADD PUSH3 0x19E JUMP JUMPDEST SWAP4 POP POP PUSH1 0x20 PUSH3 0x1F0 DUP7 DUP3 DUP8 ADD PUSH3 0x19E JUMP JUMPDEST SWAP3 POP POP PUSH1 0x40 PUSH3 0x203 DUP7 DUP3 DUP8 ADD PUSH3 0x19E JUMP JUMPDEST SWAP2 POP POP SWAP3 POP SWAP3 POP SWAP3 JUMP JUMPDEST PUSH2 0xD99 DUP1 PUSH3 0x21B PUSH0 CODECOPY PUSH0 RETURN INVALID PUSH1 0x80 PUSH1 0x40 MSTORE CALLVALUE DUP1 ISZERO PUSH2 0xF JUMPI PUSH0 DUP1 REVERT JUMPDEST POP PUSH1 0x4 CALLDATASIZE LT PUSH2 0x91 JUMPI PUSH0 CALLDATALOAD PUSH1 0xE0 SHR DUP1 PUSH4 0x7C69FEBD GT PUSH2 0x64 JUMPI DUP1 PUSH4 0x7C69FEBD EQ PUSH2 0x10B JUMPI DUP1 PUSH4 0x8DA5CB5B EQ PUSH2 0x127 JUMPI DUP1 PUSH4 0x9940686E EQ PUSH2 0x145 JUMPI DUP1 PUSH4 0xDC38679C EQ PUSH2 0x161 JUMPI DUP1 PUSH4 0xE6C0E6D5 EQ PUSH2 0x17F JUMPI PUSH2 0x91 JUMP JUMPDEST DUP1 PUSH4 0x3A6EB3DF EQ PUSH2 0x95 JUMPI DUP1 PUSH4 0x3FC8CEF3 EQ PUSH2 0xB3 JUMPI DUP1 PUSH4 0x6A64EFF8 EQ PUSH2 0xD1 JUMPI DUP1 PUSH4 0x735DE9F7 EQ PUSH2 0xED JUMPI JUMPDEST PUSH0 DUP1 REVERT JUMPDEST PUSH2 0x9D PUSH2 0x19D JUMP JUMPDEST PUSH1 0x40 MLOAD PUSH2 0xAA SWAP2 SWAP1 PUSH2 0x875 JUMP JUMPDEST PUSH1 0x40 MLOAD DUP1 SWAP2 SUB SWAP1 RETURN JUMPDEST PUSH2 0xBB PUSH2 0x1C2 JUMP JUMPDEST PUSH1 0x40 MLOAD PUSH2 0xC8 SWAP2 SWAP1 PUSH2 0x875 JUMP JUMPDEST PUSH1 0x40 MLOAD DUP1 SWAP2 SUB SWAP1 RETURN JUMPDEST PUSH2 0xEB PUSH1 0x4 DUP1 CALLDATASIZE SUB DUP2 ADD SWAP1 PUSH2 0xE6 SWAP2 SWAP1 PUSH2 0x8C5 JUMP JUMPDEST PUSH2 0x1E7 JUMP JUMPDEST STOP JUMPDEST PUSH2 0xF5 PUSH2 0x27E JUMP JUMPDEST PUSH1 0x40 MLOAD PUSH2 0x102 SWAP2 SWAP1 PUSH2 0x875 JUMP JUMPDEST PUSH1 0x40 MLOAD DUP1 SWAP2 SUB SWAP1 RETURN JUMPDEST PUSH2 0x125 PUSH1 0x4 DUP1 CALLDATASIZE SUB DUP2 ADD SWAP1 PUSH2 0x120 SWAP2 SWAP1 PUSH2 0x8C5 JUMP JUMPDEST PUSH2 0x2A3 JUMP JUMPDEST STOP JUMPDEST PUSH2 0x12F PUSH2 0x37E JUMP JUMPDEST PUSH1 0x40 MLOAD PUSH2 0x13C SWAP2 SWAP1 PUSH2 0x875 JUMP JUMPDEST PUSH1 0x40 MLOAD DUP1 SWAP2 SUB SWAP1 RETURN JUMPDEST PUSH2 0x15F PUSH1 0x4 DUP1 CALLDATASIZE SUB DUP2 ADD SWAP1 PUSH2 0x15A SWAP2 SWAP1 PUSH2 0x8C5 JUMP JUMPDEST PUSH2 0x3A1 JUMP JUMPDEST STOP JUMPDEST PUSH2 0x169 PUSH2 0x82A JUMP JUMPDEST PUSH1 0x40 MLOAD PUSH2 0x176 SWAP2 SWAP1 PUSH2 0x8FF JUMP JUMPDEST PUSH1 0x40 MLOAD DUP1 SWAP2 SUB SWAP1 RETURN JUMPDEST PUSH2 0x187 PUSH2 0x830 JUMP JUMPDEST PUSH1 0x40 MLOAD PUSH2 0x194 SWAP2 SWAP1 PUSH2 0x8FF JUMP JUMPDEST PUSH1 0x40 MLOAD DUP1 SWAP2 SUB SWAP1 RETURN JUMPDEST PUSH1 0x2 PUSH0 SWAP1 SLOAD SWAP1 PUSH2 0x100 EXP SWAP1 DIV PUSH20 0xFFFFFFFFFFFFFFFFFFFFFFFFFFFFFFFFFFFFFFFF AND DUP2 JUMP JUMPDEST PUSH1 0x1 PUSH0 SWAP1 SLOAD SWAP1 PUSH2 0x100 EXP SWAP1 DIV PUSH20 0xFFFFFFFFFFFFFFFFFFFFFFFFFFFFFFFFFFFFFFFF AND DUP2 JUMP JUMPDEST PUSH0 DUP1 SLOAD SWAP1 PUSH2 0x100 EXP SWAP1 DIV PUSH20 0xFFFFFFFFFFFFFFFFFFFFFFFFFFFFFFFFFFFFFFFF AND PUSH20 0xFFFFFFFFFFFFFFFFFFFFFFFFFFFFFFFFFFFFFFFF AND CALLER PUSH20 0xFFFFFFFFFFFFFFFFFFFFFFFFFFFFFFFFFFFFFFFF AND EQ PUSH2 0x274 JUMPI PUSH1 0x40 MLOAD PUSH32 0x8C379A000000000000000000000000000000000000000000000000000000000 DUP2 MSTORE PUSH1 0x4 ADD PUSH2 0x26B SWAP1 PUSH2 0x972 JUMP JUMPDEST PUSH1 0x40 MLOAD DUP1 SWAP2 SUB SWAP1 REVERT JUMPDEST DUP1 PUSH1 0x5 DUP2 SWAP1 SSTORE POP POP JUMP JUMPDEST PUSH1 0x3 PUSH0 SWAP1 SLOAD SWAP1 PUSH2 0x100 EXP SWAP1 DIV PUSH20 0xFFFFFFFFFFFFFFFFFFFFFFFFFFFFFFFFFFFFFFFF AND DUP2 JUMP JUMPDEST PUSH0 DUP1 SLOAD SWAP1 PUSH2 0x100 EXP SWAP1 DIV PUSH20 0xFFFFFFFFFFFFFFFFFFFFFFFFFFFFFFFFFFFFFFFF AND PUSH20 0xFFFFFFFFFFFFFFFFFFFFFFFFFFFFFFFFFFFFFFFF AND CALLER PUSH20 0xFFFFFFFFFFFFFFFFFFFFFFFFFFFFFFFFFFFFFFFF AND EQ PUSH2 0x330 JUMPI PUSH1 0x40 MLOAD PUSH32 0x8C379A000000000000000000000000000000000000000000000000000000000 DUP2 MSTORE PUSH1 0x4 ADD PUSH2 0x327 SWAP1 PUSH2 0x972 JUMP JUMPDEST PUSH1 0x40 MLOAD DUP1 SWAP2 SUB SWAP1 REVERT JUMPDEST PUSH1 0x64 DUP2 GT ISZERO PUSH2 0x374 JUMPI PUSH1 0x40 MLOAD PUSH32 0x8C379A000000000000000000000000000000000000000000000000000000000 DUP2 MSTORE PUSH1 0x4 ADD PUSH2 0x36B SWAP1 PUSH2 0x9DA JUMP JUMPDEST PUSH1 0x40 MLOAD DUP1 SWAP2 SUB SWAP1 REVERT JUMPDEST DUP1 PUSH1 0x4 DUP2 SWAP1 SSTORE POP POP JUMP JUMPDEST PUSH0 DUP1 SLOAD SWAP1 PUSH2 0x100 EXP SWAP1 DIV PUSH20 0xFFFFFFFFFFFFFFFFFFFFFFFFFFFFFFFFFFFFFFFF AND DUP2 JUMP JUMPDEST PUSH0 DUP2 GT PUSH2 0x3E3 JUMPI PUSH1 0x40 MLOAD PUSH32 0x8C379A000000000000000000000000000000000000000000000000000000000 DUP2 MSTORE PUSH1 0x4 ADD PUSH2 0x3DA SWAP1 PUSH2 0xA42 JUMP JUMPDEST PUSH1 0x40 MLOAD DUP1 SWAP2 SUB SWAP1 REVERT JUMPDEST PUSH1 0x1 PUSH0 SWAP1 SLOAD SWAP1 PUSH2 0x100 EXP SWAP1 DIV PUSH20 0xFFFFFFFFFFFFFFFFFFFFFFFFFFFFFFFFFFFFFFFF AND PUSH20 0xFFFFFFFFFFFFFFFFFFFFFFFFFFFFFFFFFFFFFFFF AND PUSH4 0x23B872DD CALLER ADDRESS DUP5 PUSH1 0x40 MLOAD DUP5 PUSH4 0xFFFFFFFF AND PUSH1 0xE0 SHL DUP2 MSTORE PUSH1 0x4 ADD PUSH2 0x441 SWAP4 SWAP3 SWAP2 SWAP1 PUSH2 0xA60 JUMP JUMPDEST PUSH1 0x20 PUSH1 0x40 MLOAD DUP1 DUP4 SUB DUP2 PUSH0 DUP8 GAS CALL ISZERO DUP1 ISZERO PUSH2 0x45D JUMPI RETURNDATASIZE PUSH0 DUP1 RETURNDATACOPY RETURNDATASIZE PUSH0 REVERT JUMPDEST POP POP POP POP PUSH1 0x40 MLOAD RETURNDATASIZE PUSH1 0x1F NOT PUSH1 0x1F DUP3 ADD AND DUP3 ADD DUP1 PUSH1 0x40 MSTORE POP DUP2 ADD SWAP1 PUSH2 0x481 SWAP2 SWAP1 PUSH2 0xACA JUMP JUMPDEST POP PUSH0 PUSH1 0x64 PUSH1 0x4 SLOAD PUSH1 0x64 PUSH2 0x494 SWAP2 SWAP1 PUSH2 0xB22 JUMP JUMPDEST PUSH1 0x5 SLOAD PUSH2 0x4A1 SWAP2 SWAP1 PUSH2 0xB55 JUMP JUMPDEST PUSH2 0x4AB SWAP2 SWAP1 PUSH2 0xBC3 JUMP JUMPDEST SWAP1 POP PUSH0 DUP2 PUSH8 0xDE0B6B3A7640000 DUP5 PUSH2 0x4C3 SWAP2 SWAP1 PUSH2 0xB55 JUMP JUMPDEST PUSH2 0x4CD SWAP2 SWAP1 PUSH2 0xBC3 JUMP JUMPDEST SWAP1 POP PUSH1 0x2 PUSH0 SWAP1 SLOAD SWAP1 PUSH2 0x100 EXP SWAP1 DIV PUSH20 0xFFFFFFFFFFFFFFFFFFFFFFFFFFFFFFFFFFFFFFFF AND PUSH20 0xFFFFFFFFFFFFFFFFFFFFFFFFFFFFFFFFFFFFFFFF AND PUSH4 0xA9059CBB CALLER DUP4 PUSH1 0x40 MLOAD DUP4 PUSH4 0xFFFFFFFF AND PUSH1 0xE0 SHL DUP2 MSTORE PUSH1 0x4 ADD PUSH2 0x52B SWAP3 SWAP2 SWAP1 PUSH2 0xBF3 JUMP JUMPDEST PUSH1 0x20 PUSH1 0x40 MLOAD DUP1 DUP4 SUB DUP2 PUSH0 DUP8 GAS CALL ISZERO DUP1 ISZERO PUSH2 0x547 JUMPI RETURNDATASIZE PUSH0 DUP1 RETURNDATACOPY RETURNDATASIZE PUSH0 REVERT JUMPDEST POP POP POP POP PUSH1 0x40 MLOAD RETURNDATASIZE PUSH1 0x1F NOT PUSH1 0x1F DUP3 ADD AND DUP3 ADD DUP1 PUSH1 0x40 MSTORE POP DUP2 ADD SWAP1 PUSH2 0x56B SWAP2 SWAP1 PUSH2 0xACA JUMP JUMPDEST POP PUSH1 0x2 PUSH0 SWAP1 SLOAD SWAP1 PUSH2 0x100 EXP SWAP1 DIV PUSH20 0xFFFFFFFFFFFFFFFFFFFFFFFFFFFFFFFFFFFFFFFF AND PUSH20 0xFFFFFFFFFFFFFFFFFFFFFFFFFFFFFFFFFFFFFFFF AND PUSH4 0x95EA7B3 PUSH1 0x3 PUSH0 SWAP1 SLOAD SWAP1 PUSH2 0x100 EXP SWAP1 DIV PUSH20 0xFFFFFFFFFFFFFFFFFFFFFFFFFFFFFFFFFFFFFFFF AND DUP4 PUSH1 0x40 MLOAD DUP4 PUSH4 0xFFFFFFFF AND PUSH1 0xE0 SHL DUP2 MSTORE PUSH1 0x4 ADD PUSH2 0x5E9 SWAP3 SWAP2 SWAP1 PUSH2 0xBF3 JUMP JUMPDEST PUSH1 0x20 PUSH1 0x40 MLOAD DUP1 DUP4 SUB DUP2 PUSH0 DUP8 GAS CALL ISZERO DUP1 ISZERO PUSH2 0x605 JUMPI RETURNDATASIZE PUSH0 DUP1 RETURNDATACOPY RETURNDATASIZE PUSH0 REVERT JUMPDEST POP POP POP POP PUSH1 0x40 MLOAD RETURNDATASIZE PUSH1 0x1F NOT PUSH1 0x1F DUP3 ADD AND DUP3 ADD DUP1 PUSH1 0x40 MSTORE POP DUP2 ADD SWAP1 PUSH2 0x629 SWAP2 SWAP1 PUSH2 0xACA JUMP JUMPDEST POP PUSH1 0x1 PUSH0 SWAP1 SLOAD SWAP1 PUSH2 0x100 EXP SWAP1 DIV PUSH20 0xFFFFFFFFFFFFFFFFFFFFFFFFFFFFFFFFFFFFFFFF AND PUSH20 0xFFFFFFFFFFFFFFFFFFFFFFFFFFFFFFFFFFFFFFFF AND PUSH4 0x95EA7B3 PUSH1 0x3 PUSH0 SWAP1 SLOAD SWAP1 PUSH2 0x100 EXP SWAP1 DIV PUSH20 0xFFFFFFFFFFFFFFFFFFFFFFFFFFFFFFFFFFFFFFFF AND DUP6 PUSH1 0x40 MLOAD DUP4 PUSH4 0xFFFFFFFF AND PUSH1 0xE0 SHL DUP2 MSTORE PUSH1 0x4 ADD PUSH2 0x6A7 SWAP3 SWAP2 SWAP1 PUSH2 0xBF3 JUMP JUMPDEST PUSH1 0x20 PUSH1 0x40 MLOAD DUP1 DUP4 SUB DUP2 PUSH0 DUP8 GAS CALL ISZERO DUP1 ISZERO PUSH2 0x6C3 JUMPI RETURNDATASIZE PUSH0 DUP1 RETURNDATACOPY RETURNDATASIZE PUSH0 REVERT JUMPDEST POP POP POP POP PUSH1 0x40 MLOAD RETURNDATASIZE PUSH1 0x1F NOT PUSH1 0x1F DUP3 ADD AND DUP3 ADD DUP1 PUSH1 0x40 MSTORE POP DUP2 ADD SWAP1 PUSH2 0x6E7 SWAP2 SWAP1 PUSH2 0xACA JUMP JUMPDEST POP PUSH1 0x3 PUSH0 SWAP1 SLOAD SWAP1 PUSH2 0x100 EXP SWAP1 DIV PUSH20 0xFFFFFFFFFFFFFFFFFFFFFFFFFFFFFFFFFFFFFFFF AND PUSH20 0xFFFFFFFFFFFFFFFFFFFFFFFFFFFFFFFFFFFFFFFF AND PUSH4 0xE8E33700 PUSH1 0x1 PUSH0 SWAP1 SLOAD SWAP1 PUSH2 0x100 EXP SWAP1 DIV PUSH20 0xFFFFFFFFFFFFFFFFFFFFFFFFFFFFFFFFFFFFFFFF AND PUSH1 0x2 PUSH0 SWAP1 SLOAD SWAP1 PUSH2 0x100 EXP SWAP1 DIV PUSH20 0xFFFFFFFFFFFFFFFFFFFFFFFFFFFFFFFFFFFFFFFF AND DUP7 DUP6 PUSH0 DUP1 ADDRESS TIMESTAMP PUSH1 0x40 MLOAD DUP10 PUSH4 0xFFFFFFFF AND PUSH1 0xE0 SHL DUP2 MSTORE PUSH1 0x4 ADD PUSH2 0x792 SWAP9 SWAP8 SWAP7 SWAP6 SWAP5 SWAP4 SWAP3 SWAP2 SWAP1 PUSH2 0xC5C JUMP JUMPDEST PUSH1 0x60 PUSH1 0x40 MLOAD DUP1 DUP4 SUB DUP2 PUSH0 DUP8 GAS CALL ISZERO DUP1 ISZERO PUSH2 0x7AE JUMPI RETURNDATASIZE PUSH0 DUP1 RETURNDATACOPY RETURNDATASIZE PUSH0 REVERT JUMPDEST POP POP POP POP PUSH1 0x40 MLOAD RETURNDATASIZE PUSH1 0x1F NOT PUSH1 0x1F DUP3 ADD AND DUP3 ADD DUP1 PUSH1 0x40 MSTORE POP DUP2 ADD SWAP1 PUSH2 0x7D2 SWAP2 SWAP1 PUSH2 0xCEC JUMP JUMPDEST POP POP POP CALLER PUSH20 0xFFFFFFFFFFFFFFFFFFFFFFFFFFFFFFFFFFFFFFFF AND PUSH32 0xDB13E87B3F9C3B8F5F3ACAD928DF55C52BA6BF7795AF4EC069DE5E23CAACB37 DUP5 DUP4 PUSH1 0x40 MLOAD PUSH2 0x81D SWAP3 SWAP2 SWAP1 PUSH2 0xD3C JUMP JUMPDEST PUSH1 0x40 MLOAD DUP1 SWAP2 SUB SWAP1 LOG2 POP POP POP JUMP JUMPDEST PUSH1 0x5 SLOAD DUP2 JUMP JUMPDEST PUSH1 0x4 SLOAD DUP2 JUMP JUMPDEST PUSH0 PUSH20 0xFFFFFFFFFFFFFFFFFFFFFFFFFFFFFFFFFFFFFFFF DUP3 AND SWAP1 POP SWAP2 SWAP1 POP JUMP JUMPDEST PUSH0 PUSH2 0x85F DUP3 PUSH2 0x836 JUMP JUMPDEST SWAP1 POP SWAP2 SWAP1 POP JUMP JUMPDEST PUSH2 0x86F DUP2 PUSH2 0x855 JUMP JUMPDEST DUP3 MSTORE POP POP JUMP JUMPDEST PUSH0 PUSH1 0x20 DUP3 ADD SWAP1 POP PUSH2 0x888 PUSH0 DUP4 ADD DUP5 PUSH2 0x866 JUMP JUMPDEST SWAP3 SWAP2 POP POP JUMP JUMPDEST PUSH0 DUP1 REVERT JUMPDEST PUSH0 DUP2 SWAP1 POP SWAP2 SWAP1 POP JUMP JUMPDEST PUSH2 0x8A4 DUP2 PUSH2 0x892 JUMP JUMPDEST DUP2 EQ PUSH2 0x8AE JUMPI PUSH0 DUP1 REVERT JUMPDEST POP JUMP JUMPDEST PUSH0 DUP2 CALLDATALOAD SWAP1 POP PUSH2 0x8BF DUP2 PUSH2 0x89B JUMP JUMPDEST SWAP3 SWAP2 POP POP JUMP JUMPDEST PUSH0 PUSH1 0x20 DUP3 DUP5 SUB SLT ISZERO PUSH2 0x8DA JUMPI PUSH2 0x8D9 PUSH2 0x88E JUMP JUMPDEST JUMPDEST PUSH0 PUSH2 0x8E7 DUP5 DUP3 DUP6 ADD PUSH2 0x8B1 JUMP JUMPDEST SWAP2 POP POP SWAP3 SWAP2 POP POP JUMP JUMPDEST PUSH2 0x8F9 DUP2 PUSH2 0x892 JUMP JUMPDEST DUP3 MSTORE POP POP JUMP JUMPDEST PUSH0 PUSH1 0x20 DUP3 ADD SWAP1 POP PUSH2 0x912 PUSH0 DUP4 ADD DUP5 PUSH2 0x8F0 JUMP JUMPDEST SWAP3 SWAP2 POP POP JUMP JUMPDEST PUSH0 DUP3 DUP3 MSTORE PUSH1 0x20 DUP3 ADD SWAP1 POP SWAP3 SWAP2 POP POP JUMP JUMPDEST PUSH32 0x4E6F7420617574686F72697A6564000000000000000000000000000000000000 PUSH0 DUP3 ADD MSTORE POP JUMP JUMPDEST PUSH0 PUSH2 0x95C PUSH1 0xE DUP4 PUSH2 0x918 JUMP JUMPDEST SWAP2 POP PUSH2 0x967 DUP3 PUSH2 0x928 JUMP JUMPDEST PUSH1 0x20 DUP3 ADD SWAP1 POP SWAP2 SWAP1 POP JUMP JUMPDEST PUSH0 PUSH1 0x20 DUP3 ADD SWAP1 POP DUP2 DUP2 SUB PUSH0 DUP4 ADD MSTORE PUSH2 0x989 DUP2 PUSH2 0x950 JUMP JUMPDEST SWAP1 POP SWAP2 SWAP1 POP JUMP JUMPDEST PUSH32 0x496E76616C696420646973636F756E7420726174650000000000000000000000 PUSH0 DUP3 ADD MSTORE POP JUMP JUMPDEST PUSH0 PUSH2 0x9C4 PUSH1 0x15 DUP4 PUSH2 0x918 JUMP JUMPDEST SWAP2 POP PUSH2 0x9CF DUP3 PUSH2 0x990 JUMP JUMPDEST PUSH1 0x20 DUP3 ADD SWAP1 POP SWAP2 SWAP1 POP JUMP JUMPDEST PUSH0 PUSH1 0x20 DUP3 ADD SWAP1 POP DUP2 DUP2 SUB PUSH0 DUP4 ADD MSTORE PUSH2 0x9F1 DUP2 PUSH2 0x9B8 JUMP JUMPDEST SWAP1 POP SWAP2 SWAP1 POP JUMP JUMPDEST PUSH32 0x4D757374206465706F7369742057455448000000000000000000000000000000 PUSH0 DUP3 ADD MSTORE POP JUMP JUMPDEST PUSH0 PUSH2 0xA2C PUSH1 0x11 DUP4 PUSH2 0x918 JUMP JUMPDEST SWAP2 POP PUSH2 0xA37 DUP3 PUSH2 0x9F8 JUMP JUMPDEST PUSH1 0x20 DUP3 ADD SWAP1 POP SWAP2 SWAP1 POP JUMP JUMPDEST PUSH0 PUSH1 0x20 DUP3 ADD SWAP1 POP DUP2 DUP2 SUB PUSH0 DUP4 ADD MSTORE PUSH2 0xA59 DUP2 PUSH2 0xA20 JUMP JUMPDEST SWAP1 POP SWAP2 SWAP1 POP JUMP JUMPDEST PUSH0 PUSH1 0x60 DUP3 ADD SWAP1 POP PUSH2 0xA73 PUSH0 DUP4 ADD DUP7 PUSH2 0x866 JUMP JUMPDEST PUSH2 0xA80 PUSH1 0x20 DUP4 ADD DUP6 PUSH2 0x866 JUMP JUMPDEST PUSH2 0xA8D PUSH1 0x40 DUP4 ADD DUP5 PUSH2 0x8F0 JUMP JUMPDEST SWAP5 SWAP4 POP POP POP POP JUMP JUMPDEST PUSH0 DUP2 ISZERO ISZERO SWAP1 POP SWAP2 SWAP1 POP JUMP JUMPDEST PUSH2 0xAA9 DUP2 PUSH2 0xA95 JUMP JUMPDEST DUP2 EQ PUSH2 0xAB3 JUMPI PUSH0 DUP1 REVERT JUMPDEST POP JUMP JUMPDEST PUSH0 DUP2 MLOAD SWAP1 POP PUSH2 0xAC4 DUP2 PUSH2 0xAA0 JUMP JUMPDEST SWAP3 SWAP2 POP POP JUMP JUMPDEST PUSH0 PUSH1 0x20 DUP3 DUP5 SUB SLT ISZERO PUSH2 0xADF JUMPI PUSH2 0xADE PUSH2 0x88E JUMP JUMPDEST JUMPDEST PUSH0 PUSH2 0xAEC DUP5 DUP3 DUP6 ADD PUSH2 0xAB6 JUMP JUMPDEST SWAP2 POP POP SWAP3 SWAP2 POP POP JUMP JUMPDEST PUSH32 0x4E487B7100000000000000000000000000000000000000000000000000000000 PUSH0 MSTORE PUSH1 0x11 PUSH1 0x4 MSTORE PUSH1 0x24 PUSH0 REVERT JUMPDEST PUSH0 PUSH2 0xB2C DUP3 PUSH2 0x892 JUMP JUMPDEST SWAP2 POP PUSH2 0xB37 DUP4 PUSH2 0x892 JUMP JUMPDEST SWAP3 POP DUP3 DUP3 SUB SWAP1 POP DUP2 DUP2 GT ISZERO PUSH2 0xB4F JUMPI PUSH2 0xB4E PUSH2 0xAF5 JUMP JUMPDEST JUMPDEST SWAP3 SWAP2 POP POP JUMP JUMPDEST PUSH0 PUSH2 0xB5F DUP3 PUSH2 0x892 JUMP JUMPDEST SWAP2 POP PUSH2 0xB6A DUP4 PUSH2 0x892 JUMP JUMPDEST SWAP3 POP DUP3 DUP3 MUL PUSH2 0xB78 DUP2 PUSH2 0x892 JUMP JUMPDEST SWAP2 POP DUP3 DUP3 DIV DUP5 EQ DUP4 ISZERO OR PUSH2 0xB8F JUMPI PUSH2 0xB8E PUSH2 0xAF5 JUMP JUMPDEST JUMPDEST POP SWAP3 SWAP2 POP POP JUMP JUMPDEST PUSH32 0x4E487B7100000000000000000000000000000000000000000000000000000000 PUSH0 MSTORE PUSH1 0x12 PUSH1 0x4 MSTORE PUSH1 0x24 PUSH0 REVERT JUMPDEST PUSH0 PUSH2 0xBCD DUP3 PUSH2 0x892 JUMP JUMPDEST SWAP2 POP PUSH2 0xBD8 DUP4 PUSH2 0x892 JUMP JUMPDEST SWAP3 POP DUP3 PUSH2 0xBE8 JUMPI PUSH2 0xBE7 PUSH2 0xB96 JUMP JUMPDEST JUMPDEST DUP3 DUP3 DIV SWAP1 POP SWAP3 SWAP2 POP POP JUMP JUMPDEST PUSH0 PUSH1 0x40 DUP3 ADD SWAP1 POP PUSH2 0xC06 PUSH0 DUP4 ADD DUP6 PUSH2 0x866 JUMP JUMPDEST PUSH2 0xC13 PUSH1 0x20 DUP4 ADD DUP5 PUSH2 0x8F0 JUMP JUMPDEST SWAP4 SWAP3 POP POP POP JUMP JUMPDEST PUSH0 DUP2 SWAP1 POP SWAP2 SWAP1 POP JUMP JUMPDEST PUSH0 DUP2 SWAP1 POP SWAP2 SWAP1 POP JUMP JUMPDEST PUSH0 PUSH2 0xC46 PUSH2 0xC41 PUSH2 0xC3C DUP5 PUSH2 0xC1A JUMP JUMPDEST PUSH2 0xC23 JUMP JUMPDEST PUSH2 0x892 JUMP JUMPDEST SWAP1 POP SWAP2 SWAP1 POP JUMP JUMPDEST PUSH2 0xC56 DUP2 PUSH2 0xC2C JUMP JUMPDEST DUP3 MSTORE POP POP JUMP JUMPDEST PUSH0 PUSH2 0x100 DUP3 ADD SWAP1 POP PUSH2 0xC70 PUSH0 DUP4 ADD DUP12 PUSH2 0x866 JUMP JUMPDEST PUSH2 0xC7D PUSH1 0x20 DUP4 ADD DUP11 PUSH2 0x866 JUMP JUMPDEST PUSH2 0xC8A PUSH1 0x40 DUP4 ADD DUP10 PUSH2 0x8F0 JUMP JUMPDEST PUSH2 0xC97 PUSH1 0x60 DUP4 ADD DUP9 PUSH2 0x8F0 JUMP JUMPDEST PUSH2 0xCA4 PUSH1 0x80 DUP4 ADD DUP8 PUSH2 0xC4D JUMP JUMPDEST PUSH2 0xCB1 PUSH1 0xA0 DUP4 ADD DUP7 PUSH2 0xC4D JUMP JUMPDEST PUSH2 0xCBE PUSH1 0xC0 DUP4 ADD DUP6 PUSH2 0x866 JUMP JUMPDEST PUSH2 0xCCB PUSH1 0xE0 DUP4 ADD DUP5 PUSH2 0x8F0 JUMP JUMPDEST SWAP10 SWAP9 POP POP POP POP POP POP POP POP POP JUMP JUMPDEST PUSH0 DUP2 MLOAD SWAP1 POP PUSH2 0xCE6 DUP2 PUSH2 0x89B JUMP JUMPDEST SWAP3 SWAP2 POP POP JUMP JUMPDEST PUSH0 DUP1 PUSH0 PUSH1 0x60 DUP5 DUP7 SUB SLT ISZERO PUSH2 0xD03 JUMPI PUSH2 0xD02 PUSH2 0x88E JUMP JUMPDEST JUMPDEST PUSH0 PUSH2 0xD10 DUP7 DUP3 DUP8 ADD PUSH2 0xCD8 JUMP JUMPDEST SWAP4 POP POP PUSH1 0x20 PUSH2 0xD21 DUP7 DUP3 DUP8 ADD PUSH2 0xCD8 JUMP JUMPDEST SWAP3 POP POP PUSH1 0x40 PUSH2 0xD32 DUP7 DUP3 DUP8 ADD PUSH2 0xCD8 JUMP JUMPDEST SWAP2 POP POP SWAP3 POP SWAP3 POP SWAP3 JUMP JUMPDEST PUSH0 PUSH1 0x40 DUP3 ADD SWAP1 POP PUSH2 0xD4F PUSH0 DUP4 ADD DUP6 PUSH2 0x8F0 JUMP JUMPDEST PUSH2 0xD5C PUSH1 0x20 DUP4 ADD DUP5 PUSH2 0x8F0 JUMP JUMPDEST SWAP4 SWAP3 POP POP POP JUMP INVALID LOG2 PUSH5 0x6970667358 0x22 SLT KECCAK256 SWAP9 0xCC MUL 0xBC PC SDIV 0xB7 SHR DIV PC 0xB2 DUP6 0xE3 PUSH29 0xF1E84BAD9A176385E7A2875E79FB155CE73464736F6C63430008160033 "
				},
				"gasEstimates": {
					"creation": {
						"codeDepositCost": "696200",
						"executionCost": "infinite",
						"totalCost": "infinite"
					},
					"external": {
						"bond(uint256)": "infinite",
						"discountRate()": "2513",
						"mlAMPL()": "2509",
						"owner()": "2527",
						"setDiscountRate(uint256)": "24707",
						"setTargetPrice(uint256)": "24726",
						"targetPrice()": "2491",
						"uniswapRouter()": "2575",
						"weth()": "2531"
					}
				},
				"methodIdentifiers": {
					"bond(uint256)": "9940686e",
					"discountRate()": "e6c0e6d5",
					"mlAMPL()": "3a6eb3df",
					"owner()": "8da5cb5b",
					"setDiscountRate(uint256)": "7c69febd",
					"setTargetPrice(uint256)": "6a64eff8",
					"targetPrice()": "dc38679c",
					"uniswapRouter()": "735de9f7",
					"weth()": "3fc8cef3"
				}
			},
			"storageLayout": {
				"storage": [
					{
						"astId": 76,
						"contract": "bonding_contract.sol:Bonding",
						"label": "owner",
						"offset": 0,
						"slot": "0",
						"type": "t_address"
					},
					{
						"astId": 78,
						"contract": "bonding_contract.sol:Bonding",
						"label": "weth",
						"offset": 0,
						"slot": "1",
						"type": "t_address"
					},
					{
						"astId": 80,
						"contract": "bonding_contract.sol:Bonding",
						"label": "mlAMPL",
						"offset": 0,
						"slot": "2",
						"type": "t_address"
					},
					{
						"astId": 82,
						"contract": "bonding_contract.sol:Bonding",
						"label": "uniswapRouter",
						"offset": 0,
						"slot": "3",
						"type": "t_address"
					},
					{
						"astId": 85,
						"contract": "bonding_contract.sol:Bonding",
						"label": "discountRate",
						"offset": 0,
						"slot": "4",
						"type": "t_uint256"
					},
					{
						"astId": 88,
						"contract": "bonding_contract.sol:Bonding",
						"label": "targetPrice",
						"offset": 0,
						"slot": "5",
						"type": "t_uint256"
					}
				],
				"types": {
					"t_address": {
						"encoding": "inplace",
						"label": "address",
						"numberOfBytes": "20"
					},
					"t_uint256": {
						"encoding": "inplace",
						"label": "uint256",
						"numberOfBytes": "32"
					}
				}
			},
			"userdoc": {
				"kind": "user",
				"methods": {},
				"version": 1
			}
		}
	}
}