{
	"bonding_contract.sol": {
		"Bonding": {
			"abi": [
				{
					"inputs": [
						{
							"internalType": "address",
							"name": "_paymentToken",
							"type": "address"
						},
						{
							"internalType": "address",
							"name": "_roboMoney",
							"type": "address"
						},
						{
							"internalType": "uint256",
							"name": "_discountRate",
							"type": "uint256"
						},
						{
							"internalType": "uint256",
							"name": "_targetPrice",
							"type": "uint256"
						}
					],
					"stateMutability": "nonpayable",
					"type": "constructor"
				},
				{
					"anonymous": false,
					"inputs": [
						{
							"indexed": true,
							"internalType": "address",
							"name": "user",
							"type": "address"
						},
						{
							"indexed": false,
							"internalType": "uint256",
							"name": "tokenAmount",
							"type": "uint256"
						},
						{
							"indexed": false,
							"internalType": "uint256",
							"name": "roboMoneyAmount",
							"type": "uint256"
						}
					],
					"name": "BondPurchased",
					"type": "event"
				},
				{
					"anonymous": false,
					"inputs": [
						{
							"indexed": false,
							"internalType": "string",
							"name": "message",
							"type": "string"
						},
						{
							"indexed": false,
							"internalType": "uint256",
							"name": "value",
							"type": "uint256"
						}
					],
					"name": "Debug",
					"type": "event"
				},
				{
					"anonymous": false,
					"inputs": [
						{
							"indexed": true,
							"internalType": "address",
							"name": "oldOwner",
							"type": "address"
						},
						{
							"indexed": true,
							"internalType": "address",
							"name": "newOwner",
							"type": "address"
						}
					],
					"name": "OwnershipTransferred",
					"type": "event"
				},
				{
					"anonymous": false,
					"inputs": [
						{
							"indexed": true,
							"internalType": "address",
							"name": "token",
							"type": "address"
						},
						{
							"indexed": true,
							"internalType": "address",
							"name": "recipient",
							"type": "address"
						},
						{
							"indexed": false,
							"internalType": "uint256",
							"name": "amount",
							"type": "uint256"
						}
					],
					"name": "Withdrawn",
					"type": "event"
				},
				{
					"inputs": [
						{
							"internalType": "uint256",
							"name": "tokenAmount",
							"type": "uint256"
						}
					],
					"name": "bond",
					"outputs": [],
					"stateMutability": "nonpayable",
					"type": "function"
				},
				{
					"inputs": [],
					"name": "checkContractRoboMoneyBalance",
					"outputs": [
						{
							"internalType": "uint256",
							"name": "",
							"type": "uint256"
						}
					],
					"stateMutability": "view",
					"type": "function"
				},
				{
					"inputs": [
						{
							"internalType": "address",
							"name": "user",
							"type": "address"
						}
					],
					"name": "checkRoboMoneyBalance",
					"outputs": [
						{
							"internalType": "uint256",
							"name": "",
							"type": "uint256"
						}
					],
					"stateMutability": "view",
					"type": "function"
				},
				{
					"inputs": [
						{
							"internalType": "address",
							"name": "user",
							"type": "address"
						}
					],
					"name": "checkTokenAllowance",
					"outputs": [
						{
							"internalType": "uint256",
							"name": "",
							"type": "uint256"
						}
					],
					"stateMutability": "view",
					"type": "function"
				},
				{
					"inputs": [
						{
							"internalType": "address",
							"name": "user",
							"type": "address"
						}
					],
					"name": "checkTokenBalance",
					"outputs": [
						{
							"internalType": "uint256",
							"name": "",
							"type": "uint256"
						}
					],
					"stateMutability": "view",
					"type": "function"
				},
				{
					"inputs": [],
					"name": "discountRate",
					"outputs": [
						{
							"internalType": "uint256",
							"name": "",
							"type": "uint256"
						}
					],
					"stateMutability": "view",
					"type": "function"
				},
				{
					"inputs": [],
					"name": "owner",
					"outputs": [
						{
							"internalType": "address",
							"name": "",
							"type": "address"
						}
					],
					"stateMutability": "view",
					"type": "function"
				},
				{
					"inputs": [],
					"name": "paymentToken",
					"outputs": [
						{
							"internalType": "address",
							"name": "",
							"type": "address"
						}
					],
					"stateMutability": "view",
					"type": "function"
				},
				{
					"inputs": [],
					"name": "roboMoney",
					"outputs": [
						{
							"internalType": "address",
							"name": "",
							"type": "address"
						}
					],
					"stateMutability": "view",
					"type": "function"
				},
				{
					"inputs": [
						{
							"internalType": "uint256",
							"name": "_discountRate",
							"type": "uint256"
						}
					],
					"name": "setDiscountRate",
					"outputs": [],
					"stateMutability": "nonpayable",
					"type": "function"
				},
				{
					"inputs": [
						{
							"internalType": "uint256",
							"name": "_targetPrice",
							"type": "uint256"
						}
					],
					"name": "setTargetPrice",
					"outputs": [],
					"stateMutability": "nonpayable",
					"type": "function"
				},
				{
					"inputs": [],
					"name": "targetPrice",
					"outputs": [
						{
							"internalType": "uint256",
							"name": "",
							"type": "uint256"
						}
					],
					"stateMutability": "view",
					"type": "function"
				},
				{
					"inputs": [
						{
							"internalType": "address",
							"name": "newOwner",
							"type": "address"
						}
					],
					"name": "transferOwnership",
					"outputs": [],
					"stateMutability": "nonpayable",
					"type": "function"
				},
				{
					"inputs": [
						{
							"internalType": "address",
							"name": "token",
							"type": "address"
						},
						{
							"internalType": "uint256",
							"name": "amount",
							"type": "uint256"
						},
						{
							"internalType": "address",
							"name": "recipient",
							"type": "address"
						}
					],
					"name": "withdraw",
					"outputs": [],
					"stateMutability": "nonpayable",
					"type": "function"
				}
			],
			"devdoc": {
				"kind": "dev",
				"methods": {
					"bond(uint256)": {
						"details": "The main bonding function: user deposits `paymentToken` (e.g., DAI, USDC, etc.) to receive RoboMoney at a discount.",
						"params": {
							"tokenAmount": "The amount of `paymentToken` the user is depositing."
						}
					},
					"checkContractRoboMoneyBalance()": {
						"details": "Check how many RoboMoney tokens the contract itself holds."
					},
					"checkRoboMoneyBalance(address)": {
						"details": "Check the RoboMoney token balance of any user."
					},
					"checkTokenAllowance(address)": {
						"details": "Check how much of the payment token (ERC20) the user has approved for this contract."
					},
					"checkTokenBalance(address)": {
						"details": "Check the payment token (ERC20) balance of any user."
					},
					"constructor": {
						"params": {
							"_discountRate": "Discount in percent (0–100).",
							"_paymentToken": "Address of the ERC20 token used for bonding (replaces WETH).",
							"_roboMoney": "Address of the RoboMoney token (replaces mlAMPL).",
							"_targetPrice": "“Base” price ratio for roboMoney vs. payment token."
						}
					},
					"withdraw(address,uint256,address)": {
						"details": "Owner can withdraw any ERC20 tokens (e.g. leftover paymentToken or minted RoboMoney).",
						"params": {
							"amount": "Amount to withdraw.",
							"recipient": "Recipient address to receive the tokens.",
							"token": "Address of the ERC20 token to withdraw."
						}
					}
				},
				"version": 1
			},
			"evm": {
				"assembly": "    /* \"bonding_contract.sol\":1234:7206  contract Bonding {... */\n  mstore(0x40, 0x80)\n    /* \"bonding_contract.sol\":2234:2562  constructor(... */\n  callvalue\n  dup1\n  iszero\n  tag_1\n  jumpi\n  revert(0x00, 0x00)\ntag_1:\n  pop\n  mload(0x40)\n  sub(codesize, bytecodeSize)\n  dup1\n  bytecodeSize\n  dup4\n  codecopy\n  dup2\n  add\n  0x40\n  dup2\n  swap1\n  mstore\n  tag_2\n  swap2\n  tag_3\n  jump\t// in\ntag_2:\n    /* \"bonding_contract.sol\":2388:2393  owner */\n  0x00\n    /* \"bonding_contract.sol\":2388:2406  owner = msg.sender */\n  dup1\n  sload\n  not(sub(shl(0xa0, 0x01), 0x01))\n  swap1\n  dup2\n  and\n    /* \"bonding_contract.sol\":2396:2406  msg.sender */\n  caller\n    /* \"bonding_contract.sol\":2388:2406  owner = msg.sender */\n  or\n  swap1\n  swap2\n  sstore\n  0x01\n    /* \"bonding_contract.sol\":2417:2445  paymentToken = _paymentToken */\n  dup1\n  sload\n  sub(shl(0xa0, 0x01), 0x01)\n  swap7\n  dup8\n  and\n  swap1\n  dup4\n  and\n  or\n  swap1\n  sstore\n    /* \"bonding_contract.sol\":2456:2465  roboMoney */\n  0x02\n    /* \"bonding_contract.sol\":2456:2478  roboMoney = _roboMoney */\n  dup1\n  sload\n  swap5\n  swap1\n  swap6\n  and\n  swap4\n  and\n  swap3\n  swap1\n  swap3\n  or\n  swap1\n  swap3\n  sstore\n    /* \"bonding_contract.sol\":2489:2501  discountRate */\n  0x03\n    /* \"bonding_contract.sol\":2489:2517  discountRate = _discountRate */\n  swap2\n  swap1\n  swap2\n  sstore\n    /* \"bonding_contract.sol\":2528:2539  targetPrice */\n  0x04\n    /* \"bonding_contract.sol\":2528:2554  targetPrice = _targetPrice */\n  sstore\n    /* \"bonding_contract.sol\":1234:7206  contract Bonding {... */\n  jump(tag_8)\n    /* \"#utility.yul\":14:191   */\ntag_7:\n    /* \"#utility.yul\":93:106   */\n  dup1\n  mload\n  sub(shl(0xa0, 0x01), 0x01)\n    /* \"#utility.yul\":135:166   */\n  dup2\n  and\n    /* \"#utility.yul\":125:167   */\n  dup2\n  eq\n    /* \"#utility.yul\":115:185   */\n  tag_10\n  jumpi\n    /* \"#utility.yul\":181:182   */\n  0x00\n    /* \"#utility.yul\":178:179   */\n  0x00\n    /* \"#utility.yul\":171:183   */\n  revert\n    /* \"#utility.yul\":115:185   */\ntag_10:\n    /* \"#utility.yul\":14:191   */\n  swap2\n  swap1\n  pop\n  jump\t// out\n    /* \"#utility.yul\":196:710   */\ntag_3:\n    /* \"#utility.yul\":293:299   */\n  0x00\n    /* \"#utility.yul\":301:307   */\n  0x00\n    /* \"#utility.yul\":309:315   */\n  0x00\n    /* \"#utility.yul\":317:323   */\n  0x00\n    /* \"#utility.yul\":370:373   */\n  0x80\n    /* \"#utility.yul\":358:367   */\n  dup6\n    /* \"#utility.yul\":349:356   */\n  dup8\n    /* \"#utility.yul\":345:368   */\n  sub\n    /* \"#utility.yul\":341:374   */\n  slt\n    /* \"#utility.yul\":338:391   */\n  iszero\n  tag_12\n  jumpi\n    /* \"#utility.yul\":387:388   */\n  0x00\n    /* \"#utility.yul\":384:385   */\n  0x00\n    /* \"#utility.yul\":377:389   */\n  revert\n    /* \"#utility.yul\":338:391   */\ntag_12:\n    /* \"#utility.yul\":410:450   */\n  tag_13\n    /* \"#utility.yul\":440:449   */\n  dup6\n    /* \"#utility.yul\":410:450   */\n  tag_7\n  jump\t// in\ntag_13:\n    /* \"#utility.yul\":400:450   */\n  swap4\n  pop\n    /* \"#utility.yul\":469:518   */\n  tag_14\n    /* \"#utility.yul\":514:516   */\n  0x20\n    /* \"#utility.yul\":503:512   */\n  dup7\n    /* \"#utility.yul\":499:517   */\n  add\n    /* \"#utility.yul\":469:518   */\n  tag_7\n  jump\t// in\ntag_14:\n    /* \"#utility.yul\":580:582   */\n  0x40\n    /* \"#utility.yul\":565:583   */\n  dup7\n  add\n    /* \"#utility.yul\":559:584   */\n  mload\n    /* \"#utility.yul\":674:676   */\n  0x60\n    /* \"#utility.yul\":659:677   */\n  swap1\n  swap7\n  add\n    /* \"#utility.yul\":653:678   */\n  mload\n    /* \"#utility.yul\":196:710   */\n  swap5\n  swap8\n    /* \"#utility.yul\":459:518   */\n  swap1\n  swap7\n  pop\n    /* \"#utility.yul\":196:710   */\n  swap3\n  pop\n  pop\n  pop\n  jump\t// out\ntag_8:\n    /* \"bonding_contract.sol\":1234:7206  contract Bonding {... */\n  dataSize(sub_0)\n  dup1\n  dataOffset(sub_0)\n  0x00\n  codecopy\n  0x00\n  return\nstop\n\nsub_0: assembly {\n        /* \"bonding_contract.sol\":1234:7206  contract Bonding {... */\n      mstore(0x40, 0x80)\n      callvalue\n      dup1\n      iszero\n      tag_1\n      jumpi\n      revert(0x00, 0x00)\n    tag_1:\n      pop\n      jumpi(tag_2, lt(calldatasize, 0x04))\n      shr(0xe0, calldataload(0x00))\n      dup1\n      0x8da5cb5b\n      gt\n      tag_17\n      jumpi\n      dup1\n      0xcc7fffbe\n      gt\n      tag_18\n      jumpi\n      dup1\n      0xcc7fffbe\n      eq\n      tag_13\n      jumpi\n      dup1\n      0xdc38679c\n      eq\n      tag_14\n      jumpi\n      dup1\n      0xe6c0e6d5\n      eq\n      tag_15\n      jumpi\n      dup1\n      0xf2fde38b\n      eq\n      tag_16\n      jumpi\n      revert(0x00, 0x00)\n    tag_18:\n      dup1\n      0x8da5cb5b\n      eq\n      tag_10\n      jumpi\n      dup1\n      0x9940686e\n      eq\n      tag_11\n      jumpi\n      dup1\n      0xa933ac74\n      eq\n      tag_12\n      jumpi\n      revert(0x00, 0x00)\n    tag_17:\n      dup1\n      0x6a64eff8\n      gt\n      tag_19\n      jumpi\n      dup1\n      0x6a64eff8\n      eq\n      tag_6\n      jumpi\n      dup1\n      0x7c69febd\n      eq\n      tag_7\n      jumpi\n      dup1\n      0x7ef7ba20\n      eq\n      tag_8\n      jumpi\n      dup1\n      0x89f1aa22\n      eq\n      tag_9\n      jumpi\n      revert(0x00, 0x00)\n    tag_19:\n      dup1\n      0x126cbe60\n      eq\n      tag_3\n      jumpi\n      dup1\n      0x3013ce29\n      eq\n      tag_4\n      jumpi\n      dup1\n      0x69328dec\n      eq\n      tag_5\n      jumpi\n    tag_2:\n      revert(0x00, 0x00)\n        /* \"bonding_contract.sol\":6599:6734  function checkTokenBalance(address user) external view returns (uint256) {... */\n    tag_3:\n      tag_20\n      tag_21\n      calldatasize\n      0x04\n      tag_22\n      jump\t// in\n    tag_21:\n      tag_23\n      jump\t// in\n    tag_20:\n      mload(0x40)\n        /* \"#utility.yul\":529:554   */\n      swap1\n      dup2\n      mstore\n        /* \"#utility.yul\":517:519   */\n      0x20\n        /* \"#utility.yul\":502:520   */\n      add\n        /* \"bonding_contract.sol\":6599:6734  function checkTokenBalance(address user) external view returns (uint256) {... */\n    tag_24:\n      mload(0x40)\n      dup1\n      swap2\n      sub\n      swap1\n      return\n        /* \"bonding_contract.sol\":1285:1312  address public paymentToken */\n    tag_4:\n      sload(0x01)\n      tag_26\n      swap1\n      sub(shl(0xa0, 0x01), 0x01)\n      and\n      dup2\n      jump\n    tag_26:\n      mload(0x40)\n      sub(shl(0xa0, 0x01), 0x01)\n        /* \"#utility.yul\":729:761   */\n      swap1\n      swap2\n      and\n        /* \"#utility.yul\":711:762   */\n      dup2\n      mstore\n        /* \"#utility.yul\":699:701   */\n      0x20\n        /* \"#utility.yul\":684:702   */\n      add\n        /* \"bonding_contract.sol\":1285:1312  address public paymentToken */\n      tag_24\n        /* \"#utility.yul\":565:768   */\n      jump\n        /* \"bonding_contract.sol\":5568:6036  function withdraw(address token, uint256 amount, address recipient) external onlyOwner {... */\n    tag_5:\n      tag_30\n      tag_31\n      calldatasize\n      0x04\n      tag_32\n      jump\t// in\n    tag_31:\n      tag_33\n      jump\t// in\n    tag_30:\n      stop\n        /* \"bonding_contract.sol\":2863:2973  function setTargetPrice(uint256 _targetPrice) external onlyOwner {... */\n    tag_6:\n      tag_30\n      tag_35\n      calldatasize\n      0x04\n      tag_36\n      jump\t// in\n    tag_35:\n      tag_37\n      jump\t// in\n        /* \"bonding_contract.sol\":2676:2855  function setDiscountRate(uint256 _discountRate) external onlyOwner {... */\n    tag_7:\n      tag_30\n      tag_39\n      calldatasize\n      0x04\n      tag_36\n      jump\t// in\n    tag_39:\n      tag_40\n      jump\t// in\n        /* \"bonding_contract.sol\":1362:1386  address public roboMoney */\n    tag_8:\n      sload(0x02)\n      tag_26\n      swap1\n      sub(shl(0xa0, 0x01), 0x01)\n      and\n      dup2\n      jump\n        /* \"bonding_contract.sol\":6355:6507  function checkTokenAllowance(address user) external view returns (uint256) {... */\n    tag_9:\n      tag_20\n      tag_45\n      calldatasize\n      0x04\n      tag_22\n      jump\t// in\n    tag_45:\n      tag_46\n      jump\t// in\n        /* \"bonding_contract.sol\":1258:1278  address public owner */\n    tag_10:\n      sload(0x00)\n      tag_26\n      swap1\n      sub(shl(0xa0, 0x01), 0x01)\n      and\n      dup2\n      jump\n        /* \"bonding_contract.sol\":3454:5267  function bond(uint256 tokenAmount) external {... */\n    tag_11:\n      tag_30\n      tag_52\n      calldatasize\n      0x04\n      tag_36\n      jump\t// in\n    tag_52:\n      tag_53\n      jump\t// in\n        /* \"bonding_contract.sol\":7058:7203  function checkContractRoboMoneyBalance() external view returns (uint256) {... */\n    tag_12:\n      tag_20\n      tag_55\n      jump\t// in\n        /* \"bonding_contract.sol\":6820:6960  function checkRoboMoneyBalance(address user) external view returns (uint256) {... */\n    tag_13:\n      tag_20\n      tag_58\n      calldatasize\n      0x04\n      tag_22\n      jump\t// in\n    tag_58:\n      tag_59\n      jump\t// in\n        /* \"bonding_contract.sol\":1487:1513  uint256 public targetPrice */\n    tag_14:\n      tag_20\n      sload(0x04)\n      dup2\n      jump\n        /* \"bonding_contract.sol\":1426:1453  uint256 public discountRate */\n    tag_15:\n      tag_20\n      sload(0x03)\n      dup2\n      jump\n        /* \"bonding_contract.sol\":2981:3211  function transferOwnership(address newOwner) external onlyOwner {... */\n    tag_16:\n      tag_30\n      tag_68\n      calldatasize\n      0x04\n      tag_22\n      jump\t// in\n    tag_68:\n      tag_69\n      jump\t// in\n        /* \"bonding_contract.sol\":6599:6734  function checkTokenBalance(address user) external view returns (uint256) {... */\n    tag_23:\n        /* \"bonding_contract.sol\":6697:6709  paymentToken */\n      sload(0x01)\n        /* \"bonding_contract.sol\":6690:6726  IERC20(paymentToken).balanceOf(user) */\n      mload(0x40)\n      shl(0xe0, 0x70a08231)\n      dup2\n      mstore\n      sub(shl(0xa0, 0x01), 0x01)\n        /* \"#utility.yul\":729:761   */\n      dup4\n      dup2\n      and\n        /* \"bonding_contract.sol\":6690:6726  IERC20(paymentToken).balanceOf(user) */\n      0x04\n      dup4\n      add\n        /* \"#utility.yul\":711:762   */\n      mstore\n        /* \"bonding_contract.sol\":6663:6670  uint256 */\n      0x00\n      swap3\n        /* \"bonding_contract.sol\":6697:6709  paymentToken */\n      and\n      swap1\n        /* \"bonding_contract.sol\":6690:6720  IERC20(paymentToken).balanceOf */\n      0x70a08231\n      swap1\n        /* \"#utility.yul\":684:702   */\n      0x24\n      add\n        /* \"bonding_contract.sol\":6690:6726  IERC20(paymentToken).balanceOf(user) */\n    tag_71:\n      0x20\n      mload(0x40)\n      dup1\n      dup4\n      sub\n      dup2\n      dup7\n      gas\n      staticcall\n      iszero\n      dup1\n      iszero\n      tag_73\n      jumpi\n      returndatacopy(0x00, 0x00, returndatasize)\n      revert(0x00, returndatasize)\n    tag_73:\n      pop\n      pop\n      pop\n      pop\n      mload(0x40)\n      returndatasize\n      not(0x1f)\n      0x1f\n      dup3\n      add\n      and\n      dup3\n      add\n      dup1\n      0x40\n      mstore\n      pop\n      dup2\n      add\n      swap1\n      tag_74\n      swap2\n      swap1\n      tag_75\n      jump\t// in\n    tag_74:\n        /* \"bonding_contract.sol\":6683:6726  return IERC20(paymentToken).balanceOf(user) */\n      swap3\n        /* \"bonding_contract.sol\":6599:6734  function checkTokenBalance(address user) external view returns (uint256) {... */\n      swap2\n      pop\n      pop\n      jump\t// out\n        /* \"bonding_contract.sol\":5568:6036  function withdraw(address token, uint256 amount, address recipient) external onlyOwner {... */\n    tag_33:\n        /* \"bonding_contract.sol\":2624:2629  owner */\n      and(sub(shl(0xa0, 0x01), 0x01), sload(0x00))\n        /* \"bonding_contract.sol\":2610:2620  msg.sender */\n      caller\n        /* \"bonding_contract.sol\":2610:2629  msg.sender == owner */\n      eq\n        /* \"bonding_contract.sol\":2602:2648  require(msg.sender == owner, \"Not authorized\") */\n      tag_77\n      jumpi\n      mload(0x40)\n      shl(0xe5, 0x461bcd)\n      dup2\n      mstore\n      0x04\n      add\n      tag_78\n      swap1\n      tag_79\n      jump\t// in\n    tag_78:\n      mload(0x40)\n      dup1\n      swap2\n      sub\n      swap1\n      revert\n    tag_77:\n      sub(shl(0xa0, 0x01), 0x01)\n        /* \"bonding_contract.sol\":5674:5697  recipient != address(0) */\n      dup2\n      and\n        /* \"bonding_contract.sol\":5666:5727  require(recipient != address(0), \"Invalid recipient address\") */\n      tag_81\n      jumpi\n      mload(0x40)\n      shl(0xe5, 0x461bcd)\n      dup2\n      mstore\n        /* \"#utility.yul\":2117:2119   */\n      0x20\n        /* \"bonding_contract.sol\":5666:5727  require(recipient != address(0), \"Invalid recipient address\") */\n      0x04\n      dup3\n      add\n        /* \"#utility.yul\":2099:2120   */\n      mstore\n        /* \"#utility.yul\":2156:2158   */\n      0x19\n        /* \"#utility.yul\":2136:2154   */\n      0x24\n      dup3\n      add\n        /* \"#utility.yul\":2129:2159   */\n      mstore\n        /* \"#utility.yul\":2195:2222   */\n      0x496e76616c696420726563697069656e74206164647265737300000000000000\n        /* \"#utility.yul\":2175:2193   */\n      0x44\n      dup3\n      add\n        /* \"#utility.yul\":2168:2223   */\n      mstore\n        /* \"#utility.yul\":2240:2258   */\n      0x64\n      add\n        /* \"bonding_contract.sol\":5666:5727  require(recipient != address(0), \"Invalid recipient address\") */\n      tag_78\n        /* \"#utility.yul\":1915:2264   */\n      jump\n        /* \"bonding_contract.sol\":5666:5727  require(recipient != address(0), \"Invalid recipient address\") */\n    tag_81:\n        /* \"bonding_contract.sol\":5755:5756  0 */\n      0x00\n        /* \"bonding_contract.sol\":5746:5752  amount */\n      dup3\n        /* \"bonding_contract.sol\":5746:5756  amount > 0 */\n      gt\n        /* \"bonding_contract.sol\":5738:5793  require(amount > 0, \"Amount must be greater than zero\") */\n      tag_84\n      jumpi\n      mload(0x40)\n      shl(0xe5, 0x461bcd)\n      dup2\n      mstore\n        /* \"#utility.yul\":2471:2473   */\n      0x20\n        /* \"bonding_contract.sol\":5738:5793  require(amount > 0, \"Amount must be greater than zero\") */\n      0x04\n      dup3\n      add\n        /* \"#utility.yul\":2453:2474   */\n      dup2\n      swap1\n      mstore\n        /* \"#utility.yul\":2490:2508   */\n      0x24\n      dup3\n      add\n        /* \"#utility.yul\":2483:2513   */\n      mstore\n        /* \"#utility.yul\":2549:2583   */\n      0x416d6f756e74206d7573742062652067726561746572207468616e207a65726f\n        /* \"#utility.yul\":2529:2547   */\n      0x44\n      dup3\n      add\n        /* \"#utility.yul\":2522:2584   */\n      mstore\n        /* \"#utility.yul\":2601:2619   */\n      0x64\n      add\n        /* \"bonding_contract.sol\":5738:5793  require(amount > 0, \"Amount must be greater than zero\") */\n      tag_78\n        /* \"#utility.yul\":2269:2625   */\n      jump\n        /* \"bonding_contract.sol\":5738:5793  require(amount > 0, \"Amount must be greater than zero\") */\n    tag_84:\n        /* \"bonding_contract.sol\":5824:5862  IERC20(token).balanceOf(address(this)) */\n      mload(0x40)\n      shl(0xe0, 0x70a08231)\n      dup2\n      mstore\n        /* \"bonding_contract.sol\":5856:5860  this */\n      address\n        /* \"bonding_contract.sol\":5824:5862  IERC20(token).balanceOf(address(this)) */\n      0x04\n      dup3\n      add\n        /* \"#utility.yul\":711:762   */\n      mstore\n        /* \"bonding_contract.sol\":5806:5821  uint256 balance */\n      0x00\n      swap1\n      sub(shl(0xa0, 0x01), 0x01)\n        /* \"bonding_contract.sol\":5824:5847  IERC20(token).balanceOf */\n      dup6\n      and\n      swap1\n      0x70a08231\n      swap1\n        /* \"#utility.yul\":684:702   */\n      0x24\n      add\n        /* \"bonding_contract.sol\":5824:5862  IERC20(token).balanceOf(address(this)) */\n      0x20\n      mload(0x40)\n      dup1\n      dup4\n      sub\n      dup2\n      dup7\n      gas\n      staticcall\n      iszero\n      dup1\n      iszero\n      tag_89\n      jumpi\n      returndatacopy(0x00, 0x00, returndatasize)\n      revert(0x00, returndatasize)\n    tag_89:\n      pop\n      pop\n      pop\n      pop\n      mload(0x40)\n      returndatasize\n      not(0x1f)\n      0x1f\n      dup3\n      add\n      and\n      dup3\n      add\n      dup1\n      0x40\n      mstore\n      pop\n      dup2\n      add\n      swap1\n      tag_90\n      swap2\n      swap1\n      tag_75\n      jump\t// in\n    tag_90:\n        /* \"bonding_contract.sol\":5806:5862  uint256 balance = IERC20(token).balanceOf(address(this)) */\n      swap1\n      pop\n        /* \"bonding_contract.sol\":5892:5898  amount */\n      dup3\n        /* \"bonding_contract.sol\":5881:5888  balance */\n      dup2\n        /* \"bonding_contract.sol\":5881:5898  balance >= amount */\n      lt\n      iszero\n        /* \"bonding_contract.sol\":5873:5923  require(balance >= amount, \"Insufficient balance\") */\n      tag_91\n      jumpi\n      mload(0x40)\n      shl(0xe5, 0x461bcd)\n      dup2\n      mstore\n        /* \"#utility.yul\":2832:2834   */\n      0x20\n        /* \"bonding_contract.sol\":5873:5923  require(balance >= amount, \"Insufficient balance\") */\n      0x04\n      dup3\n      add\n        /* \"#utility.yul\":2814:2835   */\n      mstore\n        /* \"#utility.yul\":2871:2873   */\n      0x14\n        /* \"#utility.yul\":2851:2869   */\n      0x24\n      dup3\n      add\n        /* \"#utility.yul\":2844:2874   */\n      mstore\n      shl(0x60, 0x496e73756666696369656e742062616c616e6365)\n        /* \"#utility.yul\":2890:2908   */\n      0x44\n      dup3\n      add\n        /* \"#utility.yul\":2883:2933   */\n      mstore\n        /* \"#utility.yul\":2950:2968   */\n      0x64\n      add\n        /* \"bonding_contract.sol\":5873:5923  require(balance >= amount, \"Insufficient balance\") */\n      tag_78\n        /* \"#utility.yul\":2630:2974   */\n      jump\n        /* \"bonding_contract.sol\":5873:5923  require(balance >= amount, \"Insufficient balance\") */\n    tag_91:\n        /* \"bonding_contract.sol\":5936:5977  IERC20(token).transfer(recipient, amount) */\n      mload(0x40)\n      shl(0xe0, 0xa9059cbb)\n      dup2\n      mstore\n      sub(shl(0xa0, 0x01), 0x01)\n        /* \"#utility.yul\":3171:3203   */\n      dup4\n      dup2\n      and\n        /* \"bonding_contract.sol\":5936:5977  IERC20(token).transfer(recipient, amount) */\n      0x04\n      dup4\n      add\n        /* \"#utility.yul\":3153:3204   */\n      mstore\n        /* \"#utility.yul\":3220:3238   */\n      0x24\n      dup3\n      add\n        /* \"#utility.yul\":3213:3247   */\n      dup6\n      swap1\n      mstore\n        /* \"bonding_contract.sol\":5936:5958  IERC20(token).transfer */\n      dup6\n      and\n      swap1\n      0xa9059cbb\n      swap1\n        /* \"#utility.yul\":3126:3144   */\n      0x44\n      add\n        /* \"bonding_contract.sol\":5936:5977  IERC20(token).transfer(recipient, amount) */\n      0x20\n      mload(0x40)\n      dup1\n      dup4\n      sub\n      dup2\n      0x00\n      dup8\n      gas\n      call\n      iszero\n      dup1\n      iszero\n      tag_97\n      jumpi\n      returndatacopy(0x00, 0x00, returndatasize)\n      revert(0x00, returndatasize)\n    tag_97:\n      pop\n      pop\n      pop\n      pop\n      mload(0x40)\n      returndatasize\n      not(0x1f)\n      0x1f\n      dup3\n      add\n      and\n      dup3\n      add\n      dup1\n      0x40\n      mstore\n      pop\n      dup2\n      add\n      swap1\n      tag_98\n      swap2\n      swap1\n      tag_99\n      jump\t// in\n    tag_98:\n      pop\n        /* \"bonding_contract.sol\":6010:6019  recipient */\n      dup2\n      sub(shl(0xa0, 0x01), 0x01)\n        /* \"bonding_contract.sol\":5993:6028  Withdrawn(token, recipient, amount) */\n      and\n        /* \"bonding_contract.sol\":6003:6008  token */\n      dup5\n      sub(shl(0xa0, 0x01), 0x01)\n        /* \"bonding_contract.sol\":5993:6028  Withdrawn(token, recipient, amount) */\n      and\n      0xd1c19fbcd4551a5edfb66d43d2e337c04837afda3482b42bdf569a8fccdae5fb\n        /* \"bonding_contract.sol\":6021:6027  amount */\n      dup6\n        /* \"bonding_contract.sol\":5993:6028  Withdrawn(token, recipient, amount) */\n      mload(0x40)\n      tag_100\n      swap2\n        /* \"#utility.yul\":529:554   */\n      dup2\n      mstore\n        /* \"#utility.yul\":517:519   */\n      0x20\n        /* \"#utility.yul\":502:520   */\n      add\n      swap1\n        /* \"#utility.yul\":383:560   */\n      jump\n        /* \"bonding_contract.sol\":5993:6028  Withdrawn(token, recipient, amount) */\n    tag_100:\n      mload(0x40)\n      dup1\n      swap2\n      sub\n      swap1\n      log3\n        /* \"bonding_contract.sol\":5655:6036  {... */\n      pop\n        /* \"bonding_contract.sol\":5568:6036  function withdraw(address token, uint256 amount, address recipient) external onlyOwner {... */\n      pop\n      pop\n      pop\n      jump\t// out\n        /* \"bonding_contract.sol\":2863:2973  function setTargetPrice(uint256 _targetPrice) external onlyOwner {... */\n    tag_37:\n        /* \"bonding_contract.sol\":2624:2629  owner */\n      and(sub(shl(0xa0, 0x01), 0x01), sload(0x00))\n        /* \"bonding_contract.sol\":2610:2620  msg.sender */\n      caller\n        /* \"bonding_contract.sol\":2610:2629  msg.sender == owner */\n      eq\n        /* \"bonding_contract.sol\":2602:2648  require(msg.sender == owner, \"Not authorized\") */\n      tag_102\n      jumpi\n      mload(0x40)\n      shl(0xe5, 0x461bcd)\n      dup2\n      mstore\n      0x04\n      add\n      tag_78\n      swap1\n      tag_79\n      jump\t// in\n    tag_102:\n        /* \"bonding_contract.sol\":2939:2950  targetPrice */\n      0x04\n        /* \"bonding_contract.sol\":2939:2965  targetPrice = _targetPrice */\n      sstore\n        /* \"bonding_contract.sol\":2863:2973  function setTargetPrice(uint256 _targetPrice) external onlyOwner {... */\n      jump\t// out\n        /* \"bonding_contract.sol\":2676:2855  function setDiscountRate(uint256 _discountRate) external onlyOwner {... */\n    tag_40:\n        /* \"bonding_contract.sol\":2624:2629  owner */\n      and(sub(shl(0xa0, 0x01), 0x01), sload(0x00))\n        /* \"bonding_contract.sol\":2610:2620  msg.sender */\n      caller\n        /* \"bonding_contract.sol\":2610:2629  msg.sender == owner */\n      eq\n        /* \"bonding_contract.sol\":2602:2648  require(msg.sender == owner, \"Not authorized\") */\n      tag_106\n      jumpi\n      mload(0x40)\n      shl(0xe5, 0x461bcd)\n      dup2\n      mstore\n      0x04\n      add\n      tag_78\n      swap1\n      tag_79\n      jump\t// in\n    tag_106:\n        /* \"bonding_contract.sol\":2779:2782  100 */\n      0x64\n        /* \"bonding_contract.sol\":2762:2775  _discountRate */\n      dup2\n        /* \"bonding_contract.sol\":2762:2782  _discountRate <= 100 */\n      gt\n      iszero\n        /* \"bonding_contract.sol\":2754:2808  require(_discountRate <= 100, \"Invalid discount rate\") */\n      tag_109\n      jumpi\n      mload(0x40)\n      shl(0xe5, 0x461bcd)\n      dup2\n      mstore\n        /* \"#utility.yul\":3742:3744   */\n      0x20\n        /* \"bonding_contract.sol\":2754:2808  require(_discountRate <= 100, \"Invalid discount rate\") */\n      0x04\n      dup3\n      add\n        /* \"#utility.yul\":3724:3745   */\n      mstore\n        /* \"#utility.yul\":3781:3783   */\n      0x15\n        /* \"#utility.yul\":3761:3779   */\n      0x24\n      dup3\n      add\n        /* \"#utility.yul\":3754:3784   */\n      mstore\n      shl(0x58, 0x496e76616c696420646973636f756e742072617465)\n        /* \"#utility.yul\":3800:3818   */\n      0x44\n      dup3\n      add\n        /* \"#utility.yul\":3793:3844   */\n      mstore\n        /* \"#utility.yul\":3861:3879   */\n      0x64\n      add\n        /* \"bonding_contract.sol\":2754:2808  require(_discountRate <= 100, \"Invalid discount rate\") */\n      tag_78\n        /* \"#utility.yul\":3540:3885   */\n      jump\n        /* \"bonding_contract.sol\":2754:2808  require(_discountRate <= 100, \"Invalid discount rate\") */\n    tag_109:\n        /* \"bonding_contract.sol\":2819:2831  discountRate */\n      0x03\n        /* \"bonding_contract.sol\":2819:2847  discountRate = _discountRate */\n      sstore\n        /* \"bonding_contract.sol\":2676:2855  function setDiscountRate(uint256 _discountRate) external onlyOwner {... */\n      jump\t// out\n        /* \"bonding_contract.sol\":6355:6507  function checkTokenAllowance(address user) external view returns (uint256) {... */\n    tag_46:\n        /* \"bonding_contract.sol\":6455:6467  paymentToken */\n      sload(0x01)\n        /* \"bonding_contract.sol\":6448:6499  IERC20(paymentToken).allowance(user, address(this)) */\n      mload(0x40)\n      shl(0xe1, 0x6eb1769f)\n      dup2\n      mstore\n      sub(shl(0xa0, 0x01), 0x01)\n        /* \"#utility.yul\":4082:4114   */\n      dup4\n      dup2\n      and\n        /* \"bonding_contract.sol\":6448:6499  IERC20(paymentToken).allowance(user, address(this)) */\n      0x04\n      dup4\n      add\n        /* \"#utility.yul\":4064:4115   */\n      mstore\n        /* \"bonding_contract.sol\":6493:6497  this */\n      address\n        /* \"#utility.yul\":4131:4149   */\n      0x24\n      dup4\n      add\n        /* \"#utility.yul\":4124:4184   */\n      mstore\n        /* \"bonding_contract.sol\":6421:6428  uint256 */\n      0x00\n      swap3\n        /* \"bonding_contract.sol\":6455:6467  paymentToken */\n      and\n      swap1\n        /* \"bonding_contract.sol\":6448:6478  IERC20(paymentToken).allowance */\n      0xdd62ed3e\n      swap1\n        /* \"#utility.yul\":4037:4055   */\n      0x44\n      add\n        /* \"bonding_contract.sol\":6448:6499  IERC20(paymentToken).allowance(user, address(this)) */\n      tag_71\n        /* \"#utility.yul\":3890:4190   */\n      jump\n        /* \"bonding_contract.sol\":3454:5267  function bond(uint256 tokenAmount) external {... */\n    tag_53:\n        /* \"bonding_contract.sol\":3531:3532  0 */\n      0x00\n        /* \"bonding_contract.sol\":3517:3528  tokenAmount */\n      dup2\n        /* \"bonding_contract.sol\":3517:3532  tokenAmount > 0 */\n      gt\n        /* \"bonding_contract.sol\":3509:3565  require(tokenAmount > 0, \"Must deposit tokenAmount > 0\") */\n      tag_119\n      jumpi\n      mload(0x40)\n      shl(0xe5, 0x461bcd)\n      dup2\n      mstore\n        /* \"#utility.yul\":4397:4399   */\n      0x20\n        /* \"bonding_contract.sol\":3509:3565  require(tokenAmount > 0, \"Must deposit tokenAmount > 0\") */\n      0x04\n      dup3\n      add\n        /* \"#utility.yul\":4379:4400   */\n      mstore\n        /* \"#utility.yul\":4436:4438   */\n      0x1c\n        /* \"#utility.yul\":4416:4434   */\n      0x24\n      dup3\n      add\n        /* \"#utility.yul\":4409:4439   */\n      mstore\n        /* \"#utility.yul\":4475:4505   */\n      0x4d757374206465706f73697420746f6b656e416d6f756e74203e203000000000\n        /* \"#utility.yul\":4455:4473   */\n      0x44\n      dup3\n      add\n        /* \"#utility.yul\":4448:4506   */\n      mstore\n        /* \"#utility.yul\":4523:4541   */\n      0x64\n      add\n        /* \"bonding_contract.sol\":3509:3565  require(tokenAmount > 0, \"Must deposit tokenAmount > 0\") */\n      tag_78\n        /* \"#utility.yul\":4195:4547   */\n      jump\n        /* \"bonding_contract.sol\":3509:3565  require(tokenAmount > 0, \"Must deposit tokenAmount > 0\") */\n    tag_119:\n        /* \"bonding_contract.sol\":3648:3660  paymentToken */\n      sload(0x01)\n        /* \"bonding_contract.sol\":3641:3698  IERC20(paymentToken).allowance(msg.sender, address(this)) */\n      mload(0x40)\n      shl(0xe1, 0x6eb1769f)\n      dup2\n      mstore\n        /* \"bonding_contract.sol\":3672:3682  msg.sender */\n      caller\n        /* \"bonding_contract.sol\":3641:3698  IERC20(paymentToken).allowance(msg.sender, address(this)) */\n      0x04\n      dup3\n      add\n        /* \"#utility.yul\":4064:4115   */\n      mstore\n        /* \"bonding_contract.sol\":3692:3696  this */\n      address\n        /* \"#utility.yul\":4131:4149   */\n      0x24\n      dup3\n      add\n        /* \"#utility.yul\":4124:4184   */\n      mstore\n        /* \"bonding_contract.sol\":3623:3638  uint256 allowed */\n      0x00\n      swap2\n      sub(shl(0xa0, 0x01), 0x01)\n        /* \"bonding_contract.sol\":3648:3660  paymentToken */\n      and\n      swap1\n        /* \"bonding_contract.sol\":3641:3671  IERC20(paymentToken).allowance */\n      0xdd62ed3e\n      swap1\n        /* \"#utility.yul\":4037:4055   */\n      0x44\n      add\n        /* \"bonding_contract.sol\":3641:3698  IERC20(paymentToken).allowance(msg.sender, address(this)) */\n      0x20\n      mload(0x40)\n      dup1\n      dup4\n      sub\n      dup2\n      dup7\n      gas\n      staticcall\n      iszero\n      dup1\n      iszero\n      tag_124\n      jumpi\n      returndatacopy(0x00, 0x00, returndatasize)\n      revert(0x00, returndatasize)\n    tag_124:\n      pop\n      pop\n      pop\n      pop\n      mload(0x40)\n      returndatasize\n      not(0x1f)\n      0x1f\n      dup3\n      add\n      and\n      dup3\n      add\n      dup1\n      0x40\n      mstore\n      pop\n      dup2\n      add\n      swap1\n      tag_125\n      swap2\n      swap1\n      tag_75\n      jump\t// in\n    tag_125:\n        /* \"bonding_contract.sol\":3623:3698  uint256 allowed = IERC20(paymentToken).allowance(msg.sender, address(this)) */\n      swap1\n      pop\n        /* \"bonding_contract.sol\":3728:3739  tokenAmount */\n      dup2\n        /* \"bonding_contract.sol\":3717:3724  allowed */\n      dup2\n        /* \"bonding_contract.sol\":3717:3739  allowed >= tokenAmount */\n      lt\n      iszero\n        /* \"bonding_contract.sol\":3709:3768  require(allowed >= tokenAmount, \"Allowance not sufficient\") */\n      tag_126\n      jumpi\n      mload(0x40)\n      shl(0xe5, 0x461bcd)\n      dup2\n      mstore\n        /* \"#utility.yul\":4754:4756   */\n      0x20\n        /* \"bonding_contract.sol\":3709:3768  require(allowed >= tokenAmount, \"Allowance not sufficient\") */\n      0x04\n      dup3\n      add\n        /* \"#utility.yul\":4736:4757   */\n      mstore\n        /* \"#utility.yul\":4793:4795   */\n      0x18\n        /* \"#utility.yul\":4773:4791   */\n      0x24\n      dup3\n      add\n        /* \"#utility.yul\":4766:4796   */\n      mstore\n        /* \"#utility.yul\":4832:4858   */\n      0x416c6c6f77616e6365206e6f742073756666696369656e740000000000000000\n        /* \"#utility.yul\":4812:4830   */\n      0x44\n      dup3\n      add\n        /* \"#utility.yul\":4805:4859   */\n      mstore\n        /* \"#utility.yul\":4876:4894   */\n      0x64\n      add\n        /* \"bonding_contract.sol\":3709:3768  require(allowed >= tokenAmount, \"Allowance not sufficient\") */\n      tag_78\n        /* \"#utility.yul\":4552:4900   */\n      jump\n        /* \"bonding_contract.sol\":3709:3768  require(allowed >= tokenAmount, \"Allowance not sufficient\") */\n    tag_126:\n        /* \"bonding_contract.sol\":3868:3880  paymentToken */\n      sload(0x01)\n        /* \"bonding_contract.sol\":3861:3934  IERC20(paymentToken).transferFrom(msg.sender, address(this), tokenAmount) */\n      mload(0x40)\n      shl(0xe0, 0x23b872dd)\n      dup2\n      mstore\n        /* \"bonding_contract.sol\":3895:3905  msg.sender */\n      caller\n        /* \"bonding_contract.sol\":3861:3934  IERC20(paymentToken).transferFrom(msg.sender, address(this), tokenAmount) */\n      0x04\n      dup3\n      add\n        /* \"#utility.yul\":5107:5158   */\n      mstore\n        /* \"bonding_contract.sol\":3915:3919  this */\n      address\n        /* \"#utility.yul\":5174:5192   */\n      0x24\n      dup3\n      add\n        /* \"#utility.yul\":5167:5227   */\n      mstore\n        /* \"#utility.yul\":5243:5261   */\n      0x44\n      dup2\n      add\n        /* \"#utility.yul\":5236:5270   */\n      dup5\n      swap1\n      mstore\n        /* \"bonding_contract.sol\":3846:3858  bool success */\n      0x00\n      swap2\n      sub(shl(0xa0, 0x01), 0x01)\n        /* \"bonding_contract.sol\":3868:3880  paymentToken */\n      and\n      swap1\n        /* \"bonding_contract.sol\":3861:3894  IERC20(paymentToken).transferFrom */\n      0x23b872dd\n      swap1\n        /* \"#utility.yul\":5080:5098   */\n      0x64\n      add\n        /* \"bonding_contract.sol\":3861:3934  IERC20(paymentToken).transferFrom(msg.sender, address(this), tokenAmount) */\n      0x20\n      mload(0x40)\n      dup1\n      dup4\n      sub\n      dup2\n      0x00\n      dup8\n      gas\n      call\n      iszero\n      dup1\n      iszero\n      tag_132\n      jumpi\n      returndatacopy(0x00, 0x00, returndatasize)\n      revert(0x00, returndatasize)\n    tag_132:\n      pop\n      pop\n      pop\n      pop\n      mload(0x40)\n      returndatasize\n      not(0x1f)\n      0x1f\n      dup3\n      add\n      and\n      dup3\n      add\n      dup1\n      0x40\n      mstore\n      pop\n      dup2\n      add\n      swap1\n      tag_133\n      swap2\n      swap1\n      tag_99\n      jump\t// in\n    tag_133:\n        /* \"bonding_contract.sol\":3846:3934  bool success = IERC20(paymentToken).transferFrom(msg.sender, address(this), tokenAmount) */\n      swap1\n      pop\n        /* \"bonding_contract.sol\":3953:3960  success */\n      dup1\n        /* \"bonding_contract.sol\":3945:3994  require(success, \"Payment token transfer failed\") */\n      tag_134\n      jumpi\n      mload(0x40)\n      shl(0xe5, 0x461bcd)\n      dup2\n      mstore\n        /* \"#utility.yul\":5483:5485   */\n      0x20\n        /* \"bonding_contract.sol\":3945:3994  require(success, \"Payment token transfer failed\") */\n      0x04\n      dup3\n      add\n        /* \"#utility.yul\":5465:5486   */\n      mstore\n        /* \"#utility.yul\":5522:5524   */\n      0x1d\n        /* \"#utility.yul\":5502:5520   */\n      0x24\n      dup3\n      add\n        /* \"#utility.yul\":5495:5525   */\n      mstore\n        /* \"#utility.yul\":5561:5592   */\n      0x5061796d656e7420746f6b656e207472616e73666572206661696c6564000000\n        /* \"#utility.yul\":5541:5559   */\n      0x44\n      dup3\n      add\n        /* \"#utility.yul\":5534:5593   */\n      mstore\n        /* \"#utility.yul\":5610:5628   */\n      0x64\n      add\n        /* \"bonding_contract.sol\":3945:3994  require(success, \"Payment token transfer failed\") */\n      tag_78\n        /* \"#utility.yul\":5281:5634   */\n      jump\n        /* \"bonding_contract.sol\":3945:3994  require(success, \"Payment token transfer failed\") */\n    tag_134:\n        /* \"bonding_contract.sol\":4057:4080  uint256 discountedPrice */\n      0x00\n        /* \"bonding_contract.sol\":4122:4125  100 */\n      0x64\n        /* \"bonding_contract.sol\":4105:4117  discountRate */\n      sload(0x03)\n        /* \"bonding_contract.sol\":4099:4102  100 */\n      0x64\n        /* \"bonding_contract.sol\":4099:4117  100 - discountRate */\n      tag_137\n      swap2\n      swap1\n      tag_138\n      jump\t// in\n    tag_137:\n        /* \"bonding_contract.sol\":4084:4095  targetPrice */\n      sload(0x04)\n        /* \"bonding_contract.sol\":4084:4118  targetPrice * (100 - discountRate) */\n      tag_139\n      swap2\n      swap1\n      tag_140\n      jump\t// in\n    tag_139:\n        /* \"bonding_contract.sol\":4083:4125  (targetPrice * (100 - discountRate)) / 100 */\n      tag_141\n      swap2\n      swap1\n      tag_142\n      jump\t// in\n    tag_141:\n        /* \"bonding_contract.sol\":4057:4125  uint256 discountedPrice = (targetPrice * (100 - discountRate)) / 100 */\n      swap1\n      pop\n        /* \"bonding_contract.sol\":4136:4159  uint256 roboMoneyAmount */\n      0x00\n        /* \"bonding_contract.sol\":4057:4125  uint256 discountedPrice = (targetPrice * (100 - discountRate)) / 100 */\n      dup2\n        /* \"bonding_contract.sol\":4163:4181  tokenAmount * 1e18 */\n      tag_143\n        /* \"bonding_contract.sol\":4163:4174  tokenAmount */\n      dup7\n        /* \"bonding_contract.sol\":4177:4181  1e18 */\n      0x0de0b6b3a7640000\n        /* \"bonding_contract.sol\":4163:4181  tokenAmount * 1e18 */\n      tag_140\n      jump\t// in\n    tag_143:\n        /* \"bonding_contract.sol\":4162:4200  (tokenAmount * 1e18) / discountedPrice */\n      tag_144\n      swap2\n      swap1\n      tag_142\n      jump\t// in\n    tag_144:\n        /* \"bonding_contract.sol\":4335:4344  roboMoney */\n      sload(0x02)\n        /* \"bonding_contract.sol\":4324:4370  IRoboMoney(roboMoney).balanceOf(address(this)) */\n      mload(0x40)\n      shl(0xe0, 0x70a08231)\n      dup2\n      mstore\n        /* \"bonding_contract.sol\":4364:4368  this */\n      address\n        /* \"bonding_contract.sol\":4324:4370  IRoboMoney(roboMoney).balanceOf(address(this)) */\n      0x04\n      dup3\n      add\n        /* \"#utility.yul\":711:762   */\n      mstore\n        /* \"bonding_contract.sol\":4136:4200  uint256 roboMoneyAmount = (tokenAmount * 1e18) / discountedPrice */\n      swap2\n      swap3\n      pop\n        /* \"bonding_contract.sol\":4299:4321  uint256 currentBalance */\n      0x00\n      swap2\n      sub(shl(0xa0, 0x01), 0x01)\n        /* \"bonding_contract.sol\":4335:4344  roboMoney */\n      swap1\n      swap2\n      and\n      swap1\n        /* \"bonding_contract.sol\":4324:4355  IRoboMoney(roboMoney).balanceOf */\n      0x70a08231\n      swap1\n        /* \"#utility.yul\":684:702   */\n      0x24\n      add\n        /* \"bonding_contract.sol\":4324:4370  IRoboMoney(roboMoney).balanceOf(address(this)) */\n      0x20\n      mload(0x40)\n      dup1\n      dup4\n      sub\n      dup2\n      dup7\n      gas\n      staticcall\n      iszero\n      dup1\n      iszero\n      tag_147\n      jumpi\n      returndatacopy(0x00, 0x00, returndatasize)\n      revert(0x00, returndatasize)\n    tag_147:\n      pop\n      pop\n      pop\n      pop\n      mload(0x40)\n      returndatasize\n      not(0x1f)\n      0x1f\n      dup3\n      add\n      and\n      dup3\n      add\n      dup1\n      0x40\n      mstore\n      pop\n      dup2\n      add\n      swap1\n      tag_148\n      swap2\n      swap1\n      tag_75\n      jump\t// in\n    tag_148:\n        /* \"bonding_contract.sol\":4299:4370  uint256 currentBalance = IRoboMoney(roboMoney).balanceOf(address(this)) */\n      swap1\n      pop\n        /* \"bonding_contract.sol\":4402:4417  roboMoneyAmount */\n      dup2\n        /* \"bonding_contract.sol\":4385:4399  currentBalance */\n      dup2\n        /* \"bonding_contract.sol\":4385:4417  currentBalance < roboMoneyAmount */\n      lt\n        /* \"bonding_contract.sol\":4381:5068  if (currentBalance < roboMoneyAmount) {... */\n      iszero\n      tag_149\n      jumpi\n        /* \"bonding_contract.sol\":4434:4452  uint256 mintAmount */\n      0x00\n        /* \"bonding_contract.sol\":4455:4487  roboMoneyAmount - currentBalance */\n      tag_150\n        /* \"bonding_contract.sol\":4473:4487  currentBalance */\n      dup3\n        /* \"bonding_contract.sol\":4455:4470  roboMoneyAmount */\n      dup5\n        /* \"bonding_contract.sol\":4455:4487  roboMoneyAmount - currentBalance */\n      tag_138\n      jump\t// in\n    tag_150:\n        /* \"bonding_contract.sol\":4434:4487  uint256 mintAmount = roboMoneyAmount - currentBalance */\n      swap1\n      pop\n        /* \"bonding_contract.sol\":4563:4582  uint256 totalSupply */\n      0x00\n        /* \"bonding_contract.sol\":4596:4605  roboMoney */\n      0x02\n      0x00\n      swap1\n      sload\n      swap1\n      0x0100\n      exp\n      swap1\n      div\n      sub(shl(0xa0, 0x01), 0x01)\n      and\n      sub(shl(0xa0, 0x01), 0x01)\n        /* \"bonding_contract.sol\":4585:4618  IRoboMoney(roboMoney).totalSupply */\n      and\n      0x18160ddd\n        /* \"bonding_contract.sol\":4585:4620  IRoboMoney(roboMoney).totalSupply() */\n      mload(0x40)\n      dup2\n      0xffffffff\n      and\n      0xe0\n      shl\n      dup2\n      mstore\n      0x04\n      add\n      0x20\n      mload(0x40)\n      dup1\n      dup4\n      sub\n      dup2\n      dup7\n      gas\n      staticcall\n      iszero\n      dup1\n      iszero\n      tag_152\n      jumpi\n      returndatacopy(0x00, 0x00, returndatasize)\n      revert(0x00, returndatasize)\n    tag_152:\n      pop\n      pop\n      pop\n      pop\n      mload(0x40)\n      returndatasize\n      not(0x1f)\n      0x1f\n      dup3\n      add\n      and\n      dup3\n      add\n      dup1\n      0x40\n      mstore\n      pop\n      dup2\n      add\n      swap1\n      tag_153\n      swap2\n      swap1\n      tag_75\n      jump\t// in\n    tag_153:\n        /* \"bonding_contract.sol\":4563:4620  uint256 totalSupply = IRoboMoney(roboMoney).totalSupply() */\n      swap1\n      pop\n        /* \"bonding_contract.sol\":4639:4650  totalSupply */\n      dup1\n        /* \"bonding_contract.sol\":4654:4655  0 */\n      0x00\n        /* \"bonding_contract.sol\":4639:4655  totalSupply == 0 */\n      sub\n        /* \"bonding_contract.sol\":4635:5057  if (totalSupply == 0) {... */\n      tag_154\n      jumpi\n        /* \"bonding_contract.sol\":4725:4734  roboMoney */\n      sload(0x02)\n        /* \"bonding_contract.sol\":4714:4764  IRoboMoney(roboMoney).initializeSupply(mintAmount) */\n      mload(0x40)\n      shl(0xe0, 0xd9e63bb1)\n      dup2\n      mstore\n      0x04\n      dup2\n      add\n        /* \"#utility.yul\":529:554   */\n      dup5\n      swap1\n      mstore\n      sub(shl(0xa0, 0x01), 0x01)\n        /* \"bonding_contract.sol\":4725:4734  roboMoney */\n      swap1\n      swap2\n      and\n      swap1\n        /* \"bonding_contract.sol\":4714:4752  IRoboMoney(roboMoney).initializeSupply */\n      0xd9e63bb1\n      swap1\n        /* \"#utility.yul\":502:520   */\n      0x24\n      add\n        /* \"bonding_contract.sol\":4714:4764  IRoboMoney(roboMoney).initializeSupply(mintAmount) */\n      0x00\n      mload(0x40)\n      dup1\n      dup4\n      sub\n      dup2\n      0x00\n      dup8\n      dup1\n      extcodesize\n      iszero\n      dup1\n      iszero\n      tag_156\n      jumpi\n      revert(0x00, 0x00)\n    tag_156:\n      pop\n      gas\n      call\n      iszero\n      dup1\n      iszero\n      tag_158\n      jumpi\n      returndatacopy(0x00, 0x00, returndatasize)\n      revert(0x00, returndatasize)\n    tag_158:\n      pop\n      pop\n      pop\n      pop\n        /* \"bonding_contract.sol\":4788:4827  Debug(\"Initialized Supply\", mintAmount) */\n      0x3c5ad147104e56be34a9176a6692f7df8d2f4b29a5af06bc6b98970d329d6577\n        /* \"bonding_contract.sol\":4816:4826  mintAmount */\n      dup3\n        /* \"bonding_contract.sol\":4788:4827  Debug(\"Initialized Supply\", mintAmount) */\n      mload(0x40)\n      tag_159\n      swap2\n      swap1\n        /* \"#utility.yul\":6529:6531   */\n      0x40\n        /* \"#utility.yul\":6511:6532   */\n      dup1\n      dup3\n      mstore\n        /* \"#utility.yul\":6568:6570   */\n      0x12\n        /* \"#utility.yul\":6548:6566   */\n      swap1\n      dup3\n      add\n        /* \"#utility.yul\":6541:6571   */\n      mstore\n      shl(0x70, 0x496e697469616c697a656420537570706c79)\n        /* \"#utility.yul\":6602:6604   */\n      0x60\n        /* \"#utility.yul\":6587:6605   */\n      dup3\n      add\n        /* \"#utility.yul\":6580:6628   */\n      mstore\n        /* \"#utility.yul\":6695:6699   */\n      0x20\n        /* \"#utility.yul\":6680:6700   */\n      dup2\n      add\n        /* \"#utility.yul\":6673:6709   */\n      swap2\n      swap1\n      swap2\n      mstore\n        /* \"#utility.yul\":6660:6663   */\n      0x80\n        /* \"#utility.yul\":6645:6664   */\n      add\n      swap1\n        /* \"#utility.yul\":6299:6715   */\n      jump\n        /* \"bonding_contract.sol\":4788:4827  Debug(\"Initialized Supply\", mintAmount) */\n    tag_159:\n      mload(0x40)\n      dup1\n      swap2\n      sub\n      swap1\n      log1\n        /* \"bonding_contract.sol\":4635:5057  if (totalSupply == 0) {... */\n      jump(tag_161)\n    tag_154:\n        /* \"bonding_contract.sol\":4941:4950  roboMoney */\n      sload(0x02)\n        /* \"bonding_contract.sol\":4930:4983  IRoboMoney(roboMoney).mint(address(this), mintAmount) */\n      mload(0x40)\n      shl(0xe0, 0x40c10f19)\n      dup2\n      mstore\n        /* \"bonding_contract.sol\":4965:4969  this */\n      address\n        /* \"bonding_contract.sol\":4930:4983  IRoboMoney(roboMoney).mint(address(this), mintAmount) */\n      0x04\n      dup3\n      add\n        /* \"#utility.yul\":3153:3204   */\n      mstore\n        /* \"#utility.yul\":3220:3238   */\n      0x24\n      dup2\n      add\n        /* \"#utility.yul\":3213:3247   */\n      dup5\n      swap1\n      mstore\n      sub(shl(0xa0, 0x01), 0x01)\n        /* \"bonding_contract.sol\":4941:4950  roboMoney */\n      swap1\n      swap2\n      and\n      swap1\n        /* \"bonding_contract.sol\":4930:4956  IRoboMoney(roboMoney).mint */\n      0x40c10f19\n      swap1\n        /* \"#utility.yul\":3126:3144   */\n      0x44\n      add\n        /* \"bonding_contract.sol\":4930:4983  IRoboMoney(roboMoney).mint(address(this), mintAmount) */\n      0x00\n      mload(0x40)\n      dup1\n      dup4\n      sub\n      dup2\n      0x00\n      dup8\n      dup1\n      extcodesize\n      iszero\n      dup1\n      iszero\n      tag_163\n      jumpi\n      revert(0x00, 0x00)\n    tag_163:\n      pop\n      gas\n      call\n      iszero\n      dup1\n      iszero\n      tag_165\n      jumpi\n      returndatacopy(0x00, 0x00, returndatasize)\n      revert(0x00, returndatasize)\n    tag_165:\n      pop\n      pop\n      pop\n      pop\n        /* \"bonding_contract.sol\":5007:5041  Debug(\"Minted Tokens\", mintAmount) */\n      0x3c5ad147104e56be34a9176a6692f7df8d2f4b29a5af06bc6b98970d329d6577\n        /* \"bonding_contract.sol\":5030:5040  mintAmount */\n      dup3\n        /* \"bonding_contract.sol\":5007:5041  Debug(\"Minted Tokens\", mintAmount) */\n      mload(0x40)\n      tag_166\n      swap2\n      swap1\n        /* \"#utility.yul\":6950:6952   */\n      0x40\n        /* \"#utility.yul\":6932:6953   */\n      dup1\n      dup3\n      mstore\n        /* \"#utility.yul\":6989:6991   */\n      0x0d\n        /* \"#utility.yul\":6969:6987   */\n      swap1\n      dup3\n      add\n        /* \"#utility.yul\":6962:6992   */\n      mstore\n      shl(0x98, 0x4d696e74656420546f6b656e73)\n        /* \"#utility.yul\":7023:7025   */\n      0x60\n        /* \"#utility.yul\":7008:7026   */\n      dup3\n      add\n        /* \"#utility.yul\":7001:7044   */\n      mstore\n        /* \"#utility.yul\":7111:7115   */\n      0x20\n        /* \"#utility.yul\":7096:7116   */\n      dup2\n      add\n        /* \"#utility.yul\":7089:7125   */\n      swap2\n      swap1\n      swap2\n      mstore\n        /* \"#utility.yul\":7076:7079   */\n      0x80\n        /* \"#utility.yul\":7061:7080   */\n      add\n      swap1\n        /* \"#utility.yul\":6720:7131   */\n      jump\n        /* \"bonding_contract.sol\":5007:5041  Debug(\"Minted Tokens\", mintAmount) */\n    tag_166:\n      mload(0x40)\n      dup1\n      swap2\n      sub\n      swap1\n      log1\n        /* \"bonding_contract.sol\":4635:5057  if (totalSupply == 0) {... */\n    tag_161:\n        /* \"bonding_contract.sol\":4419:5068  {... */\n      pop\n      pop\n        /* \"bonding_contract.sol\":4381:5068  if (currentBalance < roboMoneyAmount) {... */\n    tag_149:\n        /* \"bonding_contract.sol\":5138:5147  roboMoney */\n      sload(0x02)\n        /* \"bonding_contract.sol\":5127:5186  IRoboMoney(roboMoney).transfer(msg.sender, roboMoneyAmount) */\n      mload(0x40)\n      shl(0xe0, 0xa9059cbb)\n      dup2\n      mstore\n        /* \"bonding_contract.sol\":5158:5168  msg.sender */\n      caller\n        /* \"bonding_contract.sol\":5127:5186  IRoboMoney(roboMoney).transfer(msg.sender, roboMoneyAmount) */\n      0x04\n      dup3\n      add\n        /* \"#utility.yul\":3153:3204   */\n      mstore\n        /* \"#utility.yul\":3220:3238   */\n      0x24\n      dup2\n      add\n        /* \"#utility.yul\":3213:3247   */\n      dup5\n      swap1\n      mstore\n      sub(shl(0xa0, 0x01), 0x01)\n        /* \"bonding_contract.sol\":5138:5147  roboMoney */\n      swap1\n      swap2\n      and\n      swap1\n        /* \"bonding_contract.sol\":5127:5157  IRoboMoney(roboMoney).transfer */\n      0xa9059cbb\n      swap1\n        /* \"#utility.yul\":3126:3144   */\n      0x44\n      add\n        /* \"bonding_contract.sol\":5127:5186  IRoboMoney(roboMoney).transfer(msg.sender, roboMoneyAmount) */\n      0x20\n      mload(0x40)\n      dup1\n      dup4\n      sub\n      dup2\n      0x00\n      dup8\n      gas\n      call\n      iszero\n      dup1\n      iszero\n      tag_170\n      jumpi\n      returndatacopy(0x00, 0x00, returndatasize)\n      revert(0x00, returndatasize)\n    tag_170:\n      pop\n      pop\n      pop\n      pop\n      mload(0x40)\n      returndatasize\n      not(0x1f)\n      0x1f\n      dup3\n      add\n      and\n      dup3\n      add\n      dup1\n      0x40\n      mstore\n      pop\n      dup2\n      add\n      swap1\n      tag_171\n      swap2\n      swap1\n      tag_99\n      jump\t// in\n    tag_171:\n      pop\n        /* \"bonding_contract.sol\":5204:5259  BondPurchased(msg.sender, tokenAmount, roboMoneyAmount) */\n      0x40\n      dup1\n      mload\n        /* \"#utility.yul\":7310:7335   */\n      dup8\n      dup2\n      mstore\n        /* \"#utility.yul\":7366:7368   */\n      0x20\n        /* \"#utility.yul\":7351:7369   */\n      dup2\n      add\n        /* \"#utility.yul\":7344:7378   */\n      dup5\n      swap1\n      mstore\n        /* \"bonding_contract.sol\":5218:5228  msg.sender */\n      caller\n      swap2\n        /* \"bonding_contract.sol\":5204:5259  BondPurchased(msg.sender, tokenAmount, roboMoneyAmount) */\n      0x0db13e87b3f9c3b8f5f3acad928df55c52ba6bf7795af4ec069de5e23caacb37\n      swap2\n        /* \"#utility.yul\":7283:7301   */\n      add\n        /* \"bonding_contract.sol\":5204:5259  BondPurchased(msg.sender, tokenAmount, roboMoneyAmount) */\n      mload(0x40)\n      dup1\n      swap2\n      sub\n      swap1\n      log2\n        /* \"bonding_contract.sol\":3498:5267  {... */\n      pop\n      pop\n      pop\n      pop\n      pop\n        /* \"bonding_contract.sol\":3454:5267  function bond(uint256 tokenAmount) external {... */\n      pop\n      jump\t// out\n        /* \"bonding_contract.sol\":7058:7203  function checkContractRoboMoneyBalance() external view returns (uint256) {... */\n    tag_55:\n        /* \"bonding_contract.sol\":7160:7169  roboMoney */\n      sload(0x02)\n        /* \"bonding_contract.sol\":7149:7195  IRoboMoney(roboMoney).balanceOf(address(this)) */\n      mload(0x40)\n      shl(0xe0, 0x70a08231)\n      dup2\n      mstore\n        /* \"bonding_contract.sol\":7189:7193  this */\n      address\n        /* \"bonding_contract.sol\":7149:7195  IRoboMoney(roboMoney).balanceOf(address(this)) */\n      0x04\n      dup3\n      add\n        /* \"#utility.yul\":711:762   */\n      mstore\n        /* \"bonding_contract.sol\":7122:7129  uint256 */\n      0x00\n      swap2\n      sub(shl(0xa0, 0x01), 0x01)\n        /* \"bonding_contract.sol\":7160:7169  roboMoney */\n      and\n      swap1\n        /* \"bonding_contract.sol\":7149:7180  IRoboMoney(roboMoney).balanceOf */\n      0x70a08231\n      swap1\n        /* \"#utility.yul\":684:702   */\n      0x24\n      add\n        /* \"bonding_contract.sol\":7149:7195  IRoboMoney(roboMoney).balanceOf(address(this)) */\n      0x20\n      mload(0x40)\n      dup1\n      dup4\n      sub\n      dup2\n      dup7\n      gas\n      staticcall\n      iszero\n      dup1\n      iszero\n      tag_177\n      jumpi\n      returndatacopy(0x00, 0x00, returndatasize)\n      revert(0x00, returndatasize)\n    tag_177:\n      pop\n      pop\n      pop\n      pop\n      mload(0x40)\n      returndatasize\n      not(0x1f)\n      0x1f\n      dup3\n      add\n      and\n      dup3\n      add\n      dup1\n      0x40\n      mstore\n      pop\n      dup2\n      add\n      swap1\n      tag_178\n      swap2\n      swap1\n      tag_75\n      jump\t// in\n    tag_178:\n        /* \"bonding_contract.sol\":7142:7195  return IRoboMoney(roboMoney).balanceOf(address(this)) */\n      swap1\n      pop\n        /* \"bonding_contract.sol\":7058:7203  function checkContractRoboMoneyBalance() external view returns (uint256) {... */\n      swap1\n      jump\t// out\n        /* \"bonding_contract.sol\":6820:6960  function checkRoboMoneyBalance(address user) external view returns (uint256) {... */\n    tag_59:\n        /* \"bonding_contract.sol\":6926:6935  roboMoney */\n      sload(0x02)\n        /* \"bonding_contract.sol\":6915:6952  IRoboMoney(roboMoney).balanceOf(user) */\n      mload(0x40)\n      shl(0xe0, 0x70a08231)\n      dup2\n      mstore\n      sub(shl(0xa0, 0x01), 0x01)\n        /* \"#utility.yul\":729:761   */\n      dup4\n      dup2\n      and\n        /* \"bonding_contract.sol\":6915:6952  IRoboMoney(roboMoney).balanceOf(user) */\n      0x04\n      dup4\n      add\n        /* \"#utility.yul\":711:762   */\n      mstore\n        /* \"bonding_contract.sol\":6888:6895  uint256 */\n      0x00\n      swap3\n        /* \"bonding_contract.sol\":6926:6935  roboMoney */\n      and\n      swap1\n        /* \"bonding_contract.sol\":6915:6946  IRoboMoney(roboMoney).balanceOf */\n      0x70a08231\n      swap1\n        /* \"#utility.yul\":684:702   */\n      0x24\n      add\n        /* \"bonding_contract.sol\":6915:6952  IRoboMoney(roboMoney).balanceOf(user) */\n      tag_71\n        /* \"#utility.yul\":565:768   */\n      jump\n        /* \"bonding_contract.sol\":2981:3211  function transferOwnership(address newOwner) external onlyOwner {... */\n    tag_69:\n        /* \"bonding_contract.sol\":2624:2629  owner */\n      and(sub(shl(0xa0, 0x01), 0x01), sload(0x00))\n        /* \"bonding_contract.sol\":2610:2620  msg.sender */\n      caller\n        /* \"bonding_contract.sol\":2610:2629  msg.sender == owner */\n      eq\n        /* \"bonding_contract.sol\":2602:2648  require(msg.sender == owner, \"Not authorized\") */\n      tag_185\n      jumpi\n      mload(0x40)\n      shl(0xe5, 0x461bcd)\n      dup2\n      mstore\n      0x04\n      add\n      tag_78\n      swap1\n      tag_79\n      jump\t// in\n    tag_185:\n      sub(shl(0xa0, 0x01), 0x01)\n        /* \"bonding_contract.sol\":3064:3086  newOwner != address(0) */\n      dup2\n      and\n        /* \"bonding_contract.sol\":3056:3123  require(newOwner != address(0), \"New owner cannot be zero address\") */\n      tag_188\n      jumpi\n      mload(0x40)\n      shl(0xe5, 0x461bcd)\n      dup2\n      mstore\n        /* \"#utility.yul\":7591:7593   */\n      0x20\n        /* \"bonding_contract.sol\":3056:3123  require(newOwner != address(0), \"New owner cannot be zero address\") */\n      0x04\n      dup3\n      add\n        /* \"#utility.yul\":7573:7594   */\n      dup2\n      swap1\n      mstore\n        /* \"#utility.yul\":7610:7628   */\n      0x24\n      dup3\n      add\n        /* \"#utility.yul\":7603:7633   */\n      mstore\n        /* \"#utility.yul\":7669:7703   */\n      0x4e6577206f776e65722063616e6e6f74206265207a65726f2061646472657373\n        /* \"#utility.yul\":7649:7667   */\n      0x44\n      dup3\n      add\n        /* \"#utility.yul\":7642:7704   */\n      mstore\n        /* \"#utility.yul\":7721:7739   */\n      0x64\n      add\n        /* \"bonding_contract.sol\":3056:3123  require(newOwner != address(0), \"New owner cannot be zero address\") */\n      tag_78\n        /* \"#utility.yul\":7389:7745   */\n      jump\n        /* \"bonding_contract.sol\":3056:3123  require(newOwner != address(0), \"New owner cannot be zero address\") */\n    tag_188:\n        /* \"bonding_contract.sol\":3160:3165  owner */\n      0x00\n      dup1\n      sload\n        /* \"bonding_contract.sol\":3139:3176  OwnershipTransferred(owner, newOwner) */\n      mload(0x40)\n      sub(shl(0xa0, 0x01), 0x01)\n      dup1\n      dup6\n      and\n      swap4\n        /* \"bonding_contract.sol\":3160:3165  owner */\n      swap3\n      and\n      swap2\n        /* \"bonding_contract.sol\":3139:3176  OwnershipTransferred(owner, newOwner) */\n      0x8be0079c531659141344cd1fd0a4f28419497f9722a3daafe3b4186f6b6457e0\n      swap2\n      log3\n        /* \"bonding_contract.sol\":3187:3192  owner */\n      0x00\n        /* \"bonding_contract.sol\":3187:3203  owner = newOwner */\n      dup1\n      sload\n      not(sub(shl(0xa0, 0x01), 0x01))\n      and\n      sub(shl(0xa0, 0x01), 0x01)\n      swap3\n      swap1\n      swap3\n      and\n      swap2\n      swap1\n      swap2\n      or\n      swap1\n      sstore\n        /* \"bonding_contract.sol\":2981:3211  function transferOwnership(address newOwner) external onlyOwner {... */\n      jump\t// out\n        /* \"#utility.yul\":14:187   */\n    tag_191:\n        /* \"#utility.yul\":82:102   */\n      dup1\n      calldataload\n      sub(shl(0xa0, 0x01), 0x01)\n        /* \"#utility.yul\":131:162   */\n      dup2\n      and\n        /* \"#utility.yul\":121:163   */\n      dup2\n      eq\n        /* \"#utility.yul\":111:181   */\n      tag_195\n      jumpi\n        /* \"#utility.yul\":177:178   */\n      0x00\n        /* \"#utility.yul\":174:175   */\n      0x00\n        /* \"#utility.yul\":167:179   */\n      revert\n        /* \"#utility.yul\":111:181   */\n    tag_195:\n        /* \"#utility.yul\":14:187   */\n      swap2\n      swap1\n      pop\n      jump\t// out\n        /* \"#utility.yul\":192:378   */\n    tag_22:\n        /* \"#utility.yul\":251:257   */\n      0x00\n        /* \"#utility.yul\":304:306   */\n      0x20\n        /* \"#utility.yul\":292:301   */\n      dup3\n        /* \"#utility.yul\":283:290   */\n      dup5\n        /* \"#utility.yul\":279:302   */\n      sub\n        /* \"#utility.yul\":275:307   */\n      slt\n        /* \"#utility.yul\":272:324   */\n      iszero\n      tag_197\n      jumpi\n        /* \"#utility.yul\":320:321   */\n      0x00\n        /* \"#utility.yul\":317:318   */\n      0x00\n        /* \"#utility.yul\":310:322   */\n      revert\n        /* \"#utility.yul\":272:324   */\n    tag_197:\n        /* \"#utility.yul\":343:372   */\n      tag_198\n        /* \"#utility.yul\":362:371   */\n      dup3\n        /* \"#utility.yul\":343:372   */\n      tag_191\n      jump\t// in\n    tag_198:\n        /* \"#utility.yul\":333:372   */\n      swap4\n        /* \"#utility.yul\":192:378   */\n      swap3\n      pop\n      pop\n      pop\n      jump\t// out\n        /* \"#utility.yul\":773:1147   */\n    tag_32:\n        /* \"#utility.yul\":850:856   */\n      0x00\n        /* \"#utility.yul\":858:864   */\n      0x00\n        /* \"#utility.yul\":866:872   */\n      0x00\n        /* \"#utility.yul\":919:921   */\n      0x60\n        /* \"#utility.yul\":907:916   */\n      dup5\n        /* \"#utility.yul\":898:905   */\n      dup7\n        /* \"#utility.yul\":894:917   */\n      sub\n        /* \"#utility.yul\":890:922   */\n      slt\n        /* \"#utility.yul\":887:939   */\n      iszero\n      tag_202\n      jumpi\n        /* \"#utility.yul\":935:936   */\n      0x00\n        /* \"#utility.yul\":932:933   */\n      0x00\n        /* \"#utility.yul\":925:937   */\n      revert\n        /* \"#utility.yul\":887:939   */\n    tag_202:\n        /* \"#utility.yul\":958:987   */\n      tag_203\n        /* \"#utility.yul\":977:986   */\n      dup5\n        /* \"#utility.yul\":958:987   */\n      tag_191\n      jump\t// in\n    tag_203:\n        /* \"#utility.yul\":948:987   */\n      swap3\n      pop\n        /* \"#utility.yul\":1056:1058   */\n      0x20\n        /* \"#utility.yul\":1041:1059   */\n      dup5\n      add\n        /* \"#utility.yul\":1028:1060   */\n      calldataload\n      swap2\n      pop\n        /* \"#utility.yul\":1103:1141   */\n      tag_204\n        /* \"#utility.yul\":1137:1139   */\n      0x40\n        /* \"#utility.yul\":1122:1140   */\n      dup6\n      add\n        /* \"#utility.yul\":1103:1141   */\n      tag_191\n      jump\t// in\n    tag_204:\n        /* \"#utility.yul\":1093:1141   */\n      swap1\n      pop\n        /* \"#utility.yul\":773:1147   */\n      swap3\n      pop\n      swap3\n      pop\n      swap3\n      jump\t// out\n        /* \"#utility.yul\":1152:1378   */\n    tag_36:\n        /* \"#utility.yul\":1211:1217   */\n      0x00\n        /* \"#utility.yul\":1264:1266   */\n      0x20\n        /* \"#utility.yul\":1252:1261   */\n      dup3\n        /* \"#utility.yul\":1243:1250   */\n      dup5\n        /* \"#utility.yul\":1239:1262   */\n      sub\n        /* \"#utility.yul\":1235:1267   */\n      slt\n        /* \"#utility.yul\":1232:1284   */\n      iszero\n      tag_206\n      jumpi\n        /* \"#utility.yul\":1280:1281   */\n      0x00\n        /* \"#utility.yul\":1277:1278   */\n      0x00\n        /* \"#utility.yul\":1270:1282   */\n      revert\n        /* \"#utility.yul\":1232:1284   */\n    tag_206:\n      pop\n        /* \"#utility.yul\":1325:1348   */\n      calldataload\n      swap2\n        /* \"#utility.yul\":1152:1378   */\n      swap1\n      pop\n      jump\t// out\n        /* \"#utility.yul\":1383:1567   */\n    tag_75:\n        /* \"#utility.yul\":1453:1459   */\n      0x00\n        /* \"#utility.yul\":1506:1508   */\n      0x20\n        /* \"#utility.yul\":1494:1503   */\n      dup3\n        /* \"#utility.yul\":1485:1492   */\n      dup5\n        /* \"#utility.yul\":1481:1504   */\n      sub\n        /* \"#utility.yul\":1477:1509   */\n      slt\n        /* \"#utility.yul\":1474:1526   */\n      iszero\n      tag_208\n      jumpi\n        /* \"#utility.yul\":1522:1523   */\n      0x00\n        /* \"#utility.yul\":1519:1520   */\n      0x00\n        /* \"#utility.yul\":1512:1524   */\n      revert\n        /* \"#utility.yul\":1474:1526   */\n    tag_208:\n      pop\n        /* \"#utility.yul\":1545:1561   */\n      mload\n      swap2\n        /* \"#utility.yul\":1383:1567   */\n      swap1\n      pop\n      jump\t// out\n        /* \"#utility.yul\":1572:1910   */\n    tag_79:\n        /* \"#utility.yul\":1774:1776   */\n      0x20\n        /* \"#utility.yul\":1756:1777   */\n      dup1\n      dup3\n      mstore\n        /* \"#utility.yul\":1813:1815   */\n      0x0e\n        /* \"#utility.yul\":1793:1811   */\n      swap1\n      dup3\n      add\n        /* \"#utility.yul\":1786:1816   */\n      mstore\n      shl(0x92, 0x139bdd08185d5d1a1bdc9a5e9959)\n        /* \"#utility.yul\":1847:1849   */\n      0x40\n        /* \"#utility.yul\":1832:1850   */\n      dup3\n      add\n        /* \"#utility.yul\":1825:1869   */\n      mstore\n        /* \"#utility.yul\":1901:1903   */\n      0x60\n        /* \"#utility.yul\":1886:1904   */\n      add\n      swap1\n        /* \"#utility.yul\":1572:1910   */\n      jump\t// out\n        /* \"#utility.yul\":3258:3535   */\n    tag_99:\n        /* \"#utility.yul\":3325:3331   */\n      0x00\n        /* \"#utility.yul\":3378:3380   */\n      0x20\n        /* \"#utility.yul\":3366:3375   */\n      dup3\n        /* \"#utility.yul\":3357:3364   */\n      dup5\n        /* \"#utility.yul\":3353:3376   */\n      sub\n        /* \"#utility.yul\":3349:3381   */\n      slt\n        /* \"#utility.yul\":3346:3398   */\n      iszero\n      tag_215\n      jumpi\n        /* \"#utility.yul\":3394:3395   */\n      0x00\n        /* \"#utility.yul\":3391:3392   */\n      0x00\n        /* \"#utility.yul\":3384:3396   */\n      revert\n        /* \"#utility.yul\":3346:3398   */\n    tag_215:\n        /* \"#utility.yul\":3426:3435   */\n      dup2\n        /* \"#utility.yul\":3420:3436   */\n      mload\n        /* \"#utility.yul\":3479:3484   */\n      dup1\n        /* \"#utility.yul\":3472:3485   */\n      iszero\n        /* \"#utility.yul\":3465:3486   */\n      iszero\n        /* \"#utility.yul\":3458:3463   */\n      dup2\n        /* \"#utility.yul\":3455:3487   */\n      eq\n        /* \"#utility.yul\":3445:3505   */\n      tag_198\n      jumpi\n        /* \"#utility.yul\":3501:3502   */\n      0x00\n        /* \"#utility.yul\":3498:3499   */\n      0x00\n        /* \"#utility.yul\":3491:3503   */\n      revert\n        /* \"#utility.yul\":5639:5766   */\n    tag_192:\n        /* \"#utility.yul\":5700:5710   */\n      0x4e487b71\n        /* \"#utility.yul\":5695:5698   */\n      0xe0\n        /* \"#utility.yul\":5691:5711   */\n      shl\n        /* \"#utility.yul\":5688:5689   */\n      0x00\n        /* \"#utility.yul\":5681:5712   */\n      mstore\n        /* \"#utility.yul\":5731:5735   */\n      0x11\n        /* \"#utility.yul\":5728:5729   */\n      0x04\n        /* \"#utility.yul\":5721:5736   */\n      mstore\n        /* \"#utility.yul\":5755:5759   */\n      0x24\n        /* \"#utility.yul\":5752:5753   */\n      0x00\n        /* \"#utility.yul\":5745:5760   */\n      revert\n        /* \"#utility.yul\":5771:5899   */\n    tag_138:\n        /* \"#utility.yul\":5838:5847   */\n      dup2\n      dup2\n      sub\n        /* \"#utility.yul\":5859:5870   */\n      dup2\n      dup2\n      gt\n        /* \"#utility.yul\":5856:5893   */\n      iszero\n      tag_74\n      jumpi\n        /* \"#utility.yul\":5873:5891   */\n      tag_74\n      tag_192\n      jump\t// in\n        /* \"#utility.yul\":5904:6072   */\n    tag_140:\n        /* \"#utility.yul\":5977:5986   */\n      dup1\n      dup3\n      mul\n        /* \"#utility.yul\":6008:6017   */\n      dup2\n      iszero\n        /* \"#utility.yul\":6025:6040   */\n      dup3\n      dup3\n      div\n        /* \"#utility.yul\":6019:6041   */\n      dup5\n      eq\n        /* \"#utility.yul\":6005:6042   */\n      or\n        /* \"#utility.yul\":5995:6066   */\n      tag_74\n      jumpi\n        /* \"#utility.yul\":6046:6064   */\n      tag_74\n      tag_192\n      jump\t// in\n        /* \"#utility.yul\":6077:6294   */\n    tag_142:\n        /* \"#utility.yul\":6117:6118   */\n      0x00\n        /* \"#utility.yul\":6143:6144   */\n      dup3\n        /* \"#utility.yul\":6133:6265   */\n      tag_231\n      jumpi\n        /* \"#utility.yul\":6187:6197   */\n      0x4e487b71\n        /* \"#utility.yul\":6182:6185   */\n      0xe0\n        /* \"#utility.yul\":6178:6198   */\n      shl\n        /* \"#utility.yul\":6175:6176   */\n      0x00\n        /* \"#utility.yul\":6168:6199   */\n      mstore\n        /* \"#utility.yul\":6222:6226   */\n      0x12\n        /* \"#utility.yul\":6219:6220   */\n      0x04\n        /* \"#utility.yul\":6212:6227   */\n      mstore\n        /* \"#utility.yul\":6250:6254   */\n      0x24\n        /* \"#utility.yul\":6247:6248   */\n      0x00\n        /* \"#utility.yul\":6240:6255   */\n      revert\n        /* \"#utility.yul\":6133:6265   */\n    tag_231:\n      pop\n        /* \"#utility.yul\":6279:6288   */\n      div\n      swap1\n        /* \"#utility.yul\":6077:6294   */\n      jump\t// out\n\n    auxdata: 0xa264697066735822122013e498a6aac9d439b91a7a57f55f74b26a35ad6e2b7df8c4185891fc489052ca64736f6c634300081c0033\n}\n",
				"bytecode": {
					"linkReferences": {},
					"object": "6080604052348015600e575f5ffd5b50604051610ec8380380610ec8833981016040819052602b91608c565b5f80546001600160a01b03199081163317909155600180546001600160a01b03968716908316179055600280549490951693169290921790925560039190915560045560c7565b80516001600160a01b03811681146087575f5ffd5b919050565b5f5f5f5f60808587031215609e575f5ffd5b60a5856072565b935060b1602086016072565b6040860151606090960151949790965092505050565b610df4806100d45f395ff3fe608060405234801561000f575f5ffd5b50600436106100e5575f3560e01c80638da5cb5b11610088578063cc7fffbe11610063578063cc7fffbe146101c8578063dc38679c146101db578063e6c0e6d5146101e4578063f2fde38b146101ed575f5ffd5b80638da5cb5b1461019b5780639940686e146101ad578063a933ac74146101c0575f5ffd5b80636a64eff8116100c35780636a64eff81461014f5780637c69febd146101625780637ef7ba201461017557806389f1aa2214610188575f5ffd5b8063126cbe60146100e95780633013ce291461010f57806369328dec1461013a575b5f5ffd5b6100fc6100f7366004610c93565b610200565b6040519081526020015b60405180910390f35b600154610122906001600160a01b031681565b6040516001600160a01b039091168152602001610106565b61014d610148366004610cb3565b610273565b005b61014d61015d366004610cec565b6104bf565b61014d610170366004610cec565b6104ed565b600254610122906001600160a01b031681565b6100fc610196366004610c93565b610564565b5f54610122906001600160a01b031681565b61014d6101bb366004610cec565b61059c565b6100fc610aff565b6100fc6101d6366004610c93565b610b6e565b6100fc60045481565b6100fc60035481565b61014d6101fb366004610c93565b610ba0565b6001546040516370a0823160e01b81526001600160a01b0383811660048301525f9216906370a08231906024015b602060405180830381865afa158015610249573d5f5f3e3d5ffd5b505050506040513d601f19601f8201168201806040525081019061026d9190610d03565b92915050565b5f546001600160a01b031633146102a55760405162461bcd60e51b815260040161029c90610d1a565b60405180910390fd5b6001600160a01b0381166102fb5760405162461bcd60e51b815260206004820152601960248201527f496e76616c696420726563697069656e74206164647265737300000000000000604482015260640161029c565b5f821161034a5760405162461bcd60e51b815260206004820181905260248201527f416d6f756e74206d7573742062652067726561746572207468616e207a65726f604482015260640161029c565b6040516370a0823160e01b81523060048201525f906001600160a01b038516906370a0823190602401602060405180830381865afa15801561038e573d5f5f3e3d5ffd5b505050506040513d601f19601f820116820180604052508101906103b29190610d03565b9050828110156103fb5760405162461bcd60e51b8152602060048201526014602482015273496e73756666696369656e742062616c616e636560601b604482015260640161029c565b60405163a9059cbb60e01b81526001600160a01b0383811660048301526024820185905285169063a9059cbb906044016020604051808303815f875af1158015610447573d5f5f3e3d5ffd5b505050506040513d601f19601f8201168201806040525081019061046b9190610d42565b50816001600160a01b0316846001600160a01b03167fd1c19fbcd4551a5edfb66d43d2e337c04837afda3482b42bdf569a8fccdae5fb856040516104b191815260200190565b60405180910390a350505050565b5f546001600160a01b031633146104e85760405162461bcd60e51b815260040161029c90610d1a565b600455565b5f546001600160a01b031633146105165760405162461bcd60e51b815260040161029c90610d1a565b606481111561055f5760405162461bcd60e51b8152602060048201526015602482015274496e76616c696420646973636f756e74207261746560581b604482015260640161029c565b600355565b600154604051636eb1769f60e11b81526001600160a01b0383811660048301523060248301525f92169063dd62ed3e9060440161022e565b5f81116105eb5760405162461bcd60e51b815260206004820152601c60248201527f4d757374206465706f73697420746f6b656e416d6f756e74203e203000000000604482015260640161029c565b600154604051636eb1769f60e11b81523360048201523060248201525f916001600160a01b03169063dd62ed3e90604401602060405180830381865afa158015610637573d5f5f3e3d5ffd5b505050506040513d601f19601f8201168201806040525081019061065b9190610d03565b9050818110156106ad5760405162461bcd60e51b815260206004820152601860248201527f416c6c6f77616e6365206e6f742073756666696369656e740000000000000000604482015260640161029c565b6001546040516323b872dd60e01b8152336004820152306024820152604481018490525f916001600160a01b0316906323b872dd906064016020604051808303815f875af1158015610701573d5f5f3e3d5ffd5b505050506040513d601f19601f820116820180604052508101906107259190610d42565b9050806107745760405162461bcd60e51b815260206004820152601d60248201527f5061796d656e7420746f6b656e207472616e73666572206661696c6564000000604482015260640161029c565b5f606460035460646107869190610d75565b6004546107939190610d88565b61079d9190610d9f565b90505f816107b386670de0b6b3a7640000610d88565b6107bd9190610d9f565b6002546040516370a0823160e01b81523060048201529192505f916001600160a01b03909116906370a0823190602401602060405180830381865afa158015610808573d5f5f3e3d5ffd5b505050506040513d601f19601f8201168201806040525081019061082c9190610d03565b905081811015610a49575f6108418284610d75565b90505f60025f9054906101000a90046001600160a01b03166001600160a01b03166318160ddd6040518163ffffffff1660e01b8152600401602060405180830381865afa158015610894573d5f5f3e3d5ffd5b505050506040513d601f19601f820116820180604052508101906108b89190610d03565b9050805f036109855760025460405163d9e63bb160e01b8152600481018490526001600160a01b039091169063d9e63bb1906024015f604051808303815f87803b158015610904575f5ffd5b505af1158015610916573d5f5f3e3d5ffd5b505050507f3c5ad147104e56be34a9176a6692f7df8d2f4b29a5af06bc6b98970d329d6577826040516109789190604080825260129082015271496e697469616c697a656420537570706c7960701b6060820152602081019190915260800190565b60405180910390a1610a46565b6002546040516340c10f1960e01b8152306004820152602481018490526001600160a01b03909116906340c10f19906044015f604051808303815f87803b1580156109ce575f5ffd5b505af11580156109e0573d5f5f3e3d5ffd5b505050507f3c5ad147104e56be34a9176a6692f7df8d2f4b29a5af06bc6b98970d329d657782604051610a3d91906040808252600d908201526c4d696e74656420546f6b656e7360981b6060820152602081019190915260800190565b60405180910390a15b50505b60025460405163a9059cbb60e01b8152336004820152602481018490526001600160a01b039091169063a9059cbb906044016020604051808303815f875af1158015610a97573d5f5f3e3d5ffd5b505050506040513d601f19601f82011682018060405250810190610abb9190610d42565b50604080518781526020810184905233917f0db13e87b3f9c3b8f5f3acad928df55c52ba6bf7795af4ec069de5e23caacb37910160405180910390a2505050505050565b6002546040516370a0823160e01b81523060048201525f916001600160a01b0316906370a0823190602401602060405180830381865afa158015610b45573d5f5f3e3d5ffd5b505050506040513d601f19601f82011682018060405250810190610b699190610d03565b905090565b6002546040516370a0823160e01b81526001600160a01b0383811660048301525f9216906370a082319060240161022e565b5f546001600160a01b03163314610bc95760405162461bcd60e51b815260040161029c90610d1a565b6001600160a01b038116610c1f5760405162461bcd60e51b815260206004820181905260248201527f4e6577206f776e65722063616e6e6f74206265207a65726f2061646472657373604482015260640161029c565b5f80546040516001600160a01b03808516939216917f8be0079c531659141344cd1fd0a4f28419497f9722a3daafe3b4186f6b6457e091a35f80546001600160a01b0319166001600160a01b0392909216919091179055565b80356001600160a01b0381168114610c8e575f5ffd5b919050565b5f60208284031215610ca3575f5ffd5b610cac82610c78565b9392505050565b5f5f5f60608486031215610cc5575f5ffd5b610cce84610c78565b925060208401359150610ce360408501610c78565b90509250925092565b5f60208284031215610cfc575f5ffd5b5035919050565b5f60208284031215610d13575f5ffd5b5051919050565b6020808252600e908201526d139bdd08185d5d1a1bdc9a5e995960921b604082015260600190565b5f60208284031215610d52575f5ffd5b81518015158114610cac575f5ffd5b634e487b7160e01b5f52601160045260245ffd5b8181038181111561026d5761026d610d61565b808202811582820484141761026d5761026d610d61565b5f82610db957634e487b7160e01b5f52601260045260245ffd5b50049056fea264697066735822122013e498a6aac9d439b91a7a57f55f74b26a35ad6e2b7df8c4185891fc489052ca64736f6c634300081c0033",
					"opcodes": "PUSH1 0x80 PUSH1 0x40 MSTORE CALLVALUE DUP1 ISZERO PUSH1 0xE JUMPI PUSH0 PUSH0 REVERT JUMPDEST POP PUSH1 0x40 MLOAD PUSH2 0xEC8 CODESIZE SUB DUP1 PUSH2 0xEC8 DUP4 CODECOPY DUP2 ADD PUSH1 0x40 DUP2 SWAP1 MSTORE PUSH1 0x2B SWAP2 PUSH1 0x8C JUMP JUMPDEST PUSH0 DUP1 SLOAD PUSH1 0x1 PUSH1 0x1 PUSH1 0xA0 SHL SUB NOT SWAP1 DUP2 AND CALLER OR SWAP1 SWAP2 SSTORE PUSH1 0x1 DUP1 SLOAD PUSH1 0x1 PUSH1 0x1 PUSH1 0xA0 SHL SUB SWAP7 DUP8 AND SWAP1 DUP4 AND OR SWAP1 SSTORE PUSH1 0x2 DUP1 SLOAD SWAP5 SWAP1 SWAP6 AND SWAP4 AND SWAP3 SWAP1 SWAP3 OR SWAP1 SWAP3 SSTORE PUSH1 0x3 SWAP2 SWAP1 SWAP2 SSTORE PUSH1 0x4 SSTORE PUSH1 0xC7 JUMP JUMPDEST DUP1 MLOAD PUSH1 0x1 PUSH1 0x1 PUSH1 0xA0 SHL SUB DUP2 AND DUP2 EQ PUSH1 0x87 JUMPI PUSH0 PUSH0 REVERT JUMPDEST SWAP2 SWAP1 POP JUMP JUMPDEST PUSH0 PUSH0 PUSH0 PUSH0 PUSH1 0x80 DUP6 DUP8 SUB SLT ISZERO PUSH1 0x9E JUMPI PUSH0 PUSH0 REVERT JUMPDEST PUSH1 0xA5 DUP6 PUSH1 0x72 JUMP JUMPDEST SWAP4 POP PUSH1 0xB1 PUSH1 0x20 DUP7 ADD PUSH1 0x72 JUMP JUMPDEST PUSH1 0x40 DUP7 ADD MLOAD PUSH1 0x60 SWAP1 SWAP7 ADD MLOAD SWAP5 SWAP8 SWAP1 SWAP7 POP SWAP3 POP POP POP JUMP JUMPDEST PUSH2 0xDF4 DUP1 PUSH2 0xD4 PUSH0 CODECOPY PUSH0 RETURN INVALID PUSH1 0x80 PUSH1 0x40 MSTORE CALLVALUE DUP1 ISZERO PUSH2 0xF JUMPI PUSH0 PUSH0 REVERT JUMPDEST POP PUSH1 0x4 CALLDATASIZE LT PUSH2 0xE5 JUMPI PUSH0 CALLDATALOAD PUSH1 0xE0 SHR DUP1 PUSH4 0x8DA5CB5B GT PUSH2 0x88 JUMPI DUP1 PUSH4 0xCC7FFFBE GT PUSH2 0x63 JUMPI DUP1 PUSH4 0xCC7FFFBE EQ PUSH2 0x1C8 JUMPI DUP1 PUSH4 0xDC38679C EQ PUSH2 0x1DB JUMPI DUP1 PUSH4 0xE6C0E6D5 EQ PUSH2 0x1E4 JUMPI DUP1 PUSH4 0xF2FDE38B EQ PUSH2 0x1ED JUMPI PUSH0 PUSH0 REVERT JUMPDEST DUP1 PUSH4 0x8DA5CB5B EQ PUSH2 0x19B JUMPI DUP1 PUSH4 0x9940686E EQ PUSH2 0x1AD JUMPI DUP1 PUSH4 0xA933AC74 EQ PUSH2 0x1C0 JUMPI PUSH0 PUSH0 REVERT JUMPDEST DUP1 PUSH4 0x6A64EFF8 GT PUSH2 0xC3 JUMPI DUP1 PUSH4 0x6A64EFF8 EQ PUSH2 0x14F JUMPI DUP1 PUSH4 0x7C69FEBD EQ PUSH2 0x162 JUMPI DUP1 PUSH4 0x7EF7BA20 EQ PUSH2 0x175 JUMPI DUP1 PUSH4 0x89F1AA22 EQ PUSH2 0x188 JUMPI PUSH0 PUSH0 REVERT JUMPDEST DUP1 PUSH4 0x126CBE60 EQ PUSH2 0xE9 JUMPI DUP1 PUSH4 0x3013CE29 EQ PUSH2 0x10F JUMPI DUP1 PUSH4 0x69328DEC EQ PUSH2 0x13A JUMPI JUMPDEST PUSH0 PUSH0 REVERT JUMPDEST PUSH2 0xFC PUSH2 0xF7 CALLDATASIZE PUSH1 0x4 PUSH2 0xC93 JUMP JUMPDEST PUSH2 0x200 JUMP JUMPDEST PUSH1 0x40 MLOAD SWAP1 DUP2 MSTORE PUSH1 0x20 ADD JUMPDEST PUSH1 0x40 MLOAD DUP1 SWAP2 SUB SWAP1 RETURN JUMPDEST PUSH1 0x1 SLOAD PUSH2 0x122 SWAP1 PUSH1 0x1 PUSH1 0x1 PUSH1 0xA0 SHL SUB AND DUP2 JUMP JUMPDEST PUSH1 0x40 MLOAD PUSH1 0x1 PUSH1 0x1 PUSH1 0xA0 SHL SUB SWAP1 SWAP2 AND DUP2 MSTORE PUSH1 0x20 ADD PUSH2 0x106 JUMP JUMPDEST PUSH2 0x14D PUSH2 0x148 CALLDATASIZE PUSH1 0x4 PUSH2 0xCB3 JUMP JUMPDEST PUSH2 0x273 JUMP JUMPDEST STOP JUMPDEST PUSH2 0x14D PUSH2 0x15D CALLDATASIZE PUSH1 0x4 PUSH2 0xCEC JUMP JUMPDEST PUSH2 0x4BF JUMP JUMPDEST PUSH2 0x14D PUSH2 0x170 CALLDATASIZE PUSH1 0x4 PUSH2 0xCEC JUMP JUMPDEST PUSH2 0x4ED JUMP JUMPDEST PUSH1 0x2 SLOAD PUSH2 0x122 SWAP1 PUSH1 0x1 PUSH1 0x1 PUSH1 0xA0 SHL SUB AND DUP2 JUMP JUMPDEST PUSH2 0xFC PUSH2 0x196 CALLDATASIZE PUSH1 0x4 PUSH2 0xC93 JUMP JUMPDEST PUSH2 0x564 JUMP JUMPDEST PUSH0 SLOAD PUSH2 0x122 SWAP1 PUSH1 0x1 PUSH1 0x1 PUSH1 0xA0 SHL SUB AND DUP2 JUMP JUMPDEST PUSH2 0x14D PUSH2 0x1BB CALLDATASIZE PUSH1 0x4 PUSH2 0xCEC JUMP JUMPDEST PUSH2 0x59C JUMP JUMPDEST PUSH2 0xFC PUSH2 0xAFF JUMP JUMPDEST PUSH2 0xFC PUSH2 0x1D6 CALLDATASIZE PUSH1 0x4 PUSH2 0xC93 JUMP JUMPDEST PUSH2 0xB6E JUMP JUMPDEST PUSH2 0xFC PUSH1 0x4 SLOAD DUP2 JUMP JUMPDEST PUSH2 0xFC PUSH1 0x3 SLOAD DUP2 JUMP JUMPDEST PUSH2 0x14D PUSH2 0x1FB CALLDATASIZE PUSH1 0x4 PUSH2 0xC93 JUMP JUMPDEST PUSH2 0xBA0 JUMP JUMPDEST PUSH1 0x1 SLOAD PUSH1 0x40 MLOAD PUSH4 0x70A08231 PUSH1 0xE0 SHL DUP2 MSTORE PUSH1 0x1 PUSH1 0x1 PUSH1 0xA0 SHL SUB DUP4 DUP2 AND PUSH1 0x4 DUP4 ADD MSTORE PUSH0 SWAP3 AND SWAP1 PUSH4 0x70A08231 SWAP1 PUSH1 0x24 ADD JUMPDEST PUSH1 0x20 PUSH1 0x40 MLOAD DUP1 DUP4 SUB DUP2 DUP7 GAS STATICCALL ISZERO DUP1 ISZERO PUSH2 0x249 JUMPI RETURNDATASIZE PUSH0 PUSH0 RETURNDATACOPY RETURNDATASIZE PUSH0 REVERT JUMPDEST POP POP POP POP PUSH1 0x40 MLOAD RETURNDATASIZE PUSH1 0x1F NOT PUSH1 0x1F DUP3 ADD AND DUP3 ADD DUP1 PUSH1 0x40 MSTORE POP DUP2 ADD SWAP1 PUSH2 0x26D SWAP2 SWAP1 PUSH2 0xD03 JUMP JUMPDEST SWAP3 SWAP2 POP POP JUMP JUMPDEST PUSH0 SLOAD PUSH1 0x1 PUSH1 0x1 PUSH1 0xA0 SHL SUB AND CALLER EQ PUSH2 0x2A5 JUMPI PUSH1 0x40 MLOAD PUSH3 0x461BCD PUSH1 0xE5 SHL DUP2 MSTORE PUSH1 0x4 ADD PUSH2 0x29C SWAP1 PUSH2 0xD1A JUMP JUMPDEST PUSH1 0x40 MLOAD DUP1 SWAP2 SUB SWAP1 REVERT JUMPDEST PUSH1 0x1 PUSH1 0x1 PUSH1 0xA0 SHL SUB DUP2 AND PUSH2 0x2FB JUMPI PUSH1 0x40 MLOAD PUSH3 0x461BCD PUSH1 0xE5 SHL DUP2 MSTORE PUSH1 0x20 PUSH1 0x4 DUP3 ADD MSTORE PUSH1 0x19 PUSH1 0x24 DUP3 ADD MSTORE PUSH32 0x496E76616C696420726563697069656E74206164647265737300000000000000 PUSH1 0x44 DUP3 ADD MSTORE PUSH1 0x64 ADD PUSH2 0x29C JUMP JUMPDEST PUSH0 DUP3 GT PUSH2 0x34A JUMPI PUSH1 0x40 MLOAD PUSH3 0x461BCD PUSH1 0xE5 SHL DUP2 MSTORE PUSH1 0x20 PUSH1 0x4 DUP3 ADD DUP2 SWAP1 MSTORE PUSH1 0x24 DUP3 ADD MSTORE PUSH32 0x416D6F756E74206D7573742062652067726561746572207468616E207A65726F PUSH1 0x44 DUP3 ADD MSTORE PUSH1 0x64 ADD PUSH2 0x29C JUMP JUMPDEST PUSH1 0x40 MLOAD PUSH4 0x70A08231 PUSH1 0xE0 SHL DUP2 MSTORE ADDRESS PUSH1 0x4 DUP3 ADD MSTORE PUSH0 SWAP1 PUSH1 0x1 PUSH1 0x1 PUSH1 0xA0 SHL SUB DUP6 AND SWAP1 PUSH4 0x70A08231 SWAP1 PUSH1 0x24 ADD PUSH1 0x20 PUSH1 0x40 MLOAD DUP1 DUP4 SUB DUP2 DUP7 GAS STATICCALL ISZERO DUP1 ISZERO PUSH2 0x38E JUMPI RETURNDATASIZE PUSH0 PUSH0 RETURNDATACOPY RETURNDATASIZE PUSH0 REVERT JUMPDEST POP POP POP POP PUSH1 0x40 MLOAD RETURNDATASIZE PUSH1 0x1F NOT PUSH1 0x1F DUP3 ADD AND DUP3 ADD DUP1 PUSH1 0x40 MSTORE POP DUP2 ADD SWAP1 PUSH2 0x3B2 SWAP2 SWAP1 PUSH2 0xD03 JUMP JUMPDEST SWAP1 POP DUP3 DUP2 LT ISZERO PUSH2 0x3FB JUMPI PUSH1 0x40 MLOAD PUSH3 0x461BCD PUSH1 0xE5 SHL DUP2 MSTORE PUSH1 0x20 PUSH1 0x4 DUP3 ADD MSTORE PUSH1 0x14 PUSH1 0x24 DUP3 ADD MSTORE PUSH20 0x496E73756666696369656E742062616C616E6365 PUSH1 0x60 SHL PUSH1 0x44 DUP3 ADD MSTORE PUSH1 0x64 ADD PUSH2 0x29C JUMP JUMPDEST PUSH1 0x40 MLOAD PUSH4 0xA9059CBB PUSH1 0xE0 SHL DUP2 MSTORE PUSH1 0x1 PUSH1 0x1 PUSH1 0xA0 SHL SUB DUP4 DUP2 AND PUSH1 0x4 DUP4 ADD MSTORE PUSH1 0x24 DUP3 ADD DUP6 SWAP1 MSTORE DUP6 AND SWAP1 PUSH4 0xA9059CBB SWAP1 PUSH1 0x44 ADD PUSH1 0x20 PUSH1 0x40 MLOAD DUP1 DUP4 SUB DUP2 PUSH0 DUP8 GAS CALL ISZERO DUP1 ISZERO PUSH2 0x447 JUMPI RETURNDATASIZE PUSH0 PUSH0 RETURNDATACOPY RETURNDATASIZE PUSH0 REVERT JUMPDEST POP POP POP POP PUSH1 0x40 MLOAD RETURNDATASIZE PUSH1 0x1F NOT PUSH1 0x1F DUP3 ADD AND DUP3 ADD DUP1 PUSH1 0x40 MSTORE POP DUP2 ADD SWAP1 PUSH2 0x46B SWAP2 SWAP1 PUSH2 0xD42 JUMP JUMPDEST POP DUP2 PUSH1 0x1 PUSH1 0x1 PUSH1 0xA0 SHL SUB AND DUP5 PUSH1 0x1 PUSH1 0x1 PUSH1 0xA0 SHL SUB AND PUSH32 0xD1C19FBCD4551A5EDFB66D43D2E337C04837AFDA3482B42BDF569A8FCCDAE5FB DUP6 PUSH1 0x40 MLOAD PUSH2 0x4B1 SWAP2 DUP2 MSTORE PUSH1 0x20 ADD SWAP1 JUMP JUMPDEST PUSH1 0x40 MLOAD DUP1 SWAP2 SUB SWAP1 LOG3 POP POP POP POP JUMP JUMPDEST PUSH0 SLOAD PUSH1 0x1 PUSH1 0x1 PUSH1 0xA0 SHL SUB AND CALLER EQ PUSH2 0x4E8 JUMPI PUSH1 0x40 MLOAD PUSH3 0x461BCD PUSH1 0xE5 SHL DUP2 MSTORE PUSH1 0x4 ADD PUSH2 0x29C SWAP1 PUSH2 0xD1A JUMP JUMPDEST PUSH1 0x4 SSTORE JUMP JUMPDEST PUSH0 SLOAD PUSH1 0x1 PUSH1 0x1 PUSH1 0xA0 SHL SUB AND CALLER EQ PUSH2 0x516 JUMPI PUSH1 0x40 MLOAD PUSH3 0x461BCD PUSH1 0xE5 SHL DUP2 MSTORE PUSH1 0x4 ADD PUSH2 0x29C SWAP1 PUSH2 0xD1A JUMP JUMPDEST PUSH1 0x64 DUP2 GT ISZERO PUSH2 0x55F JUMPI PUSH1 0x40 MLOAD PUSH3 0x461BCD PUSH1 0xE5 SHL DUP2 MSTORE PUSH1 0x20 PUSH1 0x4 DUP3 ADD MSTORE PUSH1 0x15 PUSH1 0x24 DUP3 ADD MSTORE PUSH21 0x496E76616C696420646973636F756E742072617465 PUSH1 0x58 SHL PUSH1 0x44 DUP3 ADD MSTORE PUSH1 0x64 ADD PUSH2 0x29C JUMP JUMPDEST PUSH1 0x3 SSTORE JUMP JUMPDEST PUSH1 0x1 SLOAD PUSH1 0x40 MLOAD PUSH4 0x6EB1769F PUSH1 0xE1 SHL DUP2 MSTORE PUSH1 0x1 PUSH1 0x1 PUSH1 0xA0 SHL SUB DUP4 DUP2 AND PUSH1 0x4 DUP4 ADD MSTORE ADDRESS PUSH1 0x24 DUP4 ADD MSTORE PUSH0 SWAP3 AND SWAP1 PUSH4 0xDD62ED3E SWAP1 PUSH1 0x44 ADD PUSH2 0x22E JUMP JUMPDEST PUSH0 DUP2 GT PUSH2 0x5EB JUMPI PUSH1 0x40 MLOAD PUSH3 0x461BCD PUSH1 0xE5 SHL DUP2 MSTORE PUSH1 0x20 PUSH1 0x4 DUP3 ADD MSTORE PUSH1 0x1C PUSH1 0x24 DUP3 ADD MSTORE PUSH32 0x4D757374206465706F73697420746F6B656E416D6F756E74203E203000000000 PUSH1 0x44 DUP3 ADD MSTORE PUSH1 0x64 ADD PUSH2 0x29C JUMP JUMPDEST PUSH1 0x1 SLOAD PUSH1 0x40 MLOAD PUSH4 0x6EB1769F PUSH1 0xE1 SHL DUP2 MSTORE CALLER PUSH1 0x4 DUP3 ADD MSTORE ADDRESS PUSH1 0x24 DUP3 ADD MSTORE PUSH0 SWAP2 PUSH1 0x1 PUSH1 0x1 PUSH1 0xA0 SHL SUB AND SWAP1 PUSH4 0xDD62ED3E SWAP1 PUSH1 0x44 ADD PUSH1 0x20 PUSH1 0x40 MLOAD DUP1 DUP4 SUB DUP2 DUP7 GAS STATICCALL ISZERO DUP1 ISZERO PUSH2 0x637 JUMPI RETURNDATASIZE PUSH0 PUSH0 RETURNDATACOPY RETURNDATASIZE PUSH0 REVERT JUMPDEST POP POP POP POP PUSH1 0x40 MLOAD RETURNDATASIZE PUSH1 0x1F NOT PUSH1 0x1F DUP3 ADD AND DUP3 ADD DUP1 PUSH1 0x40 MSTORE POP DUP2 ADD SWAP1 PUSH2 0x65B SWAP2 SWAP1 PUSH2 0xD03 JUMP JUMPDEST SWAP1 POP DUP2 DUP2 LT ISZERO PUSH2 0x6AD JUMPI PUSH1 0x40 MLOAD PUSH3 0x461BCD PUSH1 0xE5 SHL DUP2 MSTORE PUSH1 0x20 PUSH1 0x4 DUP3 ADD MSTORE PUSH1 0x18 PUSH1 0x24 DUP3 ADD MSTORE PUSH32 0x416C6C6F77616E6365206E6F742073756666696369656E740000000000000000 PUSH1 0x44 DUP3 ADD MSTORE PUSH1 0x64 ADD PUSH2 0x29C JUMP JUMPDEST PUSH1 0x1 SLOAD PUSH1 0x40 MLOAD PUSH4 0x23B872DD PUSH1 0xE0 SHL DUP2 MSTORE CALLER PUSH1 0x4 DUP3 ADD MSTORE ADDRESS PUSH1 0x24 DUP3 ADD MSTORE PUSH1 0x44 DUP2 ADD DUP5 SWAP1 MSTORE PUSH0 SWAP2 PUSH1 0x1 PUSH1 0x1 PUSH1 0xA0 SHL SUB AND SWAP1 PUSH4 0x23B872DD SWAP1 PUSH1 0x64 ADD PUSH1 0x20 PUSH1 0x40 MLOAD DUP1 DUP4 SUB DUP2 PUSH0 DUP8 GAS CALL ISZERO DUP1 ISZERO PUSH2 0x701 JUMPI RETURNDATASIZE PUSH0 PUSH0 RETURNDATACOPY RETURNDATASIZE PUSH0 REVERT JUMPDEST POP POP POP POP PUSH1 0x40 MLOAD RETURNDATASIZE PUSH1 0x1F NOT PUSH1 0x1F DUP3 ADD AND DUP3 ADD DUP1 PUSH1 0x40 MSTORE POP DUP2 ADD SWAP1 PUSH2 0x725 SWAP2 SWAP1 PUSH2 0xD42 JUMP JUMPDEST SWAP1 POP DUP1 PUSH2 0x774 JUMPI PUSH1 0x40 MLOAD PUSH3 0x461BCD PUSH1 0xE5 SHL DUP2 MSTORE PUSH1 0x20 PUSH1 0x4 DUP3 ADD MSTORE PUSH1 0x1D PUSH1 0x24 DUP3 ADD MSTORE PUSH32 0x5061796D656E7420746F6B656E207472616E73666572206661696C6564000000 PUSH1 0x44 DUP3 ADD MSTORE PUSH1 0x64 ADD PUSH2 0x29C JUMP JUMPDEST PUSH0 PUSH1 0x64 PUSH1 0x3 SLOAD PUSH1 0x64 PUSH2 0x786 SWAP2 SWAP1 PUSH2 0xD75 JUMP JUMPDEST PUSH1 0x4 SLOAD PUSH2 0x793 SWAP2 SWAP1 PUSH2 0xD88 JUMP JUMPDEST PUSH2 0x79D SWAP2 SWAP1 PUSH2 0xD9F JUMP JUMPDEST SWAP1 POP PUSH0 DUP2 PUSH2 0x7B3 DUP7 PUSH8 0xDE0B6B3A7640000 PUSH2 0xD88 JUMP JUMPDEST PUSH2 0x7BD SWAP2 SWAP1 PUSH2 0xD9F JUMP JUMPDEST PUSH1 0x2 SLOAD PUSH1 0x40 MLOAD PUSH4 0x70A08231 PUSH1 0xE0 SHL DUP2 MSTORE ADDRESS PUSH1 0x4 DUP3 ADD MSTORE SWAP2 SWAP3 POP PUSH0 SWAP2 PUSH1 0x1 PUSH1 0x1 PUSH1 0xA0 SHL SUB SWAP1 SWAP2 AND SWAP1 PUSH4 0x70A08231 SWAP1 PUSH1 0x24 ADD PUSH1 0x20 PUSH1 0x40 MLOAD DUP1 DUP4 SUB DUP2 DUP7 GAS STATICCALL ISZERO DUP1 ISZERO PUSH2 0x808 JUMPI RETURNDATASIZE PUSH0 PUSH0 RETURNDATACOPY RETURNDATASIZE PUSH0 REVERT JUMPDEST POP POP POP POP PUSH1 0x40 MLOAD RETURNDATASIZE PUSH1 0x1F NOT PUSH1 0x1F DUP3 ADD AND DUP3 ADD DUP1 PUSH1 0x40 MSTORE POP DUP2 ADD SWAP1 PUSH2 0x82C SWAP2 SWAP1 PUSH2 0xD03 JUMP JUMPDEST SWAP1 POP DUP2 DUP2 LT ISZERO PUSH2 0xA49 JUMPI PUSH0 PUSH2 0x841 DUP3 DUP5 PUSH2 0xD75 JUMP JUMPDEST SWAP1 POP PUSH0 PUSH1 0x2 PUSH0 SWAP1 SLOAD SWAP1 PUSH2 0x100 EXP SWAP1 DIV PUSH1 0x1 PUSH1 0x1 PUSH1 0xA0 SHL SUB AND PUSH1 0x1 PUSH1 0x1 PUSH1 0xA0 SHL SUB AND PUSH4 0x18160DDD PUSH1 0x40 MLOAD DUP2 PUSH4 0xFFFFFFFF AND PUSH1 0xE0 SHL DUP2 MSTORE PUSH1 0x4 ADD PUSH1 0x20 PUSH1 0x40 MLOAD DUP1 DUP4 SUB DUP2 DUP7 GAS STATICCALL ISZERO DUP1 ISZERO PUSH2 0x894 JUMPI RETURNDATASIZE PUSH0 PUSH0 RETURNDATACOPY RETURNDATASIZE PUSH0 REVERT JUMPDEST POP POP POP POP PUSH1 0x40 MLOAD RETURNDATASIZE PUSH1 0x1F NOT PUSH1 0x1F DUP3 ADD AND DUP3 ADD DUP1 PUSH1 0x40 MSTORE POP DUP2 ADD SWAP1 PUSH2 0x8B8 SWAP2 SWAP1 PUSH2 0xD03 JUMP JUMPDEST SWAP1 POP DUP1 PUSH0 SUB PUSH2 0x985 JUMPI PUSH1 0x2 SLOAD PUSH1 0x40 MLOAD PUSH4 0xD9E63BB1 PUSH1 0xE0 SHL DUP2 MSTORE PUSH1 0x4 DUP2 ADD DUP5 SWAP1 MSTORE PUSH1 0x1 PUSH1 0x1 PUSH1 0xA0 SHL SUB SWAP1 SWAP2 AND SWAP1 PUSH4 0xD9E63BB1 SWAP1 PUSH1 0x24 ADD PUSH0 PUSH1 0x40 MLOAD DUP1 DUP4 SUB DUP2 PUSH0 DUP8 DUP1 EXTCODESIZE ISZERO DUP1 ISZERO PUSH2 0x904 JUMPI PUSH0 PUSH0 REVERT JUMPDEST POP GAS CALL ISZERO DUP1 ISZERO PUSH2 0x916 JUMPI RETURNDATASIZE PUSH0 PUSH0 RETURNDATACOPY RETURNDATASIZE PUSH0 REVERT JUMPDEST POP POP POP POP PUSH32 0x3C5AD147104E56BE34A9176A6692F7DF8D2F4B29A5AF06BC6B98970D329D6577 DUP3 PUSH1 0x40 MLOAD PUSH2 0x978 SWAP2 SWAP1 PUSH1 0x40 DUP1 DUP3 MSTORE PUSH1 0x12 SWAP1 DUP3 ADD MSTORE PUSH18 0x496E697469616C697A656420537570706C79 PUSH1 0x70 SHL PUSH1 0x60 DUP3 ADD MSTORE PUSH1 0x20 DUP2 ADD SWAP2 SWAP1 SWAP2 MSTORE PUSH1 0x80 ADD SWAP1 JUMP JUMPDEST PUSH1 0x40 MLOAD DUP1 SWAP2 SUB SWAP1 LOG1 PUSH2 0xA46 JUMP JUMPDEST PUSH1 0x2 SLOAD PUSH1 0x40 MLOAD PUSH4 0x40C10F19 PUSH1 0xE0 SHL DUP2 MSTORE ADDRESS PUSH1 0x4 DUP3 ADD MSTORE PUSH1 0x24 DUP2 ADD DUP5 SWAP1 MSTORE PUSH1 0x1 PUSH1 0x1 PUSH1 0xA0 SHL SUB SWAP1 SWAP2 AND SWAP1 PUSH4 0x40C10F19 SWAP1 PUSH1 0x44 ADD PUSH0 PUSH1 0x40 MLOAD DUP1 DUP4 SUB DUP2 PUSH0 DUP8 DUP1 EXTCODESIZE ISZERO DUP1 ISZERO PUSH2 0x9CE JUMPI PUSH0 PUSH0 REVERT JUMPDEST POP GAS CALL ISZERO DUP1 ISZERO PUSH2 0x9E0 JUMPI RETURNDATASIZE PUSH0 PUSH0 RETURNDATACOPY RETURNDATASIZE PUSH0 REVERT JUMPDEST POP POP POP POP PUSH32 0x3C5AD147104E56BE34A9176A6692F7DF8D2F4B29A5AF06BC6B98970D329D6577 DUP3 PUSH1 0x40 MLOAD PUSH2 0xA3D SWAP2 SWAP1 PUSH1 0x40 DUP1 DUP3 MSTORE PUSH1 0xD SWAP1 DUP3 ADD MSTORE PUSH13 0x4D696E74656420546F6B656E73 PUSH1 0x98 SHL PUSH1 0x60 DUP3 ADD MSTORE PUSH1 0x20 DUP2 ADD SWAP2 SWAP1 SWAP2 MSTORE PUSH1 0x80 ADD SWAP1 JUMP JUMPDEST PUSH1 0x40 MLOAD DUP1 SWAP2 SUB SWAP1 LOG1 JUMPDEST POP POP JUMPDEST PUSH1 0x2 SLOAD PUSH1 0x40 MLOAD PUSH4 0xA9059CBB PUSH1 0xE0 SHL DUP2 MSTORE CALLER PUSH1 0x4 DUP3 ADD MSTORE PUSH1 0x24 DUP2 ADD DUP5 SWAP1 MSTORE PUSH1 0x1 PUSH1 0x1 PUSH1 0xA0 SHL SUB SWAP1 SWAP2 AND SWAP1 PUSH4 0xA9059CBB SWAP1 PUSH1 0x44 ADD PUSH1 0x20 PUSH1 0x40 MLOAD DUP1 DUP4 SUB DUP2 PUSH0 DUP8 GAS CALL ISZERO DUP1 ISZERO PUSH2 0xA97 JUMPI RETURNDATASIZE PUSH0 PUSH0 RETURNDATACOPY RETURNDATASIZE PUSH0 REVERT JUMPDEST POP POP POP POP PUSH1 0x40 MLOAD RETURNDATASIZE PUSH1 0x1F NOT PUSH1 0x1F DUP3 ADD AND DUP3 ADD DUP1 PUSH1 0x40 MSTORE POP DUP2 ADD SWAP1 PUSH2 0xABB SWAP2 SWAP1 PUSH2 0xD42 JUMP JUMPDEST POP PUSH1 0x40 DUP1 MLOAD DUP8 DUP2 MSTORE PUSH1 0x20 DUP2 ADD DUP5 SWAP1 MSTORE CALLER SWAP2 PUSH32 0xDB13E87B3F9C3B8F5F3ACAD928DF55C52BA6BF7795AF4EC069DE5E23CAACB37 SWAP2 ADD PUSH1 0x40 MLOAD DUP1 SWAP2 SUB SWAP1 LOG2 POP POP POP POP POP POP JUMP JUMPDEST PUSH1 0x2 SLOAD PUSH1 0x40 MLOAD PUSH4 0x70A08231 PUSH1 0xE0 SHL DUP2 MSTORE ADDRESS PUSH1 0x4 DUP3 ADD MSTORE PUSH0 SWAP2 PUSH1 0x1 PUSH1 0x1 PUSH1 0xA0 SHL SUB AND SWAP1 PUSH4 0x70A08231 SWAP1 PUSH1 0x24 ADD PUSH1 0x20 PUSH1 0x40 MLOAD DUP1 DUP4 SUB DUP2 DUP7 GAS STATICCALL ISZERO DUP1 ISZERO PUSH2 0xB45 JUMPI RETURNDATASIZE PUSH0 PUSH0 RETURNDATACOPY RETURNDATASIZE PUSH0 REVERT JUMPDEST POP POP POP POP PUSH1 0x40 MLOAD RETURNDATASIZE PUSH1 0x1F NOT PUSH1 0x1F DUP3 ADD AND DUP3 ADD DUP1 PUSH1 0x40 MSTORE POP DUP2 ADD SWAP1 PUSH2 0xB69 SWAP2 SWAP1 PUSH2 0xD03 JUMP JUMPDEST SWAP1 POP SWAP1 JUMP JUMPDEST PUSH1 0x2 SLOAD PUSH1 0x40 MLOAD PUSH4 0x70A08231 PUSH1 0xE0 SHL DUP2 MSTORE PUSH1 0x1 PUSH1 0x1 PUSH1 0xA0 SHL SUB DUP4 DUP2 AND PUSH1 0x4 DUP4 ADD MSTORE PUSH0 SWAP3 AND SWAP1 PUSH4 0x70A08231 SWAP1 PUSH1 0x24 ADD PUSH2 0x22E JUMP JUMPDEST PUSH0 SLOAD PUSH1 0x1 PUSH1 0x1 PUSH1 0xA0 SHL SUB AND CALLER EQ PUSH2 0xBC9 JUMPI PUSH1 0x40 MLOAD PUSH3 0x461BCD PUSH1 0xE5 SHL DUP2 MSTORE PUSH1 0x4 ADD PUSH2 0x29C SWAP1 PUSH2 0xD1A JUMP JUMPDEST PUSH1 0x1 PUSH1 0x1 PUSH1 0xA0 SHL SUB DUP2 AND PUSH2 0xC1F JUMPI PUSH1 0x40 MLOAD PUSH3 0x461BCD PUSH1 0xE5 SHL DUP2 MSTORE PUSH1 0x20 PUSH1 0x4 DUP3 ADD DUP2 SWAP1 MSTORE PUSH1 0x24 DUP3 ADD MSTORE PUSH32 0x4E6577206F776E65722063616E6E6F74206265207A65726F2061646472657373 PUSH1 0x44 DUP3 ADD MSTORE PUSH1 0x64 ADD PUSH2 0x29C JUMP JUMPDEST PUSH0 DUP1 SLOAD PUSH1 0x40 MLOAD PUSH1 0x1 PUSH1 0x1 PUSH1 0xA0 SHL SUB DUP1 DUP6 AND SWAP4 SWAP3 AND SWAP2 PUSH32 0x8BE0079C531659141344CD1FD0A4F28419497F9722A3DAAFE3B4186F6B6457E0 SWAP2 LOG3 PUSH0 DUP1 SLOAD PUSH1 0x1 PUSH1 0x1 PUSH1 0xA0 SHL SUB NOT AND PUSH1 0x1 PUSH1 0x1 PUSH1 0xA0 SHL SUB SWAP3 SWAP1 SWAP3 AND SWAP2 SWAP1 SWAP2 OR SWAP1 SSTORE JUMP JUMPDEST DUP1 CALLDATALOAD PUSH1 0x1 PUSH1 0x1 PUSH1 0xA0 SHL SUB DUP2 AND DUP2 EQ PUSH2 0xC8E JUMPI PUSH0 PUSH0 REVERT JUMPDEST SWAP2 SWAP1 POP JUMP JUMPDEST PUSH0 PUSH1 0x20 DUP3 DUP5 SUB SLT ISZERO PUSH2 0xCA3 JUMPI PUSH0 PUSH0 REVERT JUMPDEST PUSH2 0xCAC DUP3 PUSH2 0xC78 JUMP JUMPDEST SWAP4 SWAP3 POP POP POP JUMP JUMPDEST PUSH0 PUSH0 PUSH0 PUSH1 0x60 DUP5 DUP7 SUB SLT ISZERO PUSH2 0xCC5 JUMPI PUSH0 PUSH0 REVERT JUMPDEST PUSH2 0xCCE DUP5 PUSH2 0xC78 JUMP JUMPDEST SWAP3 POP PUSH1 0x20 DUP5 ADD CALLDATALOAD SWAP2 POP PUSH2 0xCE3 PUSH1 0x40 DUP6 ADD PUSH2 0xC78 JUMP JUMPDEST SWAP1 POP SWAP3 POP SWAP3 POP SWAP3 JUMP JUMPDEST PUSH0 PUSH1 0x20 DUP3 DUP5 SUB SLT ISZERO PUSH2 0xCFC JUMPI PUSH0 PUSH0 REVERT JUMPDEST POP CALLDATALOAD SWAP2 SWAP1 POP JUMP JUMPDEST PUSH0 PUSH1 0x20 DUP3 DUP5 SUB SLT ISZERO PUSH2 0xD13 JUMPI PUSH0 PUSH0 REVERT JUMPDEST POP MLOAD SWAP2 SWAP1 POP JUMP JUMPDEST PUSH1 0x20 DUP1 DUP3 MSTORE PUSH1 0xE SWAP1 DUP3 ADD MSTORE PUSH14 0x139BDD08185D5D1A1BDC9A5E9959 PUSH1 0x92 SHL PUSH1 0x40 DUP3 ADD MSTORE PUSH1 0x60 ADD SWAP1 JUMP JUMPDEST PUSH0 PUSH1 0x20 DUP3 DUP5 SUB SLT ISZERO PUSH2 0xD52 JUMPI PUSH0 PUSH0 REVERT JUMPDEST DUP2 MLOAD DUP1 ISZERO ISZERO DUP2 EQ PUSH2 0xCAC JUMPI PUSH0 PUSH0 REVERT JUMPDEST PUSH4 0x4E487B71 PUSH1 0xE0 SHL PUSH0 MSTORE PUSH1 0x11 PUSH1 0x4 MSTORE PUSH1 0x24 PUSH0 REVERT JUMPDEST DUP2 DUP2 SUB DUP2 DUP2 GT ISZERO PUSH2 0x26D JUMPI PUSH2 0x26D PUSH2 0xD61 JUMP JUMPDEST DUP1 DUP3 MUL DUP2 ISZERO DUP3 DUP3 DIV DUP5 EQ OR PUSH2 0x26D JUMPI PUSH2 0x26D PUSH2 0xD61 JUMP JUMPDEST PUSH0 DUP3 PUSH2 0xDB9 JUMPI PUSH4 0x4E487B71 PUSH1 0xE0 SHL PUSH0 MSTORE PUSH1 0x12 PUSH1 0x4 MSTORE PUSH1 0x24 PUSH0 REVERT JUMPDEST POP DIV SWAP1 JUMP INVALID LOG2 PUSH5 0x6970667358 0x22 SLT KECCAK256 SGT 0xE4 SWAP9 0xA6 0xAA 0xC9 0xD4 CODECOPY 0xB9 BYTE PUSH27 0x57F55F74B26A35AD6E2B7DF8C4185891FC489052CA64736F6C6343 STOP ADDMOD SHR STOP CALLER "
				},
				"gasEstimates": {
					"creation": {
						"codeDepositCost": "714400",
						"executionCost": "infinite",
						"totalCost": "infinite"
					},
					"external": {
						"bond(uint256)": "infinite",
						"checkContractRoboMoneyBalance()": "infinite",
						"checkRoboMoneyBalance(address)": "infinite",
						"checkTokenAllowance(address)": "infinite",
						"checkTokenBalance(address)": "infinite",
						"discountRate()": "2349",
						"owner()": "2358",
						"paymentToken()": "2382",
						"roboMoney()": "2403",
						"setDiscountRate(uint256)": "24532",
						"setTargetPrice(uint256)": "24484",
						"targetPrice()": "2327",
						"transferOwnership(address)": "30483",
						"withdraw(address,uint256,address)": "infinite"
					}
				},
				"methodIdentifiers": {
					"bond(uint256)": "9940686e",
					"checkContractRoboMoneyBalance()": "a933ac74",
					"checkRoboMoneyBalance(address)": "cc7fffbe",
					"checkTokenAllowance(address)": "89f1aa22",
					"checkTokenBalance(address)": "126cbe60",
					"discountRate()": "e6c0e6d5",
					"owner()": "8da5cb5b",
					"paymentToken()": "3013ce29",
					"roboMoney()": "7ef7ba20",
					"setDiscountRate(uint256)": "7c69febd",
					"setTargetPrice(uint256)": "6a64eff8",
					"targetPrice()": "dc38679c",
					"transferOwnership(address)": "f2fde38b",
					"withdraw(address,uint256,address)": "69328dec"
				}
			},
			"storageLayout": {
				"storage": [
					{
						"astId": 106,
						"contract": "bonding_contract.sol:Bonding",
						"label": "owner",
						"offset": 0,
						"slot": "0",
						"type": "t_address"
					},
					{
						"astId": 108,
						"contract": "bonding_contract.sol:Bonding",
						"label": "paymentToken",
						"offset": 0,
						"slot": "1",
						"type": "t_address"
					},
					{
						"astId": 110,
						"contract": "bonding_contract.sol:Bonding",
						"label": "roboMoney",
						"offset": 0,
						"slot": "2",
						"type": "t_address"
					},
					{
						"astId": 112,
						"contract": "bonding_contract.sol:Bonding",
						"label": "discountRate",
						"offset": 0,
						"slot": "3",
						"type": "t_uint256"
					},
					{
						"astId": 114,
						"contract": "bonding_contract.sol:Bonding",
						"label": "targetPrice",
						"offset": 0,
						"slot": "4",
						"type": "t_uint256"
					}
				],
				"types": {
					"t_address": {
						"encoding": "inplace",
						"label": "address",
						"numberOfBytes": "20"
					},
					"t_uint256": {
						"encoding": "inplace",
						"label": "uint256",
						"numberOfBytes": "32"
					}
				}
			},
			"userdoc": {
				"kind": "user",
				"methods": {},
				"version": 1
			}
		}
	}
}