{
	"buy_back.sol": {
		"BuyBack": {
			"abi": [
				{
					"inputs": [
						{
							"internalType": "address",
							"name": "_weth",
							"type": "address"
						},
						{
							"internalType": "address",
							"name": "_mlAMPL",
							"type": "address"
						},
						{
							"internalType": "uint256",
							"name": "_discountRate",
							"type": "uint256"
						},
						{
							"internalType": "uint256",
							"name": "_targetPrice",
							"type": "uint256"
						}
					],
					"stateMutability": "nonpayable",
					"type": "constructor"
				},
				{
					"anonymous": false,
					"inputs": [
						{
							"indexed": true,
							"internalType": "address",
							"name": "buyer",
							"type": "address"
						},
						{
							"indexed": false,
							"internalType": "uint256",
							"name": "mlAMPLAmount",
							"type": "uint256"
						},
						{
							"indexed": false,
							"internalType": "uint256",
							"name": "wethSpent",
							"type": "uint256"
						}
					],
					"name": "BuyBackExecuted",
					"type": "event"
				},
				{
					"anonymous": false,
					"inputs": [
						{
							"indexed": true,
							"internalType": "address",
							"name": "previousOwner",
							"type": "address"
						},
						{
							"indexed": true,
							"internalType": "address",
							"name": "newOwner",
							"type": "address"
						}
					],
					"name": "OwnershipTransferred",
					"type": "event"
				},
				{
					"inputs": [
						{
							"internalType": "uint256",
							"name": "mlAMPLAmount",
							"type": "uint256"
						}
					],
					"name": "buyback",
					"outputs": [],
					"stateMutability": "nonpayable",
					"type": "function"
				},
				{
					"inputs": [
						{
							"internalType": "uint256",
							"name": "mlAMPLAmount",
							"type": "uint256"
						}
					],
					"name": "canExecuteBuyback",
					"outputs": [
						{
							"internalType": "bool",
							"name": "",
							"type": "bool"
						}
					],
					"stateMutability": "view",
					"type": "function"
				},
				{
					"inputs": [],
					"name": "contractWETHBalance",
					"outputs": [
						{
							"internalType": "uint256",
							"name": "",
							"type": "uint256"
						}
					],
					"stateMutability": "view",
					"type": "function"
				},
				{
					"inputs": [
						{
							"internalType": "uint256",
							"name": "amount",
							"type": "uint256"
						}
					],
					"name": "depositWETH",
					"outputs": [],
					"stateMutability": "nonpayable",
					"type": "function"
				},
				{
					"inputs": [],
					"name": "discountRate",
					"outputs": [
						{
							"internalType": "uint256",
							"name": "",
							"type": "uint256"
						}
					],
					"stateMutability": "view",
					"type": "function"
				},
				{
					"inputs": [],
					"name": "mlAMPL",
					"outputs": [
						{
							"internalType": "address",
							"name": "",
							"type": "address"
						}
					],
					"stateMutability": "view",
					"type": "function"
				},
				{
					"inputs": [],
					"name": "owner",
					"outputs": [
						{
							"internalType": "address",
							"name": "",
							"type": "address"
						}
					],
					"stateMutability": "view",
					"type": "function"
				},
				{
					"inputs": [
						{
							"internalType": "uint256",
							"name": "_discountRate",
							"type": "uint256"
						}
					],
					"name": "setDiscountRate",
					"outputs": [],
					"stateMutability": "nonpayable",
					"type": "function"
				},
				{
					"inputs": [
						{
							"internalType": "uint256",
							"name": "_targetPrice",
							"type": "uint256"
						}
					],
					"name": "setTargetPrice",
					"outputs": [],
					"stateMutability": "nonpayable",
					"type": "function"
				},
				{
					"inputs": [],
					"name": "targetPrice",
					"outputs": [
						{
							"internalType": "uint256",
							"name": "",
							"type": "uint256"
						}
					],
					"stateMutability": "view",
					"type": "function"
				},
				{
					"inputs": [
						{
							"internalType": "address",
							"name": "newOwner",
							"type": "address"
						}
					],
					"name": "transferOwnership",
					"outputs": [],
					"stateMutability": "nonpayable",
					"type": "function"
				},
				{
					"inputs": [],
					"name": "weth",
					"outputs": [
						{
							"internalType": "address",
							"name": "",
							"type": "address"
						}
					],
					"stateMutability": "view",
					"type": "function"
				},
				{
					"inputs": [
						{
							"internalType": "uint256",
							"name": "amount",
							"type": "uint256"
						}
					],
					"name": "withdrawWETH",
					"outputs": [],
					"stateMutability": "nonpayable",
					"type": "function"
				}
			],
			"devdoc": {
				"kind": "dev",
				"methods": {},
				"version": 1
			},
			"evm": {
				"assembly": "    /* \"buy_back.sol\":1122:5036  contract BuyBack {... */\n  mstore(0x40, 0x80)\n    /* \"buy_back.sol\":1641:1936  constructor(... */\n  callvalue\n  dup1\n  iszero\n  tag_1\n  jumpi\n  revert(0x00, 0x00)\ntag_1:\n  pop\n  mload(0x40)\n  sub(codesize, bytecodeSize)\n  dup1\n  bytecodeSize\n  dup4\n  codecopy\n  dup2\n  dup2\n  add\n  0x40\n  mstore\n  dup2\n  add\n  swap1\n  tag_2\n  swap2\n  swap1\n  tag_3\n  jump\t// in\ntag_2:\n    /* \"buy_back.sol\":1792:1802  msg.sender */\n  caller\n    /* \"buy_back.sol\":1784:1789  owner */\n  0x00\n  0x00\n    /* \"buy_back.sol\":1784:1802  owner = msg.sender */\n  0x0100\n  exp\n  dup2\n  sload\n  dup2\n  0xffffffffffffffffffffffffffffffffffffffff\n  mul\n  not\n  and\n  swap1\n  dup4\n  0xffffffffffffffffffffffffffffffffffffffff\n  and\n  mul\n  or\n  swap1\n  sstore\n  pop\n    /* \"buy_back.sol\":1820:1825  _weth */\n  dup4\n    /* \"buy_back.sol\":1813:1817  weth */\n  0x01\n  0x00\n    /* \"buy_back.sol\":1813:1825  weth = _weth */\n  0x0100\n  exp\n  dup2\n  sload\n  dup2\n  0xffffffffffffffffffffffffffffffffffffffff\n  mul\n  not\n  and\n  swap1\n  dup4\n  0xffffffffffffffffffffffffffffffffffffffff\n  and\n  mul\n  or\n  swap1\n  sstore\n  pop\n    /* \"buy_back.sol\":1845:1852  _mlAMPL */\n  dup3\n    /* \"buy_back.sol\":1836:1842  mlAMPL */\n  0x02\n  0x00\n    /* \"buy_back.sol\":1836:1852  mlAMPL = _mlAMPL */\n  0x0100\n  exp\n  dup2\n  sload\n  dup2\n  0xffffffffffffffffffffffffffffffffffffffff\n  mul\n  not\n  and\n  swap1\n  dup4\n  0xffffffffffffffffffffffffffffffffffffffff\n  and\n  mul\n  or\n  swap1\n  sstore\n  pop\n    /* \"buy_back.sol\":1878:1891  _discountRate */\n  dup2\n    /* \"buy_back.sol\":1863:1875  discountRate */\n  0x03\n    /* \"buy_back.sol\":1863:1891  discountRate = _discountRate */\n  dup2\n  swap1\n  sstore\n  pop\n    /* \"buy_back.sol\":1916:1928  _targetPrice */\n  dup1\n    /* \"buy_back.sol\":1902:1913  targetPrice */\n  0x04\n    /* \"buy_back.sol\":1902:1928  targetPrice = _targetPrice */\n  dup2\n  swap1\n  sstore\n  pop\n    /* \"buy_back.sol\":1641:1936  constructor(... */\n  pop\n  pop\n  pop\n  pop\n    /* \"buy_back.sol\":1122:5036  contract BuyBack {... */\n  jump(tag_6)\n    /* \"#utility.yul\":88:205   */\ntag_8:\n    /* \"#utility.yul\":197:198   */\n  0x00\n    /* \"#utility.yul\":194:195   */\n  0x00\n    /* \"#utility.yul\":187:199   */\n  revert\n    /* \"#utility.yul\":334:460   */\ntag_10:\n    /* \"#utility.yul\":371:378   */\n  0x00\n    /* \"#utility.yul\":411:453   */\n  0xffffffffffffffffffffffffffffffffffffffff\n    /* \"#utility.yul\":404:409   */\n  dup3\n    /* \"#utility.yul\":400:454   */\n  and\n    /* \"#utility.yul\":389:454   */\n  swap1\n  pop\n    /* \"#utility.yul\":334:460   */\n  swap2\n  swap1\n  pop\n  jump\t// out\n    /* \"#utility.yul\":466:562   */\ntag_11:\n    /* \"#utility.yul\":503:510   */\n  0x00\n    /* \"#utility.yul\":532:556   */\n  tag_23\n    /* \"#utility.yul\":550:555   */\n  dup3\n    /* \"#utility.yul\":532:556   */\n  tag_10\n  jump\t// in\ntag_23:\n    /* \"#utility.yul\":521:556   */\n  swap1\n  pop\n    /* \"#utility.yul\":466:562   */\n  swap2\n  swap1\n  pop\n  jump\t// out\n    /* \"#utility.yul\":568:690   */\ntag_12:\n    /* \"#utility.yul\":641:665   */\n  tag_25\n    /* \"#utility.yul\":659:664   */\n  dup2\n    /* \"#utility.yul\":641:665   */\n  tag_11\n  jump\t// in\ntag_25:\n    /* \"#utility.yul\":634:639   */\n  dup2\n    /* \"#utility.yul\":631:666   */\n  eq\n    /* \"#utility.yul\":621:684   */\n  tag_26\n  jumpi\n    /* \"#utility.yul\":680:681   */\n  0x00\n    /* \"#utility.yul\":677:678   */\n  0x00\n    /* \"#utility.yul\":670:682   */\n  revert\n    /* \"#utility.yul\":621:684   */\ntag_26:\n    /* \"#utility.yul\":568:690   */\n  pop\n  jump\t// out\n    /* \"#utility.yul\":696:839   */\ntag_13:\n    /* \"#utility.yul\":753:758   */\n  0x00\n    /* \"#utility.yul\":784:790   */\n  dup2\n    /* \"#utility.yul\":778:791   */\n  mload\n    /* \"#utility.yul\":769:791   */\n  swap1\n  pop\n    /* \"#utility.yul\":800:833   */\n  tag_28\n    /* \"#utility.yul\":827:832   */\n  dup2\n    /* \"#utility.yul\":800:833   */\n  tag_12\n  jump\t// in\ntag_28:\n    /* \"#utility.yul\":696:839   */\n  swap3\n  swap2\n  pop\n  pop\n  jump\t// out\n    /* \"#utility.yul\":845:922   */\ntag_14:\n    /* \"#utility.yul\":882:889   */\n  0x00\n    /* \"#utility.yul\":911:916   */\n  dup2\n    /* \"#utility.yul\":900:916   */\n  swap1\n  pop\n    /* \"#utility.yul\":845:922   */\n  swap2\n  swap1\n  pop\n  jump\t// out\n    /* \"#utility.yul\":928:1050   */\ntag_15:\n    /* \"#utility.yul\":1001:1025   */\n  tag_31\n    /* \"#utility.yul\":1019:1024   */\n  dup2\n    /* \"#utility.yul\":1001:1025   */\n  tag_14\n  jump\t// in\ntag_31:\n    /* \"#utility.yul\":994:999   */\n  dup2\n    /* \"#utility.yul\":991:1026   */\n  eq\n    /* \"#utility.yul\":981:1044   */\n  tag_32\n  jumpi\n    /* \"#utility.yul\":1040:1041   */\n  0x00\n    /* \"#utility.yul\":1037:1038   */\n  0x00\n    /* \"#utility.yul\":1030:1042   */\n  revert\n    /* \"#utility.yul\":981:1044   */\ntag_32:\n    /* \"#utility.yul\":928:1050   */\n  pop\n  jump\t// out\n    /* \"#utility.yul\":1056:1199   */\ntag_16:\n    /* \"#utility.yul\":1113:1118   */\n  0x00\n    /* \"#utility.yul\":1144:1150   */\n  dup2\n    /* \"#utility.yul\":1138:1151   */\n  mload\n    /* \"#utility.yul\":1129:1151   */\n  swap1\n  pop\n    /* \"#utility.yul\":1160:1193   */\n  tag_34\n    /* \"#utility.yul\":1187:1192   */\n  dup2\n    /* \"#utility.yul\":1160:1193   */\n  tag_15\n  jump\t// in\ntag_34:\n    /* \"#utility.yul\":1056:1199   */\n  swap3\n  swap2\n  pop\n  pop\n  jump\t// out\n    /* \"#utility.yul\":1205:2025   */\ntag_3:\n    /* \"#utility.yul\":1302:1308   */\n  0x00\n    /* \"#utility.yul\":1310:1316   */\n  0x00\n    /* \"#utility.yul\":1318:1324   */\n  0x00\n    /* \"#utility.yul\":1326:1332   */\n  0x00\n    /* \"#utility.yul\":1375:1378   */\n  0x80\n    /* \"#utility.yul\":1363:1372   */\n  dup6\n    /* \"#utility.yul\":1354:1361   */\n  dup8\n    /* \"#utility.yul\":1350:1373   */\n  sub\n    /* \"#utility.yul\":1346:1379   */\n  slt\n    /* \"#utility.yul\":1343:1463   */\n  iszero\n  tag_36\n  jumpi\n    /* \"#utility.yul\":1382:1461   */\n  tag_37\n  tag_8\n  jump\t// in\ntag_37:\n    /* \"#utility.yul\":1343:1463   */\ntag_36:\n    /* \"#utility.yul\":1502:1503   */\n  0x00\n    /* \"#utility.yul\":1527:1591   */\n  tag_38\n    /* \"#utility.yul\":1583:1590   */\n  dup8\n    /* \"#utility.yul\":1574:1580   */\n  dup3\n    /* \"#utility.yul\":1563:1572   */\n  dup9\n    /* \"#utility.yul\":1559:1581   */\n  add\n    /* \"#utility.yul\":1527:1591   */\n  tag_13\n  jump\t// in\ntag_38:\n    /* \"#utility.yul\":1517:1591   */\n  swap5\n  pop\n    /* \"#utility.yul\":1473:1601   */\n  pop\n    /* \"#utility.yul\":1640:1642   */\n  0x20\n    /* \"#utility.yul\":1666:1730   */\n  tag_39\n    /* \"#utility.yul\":1722:1729   */\n  dup8\n    /* \"#utility.yul\":1713:1719   */\n  dup3\n    /* \"#utility.yul\":1702:1711   */\n  dup9\n    /* \"#utility.yul\":1698:1720   */\n  add\n    /* \"#utility.yul\":1666:1730   */\n  tag_13\n  jump\t// in\ntag_39:\n    /* \"#utility.yul\":1656:1730   */\n  swap4\n  pop\n    /* \"#utility.yul\":1611:1740   */\n  pop\n    /* \"#utility.yul\":1779:1781   */\n  0x40\n    /* \"#utility.yul\":1805:1869   */\n  tag_40\n    /* \"#utility.yul\":1861:1868   */\n  dup8\n    /* \"#utility.yul\":1852:1858   */\n  dup3\n    /* \"#utility.yul\":1841:1850   */\n  dup9\n    /* \"#utility.yul\":1837:1859   */\n  add\n    /* \"#utility.yul\":1805:1869   */\n  tag_16\n  jump\t// in\ntag_40:\n    /* \"#utility.yul\":1795:1869   */\n  swap3\n  pop\n    /* \"#utility.yul\":1750:1879   */\n  pop\n    /* \"#utility.yul\":1918:1920   */\n  0x60\n    /* \"#utility.yul\":1944:2008   */\n  tag_41\n    /* \"#utility.yul\":2000:2007   */\n  dup8\n    /* \"#utility.yul\":1991:1997   */\n  dup3\n    /* \"#utility.yul\":1980:1989   */\n  dup9\n    /* \"#utility.yul\":1976:1998   */\n  add\n    /* \"#utility.yul\":1944:2008   */\n  tag_16\n  jump\t// in\ntag_41:\n    /* \"#utility.yul\":1934:2008   */\n  swap2\n  pop\n    /* \"#utility.yul\":1889:2018   */\n  pop\n    /* \"#utility.yul\":1205:2025   */\n  swap3\n  swap6\n  swap2\n  swap5\n  pop\n  swap3\n  pop\n  jump\t// out\n    /* \"buy_back.sol\":1122:5036  contract BuyBack {... */\ntag_6:\n  dataSize(sub_0)\n  dup1\n  dataOffset(sub_0)\n  0x00\n  codecopy\n  0x00\n  return\nstop\n\nsub_0: assembly {\n        /* \"buy_back.sol\":1122:5036  contract BuyBack {... */\n      mstore(0x40, 0x80)\n      callvalue\n      dup1\n      iszero\n      tag_1\n      jumpi\n      revert(0x00, 0x00)\n    tag_1:\n      pop\n      jumpi(tag_2, lt(calldatasize, 0x04))\n      shr(0xe0, calldataload(0x00))\n      dup1\n      0x7c69febd\n      gt\n      tag_16\n      jumpi\n      dup1\n      0xdc38679c\n      gt\n      tag_17\n      jumpi\n      dup1\n      0xdc38679c\n      eq\n      tag_12\n      jumpi\n      dup1\n      0xe6c0e6d5\n      eq\n      tag_13\n      jumpi\n      dup1\n      0xf2fde38b\n      eq\n      tag_14\n      jumpi\n      dup1\n      0xfc4dd333\n      eq\n      tag_15\n      jumpi\n      jump(tag_2)\n    tag_17:\n      dup1\n      0x7c69febd\n      eq\n      tag_9\n      jumpi\n      dup1\n      0x839ea2d9\n      eq\n      tag_10\n      jumpi\n      dup1\n      0x8da5cb5b\n      eq\n      tag_11\n      jumpi\n      jump(tag_2)\n    tag_16:\n      dup1\n      0x33c92da9\n      eq\n      tag_3\n      jumpi\n      dup1\n      0x3a6eb3df\n      eq\n      tag_4\n      jumpi\n      dup1\n      0x3fc8cef3\n      eq\n      tag_5\n      jumpi\n      dup1\n      0x66dd0f24\n      eq\n      tag_6\n      jumpi\n      dup1\n      0x6a64eff8\n      eq\n      tag_7\n      jumpi\n      dup1\n      0x79a9fa1c\n      eq\n      tag_8\n      jumpi\n    tag_2:\n      revert(0x00, 0x00)\n        /* \"buy_back.sol\":4536:4661  function contractWETHBalance() external view returns (uint256) {... */\n    tag_3:\n      tag_18\n      tag_19\n      jump\t// in\n    tag_18:\n      mload(0x40)\n      tag_20\n      swap2\n      swap1\n      tag_21\n      jump\t// in\n    tag_20:\n      mload(0x40)\n      dup1\n      swap2\n      sub\n      swap1\n      return\n        /* \"buy_back.sol\":1224:1245  address public mlAMPL */\n    tag_4:\n      tag_22\n      tag_23\n      jump\t// in\n    tag_22:\n      mload(0x40)\n      tag_24\n      swap2\n      swap1\n      tag_25\n      jump\t// in\n    tag_24:\n      mload(0x40)\n      dup1\n      swap2\n      sub\n      swap1\n      return\n        /* \"buy_back.sol\":1173:1192  address public weth */\n    tag_5:\n      tag_26\n      tag_27\n      jump\t// in\n    tag_26:\n      mload(0x40)\n      tag_28\n      swap2\n      swap1\n      tag_25\n      jump\t// in\n    tag_28:\n      mload(0x40)\n      dup1\n      swap2\n      sub\n      swap1\n      return\n        /* \"buy_back.sol\":3800:4091  function depositWETH(uint256 amount) external onlyOwner {... */\n    tag_6:\n      tag_29\n      0x04\n      dup1\n      calldatasize\n      sub\n      dup2\n      add\n      swap1\n      tag_30\n      swap2\n      swap1\n      tag_31\n      jump\t// in\n    tag_30:\n      tag_32\n      jump\t// in\n    tag_29:\n      stop\n        /* \"buy_back.sol\":2237:2347  function setTargetPrice(uint256 _targetPrice) external onlyOwner {... */\n    tag_7:\n      tag_33\n      0x04\n      dup1\n      calldatasize\n      sub\n      dup2\n      add\n      swap1\n      tag_34\n      swap2\n      swap1\n      tag_31\n      jump\t// in\n    tag_34:\n      tag_35\n      jump\t// in\n    tag_33:\n      stop\n        /* \"buy_back.sol\":2593:3792  function buyback(uint256 mlAMPLAmount) external {... */\n    tag_8:\n      tag_36\n      0x04\n      dup1\n      calldatasize\n      sub\n      dup2\n      add\n      swap1\n      tag_37\n      swap2\n      swap1\n      tag_31\n      jump\t// in\n    tag_37:\n      tag_38\n      jump\t// in\n    tag_36:\n      stop\n        /* \"buy_back.sol\":2050:2229  function setDiscountRate(uint256 _discountRate) external onlyOwner {... */\n    tag_9:\n      tag_39\n      0x04\n      dup1\n      calldatasize\n      sub\n      dup2\n      add\n      swap1\n      tag_40\n      swap2\n      swap1\n      tag_31\n      jump\t// in\n    tag_40:\n      tag_41\n      jump\t// in\n    tag_39:\n      stop\n        /* \"buy_back.sol\":4669:5033  function canExecuteBuyback(uint256 mlAMPLAmount) external view returns (bool) {... */\n    tag_10:\n      tag_42\n      0x04\n      dup1\n      calldatasize\n      sub\n      dup2\n      add\n      swap1\n      tag_43\n      swap2\n      swap1\n      tag_31\n      jump\t// in\n    tag_43:\n      tag_44\n      jump\t// in\n    tag_42:\n      mload(0x40)\n      tag_45\n      swap2\n      swap1\n      tag_46\n      jump\t// in\n    tag_45:\n      mload(0x40)\n      dup1\n      swap2\n      sub\n      swap1\n      return\n        /* \"buy_back.sol\":1146:1166  address public owner */\n    tag_11:\n      tag_47\n      tag_48\n      jump\t// in\n    tag_47:\n      mload(0x40)\n      tag_49\n      swap2\n      swap1\n      tag_25\n      jump\t// in\n    tag_49:\n      mload(0x40)\n      dup1\n      swap2\n      sub\n      swap1\n      return\n        /* \"buy_back.sol\":1365:1391  uint256 public targetPrice */\n    tag_12:\n      tag_50\n      tag_51\n      jump\t// in\n    tag_50:\n      mload(0x40)\n      tag_52\n      swap2\n      swap1\n      tag_21\n      jump\t// in\n    tag_52:\n      mload(0x40)\n      dup1\n      swap2\n      sub\n      swap1\n      return\n        /* \"buy_back.sol\":1281:1308  uint256 public discountRate */\n    tag_13:\n      tag_53\n      tag_54\n      jump\t// in\n    tag_53:\n      mload(0x40)\n      tag_55\n      swap2\n      swap1\n      tag_21\n      jump\t// in\n    tag_55:\n      mload(0x40)\n      dup1\n      swap2\n      sub\n      swap1\n      return\n        /* \"buy_back.sol\":2355:2585  function transferOwnership(address newOwner) external onlyOwner {... */\n    tag_14:\n      tag_56\n      0x04\n      dup1\n      calldatasize\n      sub\n      dup2\n      add\n      swap1\n      tag_57\n      swap2\n      swap1\n      tag_58\n      jump\t// in\n    tag_57:\n      tag_59\n      jump\t// in\n    tag_56:\n      stop\n        /* \"buy_back.sol\":4099:4528  function withdrawWETH(uint256 amount) external onlyOwner {... */\n    tag_15:\n      tag_60\n      0x04\n      dup1\n      calldatasize\n      sub\n      dup2\n      add\n      swap1\n      tag_61\n      swap2\n      swap1\n      tag_31\n      jump\t// in\n    tag_61:\n      tag_62\n      jump\t// in\n    tag_60:\n      stop\n        /* \"buy_back.sol\":4536:4661  function contractWETHBalance() external view returns (uint256) {... */\n    tag_19:\n        /* \"buy_back.sol\":4590:4597  uint256 */\n      0x00\n        /* \"buy_back.sol\":4623:4627  weth */\n      0x01\n      0x00\n      swap1\n      sload\n      swap1\n      0x0100\n      exp\n      swap1\n      div\n      0xffffffffffffffffffffffffffffffffffffffff\n      and\n        /* \"buy_back.sol\":4617:4638  IWETH(weth).balanceOf */\n      0xffffffffffffffffffffffffffffffffffffffff\n      and\n      0x70a08231\n        /* \"buy_back.sol\":4647:4651  this */\n      address\n        /* \"buy_back.sol\":4617:4653  IWETH(weth).balanceOf(address(this)) */\n      mload(0x40)\n      dup3\n      0xffffffff\n      and\n      0xe0\n      shl\n      dup2\n      mstore\n      0x04\n      add\n      tag_64\n      swap2\n      swap1\n      tag_25\n      jump\t// in\n    tag_64:\n      0x20\n      mload(0x40)\n      dup1\n      dup4\n      sub\n      dup2\n      dup7\n      gas\n      staticcall\n      iszero\n      dup1\n      iszero\n      tag_66\n      jumpi\n      returndatacopy(0x00, 0x00, returndatasize)\n      revert(0x00, returndatasize)\n    tag_66:\n      pop\n      pop\n      pop\n      pop\n      mload(0x40)\n      returndatasize\n      not(0x1f)\n      0x1f\n      dup3\n      add\n      and\n      dup3\n      add\n      dup1\n      0x40\n      mstore\n      pop\n      dup2\n      add\n      swap1\n      tag_67\n      swap2\n      swap1\n      tag_68\n      jump\t// in\n    tag_67:\n        /* \"buy_back.sol\":4610:4653  return IWETH(weth).balanceOf(address(this)) */\n      swap1\n      pop\n        /* \"buy_back.sol\":4536:4661  function contractWETHBalance() external view returns (uint256) {... */\n      swap1\n      jump\t// out\n        /* \"buy_back.sol\":1224:1245  address public mlAMPL */\n    tag_23:\n      0x02\n      0x00\n      swap1\n      sload\n      swap1\n      0x0100\n      exp\n      swap1\n      div\n      0xffffffffffffffffffffffffffffffffffffffff\n      and\n      dup2\n      jump\t// out\n        /* \"buy_back.sol\":1173:1192  address public weth */\n    tag_27:\n      0x01\n      0x00\n      swap1\n      sload\n      swap1\n      0x0100\n      exp\n      swap1\n      div\n      0xffffffffffffffffffffffffffffffffffffffff\n      and\n      dup2\n      jump\t// out\n        /* \"buy_back.sol\":3800:4091  function depositWETH(uint256 amount) external onlyOwner {... */\n    tag_32:\n        /* \"buy_back.sol\":1998:2003  owner */\n      0x00\n      0x00\n      swap1\n      sload\n      swap1\n      0x0100\n      exp\n      swap1\n      div\n      0xffffffffffffffffffffffffffffffffffffffff\n      and\n        /* \"buy_back.sol\":1984:2003  msg.sender == owner */\n      0xffffffffffffffffffffffffffffffffffffffff\n      and\n        /* \"buy_back.sol\":1984:1994  msg.sender */\n      caller\n        /* \"buy_back.sol\":1984:2003  msg.sender == owner */\n      0xffffffffffffffffffffffffffffffffffffffff\n      and\n      eq\n        /* \"buy_back.sol\":1976:2022  require(msg.sender == owner, \"Not authorized\") */\n      tag_70\n      jumpi\n      mload(0x40)\n      0x08c379a000000000000000000000000000000000000000000000000000000000\n      dup2\n      mstore\n      0x04\n      add\n      tag_71\n      swap1\n      tag_72\n      jump\t// in\n    tag_71:\n      mload(0x40)\n      dup1\n      swap2\n      sub\n      swap1\n      revert\n    tag_70:\n        /* \"buy_back.sol\":3946:3947  0 */\n      0x00\n        /* \"buy_back.sol\":3937:3943  amount */\n      dup2\n        /* \"buy_back.sol\":3937:3947  amount > 0 */\n      gt\n        /* \"buy_back.sol\":3929:3981  require(amount > 0, \"Amount must be greater than 0\") */\n      tag_74\n      jumpi\n      mload(0x40)\n      0x08c379a000000000000000000000000000000000000000000000000000000000\n      dup2\n      mstore\n      0x04\n      add\n      tag_75\n      swap1\n      tag_76\n      jump\t// in\n    tag_75:\n      mload(0x40)\n      dup1\n      swap2\n      sub\n      swap1\n      revert\n    tag_74:\n        /* \"buy_back.sol\":4006:4010  weth */\n      0x01\n      0x00\n      swap1\n      sload\n      swap1\n      0x0100\n      exp\n      swap1\n      div\n      0xffffffffffffffffffffffffffffffffffffffff\n      and\n        /* \"buy_back.sol\":4000:4024  IWETH(weth).transferFrom */\n      0xffffffffffffffffffffffffffffffffffffffff\n      and\n      0x23b872dd\n        /* \"buy_back.sol\":4025:4035  msg.sender */\n      caller\n        /* \"buy_back.sol\":4045:4049  this */\n      address\n        /* \"buy_back.sol\":4052:4058  amount */\n      dup5\n        /* \"buy_back.sol\":4000:4059  IWETH(weth).transferFrom(msg.sender, address(this), amount) */\n      mload(0x40)\n      dup5\n      0xffffffff\n      and\n      0xe0\n      shl\n      dup2\n      mstore\n      0x04\n      add\n      tag_77\n      swap4\n      swap3\n      swap2\n      swap1\n      tag_78\n      jump\t// in\n    tag_77:\n      0x20\n      mload(0x40)\n      dup1\n      dup4\n      sub\n      dup2\n      0x00\n      dup8\n      gas\n      call\n      iszero\n      dup1\n      iszero\n      tag_80\n      jumpi\n      returndatacopy(0x00, 0x00, returndatasize)\n      revert(0x00, returndatasize)\n    tag_80:\n      pop\n      pop\n      pop\n      pop\n      mload(0x40)\n      returndatasize\n      not(0x1f)\n      0x1f\n      dup3\n      add\n      and\n      dup3\n      add\n      dup1\n      0x40\n      mstore\n      pop\n      dup2\n      add\n      swap1\n      tag_81\n      swap2\n      swap1\n      tag_82\n      jump\t// in\n    tag_81:\n        /* \"buy_back.sol\":3992:4083  require(IWETH(weth).transferFrom(msg.sender, address(this), amount), \"WETH deposit failed\") */\n      tag_83\n      jumpi\n      mload(0x40)\n      0x08c379a000000000000000000000000000000000000000000000000000000000\n      dup2\n      mstore\n      0x04\n      add\n      tag_84\n      swap1\n      tag_85\n      jump\t// in\n    tag_84:\n      mload(0x40)\n      dup1\n      swap2\n      sub\n      swap1\n      revert\n    tag_83:\n        /* \"buy_back.sol\":3800:4091  function depositWETH(uint256 amount) external onlyOwner {... */\n      pop\n      jump\t// out\n        /* \"buy_back.sol\":2237:2347  function setTargetPrice(uint256 _targetPrice) external onlyOwner {... */\n    tag_35:\n        /* \"buy_back.sol\":1998:2003  owner */\n      0x00\n      0x00\n      swap1\n      sload\n      swap1\n      0x0100\n      exp\n      swap1\n      div\n      0xffffffffffffffffffffffffffffffffffffffff\n      and\n        /* \"buy_back.sol\":1984:2003  msg.sender == owner */\n      0xffffffffffffffffffffffffffffffffffffffff\n      and\n        /* \"buy_back.sol\":1984:1994  msg.sender */\n      caller\n        /* \"buy_back.sol\":1984:2003  msg.sender == owner */\n      0xffffffffffffffffffffffffffffffffffffffff\n      and\n      eq\n        /* \"buy_back.sol\":1976:2022  require(msg.sender == owner, \"Not authorized\") */\n      tag_87\n      jumpi\n      mload(0x40)\n      0x08c379a000000000000000000000000000000000000000000000000000000000\n      dup2\n      mstore\n      0x04\n      add\n      tag_88\n      swap1\n      tag_72\n      jump\t// in\n    tag_88:\n      mload(0x40)\n      dup1\n      swap2\n      sub\n      swap1\n      revert\n    tag_87:\n        /* \"buy_back.sol\":2327:2339  _targetPrice */\n      dup1\n        /* \"buy_back.sol\":2313:2324  targetPrice */\n      0x04\n        /* \"buy_back.sol\":2313:2339  targetPrice = _targetPrice */\n      dup2\n      swap1\n      sstore\n      pop\n        /* \"buy_back.sol\":2237:2347  function setTargetPrice(uint256 _targetPrice) external onlyOwner {... */\n      pop\n      jump\t// out\n        /* \"buy_back.sol\":2593:3792  function buyback(uint256 mlAMPLAmount) external {... */\n    tag_38:\n        /* \"buy_back.sol\":2675:2676  0 */\n      0x00\n        /* \"buy_back.sol\":2660:2672  mlAMPLAmount */\n      dup2\n        /* \"buy_back.sol\":2660:2676  mlAMPLAmount > 0 */\n      gt\n        /* \"buy_back.sol\":2652:2700  require(mlAMPLAmount > 0, \"Must deposit mlAMPL\") */\n      tag_91\n      jumpi\n      mload(0x40)\n      0x08c379a000000000000000000000000000000000000000000000000000000000\n      dup2\n      mstore\n      0x04\n      add\n      tag_92\n      swap1\n      tag_93\n      jump\t// in\n    tag_92:\n      mload(0x40)\n      dup1\n      swap2\n      sub\n      swap1\n      revert\n    tag_91:\n        /* \"buy_back.sol\":2756:2773  uint256 allowance */\n      0x00\n        /* \"buy_back.sol\":2784:2790  mlAMPL */\n      0x02\n      0x00\n      swap1\n      sload\n      swap1\n      0x0100\n      exp\n      swap1\n      div\n      0xffffffffffffffffffffffffffffffffffffffff\n      and\n        /* \"buy_back.sol\":2776:2801  IMLAMPL(mlAMPL).allowance */\n      0xffffffffffffffffffffffffffffffffffffffff\n      and\n      0xdd62ed3e\n        /* \"buy_back.sol\":2802:2812  msg.sender */\n      caller\n        /* \"buy_back.sol\":2822:2826  this */\n      address\n        /* \"buy_back.sol\":2776:2828  IMLAMPL(mlAMPL).allowance(msg.sender, address(this)) */\n      mload(0x40)\n      dup4\n      0xffffffff\n      and\n      0xe0\n      shl\n      dup2\n      mstore\n      0x04\n      add\n      tag_94\n      swap3\n      swap2\n      swap1\n      tag_95\n      jump\t// in\n    tag_94:\n      0x20\n      mload(0x40)\n      dup1\n      dup4\n      sub\n      dup2\n      dup7\n      gas\n      staticcall\n      iszero\n      dup1\n      iszero\n      tag_97\n      jumpi\n      returndatacopy(0x00, 0x00, returndatasize)\n      revert(0x00, returndatasize)\n    tag_97:\n      pop\n      pop\n      pop\n      pop\n      mload(0x40)\n      returndatasize\n      not(0x1f)\n      0x1f\n      dup3\n      add\n      and\n      dup3\n      add\n      dup1\n      0x40\n      mstore\n      pop\n      dup2\n      add\n      swap1\n      tag_98\n      swap2\n      swap1\n      tag_68\n      jump\t// in\n    tag_98:\n        /* \"buy_back.sol\":2756:2828  uint256 allowance = IMLAMPL(mlAMPL).allowance(msg.sender, address(this)) */\n      swap1\n      pop\n        /* \"buy_back.sol\":2860:2872  mlAMPLAmount */\n      dup2\n        /* \"buy_back.sol\":2847:2856  allowance */\n      dup2\n        /* \"buy_back.sol\":2847:2872  allowance >= mlAMPLAmount */\n      lt\n      iszero\n        /* \"buy_back.sol\":2839:2901  require(allowance >= mlAMPLAmount, \"Allowance not sufficient\") */\n      tag_99\n      jumpi\n      mload(0x40)\n      0x08c379a000000000000000000000000000000000000000000000000000000000\n      dup2\n      mstore\n      0x04\n      add\n      tag_100\n      swap1\n      tag_101\n      jump\t// in\n    tag_100:\n      mload(0x40)\n      dup1\n      swap2\n      sub\n      swap1\n      revert\n    tag_99:\n        /* \"buy_back.sol\":2988:2994  mlAMPL */\n      0x02\n      0x00\n      swap1\n      sload\n      swap1\n      0x0100\n      exp\n      swap1\n      div\n      0xffffffffffffffffffffffffffffffffffffffff\n      and\n        /* \"buy_back.sol\":2980:3008  IMLAMPL(mlAMPL).transferFrom */\n      0xffffffffffffffffffffffffffffffffffffffff\n      and\n      0x23b872dd\n        /* \"buy_back.sol\":3009:3019  msg.sender */\n      caller\n        /* \"buy_back.sol\":3029:3033  this */\n      address\n        /* \"buy_back.sol\":3036:3048  mlAMPLAmount */\n      dup6\n        /* \"buy_back.sol\":2980:3049  IMLAMPL(mlAMPL).transferFrom(msg.sender, address(this), mlAMPLAmount) */\n      mload(0x40)\n      dup5\n      0xffffffff\n      and\n      0xe0\n      shl\n      dup2\n      mstore\n      0x04\n      add\n      tag_102\n      swap4\n      swap3\n      swap2\n      swap1\n      tag_78\n      jump\t// in\n    tag_102:\n      0x20\n      mload(0x40)\n      dup1\n      dup4\n      sub\n      dup2\n      0x00\n      dup8\n      gas\n      call\n      iszero\n      dup1\n      iszero\n      tag_104\n      jumpi\n      returndatacopy(0x00, 0x00, returndatasize)\n      revert(0x00, returndatasize)\n    tag_104:\n      pop\n      pop\n      pop\n      pop\n      mload(0x40)\n      returndatasize\n      not(0x1f)\n      0x1f\n      dup3\n      add\n      and\n      dup3\n      add\n      dup1\n      0x40\n      mstore\n      pop\n      dup2\n      add\n      swap1\n      tag_105\n      swap2\n      swap1\n      tag_82\n      jump\t// in\n    tag_105:\n        /* \"buy_back.sol\":2972:3069  require(IMLAMPL(mlAMPL).transferFrom(msg.sender, address(this), mlAMPLAmount), \"Transfer failed\") */\n      tag_106\n      jumpi\n      mload(0x40)\n      0x08c379a000000000000000000000000000000000000000000000000000000000\n      dup2\n      mstore\n      0x04\n      add\n      tag_107\n      swap1\n      tag_108\n      jump\t// in\n    tag_107:\n      mload(0x40)\n      dup1\n      swap2\n      sub\n      swap1\n      revert\n    tag_106:\n        /* \"buy_back.sol\":3131:3154  uint256 discountedPrice */\n      0x00\n        /* \"buy_back.sol\":3196:3199  100 */\n      0x64\n        /* \"buy_back.sol\":3179:3191  discountRate */\n      sload(0x03)\n        /* \"buy_back.sol\":3173:3176  100 */\n      0x64\n        /* \"buy_back.sol\":3173:3191  100 - discountRate */\n      tag_109\n      swap2\n      swap1\n      tag_110\n      jump\t// in\n    tag_109:\n        /* \"buy_back.sol\":3158:3169  targetPrice */\n      sload(0x04)\n        /* \"buy_back.sol\":3158:3192  targetPrice * (100 - discountRate) */\n      tag_111\n      swap2\n      swap1\n      tag_112\n      jump\t// in\n    tag_111:\n        /* \"buy_back.sol\":3157:3199  (targetPrice * (100 - discountRate)) / 100 */\n      tag_113\n      swap2\n      swap1\n      tag_114\n      jump\t// in\n    tag_113:\n        /* \"buy_back.sol\":3131:3199  uint256 discountedPrice = (targetPrice * (100 - discountRate)) / 100 */\n      swap1\n      pop\n        /* \"buy_back.sol\":3210:3228  uint256 wethAmount */\n      0x00\n        /* \"buy_back.sol\":3266:3270  1e18 */\n      0x0de0b6b3a7640000\n        /* \"buy_back.sol\":3247:3262  discountedPrice */\n      dup3\n        /* \"buy_back.sol\":3232:3244  mlAMPLAmount */\n      dup6\n        /* \"buy_back.sol\":3232:3262  mlAMPLAmount * discountedPrice */\n      tag_115\n      swap2\n      swap1\n      tag_112\n      jump\t// in\n    tag_115:\n        /* \"buy_back.sol\":3231:3270  (mlAMPLAmount * discountedPrice) / 1e18 */\n      tag_116\n      swap2\n      swap1\n      tag_114\n      jump\t// in\n    tag_116:\n        /* \"buy_back.sol\":3210:3270  uint256 wethAmount = (mlAMPLAmount * discountedPrice) / 1e18 */\n      swap1\n      pop\n        /* \"buy_back.sol\":3338:3365  uint256 contractWethBalance */\n      0x00\n        /* \"buy_back.sol\":3374:3378  weth */\n      0x01\n      0x00\n      swap1\n      sload\n      swap1\n      0x0100\n      exp\n      swap1\n      div\n      0xffffffffffffffffffffffffffffffffffffffff\n      and\n        /* \"buy_back.sol\":3368:3389  IWETH(weth).balanceOf */\n      0xffffffffffffffffffffffffffffffffffffffff\n      and\n      0x70a08231\n        /* \"buy_back.sol\":3398:3402  this */\n      address\n        /* \"buy_back.sol\":3368:3404  IWETH(weth).balanceOf(address(this)) */\n      mload(0x40)\n      dup3\n      0xffffffff\n      and\n      0xe0\n      shl\n      dup2\n      mstore\n      0x04\n      add\n      tag_117\n      swap2\n      swap1\n      tag_25\n      jump\t// in\n    tag_117:\n      0x20\n      mload(0x40)\n      dup1\n      dup4\n      sub\n      dup2\n      dup7\n      gas\n      staticcall\n      iszero\n      dup1\n      iszero\n      tag_119\n      jumpi\n      returndatacopy(0x00, 0x00, returndatasize)\n      revert(0x00, returndatasize)\n    tag_119:\n      pop\n      pop\n      pop\n      pop\n      mload(0x40)\n      returndatasize\n      not(0x1f)\n      0x1f\n      dup3\n      add\n      and\n      dup3\n      add\n      dup1\n      0x40\n      mstore\n      pop\n      dup2\n      add\n      swap1\n      tag_120\n      swap2\n      swap1\n      tag_68\n      jump\t// in\n    tag_120:\n        /* \"buy_back.sol\":3338:3404  uint256 contractWethBalance = IWETH(weth).balanceOf(address(this)) */\n      swap1\n      pop\n        /* \"buy_back.sol\":3446:3456  wethAmount */\n      dup2\n        /* \"buy_back.sol\":3423:3442  contractWethBalance */\n      dup2\n        /* \"buy_back.sol\":3423:3456  contractWethBalance >= wethAmount */\n      lt\n      iszero\n        /* \"buy_back.sol\":3415:3488  require(contractWethBalance >= wethAmount, \"Not enough WETH in contract\") */\n      tag_121\n      jumpi\n      mload(0x40)\n      0x08c379a000000000000000000000000000000000000000000000000000000000\n      dup2\n      mstore\n      0x04\n      add\n      tag_122\n      swap1\n      tag_123\n      jump\t// in\n    tag_122:\n      mload(0x40)\n      dup1\n      swap2\n      sub\n      swap1\n      revert\n    tag_121:\n        /* \"buy_back.sol\":3553:3557  weth */\n      0x01\n      0x00\n      swap1\n      sload\n      swap1\n      0x0100\n      exp\n      swap1\n      div\n      0xffffffffffffffffffffffffffffffffffffffff\n      and\n        /* \"buy_back.sol\":3547:3567  IWETH(weth).transfer */\n      0xffffffffffffffffffffffffffffffffffffffff\n      and\n      0xa9059cbb\n        /* \"buy_back.sol\":3568:3578  msg.sender */\n      caller\n        /* \"buy_back.sol\":3580:3590  wethAmount */\n      dup5\n        /* \"buy_back.sol\":3547:3591  IWETH(weth).transfer(msg.sender, wethAmount) */\n      mload(0x40)\n      dup4\n      0xffffffff\n      and\n      0xe0\n      shl\n      dup2\n      mstore\n      0x04\n      add\n      tag_124\n      swap3\n      swap2\n      swap1\n      tag_125\n      jump\t// in\n    tag_124:\n      0x20\n      mload(0x40)\n      dup1\n      dup4\n      sub\n      dup2\n      0x00\n      dup8\n      gas\n      call\n      iszero\n      dup1\n      iszero\n      tag_127\n      jumpi\n      returndatacopy(0x00, 0x00, returndatasize)\n      revert(0x00, returndatasize)\n    tag_127:\n      pop\n      pop\n      pop\n      pop\n      mload(0x40)\n      returndatasize\n      not(0x1f)\n      0x1f\n      dup3\n      add\n      and\n      dup3\n      add\n      dup1\n      0x40\n      mstore\n      pop\n      dup2\n      add\n      swap1\n      tag_128\n      swap2\n      swap1\n      tag_82\n      jump\t// in\n    tag_128:\n        /* \"buy_back.sol\":3539:3616  require(IWETH(weth).transfer(msg.sender, wethAmount), \"WETH transfer failed\") */\n      tag_129\n      jumpi\n      mload(0x40)\n      0x08c379a000000000000000000000000000000000000000000000000000000000\n      dup2\n      mstore\n      0x04\n      add\n      tag_130\n      swap1\n      tag_131\n      jump\t// in\n    tag_130:\n      mload(0x40)\n      dup1\n      swap2\n      sub\n      swap1\n      revert\n    tag_129:\n        /* \"buy_back.sol\":3672:3678  mlAMPL */\n      0x02\n      0x00\n      swap1\n      sload\n      swap1\n      0x0100\n      exp\n      swap1\n      div\n      0xffffffffffffffffffffffffffffffffffffffff\n      and\n        /* \"buy_back.sol\":3664:3684  IMLAMPL(mlAMPL).burn */\n      0xffffffffffffffffffffffffffffffffffffffff\n      and\n      0x9dc29fac\n        /* \"buy_back.sol\":3693:3697  this */\n      address\n        /* \"buy_back.sol\":3700:3712  mlAMPLAmount */\n      dup8\n        /* \"buy_back.sol\":3664:3713  IMLAMPL(mlAMPL).burn(address(this), mlAMPLAmount) */\n      mload(0x40)\n      dup4\n      0xffffffff\n      and\n      0xe0\n      shl\n      dup2\n      mstore\n      0x04\n      add\n      tag_132\n      swap3\n      swap2\n      swap1\n      tag_125\n      jump\t// in\n    tag_132:\n      0x00\n      mload(0x40)\n      dup1\n      dup4\n      sub\n      dup2\n      0x00\n      dup8\n      dup1\n      extcodesize\n      iszero\n      dup1\n      iszero\n      tag_133\n      jumpi\n      revert(0x00, 0x00)\n    tag_133:\n      pop\n      gas\n      call\n      iszero\n      dup1\n      iszero\n      tag_135\n      jumpi\n      returndatacopy(0x00, 0x00, returndatasize)\n      revert(0x00, returndatasize)\n    tag_135:\n      pop\n      pop\n      pop\n      pop\n        /* \"buy_back.sol\":3747:3757  msg.sender */\n      caller\n        /* \"buy_back.sol\":3731:3784  BuyBackExecuted(msg.sender, mlAMPLAmount, wethAmount) */\n      0xffffffffffffffffffffffffffffffffffffffff\n      and\n      0xcb7f55d0b91628d4520b789339dae4803ab07182ea89d138acbd965dac51dc65\n        /* \"buy_back.sol\":3759:3771  mlAMPLAmount */\n      dup7\n        /* \"buy_back.sol\":3773:3783  wethAmount */\n      dup5\n        /* \"buy_back.sol\":3731:3784  BuyBackExecuted(msg.sender, mlAMPLAmount, wethAmount) */\n      mload(0x40)\n      tag_136\n      swap3\n      swap2\n      swap1\n      tag_137\n      jump\t// in\n    tag_136:\n      mload(0x40)\n      dup1\n      swap2\n      sub\n      swap1\n      log2\n        /* \"buy_back.sol\":2641:3792  {... */\n      pop\n      pop\n      pop\n      pop\n        /* \"buy_back.sol\":2593:3792  function buyback(uint256 mlAMPLAmount) external {... */\n      pop\n      jump\t// out\n        /* \"buy_back.sol\":2050:2229  function setDiscountRate(uint256 _discountRate) external onlyOwner {... */\n    tag_41:\n        /* \"buy_back.sol\":1998:2003  owner */\n      0x00\n      0x00\n      swap1\n      sload\n      swap1\n      0x0100\n      exp\n      swap1\n      div\n      0xffffffffffffffffffffffffffffffffffffffff\n      and\n        /* \"buy_back.sol\":1984:2003  msg.sender == owner */\n      0xffffffffffffffffffffffffffffffffffffffff\n      and\n        /* \"buy_back.sol\":1984:1994  msg.sender */\n      caller\n        /* \"buy_back.sol\":1984:2003  msg.sender == owner */\n      0xffffffffffffffffffffffffffffffffffffffff\n      and\n      eq\n        /* \"buy_back.sol\":1976:2022  require(msg.sender == owner, \"Not authorized\") */\n      tag_139\n      jumpi\n      mload(0x40)\n      0x08c379a000000000000000000000000000000000000000000000000000000000\n      dup2\n      mstore\n      0x04\n      add\n      tag_140\n      swap1\n      tag_72\n      jump\t// in\n    tag_140:\n      mload(0x40)\n      dup1\n      swap2\n      sub\n      swap1\n      revert\n    tag_139:\n        /* \"buy_back.sol\":2153:2156  100 */\n      0x64\n        /* \"buy_back.sol\":2136:2149  _discountRate */\n      dup2\n        /* \"buy_back.sol\":2136:2156  _discountRate <= 100 */\n      gt\n      iszero\n        /* \"buy_back.sol\":2128:2182  require(_discountRate <= 100, \"Invalid discount rate\") */\n      tag_142\n      jumpi\n      mload(0x40)\n      0x08c379a000000000000000000000000000000000000000000000000000000000\n      dup2\n      mstore\n      0x04\n      add\n      tag_143\n      swap1\n      tag_144\n      jump\t// in\n    tag_143:\n      mload(0x40)\n      dup1\n      swap2\n      sub\n      swap1\n      revert\n    tag_142:\n        /* \"buy_back.sol\":2208:2221  _discountRate */\n      dup1\n        /* \"buy_back.sol\":2193:2205  discountRate */\n      0x03\n        /* \"buy_back.sol\":2193:2221  discountRate = _discountRate */\n      dup2\n      swap1\n      sstore\n      pop\n        /* \"buy_back.sol\":2050:2229  function setDiscountRate(uint256 _discountRate) external onlyOwner {... */\n      pop\n      jump\t// out\n        /* \"buy_back.sol\":4669:5033  function canExecuteBuyback(uint256 mlAMPLAmount) external view returns (bool) {... */\n    tag_44:\n        /* \"buy_back.sol\":4741:4745  bool */\n      0x00\n        /* \"buy_back.sol\":4758:4781  uint256 discountedPrice */\n      0x00\n        /* \"buy_back.sol\":4823:4826  100 */\n      0x64\n        /* \"buy_back.sol\":4806:4818  discountRate */\n      sload(0x03)\n        /* \"buy_back.sol\":4800:4803  100 */\n      0x64\n        /* \"buy_back.sol\":4800:4818  100 - discountRate */\n      tag_146\n      swap2\n      swap1\n      tag_110\n      jump\t// in\n    tag_146:\n        /* \"buy_back.sol\":4785:4796  targetPrice */\n      sload(0x04)\n        /* \"buy_back.sol\":4785:4819  targetPrice * (100 - discountRate) */\n      tag_147\n      swap2\n      swap1\n      tag_112\n      jump\t// in\n    tag_147:\n        /* \"buy_back.sol\":4784:4826  (targetPrice * (100 - discountRate)) / 100 */\n      tag_148\n      swap2\n      swap1\n      tag_114\n      jump\t// in\n    tag_148:\n        /* \"buy_back.sol\":4758:4826  uint256 discountedPrice = (targetPrice * (100 - discountRate)) / 100 */\n      swap1\n      pop\n        /* \"buy_back.sol\":4837:4855  uint256 wethAmount */\n      0x00\n        /* \"buy_back.sol\":4893:4897  1e18 */\n      0x0de0b6b3a7640000\n        /* \"buy_back.sol\":4874:4889  discountedPrice */\n      dup3\n        /* \"buy_back.sol\":4859:4871  mlAMPLAmount */\n      dup6\n        /* \"buy_back.sol\":4859:4889  mlAMPLAmount * discountedPrice */\n      tag_149\n      swap2\n      swap1\n      tag_112\n      jump\t// in\n    tag_149:\n        /* \"buy_back.sol\":4858:4897  (mlAMPLAmount * discountedPrice) / 1e18 */\n      tag_150\n      swap2\n      swap1\n      tag_114\n      jump\t// in\n    tag_150:\n        /* \"buy_back.sol\":4837:4897  uint256 wethAmount = (mlAMPLAmount * discountedPrice) / 1e18 */\n      swap1\n      pop\n        /* \"buy_back.sol\":4908:4935  uint256 contractWethBalance */\n      0x00\n        /* \"buy_back.sol\":4944:4948  weth */\n      0x01\n      0x00\n      swap1\n      sload\n      swap1\n      0x0100\n      exp\n      swap1\n      div\n      0xffffffffffffffffffffffffffffffffffffffff\n      and\n        /* \"buy_back.sol\":4938:4959  IWETH(weth).balanceOf */\n      0xffffffffffffffffffffffffffffffffffffffff\n      and\n      0x70a08231\n        /* \"buy_back.sol\":4968:4972  this */\n      address\n        /* \"buy_back.sol\":4938:4974  IWETH(weth).balanceOf(address(this)) */\n      mload(0x40)\n      dup3\n      0xffffffff\n      and\n      0xe0\n      shl\n      dup2\n      mstore\n      0x04\n      add\n      tag_151\n      swap2\n      swap1\n      tag_25\n      jump\t// in\n    tag_151:\n      0x20\n      mload(0x40)\n      dup1\n      dup4\n      sub\n      dup2\n      dup7\n      gas\n      staticcall\n      iszero\n      dup1\n      iszero\n      tag_153\n      jumpi\n      returndatacopy(0x00, 0x00, returndatasize)\n      revert(0x00, returndatasize)\n    tag_153:\n      pop\n      pop\n      pop\n      pop\n      mload(0x40)\n      returndatasize\n      not(0x1f)\n      0x1f\n      dup3\n      add\n      and\n      dup3\n      add\n      dup1\n      0x40\n      mstore\n      pop\n      dup2\n      add\n      swap1\n      tag_154\n      swap2\n      swap1\n      tag_68\n      jump\t// in\n    tag_154:\n        /* \"buy_back.sol\":4908:4974  uint256 contractWethBalance = IWETH(weth).balanceOf(address(this)) */\n      swap1\n      pop\n        /* \"buy_back.sol\":5015:5025  wethAmount */\n      dup2\n        /* \"buy_back.sol\":4992:5011  contractWethBalance */\n      dup2\n        /* \"buy_back.sol\":4992:5025  contractWethBalance >= wethAmount */\n      lt\n      iszero\n        /* \"buy_back.sol\":4985:5025  return contractWethBalance >= wethAmount */\n      swap4\n      pop\n      pop\n      pop\n      pop\n        /* \"buy_back.sol\":4669:5033  function canExecuteBuyback(uint256 mlAMPLAmount) external view returns (bool) {... */\n      swap2\n      swap1\n      pop\n      jump\t// out\n        /* \"buy_back.sol\":1146:1166  address public owner */\n    tag_48:\n      0x00\n      0x00\n      swap1\n      sload\n      swap1\n      0x0100\n      exp\n      swap1\n      div\n      0xffffffffffffffffffffffffffffffffffffffff\n      and\n      dup2\n      jump\t// out\n        /* \"buy_back.sol\":1365:1391  uint256 public targetPrice */\n    tag_51:\n      sload(0x04)\n      dup2\n      jump\t// out\n        /* \"buy_back.sol\":1281:1308  uint256 public discountRate */\n    tag_54:\n      sload(0x03)\n      dup2\n      jump\t// out\n        /* \"buy_back.sol\":2355:2585  function transferOwnership(address newOwner) external onlyOwner {... */\n    tag_59:\n        /* \"buy_back.sol\":1998:2003  owner */\n      0x00\n      0x00\n      swap1\n      sload\n      swap1\n      0x0100\n      exp\n      swap1\n      div\n      0xffffffffffffffffffffffffffffffffffffffff\n      and\n        /* \"buy_back.sol\":1984:2003  msg.sender == owner */\n      0xffffffffffffffffffffffffffffffffffffffff\n      and\n        /* \"buy_back.sol\":1984:1994  msg.sender */\n      caller\n        /* \"buy_back.sol\":1984:2003  msg.sender == owner */\n      0xffffffffffffffffffffffffffffffffffffffff\n      and\n      eq\n        /* \"buy_back.sol\":1976:2022  require(msg.sender == owner, \"Not authorized\") */\n      tag_156\n      jumpi\n      mload(0x40)\n      0x08c379a000000000000000000000000000000000000000000000000000000000\n      dup2\n      mstore\n      0x04\n      add\n      tag_157\n      swap1\n      tag_72\n      jump\t// in\n    tag_157:\n      mload(0x40)\n      dup1\n      swap2\n      sub\n      swap1\n      revert\n    tag_156:\n        /* \"buy_back.sol\":2458:2459  0 */\n      0x00\n        /* \"buy_back.sol\":2438:2460  newOwner != address(0) */\n      0xffffffffffffffffffffffffffffffffffffffff\n      and\n        /* \"buy_back.sol\":2438:2446  newOwner */\n      dup2\n        /* \"buy_back.sol\":2438:2460  newOwner != address(0) */\n      0xffffffffffffffffffffffffffffffffffffffff\n      and\n      sub\n        /* \"buy_back.sol\":2430:2497  require(newOwner != address(0), \"New owner cannot be zero address\") */\n      tag_159\n      jumpi\n      mload(0x40)\n      0x08c379a000000000000000000000000000000000000000000000000000000000\n      dup2\n      mstore\n      0x04\n      add\n      tag_160\n      swap1\n      tag_161\n      jump\t// in\n    tag_160:\n      mload(0x40)\n      dup1\n      swap2\n      sub\n      swap1\n      revert\n    tag_159:\n        /* \"buy_back.sol\":2541:2549  newOwner */\n      dup1\n        /* \"buy_back.sol\":2513:2550  OwnershipTransferred(owner, newOwner) */\n      0xffffffffffffffffffffffffffffffffffffffff\n      and\n        /* \"buy_back.sol\":2534:2539  owner */\n      0x00\n      0x00\n      swap1\n      sload\n      swap1\n      0x0100\n      exp\n      swap1\n      div\n      0xffffffffffffffffffffffffffffffffffffffff\n      and\n        /* \"buy_back.sol\":2513:2550  OwnershipTransferred(owner, newOwner) */\n      0xffffffffffffffffffffffffffffffffffffffff\n      and\n      0x8be0079c531659141344cd1fd0a4f28419497f9722a3daafe3b4186f6b6457e0\n      mload(0x40)\n      mload(0x40)\n      dup1\n      swap2\n      sub\n      swap1\n      log3\n        /* \"buy_back.sol\":2569:2577  newOwner */\n      dup1\n        /* \"buy_back.sol\":2561:2566  owner */\n      0x00\n      0x00\n        /* \"buy_back.sol\":2561:2577  owner = newOwner */\n      0x0100\n      exp\n      dup2\n      sload\n      dup2\n      0xffffffffffffffffffffffffffffffffffffffff\n      mul\n      not\n      and\n      swap1\n      dup4\n      0xffffffffffffffffffffffffffffffffffffffff\n      and\n      mul\n      or\n      swap1\n      sstore\n      pop\n        /* \"buy_back.sol\":2355:2585  function transferOwnership(address newOwner) external onlyOwner {... */\n      pop\n      jump\t// out\n        /* \"buy_back.sol\":4099:4528  function withdrawWETH(uint256 amount) external onlyOwner {... */\n    tag_62:\n        /* \"buy_back.sol\":1998:2003  owner */\n      0x00\n      0x00\n      swap1\n      sload\n      swap1\n      0x0100\n      exp\n      swap1\n      div\n      0xffffffffffffffffffffffffffffffffffffffff\n      and\n        /* \"buy_back.sol\":1984:2003  msg.sender == owner */\n      0xffffffffffffffffffffffffffffffffffffffff\n      and\n        /* \"buy_back.sol\":1984:1994  msg.sender */\n      caller\n        /* \"buy_back.sol\":1984:2003  msg.sender == owner */\n      0xffffffffffffffffffffffffffffffffffffffff\n      and\n      eq\n        /* \"buy_back.sol\":1976:2022  require(msg.sender == owner, \"Not authorized\") */\n      tag_163\n      jumpi\n      mload(0x40)\n      0x08c379a000000000000000000000000000000000000000000000000000000000\n      dup2\n      mstore\n      0x04\n      add\n      tag_164\n      swap1\n      tag_72\n      jump\t// in\n    tag_164:\n      mload(0x40)\n      dup1\n      swap2\n      sub\n      swap1\n      revert\n    tag_163:\n        /* \"buy_back.sol\":4247:4248  0 */\n      0x00\n        /* \"buy_back.sol\":4238:4244  amount */\n      dup2\n        /* \"buy_back.sol\":4238:4248  amount > 0 */\n      gt\n        /* \"buy_back.sol\":4230:4282  require(amount > 0, \"Amount must be greater than 0\") */\n      tag_166\n      jumpi\n      mload(0x40)\n      0x08c379a000000000000000000000000000000000000000000000000000000000\n      dup2\n      mstore\n      0x04\n      add\n      tag_167\n      swap1\n      tag_76\n      jump\t// in\n    tag_167:\n      mload(0x40)\n      dup1\n      swap2\n      sub\n      swap1\n      revert\n    tag_166:\n        /* \"buy_back.sol\":4293:4320  uint256 contractWethBalance */\n      0x00\n        /* \"buy_back.sol\":4329:4333  weth */\n      0x01\n      0x00\n      swap1\n      sload\n      swap1\n      0x0100\n      exp\n      swap1\n      div\n      0xffffffffffffffffffffffffffffffffffffffff\n      and\n        /* \"buy_back.sol\":4323:4344  IWETH(weth).balanceOf */\n      0xffffffffffffffffffffffffffffffffffffffff\n      and\n      0x70a08231\n        /* \"buy_back.sol\":4353:4357  this */\n      address\n        /* \"buy_back.sol\":4323:4359  IWETH(weth).balanceOf(address(this)) */\n      mload(0x40)\n      dup3\n      0xffffffff\n      and\n      0xe0\n      shl\n      dup2\n      mstore\n      0x04\n      add\n      tag_168\n      swap2\n      swap1\n      tag_25\n      jump\t// in\n    tag_168:\n      0x20\n      mload(0x40)\n      dup1\n      dup4\n      sub\n      dup2\n      dup7\n      gas\n      staticcall\n      iszero\n      dup1\n      iszero\n      tag_170\n      jumpi\n      returndatacopy(0x00, 0x00, returndatasize)\n      revert(0x00, returndatasize)\n    tag_170:\n      pop\n      pop\n      pop\n      pop\n      mload(0x40)\n      returndatasize\n      not(0x1f)\n      0x1f\n      dup3\n      add\n      and\n      dup3\n      add\n      dup1\n      0x40\n      mstore\n      pop\n      dup2\n      add\n      swap1\n      tag_171\n      swap2\n      swap1\n      tag_68\n      jump\t// in\n    tag_171:\n        /* \"buy_back.sol\":4293:4359  uint256 contractWethBalance = IWETH(weth).balanceOf(address(this)) */\n      swap1\n      pop\n        /* \"buy_back.sol\":4388:4407  contractWethBalance */\n      dup1\n        /* \"buy_back.sol\":4378:4384  amount */\n      dup3\n        /* \"buy_back.sol\":4378:4407  amount <= contractWethBalance */\n      gt\n      iszero\n        /* \"buy_back.sol\":4370:4439  require(amount <= contractWethBalance, \"Not enough WETH in contract\") */\n      tag_172\n      jumpi\n      mload(0x40)\n      0x08c379a000000000000000000000000000000000000000000000000000000000\n      dup2\n      mstore\n      0x04\n      add\n      tag_173\n      swap1\n      tag_123\n      jump\t// in\n    tag_173:\n      mload(0x40)\n      dup1\n      swap2\n      sub\n      swap1\n      revert\n    tag_172:\n        /* \"buy_back.sol\":4464:4468  weth */\n      0x01\n      0x00\n      swap1\n      sload\n      swap1\n      0x0100\n      exp\n      swap1\n      div\n      0xffffffffffffffffffffffffffffffffffffffff\n      and\n        /* \"buy_back.sol\":4458:4478  IWETH(weth).transfer */\n      0xffffffffffffffffffffffffffffffffffffffff\n      and\n      0xa9059cbb\n        /* \"buy_back.sol\":4479:4484  owner */\n      0x00\n      0x00\n      swap1\n      sload\n      swap1\n      0x0100\n      exp\n      swap1\n      div\n      0xffffffffffffffffffffffffffffffffffffffff\n      and\n        /* \"buy_back.sol\":4486:4492  amount */\n      dup5\n        /* \"buy_back.sol\":4458:4493  IWETH(weth).transfer(owner, amount) */\n      mload(0x40)\n      dup4\n      0xffffffff\n      and\n      0xe0\n      shl\n      dup2\n      mstore\n      0x04\n      add\n      tag_174\n      swap3\n      swap2\n      swap1\n      tag_125\n      jump\t// in\n    tag_174:\n      0x20\n      mload(0x40)\n      dup1\n      dup4\n      sub\n      dup2\n      0x00\n      dup8\n      gas\n      call\n      iszero\n      dup1\n      iszero\n      tag_176\n      jumpi\n      returndatacopy(0x00, 0x00, returndatasize)\n      revert(0x00, returndatasize)\n    tag_176:\n      pop\n      pop\n      pop\n      pop\n      mload(0x40)\n      returndatasize\n      not(0x1f)\n      0x1f\n      dup3\n      add\n      and\n      dup3\n      add\n      dup1\n      0x40\n      mstore\n      pop\n      dup2\n      add\n      swap1\n      tag_177\n      swap2\n      swap1\n      tag_82\n      jump\t// in\n    tag_177:\n        /* \"buy_back.sol\":4450:4520  require(IWETH(weth).transfer(owner, amount), \"WETH withdrawal failed\") */\n      tag_178\n      jumpi\n      mload(0x40)\n      0x08c379a000000000000000000000000000000000000000000000000000000000\n      dup2\n      mstore\n      0x04\n      add\n      tag_179\n      swap1\n      tag_180\n      jump\t// in\n    tag_179:\n      mload(0x40)\n      dup1\n      swap2\n      sub\n      swap1\n      revert\n    tag_178:\n        /* \"buy_back.sol\":4156:4528  {... */\n      pop\n        /* \"buy_back.sol\":4099:4528  function withdrawWETH(uint256 amount) external onlyOwner {... */\n      pop\n      jump\t// out\n        /* \"#utility.yul\":7:84   */\n    tag_181:\n        /* \"#utility.yul\":44:51   */\n      0x00\n        /* \"#utility.yul\":73:78   */\n      dup2\n        /* \"#utility.yul\":62:78   */\n      swap1\n      pop\n        /* \"#utility.yul\":7:84   */\n      swap2\n      swap1\n      pop\n      jump\t// out\n        /* \"#utility.yul\":90:208   */\n    tag_182:\n        /* \"#utility.yul\":177:201   */\n      tag_226\n        /* \"#utility.yul\":195:200   */\n      dup2\n        /* \"#utility.yul\":177:201   */\n      tag_181\n      jump\t// in\n    tag_226:\n        /* \"#utility.yul\":172:175   */\n      dup3\n        /* \"#utility.yul\":165:202   */\n      mstore\n        /* \"#utility.yul\":90:208   */\n      pop\n      pop\n      jump\t// out\n        /* \"#utility.yul\":214:436   */\n    tag_21:\n        /* \"#utility.yul\":307:311   */\n      0x00\n        /* \"#utility.yul\":345:347   */\n      0x20\n        /* \"#utility.yul\":334:343   */\n      dup3\n        /* \"#utility.yul\":330:348   */\n      add\n        /* \"#utility.yul\":322:348   */\n      swap1\n      pop\n        /* \"#utility.yul\":358:429   */\n      tag_228\n        /* \"#utility.yul\":426:427   */\n      0x00\n        /* \"#utility.yul\":415:424   */\n      dup4\n        /* \"#utility.yul\":411:428   */\n      add\n        /* \"#utility.yul\":402:408   */\n      dup5\n        /* \"#utility.yul\":358:429   */\n      tag_182\n      jump\t// in\n    tag_228:\n        /* \"#utility.yul\":214:436   */\n      swap3\n      swap2\n      pop\n      pop\n      jump\t// out\n        /* \"#utility.yul\":442:568   */\n    tag_183:\n        /* \"#utility.yul\":479:486   */\n      0x00\n        /* \"#utility.yul\":519:561   */\n      0xffffffffffffffffffffffffffffffffffffffff\n        /* \"#utility.yul\":512:517   */\n      dup3\n        /* \"#utility.yul\":508:562   */\n      and\n        /* \"#utility.yul\":497:562   */\n      swap1\n      pop\n        /* \"#utility.yul\":442:568   */\n      swap2\n      swap1\n      pop\n      jump\t// out\n        /* \"#utility.yul\":574:670   */\n    tag_184:\n        /* \"#utility.yul\":611:618   */\n      0x00\n        /* \"#utility.yul\":640:664   */\n      tag_231\n        /* \"#utility.yul\":658:663   */\n      dup3\n        /* \"#utility.yul\":640:664   */\n      tag_183\n      jump\t// in\n    tag_231:\n        /* \"#utility.yul\":629:664   */\n      swap1\n      pop\n        /* \"#utility.yul\":574:670   */\n      swap2\n      swap1\n      pop\n      jump\t// out\n        /* \"#utility.yul\":676:794   */\n    tag_185:\n        /* \"#utility.yul\":763:787   */\n      tag_233\n        /* \"#utility.yul\":781:786   */\n      dup2\n        /* \"#utility.yul\":763:787   */\n      tag_184\n      jump\t// in\n    tag_233:\n        /* \"#utility.yul\":758:761   */\n      dup3\n        /* \"#utility.yul\":751:788   */\n      mstore\n        /* \"#utility.yul\":676:794   */\n      pop\n      pop\n      jump\t// out\n        /* \"#utility.yul\":800:1022   */\n    tag_25:\n        /* \"#utility.yul\":893:897   */\n      0x00\n        /* \"#utility.yul\":931:933   */\n      0x20\n        /* \"#utility.yul\":920:929   */\n      dup3\n        /* \"#utility.yul\":916:934   */\n      add\n        /* \"#utility.yul\":908:934   */\n      swap1\n      pop\n        /* \"#utility.yul\":944:1015   */\n      tag_235\n        /* \"#utility.yul\":1012:1013   */\n      0x00\n        /* \"#utility.yul\":1001:1010   */\n      dup4\n        /* \"#utility.yul\":997:1014   */\n      add\n        /* \"#utility.yul\":988:994   */\n      dup5\n        /* \"#utility.yul\":944:1015   */\n      tag_185\n      jump\t// in\n    tag_235:\n        /* \"#utility.yul\":800:1022   */\n      swap3\n      swap2\n      pop\n      pop\n      jump\t// out\n        /* \"#utility.yul\":1109:1226   */\n    tag_187:\n        /* \"#utility.yul\":1218:1219   */\n      0x00\n        /* \"#utility.yul\":1215:1216   */\n      0x00\n        /* \"#utility.yul\":1208:1220   */\n      revert\n        /* \"#utility.yul\":1355:1477   */\n    tag_189:\n        /* \"#utility.yul\":1428:1452   */\n      tag_240\n        /* \"#utility.yul\":1446:1451   */\n      dup2\n        /* \"#utility.yul\":1428:1452   */\n      tag_181\n      jump\t// in\n    tag_240:\n        /* \"#utility.yul\":1421:1426   */\n      dup2\n        /* \"#utility.yul\":1418:1453   */\n      eq\n        /* \"#utility.yul\":1408:1471   */\n      tag_241\n      jumpi\n        /* \"#utility.yul\":1467:1468   */\n      0x00\n        /* \"#utility.yul\":1464:1465   */\n      0x00\n        /* \"#utility.yul\":1457:1469   */\n      revert\n        /* \"#utility.yul\":1408:1471   */\n    tag_241:\n        /* \"#utility.yul\":1355:1477   */\n      pop\n      jump\t// out\n        /* \"#utility.yul\":1483:1622   */\n    tag_190:\n        /* \"#utility.yul\":1529:1534   */\n      0x00\n        /* \"#utility.yul\":1567:1573   */\n      dup2\n        /* \"#utility.yul\":1554:1574   */\n      calldataload\n        /* \"#utility.yul\":1545:1574   */\n      swap1\n      pop\n        /* \"#utility.yul\":1583:1616   */\n      tag_243\n        /* \"#utility.yul\":1610:1615   */\n      dup2\n        /* \"#utility.yul\":1583:1616   */\n      tag_189\n      jump\t// in\n    tag_243:\n        /* \"#utility.yul\":1483:1622   */\n      swap3\n      swap2\n      pop\n      pop\n      jump\t// out\n        /* \"#utility.yul\":1628:1957   */\n    tag_31:\n        /* \"#utility.yul\":1687:1693   */\n      0x00\n        /* \"#utility.yul\":1736:1738   */\n      0x20\n        /* \"#utility.yul\":1724:1733   */\n      dup3\n        /* \"#utility.yul\":1715:1722   */\n      dup5\n        /* \"#utility.yul\":1711:1734   */\n      sub\n        /* \"#utility.yul\":1707:1739   */\n      slt\n        /* \"#utility.yul\":1704:1823   */\n      iszero\n      tag_245\n      jumpi\n        /* \"#utility.yul\":1742:1821   */\n      tag_246\n      tag_187\n      jump\t// in\n    tag_246:\n        /* \"#utility.yul\":1704:1823   */\n    tag_245:\n        /* \"#utility.yul\":1862:1863   */\n      0x00\n        /* \"#utility.yul\":1887:1940   */\n      tag_247\n        /* \"#utility.yul\":1932:1939   */\n      dup5\n        /* \"#utility.yul\":1923:1929   */\n      dup3\n        /* \"#utility.yul\":1912:1921   */\n      dup6\n        /* \"#utility.yul\":1908:1930   */\n      add\n        /* \"#utility.yul\":1887:1940   */\n      tag_190\n      jump\t// in\n    tag_247:\n        /* \"#utility.yul\":1877:1940   */\n      swap2\n      pop\n        /* \"#utility.yul\":1833:1950   */\n      pop\n        /* \"#utility.yul\":1628:1957   */\n      swap3\n      swap2\n      pop\n      pop\n      jump\t// out\n        /* \"#utility.yul\":1963:2053   */\n    tag_191:\n        /* \"#utility.yul\":1997:2004   */\n      0x00\n        /* \"#utility.yul\":2040:2045   */\n      dup2\n        /* \"#utility.yul\":2033:2046   */\n      iszero\n        /* \"#utility.yul\":2026:2047   */\n      iszero\n        /* \"#utility.yul\":2015:2047   */\n      swap1\n      pop\n        /* \"#utility.yul\":1963:2053   */\n      swap2\n      swap1\n      pop\n      jump\t// out\n        /* \"#utility.yul\":2059:2168   */\n    tag_192:\n        /* \"#utility.yul\":2140:2161   */\n      tag_250\n        /* \"#utility.yul\":2155:2160   */\n      dup2\n        /* \"#utility.yul\":2140:2161   */\n      tag_191\n      jump\t// in\n    tag_250:\n        /* \"#utility.yul\":2135:2138   */\n      dup3\n        /* \"#utility.yul\":2128:2162   */\n      mstore\n        /* \"#utility.yul\":2059:2168   */\n      pop\n      pop\n      jump\t// out\n        /* \"#utility.yul\":2174:2384   */\n    tag_46:\n        /* \"#utility.yul\":2261:2265   */\n      0x00\n        /* \"#utility.yul\":2299:2301   */\n      0x20\n        /* \"#utility.yul\":2288:2297   */\n      dup3\n        /* \"#utility.yul\":2284:2302   */\n      add\n        /* \"#utility.yul\":2276:2302   */\n      swap1\n      pop\n        /* \"#utility.yul\":2312:2377   */\n      tag_252\n        /* \"#utility.yul\":2374:2375   */\n      0x00\n        /* \"#utility.yul\":2363:2372   */\n      dup4\n        /* \"#utility.yul\":2359:2376   */\n      add\n        /* \"#utility.yul\":2350:2356   */\n      dup5\n        /* \"#utility.yul\":2312:2377   */\n      tag_192\n      jump\t// in\n    tag_252:\n        /* \"#utility.yul\":2174:2384   */\n      swap3\n      swap2\n      pop\n      pop\n      jump\t// out\n        /* \"#utility.yul\":2390:2512   */\n    tag_193:\n        /* \"#utility.yul\":2463:2487   */\n      tag_254\n        /* \"#utility.yul\":2481:2486   */\n      dup2\n        /* \"#utility.yul\":2463:2487   */\n      tag_184\n      jump\t// in\n    tag_254:\n        /* \"#utility.yul\":2456:2461   */\n      dup2\n        /* \"#utility.yul\":2453:2488   */\n      eq\n        /* \"#utility.yul\":2443:2506   */\n      tag_255\n      jumpi\n        /* \"#utility.yul\":2502:2503   */\n      0x00\n        /* \"#utility.yul\":2499:2500   */\n      0x00\n        /* \"#utility.yul\":2492:2504   */\n      revert\n        /* \"#utility.yul\":2443:2506   */\n    tag_255:\n        /* \"#utility.yul\":2390:2512   */\n      pop\n      jump\t// out\n        /* \"#utility.yul\":2518:2657   */\n    tag_194:\n        /* \"#utility.yul\":2564:2569   */\n      0x00\n        /* \"#utility.yul\":2602:2608   */\n      dup2\n        /* \"#utility.yul\":2589:2609   */\n      calldataload\n        /* \"#utility.yul\":2580:2609   */\n      swap1\n      pop\n        /* \"#utility.yul\":2618:2651   */\n      tag_257\n        /* \"#utility.yul\":2645:2650   */\n      dup2\n        /* \"#utility.yul\":2618:2651   */\n      tag_193\n      jump\t// in\n    tag_257:\n        /* \"#utility.yul\":2518:2657   */\n      swap3\n      swap2\n      pop\n      pop\n      jump\t// out\n        /* \"#utility.yul\":2663:2992   */\n    tag_58:\n        /* \"#utility.yul\":2722:2728   */\n      0x00\n        /* \"#utility.yul\":2771:2773   */\n      0x20\n        /* \"#utility.yul\":2759:2768   */\n      dup3\n        /* \"#utility.yul\":2750:2757   */\n      dup5\n        /* \"#utility.yul\":2746:2769   */\n      sub\n        /* \"#utility.yul\":2742:2774   */\n      slt\n        /* \"#utility.yul\":2739:2858   */\n      iszero\n      tag_259\n      jumpi\n        /* \"#utility.yul\":2777:2856   */\n      tag_260\n      tag_187\n      jump\t// in\n    tag_260:\n        /* \"#utility.yul\":2739:2858   */\n    tag_259:\n        /* \"#utility.yul\":2897:2898   */\n      0x00\n        /* \"#utility.yul\":2922:2975   */\n      tag_261\n        /* \"#utility.yul\":2967:2974   */\n      dup5\n        /* \"#utility.yul\":2958:2964   */\n      dup3\n        /* \"#utility.yul\":2947:2956   */\n      dup6\n        /* \"#utility.yul\":2943:2965   */\n      add\n        /* \"#utility.yul\":2922:2975   */\n      tag_194\n      jump\t// in\n    tag_261:\n        /* \"#utility.yul\":2912:2975   */\n      swap2\n      pop\n        /* \"#utility.yul\":2868:2985   */\n      pop\n        /* \"#utility.yul\":2663:2992   */\n      swap3\n      swap2\n      pop\n      pop\n      jump\t// out\n        /* \"#utility.yul\":2998:3141   */\n    tag_195:\n        /* \"#utility.yul\":3055:3060   */\n      0x00\n        /* \"#utility.yul\":3086:3092   */\n      dup2\n        /* \"#utility.yul\":3080:3093   */\n      mload\n        /* \"#utility.yul\":3071:3093   */\n      swap1\n      pop\n        /* \"#utility.yul\":3102:3135   */\n      tag_263\n        /* \"#utility.yul\":3129:3134   */\n      dup2\n        /* \"#utility.yul\":3102:3135   */\n      tag_189\n      jump\t// in\n    tag_263:\n        /* \"#utility.yul\":2998:3141   */\n      swap3\n      swap2\n      pop\n      pop\n      jump\t// out\n        /* \"#utility.yul\":3147:3498   */\n    tag_68:\n        /* \"#utility.yul\":3217:3223   */\n      0x00\n        /* \"#utility.yul\":3266:3268   */\n      0x20\n        /* \"#utility.yul\":3254:3263   */\n      dup3\n        /* \"#utility.yul\":3245:3252   */\n      dup5\n        /* \"#utility.yul\":3241:3264   */\n      sub\n        /* \"#utility.yul\":3237:3269   */\n      slt\n        /* \"#utility.yul\":3234:3353   */\n      iszero\n      tag_265\n      jumpi\n        /* \"#utility.yul\":3272:3351   */\n      tag_266\n      tag_187\n      jump\t// in\n    tag_266:\n        /* \"#utility.yul\":3234:3353   */\n    tag_265:\n        /* \"#utility.yul\":3392:3393   */\n      0x00\n        /* \"#utility.yul\":3417:3481   */\n      tag_267\n        /* \"#utility.yul\":3473:3480   */\n      dup5\n        /* \"#utility.yul\":3464:3470   */\n      dup3\n        /* \"#utility.yul\":3453:3462   */\n      dup6\n        /* \"#utility.yul\":3449:3471   */\n      add\n        /* \"#utility.yul\":3417:3481   */\n      tag_195\n      jump\t// in\n    tag_267:\n        /* \"#utility.yul\":3407:3481   */\n      swap2\n      pop\n        /* \"#utility.yul\":3363:3491   */\n      pop\n        /* \"#utility.yul\":3147:3498   */\n      swap3\n      swap2\n      pop\n      pop\n      jump\t// out\n        /* \"#utility.yul\":3504:3673   */\n    tag_196:\n        /* \"#utility.yul\":3588:3599   */\n      0x00\n        /* \"#utility.yul\":3622:3628   */\n      dup3\n        /* \"#utility.yul\":3617:3620   */\n      dup3\n        /* \"#utility.yul\":3610:3629   */\n      mstore\n        /* \"#utility.yul\":3662:3666   */\n      0x20\n        /* \"#utility.yul\":3657:3660   */\n      dup3\n        /* \"#utility.yul\":3653:3667   */\n      add\n        /* \"#utility.yul\":3638:3667   */\n      swap1\n      pop\n        /* \"#utility.yul\":3504:3673   */\n      swap3\n      swap2\n      pop\n      pop\n      jump\t// out\n        /* \"#utility.yul\":3679:3843   */\n    tag_197:\n        /* \"#utility.yul\":3819:3835   */\n      0x4e6f7420617574686f72697a6564000000000000000000000000000000000000\n        /* \"#utility.yul\":3815:3816   */\n      0x00\n        /* \"#utility.yul\":3807:3813   */\n      dup3\n        /* \"#utility.yul\":3803:3817   */\n      add\n        /* \"#utility.yul\":3796:3836   */\n      mstore\n        /* \"#utility.yul\":3679:3843   */\n      pop\n      jump\t// out\n        /* \"#utility.yul\":3849:4215   */\n    tag_198:\n        /* \"#utility.yul\":3991:3994   */\n      0x00\n        /* \"#utility.yul\":4012:4079   */\n      tag_271\n        /* \"#utility.yul\":4076:4078   */\n      0x0e\n        /* \"#utility.yul\":4071:4074   */\n      dup4\n        /* \"#utility.yul\":4012:4079   */\n      tag_196\n      jump\t// in\n    tag_271:\n        /* \"#utility.yul\":4005:4079   */\n      swap2\n      pop\n        /* \"#utility.yul\":4088:4181   */\n      tag_272\n        /* \"#utility.yul\":4177:4180   */\n      dup3\n        /* \"#utility.yul\":4088:4181   */\n      tag_197\n      jump\t// in\n    tag_272:\n        /* \"#utility.yul\":4206:4208   */\n      0x20\n        /* \"#utility.yul\":4201:4204   */\n      dup3\n        /* \"#utility.yul\":4197:4209   */\n      add\n        /* \"#utility.yul\":4190:4209   */\n      swap1\n      pop\n        /* \"#utility.yul\":3849:4215   */\n      swap2\n      swap1\n      pop\n      jump\t// out\n        /* \"#utility.yul\":4221:4640   */\n    tag_72:\n        /* \"#utility.yul\":4387:4391   */\n      0x00\n        /* \"#utility.yul\":4425:4427   */\n      0x20\n        /* \"#utility.yul\":4414:4423   */\n      dup3\n        /* \"#utility.yul\":4410:4428   */\n      add\n        /* \"#utility.yul\":4402:4428   */\n      swap1\n      pop\n        /* \"#utility.yul\":4474:4483   */\n      dup2\n        /* \"#utility.yul\":4468:4472   */\n      dup2\n        /* \"#utility.yul\":4464:4484   */\n      sub\n        /* \"#utility.yul\":4460:4461   */\n      0x00\n        /* \"#utility.yul\":4449:4458   */\n      dup4\n        /* \"#utility.yul\":4445:4462   */\n      add\n        /* \"#utility.yul\":4438:4485   */\n      mstore\n        /* \"#utility.yul\":4502:4633   */\n      tag_274\n        /* \"#utility.yul\":4628:4632   */\n      dup2\n        /* \"#utility.yul\":4502:4633   */\n      tag_198\n      jump\t// in\n    tag_274:\n        /* \"#utility.yul\":4494:4633   */\n      swap1\n      pop\n        /* \"#utility.yul\":4221:4640   */\n      swap2\n      swap1\n      pop\n      jump\t// out\n        /* \"#utility.yul\":4646:4825   */\n    tag_199:\n        /* \"#utility.yul\":4786:4817   */\n      0x416d6f756e74206d7573742062652067726561746572207468616e2030000000\n        /* \"#utility.yul\":4782:4783   */\n      0x00\n        /* \"#utility.yul\":4774:4780   */\n      dup3\n        /* \"#utility.yul\":4770:4784   */\n      add\n        /* \"#utility.yul\":4763:4818   */\n      mstore\n        /* \"#utility.yul\":4646:4825   */\n      pop\n      jump\t// out\n        /* \"#utility.yul\":4831:5197   */\n    tag_200:\n        /* \"#utility.yul\":4973:4976   */\n      0x00\n        /* \"#utility.yul\":4994:5061   */\n      tag_277\n        /* \"#utility.yul\":5058:5060   */\n      0x1d\n        /* \"#utility.yul\":5053:5056   */\n      dup4\n        /* \"#utility.yul\":4994:5061   */\n      tag_196\n      jump\t// in\n    tag_277:\n        /* \"#utility.yul\":4987:5061   */\n      swap2\n      pop\n        /* \"#utility.yul\":5070:5163   */\n      tag_278\n        /* \"#utility.yul\":5159:5162   */\n      dup3\n        /* \"#utility.yul\":5070:5163   */\n      tag_199\n      jump\t// in\n    tag_278:\n        /* \"#utility.yul\":5188:5190   */\n      0x20\n        /* \"#utility.yul\":5183:5186   */\n      dup3\n        /* \"#utility.yul\":5179:5191   */\n      add\n        /* \"#utility.yul\":5172:5191   */\n      swap1\n      pop\n        /* \"#utility.yul\":4831:5197   */\n      swap2\n      swap1\n      pop\n      jump\t// out\n        /* \"#utility.yul\":5203:5622   */\n    tag_76:\n        /* \"#utility.yul\":5369:5373   */\n      0x00\n        /* \"#utility.yul\":5407:5409   */\n      0x20\n        /* \"#utility.yul\":5396:5405   */\n      dup3\n        /* \"#utility.yul\":5392:5410   */\n      add\n        /* \"#utility.yul\":5384:5410   */\n      swap1\n      pop\n        /* \"#utility.yul\":5456:5465   */\n      dup2\n        /* \"#utility.yul\":5450:5454   */\n      dup2\n        /* \"#utility.yul\":5446:5466   */\n      sub\n        /* \"#utility.yul\":5442:5443   */\n      0x00\n        /* \"#utility.yul\":5431:5440   */\n      dup4\n        /* \"#utility.yul\":5427:5444   */\n      add\n        /* \"#utility.yul\":5420:5467   */\n      mstore\n        /* \"#utility.yul\":5484:5615   */\n      tag_280\n        /* \"#utility.yul\":5610:5614   */\n      dup2\n        /* \"#utility.yul\":5484:5615   */\n      tag_200\n      jump\t// in\n    tag_280:\n        /* \"#utility.yul\":5476:5615   */\n      swap1\n      pop\n        /* \"#utility.yul\":5203:5622   */\n      swap2\n      swap1\n      pop\n      jump\t// out\n        /* \"#utility.yul\":5628:6070   */\n    tag_78:\n        /* \"#utility.yul\":5777:5781   */\n      0x00\n        /* \"#utility.yul\":5815:5817   */\n      0x60\n        /* \"#utility.yul\":5804:5813   */\n      dup3\n        /* \"#utility.yul\":5800:5818   */\n      add\n        /* \"#utility.yul\":5792:5818   */\n      swap1\n      pop\n        /* \"#utility.yul\":5828:5899   */\n      tag_282\n        /* \"#utility.yul\":5896:5897   */\n      0x00\n        /* \"#utility.yul\":5885:5894   */\n      dup4\n        /* \"#utility.yul\":5881:5898   */\n      add\n        /* \"#utility.yul\":5872:5878   */\n      dup7\n        /* \"#utility.yul\":5828:5899   */\n      tag_185\n      jump\t// in\n    tag_282:\n        /* \"#utility.yul\":5909:5981   */\n      tag_283\n        /* \"#utility.yul\":5977:5979   */\n      0x20\n        /* \"#utility.yul\":5966:5975   */\n      dup4\n        /* \"#utility.yul\":5962:5980   */\n      add\n        /* \"#utility.yul\":5953:5959   */\n      dup6\n        /* \"#utility.yul\":5909:5981   */\n      tag_185\n      jump\t// in\n    tag_283:\n        /* \"#utility.yul\":5991:6063   */\n      tag_284\n        /* \"#utility.yul\":6059:6061   */\n      0x40\n        /* \"#utility.yul\":6048:6057   */\n      dup4\n        /* \"#utility.yul\":6044:6062   */\n      add\n        /* \"#utility.yul\":6035:6041   */\n      dup5\n        /* \"#utility.yul\":5991:6063   */\n      tag_182\n      jump\t// in\n    tag_284:\n        /* \"#utility.yul\":5628:6070   */\n      swap5\n      swap4\n      pop\n      pop\n      pop\n      pop\n      jump\t// out\n        /* \"#utility.yul\":6076:6192   */\n    tag_201:\n        /* \"#utility.yul\":6146:6167   */\n      tag_286\n        /* \"#utility.yul\":6161:6166   */\n      dup2\n        /* \"#utility.yul\":6146:6167   */\n      tag_191\n      jump\t// in\n    tag_286:\n        /* \"#utility.yul\":6139:6144   */\n      dup2\n        /* \"#utility.yul\":6136:6168   */\n      eq\n        /* \"#utility.yul\":6126:6186   */\n      tag_287\n      jumpi\n        /* \"#utility.yul\":6182:6183   */\n      0x00\n        /* \"#utility.yul\":6179:6180   */\n      0x00\n        /* \"#utility.yul\":6172:6184   */\n      revert\n        /* \"#utility.yul\":6126:6186   */\n    tag_287:\n        /* \"#utility.yul\":6076:6192   */\n      pop\n      jump\t// out\n        /* \"#utility.yul\":6198:6335   */\n    tag_202:\n        /* \"#utility.yul\":6252:6257   */\n      0x00\n        /* \"#utility.yul\":6283:6289   */\n      dup2\n        /* \"#utility.yul\":6277:6290   */\n      mload\n        /* \"#utility.yul\":6268:6290   */\n      swap1\n      pop\n        /* \"#utility.yul\":6299:6329   */\n      tag_289\n        /* \"#utility.yul\":6323:6328   */\n      dup2\n        /* \"#utility.yul\":6299:6329   */\n      tag_201\n      jump\t// in\n    tag_289:\n        /* \"#utility.yul\":6198:6335   */\n      swap3\n      swap2\n      pop\n      pop\n      jump\t// out\n        /* \"#utility.yul\":6341:6686   */\n    tag_82:\n        /* \"#utility.yul\":6408:6414   */\n      0x00\n        /* \"#utility.yul\":6457:6459   */\n      0x20\n        /* \"#utility.yul\":6445:6454   */\n      dup3\n        /* \"#utility.yul\":6436:6443   */\n      dup5\n        /* \"#utility.yul\":6432:6455   */\n      sub\n        /* \"#utility.yul\":6428:6460   */\n      slt\n        /* \"#utility.yul\":6425:6544   */\n      iszero\n      tag_291\n      jumpi\n        /* \"#utility.yul\":6463:6542   */\n      tag_292\n      tag_187\n      jump\t// in\n    tag_292:\n        /* \"#utility.yul\":6425:6544   */\n    tag_291:\n        /* \"#utility.yul\":6583:6584   */\n      0x00\n        /* \"#utility.yul\":6608:6669   */\n      tag_293\n        /* \"#utility.yul\":6661:6668   */\n      dup5\n        /* \"#utility.yul\":6652:6658   */\n      dup3\n        /* \"#utility.yul\":6641:6650   */\n      dup6\n        /* \"#utility.yul\":6637:6659   */\n      add\n        /* \"#utility.yul\":6608:6669   */\n      tag_202\n      jump\t// in\n    tag_293:\n        /* \"#utility.yul\":6598:6669   */\n      swap2\n      pop\n        /* \"#utility.yul\":6554:6679   */\n      pop\n        /* \"#utility.yul\":6341:6686   */\n      swap3\n      swap2\n      pop\n      pop\n      jump\t// out\n        /* \"#utility.yul\":6692:6861   */\n    tag_203:\n        /* \"#utility.yul\":6832:6853   */\n      0x57455448206465706f736974206661696c656400000000000000000000000000\n        /* \"#utility.yul\":6828:6829   */\n      0x00\n        /* \"#utility.yul\":6820:6826   */\n      dup3\n        /* \"#utility.yul\":6816:6830   */\n      add\n        /* \"#utility.yul\":6809:6854   */\n      mstore\n        /* \"#utility.yul\":6692:6861   */\n      pop\n      jump\t// out\n        /* \"#utility.yul\":6867:7233   */\n    tag_204:\n        /* \"#utility.yul\":7009:7012   */\n      0x00\n        /* \"#utility.yul\":7030:7097   */\n      tag_296\n        /* \"#utility.yul\":7094:7096   */\n      0x13\n        /* \"#utility.yul\":7089:7092   */\n      dup4\n        /* \"#utility.yul\":7030:7097   */\n      tag_196\n      jump\t// in\n    tag_296:\n        /* \"#utility.yul\":7023:7097   */\n      swap2\n      pop\n        /* \"#utility.yul\":7106:7199   */\n      tag_297\n        /* \"#utility.yul\":7195:7198   */\n      dup3\n        /* \"#utility.yul\":7106:7199   */\n      tag_203\n      jump\t// in\n    tag_297:\n        /* \"#utility.yul\":7224:7226   */\n      0x20\n        /* \"#utility.yul\":7219:7222   */\n      dup3\n        /* \"#utility.yul\":7215:7227   */\n      add\n        /* \"#utility.yul\":7208:7227   */\n      swap1\n      pop\n        /* \"#utility.yul\":6867:7233   */\n      swap2\n      swap1\n      pop\n      jump\t// out\n        /* \"#utility.yul\":7239:7658   */\n    tag_85:\n        /* \"#utility.yul\":7405:7409   */\n      0x00\n        /* \"#utility.yul\":7443:7445   */\n      0x20\n        /* \"#utility.yul\":7432:7441   */\n      dup3\n        /* \"#utility.yul\":7428:7446   */\n      add\n        /* \"#utility.yul\":7420:7446   */\n      swap1\n      pop\n        /* \"#utility.yul\":7492:7501   */\n      dup2\n        /* \"#utility.yul\":7486:7490   */\n      dup2\n        /* \"#utility.yul\":7482:7502   */\n      sub\n        /* \"#utility.yul\":7478:7479   */\n      0x00\n        /* \"#utility.yul\":7467:7476   */\n      dup4\n        /* \"#utility.yul\":7463:7480   */\n      add\n        /* \"#utility.yul\":7456:7503   */\n      mstore\n        /* \"#utility.yul\":7520:7651   */\n      tag_299\n        /* \"#utility.yul\":7646:7650   */\n      dup2\n        /* \"#utility.yul\":7520:7651   */\n      tag_204\n      jump\t// in\n    tag_299:\n        /* \"#utility.yul\":7512:7651   */\n      swap1\n      pop\n        /* \"#utility.yul\":7239:7658   */\n      swap2\n      swap1\n      pop\n      jump\t// out\n        /* \"#utility.yul\":7664:7833   */\n    tag_205:\n        /* \"#utility.yul\":7804:7825   */\n      0x4d757374206465706f736974206d6c414d504c00000000000000000000000000\n        /* \"#utility.yul\":7800:7801   */\n      0x00\n        /* \"#utility.yul\":7792:7798   */\n      dup3\n        /* \"#utility.yul\":7788:7802   */\n      add\n        /* \"#utility.yul\":7781:7826   */\n      mstore\n        /* \"#utility.yul\":7664:7833   */\n      pop\n      jump\t// out\n        /* \"#utility.yul\":7839:8205   */\n    tag_206:\n        /* \"#utility.yul\":7981:7984   */\n      0x00\n        /* \"#utility.yul\":8002:8069   */\n      tag_302\n        /* \"#utility.yul\":8066:8068   */\n      0x13\n        /* \"#utility.yul\":8061:8064   */\n      dup4\n        /* \"#utility.yul\":8002:8069   */\n      tag_196\n      jump\t// in\n    tag_302:\n        /* \"#utility.yul\":7995:8069   */\n      swap2\n      pop\n        /* \"#utility.yul\":8078:8171   */\n      tag_303\n        /* \"#utility.yul\":8167:8170   */\n      dup3\n        /* \"#utility.yul\":8078:8171   */\n      tag_205\n      jump\t// in\n    tag_303:\n        /* \"#utility.yul\":8196:8198   */\n      0x20\n        /* \"#utility.yul\":8191:8194   */\n      dup3\n        /* \"#utility.yul\":8187:8199   */\n      add\n        /* \"#utility.yul\":8180:8199   */\n      swap1\n      pop\n        /* \"#utility.yul\":7839:8205   */\n      swap2\n      swap1\n      pop\n      jump\t// out\n        /* \"#utility.yul\":8211:8630   */\n    tag_93:\n        /* \"#utility.yul\":8377:8381   */\n      0x00\n        /* \"#utility.yul\":8415:8417   */\n      0x20\n        /* \"#utility.yul\":8404:8413   */\n      dup3\n        /* \"#utility.yul\":8400:8418   */\n      add\n        /* \"#utility.yul\":8392:8418   */\n      swap1\n      pop\n        /* \"#utility.yul\":8464:8473   */\n      dup2\n        /* \"#utility.yul\":8458:8462   */\n      dup2\n        /* \"#utility.yul\":8454:8474   */\n      sub\n        /* \"#utility.yul\":8450:8451   */\n      0x00\n        /* \"#utility.yul\":8439:8448   */\n      dup4\n        /* \"#utility.yul\":8435:8452   */\n      add\n        /* \"#utility.yul\":8428:8475   */\n      mstore\n        /* \"#utility.yul\":8492:8623   */\n      tag_305\n        /* \"#utility.yul\":8618:8622   */\n      dup2\n        /* \"#utility.yul\":8492:8623   */\n      tag_206\n      jump\t// in\n    tag_305:\n        /* \"#utility.yul\":8484:8623   */\n      swap1\n      pop\n        /* \"#utility.yul\":8211:8630   */\n      swap2\n      swap1\n      pop\n      jump\t// out\n        /* \"#utility.yul\":8636:8968   */\n    tag_95:\n        /* \"#utility.yul\":8757:8761   */\n      0x00\n        /* \"#utility.yul\":8795:8797   */\n      0x40\n        /* \"#utility.yul\":8784:8793   */\n      dup3\n        /* \"#utility.yul\":8780:8798   */\n      add\n        /* \"#utility.yul\":8772:8798   */\n      swap1\n      pop\n        /* \"#utility.yul\":8808:8879   */\n      tag_307\n        /* \"#utility.yul\":8876:8877   */\n      0x00\n        /* \"#utility.yul\":8865:8874   */\n      dup4\n        /* \"#utility.yul\":8861:8878   */\n      add\n        /* \"#utility.yul\":8852:8858   */\n      dup6\n        /* \"#utility.yul\":8808:8879   */\n      tag_185\n      jump\t// in\n    tag_307:\n        /* \"#utility.yul\":8889:8961   */\n      tag_308\n        /* \"#utility.yul\":8957:8959   */\n      0x20\n        /* \"#utility.yul\":8946:8955   */\n      dup4\n        /* \"#utility.yul\":8942:8960   */\n      add\n        /* \"#utility.yul\":8933:8939   */\n      dup5\n        /* \"#utility.yul\":8889:8961   */\n      tag_185\n      jump\t// in\n    tag_308:\n        /* \"#utility.yul\":8636:8968   */\n      swap4\n      swap3\n      pop\n      pop\n      pop\n      jump\t// out\n        /* \"#utility.yul\":8974:9148   */\n    tag_207:\n        /* \"#utility.yul\":9114:9140   */\n      0x416c6c6f77616e6365206e6f742073756666696369656e740000000000000000\n        /* \"#utility.yul\":9110:9111   */\n      0x00\n        /* \"#utility.yul\":9102:9108   */\n      dup3\n        /* \"#utility.yul\":9098:9112   */\n      add\n        /* \"#utility.yul\":9091:9141   */\n      mstore\n        /* \"#utility.yul\":8974:9148   */\n      pop\n      jump\t// out\n        /* \"#utility.yul\":9154:9520   */\n    tag_208:\n        /* \"#utility.yul\":9296:9299   */\n      0x00\n        /* \"#utility.yul\":9317:9384   */\n      tag_311\n        /* \"#utility.yul\":9381:9383   */\n      0x18\n        /* \"#utility.yul\":9376:9379   */\n      dup4\n        /* \"#utility.yul\":9317:9384   */\n      tag_196\n      jump\t// in\n    tag_311:\n        /* \"#utility.yul\":9310:9384   */\n      swap2\n      pop\n        /* \"#utility.yul\":9393:9486   */\n      tag_312\n        /* \"#utility.yul\":9482:9485   */\n      dup3\n        /* \"#utility.yul\":9393:9486   */\n      tag_207\n      jump\t// in\n    tag_312:\n        /* \"#utility.yul\":9511:9513   */\n      0x20\n        /* \"#utility.yul\":9506:9509   */\n      dup3\n        /* \"#utility.yul\":9502:9514   */\n      add\n        /* \"#utility.yul\":9495:9514   */\n      swap1\n      pop\n        /* \"#utility.yul\":9154:9520   */\n      swap2\n      swap1\n      pop\n      jump\t// out\n        /* \"#utility.yul\":9526:9945   */\n    tag_101:\n        /* \"#utility.yul\":9692:9696   */\n      0x00\n        /* \"#utility.yul\":9730:9732   */\n      0x20\n        /* \"#utility.yul\":9719:9728   */\n      dup3\n        /* \"#utility.yul\":9715:9733   */\n      add\n        /* \"#utility.yul\":9707:9733   */\n      swap1\n      pop\n        /* \"#utility.yul\":9779:9788   */\n      dup2\n        /* \"#utility.yul\":9773:9777   */\n      dup2\n        /* \"#utility.yul\":9769:9789   */\n      sub\n        /* \"#utility.yul\":9765:9766   */\n      0x00\n        /* \"#utility.yul\":9754:9763   */\n      dup4\n        /* \"#utility.yul\":9750:9767   */\n      add\n        /* \"#utility.yul\":9743:9790   */\n      mstore\n        /* \"#utility.yul\":9807:9938   */\n      tag_314\n        /* \"#utility.yul\":9933:9937   */\n      dup2\n        /* \"#utility.yul\":9807:9938   */\n      tag_208\n      jump\t// in\n    tag_314:\n        /* \"#utility.yul\":9799:9938   */\n      swap1\n      pop\n        /* \"#utility.yul\":9526:9945   */\n      swap2\n      swap1\n      pop\n      jump\t// out\n        /* \"#utility.yul\":9951:10116   */\n    tag_209:\n        /* \"#utility.yul\":10091:10108   */\n      0x5472616e73666572206661696c65640000000000000000000000000000000000\n        /* \"#utility.yul\":10087:10088   */\n      0x00\n        /* \"#utility.yul\":10079:10085   */\n      dup3\n        /* \"#utility.yul\":10075:10089   */\n      add\n        /* \"#utility.yul\":10068:10109   */\n      mstore\n        /* \"#utility.yul\":9951:10116   */\n      pop\n      jump\t// out\n        /* \"#utility.yul\":10122:10488   */\n    tag_210:\n        /* \"#utility.yul\":10264:10267   */\n      0x00\n        /* \"#utility.yul\":10285:10352   */\n      tag_317\n        /* \"#utility.yul\":10349:10351   */\n      0x0f\n        /* \"#utility.yul\":10344:10347   */\n      dup4\n        /* \"#utility.yul\":10285:10352   */\n      tag_196\n      jump\t// in\n    tag_317:\n        /* \"#utility.yul\":10278:10352   */\n      swap2\n      pop\n        /* \"#utility.yul\":10361:10454   */\n      tag_318\n        /* \"#utility.yul\":10450:10453   */\n      dup3\n        /* \"#utility.yul\":10361:10454   */\n      tag_209\n      jump\t// in\n    tag_318:\n        /* \"#utility.yul\":10479:10481   */\n      0x20\n        /* \"#utility.yul\":10474:10477   */\n      dup3\n        /* \"#utility.yul\":10470:10482   */\n      add\n        /* \"#utility.yul\":10463:10482   */\n      swap1\n      pop\n        /* \"#utility.yul\":10122:10488   */\n      swap2\n      swap1\n      pop\n      jump\t// out\n        /* \"#utility.yul\":10494:10913   */\n    tag_108:\n        /* \"#utility.yul\":10660:10664   */\n      0x00\n        /* \"#utility.yul\":10698:10700   */\n      0x20\n        /* \"#utility.yul\":10687:10696   */\n      dup3\n        /* \"#utility.yul\":10683:10701   */\n      add\n        /* \"#utility.yul\":10675:10701   */\n      swap1\n      pop\n        /* \"#utility.yul\":10747:10756   */\n      dup2\n        /* \"#utility.yul\":10741:10745   */\n      dup2\n        /* \"#utility.yul\":10737:10757   */\n      sub\n        /* \"#utility.yul\":10733:10734   */\n      0x00\n        /* \"#utility.yul\":10722:10731   */\n      dup4\n        /* \"#utility.yul\":10718:10735   */\n      add\n        /* \"#utility.yul\":10711:10758   */\n      mstore\n        /* \"#utility.yul\":10775:10906   */\n      tag_320\n        /* \"#utility.yul\":10901:10905   */\n      dup2\n        /* \"#utility.yul\":10775:10906   */\n      tag_210\n      jump\t// in\n    tag_320:\n        /* \"#utility.yul\":10767:10906   */\n      swap1\n      pop\n        /* \"#utility.yul\":10494:10913   */\n      swap2\n      swap1\n      pop\n      jump\t// out\n        /* \"#utility.yul\":10919:11099   */\n    tag_211:\n        /* \"#utility.yul\":10967:11044   */\n      0x4e487b7100000000000000000000000000000000000000000000000000000000\n        /* \"#utility.yul\":10964:10965   */\n      0x00\n        /* \"#utility.yul\":10957:11045   */\n      mstore\n        /* \"#utility.yul\":11064:11068   */\n      0x11\n        /* \"#utility.yul\":11061:11062   */\n      0x04\n        /* \"#utility.yul\":11054:11069   */\n      mstore\n        /* \"#utility.yul\":11088:11092   */\n      0x24\n        /* \"#utility.yul\":11085:11086   */\n      0x00\n        /* \"#utility.yul\":11078:11093   */\n      revert\n        /* \"#utility.yul\":11105:11299   */\n    tag_110:\n        /* \"#utility.yul\":11145:11149   */\n      0x00\n        /* \"#utility.yul\":11165:11185   */\n      tag_323\n        /* \"#utility.yul\":11183:11184   */\n      dup3\n        /* \"#utility.yul\":11165:11185   */\n      tag_181\n      jump\t// in\n    tag_323:\n        /* \"#utility.yul\":11160:11185   */\n      swap2\n      pop\n        /* \"#utility.yul\":11199:11219   */\n      tag_324\n        /* \"#utility.yul\":11217:11218   */\n      dup4\n        /* \"#utility.yul\":11199:11219   */\n      tag_181\n      jump\t// in\n    tag_324:\n        /* \"#utility.yul\":11194:11219   */\n      swap3\n      pop\n        /* \"#utility.yul\":11243:11244   */\n      dup3\n        /* \"#utility.yul\":11240:11241   */\n      dup3\n        /* \"#utility.yul\":11236:11245   */\n      sub\n        /* \"#utility.yul\":11228:11245   */\n      swap1\n      pop\n        /* \"#utility.yul\":11267:11268   */\n      dup2\n        /* \"#utility.yul\":11261:11265   */\n      dup2\n        /* \"#utility.yul\":11258:11269   */\n      gt\n        /* \"#utility.yul\":11255:11292   */\n      iszero\n      tag_325\n      jumpi\n        /* \"#utility.yul\":11272:11290   */\n      tag_326\n      tag_211\n      jump\t// in\n    tag_326:\n        /* \"#utility.yul\":11255:11292   */\n    tag_325:\n        /* \"#utility.yul\":11105:11299   */\n      swap3\n      swap2\n      pop\n      pop\n      jump\t// out\n        /* \"#utility.yul\":11305:11715   */\n    tag_112:\n        /* \"#utility.yul\":11345:11352   */\n      0x00\n        /* \"#utility.yul\":11368:11388   */\n      tag_328\n        /* \"#utility.yul\":11386:11387   */\n      dup3\n        /* \"#utility.yul\":11368:11388   */\n      tag_181\n      jump\t// in\n    tag_328:\n        /* \"#utility.yul\":11363:11388   */\n      swap2\n      pop\n        /* \"#utility.yul\":11402:11422   */\n      tag_329\n        /* \"#utility.yul\":11420:11421   */\n      dup4\n        /* \"#utility.yul\":11402:11422   */\n      tag_181\n      jump\t// in\n    tag_329:\n        /* \"#utility.yul\":11397:11422   */\n      swap3\n      pop\n        /* \"#utility.yul\":11457:11458   */\n      dup3\n        /* \"#utility.yul\":11454:11455   */\n      dup3\n        /* \"#utility.yul\":11450:11459   */\n      mul\n        /* \"#utility.yul\":11479:11509   */\n      tag_330\n        /* \"#utility.yul\":11497:11508   */\n      dup2\n        /* \"#utility.yul\":11479:11509   */\n      tag_181\n      jump\t// in\n    tag_330:\n        /* \"#utility.yul\":11468:11509   */\n      swap2\n      pop\n        /* \"#utility.yul\":11658:11659   */\n      dup3\n        /* \"#utility.yul\":11649:11656   */\n      dup3\n        /* \"#utility.yul\":11645:11660   */\n      div\n        /* \"#utility.yul\":11642:11643   */\n      dup5\n        /* \"#utility.yul\":11639:11661   */\n      eq\n        /* \"#utility.yul\":11619:11620   */\n      dup4\n        /* \"#utility.yul\":11612:11621   */\n      iszero\n        /* \"#utility.yul\":11592:11675   */\n      or\n        /* \"#utility.yul\":11569:11708   */\n      tag_331\n      jumpi\n        /* \"#utility.yul\":11688:11706   */\n      tag_332\n      tag_211\n      jump\t// in\n    tag_332:\n        /* \"#utility.yul\":11569:11708   */\n    tag_331:\n        /* \"#utility.yul\":11353:11715   */\n      pop\n        /* \"#utility.yul\":11305:11715   */\n      swap3\n      swap2\n      pop\n      pop\n      jump\t// out\n        /* \"#utility.yul\":11721:11901   */\n    tag_212:\n        /* \"#utility.yul\":11769:11846   */\n      0x4e487b7100000000000000000000000000000000000000000000000000000000\n        /* \"#utility.yul\":11766:11767   */\n      0x00\n        /* \"#utility.yul\":11759:11847   */\n      mstore\n        /* \"#utility.yul\":11866:11870   */\n      0x12\n        /* \"#utility.yul\":11863:11864   */\n      0x04\n        /* \"#utility.yul\":11856:11871   */\n      mstore\n        /* \"#utility.yul\":11890:11894   */\n      0x24\n        /* \"#utility.yul\":11887:11888   */\n      0x00\n        /* \"#utility.yul\":11880:11895   */\n      revert\n        /* \"#utility.yul\":11907:12092   */\n    tag_114:\n        /* \"#utility.yul\":11947:11948   */\n      0x00\n        /* \"#utility.yul\":11964:11984   */\n      tag_335\n        /* \"#utility.yul\":11982:11983   */\n      dup3\n        /* \"#utility.yul\":11964:11984   */\n      tag_181\n      jump\t// in\n    tag_335:\n        /* \"#utility.yul\":11959:11984   */\n      swap2\n      pop\n        /* \"#utility.yul\":11998:12018   */\n      tag_336\n        /* \"#utility.yul\":12016:12017   */\n      dup4\n        /* \"#utility.yul\":11998:12018   */\n      tag_181\n      jump\t// in\n    tag_336:\n        /* \"#utility.yul\":11993:12018   */\n      swap3\n      pop\n        /* \"#utility.yul\":12037:12038   */\n      dup3\n        /* \"#utility.yul\":12027:12062   */\n      tag_337\n      jumpi\n        /* \"#utility.yul\":12042:12060   */\n      tag_338\n      tag_212\n      jump\t// in\n    tag_338:\n        /* \"#utility.yul\":12027:12062   */\n    tag_337:\n        /* \"#utility.yul\":12084:12085   */\n      dup3\n        /* \"#utility.yul\":12081:12082   */\n      dup3\n        /* \"#utility.yul\":12077:12086   */\n      div\n        /* \"#utility.yul\":12072:12086   */\n      swap1\n      pop\n        /* \"#utility.yul\":11907:12092   */\n      swap3\n      swap2\n      pop\n      pop\n      jump\t// out\n        /* \"#utility.yul\":12098:12275   */\n    tag_213:\n        /* \"#utility.yul\":12238:12267   */\n      0x4e6f7420656e6f756768205745544820696e20636f6e74726163740000000000\n        /* \"#utility.yul\":12234:12235   */\n      0x00\n        /* \"#utility.yul\":12226:12232   */\n      dup3\n        /* \"#utility.yul\":12222:12236   */\n      add\n        /* \"#utility.yul\":12215:12268   */\n      mstore\n        /* \"#utility.yul\":12098:12275   */\n      pop\n      jump\t// out\n        /* \"#utility.yul\":12281:12647   */\n    tag_214:\n        /* \"#utility.yul\":12423:12426   */\n      0x00\n        /* \"#utility.yul\":12444:12511   */\n      tag_341\n        /* \"#utility.yul\":12508:12510   */\n      0x1b\n        /* \"#utility.yul\":12503:12506   */\n      dup4\n        /* \"#utility.yul\":12444:12511   */\n      tag_196\n      jump\t// in\n    tag_341:\n        /* \"#utility.yul\":12437:12511   */\n      swap2\n      pop\n        /* \"#utility.yul\":12520:12613   */\n      tag_342\n        /* \"#utility.yul\":12609:12612   */\n      dup3\n        /* \"#utility.yul\":12520:12613   */\n      tag_213\n      jump\t// in\n    tag_342:\n        /* \"#utility.yul\":12638:12640   */\n      0x20\n        /* \"#utility.yul\":12633:12636   */\n      dup3\n        /* \"#utility.yul\":12629:12641   */\n      add\n        /* \"#utility.yul\":12622:12641   */\n      swap1\n      pop\n        /* \"#utility.yul\":12281:12647   */\n      swap2\n      swap1\n      pop\n      jump\t// out\n        /* \"#utility.yul\":12653:13072   */\n    tag_123:\n        /* \"#utility.yul\":12819:12823   */\n      0x00\n        /* \"#utility.yul\":12857:12859   */\n      0x20\n        /* \"#utility.yul\":12846:12855   */\n      dup3\n        /* \"#utility.yul\":12842:12860   */\n      add\n        /* \"#utility.yul\":12834:12860   */\n      swap1\n      pop\n        /* \"#utility.yul\":12906:12915   */\n      dup2\n        /* \"#utility.yul\":12900:12904   */\n      dup2\n        /* \"#utility.yul\":12896:12916   */\n      sub\n        /* \"#utility.yul\":12892:12893   */\n      0x00\n        /* \"#utility.yul\":12881:12890   */\n      dup4\n        /* \"#utility.yul\":12877:12894   */\n      add\n        /* \"#utility.yul\":12870:12917   */\n      mstore\n        /* \"#utility.yul\":12934:13065   */\n      tag_344\n        /* \"#utility.yul\":13060:13064   */\n      dup2\n        /* \"#utility.yul\":12934:13065   */\n      tag_214\n      jump\t// in\n    tag_344:\n        /* \"#utility.yul\":12926:13065   */\n      swap1\n      pop\n        /* \"#utility.yul\":12653:13072   */\n      swap2\n      swap1\n      pop\n      jump\t// out\n        /* \"#utility.yul\":13078:13410   */\n    tag_125:\n        /* \"#utility.yul\":13199:13203   */\n      0x00\n        /* \"#utility.yul\":13237:13239   */\n      0x40\n        /* \"#utility.yul\":13226:13235   */\n      dup3\n        /* \"#utility.yul\":13222:13240   */\n      add\n        /* \"#utility.yul\":13214:13240   */\n      swap1\n      pop\n        /* \"#utility.yul\":13250:13321   */\n      tag_346\n        /* \"#utility.yul\":13318:13319   */\n      0x00\n        /* \"#utility.yul\":13307:13316   */\n      dup4\n        /* \"#utility.yul\":13303:13320   */\n      add\n        /* \"#utility.yul\":13294:13300   */\n      dup6\n        /* \"#utility.yul\":13250:13321   */\n      tag_185\n      jump\t// in\n    tag_346:\n        /* \"#utility.yul\":13331:13403   */\n      tag_347\n        /* \"#utility.yul\":13399:13401   */\n      0x20\n        /* \"#utility.yul\":13388:13397   */\n      dup4\n        /* \"#utility.yul\":13384:13402   */\n      add\n        /* \"#utility.yul\":13375:13381   */\n      dup5\n        /* \"#utility.yul\":13331:13403   */\n      tag_182\n      jump\t// in\n    tag_347:\n        /* \"#utility.yul\":13078:13410   */\n      swap4\n      swap3\n      pop\n      pop\n      pop\n      jump\t// out\n        /* \"#utility.yul\":13416:13586   */\n    tag_215:\n        /* \"#utility.yul\":13556:13578   */\n      0x57455448207472616e73666572206661696c6564000000000000000000000000\n        /* \"#utility.yul\":13552:13553   */\n      0x00\n        /* \"#utility.yul\":13544:13550   */\n      dup3\n        /* \"#utility.yul\":13540:13554   */\n      add\n        /* \"#utility.yul\":13533:13579   */\n      mstore\n        /* \"#utility.yul\":13416:13586   */\n      pop\n      jump\t// out\n        /* \"#utility.yul\":13592:13958   */\n    tag_216:\n        /* \"#utility.yul\":13734:13737   */\n      0x00\n        /* \"#utility.yul\":13755:13822   */\n      tag_350\n        /* \"#utility.yul\":13819:13821   */\n      0x14\n        /* \"#utility.yul\":13814:13817   */\n      dup4\n        /* \"#utility.yul\":13755:13822   */\n      tag_196\n      jump\t// in\n    tag_350:\n        /* \"#utility.yul\":13748:13822   */\n      swap2\n      pop\n        /* \"#utility.yul\":13831:13924   */\n      tag_351\n        /* \"#utility.yul\":13920:13923   */\n      dup3\n        /* \"#utility.yul\":13831:13924   */\n      tag_215\n      jump\t// in\n    tag_351:\n        /* \"#utility.yul\":13949:13951   */\n      0x20\n        /* \"#utility.yul\":13944:13947   */\n      dup3\n        /* \"#utility.yul\":13940:13952   */\n      add\n        /* \"#utility.yul\":13933:13952   */\n      swap1\n      pop\n        /* \"#utility.yul\":13592:13958   */\n      swap2\n      swap1\n      pop\n      jump\t// out\n        /* \"#utility.yul\":13964:14383   */\n    tag_131:\n        /* \"#utility.yul\":14130:14134   */\n      0x00\n        /* \"#utility.yul\":14168:14170   */\n      0x20\n        /* \"#utility.yul\":14157:14166   */\n      dup3\n        /* \"#utility.yul\":14153:14171   */\n      add\n        /* \"#utility.yul\":14145:14171   */\n      swap1\n      pop\n        /* \"#utility.yul\":14217:14226   */\n      dup2\n        /* \"#utility.yul\":14211:14215   */\n      dup2\n        /* \"#utility.yul\":14207:14227   */\n      sub\n        /* \"#utility.yul\":14203:14204   */\n      0x00\n        /* \"#utility.yul\":14192:14201   */\n      dup4\n        /* \"#utility.yul\":14188:14205   */\n      add\n        /* \"#utility.yul\":14181:14228   */\n      mstore\n        /* \"#utility.yul\":14245:14376   */\n      tag_353\n        /* \"#utility.yul\":14371:14375   */\n      dup2\n        /* \"#utility.yul\":14245:14376   */\n      tag_216\n      jump\t// in\n    tag_353:\n        /* \"#utility.yul\":14237:14376   */\n      swap1\n      pop\n        /* \"#utility.yul\":13964:14383   */\n      swap2\n      swap1\n      pop\n      jump\t// out\n        /* \"#utility.yul\":14389:14721   */\n    tag_137:\n        /* \"#utility.yul\":14510:14514   */\n      0x00\n        /* \"#utility.yul\":14548:14550   */\n      0x40\n        /* \"#utility.yul\":14537:14546   */\n      dup3\n        /* \"#utility.yul\":14533:14551   */\n      add\n        /* \"#utility.yul\":14525:14551   */\n      swap1\n      pop\n        /* \"#utility.yul\":14561:14632   */\n      tag_355\n        /* \"#utility.yul\":14629:14630   */\n      0x00\n        /* \"#utility.yul\":14618:14627   */\n      dup4\n        /* \"#utility.yul\":14614:14631   */\n      add\n        /* \"#utility.yul\":14605:14611   */\n      dup6\n        /* \"#utility.yul\":14561:14632   */\n      tag_182\n      jump\t// in\n    tag_355:\n        /* \"#utility.yul\":14642:14714   */\n      tag_356\n        /* \"#utility.yul\":14710:14712   */\n      0x20\n        /* \"#utility.yul\":14699:14708   */\n      dup4\n        /* \"#utility.yul\":14695:14713   */\n      add\n        /* \"#utility.yul\":14686:14692   */\n      dup5\n        /* \"#utility.yul\":14642:14714   */\n      tag_182\n      jump\t// in\n    tag_356:\n        /* \"#utility.yul\":14389:14721   */\n      swap4\n      swap3\n      pop\n      pop\n      pop\n      jump\t// out\n        /* \"#utility.yul\":14727:14898   */\n    tag_217:\n        /* \"#utility.yul\":14867:14890   */\n      0x496e76616c696420646973636f756e7420726174650000000000000000000000\n        /* \"#utility.yul\":14863:14864   */\n      0x00\n        /* \"#utility.yul\":14855:14861   */\n      dup3\n        /* \"#utility.yul\":14851:14865   */\n      add\n        /* \"#utility.yul\":14844:14891   */\n      mstore\n        /* \"#utility.yul\":14727:14898   */\n      pop\n      jump\t// out\n        /* \"#utility.yul\":14904:15270   */\n    tag_218:\n        /* \"#utility.yul\":15046:15049   */\n      0x00\n        /* \"#utility.yul\":15067:15134   */\n      tag_359\n        /* \"#utility.yul\":15131:15133   */\n      0x15\n        /* \"#utility.yul\":15126:15129   */\n      dup4\n        /* \"#utility.yul\":15067:15134   */\n      tag_196\n      jump\t// in\n    tag_359:\n        /* \"#utility.yul\":15060:15134   */\n      swap2\n      pop\n        /* \"#utility.yul\":15143:15236   */\n      tag_360\n        /* \"#utility.yul\":15232:15235   */\n      dup3\n        /* \"#utility.yul\":15143:15236   */\n      tag_217\n      jump\t// in\n    tag_360:\n        /* \"#utility.yul\":15261:15263   */\n      0x20\n        /* \"#utility.yul\":15256:15259   */\n      dup3\n        /* \"#utility.yul\":15252:15264   */\n      add\n        /* \"#utility.yul\":15245:15264   */\n      swap1\n      pop\n        /* \"#utility.yul\":14904:15270   */\n      swap2\n      swap1\n      pop\n      jump\t// out\n        /* \"#utility.yul\":15276:15695   */\n    tag_144:\n        /* \"#utility.yul\":15442:15446   */\n      0x00\n        /* \"#utility.yul\":15480:15482   */\n      0x20\n        /* \"#utility.yul\":15469:15478   */\n      dup3\n        /* \"#utility.yul\":15465:15483   */\n      add\n        /* \"#utility.yul\":15457:15483   */\n      swap1\n      pop\n        /* \"#utility.yul\":15529:15538   */\n      dup2\n        /* \"#utility.yul\":15523:15527   */\n      dup2\n        /* \"#utility.yul\":15519:15539   */\n      sub\n        /* \"#utility.yul\":15515:15516   */\n      0x00\n        /* \"#utility.yul\":15504:15513   */\n      dup4\n        /* \"#utility.yul\":15500:15517   */\n      add\n        /* \"#utility.yul\":15493:15540   */\n      mstore\n        /* \"#utility.yul\":15557:15688   */\n      tag_362\n        /* \"#utility.yul\":15683:15687   */\n      dup2\n        /* \"#utility.yul\":15557:15688   */\n      tag_218\n      jump\t// in\n    tag_362:\n        /* \"#utility.yul\":15549:15688   */\n      swap1\n      pop\n        /* \"#utility.yul\":15276:15695   */\n      swap2\n      swap1\n      pop\n      jump\t// out\n        /* \"#utility.yul\":15701:15883   */\n    tag_219:\n        /* \"#utility.yul\":15841:15875   */\n      0x4e6577206f776e65722063616e6e6f74206265207a65726f2061646472657373\n        /* \"#utility.yul\":15837:15838   */\n      0x00\n        /* \"#utility.yul\":15829:15835   */\n      dup3\n        /* \"#utility.yul\":15825:15839   */\n      add\n        /* \"#utility.yul\":15818:15876   */\n      mstore\n        /* \"#utility.yul\":15701:15883   */\n      pop\n      jump\t// out\n        /* \"#utility.yul\":15889:16255   */\n    tag_220:\n        /* \"#utility.yul\":16031:16034   */\n      0x00\n        /* \"#utility.yul\":16052:16119   */\n      tag_365\n        /* \"#utility.yul\":16116:16118   */\n      0x20\n        /* \"#utility.yul\":16111:16114   */\n      dup4\n        /* \"#utility.yul\":16052:16119   */\n      tag_196\n      jump\t// in\n    tag_365:\n        /* \"#utility.yul\":16045:16119   */\n      swap2\n      pop\n        /* \"#utility.yul\":16128:16221   */\n      tag_366\n        /* \"#utility.yul\":16217:16220   */\n      dup3\n        /* \"#utility.yul\":16128:16221   */\n      tag_219\n      jump\t// in\n    tag_366:\n        /* \"#utility.yul\":16246:16248   */\n      0x20\n        /* \"#utility.yul\":16241:16244   */\n      dup3\n        /* \"#utility.yul\":16237:16249   */\n      add\n        /* \"#utility.yul\":16230:16249   */\n      swap1\n      pop\n        /* \"#utility.yul\":15889:16255   */\n      swap2\n      swap1\n      pop\n      jump\t// out\n        /* \"#utility.yul\":16261:16680   */\n    tag_161:\n        /* \"#utility.yul\":16427:16431   */\n      0x00\n        /* \"#utility.yul\":16465:16467   */\n      0x20\n        /* \"#utility.yul\":16454:16463   */\n      dup3\n        /* \"#utility.yul\":16450:16468   */\n      add\n        /* \"#utility.yul\":16442:16468   */\n      swap1\n      pop\n        /* \"#utility.yul\":16514:16523   */\n      dup2\n        /* \"#utility.yul\":16508:16512   */\n      dup2\n        /* \"#utility.yul\":16504:16524   */\n      sub\n        /* \"#utility.yul\":16500:16501   */\n      0x00\n        /* \"#utility.yul\":16489:16498   */\n      dup4\n        /* \"#utility.yul\":16485:16502   */\n      add\n        /* \"#utility.yul\":16478:16525   */\n      mstore\n        /* \"#utility.yul\":16542:16673   */\n      tag_368\n        /* \"#utility.yul\":16668:16672   */\n      dup2\n        /* \"#utility.yul\":16542:16673   */\n      tag_220\n      jump\t// in\n    tag_368:\n        /* \"#utility.yul\":16534:16673   */\n      swap1\n      pop\n        /* \"#utility.yul\":16261:16680   */\n      swap2\n      swap1\n      pop\n      jump\t// out\n        /* \"#utility.yul\":16686:16858   */\n    tag_221:\n        /* \"#utility.yul\":16826:16850   */\n      0x57455448207769746864726177616c206661696c656400000000000000000000\n        /* \"#utility.yul\":16822:16823   */\n      0x00\n        /* \"#utility.yul\":16814:16820   */\n      dup3\n        /* \"#utility.yul\":16810:16824   */\n      add\n        /* \"#utility.yul\":16803:16851   */\n      mstore\n        /* \"#utility.yul\":16686:16858   */\n      pop\n      jump\t// out\n        /* \"#utility.yul\":16864:17230   */\n    tag_222:\n        /* \"#utility.yul\":17006:17009   */\n      0x00\n        /* \"#utility.yul\":17027:17094   */\n      tag_371\n        /* \"#utility.yul\":17091:17093   */\n      0x16\n        /* \"#utility.yul\":17086:17089   */\n      dup4\n        /* \"#utility.yul\":17027:17094   */\n      tag_196\n      jump\t// in\n    tag_371:\n        /* \"#utility.yul\":17020:17094   */\n      swap2\n      pop\n        /* \"#utility.yul\":17103:17196   */\n      tag_372\n        /* \"#utility.yul\":17192:17195   */\n      dup3\n        /* \"#utility.yul\":17103:17196   */\n      tag_221\n      jump\t// in\n    tag_372:\n        /* \"#utility.yul\":17221:17223   */\n      0x20\n        /* \"#utility.yul\":17216:17219   */\n      dup3\n        /* \"#utility.yul\":17212:17224   */\n      add\n        /* \"#utility.yul\":17205:17224   */\n      swap1\n      pop\n        /* \"#utility.yul\":16864:17230   */\n      swap2\n      swap1\n      pop\n      jump\t// out\n        /* \"#utility.yul\":17236:17655   */\n    tag_180:\n        /* \"#utility.yul\":17402:17406   */\n      0x00\n        /* \"#utility.yul\":17440:17442   */\n      0x20\n        /* \"#utility.yul\":17429:17438   */\n      dup3\n        /* \"#utility.yul\":17425:17443   */\n      add\n        /* \"#utility.yul\":17417:17443   */\n      swap1\n      pop\n        /* \"#utility.yul\":17489:17498   */\n      dup2\n        /* \"#utility.yul\":17483:17487   */\n      dup2\n        /* \"#utility.yul\":17479:17499   */\n      sub\n        /* \"#utility.yul\":17475:17476   */\n      0x00\n        /* \"#utility.yul\":17464:17473   */\n      dup4\n        /* \"#utility.yul\":17460:17477   */\n      add\n        /* \"#utility.yul\":17453:17500   */\n      mstore\n        /* \"#utility.yul\":17517:17648   */\n      tag_374\n        /* \"#utility.yul\":17643:17647   */\n      dup2\n        /* \"#utility.yul\":17517:17648   */\n      tag_222\n      jump\t// in\n    tag_374:\n        /* \"#utility.yul\":17509:17648   */\n      swap1\n      pop\n        /* \"#utility.yul\":17236:17655   */\n      swap2\n      swap1\n      pop\n      jump\t// out\n\n    auxdata: 0xa26469706673582212203996c7858c35d147d902c54137d8976739bd0468c89c6681dba9214ab6879aa264736f6c634300081c0033\n}\n",
				"bytecode": {
					"linkReferences": {},
					"object": "608060405234801561000f575f5ffd5b50604051611b4c380380611b4c83398181016040528101906100319190610198565b335f5f6101000a81548173ffffffffffffffffffffffffffffffffffffffff021916908373ffffffffffffffffffffffffffffffffffffffff1602179055508360015f6101000a81548173ffffffffffffffffffffffffffffffffffffffff021916908373ffffffffffffffffffffffffffffffffffffffff1602179055508260025f6101000a81548173ffffffffffffffffffffffffffffffffffffffff021916908373ffffffffffffffffffffffffffffffffffffffff1602179055508160038190555080600481905550505050506101fc565b5f5ffd5b5f73ffffffffffffffffffffffffffffffffffffffff82169050919050565b5f6101348261010b565b9050919050565b6101448161012a565b811461014e575f5ffd5b50565b5f8151905061015f8161013b565b92915050565b5f819050919050565b61017781610165565b8114610181575f5ffd5b50565b5f815190506101928161016e565b92915050565b5f5f5f5f608085870312156101b0576101af610107565b5b5f6101bd87828801610151565b94505060206101ce87828801610151565b93505060406101df87828801610184565b92505060606101f087828801610184565b91505092959194509250565b611943806102095f395ff3fe608060405234801561000f575f5ffd5b50600436106100cd575f3560e01c80637c69febd1161008a578063dc38679c11610064578063dc38679c146101e9578063e6c0e6d514610207578063f2fde38b14610225578063fc4dd33314610241576100cd565b80637c69febd1461017f578063839ea2d91461019b5780638da5cb5b146101cb576100cd565b806333c92da9146100d15780633a6eb3df146100ef5780633fc8cef31461010d57806366dd0f241461012b5780636a64eff81461014757806379a9fa1c14610163575b5f5ffd5b6100d961025d565b6040516100e691906110f7565b60405180910390f35b6100f76102fc565b604051610104919061114f565b60405180910390f35b610115610321565b604051610122919061114f565b60405180910390f35b61014560048036038101906101409190611196565b610346565b005b610161600480360381019061015c9190611196565b6104f6565b005b61017d60048036038101906101789190611196565b61058e565b005b61019960048036038101906101949190611196565b610a75565b005b6101b560048036038101906101b09190611196565b610b51565b6040516101c291906111db565b60405180910390f35b6101d3610c49565b6040516101e0919061114f565b60405180910390f35b6101f1610c6d565b6040516101fe91906110f7565b60405180910390f35b61020f610c73565b60405161021c91906110f7565b60405180910390f35b61023f600480360381019061023a919061121e565b610c79565b005b61025b60048036038101906102569190611196565b610e31565b005b5f60015f9054906101000a900473ffffffffffffffffffffffffffffffffffffffff1673ffffffffffffffffffffffffffffffffffffffff166370a08231306040518263ffffffff1660e01b81526004016102b8919061114f565b602060405180830381865afa1580156102d3573d5f5f3e3d5ffd5b505050506040513d601f19601f820116820180604052508101906102f7919061125d565b905090565b60025f9054906101000a900473ffffffffffffffffffffffffffffffffffffffff1681565b60015f9054906101000a900473ffffffffffffffffffffffffffffffffffffffff1681565b5f5f9054906101000a900473ffffffffffffffffffffffffffffffffffffffff1673ffffffffffffffffffffffffffffffffffffffff163373ffffffffffffffffffffffffffffffffffffffff16146103d4576040517f08c379a00000000000000000000000000000000000000000000000000000000081526004016103cb906112e2565b60405180910390fd5b5f8111610416576040517f08c379a000000000000000000000000000000000000000000000000000000000815260040161040d9061134a565b60405180910390fd5b60015f9054906101000a900473ffffffffffffffffffffffffffffffffffffffff1673ffffffffffffffffffffffffffffffffffffffff166323b872dd3330846040518463ffffffff1660e01b815260040161047493929190611368565b6020604051808303815f875af1158015610490573d5f5f3e3d5ffd5b505050506040513d601f19601f820116820180604052508101906104b491906113c7565b6104f3576040517f08c379a00000000000000000000000000000000000000000000000000000000081526004016104ea9061143c565b60405180910390fd5b50565b5f5f9054906101000a900473ffffffffffffffffffffffffffffffffffffffff1673ffffffffffffffffffffffffffffffffffffffff163373ffffffffffffffffffffffffffffffffffffffff1614610584576040517f08c379a000000000000000000000000000000000000000000000000000000000815260040161057b906112e2565b60405180910390fd5b8060048190555050565b5f81116105d0576040517f08c379a00000000000000000000000000000000000000000000000000000000081526004016105c7906114a4565b60405180910390fd5b5f60025f9054906101000a900473ffffffffffffffffffffffffffffffffffffffff1673ffffffffffffffffffffffffffffffffffffffff1663dd62ed3e33306040518363ffffffff1660e01b815260040161062d9291906114c2565b602060405180830381865afa158015610648573d5f5f3e3d5ffd5b505050506040513d601f19601f8201168201806040525081019061066c919061125d565b9050818110156106b1576040517f08c379a00000000000000000000000000000000000000000000000000000000081526004016106a890611533565b60405180910390fd5b60025f9054906101000a900473ffffffffffffffffffffffffffffffffffffffff1673ffffffffffffffffffffffffffffffffffffffff166323b872dd3330856040518463ffffffff1660e01b815260040161070f93929190611368565b6020604051808303815f875af115801561072b573d5f5f3e3d5ffd5b505050506040513d601f19601f8201168201806040525081019061074f91906113c7565b61078e576040517f08c379a00000000000000000000000000000000000000000000000000000000081526004016107859061159b565b60405180910390fd5b5f606460035460646107a091906115e6565b6004546107ad9190611619565b6107b79190611687565b90505f670de0b6b3a764000082856107cf9190611619565b6107d99190611687565b90505f60015f9054906101000a900473ffffffffffffffffffffffffffffffffffffffff1673ffffffffffffffffffffffffffffffffffffffff166370a08231306040518263ffffffff1660e01b8152600401610836919061114f565b602060405180830381865afa158015610851573d5f5f3e3d5ffd5b505050506040513d601f19601f82011682018060405250810190610875919061125d565b9050818110156108ba576040517f08c379a00000000000000000000000000000000000000000000000000000000081526004016108b190611701565b60405180910390fd5b60015f9054906101000a900473ffffffffffffffffffffffffffffffffffffffff1673ffffffffffffffffffffffffffffffffffffffff1663a9059cbb33846040518363ffffffff1660e01b815260040161091692919061171f565b6020604051808303815f875af1158015610932573d5f5f3e3d5ffd5b505050506040513d601f19601f8201168201806040525081019061095691906113c7565b610995576040517f08c379a000000000000000000000000000000000000000000000000000000000815260040161098c90611790565b60405180910390fd5b60025f9054906101000a900473ffffffffffffffffffffffffffffffffffffffff1673ffffffffffffffffffffffffffffffffffffffff16639dc29fac30876040518363ffffffff1660e01b81526004016109f192919061171f565b5f604051808303815f87803b158015610a08575f5ffd5b505af1158015610a1a573d5f5f3e3d5ffd5b505050503373ffffffffffffffffffffffffffffffffffffffff167fcb7f55d0b91628d4520b789339dae4803ab07182ea89d138acbd965dac51dc658684604051610a669291906117ae565b60405180910390a25050505050565b5f5f9054906101000a900473ffffffffffffffffffffffffffffffffffffffff1673ffffffffffffffffffffffffffffffffffffffff163373ffffffffffffffffffffffffffffffffffffffff1614610b03576040517f08c379a0000000000000000000000000000000000000000000000000000000008152600401610afa906112e2565b60405180910390fd5b6064811115610b47576040517f08c379a0000000000000000000000000000000000000000000000000000000008152600401610b3e9061181f565b60405180910390fd5b8060038190555050565b5f5f60646003546064610b6491906115e6565b600454610b719190611619565b610b7b9190611687565b90505f670de0b6b3a76400008285610b939190611619565b610b9d9190611687565b90505f60015f9054906101000a900473ffffffffffffffffffffffffffffffffffffffff1673ffffffffffffffffffffffffffffffffffffffff166370a08231306040518263ffffffff1660e01b8152600401610bfa919061114f565b602060405180830381865afa158015610c15573d5f5f3e3d5ffd5b505050506040513d601f19601f82011682018060405250810190610c39919061125d565b9050818110159350505050919050565b5f5f9054906101000a900473ffffffffffffffffffffffffffffffffffffffff1681565b60045481565b60035481565b5f5f9054906101000a900473ffffffffffffffffffffffffffffffffffffffff1673ffffffffffffffffffffffffffffffffffffffff163373ffffffffffffffffffffffffffffffffffffffff1614610d07576040517f08c379a0000000000000000000000000000000000000000000000000000000008152600401610cfe906112e2565b60405180910390fd5b5f73ffffffffffffffffffffffffffffffffffffffff168173ffffffffffffffffffffffffffffffffffffffff1603610d75576040517f08c379a0000000000000000000000000000000000000000000000000000000008152600401610d6c90611887565b60405180910390fd5b8073ffffffffffffffffffffffffffffffffffffffff165f5f9054906101000a900473ffffffffffffffffffffffffffffffffffffffff1673ffffffffffffffffffffffffffffffffffffffff167f8be0079c531659141344cd1fd0a4f28419497f9722a3daafe3b4186f6b6457e060405160405180910390a3805f5f6101000a81548173ffffffffffffffffffffffffffffffffffffffff021916908373ffffffffffffffffffffffffffffffffffffffff16021790555050565b5f5f9054906101000a900473ffffffffffffffffffffffffffffffffffffffff1673ffffffffffffffffffffffffffffffffffffffff163373ffffffffffffffffffffffffffffffffffffffff1614610ebf576040517f08c379a0000000000000000000000000000000000000000000000000000000008152600401610eb6906112e2565b60405180910390fd5b5f8111610f01576040517f08c379a0000000000000000000000000000000000000000000000000000000008152600401610ef89061134a565b60405180910390fd5b5f60015f9054906101000a900473ffffffffffffffffffffffffffffffffffffffff1673ffffffffffffffffffffffffffffffffffffffff166370a08231306040518263ffffffff1660e01b8152600401610f5c919061114f565b602060405180830381865afa158015610f77573d5f5f3e3d5ffd5b505050506040513d601f19601f82011682018060405250810190610f9b919061125d565b905080821115610fe0576040517f08c379a0000000000000000000000000000000000000000000000000000000008152600401610fd790611701565b60405180910390fd5b60015f9054906101000a900473ffffffffffffffffffffffffffffffffffffffff1673ffffffffffffffffffffffffffffffffffffffff1663a9059cbb5f5f9054906101000a900473ffffffffffffffffffffffffffffffffffffffff16846040518363ffffffff1660e01b815260040161105c92919061171f565b6020604051808303815f875af1158015611078573d5f5f3e3d5ffd5b505050506040513d601f19601f8201168201806040525081019061109c91906113c7565b6110db576040517f08c379a00000000000000000000000000000000000000000000000000000000081526004016110d2906118ef565b60405180910390fd5b5050565b5f819050919050565b6110f1816110df565b82525050565b5f60208201905061110a5f8301846110e8565b92915050565b5f73ffffffffffffffffffffffffffffffffffffffff82169050919050565b5f61113982611110565b9050919050565b6111498161112f565b82525050565b5f6020820190506111625f830184611140565b92915050565b5f5ffd5b611175816110df565b811461117f575f5ffd5b50565b5f813590506111908161116c565b92915050565b5f602082840312156111ab576111aa611168565b5b5f6111b884828501611182565b91505092915050565b5f8115159050919050565b6111d5816111c1565b82525050565b5f6020820190506111ee5f8301846111cc565b92915050565b6111fd8161112f565b8114611207575f5ffd5b50565b5f81359050611218816111f4565b92915050565b5f6020828403121561123357611232611168565b5b5f6112408482850161120a565b91505092915050565b5f815190506112578161116c565b92915050565b5f6020828403121561127257611271611168565b5b5f61127f84828501611249565b91505092915050565b5f82825260208201905092915050565b7f4e6f7420617574686f72697a65640000000000000000000000000000000000005f82015250565b5f6112cc600e83611288565b91506112d782611298565b602082019050919050565b5f6020820190508181035f8301526112f9816112c0565b9050919050565b7f416d6f756e74206d7573742062652067726561746572207468616e20300000005f82015250565b5f611334601d83611288565b915061133f82611300565b602082019050919050565b5f6020820190508181035f83015261136181611328565b9050919050565b5f60608201905061137b5f830186611140565b6113886020830185611140565b61139560408301846110e8565b949350505050565b6113a6816111c1565b81146113b0575f5ffd5b50565b5f815190506113c18161139d565b92915050565b5f602082840312156113dc576113db611168565b5b5f6113e9848285016113b3565b91505092915050565b7f57455448206465706f736974206661696c6564000000000000000000000000005f82015250565b5f611426601383611288565b9150611431826113f2565b602082019050919050565b5f6020820190508181035f8301526114538161141a565b9050919050565b7f4d757374206465706f736974206d6c414d504c000000000000000000000000005f82015250565b5f61148e601383611288565b91506114998261145a565b602082019050919050565b5f6020820190508181035f8301526114bb81611482565b9050919050565b5f6040820190506114d55f830185611140565b6114e26020830184611140565b9392505050565b7f416c6c6f77616e6365206e6f742073756666696369656e7400000000000000005f82015250565b5f61151d601883611288565b9150611528826114e9565b602082019050919050565b5f6020820190508181035f83015261154a81611511565b9050919050565b7f5472616e73666572206661696c656400000000000000000000000000000000005f82015250565b5f611585600f83611288565b915061159082611551565b602082019050919050565b5f6020820190508181035f8301526115b281611579565b9050919050565b7f4e487b71000000000000000000000000000000000000000000000000000000005f52601160045260245ffd5b5f6115f0826110df565b91506115fb836110df565b9250828203905081811115611613576116126115b9565b5b92915050565b5f611623826110df565b915061162e836110df565b925082820261163c816110df565b91508282048414831517611653576116526115b9565b5b5092915050565b7f4e487b71000000000000000000000000000000000000000000000000000000005f52601260045260245ffd5b5f611691826110df565b915061169c836110df565b9250826116ac576116ab61165a565b5b828204905092915050565b7f4e6f7420656e6f756768205745544820696e20636f6e747261637400000000005f82015250565b5f6116eb601b83611288565b91506116f6826116b7565b602082019050919050565b5f6020820190508181035f830152611718816116df565b9050919050565b5f6040820190506117325f830185611140565b61173f60208301846110e8565b9392505050565b7f57455448207472616e73666572206661696c65640000000000000000000000005f82015250565b5f61177a601483611288565b915061178582611746565b602082019050919050565b5f6020820190508181035f8301526117a78161176e565b9050919050565b5f6040820190506117c15f8301856110e8565b6117ce60208301846110e8565b9392505050565b7f496e76616c696420646973636f756e74207261746500000000000000000000005f82015250565b5f611809601583611288565b9150611814826117d5565b602082019050919050565b5f6020820190508181035f830152611836816117fd565b9050919050565b7f4e6577206f776e65722063616e6e6f74206265207a65726f20616464726573735f82015250565b5f611871602083611288565b915061187c8261183d565b602082019050919050565b5f6020820190508181035f83015261189e81611865565b9050919050565b7f57455448207769746864726177616c206661696c6564000000000000000000005f82015250565b5f6118d9601683611288565b91506118e4826118a5565b602082019050919050565b5f6020820190508181035f830152611906816118cd565b905091905056fea26469706673582212203996c7858c35d147d902c54137d8976739bd0468c89c6681dba9214ab6879aa264736f6c634300081c0033",
					"opcodes": "PUSH1 0x80 PUSH1 0x40 MSTORE CALLVALUE DUP1 ISZERO PUSH2 0xF JUMPI PUSH0 PUSH0 REVERT JUMPDEST POP PUSH1 0x40 MLOAD PUSH2 0x1B4C CODESIZE SUB DUP1 PUSH2 0x1B4C DUP4 CODECOPY DUP2 DUP2 ADD PUSH1 0x40 MSTORE DUP2 ADD SWAP1 PUSH2 0x31 SWAP2 SWAP1 PUSH2 0x198 JUMP JUMPDEST CALLER PUSH0 PUSH0 PUSH2 0x100 EXP DUP2 SLOAD DUP2 PUSH20 0xFFFFFFFFFFFFFFFFFFFFFFFFFFFFFFFFFFFFFFFF MUL NOT AND SWAP1 DUP4 PUSH20 0xFFFFFFFFFFFFFFFFFFFFFFFFFFFFFFFFFFFFFFFF AND MUL OR SWAP1 SSTORE POP DUP4 PUSH1 0x1 PUSH0 PUSH2 0x100 EXP DUP2 SLOAD DUP2 PUSH20 0xFFFFFFFFFFFFFFFFFFFFFFFFFFFFFFFFFFFFFFFF MUL NOT AND SWAP1 DUP4 PUSH20 0xFFFFFFFFFFFFFFFFFFFFFFFFFFFFFFFFFFFFFFFF AND MUL OR SWAP1 SSTORE POP DUP3 PUSH1 0x2 PUSH0 PUSH2 0x100 EXP DUP2 SLOAD DUP2 PUSH20 0xFFFFFFFFFFFFFFFFFFFFFFFFFFFFFFFFFFFFFFFF MUL NOT AND SWAP1 DUP4 PUSH20 0xFFFFFFFFFFFFFFFFFFFFFFFFFFFFFFFFFFFFFFFF AND MUL OR SWAP1 SSTORE POP DUP2 PUSH1 0x3 DUP2 SWAP1 SSTORE POP DUP1 PUSH1 0x4 DUP2 SWAP1 SSTORE POP POP POP POP POP PUSH2 0x1FC JUMP JUMPDEST PUSH0 PUSH0 REVERT JUMPDEST PUSH0 PUSH20 0xFFFFFFFFFFFFFFFFFFFFFFFFFFFFFFFFFFFFFFFF DUP3 AND SWAP1 POP SWAP2 SWAP1 POP JUMP JUMPDEST PUSH0 PUSH2 0x134 DUP3 PUSH2 0x10B JUMP JUMPDEST SWAP1 POP SWAP2 SWAP1 POP JUMP JUMPDEST PUSH2 0x144 DUP2 PUSH2 0x12A JUMP JUMPDEST DUP2 EQ PUSH2 0x14E JUMPI PUSH0 PUSH0 REVERT JUMPDEST POP JUMP JUMPDEST PUSH0 DUP2 MLOAD SWAP1 POP PUSH2 0x15F DUP2 PUSH2 0x13B JUMP JUMPDEST SWAP3 SWAP2 POP POP JUMP JUMPDEST PUSH0 DUP2 SWAP1 POP SWAP2 SWAP1 POP JUMP JUMPDEST PUSH2 0x177 DUP2 PUSH2 0x165 JUMP JUMPDEST DUP2 EQ PUSH2 0x181 JUMPI PUSH0 PUSH0 REVERT JUMPDEST POP JUMP JUMPDEST PUSH0 DUP2 MLOAD SWAP1 POP PUSH2 0x192 DUP2 PUSH2 0x16E JUMP JUMPDEST SWAP3 SWAP2 POP POP JUMP JUMPDEST PUSH0 PUSH0 PUSH0 PUSH0 PUSH1 0x80 DUP6 DUP8 SUB SLT ISZERO PUSH2 0x1B0 JUMPI PUSH2 0x1AF PUSH2 0x107 JUMP JUMPDEST JUMPDEST PUSH0 PUSH2 0x1BD DUP8 DUP3 DUP9 ADD PUSH2 0x151 JUMP JUMPDEST SWAP5 POP POP PUSH1 0x20 PUSH2 0x1CE DUP8 DUP3 DUP9 ADD PUSH2 0x151 JUMP JUMPDEST SWAP4 POP POP PUSH1 0x40 PUSH2 0x1DF DUP8 DUP3 DUP9 ADD PUSH2 0x184 JUMP JUMPDEST SWAP3 POP POP PUSH1 0x60 PUSH2 0x1F0 DUP8 DUP3 DUP9 ADD PUSH2 0x184 JUMP JUMPDEST SWAP2 POP POP SWAP3 SWAP6 SWAP2 SWAP5 POP SWAP3 POP JUMP JUMPDEST PUSH2 0x1943 DUP1 PUSH2 0x209 PUSH0 CODECOPY PUSH0 RETURN INVALID PUSH1 0x80 PUSH1 0x40 MSTORE CALLVALUE DUP1 ISZERO PUSH2 0xF JUMPI PUSH0 PUSH0 REVERT JUMPDEST POP PUSH1 0x4 CALLDATASIZE LT PUSH2 0xCD JUMPI PUSH0 CALLDATALOAD PUSH1 0xE0 SHR DUP1 PUSH4 0x7C69FEBD GT PUSH2 0x8A JUMPI DUP1 PUSH4 0xDC38679C GT PUSH2 0x64 JUMPI DUP1 PUSH4 0xDC38679C EQ PUSH2 0x1E9 JUMPI DUP1 PUSH4 0xE6C0E6D5 EQ PUSH2 0x207 JUMPI DUP1 PUSH4 0xF2FDE38B EQ PUSH2 0x225 JUMPI DUP1 PUSH4 0xFC4DD333 EQ PUSH2 0x241 JUMPI PUSH2 0xCD JUMP JUMPDEST DUP1 PUSH4 0x7C69FEBD EQ PUSH2 0x17F JUMPI DUP1 PUSH4 0x839EA2D9 EQ PUSH2 0x19B JUMPI DUP1 PUSH4 0x8DA5CB5B EQ PUSH2 0x1CB JUMPI PUSH2 0xCD JUMP JUMPDEST DUP1 PUSH4 0x33C92DA9 EQ PUSH2 0xD1 JUMPI DUP1 PUSH4 0x3A6EB3DF EQ PUSH2 0xEF JUMPI DUP1 PUSH4 0x3FC8CEF3 EQ PUSH2 0x10D JUMPI DUP1 PUSH4 0x66DD0F24 EQ PUSH2 0x12B JUMPI DUP1 PUSH4 0x6A64EFF8 EQ PUSH2 0x147 JUMPI DUP1 PUSH4 0x79A9FA1C EQ PUSH2 0x163 JUMPI JUMPDEST PUSH0 PUSH0 REVERT JUMPDEST PUSH2 0xD9 PUSH2 0x25D JUMP JUMPDEST PUSH1 0x40 MLOAD PUSH2 0xE6 SWAP2 SWAP1 PUSH2 0x10F7 JUMP JUMPDEST PUSH1 0x40 MLOAD DUP1 SWAP2 SUB SWAP1 RETURN JUMPDEST PUSH2 0xF7 PUSH2 0x2FC JUMP JUMPDEST PUSH1 0x40 MLOAD PUSH2 0x104 SWAP2 SWAP1 PUSH2 0x114F JUMP JUMPDEST PUSH1 0x40 MLOAD DUP1 SWAP2 SUB SWAP1 RETURN JUMPDEST PUSH2 0x115 PUSH2 0x321 JUMP JUMPDEST PUSH1 0x40 MLOAD PUSH2 0x122 SWAP2 SWAP1 PUSH2 0x114F JUMP JUMPDEST PUSH1 0x40 MLOAD DUP1 SWAP2 SUB SWAP1 RETURN JUMPDEST PUSH2 0x145 PUSH1 0x4 DUP1 CALLDATASIZE SUB DUP2 ADD SWAP1 PUSH2 0x140 SWAP2 SWAP1 PUSH2 0x1196 JUMP JUMPDEST PUSH2 0x346 JUMP JUMPDEST STOP JUMPDEST PUSH2 0x161 PUSH1 0x4 DUP1 CALLDATASIZE SUB DUP2 ADD SWAP1 PUSH2 0x15C SWAP2 SWAP1 PUSH2 0x1196 JUMP JUMPDEST PUSH2 0x4F6 JUMP JUMPDEST STOP JUMPDEST PUSH2 0x17D PUSH1 0x4 DUP1 CALLDATASIZE SUB DUP2 ADD SWAP1 PUSH2 0x178 SWAP2 SWAP1 PUSH2 0x1196 JUMP JUMPDEST PUSH2 0x58E JUMP JUMPDEST STOP JUMPDEST PUSH2 0x199 PUSH1 0x4 DUP1 CALLDATASIZE SUB DUP2 ADD SWAP1 PUSH2 0x194 SWAP2 SWAP1 PUSH2 0x1196 JUMP JUMPDEST PUSH2 0xA75 JUMP JUMPDEST STOP JUMPDEST PUSH2 0x1B5 PUSH1 0x4 DUP1 CALLDATASIZE SUB DUP2 ADD SWAP1 PUSH2 0x1B0 SWAP2 SWAP1 PUSH2 0x1196 JUMP JUMPDEST PUSH2 0xB51 JUMP JUMPDEST PUSH1 0x40 MLOAD PUSH2 0x1C2 SWAP2 SWAP1 PUSH2 0x11DB JUMP JUMPDEST PUSH1 0x40 MLOAD DUP1 SWAP2 SUB SWAP1 RETURN JUMPDEST PUSH2 0x1D3 PUSH2 0xC49 JUMP JUMPDEST PUSH1 0x40 MLOAD PUSH2 0x1E0 SWAP2 SWAP1 PUSH2 0x114F JUMP JUMPDEST PUSH1 0x40 MLOAD DUP1 SWAP2 SUB SWAP1 RETURN JUMPDEST PUSH2 0x1F1 PUSH2 0xC6D JUMP JUMPDEST PUSH1 0x40 MLOAD PUSH2 0x1FE SWAP2 SWAP1 PUSH2 0x10F7 JUMP JUMPDEST PUSH1 0x40 MLOAD DUP1 SWAP2 SUB SWAP1 RETURN JUMPDEST PUSH2 0x20F PUSH2 0xC73 JUMP JUMPDEST PUSH1 0x40 MLOAD PUSH2 0x21C SWAP2 SWAP1 PUSH2 0x10F7 JUMP JUMPDEST PUSH1 0x40 MLOAD DUP1 SWAP2 SUB SWAP1 RETURN JUMPDEST PUSH2 0x23F PUSH1 0x4 DUP1 CALLDATASIZE SUB DUP2 ADD SWAP1 PUSH2 0x23A SWAP2 SWAP1 PUSH2 0x121E JUMP JUMPDEST PUSH2 0xC79 JUMP JUMPDEST STOP JUMPDEST PUSH2 0x25B PUSH1 0x4 DUP1 CALLDATASIZE SUB DUP2 ADD SWAP1 PUSH2 0x256 SWAP2 SWAP1 PUSH2 0x1196 JUMP JUMPDEST PUSH2 0xE31 JUMP JUMPDEST STOP JUMPDEST PUSH0 PUSH1 0x1 PUSH0 SWAP1 SLOAD SWAP1 PUSH2 0x100 EXP SWAP1 DIV PUSH20 0xFFFFFFFFFFFFFFFFFFFFFFFFFFFFFFFFFFFFFFFF AND PUSH20 0xFFFFFFFFFFFFFFFFFFFFFFFFFFFFFFFFFFFFFFFF AND PUSH4 0x70A08231 ADDRESS PUSH1 0x40 MLOAD DUP3 PUSH4 0xFFFFFFFF AND PUSH1 0xE0 SHL DUP2 MSTORE PUSH1 0x4 ADD PUSH2 0x2B8 SWAP2 SWAP1 PUSH2 0x114F JUMP JUMPDEST PUSH1 0x20 PUSH1 0x40 MLOAD DUP1 DUP4 SUB DUP2 DUP7 GAS STATICCALL ISZERO DUP1 ISZERO PUSH2 0x2D3 JUMPI RETURNDATASIZE PUSH0 PUSH0 RETURNDATACOPY RETURNDATASIZE PUSH0 REVERT JUMPDEST POP POP POP POP PUSH1 0x40 MLOAD RETURNDATASIZE PUSH1 0x1F NOT PUSH1 0x1F DUP3 ADD AND DUP3 ADD DUP1 PUSH1 0x40 MSTORE POP DUP2 ADD SWAP1 PUSH2 0x2F7 SWAP2 SWAP1 PUSH2 0x125D JUMP JUMPDEST SWAP1 POP SWAP1 JUMP JUMPDEST PUSH1 0x2 PUSH0 SWAP1 SLOAD SWAP1 PUSH2 0x100 EXP SWAP1 DIV PUSH20 0xFFFFFFFFFFFFFFFFFFFFFFFFFFFFFFFFFFFFFFFF AND DUP2 JUMP JUMPDEST PUSH1 0x1 PUSH0 SWAP1 SLOAD SWAP1 PUSH2 0x100 EXP SWAP1 DIV PUSH20 0xFFFFFFFFFFFFFFFFFFFFFFFFFFFFFFFFFFFFFFFF AND DUP2 JUMP JUMPDEST PUSH0 PUSH0 SWAP1 SLOAD SWAP1 PUSH2 0x100 EXP SWAP1 DIV PUSH20 0xFFFFFFFFFFFFFFFFFFFFFFFFFFFFFFFFFFFFFFFF AND PUSH20 0xFFFFFFFFFFFFFFFFFFFFFFFFFFFFFFFFFFFFFFFF AND CALLER PUSH20 0xFFFFFFFFFFFFFFFFFFFFFFFFFFFFFFFFFFFFFFFF AND EQ PUSH2 0x3D4 JUMPI PUSH1 0x40 MLOAD PUSH32 0x8C379A000000000000000000000000000000000000000000000000000000000 DUP2 MSTORE PUSH1 0x4 ADD PUSH2 0x3CB SWAP1 PUSH2 0x12E2 JUMP JUMPDEST PUSH1 0x40 MLOAD DUP1 SWAP2 SUB SWAP1 REVERT JUMPDEST PUSH0 DUP2 GT PUSH2 0x416 JUMPI PUSH1 0x40 MLOAD PUSH32 0x8C379A000000000000000000000000000000000000000000000000000000000 DUP2 MSTORE PUSH1 0x4 ADD PUSH2 0x40D SWAP1 PUSH2 0x134A JUMP JUMPDEST PUSH1 0x40 MLOAD DUP1 SWAP2 SUB SWAP1 REVERT JUMPDEST PUSH1 0x1 PUSH0 SWAP1 SLOAD SWAP1 PUSH2 0x100 EXP SWAP1 DIV PUSH20 0xFFFFFFFFFFFFFFFFFFFFFFFFFFFFFFFFFFFFFFFF AND PUSH20 0xFFFFFFFFFFFFFFFFFFFFFFFFFFFFFFFFFFFFFFFF AND PUSH4 0x23B872DD CALLER ADDRESS DUP5 PUSH1 0x40 MLOAD DUP5 PUSH4 0xFFFFFFFF AND PUSH1 0xE0 SHL DUP2 MSTORE PUSH1 0x4 ADD PUSH2 0x474 SWAP4 SWAP3 SWAP2 SWAP1 PUSH2 0x1368 JUMP JUMPDEST PUSH1 0x20 PUSH1 0x40 MLOAD DUP1 DUP4 SUB DUP2 PUSH0 DUP8 GAS CALL ISZERO DUP1 ISZERO PUSH2 0x490 JUMPI RETURNDATASIZE PUSH0 PUSH0 RETURNDATACOPY RETURNDATASIZE PUSH0 REVERT JUMPDEST POP POP POP POP PUSH1 0x40 MLOAD RETURNDATASIZE PUSH1 0x1F NOT PUSH1 0x1F DUP3 ADD AND DUP3 ADD DUP1 PUSH1 0x40 MSTORE POP DUP2 ADD SWAP1 PUSH2 0x4B4 SWAP2 SWAP1 PUSH2 0x13C7 JUMP JUMPDEST PUSH2 0x4F3 JUMPI PUSH1 0x40 MLOAD PUSH32 0x8C379A000000000000000000000000000000000000000000000000000000000 DUP2 MSTORE PUSH1 0x4 ADD PUSH2 0x4EA SWAP1 PUSH2 0x143C JUMP JUMPDEST PUSH1 0x40 MLOAD DUP1 SWAP2 SUB SWAP1 REVERT JUMPDEST POP JUMP JUMPDEST PUSH0 PUSH0 SWAP1 SLOAD SWAP1 PUSH2 0x100 EXP SWAP1 DIV PUSH20 0xFFFFFFFFFFFFFFFFFFFFFFFFFFFFFFFFFFFFFFFF AND PUSH20 0xFFFFFFFFFFFFFFFFFFFFFFFFFFFFFFFFFFFFFFFF AND CALLER PUSH20 0xFFFFFFFFFFFFFFFFFFFFFFFFFFFFFFFFFFFFFFFF AND EQ PUSH2 0x584 JUMPI PUSH1 0x40 MLOAD PUSH32 0x8C379A000000000000000000000000000000000000000000000000000000000 DUP2 MSTORE PUSH1 0x4 ADD PUSH2 0x57B SWAP1 PUSH2 0x12E2 JUMP JUMPDEST PUSH1 0x40 MLOAD DUP1 SWAP2 SUB SWAP1 REVERT JUMPDEST DUP1 PUSH1 0x4 DUP2 SWAP1 SSTORE POP POP JUMP JUMPDEST PUSH0 DUP2 GT PUSH2 0x5D0 JUMPI PUSH1 0x40 MLOAD PUSH32 0x8C379A000000000000000000000000000000000000000000000000000000000 DUP2 MSTORE PUSH1 0x4 ADD PUSH2 0x5C7 SWAP1 PUSH2 0x14A4 JUMP JUMPDEST PUSH1 0x40 MLOAD DUP1 SWAP2 SUB SWAP1 REVERT JUMPDEST PUSH0 PUSH1 0x2 PUSH0 SWAP1 SLOAD SWAP1 PUSH2 0x100 EXP SWAP1 DIV PUSH20 0xFFFFFFFFFFFFFFFFFFFFFFFFFFFFFFFFFFFFFFFF AND PUSH20 0xFFFFFFFFFFFFFFFFFFFFFFFFFFFFFFFFFFFFFFFF AND PUSH4 0xDD62ED3E CALLER ADDRESS PUSH1 0x40 MLOAD DUP4 PUSH4 0xFFFFFFFF AND PUSH1 0xE0 SHL DUP2 MSTORE PUSH1 0x4 ADD PUSH2 0x62D SWAP3 SWAP2 SWAP1 PUSH2 0x14C2 JUMP JUMPDEST PUSH1 0x20 PUSH1 0x40 MLOAD DUP1 DUP4 SUB DUP2 DUP7 GAS STATICCALL ISZERO DUP1 ISZERO PUSH2 0x648 JUMPI RETURNDATASIZE PUSH0 PUSH0 RETURNDATACOPY RETURNDATASIZE PUSH0 REVERT JUMPDEST POP POP POP POP PUSH1 0x40 MLOAD RETURNDATASIZE PUSH1 0x1F NOT PUSH1 0x1F DUP3 ADD AND DUP3 ADD DUP1 PUSH1 0x40 MSTORE POP DUP2 ADD SWAP1 PUSH2 0x66C SWAP2 SWAP1 PUSH2 0x125D JUMP JUMPDEST SWAP1 POP DUP2 DUP2 LT ISZERO PUSH2 0x6B1 JUMPI PUSH1 0x40 MLOAD PUSH32 0x8C379A000000000000000000000000000000000000000000000000000000000 DUP2 MSTORE PUSH1 0x4 ADD PUSH2 0x6A8 SWAP1 PUSH2 0x1533 JUMP JUMPDEST PUSH1 0x40 MLOAD DUP1 SWAP2 SUB SWAP1 REVERT JUMPDEST PUSH1 0x2 PUSH0 SWAP1 SLOAD SWAP1 PUSH2 0x100 EXP SWAP1 DIV PUSH20 0xFFFFFFFFFFFFFFFFFFFFFFFFFFFFFFFFFFFFFFFF AND PUSH20 0xFFFFFFFFFFFFFFFFFFFFFFFFFFFFFFFFFFFFFFFF AND PUSH4 0x23B872DD CALLER ADDRESS DUP6 PUSH1 0x40 MLOAD DUP5 PUSH4 0xFFFFFFFF AND PUSH1 0xE0 SHL DUP2 MSTORE PUSH1 0x4 ADD PUSH2 0x70F SWAP4 SWAP3 SWAP2 SWAP1 PUSH2 0x1368 JUMP JUMPDEST PUSH1 0x20 PUSH1 0x40 MLOAD DUP1 DUP4 SUB DUP2 PUSH0 DUP8 GAS CALL ISZERO DUP1 ISZERO PUSH2 0x72B JUMPI RETURNDATASIZE PUSH0 PUSH0 RETURNDATACOPY RETURNDATASIZE PUSH0 REVERT JUMPDEST POP POP POP POP PUSH1 0x40 MLOAD RETURNDATASIZE PUSH1 0x1F NOT PUSH1 0x1F DUP3 ADD AND DUP3 ADD DUP1 PUSH1 0x40 MSTORE POP DUP2 ADD SWAP1 PUSH2 0x74F SWAP2 SWAP1 PUSH2 0x13C7 JUMP JUMPDEST PUSH2 0x78E JUMPI PUSH1 0x40 MLOAD PUSH32 0x8C379A000000000000000000000000000000000000000000000000000000000 DUP2 MSTORE PUSH1 0x4 ADD PUSH2 0x785 SWAP1 PUSH2 0x159B JUMP JUMPDEST PUSH1 0x40 MLOAD DUP1 SWAP2 SUB SWAP1 REVERT JUMPDEST PUSH0 PUSH1 0x64 PUSH1 0x3 SLOAD PUSH1 0x64 PUSH2 0x7A0 SWAP2 SWAP1 PUSH2 0x15E6 JUMP JUMPDEST PUSH1 0x4 SLOAD PUSH2 0x7AD SWAP2 SWAP1 PUSH2 0x1619 JUMP JUMPDEST PUSH2 0x7B7 SWAP2 SWAP1 PUSH2 0x1687 JUMP JUMPDEST SWAP1 POP PUSH0 PUSH8 0xDE0B6B3A7640000 DUP3 DUP6 PUSH2 0x7CF SWAP2 SWAP1 PUSH2 0x1619 JUMP JUMPDEST PUSH2 0x7D9 SWAP2 SWAP1 PUSH2 0x1687 JUMP JUMPDEST SWAP1 POP PUSH0 PUSH1 0x1 PUSH0 SWAP1 SLOAD SWAP1 PUSH2 0x100 EXP SWAP1 DIV PUSH20 0xFFFFFFFFFFFFFFFFFFFFFFFFFFFFFFFFFFFFFFFF AND PUSH20 0xFFFFFFFFFFFFFFFFFFFFFFFFFFFFFFFFFFFFFFFF AND PUSH4 0x70A08231 ADDRESS PUSH1 0x40 MLOAD DUP3 PUSH4 0xFFFFFFFF AND PUSH1 0xE0 SHL DUP2 MSTORE PUSH1 0x4 ADD PUSH2 0x836 SWAP2 SWAP1 PUSH2 0x114F JUMP JUMPDEST PUSH1 0x20 PUSH1 0x40 MLOAD DUP1 DUP4 SUB DUP2 DUP7 GAS STATICCALL ISZERO DUP1 ISZERO PUSH2 0x851 JUMPI RETURNDATASIZE PUSH0 PUSH0 RETURNDATACOPY RETURNDATASIZE PUSH0 REVERT JUMPDEST POP POP POP POP PUSH1 0x40 MLOAD RETURNDATASIZE PUSH1 0x1F NOT PUSH1 0x1F DUP3 ADD AND DUP3 ADD DUP1 PUSH1 0x40 MSTORE POP DUP2 ADD SWAP1 PUSH2 0x875 SWAP2 SWAP1 PUSH2 0x125D JUMP JUMPDEST SWAP1 POP DUP2 DUP2 LT ISZERO PUSH2 0x8BA JUMPI PUSH1 0x40 MLOAD PUSH32 0x8C379A000000000000000000000000000000000000000000000000000000000 DUP2 MSTORE PUSH1 0x4 ADD PUSH2 0x8B1 SWAP1 PUSH2 0x1701 JUMP JUMPDEST PUSH1 0x40 MLOAD DUP1 SWAP2 SUB SWAP1 REVERT JUMPDEST PUSH1 0x1 PUSH0 SWAP1 SLOAD SWAP1 PUSH2 0x100 EXP SWAP1 DIV PUSH20 0xFFFFFFFFFFFFFFFFFFFFFFFFFFFFFFFFFFFFFFFF AND PUSH20 0xFFFFFFFFFFFFFFFFFFFFFFFFFFFFFFFFFFFFFFFF AND PUSH4 0xA9059CBB CALLER DUP5 PUSH1 0x40 MLOAD DUP4 PUSH4 0xFFFFFFFF AND PUSH1 0xE0 SHL DUP2 MSTORE PUSH1 0x4 ADD PUSH2 0x916 SWAP3 SWAP2 SWAP1 PUSH2 0x171F JUMP JUMPDEST PUSH1 0x20 PUSH1 0x40 MLOAD DUP1 DUP4 SUB DUP2 PUSH0 DUP8 GAS CALL ISZERO DUP1 ISZERO PUSH2 0x932 JUMPI RETURNDATASIZE PUSH0 PUSH0 RETURNDATACOPY RETURNDATASIZE PUSH0 REVERT JUMPDEST POP POP POP POP PUSH1 0x40 MLOAD RETURNDATASIZE PUSH1 0x1F NOT PUSH1 0x1F DUP3 ADD AND DUP3 ADD DUP1 PUSH1 0x40 MSTORE POP DUP2 ADD SWAP1 PUSH2 0x956 SWAP2 SWAP1 PUSH2 0x13C7 JUMP JUMPDEST PUSH2 0x995 JUMPI PUSH1 0x40 MLOAD PUSH32 0x8C379A000000000000000000000000000000000000000000000000000000000 DUP2 MSTORE PUSH1 0x4 ADD PUSH2 0x98C SWAP1 PUSH2 0x1790 JUMP JUMPDEST PUSH1 0x40 MLOAD DUP1 SWAP2 SUB SWAP1 REVERT JUMPDEST PUSH1 0x2 PUSH0 SWAP1 SLOAD SWAP1 PUSH2 0x100 EXP SWAP1 DIV PUSH20 0xFFFFFFFFFFFFFFFFFFFFFFFFFFFFFFFFFFFFFFFF AND PUSH20 0xFFFFFFFFFFFFFFFFFFFFFFFFFFFFFFFFFFFFFFFF AND PUSH4 0x9DC29FAC ADDRESS DUP8 PUSH1 0x40 MLOAD DUP4 PUSH4 0xFFFFFFFF AND PUSH1 0xE0 SHL DUP2 MSTORE PUSH1 0x4 ADD PUSH2 0x9F1 SWAP3 SWAP2 SWAP1 PUSH2 0x171F JUMP JUMPDEST PUSH0 PUSH1 0x40 MLOAD DUP1 DUP4 SUB DUP2 PUSH0 DUP8 DUP1 EXTCODESIZE ISZERO DUP1 ISZERO PUSH2 0xA08 JUMPI PUSH0 PUSH0 REVERT JUMPDEST POP GAS CALL ISZERO DUP1 ISZERO PUSH2 0xA1A JUMPI RETURNDATASIZE PUSH0 PUSH0 RETURNDATACOPY RETURNDATASIZE PUSH0 REVERT JUMPDEST POP POP POP POP CALLER PUSH20 0xFFFFFFFFFFFFFFFFFFFFFFFFFFFFFFFFFFFFFFFF AND PUSH32 0xCB7F55D0B91628D4520B789339DAE4803AB07182EA89D138ACBD965DAC51DC65 DUP7 DUP5 PUSH1 0x40 MLOAD PUSH2 0xA66 SWAP3 SWAP2 SWAP1 PUSH2 0x17AE JUMP JUMPDEST PUSH1 0x40 MLOAD DUP1 SWAP2 SUB SWAP1 LOG2 POP POP POP POP POP JUMP JUMPDEST PUSH0 PUSH0 SWAP1 SLOAD SWAP1 PUSH2 0x100 EXP SWAP1 DIV PUSH20 0xFFFFFFFFFFFFFFFFFFFFFFFFFFFFFFFFFFFFFFFF AND PUSH20 0xFFFFFFFFFFFFFFFFFFFFFFFFFFFFFFFFFFFFFFFF AND CALLER PUSH20 0xFFFFFFFFFFFFFFFFFFFFFFFFFFFFFFFFFFFFFFFF AND EQ PUSH2 0xB03 JUMPI PUSH1 0x40 MLOAD PUSH32 0x8C379A000000000000000000000000000000000000000000000000000000000 DUP2 MSTORE PUSH1 0x4 ADD PUSH2 0xAFA SWAP1 PUSH2 0x12E2 JUMP JUMPDEST PUSH1 0x40 MLOAD DUP1 SWAP2 SUB SWAP1 REVERT JUMPDEST PUSH1 0x64 DUP2 GT ISZERO PUSH2 0xB47 JUMPI PUSH1 0x40 MLOAD PUSH32 0x8C379A000000000000000000000000000000000000000000000000000000000 DUP2 MSTORE PUSH1 0x4 ADD PUSH2 0xB3E SWAP1 PUSH2 0x181F JUMP JUMPDEST PUSH1 0x40 MLOAD DUP1 SWAP2 SUB SWAP1 REVERT JUMPDEST DUP1 PUSH1 0x3 DUP2 SWAP1 SSTORE POP POP JUMP JUMPDEST PUSH0 PUSH0 PUSH1 0x64 PUSH1 0x3 SLOAD PUSH1 0x64 PUSH2 0xB64 SWAP2 SWAP1 PUSH2 0x15E6 JUMP JUMPDEST PUSH1 0x4 SLOAD PUSH2 0xB71 SWAP2 SWAP1 PUSH2 0x1619 JUMP JUMPDEST PUSH2 0xB7B SWAP2 SWAP1 PUSH2 0x1687 JUMP JUMPDEST SWAP1 POP PUSH0 PUSH8 0xDE0B6B3A7640000 DUP3 DUP6 PUSH2 0xB93 SWAP2 SWAP1 PUSH2 0x1619 JUMP JUMPDEST PUSH2 0xB9D SWAP2 SWAP1 PUSH2 0x1687 JUMP JUMPDEST SWAP1 POP PUSH0 PUSH1 0x1 PUSH0 SWAP1 SLOAD SWAP1 PUSH2 0x100 EXP SWAP1 DIV PUSH20 0xFFFFFFFFFFFFFFFFFFFFFFFFFFFFFFFFFFFFFFFF AND PUSH20 0xFFFFFFFFFFFFFFFFFFFFFFFFFFFFFFFFFFFFFFFF AND PUSH4 0x70A08231 ADDRESS PUSH1 0x40 MLOAD DUP3 PUSH4 0xFFFFFFFF AND PUSH1 0xE0 SHL DUP2 MSTORE PUSH1 0x4 ADD PUSH2 0xBFA SWAP2 SWAP1 PUSH2 0x114F JUMP JUMPDEST PUSH1 0x20 PUSH1 0x40 MLOAD DUP1 DUP4 SUB DUP2 DUP7 GAS STATICCALL ISZERO DUP1 ISZERO PUSH2 0xC15 JUMPI RETURNDATASIZE PUSH0 PUSH0 RETURNDATACOPY RETURNDATASIZE PUSH0 REVERT JUMPDEST POP POP POP POP PUSH1 0x40 MLOAD RETURNDATASIZE PUSH1 0x1F NOT PUSH1 0x1F DUP3 ADD AND DUP3 ADD DUP1 PUSH1 0x40 MSTORE POP DUP2 ADD SWAP1 PUSH2 0xC39 SWAP2 SWAP1 PUSH2 0x125D JUMP JUMPDEST SWAP1 POP DUP2 DUP2 LT ISZERO SWAP4 POP POP POP POP SWAP2 SWAP1 POP JUMP JUMPDEST PUSH0 PUSH0 SWAP1 SLOAD SWAP1 PUSH2 0x100 EXP SWAP1 DIV PUSH20 0xFFFFFFFFFFFFFFFFFFFFFFFFFFFFFFFFFFFFFFFF AND DUP2 JUMP JUMPDEST PUSH1 0x4 SLOAD DUP2 JUMP JUMPDEST PUSH1 0x3 SLOAD DUP2 JUMP JUMPDEST PUSH0 PUSH0 SWAP1 SLOAD SWAP1 PUSH2 0x100 EXP SWAP1 DIV PUSH20 0xFFFFFFFFFFFFFFFFFFFFFFFFFFFFFFFFFFFFFFFF AND PUSH20 0xFFFFFFFFFFFFFFFFFFFFFFFFFFFFFFFFFFFFFFFF AND CALLER PUSH20 0xFFFFFFFFFFFFFFFFFFFFFFFFFFFFFFFFFFFFFFFF AND EQ PUSH2 0xD07 JUMPI PUSH1 0x40 MLOAD PUSH32 0x8C379A000000000000000000000000000000000000000000000000000000000 DUP2 MSTORE PUSH1 0x4 ADD PUSH2 0xCFE SWAP1 PUSH2 0x12E2 JUMP JUMPDEST PUSH1 0x40 MLOAD DUP1 SWAP2 SUB SWAP1 REVERT JUMPDEST PUSH0 PUSH20 0xFFFFFFFFFFFFFFFFFFFFFFFFFFFFFFFFFFFFFFFF AND DUP2 PUSH20 0xFFFFFFFFFFFFFFFFFFFFFFFFFFFFFFFFFFFFFFFF AND SUB PUSH2 0xD75 JUMPI PUSH1 0x40 MLOAD PUSH32 0x8C379A000000000000000000000000000000000000000000000000000000000 DUP2 MSTORE PUSH1 0x4 ADD PUSH2 0xD6C SWAP1 PUSH2 0x1887 JUMP JUMPDEST PUSH1 0x40 MLOAD DUP1 SWAP2 SUB SWAP1 REVERT JUMPDEST DUP1 PUSH20 0xFFFFFFFFFFFFFFFFFFFFFFFFFFFFFFFFFFFFFFFF AND PUSH0 PUSH0 SWAP1 SLOAD SWAP1 PUSH2 0x100 EXP SWAP1 DIV PUSH20 0xFFFFFFFFFFFFFFFFFFFFFFFFFFFFFFFFFFFFFFFF AND PUSH20 0xFFFFFFFFFFFFFFFFFFFFFFFFFFFFFFFFFFFFFFFF AND PUSH32 0x8BE0079C531659141344CD1FD0A4F28419497F9722A3DAAFE3B4186F6B6457E0 PUSH1 0x40 MLOAD PUSH1 0x40 MLOAD DUP1 SWAP2 SUB SWAP1 LOG3 DUP1 PUSH0 PUSH0 PUSH2 0x100 EXP DUP2 SLOAD DUP2 PUSH20 0xFFFFFFFFFFFFFFFFFFFFFFFFFFFFFFFFFFFFFFFF MUL NOT AND SWAP1 DUP4 PUSH20 0xFFFFFFFFFFFFFFFFFFFFFFFFFFFFFFFFFFFFFFFF AND MUL OR SWAP1 SSTORE POP POP JUMP JUMPDEST PUSH0 PUSH0 SWAP1 SLOAD SWAP1 PUSH2 0x100 EXP SWAP1 DIV PUSH20 0xFFFFFFFFFFFFFFFFFFFFFFFFFFFFFFFFFFFFFFFF AND PUSH20 0xFFFFFFFFFFFFFFFFFFFFFFFFFFFFFFFFFFFFFFFF AND CALLER PUSH20 0xFFFFFFFFFFFFFFFFFFFFFFFFFFFFFFFFFFFFFFFF AND EQ PUSH2 0xEBF JUMPI PUSH1 0x40 MLOAD PUSH32 0x8C379A000000000000000000000000000000000000000000000000000000000 DUP2 MSTORE PUSH1 0x4 ADD PUSH2 0xEB6 SWAP1 PUSH2 0x12E2 JUMP JUMPDEST PUSH1 0x40 MLOAD DUP1 SWAP2 SUB SWAP1 REVERT JUMPDEST PUSH0 DUP2 GT PUSH2 0xF01 JUMPI PUSH1 0x40 MLOAD PUSH32 0x8C379A000000000000000000000000000000000000000000000000000000000 DUP2 MSTORE PUSH1 0x4 ADD PUSH2 0xEF8 SWAP1 PUSH2 0x134A JUMP JUMPDEST PUSH1 0x40 MLOAD DUP1 SWAP2 SUB SWAP1 REVERT JUMPDEST PUSH0 PUSH1 0x1 PUSH0 SWAP1 SLOAD SWAP1 PUSH2 0x100 EXP SWAP1 DIV PUSH20 0xFFFFFFFFFFFFFFFFFFFFFFFFFFFFFFFFFFFFFFFF AND PUSH20 0xFFFFFFFFFFFFFFFFFFFFFFFFFFFFFFFFFFFFFFFF AND PUSH4 0x70A08231 ADDRESS PUSH1 0x40 MLOAD DUP3 PUSH4 0xFFFFFFFF AND PUSH1 0xE0 SHL DUP2 MSTORE PUSH1 0x4 ADD PUSH2 0xF5C SWAP2 SWAP1 PUSH2 0x114F JUMP JUMPDEST PUSH1 0x20 PUSH1 0x40 MLOAD DUP1 DUP4 SUB DUP2 DUP7 GAS STATICCALL ISZERO DUP1 ISZERO PUSH2 0xF77 JUMPI RETURNDATASIZE PUSH0 PUSH0 RETURNDATACOPY RETURNDATASIZE PUSH0 REVERT JUMPDEST POP POP POP POP PUSH1 0x40 MLOAD RETURNDATASIZE PUSH1 0x1F NOT PUSH1 0x1F DUP3 ADD AND DUP3 ADD DUP1 PUSH1 0x40 MSTORE POP DUP2 ADD SWAP1 PUSH2 0xF9B SWAP2 SWAP1 PUSH2 0x125D JUMP JUMPDEST SWAP1 POP DUP1 DUP3 GT ISZERO PUSH2 0xFE0 JUMPI PUSH1 0x40 MLOAD PUSH32 0x8C379A000000000000000000000000000000000000000000000000000000000 DUP2 MSTORE PUSH1 0x4 ADD PUSH2 0xFD7 SWAP1 PUSH2 0x1701 JUMP JUMPDEST PUSH1 0x40 MLOAD DUP1 SWAP2 SUB SWAP1 REVERT JUMPDEST PUSH1 0x1 PUSH0 SWAP1 SLOAD SWAP1 PUSH2 0x100 EXP SWAP1 DIV PUSH20 0xFFFFFFFFFFFFFFFFFFFFFFFFFFFFFFFFFFFFFFFF AND PUSH20 0xFFFFFFFFFFFFFFFFFFFFFFFFFFFFFFFFFFFFFFFF AND PUSH4 0xA9059CBB PUSH0 PUSH0 SWAP1 SLOAD SWAP1 PUSH2 0x100 EXP SWAP1 DIV PUSH20 0xFFFFFFFFFFFFFFFFFFFFFFFFFFFFFFFFFFFFFFFF AND DUP5 PUSH1 0x40 MLOAD DUP4 PUSH4 0xFFFFFFFF AND PUSH1 0xE0 SHL DUP2 MSTORE PUSH1 0x4 ADD PUSH2 0x105C SWAP3 SWAP2 SWAP1 PUSH2 0x171F JUMP JUMPDEST PUSH1 0x20 PUSH1 0x40 MLOAD DUP1 DUP4 SUB DUP2 PUSH0 DUP8 GAS CALL ISZERO DUP1 ISZERO PUSH2 0x1078 JUMPI RETURNDATASIZE PUSH0 PUSH0 RETURNDATACOPY RETURNDATASIZE PUSH0 REVERT JUMPDEST POP POP POP POP PUSH1 0x40 MLOAD RETURNDATASIZE PUSH1 0x1F NOT PUSH1 0x1F DUP3 ADD AND DUP3 ADD DUP1 PUSH1 0x40 MSTORE POP DUP2 ADD SWAP1 PUSH2 0x109C SWAP2 SWAP1 PUSH2 0x13C7 JUMP JUMPDEST PUSH2 0x10DB JUMPI PUSH1 0x40 MLOAD PUSH32 0x8C379A000000000000000000000000000000000000000000000000000000000 DUP2 MSTORE PUSH1 0x4 ADD PUSH2 0x10D2 SWAP1 PUSH2 0x18EF JUMP JUMPDEST PUSH1 0x40 MLOAD DUP1 SWAP2 SUB SWAP1 REVERT JUMPDEST POP POP JUMP JUMPDEST PUSH0 DUP2 SWAP1 POP SWAP2 SWAP1 POP JUMP JUMPDEST PUSH2 0x10F1 DUP2 PUSH2 0x10DF JUMP JUMPDEST DUP3 MSTORE POP POP JUMP JUMPDEST PUSH0 PUSH1 0x20 DUP3 ADD SWAP1 POP PUSH2 0x110A PUSH0 DUP4 ADD DUP5 PUSH2 0x10E8 JUMP JUMPDEST SWAP3 SWAP2 POP POP JUMP JUMPDEST PUSH0 PUSH20 0xFFFFFFFFFFFFFFFFFFFFFFFFFFFFFFFFFFFFFFFF DUP3 AND SWAP1 POP SWAP2 SWAP1 POP JUMP JUMPDEST PUSH0 PUSH2 0x1139 DUP3 PUSH2 0x1110 JUMP JUMPDEST SWAP1 POP SWAP2 SWAP1 POP JUMP JUMPDEST PUSH2 0x1149 DUP2 PUSH2 0x112F JUMP JUMPDEST DUP3 MSTORE POP POP JUMP JUMPDEST PUSH0 PUSH1 0x20 DUP3 ADD SWAP1 POP PUSH2 0x1162 PUSH0 DUP4 ADD DUP5 PUSH2 0x1140 JUMP JUMPDEST SWAP3 SWAP2 POP POP JUMP JUMPDEST PUSH0 PUSH0 REVERT JUMPDEST PUSH2 0x1175 DUP2 PUSH2 0x10DF JUMP JUMPDEST DUP2 EQ PUSH2 0x117F JUMPI PUSH0 PUSH0 REVERT JUMPDEST POP JUMP JUMPDEST PUSH0 DUP2 CALLDATALOAD SWAP1 POP PUSH2 0x1190 DUP2 PUSH2 0x116C JUMP JUMPDEST SWAP3 SWAP2 POP POP JUMP JUMPDEST PUSH0 PUSH1 0x20 DUP3 DUP5 SUB SLT ISZERO PUSH2 0x11AB JUMPI PUSH2 0x11AA PUSH2 0x1168 JUMP JUMPDEST JUMPDEST PUSH0 PUSH2 0x11B8 DUP5 DUP3 DUP6 ADD PUSH2 0x1182 JUMP JUMPDEST SWAP2 POP POP SWAP3 SWAP2 POP POP JUMP JUMPDEST PUSH0 DUP2 ISZERO ISZERO SWAP1 POP SWAP2 SWAP1 POP JUMP JUMPDEST PUSH2 0x11D5 DUP2 PUSH2 0x11C1 JUMP JUMPDEST DUP3 MSTORE POP POP JUMP JUMPDEST PUSH0 PUSH1 0x20 DUP3 ADD SWAP1 POP PUSH2 0x11EE PUSH0 DUP4 ADD DUP5 PUSH2 0x11CC JUMP JUMPDEST SWAP3 SWAP2 POP POP JUMP JUMPDEST PUSH2 0x11FD DUP2 PUSH2 0x112F JUMP JUMPDEST DUP2 EQ PUSH2 0x1207 JUMPI PUSH0 PUSH0 REVERT JUMPDEST POP JUMP JUMPDEST PUSH0 DUP2 CALLDATALOAD SWAP1 POP PUSH2 0x1218 DUP2 PUSH2 0x11F4 JUMP JUMPDEST SWAP3 SWAP2 POP POP JUMP JUMPDEST PUSH0 PUSH1 0x20 DUP3 DUP5 SUB SLT ISZERO PUSH2 0x1233 JUMPI PUSH2 0x1232 PUSH2 0x1168 JUMP JUMPDEST JUMPDEST PUSH0 PUSH2 0x1240 DUP5 DUP3 DUP6 ADD PUSH2 0x120A JUMP JUMPDEST SWAP2 POP POP SWAP3 SWAP2 POP POP JUMP JUMPDEST PUSH0 DUP2 MLOAD SWAP1 POP PUSH2 0x1257 DUP2 PUSH2 0x116C JUMP JUMPDEST SWAP3 SWAP2 POP POP JUMP JUMPDEST PUSH0 PUSH1 0x20 DUP3 DUP5 SUB SLT ISZERO PUSH2 0x1272 JUMPI PUSH2 0x1271 PUSH2 0x1168 JUMP JUMPDEST JUMPDEST PUSH0 PUSH2 0x127F DUP5 DUP3 DUP6 ADD PUSH2 0x1249 JUMP JUMPDEST SWAP2 POP POP SWAP3 SWAP2 POP POP JUMP JUMPDEST PUSH0 DUP3 DUP3 MSTORE PUSH1 0x20 DUP3 ADD SWAP1 POP SWAP3 SWAP2 POP POP JUMP JUMPDEST PUSH32 0x4E6F7420617574686F72697A6564000000000000000000000000000000000000 PUSH0 DUP3 ADD MSTORE POP JUMP JUMPDEST PUSH0 PUSH2 0x12CC PUSH1 0xE DUP4 PUSH2 0x1288 JUMP JUMPDEST SWAP2 POP PUSH2 0x12D7 DUP3 PUSH2 0x1298 JUMP JUMPDEST PUSH1 0x20 DUP3 ADD SWAP1 POP SWAP2 SWAP1 POP JUMP JUMPDEST PUSH0 PUSH1 0x20 DUP3 ADD SWAP1 POP DUP2 DUP2 SUB PUSH0 DUP4 ADD MSTORE PUSH2 0x12F9 DUP2 PUSH2 0x12C0 JUMP JUMPDEST SWAP1 POP SWAP2 SWAP1 POP JUMP JUMPDEST PUSH32 0x416D6F756E74206D7573742062652067726561746572207468616E2030000000 PUSH0 DUP3 ADD MSTORE POP JUMP JUMPDEST PUSH0 PUSH2 0x1334 PUSH1 0x1D DUP4 PUSH2 0x1288 JUMP JUMPDEST SWAP2 POP PUSH2 0x133F DUP3 PUSH2 0x1300 JUMP JUMPDEST PUSH1 0x20 DUP3 ADD SWAP1 POP SWAP2 SWAP1 POP JUMP JUMPDEST PUSH0 PUSH1 0x20 DUP3 ADD SWAP1 POP DUP2 DUP2 SUB PUSH0 DUP4 ADD MSTORE PUSH2 0x1361 DUP2 PUSH2 0x1328 JUMP JUMPDEST SWAP1 POP SWAP2 SWAP1 POP JUMP JUMPDEST PUSH0 PUSH1 0x60 DUP3 ADD SWAP1 POP PUSH2 0x137B PUSH0 DUP4 ADD DUP7 PUSH2 0x1140 JUMP JUMPDEST PUSH2 0x1388 PUSH1 0x20 DUP4 ADD DUP6 PUSH2 0x1140 JUMP JUMPDEST PUSH2 0x1395 PUSH1 0x40 DUP4 ADD DUP5 PUSH2 0x10E8 JUMP JUMPDEST SWAP5 SWAP4 POP POP POP POP JUMP JUMPDEST PUSH2 0x13A6 DUP2 PUSH2 0x11C1 JUMP JUMPDEST DUP2 EQ PUSH2 0x13B0 JUMPI PUSH0 PUSH0 REVERT JUMPDEST POP JUMP JUMPDEST PUSH0 DUP2 MLOAD SWAP1 POP PUSH2 0x13C1 DUP2 PUSH2 0x139D JUMP JUMPDEST SWAP3 SWAP2 POP POP JUMP JUMPDEST PUSH0 PUSH1 0x20 DUP3 DUP5 SUB SLT ISZERO PUSH2 0x13DC JUMPI PUSH2 0x13DB PUSH2 0x1168 JUMP JUMPDEST JUMPDEST PUSH0 PUSH2 0x13E9 DUP5 DUP3 DUP6 ADD PUSH2 0x13B3 JUMP JUMPDEST SWAP2 POP POP SWAP3 SWAP2 POP POP JUMP JUMPDEST PUSH32 0x57455448206465706F736974206661696C656400000000000000000000000000 PUSH0 DUP3 ADD MSTORE POP JUMP JUMPDEST PUSH0 PUSH2 0x1426 PUSH1 0x13 DUP4 PUSH2 0x1288 JUMP JUMPDEST SWAP2 POP PUSH2 0x1431 DUP3 PUSH2 0x13F2 JUMP JUMPDEST PUSH1 0x20 DUP3 ADD SWAP1 POP SWAP2 SWAP1 POP JUMP JUMPDEST PUSH0 PUSH1 0x20 DUP3 ADD SWAP1 POP DUP2 DUP2 SUB PUSH0 DUP4 ADD MSTORE PUSH2 0x1453 DUP2 PUSH2 0x141A JUMP JUMPDEST SWAP1 POP SWAP2 SWAP1 POP JUMP JUMPDEST PUSH32 0x4D757374206465706F736974206D6C414D504C00000000000000000000000000 PUSH0 DUP3 ADD MSTORE POP JUMP JUMPDEST PUSH0 PUSH2 0x148E PUSH1 0x13 DUP4 PUSH2 0x1288 JUMP JUMPDEST SWAP2 POP PUSH2 0x1499 DUP3 PUSH2 0x145A JUMP JUMPDEST PUSH1 0x20 DUP3 ADD SWAP1 POP SWAP2 SWAP1 POP JUMP JUMPDEST PUSH0 PUSH1 0x20 DUP3 ADD SWAP1 POP DUP2 DUP2 SUB PUSH0 DUP4 ADD MSTORE PUSH2 0x14BB DUP2 PUSH2 0x1482 JUMP JUMPDEST SWAP1 POP SWAP2 SWAP1 POP JUMP JUMPDEST PUSH0 PUSH1 0x40 DUP3 ADD SWAP1 POP PUSH2 0x14D5 PUSH0 DUP4 ADD DUP6 PUSH2 0x1140 JUMP JUMPDEST PUSH2 0x14E2 PUSH1 0x20 DUP4 ADD DUP5 PUSH2 0x1140 JUMP JUMPDEST SWAP4 SWAP3 POP POP POP JUMP JUMPDEST PUSH32 0x416C6C6F77616E6365206E6F742073756666696369656E740000000000000000 PUSH0 DUP3 ADD MSTORE POP JUMP JUMPDEST PUSH0 PUSH2 0x151D PUSH1 0x18 DUP4 PUSH2 0x1288 JUMP JUMPDEST SWAP2 POP PUSH2 0x1528 DUP3 PUSH2 0x14E9 JUMP JUMPDEST PUSH1 0x20 DUP3 ADD SWAP1 POP SWAP2 SWAP1 POP JUMP JUMPDEST PUSH0 PUSH1 0x20 DUP3 ADD SWAP1 POP DUP2 DUP2 SUB PUSH0 DUP4 ADD MSTORE PUSH2 0x154A DUP2 PUSH2 0x1511 JUMP JUMPDEST SWAP1 POP SWAP2 SWAP1 POP JUMP JUMPDEST PUSH32 0x5472616E73666572206661696C65640000000000000000000000000000000000 PUSH0 DUP3 ADD MSTORE POP JUMP JUMPDEST PUSH0 PUSH2 0x1585 PUSH1 0xF DUP4 PUSH2 0x1288 JUMP JUMPDEST SWAP2 POP PUSH2 0x1590 DUP3 PUSH2 0x1551 JUMP JUMPDEST PUSH1 0x20 DUP3 ADD SWAP1 POP SWAP2 SWAP1 POP JUMP JUMPDEST PUSH0 PUSH1 0x20 DUP3 ADD SWAP1 POP DUP2 DUP2 SUB PUSH0 DUP4 ADD MSTORE PUSH2 0x15B2 DUP2 PUSH2 0x1579 JUMP JUMPDEST SWAP1 POP SWAP2 SWAP1 POP JUMP JUMPDEST PUSH32 0x4E487B7100000000000000000000000000000000000000000000000000000000 PUSH0 MSTORE PUSH1 0x11 PUSH1 0x4 MSTORE PUSH1 0x24 PUSH0 REVERT JUMPDEST PUSH0 PUSH2 0x15F0 DUP3 PUSH2 0x10DF JUMP JUMPDEST SWAP2 POP PUSH2 0x15FB DUP4 PUSH2 0x10DF JUMP JUMPDEST SWAP3 POP DUP3 DUP3 SUB SWAP1 POP DUP2 DUP2 GT ISZERO PUSH2 0x1613 JUMPI PUSH2 0x1612 PUSH2 0x15B9 JUMP JUMPDEST JUMPDEST SWAP3 SWAP2 POP POP JUMP JUMPDEST PUSH0 PUSH2 0x1623 DUP3 PUSH2 0x10DF JUMP JUMPDEST SWAP2 POP PUSH2 0x162E DUP4 PUSH2 0x10DF JUMP JUMPDEST SWAP3 POP DUP3 DUP3 MUL PUSH2 0x163C DUP2 PUSH2 0x10DF JUMP JUMPDEST SWAP2 POP DUP3 DUP3 DIV DUP5 EQ DUP4 ISZERO OR PUSH2 0x1653 JUMPI PUSH2 0x1652 PUSH2 0x15B9 JUMP JUMPDEST JUMPDEST POP SWAP3 SWAP2 POP POP JUMP JUMPDEST PUSH32 0x4E487B7100000000000000000000000000000000000000000000000000000000 PUSH0 MSTORE PUSH1 0x12 PUSH1 0x4 MSTORE PUSH1 0x24 PUSH0 REVERT JUMPDEST PUSH0 PUSH2 0x1691 DUP3 PUSH2 0x10DF JUMP JUMPDEST SWAP2 POP PUSH2 0x169C DUP4 PUSH2 0x10DF JUMP JUMPDEST SWAP3 POP DUP3 PUSH2 0x16AC JUMPI PUSH2 0x16AB PUSH2 0x165A JUMP JUMPDEST JUMPDEST DUP3 DUP3 DIV SWAP1 POP SWAP3 SWAP2 POP POP JUMP JUMPDEST PUSH32 0x4E6F7420656E6F756768205745544820696E20636F6E74726163740000000000 PUSH0 DUP3 ADD MSTORE POP JUMP JUMPDEST PUSH0 PUSH2 0x16EB PUSH1 0x1B DUP4 PUSH2 0x1288 JUMP JUMPDEST SWAP2 POP PUSH2 0x16F6 DUP3 PUSH2 0x16B7 JUMP JUMPDEST PUSH1 0x20 DUP3 ADD SWAP1 POP SWAP2 SWAP1 POP JUMP JUMPDEST PUSH0 PUSH1 0x20 DUP3 ADD SWAP1 POP DUP2 DUP2 SUB PUSH0 DUP4 ADD MSTORE PUSH2 0x1718 DUP2 PUSH2 0x16DF JUMP JUMPDEST SWAP1 POP SWAP2 SWAP1 POP JUMP JUMPDEST PUSH0 PUSH1 0x40 DUP3 ADD SWAP1 POP PUSH2 0x1732 PUSH0 DUP4 ADD DUP6 PUSH2 0x1140 JUMP JUMPDEST PUSH2 0x173F PUSH1 0x20 DUP4 ADD DUP5 PUSH2 0x10E8 JUMP JUMPDEST SWAP4 SWAP3 POP POP POP JUMP JUMPDEST PUSH32 0x57455448207472616E73666572206661696C6564000000000000000000000000 PUSH0 DUP3 ADD MSTORE POP JUMP JUMPDEST PUSH0 PUSH2 0x177A PUSH1 0x14 DUP4 PUSH2 0x1288 JUMP JUMPDEST SWAP2 POP PUSH2 0x1785 DUP3 PUSH2 0x1746 JUMP JUMPDEST PUSH1 0x20 DUP3 ADD SWAP1 POP SWAP2 SWAP1 POP JUMP JUMPDEST PUSH0 PUSH1 0x20 DUP3 ADD SWAP1 POP DUP2 DUP2 SUB PUSH0 DUP4 ADD MSTORE PUSH2 0x17A7 DUP2 PUSH2 0x176E JUMP JUMPDEST SWAP1 POP SWAP2 SWAP1 POP JUMP JUMPDEST PUSH0 PUSH1 0x40 DUP3 ADD SWAP1 POP PUSH2 0x17C1 PUSH0 DUP4 ADD DUP6 PUSH2 0x10E8 JUMP JUMPDEST PUSH2 0x17CE PUSH1 0x20 DUP4 ADD DUP5 PUSH2 0x10E8 JUMP JUMPDEST SWAP4 SWAP3 POP POP POP JUMP JUMPDEST PUSH32 0x496E76616C696420646973636F756E7420726174650000000000000000000000 PUSH0 DUP3 ADD MSTORE POP JUMP JUMPDEST PUSH0 PUSH2 0x1809 PUSH1 0x15 DUP4 PUSH2 0x1288 JUMP JUMPDEST SWAP2 POP PUSH2 0x1814 DUP3 PUSH2 0x17D5 JUMP JUMPDEST PUSH1 0x20 DUP3 ADD SWAP1 POP SWAP2 SWAP1 POP JUMP JUMPDEST PUSH0 PUSH1 0x20 DUP3 ADD SWAP1 POP DUP2 DUP2 SUB PUSH0 DUP4 ADD MSTORE PUSH2 0x1836 DUP2 PUSH2 0x17FD JUMP JUMPDEST SWAP1 POP SWAP2 SWAP1 POP JUMP JUMPDEST PUSH32 0x4E6577206F776E65722063616E6E6F74206265207A65726F2061646472657373 PUSH0 DUP3 ADD MSTORE POP JUMP JUMPDEST PUSH0 PUSH2 0x1871 PUSH1 0x20 DUP4 PUSH2 0x1288 JUMP JUMPDEST SWAP2 POP PUSH2 0x187C DUP3 PUSH2 0x183D JUMP JUMPDEST PUSH1 0x20 DUP3 ADD SWAP1 POP SWAP2 SWAP1 POP JUMP JUMPDEST PUSH0 PUSH1 0x20 DUP3 ADD SWAP1 POP DUP2 DUP2 SUB PUSH0 DUP4 ADD MSTORE PUSH2 0x189E DUP2 PUSH2 0x1865 JUMP JUMPDEST SWAP1 POP SWAP2 SWAP1 POP JUMP JUMPDEST PUSH32 0x57455448207769746864726177616C206661696C656400000000000000000000 PUSH0 DUP3 ADD MSTORE POP JUMP JUMPDEST PUSH0 PUSH2 0x18D9 PUSH1 0x16 DUP4 PUSH2 0x1288 JUMP JUMPDEST SWAP2 POP PUSH2 0x18E4 DUP3 PUSH2 0x18A5 JUMP JUMPDEST PUSH1 0x20 DUP3 ADD SWAP1 POP SWAP2 SWAP1 POP JUMP JUMPDEST PUSH0 PUSH1 0x20 DUP3 ADD SWAP1 POP DUP2 DUP2 SUB PUSH0 DUP4 ADD MSTORE PUSH2 0x1906 DUP2 PUSH2 0x18CD JUMP JUMPDEST SWAP1 POP SWAP2 SWAP1 POP JUMP INVALID LOG2 PUSH5 0x6970667358 0x22 SLT KECCAK256 CODECOPY SWAP7 0xC7 DUP6 DUP13 CALLDATALOAD 0xD1 SELFBALANCE 0xD9 MUL 0xC5 COINBASE CALLDATACOPY 0xD8 SWAP8 PUSH8 0x39BD0468C89C6681 0xDB 0xA9 0x21 BLOBBASEFEE 0xB6 DUP8 SWAP11 LOG2 PUSH5 0x736F6C6343 STOP ADDMOD SHR STOP CALLER "
				},
				"gasEstimates": {
					"creation": {
						"codeDepositCost": "1293400",
						"executionCost": "infinite",
						"totalCost": "infinite"
					},
					"external": {
						"buyback(uint256)": "infinite",
						"canExecuteBuyback(uint256)": "infinite",
						"contractWETHBalance()": "infinite",
						"depositWETH(uint256)": "infinite",
						"discountRate()": "2469",
						"mlAMPL()": "2531",
						"owner()": "2574",
						"setDiscountRate(uint256)": "24732",
						"setTargetPrice(uint256)": "24772",
						"targetPrice()": "2447",
						"transferOwnership(address)": "30661",
						"weth()": "2553",
						"withdrawWETH(uint256)": "infinite"
					}
				},
				"methodIdentifiers": {
					"buyback(uint256)": "79a9fa1c",
					"canExecuteBuyback(uint256)": "839ea2d9",
					"contractWETHBalance()": "33c92da9",
					"depositWETH(uint256)": "66dd0f24",
					"discountRate()": "e6c0e6d5",
					"mlAMPL()": "3a6eb3df",
					"owner()": "8da5cb5b",
					"setDiscountRate(uint256)": "7c69febd",
					"setTargetPrice(uint256)": "6a64eff8",
					"targetPrice()": "dc38679c",
					"transferOwnership(address)": "f2fde38b",
					"weth()": "3fc8cef3",
					"withdrawWETH(uint256)": "fc4dd333"
				}
			},
			"storageLayout": {
				"storage": [
					{
						"astId": 110,
						"contract": "buy_back.sol:BuyBack",
						"label": "owner",
						"offset": 0,
						"slot": "0",
						"type": "t_address"
					},
					{
						"astId": 112,
						"contract": "buy_back.sol:BuyBack",
						"label": "weth",
						"offset": 0,
						"slot": "1",
						"type": "t_address"
					},
					{
						"astId": 114,
						"contract": "buy_back.sol:BuyBack",
						"label": "mlAMPL",
						"offset": 0,
						"slot": "2",
						"type": "t_address"
					},
					{
						"astId": 116,
						"contract": "buy_back.sol:BuyBack",
						"label": "discountRate",
						"offset": 0,
						"slot": "3",
						"type": "t_uint256"
					},
					{
						"astId": 118,
						"contract": "buy_back.sol:BuyBack",
						"label": "targetPrice",
						"offset": 0,
						"slot": "4",
						"type": "t_uint256"
					}
				],
				"types": {
					"t_address": {
						"encoding": "inplace",
						"label": "address",
						"numberOfBytes": "20"
					},
					"t_uint256": {
						"encoding": "inplace",
						"label": "uint256",
						"numberOfBytes": "32"
					}
				}
			},
			"userdoc": {
				"kind": "user",
				"methods": {},
				"version": 1
			}
		}
	}
}