{
	"bonding_full.sol": {
		"Bonding": {
			"abi": [
				{
					"inputs": [
						{
							"internalType": "address",
							"name": "_weth",
							"type": "address"
						},
						{
							"internalType": "address",
							"name": "_mlAMPL",
							"type": "address"
						},
						{
							"internalType": "address",
							"name": "_positionManager",
							"type": "address"
						}
					],
					"stateMutability": "nonpayable",
					"type": "constructor"
				},
				{
					"anonymous": false,
					"inputs": [
						{
							"indexed": true,
							"internalType": "address",
							"name": "user",
							"type": "address"
						},
						{
							"indexed": false,
							"internalType": "uint256",
							"name": "wethAmount",
							"type": "uint256"
						},
						{
							"indexed": false,
							"internalType": "uint256",
							"name": "mlAMPLAmount",
							"type": "uint256"
						}
					],
					"name": "BondPurchased",
					"type": "event"
				},
				{
					"anonymous": false,
					"inputs": [
						{
							"indexed": false,
							"internalType": "uint256",
							"name": "tokenId",
							"type": "uint256"
						},
						{
							"indexed": false,
							"internalType": "uint128",
							"name": "liquidity",
							"type": "uint128"
						},
						{
							"indexed": false,
							"internalType": "uint256",
							"name": "amount0",
							"type": "uint256"
						},
						{
							"indexed": false,
							"internalType": "uint256",
							"name": "amount1",
							"type": "uint256"
						}
					],
					"name": "LiquidityProvided",
					"type": "event"
				},
				{
					"inputs": [
						{
							"internalType": "uint256",
							"name": "wethAmount",
							"type": "uint256"
						}
					],
					"name": "bond",
					"outputs": [],
					"stateMutability": "nonpayable",
					"type": "function"
				},
				{
					"inputs": [],
					"name": "discountRate",
					"outputs": [
						{
							"internalType": "uint256",
							"name": "",
							"type": "uint256"
						}
					],
					"stateMutability": "view",
					"type": "function"
				},
				{
					"inputs": [
						{
							"internalType": "uint256",
							"name": "price",
							"type": "uint256"
						}
					],
					"name": "getTickFromPrice",
					"outputs": [
						{
							"internalType": "int24",
							"name": "",
							"type": "int24"
						}
					],
					"stateMutability": "pure",
					"type": "function"
				},
				{
					"inputs": [],
					"name": "mlAMPL",
					"outputs": [
						{
							"internalType": "address",
							"name": "",
							"type": "address"
						}
					],
					"stateMutability": "view",
					"type": "function"
				},
				{
					"inputs": [],
					"name": "owner",
					"outputs": [
						{
							"internalType": "address",
							"name": "",
							"type": "address"
						}
					],
					"stateMutability": "view",
					"type": "function"
				},
				{
					"inputs": [],
					"name": "poolFee",
					"outputs": [
						{
							"internalType": "uint24",
							"name": "",
							"type": "uint24"
						}
					],
					"stateMutability": "view",
					"type": "function"
				},
				{
					"inputs": [],
					"name": "positionManager",
					"outputs": [
						{
							"internalType": "address",
							"name": "",
							"type": "address"
						}
					],
					"stateMutability": "view",
					"type": "function"
				},
				{
					"inputs": [
						{
							"internalType": "uint256",
							"name": "amount0Desired",
							"type": "uint256"
						}
					],
					"name": "provideLiquidity",
					"outputs": [],
					"stateMutability": "nonpayable",
					"type": "function"
				},
				{
					"inputs": [
						{
							"internalType": "uint256",
							"name": "_targetPrice",
							"type": "uint256"
						}
					],
					"name": "setTargetPrice",
					"outputs": [],
					"stateMutability": "nonpayable",
					"type": "function"
				},
				{
					"inputs": [],
					"name": "targetPrice",
					"outputs": [
						{
							"internalType": "uint256",
							"name": "",
							"type": "uint256"
						}
					],
					"stateMutability": "view",
					"type": "function"
				},
				{
					"inputs": [],
					"name": "weth",
					"outputs": [
						{
							"internalType": "address",
							"name": "",
							"type": "address"
						}
					],
					"stateMutability": "view",
					"type": "function"
				}
			],
			"devdoc": {
				"kind": "dev",
				"methods": {},
				"version": 1
			},
			"evm": {
				"assembly": "    /* \"bonding_full.sol\":1742:6257  contract Bonding {... */\n  mstore(0x40, 0x80)\n    /* \"bonding_full.sol\":1908:1912  3000 */\n  0x0bb8\n    /* \"bonding_full.sol\":1884:1912  uint24 public poolFee = 3000 */\n  0x03\n  exp(0x0100, 0x14)\n  dup2\n  sload\n  dup2\n  0xffffff\n  mul\n  not\n  and\n  swap1\n  dup4\n  0xffffff\n  and\n  mul\n  or\n  swap1\n  sstore\n  pop\n    /* \"bonding_full.sol\":1951:1952  5 */\n  0x05\n    /* \"bonding_full.sol\":1921:1952  uint256 public discountRate = 5 */\n  0x04\n  sstore\n    /* \"bonding_full.sol\":1988:2003  367377597059803 */\n  0x014e20c32bd2db\n    /* \"bonding_full.sol\":1959:2003  uint256 public targetPrice = 367377597059803 */\n  0x05\n  sstore\n    /* \"bonding_full.sol\":2204:2406  constructor(address _weth, address _mlAMPL, address _positionManager) {... */\n  callvalue\n  dup1\n  iszero\n  tag_1\n  jumpi\n  revert(0x00, 0x00)\ntag_1:\n  pop\n  mload(0x40)\n  sub(codesize, bytecodeSize)\n  dup1\n  bytecodeSize\n  dup4\n  codecopy\n  dup2\n  dup2\n  add\n  0x40\n  mstore\n  dup2\n  add\n  swap1\n  tag_2\n  swap2\n  swap1\n  tag_3\n  jump\t// in\ntag_2:\n    /* \"bonding_full.sol\":2293:2303  msg.sender */\n  caller\n    /* \"bonding_full.sol\":2285:2290  owner */\n  0x00\n  0x00\n    /* \"bonding_full.sol\":2285:2303  owner = msg.sender */\n  0x0100\n  exp\n  dup2\n  sload\n  dup2\n  0xffffffffffffffffffffffffffffffffffffffff\n  mul\n  not\n  and\n  swap1\n  dup4\n  0xffffffffffffffffffffffffffffffffffffffff\n  and\n  mul\n  or\n  swap1\n  sstore\n  pop\n    /* \"bonding_full.sol\":2321:2326  _weth */\n  dup3\n    /* \"bonding_full.sol\":2314:2318  weth */\n  0x01\n  0x00\n    /* \"bonding_full.sol\":2314:2326  weth = _weth */\n  0x0100\n  exp\n  dup2\n  sload\n  dup2\n  0xffffffffffffffffffffffffffffffffffffffff\n  mul\n  not\n  and\n  swap1\n  dup4\n  0xffffffffffffffffffffffffffffffffffffffff\n  and\n  mul\n  or\n  swap1\n  sstore\n  pop\n    /* \"bonding_full.sol\":2346:2353  _mlAMPL */\n  dup2\n    /* \"bonding_full.sol\":2337:2343  mlAMPL */\n  0x02\n  0x00\n    /* \"bonding_full.sol\":2337:2353  mlAMPL = _mlAMPL */\n  0x0100\n  exp\n  dup2\n  sload\n  dup2\n  0xffffffffffffffffffffffffffffffffffffffff\n  mul\n  not\n  and\n  swap1\n  dup4\n  0xffffffffffffffffffffffffffffffffffffffff\n  and\n  mul\n  or\n  swap1\n  sstore\n  pop\n    /* \"bonding_full.sol\":2382:2398  _positionManager */\n  dup1\n    /* \"bonding_full.sol\":2364:2379  positionManager */\n  0x03\n  0x00\n    /* \"bonding_full.sol\":2364:2398  positionManager = _positionManager */\n  0x0100\n  exp\n  dup2\n  sload\n  dup2\n  0xffffffffffffffffffffffffffffffffffffffff\n  mul\n  not\n  and\n  swap1\n  dup4\n  0xffffffffffffffffffffffffffffffffffffffff\n  and\n  mul\n  or\n  swap1\n  sstore\n  pop\n    /* \"bonding_full.sol\":2204:2406  constructor(address _weth, address _mlAMPL, address _positionManager) {... */\n  pop\n  pop\n  pop\n    /* \"bonding_full.sol\":1742:6257  contract Bonding {... */\n  jump(tag_6)\n    /* \"#utility.yul\":88:205   */\ntag_8:\n    /* \"#utility.yul\":197:198   */\n  0x00\n    /* \"#utility.yul\":194:195   */\n  0x00\n    /* \"#utility.yul\":187:199   */\n  revert\n    /* \"#utility.yul\":334:460   */\ntag_10:\n    /* \"#utility.yul\":371:378   */\n  0x00\n    /* \"#utility.yul\":411:453   */\n  0xffffffffffffffffffffffffffffffffffffffff\n    /* \"#utility.yul\":404:409   */\n  dup3\n    /* \"#utility.yul\":400:454   */\n  and\n    /* \"#utility.yul\":389:454   */\n  swap1\n  pop\n    /* \"#utility.yul\":334:460   */\n  swap2\n  swap1\n  pop\n  jump\t// out\n    /* \"#utility.yul\":466:562   */\ntag_11:\n    /* \"#utility.yul\":503:510   */\n  0x00\n    /* \"#utility.yul\":532:556   */\n  tag_20\n    /* \"#utility.yul\":550:555   */\n  dup3\n    /* \"#utility.yul\":532:556   */\n  tag_10\n  jump\t// in\ntag_20:\n    /* \"#utility.yul\":521:556   */\n  swap1\n  pop\n    /* \"#utility.yul\":466:562   */\n  swap2\n  swap1\n  pop\n  jump\t// out\n    /* \"#utility.yul\":568:690   */\ntag_12:\n    /* \"#utility.yul\":641:665   */\n  tag_22\n    /* \"#utility.yul\":659:664   */\n  dup2\n    /* \"#utility.yul\":641:665   */\n  tag_11\n  jump\t// in\ntag_22:\n    /* \"#utility.yul\":634:639   */\n  dup2\n    /* \"#utility.yul\":631:666   */\n  eq\n    /* \"#utility.yul\":621:684   */\n  tag_23\n  jumpi\n    /* \"#utility.yul\":680:681   */\n  0x00\n    /* \"#utility.yul\":677:678   */\n  0x00\n    /* \"#utility.yul\":670:682   */\n  revert\n    /* \"#utility.yul\":621:684   */\ntag_23:\n    /* \"#utility.yul\":568:690   */\n  pop\n  jump\t// out\n    /* \"#utility.yul\":696:839   */\ntag_13:\n    /* \"#utility.yul\":753:758   */\n  0x00\n    /* \"#utility.yul\":784:790   */\n  dup2\n    /* \"#utility.yul\":778:791   */\n  mload\n    /* \"#utility.yul\":769:791   */\n  swap1\n  pop\n    /* \"#utility.yul\":800:833   */\n  tag_25\n    /* \"#utility.yul\":827:832   */\n  dup2\n    /* \"#utility.yul\":800:833   */\n  tag_12\n  jump\t// in\ntag_25:\n    /* \"#utility.yul\":696:839   */\n  swap3\n  swap2\n  pop\n  pop\n  jump\t// out\n    /* \"#utility.yul\":845:1508   */\ntag_3:\n    /* \"#utility.yul\":933:939   */\n  0x00\n    /* \"#utility.yul\":941:947   */\n  0x00\n    /* \"#utility.yul\":949:955   */\n  0x00\n    /* \"#utility.yul\":998:1000   */\n  0x60\n    /* \"#utility.yul\":986:995   */\n  dup5\n    /* \"#utility.yul\":977:984   */\n  dup7\n    /* \"#utility.yul\":973:996   */\n  sub\n    /* \"#utility.yul\":969:1001   */\n  slt\n    /* \"#utility.yul\":966:1085   */\n  iszero\n  tag_27\n  jumpi\n    /* \"#utility.yul\":1004:1083   */\n  tag_28\n  tag_8\n  jump\t// in\ntag_28:\n    /* \"#utility.yul\":966:1085   */\ntag_27:\n    /* \"#utility.yul\":1124:1125   */\n  0x00\n    /* \"#utility.yul\":1149:1213   */\n  tag_29\n    /* \"#utility.yul\":1205:1212   */\n  dup7\n    /* \"#utility.yul\":1196:1202   */\n  dup3\n    /* \"#utility.yul\":1185:1194   */\n  dup8\n    /* \"#utility.yul\":1181:1203   */\n  add\n    /* \"#utility.yul\":1149:1213   */\n  tag_13\n  jump\t// in\ntag_29:\n    /* \"#utility.yul\":1139:1213   */\n  swap4\n  pop\n    /* \"#utility.yul\":1095:1223   */\n  pop\n    /* \"#utility.yul\":1262:1264   */\n  0x20\n    /* \"#utility.yul\":1288:1352   */\n  tag_30\n    /* \"#utility.yul\":1344:1351   */\n  dup7\n    /* \"#utility.yul\":1335:1341   */\n  dup3\n    /* \"#utility.yul\":1324:1333   */\n  dup8\n    /* \"#utility.yul\":1320:1342   */\n  add\n    /* \"#utility.yul\":1288:1352   */\n  tag_13\n  jump\t// in\ntag_30:\n    /* \"#utility.yul\":1278:1352   */\n  swap3\n  pop\n    /* \"#utility.yul\":1233:1362   */\n  pop\n    /* \"#utility.yul\":1401:1403   */\n  0x40\n    /* \"#utility.yul\":1427:1491   */\n  tag_31\n    /* \"#utility.yul\":1483:1490   */\n  dup7\n    /* \"#utility.yul\":1474:1480   */\n  dup3\n    /* \"#utility.yul\":1463:1472   */\n  dup8\n    /* \"#utility.yul\":1459:1481   */\n  add\n    /* \"#utility.yul\":1427:1491   */\n  tag_13\n  jump\t// in\ntag_31:\n    /* \"#utility.yul\":1417:1491   */\n  swap2\n  pop\n    /* \"#utility.yul\":1372:1501   */\n  pop\n    /* \"#utility.yul\":845:1508   */\n  swap3\n  pop\n  swap3\n  pop\n  swap3\n  jump\t// out\n    /* \"bonding_full.sol\":1742:6257  contract Bonding {... */\ntag_6:\n  dataSize(sub_0)\n  dup1\n  dataOffset(sub_0)\n  0x00\n  codecopy\n  0x00\n  return\nstop\n\nsub_0: assembly {\n        /* \"bonding_full.sol\":1742:6257  contract Bonding {... */\n      mstore(0x40, 0x80)\n      callvalue\n      dup1\n      iszero\n      tag_1\n      jumpi\n      revert(0x00, 0x00)\n    tag_1:\n      pop\n      jumpi(tag_2, lt(calldatasize, 0x04))\n      shr(0xe0, calldataload(0x00))\n      dup1\n      0x8da5cb5b\n      gt\n      tag_14\n      jumpi\n      dup1\n      0x8da5cb5b\n      eq\n      tag_8\n      jumpi\n      dup1\n      0x9940686e\n      eq\n      tag_9\n      jumpi\n      dup1\n      0xdc38679c\n      eq\n      tag_10\n      jumpi\n      dup1\n      0xdc5cc6f6\n      eq\n      tag_11\n      jumpi\n      dup1\n      0xe6c0e6d5\n      eq\n      tag_12\n      jumpi\n      dup1\n      0xeb521a4c\n      eq\n      tag_13\n      jumpi\n      jump(tag_2)\n    tag_14:\n      dup1\n      0x089fe6aa\n      eq\n      tag_3\n      jumpi\n      dup1\n      0x3a6eb3df\n      eq\n      tag_4\n      jumpi\n      dup1\n      0x3fc8cef3\n      eq\n      tag_5\n      jumpi\n      dup1\n      0x6a64eff8\n      eq\n      tag_6\n      jumpi\n      dup1\n      0x791b98bc\n      eq\n      tag_7\n      jumpi\n    tag_2:\n      revert(0x00, 0x00)\n        /* \"bonding_full.sol\":1884:1912  uint24 public poolFee = 3000 */\n    tag_3:\n      tag_15\n      tag_16\n      jump\t// in\n    tag_15:\n      mload(0x40)\n      tag_17\n      swap2\n      swap1\n      tag_18\n      jump\t// in\n    tag_17:\n      mload(0x40)\n      dup1\n      swap2\n      sub\n      swap1\n      return\n        /* \"bonding_full.sol\":1819:1840  address public mlAMPL */\n    tag_4:\n      tag_19\n      tag_20\n      jump\t// in\n    tag_19:\n      mload(0x40)\n      tag_21\n      swap2\n      swap1\n      tag_22\n      jump\t// in\n    tag_21:\n      mload(0x40)\n      dup1\n      swap2\n      sub\n      swap1\n      return\n        /* \"bonding_full.sol\":1793:1812  address public weth */\n    tag_5:\n      tag_23\n      tag_24\n      jump\t// in\n    tag_23:\n      mload(0x40)\n      tag_25\n      swap2\n      swap1\n      tag_22\n      jump\t// in\n    tag_25:\n      mload(0x40)\n      dup1\n      swap2\n      sub\n      swap1\n      return\n        /* \"bonding_full.sol\":2520:2630  function setTargetPrice(uint256 _targetPrice) external onlyOwner {... */\n    tag_6:\n      tag_26\n      0x04\n      dup1\n      calldatasize\n      sub\n      dup2\n      add\n      swap1\n      tag_27\n      swap2\n      swap1\n      tag_28\n      jump\t// in\n    tag_27:\n      tag_29\n      jump\t// in\n    tag_26:\n      stop\n        /* \"bonding_full.sol\":1847:1877  address public positionManager */\n    tag_7:\n      tag_30\n      tag_31\n      jump\t// in\n    tag_30:\n      mload(0x40)\n      tag_32\n      swap2\n      swap1\n      tag_22\n      jump\t// in\n    tag_32:\n      mload(0x40)\n      dup1\n      swap2\n      sub\n      swap1\n      return\n        /* \"bonding_full.sol\":1766:1786  address public owner */\n    tag_8:\n      tag_33\n      tag_34\n      jump\t// in\n    tag_33:\n      mload(0x40)\n      tag_35\n      swap2\n      swap1\n      tag_22\n      jump\t// in\n    tag_35:\n      mload(0x40)\n      dup1\n      swap2\n      sub\n      swap1\n      return\n        /* \"bonding_full.sol\":2638:3791  function bond(uint256 wethAmount) external {... */\n    tag_9:\n      tag_36\n      0x04\n      dup1\n      calldatasize\n      sub\n      dup2\n      add\n      swap1\n      tag_37\n      swap2\n      swap1\n      tag_28\n      jump\t// in\n    tag_37:\n      tag_38\n      jump\t// in\n    tag_36:\n      stop\n        /* \"bonding_full.sol\":1959:2003  uint256 public targetPrice = 367377597059803 */\n    tag_10:\n      tag_39\n      tag_40\n      jump\t// in\n    tag_39:\n      mload(0x40)\n      tag_41\n      swap2\n      swap1\n      tag_42\n      jump\t// in\n    tag_41:\n      mload(0x40)\n      dup1\n      swap2\n      sub\n      swap1\n      return\n        /* \"bonding_full.sol\":5099:5635  function getTickFromPrice(uint256 price) public pure returns (int24) {... */\n    tag_11:\n      tag_43\n      0x04\n      dup1\n      calldatasize\n      sub\n      dup2\n      add\n      swap1\n      tag_44\n      swap2\n      swap1\n      tag_28\n      jump\t// in\n    tag_44:\n      tag_45\n      jump\t// in\n    tag_43:\n      mload(0x40)\n      tag_46\n      swap2\n      swap1\n      tag_47\n      jump\t// in\n    tag_46:\n      mload(0x40)\n      dup1\n      swap2\n      sub\n      swap1\n      return\n        /* \"bonding_full.sol\":1921:1952  uint256 public discountRate = 5 */\n    tag_12:\n      tag_48\n      tag_49\n      jump\t// in\n    tag_48:\n      mload(0x40)\n      tag_50\n      swap2\n      swap1\n      tag_42\n      jump\t// in\n    tag_50:\n      mload(0x40)\n      dup1\n      swap2\n      sub\n      swap1\n      return\n        /* \"bonding_full.sol\":3799:5091  function provideLiquidity(uint256 amount0Desired) external onlyOwner {... */\n    tag_13:\n      tag_51\n      0x04\n      dup1\n      calldatasize\n      sub\n      dup2\n      add\n      swap1\n      tag_52\n      swap2\n      swap1\n      tag_28\n      jump\t// in\n    tag_52:\n      tag_53\n      jump\t// in\n    tag_51:\n      stop\n        /* \"bonding_full.sol\":1884:1912  uint24 public poolFee = 3000 */\n    tag_16:\n      0x03\n      0x14\n      swap1\n      sload\n      swap1\n      0x0100\n      exp\n      swap1\n      div\n      0xffffff\n      and\n      dup2\n      jump\t// out\n        /* \"bonding_full.sol\":1819:1840  address public mlAMPL */\n    tag_20:\n      0x02\n      0x00\n      swap1\n      sload\n      swap1\n      0x0100\n      exp\n      swap1\n      div\n      0xffffffffffffffffffffffffffffffffffffffff\n      and\n      dup2\n      jump\t// out\n        /* \"bonding_full.sol\":1793:1812  address public weth */\n    tag_24:\n      0x01\n      0x00\n      swap1\n      sload\n      swap1\n      0x0100\n      exp\n      swap1\n      div\n      0xffffffffffffffffffffffffffffffffffffffff\n      and\n      dup2\n      jump\t// out\n        /* \"bonding_full.sol\":2520:2630  function setTargetPrice(uint256 _targetPrice) external onlyOwner {... */\n    tag_29:\n        /* \"bonding_full.sol\":2468:2473  owner */\n      0x00\n      0x00\n      swap1\n      sload\n      swap1\n      0x0100\n      exp\n      swap1\n      div\n      0xffffffffffffffffffffffffffffffffffffffff\n      and\n        /* \"bonding_full.sol\":2454:2473  msg.sender == owner */\n      0xffffffffffffffffffffffffffffffffffffffff\n      and\n        /* \"bonding_full.sol\":2454:2464  msg.sender */\n      caller\n        /* \"bonding_full.sol\":2454:2473  msg.sender == owner */\n      0xffffffffffffffffffffffffffffffffffffffff\n      and\n      eq\n        /* \"bonding_full.sol\":2446:2492  require(msg.sender == owner, \"Not authorized\") */\n      tag_55\n      jumpi\n      mload(0x40)\n      0x08c379a000000000000000000000000000000000000000000000000000000000\n      dup2\n      mstore\n      0x04\n      add\n      tag_56\n      swap1\n      tag_57\n      jump\t// in\n    tag_56:\n      mload(0x40)\n      dup1\n      swap2\n      sub\n      swap1\n      revert\n    tag_55:\n        /* \"bonding_full.sol\":2610:2622  _targetPrice */\n      dup1\n        /* \"bonding_full.sol\":2596:2607  targetPrice */\n      0x05\n        /* \"bonding_full.sol\":2596:2622  targetPrice = _targetPrice */\n      dup2\n      swap1\n      sstore\n      pop\n        /* \"bonding_full.sol\":2520:2630  function setTargetPrice(uint256 _targetPrice) external onlyOwner {... */\n      pop\n      jump\t// out\n        /* \"bonding_full.sol\":1847:1877  address public positionManager */\n    tag_31:\n      0x03\n      0x00\n      swap1\n      sload\n      swap1\n      0x0100\n      exp\n      swap1\n      div\n      0xffffffffffffffffffffffffffffffffffffffff\n      and\n      dup2\n      jump\t// out\n        /* \"bonding_full.sol\":1766:1786  address public owner */\n    tag_34:\n      0x00\n      0x00\n      swap1\n      sload\n      swap1\n      0x0100\n      exp\n      swap1\n      div\n      0xffffffffffffffffffffffffffffffffffffffff\n      and\n      dup2\n      jump\t// out\n        /* \"bonding_full.sol\":2638:3791  function bond(uint256 wethAmount) external {... */\n    tag_38:\n        /* \"bonding_full.sol\":2713:2714  0 */\n      0x00\n        /* \"bonding_full.sol\":2700:2710  wethAmount */\n      dup2\n        /* \"bonding_full.sol\":2700:2714  wethAmount > 0 */\n      gt\n        /* \"bonding_full.sol\":2692:2736  require(wethAmount > 0, \"Must deposit WETH\") */\n      tag_60\n      jumpi\n      mload(0x40)\n      0x08c379a000000000000000000000000000000000000000000000000000000000\n      dup2\n      mstore\n      0x04\n      add\n      tag_61\n      swap1\n      tag_62\n      jump\t// in\n    tag_61:\n      mload(0x40)\n      dup1\n      swap2\n      sub\n      swap1\n      revert\n    tag_60:\n        /* \"bonding_full.sol\":2747:2764  uint256 allowance */\n      0x00\n        /* \"bonding_full.sol\":2773:2777  weth */\n      0x01\n      0x00\n      swap1\n      sload\n      swap1\n      0x0100\n      exp\n      swap1\n      div\n      0xffffffffffffffffffffffffffffffffffffffff\n      and\n        /* \"bonding_full.sol\":2767:2788  IWETH(weth).allowance */\n      0xffffffffffffffffffffffffffffffffffffffff\n      and\n      0xdd62ed3e\n        /* \"bonding_full.sol\":2789:2799  msg.sender */\n      caller\n        /* \"bonding_full.sol\":2809:2813  this */\n      address\n        /* \"bonding_full.sol\":2767:2815  IWETH(weth).allowance(msg.sender, address(this)) */\n      mload(0x40)\n      dup4\n      0xffffffff\n      and\n      0xe0\n      shl\n      dup2\n      mstore\n      0x04\n      add\n      tag_63\n      swap3\n      swap2\n      swap1\n      tag_64\n      jump\t// in\n    tag_63:\n      0x20\n      mload(0x40)\n      dup1\n      dup4\n      sub\n      dup2\n      dup7\n      gas\n      staticcall\n      iszero\n      dup1\n      iszero\n      tag_66\n      jumpi\n      returndatacopy(0x00, 0x00, returndatasize)\n      revert(0x00, returndatasize)\n    tag_66:\n      pop\n      pop\n      pop\n      pop\n      mload(0x40)\n      returndatasize\n      not(0x1f)\n      0x1f\n      dup3\n      add\n      and\n      dup3\n      add\n      dup1\n      0x40\n      mstore\n      pop\n      dup2\n      add\n      swap1\n      tag_67\n      swap2\n      swap1\n      tag_68\n      jump\t// in\n    tag_67:\n        /* \"bonding_full.sol\":2747:2815  uint256 allowance = IWETH(weth).allowance(msg.sender, address(this)) */\n      swap1\n      pop\n        /* \"bonding_full.sol\":2847:2857  wethAmount */\n      dup2\n        /* \"bonding_full.sol\":2834:2843  allowance */\n      dup2\n        /* \"bonding_full.sol\":2834:2857  allowance >= wethAmount */\n      lt\n      iszero\n        /* \"bonding_full.sol\":2826:2886  require(allowance >= wethAmount, \"Allowance not sufficient\") */\n      tag_69\n      jumpi\n      mload(0x40)\n      0x08c379a000000000000000000000000000000000000000000000000000000000\n      dup2\n      mstore\n      0x04\n      add\n      tag_70\n      swap1\n      tag_71\n      jump\t// in\n    tag_70:\n      mload(0x40)\n      dup1\n      swap2\n      sub\n      swap1\n      revert\n    tag_69:\n        /* \"bonding_full.sol\":2905:2909  weth */\n      0x01\n      0x00\n      swap1\n      sload\n      swap1\n      0x0100\n      exp\n      swap1\n      div\n      0xffffffffffffffffffffffffffffffffffffffff\n      and\n        /* \"bonding_full.sol\":2899:2923  IWETH(weth).transferFrom */\n      0xffffffffffffffffffffffffffffffffffffffff\n      and\n      0x23b872dd\n        /* \"bonding_full.sol\":2924:2934  msg.sender */\n      caller\n        /* \"bonding_full.sol\":2944:2948  this */\n      address\n        /* \"bonding_full.sol\":2951:2961  wethAmount */\n      dup6\n        /* \"bonding_full.sol\":2899:2962  IWETH(weth).transferFrom(msg.sender, address(this), wethAmount) */\n      mload(0x40)\n      dup5\n      0xffffffff\n      and\n      0xe0\n      shl\n      dup2\n      mstore\n      0x04\n      add\n      tag_72\n      swap4\n      swap3\n      swap2\n      swap1\n      tag_73\n      jump\t// in\n    tag_72:\n      0x20\n      mload(0x40)\n      dup1\n      dup4\n      sub\n      dup2\n      0x00\n      dup8\n      gas\n      call\n      iszero\n      dup1\n      iszero\n      tag_75\n      jumpi\n      returndatacopy(0x00, 0x00, returndatasize)\n      revert(0x00, returndatasize)\n    tag_75:\n      pop\n      pop\n      pop\n      pop\n      mload(0x40)\n      returndatasize\n      not(0x1f)\n      0x1f\n      dup3\n      add\n      and\n      dup3\n      add\n      dup1\n      0x40\n      mstore\n      pop\n      dup2\n      add\n      swap1\n      tag_76\n      swap2\n      swap1\n      tag_77\n      jump\t// in\n    tag_76:\n      pop\n        /* \"bonding_full.sol\":2975:2998  uint256 discountedPrice */\n      0x00\n        /* \"bonding_full.sol\":3040:3043  100 */\n      0x64\n        /* \"bonding_full.sol\":3023:3035  discountRate */\n      sload(0x04)\n        /* \"bonding_full.sol\":3017:3020  100 */\n      0x64\n        /* \"bonding_full.sol\":3017:3035  100 - discountRate */\n      tag_78\n      swap2\n      swap1\n      tag_79\n      jump\t// in\n    tag_78:\n        /* \"bonding_full.sol\":3002:3013  targetPrice */\n      sload(0x05)\n        /* \"bonding_full.sol\":3002:3036  targetPrice * (100 - discountRate) */\n      tag_80\n      swap2\n      swap1\n      tag_81\n      jump\t// in\n    tag_80:\n        /* \"bonding_full.sol\":3001:3043  (targetPrice * (100 - discountRate)) / 100 */\n      tag_82\n      swap2\n      swap1\n      tag_83\n      jump\t// in\n    tag_82:\n        /* \"bonding_full.sol\":2975:3043  uint256 discountedPrice = (targetPrice * (100 - discountRate)) / 100 */\n      swap1\n      pop\n        /* \"bonding_full.sol\":3054:3074  uint256 mlAMPLAmount */\n      0x00\n        /* \"bonding_full.sol\":3099:3114  discountedPrice */\n      dup2\n        /* \"bonding_full.sol\":3091:3095  1e18 */\n      0x0de0b6b3a7640000\n        /* \"bonding_full.sol\":3078:3088  wethAmount */\n      dup6\n        /* \"bonding_full.sol\":3078:3095  wethAmount * 1e18 */\n      tag_84\n      swap2\n      swap1\n      tag_81\n      jump\t// in\n    tag_84:\n        /* \"bonding_full.sol\":3077:3114  (wethAmount * 1e18) / discountedPrice */\n      tag_85\n      swap2\n      swap1\n      tag_83\n      jump\t// in\n    tag_85:\n        /* \"bonding_full.sol\":3054:3114  uint256 mlAMPLAmount = (wethAmount * 1e18) / discountedPrice */\n      swap1\n      pop\n        /* \"bonding_full.sol\":3127:3149  uint256 currentBalance */\n      0x00\n        /* \"bonding_full.sol\":3160:3166  mlAMPL */\n      0x02\n      0x00\n      swap1\n      sload\n      swap1\n      0x0100\n      exp\n      swap1\n      div\n      0xffffffffffffffffffffffffffffffffffffffff\n      and\n        /* \"bonding_full.sol\":3152:3177  IMLAMPL(mlAMPL).balanceOf */\n      0xffffffffffffffffffffffffffffffffffffffff\n      and\n      0x70a08231\n        /* \"bonding_full.sol\":3186:3190  this */\n      address\n        /* \"bonding_full.sol\":3152:3192  IMLAMPL(mlAMPL).balanceOf(address(this)) */\n      mload(0x40)\n      dup3\n      0xffffffff\n      and\n      0xe0\n      shl\n      dup2\n      mstore\n      0x04\n      add\n      tag_86\n      swap2\n      swap1\n      tag_22\n      jump\t// in\n    tag_86:\n      0x20\n      mload(0x40)\n      dup1\n      dup4\n      sub\n      dup2\n      dup7\n      gas\n      staticcall\n      iszero\n      dup1\n      iszero\n      tag_88\n      jumpi\n      returndatacopy(0x00, 0x00, returndatasize)\n      revert(0x00, returndatasize)\n    tag_88:\n      pop\n      pop\n      pop\n      pop\n      mload(0x40)\n      returndatasize\n      not(0x1f)\n      0x1f\n      dup3\n      add\n      and\n      dup3\n      add\n      dup1\n      0x40\n      mstore\n      pop\n      dup2\n      add\n      swap1\n      tag_89\n      swap2\n      swap1\n      tag_68\n      jump\t// in\n    tag_89:\n        /* \"bonding_full.sol\":3127:3192  uint256 currentBalance = IMLAMPL(mlAMPL).balanceOf(address(this)) */\n      swap1\n      pop\n        /* \"bonding_full.sol\":3224:3236  mlAMPLAmount */\n      dup2\n        /* \"bonding_full.sol\":3207:3221  currentBalance */\n      dup2\n        /* \"bonding_full.sol\":3207:3236  currentBalance < mlAMPLAmount */\n      lt\n        /* \"bonding_full.sol\":3203:3652  if (currentBalance < mlAMPLAmount) {... */\n      iszero\n      tag_90\n      jumpi\n        /* \"bonding_full.sol\":3253:3271  uint256 mintAmount */\n      0x00\n        /* \"bonding_full.sol\":3289:3303  currentBalance */\n      dup2\n        /* \"bonding_full.sol\":3274:3286  mlAMPLAmount */\n      dup4\n        /* \"bonding_full.sol\":3274:3303  mlAMPLAmount - currentBalance */\n      tag_91\n      swap2\n      swap1\n      tag_79\n      jump\t// in\n    tag_91:\n        /* \"bonding_full.sol\":3253:3303  uint256 mintAmount = mlAMPLAmount - currentBalance */\n      swap1\n      pop\n        /* \"bonding_full.sol\":3318:3337  uint256 totalSupply */\n      0x00\n        /* \"bonding_full.sol\":3348:3354  mlAMPL */\n      0x02\n      0x00\n      swap1\n      sload\n      swap1\n      0x0100\n      exp\n      swap1\n      div\n      0xffffffffffffffffffffffffffffffffffffffff\n      and\n        /* \"bonding_full.sol\":3340:3367  IMLAMPL(mlAMPL).totalSupply */\n      0xffffffffffffffffffffffffffffffffffffffff\n      and\n      0x18160ddd\n        /* \"bonding_full.sol\":3340:3369  IMLAMPL(mlAMPL).totalSupply() */\n      mload(0x40)\n      dup2\n      0xffffffff\n      and\n      0xe0\n      shl\n      dup2\n      mstore\n      0x04\n      add\n      0x20\n      mload(0x40)\n      dup1\n      dup4\n      sub\n      dup2\n      dup7\n      gas\n      staticcall\n      iszero\n      dup1\n      iszero\n      tag_93\n      jumpi\n      returndatacopy(0x00, 0x00, returndatasize)\n      revert(0x00, returndatasize)\n    tag_93:\n      pop\n      pop\n      pop\n      pop\n      mload(0x40)\n      returndatasize\n      not(0x1f)\n      0x1f\n      dup3\n      add\n      and\n      dup3\n      add\n      dup1\n      0x40\n      mstore\n      pop\n      dup2\n      add\n      swap1\n      tag_94\n      swap2\n      swap1\n      tag_68\n      jump\t// in\n    tag_94:\n        /* \"bonding_full.sol\":3318:3369  uint256 totalSupply = IMLAMPL(mlAMPL).totalSupply() */\n      swap1\n      pop\n        /* \"bonding_full.sol\":3405:3406  0 */\n      0x00\n        /* \"bonding_full.sol\":3390:3401  totalSupply */\n      dup2\n        /* \"bonding_full.sol\":3390:3406  totalSupply == 0 */\n      sub\n        /* \"bonding_full.sol\":3386:3641  if (totalSupply == 0) {... */\n      tag_95\n      jumpi\n        /* \"bonding_full.sol\":3435:3441  mlAMPL */\n      0x02\n      0x00\n      swap1\n      sload\n      swap1\n      0x0100\n      exp\n      swap1\n      div\n      0xffffffffffffffffffffffffffffffffffffffff\n      and\n        /* \"bonding_full.sol\":3427:3459  IMLAMPL(mlAMPL).initializeSupply */\n      0xffffffffffffffffffffffffffffffffffffffff\n      and\n      0xd9e63bb1\n        /* \"bonding_full.sol\":3460:3470  mintAmount */\n      dup4\n        /* \"bonding_full.sol\":3427:3471  IMLAMPL(mlAMPL).initializeSupply(mintAmount) */\n      mload(0x40)\n      dup3\n      0xffffffff\n      and\n      0xe0\n      shl\n      dup2\n      mstore\n      0x04\n      add\n      tag_96\n      swap2\n      swap1\n      tag_42\n      jump\t// in\n    tag_96:\n      0x00\n      mload(0x40)\n      dup1\n      dup4\n      sub\n      dup2\n      0x00\n      dup8\n      dup1\n      extcodesize\n      iszero\n      dup1\n      iszero\n      tag_97\n      jumpi\n      revert(0x00, 0x00)\n    tag_97:\n      pop\n      gas\n      call\n      iszero\n      dup1\n      iszero\n      tag_99\n      jumpi\n      returndatacopy(0x00, 0x00, returndatasize)\n      revert(0x00, returndatasize)\n    tag_99:\n      pop\n      pop\n      pop\n      pop\n        /* \"bonding_full.sol\":3386:3641  if (totalSupply == 0) {... */\n      jump(tag_100)\n    tag_95:\n        /* \"bonding_full.sol\":3512:3529  int256 rebaseRate */\n      0x00\n        /* \"bonding_full.sol\":3560:3571  totalSupply */\n      dup2\n        /* \"bonding_full.sol\":3553:3556  1e6 */\n      0x0f4240\n        /* \"bonding_full.sol\":3540:3550  mintAmount */\n      dup5\n        /* \"bonding_full.sol\":3540:3556  mintAmount * 1e6 */\n      tag_101\n      swap2\n      swap1\n      tag_81\n      jump\t// in\n    tag_101:\n        /* \"bonding_full.sol\":3539:3571  (mintAmount * 1e6) / totalSupply */\n      tag_102\n      swap2\n      swap1\n      tag_83\n      jump\t// in\n    tag_102:\n        /* \"bonding_full.sol\":3512:3572  int256 rebaseRate = int256((mintAmount * 1e6) / totalSupply) */\n      swap1\n      pop\n        /* \"bonding_full.sol\":3599:3605  mlAMPL */\n      0x02\n      0x00\n      swap1\n      sload\n      swap1\n      0x0100\n      exp\n      swap1\n      div\n      0xffffffffffffffffffffffffffffffffffffffff\n      and\n        /* \"bonding_full.sol\":3591:3613  IMLAMPL(mlAMPL).rebase */\n      0xffffffffffffffffffffffffffffffffffffffff\n      and\n      0x0ab114f9\n        /* \"bonding_full.sol\":3614:3624  rebaseRate */\n      dup3\n        /* \"bonding_full.sol\":3591:3625  IMLAMPL(mlAMPL).rebase(rebaseRate) */\n      mload(0x40)\n      dup3\n      0xffffffff\n      and\n      0xe0\n      shl\n      dup2\n      mstore\n      0x04\n      add\n      tag_103\n      swap2\n      swap1\n      tag_104\n      jump\t// in\n    tag_103:\n      0x00\n      mload(0x40)\n      dup1\n      dup4\n      sub\n      dup2\n      0x00\n      dup8\n      dup1\n      extcodesize\n      iszero\n      dup1\n      iszero\n      tag_105\n      jumpi\n      revert(0x00, 0x00)\n    tag_105:\n      pop\n      gas\n      call\n      iszero\n      dup1\n      iszero\n      tag_107\n      jumpi\n      returndatacopy(0x00, 0x00, returndatasize)\n      revert(0x00, returndatasize)\n    tag_107:\n      pop\n      pop\n      pop\n      pop\n        /* \"bonding_full.sol\":3493:3641  {... */\n      pop\n        /* \"bonding_full.sol\":3386:3641  if (totalSupply == 0) {... */\n    tag_100:\n        /* \"bonding_full.sol\":3238:3652  {... */\n      pop\n      pop\n        /* \"bonding_full.sol\":3203:3652  if (currentBalance < mlAMPLAmount) {... */\n    tag_90:\n        /* \"bonding_full.sol\":3672:3678  mlAMPL */\n      0x02\n      0x00\n      swap1\n      sload\n      swap1\n      0x0100\n      exp\n      swap1\n      div\n      0xffffffffffffffffffffffffffffffffffffffff\n      and\n        /* \"bonding_full.sol\":3664:3688  IMLAMPL(mlAMPL).transfer */\n      0xffffffffffffffffffffffffffffffffffffffff\n      and\n      0xa9059cbb\n        /* \"bonding_full.sol\":3689:3699  msg.sender */\n      caller\n        /* \"bonding_full.sol\":3701:3713  mlAMPLAmount */\n      dup5\n        /* \"bonding_full.sol\":3664:3714  IMLAMPL(mlAMPL).transfer(msg.sender, mlAMPLAmount) */\n      mload(0x40)\n      dup4\n      0xffffffff\n      and\n      0xe0\n      shl\n      dup2\n      mstore\n      0x04\n      add\n      tag_108\n      swap3\n      swap2\n      swap1\n      tag_109\n      jump\t// in\n    tag_108:\n      0x20\n      mload(0x40)\n      dup1\n      dup4\n      sub\n      dup2\n      0x00\n      dup8\n      gas\n      call\n      iszero\n      dup1\n      iszero\n      tag_111\n      jumpi\n      returndatacopy(0x00, 0x00, returndatasize)\n      revert(0x00, returndatasize)\n    tag_111:\n      pop\n      pop\n      pop\n      pop\n      mload(0x40)\n      returndatasize\n      not(0x1f)\n      0x1f\n      dup3\n      add\n      and\n      dup3\n      add\n      dup1\n      0x40\n      mstore\n      pop\n      dup2\n      add\n      swap1\n      tag_112\n      swap2\n      swap1\n      tag_77\n      jump\t// in\n    tag_112:\n      pop\n        /* \"bonding_full.sol\":3746:3756  msg.sender */\n      caller\n        /* \"bonding_full.sol\":3732:3783  BondPurchased(msg.sender, wethAmount, mlAMPLAmount) */\n      0xffffffffffffffffffffffffffffffffffffffff\n      and\n      0x0db13e87b3f9c3b8f5f3acad928df55c52ba6bf7795af4ec069de5e23caacb37\n        /* \"bonding_full.sol\":3758:3768  wethAmount */\n      dup7\n        /* \"bonding_full.sol\":3770:3782  mlAMPLAmount */\n      dup5\n        /* \"bonding_full.sol\":3732:3783  BondPurchased(msg.sender, wethAmount, mlAMPLAmount) */\n      mload(0x40)\n      tag_113\n      swap3\n      swap2\n      swap1\n      tag_114\n      jump\t// in\n    tag_113:\n      mload(0x40)\n      dup1\n      swap2\n      sub\n      swap1\n      log2\n        /* \"bonding_full.sol\":2681:3791  {... */\n      pop\n      pop\n      pop\n      pop\n        /* \"bonding_full.sol\":2638:3791  function bond(uint256 wethAmount) external {... */\n      pop\n      jump\t// out\n        /* \"bonding_full.sol\":1959:2003  uint256 public targetPrice = 367377597059803 */\n    tag_40:\n      sload(0x05)\n      dup2\n      jump\t// out\n        /* \"bonding_full.sol\":5099:5635  function getTickFromPrice(uint256 price) public pure returns (int24) {... */\n    tag_45:\n        /* \"bonding_full.sol\":5161:5166  int24 */\n      0x00\n        /* \"bonding_full.sol\":5179:5196  uint256 sqrtPrice */\n      0x00\n        /* \"bonding_full.sol\":5199:5210  sqrt(price) */\n      tag_116\n        /* \"bonding_full.sol\":5204:5209  price */\n      dup4\n        /* \"bonding_full.sol\":5199:5203  sqrt */\n      tag_117\n        /* \"bonding_full.sol\":5199:5210  sqrt(price) */\n      jump\t// in\n    tag_116:\n        /* \"bonding_full.sol\":5179:5210  uint256 sqrtPrice = sqrt(price) */\n      swap1\n      pop\n        /* \"bonding_full.sol\":5221:5241  uint256 sqrtPriceX96 */\n      0x00\n        /* \"bonding_full.sol\":5257:5262  2**96 */\n      0x01000000000000000000000000\n        /* \"bonding_full.sol\":5244:5253  sqrtPrice */\n      dup3\n        /* \"bonding_full.sol\":5244:5263  sqrtPrice * (2**96) */\n      tag_118\n      swap2\n      swap1\n      tag_81\n      jump\t// in\n    tag_118:\n        /* \"bonding_full.sol\":5221:5263  uint256 sqrtPriceX96 = sqrtPrice * (2**96) */\n      swap1\n      pop\n        /* \"bonding_full.sol\":5314:5331  uint256 logResult */\n      0x00\n        /* \"bonding_full.sol\":5334:5369  logBase(sqrtPriceX96, 10001, 10000) */\n      tag_119\n        /* \"bonding_full.sol\":5342:5354  sqrtPriceX96 */\n      dup3\n        /* \"bonding_full.sol\":5356:5361  10001 */\n      0x2711\n        /* \"bonding_full.sol\":5363:5368  10000 */\n      0x2710\n        /* \"bonding_full.sol\":5334:5341  logBase */\n      tag_120\n        /* \"bonding_full.sol\":5334:5369  logBase(sqrtPriceX96, 10001, 10000) */\n      jump\t// in\n    tag_119:\n        /* \"bonding_full.sol\":5314:5369  uint256 logResult = logBase(sqrtPriceX96, 10001, 10000) */\n      swap1\n      pop\n        /* \"bonding_full.sol\":5477:5492  type(int24).min */\n      0xffffffffffffffffffffffffffffffffffffffffffffffffffffffffff800000\n        /* \"bonding_full.sol\":5456:5492  int256(logResult) >= type(int24).min */\n      0x02\n      signextend\n        /* \"bonding_full.sol\":5463:5472  logResult */\n      dup2\n        /* \"bonding_full.sol\":5456:5492  int256(logResult) >= type(int24).min */\n      slt\n      iszero\n        /* \"bonding_full.sol\":5456:5532  int256(logResult) >= type(int24).min && int256(logResult) <= type(int24).max */\n      dup1\n      iszero\n      tag_121\n      jumpi\n      pop\n        /* \"bonding_full.sol\":5517:5532  type(int24).max */\n      0x7fffff\n        /* \"bonding_full.sol\":5496:5532  int256(logResult) <= type(int24).max */\n      0x02\n      signextend\n        /* \"bonding_full.sol\":5503:5512  logResult */\n      dup2\n        /* \"bonding_full.sol\":5496:5532  int256(logResult) <= type(int24).max */\n      sgt\n      iszero\n        /* \"bonding_full.sol\":5456:5532  int256(logResult) >= type(int24).min && int256(logResult) <= type(int24).max */\n    tag_121:\n        /* \"bonding_full.sol\":5434:5583  require(... */\n      tag_122\n      jumpi\n      mload(0x40)\n      0x08c379a000000000000000000000000000000000000000000000000000000000\n      dup2\n      mstore\n      0x04\n      add\n      tag_123\n      swap1\n      tag_124\n      jump\t// in\n    tag_123:\n      mload(0x40)\n      dup1\n      swap2\n      sub\n      swap1\n      revert\n    tag_122:\n        /* \"bonding_full.sol\":5616:5625  logResult */\n      dup1\n        /* \"bonding_full.sol\":5596:5627  return int24(int256(logResult)) */\n      swap4\n      pop\n      pop\n      pop\n      pop\n        /* \"bonding_full.sol\":5099:5635  function getTickFromPrice(uint256 price) public pure returns (int24) {... */\n      swap2\n      swap1\n      pop\n      jump\t// out\n        /* \"bonding_full.sol\":1921:1952  uint256 public discountRate = 5 */\n    tag_49:\n      sload(0x04)\n      dup2\n      jump\t// out\n        /* \"bonding_full.sol\":3799:5091  function provideLiquidity(uint256 amount0Desired) external onlyOwner {... */\n    tag_53:\n        /* \"bonding_full.sol\":2468:2473  owner */\n      0x00\n      0x00\n      swap1\n      sload\n      swap1\n      0x0100\n      exp\n      swap1\n      div\n      0xffffffffffffffffffffffffffffffffffffffff\n      and\n        /* \"bonding_full.sol\":2454:2473  msg.sender == owner */\n      0xffffffffffffffffffffffffffffffffffffffff\n      and\n        /* \"bonding_full.sol\":2454:2464  msg.sender */\n      caller\n        /* \"bonding_full.sol\":2454:2473  msg.sender == owner */\n      0xffffffffffffffffffffffffffffffffffffffff\n      and\n      eq\n        /* \"bonding_full.sol\":2446:2492  require(msg.sender == owner, \"Not authorized\") */\n      tag_126\n      jumpi\n      mload(0x40)\n      0x08c379a000000000000000000000000000000000000000000000000000000000\n      dup2\n      mstore\n      0x04\n      add\n      tag_127\n      swap1\n      tag_57\n      jump\t// in\n    tag_127:\n      mload(0x40)\n      dup1\n      swap2\n      sub\n      swap1\n      revert\n    tag_126:\n        /* \"bonding_full.sol\":3879:3901  uint256 amount1Desired */\n      0x00\n        /* \"bonding_full.sol\":3930:3941  targetPrice */\n      sload(0x05)\n        /* \"bonding_full.sol\":3922:3926  1e18 */\n      0x0de0b6b3a7640000\n        /* \"bonding_full.sol\":3905:3919  amount0Desired */\n      dup4\n        /* \"bonding_full.sol\":3905:3926  amount0Desired * 1e18 */\n      tag_129\n      swap2\n      swap1\n      tag_81\n      jump\t// in\n    tag_129:\n        /* \"bonding_full.sol\":3904:3941  (amount0Desired * 1e18) / targetPrice */\n      tag_130\n      swap2\n      swap1\n      tag_83\n      jump\t// in\n    tag_130:\n        /* \"bonding_full.sol\":3879:3941  uint256 amount1Desired = (amount0Desired * 1e18) / targetPrice */\n      swap1\n      pop\n        /* \"bonding_full.sol\":3954:3972  uint256 lowerPrice */\n      0x00\n        /* \"bonding_full.sol\":3996:3999  100 */\n      0x64\n        /* \"bonding_full.sol\":3990:3992  95 */\n      0x5f\n        /* \"bonding_full.sol\":3976:3987  targetPrice */\n      sload(0x05)\n        /* \"bonding_full.sol\":3976:3992  targetPrice * 95 */\n      tag_131\n      swap2\n      swap1\n      tag_81\n      jump\t// in\n    tag_131:\n        /* \"bonding_full.sol\":3975:3999  (targetPrice * 95) / 100 */\n      tag_132\n      swap2\n      swap1\n      tag_83\n      jump\t// in\n    tag_132:\n        /* \"bonding_full.sol\":3954:3999  uint256 lowerPrice = (targetPrice * 95) / 100 */\n      swap1\n      pop\n        /* \"bonding_full.sol\":4010:4028  uint256 upperPrice */\n      0x00\n        /* \"bonding_full.sol\":4053:4056  100 */\n      0x64\n        /* \"bonding_full.sol\":4046:4049  105 */\n      0x69\n        /* \"bonding_full.sol\":4032:4043  targetPrice */\n      sload(0x05)\n        /* \"bonding_full.sol\":4032:4049  targetPrice * 105 */\n      tag_133\n      swap2\n      swap1\n      tag_81\n      jump\t// in\n    tag_133:\n        /* \"bonding_full.sol\":4031:4056  (targetPrice * 105) / 100 */\n      tag_134\n      swap2\n      swap1\n      tag_83\n      jump\t// in\n    tag_134:\n        /* \"bonding_full.sol\":4010:4056  uint256 upperPrice = (targetPrice * 105) / 100 */\n      swap1\n      pop\n        /* \"bonding_full.sol\":4069:4084  int24 tickLower */\n      0x00\n        /* \"bonding_full.sol\":4087:4115  getTickFromPrice(lowerPrice) */\n      tag_135\n        /* \"bonding_full.sol\":4104:4114  lowerPrice */\n      dup4\n        /* \"bonding_full.sol\":4087:4103  getTickFromPrice */\n      tag_45\n        /* \"bonding_full.sol\":4087:4115  getTickFromPrice(lowerPrice) */\n      jump\t// in\n    tag_135:\n        /* \"bonding_full.sol\":4069:4115  int24 tickLower = getTickFromPrice(lowerPrice) */\n      swap1\n      pop\n        /* \"bonding_full.sol\":4126:4141  int24 tickUpper */\n      0x00\n        /* \"bonding_full.sol\":4144:4172  getTickFromPrice(upperPrice) */\n      tag_136\n        /* \"bonding_full.sol\":4161:4171  upperPrice */\n      dup4\n        /* \"bonding_full.sol\":4144:4160  getTickFromPrice */\n      tag_45\n        /* \"bonding_full.sol\":4144:4172  getTickFromPrice(upperPrice) */\n      jump\t// in\n    tag_136:\n        /* \"bonding_full.sol\":4126:4172  int24 tickUpper = getTickFromPrice(upperPrice) */\n      swap1\n      pop\n        /* \"bonding_full.sol\":4192:4196  weth */\n      0x01\n      0x00\n      swap1\n      sload\n      swap1\n      0x0100\n      exp\n      swap1\n      div\n      0xffffffffffffffffffffffffffffffffffffffff\n      and\n        /* \"bonding_full.sol\":4185:4205  IERC20(weth).approve */\n      0xffffffffffffffffffffffffffffffffffffffff\n      and\n      0x095ea7b3\n        /* \"bonding_full.sol\":4206:4221  positionManager */\n      0x03\n      0x00\n      swap1\n      sload\n      swap1\n      0x0100\n      exp\n      swap1\n      div\n      0xffffffffffffffffffffffffffffffffffffffff\n      and\n        /* \"bonding_full.sol\":4223:4237  amount0Desired */\n      dup9\n        /* \"bonding_full.sol\":4185:4238  IERC20(weth).approve(positionManager, amount0Desired) */\n      mload(0x40)\n      dup4\n      0xffffffff\n      and\n      0xe0\n      shl\n      dup2\n      mstore\n      0x04\n      add\n      tag_137\n      swap3\n      swap2\n      swap1\n      tag_109\n      jump\t// in\n    tag_137:\n      0x20\n      mload(0x40)\n      dup1\n      dup4\n      sub\n      dup2\n      0x00\n      dup8\n      gas\n      call\n      iszero\n      dup1\n      iszero\n      tag_139\n      jumpi\n      returndatacopy(0x00, 0x00, returndatasize)\n      revert(0x00, returndatasize)\n    tag_139:\n      pop\n      pop\n      pop\n      pop\n      mload(0x40)\n      returndatasize\n      not(0x1f)\n      0x1f\n      dup3\n      add\n      and\n      dup3\n      add\n      dup1\n      0x40\n      mstore\n      pop\n      dup2\n      add\n      swap1\n      tag_140\n      swap2\n      swap1\n      tag_77\n      jump\t// in\n    tag_140:\n      pop\n        /* \"bonding_full.sol\":4256:4262  mlAMPL */\n      0x02\n      0x00\n      swap1\n      sload\n      swap1\n      0x0100\n      exp\n      swap1\n      div\n      0xffffffffffffffffffffffffffffffffffffffff\n      and\n        /* \"bonding_full.sol\":4249:4271  IERC20(mlAMPL).approve */\n      0xffffffffffffffffffffffffffffffffffffffff\n      and\n      0x095ea7b3\n        /* \"bonding_full.sol\":4272:4287  positionManager */\n      0x03\n      0x00\n      swap1\n      sload\n      swap1\n      0x0100\n      exp\n      swap1\n      div\n      0xffffffffffffffffffffffffffffffffffffffff\n      and\n        /* \"bonding_full.sol\":4289:4303  amount1Desired */\n      dup8\n        /* \"bonding_full.sol\":4249:4304  IERC20(mlAMPL).approve(positionManager, amount1Desired) */\n      mload(0x40)\n      dup4\n      0xffffffff\n      and\n      0xe0\n      shl\n      dup2\n      mstore\n      0x04\n      add\n      tag_141\n      swap3\n      swap2\n      swap1\n      tag_109\n      jump\t// in\n    tag_141:\n      0x20\n      mload(0x40)\n      dup1\n      dup4\n      sub\n      dup2\n      0x00\n      dup8\n      gas\n      call\n      iszero\n      dup1\n      iszero\n      tag_143\n      jumpi\n      returndatacopy(0x00, 0x00, returndatasize)\n      revert(0x00, returndatasize)\n    tag_143:\n      pop\n      pop\n      pop\n      pop\n      mload(0x40)\n      returndatasize\n      not(0x1f)\n      0x1f\n      dup3\n      add\n      and\n      dup3\n      add\n      dup1\n      0x40\n      mstore\n      pop\n      dup2\n      add\n      swap1\n      tag_144\n      swap2\n      swap1\n      tag_77\n      jump\t// in\n    tag_144:\n      pop\n        /* \"bonding_full.sol\":4318:4333  uint256 tokenId */\n      0x00\n        /* \"bonding_full.sol\":4335:4352  uint128 liquidity */\n      0x00\n        /* \"bonding_full.sol\":4354:4369  uint256 amount0 */\n      0x00\n        /* \"bonding_full.sol\":4371:4386  uint256 amount1 */\n      0x00\n        /* \"bonding_full.sol\":4432:4447  positionManager */\n      0x03\n      0x00\n      swap1\n      sload\n      swap1\n      0x0100\n      exp\n      swap1\n      div\n      0xffffffffffffffffffffffffffffffffffffffff\n      and\n        /* \"bonding_full.sol\":4404:4453  INonfungiblePositionManager(positionManager).mint */\n      0xffffffffffffffffffffffffffffffffffffffff\n      and\n      0x88316456\n        /* \"bonding_full.sol\":4472:4995  INonfungiblePositionManager.MintParams({... */\n      mload(0x40)\n      dup1\n      0x0160\n      add\n      0x40\n      mstore\n      dup1\n        /* \"bonding_full.sol\":4542:4546  weth */\n      0x01\n      0x00\n      swap1\n      sload\n      swap1\n      0x0100\n      exp\n      swap1\n      div\n      0xffffffffffffffffffffffffffffffffffffffff\n      and\n        /* \"bonding_full.sol\":4472:4995  INonfungiblePositionManager.MintParams({... */\n      0xffffffffffffffffffffffffffffffffffffffff\n      and\n      dup2\n      mstore\n      0x20\n      add\n        /* \"bonding_full.sol\":4577:4583  mlAMPL */\n      0x02\n      0x00\n      swap1\n      sload\n      swap1\n      0x0100\n      exp\n      swap1\n      div\n      0xffffffffffffffffffffffffffffffffffffffff\n      and\n        /* \"bonding_full.sol\":4472:4995  INonfungiblePositionManager.MintParams({... */\n      0xffffffffffffffffffffffffffffffffffffffff\n      and\n      dup2\n      mstore\n      0x20\n      add\n        /* \"bonding_full.sol\":4611:4618  poolFee */\n      0x03\n      0x14\n      swap1\n      sload\n      swap1\n      0x0100\n      exp\n      swap1\n      div\n      0xffffff\n      and\n        /* \"bonding_full.sol\":4472:4995  INonfungiblePositionManager.MintParams({... */\n      0xffffff\n      and\n      dup2\n      mstore\n      0x20\n      add\n        /* \"bonding_full.sol\":4652:4661  tickLower */\n      dup10\n        /* \"bonding_full.sol\":4472:4995  INonfungiblePositionManager.MintParams({... */\n      0x02\n      signextend\n      dup2\n      mstore\n      0x20\n      add\n        /* \"bonding_full.sol\":4695:4704  tickUpper */\n      dup9\n        /* \"bonding_full.sol\":4472:4995  INonfungiblePositionManager.MintParams({... */\n      0x02\n      signextend\n      dup2\n      mstore\n      0x20\n      add\n        /* \"bonding_full.sol\":4743:4757  amount0Desired */\n      dup14\n        /* \"bonding_full.sol\":4472:4995  INonfungiblePositionManager.MintParams({... */\n      dup2\n      mstore\n      0x20\n      add\n        /* \"bonding_full.sol\":4796:4810  amount1Desired */\n      dup13\n        /* \"bonding_full.sol\":4472:4995  INonfungiblePositionManager.MintParams({... */\n      dup2\n      mstore\n      0x20\n      add\n        /* \"bonding_full.sol\":4845:4846  0 */\n      0x00\n        /* \"bonding_full.sol\":4472:4995  INonfungiblePositionManager.MintParams({... */\n      dup2\n      mstore\n      0x20\n      add\n        /* \"bonding_full.sol\":4881:4882  0 */\n      0x00\n        /* \"bonding_full.sol\":4472:4995  INonfungiblePositionManager.MintParams({... */\n      dup2\n      mstore\n      0x20\n      add\n        /* \"bonding_full.sol\":4916:4921  owner */\n      0x00\n      0x00\n      swap1\n      sload\n      swap1\n      0x0100\n      exp\n      swap1\n      div\n      0xffffffffffffffffffffffffffffffffffffffff\n      and\n        /* \"bonding_full.sol\":4472:4995  INonfungiblePositionManager.MintParams({... */\n      0xffffffffffffffffffffffffffffffffffffffff\n      and\n      dup2\n      mstore\n      0x20\n      add\n        /* \"bonding_full.sol\":4972:4975  300 */\n      0x012c\n        /* \"bonding_full.sol\":4954:4969  block.timestamp */\n      timestamp\n        /* \"bonding_full.sol\":4954:4975  block.timestamp + 300 */\n      tag_145\n      swap2\n      swap1\n      tag_146\n      jump\t// in\n    tag_145:\n        /* \"bonding_full.sol\":4472:4995  INonfungiblePositionManager.MintParams({... */\n      dup2\n      mstore\n      pop\n        /* \"bonding_full.sol\":4404:5010  INonfungiblePositionManager(positionManager).mint(... */\n      mload(0x40)\n      dup3\n      0xffffffff\n      and\n      0xe0\n      shl\n      dup2\n      mstore\n      0x04\n      add\n      tag_147\n      swap2\n      swap1\n      tag_148\n      jump\t// in\n    tag_147:\n      0x80\n      mload(0x40)\n      dup1\n      dup4\n      sub\n      dup2\n      0x00\n      dup8\n      gas\n      call\n      iszero\n      dup1\n      iszero\n      tag_150\n      jumpi\n      returndatacopy(0x00, 0x00, returndatasize)\n      revert(0x00, returndatasize)\n    tag_150:\n      pop\n      pop\n      pop\n      pop\n      mload(0x40)\n      returndatasize\n      not(0x1f)\n      0x1f\n      dup3\n      add\n      and\n      dup3\n      add\n      dup1\n      0x40\n      mstore\n      pop\n      dup2\n      add\n      swap1\n      tag_151\n      swap2\n      swap1\n      tag_152\n      jump\t// in\n    tag_151:\n        /* \"bonding_full.sol\":4317:5010  (uint256 tokenId, uint128 liquidity, uint256 amount0, uint256 amount1) = ... */\n      swap4\n      pop\n      swap4\n      pop\n      swap4\n      pop\n      swap4\n      pop\n        /* \"bonding_full.sol\":5028:5083  LiquidityProvided(tokenId, liquidity, amount0, amount1) */\n      0xf932bec3f0086aed14ace0a396941a083546fd1a3497ed66cc5b9856c890db0a\n        /* \"bonding_full.sol\":5046:5053  tokenId */\n      dup5\n        /* \"bonding_full.sol\":5055:5064  liquidity */\n      dup5\n        /* \"bonding_full.sol\":5066:5073  amount0 */\n      dup5\n        /* \"bonding_full.sol\":5075:5082  amount1 */\n      dup5\n        /* \"bonding_full.sol\":5028:5083  LiquidityProvided(tokenId, liquidity, amount0, amount1) */\n      mload(0x40)\n      tag_153\n      swap5\n      swap4\n      swap3\n      swap2\n      swap1\n      tag_154\n      jump\t// in\n    tag_153:\n      mload(0x40)\n      dup1\n      swap2\n      sub\n      swap1\n      log1\n        /* \"bonding_full.sol\":3868:5091  {... */\n      pop\n      pop\n      pop\n      pop\n      pop\n      pop\n      pop\n      pop\n      pop\n        /* \"bonding_full.sol\":3799:5091  function provideLiquidity(uint256 amount0Desired) external onlyOwner {... */\n      pop\n      jump\t// out\n        /* \"bonding_full.sol\":5991:6254  function sqrt(uint256 x) internal pure returns (uint256) {... */\n    tag_117:\n        /* \"bonding_full.sol\":6039:6046  uint256 */\n      0x00\n        /* \"bonding_full.sol\":6068:6069  0 */\n      0x00\n        /* \"bonding_full.sol\":6063:6064  x */\n      dup3\n        /* \"bonding_full.sol\":6063:6069  x == 0 */\n      sub\n        /* \"bonding_full.sol\":6059:6079  if (x == 0) return 0 */\n      tag_156\n      jumpi\n        /* \"bonding_full.sol\":6078:6079  0 */\n      0x00\n        /* \"bonding_full.sol\":6071:6079  return 0 */\n      swap1\n      pop\n      jump(tag_155)\n        /* \"bonding_full.sol\":6059:6079  if (x == 0) return 0 */\n    tag_156:\n        /* \"bonding_full.sol\":6090:6099  uint256 z */\n      0x00\n        /* \"bonding_full.sol\":6112:6113  2 */\n      0x02\n        /* \"bonding_full.sol\":6107:6108  1 */\n      0x01\n        /* \"bonding_full.sol\":6103:6104  x */\n      dup5\n        /* \"bonding_full.sol\":6103:6108  x + 1 */\n      tag_157\n      swap2\n      swap1\n      tag_146\n      jump\t// in\n    tag_157:\n        /* \"bonding_full.sol\":6102:6113  (x + 1) / 2 */\n      tag_158\n      swap2\n      swap1\n      tag_83\n      jump\t// in\n    tag_158:\n        /* \"bonding_full.sol\":6090:6113  uint256 z = (x + 1) / 2 */\n      swap1\n      pop\n        /* \"bonding_full.sol\":6124:6133  uint256 y */\n      0x00\n        /* \"bonding_full.sol\":6136:6137  x */\n      dup4\n        /* \"bonding_full.sol\":6124:6137  uint256 y = x */\n      swap1\n      pop\n        /* \"bonding_full.sol\":6148:6228  while (z < y) {... */\n    tag_159:\n        /* \"bonding_full.sol\":6159:6160  y */\n      dup1\n        /* \"bonding_full.sol\":6155:6156  z */\n      dup3\n        /* \"bonding_full.sol\":6155:6160  z < y */\n      lt\n        /* \"bonding_full.sol\":6148:6228  while (z < y) {... */\n      iszero\n      tag_160\n      jumpi\n        /* \"bonding_full.sol\":6181:6182  z */\n      dup2\n        /* \"bonding_full.sol\":6177:6182  y = z */\n      swap1\n      pop\n        /* \"bonding_full.sol\":6215:6216  2 */\n      0x02\n        /* \"bonding_full.sol\":6210:6211  z */\n      dup3\n        /* \"bonding_full.sol\":6206:6207  z */\n      dup4\n        /* \"bonding_full.sol\":6202:6203  x */\n      dup7\n        /* \"bonding_full.sol\":6202:6207  x / z */\n      tag_161\n      swap2\n      swap1\n      tag_83\n      jump\t// in\n    tag_161:\n        /* \"bonding_full.sol\":6202:6211  x / z + z */\n      tag_162\n      swap2\n      swap1\n      tag_146\n      jump\t// in\n    tag_162:\n        /* \"bonding_full.sol\":6201:6216  (x / z + z) / 2 */\n      tag_163\n      swap2\n      swap1\n      tag_83\n      jump\t// in\n    tag_163:\n        /* \"bonding_full.sol\":6197:6216  z = (x / z + z) / 2 */\n      swap2\n      pop\n        /* \"bonding_full.sol\":6148:6228  while (z < y) {... */\n      jump(tag_159)\n    tag_160:\n        /* \"bonding_full.sol\":6245:6246  y */\n      dup1\n        /* \"bonding_full.sol\":6238:6246  return y */\n      swap3\n      pop\n      pop\n      pop\n        /* \"bonding_full.sol\":5991:6254  function sqrt(uint256 x) internal pure returns (uint256) {... */\n    tag_155:\n      swap2\n      swap1\n      pop\n      jump\t// out\n        /* \"bonding_full.sol\":5643:5983  function logBase(uint256 value, uint256 baseNumerator, uint256 baseDenominator) internal pure returns (uint256) {... */\n    tag_120:\n        /* \"bonding_full.sol\":5746:5753  uint256 */\n      0x00\n        /* \"bonding_full.sol\":5766:5780  uint256 result */\n      0x00\n        /* \"bonding_full.sol\":5783:5784  0 */\n      0x00\n        /* \"bonding_full.sol\":5766:5784  uint256 result = 0 */\n      swap1\n      pop\n        /* \"bonding_full.sol\":5795:5952  while (value >= (baseNumerator * 1e18) / baseDenominator) {... */\n    tag_165:\n        /* \"bonding_full.sol\":5836:5851  baseDenominator */\n      dup3\n        /* \"bonding_full.sol\":5828:5832  1e18 */\n      0x0de0b6b3a7640000\n        /* \"bonding_full.sol\":5812:5825  baseNumerator */\n      dup6\n        /* \"bonding_full.sol\":5812:5832  baseNumerator * 1e18 */\n      tag_167\n      swap2\n      swap1\n      tag_81\n      jump\t// in\n    tag_167:\n        /* \"bonding_full.sol\":5811:5851  (baseNumerator * 1e18) / baseDenominator */\n      tag_168\n      swap2\n      swap1\n      tag_83\n      jump\t// in\n    tag_168:\n        /* \"bonding_full.sol\":5802:5807  value */\n      dup6\n        /* \"bonding_full.sol\":5802:5851  value >= (baseNumerator * 1e18) / baseDenominator */\n      lt\n        /* \"bonding_full.sol\":5795:5952  while (value >= (baseNumerator * 1e18) / baseDenominator) {... */\n      tag_166\n      jumpi\n        /* \"bonding_full.sol\":5904:5917  baseNumerator */\n      dup4\n        /* \"bonding_full.sol\":5885:5900  baseDenominator */\n      dup4\n        /* \"bonding_full.sol\":5877:5882  value */\n      dup7\n        /* \"bonding_full.sol\":5877:5900  value * baseDenominator */\n      tag_169\n      swap2\n      swap1\n      tag_81\n      jump\t// in\n    tag_169:\n        /* \"bonding_full.sol\":5876:5917  (value * baseDenominator) / baseNumerator */\n      tag_170\n      swap2\n      swap1\n      tag_83\n      jump\t// in\n    tag_170:\n        /* \"bonding_full.sol\":5868:5917  value = (value * baseDenominator) / baseNumerator */\n      swap5\n      pop\n        /* \"bonding_full.sol\":5932:5940  result++ */\n      dup1\n      dup1\n      tag_171\n      swap1\n      tag_172\n      jump\t// in\n    tag_171:\n      swap2\n      pop\n      pop\n        /* \"bonding_full.sol\":5795:5952  while (value >= (baseNumerator * 1e18) / baseDenominator) {... */\n      jump(tag_165)\n    tag_166:\n        /* \"bonding_full.sol\":5969:5975  result */\n      dup1\n        /* \"bonding_full.sol\":5962:5975  return result */\n      swap2\n      pop\n      pop\n        /* \"bonding_full.sol\":5643:5983  function logBase(uint256 value, uint256 baseNumerator, uint256 baseDenominator) internal pure returns (uint256) {... */\n      swap4\n      swap3\n      pop\n      pop\n      pop\n      jump\t// out\n        /* \"#utility.yul\":7:98   */\n    tag_173:\n        /* \"#utility.yul\":43:50   */\n      0x00\n        /* \"#utility.yul\":83:91   */\n      0xffffff\n        /* \"#utility.yul\":76:81   */\n      dup3\n        /* \"#utility.yul\":72:92   */\n      and\n        /* \"#utility.yul\":61:92   */\n      swap1\n      pop\n        /* \"#utility.yul\":7:98   */\n      swap2\n      swap1\n      pop\n      jump\t// out\n        /* \"#utility.yul\":104:219   */\n    tag_174:\n        /* \"#utility.yul\":189:212   */\n      tag_216\n        /* \"#utility.yul\":206:211   */\n      dup2\n        /* \"#utility.yul\":189:212   */\n      tag_173\n      jump\t// in\n    tag_216:\n        /* \"#utility.yul\":184:187   */\n      dup3\n        /* \"#utility.yul\":177:213   */\n      mstore\n        /* \"#utility.yul\":104:219   */\n      pop\n      pop\n      jump\t// out\n        /* \"#utility.yul\":225:443   */\n    tag_18:\n        /* \"#utility.yul\":316:320   */\n      0x00\n        /* \"#utility.yul\":354:356   */\n      0x20\n        /* \"#utility.yul\":343:352   */\n      dup3\n        /* \"#utility.yul\":339:357   */\n      add\n        /* \"#utility.yul\":331:357   */\n      swap1\n      pop\n        /* \"#utility.yul\":367:436   */\n      tag_218\n        /* \"#utility.yul\":433:434   */\n      0x00\n        /* \"#utility.yul\":422:431   */\n      dup4\n        /* \"#utility.yul\":418:435   */\n      add\n        /* \"#utility.yul\":409:415   */\n      dup5\n        /* \"#utility.yul\":367:436   */\n      tag_174\n      jump\t// in\n    tag_218:\n        /* \"#utility.yul\":225:443   */\n      swap3\n      swap2\n      pop\n      pop\n      jump\t// out\n        /* \"#utility.yul\":449:575   */\n    tag_175:\n        /* \"#utility.yul\":486:493   */\n      0x00\n        /* \"#utility.yul\":526:568   */\n      0xffffffffffffffffffffffffffffffffffffffff\n        /* \"#utility.yul\":519:524   */\n      dup3\n        /* \"#utility.yul\":515:569   */\n      and\n        /* \"#utility.yul\":504:569   */\n      swap1\n      pop\n        /* \"#utility.yul\":449:575   */\n      swap2\n      swap1\n      pop\n      jump\t// out\n        /* \"#utility.yul\":581:677   */\n    tag_176:\n        /* \"#utility.yul\":618:625   */\n      0x00\n        /* \"#utility.yul\":647:671   */\n      tag_221\n        /* \"#utility.yul\":665:670   */\n      dup3\n        /* \"#utility.yul\":647:671   */\n      tag_175\n      jump\t// in\n    tag_221:\n        /* \"#utility.yul\":636:671   */\n      swap1\n      pop\n        /* \"#utility.yul\":581:677   */\n      swap2\n      swap1\n      pop\n      jump\t// out\n        /* \"#utility.yul\":683:801   */\n    tag_177:\n        /* \"#utility.yul\":770:794   */\n      tag_223\n        /* \"#utility.yul\":788:793   */\n      dup2\n        /* \"#utility.yul\":770:794   */\n      tag_176\n      jump\t// in\n    tag_223:\n        /* \"#utility.yul\":765:768   */\n      dup3\n        /* \"#utility.yul\":758:795   */\n      mstore\n        /* \"#utility.yul\":683:801   */\n      pop\n      pop\n      jump\t// out\n        /* \"#utility.yul\":807:1029   */\n    tag_22:\n        /* \"#utility.yul\":900:904   */\n      0x00\n        /* \"#utility.yul\":938:940   */\n      0x20\n        /* \"#utility.yul\":927:936   */\n      dup3\n        /* \"#utility.yul\":923:941   */\n      add\n        /* \"#utility.yul\":915:941   */\n      swap1\n      pop\n        /* \"#utility.yul\":951:1022   */\n      tag_225\n        /* \"#utility.yul\":1019:1020   */\n      0x00\n        /* \"#utility.yul\":1008:1017   */\n      dup4\n        /* \"#utility.yul\":1004:1021   */\n      add\n        /* \"#utility.yul\":995:1001   */\n      dup5\n        /* \"#utility.yul\":951:1022   */\n      tag_177\n      jump\t// in\n    tag_225:\n        /* \"#utility.yul\":807:1029   */\n      swap3\n      swap2\n      pop\n      pop\n      jump\t// out\n        /* \"#utility.yul\":1116:1233   */\n    tag_179:\n        /* \"#utility.yul\":1225:1226   */\n      0x00\n        /* \"#utility.yul\":1222:1223   */\n      0x00\n        /* \"#utility.yul\":1215:1227   */\n      revert\n        /* \"#utility.yul\":1362:1439   */\n    tag_181:\n        /* \"#utility.yul\":1399:1406   */\n      0x00\n        /* \"#utility.yul\":1428:1433   */\n      dup2\n        /* \"#utility.yul\":1417:1433   */\n      swap1\n      pop\n        /* \"#utility.yul\":1362:1439   */\n      swap2\n      swap1\n      pop\n      jump\t// out\n        /* \"#utility.yul\":1445:1567   */\n    tag_182:\n        /* \"#utility.yul\":1518:1542   */\n      tag_231\n        /* \"#utility.yul\":1536:1541   */\n      dup2\n        /* \"#utility.yul\":1518:1542   */\n      tag_181\n      jump\t// in\n    tag_231:\n        /* \"#utility.yul\":1511:1516   */\n      dup2\n        /* \"#utility.yul\":1508:1543   */\n      eq\n        /* \"#utility.yul\":1498:1561   */\n      tag_232\n      jumpi\n        /* \"#utility.yul\":1557:1558   */\n      0x00\n        /* \"#utility.yul\":1554:1555   */\n      0x00\n        /* \"#utility.yul\":1547:1559   */\n      revert\n        /* \"#utility.yul\":1498:1561   */\n    tag_232:\n        /* \"#utility.yul\":1445:1567   */\n      pop\n      jump\t// out\n        /* \"#utility.yul\":1573:1712   */\n    tag_183:\n        /* \"#utility.yul\":1619:1624   */\n      0x00\n        /* \"#utility.yul\":1657:1663   */\n      dup2\n        /* \"#utility.yul\":1644:1664   */\n      calldataload\n        /* \"#utility.yul\":1635:1664   */\n      swap1\n      pop\n        /* \"#utility.yul\":1673:1706   */\n      tag_234\n        /* \"#utility.yul\":1700:1705   */\n      dup2\n        /* \"#utility.yul\":1673:1706   */\n      tag_182\n      jump\t// in\n    tag_234:\n        /* \"#utility.yul\":1573:1712   */\n      swap3\n      swap2\n      pop\n      pop\n      jump\t// out\n        /* \"#utility.yul\":1718:2047   */\n    tag_28:\n        /* \"#utility.yul\":1777:1783   */\n      0x00\n        /* \"#utility.yul\":1826:1828   */\n      0x20\n        /* \"#utility.yul\":1814:1823   */\n      dup3\n        /* \"#utility.yul\":1805:1812   */\n      dup5\n        /* \"#utility.yul\":1801:1824   */\n      sub\n        /* \"#utility.yul\":1797:1829   */\n      slt\n        /* \"#utility.yul\":1794:1913   */\n      iszero\n      tag_236\n      jumpi\n        /* \"#utility.yul\":1832:1911   */\n      tag_237\n      tag_179\n      jump\t// in\n    tag_237:\n        /* \"#utility.yul\":1794:1913   */\n    tag_236:\n        /* \"#utility.yul\":1952:1953   */\n      0x00\n        /* \"#utility.yul\":1977:2030   */\n      tag_238\n        /* \"#utility.yul\":2022:2029   */\n      dup5\n        /* \"#utility.yul\":2013:2019   */\n      dup3\n        /* \"#utility.yul\":2002:2011   */\n      dup6\n        /* \"#utility.yul\":1998:2020   */\n      add\n        /* \"#utility.yul\":1977:2030   */\n      tag_183\n      jump\t// in\n    tag_238:\n        /* \"#utility.yul\":1967:2030   */\n      swap2\n      pop\n        /* \"#utility.yul\":1923:2040   */\n      pop\n        /* \"#utility.yul\":1718:2047   */\n      swap3\n      swap2\n      pop\n      pop\n      jump\t// out\n        /* \"#utility.yul\":2053:2171   */\n    tag_184:\n        /* \"#utility.yul\":2140:2164   */\n      tag_240\n        /* \"#utility.yul\":2158:2163   */\n      dup2\n        /* \"#utility.yul\":2140:2164   */\n      tag_181\n      jump\t// in\n    tag_240:\n        /* \"#utility.yul\":2135:2138   */\n      dup3\n        /* \"#utility.yul\":2128:2165   */\n      mstore\n        /* \"#utility.yul\":2053:2171   */\n      pop\n      pop\n      jump\t// out\n        /* \"#utility.yul\":2177:2399   */\n    tag_42:\n        /* \"#utility.yul\":2270:2274   */\n      0x00\n        /* \"#utility.yul\":2308:2310   */\n      0x20\n        /* \"#utility.yul\":2297:2306   */\n      dup3\n        /* \"#utility.yul\":2293:2311   */\n      add\n        /* \"#utility.yul\":2285:2311   */\n      swap1\n      pop\n        /* \"#utility.yul\":2321:2392   */\n      tag_242\n        /* \"#utility.yul\":2389:2390   */\n      0x00\n        /* \"#utility.yul\":2378:2387   */\n      dup4\n        /* \"#utility.yul\":2374:2391   */\n      add\n        /* \"#utility.yul\":2365:2371   */\n      dup5\n        /* \"#utility.yul\":2321:2392   */\n      tag_184\n      jump\t// in\n    tag_242:\n        /* \"#utility.yul\":2177:2399   */\n      swap3\n      swap2\n      pop\n      pop\n      jump\t// out\n        /* \"#utility.yul\":2405:2495   */\n    tag_185:\n        /* \"#utility.yul\":2440:2447   */\n      0x00\n        /* \"#utility.yul\":2483:2488   */\n      dup2\n        /* \"#utility.yul\":2480:2481   */\n      0x02\n        /* \"#utility.yul\":2469:2489   */\n      signextend\n        /* \"#utility.yul\":2458:2489   */\n      swap1\n      pop\n        /* \"#utility.yul\":2405:2495   */\n      swap2\n      swap1\n      pop\n      jump\t// out\n        /* \"#utility.yul\":2501:2613   */\n    tag_186:\n        /* \"#utility.yul\":2584:2606   */\n      tag_245\n        /* \"#utility.yul\":2600:2605   */\n      dup2\n        /* \"#utility.yul\":2584:2606   */\n      tag_185\n      jump\t// in\n    tag_245:\n        /* \"#utility.yul\":2579:2582   */\n      dup3\n        /* \"#utility.yul\":2572:2607   */\n      mstore\n        /* \"#utility.yul\":2501:2613   */\n      pop\n      pop\n      jump\t// out\n        /* \"#utility.yul\":2619:2833   */\n    tag_47:\n        /* \"#utility.yul\":2708:2712   */\n      0x00\n        /* \"#utility.yul\":2746:2748   */\n      0x20\n        /* \"#utility.yul\":2735:2744   */\n      dup3\n        /* \"#utility.yul\":2731:2749   */\n      add\n        /* \"#utility.yul\":2723:2749   */\n      swap1\n      pop\n        /* \"#utility.yul\":2759:2826   */\n      tag_247\n        /* \"#utility.yul\":2823:2824   */\n      0x00\n        /* \"#utility.yul\":2812:2821   */\n      dup4\n        /* \"#utility.yul\":2808:2825   */\n      add\n        /* \"#utility.yul\":2799:2805   */\n      dup5\n        /* \"#utility.yul\":2759:2826   */\n      tag_186\n      jump\t// in\n    tag_247:\n        /* \"#utility.yul\":2619:2833   */\n      swap3\n      swap2\n      pop\n      pop\n      jump\t// out\n        /* \"#utility.yul\":2839:3008   */\n    tag_187:\n        /* \"#utility.yul\":2923:2934   */\n      0x00\n        /* \"#utility.yul\":2957:2963   */\n      dup3\n        /* \"#utility.yul\":2952:2955   */\n      dup3\n        /* \"#utility.yul\":2945:2964   */\n      mstore\n        /* \"#utility.yul\":2997:3001   */\n      0x20\n        /* \"#utility.yul\":2992:2995   */\n      dup3\n        /* \"#utility.yul\":2988:3002   */\n      add\n        /* \"#utility.yul\":2973:3002   */\n      swap1\n      pop\n        /* \"#utility.yul\":2839:3008   */\n      swap3\n      swap2\n      pop\n      pop\n      jump\t// out\n        /* \"#utility.yul\":3014:3178   */\n    tag_188:\n        /* \"#utility.yul\":3154:3170   */\n      0x4e6f7420617574686f72697a6564000000000000000000000000000000000000\n        /* \"#utility.yul\":3150:3151   */\n      0x00\n        /* \"#utility.yul\":3142:3148   */\n      dup3\n        /* \"#utility.yul\":3138:3152   */\n      add\n        /* \"#utility.yul\":3131:3171   */\n      mstore\n        /* \"#utility.yul\":3014:3178   */\n      pop\n      jump\t// out\n        /* \"#utility.yul\":3184:3550   */\n    tag_189:\n        /* \"#utility.yul\":3326:3329   */\n      0x00\n        /* \"#utility.yul\":3347:3414   */\n      tag_251\n        /* \"#utility.yul\":3411:3413   */\n      0x0e\n        /* \"#utility.yul\":3406:3409   */\n      dup4\n        /* \"#utility.yul\":3347:3414   */\n      tag_187\n      jump\t// in\n    tag_251:\n        /* \"#utility.yul\":3340:3414   */\n      swap2\n      pop\n        /* \"#utility.yul\":3423:3516   */\n      tag_252\n        /* \"#utility.yul\":3512:3515   */\n      dup3\n        /* \"#utility.yul\":3423:3516   */\n      tag_188\n      jump\t// in\n    tag_252:\n        /* \"#utility.yul\":3541:3543   */\n      0x20\n        /* \"#utility.yul\":3536:3539   */\n      dup3\n        /* \"#utility.yul\":3532:3544   */\n      add\n        /* \"#utility.yul\":3525:3544   */\n      swap1\n      pop\n        /* \"#utility.yul\":3184:3550   */\n      swap2\n      swap1\n      pop\n      jump\t// out\n        /* \"#utility.yul\":3556:3975   */\n    tag_57:\n        /* \"#utility.yul\":3722:3726   */\n      0x00\n        /* \"#utility.yul\":3760:3762   */\n      0x20\n        /* \"#utility.yul\":3749:3758   */\n      dup3\n        /* \"#utility.yul\":3745:3763   */\n      add\n        /* \"#utility.yul\":3737:3763   */\n      swap1\n      pop\n        /* \"#utility.yul\":3809:3818   */\n      dup2\n        /* \"#utility.yul\":3803:3807   */\n      dup2\n        /* \"#utility.yul\":3799:3819   */\n      sub\n        /* \"#utility.yul\":3795:3796   */\n      0x00\n        /* \"#utility.yul\":3784:3793   */\n      dup4\n        /* \"#utility.yul\":3780:3797   */\n      add\n        /* \"#utility.yul\":3773:3820   */\n      mstore\n        /* \"#utility.yul\":3837:3968   */\n      tag_254\n        /* \"#utility.yul\":3963:3967   */\n      dup2\n        /* \"#utility.yul\":3837:3968   */\n      tag_189\n      jump\t// in\n    tag_254:\n        /* \"#utility.yul\":3829:3968   */\n      swap1\n      pop\n        /* \"#utility.yul\":3556:3975   */\n      swap2\n      swap1\n      pop\n      jump\t// out\n        /* \"#utility.yul\":3981:4148   */\n    tag_190:\n        /* \"#utility.yul\":4121:4140   */\n      0x4d757374206465706f7369742057455448000000000000000000000000000000\n        /* \"#utility.yul\":4117:4118   */\n      0x00\n        /* \"#utility.yul\":4109:4115   */\n      dup3\n        /* \"#utility.yul\":4105:4119   */\n      add\n        /* \"#utility.yul\":4098:4141   */\n      mstore\n        /* \"#utility.yul\":3981:4148   */\n      pop\n      jump\t// out\n        /* \"#utility.yul\":4154:4520   */\n    tag_191:\n        /* \"#utility.yul\":4296:4299   */\n      0x00\n        /* \"#utility.yul\":4317:4384   */\n      tag_257\n        /* \"#utility.yul\":4381:4383   */\n      0x11\n        /* \"#utility.yul\":4376:4379   */\n      dup4\n        /* \"#utility.yul\":4317:4384   */\n      tag_187\n      jump\t// in\n    tag_257:\n        /* \"#utility.yul\":4310:4384   */\n      swap2\n      pop\n        /* \"#utility.yul\":4393:4486   */\n      tag_258\n        /* \"#utility.yul\":4482:4485   */\n      dup3\n        /* \"#utility.yul\":4393:4486   */\n      tag_190\n      jump\t// in\n    tag_258:\n        /* \"#utility.yul\":4511:4513   */\n      0x20\n        /* \"#utility.yul\":4506:4509   */\n      dup3\n        /* \"#utility.yul\":4502:4514   */\n      add\n        /* \"#utility.yul\":4495:4514   */\n      swap1\n      pop\n        /* \"#utility.yul\":4154:4520   */\n      swap2\n      swap1\n      pop\n      jump\t// out\n        /* \"#utility.yul\":4526:4945   */\n    tag_62:\n        /* \"#utility.yul\":4692:4696   */\n      0x00\n        /* \"#utility.yul\":4730:4732   */\n      0x20\n        /* \"#utility.yul\":4719:4728   */\n      dup3\n        /* \"#utility.yul\":4715:4733   */\n      add\n        /* \"#utility.yul\":4707:4733   */\n      swap1\n      pop\n        /* \"#utility.yul\":4779:4788   */\n      dup2\n        /* \"#utility.yul\":4773:4777   */\n      dup2\n        /* \"#utility.yul\":4769:4789   */\n      sub\n        /* \"#utility.yul\":4765:4766   */\n      0x00\n        /* \"#utility.yul\":4754:4763   */\n      dup4\n        /* \"#utility.yul\":4750:4767   */\n      add\n        /* \"#utility.yul\":4743:4790   */\n      mstore\n        /* \"#utility.yul\":4807:4938   */\n      tag_260\n        /* \"#utility.yul\":4933:4937   */\n      dup2\n        /* \"#utility.yul\":4807:4938   */\n      tag_191\n      jump\t// in\n    tag_260:\n        /* \"#utility.yul\":4799:4938   */\n      swap1\n      pop\n        /* \"#utility.yul\":4526:4945   */\n      swap2\n      swap1\n      pop\n      jump\t// out\n        /* \"#utility.yul\":4951:5283   */\n    tag_64:\n        /* \"#utility.yul\":5072:5076   */\n      0x00\n        /* \"#utility.yul\":5110:5112   */\n      0x40\n        /* \"#utility.yul\":5099:5108   */\n      dup3\n        /* \"#utility.yul\":5095:5113   */\n      add\n        /* \"#utility.yul\":5087:5113   */\n      swap1\n      pop\n        /* \"#utility.yul\":5123:5194   */\n      tag_262\n        /* \"#utility.yul\":5191:5192   */\n      0x00\n        /* \"#utility.yul\":5180:5189   */\n      dup4\n        /* \"#utility.yul\":5176:5193   */\n      add\n        /* \"#utility.yul\":5167:5173   */\n      dup6\n        /* \"#utility.yul\":5123:5194   */\n      tag_177\n      jump\t// in\n    tag_262:\n        /* \"#utility.yul\":5204:5276   */\n      tag_263\n        /* \"#utility.yul\":5272:5274   */\n      0x20\n        /* \"#utility.yul\":5261:5270   */\n      dup4\n        /* \"#utility.yul\":5257:5275   */\n      add\n        /* \"#utility.yul\":5248:5254   */\n      dup5\n        /* \"#utility.yul\":5204:5276   */\n      tag_177\n      jump\t// in\n    tag_263:\n        /* \"#utility.yul\":4951:5283   */\n      swap4\n      swap3\n      pop\n      pop\n      pop\n      jump\t// out\n        /* \"#utility.yul\":5289:5432   */\n    tag_192:\n        /* \"#utility.yul\":5346:5351   */\n      0x00\n        /* \"#utility.yul\":5377:5383   */\n      dup2\n        /* \"#utility.yul\":5371:5384   */\n      mload\n        /* \"#utility.yul\":5362:5384   */\n      swap1\n      pop\n        /* \"#utility.yul\":5393:5426   */\n      tag_265\n        /* \"#utility.yul\":5420:5425   */\n      dup2\n        /* \"#utility.yul\":5393:5426   */\n      tag_182\n      jump\t// in\n    tag_265:\n        /* \"#utility.yul\":5289:5432   */\n      swap3\n      swap2\n      pop\n      pop\n      jump\t// out\n        /* \"#utility.yul\":5438:5789   */\n    tag_68:\n        /* \"#utility.yul\":5508:5514   */\n      0x00\n        /* \"#utility.yul\":5557:5559   */\n      0x20\n        /* \"#utility.yul\":5545:5554   */\n      dup3\n        /* \"#utility.yul\":5536:5543   */\n      dup5\n        /* \"#utility.yul\":5532:5555   */\n      sub\n        /* \"#utility.yul\":5528:5560   */\n      slt\n        /* \"#utility.yul\":5525:5644   */\n      iszero\n      tag_267\n      jumpi\n        /* \"#utility.yul\":5563:5642   */\n      tag_268\n      tag_179\n      jump\t// in\n    tag_268:\n        /* \"#utility.yul\":5525:5644   */\n    tag_267:\n        /* \"#utility.yul\":5683:5684   */\n      0x00\n        /* \"#utility.yul\":5708:5772   */\n      tag_269\n        /* \"#utility.yul\":5764:5771   */\n      dup5\n        /* \"#utility.yul\":5755:5761   */\n      dup3\n        /* \"#utility.yul\":5744:5753   */\n      dup6\n        /* \"#utility.yul\":5740:5762   */\n      add\n        /* \"#utility.yul\":5708:5772   */\n      tag_192\n      jump\t// in\n    tag_269:\n        /* \"#utility.yul\":5698:5772   */\n      swap2\n      pop\n        /* \"#utility.yul\":5654:5782   */\n      pop\n        /* \"#utility.yul\":5438:5789   */\n      swap3\n      swap2\n      pop\n      pop\n      jump\t// out\n        /* \"#utility.yul\":5795:5969   */\n    tag_193:\n        /* \"#utility.yul\":5935:5961   */\n      0x416c6c6f77616e6365206e6f742073756666696369656e740000000000000000\n        /* \"#utility.yul\":5931:5932   */\n      0x00\n        /* \"#utility.yul\":5923:5929   */\n      dup3\n        /* \"#utility.yul\":5919:5933   */\n      add\n        /* \"#utility.yul\":5912:5962   */\n      mstore\n        /* \"#utility.yul\":5795:5969   */\n      pop\n      jump\t// out\n        /* \"#utility.yul\":5975:6341   */\n    tag_194:\n        /* \"#utility.yul\":6117:6120   */\n      0x00\n        /* \"#utility.yul\":6138:6205   */\n      tag_272\n        /* \"#utility.yul\":6202:6204   */\n      0x18\n        /* \"#utility.yul\":6197:6200   */\n      dup4\n        /* \"#utility.yul\":6138:6205   */\n      tag_187\n      jump\t// in\n    tag_272:\n        /* \"#utility.yul\":6131:6205   */\n      swap2\n      pop\n        /* \"#utility.yul\":6214:6307   */\n      tag_273\n        /* \"#utility.yul\":6303:6306   */\n      dup3\n        /* \"#utility.yul\":6214:6307   */\n      tag_193\n      jump\t// in\n    tag_273:\n        /* \"#utility.yul\":6332:6334   */\n      0x20\n        /* \"#utility.yul\":6327:6330   */\n      dup3\n        /* \"#utility.yul\":6323:6335   */\n      add\n        /* \"#utility.yul\":6316:6335   */\n      swap1\n      pop\n        /* \"#utility.yul\":5975:6341   */\n      swap2\n      swap1\n      pop\n      jump\t// out\n        /* \"#utility.yul\":6347:6766   */\n    tag_71:\n        /* \"#utility.yul\":6513:6517   */\n      0x00\n        /* \"#utility.yul\":6551:6553   */\n      0x20\n        /* \"#utility.yul\":6540:6549   */\n      dup3\n        /* \"#utility.yul\":6536:6554   */\n      add\n        /* \"#utility.yul\":6528:6554   */\n      swap1\n      pop\n        /* \"#utility.yul\":6600:6609   */\n      dup2\n        /* \"#utility.yul\":6594:6598   */\n      dup2\n        /* \"#utility.yul\":6590:6610   */\n      sub\n        /* \"#utility.yul\":6586:6587   */\n      0x00\n        /* \"#utility.yul\":6575:6584   */\n      dup4\n        /* \"#utility.yul\":6571:6588   */\n      add\n        /* \"#utility.yul\":6564:6611   */\n      mstore\n        /* \"#utility.yul\":6628:6759   */\n      tag_275\n        /* \"#utility.yul\":6754:6758   */\n      dup2\n        /* \"#utility.yul\":6628:6759   */\n      tag_194\n      jump\t// in\n    tag_275:\n        /* \"#utility.yul\":6620:6759   */\n      swap1\n      pop\n        /* \"#utility.yul\":6347:6766   */\n      swap2\n      swap1\n      pop\n      jump\t// out\n        /* \"#utility.yul\":6772:7214   */\n    tag_73:\n        /* \"#utility.yul\":6921:6925   */\n      0x00\n        /* \"#utility.yul\":6959:6961   */\n      0x60\n        /* \"#utility.yul\":6948:6957   */\n      dup3\n        /* \"#utility.yul\":6944:6962   */\n      add\n        /* \"#utility.yul\":6936:6962   */\n      swap1\n      pop\n        /* \"#utility.yul\":6972:7043   */\n      tag_277\n        /* \"#utility.yul\":7040:7041   */\n      0x00\n        /* \"#utility.yul\":7029:7038   */\n      dup4\n        /* \"#utility.yul\":7025:7042   */\n      add\n        /* \"#utility.yul\":7016:7022   */\n      dup7\n        /* \"#utility.yul\":6972:7043   */\n      tag_177\n      jump\t// in\n    tag_277:\n        /* \"#utility.yul\":7053:7125   */\n      tag_278\n        /* \"#utility.yul\":7121:7123   */\n      0x20\n        /* \"#utility.yul\":7110:7119   */\n      dup4\n        /* \"#utility.yul\":7106:7124   */\n      add\n        /* \"#utility.yul\":7097:7103   */\n      dup6\n        /* \"#utility.yul\":7053:7125   */\n      tag_177\n      jump\t// in\n    tag_278:\n        /* \"#utility.yul\":7135:7207   */\n      tag_279\n        /* \"#utility.yul\":7203:7205   */\n      0x40\n        /* \"#utility.yul\":7192:7201   */\n      dup4\n        /* \"#utility.yul\":7188:7206   */\n      add\n        /* \"#utility.yul\":7179:7185   */\n      dup5\n        /* \"#utility.yul\":7135:7207   */\n      tag_184\n      jump\t// in\n    tag_279:\n        /* \"#utility.yul\":6772:7214   */\n      swap5\n      swap4\n      pop\n      pop\n      pop\n      pop\n      jump\t// out\n        /* \"#utility.yul\":7220:7310   */\n    tag_195:\n        /* \"#utility.yul\":7254:7261   */\n      0x00\n        /* \"#utility.yul\":7297:7302   */\n      dup2\n        /* \"#utility.yul\":7290:7303   */\n      iszero\n        /* \"#utility.yul\":7283:7304   */\n      iszero\n        /* \"#utility.yul\":7272:7304   */\n      swap1\n      pop\n        /* \"#utility.yul\":7220:7310   */\n      swap2\n      swap1\n      pop\n      jump\t// out\n        /* \"#utility.yul\":7316:7432   */\n    tag_196:\n        /* \"#utility.yul\":7386:7407   */\n      tag_282\n        /* \"#utility.yul\":7401:7406   */\n      dup2\n        /* \"#utility.yul\":7386:7407   */\n      tag_195\n      jump\t// in\n    tag_282:\n        /* \"#utility.yul\":7379:7384   */\n      dup2\n        /* \"#utility.yul\":7376:7408   */\n      eq\n        /* \"#utility.yul\":7366:7426   */\n      tag_283\n      jumpi\n        /* \"#utility.yul\":7422:7423   */\n      0x00\n        /* \"#utility.yul\":7419:7420   */\n      0x00\n        /* \"#utility.yul\":7412:7424   */\n      revert\n        /* \"#utility.yul\":7366:7426   */\n    tag_283:\n        /* \"#utility.yul\":7316:7432   */\n      pop\n      jump\t// out\n        /* \"#utility.yul\":7438:7575   */\n    tag_197:\n        /* \"#utility.yul\":7492:7497   */\n      0x00\n        /* \"#utility.yul\":7523:7529   */\n      dup2\n        /* \"#utility.yul\":7517:7530   */\n      mload\n        /* \"#utility.yul\":7508:7530   */\n      swap1\n      pop\n        /* \"#utility.yul\":7539:7569   */\n      tag_285\n        /* \"#utility.yul\":7563:7568   */\n      dup2\n        /* \"#utility.yul\":7539:7569   */\n      tag_196\n      jump\t// in\n    tag_285:\n        /* \"#utility.yul\":7438:7575   */\n      swap3\n      swap2\n      pop\n      pop\n      jump\t// out\n        /* \"#utility.yul\":7581:7926   */\n    tag_77:\n        /* \"#utility.yul\":7648:7654   */\n      0x00\n        /* \"#utility.yul\":7697:7699   */\n      0x20\n        /* \"#utility.yul\":7685:7694   */\n      dup3\n        /* \"#utility.yul\":7676:7683   */\n      dup5\n        /* \"#utility.yul\":7672:7695   */\n      sub\n        /* \"#utility.yul\":7668:7700   */\n      slt\n        /* \"#utility.yul\":7665:7784   */\n      iszero\n      tag_287\n      jumpi\n        /* \"#utility.yul\":7703:7782   */\n      tag_288\n      tag_179\n      jump\t// in\n    tag_288:\n        /* \"#utility.yul\":7665:7784   */\n    tag_287:\n        /* \"#utility.yul\":7823:7824   */\n      0x00\n        /* \"#utility.yul\":7848:7909   */\n      tag_289\n        /* \"#utility.yul\":7901:7908   */\n      dup5\n        /* \"#utility.yul\":7892:7898   */\n      dup3\n        /* \"#utility.yul\":7881:7890   */\n      dup6\n        /* \"#utility.yul\":7877:7899   */\n      add\n        /* \"#utility.yul\":7848:7909   */\n      tag_197\n      jump\t// in\n    tag_289:\n        /* \"#utility.yul\":7838:7909   */\n      swap2\n      pop\n        /* \"#utility.yul\":7794:7919   */\n      pop\n        /* \"#utility.yul\":7581:7926   */\n      swap3\n      swap2\n      pop\n      pop\n      jump\t// out\n        /* \"#utility.yul\":7932:8112   */\n    tag_198:\n        /* \"#utility.yul\":7980:8057   */\n      0x4e487b7100000000000000000000000000000000000000000000000000000000\n        /* \"#utility.yul\":7977:7978   */\n      0x00\n        /* \"#utility.yul\":7970:8058   */\n      mstore\n        /* \"#utility.yul\":8077:8081   */\n      0x11\n        /* \"#utility.yul\":8074:8075   */\n      0x04\n        /* \"#utility.yul\":8067:8082   */\n      mstore\n        /* \"#utility.yul\":8101:8105   */\n      0x24\n        /* \"#utility.yul\":8098:8099   */\n      0x00\n        /* \"#utility.yul\":8091:8106   */\n      revert\n        /* \"#utility.yul\":8118:8312   */\n    tag_79:\n        /* \"#utility.yul\":8158:8162   */\n      0x00\n        /* \"#utility.yul\":8178:8198   */\n      tag_292\n        /* \"#utility.yul\":8196:8197   */\n      dup3\n        /* \"#utility.yul\":8178:8198   */\n      tag_181\n      jump\t// in\n    tag_292:\n        /* \"#utility.yul\":8173:8198   */\n      swap2\n      pop\n        /* \"#utility.yul\":8212:8232   */\n      tag_293\n        /* \"#utility.yul\":8230:8231   */\n      dup4\n        /* \"#utility.yul\":8212:8232   */\n      tag_181\n      jump\t// in\n    tag_293:\n        /* \"#utility.yul\":8207:8232   */\n      swap3\n      pop\n        /* \"#utility.yul\":8256:8257   */\n      dup3\n        /* \"#utility.yul\":8253:8254   */\n      dup3\n        /* \"#utility.yul\":8249:8258   */\n      sub\n        /* \"#utility.yul\":8241:8258   */\n      swap1\n      pop\n        /* \"#utility.yul\":8280:8281   */\n      dup2\n        /* \"#utility.yul\":8274:8278   */\n      dup2\n        /* \"#utility.yul\":8271:8282   */\n      gt\n        /* \"#utility.yul\":8268:8305   */\n      iszero\n      tag_294\n      jumpi\n        /* \"#utility.yul\":8285:8303   */\n      tag_295\n      tag_198\n      jump\t// in\n    tag_295:\n        /* \"#utility.yul\":8268:8305   */\n    tag_294:\n        /* \"#utility.yul\":8118:8312   */\n      swap3\n      swap2\n      pop\n      pop\n      jump\t// out\n        /* \"#utility.yul\":8318:8728   */\n    tag_81:\n        /* \"#utility.yul\":8358:8365   */\n      0x00\n        /* \"#utility.yul\":8381:8401   */\n      tag_297\n        /* \"#utility.yul\":8399:8400   */\n      dup3\n        /* \"#utility.yul\":8381:8401   */\n      tag_181\n      jump\t// in\n    tag_297:\n        /* \"#utility.yul\":8376:8401   */\n      swap2\n      pop\n        /* \"#utility.yul\":8415:8435   */\n      tag_298\n        /* \"#utility.yul\":8433:8434   */\n      dup4\n        /* \"#utility.yul\":8415:8435   */\n      tag_181\n      jump\t// in\n    tag_298:\n        /* \"#utility.yul\":8410:8435   */\n      swap3\n      pop\n        /* \"#utility.yul\":8470:8471   */\n      dup3\n        /* \"#utility.yul\":8467:8468   */\n      dup3\n        /* \"#utility.yul\":8463:8472   */\n      mul\n        /* \"#utility.yul\":8492:8522   */\n      tag_299\n        /* \"#utility.yul\":8510:8521   */\n      dup2\n        /* \"#utility.yul\":8492:8522   */\n      tag_181\n      jump\t// in\n    tag_299:\n        /* \"#utility.yul\":8481:8522   */\n      swap2\n      pop\n        /* \"#utility.yul\":8671:8672   */\n      dup3\n        /* \"#utility.yul\":8662:8669   */\n      dup3\n        /* \"#utility.yul\":8658:8673   */\n      div\n        /* \"#utility.yul\":8655:8656   */\n      dup5\n        /* \"#utility.yul\":8652:8674   */\n      eq\n        /* \"#utility.yul\":8632:8633   */\n      dup4\n        /* \"#utility.yul\":8625:8634   */\n      iszero\n        /* \"#utility.yul\":8605:8688   */\n      or\n        /* \"#utility.yul\":8582:8721   */\n      tag_300\n      jumpi\n        /* \"#utility.yul\":8701:8719   */\n      tag_301\n      tag_198\n      jump\t// in\n    tag_301:\n        /* \"#utility.yul\":8582:8721   */\n    tag_300:\n        /* \"#utility.yul\":8366:8728   */\n      pop\n        /* \"#utility.yul\":8318:8728   */\n      swap3\n      swap2\n      pop\n      pop\n      jump\t// out\n        /* \"#utility.yul\":8734:8914   */\n    tag_199:\n        /* \"#utility.yul\":8782:8859   */\n      0x4e487b7100000000000000000000000000000000000000000000000000000000\n        /* \"#utility.yul\":8779:8780   */\n      0x00\n        /* \"#utility.yul\":8772:8860   */\n      mstore\n        /* \"#utility.yul\":8879:8883   */\n      0x12\n        /* \"#utility.yul\":8876:8877   */\n      0x04\n        /* \"#utility.yul\":8869:8884   */\n      mstore\n        /* \"#utility.yul\":8903:8907   */\n      0x24\n        /* \"#utility.yul\":8900:8901   */\n      0x00\n        /* \"#utility.yul\":8893:8908   */\n      revert\n        /* \"#utility.yul\":8920:9105   */\n    tag_83:\n        /* \"#utility.yul\":8960:8961   */\n      0x00\n        /* \"#utility.yul\":8977:8997   */\n      tag_304\n        /* \"#utility.yul\":8995:8996   */\n      dup3\n        /* \"#utility.yul\":8977:8997   */\n      tag_181\n      jump\t// in\n    tag_304:\n        /* \"#utility.yul\":8972:8997   */\n      swap2\n      pop\n        /* \"#utility.yul\":9011:9031   */\n      tag_305\n        /* \"#utility.yul\":9029:9030   */\n      dup4\n        /* \"#utility.yul\":9011:9031   */\n      tag_181\n      jump\t// in\n    tag_305:\n        /* \"#utility.yul\":9006:9031   */\n      swap3\n      pop\n        /* \"#utility.yul\":9050:9051   */\n      dup3\n        /* \"#utility.yul\":9040:9075   */\n      tag_306\n      jumpi\n        /* \"#utility.yul\":9055:9073   */\n      tag_307\n      tag_199\n      jump\t// in\n    tag_307:\n        /* \"#utility.yul\":9040:9075   */\n    tag_306:\n        /* \"#utility.yul\":9097:9098   */\n      dup3\n        /* \"#utility.yul\":9094:9095   */\n      dup3\n        /* \"#utility.yul\":9090:9099   */\n      div\n        /* \"#utility.yul\":9085:9099   */\n      swap1\n      pop\n        /* \"#utility.yul\":8920:9105   */\n      swap3\n      swap2\n      pop\n      pop\n      jump\t// out\n        /* \"#utility.yul\":9111:9187   */\n    tag_200:\n        /* \"#utility.yul\":9147:9154   */\n      0x00\n        /* \"#utility.yul\":9176:9181   */\n      dup2\n        /* \"#utility.yul\":9165:9181   */\n      swap1\n      pop\n        /* \"#utility.yul\":9111:9187   */\n      swap2\n      swap1\n      pop\n      jump\t// out\n        /* \"#utility.yul\":9193:9308   */\n    tag_201:\n        /* \"#utility.yul\":9278:9301   */\n      tag_310\n        /* \"#utility.yul\":9295:9300   */\n      dup2\n        /* \"#utility.yul\":9278:9301   */\n      tag_200\n      jump\t// in\n    tag_310:\n        /* \"#utility.yul\":9273:9276   */\n      dup3\n        /* \"#utility.yul\":9266:9302   */\n      mstore\n        /* \"#utility.yul\":9193:9308   */\n      pop\n      pop\n      jump\t// out\n        /* \"#utility.yul\":9314:9532   */\n    tag_104:\n        /* \"#utility.yul\":9405:9409   */\n      0x00\n        /* \"#utility.yul\":9443:9445   */\n      0x20\n        /* \"#utility.yul\":9432:9441   */\n      dup3\n        /* \"#utility.yul\":9428:9446   */\n      add\n        /* \"#utility.yul\":9420:9446   */\n      swap1\n      pop\n        /* \"#utility.yul\":9456:9525   */\n      tag_312\n        /* \"#utility.yul\":9522:9523   */\n      0x00\n        /* \"#utility.yul\":9511:9520   */\n      dup4\n        /* \"#utility.yul\":9507:9524   */\n      add\n        /* \"#utility.yul\":9498:9504   */\n      dup5\n        /* \"#utility.yul\":9456:9525   */\n      tag_201\n      jump\t// in\n    tag_312:\n        /* \"#utility.yul\":9314:9532   */\n      swap3\n      swap2\n      pop\n      pop\n      jump\t// out\n        /* \"#utility.yul\":9538:9870   */\n    tag_109:\n        /* \"#utility.yul\":9659:9663   */\n      0x00\n        /* \"#utility.yul\":9697:9699   */\n      0x40\n        /* \"#utility.yul\":9686:9695   */\n      dup3\n        /* \"#utility.yul\":9682:9700   */\n      add\n        /* \"#utility.yul\":9674:9700   */\n      swap1\n      pop\n        /* \"#utility.yul\":9710:9781   */\n      tag_314\n        /* \"#utility.yul\":9778:9779   */\n      0x00\n        /* \"#utility.yul\":9767:9776   */\n      dup4\n        /* \"#utility.yul\":9763:9780   */\n      add\n        /* \"#utility.yul\":9754:9760   */\n      dup6\n        /* \"#utility.yul\":9710:9781   */\n      tag_177\n      jump\t// in\n    tag_314:\n        /* \"#utility.yul\":9791:9863   */\n      tag_315\n        /* \"#utility.yul\":9859:9861   */\n      0x20\n        /* \"#utility.yul\":9848:9857   */\n      dup4\n        /* \"#utility.yul\":9844:9862   */\n      add\n        /* \"#utility.yul\":9835:9841   */\n      dup5\n        /* \"#utility.yul\":9791:9863   */\n      tag_184\n      jump\t// in\n    tag_315:\n        /* \"#utility.yul\":9538:9870   */\n      swap4\n      swap3\n      pop\n      pop\n      pop\n      jump\t// out\n        /* \"#utility.yul\":9876:10208   */\n    tag_114:\n        /* \"#utility.yul\":9997:10001   */\n      0x00\n        /* \"#utility.yul\":10035:10037   */\n      0x40\n        /* \"#utility.yul\":10024:10033   */\n      dup3\n        /* \"#utility.yul\":10020:10038   */\n      add\n        /* \"#utility.yul\":10012:10038   */\n      swap1\n      pop\n        /* \"#utility.yul\":10048:10119   */\n      tag_317\n        /* \"#utility.yul\":10116:10117   */\n      0x00\n        /* \"#utility.yul\":10105:10114   */\n      dup4\n        /* \"#utility.yul\":10101:10118   */\n      add\n        /* \"#utility.yul\":10092:10098   */\n      dup6\n        /* \"#utility.yul\":10048:10119   */\n      tag_184\n      jump\t// in\n    tag_317:\n        /* \"#utility.yul\":10129:10201   */\n      tag_318\n        /* \"#utility.yul\":10197:10199   */\n      0x20\n        /* \"#utility.yul\":10186:10195   */\n      dup4\n        /* \"#utility.yul\":10182:10200   */\n      add\n        /* \"#utility.yul\":10173:10179   */\n      dup5\n        /* \"#utility.yul\":10129:10201   */\n      tag_184\n      jump\t// in\n    tag_318:\n        /* \"#utility.yul\":9876:10208   */\n      swap4\n      swap3\n      pop\n      pop\n      pop\n      jump\t// out\n        /* \"#utility.yul\":10214:10387   */\n    tag_202:\n        /* \"#utility.yul\":10354:10379   */\n      0x5469636b2076616c7565206f7574206f662072616e6765000000000000000000\n        /* \"#utility.yul\":10350:10351   */\n      0x00\n        /* \"#utility.yul\":10342:10348   */\n      dup3\n        /* \"#utility.yul\":10338:10352   */\n      add\n        /* \"#utility.yul\":10331:10380   */\n      mstore\n        /* \"#utility.yul\":10214:10387   */\n      pop\n      jump\t// out\n        /* \"#utility.yul\":10393:10759   */\n    tag_203:\n        /* \"#utility.yul\":10535:10538   */\n      0x00\n        /* \"#utility.yul\":10556:10623   */\n      tag_321\n        /* \"#utility.yul\":10620:10622   */\n      0x17\n        /* \"#utility.yul\":10615:10618   */\n      dup4\n        /* \"#utility.yul\":10556:10623   */\n      tag_187\n      jump\t// in\n    tag_321:\n        /* \"#utility.yul\":10549:10623   */\n      swap2\n      pop\n        /* \"#utility.yul\":10632:10725   */\n      tag_322\n        /* \"#utility.yul\":10721:10724   */\n      dup3\n        /* \"#utility.yul\":10632:10725   */\n      tag_202\n      jump\t// in\n    tag_322:\n        /* \"#utility.yul\":10750:10752   */\n      0x20\n        /* \"#utility.yul\":10745:10748   */\n      dup3\n        /* \"#utility.yul\":10741:10753   */\n      add\n        /* \"#utility.yul\":10734:10753   */\n      swap1\n      pop\n        /* \"#utility.yul\":10393:10759   */\n      swap2\n      swap1\n      pop\n      jump\t// out\n        /* \"#utility.yul\":10765:11184   */\n    tag_124:\n        /* \"#utility.yul\":10931:10935   */\n      0x00\n        /* \"#utility.yul\":10969:10971   */\n      0x20\n        /* \"#utility.yul\":10958:10967   */\n      dup3\n        /* \"#utility.yul\":10954:10972   */\n      add\n        /* \"#utility.yul\":10946:10972   */\n      swap1\n      pop\n        /* \"#utility.yul\":11018:11027   */\n      dup2\n        /* \"#utility.yul\":11012:11016   */\n      dup2\n        /* \"#utility.yul\":11008:11028   */\n      sub\n        /* \"#utility.yul\":11004:11005   */\n      0x00\n        /* \"#utility.yul\":10993:11002   */\n      dup4\n        /* \"#utility.yul\":10989:11006   */\n      add\n        /* \"#utility.yul\":10982:11029   */\n      mstore\n        /* \"#utility.yul\":11046:11177   */\n      tag_324\n        /* \"#utility.yul\":11172:11176   */\n      dup2\n        /* \"#utility.yul\":11046:11177   */\n      tag_203\n      jump\t// in\n    tag_324:\n        /* \"#utility.yul\":11038:11177   */\n      swap1\n      pop\n        /* \"#utility.yul\":10765:11184   */\n      swap2\n      swap1\n      pop\n      jump\t// out\n        /* \"#utility.yul\":11190:11381   */\n    tag_146:\n        /* \"#utility.yul\":11230:11233   */\n      0x00\n        /* \"#utility.yul\":11249:11269   */\n      tag_326\n        /* \"#utility.yul\":11267:11268   */\n      dup3\n        /* \"#utility.yul\":11249:11269   */\n      tag_181\n      jump\t// in\n    tag_326:\n        /* \"#utility.yul\":11244:11269   */\n      swap2\n      pop\n        /* \"#utility.yul\":11283:11303   */\n      tag_327\n        /* \"#utility.yul\":11301:11302   */\n      dup4\n        /* \"#utility.yul\":11283:11303   */\n      tag_181\n      jump\t// in\n    tag_327:\n        /* \"#utility.yul\":11278:11303   */\n      swap3\n      pop\n        /* \"#utility.yul\":11326:11327   */\n      dup3\n        /* \"#utility.yul\":11323:11324   */\n      dup3\n        /* \"#utility.yul\":11319:11328   */\n      add\n        /* \"#utility.yul\":11312:11328   */\n      swap1\n      pop\n        /* \"#utility.yul\":11347:11350   */\n      dup1\n        /* \"#utility.yul\":11344:11345   */\n      dup3\n        /* \"#utility.yul\":11341:11351   */\n      gt\n        /* \"#utility.yul\":11338:11374   */\n      iszero\n      tag_328\n      jumpi\n        /* \"#utility.yul\":11354:11372   */\n      tag_329\n      tag_198\n      jump\t// in\n    tag_329:\n        /* \"#utility.yul\":11338:11374   */\n    tag_328:\n        /* \"#utility.yul\":11190:11381   */\n      swap3\n      swap2\n      pop\n      pop\n      jump\t// out\n        /* \"#utility.yul\":11387:11495   */\n    tag_204:\n        /* \"#utility.yul\":11464:11488   */\n      tag_331\n        /* \"#utility.yul\":11482:11487   */\n      dup2\n        /* \"#utility.yul\":11464:11488   */\n      tag_176\n      jump\t// in\n    tag_331:\n        /* \"#utility.yul\":11459:11462   */\n      dup3\n        /* \"#utility.yul\":11452:11489   */\n      mstore\n        /* \"#utility.yul\":11387:11495   */\n      pop\n      pop\n      jump\t// out\n        /* \"#utility.yul\":11501:11606   */\n    tag_205:\n        /* \"#utility.yul\":11576:11599   */\n      tag_333\n        /* \"#utility.yul\":11593:11598   */\n      dup2\n        /* \"#utility.yul\":11576:11599   */\n      tag_173\n      jump\t// in\n    tag_333:\n        /* \"#utility.yul\":11571:11574   */\n      dup3\n        /* \"#utility.yul\":11564:11600   */\n      mstore\n        /* \"#utility.yul\":11501:11606   */\n      pop\n      pop\n      jump\t// out\n        /* \"#utility.yul\":11612:11714   */\n    tag_206:\n        /* \"#utility.yul\":11685:11707   */\n      tag_335\n        /* \"#utility.yul\":11701:11706   */\n      dup2\n        /* \"#utility.yul\":11685:11707   */\n      tag_185\n      jump\t// in\n    tag_335:\n        /* \"#utility.yul\":11680:11683   */\n      dup3\n        /* \"#utility.yul\":11673:11708   */\n      mstore\n        /* \"#utility.yul\":11612:11714   */\n      pop\n      pop\n      jump\t// out\n        /* \"#utility.yul\":11720:11828   */\n    tag_207:\n        /* \"#utility.yul\":11797:11821   */\n      tag_337\n        /* \"#utility.yul\":11815:11820   */\n      dup2\n        /* \"#utility.yul\":11797:11821   */\n      tag_181\n      jump\t// in\n    tag_337:\n        /* \"#utility.yul\":11792:11795   */\n      dup3\n        /* \"#utility.yul\":11785:11822   */\n      mstore\n        /* \"#utility.yul\":11720:11828   */\n      pop\n      pop\n      jump\t// out\n        /* \"#utility.yul\":11936:14071   */\n    tag_208:\n        /* \"#utility.yul\":12087:12093   */\n      0x0160\n        /* \"#utility.yul\":12082:12085   */\n      dup3\n        /* \"#utility.yul\":12078:12094   */\n      add\n        /* \"#utility.yul\":12178:12182   */\n      0x00\n        /* \"#utility.yul\":12171:12176   */\n      dup3\n        /* \"#utility.yul\":12167:12183   */\n      add\n        /* \"#utility.yul\":12161:12184   */\n      mload\n        /* \"#utility.yul\":12197:12260   */\n      tag_339\n        /* \"#utility.yul\":12254:12258   */\n      0x00\n        /* \"#utility.yul\":12249:12252   */\n      dup6\n        /* \"#utility.yul\":12245:12259   */\n      add\n        /* \"#utility.yul\":12231:12243   */\n      dup3\n        /* \"#utility.yul\":12197:12260   */\n      tag_204\n      jump\t// in\n    tag_339:\n        /* \"#utility.yul\":12104:12270   */\n      pop\n        /* \"#utility.yul\":12354:12358   */\n      0x20\n        /* \"#utility.yul\":12347:12352   */\n      dup3\n        /* \"#utility.yul\":12343:12359   */\n      add\n        /* \"#utility.yul\":12337:12360   */\n      mload\n        /* \"#utility.yul\":12373:12436   */\n      tag_340\n        /* \"#utility.yul\":12430:12434   */\n      0x20\n        /* \"#utility.yul\":12425:12428   */\n      dup6\n        /* \"#utility.yul\":12421:12435   */\n      add\n        /* \"#utility.yul\":12407:12419   */\n      dup3\n        /* \"#utility.yul\":12373:12436   */\n      tag_204\n      jump\t// in\n    tag_340:\n        /* \"#utility.yul\":12280:12446   */\n      pop\n        /* \"#utility.yul\":12527:12531   */\n      0x40\n        /* \"#utility.yul\":12520:12525   */\n      dup3\n        /* \"#utility.yul\":12516:12532   */\n      add\n        /* \"#utility.yul\":12510:12533   */\n      mload\n        /* \"#utility.yul\":12546:12607   */\n      tag_341\n        /* \"#utility.yul\":12601:12605   */\n      0x40\n        /* \"#utility.yul\":12596:12599   */\n      dup6\n        /* \"#utility.yul\":12592:12606   */\n      add\n        /* \"#utility.yul\":12578:12590   */\n      dup3\n        /* \"#utility.yul\":12546:12607   */\n      tag_205\n      jump\t// in\n    tag_341:\n        /* \"#utility.yul\":12456:12617   */\n      pop\n        /* \"#utility.yul\":12704:12708   */\n      0x60\n        /* \"#utility.yul\":12697:12702   */\n      dup3\n        /* \"#utility.yul\":12693:12709   */\n      add\n        /* \"#utility.yul\":12687:12710   */\n      mload\n        /* \"#utility.yul\":12723:12782   */\n      tag_342\n        /* \"#utility.yul\":12776:12780   */\n      0x60\n        /* \"#utility.yul\":12771:12774   */\n      dup6\n        /* \"#utility.yul\":12767:12781   */\n      add\n        /* \"#utility.yul\":12753:12765   */\n      dup3\n        /* \"#utility.yul\":12723:12782   */\n      tag_206\n      jump\t// in\n    tag_342:\n        /* \"#utility.yul\":12627:12792   */\n      pop\n        /* \"#utility.yul\":12879:12883   */\n      0x80\n        /* \"#utility.yul\":12872:12877   */\n      dup3\n        /* \"#utility.yul\":12868:12884   */\n      add\n        /* \"#utility.yul\":12862:12885   */\n      mload\n        /* \"#utility.yul\":12898:12957   */\n      tag_343\n        /* \"#utility.yul\":12951:12955   */\n      0x80\n        /* \"#utility.yul\":12946:12949   */\n      dup6\n        /* \"#utility.yul\":12942:12956   */\n      add\n        /* \"#utility.yul\":12928:12940   */\n      dup3\n        /* \"#utility.yul\":12898:12957   */\n      tag_206\n      jump\t// in\n    tag_343:\n        /* \"#utility.yul\":12802:12967   */\n      pop\n        /* \"#utility.yul\":13059:13063   */\n      0xa0\n        /* \"#utility.yul\":13052:13057   */\n      dup3\n        /* \"#utility.yul\":13048:13064   */\n      add\n        /* \"#utility.yul\":13042:13065   */\n      mload\n        /* \"#utility.yul\":13078:13141   */\n      tag_344\n        /* \"#utility.yul\":13135:13139   */\n      0xa0\n        /* \"#utility.yul\":13130:13133   */\n      dup6\n        /* \"#utility.yul\":13126:13140   */\n      add\n        /* \"#utility.yul\":13112:13124   */\n      dup3\n        /* \"#utility.yul\":13078:13141   */\n      tag_207\n      jump\t// in\n    tag_344:\n        /* \"#utility.yul\":12977:13151   */\n      pop\n        /* \"#utility.yul\":13243:13247   */\n      0xc0\n        /* \"#utility.yul\":13236:13241   */\n      dup3\n        /* \"#utility.yul\":13232:13248   */\n      add\n        /* \"#utility.yul\":13226:13249   */\n      mload\n        /* \"#utility.yul\":13262:13325   */\n      tag_345\n        /* \"#utility.yul\":13319:13323   */\n      0xc0\n        /* \"#utility.yul\":13314:13317   */\n      dup6\n        /* \"#utility.yul\":13310:13324   */\n      add\n        /* \"#utility.yul\":13296:13308   */\n      dup3\n        /* \"#utility.yul\":13262:13325   */\n      tag_207\n      jump\t// in\n    tag_345:\n        /* \"#utility.yul\":13161:13335   */\n      pop\n        /* \"#utility.yul\":13423:13427   */\n      0xe0\n        /* \"#utility.yul\":13416:13421   */\n      dup3\n        /* \"#utility.yul\":13412:13428   */\n      add\n        /* \"#utility.yul\":13406:13429   */\n      mload\n        /* \"#utility.yul\":13442:13505   */\n      tag_346\n        /* \"#utility.yul\":13499:13503   */\n      0xe0\n        /* \"#utility.yul\":13494:13497   */\n      dup6\n        /* \"#utility.yul\":13490:13504   */\n      add\n        /* \"#utility.yul\":13476:13488   */\n      dup3\n        /* \"#utility.yul\":13442:13505   */\n      tag_207\n      jump\t// in\n    tag_346:\n        /* \"#utility.yul\":13345:13515   */\n      pop\n        /* \"#utility.yul\":13603:13609   */\n      0x0100\n        /* \"#utility.yul\":13596:13601   */\n      dup3\n        /* \"#utility.yul\":13592:13610   */\n      add\n        /* \"#utility.yul\":13586:13611   */\n      mload\n        /* \"#utility.yul\":13624:13689   */\n      tag_347\n        /* \"#utility.yul\":13681:13687   */\n      0x0100\n        /* \"#utility.yul\":13676:13679   */\n      dup6\n        /* \"#utility.yul\":13672:13688   */\n      add\n        /* \"#utility.yul\":13658:13670   */\n      dup3\n        /* \"#utility.yul\":13624:13689   */\n      tag_207\n      jump\t// in\n    tag_347:\n        /* \"#utility.yul\":13525:13699   */\n      pop\n        /* \"#utility.yul\":13786:13792   */\n      0x0120\n        /* \"#utility.yul\":13779:13784   */\n      dup3\n        /* \"#utility.yul\":13775:13793   */\n      add\n        /* \"#utility.yul\":13769:13794   */\n      mload\n        /* \"#utility.yul\":13807:13872   */\n      tag_348\n        /* \"#utility.yul\":13864:13870   */\n      0x0120\n        /* \"#utility.yul\":13859:13862   */\n      dup6\n        /* \"#utility.yul\":13855:13871   */\n      add\n        /* \"#utility.yul\":13841:13853   */\n      dup3\n        /* \"#utility.yul\":13807:13872   */\n      tag_204\n      jump\t// in\n    tag_348:\n        /* \"#utility.yul\":13709:13882   */\n      pop\n        /* \"#utility.yul\":13968:13974   */\n      0x0140\n        /* \"#utility.yul\":13961:13966   */\n      dup3\n        /* \"#utility.yul\":13957:13975   */\n      add\n        /* \"#utility.yul\":13951:13976   */\n      mload\n        /* \"#utility.yul\":13989:14054   */\n      tag_349\n        /* \"#utility.yul\":14046:14052   */\n      0x0140\n        /* \"#utility.yul\":14041:14044   */\n      dup6\n        /* \"#utility.yul\":14037:14053   */\n      add\n        /* \"#utility.yul\":14023:14035   */\n      dup3\n        /* \"#utility.yul\":13989:14054   */\n      tag_207\n      jump\t// in\n    tag_349:\n        /* \"#utility.yul\":13892:14064   */\n      pop\n        /* \"#utility.yul\":12056:14071   */\n      pop\n        /* \"#utility.yul\":11936:14071   */\n      pop\n      pop\n      jump\t// out\n        /* \"#utility.yul\":14077:14408   */\n    tag_148:\n        /* \"#utility.yul\":14224:14228   */\n      0x00\n        /* \"#utility.yul\":14262:14265   */\n      0x0160\n        /* \"#utility.yul\":14251:14260   */\n      dup3\n        /* \"#utility.yul\":14247:14266   */\n      add\n        /* \"#utility.yul\":14239:14266   */\n      swap1\n      pop\n        /* \"#utility.yul\":14276:14401   */\n      tag_351\n        /* \"#utility.yul\":14398:14399   */\n      0x00\n        /* \"#utility.yul\":14387:14396   */\n      dup4\n        /* \"#utility.yul\":14383:14400   */\n      add\n        /* \"#utility.yul\":14374:14380   */\n      dup5\n        /* \"#utility.yul\":14276:14401   */\n      tag_208\n      jump\t// in\n    tag_351:\n        /* \"#utility.yul\":14077:14408   */\n      swap3\n      swap2\n      pop\n      pop\n      jump\t// out\n        /* \"#utility.yul\":14414:14532   */\n    tag_209:\n        /* \"#utility.yul\":14451:14458   */\n      0x00\n        /* \"#utility.yul\":14491:14525   */\n      0xffffffffffffffffffffffffffffffff\n        /* \"#utility.yul\":14484:14489   */\n      dup3\n        /* \"#utility.yul\":14480:14526   */\n      and\n        /* \"#utility.yul\":14469:14526   */\n      swap1\n      pop\n        /* \"#utility.yul\":14414:14532   */\n      swap2\n      swap1\n      pop\n      jump\t// out\n        /* \"#utility.yul\":14538:14660   */\n    tag_210:\n        /* \"#utility.yul\":14611:14635   */\n      tag_354\n        /* \"#utility.yul\":14629:14634   */\n      dup2\n        /* \"#utility.yul\":14611:14635   */\n      tag_209\n      jump\t// in\n    tag_354:\n        /* \"#utility.yul\":14604:14609   */\n      dup2\n        /* \"#utility.yul\":14601:14636   */\n      eq\n        /* \"#utility.yul\":14591:14654   */\n      tag_355\n      jumpi\n        /* \"#utility.yul\":14650:14651   */\n      0x00\n        /* \"#utility.yul\":14647:14648   */\n      0x00\n        /* \"#utility.yul\":14640:14652   */\n      revert\n        /* \"#utility.yul\":14591:14654   */\n    tag_355:\n        /* \"#utility.yul\":14538:14660   */\n      pop\n      jump\t// out\n        /* \"#utility.yul\":14666:14809   */\n    tag_211:\n        /* \"#utility.yul\":14723:14728   */\n      0x00\n        /* \"#utility.yul\":14754:14760   */\n      dup2\n        /* \"#utility.yul\":14748:14761   */\n      mload\n        /* \"#utility.yul\":14739:14761   */\n      swap1\n      pop\n        /* \"#utility.yul\":14770:14803   */\n      tag_357\n        /* \"#utility.yul\":14797:14802   */\n      dup2\n        /* \"#utility.yul\":14770:14803   */\n      tag_210\n      jump\t// in\n    tag_357:\n        /* \"#utility.yul\":14666:14809   */\n      swap3\n      swap2\n      pop\n      pop\n      jump\t// out\n        /* \"#utility.yul\":14815:15635   */\n    tag_152:\n        /* \"#utility.yul\":14912:14918   */\n      0x00\n        /* \"#utility.yul\":14920:14926   */\n      0x00\n        /* \"#utility.yul\":14928:14934   */\n      0x00\n        /* \"#utility.yul\":14936:14942   */\n      0x00\n        /* \"#utility.yul\":14985:14988   */\n      0x80\n        /* \"#utility.yul\":14973:14982   */\n      dup6\n        /* \"#utility.yul\":14964:14971   */\n      dup8\n        /* \"#utility.yul\":14960:14983   */\n      sub\n        /* \"#utility.yul\":14956:14989   */\n      slt\n        /* \"#utility.yul\":14953:15073   */\n      iszero\n      tag_359\n      jumpi\n        /* \"#utility.yul\":14992:15071   */\n      tag_360\n      tag_179\n      jump\t// in\n    tag_360:\n        /* \"#utility.yul\":14953:15073   */\n    tag_359:\n        /* \"#utility.yul\":15112:15113   */\n      0x00\n        /* \"#utility.yul\":15137:15201   */\n      tag_361\n        /* \"#utility.yul\":15193:15200   */\n      dup8\n        /* \"#utility.yul\":15184:15190   */\n      dup3\n        /* \"#utility.yul\":15173:15182   */\n      dup9\n        /* \"#utility.yul\":15169:15191   */\n      add\n        /* \"#utility.yul\":15137:15201   */\n      tag_192\n      jump\t// in\n    tag_361:\n        /* \"#utility.yul\":15127:15201   */\n      swap5\n      pop\n        /* \"#utility.yul\":15083:15211   */\n      pop\n        /* \"#utility.yul\":15250:15252   */\n      0x20\n        /* \"#utility.yul\":15276:15340   */\n      tag_362\n        /* \"#utility.yul\":15332:15339   */\n      dup8\n        /* \"#utility.yul\":15323:15329   */\n      dup3\n        /* \"#utility.yul\":15312:15321   */\n      dup9\n        /* \"#utility.yul\":15308:15330   */\n      add\n        /* \"#utility.yul\":15276:15340   */\n      tag_211\n      jump\t// in\n    tag_362:\n        /* \"#utility.yul\":15266:15340   */\n      swap4\n      pop\n        /* \"#utility.yul\":15221:15350   */\n      pop\n        /* \"#utility.yul\":15389:15391   */\n      0x40\n        /* \"#utility.yul\":15415:15479   */\n      tag_363\n        /* \"#utility.yul\":15471:15478   */\n      dup8\n        /* \"#utility.yul\":15462:15468   */\n      dup3\n        /* \"#utility.yul\":15451:15460   */\n      dup9\n        /* \"#utility.yul\":15447:15469   */\n      add\n        /* \"#utility.yul\":15415:15479   */\n      tag_192\n      jump\t// in\n    tag_363:\n        /* \"#utility.yul\":15405:15479   */\n      swap3\n      pop\n        /* \"#utility.yul\":15360:15489   */\n      pop\n        /* \"#utility.yul\":15528:15530   */\n      0x60\n        /* \"#utility.yul\":15554:15618   */\n      tag_364\n        /* \"#utility.yul\":15610:15617   */\n      dup8\n        /* \"#utility.yul\":15601:15607   */\n      dup3\n        /* \"#utility.yul\":15590:15599   */\n      dup9\n        /* \"#utility.yul\":15586:15608   */\n      add\n        /* \"#utility.yul\":15554:15618   */\n      tag_192\n      jump\t// in\n    tag_364:\n        /* \"#utility.yul\":15544:15618   */\n      swap2\n      pop\n        /* \"#utility.yul\":15499:15628   */\n      pop\n        /* \"#utility.yul\":14815:15635   */\n      swap3\n      swap6\n      swap2\n      swap5\n      pop\n      swap3\n      pop\n      jump\t// out\n        /* \"#utility.yul\":15641:15759   */\n    tag_212:\n        /* \"#utility.yul\":15728:15752   */\n      tag_366\n        /* \"#utility.yul\":15746:15751   */\n      dup2\n        /* \"#utility.yul\":15728:15752   */\n      tag_209\n      jump\t// in\n    tag_366:\n        /* \"#utility.yul\":15723:15726   */\n      dup3\n        /* \"#utility.yul\":15716:15753   */\n      mstore\n        /* \"#utility.yul\":15641:15759   */\n      pop\n      pop\n      jump\t// out\n        /* \"#utility.yul\":15765:16318   */\n    tag_154:\n        /* \"#utility.yul\":15942:15946   */\n      0x00\n        /* \"#utility.yul\":15980:15983   */\n      0x80\n        /* \"#utility.yul\":15969:15978   */\n      dup3\n        /* \"#utility.yul\":15965:15984   */\n      add\n        /* \"#utility.yul\":15957:15984   */\n      swap1\n      pop\n        /* \"#utility.yul\":15994:16065   */\n      tag_368\n        /* \"#utility.yul\":16062:16063   */\n      0x00\n        /* \"#utility.yul\":16051:16060   */\n      dup4\n        /* \"#utility.yul\":16047:16064   */\n      add\n        /* \"#utility.yul\":16038:16044   */\n      dup8\n        /* \"#utility.yul\":15994:16065   */\n      tag_184\n      jump\t// in\n    tag_368:\n        /* \"#utility.yul\":16075:16147   */\n      tag_369\n        /* \"#utility.yul\":16143:16145   */\n      0x20\n        /* \"#utility.yul\":16132:16141   */\n      dup4\n        /* \"#utility.yul\":16128:16146   */\n      add\n        /* \"#utility.yul\":16119:16125   */\n      dup7\n        /* \"#utility.yul\":16075:16147   */\n      tag_212\n      jump\t// in\n    tag_369:\n        /* \"#utility.yul\":16157:16229   */\n      tag_370\n        /* \"#utility.yul\":16225:16227   */\n      0x40\n        /* \"#utility.yul\":16214:16223   */\n      dup4\n        /* \"#utility.yul\":16210:16228   */\n      add\n        /* \"#utility.yul\":16201:16207   */\n      dup6\n        /* \"#utility.yul\":16157:16229   */\n      tag_184\n      jump\t// in\n    tag_370:\n        /* \"#utility.yul\":16239:16311   */\n      tag_371\n        /* \"#utility.yul\":16307:16309   */\n      0x60\n        /* \"#utility.yul\":16296:16305   */\n      dup4\n        /* \"#utility.yul\":16292:16310   */\n      add\n        /* \"#utility.yul\":16283:16289   */\n      dup5\n        /* \"#utility.yul\":16239:16311   */\n      tag_184\n      jump\t// in\n    tag_371:\n        /* \"#utility.yul\":15765:16318   */\n      swap6\n      swap5\n      pop\n      pop\n      pop\n      pop\n      pop\n      jump\t// out\n        /* \"#utility.yul\":16324:16557   */\n    tag_172:\n        /* \"#utility.yul\":16363:16366   */\n      0x00\n        /* \"#utility.yul\":16386:16410   */\n      tag_373\n        /* \"#utility.yul\":16404:16409   */\n      dup3\n        /* \"#utility.yul\":16386:16410   */\n      tag_181\n      jump\t// in\n    tag_373:\n        /* \"#utility.yul\":16377:16410   */\n      swap2\n      pop\n        /* \"#utility.yul\":16432:16498   */\n      0xffffffffffffffffffffffffffffffffffffffffffffffffffffffffffffffff\n        /* \"#utility.yul\":16425:16430   */\n      dup3\n        /* \"#utility.yul\":16422:16499   */\n      sub\n        /* \"#utility.yul\":16419:16522   */\n      tag_374\n      jumpi\n        /* \"#utility.yul\":16502:16520   */\n      tag_375\n      tag_198\n      jump\t// in\n    tag_375:\n        /* \"#utility.yul\":16419:16522   */\n    tag_374:\n        /* \"#utility.yul\":16549:16550   */\n      0x01\n        /* \"#utility.yul\":16542:16547   */\n      dup3\n        /* \"#utility.yul\":16538:16551   */\n      add\n        /* \"#utility.yul\":16531:16551   */\n      swap1\n      pop\n        /* \"#utility.yul\":16324:16557   */\n      swap2\n      swap1\n      pop\n      jump\t// out\n\n    auxdata: 0xa2646970667358221220fc9c7cc52ffff92a7bd5c00096eb291f045a1a75890123d39afe30e02c3c623e64736f6c634300081c0033\n}\n",
				"bytecode": {
					"linkReferences": {},
					"object": "6080604052610bb8600360146101000a81548162ffffff021916908362ffffff160217905550600560045566014e20c32bd2db600555348015610040575f5ffd5b50604051611962380380611962833981810160405281019061006291906101c7565b335f5f6101000a81548173ffffffffffffffffffffffffffffffffffffffff021916908373ffffffffffffffffffffffffffffffffffffffff1602179055508260015f6101000a81548173ffffffffffffffffffffffffffffffffffffffff021916908373ffffffffffffffffffffffffffffffffffffffff1602179055508160025f6101000a81548173ffffffffffffffffffffffffffffffffffffffff021916908373ffffffffffffffffffffffffffffffffffffffff1602179055508060035f6101000a81548173ffffffffffffffffffffffffffffffffffffffff021916908373ffffffffffffffffffffffffffffffffffffffff160217905550505050610217565b5f5ffd5b5f73ffffffffffffffffffffffffffffffffffffffff82169050919050565b5f6101968261016d565b9050919050565b6101a68161018c565b81146101b0575f5ffd5b50565b5f815190506101c18161019d565b92915050565b5f5f5f606084860312156101de576101dd610169565b5b5f6101eb868287016101b3565b93505060206101fc868287016101b3565b925050604061020d868287016101b3565b9150509250925092565b61173e806102245f395ff3fe608060405234801561000f575f5ffd5b50600436106100a7575f3560e01c80638da5cb5b1161006f5780638da5cb5b1461013f5780639940686e1461015d578063dc38679c14610179578063dc5cc6f614610197578063e6c0e6d5146101c7578063eb521a4c146101e5576100a7565b8063089fe6aa146100ab5780633a6eb3df146100c95780633fc8cef3146100e75780636a64eff814610105578063791b98bc14610121575b5f5ffd5b6100b3610201565b6040516100c09190610f07565b60405180910390f35b6100d1610216565b6040516100de9190610f5f565b60405180910390f35b6100ef61023b565b6040516100fc9190610f5f565b60405180910390f35b61011f600480360381019061011a9190610faf565b610260565b005b6101296102f8565b6040516101369190610f5f565b60405180910390f35b61014761031d565b6040516101549190610f5f565b60405180910390f35b61017760048036038101906101729190610faf565b610341565b005b6101816108c4565b60405161018e9190610fe9565b60405180910390f35b6101b160048036038101906101ac9190610faf565b6108ca565b6040516101be919061101d565b60405180910390f35b6101cf610988565b6040516101dc9190610fe9565b60405180910390f35b6101ff60048036038101906101fa9190610faf565b61098e565b005b600360149054906101000a900462ffffff1681565b60025f9054906101000a900473ffffffffffffffffffffffffffffffffffffffff1681565b60015f9054906101000a900473ffffffffffffffffffffffffffffffffffffffff1681565b5f5f9054906101000a900473ffffffffffffffffffffffffffffffffffffffff1673ffffffffffffffffffffffffffffffffffffffff163373ffffffffffffffffffffffffffffffffffffffff16146102ee576040517f08c379a00000000000000000000000000000000000000000000000000000000081526004016102e590611090565b60405180910390fd5b8060058190555050565b60035f9054906101000a900473ffffffffffffffffffffffffffffffffffffffff1681565b5f5f9054906101000a900473ffffffffffffffffffffffffffffffffffffffff1681565b5f8111610383576040517f08c379a000000000000000000000000000000000000000000000000000000000815260040161037a906110f8565b60405180910390fd5b5f60015f9054906101000a900473ffffffffffffffffffffffffffffffffffffffff1673ffffffffffffffffffffffffffffffffffffffff1663dd62ed3e33306040518363ffffffff1660e01b81526004016103e0929190611116565b602060405180830381865afa1580156103fb573d5f5f3e3d5ffd5b505050506040513d601f19601f8201168201806040525081019061041f9190611151565b905081811015610464576040517f08c379a000000000000000000000000000000000000000000000000000000000815260040161045b906111c6565b60405180910390fd5b60015f9054906101000a900473ffffffffffffffffffffffffffffffffffffffff1673ffffffffffffffffffffffffffffffffffffffff166323b872dd3330856040518463ffffffff1660e01b81526004016104c2939291906111e4565b6020604051808303815f875af11580156104de573d5f5f3e3d5ffd5b505050506040513d601f19601f82011682018060405250810190610502919061124e565b505f6064600454606461051591906112a6565b60055461052291906112d9565b61052c9190611347565b90505f81670de0b6b3a76400008561054491906112d9565b61054e9190611347565b90505f60025f9054906101000a900473ffffffffffffffffffffffffffffffffffffffff1673ffffffffffffffffffffffffffffffffffffffff166370a08231306040518263ffffffff1660e01b81526004016105ab9190610f5f565b602060405180830381865afa1580156105c6573d5f5f3e3d5ffd5b505050506040513d601f19601f820116820180604052508101906105ea9190611151565b9050818110156107d0575f818361060191906112a6565b90505f60025f9054906101000a900473ffffffffffffffffffffffffffffffffffffffff1673ffffffffffffffffffffffffffffffffffffffff166318160ddd6040518163ffffffff1660e01b8152600401602060405180830381865afa15801561066e573d5f5f3e3d5ffd5b505050506040513d601f19601f820116820180604052508101906106929190611151565b90505f81036107275760025f9054906101000a900473ffffffffffffffffffffffffffffffffffffffff1673ffffffffffffffffffffffffffffffffffffffff1663d9e63bb1836040518263ffffffff1660e01b81526004016106f59190610fe9565b5f604051808303815f87803b15801561070c575f5ffd5b505af115801561071e573d5f5f3e3d5ffd5b505050506107cd565b5f81620f42408461073891906112d9565b6107429190611347565b905060025f9054906101000a900473ffffffffffffffffffffffffffffffffffffffff1673ffffffffffffffffffffffffffffffffffffffff16630ab114f9826040518263ffffffff1660e01b815260040161079e919061138f565b5f604051808303815f87803b1580156107b5575f5ffd5b505af11580156107c7573d5f5f3e3d5ffd5b50505050505b50505b60025f9054906101000a900473ffffffffffffffffffffffffffffffffffffffff1673ffffffffffffffffffffffffffffffffffffffff1663a9059cbb33846040518363ffffffff1660e01b815260040161082c9291906113a8565b6020604051808303815f875af1158015610848573d5f5f3e3d5ffd5b505050506040513d601f19601f8201168201806040525081019061086c919061124e565b503373ffffffffffffffffffffffffffffffffffffffff167f0db13e87b3f9c3b8f5f3acad928df55c52ba6bf7795af4ec069de5e23caacb3786846040516108b59291906113cf565b60405180910390a25050505050565b60055481565b5f5f6108d583610e17565b90505f6c01000000000000000000000000826108f191906112d9565b90505f61090382612711612710610e88565b90507fffffffffffffffffffffffffffffffffffffffffffffffffffffffffff80000060020b811215801561093e5750627fffff60020b8113155b61097d576040517f08c379a000000000000000000000000000000000000000000000000000000000815260040161097490611440565b60405180910390fd5b809350505050919050565b60045481565b5f5f9054906101000a900473ffffffffffffffffffffffffffffffffffffffff1673ffffffffffffffffffffffffffffffffffffffff163373ffffffffffffffffffffffffffffffffffffffff1614610a1c576040517f08c379a0000000000000000000000000000000000000000000000000000000008152600401610a1390611090565b60405180910390fd5b5f600554670de0b6b3a764000083610a3491906112d9565b610a3e9190611347565b90505f6064605f600554610a5291906112d9565b610a5c9190611347565b90505f60646069600554610a7091906112d9565b610a7a9190611347565b90505f610a86836108ca565b90505f610a92836108ca565b905060015f9054906101000a900473ffffffffffffffffffffffffffffffffffffffff1673ffffffffffffffffffffffffffffffffffffffff1663095ea7b360035f9054906101000a900473ffffffffffffffffffffffffffffffffffffffff16886040518363ffffffff1660e01b8152600401610b119291906113a8565b6020604051808303815f875af1158015610b2d573d5f5f3e3d5ffd5b505050506040513d601f19601f82011682018060405250810190610b51919061124e565b5060025f9054906101000a900473ffffffffffffffffffffffffffffffffffffffff1673ffffffffffffffffffffffffffffffffffffffff1663095ea7b360035f9054906101000a900473ffffffffffffffffffffffffffffffffffffffff16876040518363ffffffff1660e01b8152600401610bcf9291906113a8565b6020604051808303815f875af1158015610beb573d5f5f3e3d5ffd5b505050506040513d601f19601f82011682018060405250810190610c0f919061124e565b505f5f5f5f60035f9054906101000a900473ffffffffffffffffffffffffffffffffffffffff1673ffffffffffffffffffffffffffffffffffffffff16638831645660405180610160016040528060015f9054906101000a900473ffffffffffffffffffffffffffffffffffffffff1673ffffffffffffffffffffffffffffffffffffffff16815260200160025f9054906101000a900473ffffffffffffffffffffffffffffffffffffffff1673ffffffffffffffffffffffffffffffffffffffff168152602001600360149054906101000a900462ffffff1662ffffff1681526020018960020b81526020018860020b81526020018d81526020018c81526020015f81526020015f81526020015f5f9054906101000a900473ffffffffffffffffffffffffffffffffffffffff1673ffffffffffffffffffffffffffffffffffffffff16815260200161012c42610d67919061145e565b8152506040518263ffffffff1660e01b8152600401610d8691906115ac565b6080604051808303815f875af1158015610da2573d5f5f3e3d5ffd5b505050506040513d601f19601f82011682018060405250810190610dc6919061160b565b93509350935093507ff932bec3f0086aed14ace0a396941a083546fd1a3497ed66cc5b9856c890db0a84848484604051610e03949392919061167e565b60405180910390a150505050505050505050565b5f5f8203610e27575f9050610e83565b5f6002600184610e37919061145e565b610e419190611347565b90505f8390505b80821015610e7d578190506002828386610e629190611347565b610e6c919061145e565b610e769190611347565b9150610e48565b80925050505b919050565b5f5f5f90505b82670de0b6b3a764000085610ea391906112d9565b610ead9190611347565b8510610edf57838386610ec091906112d9565b610eca9190611347565b94508080610ed7906116c1565b915050610e8e565b809150509392505050565b5f62ffffff82169050919050565b610f0181610eea565b82525050565b5f602082019050610f1a5f830184610ef8565b92915050565b5f73ffffffffffffffffffffffffffffffffffffffff82169050919050565b5f610f4982610f20565b9050919050565b610f5981610f3f565b82525050565b5f602082019050610f725f830184610f50565b92915050565b5f5ffd5b5f819050919050565b610f8e81610f7c565b8114610f98575f5ffd5b50565b5f81359050610fa981610f85565b92915050565b5f60208284031215610fc457610fc3610f78565b5b5f610fd184828501610f9b565b91505092915050565b610fe381610f7c565b82525050565b5f602082019050610ffc5f830184610fda565b92915050565b5f8160020b9050919050565b61101781611002565b82525050565b5f6020820190506110305f83018461100e565b92915050565b5f82825260208201905092915050565b7f4e6f7420617574686f72697a65640000000000000000000000000000000000005f82015250565b5f61107a600e83611036565b915061108582611046565b602082019050919050565b5f6020820190508181035f8301526110a78161106e565b9050919050565b7f4d757374206465706f73697420574554480000000000000000000000000000005f82015250565b5f6110e2601183611036565b91506110ed826110ae565b602082019050919050565b5f6020820190508181035f83015261110f816110d6565b9050919050565b5f6040820190506111295f830185610f50565b6111366020830184610f50565b9392505050565b5f8151905061114b81610f85565b92915050565b5f6020828403121561116657611165610f78565b5b5f6111738482850161113d565b91505092915050565b7f416c6c6f77616e6365206e6f742073756666696369656e7400000000000000005f82015250565b5f6111b0601883611036565b91506111bb8261117c565b602082019050919050565b5f6020820190508181035f8301526111dd816111a4565b9050919050565b5f6060820190506111f75f830186610f50565b6112046020830185610f50565b6112116040830184610fda565b949350505050565b5f8115159050919050565b61122d81611219565b8114611237575f5ffd5b50565b5f8151905061124881611224565b92915050565b5f6020828403121561126357611262610f78565b5b5f6112708482850161123a565b91505092915050565b7f4e487b71000000000000000000000000000000000000000000000000000000005f52601160045260245ffd5b5f6112b082610f7c565b91506112bb83610f7c565b92508282039050818111156112d3576112d2611279565b5b92915050565b5f6112e382610f7c565b91506112ee83610f7c565b92508282026112fc81610f7c565b9150828204841483151761131357611312611279565b5b5092915050565b7f4e487b71000000000000000000000000000000000000000000000000000000005f52601260045260245ffd5b5f61135182610f7c565b915061135c83610f7c565b92508261136c5761136b61131a565b5b828204905092915050565b5f819050919050565b61138981611377565b82525050565b5f6020820190506113a25f830184611380565b92915050565b5f6040820190506113bb5f830185610f50565b6113c86020830184610fda565b9392505050565b5f6040820190506113e25f830185610fda565b6113ef6020830184610fda565b9392505050565b7f5469636b2076616c7565206f7574206f662072616e67650000000000000000005f82015250565b5f61142a601783611036565b9150611435826113f6565b602082019050919050565b5f6020820190508181035f8301526114578161141e565b9050919050565b5f61146882610f7c565b915061147383610f7c565b925082820190508082111561148b5761148a611279565b5b92915050565b61149a81610f3f565b82525050565b6114a981610eea565b82525050565b6114b881611002565b82525050565b6114c781610f7c565b82525050565b61016082015f8201516114e25f850182611491565b5060208201516114f56020850182611491565b50604082015161150860408501826114a0565b50606082015161151b60608501826114af565b50608082015161152e60808501826114af565b5060a082015161154160a08501826114be565b5060c082015161155460c08501826114be565b5060e082015161156760e08501826114be565b5061010082015161157c6101008501826114be565b50610120820151611591610120850182611491565b506101408201516115a66101408501826114be565b50505050565b5f610160820190506115c05f8301846114cd565b92915050565b5f6fffffffffffffffffffffffffffffffff82169050919050565b6115ea816115c6565b81146115f4575f5ffd5b50565b5f81519050611605816115e1565b92915050565b5f5f5f5f6080858703121561162357611622610f78565b5b5f6116308782880161113d565b9450506020611641878288016115f7565b93505060406116528782880161113d565b92505060606116638782880161113d565b91505092959194509250565b611678816115c6565b82525050565b5f6080820190506116915f830187610fda565b61169e602083018661166f565b6116ab6040830185610fda565b6116b86060830184610fda565b95945050505050565b5f6116cb82610f7c565b91507fffffffffffffffffffffffffffffffffffffffffffffffffffffffffffffffff82036116fd576116fc611279565b5b60018201905091905056fea2646970667358221220fc9c7cc52ffff92a7bd5c00096eb291f045a1a75890123d39afe30e02c3c623e64736f6c634300081c0033",
					"opcodes": "PUSH1 0x80 PUSH1 0x40 MSTORE PUSH2 0xBB8 PUSH1 0x3 PUSH1 0x14 PUSH2 0x100 EXP DUP2 SLOAD DUP2 PUSH3 0xFFFFFF MUL NOT AND SWAP1 DUP4 PUSH3 0xFFFFFF AND MUL OR SWAP1 SSTORE POP PUSH1 0x5 PUSH1 0x4 SSTORE PUSH7 0x14E20C32BD2DB PUSH1 0x5 SSTORE CALLVALUE DUP1 ISZERO PUSH2 0x40 JUMPI PUSH0 PUSH0 REVERT JUMPDEST POP PUSH1 0x40 MLOAD PUSH2 0x1962 CODESIZE SUB DUP1 PUSH2 0x1962 DUP4 CODECOPY DUP2 DUP2 ADD PUSH1 0x40 MSTORE DUP2 ADD SWAP1 PUSH2 0x62 SWAP2 SWAP1 PUSH2 0x1C7 JUMP JUMPDEST CALLER PUSH0 PUSH0 PUSH2 0x100 EXP DUP2 SLOAD DUP2 PUSH20 0xFFFFFFFFFFFFFFFFFFFFFFFFFFFFFFFFFFFFFFFF MUL NOT AND SWAP1 DUP4 PUSH20 0xFFFFFFFFFFFFFFFFFFFFFFFFFFFFFFFFFFFFFFFF AND MUL OR SWAP1 SSTORE POP DUP3 PUSH1 0x1 PUSH0 PUSH2 0x100 EXP DUP2 SLOAD DUP2 PUSH20 0xFFFFFFFFFFFFFFFFFFFFFFFFFFFFFFFFFFFFFFFF MUL NOT AND SWAP1 DUP4 PUSH20 0xFFFFFFFFFFFFFFFFFFFFFFFFFFFFFFFFFFFFFFFF AND MUL OR SWAP1 SSTORE POP DUP2 PUSH1 0x2 PUSH0 PUSH2 0x100 EXP DUP2 SLOAD DUP2 PUSH20 0xFFFFFFFFFFFFFFFFFFFFFFFFFFFFFFFFFFFFFFFF MUL NOT AND SWAP1 DUP4 PUSH20 0xFFFFFFFFFFFFFFFFFFFFFFFFFFFFFFFFFFFFFFFF AND MUL OR SWAP1 SSTORE POP DUP1 PUSH1 0x3 PUSH0 PUSH2 0x100 EXP DUP2 SLOAD DUP2 PUSH20 0xFFFFFFFFFFFFFFFFFFFFFFFFFFFFFFFFFFFFFFFF MUL NOT AND SWAP1 DUP4 PUSH20 0xFFFFFFFFFFFFFFFFFFFFFFFFFFFFFFFFFFFFFFFF AND MUL OR SWAP1 SSTORE POP POP POP POP PUSH2 0x217 JUMP JUMPDEST PUSH0 PUSH0 REVERT JUMPDEST PUSH0 PUSH20 0xFFFFFFFFFFFFFFFFFFFFFFFFFFFFFFFFFFFFFFFF DUP3 AND SWAP1 POP SWAP2 SWAP1 POP JUMP JUMPDEST PUSH0 PUSH2 0x196 DUP3 PUSH2 0x16D JUMP JUMPDEST SWAP1 POP SWAP2 SWAP1 POP JUMP JUMPDEST PUSH2 0x1A6 DUP2 PUSH2 0x18C JUMP JUMPDEST DUP2 EQ PUSH2 0x1B0 JUMPI PUSH0 PUSH0 REVERT JUMPDEST POP JUMP JUMPDEST PUSH0 DUP2 MLOAD SWAP1 POP PUSH2 0x1C1 DUP2 PUSH2 0x19D JUMP JUMPDEST SWAP3 SWAP2 POP POP JUMP JUMPDEST PUSH0 PUSH0 PUSH0 PUSH1 0x60 DUP5 DUP7 SUB SLT ISZERO PUSH2 0x1DE JUMPI PUSH2 0x1DD PUSH2 0x169 JUMP JUMPDEST JUMPDEST PUSH0 PUSH2 0x1EB DUP7 DUP3 DUP8 ADD PUSH2 0x1B3 JUMP JUMPDEST SWAP4 POP POP PUSH1 0x20 PUSH2 0x1FC DUP7 DUP3 DUP8 ADD PUSH2 0x1B3 JUMP JUMPDEST SWAP3 POP POP PUSH1 0x40 PUSH2 0x20D DUP7 DUP3 DUP8 ADD PUSH2 0x1B3 JUMP JUMPDEST SWAP2 POP POP SWAP3 POP SWAP3 POP SWAP3 JUMP JUMPDEST PUSH2 0x173E DUP1 PUSH2 0x224 PUSH0 CODECOPY PUSH0 RETURN INVALID PUSH1 0x80 PUSH1 0x40 MSTORE CALLVALUE DUP1 ISZERO PUSH2 0xF JUMPI PUSH0 PUSH0 REVERT JUMPDEST POP PUSH1 0x4 CALLDATASIZE LT PUSH2 0xA7 JUMPI PUSH0 CALLDATALOAD PUSH1 0xE0 SHR DUP1 PUSH4 0x8DA5CB5B GT PUSH2 0x6F JUMPI DUP1 PUSH4 0x8DA5CB5B EQ PUSH2 0x13F JUMPI DUP1 PUSH4 0x9940686E EQ PUSH2 0x15D JUMPI DUP1 PUSH4 0xDC38679C EQ PUSH2 0x179 JUMPI DUP1 PUSH4 0xDC5CC6F6 EQ PUSH2 0x197 JUMPI DUP1 PUSH4 0xE6C0E6D5 EQ PUSH2 0x1C7 JUMPI DUP1 PUSH4 0xEB521A4C EQ PUSH2 0x1E5 JUMPI PUSH2 0xA7 JUMP JUMPDEST DUP1 PUSH4 0x89FE6AA EQ PUSH2 0xAB JUMPI DUP1 PUSH4 0x3A6EB3DF EQ PUSH2 0xC9 JUMPI DUP1 PUSH4 0x3FC8CEF3 EQ PUSH2 0xE7 JUMPI DUP1 PUSH4 0x6A64EFF8 EQ PUSH2 0x105 JUMPI DUP1 PUSH4 0x791B98BC EQ PUSH2 0x121 JUMPI JUMPDEST PUSH0 PUSH0 REVERT JUMPDEST PUSH2 0xB3 PUSH2 0x201 JUMP JUMPDEST PUSH1 0x40 MLOAD PUSH2 0xC0 SWAP2 SWAP1 PUSH2 0xF07 JUMP JUMPDEST PUSH1 0x40 MLOAD DUP1 SWAP2 SUB SWAP1 RETURN JUMPDEST PUSH2 0xD1 PUSH2 0x216 JUMP JUMPDEST PUSH1 0x40 MLOAD PUSH2 0xDE SWAP2 SWAP1 PUSH2 0xF5F JUMP JUMPDEST PUSH1 0x40 MLOAD DUP1 SWAP2 SUB SWAP1 RETURN JUMPDEST PUSH2 0xEF PUSH2 0x23B JUMP JUMPDEST PUSH1 0x40 MLOAD PUSH2 0xFC SWAP2 SWAP1 PUSH2 0xF5F JUMP JUMPDEST PUSH1 0x40 MLOAD DUP1 SWAP2 SUB SWAP1 RETURN JUMPDEST PUSH2 0x11F PUSH1 0x4 DUP1 CALLDATASIZE SUB DUP2 ADD SWAP1 PUSH2 0x11A SWAP2 SWAP1 PUSH2 0xFAF JUMP JUMPDEST PUSH2 0x260 JUMP JUMPDEST STOP JUMPDEST PUSH2 0x129 PUSH2 0x2F8 JUMP JUMPDEST PUSH1 0x40 MLOAD PUSH2 0x136 SWAP2 SWAP1 PUSH2 0xF5F JUMP JUMPDEST PUSH1 0x40 MLOAD DUP1 SWAP2 SUB SWAP1 RETURN JUMPDEST PUSH2 0x147 PUSH2 0x31D JUMP JUMPDEST PUSH1 0x40 MLOAD PUSH2 0x154 SWAP2 SWAP1 PUSH2 0xF5F JUMP JUMPDEST PUSH1 0x40 MLOAD DUP1 SWAP2 SUB SWAP1 RETURN JUMPDEST PUSH2 0x177 PUSH1 0x4 DUP1 CALLDATASIZE SUB DUP2 ADD SWAP1 PUSH2 0x172 SWAP2 SWAP1 PUSH2 0xFAF JUMP JUMPDEST PUSH2 0x341 JUMP JUMPDEST STOP JUMPDEST PUSH2 0x181 PUSH2 0x8C4 JUMP JUMPDEST PUSH1 0x40 MLOAD PUSH2 0x18E SWAP2 SWAP1 PUSH2 0xFE9 JUMP JUMPDEST PUSH1 0x40 MLOAD DUP1 SWAP2 SUB SWAP1 RETURN JUMPDEST PUSH2 0x1B1 PUSH1 0x4 DUP1 CALLDATASIZE SUB DUP2 ADD SWAP1 PUSH2 0x1AC SWAP2 SWAP1 PUSH2 0xFAF JUMP JUMPDEST PUSH2 0x8CA JUMP JUMPDEST PUSH1 0x40 MLOAD PUSH2 0x1BE SWAP2 SWAP1 PUSH2 0x101D JUMP JUMPDEST PUSH1 0x40 MLOAD DUP1 SWAP2 SUB SWAP1 RETURN JUMPDEST PUSH2 0x1CF PUSH2 0x988 JUMP JUMPDEST PUSH1 0x40 MLOAD PUSH2 0x1DC SWAP2 SWAP1 PUSH2 0xFE9 JUMP JUMPDEST PUSH1 0x40 MLOAD DUP1 SWAP2 SUB SWAP1 RETURN JUMPDEST PUSH2 0x1FF PUSH1 0x4 DUP1 CALLDATASIZE SUB DUP2 ADD SWAP1 PUSH2 0x1FA SWAP2 SWAP1 PUSH2 0xFAF JUMP JUMPDEST PUSH2 0x98E JUMP JUMPDEST STOP JUMPDEST PUSH1 0x3 PUSH1 0x14 SWAP1 SLOAD SWAP1 PUSH2 0x100 EXP SWAP1 DIV PUSH3 0xFFFFFF AND DUP2 JUMP JUMPDEST PUSH1 0x2 PUSH0 SWAP1 SLOAD SWAP1 PUSH2 0x100 EXP SWAP1 DIV PUSH20 0xFFFFFFFFFFFFFFFFFFFFFFFFFFFFFFFFFFFFFFFF AND DUP2 JUMP JUMPDEST PUSH1 0x1 PUSH0 SWAP1 SLOAD SWAP1 PUSH2 0x100 EXP SWAP1 DIV PUSH20 0xFFFFFFFFFFFFFFFFFFFFFFFFFFFFFFFFFFFFFFFF AND DUP2 JUMP JUMPDEST PUSH0 PUSH0 SWAP1 SLOAD SWAP1 PUSH2 0x100 EXP SWAP1 DIV PUSH20 0xFFFFFFFFFFFFFFFFFFFFFFFFFFFFFFFFFFFFFFFF AND PUSH20 0xFFFFFFFFFFFFFFFFFFFFFFFFFFFFFFFFFFFFFFFF AND CALLER PUSH20 0xFFFFFFFFFFFFFFFFFFFFFFFFFFFFFFFFFFFFFFFF AND EQ PUSH2 0x2EE JUMPI PUSH1 0x40 MLOAD PUSH32 0x8C379A000000000000000000000000000000000000000000000000000000000 DUP2 MSTORE PUSH1 0x4 ADD PUSH2 0x2E5 SWAP1 PUSH2 0x1090 JUMP JUMPDEST PUSH1 0x40 MLOAD DUP1 SWAP2 SUB SWAP1 REVERT JUMPDEST DUP1 PUSH1 0x5 DUP2 SWAP1 SSTORE POP POP JUMP JUMPDEST PUSH1 0x3 PUSH0 SWAP1 SLOAD SWAP1 PUSH2 0x100 EXP SWAP1 DIV PUSH20 0xFFFFFFFFFFFFFFFFFFFFFFFFFFFFFFFFFFFFFFFF AND DUP2 JUMP JUMPDEST PUSH0 PUSH0 SWAP1 SLOAD SWAP1 PUSH2 0x100 EXP SWAP1 DIV PUSH20 0xFFFFFFFFFFFFFFFFFFFFFFFFFFFFFFFFFFFFFFFF AND DUP2 JUMP JUMPDEST PUSH0 DUP2 GT PUSH2 0x383 JUMPI PUSH1 0x40 MLOAD PUSH32 0x8C379A000000000000000000000000000000000000000000000000000000000 DUP2 MSTORE PUSH1 0x4 ADD PUSH2 0x37A SWAP1 PUSH2 0x10F8 JUMP JUMPDEST PUSH1 0x40 MLOAD DUP1 SWAP2 SUB SWAP1 REVERT JUMPDEST PUSH0 PUSH1 0x1 PUSH0 SWAP1 SLOAD SWAP1 PUSH2 0x100 EXP SWAP1 DIV PUSH20 0xFFFFFFFFFFFFFFFFFFFFFFFFFFFFFFFFFFFFFFFF AND PUSH20 0xFFFFFFFFFFFFFFFFFFFFFFFFFFFFFFFFFFFFFFFF AND PUSH4 0xDD62ED3E CALLER ADDRESS PUSH1 0x40 MLOAD DUP4 PUSH4 0xFFFFFFFF AND PUSH1 0xE0 SHL DUP2 MSTORE PUSH1 0x4 ADD PUSH2 0x3E0 SWAP3 SWAP2 SWAP1 PUSH2 0x1116 JUMP JUMPDEST PUSH1 0x20 PUSH1 0x40 MLOAD DUP1 DUP4 SUB DUP2 DUP7 GAS STATICCALL ISZERO DUP1 ISZERO PUSH2 0x3FB JUMPI RETURNDATASIZE PUSH0 PUSH0 RETURNDATACOPY RETURNDATASIZE PUSH0 REVERT JUMPDEST POP POP POP POP PUSH1 0x40 MLOAD RETURNDATASIZE PUSH1 0x1F NOT PUSH1 0x1F DUP3 ADD AND DUP3 ADD DUP1 PUSH1 0x40 MSTORE POP DUP2 ADD SWAP1 PUSH2 0x41F SWAP2 SWAP1 PUSH2 0x1151 JUMP JUMPDEST SWAP1 POP DUP2 DUP2 LT ISZERO PUSH2 0x464 JUMPI PUSH1 0x40 MLOAD PUSH32 0x8C379A000000000000000000000000000000000000000000000000000000000 DUP2 MSTORE PUSH1 0x4 ADD PUSH2 0x45B SWAP1 PUSH2 0x11C6 JUMP JUMPDEST PUSH1 0x40 MLOAD DUP1 SWAP2 SUB SWAP1 REVERT JUMPDEST PUSH1 0x1 PUSH0 SWAP1 SLOAD SWAP1 PUSH2 0x100 EXP SWAP1 DIV PUSH20 0xFFFFFFFFFFFFFFFFFFFFFFFFFFFFFFFFFFFFFFFF AND PUSH20 0xFFFFFFFFFFFFFFFFFFFFFFFFFFFFFFFFFFFFFFFF AND PUSH4 0x23B872DD CALLER ADDRESS DUP6 PUSH1 0x40 MLOAD DUP5 PUSH4 0xFFFFFFFF AND PUSH1 0xE0 SHL DUP2 MSTORE PUSH1 0x4 ADD PUSH2 0x4C2 SWAP4 SWAP3 SWAP2 SWAP1 PUSH2 0x11E4 JUMP JUMPDEST PUSH1 0x20 PUSH1 0x40 MLOAD DUP1 DUP4 SUB DUP2 PUSH0 DUP8 GAS CALL ISZERO DUP1 ISZERO PUSH2 0x4DE JUMPI RETURNDATASIZE PUSH0 PUSH0 RETURNDATACOPY RETURNDATASIZE PUSH0 REVERT JUMPDEST POP POP POP POP PUSH1 0x40 MLOAD RETURNDATASIZE PUSH1 0x1F NOT PUSH1 0x1F DUP3 ADD AND DUP3 ADD DUP1 PUSH1 0x40 MSTORE POP DUP2 ADD SWAP1 PUSH2 0x502 SWAP2 SWAP1 PUSH2 0x124E JUMP JUMPDEST POP PUSH0 PUSH1 0x64 PUSH1 0x4 SLOAD PUSH1 0x64 PUSH2 0x515 SWAP2 SWAP1 PUSH2 0x12A6 JUMP JUMPDEST PUSH1 0x5 SLOAD PUSH2 0x522 SWAP2 SWAP1 PUSH2 0x12D9 JUMP JUMPDEST PUSH2 0x52C SWAP2 SWAP1 PUSH2 0x1347 JUMP JUMPDEST SWAP1 POP PUSH0 DUP2 PUSH8 0xDE0B6B3A7640000 DUP6 PUSH2 0x544 SWAP2 SWAP1 PUSH2 0x12D9 JUMP JUMPDEST PUSH2 0x54E SWAP2 SWAP1 PUSH2 0x1347 JUMP JUMPDEST SWAP1 POP PUSH0 PUSH1 0x2 PUSH0 SWAP1 SLOAD SWAP1 PUSH2 0x100 EXP SWAP1 DIV PUSH20 0xFFFFFFFFFFFFFFFFFFFFFFFFFFFFFFFFFFFFFFFF AND PUSH20 0xFFFFFFFFFFFFFFFFFFFFFFFFFFFFFFFFFFFFFFFF AND PUSH4 0x70A08231 ADDRESS PUSH1 0x40 MLOAD DUP3 PUSH4 0xFFFFFFFF AND PUSH1 0xE0 SHL DUP2 MSTORE PUSH1 0x4 ADD PUSH2 0x5AB SWAP2 SWAP1 PUSH2 0xF5F JUMP JUMPDEST PUSH1 0x20 PUSH1 0x40 MLOAD DUP1 DUP4 SUB DUP2 DUP7 GAS STATICCALL ISZERO DUP1 ISZERO PUSH2 0x5C6 JUMPI RETURNDATASIZE PUSH0 PUSH0 RETURNDATACOPY RETURNDATASIZE PUSH0 REVERT JUMPDEST POP POP POP POP PUSH1 0x40 MLOAD RETURNDATASIZE PUSH1 0x1F NOT PUSH1 0x1F DUP3 ADD AND DUP3 ADD DUP1 PUSH1 0x40 MSTORE POP DUP2 ADD SWAP1 PUSH2 0x5EA SWAP2 SWAP1 PUSH2 0x1151 JUMP JUMPDEST SWAP1 POP DUP2 DUP2 LT ISZERO PUSH2 0x7D0 JUMPI PUSH0 DUP2 DUP4 PUSH2 0x601 SWAP2 SWAP1 PUSH2 0x12A6 JUMP JUMPDEST SWAP1 POP PUSH0 PUSH1 0x2 PUSH0 SWAP1 SLOAD SWAP1 PUSH2 0x100 EXP SWAP1 DIV PUSH20 0xFFFFFFFFFFFFFFFFFFFFFFFFFFFFFFFFFFFFFFFF AND PUSH20 0xFFFFFFFFFFFFFFFFFFFFFFFFFFFFFFFFFFFFFFFF AND PUSH4 0x18160DDD PUSH1 0x40 MLOAD DUP2 PUSH4 0xFFFFFFFF AND PUSH1 0xE0 SHL DUP2 MSTORE PUSH1 0x4 ADD PUSH1 0x20 PUSH1 0x40 MLOAD DUP1 DUP4 SUB DUP2 DUP7 GAS STATICCALL ISZERO DUP1 ISZERO PUSH2 0x66E JUMPI RETURNDATASIZE PUSH0 PUSH0 RETURNDATACOPY RETURNDATASIZE PUSH0 REVERT JUMPDEST POP POP POP POP PUSH1 0x40 MLOAD RETURNDATASIZE PUSH1 0x1F NOT PUSH1 0x1F DUP3 ADD AND DUP3 ADD DUP1 PUSH1 0x40 MSTORE POP DUP2 ADD SWAP1 PUSH2 0x692 SWAP2 SWAP1 PUSH2 0x1151 JUMP JUMPDEST SWAP1 POP PUSH0 DUP2 SUB PUSH2 0x727 JUMPI PUSH1 0x2 PUSH0 SWAP1 SLOAD SWAP1 PUSH2 0x100 EXP SWAP1 DIV PUSH20 0xFFFFFFFFFFFFFFFFFFFFFFFFFFFFFFFFFFFFFFFF AND PUSH20 0xFFFFFFFFFFFFFFFFFFFFFFFFFFFFFFFFFFFFFFFF AND PUSH4 0xD9E63BB1 DUP4 PUSH1 0x40 MLOAD DUP3 PUSH4 0xFFFFFFFF AND PUSH1 0xE0 SHL DUP2 MSTORE PUSH1 0x4 ADD PUSH2 0x6F5 SWAP2 SWAP1 PUSH2 0xFE9 JUMP JUMPDEST PUSH0 PUSH1 0x40 MLOAD DUP1 DUP4 SUB DUP2 PUSH0 DUP8 DUP1 EXTCODESIZE ISZERO DUP1 ISZERO PUSH2 0x70C JUMPI PUSH0 PUSH0 REVERT JUMPDEST POP GAS CALL ISZERO DUP1 ISZERO PUSH2 0x71E JUMPI RETURNDATASIZE PUSH0 PUSH0 RETURNDATACOPY RETURNDATASIZE PUSH0 REVERT JUMPDEST POP POP POP POP PUSH2 0x7CD JUMP JUMPDEST PUSH0 DUP2 PUSH3 0xF4240 DUP5 PUSH2 0x738 SWAP2 SWAP1 PUSH2 0x12D9 JUMP JUMPDEST PUSH2 0x742 SWAP2 SWAP1 PUSH2 0x1347 JUMP JUMPDEST SWAP1 POP PUSH1 0x2 PUSH0 SWAP1 SLOAD SWAP1 PUSH2 0x100 EXP SWAP1 DIV PUSH20 0xFFFFFFFFFFFFFFFFFFFFFFFFFFFFFFFFFFFFFFFF AND PUSH20 0xFFFFFFFFFFFFFFFFFFFFFFFFFFFFFFFFFFFFFFFF AND PUSH4 0xAB114F9 DUP3 PUSH1 0x40 MLOAD DUP3 PUSH4 0xFFFFFFFF AND PUSH1 0xE0 SHL DUP2 MSTORE PUSH1 0x4 ADD PUSH2 0x79E SWAP2 SWAP1 PUSH2 0x138F JUMP JUMPDEST PUSH0 PUSH1 0x40 MLOAD DUP1 DUP4 SUB DUP2 PUSH0 DUP8 DUP1 EXTCODESIZE ISZERO DUP1 ISZERO PUSH2 0x7B5 JUMPI PUSH0 PUSH0 REVERT JUMPDEST POP GAS CALL ISZERO DUP1 ISZERO PUSH2 0x7C7 JUMPI RETURNDATASIZE PUSH0 PUSH0 RETURNDATACOPY RETURNDATASIZE PUSH0 REVERT JUMPDEST POP POP POP POP POP JUMPDEST POP POP JUMPDEST PUSH1 0x2 PUSH0 SWAP1 SLOAD SWAP1 PUSH2 0x100 EXP SWAP1 DIV PUSH20 0xFFFFFFFFFFFFFFFFFFFFFFFFFFFFFFFFFFFFFFFF AND PUSH20 0xFFFFFFFFFFFFFFFFFFFFFFFFFFFFFFFFFFFFFFFF AND PUSH4 0xA9059CBB CALLER DUP5 PUSH1 0x40 MLOAD DUP4 PUSH4 0xFFFFFFFF AND PUSH1 0xE0 SHL DUP2 MSTORE PUSH1 0x4 ADD PUSH2 0x82C SWAP3 SWAP2 SWAP1 PUSH2 0x13A8 JUMP JUMPDEST PUSH1 0x20 PUSH1 0x40 MLOAD DUP1 DUP4 SUB DUP2 PUSH0 DUP8 GAS CALL ISZERO DUP1 ISZERO PUSH2 0x848 JUMPI RETURNDATASIZE PUSH0 PUSH0 RETURNDATACOPY RETURNDATASIZE PUSH0 REVERT JUMPDEST POP POP POP POP PUSH1 0x40 MLOAD RETURNDATASIZE PUSH1 0x1F NOT PUSH1 0x1F DUP3 ADD AND DUP3 ADD DUP1 PUSH1 0x40 MSTORE POP DUP2 ADD SWAP1 PUSH2 0x86C SWAP2 SWAP1 PUSH2 0x124E JUMP JUMPDEST POP CALLER PUSH20 0xFFFFFFFFFFFFFFFFFFFFFFFFFFFFFFFFFFFFFFFF AND PUSH32 0xDB13E87B3F9C3B8F5F3ACAD928DF55C52BA6BF7795AF4EC069DE5E23CAACB37 DUP7 DUP5 PUSH1 0x40 MLOAD PUSH2 0x8B5 SWAP3 SWAP2 SWAP1 PUSH2 0x13CF JUMP JUMPDEST PUSH1 0x40 MLOAD DUP1 SWAP2 SUB SWAP1 LOG2 POP POP POP POP POP JUMP JUMPDEST PUSH1 0x5 SLOAD DUP2 JUMP JUMPDEST PUSH0 PUSH0 PUSH2 0x8D5 DUP4 PUSH2 0xE17 JUMP JUMPDEST SWAP1 POP PUSH0 PUSH13 0x1000000000000000000000000 DUP3 PUSH2 0x8F1 SWAP2 SWAP1 PUSH2 0x12D9 JUMP JUMPDEST SWAP1 POP PUSH0 PUSH2 0x903 DUP3 PUSH2 0x2711 PUSH2 0x2710 PUSH2 0xE88 JUMP JUMPDEST SWAP1 POP PUSH32 0xFFFFFFFFFFFFFFFFFFFFFFFFFFFFFFFFFFFFFFFFFFFFFFFFFFFFFFFFFF800000 PUSH1 0x2 SIGNEXTEND DUP2 SLT ISZERO DUP1 ISZERO PUSH2 0x93E JUMPI POP PUSH3 0x7FFFFF PUSH1 0x2 SIGNEXTEND DUP2 SGT ISZERO JUMPDEST PUSH2 0x97D JUMPI PUSH1 0x40 MLOAD PUSH32 0x8C379A000000000000000000000000000000000000000000000000000000000 DUP2 MSTORE PUSH1 0x4 ADD PUSH2 0x974 SWAP1 PUSH2 0x1440 JUMP JUMPDEST PUSH1 0x40 MLOAD DUP1 SWAP2 SUB SWAP1 REVERT JUMPDEST DUP1 SWAP4 POP POP POP POP SWAP2 SWAP1 POP JUMP JUMPDEST PUSH1 0x4 SLOAD DUP2 JUMP JUMPDEST PUSH0 PUSH0 SWAP1 SLOAD SWAP1 PUSH2 0x100 EXP SWAP1 DIV PUSH20 0xFFFFFFFFFFFFFFFFFFFFFFFFFFFFFFFFFFFFFFFF AND PUSH20 0xFFFFFFFFFFFFFFFFFFFFFFFFFFFFFFFFFFFFFFFF AND CALLER PUSH20 0xFFFFFFFFFFFFFFFFFFFFFFFFFFFFFFFFFFFFFFFF AND EQ PUSH2 0xA1C JUMPI PUSH1 0x40 MLOAD PUSH32 0x8C379A000000000000000000000000000000000000000000000000000000000 DUP2 MSTORE PUSH1 0x4 ADD PUSH2 0xA13 SWAP1 PUSH2 0x1090 JUMP JUMPDEST PUSH1 0x40 MLOAD DUP1 SWAP2 SUB SWAP1 REVERT JUMPDEST PUSH0 PUSH1 0x5 SLOAD PUSH8 0xDE0B6B3A7640000 DUP4 PUSH2 0xA34 SWAP2 SWAP1 PUSH2 0x12D9 JUMP JUMPDEST PUSH2 0xA3E SWAP2 SWAP1 PUSH2 0x1347 JUMP JUMPDEST SWAP1 POP PUSH0 PUSH1 0x64 PUSH1 0x5F PUSH1 0x5 SLOAD PUSH2 0xA52 SWAP2 SWAP1 PUSH2 0x12D9 JUMP JUMPDEST PUSH2 0xA5C SWAP2 SWAP1 PUSH2 0x1347 JUMP JUMPDEST SWAP1 POP PUSH0 PUSH1 0x64 PUSH1 0x69 PUSH1 0x5 SLOAD PUSH2 0xA70 SWAP2 SWAP1 PUSH2 0x12D9 JUMP JUMPDEST PUSH2 0xA7A SWAP2 SWAP1 PUSH2 0x1347 JUMP JUMPDEST SWAP1 POP PUSH0 PUSH2 0xA86 DUP4 PUSH2 0x8CA JUMP JUMPDEST SWAP1 POP PUSH0 PUSH2 0xA92 DUP4 PUSH2 0x8CA JUMP JUMPDEST SWAP1 POP PUSH1 0x1 PUSH0 SWAP1 SLOAD SWAP1 PUSH2 0x100 EXP SWAP1 DIV PUSH20 0xFFFFFFFFFFFFFFFFFFFFFFFFFFFFFFFFFFFFFFFF AND PUSH20 0xFFFFFFFFFFFFFFFFFFFFFFFFFFFFFFFFFFFFFFFF AND PUSH4 0x95EA7B3 PUSH1 0x3 PUSH0 SWAP1 SLOAD SWAP1 PUSH2 0x100 EXP SWAP1 DIV PUSH20 0xFFFFFFFFFFFFFFFFFFFFFFFFFFFFFFFFFFFFFFFF AND DUP9 PUSH1 0x40 MLOAD DUP4 PUSH4 0xFFFFFFFF AND PUSH1 0xE0 SHL DUP2 MSTORE PUSH1 0x4 ADD PUSH2 0xB11 SWAP3 SWAP2 SWAP1 PUSH2 0x13A8 JUMP JUMPDEST PUSH1 0x20 PUSH1 0x40 MLOAD DUP1 DUP4 SUB DUP2 PUSH0 DUP8 GAS CALL ISZERO DUP1 ISZERO PUSH2 0xB2D JUMPI RETURNDATASIZE PUSH0 PUSH0 RETURNDATACOPY RETURNDATASIZE PUSH0 REVERT JUMPDEST POP POP POP POP PUSH1 0x40 MLOAD RETURNDATASIZE PUSH1 0x1F NOT PUSH1 0x1F DUP3 ADD AND DUP3 ADD DUP1 PUSH1 0x40 MSTORE POP DUP2 ADD SWAP1 PUSH2 0xB51 SWAP2 SWAP1 PUSH2 0x124E JUMP JUMPDEST POP PUSH1 0x2 PUSH0 SWAP1 SLOAD SWAP1 PUSH2 0x100 EXP SWAP1 DIV PUSH20 0xFFFFFFFFFFFFFFFFFFFFFFFFFFFFFFFFFFFFFFFF AND PUSH20 0xFFFFFFFFFFFFFFFFFFFFFFFFFFFFFFFFFFFFFFFF AND PUSH4 0x95EA7B3 PUSH1 0x3 PUSH0 SWAP1 SLOAD SWAP1 PUSH2 0x100 EXP SWAP1 DIV PUSH20 0xFFFFFFFFFFFFFFFFFFFFFFFFFFFFFFFFFFFFFFFF AND DUP8 PUSH1 0x40 MLOAD DUP4 PUSH4 0xFFFFFFFF AND PUSH1 0xE0 SHL DUP2 MSTORE PUSH1 0x4 ADD PUSH2 0xBCF SWAP3 SWAP2 SWAP1 PUSH2 0x13A8 JUMP JUMPDEST PUSH1 0x20 PUSH1 0x40 MLOAD DUP1 DUP4 SUB DUP2 PUSH0 DUP8 GAS CALL ISZERO DUP1 ISZERO PUSH2 0xBEB JUMPI RETURNDATASIZE PUSH0 PUSH0 RETURNDATACOPY RETURNDATASIZE PUSH0 REVERT JUMPDEST POP POP POP POP PUSH1 0x40 MLOAD RETURNDATASIZE PUSH1 0x1F NOT PUSH1 0x1F DUP3 ADD AND DUP3 ADD DUP1 PUSH1 0x40 MSTORE POP DUP2 ADD SWAP1 PUSH2 0xC0F SWAP2 SWAP1 PUSH2 0x124E JUMP JUMPDEST POP PUSH0 PUSH0 PUSH0 PUSH0 PUSH1 0x3 PUSH0 SWAP1 SLOAD SWAP1 PUSH2 0x100 EXP SWAP1 DIV PUSH20 0xFFFFFFFFFFFFFFFFFFFFFFFFFFFFFFFFFFFFFFFF AND PUSH20 0xFFFFFFFFFFFFFFFFFFFFFFFFFFFFFFFFFFFFFFFF AND PUSH4 0x88316456 PUSH1 0x40 MLOAD DUP1 PUSH2 0x160 ADD PUSH1 0x40 MSTORE DUP1 PUSH1 0x1 PUSH0 SWAP1 SLOAD SWAP1 PUSH2 0x100 EXP SWAP1 DIV PUSH20 0xFFFFFFFFFFFFFFFFFFFFFFFFFFFFFFFFFFFFFFFF AND PUSH20 0xFFFFFFFFFFFFFFFFFFFFFFFFFFFFFFFFFFFFFFFF AND DUP2 MSTORE PUSH1 0x20 ADD PUSH1 0x2 PUSH0 SWAP1 SLOAD SWAP1 PUSH2 0x100 EXP SWAP1 DIV PUSH20 0xFFFFFFFFFFFFFFFFFFFFFFFFFFFFFFFFFFFFFFFF AND PUSH20 0xFFFFFFFFFFFFFFFFFFFFFFFFFFFFFFFFFFFFFFFF AND DUP2 MSTORE PUSH1 0x20 ADD PUSH1 0x3 PUSH1 0x14 SWAP1 SLOAD SWAP1 PUSH2 0x100 EXP SWAP1 DIV PUSH3 0xFFFFFF AND PUSH3 0xFFFFFF AND DUP2 MSTORE PUSH1 0x20 ADD DUP10 PUSH1 0x2 SIGNEXTEND DUP2 MSTORE PUSH1 0x20 ADD DUP9 PUSH1 0x2 SIGNEXTEND DUP2 MSTORE PUSH1 0x20 ADD DUP14 DUP2 MSTORE PUSH1 0x20 ADD DUP13 DUP2 MSTORE PUSH1 0x20 ADD PUSH0 DUP2 MSTORE PUSH1 0x20 ADD PUSH0 DUP2 MSTORE PUSH1 0x20 ADD PUSH0 PUSH0 SWAP1 SLOAD SWAP1 PUSH2 0x100 EXP SWAP1 DIV PUSH20 0xFFFFFFFFFFFFFFFFFFFFFFFFFFFFFFFFFFFFFFFF AND PUSH20 0xFFFFFFFFFFFFFFFFFFFFFFFFFFFFFFFFFFFFFFFF AND DUP2 MSTORE PUSH1 0x20 ADD PUSH2 0x12C TIMESTAMP PUSH2 0xD67 SWAP2 SWAP1 PUSH2 0x145E JUMP JUMPDEST DUP2 MSTORE POP PUSH1 0x40 MLOAD DUP3 PUSH4 0xFFFFFFFF AND PUSH1 0xE0 SHL DUP2 MSTORE PUSH1 0x4 ADD PUSH2 0xD86 SWAP2 SWAP1 PUSH2 0x15AC JUMP JUMPDEST PUSH1 0x80 PUSH1 0x40 MLOAD DUP1 DUP4 SUB DUP2 PUSH0 DUP8 GAS CALL ISZERO DUP1 ISZERO PUSH2 0xDA2 JUMPI RETURNDATASIZE PUSH0 PUSH0 RETURNDATACOPY RETURNDATASIZE PUSH0 REVERT JUMPDEST POP POP POP POP PUSH1 0x40 MLOAD RETURNDATASIZE PUSH1 0x1F NOT PUSH1 0x1F DUP3 ADD AND DUP3 ADD DUP1 PUSH1 0x40 MSTORE POP DUP2 ADD SWAP1 PUSH2 0xDC6 SWAP2 SWAP1 PUSH2 0x160B JUMP JUMPDEST SWAP4 POP SWAP4 POP SWAP4 POP SWAP4 POP PUSH32 0xF932BEC3F0086AED14ACE0A396941A083546FD1A3497ED66CC5B9856C890DB0A DUP5 DUP5 DUP5 DUP5 PUSH1 0x40 MLOAD PUSH2 0xE03 SWAP5 SWAP4 SWAP3 SWAP2 SWAP1 PUSH2 0x167E JUMP JUMPDEST PUSH1 0x40 MLOAD DUP1 SWAP2 SUB SWAP1 LOG1 POP POP POP POP POP POP POP POP POP POP JUMP JUMPDEST PUSH0 PUSH0 DUP3 SUB PUSH2 0xE27 JUMPI PUSH0 SWAP1 POP PUSH2 0xE83 JUMP JUMPDEST PUSH0 PUSH1 0x2 PUSH1 0x1 DUP5 PUSH2 0xE37 SWAP2 SWAP1 PUSH2 0x145E JUMP JUMPDEST PUSH2 0xE41 SWAP2 SWAP1 PUSH2 0x1347 JUMP JUMPDEST SWAP1 POP PUSH0 DUP4 SWAP1 POP JUMPDEST DUP1 DUP3 LT ISZERO PUSH2 0xE7D JUMPI DUP2 SWAP1 POP PUSH1 0x2 DUP3 DUP4 DUP7 PUSH2 0xE62 SWAP2 SWAP1 PUSH2 0x1347 JUMP JUMPDEST PUSH2 0xE6C SWAP2 SWAP1 PUSH2 0x145E JUMP JUMPDEST PUSH2 0xE76 SWAP2 SWAP1 PUSH2 0x1347 JUMP JUMPDEST SWAP2 POP PUSH2 0xE48 JUMP JUMPDEST DUP1 SWAP3 POP POP POP JUMPDEST SWAP2 SWAP1 POP JUMP JUMPDEST PUSH0 PUSH0 PUSH0 SWAP1 POP JUMPDEST DUP3 PUSH8 0xDE0B6B3A7640000 DUP6 PUSH2 0xEA3 SWAP2 SWAP1 PUSH2 0x12D9 JUMP JUMPDEST PUSH2 0xEAD SWAP2 SWAP1 PUSH2 0x1347 JUMP JUMPDEST DUP6 LT PUSH2 0xEDF JUMPI DUP4 DUP4 DUP7 PUSH2 0xEC0 SWAP2 SWAP1 PUSH2 0x12D9 JUMP JUMPDEST PUSH2 0xECA SWAP2 SWAP1 PUSH2 0x1347 JUMP JUMPDEST SWAP5 POP DUP1 DUP1 PUSH2 0xED7 SWAP1 PUSH2 0x16C1 JUMP JUMPDEST SWAP2 POP POP PUSH2 0xE8E JUMP JUMPDEST DUP1 SWAP2 POP POP SWAP4 SWAP3 POP POP POP JUMP JUMPDEST PUSH0 PUSH3 0xFFFFFF DUP3 AND SWAP1 POP SWAP2 SWAP1 POP JUMP JUMPDEST PUSH2 0xF01 DUP2 PUSH2 0xEEA JUMP JUMPDEST DUP3 MSTORE POP POP JUMP JUMPDEST PUSH0 PUSH1 0x20 DUP3 ADD SWAP1 POP PUSH2 0xF1A PUSH0 DUP4 ADD DUP5 PUSH2 0xEF8 JUMP JUMPDEST SWAP3 SWAP2 POP POP JUMP JUMPDEST PUSH0 PUSH20 0xFFFFFFFFFFFFFFFFFFFFFFFFFFFFFFFFFFFFFFFF DUP3 AND SWAP1 POP SWAP2 SWAP1 POP JUMP JUMPDEST PUSH0 PUSH2 0xF49 DUP3 PUSH2 0xF20 JUMP JUMPDEST SWAP1 POP SWAP2 SWAP1 POP JUMP JUMPDEST PUSH2 0xF59 DUP2 PUSH2 0xF3F JUMP JUMPDEST DUP3 MSTORE POP POP JUMP JUMPDEST PUSH0 PUSH1 0x20 DUP3 ADD SWAP1 POP PUSH2 0xF72 PUSH0 DUP4 ADD DUP5 PUSH2 0xF50 JUMP JUMPDEST SWAP3 SWAP2 POP POP JUMP JUMPDEST PUSH0 PUSH0 REVERT JUMPDEST PUSH0 DUP2 SWAP1 POP SWAP2 SWAP1 POP JUMP JUMPDEST PUSH2 0xF8E DUP2 PUSH2 0xF7C JUMP JUMPDEST DUP2 EQ PUSH2 0xF98 JUMPI PUSH0 PUSH0 REVERT JUMPDEST POP JUMP JUMPDEST PUSH0 DUP2 CALLDATALOAD SWAP1 POP PUSH2 0xFA9 DUP2 PUSH2 0xF85 JUMP JUMPDEST SWAP3 SWAP2 POP POP JUMP JUMPDEST PUSH0 PUSH1 0x20 DUP3 DUP5 SUB SLT ISZERO PUSH2 0xFC4 JUMPI PUSH2 0xFC3 PUSH2 0xF78 JUMP JUMPDEST JUMPDEST PUSH0 PUSH2 0xFD1 DUP5 DUP3 DUP6 ADD PUSH2 0xF9B JUMP JUMPDEST SWAP2 POP POP SWAP3 SWAP2 POP POP JUMP JUMPDEST PUSH2 0xFE3 DUP2 PUSH2 0xF7C JUMP JUMPDEST DUP3 MSTORE POP POP JUMP JUMPDEST PUSH0 PUSH1 0x20 DUP3 ADD SWAP1 POP PUSH2 0xFFC PUSH0 DUP4 ADD DUP5 PUSH2 0xFDA JUMP JUMPDEST SWAP3 SWAP2 POP POP JUMP JUMPDEST PUSH0 DUP2 PUSH1 0x2 SIGNEXTEND SWAP1 POP SWAP2 SWAP1 POP JUMP JUMPDEST PUSH2 0x1017 DUP2 PUSH2 0x1002 JUMP JUMPDEST DUP3 MSTORE POP POP JUMP JUMPDEST PUSH0 PUSH1 0x20 DUP3 ADD SWAP1 POP PUSH2 0x1030 PUSH0 DUP4 ADD DUP5 PUSH2 0x100E JUMP JUMPDEST SWAP3 SWAP2 POP POP JUMP JUMPDEST PUSH0 DUP3 DUP3 MSTORE PUSH1 0x20 DUP3 ADD SWAP1 POP SWAP3 SWAP2 POP POP JUMP JUMPDEST PUSH32 0x4E6F7420617574686F72697A6564000000000000000000000000000000000000 PUSH0 DUP3 ADD MSTORE POP JUMP JUMPDEST PUSH0 PUSH2 0x107A PUSH1 0xE DUP4 PUSH2 0x1036 JUMP JUMPDEST SWAP2 POP PUSH2 0x1085 DUP3 PUSH2 0x1046 JUMP JUMPDEST PUSH1 0x20 DUP3 ADD SWAP1 POP SWAP2 SWAP1 POP JUMP JUMPDEST PUSH0 PUSH1 0x20 DUP3 ADD SWAP1 POP DUP2 DUP2 SUB PUSH0 DUP4 ADD MSTORE PUSH2 0x10A7 DUP2 PUSH2 0x106E JUMP JUMPDEST SWAP1 POP SWAP2 SWAP1 POP JUMP JUMPDEST PUSH32 0x4D757374206465706F7369742057455448000000000000000000000000000000 PUSH0 DUP3 ADD MSTORE POP JUMP JUMPDEST PUSH0 PUSH2 0x10E2 PUSH1 0x11 DUP4 PUSH2 0x1036 JUMP JUMPDEST SWAP2 POP PUSH2 0x10ED DUP3 PUSH2 0x10AE JUMP JUMPDEST PUSH1 0x20 DUP3 ADD SWAP1 POP SWAP2 SWAP1 POP JUMP JUMPDEST PUSH0 PUSH1 0x20 DUP3 ADD SWAP1 POP DUP2 DUP2 SUB PUSH0 DUP4 ADD MSTORE PUSH2 0x110F DUP2 PUSH2 0x10D6 JUMP JUMPDEST SWAP1 POP SWAP2 SWAP1 POP JUMP JUMPDEST PUSH0 PUSH1 0x40 DUP3 ADD SWAP1 POP PUSH2 0x1129 PUSH0 DUP4 ADD DUP6 PUSH2 0xF50 JUMP JUMPDEST PUSH2 0x1136 PUSH1 0x20 DUP4 ADD DUP5 PUSH2 0xF50 JUMP JUMPDEST SWAP4 SWAP3 POP POP POP JUMP JUMPDEST PUSH0 DUP2 MLOAD SWAP1 POP PUSH2 0x114B DUP2 PUSH2 0xF85 JUMP JUMPDEST SWAP3 SWAP2 POP POP JUMP JUMPDEST PUSH0 PUSH1 0x20 DUP3 DUP5 SUB SLT ISZERO PUSH2 0x1166 JUMPI PUSH2 0x1165 PUSH2 0xF78 JUMP JUMPDEST JUMPDEST PUSH0 PUSH2 0x1173 DUP5 DUP3 DUP6 ADD PUSH2 0x113D JUMP JUMPDEST SWAP2 POP POP SWAP3 SWAP2 POP POP JUMP JUMPDEST PUSH32 0x416C6C6F77616E6365206E6F742073756666696369656E740000000000000000 PUSH0 DUP3 ADD MSTORE POP JUMP JUMPDEST PUSH0 PUSH2 0x11B0 PUSH1 0x18 DUP4 PUSH2 0x1036 JUMP JUMPDEST SWAP2 POP PUSH2 0x11BB DUP3 PUSH2 0x117C JUMP JUMPDEST PUSH1 0x20 DUP3 ADD SWAP1 POP SWAP2 SWAP1 POP JUMP JUMPDEST PUSH0 PUSH1 0x20 DUP3 ADD SWAP1 POP DUP2 DUP2 SUB PUSH0 DUP4 ADD MSTORE PUSH2 0x11DD DUP2 PUSH2 0x11A4 JUMP JUMPDEST SWAP1 POP SWAP2 SWAP1 POP JUMP JUMPDEST PUSH0 PUSH1 0x60 DUP3 ADD SWAP1 POP PUSH2 0x11F7 PUSH0 DUP4 ADD DUP7 PUSH2 0xF50 JUMP JUMPDEST PUSH2 0x1204 PUSH1 0x20 DUP4 ADD DUP6 PUSH2 0xF50 JUMP JUMPDEST PUSH2 0x1211 PUSH1 0x40 DUP4 ADD DUP5 PUSH2 0xFDA JUMP JUMPDEST SWAP5 SWAP4 POP POP POP POP JUMP JUMPDEST PUSH0 DUP2 ISZERO ISZERO SWAP1 POP SWAP2 SWAP1 POP JUMP JUMPDEST PUSH2 0x122D DUP2 PUSH2 0x1219 JUMP JUMPDEST DUP2 EQ PUSH2 0x1237 JUMPI PUSH0 PUSH0 REVERT JUMPDEST POP JUMP JUMPDEST PUSH0 DUP2 MLOAD SWAP1 POP PUSH2 0x1248 DUP2 PUSH2 0x1224 JUMP JUMPDEST SWAP3 SWAP2 POP POP JUMP JUMPDEST PUSH0 PUSH1 0x20 DUP3 DUP5 SUB SLT ISZERO PUSH2 0x1263 JUMPI PUSH2 0x1262 PUSH2 0xF78 JUMP JUMPDEST JUMPDEST PUSH0 PUSH2 0x1270 DUP5 DUP3 DUP6 ADD PUSH2 0x123A JUMP JUMPDEST SWAP2 POP POP SWAP3 SWAP2 POP POP JUMP JUMPDEST PUSH32 0x4E487B7100000000000000000000000000000000000000000000000000000000 PUSH0 MSTORE PUSH1 0x11 PUSH1 0x4 MSTORE PUSH1 0x24 PUSH0 REVERT JUMPDEST PUSH0 PUSH2 0x12B0 DUP3 PUSH2 0xF7C JUMP JUMPDEST SWAP2 POP PUSH2 0x12BB DUP4 PUSH2 0xF7C JUMP JUMPDEST SWAP3 POP DUP3 DUP3 SUB SWAP1 POP DUP2 DUP2 GT ISZERO PUSH2 0x12D3 JUMPI PUSH2 0x12D2 PUSH2 0x1279 JUMP JUMPDEST JUMPDEST SWAP3 SWAP2 POP POP JUMP JUMPDEST PUSH0 PUSH2 0x12E3 DUP3 PUSH2 0xF7C JUMP JUMPDEST SWAP2 POP PUSH2 0x12EE DUP4 PUSH2 0xF7C JUMP JUMPDEST SWAP3 POP DUP3 DUP3 MUL PUSH2 0x12FC DUP2 PUSH2 0xF7C JUMP JUMPDEST SWAP2 POP DUP3 DUP3 DIV DUP5 EQ DUP4 ISZERO OR PUSH2 0x1313 JUMPI PUSH2 0x1312 PUSH2 0x1279 JUMP JUMPDEST JUMPDEST POP SWAP3 SWAP2 POP POP JUMP JUMPDEST PUSH32 0x4E487B7100000000000000000000000000000000000000000000000000000000 PUSH0 MSTORE PUSH1 0x12 PUSH1 0x4 MSTORE PUSH1 0x24 PUSH0 REVERT JUMPDEST PUSH0 PUSH2 0x1351 DUP3 PUSH2 0xF7C JUMP JUMPDEST SWAP2 POP PUSH2 0x135C DUP4 PUSH2 0xF7C JUMP JUMPDEST SWAP3 POP DUP3 PUSH2 0x136C JUMPI PUSH2 0x136B PUSH2 0x131A JUMP JUMPDEST JUMPDEST DUP3 DUP3 DIV SWAP1 POP SWAP3 SWAP2 POP POP JUMP JUMPDEST PUSH0 DUP2 SWAP1 POP SWAP2 SWAP1 POP JUMP JUMPDEST PUSH2 0x1389 DUP2 PUSH2 0x1377 JUMP JUMPDEST DUP3 MSTORE POP POP JUMP JUMPDEST PUSH0 PUSH1 0x20 DUP3 ADD SWAP1 POP PUSH2 0x13A2 PUSH0 DUP4 ADD DUP5 PUSH2 0x1380 JUMP JUMPDEST SWAP3 SWAP2 POP POP JUMP JUMPDEST PUSH0 PUSH1 0x40 DUP3 ADD SWAP1 POP PUSH2 0x13BB PUSH0 DUP4 ADD DUP6 PUSH2 0xF50 JUMP JUMPDEST PUSH2 0x13C8 PUSH1 0x20 DUP4 ADD DUP5 PUSH2 0xFDA JUMP JUMPDEST SWAP4 SWAP3 POP POP POP JUMP JUMPDEST PUSH0 PUSH1 0x40 DUP3 ADD SWAP1 POP PUSH2 0x13E2 PUSH0 DUP4 ADD DUP6 PUSH2 0xFDA JUMP JUMPDEST PUSH2 0x13EF PUSH1 0x20 DUP4 ADD DUP5 PUSH2 0xFDA JUMP JUMPDEST SWAP4 SWAP3 POP POP POP JUMP JUMPDEST PUSH32 0x5469636B2076616C7565206F7574206F662072616E6765000000000000000000 PUSH0 DUP3 ADD MSTORE POP JUMP JUMPDEST PUSH0 PUSH2 0x142A PUSH1 0x17 DUP4 PUSH2 0x1036 JUMP JUMPDEST SWAP2 POP PUSH2 0x1435 DUP3 PUSH2 0x13F6 JUMP JUMPDEST PUSH1 0x20 DUP3 ADD SWAP1 POP SWAP2 SWAP1 POP JUMP JUMPDEST PUSH0 PUSH1 0x20 DUP3 ADD SWAP1 POP DUP2 DUP2 SUB PUSH0 DUP4 ADD MSTORE PUSH2 0x1457 DUP2 PUSH2 0x141E JUMP JUMPDEST SWAP1 POP SWAP2 SWAP1 POP JUMP JUMPDEST PUSH0 PUSH2 0x1468 DUP3 PUSH2 0xF7C JUMP JUMPDEST SWAP2 POP PUSH2 0x1473 DUP4 PUSH2 0xF7C JUMP JUMPDEST SWAP3 POP DUP3 DUP3 ADD SWAP1 POP DUP1 DUP3 GT ISZERO PUSH2 0x148B JUMPI PUSH2 0x148A PUSH2 0x1279 JUMP JUMPDEST JUMPDEST SWAP3 SWAP2 POP POP JUMP JUMPDEST PUSH2 0x149A DUP2 PUSH2 0xF3F JUMP JUMPDEST DUP3 MSTORE POP POP JUMP JUMPDEST PUSH2 0x14A9 DUP2 PUSH2 0xEEA JUMP JUMPDEST DUP3 MSTORE POP POP JUMP JUMPDEST PUSH2 0x14B8 DUP2 PUSH2 0x1002 JUMP JUMPDEST DUP3 MSTORE POP POP JUMP JUMPDEST PUSH2 0x14C7 DUP2 PUSH2 0xF7C JUMP JUMPDEST DUP3 MSTORE POP POP JUMP JUMPDEST PUSH2 0x160 DUP3 ADD PUSH0 DUP3 ADD MLOAD PUSH2 0x14E2 PUSH0 DUP6 ADD DUP3 PUSH2 0x1491 JUMP JUMPDEST POP PUSH1 0x20 DUP3 ADD MLOAD PUSH2 0x14F5 PUSH1 0x20 DUP6 ADD DUP3 PUSH2 0x1491 JUMP JUMPDEST POP PUSH1 0x40 DUP3 ADD MLOAD PUSH2 0x1508 PUSH1 0x40 DUP6 ADD DUP3 PUSH2 0x14A0 JUMP JUMPDEST POP PUSH1 0x60 DUP3 ADD MLOAD PUSH2 0x151B PUSH1 0x60 DUP6 ADD DUP3 PUSH2 0x14AF JUMP JUMPDEST POP PUSH1 0x80 DUP3 ADD MLOAD PUSH2 0x152E PUSH1 0x80 DUP6 ADD DUP3 PUSH2 0x14AF JUMP JUMPDEST POP PUSH1 0xA0 DUP3 ADD MLOAD PUSH2 0x1541 PUSH1 0xA0 DUP6 ADD DUP3 PUSH2 0x14BE JUMP JUMPDEST POP PUSH1 0xC0 DUP3 ADD MLOAD PUSH2 0x1554 PUSH1 0xC0 DUP6 ADD DUP3 PUSH2 0x14BE JUMP JUMPDEST POP PUSH1 0xE0 DUP3 ADD MLOAD PUSH2 0x1567 PUSH1 0xE0 DUP6 ADD DUP3 PUSH2 0x14BE JUMP JUMPDEST POP PUSH2 0x100 DUP3 ADD MLOAD PUSH2 0x157C PUSH2 0x100 DUP6 ADD DUP3 PUSH2 0x14BE JUMP JUMPDEST POP PUSH2 0x120 DUP3 ADD MLOAD PUSH2 0x1591 PUSH2 0x120 DUP6 ADD DUP3 PUSH2 0x1491 JUMP JUMPDEST POP PUSH2 0x140 DUP3 ADD MLOAD PUSH2 0x15A6 PUSH2 0x140 DUP6 ADD DUP3 PUSH2 0x14BE JUMP JUMPDEST POP POP POP POP JUMP JUMPDEST PUSH0 PUSH2 0x160 DUP3 ADD SWAP1 POP PUSH2 0x15C0 PUSH0 DUP4 ADD DUP5 PUSH2 0x14CD JUMP JUMPDEST SWAP3 SWAP2 POP POP JUMP JUMPDEST PUSH0 PUSH16 0xFFFFFFFFFFFFFFFFFFFFFFFFFFFFFFFF DUP3 AND SWAP1 POP SWAP2 SWAP1 POP JUMP JUMPDEST PUSH2 0x15EA DUP2 PUSH2 0x15C6 JUMP JUMPDEST DUP2 EQ PUSH2 0x15F4 JUMPI PUSH0 PUSH0 REVERT JUMPDEST POP JUMP JUMPDEST PUSH0 DUP2 MLOAD SWAP1 POP PUSH2 0x1605 DUP2 PUSH2 0x15E1 JUMP JUMPDEST SWAP3 SWAP2 POP POP JUMP JUMPDEST PUSH0 PUSH0 PUSH0 PUSH0 PUSH1 0x80 DUP6 DUP8 SUB SLT ISZERO PUSH2 0x1623 JUMPI PUSH2 0x1622 PUSH2 0xF78 JUMP JUMPDEST JUMPDEST PUSH0 PUSH2 0x1630 DUP8 DUP3 DUP9 ADD PUSH2 0x113D JUMP JUMPDEST SWAP5 POP POP PUSH1 0x20 PUSH2 0x1641 DUP8 DUP3 DUP9 ADD PUSH2 0x15F7 JUMP JUMPDEST SWAP4 POP POP PUSH1 0x40 PUSH2 0x1652 DUP8 DUP3 DUP9 ADD PUSH2 0x113D JUMP JUMPDEST SWAP3 POP POP PUSH1 0x60 PUSH2 0x1663 DUP8 DUP3 DUP9 ADD PUSH2 0x113D JUMP JUMPDEST SWAP2 POP POP SWAP3 SWAP6 SWAP2 SWAP5 POP SWAP3 POP JUMP JUMPDEST PUSH2 0x1678 DUP2 PUSH2 0x15C6 JUMP JUMPDEST DUP3 MSTORE POP POP JUMP JUMPDEST PUSH0 PUSH1 0x80 DUP3 ADD SWAP1 POP PUSH2 0x1691 PUSH0 DUP4 ADD DUP8 PUSH2 0xFDA JUMP JUMPDEST PUSH2 0x169E PUSH1 0x20 DUP4 ADD DUP7 PUSH2 0x166F JUMP JUMPDEST PUSH2 0x16AB PUSH1 0x40 DUP4 ADD DUP6 PUSH2 0xFDA JUMP JUMPDEST PUSH2 0x16B8 PUSH1 0x60 DUP4 ADD DUP5 PUSH2 0xFDA JUMP JUMPDEST SWAP6 SWAP5 POP POP POP POP POP JUMP JUMPDEST PUSH0 PUSH2 0x16CB DUP3 PUSH2 0xF7C JUMP JUMPDEST SWAP2 POP PUSH32 0xFFFFFFFFFFFFFFFFFFFFFFFFFFFFFFFFFFFFFFFFFFFFFFFFFFFFFFFFFFFFFFFF DUP3 SUB PUSH2 0x16FD JUMPI PUSH2 0x16FC PUSH2 0x1279 JUMP JUMPDEST JUMPDEST PUSH1 0x1 DUP3 ADD SWAP1 POP SWAP2 SWAP1 POP JUMP INVALID LOG2 PUSH5 0x6970667358 0x22 SLT KECCAK256 0xFC SWAP13 PUSH29 0xC52FFFF92A7BD5C00096EB291F045A1A75890123D39AFE30E02C3C623E PUSH5 0x736F6C6343 STOP ADDMOD SHR STOP CALLER "
				},
				"gasEstimates": {
					"creation": {
						"codeDepositCost": "1190000",
						"executionCost": "infinite",
						"totalCost": "infinite"
					},
					"external": {
						"bond(uint256)": "infinite",
						"discountRate()": "2513",
						"getTickFromPrice(uint256)": "infinite",
						"mlAMPL()": "2531",
						"owner()": "2507",
						"poolFee()": "2518",
						"positionManager()": "2597",
						"provideLiquidity(uint256)": "infinite",
						"setTargetPrice(uint256)": "24750",
						"targetPrice()": "2469",
						"weth()": "2553"
					},
					"internal": {
						"logBase(uint256,uint256,uint256)": "infinite",
						"sqrt(uint256)": "infinite"
					}
				},
				"methodIdentifiers": {
					"bond(uint256)": "9940686e",
					"discountRate()": "e6c0e6d5",
					"getTickFromPrice(uint256)": "dc5cc6f6",
					"mlAMPL()": "3a6eb3df",
					"owner()": "8da5cb5b",
					"poolFee()": "089fe6aa",
					"positionManager()": "791b98bc",
					"provideLiquidity(uint256)": "eb521a4c",
					"setTargetPrice(uint256)": "6a64eff8",
					"targetPrice()": "dc38679c",
					"weth()": "3fc8cef3"
				}
			},
			"storageLayout": {
				"storage": [
					{
						"astId": 145,
						"contract": "bonding_full.sol:Bonding",
						"label": "owner",
						"offset": 0,
						"slot": "0",
						"type": "t_address"
					},
					{
						"astId": 147,
						"contract": "bonding_full.sol:Bonding",
						"label": "weth",
						"offset": 0,
						"slot": "1",
						"type": "t_address"
					},
					{
						"astId": 149,
						"contract": "bonding_full.sol:Bonding",
						"label": "mlAMPL",
						"offset": 0,
						"slot": "2",
						"type": "t_address"
					},
					{
						"astId": 151,
						"contract": "bonding_full.sol:Bonding",
						"label": "positionManager",
						"offset": 0,
						"slot": "3",
						"type": "t_address"
					},
					{
						"astId": 154,
						"contract": "bonding_full.sol:Bonding",
						"label": "poolFee",
						"offset": 20,
						"slot": "3",
						"type": "t_uint24"
					},
					{
						"astId": 157,
						"contract": "bonding_full.sol:Bonding",
						"label": "discountRate",
						"offset": 0,
						"slot": "4",
						"type": "t_uint256"
					},
					{
						"astId": 160,
						"contract": "bonding_full.sol:Bonding",
						"label": "targetPrice",
						"offset": 0,
						"slot": "5",
						"type": "t_uint256"
					}
				],
				"types": {
					"t_address": {
						"encoding": "inplace",
						"label": "address",
						"numberOfBytes": "20"
					},
					"t_uint24": {
						"encoding": "inplace",
						"label": "uint24",
						"numberOfBytes": "3"
					},
					"t_uint256": {
						"encoding": "inplace",
						"label": "uint256",
						"numberOfBytes": "32"
					}
				}
			},
			"userdoc": {
				"kind": "user",
				"methods": {},
				"version": 1
			}
		}
	}
}