{
	"contracts/buy_back.sol": {
		"BuyBack": {
			"abi": [
				{
					"inputs": [
						{
							"internalType": "address",
							"name": "_paymentToken",
							"type": "address"
						},
						{
							"internalType": "address",
							"name": "_roboMoney",
							"type": "address"
						},
						{
							"internalType": "uint256",
							"name": "_premiumRate",
							"type": "uint256"
						},
						{
							"internalType": "uint256",
							"name": "_targetPrice",
							"type": "uint256"
						}
					],
					"stateMutability": "nonpayable",
					"type": "constructor"
				},
				{
					"anonymous": false,
					"inputs": [
						{
							"indexed": true,
							"internalType": "address",
							"name": "buyer",
							"type": "address"
						},
						{
							"indexed": false,
							"internalType": "uint256",
							"name": "roboMoneyAmount",
							"type": "uint256"
						},
						{
							"indexed": false,
							"internalType": "uint256",
							"name": "tokenSpent",
							"type": "uint256"
						}
					],
					"name": "BuyBackExecuted",
					"type": "event"
				},
				{
					"anonymous": false,
					"inputs": [
						{
							"indexed": true,
							"internalType": "address",
							"name": "previousOwner",
							"type": "address"
						},
						{
							"indexed": true,
							"internalType": "address",
							"name": "newOwner",
							"type": "address"
						}
					],
					"name": "OwnershipTransferred",
					"type": "event"
				},
				{
					"anonymous": false,
					"inputs": [
						{
							"indexed": false,
							"internalType": "address",
							"name": "account",
							"type": "address"
						}
					],
					"name": "Paused",
					"type": "event"
				},
				{
					"anonymous": false,
					"inputs": [
						{
							"indexed": false,
							"internalType": "address",
							"name": "account",
							"type": "address"
						}
					],
					"name": "Unpaused",
					"type": "event"
				},
				{
					"inputs": [
						{
							"internalType": "uint256",
							"name": "roboMoneyAmount",
							"type": "uint256"
						}
					],
					"name": "buyback",
					"outputs": [],
					"stateMutability": "nonpayable",
					"type": "function"
				},
				{
					"inputs": [
						{
							"internalType": "uint256",
							"name": "roboMoneyAmount",
							"type": "uint256"
						}
					],
					"name": "canExecuteBuyback",
					"outputs": [
						{
							"internalType": "bool",
							"name": "",
							"type": "bool"
						}
					],
					"stateMutability": "view",
					"type": "function"
				},
				{
					"inputs": [],
					"name": "contractTokenBalance",
					"outputs": [
						{
							"internalType": "uint256",
							"name": "",
							"type": "uint256"
						}
					],
					"stateMutability": "view",
					"type": "function"
				},
				{
					"inputs": [
						{
							"internalType": "uint256",
							"name": "amount",
							"type": "uint256"
						}
					],
					"name": "depositPaymentToken",
					"outputs": [],
					"stateMutability": "nonpayable",
					"type": "function"
				},
				{
					"inputs": [],
					"name": "maxBuyableRoboMoney",
					"outputs": [
						{
							"internalType": "uint256",
							"name": "",
							"type": "uint256"
						}
					],
					"stateMutability": "view",
					"type": "function"
				},
				{
					"inputs": [],
					"name": "owner",
					"outputs": [
						{
							"internalType": "address",
							"name": "",
							"type": "address"
						}
					],
					"stateMutability": "view",
					"type": "function"
				},
				{
					"inputs": [],
					"name": "pause",
					"outputs": [],
					"stateMutability": "nonpayable",
					"type": "function"
				},
				{
					"inputs": [],
					"name": "paused",
					"outputs": [
						{
							"internalType": "bool",
							"name": "",
							"type": "bool"
						}
					],
					"stateMutability": "view",
					"type": "function"
				},
				{
					"inputs": [],
					"name": "paymentToken",
					"outputs": [
						{
							"internalType": "address",
							"name": "",
							"type": "address"
						}
					],
					"stateMutability": "view",
					"type": "function"
				},
				{
					"inputs": [],
					"name": "premiumRate",
					"outputs": [
						{
							"internalType": "uint256",
							"name": "",
							"type": "uint256"
						}
					],
					"stateMutability": "view",
					"type": "function"
				},
				{
					"inputs": [],
					"name": "roboMoney",
					"outputs": [
						{
							"internalType": "address",
							"name": "",
							"type": "address"
						}
					],
					"stateMutability": "view",
					"type": "function"
				},
				{
					"inputs": [
						{
							"internalType": "uint256",
							"name": "_premiumRate",
							"type": "uint256"
						}
					],
					"name": "setPremiumRate",
					"outputs": [],
					"stateMutability": "nonpayable",
					"type": "function"
				},
				{
					"inputs": [
						{
							"internalType": "uint256",
							"name": "_targetPrice",
							"type": "uint256"
						}
					],
					"name": "setTargetPrice",
					"outputs": [],
					"stateMutability": "nonpayable",
					"type": "function"
				},
				{
					"inputs": [],
					"name": "targetPrice",
					"outputs": [
						{
							"internalType": "uint256",
							"name": "",
							"type": "uint256"
						}
					],
					"stateMutability": "view",
					"type": "function"
				},
				{
					"inputs": [
						{
							"internalType": "address",
							"name": "newOwner",
							"type": "address"
						}
					],
					"name": "transferOwnership",
					"outputs": [],
					"stateMutability": "nonpayable",
					"type": "function"
				},
				{
					"inputs": [],
					"name": "unpause",
					"outputs": [],
					"stateMutability": "nonpayable",
					"type": "function"
				},
				{
					"inputs": [
						{
							"internalType": "uint256",
							"name": "amount",
							"type": "uint256"
						}
					],
					"name": "withdrawPaymentToken",
					"outputs": [],
					"stateMutability": "nonpayable",
					"type": "function"
				}
			],
			"devdoc": {
				"details": "A contract that lets users sell (buy back) RoboMoney tokens for a paymentToken,      and then burns the RoboMoney tokens.      Now includes Pausable functionality so the owner can temporarily halt deposits or buybacks.",
				"kind": "dev",
				"methods": {
					"buyback(uint256)": {
						"details": "`whenNotPaused` ensures no buybacks are processed if contract is paused.",
						"params": {
							"roboMoneyAmount": "Amount of RoboMoney tokens to sell/buy back."
						}
					},
					"canExecuteBuyback(uint256)": {
						"details": "Checks if the contract has enough payment tokens to buy back `roboMoneyAmount`      at the current premium rate."
					},
					"contractTokenBalance()": {
						"details": "Returns the current contract balance of the payment token."
					},
					"depositPaymentToken(uint256)": {
						"details": "Owner can deposit payment tokens into the contract to fund future buybacks.Protected by `whenNotPaused` so you can prevent deposits if needed."
					},
					"maxBuyableRoboMoney()": {
						"details": "Returns the maximum amount of RoboMoney the contract can buy back given its current payment token balance and the premium rate."
					},
					"pause()": {
						"details": "Owner can pause the contract (disables buyback & deposit)."
					},
					"setPremiumRate(uint256)": {
						"details": "Sets the premium rate (in %). e.g., 5 => 5% premium."
					},
					"setTargetPrice(uint256)": {
						"details": "Sets the base price ratio for RoboMoney vs. payment token."
					},
					"transferOwnership(address)": {
						"details": "Owner can transfer ownership."
					},
					"unpause()": {
						"details": "Owner can unpause the contract (re-enables buyback & deposit)."
					},
					"withdrawPaymentToken(uint256)": {
						"details": "Owner can withdraw payment tokens from the contract (for leftover tokens, etc.).      This is still allowed even if paused, in case you need to remove funds in an emergency."
					}
				},
				"title": "BuyBack",
				"version": 1
			},
			"evm": {
				"assembly": "    /* \"contracts/buy_back.sol\":2579:9189  contract BuyBack is Pausable {... */\n  mstore(0x40, 0x80)\n    /* \"contracts/buy_back.sol\":3254:3579  constructor(... */\n  callvalue\n  dup1\n  iszero\n  tag_1\n  jumpi\n  revert(0x00, 0x00)\ntag_1:\n  pop\n  mload(0x40)\n  sub(codesize, bytecodeSize)\n  dup1\n  bytecodeSize\n  dup4\n  codecopy\n  dup2\n  add\n  0x40\n  dup2\n  swap1\n  mstore\n  tag_2\n  swap2\n  tag_3\n  jump\t// in\ntag_2:\n    /* \"contracts/buy_back.sol\":578:583  false */\n  0x00\n    /* \"contracts/buy_back.sol\":568:583  _paused = false */\n  dup1\n  sload\n  not(sub(shl(0xa8, 0x01), 0x01))\n    /* \"contracts/buy_back.sol\":3407:3425  owner = msg.sender */\n  and\n    /* \"contracts/buy_back.sol\":568:583  _paused = false */\n  0x0100\n    /* \"contracts/buy_back.sol\":3415:3425  msg.sender */\n  caller\n    /* \"contracts/buy_back.sol\":3407:3425  owner = msg.sender */\n  mul\n  or\n  swap1\n  sstore\n  0x01\n    /* \"contracts/buy_back.sol\":3436:3464  paymentToken = _paymentToken */\n  dup1\n  sload\n  not(sub(shl(0xa0, 0x01), 0x01))\n  swap1\n  dup2\n  and\n  sub(shl(0xa0, 0x01), 0x01)\n  swap7\n  dup8\n  and\n  or\n  swap1\n  swap2\n  sstore\n    /* \"contracts/buy_back.sol\":3475:3484  roboMoney */\n  0x02\n    /* \"contracts/buy_back.sol\":3475:3497  roboMoney = _roboMoney */\n  dup1\n  sload\n  swap1\n  swap2\n  and\n  swap4\n  swap1\n  swap5\n  and\n  swap3\n  swap1\n  swap3\n  or\n  swap1\n  swap3\n  sstore\n    /* \"contracts/buy_back.sol\":3508:3519  premiumRate */\n  0x03\n    /* \"contracts/buy_back.sol\":3508:3534  premiumRate = _premiumRate */\n  swap2\n  swap1\n  swap2\n  sstore\n    /* \"contracts/buy_back.sol\":3545:3556  targetPrice */\n  0x04\n    /* \"contracts/buy_back.sol\":3545:3571  targetPrice = _targetPrice */\n  sstore\n    /* \"contracts/buy_back.sol\":2579:9189  contract BuyBack is Pausable {... */\n  jump(tag_10)\n    /* \"#utility.yul\":14:191   */\ntag_9:\n    /* \"#utility.yul\":93:106   */\n  dup1\n  mload\n  sub(shl(0xa0, 0x01), 0x01)\n    /* \"#utility.yul\":135:166   */\n  dup2\n  and\n    /* \"#utility.yul\":125:167   */\n  dup2\n  eq\n    /* \"#utility.yul\":115:185   */\n  tag_12\n  jumpi\n    /* \"#utility.yul\":181:182   */\n  0x00\n    /* \"#utility.yul\":178:179   */\n  0x00\n    /* \"#utility.yul\":171:183   */\n  revert\n    /* \"#utility.yul\":115:185   */\ntag_12:\n    /* \"#utility.yul\":14:191   */\n  swap2\n  swap1\n  pop\n  jump\t// out\n    /* \"#utility.yul\":196:710   */\ntag_3:\n    /* \"#utility.yul\":293:299   */\n  0x00\n    /* \"#utility.yul\":301:307   */\n  0x00\n    /* \"#utility.yul\":309:315   */\n  0x00\n    /* \"#utility.yul\":317:323   */\n  0x00\n    /* \"#utility.yul\":370:373   */\n  0x80\n    /* \"#utility.yul\":358:367   */\n  dup6\n    /* \"#utility.yul\":349:356   */\n  dup8\n    /* \"#utility.yul\":345:368   */\n  sub\n    /* \"#utility.yul\":341:374   */\n  slt\n    /* \"#utility.yul\":338:391   */\n  iszero\n  tag_14\n  jumpi\n    /* \"#utility.yul\":387:388   */\n  0x00\n    /* \"#utility.yul\":384:385   */\n  0x00\n    /* \"#utility.yul\":377:389   */\n  revert\n    /* \"#utility.yul\":338:391   */\ntag_14:\n    /* \"#utility.yul\":410:450   */\n  tag_15\n    /* \"#utility.yul\":440:449   */\n  dup6\n    /* \"#utility.yul\":410:450   */\n  tag_9\n  jump\t// in\ntag_15:\n    /* \"#utility.yul\":400:450   */\n  swap4\n  pop\n    /* \"#utility.yul\":469:518   */\n  tag_16\n    /* \"#utility.yul\":514:516   */\n  0x20\n    /* \"#utility.yul\":503:512   */\n  dup7\n    /* \"#utility.yul\":499:517   */\n  add\n    /* \"#utility.yul\":469:518   */\n  tag_9\n  jump\t// in\ntag_16:\n    /* \"#utility.yul\":580:582   */\n  0x40\n    /* \"#utility.yul\":565:583   */\n  dup7\n  add\n    /* \"#utility.yul\":559:584   */\n  mload\n    /* \"#utility.yul\":674:676   */\n  0x60\n    /* \"#utility.yul\":659:677   */\n  swap1\n  swap7\n  add\n    /* \"#utility.yul\":653:678   */\n  mload\n    /* \"#utility.yul\":196:710   */\n  swap5\n  swap8\n    /* \"#utility.yul\":459:518   */\n  swap1\n  swap7\n  pop\n    /* \"#utility.yul\":196:710   */\n  swap3\n  pop\n  pop\n  pop\n  jump\t// out\ntag_10:\n    /* \"contracts/buy_back.sol\":2579:9189  contract BuyBack is Pausable {... */\n  dataSize(sub_0)\n  dup1\n  dataOffset(sub_0)\n  0x00\n  codecopy\n  0x00\n  return\nstop\n\nsub_0: assembly {\n        /* \"contracts/buy_back.sol\":2579:9189  contract BuyBack is Pausable {... */\n      mstore(0x40, 0x80)\n      callvalue\n      dup1\n      iszero\n      tag_1\n      jumpi\n      revert(0x00, 0x00)\n    tag_1:\n      pop\n      jumpi(tag_2, lt(calldatasize, 0x04))\n      shr(0xe0, calldataload(0x00))\n      dup1\n      0x7ff8b57a\n      gt\n      tag_20\n      jumpi\n      dup1\n      0x9063ee20\n      gt\n      tag_21\n      jumpi\n      dup1\n      0x9063ee20\n      eq\n      tag_15\n      jumpi\n      dup1\n      0x9e9aed62\n      eq\n      tag_16\n      jumpi\n      dup1\n      0xce1d1f1f\n      eq\n      tag_17\n      jumpi\n      dup1\n      0xdc38679c\n      eq\n      tag_18\n      jumpi\n      dup1\n      0xf2fde38b\n      eq\n      tag_19\n      jumpi\n      revert(0x00, 0x00)\n    tag_21:\n      dup1\n      0x7ff8b57a\n      eq\n      tag_11\n      jumpi\n      dup1\n      0x839ea2d9\n      eq\n      tag_12\n      jumpi\n      dup1\n      0x8456cb59\n      eq\n      tag_13\n      jumpi\n      dup1\n      0x8da5cb5b\n      eq\n      tag_14\n      jumpi\n      revert(0x00, 0x00)\n    tag_20:\n      dup1\n      0x5d0040d3\n      gt\n      tag_22\n      jumpi\n      dup1\n      0x5d0040d3\n      eq\n      tag_7\n      jumpi\n      dup1\n      0x6a64eff8\n      eq\n      tag_8\n      jumpi\n      dup1\n      0x79a9fa1c\n      eq\n      tag_9\n      jumpi\n      dup1\n      0x7ef7ba20\n      eq\n      tag_10\n      jumpi\n      revert(0x00, 0x00)\n    tag_22:\n      dup1\n      0x07e675fa\n      eq\n      tag_3\n      jumpi\n      dup1\n      0x3013ce29\n      eq\n      tag_4\n      jumpi\n      dup1\n      0x3f4ba83a\n      eq\n      tag_5\n      jumpi\n      dup1\n      0x5c975abb\n      eq\n      tag_6\n      jumpi\n    tag_2:\n      revert(0x00, 0x00)\n        /* \"contracts/buy_back.sol\":7393:7810  function withdrawPaymentToken(uint256 amount) external onlyOwner {... */\n    tag_3:\n      tag_23\n      tag_24\n      calldatasize\n      0x04\n      tag_25\n      jump\t// in\n    tag_24:\n      tag_26\n      jump\t// in\n    tag_23:\n      stop\n        /* \"contracts/buy_back.sol\":2642:2669  address public paymentToken */\n    tag_4:\n      sload(0x01)\n      tag_27\n      swap1\n      sub(shl(0xa0, 0x01), 0x01)\n      and\n      dup2\n      jump\n    tag_27:\n      mload(0x40)\n      sub(shl(0xa0, 0x01), 0x01)\n        /* \"#utility.yul\":363:395   */\n      swap1\n      swap2\n      and\n        /* \"#utility.yul\":345:396   */\n      dup2\n      mstore\n        /* \"#utility.yul\":333:335   */\n      0x20\n        /* \"#utility.yul\":318:336   */\n      add\n        /* \"contracts/buy_back.sol\":2642:2669  address public paymentToken */\n    tag_29:\n      mload(0x40)\n      dup1\n      swap2\n      sub\n      swap1\n      return\n        /* \"contracts/buy_back.sol\":3948:4015  function unpause() external onlyOwner {... */\n    tag_5:\n      tag_23\n      tag_32\n      jump\t// in\n        /* \"contracts/buy_back.sol\":599:685  function paused() public view virtual returns (bool) {... */\n    tag_6:\n        /* \"contracts/buy_back.sol\":646:650  bool */\n      0x00\n        /* \"contracts/buy_back.sol\":670:677  _paused */\n      sload\n      0xff\n      and\n        /* \"contracts/buy_back.sol\":599:685  function paused() public view virtual returns (bool) {... */\n    tag_33:\n      mload(0x40)\n        /* \"#utility.yul\":572:586   */\n      swap1\n      iszero\n        /* \"#utility.yul\":565:587   */\n      iszero\n        /* \"#utility.yul\":547:588   */\n      dup2\n      mstore\n        /* \"#utility.yul\":535:537   */\n      0x20\n        /* \"#utility.yul\":520:538   */\n      add\n        /* \"contracts/buy_back.sol\":599:685  function paused() public view virtual returns (bool) {... */\n      tag_29\n        /* \"#utility.yul\":407:594   */\n      jump\n        /* \"contracts/buy_back.sol\":2930:2956  uint256 public premiumRate */\n    tag_7:\n      tag_37\n      sload(0x03)\n      dup2\n      jump\n    tag_37:\n      mload(0x40)\n        /* \"#utility.yul\":745:770   */\n      swap1\n      dup2\n      mstore\n        /* \"#utility.yul\":733:735   */\n      0x20\n        /* \"#utility.yul\":718:736   */\n      add\n        /* \"contracts/buy_back.sol\":2930:2956  uint256 public premiumRate */\n      tag_29\n        /* \"#utility.yul\":599:776   */\n      jump\n        /* \"contracts/buy_back.sol\":4430:4540  function setTargetPrice(uint256 _targetPrice) external onlyOwner {... */\n    tag_8:\n      tag_23\n      tag_42\n      calldatasize\n      0x04\n      tag_25\n      jump\t// in\n    tag_42:\n      tag_43\n      jump\t// in\n        /* \"contracts/buy_back.sol\":5204:6684  function buyback(uint256 roboMoneyAmount) external whenNotPaused {... */\n    tag_9:\n      tag_23\n      tag_45\n      calldatasize\n      0x04\n      tag_25\n      jump\t// in\n    tag_45:\n      tag_46\n      jump\t// in\n        /* \"contracts/buy_back.sol\":2720:2744  address public roboMoney */\n    tag_10:\n      sload(0x02)\n      tag_27\n      swap1\n      sub(shl(0xa0, 0x01), 0x01)\n      and\n      dup2\n      jump\n        /* \"contracts/buy_back.sol\":4107:4332  function setPremiumRate(uint256 _premiumRate) external onlyOwner {... */\n    tag_11:\n      tag_23\n      tag_51\n      calldatasize\n      0x04\n      tag_25\n      jump\t// in\n    tag_51:\n      tag_52\n      jump\t// in\n        /* \"contracts/buy_back.sol\":8820:9186  function canExecuteBuyback(uint256 roboMoneyAmount) external view returns (bool) {... */\n    tag_12:\n      tag_33\n      tag_54\n      calldatasize\n      0x04\n      tag_25\n      jump\t// in\n    tag_54:\n      tag_55\n      jump\t// in\n        /* \"contracts/buy_back.sol\":3783:3846  function pause() external onlyOwner {... */\n    tag_13:\n      tag_23\n      tag_58\n      jump\t// in\n        /* \"contracts/buy_back.sol\":2615:2635  address public owner */\n    tag_14:\n      sload(0x00)\n      tag_27\n      swap1\n      0x0100\n      swap1\n      div\n      sub(shl(0xa0, 0x01), 0x01)\n      and\n      dup2\n      jump\n        /* \"contracts/buy_back.sol\":6880:7172  function depositPaymentToken(uint256 amount) external onlyOwner whenNotPaused {... */\n    tag_15:\n      tag_23\n      tag_63\n      calldatasize\n      0x04\n      tag_25\n      jump\t// in\n    tag_63:\n      tag_64\n      jump\t// in\n        /* \"contracts/buy_back.sol\":7908:8043  function contractTokenBalance() external view returns (uint256) {... */\n    tag_16:\n      tag_37\n      tag_66\n      jump\t// in\n        /* \"contracts/buy_back.sol\":8218:8660  function maxBuyableRoboMoney() external view returns (uint256) {... */\n    tag_17:\n      tag_37\n      tag_69\n      jump\t// in\n        /* \"contracts/buy_back.sol\":2982:3008  uint256 public targetPrice */\n    tag_18:\n      tag_37\n      sload(0x04)\n      dup2\n      jump\n        /* \"contracts/buy_back.sol\":4609:4839  function transferOwnership(address newOwner) external onlyOwner {... */\n    tag_19:\n      tag_23\n      tag_75\n      calldatasize\n      0x04\n      tag_76\n      jump\t// in\n    tag_75:\n      tag_77\n      jump\t// in\n        /* \"contracts/buy_back.sol\":7393:7810  function withdrawPaymentToken(uint256 amount) external onlyOwner {... */\n    tag_26:\n        /* \"contracts/buy_back.sol\":3641:3646  owner */\n      sload(0x00)\n      0x0100\n      swap1\n      div\n      sub(shl(0xa0, 0x01), 0x01)\n      and\n        /* \"contracts/buy_back.sol\":3627:3637  msg.sender */\n      caller\n        /* \"contracts/buy_back.sol\":3627:3646  msg.sender == owner */\n      eq\n        /* \"contracts/buy_back.sol\":3619:3665  require(msg.sender == owner, \"Not authorized\") */\n      tag_79\n      jumpi\n      mload(0x40)\n      shl(0xe5, 0x461bcd)\n      dup2\n      mstore\n      0x04\n      add\n      tag_80\n      swap1\n      tag_81\n      jump\t// in\n    tag_80:\n      mload(0x40)\n      dup1\n      swap2\n      sub\n      swap1\n      revert\n    tag_79:\n        /* \"contracts/buy_back.sol\":7486:7487  0 */\n      0x00\n        /* \"contracts/buy_back.sol\":7477:7483  amount */\n      dup2\n        /* \"contracts/buy_back.sol\":7477:7487  amount > 0 */\n      gt\n        /* \"contracts/buy_back.sol\":7469:7512  require(amount > 0, \"Withdraw must be > 0\") */\n      tag_83\n      jumpi\n      mload(0x40)\n      shl(0xe5, 0x461bcd)\n      dup2\n      mstore\n        /* \"#utility.yul\":1617:1619   */\n      0x20\n        /* \"contracts/buy_back.sol\":7469:7512  require(amount > 0, \"Withdraw must be > 0\") */\n      0x04\n      dup3\n      add\n        /* \"#utility.yul\":1599:1620   */\n      mstore\n        /* \"#utility.yul\":1656:1658   */\n      0x14\n        /* \"#utility.yul\":1636:1654   */\n      0x24\n      dup3\n      add\n        /* \"#utility.yul\":1629:1659   */\n      mstore\n      shl(0x64, 0x05769746864726177206d757374206265203e203)\n        /* \"#utility.yul\":1675:1693   */\n      0x44\n      dup3\n      add\n        /* \"#utility.yul\":1668:1718   */\n      mstore\n        /* \"#utility.yul\":1735:1753   */\n      0x64\n      add\n        /* \"contracts/buy_back.sol\":7469:7512  require(amount > 0, \"Withdraw must be > 0\") */\n      tag_80\n        /* \"#utility.yul\":1415:1759   */\n      jump\n        /* \"contracts/buy_back.sol\":7469:7512  require(amount > 0, \"Withdraw must be > 0\") */\n    tag_83:\n        /* \"contracts/buy_back.sol\":7555:7567  paymentToken */\n      sload(0x01)\n        /* \"contracts/buy_back.sol\":7548:7593  IERC20(paymentToken).balanceOf(address(this)) */\n      mload(0x40)\n      shl(0xe0, 0x70a08231)\n      dup2\n      mstore\n        /* \"contracts/buy_back.sol\":7587:7591  this */\n      address\n        /* \"contracts/buy_back.sol\":7548:7593  IERC20(paymentToken).balanceOf(address(this)) */\n      0x04\n      dup3\n      add\n        /* \"#utility.yul\":345:396   */\n      mstore\n        /* \"contracts/buy_back.sol\":7523:7545  uint256 currentBalance */\n      0x00\n      swap2\n      sub(shl(0xa0, 0x01), 0x01)\n        /* \"contracts/buy_back.sol\":7555:7567  paymentToken */\n      and\n      swap1\n        /* \"contracts/buy_back.sol\":7548:7578  IERC20(paymentToken).balanceOf */\n      0x70a08231\n      swap1\n        /* \"#utility.yul\":318:336   */\n      0x24\n      add\n        /* \"contracts/buy_back.sol\":7548:7593  IERC20(paymentToken).balanceOf(address(this)) */\n      0x20\n      mload(0x40)\n      dup1\n      dup4\n      sub\n      dup2\n      dup7\n      gas\n      staticcall\n      iszero\n      dup1\n      iszero\n      tag_88\n      jumpi\n      returndatacopy(0x00, 0x00, returndatasize)\n      revert(0x00, returndatasize)\n    tag_88:\n      pop\n      pop\n      pop\n      pop\n      mload(0x40)\n      returndatasize\n      not(0x1f)\n      0x1f\n      dup3\n      add\n      and\n      dup3\n      add\n      dup1\n      0x40\n      mstore\n      pop\n      dup2\n      add\n      swap1\n      tag_89\n      swap2\n      swap1\n      tag_90\n      jump\t// in\n    tag_89:\n        /* \"contracts/buy_back.sol\":7523:7593  uint256 currentBalance = IERC20(paymentToken).balanceOf(address(this)) */\n      swap1\n      pop\n        /* \"contracts/buy_back.sol\":7622:7636  currentBalance */\n      dup1\n        /* \"contracts/buy_back.sol\":7612:7618  amount */\n      dup3\n        /* \"contracts/buy_back.sol\":7612:7636  amount <= currentBalance */\n      gt\n      iszero\n        /* \"contracts/buy_back.sol\":7604:7670  require(amount <= currentBalance, \"Not enough tokens in contract\") */\n      tag_91\n      jumpi\n      mload(0x40)\n      shl(0xe5, 0x461bcd)\n      dup2\n      mstore\n        /* \"#utility.yul\":2155:2157   */\n      0x20\n        /* \"contracts/buy_back.sol\":7604:7670  require(amount <= currentBalance, \"Not enough tokens in contract\") */\n      0x04\n      dup3\n      add\n        /* \"#utility.yul\":2137:2158   */\n      mstore\n        /* \"#utility.yul\":2194:2196   */\n      0x1d\n        /* \"#utility.yul\":2174:2192   */\n      0x24\n      dup3\n      add\n        /* \"#utility.yul\":2167:2197   */\n      mstore\n        /* \"#utility.yul\":2233:2264   */\n      0x4e6f7420656e6f75676820746f6b656e7320696e20636f6e7472616374000000\n        /* \"#utility.yul\":2213:2231   */\n      0x44\n      dup3\n      add\n        /* \"#utility.yul\":2206:2265   */\n      mstore\n        /* \"#utility.yul\":2282:2300   */\n      0x64\n      add\n        /* \"contracts/buy_back.sol\":7604:7670  require(amount <= currentBalance, \"Not enough tokens in contract\") */\n      tag_80\n        /* \"#utility.yul\":1953:2306   */\n      jump\n        /* \"contracts/buy_back.sol\":7604:7670  require(amount <= currentBalance, \"Not enough tokens in contract\") */\n    tag_91:\n        /* \"contracts/buy_back.sol\":7703:7715  paymentToken */\n      sload(0x01)\n        /* \"contracts/buy_back.sol\":7681:7693  bool success */\n      0x00\n        /* \"contracts/buy_back.sol\":7726:7731  owner */\n      dup1\n      sload\n        /* \"contracts/buy_back.sol\":7696:7740  IERC20(paymentToken).transfer(owner, amount) */\n      mload(0x40)\n      shl(0xe0, 0xa9059cbb)\n      dup2\n      mstore\n      sub(shl(0xa0, 0x01), 0x01)\n        /* \"contracts/buy_back.sol\":7703:7715  paymentToken */\n      0x0100\n        /* \"contracts/buy_back.sol\":7726:7731  owner */\n      swap1\n      swap3\n      div\n      dup3\n      and\n        /* \"contracts/buy_back.sol\":7696:7740  IERC20(paymentToken).transfer(owner, amount) */\n      0x04\n      dup3\n      add\n        /* \"#utility.yul\":2485:2536   */\n      mstore\n        /* \"#utility.yul\":2552:2570   */\n      0x24\n      dup2\n      add\n        /* \"#utility.yul\":2545:2579   */\n      dup7\n      swap1\n      mstore\n        /* \"contracts/buy_back.sol\":7681:7693  bool success */\n      swap2\n      swap3\n        /* \"contracts/buy_back.sol\":7703:7715  paymentToken */\n      and\n      swap1\n        /* \"contracts/buy_back.sol\":7696:7725  IERC20(paymentToken).transfer */\n      0xa9059cbb\n      swap1\n        /* \"#utility.yul\":2458:2476   */\n      0x44\n      add\n        /* \"contracts/buy_back.sol\":7696:7740  IERC20(paymentToken).transfer(owner, amount) */\n      0x20\n      mload(0x40)\n      dup1\n      dup4\n      sub\n      dup2\n      0x00\n      dup8\n      gas\n      call\n      iszero\n      dup1\n      iszero\n      tag_97\n      jumpi\n      returndatacopy(0x00, 0x00, returndatasize)\n      revert(0x00, returndatasize)\n    tag_97:\n      pop\n      pop\n      pop\n      pop\n      mload(0x40)\n      returndatasize\n      not(0x1f)\n      0x1f\n      dup3\n      add\n      and\n      dup3\n      add\n      dup1\n      0x40\n      mstore\n      pop\n      dup2\n      add\n      swap1\n      tag_98\n      swap2\n      swap1\n      tag_99\n      jump\t// in\n    tag_98:\n        /* \"contracts/buy_back.sol\":7681:7740  bool success = IERC20(paymentToken).transfer(owner, amount) */\n      swap1\n      pop\n        /* \"contracts/buy_back.sol\":7759:7766  success */\n      dup1\n        /* \"contracts/buy_back.sol\":7751:7802  require(success, \"Payment token withdrawal failed\") */\n      tag_100\n      jumpi\n      mload(0x40)\n      shl(0xe5, 0x461bcd)\n      dup2\n      mstore\n        /* \"#utility.yul\":3074:3076   */\n      0x20\n        /* \"contracts/buy_back.sol\":7751:7802  require(success, \"Payment token withdrawal failed\") */\n      0x04\n      dup3\n      add\n        /* \"#utility.yul\":3056:3077   */\n      mstore\n        /* \"#utility.yul\":3113:3115   */\n      0x1f\n        /* \"#utility.yul\":3093:3111   */\n      0x24\n      dup3\n      add\n        /* \"#utility.yul\":3086:3116   */\n      mstore\n        /* \"#utility.yul\":3152:3185   */\n      0x5061796d656e7420746f6b656e207769746864726177616c206661696c656400\n        /* \"#utility.yul\":3132:3150   */\n      0x44\n      dup3\n      add\n        /* \"#utility.yul\":3125:3186   */\n      mstore\n        /* \"#utility.yul\":3203:3221   */\n      0x64\n      add\n        /* \"contracts/buy_back.sol\":7751:7802  require(success, \"Payment token withdrawal failed\") */\n      tag_80\n        /* \"#utility.yul\":2872:3227   */\n      jump\n        /* \"contracts/buy_back.sol\":7751:7802  require(success, \"Payment token withdrawal failed\") */\n    tag_100:\n        /* \"contracts/buy_back.sol\":7458:7810  {... */\n      pop\n      pop\n        /* \"contracts/buy_back.sol\":7393:7810  function withdrawPaymentToken(uint256 amount) external onlyOwner {... */\n      pop\n      jump\t// out\n        /* \"contracts/buy_back.sol\":3948:4015  function unpause() external onlyOwner {... */\n    tag_32:\n        /* \"contracts/buy_back.sol\":3641:3646  owner */\n      sload(0x00)\n      0x0100\n      swap1\n      div\n      sub(shl(0xa0, 0x01), 0x01)\n      and\n        /* \"contracts/buy_back.sol\":3627:3637  msg.sender */\n      caller\n        /* \"contracts/buy_back.sol\":3627:3646  msg.sender == owner */\n      eq\n        /* \"contracts/buy_back.sol\":3619:3665  require(msg.sender == owner, \"Not authorized\") */\n      tag_104\n      jumpi\n      mload(0x40)\n      shl(0xe5, 0x461bcd)\n      dup2\n      mstore\n      0x04\n      add\n      tag_80\n      swap1\n      tag_81\n      jump\t// in\n    tag_104:\n        /* \"contracts/buy_back.sol\":3997:4007  _unpause() */\n      tag_107\n        /* \"contracts/buy_back.sol\":3997:4005  _unpause */\n      tag_108\n        /* \"contracts/buy_back.sol\":3997:4007  _unpause() */\n      jump\t// in\n    tag_107:\n        /* \"contracts/buy_back.sol\":3948:4015  function unpause() external onlyOwner {... */\n      jump\t// out\n        /* \"contracts/buy_back.sol\":4430:4540  function setTargetPrice(uint256 _targetPrice) external onlyOwner {... */\n    tag_43:\n        /* \"contracts/buy_back.sol\":3641:3646  owner */\n      sload(0x00)\n      0x0100\n      swap1\n      div\n      sub(shl(0xa0, 0x01), 0x01)\n      and\n        /* \"contracts/buy_back.sol\":3627:3637  msg.sender */\n      caller\n        /* \"contracts/buy_back.sol\":3627:3646  msg.sender == owner */\n      eq\n        /* \"contracts/buy_back.sol\":3619:3665  require(msg.sender == owner, \"Not authorized\") */\n      tag_111\n      jumpi\n      mload(0x40)\n      shl(0xe5, 0x461bcd)\n      dup2\n      mstore\n      0x04\n      add\n      tag_80\n      swap1\n      tag_81\n      jump\t// in\n    tag_111:\n        /* \"contracts/buy_back.sol\":4506:4517  targetPrice */\n      0x04\n        /* \"contracts/buy_back.sol\":4506:4532  targetPrice = _targetPrice */\n      sstore\n        /* \"contracts/buy_back.sol\":4430:4540  function setTargetPrice(uint256 _targetPrice) external onlyOwner {... */\n      jump\t// out\n        /* \"contracts/buy_back.sol\":5204:6684  function buyback(uint256 roboMoneyAmount) external whenNotPaused {... */\n    tag_46:\n        /* \"contracts/buy_back.sol\":646:650  bool */\n      0x00\n        /* \"contracts/buy_back.sol\":670:677  _paused */\n      sload\n      0xff\n      and\n        /* \"contracts/buy_back.sol\":737:746  !paused() */\n      iszero\n        /* \"contracts/buy_back.sol\":729:767  require(!paused(), \"Pausable: paused\") */\n      tag_116\n      jumpi\n      mload(0x40)\n      shl(0xe5, 0x461bcd)\n      dup2\n      mstore\n      0x04\n      add\n      tag_80\n      swap1\n      tag_118\n      jump\t// in\n    tag_116:\n        /* \"contracts/buy_back.sol\":5306:5307  0 */\n      0x00\n        /* \"contracts/buy_back.sol\":5288:5303  roboMoneyAmount */\n      dup2\n        /* \"contracts/buy_back.sol\":5288:5307  roboMoneyAmount > 0 */\n      gt\n        /* \"contracts/buy_back.sol\":5280:5334  require(roboMoneyAmount > 0, \"Must deposit RoboMoney\") */\n      tag_120\n      jumpi\n      mload(0x40)\n      shl(0xe5, 0x461bcd)\n      dup2\n      mstore\n        /* \"#utility.yul\":3779:3781   */\n      0x20\n        /* \"contracts/buy_back.sol\":5280:5334  require(roboMoneyAmount > 0, \"Must deposit RoboMoney\") */\n      0x04\n      dup3\n      add\n        /* \"#utility.yul\":3761:3782   */\n      mstore\n        /* \"#utility.yul\":3818:3820   */\n      0x16\n        /* \"#utility.yul\":3798:3816   */\n      0x24\n      dup3\n      add\n        /* \"#utility.yul\":3791:3821   */\n      mstore\n      shl(0x50, 0x4d757374206465706f73697420526f626f4d6f6e6579)\n        /* \"#utility.yul\":3837:3855   */\n      0x44\n      dup3\n      add\n        /* \"#utility.yul\":3830:3882   */\n      mstore\n        /* \"#utility.yul\":3899:3917   */\n      0x64\n      add\n        /* \"contracts/buy_back.sol\":5280:5334  require(roboMoneyAmount > 0, \"Must deposit RoboMoney\") */\n      tag_80\n        /* \"#utility.yul\":3577:3923   */\n      jump\n        /* \"contracts/buy_back.sol\":5280:5334  require(roboMoneyAmount > 0, \"Must deposit RoboMoney\") */\n    tag_120:\n        /* \"contracts/buy_back.sol\":5418:5427  roboMoney */\n      sload(0x02)\n        /* \"contracts/buy_back.sol\":5407:5465  IRoboMoney(roboMoney).allowance(msg.sender, address(this)) */\n      mload(0x40)\n      shl(0xe1, 0x6eb1769f)\n      dup2\n      mstore\n        /* \"contracts/buy_back.sol\":5439:5449  msg.sender */\n      caller\n        /* \"contracts/buy_back.sol\":5407:5465  IRoboMoney(roboMoney).allowance(msg.sender, address(this)) */\n      0x04\n      dup3\n      add\n        /* \"#utility.yul\":4102:4153   */\n      mstore\n        /* \"contracts/buy_back.sol\":5459:5463  this */\n      address\n        /* \"#utility.yul\":4169:4187   */\n      0x24\n      dup3\n      add\n        /* \"#utility.yul\":4162:4222   */\n      mstore\n        /* \"contracts/buy_back.sol\":5389:5404  uint256 allowed */\n      0x00\n      swap2\n      sub(shl(0xa0, 0x01), 0x01)\n        /* \"contracts/buy_back.sol\":5418:5427  roboMoney */\n      and\n      swap1\n        /* \"contracts/buy_back.sol\":5407:5438  IRoboMoney(roboMoney).allowance */\n      0xdd62ed3e\n      swap1\n        /* \"#utility.yul\":4075:4093   */\n      0x44\n      add\n        /* \"contracts/buy_back.sol\":5407:5465  IRoboMoney(roboMoney).allowance(msg.sender, address(this)) */\n      0x20\n      mload(0x40)\n      dup1\n      dup4\n      sub\n      dup2\n      dup7\n      gas\n      staticcall\n      iszero\n      dup1\n      iszero\n      tag_126\n      jumpi\n      returndatacopy(0x00, 0x00, returndatasize)\n      revert(0x00, returndatasize)\n    tag_126:\n      pop\n      pop\n      pop\n      pop\n      mload(0x40)\n      returndatasize\n      not(0x1f)\n      0x1f\n      dup3\n      add\n      and\n      dup3\n      add\n      dup1\n      0x40\n      mstore\n      pop\n      dup2\n      add\n      swap1\n      tag_127\n      swap2\n      swap1\n      tag_90\n      jump\t// in\n    tag_127:\n        /* \"contracts/buy_back.sol\":5389:5465  uint256 allowed = IRoboMoney(roboMoney).allowance(msg.sender, address(this)) */\n      swap1\n      pop\n        /* \"contracts/buy_back.sol\":5495:5510  roboMoneyAmount */\n      dup2\n        /* \"contracts/buy_back.sol\":5484:5491  allowed */\n      dup2\n        /* \"contracts/buy_back.sol\":5484:5510  allowed >= roboMoneyAmount */\n      lt\n      iszero\n        /* \"contracts/buy_back.sol\":5476:5547  require(allowed >= roboMoneyAmount, \"Insufficient RoboMoney allowance\") */\n      tag_128\n      jumpi\n      mload(0x40)\n      shl(0xe5, 0x461bcd)\n      dup2\n      mstore\n        /* \"#utility.yul\":4435:4437   */\n      0x20\n        /* \"contracts/buy_back.sol\":5476:5547  require(allowed >= roboMoneyAmount, \"Insufficient RoboMoney allowance\") */\n      0x04\n      dup3\n      add\n        /* \"#utility.yul\":4417:4438   */\n      dup2\n      swap1\n      mstore\n        /* \"#utility.yul\":4454:4472   */\n      0x24\n      dup3\n      add\n        /* \"#utility.yul\":4447:4477   */\n      mstore\n        /* \"#utility.yul\":4513:4547   */\n      0x496e73756666696369656e7420526f626f4d6f6e657920616c6c6f77616e6365\n        /* \"#utility.yul\":4493:4511   */\n      0x44\n      dup3\n      add\n        /* \"#utility.yul\":4486:4548   */\n      mstore\n        /* \"#utility.yul\":4565:4583   */\n      0x64\n      add\n        /* \"contracts/buy_back.sol\":5476:5547  require(allowed >= roboMoneyAmount, \"Insufficient RoboMoney allowance\") */\n      tag_80\n        /* \"#utility.yul\":4233:4589   */\n      jump\n        /* \"contracts/buy_back.sol\":5476:5547  require(allowed >= roboMoneyAmount, \"Insufficient RoboMoney allowance\") */\n    tag_128:\n        /* \"contracts/buy_back.sol\":5643:5652  roboMoney */\n      sload(0x02)\n        /* \"contracts/buy_back.sol\":5632:5710  IRoboMoney(roboMoney).transferFrom(msg.sender, address(this), roboMoneyAmount) */\n      mload(0x40)\n      shl(0xe0, 0x23b872dd)\n      dup2\n      mstore\n        /* \"contracts/buy_back.sol\":5667:5677  msg.sender */\n      caller\n        /* \"contracts/buy_back.sol\":5632:5710  IRoboMoney(roboMoney).transferFrom(msg.sender, address(this), roboMoneyAmount) */\n      0x04\n      dup3\n      add\n        /* \"#utility.yul\":4796:4847   */\n      mstore\n        /* \"contracts/buy_back.sol\":5687:5691  this */\n      address\n        /* \"#utility.yul\":4863:4881   */\n      0x24\n      dup3\n      add\n        /* \"#utility.yul\":4856:4916   */\n      mstore\n        /* \"#utility.yul\":4932:4950   */\n      0x44\n      dup2\n      add\n        /* \"#utility.yul\":4925:4959   */\n      dup5\n      swap1\n      mstore\n        /* \"contracts/buy_back.sol\":5613:5629  bool transferred */\n      0x00\n      swap2\n      sub(shl(0xa0, 0x01), 0x01)\n        /* \"contracts/buy_back.sol\":5643:5652  roboMoney */\n      and\n      swap1\n        /* \"contracts/buy_back.sol\":5632:5666  IRoboMoney(roboMoney).transferFrom */\n      0x23b872dd\n      swap1\n        /* \"#utility.yul\":4769:4787   */\n      0x64\n      add\n        /* \"contracts/buy_back.sol\":5632:5710  IRoboMoney(roboMoney).transferFrom(msg.sender, address(this), roboMoneyAmount) */\n      0x20\n      mload(0x40)\n      dup1\n      dup4\n      sub\n      dup2\n      0x00\n      dup8\n      gas\n      call\n      iszero\n      dup1\n      iszero\n      tag_134\n      jumpi\n      returndatacopy(0x00, 0x00, returndatasize)\n      revert(0x00, returndatasize)\n    tag_134:\n      pop\n      pop\n      pop\n      pop\n      mload(0x40)\n      returndatasize\n      not(0x1f)\n      0x1f\n      dup3\n      add\n      and\n      dup3\n      add\n      dup1\n      0x40\n      mstore\n      pop\n      dup2\n      add\n      swap1\n      tag_135\n      swap2\n      swap1\n      tag_99\n      jump\t// in\n    tag_135:\n        /* \"contracts/buy_back.sol\":5613:5710  bool transferred = IRoboMoney(roboMoney).transferFrom(msg.sender, address(this), roboMoneyAmount) */\n      swap1\n      pop\n        /* \"contracts/buy_back.sol\":5729:5740  transferred */\n      dup1\n        /* \"contracts/buy_back.sol\":5721:5770  require(transferred, \"RoboMoney transfer failed\") */\n      tag_136\n      jumpi\n      mload(0x40)\n      shl(0xe5, 0x461bcd)\n      dup2\n      mstore\n        /* \"#utility.yul\":5172:5174   */\n      0x20\n        /* \"contracts/buy_back.sol\":5721:5770  require(transferred, \"RoboMoney transfer failed\") */\n      0x04\n      dup3\n      add\n        /* \"#utility.yul\":5154:5175   */\n      mstore\n        /* \"#utility.yul\":5211:5213   */\n      0x19\n        /* \"#utility.yul\":5191:5209   */\n      0x24\n      dup3\n      add\n        /* \"#utility.yul\":5184:5214   */\n      mstore\n        /* \"#utility.yul\":5250:5277   */\n      0x526f626f4d6f6e6579207472616e73666572206661696c656400000000000000\n        /* \"#utility.yul\":5230:5248   */\n      0x44\n      dup3\n      add\n        /* \"#utility.yul\":5223:5278   */\n      mstore\n        /* \"#utility.yul\":5295:5313   */\n      0x64\n      add\n        /* \"contracts/buy_back.sol\":5721:5770  require(transferred, \"RoboMoney transfer failed\") */\n      tag_80\n        /* \"#utility.yul\":4970:5319   */\n      jump\n        /* \"contracts/buy_back.sol\":5721:5770  require(transferred, \"RoboMoney transfer failed\") */\n    tag_136:\n        /* \"contracts/buy_back.sol\":5921:5941  uint256 premiumPrice */\n      0x00\n        /* \"contracts/buy_back.sol\":5982:5985  100 */\n      0x64\n        /* \"contracts/buy_back.sol\":5966:5977  premiumRate */\n      sload(0x03)\n        /* \"contracts/buy_back.sol\":5960:5963  100 */\n      0x64\n        /* \"contracts/buy_back.sol\":5960:5977  100 + premiumRate */\n      tag_139\n      swap2\n      swap1\n      tag_140\n      jump\t// in\n    tag_139:\n        /* \"contracts/buy_back.sol\":5945:5956  targetPrice */\n      sload(0x04)\n        /* \"contracts/buy_back.sol\":5945:5978  targetPrice * (100 + premiumRate) */\n      tag_141\n      swap2\n      swap1\n      tag_142\n      jump\t// in\n    tag_141:\n        /* \"contracts/buy_back.sol\":5944:5985  (targetPrice * (100 + premiumRate)) / 100 */\n      tag_143\n      swap2\n      swap1\n      tag_144\n      jump\t// in\n    tag_143:\n        /* \"contracts/buy_back.sol\":5921:5985  uint256 premiumPrice = (targetPrice * (100 + premiumRate)) / 100 */\n      swap1\n      pop\n        /* \"contracts/buy_back.sol\":5996:6015  uint256 tokenAmount */\n      0x00\n        /* \"contracts/buy_back.sol\":6053:6057  1e18 */\n      0x0de0b6b3a7640000\n        /* \"contracts/buy_back.sol\":6019:6049  roboMoneyAmount * premiumPrice */\n      tag_145\n        /* \"contracts/buy_back.sol\":5921:5985  uint256 premiumPrice = (targetPrice * (100 + premiumRate)) / 100 */\n      dup4\n        /* \"contracts/buy_back.sol\":6019:6034  roboMoneyAmount */\n      dup8\n        /* \"contracts/buy_back.sol\":6019:6049  roboMoneyAmount * premiumPrice */\n      tag_142\n      jump\t// in\n    tag_145:\n        /* \"contracts/buy_back.sol\":6018:6057  (roboMoneyAmount * premiumPrice) / 1e18 */\n      tag_146\n      swap2\n      swap1\n      tag_144\n      jump\t// in\n    tag_146:\n        /* \"contracts/buy_back.sol\":6158:6170  paymentToken */\n      sload(0x01)\n        /* \"contracts/buy_back.sol\":6151:6196  IERC20(paymentToken).balanceOf(address(this)) */\n      mload(0x40)\n      shl(0xe0, 0x70a08231)\n      dup2\n      mstore\n        /* \"contracts/buy_back.sol\":6190:6194  this */\n      address\n        /* \"contracts/buy_back.sol\":6151:6196  IERC20(paymentToken).balanceOf(address(this)) */\n      0x04\n      dup3\n      add\n        /* \"#utility.yul\":345:396   */\n      mstore\n        /* \"contracts/buy_back.sol\":5996:6057  uint256 tokenAmount = (roboMoneyAmount * premiumPrice) / 1e18 */\n      swap2\n      swap3\n      pop\n        /* \"contracts/buy_back.sol\":6126:6148  uint256 currentBalance */\n      0x00\n      swap2\n      sub(shl(0xa0, 0x01), 0x01)\n        /* \"contracts/buy_back.sol\":6158:6170  paymentToken */\n      swap1\n      swap2\n      and\n      swap1\n        /* \"contracts/buy_back.sol\":6151:6181  IERC20(paymentToken).balanceOf */\n      0x70a08231\n      swap1\n        /* \"#utility.yul\":318:336   */\n      0x24\n      add\n        /* \"contracts/buy_back.sol\":6151:6196  IERC20(paymentToken).balanceOf(address(this)) */\n      0x20\n      mload(0x40)\n      dup1\n      dup4\n      sub\n      dup2\n      dup7\n      gas\n      staticcall\n      iszero\n      dup1\n      iszero\n      tag_149\n      jumpi\n      returndatacopy(0x00, 0x00, returndatasize)\n      revert(0x00, returndatasize)\n    tag_149:\n      pop\n      pop\n      pop\n      pop\n      mload(0x40)\n      returndatasize\n      not(0x1f)\n      0x1f\n      dup3\n      add\n      and\n      dup3\n      add\n      dup1\n      0x40\n      mstore\n      pop\n      dup2\n      add\n      swap1\n      tag_150\n      swap2\n      swap1\n      tag_90\n      jump\t// in\n    tag_150:\n        /* \"contracts/buy_back.sol\":6126:6196  uint256 currentBalance = IERC20(paymentToken).balanceOf(address(this)) */\n      swap1\n      pop\n        /* \"contracts/buy_back.sol\":6233:6244  tokenAmount */\n      dup2\n        /* \"contracts/buy_back.sol\":6215:6229  currentBalance */\n      dup2\n        /* \"contracts/buy_back.sol\":6215:6244  currentBalance >= tokenAmount */\n      lt\n      iszero\n        /* \"contracts/buy_back.sol\":6207:6284  require(currentBalance >= tokenAmount, \"Not enough paymentToken in contract\") */\n      tag_151\n      jumpi\n      mload(0x40)\n      shl(0xe5, 0x461bcd)\n      dup2\n      mstore\n        /* \"#utility.yul\":6183:6185   */\n      0x20\n        /* \"contracts/buy_back.sol\":6207:6284  require(currentBalance >= tokenAmount, \"Not enough paymentToken in contract\") */\n      0x04\n      dup3\n      add\n        /* \"#utility.yul\":6165:6186   */\n      mstore\n        /* \"#utility.yul\":6222:6224   */\n      0x23\n        /* \"#utility.yul\":6202:6220   */\n      0x24\n      dup3\n      add\n        /* \"#utility.yul\":6195:6225   */\n      mstore\n        /* \"#utility.yul\":6261:6295   */\n      0x4e6f7420656e6f756768207061796d656e74546f6b656e20696e20636f6e7472\n        /* \"#utility.yul\":6241:6259   */\n      0x44\n      dup3\n      add\n        /* \"#utility.yul\":6234:6296   */\n      mstore\n      shl(0xea, 0x1858dd)\n        /* \"#utility.yul\":6312:6330   */\n      0x64\n      dup3\n      add\n        /* \"#utility.yul\":6305:6338   */\n      mstore\n        /* \"#utility.yul\":6355:6374   */\n      0x84\n      add\n        /* \"contracts/buy_back.sol\":6207:6284  require(currentBalance >= tokenAmount, \"Not enough paymentToken in contract\") */\n      tag_80\n        /* \"#utility.yul\":5981:6380   */\n      jump\n        /* \"contracts/buy_back.sol\":6207:6284  require(currentBalance >= tokenAmount, \"Not enough paymentToken in contract\") */\n    tag_151:\n        /* \"contracts/buy_back.sol\":6367:6379  paymentToken */\n      sload(0x01)\n        /* \"contracts/buy_back.sol\":6360:6414  IERC20(paymentToken).transfer(msg.sender, tokenAmount) */\n      mload(0x40)\n      shl(0xe0, 0xa9059cbb)\n      dup2\n      mstore\n        /* \"contracts/buy_back.sol\":6390:6400  msg.sender */\n      caller\n        /* \"contracts/buy_back.sol\":6360:6414  IERC20(paymentToken).transfer(msg.sender, tokenAmount) */\n      0x04\n      dup3\n      add\n        /* \"#utility.yul\":2485:2536   */\n      mstore\n        /* \"#utility.yul\":2552:2570   */\n      0x24\n      dup2\n      add\n        /* \"#utility.yul\":2545:2579   */\n      dup5\n      swap1\n      mstore\n        /* \"contracts/buy_back.sol\":6343:6357  bool tokenSent */\n      0x00\n      swap2\n      sub(shl(0xa0, 0x01), 0x01)\n        /* \"contracts/buy_back.sol\":6367:6379  paymentToken */\n      and\n      swap1\n        /* \"contracts/buy_back.sol\":6360:6389  IERC20(paymentToken).transfer */\n      0xa9059cbb\n      swap1\n        /* \"#utility.yul\":2458:2476   */\n      0x44\n      add\n        /* \"contracts/buy_back.sol\":6360:6414  IERC20(paymentToken).transfer(msg.sender, tokenAmount) */\n      0x20\n      mload(0x40)\n      dup1\n      dup4\n      sub\n      dup2\n      0x00\n      dup8\n      gas\n      call\n      iszero\n      dup1\n      iszero\n      tag_156\n      jumpi\n      returndatacopy(0x00, 0x00, returndatasize)\n      revert(0x00, returndatasize)\n    tag_156:\n      pop\n      pop\n      pop\n      pop\n      mload(0x40)\n      returndatasize\n      not(0x1f)\n      0x1f\n      dup3\n      add\n      and\n      dup3\n      add\n      dup1\n      0x40\n      mstore\n      pop\n      dup2\n      add\n      swap1\n      tag_157\n      swap2\n      swap1\n      tag_99\n      jump\t// in\n    tag_157:\n        /* \"contracts/buy_back.sol\":6343:6414  bool tokenSent = IERC20(paymentToken).transfer(msg.sender, tokenAmount) */\n      swap1\n      pop\n        /* \"contracts/buy_back.sol\":6433:6442  tokenSent */\n      dup1\n        /* \"contracts/buy_back.sol\":6425:6476  require(tokenSent, \"Payment token transfer failed\") */\n      tag_158\n      jumpi\n      mload(0x40)\n      shl(0xe5, 0x461bcd)\n      dup2\n      mstore\n        /* \"#utility.yul\":6587:6589   */\n      0x20\n        /* \"contracts/buy_back.sol\":6425:6476  require(tokenSent, \"Payment token transfer failed\") */\n      0x04\n      dup3\n      add\n        /* \"#utility.yul\":6569:6590   */\n      mstore\n        /* \"#utility.yul\":6626:6628   */\n      0x1d\n        /* \"#utility.yul\":6606:6624   */\n      0x24\n      dup3\n      add\n        /* \"#utility.yul\":6599:6629   */\n      mstore\n        /* \"#utility.yul\":6665:6696   */\n      0x5061796d656e7420746f6b656e207472616e73666572206661696c6564000000\n        /* \"#utility.yul\":6645:6663   */\n      0x44\n      dup3\n      add\n        /* \"#utility.yul\":6638:6697   */\n      mstore\n        /* \"#utility.yul\":6714:6732   */\n      0x64\n      add\n        /* \"contracts/buy_back.sol\":6425:6476  require(tokenSent, \"Payment token transfer failed\") */\n      tag_80\n        /* \"#utility.yul\":6385:6738   */\n      jump\n        /* \"contracts/buy_back.sol\":6425:6476  require(tokenSent, \"Payment token transfer failed\") */\n    tag_158:\n        /* \"contracts/buy_back.sol\":6554:6563  roboMoney */\n      sload(0x02)\n        /* \"contracts/buy_back.sol\":6543:6601  IRoboMoney(roboMoney).burn(address(this), roboMoneyAmount) */\n      mload(0x40)\n      shl(0xe2, 0x2770a7eb)\n      dup2\n      mstore\n        /* \"contracts/buy_back.sol\":6578:6582  this */\n      address\n        /* \"contracts/buy_back.sol\":6543:6601  IRoboMoney(roboMoney).burn(address(this), roboMoneyAmount) */\n      0x04\n      dup3\n      add\n        /* \"#utility.yul\":2485:2536   */\n      mstore\n        /* \"#utility.yul\":2552:2570   */\n      0x24\n      dup2\n      add\n        /* \"#utility.yul\":2545:2579   */\n      dup10\n      swap1\n      mstore\n      sub(shl(0xa0, 0x01), 0x01)\n        /* \"contracts/buy_back.sol\":6554:6563  roboMoney */\n      swap1\n      swap2\n      and\n      swap1\n        /* \"contracts/buy_back.sol\":6543:6569  IRoboMoney(roboMoney).burn */\n      0x9dc29fac\n      swap1\n        /* \"#utility.yul\":2458:2476   */\n      0x44\n      add\n        /* \"contracts/buy_back.sol\":6543:6601  IRoboMoney(roboMoney).burn(address(this), roboMoneyAmount) */\n      0x00\n      mload(0x40)\n      dup1\n      dup4\n      sub\n      dup2\n      0x00\n      dup8\n      dup1\n      extcodesize\n      iszero\n      dup1\n      iszero\n      tag_162\n      jumpi\n      revert(0x00, 0x00)\n    tag_162:\n      pop\n      gas\n      call\n      iszero\n      dup1\n      iszero\n      tag_164\n      jumpi\n      returndatacopy(0x00, 0x00, returndatasize)\n      revert(0x00, returndatasize)\n    tag_164:\n      pop\n      pop\n        /* \"contracts/buy_back.sol\":6619:6676  BuyBackExecuted(msg.sender, roboMoneyAmount, tokenAmount) */\n      0x40\n      dup1\n      mload\n        /* \"#utility.yul\":6917:6942   */\n      dup11\n      dup2\n      mstore\n        /* \"#utility.yul\":6973:6975   */\n      0x20\n        /* \"#utility.yul\":6958:6976   */\n      dup2\n      add\n        /* \"#utility.yul\":6951:6985   */\n      dup8\n      swap1\n      mstore\n        /* \"contracts/buy_back.sol\":6635:6645  msg.sender */\n      caller\n      swap4\n      pop\n        /* \"contracts/buy_back.sol\":6619:6676  BuyBackExecuted(msg.sender, roboMoneyAmount, tokenAmount) */\n      0xcb7f55d0b91628d4520b789339dae4803ab07182ea89d138acbd965dac51dc65\n      swap3\n      pop\n        /* \"#utility.yul\":6890:6908   */\n      add\n        /* \"contracts/buy_back.sol\":6619:6676  BuyBackExecuted(msg.sender, roboMoneyAmount, tokenAmount) */\n      mload(0x40)\n      dup1\n      swap2\n      sub\n      swap1\n      log2\n        /* \"contracts/buy_back.sol\":5269:6684  {... */\n      pop\n      pop\n      pop\n      pop\n      pop\n      pop\n        /* \"contracts/buy_back.sol\":5204:6684  function buyback(uint256 roboMoneyAmount) external whenNotPaused {... */\n      pop\n      jump\t// out\n        /* \"contracts/buy_back.sol\":4107:4332  function setPremiumRate(uint256 _premiumRate) external onlyOwner {... */\n    tag_52:\n        /* \"contracts/buy_back.sol\":3641:3646  owner */\n      sload(0x00)\n      0x0100\n      swap1\n      div\n      sub(shl(0xa0, 0x01), 0x01)\n      and\n        /* \"contracts/buy_back.sol\":3627:3637  msg.sender */\n      caller\n        /* \"contracts/buy_back.sol\":3627:3646  msg.sender == owner */\n      eq\n        /* \"contracts/buy_back.sol\":3619:3665  require(msg.sender == owner, \"Not authorized\") */\n      tag_168\n      jumpi\n      mload(0x40)\n      shl(0xe5, 0x461bcd)\n      dup2\n      mstore\n      0x04\n      add\n      tag_80\n      swap1\n      tag_81\n      jump\t// in\n    tag_168:\n        /* \"contracts/buy_back.sol\":4259:4262  100 */\n      0x64\n        /* \"contracts/buy_back.sol\":4243:4255  _premiumRate */\n      dup2\n        /* \"contracts/buy_back.sol\":4243:4262  _premiumRate <= 100 */\n      gt\n      iszero\n        /* \"contracts/buy_back.sol\":4235:4287  require(_premiumRate <= 100, \"Invalid premium rate\") */\n      tag_171\n      jumpi\n      mload(0x40)\n      shl(0xe5, 0x461bcd)\n      dup2\n      mstore\n        /* \"#utility.yul\":7198:7200   */\n      0x20\n        /* \"contracts/buy_back.sol\":4235:4287  require(_premiumRate <= 100, \"Invalid premium rate\") */\n      0x04\n      dup3\n      add\n        /* \"#utility.yul\":7180:7201   */\n      mstore\n        /* \"#utility.yul\":7237:7239   */\n      0x14\n        /* \"#utility.yul\":7217:7235   */\n      0x24\n      dup3\n      add\n        /* \"#utility.yul\":7210:7240   */\n      mstore\n      shl(0x60, 0x496e76616c6964207072656d69756d2072617465)\n        /* \"#utility.yul\":7256:7274   */\n      0x44\n      dup3\n      add\n        /* \"#utility.yul\":7249:7299   */\n      mstore\n        /* \"#utility.yul\":7316:7334   */\n      0x64\n      add\n        /* \"contracts/buy_back.sol\":4235:4287  require(_premiumRate <= 100, \"Invalid premium rate\") */\n      tag_80\n        /* \"#utility.yul\":6996:7340   */\n      jump\n        /* \"contracts/buy_back.sol\":4235:4287  require(_premiumRate <= 100, \"Invalid premium rate\") */\n    tag_171:\n        /* \"contracts/buy_back.sol\":4298:4309  premiumRate */\n      0x03\n        /* \"contracts/buy_back.sol\":4298:4324  premiumRate = _premiumRate */\n      sstore\n        /* \"contracts/buy_back.sol\":4107:4332  function setPremiumRate(uint256 _premiumRate) external onlyOwner {... */\n      jump\t// out\n        /* \"contracts/buy_back.sol\":8820:9186  function canExecuteBuyback(uint256 roboMoneyAmount) external view returns (bool) {... */\n    tag_55:\n        /* \"contracts/buy_back.sol\":8895:8899  bool */\n      0x00\n        /* \"contracts/buy_back.sol\":8912:8932  uint256 premiumPrice */\n      0x00\n        /* \"contracts/buy_back.sol\":8973:8976  100 */\n      0x64\n        /* \"contracts/buy_back.sol\":8957:8968  premiumRate */\n      sload(0x03)\n        /* \"contracts/buy_back.sol\":8951:8954  100 */\n      0x64\n        /* \"contracts/buy_back.sol\":8951:8968  100 + premiumRate */\n      tag_175\n      swap2\n      swap1\n      tag_140\n      jump\t// in\n    tag_175:\n        /* \"contracts/buy_back.sol\":8936:8947  targetPrice */\n      sload(0x04)\n        /* \"contracts/buy_back.sol\":8936:8969  targetPrice * (100 + premiumRate) */\n      tag_176\n      swap2\n      swap1\n      tag_142\n      jump\t// in\n    tag_176:\n        /* \"contracts/buy_back.sol\":8935:8976  (targetPrice * (100 + premiumRate)) / 100 */\n      tag_177\n      swap2\n      swap1\n      tag_144\n      jump\t// in\n    tag_177:\n        /* \"contracts/buy_back.sol\":8912:8976  uint256 premiumPrice = (targetPrice * (100 + premiumRate)) / 100 */\n      swap1\n      pop\n        /* \"contracts/buy_back.sol\":8987:9006  uint256 tokenAmount */\n      0x00\n        /* \"contracts/buy_back.sol\":9044:9048  1e18 */\n      0x0de0b6b3a7640000\n        /* \"contracts/buy_back.sol\":9010:9040  roboMoneyAmount * premiumPrice */\n      tag_178\n        /* \"contracts/buy_back.sol\":8912:8976  uint256 premiumPrice = (targetPrice * (100 + premiumRate)) / 100 */\n      dup4\n        /* \"contracts/buy_back.sol\":9010:9025  roboMoneyAmount */\n      dup7\n        /* \"contracts/buy_back.sol\":9010:9040  roboMoneyAmount * premiumPrice */\n      tag_142\n      jump\t// in\n    tag_178:\n        /* \"contracts/buy_back.sol\":9009:9048  (roboMoneyAmount * premiumPrice) / 1e18 */\n      tag_179\n      swap2\n      swap1\n      tag_144\n      jump\t// in\n    tag_179:\n        /* \"contracts/buy_back.sol\":9091:9103  paymentToken */\n      sload(0x01)\n        /* \"contracts/buy_back.sol\":9084:9129  IERC20(paymentToken).balanceOf(address(this)) */\n      mload(0x40)\n      shl(0xe0, 0x70a08231)\n      dup2\n      mstore\n        /* \"contracts/buy_back.sol\":9123:9127  this */\n      address\n        /* \"contracts/buy_back.sol\":9084:9129  IERC20(paymentToken).balanceOf(address(this)) */\n      0x04\n      dup3\n      add\n        /* \"#utility.yul\":345:396   */\n      mstore\n        /* \"contracts/buy_back.sol\":8987:9048  uint256 tokenAmount = (roboMoneyAmount * premiumPrice) / 1e18 */\n      swap2\n      swap3\n      pop\n        /* \"contracts/buy_back.sol\":9059:9081  uint256 currentBalance */\n      0x00\n      swap2\n      sub(shl(0xa0, 0x01), 0x01)\n        /* \"contracts/buy_back.sol\":9091:9103  paymentToken */\n      swap1\n      swap2\n      and\n      swap1\n        /* \"contracts/buy_back.sol\":9084:9114  IERC20(paymentToken).balanceOf */\n      0x70a08231\n      swap1\n        /* \"#utility.yul\":318:336   */\n      0x24\n      add\n        /* \"contracts/buy_back.sol\":9084:9129  IERC20(paymentToken).balanceOf(address(this)) */\n      0x20\n      mload(0x40)\n      dup1\n      dup4\n      sub\n      dup2\n      dup7\n      gas\n      staticcall\n      iszero\n      dup1\n      iszero\n      tag_182\n      jumpi\n      returndatacopy(0x00, 0x00, returndatasize)\n      revert(0x00, returndatasize)\n    tag_182:\n      pop\n      pop\n      pop\n      pop\n      mload(0x40)\n      returndatasize\n      not(0x1f)\n      0x1f\n      dup3\n      add\n      and\n      dup3\n      add\n      dup1\n      0x40\n      mstore\n      pop\n      dup2\n      add\n      swap1\n      tag_183\n      swap2\n      swap1\n      tag_90\n      jump\t// in\n    tag_183:\n        /* \"contracts/buy_back.sol\":9148:9177  currentBalance >= tokenAmount */\n      swap2\n      swap1\n      swap2\n      lt\n      iszero\n      swap5\n        /* \"contracts/buy_back.sol\":8820:9186  function canExecuteBuyback(uint256 roboMoneyAmount) external view returns (bool) {... */\n      swap4\n      pop\n      pop\n      pop\n      pop\n      jump\t// out\n        /* \"contracts/buy_back.sol\":3783:3846  function pause() external onlyOwner {... */\n    tag_58:\n        /* \"contracts/buy_back.sol\":3641:3646  owner */\n      sload(0x00)\n      0x0100\n      swap1\n      div\n      sub(shl(0xa0, 0x01), 0x01)\n      and\n        /* \"contracts/buy_back.sol\":3627:3637  msg.sender */\n      caller\n        /* \"contracts/buy_back.sol\":3627:3646  msg.sender == owner */\n      eq\n        /* \"contracts/buy_back.sol\":3619:3665  require(msg.sender == owner, \"Not authorized\") */\n      tag_185\n      jumpi\n      mload(0x40)\n      shl(0xe5, 0x461bcd)\n      dup2\n      mstore\n      0x04\n      add\n      tag_80\n      swap1\n      tag_81\n      jump\t// in\n    tag_185:\n        /* \"contracts/buy_back.sol\":3830:3838  _pause() */\n      tag_107\n        /* \"contracts/buy_back.sol\":3830:3836  _pause */\n      tag_189\n        /* \"contracts/buy_back.sol\":3830:3838  _pause() */\n      jump\t// in\n        /* \"contracts/buy_back.sol\":6880:7172  function depositPaymentToken(uint256 amount) external onlyOwner whenNotPaused {... */\n    tag_64:\n        /* \"contracts/buy_back.sol\":3641:3646  owner */\n      sload(0x00)\n      0x0100\n      swap1\n      div\n      sub(shl(0xa0, 0x01), 0x01)\n      and\n        /* \"contracts/buy_back.sol\":3627:3637  msg.sender */\n      caller\n        /* \"contracts/buy_back.sol\":3627:3646  msg.sender == owner */\n      eq\n        /* \"contracts/buy_back.sol\":3619:3665  require(msg.sender == owner, \"Not authorized\") */\n      tag_191\n      jumpi\n      mload(0x40)\n      shl(0xe5, 0x461bcd)\n      dup2\n      mstore\n      0x04\n      add\n      tag_80\n      swap1\n      tag_81\n      jump\t// in\n    tag_191:\n        /* \"contracts/buy_back.sol\":646:650  bool */\n      0x00\n        /* \"contracts/buy_back.sol\":670:677  _paused */\n      sload\n      0xff\n      and\n        /* \"contracts/buy_back.sol\":737:746  !paused() */\n      iszero\n        /* \"contracts/buy_back.sol\":729:767  require(!paused(), \"Pausable: paused\") */\n      tag_195\n      jumpi\n      mload(0x40)\n      shl(0xe5, 0x461bcd)\n      dup2\n      mstore\n      0x04\n      add\n      tag_80\n      swap1\n      tag_118\n      jump\t// in\n    tag_195:\n        /* \"contracts/buy_back.sol\":6986:6987  0 */\n      0x00\n        /* \"contracts/buy_back.sol\":6977:6983  amount */\n      dup2\n        /* \"contracts/buy_back.sol\":6977:6987  amount > 0 */\n      gt\n        /* \"contracts/buy_back.sol\":6969:7011  require(amount > 0, \"Deposit must be > 0\") */\n      tag_198\n      jumpi\n      mload(0x40)\n      shl(0xe5, 0x461bcd)\n      dup2\n      mstore\n        /* \"#utility.yul\":7547:7549   */\n      0x20\n        /* \"contracts/buy_back.sol\":6969:7011  require(amount > 0, \"Deposit must be > 0\") */\n      0x04\n      dup3\n      add\n        /* \"#utility.yul\":7529:7550   */\n      mstore\n        /* \"#utility.yul\":7586:7588   */\n      0x13\n        /* \"#utility.yul\":7566:7584   */\n      0x24\n      dup3\n      add\n        /* \"#utility.yul\":7559:7589   */\n      mstore\n      shl(0x6c, 0x04465706f736974206d757374206265203e203)\n        /* \"#utility.yul\":7605:7623   */\n      0x44\n      dup3\n      add\n        /* \"#utility.yul\":7598:7647   */\n      mstore\n        /* \"#utility.yul\":7664:7682   */\n      0x64\n      add\n        /* \"contracts/buy_back.sol\":6969:7011  require(amount > 0, \"Deposit must be > 0\") */\n      tag_80\n        /* \"#utility.yul\":7345:7688   */\n      jump\n        /* \"contracts/buy_back.sol\":6969:7011  require(amount > 0, \"Deposit must be > 0\") */\n    tag_198:\n        /* \"contracts/buy_back.sol\":7044:7056  paymentToken */\n      sload(0x01)\n        /* \"contracts/buy_back.sol\":7037:7105  IERC20(paymentToken).transferFrom(msg.sender, address(this), amount) */\n      mload(0x40)\n      shl(0xe0, 0x23b872dd)\n      dup2\n      mstore\n        /* \"contracts/buy_back.sol\":7071:7081  msg.sender */\n      caller\n        /* \"contracts/buy_back.sol\":7037:7105  IERC20(paymentToken).transferFrom(msg.sender, address(this), amount) */\n      0x04\n      dup3\n      add\n        /* \"#utility.yul\":4796:4847   */\n      mstore\n        /* \"contracts/buy_back.sol\":7091:7095  this */\n      address\n        /* \"#utility.yul\":4863:4881   */\n      0x24\n      dup3\n      add\n        /* \"#utility.yul\":4856:4916   */\n      mstore\n        /* \"#utility.yul\":4932:4950   */\n      0x44\n      dup2\n      add\n        /* \"#utility.yul\":4925:4959   */\n      dup4\n      swap1\n      mstore\n        /* \"contracts/buy_back.sol\":7022:7034  bool success */\n      0x00\n      swap2\n      sub(shl(0xa0, 0x01), 0x01)\n        /* \"contracts/buy_back.sol\":7044:7056  paymentToken */\n      and\n      swap1\n        /* \"contracts/buy_back.sol\":7037:7070  IERC20(paymentToken).transferFrom */\n      0x23b872dd\n      swap1\n        /* \"#utility.yul\":4769:4787   */\n      0x64\n      add\n        /* \"contracts/buy_back.sol\":7037:7105  IERC20(paymentToken).transferFrom(msg.sender, address(this), amount) */\n      0x20\n      mload(0x40)\n      dup1\n      dup4\n      sub\n      dup2\n      0x00\n      dup8\n      gas\n      call\n      iszero\n      dup1\n      iszero\n      tag_203\n      jumpi\n      returndatacopy(0x00, 0x00, returndatasize)\n      revert(0x00, returndatasize)\n    tag_203:\n      pop\n      pop\n      pop\n      pop\n      mload(0x40)\n      returndatasize\n      not(0x1f)\n      0x1f\n      dup3\n      add\n      and\n      dup3\n      add\n      dup1\n      0x40\n      mstore\n      pop\n      dup2\n      add\n      swap1\n      tag_204\n      swap2\n      swap1\n      tag_99\n      jump\t// in\n    tag_204:\n        /* \"contracts/buy_back.sol\":7022:7105  bool success = IERC20(paymentToken).transferFrom(msg.sender, address(this), amount) */\n      swap1\n      pop\n        /* \"contracts/buy_back.sol\":7124:7131  success */\n      dup1\n        /* \"contracts/buy_back.sol\":7116:7164  require(success, \"Payment token deposit failed\") */\n      tag_205\n      jumpi\n      mload(0x40)\n      shl(0xe5, 0x461bcd)\n      dup2\n      mstore\n        /* \"#utility.yul\":7895:7897   */\n      0x20\n        /* \"contracts/buy_back.sol\":7116:7164  require(success, \"Payment token deposit failed\") */\n      0x04\n      dup3\n      add\n        /* \"#utility.yul\":7877:7898   */\n      mstore\n        /* \"#utility.yul\":7934:7936   */\n      0x1c\n        /* \"#utility.yul\":7914:7932   */\n      0x24\n      dup3\n      add\n        /* \"#utility.yul\":7907:7937   */\n      mstore\n        /* \"#utility.yul\":7973:8003   */\n      0x5061796d656e7420746f6b656e206465706f736974206661696c656400000000\n        /* \"#utility.yul\":7953:7971   */\n      0x44\n      dup3\n      add\n        /* \"#utility.yul\":7946:8004   */\n      mstore\n        /* \"#utility.yul\":8021:8039   */\n      0x64\n      add\n        /* \"contracts/buy_back.sol\":7116:7164  require(success, \"Payment token deposit failed\") */\n      tag_80\n        /* \"#utility.yul\":7693:8045   */\n      jump\n        /* \"contracts/buy_back.sol\":7116:7164  require(success, \"Payment token deposit failed\") */\n    tag_205:\n        /* \"contracts/buy_back.sol\":6958:7172  {... */\n      pop\n        /* \"contracts/buy_back.sol\":6880:7172  function depositPaymentToken(uint256 amount) external onlyOwner whenNotPaused {... */\n      pop\n      jump\t// out\n        /* \"contracts/buy_back.sol\":7908:8043  function contractTokenBalance() external view returns (uint256) {... */\n    tag_66:\n        /* \"contracts/buy_back.sol\":7997:8009  paymentToken */\n      sload(0x01)\n        /* \"contracts/buy_back.sol\":7990:8035  IERC20(paymentToken).balanceOf(address(this)) */\n      mload(0x40)\n      shl(0xe0, 0x70a08231)\n      dup2\n      mstore\n        /* \"contracts/buy_back.sol\":8029:8033  this */\n      address\n        /* \"contracts/buy_back.sol\":7990:8035  IERC20(paymentToken).balanceOf(address(this)) */\n      0x04\n      dup3\n      add\n        /* \"#utility.yul\":345:396   */\n      mstore\n        /* \"contracts/buy_back.sol\":7963:7970  uint256 */\n      0x00\n      swap2\n      sub(shl(0xa0, 0x01), 0x01)\n        /* \"contracts/buy_back.sol\":7997:8009  paymentToken */\n      and\n      swap1\n        /* \"contracts/buy_back.sol\":7990:8020  IERC20(paymentToken).balanceOf */\n      0x70a08231\n      swap1\n        /* \"#utility.yul\":318:336   */\n      0x24\n      add\n        /* \"contracts/buy_back.sol\":7990:8035  IERC20(paymentToken).balanceOf(address(this)) */\n      0x20\n      mload(0x40)\n      dup1\n      dup4\n      sub\n      dup2\n      dup7\n      gas\n      staticcall\n      iszero\n      dup1\n      iszero\n      tag_211\n      jumpi\n      returndatacopy(0x00, 0x00, returndatasize)\n      revert(0x00, returndatasize)\n    tag_211:\n      pop\n      pop\n      pop\n      pop\n      mload(0x40)\n      returndatasize\n      not(0x1f)\n      0x1f\n      dup3\n      add\n      and\n      dup3\n      add\n      dup1\n      0x40\n      mstore\n      pop\n      dup2\n      add\n      swap1\n      tag_212\n      swap2\n      swap1\n      tag_90\n      jump\t// in\n    tag_212:\n        /* \"contracts/buy_back.sol\":7983:8035  return IERC20(paymentToken).balanceOf(address(this)) */\n      swap1\n      pop\n        /* \"contracts/buy_back.sol\":7908:8043  function contractTokenBalance() external view returns (uint256) {... */\n      swap1\n      jump\t// out\n        /* \"contracts/buy_back.sol\":8218:8660  function maxBuyableRoboMoney() external view returns (uint256) {... */\n    tag_69:\n        /* \"contracts/buy_back.sol\":8324:8336  paymentToken */\n      sload(0x01)\n        /* \"contracts/buy_back.sol\":8317:8362  IERC20(paymentToken).balanceOf(address(this)) */\n      mload(0x40)\n      shl(0xe0, 0x70a08231)\n      dup2\n      mstore\n        /* \"contracts/buy_back.sol\":8356:8360  this */\n      address\n        /* \"contracts/buy_back.sol\":8317:8362  IERC20(paymentToken).balanceOf(address(this)) */\n      0x04\n      dup3\n      add\n        /* \"#utility.yul\":345:396   */\n      mstore\n        /* \"contracts/buy_back.sol\":8272:8279  uint256 */\n      0x00\n      swap2\n      dup3\n      swap2\n      sub(shl(0xa0, 0x01), 0x01)\n        /* \"contracts/buy_back.sol\":8324:8336  paymentToken */\n      swap1\n      swap2\n      and\n      swap1\n        /* \"contracts/buy_back.sol\":8317:8347  IERC20(paymentToken).balanceOf */\n      0x70a08231\n      swap1\n        /* \"#utility.yul\":318:336   */\n      0x24\n      add\n        /* \"contracts/buy_back.sol\":8317:8362  IERC20(paymentToken).balanceOf(address(this)) */\n      0x20\n      mload(0x40)\n      dup1\n      dup4\n      sub\n      dup2\n      dup7\n      gas\n      staticcall\n      iszero\n      dup1\n      iszero\n      tag_216\n      jumpi\n      returndatacopy(0x00, 0x00, returndatasize)\n      revert(0x00, returndatasize)\n    tag_216:\n      pop\n      pop\n      pop\n      pop\n      mload(0x40)\n      returndatasize\n      not(0x1f)\n      0x1f\n      dup3\n      add\n      and\n      dup3\n      add\n      dup1\n      0x40\n      mstore\n      pop\n      dup2\n      add\n      swap1\n      tag_217\n      swap2\n      swap1\n      tag_90\n      jump\t// in\n    tag_217:\n        /* \"contracts/buy_back.sol\":8292:8362  uint256 currentBalance = IERC20(paymentToken).balanceOf(address(this)) */\n      swap1\n      pop\n        /* \"contracts/buy_back.sol\":8373:8393  uint256 premiumPrice */\n      0x00\n        /* \"contracts/buy_back.sol\":8434:8437  100 */\n      0x64\n        /* \"contracts/buy_back.sol\":8418:8429  premiumRate */\n      sload(0x03)\n        /* \"contracts/buy_back.sol\":8412:8415  100 */\n      0x64\n        /* \"contracts/buy_back.sol\":8412:8429  100 + premiumRate */\n      tag_218\n      swap2\n      swap1\n      tag_140\n      jump\t// in\n    tag_218:\n        /* \"contracts/buy_back.sol\":8397:8408  targetPrice */\n      sload(0x04)\n        /* \"contracts/buy_back.sol\":8397:8430  targetPrice * (100 + premiumRate) */\n      tag_219\n      swap2\n      swap1\n      tag_142\n      jump\t// in\n    tag_219:\n        /* \"contracts/buy_back.sol\":8396:8437  (targetPrice * (100 + premiumRate)) / 100 */\n      tag_220\n      swap2\n      swap1\n      tag_144\n      jump\t// in\n    tag_220:\n        /* \"contracts/buy_back.sol\":8373:8437  uint256 premiumPrice = (targetPrice * (100 + premiumRate)) / 100 */\n      swap1\n      pop\n        /* \"contracts/buy_back.sol\":8454:8466  premiumPrice */\n      dup1\n        /* \"contracts/buy_back.sol\":8470:8471  0 */\n      0x00\n        /* \"contracts/buy_back.sol\":8454:8471  premiumPrice == 0 */\n      sub\n        /* \"contracts/buy_back.sol\":8450:8508  if (premiumPrice == 0) {... */\n      tag_221\n      jumpi\n        /* \"contracts/buy_back.sol\":8495:8496  0 */\n      0x00\n        /* \"contracts/buy_back.sol\":8488:8496  return 0 */\n      swap3\n      pop\n      pop\n      pop\n        /* \"contracts/buy_back.sol\":8218:8660  function maxBuyableRoboMoney() external view returns (uint256) {... */\n      swap1\n      jump\t// out\n        /* \"contracts/buy_back.sol\":8450:8508  if (premiumPrice == 0) {... */\n    tag_221:\n        /* \"contracts/buy_back.sol\":8640:8652  premiumPrice */\n      dup1\n        /* \"contracts/buy_back.sol\":8615:8636  currentBalance * 1e18 */\n      tag_222\n        /* \"contracts/buy_back.sol\":8615:8629  currentBalance */\n      dup4\n        /* \"contracts/buy_back.sol\":8632:8636  1e18 */\n      0x0de0b6b3a7640000\n        /* \"contracts/buy_back.sol\":8615:8636  currentBalance * 1e18 */\n      tag_142\n      jump\t// in\n    tag_222:\n        /* \"contracts/buy_back.sol\":8614:8652  (currentBalance * 1e18) / premiumPrice */\n      tag_223\n      swap2\n      swap1\n      tag_144\n      jump\t// in\n    tag_223:\n        /* \"contracts/buy_back.sol\":8607:8652  return (currentBalance * 1e18) / premiumPrice */\n      swap3\n      pop\n      pop\n      pop\n        /* \"contracts/buy_back.sol\":8218:8660  function maxBuyableRoboMoney() external view returns (uint256) {... */\n      swap1\n      jump\t// out\n        /* \"contracts/buy_back.sol\":4609:4839  function transferOwnership(address newOwner) external onlyOwner {... */\n    tag_77:\n        /* \"contracts/buy_back.sol\":3641:3646  owner */\n      sload(0x00)\n      0x0100\n      swap1\n      div\n      sub(shl(0xa0, 0x01), 0x01)\n      and\n        /* \"contracts/buy_back.sol\":3627:3637  msg.sender */\n      caller\n        /* \"contracts/buy_back.sol\":3627:3646  msg.sender == owner */\n      eq\n        /* \"contracts/buy_back.sol\":3619:3665  require(msg.sender == owner, \"Not authorized\") */\n      tag_225\n      jumpi\n      mload(0x40)\n      shl(0xe5, 0x461bcd)\n      dup2\n      mstore\n      0x04\n      add\n      tag_80\n      swap1\n      tag_81\n      jump\t// in\n    tag_225:\n      sub(shl(0xa0, 0x01), 0x01)\n        /* \"contracts/buy_back.sol\":4692:4714  newOwner != address(0) */\n      dup2\n      and\n        /* \"contracts/buy_back.sol\":4684:4751  require(newOwner != address(0), \"New owner cannot be zero address\") */\n      tag_228\n      jumpi\n      mload(0x40)\n      shl(0xe5, 0x461bcd)\n      dup2\n      mstore\n        /* \"#utility.yul\":8252:8254   */\n      0x20\n        /* \"contracts/buy_back.sol\":4684:4751  require(newOwner != address(0), \"New owner cannot be zero address\") */\n      0x04\n      dup3\n      add\n        /* \"#utility.yul\":8234:8255   */\n      dup2\n      swap1\n      mstore\n        /* \"#utility.yul\":8271:8289   */\n      0x24\n      dup3\n      add\n        /* \"#utility.yul\":8264:8294   */\n      mstore\n        /* \"#utility.yul\":8330:8364   */\n      0x4e6577206f776e65722063616e6e6f74206265207a65726f2061646472657373\n        /* \"#utility.yul\":8310:8328   */\n      0x44\n      dup3\n      add\n        /* \"#utility.yul\":8303:8365   */\n      mstore\n        /* \"#utility.yul\":8382:8400   */\n      0x64\n      add\n        /* \"contracts/buy_back.sol\":4684:4751  require(newOwner != address(0), \"New owner cannot be zero address\") */\n      tag_80\n        /* \"#utility.yul\":8050:8406   */\n      jump\n        /* \"contracts/buy_back.sol\":4684:4751  require(newOwner != address(0), \"New owner cannot be zero address\") */\n    tag_228:\n        /* \"contracts/buy_back.sol\":4788:4793  owner */\n      0x00\n      dup1\n      sload\n        /* \"contracts/buy_back.sol\":4767:4804  OwnershipTransferred(owner, newOwner) */\n      mload(0x40)\n      sub(shl(0xa0, 0x01), 0x01)\n      dup1\n      dup6\n      and\n      swap4\n        /* \"contracts/buy_back.sol\":4788:4793  owner */\n      0x0100\n      swap1\n      swap4\n      div\n      and\n      swap2\n        /* \"contracts/buy_back.sol\":4767:4804  OwnershipTransferred(owner, newOwner) */\n      0x8be0079c531659141344cd1fd0a4f28419497f9722a3daafe3b4186f6b6457e0\n      swap2\n      log3\n        /* \"contracts/buy_back.sol\":4815:4820  owner */\n      0x00\n        /* \"contracts/buy_back.sol\":4815:4831  owner = newOwner */\n      dup1\n      sload\n      sub(shl(0xa0, 0x01), 0x01)\n      swap1\n      swap3\n      and\n      0x0100\n      mul\n      not(sub(shl(0xa8, 0x01), 0x0100))\n      swap1\n      swap3\n      and\n      swap2\n      swap1\n      swap2\n      or\n      swap1\n      sstore\n        /* \"contracts/buy_back.sol\":4609:4839  function transferOwnership(address newOwner) external onlyOwner {... */\n      jump\t// out\n        /* \"contracts/buy_back.sol\":1021:1139  function _unpause() internal virtual whenPaused {... */\n    tag_108:\n        /* \"contracts/buy_back.sol\":646:650  bool */\n      0x00\n        /* \"contracts/buy_back.sol\":670:677  _paused */\n      sload\n      0xff\n      and\n        /* \"contracts/buy_back.sol\":828:869  require(paused(), \"Pausable: not paused\") */\n      tag_233\n      jumpi\n      mload(0x40)\n      shl(0xe5, 0x461bcd)\n      dup2\n      mstore\n        /* \"#utility.yul\":8613:8615   */\n      0x20\n        /* \"contracts/buy_back.sol\":828:869  require(paused(), \"Pausable: not paused\") */\n      0x04\n      dup3\n      add\n        /* \"#utility.yul\":8595:8616   */\n      mstore\n        /* \"#utility.yul\":8652:8654   */\n      0x14\n        /* \"#utility.yul\":8632:8650   */\n      0x24\n      dup3\n      add\n        /* \"#utility.yul\":8625:8655   */\n      mstore\n      shl(0x62, 0x14185d5cd8589b194e881b9bdd081c185d5cd959)\n        /* \"#utility.yul\":8671:8689   */\n      0x44\n      dup3\n      add\n        /* \"#utility.yul\":8664:8714   */\n      mstore\n        /* \"#utility.yul\":8731:8749   */\n      0x64\n      add\n        /* \"contracts/buy_back.sol\":828:869  require(paused(), \"Pausable: not paused\") */\n      tag_80\n        /* \"#utility.yul\":8411:8755   */\n      jump\n        /* \"contracts/buy_back.sol\":828:869  require(paused(), \"Pausable: not paused\") */\n    tag_233:\n        /* \"contracts/buy_back.sol\":1090:1095  false */\n      0x00\n        /* \"contracts/buy_back.sol\":1080:1095  _paused = false */\n      dup1\n      sload\n      not(0xff)\n      and\n      swap1\n      sstore\n        /* \"contracts/buy_back.sol\":1111:1131  Unpaused(msg.sender) */\n      mload(0x40)\n        /* \"contracts/buy_back.sol\":1120:1130  msg.sender */\n      caller\n        /* \"#utility.yul\":345:396   */\n      dup2\n      mstore\n        /* \"contracts/buy_back.sol\":1111:1131  Unpaused(msg.sender) */\n      0x5db9ee0a495bf2e6ff9c91a7834c1ba4fdd244a5e8aa4e537bd38aeae4b073aa\n      swap1\n        /* \"#utility.yul\":333:335   */\n      0x20\n        /* \"#utility.yul\":318:336   */\n      add\n        /* \"contracts/buy_back.sol\":1111:1131  Unpaused(msg.sender) */\n    tag_237:\n      mload(0x40)\n      dup1\n      swap2\n      sub\n      swap1\n      log1\n        /* \"contracts/buy_back.sol\":1021:1139  function _unpause() internal virtual whenPaused {... */\n      jump\t// out\n        /* \"contracts/buy_back.sol\":897:1013  function _pause() internal virtual whenNotPaused {... */\n    tag_189:\n        /* \"contracts/buy_back.sol\":646:650  bool */\n      0x00\n        /* \"contracts/buy_back.sol\":670:677  _paused */\n      sload\n      0xff\n      and\n        /* \"contracts/buy_back.sol\":737:746  !paused() */\n      iszero\n        /* \"contracts/buy_back.sol\":729:767  require(!paused(), \"Pausable: paused\") */\n      tag_240\n      jumpi\n      mload(0x40)\n      shl(0xe5, 0x461bcd)\n      dup2\n      mstore\n      0x04\n      add\n      tag_80\n      swap1\n      tag_118\n      jump\t// in\n    tag_240:\n        /* \"contracts/buy_back.sol\":957:964  _paused */\n      0x00\n        /* \"contracts/buy_back.sol\":957:971  _paused = true */\n      dup1\n      sload\n      not(0xff)\n      and\n        /* \"contracts/buy_back.sol\":967:971  true */\n      0x01\n        /* \"contracts/buy_back.sol\":957:971  _paused = true */\n      or\n      swap1\n      sstore\n        /* \"contracts/buy_back.sol\":987:1005  Paused(msg.sender) */\n      mload(0x40)\n        /* \"contracts/buy_back.sol\":994:1004  msg.sender */\n      caller\n        /* \"#utility.yul\":345:396   */\n      dup2\n      mstore\n        /* \"contracts/buy_back.sol\":987:1005  Paused(msg.sender) */\n      0x62e78cea01bee320cd4e420270b5ea74000d11b0c9f74754ebdbfc544b05a258\n      swap1\n        /* \"#utility.yul\":333:335   */\n      0x20\n        /* \"#utility.yul\":318:336   */\n      add\n        /* \"contracts/buy_back.sol\":987:1005  Paused(msg.sender) */\n      tag_237\n        /* \"#utility.yul\":199:402   */\n      jump\n        /* \"#utility.yul\":14:194   */\n    tag_25:\n        /* \"#utility.yul\":73:79   */\n      0x00\n        /* \"#utility.yul\":126:128   */\n      0x20\n        /* \"#utility.yul\":114:123   */\n      dup3\n        /* \"#utility.yul\":105:112   */\n      dup5\n        /* \"#utility.yul\":101:124   */\n      sub\n        /* \"#utility.yul\":97:129   */\n      slt\n        /* \"#utility.yul\":94:146   */\n      iszero\n      tag_247\n      jumpi\n        /* \"#utility.yul\":142:143   */\n      0x00\n        /* \"#utility.yul\":139:140   */\n      0x00\n        /* \"#utility.yul\":132:144   */\n      revert\n        /* \"#utility.yul\":94:146   */\n    tag_247:\n      pop\n        /* \"#utility.yul\":165:188   */\n      calldataload\n      swap2\n        /* \"#utility.yul\":14:194   */\n      swap1\n      pop\n      jump\t// out\n        /* \"#utility.yul\":781:1067   */\n    tag_76:\n        /* \"#utility.yul\":840:846   */\n      0x00\n        /* \"#utility.yul\":893:895   */\n      0x20\n        /* \"#utility.yul\":881:890   */\n      dup3\n        /* \"#utility.yul\":872:879   */\n      dup5\n        /* \"#utility.yul\":868:891   */\n      sub\n        /* \"#utility.yul\":864:896   */\n      slt\n        /* \"#utility.yul\":861:913   */\n      iszero\n      tag_252\n      jumpi\n        /* \"#utility.yul\":909:910   */\n      0x00\n        /* \"#utility.yul\":906:907   */\n      0x00\n        /* \"#utility.yul\":899:911   */\n      revert\n        /* \"#utility.yul\":861:913   */\n    tag_252:\n        /* \"#utility.yul\":935:958   */\n      dup2\n      calldataload\n      sub(shl(0xa0, 0x01), 0x01)\n        /* \"#utility.yul\":987:1018   */\n      dup2\n      and\n        /* \"#utility.yul\":977:1019   */\n      dup2\n      eq\n        /* \"#utility.yul\":967:1037   */\n      tag_253\n      jumpi\n        /* \"#utility.yul\":1033:1034   */\n      0x00\n        /* \"#utility.yul\":1030:1031   */\n      0x00\n        /* \"#utility.yul\":1023:1035   */\n      revert\n        /* \"#utility.yul\":967:1037   */\n    tag_253:\n        /* \"#utility.yul\":1056:1061   */\n      swap4\n        /* \"#utility.yul\":781:1067   */\n      swap3\n      pop\n      pop\n      pop\n      jump\t// out\n        /* \"#utility.yul\":1072:1410   */\n    tag_81:\n        /* \"#utility.yul\":1274:1276   */\n      0x20\n        /* \"#utility.yul\":1256:1277   */\n      dup1\n      dup3\n      mstore\n        /* \"#utility.yul\":1313:1315   */\n      0x0e\n        /* \"#utility.yul\":1293:1311   */\n      swap1\n      dup3\n      add\n        /* \"#utility.yul\":1286:1316   */\n      mstore\n      shl(0x92, 0x139bdd08185d5d1a1bdc9a5e9959)\n        /* \"#utility.yul\":1347:1349   */\n      0x40\n        /* \"#utility.yul\":1332:1350   */\n      dup3\n      add\n        /* \"#utility.yul\":1325:1369   */\n      mstore\n        /* \"#utility.yul\":1401:1403   */\n      0x60\n        /* \"#utility.yul\":1386:1404   */\n      add\n      swap1\n        /* \"#utility.yul\":1072:1410   */\n      jump\t// out\n        /* \"#utility.yul\":1764:1948   */\n    tag_90:\n        /* \"#utility.yul\":1834:1840   */\n      0x00\n        /* \"#utility.yul\":1887:1889   */\n      0x20\n        /* \"#utility.yul\":1875:1884   */\n      dup3\n        /* \"#utility.yul\":1866:1873   */\n      dup5\n        /* \"#utility.yul\":1862:1885   */\n      sub\n        /* \"#utility.yul\":1858:1890   */\n      slt\n        /* \"#utility.yul\":1855:1907   */\n      iszero\n      tag_257\n      jumpi\n        /* \"#utility.yul\":1903:1904   */\n      0x00\n        /* \"#utility.yul\":1900:1901   */\n      0x00\n        /* \"#utility.yul\":1893:1905   */\n      revert\n        /* \"#utility.yul\":1855:1907   */\n    tag_257:\n      pop\n        /* \"#utility.yul\":1926:1942   */\n      mload\n      swap2\n        /* \"#utility.yul\":1764:1948   */\n      swap1\n      pop\n      jump\t// out\n        /* \"#utility.yul\":2590:2867   */\n    tag_99:\n        /* \"#utility.yul\":2657:2663   */\n      0x00\n        /* \"#utility.yul\":2710:2712   */\n      0x20\n        /* \"#utility.yul\":2698:2707   */\n      dup3\n        /* \"#utility.yul\":2689:2696   */\n      dup5\n        /* \"#utility.yul\":2685:2708   */\n      sub\n        /* \"#utility.yul\":2681:2713   */\n      slt\n        /* \"#utility.yul\":2678:2730   */\n      iszero\n      tag_261\n      jumpi\n        /* \"#utility.yul\":2726:2727   */\n      0x00\n        /* \"#utility.yul\":2723:2724   */\n      0x00\n        /* \"#utility.yul\":2716:2728   */\n      revert\n        /* \"#utility.yul\":2678:2730   */\n    tag_261:\n        /* \"#utility.yul\":2758:2767   */\n      dup2\n        /* \"#utility.yul\":2752:2768   */\n      mload\n        /* \"#utility.yul\":2811:2816   */\n      dup1\n        /* \"#utility.yul\":2804:2817   */\n      iszero\n        /* \"#utility.yul\":2797:2818   */\n      iszero\n        /* \"#utility.yul\":2790:2795   */\n      dup2\n        /* \"#utility.yul\":2787:2819   */\n      eq\n        /* \"#utility.yul\":2777:2837   */\n      tag_253\n      jumpi\n        /* \"#utility.yul\":2833:2834   */\n      0x00\n        /* \"#utility.yul\":2830:2831   */\n      0x00\n        /* \"#utility.yul\":2823:2835   */\n      revert\n        /* \"#utility.yul\":3232:3572   */\n    tag_118:\n        /* \"#utility.yul\":3434:3436   */\n      0x20\n        /* \"#utility.yul\":3416:3437   */\n      dup1\n      dup3\n      mstore\n        /* \"#utility.yul\":3473:3475   */\n      0x10\n        /* \"#utility.yul\":3453:3471   */\n      swap1\n      dup3\n      add\n        /* \"#utility.yul\":3446:3476   */\n      mstore\n      shl(0x82, 0x14185d5cd8589b194e881c185d5cd959)\n        /* \"#utility.yul\":3507:3509   */\n      0x40\n        /* \"#utility.yul\":3492:3510   */\n      dup3\n      add\n        /* \"#utility.yul\":3485:3531   */\n      mstore\n        /* \"#utility.yul\":3563:3565   */\n      0x60\n        /* \"#utility.yul\":3548:3566   */\n      add\n      swap1\n        /* \"#utility.yul\":3232:3572   */\n      jump\t// out\n        /* \"#utility.yul\":5324:5451   */\n    tag_244:\n        /* \"#utility.yul\":5385:5395   */\n      0x4e487b71\n        /* \"#utility.yul\":5380:5383   */\n      0xe0\n        /* \"#utility.yul\":5376:5396   */\n      shl\n        /* \"#utility.yul\":5373:5374   */\n      0x00\n        /* \"#utility.yul\":5366:5397   */\n      mstore\n        /* \"#utility.yul\":5416:5420   */\n      0x11\n        /* \"#utility.yul\":5413:5414   */\n      0x04\n        /* \"#utility.yul\":5406:5421   */\n      mstore\n        /* \"#utility.yul\":5440:5444   */\n      0x24\n        /* \"#utility.yul\":5437:5438   */\n      0x00\n        /* \"#utility.yul\":5430:5445   */\n      revert\n        /* \"#utility.yul\":5456:5581   */\n    tag_140:\n        /* \"#utility.yul\":5521:5530   */\n      dup1\n      dup3\n      add\n        /* \"#utility.yul\":5542:5552   */\n      dup1\n      dup3\n      gt\n        /* \"#utility.yul\":5539:5575   */\n      iszero\n      tag_273\n      jumpi\n        /* \"#utility.yul\":5555:5573   */\n      tag_273\n      tag_244\n      jump\t// in\n    tag_273:\n        /* \"#utility.yul\":5456:5581   */\n      swap3\n      swap2\n      pop\n      pop\n      jump\t// out\n        /* \"#utility.yul\":5586:5754   */\n    tag_142:\n        /* \"#utility.yul\":5659:5668   */\n      dup1\n      dup3\n      mul\n        /* \"#utility.yul\":5690:5699   */\n      dup2\n      iszero\n        /* \"#utility.yul\":5707:5722   */\n      dup3\n      dup3\n      div\n        /* \"#utility.yul\":5701:5723   */\n      dup5\n      eq\n        /* \"#utility.yul\":5687:5724   */\n      or\n        /* \"#utility.yul\":5677:5748   */\n      tag_273\n      jumpi\n        /* \"#utility.yul\":5728:5746   */\n      tag_273\n      tag_244\n      jump\t// in\n        /* \"#utility.yul\":5759:5976   */\n    tag_144:\n        /* \"#utility.yul\":5799:5800   */\n      0x00\n        /* \"#utility.yul\":5825:5826   */\n      dup3\n        /* \"#utility.yul\":5815:5947   */\n      tag_278\n      jumpi\n        /* \"#utility.yul\":5869:5879   */\n      0x4e487b71\n        /* \"#utility.yul\":5864:5867   */\n      0xe0\n        /* \"#utility.yul\":5860:5880   */\n      shl\n        /* \"#utility.yul\":5857:5858   */\n      0x00\n        /* \"#utility.yul\":5850:5881   */\n      mstore\n        /* \"#utility.yul\":5904:5908   */\n      0x12\n        /* \"#utility.yul\":5901:5902   */\n      0x04\n        /* \"#utility.yul\":5894:5909   */\n      mstore\n        /* \"#utility.yul\":5932:5936   */\n      0x24\n        /* \"#utility.yul\":5929:5930   */\n      0x00\n        /* \"#utility.yul\":5922:5937   */\n      revert\n        /* \"#utility.yul\":5815:5947   */\n    tag_278:\n      pop\n        /* \"#utility.yul\":5961:5970   */\n      div\n      swap1\n        /* \"#utility.yul\":5759:5976   */\n      jump\t// out\n\n    auxdata: 0xa26469706673582212200ba3133f66f8281c548c7395f06d3def8a148ee3d4180bf145a2c16a0a3da60a64736f6c634300081c0033\n}\n",
				"bytecode": {
					"linkReferences": {},
					"object": "6080604052348015600e575f5ffd5b50604051611148380380611148833981016040819052602b916098565b5f80546001600160a81b0319166101003302179055600180546001600160a01b03199081166001600160a01b039687161790915560028054909116939094169290921790925560039190915560045560d3565b80516001600160a01b03811681146093575f5ffd5b919050565b5f5f5f5f6080858703121560aa575f5ffd5b60b185607e565b935060bd60208601607e565b6040860151606090960151949790965092505050565b611068806100e05f395ff3fe608060405234801561000f575f5ffd5b5060043610610106575f3560e01c80637ff8b57a1161009e5780639063ee201161006e5780639063ee20146102025780639e9aed6214610215578063ce1d1f1f1461021d578063dc38679c14610225578063f2fde38b1461022e575f5ffd5b80637ff8b57a146101bd578063839ea2d9146101d05780638456cb59146101e35780638da5cb5b146101eb575f5ffd5b80635d0040d3116100d95780635d0040d31461016d5780636a64eff81461018457806379a9fa1c146101975780637ef7ba20146101aa575f5ffd5b806307e675fa1461010a5780633013ce291461011f5780633f4ba83a1461014f5780635c975abb14610157575b5f5ffd5b61011d610118366004610f03565b610241565b005b600154610132906001600160a01b031681565b6040516001600160a01b0390911681526020015b60405180910390f35b61011d61044a565b5f5460ff165b6040519015158152602001610146565b61017660035481565b604051908152602001610146565b61011d610192366004610f03565b610482565b61011d6101a5366004610f03565b6104b5565b600254610132906001600160a01b031681565b61011d6101cb366004610f03565b610922565b61015d6101de366004610f03565b61099d565b61011d610a63565b5f546101329061010090046001600160a01b031681565b61011d610210366004610f03565b610a99565b610176610bf9565b610176610c68565b61017660045481565b61011d61023c366004610f1a565b610d36565b5f5461010090046001600160a01b031633146102785760405162461bcd60e51b815260040161026f90610f47565b60405180910390fd5b5f81116102be5760405162461bcd60e51b815260206004820152601460248201527305769746864726177206d757374206265203e20360641b604482015260640161026f565b6001546040516370a0823160e01b81523060048201525f916001600160a01b0316906370a0823190602401602060405180830381865afa158015610304573d5f5f3e3d5ffd5b505050506040513d601f19601f820116820180604052508101906103289190610f6f565b90508082111561037a5760405162461bcd60e51b815260206004820152601d60248201527f4e6f7420656e6f75676820746f6b656e7320696e20636f6e7472616374000000604482015260640161026f565b6001545f805460405163a9059cbb60e01b81526001600160a01b0361010090920482166004820152602481018690529192169063a9059cbb906044016020604051808303815f875af11580156103d2573d5f5f3e3d5ffd5b505050506040513d601f19601f820116820180604052508101906103f69190610f86565b9050806104455760405162461bcd60e51b815260206004820152601f60248201527f5061796d656e7420746f6b656e207769746864726177616c206661696c656400604482015260640161026f565b505050565b5f5461010090046001600160a01b031633146104785760405162461bcd60e51b815260040161026f90610f47565b610480610e1e565b565b5f5461010090046001600160a01b031633146104b05760405162461bcd60e51b815260040161026f90610f47565b600455565b5f5460ff16156104d75760405162461bcd60e51b815260040161026f90610fa5565b5f811161051f5760405162461bcd60e51b81526020600482015260166024820152754d757374206465706f73697420526f626f4d6f6e657960501b604482015260640161026f565b600254604051636eb1769f60e11b81523360048201523060248201525f916001600160a01b03169063dd62ed3e90604401602060405180830381865afa15801561056b573d5f5f3e3d5ffd5b505050506040513d601f19601f8201168201806040525081019061058f9190610f6f565b9050818110156105e15760405162461bcd60e51b815260206004820181905260248201527f496e73756666696369656e7420526f626f4d6f6e657920616c6c6f77616e6365604482015260640161026f565b6002546040516323b872dd60e01b8152336004820152306024820152604481018490525f916001600160a01b0316906323b872dd906064016020604051808303815f875af1158015610635573d5f5f3e3d5ffd5b505050506040513d601f19601f820116820180604052508101906106599190610f86565b9050806106a85760405162461bcd60e51b815260206004820152601960248201527f526f626f4d6f6e6579207472616e73666572206661696c656400000000000000604482015260640161026f565b5f606460035460646106ba9190610fe3565b6004546106c79190610ffc565b6106d19190611013565b90505f670de0b6b3a76400006106e78387610ffc565b6106f19190611013565b6001546040516370a0823160e01b81523060048201529192505f916001600160a01b03909116906370a0823190602401602060405180830381865afa15801561073c573d5f5f3e3d5ffd5b505050506040513d601f19601f820116820180604052508101906107609190610f6f565b9050818110156107be5760405162461bcd60e51b815260206004820152602360248201527f4e6f7420656e6f756768207061796d656e74546f6b656e20696e20636f6e74726044820152621858dd60ea1b606482015260840161026f565b60015460405163a9059cbb60e01b8152336004820152602481018490525f916001600160a01b03169063a9059cbb906044016020604051808303815f875af115801561080c573d5f5f3e3d5ffd5b505050506040513d601f19601f820116820180604052508101906108309190610f86565b90508061087f5760405162461bcd60e51b815260206004820152601d60248201527f5061796d656e7420746f6b656e207472616e73666572206661696c6564000000604482015260640161026f565b600254604051632770a7eb60e21b8152306004820152602481018990526001600160a01b0390911690639dc29fac906044015f604051808303815f87803b1580156108c8575f5ffd5b505af11580156108da573d5f5f3e3d5ffd5b5050604080518a8152602081018790523393507fcb7f55d0b91628d4520b789339dae4803ab07182ea89d138acbd965dac51dc6592500160405180910390a250505050505050565b5f5461010090046001600160a01b031633146109505760405162461bcd60e51b815260040161026f90610f47565b60648111156109985760405162461bcd60e51b8152602060048201526014602482015273496e76616c6964207072656d69756d207261746560601b604482015260640161026f565b600355565b5f5f606460035460646109b09190610fe3565b6004546109bd9190610ffc565b6109c79190611013565b90505f670de0b6b3a76400006109dd8386610ffc565b6109e79190611013565b6001546040516370a0823160e01b81523060048201529192505f916001600160a01b03909116906370a0823190602401602060405180830381865afa158015610a32573d5f5f3e3d5ffd5b505050506040513d601f19601f82011682018060405250810190610a569190610f6f565b9190911015949350505050565b5f5461010090046001600160a01b03163314610a915760405162461bcd60e51b815260040161026f90610f47565b610480610ea5565b5f5461010090046001600160a01b03163314610ac75760405162461bcd60e51b815260040161026f90610f47565b5f5460ff1615610ae95760405162461bcd60e51b815260040161026f90610fa5565b5f8111610b2e5760405162461bcd60e51b815260206004820152601360248201527204465706f736974206d757374206265203e203606c1b604482015260640161026f565b6001546040516323b872dd60e01b8152336004820152306024820152604481018390525f916001600160a01b0316906323b872dd906064016020604051808303815f875af1158015610b82573d5f5f3e3d5ffd5b505050506040513d601f19601f82011682018060405250810190610ba69190610f86565b905080610bf55760405162461bcd60e51b815260206004820152601c60248201527f5061796d656e7420746f6b656e206465706f736974206661696c656400000000604482015260640161026f565b5050565b6001546040516370a0823160e01b81523060048201525f916001600160a01b0316906370a0823190602401602060405180830381865afa158015610c3f573d5f5f3e3d5ffd5b505050506040513d601f19601f82011682018060405250810190610c639190610f6f565b905090565b6001546040516370a0823160e01b81523060048201525f9182916001600160a01b03909116906370a0823190602401602060405180830381865afa158015610cb2573d5f5f3e3d5ffd5b505050506040513d601f19601f82011682018060405250810190610cd69190610f6f565b90505f60646003546064610cea9190610fe3565b600454610cf79190610ffc565b610d019190611013565b9050805f03610d12575f9250505090565b80610d2583670de0b6b3a7640000610ffc565b610d2f9190611013565b9250505090565b5f5461010090046001600160a01b03163314610d645760405162461bcd60e51b815260040161026f90610f47565b6001600160a01b038116610dba5760405162461bcd60e51b815260206004820181905260248201527f4e6577206f776e65722063616e6e6f74206265207a65726f2061646472657373604482015260640161026f565b5f80546040516001600160a01b038085169361010090930416917f8be0079c531659141344cd1fd0a4f28419497f9722a3daafe3b4186f6b6457e091a35f80546001600160a01b0390921661010002610100600160a81b0319909216919091179055565b5f5460ff16610e665760405162461bcd60e51b815260206004820152601460248201527314185d5cd8589b194e881b9bdd081c185d5cd95960621b604482015260640161026f565b5f805460ff191690556040513381527f5db9ee0a495bf2e6ff9c91a7834c1ba4fdd244a5e8aa4e537bd38aeae4b073aa906020015b60405180910390a1565b5f5460ff1615610ec75760405162461bcd60e51b815260040161026f90610fa5565b5f805460ff191660011790556040513381527f62e78cea01bee320cd4e420270b5ea74000d11b0c9f74754ebdbfc544b05a25890602001610e9b565b5f60208284031215610f13575f5ffd5b5035919050565b5f60208284031215610f2a575f5ffd5b81356001600160a01b0381168114610f40575f5ffd5b9392505050565b6020808252600e908201526d139bdd08185d5d1a1bdc9a5e995960921b604082015260600190565b5f60208284031215610f7f575f5ffd5b5051919050565b5f60208284031215610f96575f5ffd5b81518015158114610f40575f5ffd5b60208082526010908201526f14185d5cd8589b194e881c185d5cd95960821b604082015260600190565b634e487b7160e01b5f52601160045260245ffd5b80820180821115610ff657610ff6610fcf565b92915050565b8082028115828204841417610ff657610ff6610fcf565b5f8261102d57634e487b7160e01b5f52601260045260245ffd5b50049056fea26469706673582212200ba3133f66f8281c548c7395f06d3def8a148ee3d4180bf145a2c16a0a3da60a64736f6c634300081c0033",
					"opcodes": "PUSH1 0x80 PUSH1 0x40 MSTORE CALLVALUE DUP1 ISZERO PUSH1 0xE JUMPI PUSH0 PUSH0 REVERT JUMPDEST POP PUSH1 0x40 MLOAD PUSH2 0x1148 CODESIZE SUB DUP1 PUSH2 0x1148 DUP4 CODECOPY DUP2 ADD PUSH1 0x40 DUP2 SWAP1 MSTORE PUSH1 0x2B SWAP2 PUSH1 0x98 JUMP JUMPDEST PUSH0 DUP1 SLOAD PUSH1 0x1 PUSH1 0x1 PUSH1 0xA8 SHL SUB NOT AND PUSH2 0x100 CALLER MUL OR SWAP1 SSTORE PUSH1 0x1 DUP1 SLOAD PUSH1 0x1 PUSH1 0x1 PUSH1 0xA0 SHL SUB NOT SWAP1 DUP2 AND PUSH1 0x1 PUSH1 0x1 PUSH1 0xA0 SHL SUB SWAP7 DUP8 AND OR SWAP1 SWAP2 SSTORE PUSH1 0x2 DUP1 SLOAD SWAP1 SWAP2 AND SWAP4 SWAP1 SWAP5 AND SWAP3 SWAP1 SWAP3 OR SWAP1 SWAP3 SSTORE PUSH1 0x3 SWAP2 SWAP1 SWAP2 SSTORE PUSH1 0x4 SSTORE PUSH1 0xD3 JUMP JUMPDEST DUP1 MLOAD PUSH1 0x1 PUSH1 0x1 PUSH1 0xA0 SHL SUB DUP2 AND DUP2 EQ PUSH1 0x93 JUMPI PUSH0 PUSH0 REVERT JUMPDEST SWAP2 SWAP1 POP JUMP JUMPDEST PUSH0 PUSH0 PUSH0 PUSH0 PUSH1 0x80 DUP6 DUP8 SUB SLT ISZERO PUSH1 0xAA JUMPI PUSH0 PUSH0 REVERT JUMPDEST PUSH1 0xB1 DUP6 PUSH1 0x7E JUMP JUMPDEST SWAP4 POP PUSH1 0xBD PUSH1 0x20 DUP7 ADD PUSH1 0x7E JUMP JUMPDEST PUSH1 0x40 DUP7 ADD MLOAD PUSH1 0x60 SWAP1 SWAP7 ADD MLOAD SWAP5 SWAP8 SWAP1 SWAP7 POP SWAP3 POP POP POP JUMP JUMPDEST PUSH2 0x1068 DUP1 PUSH2 0xE0 PUSH0 CODECOPY PUSH0 RETURN INVALID PUSH1 0x80 PUSH1 0x40 MSTORE CALLVALUE DUP1 ISZERO PUSH2 0xF JUMPI PUSH0 PUSH0 REVERT JUMPDEST POP PUSH1 0x4 CALLDATASIZE LT PUSH2 0x106 JUMPI PUSH0 CALLDATALOAD PUSH1 0xE0 SHR DUP1 PUSH4 0x7FF8B57A GT PUSH2 0x9E JUMPI DUP1 PUSH4 0x9063EE20 GT PUSH2 0x6E JUMPI DUP1 PUSH4 0x9063EE20 EQ PUSH2 0x202 JUMPI DUP1 PUSH4 0x9E9AED62 EQ PUSH2 0x215 JUMPI DUP1 PUSH4 0xCE1D1F1F EQ PUSH2 0x21D JUMPI DUP1 PUSH4 0xDC38679C EQ PUSH2 0x225 JUMPI DUP1 PUSH4 0xF2FDE38B EQ PUSH2 0x22E JUMPI PUSH0 PUSH0 REVERT JUMPDEST DUP1 PUSH4 0x7FF8B57A EQ PUSH2 0x1BD JUMPI DUP1 PUSH4 0x839EA2D9 EQ PUSH2 0x1D0 JUMPI DUP1 PUSH4 0x8456CB59 EQ PUSH2 0x1E3 JUMPI DUP1 PUSH4 0x8DA5CB5B EQ PUSH2 0x1EB JUMPI PUSH0 PUSH0 REVERT JUMPDEST DUP1 PUSH4 0x5D0040D3 GT PUSH2 0xD9 JUMPI DUP1 PUSH4 0x5D0040D3 EQ PUSH2 0x16D JUMPI DUP1 PUSH4 0x6A64EFF8 EQ PUSH2 0x184 JUMPI DUP1 PUSH4 0x79A9FA1C EQ PUSH2 0x197 JUMPI DUP1 PUSH4 0x7EF7BA20 EQ PUSH2 0x1AA JUMPI PUSH0 PUSH0 REVERT JUMPDEST DUP1 PUSH4 0x7E675FA EQ PUSH2 0x10A JUMPI DUP1 PUSH4 0x3013CE29 EQ PUSH2 0x11F JUMPI DUP1 PUSH4 0x3F4BA83A EQ PUSH2 0x14F JUMPI DUP1 PUSH4 0x5C975ABB EQ PUSH2 0x157 JUMPI JUMPDEST PUSH0 PUSH0 REVERT JUMPDEST PUSH2 0x11D PUSH2 0x118 CALLDATASIZE PUSH1 0x4 PUSH2 0xF03 JUMP JUMPDEST PUSH2 0x241 JUMP JUMPDEST STOP JUMPDEST PUSH1 0x1 SLOAD PUSH2 0x132 SWAP1 PUSH1 0x1 PUSH1 0x1 PUSH1 0xA0 SHL SUB AND DUP2 JUMP JUMPDEST PUSH1 0x40 MLOAD PUSH1 0x1 PUSH1 0x1 PUSH1 0xA0 SHL SUB SWAP1 SWAP2 AND DUP2 MSTORE PUSH1 0x20 ADD JUMPDEST PUSH1 0x40 MLOAD DUP1 SWAP2 SUB SWAP1 RETURN JUMPDEST PUSH2 0x11D PUSH2 0x44A JUMP JUMPDEST PUSH0 SLOAD PUSH1 0xFF AND JUMPDEST PUSH1 0x40 MLOAD SWAP1 ISZERO ISZERO DUP2 MSTORE PUSH1 0x20 ADD PUSH2 0x146 JUMP JUMPDEST PUSH2 0x176 PUSH1 0x3 SLOAD DUP2 JUMP JUMPDEST PUSH1 0x40 MLOAD SWAP1 DUP2 MSTORE PUSH1 0x20 ADD PUSH2 0x146 JUMP JUMPDEST PUSH2 0x11D PUSH2 0x192 CALLDATASIZE PUSH1 0x4 PUSH2 0xF03 JUMP JUMPDEST PUSH2 0x482 JUMP JUMPDEST PUSH2 0x11D PUSH2 0x1A5 CALLDATASIZE PUSH1 0x4 PUSH2 0xF03 JUMP JUMPDEST PUSH2 0x4B5 JUMP JUMPDEST PUSH1 0x2 SLOAD PUSH2 0x132 SWAP1 PUSH1 0x1 PUSH1 0x1 PUSH1 0xA0 SHL SUB AND DUP2 JUMP JUMPDEST PUSH2 0x11D PUSH2 0x1CB CALLDATASIZE PUSH1 0x4 PUSH2 0xF03 JUMP JUMPDEST PUSH2 0x922 JUMP JUMPDEST PUSH2 0x15D PUSH2 0x1DE CALLDATASIZE PUSH1 0x4 PUSH2 0xF03 JUMP JUMPDEST PUSH2 0x99D JUMP JUMPDEST PUSH2 0x11D PUSH2 0xA63 JUMP JUMPDEST PUSH0 SLOAD PUSH2 0x132 SWAP1 PUSH2 0x100 SWAP1 DIV PUSH1 0x1 PUSH1 0x1 PUSH1 0xA0 SHL SUB AND DUP2 JUMP JUMPDEST PUSH2 0x11D PUSH2 0x210 CALLDATASIZE PUSH1 0x4 PUSH2 0xF03 JUMP JUMPDEST PUSH2 0xA99 JUMP JUMPDEST PUSH2 0x176 PUSH2 0xBF9 JUMP JUMPDEST PUSH2 0x176 PUSH2 0xC68 JUMP JUMPDEST PUSH2 0x176 PUSH1 0x4 SLOAD DUP2 JUMP JUMPDEST PUSH2 0x11D PUSH2 0x23C CALLDATASIZE PUSH1 0x4 PUSH2 0xF1A JUMP JUMPDEST PUSH2 0xD36 JUMP JUMPDEST PUSH0 SLOAD PUSH2 0x100 SWAP1 DIV PUSH1 0x1 PUSH1 0x1 PUSH1 0xA0 SHL SUB AND CALLER EQ PUSH2 0x278 JUMPI PUSH1 0x40 MLOAD PUSH3 0x461BCD PUSH1 0xE5 SHL DUP2 MSTORE PUSH1 0x4 ADD PUSH2 0x26F SWAP1 PUSH2 0xF47 JUMP JUMPDEST PUSH1 0x40 MLOAD DUP1 SWAP2 SUB SWAP1 REVERT JUMPDEST PUSH0 DUP2 GT PUSH2 0x2BE JUMPI PUSH1 0x40 MLOAD PUSH3 0x461BCD PUSH1 0xE5 SHL DUP2 MSTORE PUSH1 0x20 PUSH1 0x4 DUP3 ADD MSTORE PUSH1 0x14 PUSH1 0x24 DUP3 ADD MSTORE PUSH20 0x5769746864726177206D757374206265203E203 PUSH1 0x64 SHL PUSH1 0x44 DUP3 ADD MSTORE PUSH1 0x64 ADD PUSH2 0x26F JUMP JUMPDEST PUSH1 0x1 SLOAD PUSH1 0x40 MLOAD PUSH4 0x70A08231 PUSH1 0xE0 SHL DUP2 MSTORE ADDRESS PUSH1 0x4 DUP3 ADD MSTORE PUSH0 SWAP2 PUSH1 0x1 PUSH1 0x1 PUSH1 0xA0 SHL SUB AND SWAP1 PUSH4 0x70A08231 SWAP1 PUSH1 0x24 ADD PUSH1 0x20 PUSH1 0x40 MLOAD DUP1 DUP4 SUB DUP2 DUP7 GAS STATICCALL ISZERO DUP1 ISZERO PUSH2 0x304 JUMPI RETURNDATASIZE PUSH0 PUSH0 RETURNDATACOPY RETURNDATASIZE PUSH0 REVERT JUMPDEST POP POP POP POP PUSH1 0x40 MLOAD RETURNDATASIZE PUSH1 0x1F NOT PUSH1 0x1F DUP3 ADD AND DUP3 ADD DUP1 PUSH1 0x40 MSTORE POP DUP2 ADD SWAP1 PUSH2 0x328 SWAP2 SWAP1 PUSH2 0xF6F JUMP JUMPDEST SWAP1 POP DUP1 DUP3 GT ISZERO PUSH2 0x37A JUMPI PUSH1 0x40 MLOAD PUSH3 0x461BCD PUSH1 0xE5 SHL DUP2 MSTORE PUSH1 0x20 PUSH1 0x4 DUP3 ADD MSTORE PUSH1 0x1D PUSH1 0x24 DUP3 ADD MSTORE PUSH32 0x4E6F7420656E6F75676820746F6B656E7320696E20636F6E7472616374000000 PUSH1 0x44 DUP3 ADD MSTORE PUSH1 0x64 ADD PUSH2 0x26F JUMP JUMPDEST PUSH1 0x1 SLOAD PUSH0 DUP1 SLOAD PUSH1 0x40 MLOAD PUSH4 0xA9059CBB PUSH1 0xE0 SHL DUP2 MSTORE PUSH1 0x1 PUSH1 0x1 PUSH1 0xA0 SHL SUB PUSH2 0x100 SWAP1 SWAP3 DIV DUP3 AND PUSH1 0x4 DUP3 ADD MSTORE PUSH1 0x24 DUP2 ADD DUP7 SWAP1 MSTORE SWAP2 SWAP3 AND SWAP1 PUSH4 0xA9059CBB SWAP1 PUSH1 0x44 ADD PUSH1 0x20 PUSH1 0x40 MLOAD DUP1 DUP4 SUB DUP2 PUSH0 DUP8 GAS CALL ISZERO DUP1 ISZERO PUSH2 0x3D2 JUMPI RETURNDATASIZE PUSH0 PUSH0 RETURNDATACOPY RETURNDATASIZE PUSH0 REVERT JUMPDEST POP POP POP POP PUSH1 0x40 MLOAD RETURNDATASIZE PUSH1 0x1F NOT PUSH1 0x1F DUP3 ADD AND DUP3 ADD DUP1 PUSH1 0x40 MSTORE POP DUP2 ADD SWAP1 PUSH2 0x3F6 SWAP2 SWAP1 PUSH2 0xF86 JUMP JUMPDEST SWAP1 POP DUP1 PUSH2 0x445 JUMPI PUSH1 0x40 MLOAD PUSH3 0x461BCD PUSH1 0xE5 SHL DUP2 MSTORE PUSH1 0x20 PUSH1 0x4 DUP3 ADD MSTORE PUSH1 0x1F PUSH1 0x24 DUP3 ADD MSTORE PUSH32 0x5061796D656E7420746F6B656E207769746864726177616C206661696C656400 PUSH1 0x44 DUP3 ADD MSTORE PUSH1 0x64 ADD PUSH2 0x26F JUMP JUMPDEST POP POP POP JUMP JUMPDEST PUSH0 SLOAD PUSH2 0x100 SWAP1 DIV PUSH1 0x1 PUSH1 0x1 PUSH1 0xA0 SHL SUB AND CALLER EQ PUSH2 0x478 JUMPI PUSH1 0x40 MLOAD PUSH3 0x461BCD PUSH1 0xE5 SHL DUP2 MSTORE PUSH1 0x4 ADD PUSH2 0x26F SWAP1 PUSH2 0xF47 JUMP JUMPDEST PUSH2 0x480 PUSH2 0xE1E JUMP JUMPDEST JUMP JUMPDEST PUSH0 SLOAD PUSH2 0x100 SWAP1 DIV PUSH1 0x1 PUSH1 0x1 PUSH1 0xA0 SHL SUB AND CALLER EQ PUSH2 0x4B0 JUMPI PUSH1 0x40 MLOAD PUSH3 0x461BCD PUSH1 0xE5 SHL DUP2 MSTORE PUSH1 0x4 ADD PUSH2 0x26F SWAP1 PUSH2 0xF47 JUMP JUMPDEST PUSH1 0x4 SSTORE JUMP JUMPDEST PUSH0 SLOAD PUSH1 0xFF AND ISZERO PUSH2 0x4D7 JUMPI PUSH1 0x40 MLOAD PUSH3 0x461BCD PUSH1 0xE5 SHL DUP2 MSTORE PUSH1 0x4 ADD PUSH2 0x26F SWAP1 PUSH2 0xFA5 JUMP JUMPDEST PUSH0 DUP2 GT PUSH2 0x51F JUMPI PUSH1 0x40 MLOAD PUSH3 0x461BCD PUSH1 0xE5 SHL DUP2 MSTORE PUSH1 0x20 PUSH1 0x4 DUP3 ADD MSTORE PUSH1 0x16 PUSH1 0x24 DUP3 ADD MSTORE PUSH22 0x4D757374206465706F73697420526F626F4D6F6E6579 PUSH1 0x50 SHL PUSH1 0x44 DUP3 ADD MSTORE PUSH1 0x64 ADD PUSH2 0x26F JUMP JUMPDEST PUSH1 0x2 SLOAD PUSH1 0x40 MLOAD PUSH4 0x6EB1769F PUSH1 0xE1 SHL DUP2 MSTORE CALLER PUSH1 0x4 DUP3 ADD MSTORE ADDRESS PUSH1 0x24 DUP3 ADD MSTORE PUSH0 SWAP2 PUSH1 0x1 PUSH1 0x1 PUSH1 0xA0 SHL SUB AND SWAP1 PUSH4 0xDD62ED3E SWAP1 PUSH1 0x44 ADD PUSH1 0x20 PUSH1 0x40 MLOAD DUP1 DUP4 SUB DUP2 DUP7 GAS STATICCALL ISZERO DUP1 ISZERO PUSH2 0x56B JUMPI RETURNDATASIZE PUSH0 PUSH0 RETURNDATACOPY RETURNDATASIZE PUSH0 REVERT JUMPDEST POP POP POP POP PUSH1 0x40 MLOAD RETURNDATASIZE PUSH1 0x1F NOT PUSH1 0x1F DUP3 ADD AND DUP3 ADD DUP1 PUSH1 0x40 MSTORE POP DUP2 ADD SWAP1 PUSH2 0x58F SWAP2 SWAP1 PUSH2 0xF6F JUMP JUMPDEST SWAP1 POP DUP2 DUP2 LT ISZERO PUSH2 0x5E1 JUMPI PUSH1 0x40 MLOAD PUSH3 0x461BCD PUSH1 0xE5 SHL DUP2 MSTORE PUSH1 0x20 PUSH1 0x4 DUP3 ADD DUP2 SWAP1 MSTORE PUSH1 0x24 DUP3 ADD MSTORE PUSH32 0x496E73756666696369656E7420526F626F4D6F6E657920616C6C6F77616E6365 PUSH1 0x44 DUP3 ADD MSTORE PUSH1 0x64 ADD PUSH2 0x26F JUMP JUMPDEST PUSH1 0x2 SLOAD PUSH1 0x40 MLOAD PUSH4 0x23B872DD PUSH1 0xE0 SHL DUP2 MSTORE CALLER PUSH1 0x4 DUP3 ADD MSTORE ADDRESS PUSH1 0x24 DUP3 ADD MSTORE PUSH1 0x44 DUP2 ADD DUP5 SWAP1 MSTORE PUSH0 SWAP2 PUSH1 0x1 PUSH1 0x1 PUSH1 0xA0 SHL SUB AND SWAP1 PUSH4 0x23B872DD SWAP1 PUSH1 0x64 ADD PUSH1 0x20 PUSH1 0x40 MLOAD DUP1 DUP4 SUB DUP2 PUSH0 DUP8 GAS CALL ISZERO DUP1 ISZERO PUSH2 0x635 JUMPI RETURNDATASIZE PUSH0 PUSH0 RETURNDATACOPY RETURNDATASIZE PUSH0 REVERT JUMPDEST POP POP POP POP PUSH1 0x40 MLOAD RETURNDATASIZE PUSH1 0x1F NOT PUSH1 0x1F DUP3 ADD AND DUP3 ADD DUP1 PUSH1 0x40 MSTORE POP DUP2 ADD SWAP1 PUSH2 0x659 SWAP2 SWAP1 PUSH2 0xF86 JUMP JUMPDEST SWAP1 POP DUP1 PUSH2 0x6A8 JUMPI PUSH1 0x40 MLOAD PUSH3 0x461BCD PUSH1 0xE5 SHL DUP2 MSTORE PUSH1 0x20 PUSH1 0x4 DUP3 ADD MSTORE PUSH1 0x19 PUSH1 0x24 DUP3 ADD MSTORE PUSH32 0x526F626F4D6F6E6579207472616E73666572206661696C656400000000000000 PUSH1 0x44 DUP3 ADD MSTORE PUSH1 0x64 ADD PUSH2 0x26F JUMP JUMPDEST PUSH0 PUSH1 0x64 PUSH1 0x3 SLOAD PUSH1 0x64 PUSH2 0x6BA SWAP2 SWAP1 PUSH2 0xFE3 JUMP JUMPDEST PUSH1 0x4 SLOAD PUSH2 0x6C7 SWAP2 SWAP1 PUSH2 0xFFC JUMP JUMPDEST PUSH2 0x6D1 SWAP2 SWAP1 PUSH2 0x1013 JUMP JUMPDEST SWAP1 POP PUSH0 PUSH8 0xDE0B6B3A7640000 PUSH2 0x6E7 DUP4 DUP8 PUSH2 0xFFC JUMP JUMPDEST PUSH2 0x6F1 SWAP2 SWAP1 PUSH2 0x1013 JUMP JUMPDEST PUSH1 0x1 SLOAD PUSH1 0x40 MLOAD PUSH4 0x70A08231 PUSH1 0xE0 SHL DUP2 MSTORE ADDRESS PUSH1 0x4 DUP3 ADD MSTORE SWAP2 SWAP3 POP PUSH0 SWAP2 PUSH1 0x1 PUSH1 0x1 PUSH1 0xA0 SHL SUB SWAP1 SWAP2 AND SWAP1 PUSH4 0x70A08231 SWAP1 PUSH1 0x24 ADD PUSH1 0x20 PUSH1 0x40 MLOAD DUP1 DUP4 SUB DUP2 DUP7 GAS STATICCALL ISZERO DUP1 ISZERO PUSH2 0x73C JUMPI RETURNDATASIZE PUSH0 PUSH0 RETURNDATACOPY RETURNDATASIZE PUSH0 REVERT JUMPDEST POP POP POP POP PUSH1 0x40 MLOAD RETURNDATASIZE PUSH1 0x1F NOT PUSH1 0x1F DUP3 ADD AND DUP3 ADD DUP1 PUSH1 0x40 MSTORE POP DUP2 ADD SWAP1 PUSH2 0x760 SWAP2 SWAP1 PUSH2 0xF6F JUMP JUMPDEST SWAP1 POP DUP2 DUP2 LT ISZERO PUSH2 0x7BE JUMPI PUSH1 0x40 MLOAD PUSH3 0x461BCD PUSH1 0xE5 SHL DUP2 MSTORE PUSH1 0x20 PUSH1 0x4 DUP3 ADD MSTORE PUSH1 0x23 PUSH1 0x24 DUP3 ADD MSTORE PUSH32 0x4E6F7420656E6F756768207061796D656E74546F6B656E20696E20636F6E7472 PUSH1 0x44 DUP3 ADD MSTORE PUSH3 0x1858DD PUSH1 0xEA SHL PUSH1 0x64 DUP3 ADD MSTORE PUSH1 0x84 ADD PUSH2 0x26F JUMP JUMPDEST PUSH1 0x1 SLOAD PUSH1 0x40 MLOAD PUSH4 0xA9059CBB PUSH1 0xE0 SHL DUP2 MSTORE CALLER PUSH1 0x4 DUP3 ADD MSTORE PUSH1 0x24 DUP2 ADD DUP5 SWAP1 MSTORE PUSH0 SWAP2 PUSH1 0x1 PUSH1 0x1 PUSH1 0xA0 SHL SUB AND SWAP1 PUSH4 0xA9059CBB SWAP1 PUSH1 0x44 ADD PUSH1 0x20 PUSH1 0x40 MLOAD DUP1 DUP4 SUB DUP2 PUSH0 DUP8 GAS CALL ISZERO DUP1 ISZERO PUSH2 0x80C JUMPI RETURNDATASIZE PUSH0 PUSH0 RETURNDATACOPY RETURNDATASIZE PUSH0 REVERT JUMPDEST POP POP POP POP PUSH1 0x40 MLOAD RETURNDATASIZE PUSH1 0x1F NOT PUSH1 0x1F DUP3 ADD AND DUP3 ADD DUP1 PUSH1 0x40 MSTORE POP DUP2 ADD SWAP1 PUSH2 0x830 SWAP2 SWAP1 PUSH2 0xF86 JUMP JUMPDEST SWAP1 POP DUP1 PUSH2 0x87F JUMPI PUSH1 0x40 MLOAD PUSH3 0x461BCD PUSH1 0xE5 SHL DUP2 MSTORE PUSH1 0x20 PUSH1 0x4 DUP3 ADD MSTORE PUSH1 0x1D PUSH1 0x24 DUP3 ADD MSTORE PUSH32 0x5061796D656E7420746F6B656E207472616E73666572206661696C6564000000 PUSH1 0x44 DUP3 ADD MSTORE PUSH1 0x64 ADD PUSH2 0x26F JUMP JUMPDEST PUSH1 0x2 SLOAD PUSH1 0x40 MLOAD PUSH4 0x2770A7EB PUSH1 0xE2 SHL DUP2 MSTORE ADDRESS PUSH1 0x4 DUP3 ADD MSTORE PUSH1 0x24 DUP2 ADD DUP10 SWAP1 MSTORE PUSH1 0x1 PUSH1 0x1 PUSH1 0xA0 SHL SUB SWAP1 SWAP2 AND SWAP1 PUSH4 0x9DC29FAC SWAP1 PUSH1 0x44 ADD PUSH0 PUSH1 0x40 MLOAD DUP1 DUP4 SUB DUP2 PUSH0 DUP8 DUP1 EXTCODESIZE ISZERO DUP1 ISZERO PUSH2 0x8C8 JUMPI PUSH0 PUSH0 REVERT JUMPDEST POP GAS CALL ISZERO DUP1 ISZERO PUSH2 0x8DA JUMPI RETURNDATASIZE PUSH0 PUSH0 RETURNDATACOPY RETURNDATASIZE PUSH0 REVERT JUMPDEST POP POP PUSH1 0x40 DUP1 MLOAD DUP11 DUP2 MSTORE PUSH1 0x20 DUP2 ADD DUP8 SWAP1 MSTORE CALLER SWAP4 POP PUSH32 0xCB7F55D0B91628D4520B789339DAE4803AB07182EA89D138ACBD965DAC51DC65 SWAP3 POP ADD PUSH1 0x40 MLOAD DUP1 SWAP2 SUB SWAP1 LOG2 POP POP POP POP POP POP POP JUMP JUMPDEST PUSH0 SLOAD PUSH2 0x100 SWAP1 DIV PUSH1 0x1 PUSH1 0x1 PUSH1 0xA0 SHL SUB AND CALLER EQ PUSH2 0x950 JUMPI PUSH1 0x40 MLOAD PUSH3 0x461BCD PUSH1 0xE5 SHL DUP2 MSTORE PUSH1 0x4 ADD PUSH2 0x26F SWAP1 PUSH2 0xF47 JUMP JUMPDEST PUSH1 0x64 DUP2 GT ISZERO PUSH2 0x998 JUMPI PUSH1 0x40 MLOAD PUSH3 0x461BCD PUSH1 0xE5 SHL DUP2 MSTORE PUSH1 0x20 PUSH1 0x4 DUP3 ADD MSTORE PUSH1 0x14 PUSH1 0x24 DUP3 ADD MSTORE PUSH20 0x496E76616C6964207072656D69756D2072617465 PUSH1 0x60 SHL PUSH1 0x44 DUP3 ADD MSTORE PUSH1 0x64 ADD PUSH2 0x26F JUMP JUMPDEST PUSH1 0x3 SSTORE JUMP JUMPDEST PUSH0 PUSH0 PUSH1 0x64 PUSH1 0x3 SLOAD PUSH1 0x64 PUSH2 0x9B0 SWAP2 SWAP1 PUSH2 0xFE3 JUMP JUMPDEST PUSH1 0x4 SLOAD PUSH2 0x9BD SWAP2 SWAP1 PUSH2 0xFFC JUMP JUMPDEST PUSH2 0x9C7 SWAP2 SWAP1 PUSH2 0x1013 JUMP JUMPDEST SWAP1 POP PUSH0 PUSH8 0xDE0B6B3A7640000 PUSH2 0x9DD DUP4 DUP7 PUSH2 0xFFC JUMP JUMPDEST PUSH2 0x9E7 SWAP2 SWAP1 PUSH2 0x1013 JUMP JUMPDEST PUSH1 0x1 SLOAD PUSH1 0x40 MLOAD PUSH4 0x70A08231 PUSH1 0xE0 SHL DUP2 MSTORE ADDRESS PUSH1 0x4 DUP3 ADD MSTORE SWAP2 SWAP3 POP PUSH0 SWAP2 PUSH1 0x1 PUSH1 0x1 PUSH1 0xA0 SHL SUB SWAP1 SWAP2 AND SWAP1 PUSH4 0x70A08231 SWAP1 PUSH1 0x24 ADD PUSH1 0x20 PUSH1 0x40 MLOAD DUP1 DUP4 SUB DUP2 DUP7 GAS STATICCALL ISZERO DUP1 ISZERO PUSH2 0xA32 JUMPI RETURNDATASIZE PUSH0 PUSH0 RETURNDATACOPY RETURNDATASIZE PUSH0 REVERT JUMPDEST POP POP POP POP PUSH1 0x40 MLOAD RETURNDATASIZE PUSH1 0x1F NOT PUSH1 0x1F DUP3 ADD AND DUP3 ADD DUP1 PUSH1 0x40 MSTORE POP DUP2 ADD SWAP1 PUSH2 0xA56 SWAP2 SWAP1 PUSH2 0xF6F JUMP JUMPDEST SWAP2 SWAP1 SWAP2 LT ISZERO SWAP5 SWAP4 POP POP POP POP JUMP JUMPDEST PUSH0 SLOAD PUSH2 0x100 SWAP1 DIV PUSH1 0x1 PUSH1 0x1 PUSH1 0xA0 SHL SUB AND CALLER EQ PUSH2 0xA91 JUMPI PUSH1 0x40 MLOAD PUSH3 0x461BCD PUSH1 0xE5 SHL DUP2 MSTORE PUSH1 0x4 ADD PUSH2 0x26F SWAP1 PUSH2 0xF47 JUMP JUMPDEST PUSH2 0x480 PUSH2 0xEA5 JUMP JUMPDEST PUSH0 SLOAD PUSH2 0x100 SWAP1 DIV PUSH1 0x1 PUSH1 0x1 PUSH1 0xA0 SHL SUB AND CALLER EQ PUSH2 0xAC7 JUMPI PUSH1 0x40 MLOAD PUSH3 0x461BCD PUSH1 0xE5 SHL DUP2 MSTORE PUSH1 0x4 ADD PUSH2 0x26F SWAP1 PUSH2 0xF47 JUMP JUMPDEST PUSH0 SLOAD PUSH1 0xFF AND ISZERO PUSH2 0xAE9 JUMPI PUSH1 0x40 MLOAD PUSH3 0x461BCD PUSH1 0xE5 SHL DUP2 MSTORE PUSH1 0x4 ADD PUSH2 0x26F SWAP1 PUSH2 0xFA5 JUMP JUMPDEST PUSH0 DUP2 GT PUSH2 0xB2E JUMPI PUSH1 0x40 MLOAD PUSH3 0x461BCD PUSH1 0xE5 SHL DUP2 MSTORE PUSH1 0x20 PUSH1 0x4 DUP3 ADD MSTORE PUSH1 0x13 PUSH1 0x24 DUP3 ADD MSTORE PUSH19 0x4465706F736974206D757374206265203E203 PUSH1 0x6C SHL PUSH1 0x44 DUP3 ADD MSTORE PUSH1 0x64 ADD PUSH2 0x26F JUMP JUMPDEST PUSH1 0x1 SLOAD PUSH1 0x40 MLOAD PUSH4 0x23B872DD PUSH1 0xE0 SHL DUP2 MSTORE CALLER PUSH1 0x4 DUP3 ADD MSTORE ADDRESS PUSH1 0x24 DUP3 ADD MSTORE PUSH1 0x44 DUP2 ADD DUP4 SWAP1 MSTORE PUSH0 SWAP2 PUSH1 0x1 PUSH1 0x1 PUSH1 0xA0 SHL SUB AND SWAP1 PUSH4 0x23B872DD SWAP1 PUSH1 0x64 ADD PUSH1 0x20 PUSH1 0x40 MLOAD DUP1 DUP4 SUB DUP2 PUSH0 DUP8 GAS CALL ISZERO DUP1 ISZERO PUSH2 0xB82 JUMPI RETURNDATASIZE PUSH0 PUSH0 RETURNDATACOPY RETURNDATASIZE PUSH0 REVERT JUMPDEST POP POP POP POP PUSH1 0x40 MLOAD RETURNDATASIZE PUSH1 0x1F NOT PUSH1 0x1F DUP3 ADD AND DUP3 ADD DUP1 PUSH1 0x40 MSTORE POP DUP2 ADD SWAP1 PUSH2 0xBA6 SWAP2 SWAP1 PUSH2 0xF86 JUMP JUMPDEST SWAP1 POP DUP1 PUSH2 0xBF5 JUMPI PUSH1 0x40 MLOAD PUSH3 0x461BCD PUSH1 0xE5 SHL DUP2 MSTORE PUSH1 0x20 PUSH1 0x4 DUP3 ADD MSTORE PUSH1 0x1C PUSH1 0x24 DUP3 ADD MSTORE PUSH32 0x5061796D656E7420746F6B656E206465706F736974206661696C656400000000 PUSH1 0x44 DUP3 ADD MSTORE PUSH1 0x64 ADD PUSH2 0x26F JUMP JUMPDEST POP POP JUMP JUMPDEST PUSH1 0x1 SLOAD PUSH1 0x40 MLOAD PUSH4 0x70A08231 PUSH1 0xE0 SHL DUP2 MSTORE ADDRESS PUSH1 0x4 DUP3 ADD MSTORE PUSH0 SWAP2 PUSH1 0x1 PUSH1 0x1 PUSH1 0xA0 SHL SUB AND SWAP1 PUSH4 0x70A08231 SWAP1 PUSH1 0x24 ADD PUSH1 0x20 PUSH1 0x40 MLOAD DUP1 DUP4 SUB DUP2 DUP7 GAS STATICCALL ISZERO DUP1 ISZERO PUSH2 0xC3F JUMPI RETURNDATASIZE PUSH0 PUSH0 RETURNDATACOPY RETURNDATASIZE PUSH0 REVERT JUMPDEST POP POP POP POP PUSH1 0x40 MLOAD RETURNDATASIZE PUSH1 0x1F NOT PUSH1 0x1F DUP3 ADD AND DUP3 ADD DUP1 PUSH1 0x40 MSTORE POP DUP2 ADD SWAP1 PUSH2 0xC63 SWAP2 SWAP1 PUSH2 0xF6F JUMP JUMPDEST SWAP1 POP SWAP1 JUMP JUMPDEST PUSH1 0x1 SLOAD PUSH1 0x40 MLOAD PUSH4 0x70A08231 PUSH1 0xE0 SHL DUP2 MSTORE ADDRESS PUSH1 0x4 DUP3 ADD MSTORE PUSH0 SWAP2 DUP3 SWAP2 PUSH1 0x1 PUSH1 0x1 PUSH1 0xA0 SHL SUB SWAP1 SWAP2 AND SWAP1 PUSH4 0x70A08231 SWAP1 PUSH1 0x24 ADD PUSH1 0x20 PUSH1 0x40 MLOAD DUP1 DUP4 SUB DUP2 DUP7 GAS STATICCALL ISZERO DUP1 ISZERO PUSH2 0xCB2 JUMPI RETURNDATASIZE PUSH0 PUSH0 RETURNDATACOPY RETURNDATASIZE PUSH0 REVERT JUMPDEST POP POP POP POP PUSH1 0x40 MLOAD RETURNDATASIZE PUSH1 0x1F NOT PUSH1 0x1F DUP3 ADD AND DUP3 ADD DUP1 PUSH1 0x40 MSTORE POP DUP2 ADD SWAP1 PUSH2 0xCD6 SWAP2 SWAP1 PUSH2 0xF6F JUMP JUMPDEST SWAP1 POP PUSH0 PUSH1 0x64 PUSH1 0x3 SLOAD PUSH1 0x64 PUSH2 0xCEA SWAP2 SWAP1 PUSH2 0xFE3 JUMP JUMPDEST PUSH1 0x4 SLOAD PUSH2 0xCF7 SWAP2 SWAP1 PUSH2 0xFFC JUMP JUMPDEST PUSH2 0xD01 SWAP2 SWAP1 PUSH2 0x1013 JUMP JUMPDEST SWAP1 POP DUP1 PUSH0 SUB PUSH2 0xD12 JUMPI PUSH0 SWAP3 POP POP POP SWAP1 JUMP JUMPDEST DUP1 PUSH2 0xD25 DUP4 PUSH8 0xDE0B6B3A7640000 PUSH2 0xFFC JUMP JUMPDEST PUSH2 0xD2F SWAP2 SWAP1 PUSH2 0x1013 JUMP JUMPDEST SWAP3 POP POP POP SWAP1 JUMP JUMPDEST PUSH0 SLOAD PUSH2 0x100 SWAP1 DIV PUSH1 0x1 PUSH1 0x1 PUSH1 0xA0 SHL SUB AND CALLER EQ PUSH2 0xD64 JUMPI PUSH1 0x40 MLOAD PUSH3 0x461BCD PUSH1 0xE5 SHL DUP2 MSTORE PUSH1 0x4 ADD PUSH2 0x26F SWAP1 PUSH2 0xF47 JUMP JUMPDEST PUSH1 0x1 PUSH1 0x1 PUSH1 0xA0 SHL SUB DUP2 AND PUSH2 0xDBA JUMPI PUSH1 0x40 MLOAD PUSH3 0x461BCD PUSH1 0xE5 SHL DUP2 MSTORE PUSH1 0x20 PUSH1 0x4 DUP3 ADD DUP2 SWAP1 MSTORE PUSH1 0x24 DUP3 ADD MSTORE PUSH32 0x4E6577206F776E65722063616E6E6F74206265207A65726F2061646472657373 PUSH1 0x44 DUP3 ADD MSTORE PUSH1 0x64 ADD PUSH2 0x26F JUMP JUMPDEST PUSH0 DUP1 SLOAD PUSH1 0x40 MLOAD PUSH1 0x1 PUSH1 0x1 PUSH1 0xA0 SHL SUB DUP1 DUP6 AND SWAP4 PUSH2 0x100 SWAP1 SWAP4 DIV AND SWAP2 PUSH32 0x8BE0079C531659141344CD1FD0A4F28419497F9722A3DAAFE3B4186F6B6457E0 SWAP2 LOG3 PUSH0 DUP1 SLOAD PUSH1 0x1 PUSH1 0x1 PUSH1 0xA0 SHL SUB SWAP1 SWAP3 AND PUSH2 0x100 MUL PUSH2 0x100 PUSH1 0x1 PUSH1 0xA8 SHL SUB NOT SWAP1 SWAP3 AND SWAP2 SWAP1 SWAP2 OR SWAP1 SSTORE JUMP JUMPDEST PUSH0 SLOAD PUSH1 0xFF AND PUSH2 0xE66 JUMPI PUSH1 0x40 MLOAD PUSH3 0x461BCD PUSH1 0xE5 SHL DUP2 MSTORE PUSH1 0x20 PUSH1 0x4 DUP3 ADD MSTORE PUSH1 0x14 PUSH1 0x24 DUP3 ADD MSTORE PUSH20 0x14185D5CD8589B194E881B9BDD081C185D5CD959 PUSH1 0x62 SHL PUSH1 0x44 DUP3 ADD MSTORE PUSH1 0x64 ADD PUSH2 0x26F JUMP JUMPDEST PUSH0 DUP1 SLOAD PUSH1 0xFF NOT AND SWAP1 SSTORE PUSH1 0x40 MLOAD CALLER DUP2 MSTORE PUSH32 0x5DB9EE0A495BF2E6FF9C91A7834C1BA4FDD244A5E8AA4E537BD38AEAE4B073AA SWAP1 PUSH1 0x20 ADD JUMPDEST PUSH1 0x40 MLOAD DUP1 SWAP2 SUB SWAP1 LOG1 JUMP JUMPDEST PUSH0 SLOAD PUSH1 0xFF AND ISZERO PUSH2 0xEC7 JUMPI PUSH1 0x40 MLOAD PUSH3 0x461BCD PUSH1 0xE5 SHL DUP2 MSTORE PUSH1 0x4 ADD PUSH2 0x26F SWAP1 PUSH2 0xFA5 JUMP JUMPDEST PUSH0 DUP1 SLOAD PUSH1 0xFF NOT AND PUSH1 0x1 OR SWAP1 SSTORE PUSH1 0x40 MLOAD CALLER DUP2 MSTORE PUSH32 0x62E78CEA01BEE320CD4E420270B5EA74000D11B0C9F74754EBDBFC544B05A258 SWAP1 PUSH1 0x20 ADD PUSH2 0xE9B JUMP JUMPDEST PUSH0 PUSH1 0x20 DUP3 DUP5 SUB SLT ISZERO PUSH2 0xF13 JUMPI PUSH0 PUSH0 REVERT JUMPDEST POP CALLDATALOAD SWAP2 SWAP1 POP JUMP JUMPDEST PUSH0 PUSH1 0x20 DUP3 DUP5 SUB SLT ISZERO PUSH2 0xF2A JUMPI PUSH0 PUSH0 REVERT JUMPDEST DUP2 CALLDATALOAD PUSH1 0x1 PUSH1 0x1 PUSH1 0xA0 SHL SUB DUP2 AND DUP2 EQ PUSH2 0xF40 JUMPI PUSH0 PUSH0 REVERT JUMPDEST SWAP4 SWAP3 POP POP POP JUMP JUMPDEST PUSH1 0x20 DUP1 DUP3 MSTORE PUSH1 0xE SWAP1 DUP3 ADD MSTORE PUSH14 0x139BDD08185D5D1A1BDC9A5E9959 PUSH1 0x92 SHL PUSH1 0x40 DUP3 ADD MSTORE PUSH1 0x60 ADD SWAP1 JUMP JUMPDEST PUSH0 PUSH1 0x20 DUP3 DUP5 SUB SLT ISZERO PUSH2 0xF7F JUMPI PUSH0 PUSH0 REVERT JUMPDEST POP MLOAD SWAP2 SWAP1 POP JUMP JUMPDEST PUSH0 PUSH1 0x20 DUP3 DUP5 SUB SLT ISZERO PUSH2 0xF96 JUMPI PUSH0 PUSH0 REVERT JUMPDEST DUP2 MLOAD DUP1 ISZERO ISZERO DUP2 EQ PUSH2 0xF40 JUMPI PUSH0 PUSH0 REVERT JUMPDEST PUSH1 0x20 DUP1 DUP3 MSTORE PUSH1 0x10 SWAP1 DUP3 ADD MSTORE PUSH16 0x14185D5CD8589B194E881C185D5CD959 PUSH1 0x82 SHL PUSH1 0x40 DUP3 ADD MSTORE PUSH1 0x60 ADD SWAP1 JUMP JUMPDEST PUSH4 0x4E487B71 PUSH1 0xE0 SHL PUSH0 MSTORE PUSH1 0x11 PUSH1 0x4 MSTORE PUSH1 0x24 PUSH0 REVERT JUMPDEST DUP1 DUP3 ADD DUP1 DUP3 GT ISZERO PUSH2 0xFF6 JUMPI PUSH2 0xFF6 PUSH2 0xFCF JUMP JUMPDEST SWAP3 SWAP2 POP POP JUMP JUMPDEST DUP1 DUP3 MUL DUP2 ISZERO DUP3 DUP3 DIV DUP5 EQ OR PUSH2 0xFF6 JUMPI PUSH2 0xFF6 PUSH2 0xFCF JUMP JUMPDEST PUSH0 DUP3 PUSH2 0x102D JUMPI PUSH4 0x4E487B71 PUSH1 0xE0 SHL PUSH0 MSTORE PUSH1 0x12 PUSH1 0x4 MSTORE PUSH1 0x24 PUSH0 REVERT JUMPDEST POP DIV SWAP1 JUMP INVALID LOG2 PUSH5 0x6970667358 0x22 SLT KECCAK256 SIGNEXTEND LOG3 SGT EXTCODEHASH PUSH7 0xF8281C548C7395 CREATE PUSH14 0x3DEF8A148EE3D4180BF145A2C16A EXP RETURNDATASIZE 0xA6 EXP PUSH5 0x736F6C6343 STOP ADDMOD SHR STOP CALLER "
				},
				"gasEstimates": {
					"creation": {
						"codeDepositCost": "840000",
						"executionCost": "infinite",
						"totalCost": "infinite"
					},
					"external": {
						"buyback(uint256)": "infinite",
						"canExecuteBuyback(uint256)": "infinite",
						"contractTokenBalance()": "infinite",
						"depositPaymentToken(uint256)": "infinite",
						"maxBuyableRoboMoney()": "infinite",
						"owner()": "2424",
						"pause()": "29800",
						"paused()": "2381",
						"paymentToken()": "2371",
						"premiumRate()": "2317",
						"roboMoney()": "2414",
						"setPremiumRate(uint256)": "24521",
						"setTargetPrice(uint256)": "24517",
						"targetPrice()": "2382",
						"transferOwnership(address)": "30503",
						"unpause()": "29781",
						"withdrawPaymentToken(uint256)": "infinite"
					}
				},
				"methodIdentifiers": {
					"buyback(uint256)": "79a9fa1c",
					"canExecuteBuyback(uint256)": "839ea2d9",
					"contractTokenBalance()": "9e9aed62",
					"depositPaymentToken(uint256)": "9063ee20",
					"maxBuyableRoboMoney()": "ce1d1f1f",
					"owner()": "8da5cb5b",
					"pause()": "8456cb59",
					"paused()": "5c975abb",
					"paymentToken()": "3013ce29",
					"premiumRate()": "5d0040d3",
					"roboMoney()": "7ef7ba20",
					"setPremiumRate(uint256)": "7ff8b57a",
					"setTargetPrice(uint256)": "6a64eff8",
					"targetPrice()": "dc38679c",
					"transferOwnership(address)": "f2fde38b",
					"unpause()": "3f4ba83a",
					"withdrawPaymentToken(uint256)": "07e675fa"
				}
			},
			"storageLayout": {
				"storage": [
					{
						"astId": 4,
						"contract": "contracts/buy_back.sol:BuyBack",
						"label": "_paused",
						"offset": 0,
						"slot": "0",
						"type": "t_bool"
					},
					{
						"astId": 194,
						"contract": "contracts/buy_back.sol:BuyBack",
						"label": "owner",
						"offset": 1,
						"slot": "0",
						"type": "t_address"
					},
					{
						"astId": 196,
						"contract": "contracts/buy_back.sol:BuyBack",
						"label": "paymentToken",
						"offset": 0,
						"slot": "1",
						"type": "t_address"
					},
					{
						"astId": 198,
						"contract": "contracts/buy_back.sol:BuyBack",
						"label": "roboMoney",
						"offset": 0,
						"slot": "2",
						"type": "t_address"
					},
					{
						"astId": 200,
						"contract": "contracts/buy_back.sol:BuyBack",
						"label": "premiumRate",
						"offset": 0,
						"slot": "3",
						"type": "t_uint256"
					},
					{
						"astId": 202,
						"contract": "contracts/buy_back.sol:BuyBack",
						"label": "targetPrice",
						"offset": 0,
						"slot": "4",
						"type": "t_uint256"
					}
				],
				"types": {
					"t_address": {
						"encoding": "inplace",
						"label": "address",
						"numberOfBytes": "20"
					},
					"t_bool": {
						"encoding": "inplace",
						"label": "bool",
						"numberOfBytes": "1"
					},
					"t_uint256": {
						"encoding": "inplace",
						"label": "uint256",
						"numberOfBytes": "32"
					}
				}
			},
			"userdoc": {
				"kind": "user",
				"methods": {
					"buyback(uint256)": {
						"notice": "Buys back RoboMoney from msg.sender at the configured premium rate, paying out the specified ERC20 `paymentToken`, and then burns the RoboMoney."
					}
				},
				"version": 1
			}
		}
	}
}