{
	"contracts/bonding_contract.sol": {
		"Bonding": {
			"abi": [
				{
					"inputs": [
						{
							"internalType": "address",
							"name": "_paymentToken",
							"type": "address"
						},
						{
							"internalType": "address",
							"name": "_roboMoney",
							"type": "address"
						},
						{
							"internalType": "address",
							"name": "_bondReceiver",
							"type": "address"
						},
						{
							"internalType": "address",
							"name": "_gasReserve",
							"type": "address"
						},
						{
							"internalType": "uint256",
							"name": "_discountRate",
							"type": "uint256"
						},
						{
							"internalType": "uint256",
							"name": "_targetPrice",
							"type": "uint256"
						},
						{
							"internalType": "uint256",
							"name": "_taxRate",
							"type": "uint256"
						}
					],
					"stateMutability": "nonpayable",
					"type": "constructor"
				},
				{
					"inputs": [
						{
							"internalType": "address",
							"name": "token",
							"type": "address"
						}
					],
					"name": "SafeERC20FailedOperation",
					"type": "error"
				},
				{
					"anonymous": false,
					"inputs": [
						{
							"indexed": true,
							"internalType": "address",
							"name": "user",
							"type": "address"
						},
						{
							"indexed": false,
							"internalType": "uint256",
							"name": "tokenAmount",
							"type": "uint256"
						},
						{
							"indexed": false,
							"internalType": "uint256",
							"name": "roboMoneyAmount",
							"type": "uint256"
						}
					],
					"name": "BondPurchased",
					"type": "event"
				},
				{
					"anonymous": false,
					"inputs": [
						{
							"indexed": true,
							"internalType": "address",
							"name": "oldBondReceiver",
							"type": "address"
						},
						{
							"indexed": true,
							"internalType": "address",
							"name": "newBondReceiver",
							"type": "address"
						}
					],
					"name": "BondReceiverUpdated",
					"type": "event"
				},
				{
					"anonymous": false,
					"inputs": [
						{
							"indexed": true,
							"internalType": "address",
							"name": "oldGasReserve",
							"type": "address"
						},
						{
							"indexed": true,
							"internalType": "address",
							"name": "newGasReserve",
							"type": "address"
						}
					],
					"name": "GasReserveUpdated",
					"type": "event"
				},
				{
					"anonymous": false,
					"inputs": [
						{
							"indexed": true,
							"internalType": "address",
							"name": "oldOwner",
							"type": "address"
						},
						{
							"indexed": true,
							"internalType": "address",
							"name": "newOwner",
							"type": "address"
						}
					],
					"name": "OwnershipTransferred",
					"type": "event"
				},
				{
					"anonymous": false,
					"inputs": [
						{
							"indexed": false,
							"internalType": "address",
							"name": "account",
							"type": "address"
						}
					],
					"name": "Paused",
					"type": "event"
				},
				{
					"anonymous": false,
					"inputs": [
						{
							"indexed": false,
							"internalType": "uint256",
							"name": "oldTaxRate",
							"type": "uint256"
						},
						{
							"indexed": false,
							"internalType": "uint256",
							"name": "newTaxRate",
							"type": "uint256"
						}
					],
					"name": "TaxRateUpdated",
					"type": "event"
				},
				{
					"anonymous": false,
					"inputs": [
						{
							"indexed": false,
							"internalType": "address",
							"name": "account",
							"type": "address"
						}
					],
					"name": "Unpaused",
					"type": "event"
				},
				{
					"inputs": [
						{
							"internalType": "uint256",
							"name": "tokenAmount",
							"type": "uint256"
						}
					],
					"name": "bond",
					"outputs": [],
					"stateMutability": "nonpayable",
					"type": "function"
				},
				{
					"inputs": [],
					"name": "bondReceiver",
					"outputs": [
						{
							"internalType": "address",
							"name": "",
							"type": "address"
						}
					],
					"stateMutability": "view",
					"type": "function"
				},
				{
					"inputs": [],
					"name": "checkContractRoboMoneyBalance",
					"outputs": [
						{
							"internalType": "uint256",
							"name": "",
							"type": "uint256"
						}
					],
					"stateMutability": "view",
					"type": "function"
				},
				{
					"inputs": [
						{
							"internalType": "address",
							"name": "user",
							"type": "address"
						}
					],
					"name": "checkRoboMoneyBalance",
					"outputs": [
						{
							"internalType": "uint256",
							"name": "",
							"type": "uint256"
						}
					],
					"stateMutability": "view",
					"type": "function"
				},
				{
					"inputs": [
						{
							"internalType": "address",
							"name": "user",
							"type": "address"
						}
					],
					"name": "checkTokenAllowance",
					"outputs": [
						{
							"internalType": "uint256",
							"name": "",
							"type": "uint256"
						}
					],
					"stateMutability": "view",
					"type": "function"
				},
				{
					"inputs": [
						{
							"internalType": "address",
							"name": "user",
							"type": "address"
						}
					],
					"name": "checkTokenBalance",
					"outputs": [
						{
							"internalType": "uint256",
							"name": "",
							"type": "uint256"
						}
					],
					"stateMutability": "view",
					"type": "function"
				},
				{
					"inputs": [],
					"name": "discountRate",
					"outputs": [
						{
							"internalType": "uint256",
							"name": "",
							"type": "uint256"
						}
					],
					"stateMutability": "view",
					"type": "function"
				},
				{
					"inputs": [],
					"name": "gasReserve",
					"outputs": [
						{
							"internalType": "address",
							"name": "",
							"type": "address"
						}
					],
					"stateMutability": "view",
					"type": "function"
				},
				{
					"inputs": [],
					"name": "owner",
					"outputs": [
						{
							"internalType": "address",
							"name": "",
							"type": "address"
						}
					],
					"stateMutability": "view",
					"type": "function"
				},
				{
					"inputs": [],
					"name": "pause",
					"outputs": [],
					"stateMutability": "nonpayable",
					"type": "function"
				},
				{
					"inputs": [],
					"name": "paused",
					"outputs": [
						{
							"internalType": "bool",
							"name": "",
							"type": "bool"
						}
					],
					"stateMutability": "view",
					"type": "function"
				},
				{
					"inputs": [],
					"name": "paymentToken",
					"outputs": [
						{
							"internalType": "address",
							"name": "",
							"type": "address"
						}
					],
					"stateMutability": "view",
					"type": "function"
				},
				{
					"inputs": [],
					"name": "roboMoney",
					"outputs": [
						{
							"internalType": "address",
							"name": "",
							"type": "address"
						}
					],
					"stateMutability": "view",
					"type": "function"
				},
				{
					"inputs": [
						{
							"internalType": "address",
							"name": "_newBondReceiver",
							"type": "address"
						}
					],
					"name": "setBondReceiver",
					"outputs": [],
					"stateMutability": "nonpayable",
					"type": "function"
				},
				{
					"inputs": [
						{
							"internalType": "address",
							"name": "_newGasReserve",
							"type": "address"
						}
					],
					"name": "setGasReserve",
					"outputs": [],
					"stateMutability": "nonpayable",
					"type": "function"
				},
				{
					"inputs": [
						{
							"internalType": "uint256",
							"name": "_targetPrice",
							"type": "uint256"
						}
					],
					"name": "setTargetPrice",
					"outputs": [],
					"stateMutability": "nonpayable",
					"type": "function"
				},
				{
					"inputs": [
						{
							"internalType": "uint256",
							"name": "_newTaxRate",
							"type": "uint256"
						}
					],
					"name": "setTaxRate",
					"outputs": [],
					"stateMutability": "nonpayable",
					"type": "function"
				},
				{
					"inputs": [],
					"name": "targetPrice",
					"outputs": [
						{
							"internalType": "uint256",
							"name": "",
							"type": "uint256"
						}
					],
					"stateMutability": "view",
					"type": "function"
				},
				{
					"inputs": [],
					"name": "taxRate",
					"outputs": [
						{
							"internalType": "uint256",
							"name": "",
							"type": "uint256"
						}
					],
					"stateMutability": "view",
					"type": "function"
				},
				{
					"inputs": [
						{
							"internalType": "address",
							"name": "newOwner",
							"type": "address"
						}
					],
					"name": "transferOwnership",
					"outputs": [],
					"stateMutability": "nonpayable",
					"type": "function"
				},
				{
					"inputs": [],
					"name": "unpause",
					"outputs": [],
					"stateMutability": "nonpayable",
					"type": "function"
				}
			],
			"devdoc": {
				"details": "Demonstrates how to add pausing to the Bonding contract.",
				"errors": {
					"SafeERC20FailedOperation(address)": [
						{
							"details": "An operation with an ERC-20 token failed."
						}
					]
				},
				"kind": "dev",
				"methods": {
					"bond(uint256)": {
						"details": "Marked whenNotPaused. If the contract is paused, this function      will revert. The owner can call pause()/unpause() as needed.",
						"params": {
							"tokenAmount": "The amount of paymentToken the user is depositing."
						}
					},
					"constructor": {
						"params": {
							"_bondReceiver": "Address of the receiver of bonded payments.",
							"_discountRate": "Discount in percent (0–100).",
							"_paymentToken": "Address of the ERC20 token used for bonding (DAI, USDC, etc.).",
							"_roboMoney": "Address of the RoboMoney token (replaces mlAMPL).",
							"_targetPrice": "Base price ratio for RoboMoney vs. payment token."
						}
					},
					"pause()": {
						"details": "Owner can pause contract functions protected by whenNotPaused."
					},
					"unpause()": {
						"details": "Owner can unpause contract functions."
					}
				},
				"title": "Bonding",
				"version": 1
			},
			"evm": {
				"assembly": "    /* \"contracts/bonding_contract.sol\":2791:10482  contract Bonding is Pausable, ReentrancyGuard {... */\n  mstore(0x40, 0x80)\n    /* \"contracts/bonding_contract.sol\":4107:5154  constructor(... */\n  callvalue\n  dup1\n  iszero\n  tag_1\n  jumpi\n  0x00\n  dup1\n  revert\ntag_1:\n  pop\n  mload(0x40)\n  sub(codesize, bytecodeSize)\n  dup1\n  bytecodeSize\n  dup4\n  codecopy\n  dup2\n  dup2\n  add\n  0x40\n  mstore\n  dup2\n  add\n  swap1\n  tag_2\n  swap2\n  swap1\n  tag_3\n  jump\t// in\ntag_2:\n    /* \"contracts/bonding_contract.sol\":924:929  false */\n  0x00\n    /* \"contracts/bonding_contract.sol\":914:921  _paused */\n  dup1\n  0x00\n    /* \"contracts/bonding_contract.sol\":914:929  _paused = false */\n  0x0100\n  exp\n  dup2\n  sload\n  dup2\n  0xff\n  mul\n  not\n  and\n  swap1\n  dup4\n  iszero\n  iszero\n  mul\n  or\n  swap1\n  sstore\n  pop\n    /* \"@openzeppelin/contracts/security/ReentrancyGuard.sol\":1716:1717  1 */\n  0x01\n    /* \"@openzeppelin/contracts/security/ReentrancyGuard.sol\":1821:1828  _status */\n  dup1\n    /* \"@openzeppelin/contracts/security/ReentrancyGuard.sol\":1821:1843  _status = _NOT_ENTERED */\n  dup2\n  swap1\n  sstore\n  pop\n    /* \"contracts/bonding_contract.sol\":4383:4384  0 */\n  0x00\n    /* \"contracts/bonding_contract.sol\":4358:4385  _paymentToken != address(0) */\n  0xffffffffffffffffffffffffffffffffffffffff\n  and\n    /* \"contracts/bonding_contract.sol\":4358:4371  _paymentToken */\n  dup8\n    /* \"contracts/bonding_contract.sol\":4358:4385  _paymentToken != address(0) */\n  0xffffffffffffffffffffffffffffffffffffffff\n  and\n  sub\n    /* \"contracts/bonding_contract.sol\":4350:4419  require(_paymentToken != address(0), \"Invalid payment token address\") */\n  tag_10\n  jumpi\n  mload(0x40)\n  0x08c379a000000000000000000000000000000000000000000000000000000000\n  dup2\n  mstore\n  0x04\n  add\n  tag_11\n  swap1\n  tag_12\n  jump\t// in\ntag_11:\n  mload(0x40)\n  dup1\n  swap2\n  sub\n  swap1\n  revert\ntag_10:\n    /* \"contracts/bonding_contract.sol\":4460:4461  0 */\n  0x00\n    /* \"contracts/bonding_contract.sol\":4438:4462  _roboMoney != address(0) */\n  0xffffffffffffffffffffffffffffffffffffffff\n  and\n    /* \"contracts/bonding_contract.sol\":4438:4448  _roboMoney */\n  dup7\n    /* \"contracts/bonding_contract.sol\":4438:4462  _roboMoney != address(0) */\n  0xffffffffffffffffffffffffffffffffffffffff\n  and\n  sub\n    /* \"contracts/bonding_contract.sol\":4430:4498  require(_roboMoney != address(0), \"Invalid RoboMoney token address\") */\n  tag_13\n  jumpi\n  mload(0x40)\n  0x08c379a000000000000000000000000000000000000000000000000000000000\n  dup2\n  mstore\n  0x04\n  add\n  tag_14\n  swap1\n  tag_15\n  jump\t// in\ntag_14:\n  mload(0x40)\n  dup1\n  swap2\n  sub\n  swap1\n  revert\ntag_13:\n    /* \"contracts/bonding_contract.sol\":4542:4543  0 */\n  0x00\n    /* \"contracts/bonding_contract.sol\":4517:4544  _bondReceiver != address(0) */\n  0xffffffffffffffffffffffffffffffffffffffff\n  and\n    /* \"contracts/bonding_contract.sol\":4517:4530  _bondReceiver */\n  dup6\n    /* \"contracts/bonding_contract.sol\":4517:4544  _bondReceiver != address(0) */\n  0xffffffffffffffffffffffffffffffffffffffff\n  and\n  sub\n    /* \"contracts/bonding_contract.sol\":4509:4578  require(_bondReceiver != address(0), \"Invalid bond receiver address\") */\n  tag_16\n  jumpi\n  mload(0x40)\n  0x08c379a000000000000000000000000000000000000000000000000000000000\n  dup2\n  mstore\n  0x04\n  add\n  tag_17\n  swap1\n  tag_18\n  jump\t// in\ntag_17:\n  mload(0x40)\n  dup1\n  swap2\n  sub\n  swap1\n  revert\ntag_16:\n    /* \"contracts/bonding_contract.sol\":4620:4621  0 */\n  0x00\n    /* \"contracts/bonding_contract.sol\":4597:4622  _gasReserve != address(0) */\n  0xffffffffffffffffffffffffffffffffffffffff\n  and\n    /* \"contracts/bonding_contract.sol\":4597:4608  _gasReserve */\n  dup5\n    /* \"contracts/bonding_contract.sol\":4597:4622  _gasReserve != address(0) */\n  0xffffffffffffffffffffffffffffffffffffffff\n  and\n  sub\n    /* \"contracts/bonding_contract.sol\":4589:4654  require(_gasReserve != address(0), \"Invalid gas reserve address\") */\n  tag_19\n  jumpi\n  mload(0x40)\n  0x08c379a000000000000000000000000000000000000000000000000000000000\n  dup2\n  mstore\n  0x04\n  add\n  tag_20\n  swap1\n  tag_21\n  jump\t// in\ntag_20:\n  mload(0x40)\n  dup1\n  swap2\n  sub\n  swap1\n  revert\ntag_19:\n    /* \"contracts/bonding_contract.sol\":4689:4692  100 */\n  0x64\n    /* \"contracts/bonding_contract.sol\":4673:4686  _discountRate */\n  dup4\n    /* \"contracts/bonding_contract.sol\":4673:4692  _discountRate < 100 */\n  lt\n    /* \"contracts/bonding_contract.sol\":4665:4725  require(_discountRate < 100, \"Discount rate must be < 100%\") */\n  tag_22\n  jumpi\n  mload(0x40)\n  0x08c379a000000000000000000000000000000000000000000000000000000000\n  dup2\n  mstore\n  0x04\n  add\n  tag_23\n  swap1\n  tag_24\n  jump\t// in\ntag_23:\n  mload(0x40)\n  dup1\n  swap2\n  sub\n  swap1\n  revert\ntag_22:\n    /* \"contracts/bonding_contract.sol\":4759:4760  0 */\n  0x00\n    /* \"contracts/bonding_contract.sol\":4744:4756  _targetPrice */\n  dup3\n    /* \"contracts/bonding_contract.sol\":4744:4760  _targetPrice > 0 */\n  gt\n    /* \"contracts/bonding_contract.sol\":4736:4789  require(_targetPrice > 0, \"Target price must be > 0\") */\n  tag_25\n  jumpi\n  mload(0x40)\n  0x08c379a000000000000000000000000000000000000000000000000000000000\n  dup2\n  mstore\n  0x04\n  add\n  tag_26\n  swap1\n  tag_27\n  jump\t// in\ntag_26:\n  mload(0x40)\n  dup1\n  swap2\n  sub\n  swap1\n  revert\ntag_25:\n    /* \"contracts/bonding_contract.sol\":4820:4824  1000 */\n  0x03e8\n    /* \"contracts/bonding_contract.sol\":4808:4816  _taxRate */\n  dup2\n    /* \"contracts/bonding_contract.sol\":4808:4824  _taxRate <= 1000 */\n  gt\n  iszero\n    /* \"contracts/bonding_contract.sol\":4800:4846  require(_taxRate <= 1000, \"Tax rate too high\") */\n  tag_28\n  jumpi\n  mload(0x40)\n  0x08c379a000000000000000000000000000000000000000000000000000000000\n  dup2\n  mstore\n  0x04\n  add\n  tag_29\n  swap1\n  tag_30\n  jump\t// in\ntag_29:\n  mload(0x40)\n  dup1\n  swap2\n  sub\n  swap1\n  revert\ntag_28:\n    /* \"contracts/bonding_contract.sol\":4875:4885  msg.sender */\n  caller\n    /* \"contracts/bonding_contract.sol\":4867:4872  owner */\n  0x02\n  0x00\n    /* \"contracts/bonding_contract.sol\":4867:4885  owner = msg.sender */\n  0x0100\n  exp\n  dup2\n  sload\n  dup2\n  0xffffffffffffffffffffffffffffffffffffffff\n  mul\n  not\n  and\n  swap1\n  dup4\n  0xffffffffffffffffffffffffffffffffffffffff\n  and\n  mul\n  or\n  swap1\n  sstore\n  pop\n    /* \"contracts/bonding_contract.sol\":4911:4924  _paymentToken */\n  dup7\n    /* \"contracts/bonding_contract.sol\":4896:4908  paymentToken */\n  0x03\n  0x00\n    /* \"contracts/bonding_contract.sol\":4896:4924  paymentToken = _paymentToken */\n  0x0100\n  exp\n  dup2\n  sload\n  dup2\n  0xffffffffffffffffffffffffffffffffffffffff\n  mul\n  not\n  and\n  swap1\n  dup4\n  0xffffffffffffffffffffffffffffffffffffffff\n  and\n  mul\n  or\n  swap1\n  sstore\n  pop\n    /* \"contracts/bonding_contract.sol\":4947:4957  _roboMoney */\n  dup6\n    /* \"contracts/bonding_contract.sol\":4935:4944  roboMoney */\n  0x04\n  0x00\n    /* \"contracts/bonding_contract.sol\":4935:4957  roboMoney = _roboMoney */\n  0x0100\n  exp\n  dup2\n  sload\n  dup2\n  0xffffffffffffffffffffffffffffffffffffffff\n  mul\n  not\n  and\n  swap1\n  dup4\n  0xffffffffffffffffffffffffffffffffffffffff\n  and\n  mul\n  or\n  swap1\n  sstore\n  pop\n    /* \"contracts/bonding_contract.sol\":4983:4996  _bondReceiver */\n  dup5\n    /* \"contracts/bonding_contract.sol\":4968:4980  bondReceiver */\n  0x05\n  0x00\n    /* \"contracts/bonding_contract.sol\":4968:4996  bondReceiver = _bondReceiver */\n  0x0100\n  exp\n  dup2\n  sload\n  dup2\n  0xffffffffffffffffffffffffffffffffffffffff\n  mul\n  not\n  and\n  swap1\n  dup4\n  0xffffffffffffffffffffffffffffffffffffffff\n  and\n  mul\n  or\n  swap1\n  sstore\n  pop\n    /* \"contracts/bonding_contract.sol\":5020:5031  _gasReserve */\n  dup4\n    /* \"contracts/bonding_contract.sol\":5007:5017  gasReserve */\n  0x06\n  0x00\n    /* \"contracts/bonding_contract.sol\":5007:5031  gasReserve = _gasReserve */\n  0x0100\n  exp\n  dup2\n  sload\n  dup2\n  0xffffffffffffffffffffffffffffffffffffffff\n  mul\n  not\n  and\n  swap1\n  dup4\n  0xffffffffffffffffffffffffffffffffffffffff\n  and\n  mul\n  or\n  swap1\n  sstore\n  pop\n    /* \"contracts/bonding_contract.sol\":5057:5070  _discountRate */\n  dup3\n    /* \"contracts/bonding_contract.sol\":5042:5054  discountRate */\n  0x07\n    /* \"contracts/bonding_contract.sol\":5042:5070  discountRate = _discountRate */\n  dup2\n  swap1\n  sstore\n  pop\n    /* \"contracts/bonding_contract.sol\":5095:5107  _targetPrice */\n  dup2\n    /* \"contracts/bonding_contract.sol\":5081:5092  targetPrice */\n  0x08\n    /* \"contracts/bonding_contract.sol\":5081:5107  targetPrice = _targetPrice */\n  dup2\n  swap1\n  sstore\n  pop\n    /* \"contracts/bonding_contract.sol\":5128:5136  _taxRate */\n  dup1\n    /* \"contracts/bonding_contract.sol\":5118:5125  taxRate */\n  0x09\n    /* \"contracts/bonding_contract.sol\":5118:5136  taxRate = _taxRate */\n  dup2\n  swap1\n  sstore\n  pop\n    /* \"contracts/bonding_contract.sol\":4107:5154  constructor(... */\n  pop\n  pop\n  pop\n  pop\n  pop\n  pop\n  pop\n    /* \"contracts/bonding_contract.sol\":2791:10482  contract Bonding is Pausable, ReentrancyGuard {... */\n  jump(tag_31)\n    /* \"#utility.yul\":88:205   */\ntag_33:\n    /* \"#utility.yul\":197:198   */\n  0x00\n    /* \"#utility.yul\":194:195   */\n  dup1\n    /* \"#utility.yul\":187:199   */\n  revert\n    /* \"#utility.yul\":334:460   */\ntag_35:\n    /* \"#utility.yul\":371:378   */\n  0x00\n    /* \"#utility.yul\":411:453   */\n  0xffffffffffffffffffffffffffffffffffffffff\n    /* \"#utility.yul\":404:409   */\n  dup3\n    /* \"#utility.yul\":400:454   */\n  and\n    /* \"#utility.yul\":389:454   */\n  swap1\n  pop\n    /* \"#utility.yul\":334:460   */\n  swap2\n  swap1\n  pop\n  jump\t// out\n    /* \"#utility.yul\":466:562   */\ntag_36:\n    /* \"#utility.yul\":503:510   */\n  0x00\n    /* \"#utility.yul\":532:556   */\n  tag_63\n    /* \"#utility.yul\":550:555   */\n  dup3\n    /* \"#utility.yul\":532:556   */\n  tag_35\n  jump\t// in\ntag_63:\n    /* \"#utility.yul\":521:556   */\n  swap1\n  pop\n    /* \"#utility.yul\":466:562   */\n  swap2\n  swap1\n  pop\n  jump\t// out\n    /* \"#utility.yul\":568:690   */\ntag_37:\n    /* \"#utility.yul\":641:665   */\n  tag_65\n    /* \"#utility.yul\":659:664   */\n  dup2\n    /* \"#utility.yul\":641:665   */\n  tag_36\n  jump\t// in\ntag_65:\n    /* \"#utility.yul\":634:639   */\n  dup2\n    /* \"#utility.yul\":631:666   */\n  eq\n    /* \"#utility.yul\":621:684   */\n  tag_66\n  jumpi\n    /* \"#utility.yul\":680:681   */\n  0x00\n    /* \"#utility.yul\":677:678   */\n  dup1\n    /* \"#utility.yul\":670:682   */\n  revert\n    /* \"#utility.yul\":621:684   */\ntag_66:\n    /* \"#utility.yul\":568:690   */\n  pop\n  jump\t// out\n    /* \"#utility.yul\":696:839   */\ntag_38:\n    /* \"#utility.yul\":753:758   */\n  0x00\n    /* \"#utility.yul\":784:790   */\n  dup2\n    /* \"#utility.yul\":778:791   */\n  mload\n    /* \"#utility.yul\":769:791   */\n  swap1\n  pop\n    /* \"#utility.yul\":800:833   */\n  tag_68\n    /* \"#utility.yul\":827:832   */\n  dup2\n    /* \"#utility.yul\":800:833   */\n  tag_37\n  jump\t// in\ntag_68:\n    /* \"#utility.yul\":696:839   */\n  swap3\n  swap2\n  pop\n  pop\n  jump\t// out\n    /* \"#utility.yul\":845:922   */\ntag_39:\n    /* \"#utility.yul\":882:889   */\n  0x00\n    /* \"#utility.yul\":911:916   */\n  dup2\n    /* \"#utility.yul\":900:916   */\n  swap1\n  pop\n    /* \"#utility.yul\":845:922   */\n  swap2\n  swap1\n  pop\n  jump\t// out\n    /* \"#utility.yul\":928:1050   */\ntag_40:\n    /* \"#utility.yul\":1001:1025   */\n  tag_71\n    /* \"#utility.yul\":1019:1024   */\n  dup2\n    /* \"#utility.yul\":1001:1025   */\n  tag_39\n  jump\t// in\ntag_71:\n    /* \"#utility.yul\":994:999   */\n  dup2\n    /* \"#utility.yul\":991:1026   */\n  eq\n    /* \"#utility.yul\":981:1044   */\n  tag_72\n  jumpi\n    /* \"#utility.yul\":1040:1041   */\n  0x00\n    /* \"#utility.yul\":1037:1038   */\n  dup1\n    /* \"#utility.yul\":1030:1042   */\n  revert\n    /* \"#utility.yul\":981:1044   */\ntag_72:\n    /* \"#utility.yul\":928:1050   */\n  pop\n  jump\t// out\n    /* \"#utility.yul\":1056:1199   */\ntag_41:\n    /* \"#utility.yul\":1113:1118   */\n  0x00\n    /* \"#utility.yul\":1144:1150   */\n  dup2\n    /* \"#utility.yul\":1138:1151   */\n  mload\n    /* \"#utility.yul\":1129:1151   */\n  swap1\n  pop\n    /* \"#utility.yul\":1160:1193   */\n  tag_74\n    /* \"#utility.yul\":1187:1192   */\n  dup2\n    /* \"#utility.yul\":1160:1193   */\n  tag_40\n  jump\t// in\ntag_74:\n    /* \"#utility.yul\":1056:1199   */\n  swap3\n  swap2\n  pop\n  pop\n  jump\t// out\n    /* \"#utility.yul\":1205:2496   */\ntag_3:\n    /* \"#utility.yul\":1329:1335   */\n  0x00\n    /* \"#utility.yul\":1337:1343   */\n  dup1\n    /* \"#utility.yul\":1345:1351   */\n  0x00\n    /* \"#utility.yul\":1353:1359   */\n  dup1\n    /* \"#utility.yul\":1361:1367   */\n  0x00\n    /* \"#utility.yul\":1369:1375   */\n  dup1\n    /* \"#utility.yul\":1377:1383   */\n  0x00\n    /* \"#utility.yul\":1426:1429   */\n  0xe0\n    /* \"#utility.yul\":1414:1423   */\n  dup9\n    /* \"#utility.yul\":1405:1412   */\n  dup11\n    /* \"#utility.yul\":1401:1424   */\n  sub\n    /* \"#utility.yul\":1397:1430   */\n  slt\n    /* \"#utility.yul\":1394:1514   */\n  iszero\n  tag_76\n  jumpi\n    /* \"#utility.yul\":1433:1512   */\n  tag_77\n  tag_33\n  jump\t// in\ntag_77:\n    /* \"#utility.yul\":1394:1514   */\ntag_76:\n    /* \"#utility.yul\":1553:1554   */\n  0x00\n    /* \"#utility.yul\":1578:1642   */\n  tag_78\n    /* \"#utility.yul\":1634:1641   */\n  dup11\n    /* \"#utility.yul\":1625:1631   */\n  dup3\n    /* \"#utility.yul\":1614:1623   */\n  dup12\n    /* \"#utility.yul\":1610:1632   */\n  add\n    /* \"#utility.yul\":1578:1642   */\n  tag_38\n  jump\t// in\ntag_78:\n    /* \"#utility.yul\":1568:1642   */\n  swap8\n  pop\n    /* \"#utility.yul\":1524:1652   */\n  pop\n    /* \"#utility.yul\":1691:1693   */\n  0x20\n    /* \"#utility.yul\":1717:1781   */\n  tag_79\n    /* \"#utility.yul\":1773:1780   */\n  dup11\n    /* \"#utility.yul\":1764:1770   */\n  dup3\n    /* \"#utility.yul\":1753:1762   */\n  dup12\n    /* \"#utility.yul\":1749:1771   */\n  add\n    /* \"#utility.yul\":1717:1781   */\n  tag_38\n  jump\t// in\ntag_79:\n    /* \"#utility.yul\":1707:1781   */\n  swap7\n  pop\n    /* \"#utility.yul\":1662:1791   */\n  pop\n    /* \"#utility.yul\":1830:1832   */\n  0x40\n    /* \"#utility.yul\":1856:1920   */\n  tag_80\n    /* \"#utility.yul\":1912:1919   */\n  dup11\n    /* \"#utility.yul\":1903:1909   */\n  dup3\n    /* \"#utility.yul\":1892:1901   */\n  dup12\n    /* \"#utility.yul\":1888:1910   */\n  add\n    /* \"#utility.yul\":1856:1920   */\n  tag_38\n  jump\t// in\ntag_80:\n    /* \"#utility.yul\":1846:1920   */\n  swap6\n  pop\n    /* \"#utility.yul\":1801:1930   */\n  pop\n    /* \"#utility.yul\":1969:1971   */\n  0x60\n    /* \"#utility.yul\":1995:2059   */\n  tag_81\n    /* \"#utility.yul\":2051:2058   */\n  dup11\n    /* \"#utility.yul\":2042:2048   */\n  dup3\n    /* \"#utility.yul\":2031:2040   */\n  dup12\n    /* \"#utility.yul\":2027:2049   */\n  add\n    /* \"#utility.yul\":1995:2059   */\n  tag_38\n  jump\t// in\ntag_81:\n    /* \"#utility.yul\":1985:2059   */\n  swap5\n  pop\n    /* \"#utility.yul\":1940:2069   */\n  pop\n    /* \"#utility.yul\":2108:2111   */\n  0x80\n    /* \"#utility.yul\":2135:2199   */\n  tag_82\n    /* \"#utility.yul\":2191:2198   */\n  dup11\n    /* \"#utility.yul\":2182:2188   */\n  dup3\n    /* \"#utility.yul\":2171:2180   */\n  dup12\n    /* \"#utility.yul\":2167:2189   */\n  add\n    /* \"#utility.yul\":2135:2199   */\n  tag_41\n  jump\t// in\ntag_82:\n    /* \"#utility.yul\":2125:2199   */\n  swap4\n  pop\n    /* \"#utility.yul\":2079:2209   */\n  pop\n    /* \"#utility.yul\":2248:2251   */\n  0xa0\n    /* \"#utility.yul\":2275:2339   */\n  tag_83\n    /* \"#utility.yul\":2331:2338   */\n  dup11\n    /* \"#utility.yul\":2322:2328   */\n  dup3\n    /* \"#utility.yul\":2311:2320   */\n  dup12\n    /* \"#utility.yul\":2307:2329   */\n  add\n    /* \"#utility.yul\":2275:2339   */\n  tag_41\n  jump\t// in\ntag_83:\n    /* \"#utility.yul\":2265:2339   */\n  swap3\n  pop\n    /* \"#utility.yul\":2219:2349   */\n  pop\n    /* \"#utility.yul\":2388:2391   */\n  0xc0\n    /* \"#utility.yul\":2415:2479   */\n  tag_84\n    /* \"#utility.yul\":2471:2478   */\n  dup11\n    /* \"#utility.yul\":2462:2468   */\n  dup3\n    /* \"#utility.yul\":2451:2460   */\n  dup12\n    /* \"#utility.yul\":2447:2469   */\n  add\n    /* \"#utility.yul\":2415:2479   */\n  tag_41\n  jump\t// in\ntag_84:\n    /* \"#utility.yul\":2405:2479   */\n  swap2\n  pop\n    /* \"#utility.yul\":2359:2489   */\n  pop\n    /* \"#utility.yul\":1205:2496   */\n  swap3\n  swap6\n  swap9\n  swap2\n  swap5\n  swap8\n  pop\n  swap3\n  swap6\n  pop\n  jump\t// out\n    /* \"#utility.yul\":2502:2671   */\ntag_42:\n    /* \"#utility.yul\":2586:2597   */\n  0x00\n    /* \"#utility.yul\":2620:2626   */\n  dup3\n    /* \"#utility.yul\":2615:2618   */\n  dup3\n    /* \"#utility.yul\":2608:2627   */\n  mstore\n    /* \"#utility.yul\":2660:2664   */\n  0x20\n    /* \"#utility.yul\":2655:2658   */\n  dup3\n    /* \"#utility.yul\":2651:2665   */\n  add\n    /* \"#utility.yul\":2636:2665   */\n  swap1\n  pop\n    /* \"#utility.yul\":2502:2671   */\n  swap3\n  swap2\n  pop\n  pop\n  jump\t// out\n    /* \"#utility.yul\":2677:2856   */\ntag_43:\n    /* \"#utility.yul\":2817:2848   */\n  0x496e76616c6964207061796d656e7420746f6b656e2061646472657373000000\n    /* \"#utility.yul\":2813:2814   */\n  0x00\n    /* \"#utility.yul\":2805:2811   */\n  dup3\n    /* \"#utility.yul\":2801:2815   */\n  add\n    /* \"#utility.yul\":2794:2849   */\n  mstore\n    /* \"#utility.yul\":2677:2856   */\n  pop\n  jump\t// out\n    /* \"#utility.yul\":2862:3228   */\ntag_44:\n    /* \"#utility.yul\":3004:3007   */\n  0x00\n    /* \"#utility.yul\":3025:3092   */\n  tag_88\n    /* \"#utility.yul\":3089:3091   */\n  0x1d\n    /* \"#utility.yul\":3084:3087   */\n  dup4\n    /* \"#utility.yul\":3025:3092   */\n  tag_42\n  jump\t// in\ntag_88:\n    /* \"#utility.yul\":3018:3092   */\n  swap2\n  pop\n    /* \"#utility.yul\":3101:3194   */\n  tag_89\n    /* \"#utility.yul\":3190:3193   */\n  dup3\n    /* \"#utility.yul\":3101:3194   */\n  tag_43\n  jump\t// in\ntag_89:\n    /* \"#utility.yul\":3219:3221   */\n  0x20\n    /* \"#utility.yul\":3214:3217   */\n  dup3\n    /* \"#utility.yul\":3210:3222   */\n  add\n    /* \"#utility.yul\":3203:3222   */\n  swap1\n  pop\n    /* \"#utility.yul\":2862:3228   */\n  swap2\n  swap1\n  pop\n  jump\t// out\n    /* \"#utility.yul\":3234:3653   */\ntag_12:\n    /* \"#utility.yul\":3400:3404   */\n  0x00\n    /* \"#utility.yul\":3438:3440   */\n  0x20\n    /* \"#utility.yul\":3427:3436   */\n  dup3\n    /* \"#utility.yul\":3423:3441   */\n  add\n    /* \"#utility.yul\":3415:3441   */\n  swap1\n  pop\n    /* \"#utility.yul\":3487:3496   */\n  dup2\n    /* \"#utility.yul\":3481:3485   */\n  dup2\n    /* \"#utility.yul\":3477:3497   */\n  sub\n    /* \"#utility.yul\":3473:3474   */\n  0x00\n    /* \"#utility.yul\":3462:3471   */\n  dup4\n    /* \"#utility.yul\":3458:3475   */\n  add\n    /* \"#utility.yul\":3451:3498   */\n  mstore\n    /* \"#utility.yul\":3515:3646   */\n  tag_91\n    /* \"#utility.yul\":3641:3645   */\n  dup2\n    /* \"#utility.yul\":3515:3646   */\n  tag_44\n  jump\t// in\ntag_91:\n    /* \"#utility.yul\":3507:3646   */\n  swap1\n  pop\n    /* \"#utility.yul\":3234:3653   */\n  swap2\n  swap1\n  pop\n  jump\t// out\n    /* \"#utility.yul\":3659:3840   */\ntag_45:\n    /* \"#utility.yul\":3799:3832   */\n  0x496e76616c696420526f626f4d6f6e657920746f6b656e206164647265737300\n    /* \"#utility.yul\":3795:3796   */\n  0x00\n    /* \"#utility.yul\":3787:3793   */\n  dup3\n    /* \"#utility.yul\":3783:3797   */\n  add\n    /* \"#utility.yul\":3776:3833   */\n  mstore\n    /* \"#utility.yul\":3659:3840   */\n  pop\n  jump\t// out\n    /* \"#utility.yul\":3846:4212   */\ntag_46:\n    /* \"#utility.yul\":3988:3991   */\n  0x00\n    /* \"#utility.yul\":4009:4076   */\n  tag_94\n    /* \"#utility.yul\":4073:4075   */\n  0x1f\n    /* \"#utility.yul\":4068:4071   */\n  dup4\n    /* \"#utility.yul\":4009:4076   */\n  tag_42\n  jump\t// in\ntag_94:\n    /* \"#utility.yul\":4002:4076   */\n  swap2\n  pop\n    /* \"#utility.yul\":4085:4178   */\n  tag_95\n    /* \"#utility.yul\":4174:4177   */\n  dup3\n    /* \"#utility.yul\":4085:4178   */\n  tag_45\n  jump\t// in\ntag_95:\n    /* \"#utility.yul\":4203:4205   */\n  0x20\n    /* \"#utility.yul\":4198:4201   */\n  dup3\n    /* \"#utility.yul\":4194:4206   */\n  add\n    /* \"#utility.yul\":4187:4206   */\n  swap1\n  pop\n    /* \"#utility.yul\":3846:4212   */\n  swap2\n  swap1\n  pop\n  jump\t// out\n    /* \"#utility.yul\":4218:4637   */\ntag_15:\n    /* \"#utility.yul\":4384:4388   */\n  0x00\n    /* \"#utility.yul\":4422:4424   */\n  0x20\n    /* \"#utility.yul\":4411:4420   */\n  dup3\n    /* \"#utility.yul\":4407:4425   */\n  add\n    /* \"#utility.yul\":4399:4425   */\n  swap1\n  pop\n    /* \"#utility.yul\":4471:4480   */\n  dup2\n    /* \"#utility.yul\":4465:4469   */\n  dup2\n    /* \"#utility.yul\":4461:4481   */\n  sub\n    /* \"#utility.yul\":4457:4458   */\n  0x00\n    /* \"#utility.yul\":4446:4455   */\n  dup4\n    /* \"#utility.yul\":4442:4459   */\n  add\n    /* \"#utility.yul\":4435:4482   */\n  mstore\n    /* \"#utility.yul\":4499:4630   */\n  tag_97\n    /* \"#utility.yul\":4625:4629   */\n  dup2\n    /* \"#utility.yul\":4499:4630   */\n  tag_46\n  jump\t// in\ntag_97:\n    /* \"#utility.yul\":4491:4630   */\n  swap1\n  pop\n    /* \"#utility.yul\":4218:4637   */\n  swap2\n  swap1\n  pop\n  jump\t// out\n    /* \"#utility.yul\":4643:4822   */\ntag_47:\n    /* \"#utility.yul\":4783:4814   */\n  0x496e76616c696420626f6e642072656365697665722061646472657373000000\n    /* \"#utility.yul\":4779:4780   */\n  0x00\n    /* \"#utility.yul\":4771:4777   */\n  dup3\n    /* \"#utility.yul\":4767:4781   */\n  add\n    /* \"#utility.yul\":4760:4815   */\n  mstore\n    /* \"#utility.yul\":4643:4822   */\n  pop\n  jump\t// out\n    /* \"#utility.yul\":4828:5194   */\ntag_48:\n    /* \"#utility.yul\":4970:4973   */\n  0x00\n    /* \"#utility.yul\":4991:5058   */\n  tag_100\n    /* \"#utility.yul\":5055:5057   */\n  0x1d\n    /* \"#utility.yul\":5050:5053   */\n  dup4\n    /* \"#utility.yul\":4991:5058   */\n  tag_42\n  jump\t// in\ntag_100:\n    /* \"#utility.yul\":4984:5058   */\n  swap2\n  pop\n    /* \"#utility.yul\":5067:5160   */\n  tag_101\n    /* \"#utility.yul\":5156:5159   */\n  dup3\n    /* \"#utility.yul\":5067:5160   */\n  tag_47\n  jump\t// in\ntag_101:\n    /* \"#utility.yul\":5185:5187   */\n  0x20\n    /* \"#utility.yul\":5180:5183   */\n  dup3\n    /* \"#utility.yul\":5176:5188   */\n  add\n    /* \"#utility.yul\":5169:5188   */\n  swap1\n  pop\n    /* \"#utility.yul\":4828:5194   */\n  swap2\n  swap1\n  pop\n  jump\t// out\n    /* \"#utility.yul\":5200:5619   */\ntag_18:\n    /* \"#utility.yul\":5366:5370   */\n  0x00\n    /* \"#utility.yul\":5404:5406   */\n  0x20\n    /* \"#utility.yul\":5393:5402   */\n  dup3\n    /* \"#utility.yul\":5389:5407   */\n  add\n    /* \"#utility.yul\":5381:5407   */\n  swap1\n  pop\n    /* \"#utility.yul\":5453:5462   */\n  dup2\n    /* \"#utility.yul\":5447:5451   */\n  dup2\n    /* \"#utility.yul\":5443:5463   */\n  sub\n    /* \"#utility.yul\":5439:5440   */\n  0x00\n    /* \"#utility.yul\":5428:5437   */\n  dup4\n    /* \"#utility.yul\":5424:5441   */\n  add\n    /* \"#utility.yul\":5417:5464   */\n  mstore\n    /* \"#utility.yul\":5481:5612   */\n  tag_103\n    /* \"#utility.yul\":5607:5611   */\n  dup2\n    /* \"#utility.yul\":5481:5612   */\n  tag_48\n  jump\t// in\ntag_103:\n    /* \"#utility.yul\":5473:5612   */\n  swap1\n  pop\n    /* \"#utility.yul\":5200:5619   */\n  swap2\n  swap1\n  pop\n  jump\t// out\n    /* \"#utility.yul\":5625:5802   */\ntag_49:\n    /* \"#utility.yul\":5765:5794   */\n  0x496e76616c696420676173207265736572766520616464726573730000000000\n    /* \"#utility.yul\":5761:5762   */\n  0x00\n    /* \"#utility.yul\":5753:5759   */\n  dup3\n    /* \"#utility.yul\":5749:5763   */\n  add\n    /* \"#utility.yul\":5742:5795   */\n  mstore\n    /* \"#utility.yul\":5625:5802   */\n  pop\n  jump\t// out\n    /* \"#utility.yul\":5808:6174   */\ntag_50:\n    /* \"#utility.yul\":5950:5953   */\n  0x00\n    /* \"#utility.yul\":5971:6038   */\n  tag_106\n    /* \"#utility.yul\":6035:6037   */\n  0x1b\n    /* \"#utility.yul\":6030:6033   */\n  dup4\n    /* \"#utility.yul\":5971:6038   */\n  tag_42\n  jump\t// in\ntag_106:\n    /* \"#utility.yul\":5964:6038   */\n  swap2\n  pop\n    /* \"#utility.yul\":6047:6140   */\n  tag_107\n    /* \"#utility.yul\":6136:6139   */\n  dup3\n    /* \"#utility.yul\":6047:6140   */\n  tag_49\n  jump\t// in\ntag_107:\n    /* \"#utility.yul\":6165:6167   */\n  0x20\n    /* \"#utility.yul\":6160:6163   */\n  dup3\n    /* \"#utility.yul\":6156:6168   */\n  add\n    /* \"#utility.yul\":6149:6168   */\n  swap1\n  pop\n    /* \"#utility.yul\":5808:6174   */\n  swap2\n  swap1\n  pop\n  jump\t// out\n    /* \"#utility.yul\":6180:6599   */\ntag_21:\n    /* \"#utility.yul\":6346:6350   */\n  0x00\n    /* \"#utility.yul\":6384:6386   */\n  0x20\n    /* \"#utility.yul\":6373:6382   */\n  dup3\n    /* \"#utility.yul\":6369:6387   */\n  add\n    /* \"#utility.yul\":6361:6387   */\n  swap1\n  pop\n    /* \"#utility.yul\":6433:6442   */\n  dup2\n    /* \"#utility.yul\":6427:6431   */\n  dup2\n    /* \"#utility.yul\":6423:6443   */\n  sub\n    /* \"#utility.yul\":6419:6420   */\n  0x00\n    /* \"#utility.yul\":6408:6417   */\n  dup4\n    /* \"#utility.yul\":6404:6421   */\n  add\n    /* \"#utility.yul\":6397:6444   */\n  mstore\n    /* \"#utility.yul\":6461:6592   */\n  tag_109\n    /* \"#utility.yul\":6587:6591   */\n  dup2\n    /* \"#utility.yul\":6461:6592   */\n  tag_50\n  jump\t// in\ntag_109:\n    /* \"#utility.yul\":6453:6592   */\n  swap1\n  pop\n    /* \"#utility.yul\":6180:6599   */\n  swap2\n  swap1\n  pop\n  jump\t// out\n    /* \"#utility.yul\":6605:6783   */\ntag_51:\n    /* \"#utility.yul\":6745:6775   */\n  0x446973636f756e742072617465206d757374206265203c203130302500000000\n    /* \"#utility.yul\":6741:6742   */\n  0x00\n    /* \"#utility.yul\":6733:6739   */\n  dup3\n    /* \"#utility.yul\":6729:6743   */\n  add\n    /* \"#utility.yul\":6722:6776   */\n  mstore\n    /* \"#utility.yul\":6605:6783   */\n  pop\n  jump\t// out\n    /* \"#utility.yul\":6789:7155   */\ntag_52:\n    /* \"#utility.yul\":6931:6934   */\n  0x00\n    /* \"#utility.yul\":6952:7019   */\n  tag_112\n    /* \"#utility.yul\":7016:7018   */\n  0x1c\n    /* \"#utility.yul\":7011:7014   */\n  dup4\n    /* \"#utility.yul\":6952:7019   */\n  tag_42\n  jump\t// in\ntag_112:\n    /* \"#utility.yul\":6945:7019   */\n  swap2\n  pop\n    /* \"#utility.yul\":7028:7121   */\n  tag_113\n    /* \"#utility.yul\":7117:7120   */\n  dup3\n    /* \"#utility.yul\":7028:7121   */\n  tag_51\n  jump\t// in\ntag_113:\n    /* \"#utility.yul\":7146:7148   */\n  0x20\n    /* \"#utility.yul\":7141:7144   */\n  dup3\n    /* \"#utility.yul\":7137:7149   */\n  add\n    /* \"#utility.yul\":7130:7149   */\n  swap1\n  pop\n    /* \"#utility.yul\":6789:7155   */\n  swap2\n  swap1\n  pop\n  jump\t// out\n    /* \"#utility.yul\":7161:7580   */\ntag_24:\n    /* \"#utility.yul\":7327:7331   */\n  0x00\n    /* \"#utility.yul\":7365:7367   */\n  0x20\n    /* \"#utility.yul\":7354:7363   */\n  dup3\n    /* \"#utility.yul\":7350:7368   */\n  add\n    /* \"#utility.yul\":7342:7368   */\n  swap1\n  pop\n    /* \"#utility.yul\":7414:7423   */\n  dup2\n    /* \"#utility.yul\":7408:7412   */\n  dup2\n    /* \"#utility.yul\":7404:7424   */\n  sub\n    /* \"#utility.yul\":7400:7401   */\n  0x00\n    /* \"#utility.yul\":7389:7398   */\n  dup4\n    /* \"#utility.yul\":7385:7402   */\n  add\n    /* \"#utility.yul\":7378:7425   */\n  mstore\n    /* \"#utility.yul\":7442:7573   */\n  tag_115\n    /* \"#utility.yul\":7568:7572   */\n  dup2\n    /* \"#utility.yul\":7442:7573   */\n  tag_52\n  jump\t// in\ntag_115:\n    /* \"#utility.yul\":7434:7573   */\n  swap1\n  pop\n    /* \"#utility.yul\":7161:7580   */\n  swap2\n  swap1\n  pop\n  jump\t// out\n    /* \"#utility.yul\":7586:7760   */\ntag_53:\n    /* \"#utility.yul\":7726:7752   */\n  0x546172676574207072696365206d757374206265203e20300000000000000000\n    /* \"#utility.yul\":7722:7723   */\n  0x00\n    /* \"#utility.yul\":7714:7720   */\n  dup3\n    /* \"#utility.yul\":7710:7724   */\n  add\n    /* \"#utility.yul\":7703:7753   */\n  mstore\n    /* \"#utility.yul\":7586:7760   */\n  pop\n  jump\t// out\n    /* \"#utility.yul\":7766:8132   */\ntag_54:\n    /* \"#utility.yul\":7908:7911   */\n  0x00\n    /* \"#utility.yul\":7929:7996   */\n  tag_118\n    /* \"#utility.yul\":7993:7995   */\n  0x18\n    /* \"#utility.yul\":7988:7991   */\n  dup4\n    /* \"#utility.yul\":7929:7996   */\n  tag_42\n  jump\t// in\ntag_118:\n    /* \"#utility.yul\":7922:7996   */\n  swap2\n  pop\n    /* \"#utility.yul\":8005:8098   */\n  tag_119\n    /* \"#utility.yul\":8094:8097   */\n  dup3\n    /* \"#utility.yul\":8005:8098   */\n  tag_53\n  jump\t// in\ntag_119:\n    /* \"#utility.yul\":8123:8125   */\n  0x20\n    /* \"#utility.yul\":8118:8121   */\n  dup3\n    /* \"#utility.yul\":8114:8126   */\n  add\n    /* \"#utility.yul\":8107:8126   */\n  swap1\n  pop\n    /* \"#utility.yul\":7766:8132   */\n  swap2\n  swap1\n  pop\n  jump\t// out\n    /* \"#utility.yul\":8138:8557   */\ntag_27:\n    /* \"#utility.yul\":8304:8308   */\n  0x00\n    /* \"#utility.yul\":8342:8344   */\n  0x20\n    /* \"#utility.yul\":8331:8340   */\n  dup3\n    /* \"#utility.yul\":8327:8345   */\n  add\n    /* \"#utility.yul\":8319:8345   */\n  swap1\n  pop\n    /* \"#utility.yul\":8391:8400   */\n  dup2\n    /* \"#utility.yul\":8385:8389   */\n  dup2\n    /* \"#utility.yul\":8381:8401   */\n  sub\n    /* \"#utility.yul\":8377:8378   */\n  0x00\n    /* \"#utility.yul\":8366:8375   */\n  dup4\n    /* \"#utility.yul\":8362:8379   */\n  add\n    /* \"#utility.yul\":8355:8402   */\n  mstore\n    /* \"#utility.yul\":8419:8550   */\n  tag_121\n    /* \"#utility.yul\":8545:8549   */\n  dup2\n    /* \"#utility.yul\":8419:8550   */\n  tag_54\n  jump\t// in\ntag_121:\n    /* \"#utility.yul\":8411:8550   */\n  swap1\n  pop\n    /* \"#utility.yul\":8138:8557   */\n  swap2\n  swap1\n  pop\n  jump\t// out\n    /* \"#utility.yul\":8563:8730   */\ntag_55:\n    /* \"#utility.yul\":8703:8722   */\n  0x546178207261746520746f6f2068696768000000000000000000000000000000\n    /* \"#utility.yul\":8699:8700   */\n  0x00\n    /* \"#utility.yul\":8691:8697   */\n  dup3\n    /* \"#utility.yul\":8687:8701   */\n  add\n    /* \"#utility.yul\":8680:8723   */\n  mstore\n    /* \"#utility.yul\":8563:8730   */\n  pop\n  jump\t// out\n    /* \"#utility.yul\":8736:9102   */\ntag_56:\n    /* \"#utility.yul\":8878:8881   */\n  0x00\n    /* \"#utility.yul\":8899:8966   */\n  tag_124\n    /* \"#utility.yul\":8963:8965   */\n  0x11\n    /* \"#utility.yul\":8958:8961   */\n  dup4\n    /* \"#utility.yul\":8899:8966   */\n  tag_42\n  jump\t// in\ntag_124:\n    /* \"#utility.yul\":8892:8966   */\n  swap2\n  pop\n    /* \"#utility.yul\":8975:9068   */\n  tag_125\n    /* \"#utility.yul\":9064:9067   */\n  dup3\n    /* \"#utility.yul\":8975:9068   */\n  tag_55\n  jump\t// in\ntag_125:\n    /* \"#utility.yul\":9093:9095   */\n  0x20\n    /* \"#utility.yul\":9088:9091   */\n  dup3\n    /* \"#utility.yul\":9084:9096   */\n  add\n    /* \"#utility.yul\":9077:9096   */\n  swap1\n  pop\n    /* \"#utility.yul\":8736:9102   */\n  swap2\n  swap1\n  pop\n  jump\t// out\n    /* \"#utility.yul\":9108:9527   */\ntag_30:\n    /* \"#utility.yul\":9274:9278   */\n  0x00\n    /* \"#utility.yul\":9312:9314   */\n  0x20\n    /* \"#utility.yul\":9301:9310   */\n  dup3\n    /* \"#utility.yul\":9297:9315   */\n  add\n    /* \"#utility.yul\":9289:9315   */\n  swap1\n  pop\n    /* \"#utility.yul\":9361:9370   */\n  dup2\n    /* \"#utility.yul\":9355:9359   */\n  dup2\n    /* \"#utility.yul\":9351:9371   */\n  sub\n    /* \"#utility.yul\":9347:9348   */\n  0x00\n    /* \"#utility.yul\":9336:9345   */\n  dup4\n    /* \"#utility.yul\":9332:9349   */\n  add\n    /* \"#utility.yul\":9325:9372   */\n  mstore\n    /* \"#utility.yul\":9389:9520   */\n  tag_127\n    /* \"#utility.yul\":9515:9519   */\n  dup2\n    /* \"#utility.yul\":9389:9520   */\n  tag_56\n  jump\t// in\ntag_127:\n    /* \"#utility.yul\":9381:9520   */\n  swap1\n  pop\n    /* \"#utility.yul\":9108:9527   */\n  swap2\n  swap1\n  pop\n  jump\t// out\n    /* \"contracts/bonding_contract.sol\":2791:10482  contract Bonding is Pausable, ReentrancyGuard {... */\ntag_31:\n  dataSize(sub_0)\n  dup1\n  dataOffset(sub_0)\n  0x00\n  codecopy\n  0x00\n  return\nstop\n\nsub_0: assembly {\n        /* \"contracts/bonding_contract.sol\":2791:10482  contract Bonding is Pausable, ReentrancyGuard {... */\n      mstore(0x40, 0x80)\n      callvalue\n      dup1\n      iszero\n      tag_1\n      jumpi\n      0x00\n      dup1\n      revert\n    tag_1:\n      pop\n      jumpi(tag_2, lt(calldatasize, 0x04))\n      shr(0xe0, calldataload(0x00))\n      dup1\n      0x9170b135\n      gt\n      tag_24\n      jumpi\n      dup1\n      0xcc7fffbe\n      gt\n      tag_25\n      jumpi\n      dup1\n      0xcc7fffbe\n      eq\n      tag_18\n      jumpi\n      dup1\n      0xd4a49c17\n      eq\n      tag_19\n      jumpi\n      dup1\n      0xdc38679c\n      eq\n      tag_20\n      jumpi\n      dup1\n      0xe6c0e6d5\n      eq\n      tag_21\n      jumpi\n      dup1\n      0xeea7570e\n      eq\n      tag_22\n      jumpi\n      dup1\n      0xf2fde38b\n      eq\n      tag_23\n      jumpi\n      jump(tag_2)\n    tag_25:\n      dup1\n      0x9170b135\n      eq\n      tag_13\n      jumpi\n      dup1\n      0x9940686e\n      eq\n      tag_14\n      jumpi\n      dup1\n      0xa933ac74\n      eq\n      tag_15\n      jumpi\n      dup1\n      0xc404836b\n      eq\n      tag_16\n      jumpi\n      dup1\n      0xc6d69a30\n      eq\n      tag_17\n      jumpi\n      jump(tag_2)\n    tag_24:\n      dup1\n      0x771a3a1d\n      gt\n      tag_26\n      jumpi\n      dup1\n      0x771a3a1d\n      eq\n      tag_8\n      jumpi\n      dup1\n      0x7ef7ba20\n      eq\n      tag_9\n      jumpi\n      dup1\n      0x8456cb59\n      eq\n      tag_10\n      jumpi\n      dup1\n      0x89f1aa22\n      eq\n      tag_11\n      jumpi\n      dup1\n      0x8da5cb5b\n      eq\n      tag_12\n      jumpi\n      jump(tag_2)\n    tag_26:\n      dup1\n      0x126cbe60\n      eq\n      tag_3\n      jumpi\n      dup1\n      0x3013ce29\n      eq\n      tag_4\n      jumpi\n      dup1\n      0x3f4ba83a\n      eq\n      tag_5\n      jumpi\n      dup1\n      0x5c975abb\n      eq\n      tag_6\n      jumpi\n      dup1\n      0x6a64eff8\n      eq\n      tag_7\n      jumpi\n    tag_2:\n      0x00\n      dup1\n      revert\n        /* \"contracts/bonding_contract.sol\":9921:10056  function checkTokenBalance(address user) external view returns (uint256) {... */\n    tag_3:\n      tag_27\n      0x04\n      dup1\n      calldatasize\n      sub\n      dup2\n      add\n      swap1\n      tag_28\n      swap2\n      swap1\n      tag_29\n      jump\t// in\n    tag_28:\n      tag_30\n      jump\t// in\n    tag_27:\n      mload(0x40)\n      tag_31\n      swap2\n      swap1\n      tag_32\n      jump\t// in\n    tag_31:\n      mload(0x40)\n      dup1\n      swap2\n      sub\n      swap1\n      return\n        /* \"contracts/bonding_contract.sol\":2871:2898  address public paymentToken */\n    tag_4:\n      tag_33\n      tag_34\n      jump\t// in\n    tag_33:\n      mload(0x40)\n      tag_35\n      swap2\n      swap1\n      tag_36\n      jump\t// in\n    tag_35:\n      mload(0x40)\n      dup1\n      swap2\n      sub\n      swap1\n      return\n        /* \"contracts/bonding_contract.sol\":5707:5774  function unpause() external onlyOwner {... */\n    tag_5:\n      tag_37\n      tag_38\n      jump\t// in\n    tag_37:\n      stop\n        /* \"contracts/bonding_contract.sol\":1149:1235  function paused() public view virtual returns (bool) {... */\n    tag_6:\n      tag_39\n      tag_40\n      jump\t// in\n    tag_39:\n      mload(0x40)\n      tag_41\n      swap2\n      swap1\n      tag_42\n      jump\t// in\n    tag_41:\n      mload(0x40)\n      dup1\n      swap2\n      sub\n      swap1\n      return\n        /* \"contracts/bonding_contract.sol\":10369:10479  function setTargetPrice(uint256 _targetPrice) external onlyOwner {... */\n    tag_7:\n      tag_43\n      0x04\n      dup1\n      calldatasize\n      sub\n      dup2\n      add\n      swap1\n      tag_44\n      swap2\n      swap1\n      tag_45\n      jump\t// in\n    tag_44:\n      tag_46\n      jump\t// in\n    tag_43:\n      stop\n        /* \"contracts/bonding_contract.sol\":3230:3252  uint256 public taxRate */\n    tag_8:\n      tag_47\n      tag_48\n      jump\t// in\n    tag_47:\n      mload(0x40)\n      tag_49\n      swap2\n      swap1\n      tag_32\n      jump\t// in\n    tag_49:\n      mload(0x40)\n      dup1\n      swap2\n      sub\n      swap1\n      return\n        /* \"contracts/bonding_contract.sol\":2948:2972  address public roboMoney */\n    tag_9:\n      tag_50\n      tag_51\n      jump\t// in\n    tag_50:\n      mload(0x40)\n      tag_52\n      swap2\n      swap1\n      tag_36\n      jump\t// in\n    tag_52:\n      mload(0x40)\n      dup1\n      swap2\n      sub\n      swap1\n      return\n        /* \"contracts/bonding_contract.sol\":5567:5630  function pause() external onlyOwner {... */\n    tag_10:\n      tag_53\n      tag_54\n      jump\t// in\n    tag_53:\n      stop\n        /* \"contracts/bonding_contract.sol\":9761:9913  function checkTokenAllowance(address user) external view returns (uint256) {... */\n    tag_11:\n      tag_55\n      0x04\n      dup1\n      calldatasize\n      sub\n      dup2\n      add\n      swap1\n      tag_56\n      swap2\n      swap1\n      tag_29\n      jump\t// in\n    tag_56:\n      tag_57\n      jump\t// in\n    tag_55:\n      mload(0x40)\n      tag_58\n      swap2\n      swap1\n      tag_32\n      jump\t// in\n    tag_58:\n      mload(0x40)\n      dup1\n      swap2\n      sub\n      swap1\n      return\n        /* \"contracts/bonding_contract.sol\":2844:2864  address public owner */\n    tag_12:\n      tag_59\n      tag_60\n      jump\t// in\n    tag_59:\n      mload(0x40)\n      tag_61\n      swap2\n      swap1\n      tag_36\n      jump\t// in\n    tag_61:\n      mload(0x40)\n      dup1\n      swap2\n      sub\n      swap1\n      return\n        /* \"contracts/bonding_contract.sol\":9288:9558  function setBondReceiver(address _newBondReceiver) external onlyOwner {... */\n    tag_13:\n      tag_62\n      0x04\n      dup1\n      calldatasize\n      sub\n      dup2\n      add\n      swap1\n      tag_63\n      swap2\n      swap1\n      tag_29\n      jump\t// in\n    tag_63:\n      tag_64\n      jump\t// in\n    tag_62:\n      stop\n        /* \"contracts/bonding_contract.sol\":6357:8204  function bond(uint256 tokenAmount) external whenNotPaused nonReentrant  {... */\n    tag_14:\n      tag_65\n      0x04\n      dup1\n      calldatasize\n      sub\n      dup2\n      add\n      swap1\n      tag_66\n      swap2\n      swap1\n      tag_45\n      jump\t// in\n    tag_66:\n      tag_67\n      jump\t// in\n    tag_65:\n      stop\n        /* \"contracts/bonding_contract.sol\":10212:10357  function checkContractRoboMoneyBalance() external view returns (uint256) {... */\n    tag_15:\n      tag_68\n      tag_69\n      jump\t// in\n    tag_68:\n      mload(0x40)\n      tag_70\n      swap2\n      swap1\n      tag_32\n      jump\t// in\n    tag_70:\n      mload(0x40)\n      dup1\n      swap2\n      sub\n      swap1\n      return\n        /* \"contracts/bonding_contract.sol\":3010:3037  address public bondReceiver */\n    tag_16:\n      tag_71\n      tag_72\n      jump\t// in\n    tag_71:\n      mload(0x40)\n      tag_73\n      swap2\n      swap1\n      tag_36\n      jump\t// in\n    tag_73:\n      mload(0x40)\n      dup1\n      swap2\n      sub\n      swap1\n      return\n        /* \"contracts/bonding_contract.sol\":8651:8858  function setTaxRate(uint256 _newTaxRate) external onlyOwner {... */\n    tag_17:\n      tag_74\n      0x04\n      dup1\n      calldatasize\n      sub\n      dup2\n      add\n      swap1\n      tag_75\n      swap2\n      swap1\n      tag_45\n      jump\t// in\n    tag_75:\n      tag_76\n      jump\t// in\n    tag_74:\n      stop\n        /* \"contracts/bonding_contract.sol\":10064:10204  function checkRoboMoneyBalance(address user) external view returns (uint256) {... */\n    tag_18:\n      tag_77\n      0x04\n      dup1\n      calldatasize\n      sub\n      dup2\n      add\n      swap1\n      tag_78\n      swap2\n      swap1\n      tag_29\n      jump\t// in\n    tag_78:\n      tag_79\n      jump\t// in\n    tag_77:\n      mload(0x40)\n      tag_80\n      swap2\n      swap1\n      tag_32\n      jump\t// in\n    tag_80:\n      mload(0x40)\n      dup1\n      swap2\n      sub\n      swap1\n      return\n        /* \"contracts/bonding_contract.sol\":8403:8643  function setGasReserve(address _newGasReserve) external onlyOwner {... */\n    tag_19:\n      tag_81\n      0x04\n      dup1\n      calldatasize\n      sub\n      dup2\n      add\n      swap1\n      tag_82\n      swap2\n      swap1\n      tag_29\n      jump\t// in\n    tag_82:\n      tag_83\n      jump\t// in\n    tag_81:\n      stop\n        /* \"contracts/bonding_contract.sol\":3139:3165  uint256 public targetPrice */\n    tag_20:\n      tag_84\n      tag_85\n      jump\t// in\n    tag_84:\n      mload(0x40)\n      tag_86\n      swap2\n      swap1\n      tag_32\n      jump\t// in\n    tag_86:\n      mload(0x40)\n      dup1\n      swap2\n      sub\n      swap1\n      return\n        /* \"contracts/bonding_contract.sol\":3078:3105  uint256 public discountRate */\n    tag_21:\n      tag_87\n      tag_88\n      jump\t// in\n    tag_87:\n      mload(0x40)\n      tag_89\n      swap2\n      swap1\n      tag_32\n      jump\t// in\n    tag_89:\n      mload(0x40)\n      dup1\n      swap2\n      sub\n      swap1\n      return\n        /* \"contracts/bonding_contract.sol\":3044:3069  address public gasReserve */\n    tag_22:\n      tag_90\n      tag_91\n      jump\t// in\n    tag_90:\n      mload(0x40)\n      tag_92\n      swap2\n      swap1\n      tag_36\n      jump\t// in\n    tag_92:\n      mload(0x40)\n      dup1\n      swap2\n      sub\n      swap1\n      return\n        /* \"contracts/bonding_contract.sol\":9050:9280  function transferOwnership(address newOwner) external onlyOwner {... */\n    tag_23:\n      tag_93\n      0x04\n      dup1\n      calldatasize\n      sub\n      dup2\n      add\n      swap1\n      tag_94\n      swap2\n      swap1\n      tag_29\n      jump\t// in\n    tag_94:\n      tag_95\n      jump\t// in\n    tag_93:\n      stop\n        /* \"contracts/bonding_contract.sol\":9921:10056  function checkTokenBalance(address user) external view returns (uint256) {... */\n    tag_30:\n        /* \"contracts/bonding_contract.sol\":9985:9992  uint256 */\n      0x00\n        /* \"contracts/bonding_contract.sol\":10019:10031  paymentToken */\n      0x03\n      0x00\n      swap1\n      sload\n      swap1\n      0x0100\n      exp\n      swap1\n      div\n      0xffffffffffffffffffffffffffffffffffffffff\n      and\n        /* \"contracts/bonding_contract.sol\":10012:10042  IERC20(paymentToken).balanceOf */\n      0xffffffffffffffffffffffffffffffffffffffff\n      and\n      0x70a08231\n        /* \"contracts/bonding_contract.sol\":10043:10047  user */\n      dup4\n        /* \"contracts/bonding_contract.sol\":10012:10048  IERC20(paymentToken).balanceOf(user) */\n      mload(0x40)\n      dup3\n      0xffffffff\n      and\n      0xe0\n      shl\n      dup2\n      mstore\n      0x04\n      add\n      tag_97\n      swap2\n      swap1\n      tag_36\n      jump\t// in\n    tag_97:\n      0x20\n      mload(0x40)\n      dup1\n      dup4\n      sub\n      dup2\n      dup7\n      gas\n      staticcall\n      iszero\n      dup1\n      iszero\n      tag_99\n      jumpi\n      returndatasize\n      0x00\n      dup1\n      returndatacopy\n      revert(0x00, returndatasize)\n    tag_99:\n      pop\n      pop\n      pop\n      pop\n      mload(0x40)\n      returndatasize\n      not(0x1f)\n      0x1f\n      dup3\n      add\n      and\n      dup3\n      add\n      dup1\n      0x40\n      mstore\n      pop\n      dup2\n      add\n      swap1\n      tag_100\n      swap2\n      swap1\n      tag_101\n      jump\t// in\n    tag_100:\n        /* \"contracts/bonding_contract.sol\":10005:10048  return IERC20(paymentToken).balanceOf(user) */\n      swap1\n      pop\n        /* \"contracts/bonding_contract.sol\":9921:10056  function checkTokenBalance(address user) external view returns (uint256) {... */\n      swap2\n      swap1\n      pop\n      jump\t// out\n        /* \"contracts/bonding_contract.sol\":2871:2898  address public paymentToken */\n    tag_34:\n      0x03\n      0x00\n      swap1\n      sload\n      swap1\n      0x0100\n      exp\n      swap1\n      div\n      0xffffffffffffffffffffffffffffffffffffffff\n      and\n      dup2\n      jump\t// out\n        /* \"contracts/bonding_contract.sol\":5707:5774  function unpause() external onlyOwner {... */\n    tag_38:\n        /* \"contracts/bonding_contract.sol\":5216:5221  owner */\n      0x02\n      0x00\n      swap1\n      sload\n      swap1\n      0x0100\n      exp\n      swap1\n      div\n      0xffffffffffffffffffffffffffffffffffffffff\n      and\n        /* \"contracts/bonding_contract.sol\":5202:5221  msg.sender == owner */\n      0xffffffffffffffffffffffffffffffffffffffff\n      and\n        /* \"contracts/bonding_contract.sol\":5202:5212  msg.sender */\n      caller\n        /* \"contracts/bonding_contract.sol\":5202:5221  msg.sender == owner */\n      0xffffffffffffffffffffffffffffffffffffffff\n      and\n      eq\n        /* \"contracts/bonding_contract.sol\":5194:5240  require(msg.sender == owner, \"Not authorized\") */\n      tag_103\n      jumpi\n      mload(0x40)\n      0x08c379a000000000000000000000000000000000000000000000000000000000\n      dup2\n      mstore\n      0x04\n      add\n      tag_104\n      swap1\n      tag_105\n      jump\t// in\n    tag_104:\n      mload(0x40)\n      dup1\n      swap2\n      sub\n      swap1\n      revert\n    tag_103:\n        /* \"contracts/bonding_contract.sol\":5756:5766  _unpause() */\n      tag_107\n        /* \"contracts/bonding_contract.sol\":5756:5764  _unpause */\n      tag_108\n        /* \"contracts/bonding_contract.sol\":5756:5766  _unpause() */\n      jump\t// in\n    tag_107:\n        /* \"contracts/bonding_contract.sol\":5707:5774  function unpause() external onlyOwner {... */\n      jump\t// out\n        /* \"contracts/bonding_contract.sol\":1149:1235  function paused() public view virtual returns (bool) {... */\n    tag_40:\n        /* \"contracts/bonding_contract.sol\":1196:1200  bool */\n      0x00\n        /* \"contracts/bonding_contract.sol\":1220:1227  _paused */\n      dup1\n      0x00\n      swap1\n      sload\n      swap1\n      0x0100\n      exp\n      swap1\n      div\n      0xff\n      and\n        /* \"contracts/bonding_contract.sol\":1213:1227  return _paused */\n      swap1\n      pop\n        /* \"contracts/bonding_contract.sol\":1149:1235  function paused() public view virtual returns (bool) {... */\n      swap1\n      jump\t// out\n        /* \"contracts/bonding_contract.sol\":10369:10479  function setTargetPrice(uint256 _targetPrice) external onlyOwner {... */\n    tag_46:\n        /* \"contracts/bonding_contract.sol\":5216:5221  owner */\n      0x02\n      0x00\n      swap1\n      sload\n      swap1\n      0x0100\n      exp\n      swap1\n      div\n      0xffffffffffffffffffffffffffffffffffffffff\n      and\n        /* \"contracts/bonding_contract.sol\":5202:5221  msg.sender == owner */\n      0xffffffffffffffffffffffffffffffffffffffff\n      and\n        /* \"contracts/bonding_contract.sol\":5202:5212  msg.sender */\n      caller\n        /* \"contracts/bonding_contract.sol\":5202:5221  msg.sender == owner */\n      0xffffffffffffffffffffffffffffffffffffffff\n      and\n      eq\n        /* \"contracts/bonding_contract.sol\":5194:5240  require(msg.sender == owner, \"Not authorized\") */\n      tag_111\n      jumpi\n      mload(0x40)\n      0x08c379a000000000000000000000000000000000000000000000000000000000\n      dup2\n      mstore\n      0x04\n      add\n      tag_112\n      swap1\n      tag_105\n      jump\t// in\n    tag_112:\n      mload(0x40)\n      dup1\n      swap2\n      sub\n      swap1\n      revert\n    tag_111:\n        /* \"contracts/bonding_contract.sol\":10459:10471  _targetPrice */\n      dup1\n        /* \"contracts/bonding_contract.sol\":10445:10456  targetPrice */\n      0x08\n        /* \"contracts/bonding_contract.sol\":10445:10471  targetPrice = _targetPrice */\n      dup2\n      swap1\n      sstore\n      pop\n        /* \"contracts/bonding_contract.sol\":10369:10479  function setTargetPrice(uint256 _targetPrice) external onlyOwner {... */\n      pop\n      jump\t// out\n        /* \"contracts/bonding_contract.sol\":3230:3252  uint256 public taxRate */\n    tag_48:\n      sload(0x09)\n      dup2\n      jump\t// out\n        /* \"contracts/bonding_contract.sol\":2948:2972  address public roboMoney */\n    tag_51:\n      0x04\n      0x00\n      swap1\n      sload\n      swap1\n      0x0100\n      exp\n      swap1\n      div\n      0xffffffffffffffffffffffffffffffffffffffff\n      and\n      dup2\n      jump\t// out\n        /* \"contracts/bonding_contract.sol\":5567:5630  function pause() external onlyOwner {... */\n    tag_54:\n        /* \"contracts/bonding_contract.sol\":5216:5221  owner */\n      0x02\n      0x00\n      swap1\n      sload\n      swap1\n      0x0100\n      exp\n      swap1\n      div\n      0xffffffffffffffffffffffffffffffffffffffff\n      and\n        /* \"contracts/bonding_contract.sol\":5202:5221  msg.sender == owner */\n      0xffffffffffffffffffffffffffffffffffffffff\n      and\n        /* \"contracts/bonding_contract.sol\":5202:5212  msg.sender */\n      caller\n        /* \"contracts/bonding_contract.sol\":5202:5221  msg.sender == owner */\n      0xffffffffffffffffffffffffffffffffffffffff\n      and\n      eq\n        /* \"contracts/bonding_contract.sol\":5194:5240  require(msg.sender == owner, \"Not authorized\") */\n      tag_115\n      jumpi\n      mload(0x40)\n      0x08c379a000000000000000000000000000000000000000000000000000000000\n      dup2\n      mstore\n      0x04\n      add\n      tag_116\n      swap1\n      tag_105\n      jump\t// in\n    tag_116:\n      mload(0x40)\n      dup1\n      swap2\n      sub\n      swap1\n      revert\n    tag_115:\n        /* \"contracts/bonding_contract.sol\":5614:5622  _pause() */\n      tag_118\n        /* \"contracts/bonding_contract.sol\":5614:5620  _pause */\n      tag_119\n        /* \"contracts/bonding_contract.sol\":5614:5622  _pause() */\n      jump\t// in\n    tag_118:\n        /* \"contracts/bonding_contract.sol\":5567:5630  function pause() external onlyOwner {... */\n      jump\t// out\n        /* \"contracts/bonding_contract.sol\":9761:9913  function checkTokenAllowance(address user) external view returns (uint256) {... */\n    tag_57:\n        /* \"contracts/bonding_contract.sol\":9827:9834  uint256 */\n      0x00\n        /* \"contracts/bonding_contract.sol\":9861:9873  paymentToken */\n      0x03\n      0x00\n      swap1\n      sload\n      swap1\n      0x0100\n      exp\n      swap1\n      div\n      0xffffffffffffffffffffffffffffffffffffffff\n      and\n        /* \"contracts/bonding_contract.sol\":9854:9884  IERC20(paymentToken).allowance */\n      0xffffffffffffffffffffffffffffffffffffffff\n      and\n      0xdd62ed3e\n        /* \"contracts/bonding_contract.sol\":9885:9889  user */\n      dup4\n        /* \"contracts/bonding_contract.sol\":9899:9903  this */\n      address\n        /* \"contracts/bonding_contract.sol\":9854:9905  IERC20(paymentToken).allowance(user, address(this)) */\n      mload(0x40)\n      dup4\n      0xffffffff\n      and\n      0xe0\n      shl\n      dup2\n      mstore\n      0x04\n      add\n      tag_121\n      swap3\n      swap2\n      swap1\n      tag_122\n      jump\t// in\n    tag_121:\n      0x20\n      mload(0x40)\n      dup1\n      dup4\n      sub\n      dup2\n      dup7\n      gas\n      staticcall\n      iszero\n      dup1\n      iszero\n      tag_124\n      jumpi\n      returndatasize\n      0x00\n      dup1\n      returndatacopy\n      revert(0x00, returndatasize)\n    tag_124:\n      pop\n      pop\n      pop\n      pop\n      mload(0x40)\n      returndatasize\n      not(0x1f)\n      0x1f\n      dup3\n      add\n      and\n      dup3\n      add\n      dup1\n      0x40\n      mstore\n      pop\n      dup2\n      add\n      swap1\n      tag_125\n      swap2\n      swap1\n      tag_101\n      jump\t// in\n    tag_125:\n        /* \"contracts/bonding_contract.sol\":9847:9905  return IERC20(paymentToken).allowance(user, address(this)) */\n      swap1\n      pop\n        /* \"contracts/bonding_contract.sol\":9761:9913  function checkTokenAllowance(address user) external view returns (uint256) {... */\n      swap2\n      swap1\n      pop\n      jump\t// out\n        /* \"contracts/bonding_contract.sol\":2844:2864  address public owner */\n    tag_60:\n      0x02\n      0x00\n      swap1\n      sload\n      swap1\n      0x0100\n      exp\n      swap1\n      div\n      0xffffffffffffffffffffffffffffffffffffffff\n      and\n      dup2\n      jump\t// out\n        /* \"contracts/bonding_contract.sol\":9288:9558  function setBondReceiver(address _newBondReceiver) external onlyOwner {... */\n    tag_64:\n        /* \"contracts/bonding_contract.sol\":5216:5221  owner */\n      0x02\n      0x00\n      swap1\n      sload\n      swap1\n      0x0100\n      exp\n      swap1\n      div\n      0xffffffffffffffffffffffffffffffffffffffff\n      and\n        /* \"contracts/bonding_contract.sol\":5202:5221  msg.sender == owner */\n      0xffffffffffffffffffffffffffffffffffffffff\n      and\n        /* \"contracts/bonding_contract.sol\":5202:5212  msg.sender */\n      caller\n        /* \"contracts/bonding_contract.sol\":5202:5221  msg.sender == owner */\n      0xffffffffffffffffffffffffffffffffffffffff\n      and\n      eq\n        /* \"contracts/bonding_contract.sol\":5194:5240  require(msg.sender == owner, \"Not authorized\") */\n      tag_127\n      jumpi\n      mload(0x40)\n      0x08c379a000000000000000000000000000000000000000000000000000000000\n      dup2\n      mstore\n      0x04\n      add\n      tag_128\n      swap1\n      tag_105\n      jump\t// in\n    tag_128:\n      mload(0x40)\n      dup1\n      swap2\n      sub\n      swap1\n      revert\n    tag_127:\n        /* \"contracts/bonding_contract.sol\":9405:9406  0 */\n      0x00\n        /* \"contracts/bonding_contract.sol\":9377:9407  _newBondReceiver != address(0) */\n      0xffffffffffffffffffffffffffffffffffffffff\n      and\n        /* \"contracts/bonding_contract.sol\":9377:9393  _newBondReceiver */\n      dup2\n        /* \"contracts/bonding_contract.sol\":9377:9407  _newBondReceiver != address(0) */\n      0xffffffffffffffffffffffffffffffffffffffff\n      and\n      sub\n        /* \"contracts/bonding_contract.sol\":9369:9441  require(_newBondReceiver != address(0), \"Invalid bond receiver address\") */\n      tag_130\n      jumpi\n      mload(0x40)\n      0x08c379a000000000000000000000000000000000000000000000000000000000\n      dup2\n      mstore\n      0x04\n      add\n      tag_131\n      swap1\n      tag_132\n      jump\t// in\n    tag_131:\n      mload(0x40)\n      dup1\n      swap2\n      sub\n      swap1\n      revert\n    tag_130:\n        /* \"contracts/bonding_contract.sol\":9491:9507  _newBondReceiver */\n      dup1\n        /* \"contracts/bonding_contract.sol\":9457:9508  BondReceiverUpdated(bondReceiver, _newBondReceiver) */\n      0xffffffffffffffffffffffffffffffffffffffff\n      and\n        /* \"contracts/bonding_contract.sol\":9477:9489  bondReceiver */\n      0x05\n      0x00\n      swap1\n      sload\n      swap1\n      0x0100\n      exp\n      swap1\n      div\n      0xffffffffffffffffffffffffffffffffffffffff\n      and\n        /* \"contracts/bonding_contract.sol\":9457:9508  BondReceiverUpdated(bondReceiver, _newBondReceiver) */\n      0xffffffffffffffffffffffffffffffffffffffff\n      and\n      0xde68b7b5773e2e7f3e935c77c66ee03cce19588a596dc3e0629ff3a9fe941381\n      mload(0x40)\n      mload(0x40)\n      dup1\n      swap2\n      sub\n      swap1\n      log3\n        /* \"contracts/bonding_contract.sol\":9534:9550  _newBondReceiver */\n      dup1\n        /* \"contracts/bonding_contract.sol\":9519:9531  bondReceiver */\n      0x05\n      0x00\n        /* \"contracts/bonding_contract.sol\":9519:9550  bondReceiver = _newBondReceiver */\n      0x0100\n      exp\n      dup2\n      sload\n      dup2\n      0xffffffffffffffffffffffffffffffffffffffff\n      mul\n      not\n      and\n      swap1\n      dup4\n      0xffffffffffffffffffffffffffffffffffffffff\n      and\n      mul\n      or\n      swap1\n      sstore\n      pop\n        /* \"contracts/bonding_contract.sol\":9288:9558  function setBondReceiver(address _newBondReceiver) external onlyOwner {... */\n      pop\n      jump\t// out\n        /* \"contracts/bonding_contract.sol\":6357:8204  function bond(uint256 tokenAmount) external whenNotPaused nonReentrant  {... */\n    tag_67:\n        /* \"contracts/bonding_contract.sol\":990:998  paused() */\n      tag_134\n        /* \"contracts/bonding_contract.sol\":990:996  paused */\n      tag_40\n        /* \"contracts/bonding_contract.sol\":990:998  paused() */\n      jump\t// in\n    tag_134:\n        /* \"contracts/bonding_contract.sol\":989:998  !paused() */\n      iszero\n        /* \"contracts/bonding_contract.sol\":981:1019  require(!paused(), \"Pausable: paused\") */\n      tag_135\n      jumpi\n      mload(0x40)\n      0x08c379a000000000000000000000000000000000000000000000000000000000\n      dup2\n      mstore\n      0x04\n      add\n      tag_136\n      swap1\n      tag_137\n      jump\t// in\n    tag_136:\n      mload(0x40)\n      dup1\n      swap2\n      sub\n      swap1\n      revert\n    tag_135:\n        /* \"@openzeppelin/contracts/security/ReentrancyGuard.sol\":2261:2282  _nonReentrantBefore() */\n      tag_139\n        /* \"@openzeppelin/contracts/security/ReentrancyGuard.sol\":2261:2280  _nonReentrantBefore */\n      tag_140\n        /* \"@openzeppelin/contracts/security/ReentrancyGuard.sol\":2261:2282  _nonReentrantBefore() */\n      jump\t// in\n    tag_139:\n        /* \"contracts/bonding_contract.sol\":6462:6463  0 */\n      0x00\n        /* \"contracts/bonding_contract.sol\":6448:6459  tokenAmount */\n      dup2\n        /* \"contracts/bonding_contract.sol\":6448:6463  tokenAmount > 0 */\n      gt\n        /* \"contracts/bonding_contract.sol\":6440:6496  require(tokenAmount > 0, \"Must deposit tokenAmount > 0\") */\n      tag_142\n      jumpi\n      mload(0x40)\n      0x08c379a000000000000000000000000000000000000000000000000000000000\n      dup2\n      mstore\n      0x04\n      add\n      tag_143\n      swap1\n      tag_144\n      jump\t// in\n    tag_143:\n      mload(0x40)\n      dup1\n      swap2\n      sub\n      swap1\n      revert\n    tag_142:\n        /* \"contracts/bonding_contract.sol\":6509:6526  uint256 taxAmount */\n      0x00\n        /* \"contracts/bonding_contract.sol\":6555:6560  10000 */\n      0x2710\n        /* \"contracts/bonding_contract.sol\":6544:6551  taxRate */\n      sload(0x09)\n        /* \"contracts/bonding_contract.sol\":6530:6541  tokenAmount */\n      dup4\n        /* \"contracts/bonding_contract.sol\":6530:6551  tokenAmount * taxRate */\n      tag_145\n      swap2\n      swap1\n      tag_146\n      jump\t// in\n    tag_145:\n        /* \"contracts/bonding_contract.sol\":6529:6560  (tokenAmount * taxRate) / 10000 */\n      tag_147\n      swap2\n      swap1\n      tag_148\n      jump\t// in\n    tag_147:\n        /* \"contracts/bonding_contract.sol\":6509:6560  uint256 taxAmount = (tokenAmount * taxRate) / 10000 */\n      swap1\n      pop\n        /* \"contracts/bonding_contract.sol\":6571:6588  uint256 netAmount */\n      0x00\n        /* \"contracts/bonding_contract.sol\":6605:6614  taxAmount */\n      dup2\n        /* \"contracts/bonding_contract.sol\":6591:6602  tokenAmount */\n      dup4\n        /* \"contracts/bonding_contract.sol\":6591:6614  tokenAmount - taxAmount */\n      tag_149\n      swap2\n      swap1\n      tag_150\n      jump\t// in\n    tag_149:\n        /* \"contracts/bonding_contract.sol\":6571:6614  uint256 netAmount = tokenAmount - taxAmount */\n      swap1\n      pop\n        /* \"contracts/bonding_contract.sol\":6672:6687  uint256 allowed */\n      0x00\n        /* \"contracts/bonding_contract.sol\":6697:6709  paymentToken */\n      0x03\n      0x00\n      swap1\n      sload\n      swap1\n      0x0100\n      exp\n      swap1\n      div\n      0xffffffffffffffffffffffffffffffffffffffff\n      and\n        /* \"contracts/bonding_contract.sol\":6690:6720  IERC20(paymentToken).allowance */\n      0xffffffffffffffffffffffffffffffffffffffff\n      and\n      0xdd62ed3e\n        /* \"contracts/bonding_contract.sol\":6721:6731  msg.sender */\n      caller\n        /* \"contracts/bonding_contract.sol\":6741:6745  this */\n      address\n        /* \"contracts/bonding_contract.sol\":6690:6747  IERC20(paymentToken).allowance(msg.sender, address(this)) */\n      mload(0x40)\n      dup4\n      0xffffffff\n      and\n      0xe0\n      shl\n      dup2\n      mstore\n      0x04\n      add\n      tag_151\n      swap3\n      swap2\n      swap1\n      tag_122\n      jump\t// in\n    tag_151:\n      0x20\n      mload(0x40)\n      dup1\n      dup4\n      sub\n      dup2\n      dup7\n      gas\n      staticcall\n      iszero\n      dup1\n      iszero\n      tag_153\n      jumpi\n      returndatasize\n      0x00\n      dup1\n      returndatacopy\n      revert(0x00, returndatasize)\n    tag_153:\n      pop\n      pop\n      pop\n      pop\n      mload(0x40)\n      returndatasize\n      not(0x1f)\n      0x1f\n      dup3\n      add\n      and\n      dup3\n      add\n      dup1\n      0x40\n      mstore\n      pop\n      dup2\n      add\n      swap1\n      tag_154\n      swap2\n      swap1\n      tag_101\n      jump\t// in\n    tag_154:\n        /* \"contracts/bonding_contract.sol\":6672:6747  uint256 allowed = IERC20(paymentToken).allowance(msg.sender, address(this)) */\n      swap1\n      pop\n        /* \"contracts/bonding_contract.sol\":6777:6788  tokenAmount */\n      dup4\n        /* \"contracts/bonding_contract.sol\":6766:6773  allowed */\n      dup2\n        /* \"contracts/bonding_contract.sol\":6766:6788  allowed >= tokenAmount */\n      lt\n      iszero\n        /* \"contracts/bonding_contract.sol\":6758:6817  require(allowed >= tokenAmount, \"Allowance not sufficient\") */\n      tag_155\n      jumpi\n      mload(0x40)\n      0x08c379a000000000000000000000000000000000000000000000000000000000\n      dup2\n      mstore\n      0x04\n      add\n      tag_156\n      swap1\n      tag_157\n      jump\t// in\n    tag_156:\n      mload(0x40)\n      dup1\n      swap2\n      sub\n      swap1\n      revert\n    tag_155:\n        /* \"contracts/bonding_contract.sol\":6895:6967  IERC20(paymentToken).safeTransferFrom(msg.sender, gasReserve, taxAmount) */\n      tag_158\n        /* \"contracts/bonding_contract.sol\":6933:6943  msg.sender */\n      caller\n        /* \"contracts/bonding_contract.sol\":6945:6955  gasReserve */\n      0x06\n      0x00\n      swap1\n      sload\n      swap1\n      0x0100\n      exp\n      swap1\n      div\n      0xffffffffffffffffffffffffffffffffffffffff\n      and\n        /* \"contracts/bonding_contract.sol\":6957:6966  taxAmount */\n      dup6\n        /* \"contracts/bonding_contract.sol\":6902:6914  paymentToken */\n      0x03\n      0x00\n      swap1\n      sload\n      swap1\n      0x0100\n      exp\n      swap1\n      div\n      0xffffffffffffffffffffffffffffffffffffffff\n      and\n        /* \"contracts/bonding_contract.sol\":6895:6932  IERC20(paymentToken).safeTransferFrom */\n      0xffffffffffffffffffffffffffffffffffffffff\n      and\n      tag_159\n      swap1\n        /* \"contracts/bonding_contract.sol\":6895:6967  IERC20(paymentToken).safeTransferFrom(msg.sender, gasReserve, taxAmount) */\n      swap4\n      swap3\n      swap2\n      swap1\n      0xffffffff\n      and\n      jump\t// in\n    tag_158:\n        /* \"contracts/bonding_contract.sol\":6978:7052  IERC20(paymentToken).safeTransferFrom(msg.sender, bondReceiver, netAmount) */\n      tag_160\n        /* \"contracts/bonding_contract.sol\":7016:7026  msg.sender */\n      caller\n        /* \"contracts/bonding_contract.sol\":7028:7040  bondReceiver */\n      0x05\n      0x00\n      swap1\n      sload\n      swap1\n      0x0100\n      exp\n      swap1\n      div\n      0xffffffffffffffffffffffffffffffffffffffff\n      and\n        /* \"contracts/bonding_contract.sol\":7042:7051  netAmount */\n      dup5\n        /* \"contracts/bonding_contract.sol\":6985:6997  paymentToken */\n      0x03\n      0x00\n      swap1\n      sload\n      swap1\n      0x0100\n      exp\n      swap1\n      div\n      0xffffffffffffffffffffffffffffffffffffffff\n      and\n        /* \"contracts/bonding_contract.sol\":6978:7015  IERC20(paymentToken).safeTransferFrom */\n      0xffffffffffffffffffffffffffffffffffffffff\n      and\n      tag_159\n      swap1\n        /* \"contracts/bonding_contract.sol\":6978:7052  IERC20(paymentToken).safeTransferFrom(msg.sender, bondReceiver, netAmount) */\n      swap4\n      swap3\n      swap2\n      swap1\n      0xffffffff\n      and\n      jump\t// in\n    tag_160:\n        /* \"contracts/bonding_contract.sol\":7115:7138  uint256 discountedPrice */\n      0x00\n        /* \"contracts/bonding_contract.sol\":7180:7183  100 */\n      0x64\n        /* \"contracts/bonding_contract.sol\":7163:7175  discountRate */\n      sload(0x07)\n        /* \"contracts/bonding_contract.sol\":7157:7160  100 */\n      0x64\n        /* \"contracts/bonding_contract.sol\":7157:7175  100 - discountRate */\n      tag_161\n      swap2\n      swap1\n      tag_150\n      jump\t// in\n    tag_161:\n        /* \"contracts/bonding_contract.sol\":7142:7153  targetPrice */\n      sload(0x08)\n        /* \"contracts/bonding_contract.sol\":7142:7176  targetPrice * (100 - discountRate) */\n      tag_162\n      swap2\n      swap1\n      tag_146\n      jump\t// in\n    tag_162:\n        /* \"contracts/bonding_contract.sol\":7141:7183  (targetPrice * (100 - discountRate)) / 100 */\n      tag_163\n      swap2\n      swap1\n      tag_148\n      jump\t// in\n    tag_163:\n        /* \"contracts/bonding_contract.sol\":7115:7183  uint256 discountedPrice = (targetPrice * (100 - discountRate)) / 100 */\n      swap1\n      pop\n        /* \"contracts/bonding_contract.sol\":7194:7217  uint256 roboMoneyAmount */\n      0x00\n        /* \"contracts/bonding_contract.sol\":7243:7258  discountedPrice */\n      dup2\n        /* \"contracts/bonding_contract.sol\":7235:7239  1e18 */\n      0x0de0b6b3a7640000\n        /* \"contracts/bonding_contract.sol\":7221:7232  tokenAmount */\n      dup8\n        /* \"contracts/bonding_contract.sol\":7221:7239  tokenAmount * 1e18 */\n      tag_164\n      swap2\n      swap1\n      tag_146\n      jump\t// in\n    tag_164:\n        /* \"contracts/bonding_contract.sol\":7220:7258  (tokenAmount * 1e18) / discountedPrice */\n      tag_165\n      swap2\n      swap1\n      tag_148\n      jump\t// in\n    tag_165:\n        /* \"contracts/bonding_contract.sol\":7194:7258  uint256 roboMoneyAmount = (tokenAmount * 1e18) / discountedPrice */\n      swap1\n      pop\n        /* \"contracts/bonding_contract.sol\":7357:7379  uint256 currentBalance */\n      0x00\n        /* \"contracts/bonding_contract.sol\":7393:7402  roboMoney */\n      0x04\n      0x00\n      swap1\n      sload\n      swap1\n      0x0100\n      exp\n      swap1\n      div\n      0xffffffffffffffffffffffffffffffffffffffff\n      and\n        /* \"contracts/bonding_contract.sol\":7382:7413  IRoboMoney(roboMoney).balanceOf */\n      0xffffffffffffffffffffffffffffffffffffffff\n      and\n      0x70a08231\n        /* \"contracts/bonding_contract.sol\":7422:7426  this */\n      address\n        /* \"contracts/bonding_contract.sol\":7382:7428  IRoboMoney(roboMoney).balanceOf(address(this)) */\n      mload(0x40)\n      dup3\n      0xffffffff\n      and\n      0xe0\n      shl\n      dup2\n      mstore\n      0x04\n      add\n      tag_166\n      swap2\n      swap1\n      tag_36\n      jump\t// in\n    tag_166:\n      0x20\n      mload(0x40)\n      dup1\n      dup4\n      sub\n      dup2\n      dup7\n      gas\n      staticcall\n      iszero\n      dup1\n      iszero\n      tag_168\n      jumpi\n      returndatasize\n      0x00\n      dup1\n      returndatacopy\n      revert(0x00, returndatasize)\n    tag_168:\n      pop\n      pop\n      pop\n      pop\n      mload(0x40)\n      returndatasize\n      not(0x1f)\n      0x1f\n      dup3\n      add\n      and\n      dup3\n      add\n      dup1\n      0x40\n      mstore\n      pop\n      dup2\n      add\n      swap1\n      tag_169\n      swap2\n      swap1\n      tag_101\n      jump\t// in\n    tag_169:\n        /* \"contracts/bonding_contract.sol\":7357:7428  uint256 currentBalance = IRoboMoney(roboMoney).balanceOf(address(this)) */\n      swap1\n      pop\n        /* \"contracts/bonding_contract.sol\":7460:7475  roboMoneyAmount */\n      dup2\n        /* \"contracts/bonding_contract.sol\":7443:7457  currentBalance */\n      dup2\n        /* \"contracts/bonding_contract.sol\":7443:7475  currentBalance < roboMoneyAmount */\n      lt\n        /* \"contracts/bonding_contract.sol\":7439:8005  if (currentBalance < roboMoneyAmount) {... */\n      iszero\n      tag_170\n      jumpi\n        /* \"contracts/bonding_contract.sol\":7492:7510  uint256 mintAmount */\n      0x00\n        /* \"contracts/bonding_contract.sol\":7531:7545  currentBalance */\n      dup2\n        /* \"contracts/bonding_contract.sol\":7513:7528  roboMoneyAmount */\n      dup4\n        /* \"contracts/bonding_contract.sol\":7513:7545  roboMoneyAmount - currentBalance */\n      tag_171\n      swap2\n      swap1\n      tag_150\n      jump\t// in\n    tag_171:\n        /* \"contracts/bonding_contract.sol\":7492:7545  uint256 mintAmount = roboMoneyAmount - currentBalance */\n      swap1\n      pop\n        /* \"contracts/bonding_contract.sol\":7621:7640  uint256 totalSupply */\n      0x00\n        /* \"contracts/bonding_contract.sol\":7654:7663  roboMoney */\n      0x04\n      0x00\n      swap1\n      sload\n      swap1\n      0x0100\n      exp\n      swap1\n      div\n      0xffffffffffffffffffffffffffffffffffffffff\n      and\n        /* \"contracts/bonding_contract.sol\":7643:7676  IRoboMoney(roboMoney).totalSupply */\n      0xffffffffffffffffffffffffffffffffffffffff\n      and\n      0x18160ddd\n        /* \"contracts/bonding_contract.sol\":7643:7678  IRoboMoney(roboMoney).totalSupply() */\n      mload(0x40)\n      dup2\n      0xffffffff\n      and\n      0xe0\n      shl\n      dup2\n      mstore\n      0x04\n      add\n      0x20\n      mload(0x40)\n      dup1\n      dup4\n      sub\n      dup2\n      dup7\n      gas\n      staticcall\n      iszero\n      dup1\n      iszero\n      tag_173\n      jumpi\n      returndatasize\n      0x00\n      dup1\n      returndatacopy\n      revert(0x00, returndatasize)\n    tag_173:\n      pop\n      pop\n      pop\n      pop\n      mload(0x40)\n      returndatasize\n      not(0x1f)\n      0x1f\n      dup3\n      add\n      and\n      dup3\n      add\n      dup1\n      0x40\n      mstore\n      pop\n      dup2\n      add\n      swap1\n      tag_174\n      swap2\n      swap1\n      tag_101\n      jump\t// in\n    tag_174:\n        /* \"contracts/bonding_contract.sol\":7621:7678  uint256 totalSupply = IRoboMoney(roboMoney).totalSupply() */\n      swap1\n      pop\n        /* \"contracts/bonding_contract.sol\":7712:7713  0 */\n      0x00\n        /* \"contracts/bonding_contract.sol\":7697:7708  totalSupply */\n      dup2\n        /* \"contracts/bonding_contract.sol\":7697:7713  totalSupply == 0 */\n      sub\n        /* \"contracts/bonding_contract.sol\":7693:7994  if (totalSupply == 0) {... */\n      tag_175\n      jumpi\n        /* \"contracts/bonding_contract.sol\":7783:7792  roboMoney */\n      0x04\n      0x00\n      swap1\n      sload\n      swap1\n      0x0100\n      exp\n      swap1\n      div\n      0xffffffffffffffffffffffffffffffffffffffff\n      and\n        /* \"contracts/bonding_contract.sol\":7772:7810  IRoboMoney(roboMoney).initializeSupply */\n      0xffffffffffffffffffffffffffffffffffffffff\n      and\n      0xd9e63bb1\n        /* \"contracts/bonding_contract.sol\":7811:7821  mintAmount */\n      dup4\n        /* \"contracts/bonding_contract.sol\":7772:7822  IRoboMoney(roboMoney).initializeSupply(mintAmount) */\n      mload(0x40)\n      dup3\n      0xffffffff\n      and\n      0xe0\n      shl\n      dup2\n      mstore\n      0x04\n      add\n      tag_176\n      swap2\n      swap1\n      tag_32\n      jump\t// in\n    tag_176:\n      0x00\n      mload(0x40)\n      dup1\n      dup4\n      sub\n      dup2\n      0x00\n      dup8\n      dup1\n      extcodesize\n      iszero\n      dup1\n      iszero\n      tag_177\n      jumpi\n      0x00\n      dup1\n      revert\n    tag_177:\n      pop\n      gas\n      call\n      iszero\n      dup1\n      iszero\n      tag_179\n      jumpi\n      returndatasize\n      0x00\n      dup1\n      returndatacopy\n      revert(0x00, returndatasize)\n    tag_179:\n      pop\n      pop\n      pop\n      pop\n        /* \"contracts/bonding_contract.sol\":7693:7994  if (totalSupply == 0) {... */\n      jump(tag_180)\n    tag_175:\n        /* \"contracts/bonding_contract.sol\":7936:7945  roboMoney */\n      0x04\n      0x00\n      swap1\n      sload\n      swap1\n      0x0100\n      exp\n      swap1\n      div\n      0xffffffffffffffffffffffffffffffffffffffff\n      and\n        /* \"contracts/bonding_contract.sol\":7925:7951  IRoboMoney(roboMoney).mint */\n      0xffffffffffffffffffffffffffffffffffffffff\n      and\n      0x40c10f19\n        /* \"contracts/bonding_contract.sol\":7960:7964  this */\n      address\n        /* \"contracts/bonding_contract.sol\":7967:7977  mintAmount */\n      dup5\n        /* \"contracts/bonding_contract.sol\":7925:7978  IRoboMoney(roboMoney).mint(address(this), mintAmount) */\n      mload(0x40)\n      dup4\n      0xffffffff\n      and\n      0xe0\n      shl\n      dup2\n      mstore\n      0x04\n      add\n      tag_181\n      swap3\n      swap2\n      swap1\n      tag_182\n      jump\t// in\n    tag_181:\n      0x00\n      mload(0x40)\n      dup1\n      dup4\n      sub\n      dup2\n      0x00\n      dup8\n      dup1\n      extcodesize\n      iszero\n      dup1\n      iszero\n      tag_183\n      jumpi\n      0x00\n      dup1\n      revert\n    tag_183:\n      pop\n      gas\n      call\n      iszero\n      dup1\n      iszero\n      tag_185\n      jumpi\n      returndatasize\n      0x00\n      dup1\n      returndatacopy\n      revert(0x00, returndatasize)\n    tag_185:\n      pop\n      pop\n      pop\n      pop\n        /* \"contracts/bonding_contract.sol\":7693:7994  if (totalSupply == 0) {... */\n    tag_180:\n        /* \"contracts/bonding_contract.sol\":7477:8005  {... */\n      pop\n      pop\n        /* \"contracts/bonding_contract.sol\":7439:8005  if (currentBalance < roboMoneyAmount) {... */\n    tag_170:\n        /* \"contracts/bonding_contract.sol\":8075:8084  roboMoney */\n      0x04\n      0x00\n      swap1\n      sload\n      swap1\n      0x0100\n      exp\n      swap1\n      div\n      0xffffffffffffffffffffffffffffffffffffffff\n      and\n        /* \"contracts/bonding_contract.sol\":8064:8094  IRoboMoney(roboMoney).transfer */\n      0xffffffffffffffffffffffffffffffffffffffff\n      and\n      0xa9059cbb\n        /* \"contracts/bonding_contract.sol\":8095:8105  msg.sender */\n      caller\n        /* \"contracts/bonding_contract.sol\":8107:8122  roboMoneyAmount */\n      dup5\n        /* \"contracts/bonding_contract.sol\":8064:8123  IRoboMoney(roboMoney).transfer(msg.sender, roboMoneyAmount) */\n      mload(0x40)\n      dup4\n      0xffffffff\n      and\n      0xe0\n      shl\n      dup2\n      mstore\n      0x04\n      add\n      tag_186\n      swap3\n      swap2\n      swap1\n      tag_182\n      jump\t// in\n    tag_186:\n      0x20\n      mload(0x40)\n      dup1\n      dup4\n      sub\n      dup2\n      0x00\n      dup8\n      gas\n      call\n      iszero\n      dup1\n      iszero\n      tag_188\n      jumpi\n      returndatasize\n      0x00\n      dup1\n      returndatacopy\n      revert(0x00, returndatasize)\n    tag_188:\n      pop\n      pop\n      pop\n      pop\n      mload(0x40)\n      returndatasize\n      not(0x1f)\n      0x1f\n      dup3\n      add\n      and\n      dup3\n      add\n      dup1\n      0x40\n      mstore\n      pop\n      dup2\n      add\n      swap1\n      tag_189\n      swap2\n      swap1\n      tag_190\n      jump\t// in\n    tag_189:\n      pop\n        /* \"contracts/bonding_contract.sol\":8155:8165  msg.sender */\n      caller\n        /* \"contracts/bonding_contract.sol\":8141:8196  BondPurchased(msg.sender, tokenAmount, roboMoneyAmount) */\n      0xffffffffffffffffffffffffffffffffffffffff\n      and\n      0x0db13e87b3f9c3b8f5f3acad928df55c52ba6bf7795af4ec069de5e23caacb37\n        /* \"contracts/bonding_contract.sol\":8167:8178  tokenAmount */\n      dup9\n        /* \"contracts/bonding_contract.sol\":8180:8195  roboMoneyAmount */\n      dup5\n        /* \"contracts/bonding_contract.sol\":8141:8196  BondPurchased(msg.sender, tokenAmount, roboMoneyAmount) */\n      mload(0x40)\n      tag_191\n      swap3\n      swap2\n      swap1\n      tag_192\n      jump\t// in\n    tag_191:\n      mload(0x40)\n      dup1\n      swap2\n      sub\n      swap1\n      log2\n        /* \"contracts/bonding_contract.sol\":6429:8204  {... */\n      pop\n      pop\n      pop\n      pop\n      pop\n      pop\n        /* \"@openzeppelin/contracts/security/ReentrancyGuard.sol\":2303:2323  _nonReentrantAfter() */\n      tag_193\n        /* \"@openzeppelin/contracts/security/ReentrancyGuard.sol\":2303:2321  _nonReentrantAfter */\n      tag_194\n        /* \"@openzeppelin/contracts/security/ReentrancyGuard.sol\":2303:2323  _nonReentrantAfter() */\n      jump\t// in\n    tag_193:\n        /* \"contracts/bonding_contract.sol\":6357:8204  function bond(uint256 tokenAmount) external whenNotPaused nonReentrant  {... */\n      pop\n      jump\t// out\n        /* \"contracts/bonding_contract.sol\":10212:10357  function checkContractRoboMoneyBalance() external view returns (uint256) {... */\n    tag_69:\n        /* \"contracts/bonding_contract.sol\":10276:10283  uint256 */\n      0x00\n        /* \"contracts/bonding_contract.sol\":10314:10323  roboMoney */\n      0x04\n      0x00\n      swap1\n      sload\n      swap1\n      0x0100\n      exp\n      swap1\n      div\n      0xffffffffffffffffffffffffffffffffffffffff\n      and\n        /* \"contracts/bonding_contract.sol\":10303:10334  IRoboMoney(roboMoney).balanceOf */\n      0xffffffffffffffffffffffffffffffffffffffff\n      and\n      0x70a08231\n        /* \"contracts/bonding_contract.sol\":10343:10347  this */\n      address\n        /* \"contracts/bonding_contract.sol\":10303:10349  IRoboMoney(roboMoney).balanceOf(address(this)) */\n      mload(0x40)\n      dup3\n      0xffffffff\n      and\n      0xe0\n      shl\n      dup2\n      mstore\n      0x04\n      add\n      tag_196\n      swap2\n      swap1\n      tag_36\n      jump\t// in\n    tag_196:\n      0x20\n      mload(0x40)\n      dup1\n      dup4\n      sub\n      dup2\n      dup7\n      gas\n      staticcall\n      iszero\n      dup1\n      iszero\n      tag_198\n      jumpi\n      returndatasize\n      0x00\n      dup1\n      returndatacopy\n      revert(0x00, returndatasize)\n    tag_198:\n      pop\n      pop\n      pop\n      pop\n      mload(0x40)\n      returndatasize\n      not(0x1f)\n      0x1f\n      dup3\n      add\n      and\n      dup3\n      add\n      dup1\n      0x40\n      mstore\n      pop\n      dup2\n      add\n      swap1\n      tag_199\n      swap2\n      swap1\n      tag_101\n      jump\t// in\n    tag_199:\n        /* \"contracts/bonding_contract.sol\":10296:10349  return IRoboMoney(roboMoney).balanceOf(address(this)) */\n      swap1\n      pop\n        /* \"contracts/bonding_contract.sol\":10212:10357  function checkContractRoboMoneyBalance() external view returns (uint256) {... */\n      swap1\n      jump\t// out\n        /* \"contracts/bonding_contract.sol\":3010:3037  address public bondReceiver */\n    tag_72:\n      0x05\n      0x00\n      swap1\n      sload\n      swap1\n      0x0100\n      exp\n      swap1\n      div\n      0xffffffffffffffffffffffffffffffffffffffff\n      and\n      dup2\n      jump\t// out\n        /* \"contracts/bonding_contract.sol\":8651:8858  function setTaxRate(uint256 _newTaxRate) external onlyOwner {... */\n    tag_76:\n        /* \"contracts/bonding_contract.sol\":5216:5221  owner */\n      0x02\n      0x00\n      swap1\n      sload\n      swap1\n      0x0100\n      exp\n      swap1\n      div\n      0xffffffffffffffffffffffffffffffffffffffff\n      and\n        /* \"contracts/bonding_contract.sol\":5202:5221  msg.sender == owner */\n      0xffffffffffffffffffffffffffffffffffffffff\n      and\n        /* \"contracts/bonding_contract.sol\":5202:5212  msg.sender */\n      caller\n        /* \"contracts/bonding_contract.sol\":5202:5221  msg.sender == owner */\n      0xffffffffffffffffffffffffffffffffffffffff\n      and\n      eq\n        /* \"contracts/bonding_contract.sol\":5194:5240  require(msg.sender == owner, \"Not authorized\") */\n      tag_201\n      jumpi\n      mload(0x40)\n      0x08c379a000000000000000000000000000000000000000000000000000000000\n      dup2\n      mstore\n      0x04\n      add\n      tag_202\n      swap1\n      tag_105\n      jump\t// in\n    tag_202:\n      mload(0x40)\n      dup1\n      swap2\n      sub\n      swap1\n      revert\n    tag_201:\n        /* \"contracts/bonding_contract.sol\":8745:8749  1000 */\n      0x03e8\n        /* \"contracts/bonding_contract.sol\":8730:8741  _newTaxRate */\n      dup2\n        /* \"contracts/bonding_contract.sol\":8730:8749  _newTaxRate <= 1000 */\n      gt\n      iszero\n        /* \"contracts/bonding_contract.sol\":8722:8766  require(_newTaxRate <= 1000, \"Tax too high\") */\n      tag_204\n      jumpi\n      mload(0x40)\n      0x08c379a000000000000000000000000000000000000000000000000000000000\n      dup2\n      mstore\n      0x04\n      add\n      tag_205\n      swap1\n      tag_206\n      jump\t// in\n    tag_205:\n      mload(0x40)\n      dup1\n      swap2\n      sub\n      swap1\n      revert\n    tag_204:\n        /* \"contracts/bonding_contract.sol\":8782:8818  TaxRateUpdated(taxRate, _newTaxRate) */\n      0xa8ee157eb2a9aa895d74df4d2d3bc0ad165ff3162f8ec46a4ecf602dd5c48fda\n        /* \"contracts/bonding_contract.sol\":8797:8804  taxRate */\n      sload(0x09)\n        /* \"contracts/bonding_contract.sol\":8806:8817  _newTaxRate */\n      dup3\n        /* \"contracts/bonding_contract.sol\":8782:8818  TaxRateUpdated(taxRate, _newTaxRate) */\n      mload(0x40)\n      tag_207\n      swap3\n      swap2\n      swap1\n      tag_192\n      jump\t// in\n    tag_207:\n      mload(0x40)\n      dup1\n      swap2\n      sub\n      swap1\n      log1\n        /* \"contracts/bonding_contract.sol\":8839:8850  _newTaxRate */\n      dup1\n        /* \"contracts/bonding_contract.sol\":8829:8836  taxRate */\n      0x09\n        /* \"contracts/bonding_contract.sol\":8829:8850  taxRate = _newTaxRate */\n      dup2\n      swap1\n      sstore\n      pop\n        /* \"contracts/bonding_contract.sol\":8651:8858  function setTaxRate(uint256 _newTaxRate) external onlyOwner {... */\n      pop\n      jump\t// out\n        /* \"contracts/bonding_contract.sol\":10064:10204  function checkRoboMoneyBalance(address user) external view returns (uint256) {... */\n    tag_79:\n        /* \"contracts/bonding_contract.sol\":10132:10139  uint256 */\n      0x00\n        /* \"contracts/bonding_contract.sol\":10170:10179  roboMoney */\n      0x04\n      0x00\n      swap1\n      sload\n      swap1\n      0x0100\n      exp\n      swap1\n      div\n      0xffffffffffffffffffffffffffffffffffffffff\n      and\n        /* \"contracts/bonding_contract.sol\":10159:10190  IRoboMoney(roboMoney).balanceOf */\n      0xffffffffffffffffffffffffffffffffffffffff\n      and\n      0x70a08231\n        /* \"contracts/bonding_contract.sol\":10191:10195  user */\n      dup4\n        /* \"contracts/bonding_contract.sol\":10159:10196  IRoboMoney(roboMoney).balanceOf(user) */\n      mload(0x40)\n      dup3\n      0xffffffff\n      and\n      0xe0\n      shl\n      dup2\n      mstore\n      0x04\n      add\n      tag_209\n      swap2\n      swap1\n      tag_36\n      jump\t// in\n    tag_209:\n      0x20\n      mload(0x40)\n      dup1\n      dup4\n      sub\n      dup2\n      dup7\n      gas\n      staticcall\n      iszero\n      dup1\n      iszero\n      tag_211\n      jumpi\n      returndatasize\n      0x00\n      dup1\n      returndatacopy\n      revert(0x00, returndatasize)\n    tag_211:\n      pop\n      pop\n      pop\n      pop\n      mload(0x40)\n      returndatasize\n      not(0x1f)\n      0x1f\n      dup3\n      add\n      and\n      dup3\n      add\n      dup1\n      0x40\n      mstore\n      pop\n      dup2\n      add\n      swap1\n      tag_212\n      swap2\n      swap1\n      tag_101\n      jump\t// in\n    tag_212:\n        /* \"contracts/bonding_contract.sol\":10152:10196  return IRoboMoney(roboMoney).balanceOf(user) */\n      swap1\n      pop\n        /* \"contracts/bonding_contract.sol\":10064:10204  function checkRoboMoneyBalance(address user) external view returns (uint256) {... */\n      swap2\n      swap1\n      pop\n      jump\t// out\n        /* \"contracts/bonding_contract.sol\":8403:8643  function setGasReserve(address _newGasReserve) external onlyOwner {... */\n    tag_83:\n        /* \"contracts/bonding_contract.sol\":5216:5221  owner */\n      0x02\n      0x00\n      swap1\n      sload\n      swap1\n      0x0100\n      exp\n      swap1\n      div\n      0xffffffffffffffffffffffffffffffffffffffff\n      and\n        /* \"contracts/bonding_contract.sol\":5202:5221  msg.sender == owner */\n      0xffffffffffffffffffffffffffffffffffffffff\n      and\n        /* \"contracts/bonding_contract.sol\":5202:5212  msg.sender */\n      caller\n        /* \"contracts/bonding_contract.sol\":5202:5221  msg.sender == owner */\n      0xffffffffffffffffffffffffffffffffffffffff\n      and\n      eq\n        /* \"contracts/bonding_contract.sol\":5194:5240  require(msg.sender == owner, \"Not authorized\") */\n      tag_214\n      jumpi\n      mload(0x40)\n      0x08c379a000000000000000000000000000000000000000000000000000000000\n      dup2\n      mstore\n      0x04\n      add\n      tag_215\n      swap1\n      tag_105\n      jump\t// in\n    tag_215:\n      mload(0x40)\n      dup1\n      swap2\n      sub\n      swap1\n      revert\n    tag_214:\n        /* \"contracts/bonding_contract.sol\":8514:8515  0 */\n      0x00\n        /* \"contracts/bonding_contract.sol\":8488:8516  _newGasReserve != address(0) */\n      0xffffffffffffffffffffffffffffffffffffffff\n      and\n        /* \"contracts/bonding_contract.sol\":8488:8502  _newGasReserve */\n      dup2\n        /* \"contracts/bonding_contract.sol\":8488:8516  _newGasReserve != address(0) */\n      0xffffffffffffffffffffffffffffffffffffffff\n      and\n      sub\n        /* \"contracts/bonding_contract.sol\":8480:8536  require(_newGasReserve != address(0), \"Invalid address\") */\n      tag_217\n      jumpi\n      mload(0x40)\n      0x08c379a000000000000000000000000000000000000000000000000000000000\n      dup2\n      mstore\n      0x04\n      add\n      tag_218\n      swap1\n      tag_219\n      jump\t// in\n    tag_218:\n      mload(0x40)\n      dup1\n      swap2\n      sub\n      swap1\n      revert\n    tag_217:\n        /* \"contracts/bonding_contract.sol\":8582:8596  _newGasReserve */\n      dup1\n        /* \"contracts/bonding_contract.sol\":8552:8597  GasReserveUpdated(gasReserve, _newGasReserve) */\n      0xffffffffffffffffffffffffffffffffffffffff\n      and\n        /* \"contracts/bonding_contract.sol\":8570:8580  gasReserve */\n      0x06\n      0x00\n      swap1\n      sload\n      swap1\n      0x0100\n      exp\n      swap1\n      div\n      0xffffffffffffffffffffffffffffffffffffffff\n      and\n        /* \"contracts/bonding_contract.sol\":8552:8597  GasReserveUpdated(gasReserve, _newGasReserve) */\n      0xffffffffffffffffffffffffffffffffffffffff\n      and\n      0xb4281bb17cdc594e3cf6d419da95f70a6b02d856b26438d381ee1246a8e89f12\n      mload(0x40)\n      mload(0x40)\n      dup1\n      swap2\n      sub\n      swap1\n      log3\n        /* \"contracts/bonding_contract.sol\":8621:8635  _newGasReserve */\n      dup1\n        /* \"contracts/bonding_contract.sol\":8608:8618  gasReserve */\n      0x06\n      0x00\n        /* \"contracts/bonding_contract.sol\":8608:8635  gasReserve = _newGasReserve */\n      0x0100\n      exp\n      dup2\n      sload\n      dup2\n      0xffffffffffffffffffffffffffffffffffffffff\n      mul\n      not\n      and\n      swap1\n      dup4\n      0xffffffffffffffffffffffffffffffffffffffff\n      and\n      mul\n      or\n      swap1\n      sstore\n      pop\n        /* \"contracts/bonding_contract.sol\":8403:8643  function setGasReserve(address _newGasReserve) external onlyOwner {... */\n      pop\n      jump\t// out\n        /* \"contracts/bonding_contract.sol\":3139:3165  uint256 public targetPrice */\n    tag_85:\n      sload(0x08)\n      dup2\n      jump\t// out\n        /* \"contracts/bonding_contract.sol\":3078:3105  uint256 public discountRate */\n    tag_88:\n      sload(0x07)\n      dup2\n      jump\t// out\n        /* \"contracts/bonding_contract.sol\":3044:3069  address public gasReserve */\n    tag_91:\n      0x06\n      0x00\n      swap1\n      sload\n      swap1\n      0x0100\n      exp\n      swap1\n      div\n      0xffffffffffffffffffffffffffffffffffffffff\n      and\n      dup2\n      jump\t// out\n        /* \"contracts/bonding_contract.sol\":9050:9280  function transferOwnership(address newOwner) external onlyOwner {... */\n    tag_95:\n        /* \"contracts/bonding_contract.sol\":5216:5221  owner */\n      0x02\n      0x00\n      swap1\n      sload\n      swap1\n      0x0100\n      exp\n      swap1\n      div\n      0xffffffffffffffffffffffffffffffffffffffff\n      and\n        /* \"contracts/bonding_contract.sol\":5202:5221  msg.sender == owner */\n      0xffffffffffffffffffffffffffffffffffffffff\n      and\n        /* \"contracts/bonding_contract.sol\":5202:5212  msg.sender */\n      caller\n        /* \"contracts/bonding_contract.sol\":5202:5221  msg.sender == owner */\n      0xffffffffffffffffffffffffffffffffffffffff\n      and\n      eq\n        /* \"contracts/bonding_contract.sol\":5194:5240  require(msg.sender == owner, \"Not authorized\") */\n      tag_221\n      jumpi\n      mload(0x40)\n      0x08c379a000000000000000000000000000000000000000000000000000000000\n      dup2\n      mstore\n      0x04\n      add\n      tag_222\n      swap1\n      tag_105\n      jump\t// in\n    tag_222:\n      mload(0x40)\n      dup1\n      swap2\n      sub\n      swap1\n      revert\n    tag_221:\n        /* \"contracts/bonding_contract.sol\":9153:9154  0 */\n      0x00\n        /* \"contracts/bonding_contract.sol\":9133:9155  newOwner != address(0) */\n      0xffffffffffffffffffffffffffffffffffffffff\n      and\n        /* \"contracts/bonding_contract.sol\":9133:9141  newOwner */\n      dup2\n        /* \"contracts/bonding_contract.sol\":9133:9155  newOwner != address(0) */\n      0xffffffffffffffffffffffffffffffffffffffff\n      and\n      sub\n        /* \"contracts/bonding_contract.sol\":9125:9192  require(newOwner != address(0), \"New owner cannot be zero address\") */\n      tag_224\n      jumpi\n      mload(0x40)\n      0x08c379a000000000000000000000000000000000000000000000000000000000\n      dup2\n      mstore\n      0x04\n      add\n      tag_225\n      swap1\n      tag_226\n      jump\t// in\n    tag_225:\n      mload(0x40)\n      dup1\n      swap2\n      sub\n      swap1\n      revert\n    tag_224:\n        /* \"contracts/bonding_contract.sol\":9236:9244  newOwner */\n      dup1\n        /* \"contracts/bonding_contract.sol\":9208:9245  OwnershipTransferred(owner, newOwner) */\n      0xffffffffffffffffffffffffffffffffffffffff\n      and\n        /* \"contracts/bonding_contract.sol\":9229:9234  owner */\n      0x02\n      0x00\n      swap1\n      sload\n      swap1\n      0x0100\n      exp\n      swap1\n      div\n      0xffffffffffffffffffffffffffffffffffffffff\n      and\n        /* \"contracts/bonding_contract.sol\":9208:9245  OwnershipTransferred(owner, newOwner) */\n      0xffffffffffffffffffffffffffffffffffffffff\n      and\n      0x8be0079c531659141344cd1fd0a4f28419497f9722a3daafe3b4186f6b6457e0\n      mload(0x40)\n      mload(0x40)\n      dup1\n      swap2\n      sub\n      swap1\n      log3\n        /* \"contracts/bonding_contract.sol\":9264:9272  newOwner */\n      dup1\n        /* \"contracts/bonding_contract.sol\":9256:9261  owner */\n      0x02\n      0x00\n        /* \"contracts/bonding_contract.sol\":9256:9272  owner = newOwner */\n      0x0100\n      exp\n      dup2\n      sload\n      dup2\n      0xffffffffffffffffffffffffffffffffffffffff\n      mul\n      not\n      and\n      swap1\n      dup4\n      0xffffffffffffffffffffffffffffffffffffffff\n      and\n      mul\n      or\n      swap1\n      sstore\n      pop\n        /* \"contracts/bonding_contract.sol\":9050:9280  function transferOwnership(address newOwner) external onlyOwner {... */\n      pop\n      jump\t// out\n        /* \"contracts/bonding_contract.sol\":1367:1485  function _unpause() internal virtual whenPaused {... */\n    tag_108:\n        /* \"contracts/bonding_contract.sol\":1088:1096  paused() */\n      tag_228\n        /* \"contracts/bonding_contract.sol\":1088:1094  paused */\n      tag_40\n        /* \"contracts/bonding_contract.sol\":1088:1096  paused() */\n      jump\t// in\n    tag_228:\n        /* \"contracts/bonding_contract.sol\":1080:1121  require(paused(), \"Pausable: not paused\") */\n      tag_229\n      jumpi\n      mload(0x40)\n      0x08c379a000000000000000000000000000000000000000000000000000000000\n      dup2\n      mstore\n      0x04\n      add\n      tag_230\n      swap1\n      tag_231\n      jump\t// in\n    tag_230:\n      mload(0x40)\n      dup1\n      swap2\n      sub\n      swap1\n      revert\n    tag_229:\n        /* \"contracts/bonding_contract.sol\":1436:1441  false */\n      0x00\n        /* \"contracts/bonding_contract.sol\":1426:1433  _paused */\n      dup1\n      0x00\n        /* \"contracts/bonding_contract.sol\":1426:1441  _paused = false */\n      0x0100\n      exp\n      dup2\n      sload\n      dup2\n      0xff\n      mul\n      not\n      and\n      swap1\n      dup4\n      iszero\n      iszero\n      mul\n      or\n      swap1\n      sstore\n      pop\n        /* \"contracts/bonding_contract.sol\":1457:1477  Unpaused(msg.sender) */\n      0x5db9ee0a495bf2e6ff9c91a7834c1ba4fdd244a5e8aa4e537bd38aeae4b073aa\n        /* \"contracts/bonding_contract.sol\":1466:1476  msg.sender */\n      caller\n        /* \"contracts/bonding_contract.sol\":1457:1477  Unpaused(msg.sender) */\n      mload(0x40)\n      tag_233\n      swap2\n      swap1\n      tag_36\n      jump\t// in\n    tag_233:\n      mload(0x40)\n      dup1\n      swap2\n      sub\n      swap1\n      log1\n        /* \"contracts/bonding_contract.sol\":1367:1485  function _unpause() internal virtual whenPaused {... */\n      jump\t// out\n        /* \"contracts/bonding_contract.sol\":1243:1359  function _pause() internal virtual whenNotPaused {... */\n    tag_119:\n        /* \"contracts/bonding_contract.sol\":990:998  paused() */\n      tag_235\n        /* \"contracts/bonding_contract.sol\":990:996  paused */\n      tag_40\n        /* \"contracts/bonding_contract.sol\":990:998  paused() */\n      jump\t// in\n    tag_235:\n        /* \"contracts/bonding_contract.sol\":989:998  !paused() */\n      iszero\n        /* \"contracts/bonding_contract.sol\":981:1019  require(!paused(), \"Pausable: paused\") */\n      tag_236\n      jumpi\n      mload(0x40)\n      0x08c379a000000000000000000000000000000000000000000000000000000000\n      dup2\n      mstore\n      0x04\n      add\n      tag_237\n      swap1\n      tag_137\n      jump\t// in\n    tag_237:\n      mload(0x40)\n      dup1\n      swap2\n      sub\n      swap1\n      revert\n    tag_236:\n        /* \"contracts/bonding_contract.sol\":1313:1317  true */\n      0x01\n        /* \"contracts/bonding_contract.sol\":1303:1310  _paused */\n      0x00\n      dup1\n        /* \"contracts/bonding_contract.sol\":1303:1317  _paused = true */\n      0x0100\n      exp\n      dup2\n      sload\n      dup2\n      0xff\n      mul\n      not\n      and\n      swap1\n      dup4\n      iszero\n      iszero\n      mul\n      or\n      swap1\n      sstore\n      pop\n        /* \"contracts/bonding_contract.sol\":1333:1351  Paused(msg.sender) */\n      0x62e78cea01bee320cd4e420270b5ea74000d11b0c9f74754ebdbfc544b05a258\n        /* \"contracts/bonding_contract.sol\":1340:1350  msg.sender */\n      caller\n        /* \"contracts/bonding_contract.sol\":1333:1351  Paused(msg.sender) */\n      mload(0x40)\n      tag_239\n      swap2\n      swap1\n      tag_36\n      jump\t// in\n    tag_239:\n      mload(0x40)\n      dup1\n      swap2\n      sub\n      swap1\n      log1\n        /* \"contracts/bonding_contract.sol\":1243:1359  function _pause() internal virtual whenNotPaused {... */\n      jump\t// out\n        /* \"@openzeppelin/contracts/security/ReentrancyGuard.sol\":2336:2623  function _nonReentrantBefore() private {... */\n    tag_140:\n        /* \"@openzeppelin/contracts/security/ReentrancyGuard.sol\":1759:1760  2 */\n      0x02\n        /* \"@openzeppelin/contracts/security/ReentrancyGuard.sol\":2468:2475  _status */\n      sload(0x01)\n        /* \"@openzeppelin/contracts/security/ReentrancyGuard.sol\":2468:2487  _status != _ENTERED */\n      sub\n        /* \"@openzeppelin/contracts/security/ReentrancyGuard.sol\":2460:2523  require(_status != _ENTERED, \"ReentrancyGuard: reentrant call\") */\n      tag_241\n      jumpi\n      mload(0x40)\n      0x08c379a000000000000000000000000000000000000000000000000000000000\n      dup2\n      mstore\n      0x04\n      add\n      tag_242\n      swap1\n      tag_243\n      jump\t// in\n    tag_242:\n      mload(0x40)\n      dup1\n      swap2\n      sub\n      swap1\n      revert\n    tag_241:\n        /* \"@openzeppelin/contracts/security/ReentrancyGuard.sol\":1759:1760  2 */\n      0x02\n        /* \"@openzeppelin/contracts/security/ReentrancyGuard.sol\":2598:2605  _status */\n      0x01\n        /* \"@openzeppelin/contracts/security/ReentrancyGuard.sol\":2598:2616  _status = _ENTERED */\n      dup2\n      swap1\n      sstore\n      pop\n        /* \"@openzeppelin/contracts/security/ReentrancyGuard.sol\":2336:2623  function _nonReentrantBefore() private {... */\n      jump\t// out\n        /* \"@openzeppelin/contracts/token/ERC20/utils/SafeERC20.sol\":1618:1806  function safeTransferFrom(IERC20 token, address from, address to, uint256 value) internal {... */\n    tag_159:\n        /* \"@openzeppelin/contracts/token/ERC20/utils/SafeERC20.sol\":1718:1799  _callOptionalReturn(token, abi.encodeCall(token.transferFrom, (from, to, value))) */\n      tag_245\n        /* \"@openzeppelin/contracts/token/ERC20/utils/SafeERC20.sol\":1738:1743  token */\n      dup5\n        /* \"@openzeppelin/contracts/token/ERC20/utils/SafeERC20.sol\":1760:1765  token */\n      dup6\n        /* \"@openzeppelin/contracts/token/ERC20/utils/SafeERC20.sol\":1760:1778  token.transferFrom */\n      0xffffffffffffffffffffffffffffffffffffffff\n      and\n      0x23b872dd\n        /* \"@openzeppelin/contracts/token/ERC20/utils/SafeERC20.sol\":1781:1785  from */\n      dup7\n        /* \"@openzeppelin/contracts/token/ERC20/utils/SafeERC20.sol\":1787:1789  to */\n      dup7\n        /* \"@openzeppelin/contracts/token/ERC20/utils/SafeERC20.sol\":1791:1796  value */\n      dup7\n        /* \"@openzeppelin/contracts/token/ERC20/utils/SafeERC20.sol\":1745:1798  abi.encodeCall(token.transferFrom, (from, to, value)) */\n      add(0x24, mload(0x40))\n      tag_246\n      swap4\n      swap3\n      swap2\n      swap1\n      tag_247\n      jump\t// in\n    tag_246:\n      mload(0x40)\n      0x20\n      dup2\n      dup4\n      sub\n      sub\n      dup2\n      mstore\n      swap1\n      0x40\n      mstore\n      swap2\n      pop\n      0xe0\n      shl\n      0x20\n      dup3\n      add\n      dup1\n      mload\n      0xffffffffffffffffffffffffffffffffffffffffffffffffffffffff\n      dup4\n      dup2\n      dup4\n      and\n      or\n      dup4\n      mstore\n      pop\n      pop\n      pop\n      pop\n        /* \"@openzeppelin/contracts/token/ERC20/utils/SafeERC20.sol\":1718:1737  _callOptionalReturn */\n      tag_248\n        /* \"@openzeppelin/contracts/token/ERC20/utils/SafeERC20.sol\":1718:1799  _callOptionalReturn(token, abi.encodeCall(token.transferFrom, (from, to, value))) */\n      jump\t// in\n    tag_245:\n        /* \"@openzeppelin/contracts/token/ERC20/utils/SafeERC20.sol\":1618:1806  function safeTransferFrom(IERC20 token, address from, address to, uint256 value) internal {... */\n      pop\n      pop\n      pop\n      pop\n      jump\t// out\n        /* \"@openzeppelin/contracts/security/ReentrancyGuard.sol\":2629:2838  function _nonReentrantAfter() private {... */\n    tag_194:\n        /* \"@openzeppelin/contracts/security/ReentrancyGuard.sol\":1716:1717  1 */\n      0x01\n        /* \"@openzeppelin/contracts/security/ReentrancyGuard.sol\":2809:2816  _status */\n      dup1\n        /* \"@openzeppelin/contracts/security/ReentrancyGuard.sol\":2809:2831  _status = _NOT_ENTERED */\n      dup2\n      swap1\n      sstore\n      pop\n        /* \"@openzeppelin/contracts/security/ReentrancyGuard.sol\":2629:2838  function _nonReentrantAfter() private {... */\n      jump\t// out\n        /* \"@openzeppelin/contracts/token/ERC20/utils/SafeERC20.sol\":7686:8406  function _callOptionalReturn(IERC20 token, bytes memory data) private {... */\n    tag_248:\n        /* \"@openzeppelin/contracts/token/ERC20/utils/SafeERC20.sol\":7766:7784  uint256 returnSize */\n      0x00\n        /* \"@openzeppelin/contracts/token/ERC20/utils/SafeERC20.sol\":7794:7813  uint256 returnValue */\n      dup1\n        /* \"@openzeppelin/contracts/token/ERC20/utils/SafeERC20.sol\":7932:7936  0x20 */\n      0x20\n        /* \"@openzeppelin/contracts/token/ERC20/utils/SafeERC20.sol\":7929:7930  0 */\n      0x00\n        /* \"@openzeppelin/contracts/token/ERC20/utils/SafeERC20.sol\":7922:7926  data */\n      dup5\n        /* \"@openzeppelin/contracts/token/ERC20/utils/SafeERC20.sol\":7916:7927  mload(data) */\n      mload\n        /* \"@openzeppelin/contracts/token/ERC20/utils/SafeERC20.sol\":7909:7913  0x20 */\n      0x20\n        /* \"@openzeppelin/contracts/token/ERC20/utils/SafeERC20.sol\":7903:7907  data */\n      dup7\n        /* \"@openzeppelin/contracts/token/ERC20/utils/SafeERC20.sol\":7899:7914  add(data, 0x20) */\n      add\n        /* \"@openzeppelin/contracts/token/ERC20/utils/SafeERC20.sol\":7896:7897  0 */\n      0x00\n        /* \"@openzeppelin/contracts/token/ERC20/utils/SafeERC20.sol\":7889:7894  token */\n      dup9\n        /* \"@openzeppelin/contracts/token/ERC20/utils/SafeERC20.sol\":7882:7887  gas() */\n      gas\n        /* \"@openzeppelin/contracts/token/ERC20/utils/SafeERC20.sol\":7877:7937  call(gas(), token, 0, add(data, 0x20), mload(data), 0, 0x20) */\n      call\n        /* \"@openzeppelin/contracts/token/ERC20/utils/SafeERC20.sol\":7989:7996  success */\n      dup1\n        /* \"@openzeppelin/contracts/token/ERC20/utils/SafeERC20.sol\":7979:8155  if iszero(success) {... */\n      tag_251\n      jumpi\n        /* \"@openzeppelin/contracts/token/ERC20/utils/SafeERC20.sol\":8033:8037  0x40 */\n      0x40\n        /* \"@openzeppelin/contracts/token/ERC20/utils/SafeERC20.sol\":8027:8038  mload(0x40) */\n      mload\n        /* \"@openzeppelin/contracts/token/ERC20/utils/SafeERC20.sol\":8078:8094  returndatasize() */\n      returndatasize\n        /* \"@openzeppelin/contracts/token/ERC20/utils/SafeERC20.sol\":8075:8076  0 */\n      0x00\n        /* \"@openzeppelin/contracts/token/ERC20/utils/SafeERC20.sol\":8070:8073  ptr */\n      dup3\n        /* \"@openzeppelin/contracts/token/ERC20/utils/SafeERC20.sol\":8055:8095  returndatacopy(ptr, 0, returndatasize()) */\n      returndatacopy\n        /* \"@openzeppelin/contracts/token/ERC20/utils/SafeERC20.sol\":8124:8140  returndatasize() */\n      returndatasize\n        /* \"@openzeppelin/contracts/token/ERC20/utils/SafeERC20.sol\":8119:8122  ptr */\n      dup2\n        /* \"@openzeppelin/contracts/token/ERC20/utils/SafeERC20.sol\":8112:8141  revert(ptr, returndatasize()) */\n      revert\n        /* \"@openzeppelin/contracts/token/ERC20/utils/SafeERC20.sol\":7979:8155  if iszero(success) {... */\n    tag_251:\n        /* \"@openzeppelin/contracts/token/ERC20/utils/SafeERC20.sol\":8182:8198  returndatasize() */\n      returndatasize\n        /* \"@openzeppelin/contracts/token/ERC20/utils/SafeERC20.sol\":8168:8198  returnSize := returndatasize() */\n      swap3\n      pop\n        /* \"@openzeppelin/contracts/token/ERC20/utils/SafeERC20.sol\":8232:8233  0 */\n      0x00\n        /* \"@openzeppelin/contracts/token/ERC20/utils/SafeERC20.sol\":8226:8234  mload(0) */\n      mload\n        /* \"@openzeppelin/contracts/token/ERC20/utils/SafeERC20.sol\":8211:8234  returnValue := mload(0) */\n      swap2\n      pop\n        /* \"@openzeppelin/contracts/token/ERC20/utils/SafeERC20.sol\":7848:8244  {... */\n      pop\n        /* \"@openzeppelin/contracts/token/ERC20/utils/SafeERC20.sol\":8272:8273  0 */\n      0x00\n        /* \"@openzeppelin/contracts/token/ERC20/utils/SafeERC20.sol\":8258:8268  returnSize */\n      dup3\n        /* \"@openzeppelin/contracts/token/ERC20/utils/SafeERC20.sol\":8258:8273  returnSize == 0 */\n      eq\n        /* \"@openzeppelin/contracts/token/ERC20/utils/SafeERC20.sol\":8258:8326  returnSize == 0 ? address(token).code.length == 0 : returnValue != 1 */\n      tag_252\n      jumpi\n        /* \"@openzeppelin/contracts/token/ERC20/utils/SafeERC20.sol\":8325:8326  1 */\n      0x01\n        /* \"@openzeppelin/contracts/token/ERC20/utils/SafeERC20.sol\":8310:8321  returnValue */\n      dup2\n        /* \"@openzeppelin/contracts/token/ERC20/utils/SafeERC20.sol\":8310:8326  returnValue != 1 */\n      eq\n      iszero\n        /* \"@openzeppelin/contracts/token/ERC20/utils/SafeERC20.sol\":8258:8326  returnSize == 0 ? address(token).code.length == 0 : returnValue != 1 */\n      jump(tag_253)\n    tag_252:\n        /* \"@openzeppelin/contracts/token/ERC20/utils/SafeERC20.sol\":8306:8307  0 */\n      0x00\n        /* \"@openzeppelin/contracts/token/ERC20/utils/SafeERC20.sol\":8284:8289  token */\n      dup5\n        /* \"@openzeppelin/contracts/token/ERC20/utils/SafeERC20.sol\":8276:8302  address(token).code.length */\n      0xffffffffffffffffffffffffffffffffffffffff\n      and\n      extcodesize\n        /* \"@openzeppelin/contracts/token/ERC20/utils/SafeERC20.sol\":8276:8307  address(token).code.length == 0 */\n      eq\n        /* \"@openzeppelin/contracts/token/ERC20/utils/SafeERC20.sol\":8258:8326  returnSize == 0 ? address(token).code.length == 0 : returnValue != 1 */\n    tag_253:\n        /* \"@openzeppelin/contracts/token/ERC20/utils/SafeERC20.sol\":8254:8400  if (returnSize == 0 ? address(token).code.length == 0 : returnValue != 1) {... */\n      iszero\n      tag_254\n      jumpi\n        /* \"@openzeppelin/contracts/token/ERC20/utils/SafeERC20.sol\":8382:8387  token */\n      dup4\n        /* \"@openzeppelin/contracts/token/ERC20/utils/SafeERC20.sol\":8349:8389  SafeERC20FailedOperation(address(token)) */\n      mload(0x40)\n      0x5274afe700000000000000000000000000000000000000000000000000000000\n      dup2\n      mstore\n      0x04\n      add\n      tag_255\n      swap2\n      swap1\n      tag_36\n      jump\t// in\n    tag_255:\n      mload(0x40)\n      dup1\n      swap2\n      sub\n      swap1\n      revert\n        /* \"@openzeppelin/contracts/token/ERC20/utils/SafeERC20.sol\":8254:8400  if (returnSize == 0 ? address(token).code.length == 0 : returnValue != 1) {... */\n    tag_254:\n        /* \"@openzeppelin/contracts/token/ERC20/utils/SafeERC20.sol\":7756:8406  {... */\n      pop\n      pop\n        /* \"@openzeppelin/contracts/token/ERC20/utils/SafeERC20.sol\":7686:8406  function _callOptionalReturn(IERC20 token, bytes memory data) private {... */\n      pop\n      pop\n      jump\t// out\n        /* \"#utility.yul\":88:205   */\n    tag_257:\n        /* \"#utility.yul\":197:198   */\n      0x00\n        /* \"#utility.yul\":194:195   */\n      dup1\n        /* \"#utility.yul\":187:199   */\n      revert\n        /* \"#utility.yul\":334:460   */\n    tag_259:\n        /* \"#utility.yul\":371:378   */\n      0x00\n        /* \"#utility.yul\":411:453   */\n      0xffffffffffffffffffffffffffffffffffffffff\n        /* \"#utility.yul\":404:409   */\n      dup3\n        /* \"#utility.yul\":400:454   */\n      and\n        /* \"#utility.yul\":389:454   */\n      swap1\n      pop\n        /* \"#utility.yul\":334:460   */\n      swap2\n      swap1\n      pop\n      jump\t// out\n        /* \"#utility.yul\":466:562   */\n    tag_260:\n        /* \"#utility.yul\":503:510   */\n      0x00\n        /* \"#utility.yul\":532:556   */\n      tag_302\n        /* \"#utility.yul\":550:555   */\n      dup3\n        /* \"#utility.yul\":532:556   */\n      tag_259\n      jump\t// in\n    tag_302:\n        /* \"#utility.yul\":521:556   */\n      swap1\n      pop\n        /* \"#utility.yul\":466:562   */\n      swap2\n      swap1\n      pop\n      jump\t// out\n        /* \"#utility.yul\":568:690   */\n    tag_261:\n        /* \"#utility.yul\":641:665   */\n      tag_304\n        /* \"#utility.yul\":659:664   */\n      dup2\n        /* \"#utility.yul\":641:665   */\n      tag_260\n      jump\t// in\n    tag_304:\n        /* \"#utility.yul\":634:639   */\n      dup2\n        /* \"#utility.yul\":631:666   */\n      eq\n        /* \"#utility.yul\":621:684   */\n      tag_305\n      jumpi\n        /* \"#utility.yul\":680:681   */\n      0x00\n        /* \"#utility.yul\":677:678   */\n      dup1\n        /* \"#utility.yul\":670:682   */\n      revert\n        /* \"#utility.yul\":621:684   */\n    tag_305:\n        /* \"#utility.yul\":568:690   */\n      pop\n      jump\t// out\n        /* \"#utility.yul\":696:835   */\n    tag_262:\n        /* \"#utility.yul\":742:747   */\n      0x00\n        /* \"#utility.yul\":780:786   */\n      dup2\n        /* \"#utility.yul\":767:787   */\n      calldataload\n        /* \"#utility.yul\":758:787   */\n      swap1\n      pop\n        /* \"#utility.yul\":796:829   */\n      tag_307\n        /* \"#utility.yul\":823:828   */\n      dup2\n        /* \"#utility.yul\":796:829   */\n      tag_261\n      jump\t// in\n    tag_307:\n        /* \"#utility.yul\":696:835   */\n      swap3\n      swap2\n      pop\n      pop\n      jump\t// out\n        /* \"#utility.yul\":841:1170   */\n    tag_29:\n        /* \"#utility.yul\":900:906   */\n      0x00\n        /* \"#utility.yul\":949:951   */\n      0x20\n        /* \"#utility.yul\":937:946   */\n      dup3\n        /* \"#utility.yul\":928:935   */\n      dup5\n        /* \"#utility.yul\":924:947   */\n      sub\n        /* \"#utility.yul\":920:952   */\n      slt\n        /* \"#utility.yul\":917:1036   */\n      iszero\n      tag_309\n      jumpi\n        /* \"#utility.yul\":955:1034   */\n      tag_310\n      tag_257\n      jump\t// in\n    tag_310:\n        /* \"#utility.yul\":917:1036   */\n    tag_309:\n        /* \"#utility.yul\":1075:1076   */\n      0x00\n        /* \"#utility.yul\":1100:1153   */\n      tag_311\n        /* \"#utility.yul\":1145:1152   */\n      dup5\n        /* \"#utility.yul\":1136:1142   */\n      dup3\n        /* \"#utility.yul\":1125:1134   */\n      dup6\n        /* \"#utility.yul\":1121:1143   */\n      add\n        /* \"#utility.yul\":1100:1153   */\n      tag_262\n      jump\t// in\n    tag_311:\n        /* \"#utility.yul\":1090:1153   */\n      swap2\n      pop\n        /* \"#utility.yul\":1046:1163   */\n      pop\n        /* \"#utility.yul\":841:1170   */\n      swap3\n      swap2\n      pop\n      pop\n      jump\t// out\n        /* \"#utility.yul\":1176:1253   */\n    tag_263:\n        /* \"#utility.yul\":1213:1220   */\n      0x00\n        /* \"#utility.yul\":1242:1247   */\n      dup2\n        /* \"#utility.yul\":1231:1247   */\n      swap1\n      pop\n        /* \"#utility.yul\":1176:1253   */\n      swap2\n      swap1\n      pop\n      jump\t// out\n        /* \"#utility.yul\":1259:1377   */\n    tag_264:\n        /* \"#utility.yul\":1346:1370   */\n      tag_314\n        /* \"#utility.yul\":1364:1369   */\n      dup2\n        /* \"#utility.yul\":1346:1370   */\n      tag_263\n      jump\t// in\n    tag_314:\n        /* \"#utility.yul\":1341:1344   */\n      dup3\n        /* \"#utility.yul\":1334:1371   */\n      mstore\n        /* \"#utility.yul\":1259:1377   */\n      pop\n      pop\n      jump\t// out\n        /* \"#utility.yul\":1383:1605   */\n    tag_32:\n        /* \"#utility.yul\":1476:1480   */\n      0x00\n        /* \"#utility.yul\":1514:1516   */\n      0x20\n        /* \"#utility.yul\":1503:1512   */\n      dup3\n        /* \"#utility.yul\":1499:1517   */\n      add\n        /* \"#utility.yul\":1491:1517   */\n      swap1\n      pop\n        /* \"#utility.yul\":1527:1598   */\n      tag_316\n        /* \"#utility.yul\":1595:1596   */\n      0x00\n        /* \"#utility.yul\":1584:1593   */\n      dup4\n        /* \"#utility.yul\":1580:1597   */\n      add\n        /* \"#utility.yul\":1571:1577   */\n      dup5\n        /* \"#utility.yul\":1527:1598   */\n      tag_264\n      jump\t// in\n    tag_316:\n        /* \"#utility.yul\":1383:1605   */\n      swap3\n      swap2\n      pop\n      pop\n      jump\t// out\n        /* \"#utility.yul\":1611:1729   */\n    tag_265:\n        /* \"#utility.yul\":1698:1722   */\n      tag_318\n        /* \"#utility.yul\":1716:1721   */\n      dup2\n        /* \"#utility.yul\":1698:1722   */\n      tag_260\n      jump\t// in\n    tag_318:\n        /* \"#utility.yul\":1693:1696   */\n      dup3\n        /* \"#utility.yul\":1686:1723   */\n      mstore\n        /* \"#utility.yul\":1611:1729   */\n      pop\n      pop\n      jump\t// out\n        /* \"#utility.yul\":1735:1957   */\n    tag_36:\n        /* \"#utility.yul\":1828:1832   */\n      0x00\n        /* \"#utility.yul\":1866:1868   */\n      0x20\n        /* \"#utility.yul\":1855:1864   */\n      dup3\n        /* \"#utility.yul\":1851:1869   */\n      add\n        /* \"#utility.yul\":1843:1869   */\n      swap1\n      pop\n        /* \"#utility.yul\":1879:1950   */\n      tag_320\n        /* \"#utility.yul\":1947:1948   */\n      0x00\n        /* \"#utility.yul\":1936:1945   */\n      dup4\n        /* \"#utility.yul\":1932:1949   */\n      add\n        /* \"#utility.yul\":1923:1929   */\n      dup5\n        /* \"#utility.yul\":1879:1950   */\n      tag_265\n      jump\t// in\n    tag_320:\n        /* \"#utility.yul\":1735:1957   */\n      swap3\n      swap2\n      pop\n      pop\n      jump\t// out\n        /* \"#utility.yul\":1963:2053   */\n    tag_266:\n        /* \"#utility.yul\":1997:2004   */\n      0x00\n        /* \"#utility.yul\":2040:2045   */\n      dup2\n        /* \"#utility.yul\":2033:2046   */\n      iszero\n        /* \"#utility.yul\":2026:2047   */\n      iszero\n        /* \"#utility.yul\":2015:2047   */\n      swap1\n      pop\n        /* \"#utility.yul\":1963:2053   */\n      swap2\n      swap1\n      pop\n      jump\t// out\n        /* \"#utility.yul\":2059:2168   */\n    tag_267:\n        /* \"#utility.yul\":2140:2161   */\n      tag_323\n        /* \"#utility.yul\":2155:2160   */\n      dup2\n        /* \"#utility.yul\":2140:2161   */\n      tag_266\n      jump\t// in\n    tag_323:\n        /* \"#utility.yul\":2135:2138   */\n      dup3\n        /* \"#utility.yul\":2128:2162   */\n      mstore\n        /* \"#utility.yul\":2059:2168   */\n      pop\n      pop\n      jump\t// out\n        /* \"#utility.yul\":2174:2384   */\n    tag_42:\n        /* \"#utility.yul\":2261:2265   */\n      0x00\n        /* \"#utility.yul\":2299:2301   */\n      0x20\n        /* \"#utility.yul\":2288:2297   */\n      dup3\n        /* \"#utility.yul\":2284:2302   */\n      add\n        /* \"#utility.yul\":2276:2302   */\n      swap1\n      pop\n        /* \"#utility.yul\":2312:2377   */\n      tag_325\n        /* \"#utility.yul\":2374:2375   */\n      0x00\n        /* \"#utility.yul\":2363:2372   */\n      dup4\n        /* \"#utility.yul\":2359:2376   */\n      add\n        /* \"#utility.yul\":2350:2356   */\n      dup5\n        /* \"#utility.yul\":2312:2377   */\n      tag_267\n      jump\t// in\n    tag_325:\n        /* \"#utility.yul\":2174:2384   */\n      swap3\n      swap2\n      pop\n      pop\n      jump\t// out\n        /* \"#utility.yul\":2390:2512   */\n    tag_268:\n        /* \"#utility.yul\":2463:2487   */\n      tag_327\n        /* \"#utility.yul\":2481:2486   */\n      dup2\n        /* \"#utility.yul\":2463:2487   */\n      tag_263\n      jump\t// in\n    tag_327:\n        /* \"#utility.yul\":2456:2461   */\n      dup2\n        /* \"#utility.yul\":2453:2488   */\n      eq\n        /* \"#utility.yul\":2443:2506   */\n      tag_328\n      jumpi\n        /* \"#utility.yul\":2502:2503   */\n      0x00\n        /* \"#utility.yul\":2499:2500   */\n      dup1\n        /* \"#utility.yul\":2492:2504   */\n      revert\n        /* \"#utility.yul\":2443:2506   */\n    tag_328:\n        /* \"#utility.yul\":2390:2512   */\n      pop\n      jump\t// out\n        /* \"#utility.yul\":2518:2657   */\n    tag_269:\n        /* \"#utility.yul\":2564:2569   */\n      0x00\n        /* \"#utility.yul\":2602:2608   */\n      dup2\n        /* \"#utility.yul\":2589:2609   */\n      calldataload\n        /* \"#utility.yul\":2580:2609   */\n      swap1\n      pop\n        /* \"#utility.yul\":2618:2651   */\n      tag_330\n        /* \"#utility.yul\":2645:2650   */\n      dup2\n        /* \"#utility.yul\":2618:2651   */\n      tag_268\n      jump\t// in\n    tag_330:\n        /* \"#utility.yul\":2518:2657   */\n      swap3\n      swap2\n      pop\n      pop\n      jump\t// out\n        /* \"#utility.yul\":2663:2992   */\n    tag_45:\n        /* \"#utility.yul\":2722:2728   */\n      0x00\n        /* \"#utility.yul\":2771:2773   */\n      0x20\n        /* \"#utility.yul\":2759:2768   */\n      dup3\n        /* \"#utility.yul\":2750:2757   */\n      dup5\n        /* \"#utility.yul\":2746:2769   */\n      sub\n        /* \"#utility.yul\":2742:2774   */\n      slt\n        /* \"#utility.yul\":2739:2858   */\n      iszero\n      tag_332\n      jumpi\n        /* \"#utility.yul\":2777:2856   */\n      tag_333\n      tag_257\n      jump\t// in\n    tag_333:\n        /* \"#utility.yul\":2739:2858   */\n    tag_332:\n        /* \"#utility.yul\":2897:2898   */\n      0x00\n        /* \"#utility.yul\":2922:2975   */\n      tag_334\n        /* \"#utility.yul\":2967:2974   */\n      dup5\n        /* \"#utility.yul\":2958:2964   */\n      dup3\n        /* \"#utility.yul\":2947:2956   */\n      dup6\n        /* \"#utility.yul\":2943:2965   */\n      add\n        /* \"#utility.yul\":2922:2975   */\n      tag_269\n      jump\t// in\n    tag_334:\n        /* \"#utility.yul\":2912:2975   */\n      swap2\n      pop\n        /* \"#utility.yul\":2868:2985   */\n      pop\n        /* \"#utility.yul\":2663:2992   */\n      swap3\n      swap2\n      pop\n      pop\n      jump\t// out\n        /* \"#utility.yul\":2998:3141   */\n    tag_270:\n        /* \"#utility.yul\":3055:3060   */\n      0x00\n        /* \"#utility.yul\":3086:3092   */\n      dup2\n        /* \"#utility.yul\":3080:3093   */\n      mload\n        /* \"#utility.yul\":3071:3093   */\n      swap1\n      pop\n        /* \"#utility.yul\":3102:3135   */\n      tag_336\n        /* \"#utility.yul\":3129:3134   */\n      dup2\n        /* \"#utility.yul\":3102:3135   */\n      tag_268\n      jump\t// in\n    tag_336:\n        /* \"#utility.yul\":2998:3141   */\n      swap3\n      swap2\n      pop\n      pop\n      jump\t// out\n        /* \"#utility.yul\":3147:3498   */\n    tag_101:\n        /* \"#utility.yul\":3217:3223   */\n      0x00\n        /* \"#utility.yul\":3266:3268   */\n      0x20\n        /* \"#utility.yul\":3254:3263   */\n      dup3\n        /* \"#utility.yul\":3245:3252   */\n      dup5\n        /* \"#utility.yul\":3241:3264   */\n      sub\n        /* \"#utility.yul\":3237:3269   */\n      slt\n        /* \"#utility.yul\":3234:3353   */\n      iszero\n      tag_338\n      jumpi\n        /* \"#utility.yul\":3272:3351   */\n      tag_339\n      tag_257\n      jump\t// in\n    tag_339:\n        /* \"#utility.yul\":3234:3353   */\n    tag_338:\n        /* \"#utility.yul\":3392:3393   */\n      0x00\n        /* \"#utility.yul\":3417:3481   */\n      tag_340\n        /* \"#utility.yul\":3473:3480   */\n      dup5\n        /* \"#utility.yul\":3464:3470   */\n      dup3\n        /* \"#utility.yul\":3453:3462   */\n      dup6\n        /* \"#utility.yul\":3449:3471   */\n      add\n        /* \"#utility.yul\":3417:3481   */\n      tag_270\n      jump\t// in\n    tag_340:\n        /* \"#utility.yul\":3407:3481   */\n      swap2\n      pop\n        /* \"#utility.yul\":3363:3491   */\n      pop\n        /* \"#utility.yul\":3147:3498   */\n      swap3\n      swap2\n      pop\n      pop\n      jump\t// out\n        /* \"#utility.yul\":3504:3673   */\n    tag_271:\n        /* \"#utility.yul\":3588:3599   */\n      0x00\n        /* \"#utility.yul\":3622:3628   */\n      dup3\n        /* \"#utility.yul\":3617:3620   */\n      dup3\n        /* \"#utility.yul\":3610:3629   */\n      mstore\n        /* \"#utility.yul\":3662:3666   */\n      0x20\n        /* \"#utility.yul\":3657:3660   */\n      dup3\n        /* \"#utility.yul\":3653:3667   */\n      add\n        /* \"#utility.yul\":3638:3667   */\n      swap1\n      pop\n        /* \"#utility.yul\":3504:3673   */\n      swap3\n      swap2\n      pop\n      pop\n      jump\t// out\n        /* \"#utility.yul\":3679:3843   */\n    tag_272:\n        /* \"#utility.yul\":3819:3835   */\n      0x4e6f7420617574686f72697a6564000000000000000000000000000000000000\n        /* \"#utility.yul\":3815:3816   */\n      0x00\n        /* \"#utility.yul\":3807:3813   */\n      dup3\n        /* \"#utility.yul\":3803:3817   */\n      add\n        /* \"#utility.yul\":3796:3836   */\n      mstore\n        /* \"#utility.yul\":3679:3843   */\n      pop\n      jump\t// out\n        /* \"#utility.yul\":3849:4215   */\n    tag_273:\n        /* \"#utility.yul\":3991:3994   */\n      0x00\n        /* \"#utility.yul\":4012:4079   */\n      tag_344\n        /* \"#utility.yul\":4076:4078   */\n      0x0e\n        /* \"#utility.yul\":4071:4074   */\n      dup4\n        /* \"#utility.yul\":4012:4079   */\n      tag_271\n      jump\t// in\n    tag_344:\n        /* \"#utility.yul\":4005:4079   */\n      swap2\n      pop\n        /* \"#utility.yul\":4088:4181   */\n      tag_345\n        /* \"#utility.yul\":4177:4180   */\n      dup3\n        /* \"#utility.yul\":4088:4181   */\n      tag_272\n      jump\t// in\n    tag_345:\n        /* \"#utility.yul\":4206:4208   */\n      0x20\n        /* \"#utility.yul\":4201:4204   */\n      dup3\n        /* \"#utility.yul\":4197:4209   */\n      add\n        /* \"#utility.yul\":4190:4209   */\n      swap1\n      pop\n        /* \"#utility.yul\":3849:4215   */\n      swap2\n      swap1\n      pop\n      jump\t// out\n        /* \"#utility.yul\":4221:4640   */\n    tag_105:\n        /* \"#utility.yul\":4387:4391   */\n      0x00\n        /* \"#utility.yul\":4425:4427   */\n      0x20\n        /* \"#utility.yul\":4414:4423   */\n      dup3\n        /* \"#utility.yul\":4410:4428   */\n      add\n        /* \"#utility.yul\":4402:4428   */\n      swap1\n      pop\n        /* \"#utility.yul\":4474:4483   */\n      dup2\n        /* \"#utility.yul\":4468:4472   */\n      dup2\n        /* \"#utility.yul\":4464:4484   */\n      sub\n        /* \"#utility.yul\":4460:4461   */\n      0x00\n        /* \"#utility.yul\":4449:4458   */\n      dup4\n        /* \"#utility.yul\":4445:4462   */\n      add\n        /* \"#utility.yul\":4438:4485   */\n      mstore\n        /* \"#utility.yul\":4502:4633   */\n      tag_347\n        /* \"#utility.yul\":4628:4632   */\n      dup2\n        /* \"#utility.yul\":4502:4633   */\n      tag_273\n      jump\t// in\n    tag_347:\n        /* \"#utility.yul\":4494:4633   */\n      swap1\n      pop\n        /* \"#utility.yul\":4221:4640   */\n      swap2\n      swap1\n      pop\n      jump\t// out\n        /* \"#utility.yul\":4646:4978   */\n    tag_122:\n        /* \"#utility.yul\":4767:4771   */\n      0x00\n        /* \"#utility.yul\":4805:4807   */\n      0x40\n        /* \"#utility.yul\":4794:4803   */\n      dup3\n        /* \"#utility.yul\":4790:4808   */\n      add\n        /* \"#utility.yul\":4782:4808   */\n      swap1\n      pop\n        /* \"#utility.yul\":4818:4889   */\n      tag_349\n        /* \"#utility.yul\":4886:4887   */\n      0x00\n        /* \"#utility.yul\":4875:4884   */\n      dup4\n        /* \"#utility.yul\":4871:4888   */\n      add\n        /* \"#utility.yul\":4862:4868   */\n      dup6\n        /* \"#utility.yul\":4818:4889   */\n      tag_265\n      jump\t// in\n    tag_349:\n        /* \"#utility.yul\":4899:4971   */\n      tag_350\n        /* \"#utility.yul\":4967:4969   */\n      0x20\n        /* \"#utility.yul\":4956:4965   */\n      dup4\n        /* \"#utility.yul\":4952:4970   */\n      add\n        /* \"#utility.yul\":4943:4949   */\n      dup5\n        /* \"#utility.yul\":4899:4971   */\n      tag_265\n      jump\t// in\n    tag_350:\n        /* \"#utility.yul\":4646:4978   */\n      swap4\n      swap3\n      pop\n      pop\n      pop\n      jump\t// out\n        /* \"#utility.yul\":4984:5163   */\n    tag_274:\n        /* \"#utility.yul\":5124:5155   */\n      0x496e76616c696420626f6e642072656365697665722061646472657373000000\n        /* \"#utility.yul\":5120:5121   */\n      0x00\n        /* \"#utility.yul\":5112:5118   */\n      dup3\n        /* \"#utility.yul\":5108:5122   */\n      add\n        /* \"#utility.yul\":5101:5156   */\n      mstore\n        /* \"#utility.yul\":4984:5163   */\n      pop\n      jump\t// out\n        /* \"#utility.yul\":5169:5535   */\n    tag_275:\n        /* \"#utility.yul\":5311:5314   */\n      0x00\n        /* \"#utility.yul\":5332:5399   */\n      tag_353\n        /* \"#utility.yul\":5396:5398   */\n      0x1d\n        /* \"#utility.yul\":5391:5394   */\n      dup4\n        /* \"#utility.yul\":5332:5399   */\n      tag_271\n      jump\t// in\n    tag_353:\n        /* \"#utility.yul\":5325:5399   */\n      swap2\n      pop\n        /* \"#utility.yul\":5408:5501   */\n      tag_354\n        /* \"#utility.yul\":5497:5500   */\n      dup3\n        /* \"#utility.yul\":5408:5501   */\n      tag_274\n      jump\t// in\n    tag_354:\n        /* \"#utility.yul\":5526:5528   */\n      0x20\n        /* \"#utility.yul\":5521:5524   */\n      dup3\n        /* \"#utility.yul\":5517:5529   */\n      add\n        /* \"#utility.yul\":5510:5529   */\n      swap1\n      pop\n        /* \"#utility.yul\":5169:5535   */\n      swap2\n      swap1\n      pop\n      jump\t// out\n        /* \"#utility.yul\":5541:5960   */\n    tag_132:\n        /* \"#utility.yul\":5707:5711   */\n      0x00\n        /* \"#utility.yul\":5745:5747   */\n      0x20\n        /* \"#utility.yul\":5734:5743   */\n      dup3\n        /* \"#utility.yul\":5730:5748   */\n      add\n        /* \"#utility.yul\":5722:5748   */\n      swap1\n      pop\n        /* \"#utility.yul\":5794:5803   */\n      dup2\n        /* \"#utility.yul\":5788:5792   */\n      dup2\n        /* \"#utility.yul\":5784:5804   */\n      sub\n        /* \"#utility.yul\":5780:5781   */\n      0x00\n        /* \"#utility.yul\":5769:5778   */\n      dup4\n        /* \"#utility.yul\":5765:5782   */\n      add\n        /* \"#utility.yul\":5758:5805   */\n      mstore\n        /* \"#utility.yul\":5822:5953   */\n      tag_356\n        /* \"#utility.yul\":5948:5952   */\n      dup2\n        /* \"#utility.yul\":5822:5953   */\n      tag_275\n      jump\t// in\n    tag_356:\n        /* \"#utility.yul\":5814:5953   */\n      swap1\n      pop\n        /* \"#utility.yul\":5541:5960   */\n      swap2\n      swap1\n      pop\n      jump\t// out\n        /* \"#utility.yul\":5966:6132   */\n    tag_276:\n        /* \"#utility.yul\":6106:6124   */\n      0x5061757361626c653a2070617573656400000000000000000000000000000000\n        /* \"#utility.yul\":6102:6103   */\n      0x00\n        /* \"#utility.yul\":6094:6100   */\n      dup3\n        /* \"#utility.yul\":6090:6104   */\n      add\n        /* \"#utility.yul\":6083:6125   */\n      mstore\n        /* \"#utility.yul\":5966:6132   */\n      pop\n      jump\t// out\n        /* \"#utility.yul\":6138:6504   */\n    tag_277:\n        /* \"#utility.yul\":6280:6283   */\n      0x00\n        /* \"#utility.yul\":6301:6368   */\n      tag_359\n        /* \"#utility.yul\":6365:6367   */\n      0x10\n        /* \"#utility.yul\":6360:6363   */\n      dup4\n        /* \"#utility.yul\":6301:6368   */\n      tag_271\n      jump\t// in\n    tag_359:\n        /* \"#utility.yul\":6294:6368   */\n      swap2\n      pop\n        /* \"#utility.yul\":6377:6470   */\n      tag_360\n        /* \"#utility.yul\":6466:6469   */\n      dup3\n        /* \"#utility.yul\":6377:6470   */\n      tag_276\n      jump\t// in\n    tag_360:\n        /* \"#utility.yul\":6495:6497   */\n      0x20\n        /* \"#utility.yul\":6490:6493   */\n      dup3\n        /* \"#utility.yul\":6486:6498   */\n      add\n        /* \"#utility.yul\":6479:6498   */\n      swap1\n      pop\n        /* \"#utility.yul\":6138:6504   */\n      swap2\n      swap1\n      pop\n      jump\t// out\n        /* \"#utility.yul\":6510:6929   */\n    tag_137:\n        /* \"#utility.yul\":6676:6680   */\n      0x00\n        /* \"#utility.yul\":6714:6716   */\n      0x20\n        /* \"#utility.yul\":6703:6712   */\n      dup3\n        /* \"#utility.yul\":6699:6717   */\n      add\n        /* \"#utility.yul\":6691:6717   */\n      swap1\n      pop\n        /* \"#utility.yul\":6763:6772   */\n      dup2\n        /* \"#utility.yul\":6757:6761   */\n      dup2\n        /* \"#utility.yul\":6753:6773   */\n      sub\n        /* \"#utility.yul\":6749:6750   */\n      0x00\n        /* \"#utility.yul\":6738:6747   */\n      dup4\n        /* \"#utility.yul\":6734:6751   */\n      add\n        /* \"#utility.yul\":6727:6774   */\n      mstore\n        /* \"#utility.yul\":6791:6922   */\n      tag_362\n        /* \"#utility.yul\":6917:6921   */\n      dup2\n        /* \"#utility.yul\":6791:6922   */\n      tag_277\n      jump\t// in\n    tag_362:\n        /* \"#utility.yul\":6783:6922   */\n      swap1\n      pop\n        /* \"#utility.yul\":6510:6929   */\n      swap2\n      swap1\n      pop\n      jump\t// out\n        /* \"#utility.yul\":6935:7113   */\n    tag_278:\n        /* \"#utility.yul\":7075:7105   */\n      0x4d757374206465706f73697420746f6b656e416d6f756e74203e203000000000\n        /* \"#utility.yul\":7071:7072   */\n      0x00\n        /* \"#utility.yul\":7063:7069   */\n      dup3\n        /* \"#utility.yul\":7059:7073   */\n      add\n        /* \"#utility.yul\":7052:7106   */\n      mstore\n        /* \"#utility.yul\":6935:7113   */\n      pop\n      jump\t// out\n        /* \"#utility.yul\":7119:7485   */\n    tag_279:\n        /* \"#utility.yul\":7261:7264   */\n      0x00\n        /* \"#utility.yul\":7282:7349   */\n      tag_365\n        /* \"#utility.yul\":7346:7348   */\n      0x1c\n        /* \"#utility.yul\":7341:7344   */\n      dup4\n        /* \"#utility.yul\":7282:7349   */\n      tag_271\n      jump\t// in\n    tag_365:\n        /* \"#utility.yul\":7275:7349   */\n      swap2\n      pop\n        /* \"#utility.yul\":7358:7451   */\n      tag_366\n        /* \"#utility.yul\":7447:7450   */\n      dup3\n        /* \"#utility.yul\":7358:7451   */\n      tag_278\n      jump\t// in\n    tag_366:\n        /* \"#utility.yul\":7476:7478   */\n      0x20\n        /* \"#utility.yul\":7471:7474   */\n      dup3\n        /* \"#utility.yul\":7467:7479   */\n      add\n        /* \"#utility.yul\":7460:7479   */\n      swap1\n      pop\n        /* \"#utility.yul\":7119:7485   */\n      swap2\n      swap1\n      pop\n      jump\t// out\n        /* \"#utility.yul\":7491:7910   */\n    tag_144:\n        /* \"#utility.yul\":7657:7661   */\n      0x00\n        /* \"#utility.yul\":7695:7697   */\n      0x20\n        /* \"#utility.yul\":7684:7693   */\n      dup3\n        /* \"#utility.yul\":7680:7698   */\n      add\n        /* \"#utility.yul\":7672:7698   */\n      swap1\n      pop\n        /* \"#utility.yul\":7744:7753   */\n      dup2\n        /* \"#utility.yul\":7738:7742   */\n      dup2\n        /* \"#utility.yul\":7734:7754   */\n      sub\n        /* \"#utility.yul\":7730:7731   */\n      0x00\n        /* \"#utility.yul\":7719:7728   */\n      dup4\n        /* \"#utility.yul\":7715:7732   */\n      add\n        /* \"#utility.yul\":7708:7755   */\n      mstore\n        /* \"#utility.yul\":7772:7903   */\n      tag_368\n        /* \"#utility.yul\":7898:7902   */\n      dup2\n        /* \"#utility.yul\":7772:7903   */\n      tag_279\n      jump\t// in\n    tag_368:\n        /* \"#utility.yul\":7764:7903   */\n      swap1\n      pop\n        /* \"#utility.yul\":7491:7910   */\n      swap2\n      swap1\n      pop\n      jump\t// out\n        /* \"#utility.yul\":7916:8096   */\n    tag_280:\n        /* \"#utility.yul\":7964:8041   */\n      0x4e487b7100000000000000000000000000000000000000000000000000000000\n        /* \"#utility.yul\":7961:7962   */\n      0x00\n        /* \"#utility.yul\":7954:8042   */\n      mstore\n        /* \"#utility.yul\":8061:8065   */\n      0x11\n        /* \"#utility.yul\":8058:8059   */\n      0x04\n        /* \"#utility.yul\":8051:8066   */\n      mstore\n        /* \"#utility.yul\":8085:8089   */\n      0x24\n        /* \"#utility.yul\":8082:8083   */\n      0x00\n        /* \"#utility.yul\":8075:8090   */\n      revert\n        /* \"#utility.yul\":8102:8512   */\n    tag_146:\n        /* \"#utility.yul\":8142:8149   */\n      0x00\n        /* \"#utility.yul\":8165:8185   */\n      tag_371\n        /* \"#utility.yul\":8183:8184   */\n      dup3\n        /* \"#utility.yul\":8165:8185   */\n      tag_263\n      jump\t// in\n    tag_371:\n        /* \"#utility.yul\":8160:8185   */\n      swap2\n      pop\n        /* \"#utility.yul\":8199:8219   */\n      tag_372\n        /* \"#utility.yul\":8217:8218   */\n      dup4\n        /* \"#utility.yul\":8199:8219   */\n      tag_263\n      jump\t// in\n    tag_372:\n        /* \"#utility.yul\":8194:8219   */\n      swap3\n      pop\n        /* \"#utility.yul\":8254:8255   */\n      dup3\n        /* \"#utility.yul\":8251:8252   */\n      dup3\n        /* \"#utility.yul\":8247:8256   */\n      mul\n        /* \"#utility.yul\":8276:8306   */\n      tag_373\n        /* \"#utility.yul\":8294:8305   */\n      dup2\n        /* \"#utility.yul\":8276:8306   */\n      tag_263\n      jump\t// in\n    tag_373:\n        /* \"#utility.yul\":8265:8306   */\n      swap2\n      pop\n        /* \"#utility.yul\":8455:8456   */\n      dup3\n        /* \"#utility.yul\":8446:8453   */\n      dup3\n        /* \"#utility.yul\":8442:8457   */\n      div\n        /* \"#utility.yul\":8439:8440   */\n      dup5\n        /* \"#utility.yul\":8436:8458   */\n      eq\n        /* \"#utility.yul\":8416:8417   */\n      dup4\n        /* \"#utility.yul\":8409:8418   */\n      iszero\n        /* \"#utility.yul\":8389:8472   */\n      or\n        /* \"#utility.yul\":8366:8505   */\n      tag_374\n      jumpi\n        /* \"#utility.yul\":8485:8503   */\n      tag_375\n      tag_280\n      jump\t// in\n    tag_375:\n        /* \"#utility.yul\":8366:8505   */\n    tag_374:\n        /* \"#utility.yul\":8150:8512   */\n      pop\n        /* \"#utility.yul\":8102:8512   */\n      swap3\n      swap2\n      pop\n      pop\n      jump\t// out\n        /* \"#utility.yul\":8518:8698   */\n    tag_281:\n        /* \"#utility.yul\":8566:8643   */\n      0x4e487b7100000000000000000000000000000000000000000000000000000000\n        /* \"#utility.yul\":8563:8564   */\n      0x00\n        /* \"#utility.yul\":8556:8644   */\n      mstore\n        /* \"#utility.yul\":8663:8667   */\n      0x12\n        /* \"#utility.yul\":8660:8661   */\n      0x04\n        /* \"#utility.yul\":8653:8668   */\n      mstore\n        /* \"#utility.yul\":8687:8691   */\n      0x24\n        /* \"#utility.yul\":8684:8685   */\n      0x00\n        /* \"#utility.yul\":8677:8692   */\n      revert\n        /* \"#utility.yul\":8704:8889   */\n    tag_148:\n        /* \"#utility.yul\":8744:8745   */\n      0x00\n        /* \"#utility.yul\":8761:8781   */\n      tag_378\n        /* \"#utility.yul\":8779:8780   */\n      dup3\n        /* \"#utility.yul\":8761:8781   */\n      tag_263\n      jump\t// in\n    tag_378:\n        /* \"#utility.yul\":8756:8781   */\n      swap2\n      pop\n        /* \"#utility.yul\":8795:8815   */\n      tag_379\n        /* \"#utility.yul\":8813:8814   */\n      dup4\n        /* \"#utility.yul\":8795:8815   */\n      tag_263\n      jump\t// in\n    tag_379:\n        /* \"#utility.yul\":8790:8815   */\n      swap3\n      pop\n        /* \"#utility.yul\":8834:8835   */\n      dup3\n        /* \"#utility.yul\":8824:8859   */\n      tag_380\n      jumpi\n        /* \"#utility.yul\":8839:8857   */\n      tag_381\n      tag_281\n      jump\t// in\n    tag_381:\n        /* \"#utility.yul\":8824:8859   */\n    tag_380:\n        /* \"#utility.yul\":8881:8882   */\n      dup3\n        /* \"#utility.yul\":8878:8879   */\n      dup3\n        /* \"#utility.yul\":8874:8883   */\n      div\n        /* \"#utility.yul\":8869:8883   */\n      swap1\n      pop\n        /* \"#utility.yul\":8704:8889   */\n      swap3\n      swap2\n      pop\n      pop\n      jump\t// out\n        /* \"#utility.yul\":8895:9089   */\n    tag_150:\n        /* \"#utility.yul\":8935:8939   */\n      0x00\n        /* \"#utility.yul\":8955:8975   */\n      tag_383\n        /* \"#utility.yul\":8973:8974   */\n      dup3\n        /* \"#utility.yul\":8955:8975   */\n      tag_263\n      jump\t// in\n    tag_383:\n        /* \"#utility.yul\":8950:8975   */\n      swap2\n      pop\n        /* \"#utility.yul\":8989:9009   */\n      tag_384\n        /* \"#utility.yul\":9007:9008   */\n      dup4\n        /* \"#utility.yul\":8989:9009   */\n      tag_263\n      jump\t// in\n    tag_384:\n        /* \"#utility.yul\":8984:9009   */\n      swap3\n      pop\n        /* \"#utility.yul\":9033:9034   */\n      dup3\n        /* \"#utility.yul\":9030:9031   */\n      dup3\n        /* \"#utility.yul\":9026:9035   */\n      sub\n        /* \"#utility.yul\":9018:9035   */\n      swap1\n      pop\n        /* \"#utility.yul\":9057:9058   */\n      dup2\n        /* \"#utility.yul\":9051:9055   */\n      dup2\n        /* \"#utility.yul\":9048:9059   */\n      gt\n        /* \"#utility.yul\":9045:9082   */\n      iszero\n      tag_385\n      jumpi\n        /* \"#utility.yul\":9062:9080   */\n      tag_386\n      tag_280\n      jump\t// in\n    tag_386:\n        /* \"#utility.yul\":9045:9082   */\n    tag_385:\n        /* \"#utility.yul\":8895:9089   */\n      swap3\n      swap2\n      pop\n      pop\n      jump\t// out\n        /* \"#utility.yul\":9095:9269   */\n    tag_282:\n        /* \"#utility.yul\":9235:9261   */\n      0x416c6c6f77616e6365206e6f742073756666696369656e740000000000000000\n        /* \"#utility.yul\":9231:9232   */\n      0x00\n        /* \"#utility.yul\":9223:9229   */\n      dup3\n        /* \"#utility.yul\":9219:9233   */\n      add\n        /* \"#utility.yul\":9212:9262   */\n      mstore\n        /* \"#utility.yul\":9095:9269   */\n      pop\n      jump\t// out\n        /* \"#utility.yul\":9275:9641   */\n    tag_283:\n        /* \"#utility.yul\":9417:9420   */\n      0x00\n        /* \"#utility.yul\":9438:9505   */\n      tag_389\n        /* \"#utility.yul\":9502:9504   */\n      0x18\n        /* \"#utility.yul\":9497:9500   */\n      dup4\n        /* \"#utility.yul\":9438:9505   */\n      tag_271\n      jump\t// in\n    tag_389:\n        /* \"#utility.yul\":9431:9505   */\n      swap2\n      pop\n        /* \"#utility.yul\":9514:9607   */\n      tag_390\n        /* \"#utility.yul\":9603:9606   */\n      dup3\n        /* \"#utility.yul\":9514:9607   */\n      tag_282\n      jump\t// in\n    tag_390:\n        /* \"#utility.yul\":9632:9634   */\n      0x20\n        /* \"#utility.yul\":9627:9630   */\n      dup3\n        /* \"#utility.yul\":9623:9635   */\n      add\n        /* \"#utility.yul\":9616:9635   */\n      swap1\n      pop\n        /* \"#utility.yul\":9275:9641   */\n      swap2\n      swap1\n      pop\n      jump\t// out\n        /* \"#utility.yul\":9647:10066   */\n    tag_157:\n        /* \"#utility.yul\":9813:9817   */\n      0x00\n        /* \"#utility.yul\":9851:9853   */\n      0x20\n        /* \"#utility.yul\":9840:9849   */\n      dup3\n        /* \"#utility.yul\":9836:9854   */\n      add\n        /* \"#utility.yul\":9828:9854   */\n      swap1\n      pop\n        /* \"#utility.yul\":9900:9909   */\n      dup2\n        /* \"#utility.yul\":9894:9898   */\n      dup2\n        /* \"#utility.yul\":9890:9910   */\n      sub\n        /* \"#utility.yul\":9886:9887   */\n      0x00\n        /* \"#utility.yul\":9875:9884   */\n      dup4\n        /* \"#utility.yul\":9871:9888   */\n      add\n        /* \"#utility.yul\":9864:9911   */\n      mstore\n        /* \"#utility.yul\":9928:10059   */\n      tag_392\n        /* \"#utility.yul\":10054:10058   */\n      dup2\n        /* \"#utility.yul\":9928:10059   */\n      tag_283\n      jump\t// in\n    tag_392:\n        /* \"#utility.yul\":9920:10059   */\n      swap1\n      pop\n        /* \"#utility.yul\":9647:10066   */\n      swap2\n      swap1\n      pop\n      jump\t// out\n        /* \"#utility.yul\":10072:10404   */\n    tag_182:\n        /* \"#utility.yul\":10193:10197   */\n      0x00\n        /* \"#utility.yul\":10231:10233   */\n      0x40\n        /* \"#utility.yul\":10220:10229   */\n      dup3\n        /* \"#utility.yul\":10216:10234   */\n      add\n        /* \"#utility.yul\":10208:10234   */\n      swap1\n      pop\n        /* \"#utility.yul\":10244:10315   */\n      tag_394\n        /* \"#utility.yul\":10312:10313   */\n      0x00\n        /* \"#utility.yul\":10301:10310   */\n      dup4\n        /* \"#utility.yul\":10297:10314   */\n      add\n        /* \"#utility.yul\":10288:10294   */\n      dup6\n        /* \"#utility.yul\":10244:10315   */\n      tag_265\n      jump\t// in\n    tag_394:\n        /* \"#utility.yul\":10325:10397   */\n      tag_395\n        /* \"#utility.yul\":10393:10395   */\n      0x20\n        /* \"#utility.yul\":10382:10391   */\n      dup4\n        /* \"#utility.yul\":10378:10396   */\n      add\n        /* \"#utility.yul\":10369:10375   */\n      dup5\n        /* \"#utility.yul\":10325:10397   */\n      tag_264\n      jump\t// in\n    tag_395:\n        /* \"#utility.yul\":10072:10404   */\n      swap4\n      swap3\n      pop\n      pop\n      pop\n      jump\t// out\n        /* \"#utility.yul\":10410:10526   */\n    tag_284:\n        /* \"#utility.yul\":10480:10501   */\n      tag_397\n        /* \"#utility.yul\":10495:10500   */\n      dup2\n        /* \"#utility.yul\":10480:10501   */\n      tag_266\n      jump\t// in\n    tag_397:\n        /* \"#utility.yul\":10473:10478   */\n      dup2\n        /* \"#utility.yul\":10470:10502   */\n      eq\n        /* \"#utility.yul\":10460:10520   */\n      tag_398\n      jumpi\n        /* \"#utility.yul\":10516:10517   */\n      0x00\n        /* \"#utility.yul\":10513:10514   */\n      dup1\n        /* \"#utility.yul\":10506:10518   */\n      revert\n        /* \"#utility.yul\":10460:10520   */\n    tag_398:\n        /* \"#utility.yul\":10410:10526   */\n      pop\n      jump\t// out\n        /* \"#utility.yul\":10532:10669   */\n    tag_285:\n        /* \"#utility.yul\":10586:10591   */\n      0x00\n        /* \"#utility.yul\":10617:10623   */\n      dup2\n        /* \"#utility.yul\":10611:10624   */\n      mload\n        /* \"#utility.yul\":10602:10624   */\n      swap1\n      pop\n        /* \"#utility.yul\":10633:10663   */\n      tag_400\n        /* \"#utility.yul\":10657:10662   */\n      dup2\n        /* \"#utility.yul\":10633:10663   */\n      tag_284\n      jump\t// in\n    tag_400:\n        /* \"#utility.yul\":10532:10669   */\n      swap3\n      swap2\n      pop\n      pop\n      jump\t// out\n        /* \"#utility.yul\":10675:11020   */\n    tag_190:\n        /* \"#utility.yul\":10742:10748   */\n      0x00\n        /* \"#utility.yul\":10791:10793   */\n      0x20\n        /* \"#utility.yul\":10779:10788   */\n      dup3\n        /* \"#utility.yul\":10770:10777   */\n      dup5\n        /* \"#utility.yul\":10766:10789   */\n      sub\n        /* \"#utility.yul\":10762:10794   */\n      slt\n        /* \"#utility.yul\":10759:10878   */\n      iszero\n      tag_402\n      jumpi\n        /* \"#utility.yul\":10797:10876   */\n      tag_403\n      tag_257\n      jump\t// in\n    tag_403:\n        /* \"#utility.yul\":10759:10878   */\n    tag_402:\n        /* \"#utility.yul\":10917:10918   */\n      0x00\n        /* \"#utility.yul\":10942:11003   */\n      tag_404\n        /* \"#utility.yul\":10995:11002   */\n      dup5\n        /* \"#utility.yul\":10986:10992   */\n      dup3\n        /* \"#utility.yul\":10975:10984   */\n      dup6\n        /* \"#utility.yul\":10971:10993   */\n      add\n        /* \"#utility.yul\":10942:11003   */\n      tag_285\n      jump\t// in\n    tag_404:\n        /* \"#utility.yul\":10932:11003   */\n      swap2\n      pop\n        /* \"#utility.yul\":10888:11013   */\n      pop\n        /* \"#utility.yul\":10675:11020   */\n      swap3\n      swap2\n      pop\n      pop\n      jump\t// out\n        /* \"#utility.yul\":11026:11358   */\n    tag_192:\n        /* \"#utility.yul\":11147:11151   */\n      0x00\n        /* \"#utility.yul\":11185:11187   */\n      0x40\n        /* \"#utility.yul\":11174:11183   */\n      dup3\n        /* \"#utility.yul\":11170:11188   */\n      add\n        /* \"#utility.yul\":11162:11188   */\n      swap1\n      pop\n        /* \"#utility.yul\":11198:11269   */\n      tag_406\n        /* \"#utility.yul\":11266:11267   */\n      0x00\n        /* \"#utility.yul\":11255:11264   */\n      dup4\n        /* \"#utility.yul\":11251:11268   */\n      add\n        /* \"#utility.yul\":11242:11248   */\n      dup6\n        /* \"#utility.yul\":11198:11269   */\n      tag_264\n      jump\t// in\n    tag_406:\n        /* \"#utility.yul\":11279:11351   */\n      tag_407\n        /* \"#utility.yul\":11347:11349   */\n      0x20\n        /* \"#utility.yul\":11336:11345   */\n      dup4\n        /* \"#utility.yul\":11332:11350   */\n      add\n        /* \"#utility.yul\":11323:11329   */\n      dup5\n        /* \"#utility.yul\":11279:11351   */\n      tag_264\n      jump\t// in\n    tag_407:\n        /* \"#utility.yul\":11026:11358   */\n      swap4\n      swap3\n      pop\n      pop\n      pop\n      jump\t// out\n        /* \"#utility.yul\":11364:11526   */\n    tag_286:\n        /* \"#utility.yul\":11504:11518   */\n      0x54617820746f6f20686967680000000000000000000000000000000000000000\n        /* \"#utility.yul\":11500:11501   */\n      0x00\n        /* \"#utility.yul\":11492:11498   */\n      dup3\n        /* \"#utility.yul\":11488:11502   */\n      add\n        /* \"#utility.yul\":11481:11519   */\n      mstore\n        /* \"#utility.yul\":11364:11526   */\n      pop\n      jump\t// out\n        /* \"#utility.yul\":11532:11898   */\n    tag_287:\n        /* \"#utility.yul\":11674:11677   */\n      0x00\n        /* \"#utility.yul\":11695:11762   */\n      tag_410\n        /* \"#utility.yul\":11759:11761   */\n      0x0c\n        /* \"#utility.yul\":11754:11757   */\n      dup4\n        /* \"#utility.yul\":11695:11762   */\n      tag_271\n      jump\t// in\n    tag_410:\n        /* \"#utility.yul\":11688:11762   */\n      swap2\n      pop\n        /* \"#utility.yul\":11771:11864   */\n      tag_411\n        /* \"#utility.yul\":11860:11863   */\n      dup3\n        /* \"#utility.yul\":11771:11864   */\n      tag_286\n      jump\t// in\n    tag_411:\n        /* \"#utility.yul\":11889:11891   */\n      0x20\n        /* \"#utility.yul\":11884:11887   */\n      dup3\n        /* \"#utility.yul\":11880:11892   */\n      add\n        /* \"#utility.yul\":11873:11892   */\n      swap1\n      pop\n        /* \"#utility.yul\":11532:11898   */\n      swap2\n      swap1\n      pop\n      jump\t// out\n        /* \"#utility.yul\":11904:12323   */\n    tag_206:\n        /* \"#utility.yul\":12070:12074   */\n      0x00\n        /* \"#utility.yul\":12108:12110   */\n      0x20\n        /* \"#utility.yul\":12097:12106   */\n      dup3\n        /* \"#utility.yul\":12093:12111   */\n      add\n        /* \"#utility.yul\":12085:12111   */\n      swap1\n      pop\n        /* \"#utility.yul\":12157:12166   */\n      dup2\n        /* \"#utility.yul\":12151:12155   */\n      dup2\n        /* \"#utility.yul\":12147:12167   */\n      sub\n        /* \"#utility.yul\":12143:12144   */\n      0x00\n        /* \"#utility.yul\":12132:12141   */\n      dup4\n        /* \"#utility.yul\":12128:12145   */\n      add\n        /* \"#utility.yul\":12121:12168   */\n      mstore\n        /* \"#utility.yul\":12185:12316   */\n      tag_413\n        /* \"#utility.yul\":12311:12315   */\n      dup2\n        /* \"#utility.yul\":12185:12316   */\n      tag_287\n      jump\t// in\n    tag_413:\n        /* \"#utility.yul\":12177:12316   */\n      swap1\n      pop\n        /* \"#utility.yul\":11904:12323   */\n      swap2\n      swap1\n      pop\n      jump\t// out\n        /* \"#utility.yul\":12329:12494   */\n    tag_288:\n        /* \"#utility.yul\":12469:12486   */\n      0x496e76616c696420616464726573730000000000000000000000000000000000\n        /* \"#utility.yul\":12465:12466   */\n      0x00\n        /* \"#utility.yul\":12457:12463   */\n      dup3\n        /* \"#utility.yul\":12453:12467   */\n      add\n        /* \"#utility.yul\":12446:12487   */\n      mstore\n        /* \"#utility.yul\":12329:12494   */\n      pop\n      jump\t// out\n        /* \"#utility.yul\":12500:12866   */\n    tag_289:\n        /* \"#utility.yul\":12642:12645   */\n      0x00\n        /* \"#utility.yul\":12663:12730   */\n      tag_416\n        /* \"#utility.yul\":12727:12729   */\n      0x0f\n        /* \"#utility.yul\":12722:12725   */\n      dup4\n        /* \"#utility.yul\":12663:12730   */\n      tag_271\n      jump\t// in\n    tag_416:\n        /* \"#utility.yul\":12656:12730   */\n      swap2\n      pop\n        /* \"#utility.yul\":12739:12832   */\n      tag_417\n        /* \"#utility.yul\":12828:12831   */\n      dup3\n        /* \"#utility.yul\":12739:12832   */\n      tag_288\n      jump\t// in\n    tag_417:\n        /* \"#utility.yul\":12857:12859   */\n      0x20\n        /* \"#utility.yul\":12852:12855   */\n      dup3\n        /* \"#utility.yul\":12848:12860   */\n      add\n        /* \"#utility.yul\":12841:12860   */\n      swap1\n      pop\n        /* \"#utility.yul\":12500:12866   */\n      swap2\n      swap1\n      pop\n      jump\t// out\n        /* \"#utility.yul\":12872:13291   */\n    tag_219:\n        /* \"#utility.yul\":13038:13042   */\n      0x00\n        /* \"#utility.yul\":13076:13078   */\n      0x20\n        /* \"#utility.yul\":13065:13074   */\n      dup3\n        /* \"#utility.yul\":13061:13079   */\n      add\n        /* \"#utility.yul\":13053:13079   */\n      swap1\n      pop\n        /* \"#utility.yul\":13125:13134   */\n      dup2\n        /* \"#utility.yul\":13119:13123   */\n      dup2\n        /* \"#utility.yul\":13115:13135   */\n      sub\n        /* \"#utility.yul\":13111:13112   */\n      0x00\n        /* \"#utility.yul\":13100:13109   */\n      dup4\n        /* \"#utility.yul\":13096:13113   */\n      add\n        /* \"#utility.yul\":13089:13136   */\n      mstore\n        /* \"#utility.yul\":13153:13284   */\n      tag_419\n        /* \"#utility.yul\":13279:13283   */\n      dup2\n        /* \"#utility.yul\":13153:13284   */\n      tag_289\n      jump\t// in\n    tag_419:\n        /* \"#utility.yul\":13145:13284   */\n      swap1\n      pop\n        /* \"#utility.yul\":12872:13291   */\n      swap2\n      swap1\n      pop\n      jump\t// out\n        /* \"#utility.yul\":13297:13479   */\n    tag_290:\n        /* \"#utility.yul\":13437:13471   */\n      0x4e6577206f776e65722063616e6e6f74206265207a65726f2061646472657373\n        /* \"#utility.yul\":13433:13434   */\n      0x00\n        /* \"#utility.yul\":13425:13431   */\n      dup3\n        /* \"#utility.yul\":13421:13435   */\n      add\n        /* \"#utility.yul\":13414:13472   */\n      mstore\n        /* \"#utility.yul\":13297:13479   */\n      pop\n      jump\t// out\n        /* \"#utility.yul\":13485:13851   */\n    tag_291:\n        /* \"#utility.yul\":13627:13630   */\n      0x00\n        /* \"#utility.yul\":13648:13715   */\n      tag_422\n        /* \"#utility.yul\":13712:13714   */\n      0x20\n        /* \"#utility.yul\":13707:13710   */\n      dup4\n        /* \"#utility.yul\":13648:13715   */\n      tag_271\n      jump\t// in\n    tag_422:\n        /* \"#utility.yul\":13641:13715   */\n      swap2\n      pop\n        /* \"#utility.yul\":13724:13817   */\n      tag_423\n        /* \"#utility.yul\":13813:13816   */\n      dup3\n        /* \"#utility.yul\":13724:13817   */\n      tag_290\n      jump\t// in\n    tag_423:\n        /* \"#utility.yul\":13842:13844   */\n      0x20\n        /* \"#utility.yul\":13837:13840   */\n      dup3\n        /* \"#utility.yul\":13833:13845   */\n      add\n        /* \"#utility.yul\":13826:13845   */\n      swap1\n      pop\n        /* \"#utility.yul\":13485:13851   */\n      swap2\n      swap1\n      pop\n      jump\t// out\n        /* \"#utility.yul\":13857:14276   */\n    tag_226:\n        /* \"#utility.yul\":14023:14027   */\n      0x00\n        /* \"#utility.yul\":14061:14063   */\n      0x20\n        /* \"#utility.yul\":14050:14059   */\n      dup3\n        /* \"#utility.yul\":14046:14064   */\n      add\n        /* \"#utility.yul\":14038:14064   */\n      swap1\n      pop\n        /* \"#utility.yul\":14110:14119   */\n      dup2\n        /* \"#utility.yul\":14104:14108   */\n      dup2\n        /* \"#utility.yul\":14100:14120   */\n      sub\n        /* \"#utility.yul\":14096:14097   */\n      0x00\n        /* \"#utility.yul\":14085:14094   */\n      dup4\n        /* \"#utility.yul\":14081:14098   */\n      add\n        /* \"#utility.yul\":14074:14121   */\n      mstore\n        /* \"#utility.yul\":14138:14269   */\n      tag_425\n        /* \"#utility.yul\":14264:14268   */\n      dup2\n        /* \"#utility.yul\":14138:14269   */\n      tag_291\n      jump\t// in\n    tag_425:\n        /* \"#utility.yul\":14130:14269   */\n      swap1\n      pop\n        /* \"#utility.yul\":13857:14276   */\n      swap2\n      swap1\n      pop\n      jump\t// out\n        /* \"#utility.yul\":14282:14452   */\n    tag_292:\n        /* \"#utility.yul\":14422:14444   */\n      0x5061757361626c653a206e6f7420706175736564000000000000000000000000\n        /* \"#utility.yul\":14418:14419   */\n      0x00\n        /* \"#utility.yul\":14410:14416   */\n      dup3\n        /* \"#utility.yul\":14406:14420   */\n      add\n        /* \"#utility.yul\":14399:14445   */\n      mstore\n        /* \"#utility.yul\":14282:14452   */\n      pop\n      jump\t// out\n        /* \"#utility.yul\":14458:14824   */\n    tag_293:\n        /* \"#utility.yul\":14600:14603   */\n      0x00\n        /* \"#utility.yul\":14621:14688   */\n      tag_428\n        /* \"#utility.yul\":14685:14687   */\n      0x14\n        /* \"#utility.yul\":14680:14683   */\n      dup4\n        /* \"#utility.yul\":14621:14688   */\n      tag_271\n      jump\t// in\n    tag_428:\n        /* \"#utility.yul\":14614:14688   */\n      swap2\n      pop\n        /* \"#utility.yul\":14697:14790   */\n      tag_429\n        /* \"#utility.yul\":14786:14789   */\n      dup3\n        /* \"#utility.yul\":14697:14790   */\n      tag_292\n      jump\t// in\n    tag_429:\n        /* \"#utility.yul\":14815:14817   */\n      0x20\n        /* \"#utility.yul\":14810:14813   */\n      dup3\n        /* \"#utility.yul\":14806:14818   */\n      add\n        /* \"#utility.yul\":14799:14818   */\n      swap1\n      pop\n        /* \"#utility.yul\":14458:14824   */\n      swap2\n      swap1\n      pop\n      jump\t// out\n        /* \"#utility.yul\":14830:15249   */\n    tag_231:\n        /* \"#utility.yul\":14996:15000   */\n      0x00\n        /* \"#utility.yul\":15034:15036   */\n      0x20\n        /* \"#utility.yul\":15023:15032   */\n      dup3\n        /* \"#utility.yul\":15019:15037   */\n      add\n        /* \"#utility.yul\":15011:15037   */\n      swap1\n      pop\n        /* \"#utility.yul\":15083:15092   */\n      dup2\n        /* \"#utility.yul\":15077:15081   */\n      dup2\n        /* \"#utility.yul\":15073:15093   */\n      sub\n        /* \"#utility.yul\":15069:15070   */\n      0x00\n        /* \"#utility.yul\":15058:15067   */\n      dup4\n        /* \"#utility.yul\":15054:15071   */\n      add\n        /* \"#utility.yul\":15047:15094   */\n      mstore\n        /* \"#utility.yul\":15111:15242   */\n      tag_431\n        /* \"#utility.yul\":15237:15241   */\n      dup2\n        /* \"#utility.yul\":15111:15242   */\n      tag_293\n      jump\t// in\n    tag_431:\n        /* \"#utility.yul\":15103:15242   */\n      swap1\n      pop\n        /* \"#utility.yul\":14830:15249   */\n      swap2\n      swap1\n      pop\n      jump\t// out\n        /* \"#utility.yul\":15255:15436   */\n    tag_294:\n        /* \"#utility.yul\":15395:15428   */\n      0x5265656e7472616e637947756172643a207265656e7472616e742063616c6c00\n        /* \"#utility.yul\":15391:15392   */\n      0x00\n        /* \"#utility.yul\":15383:15389   */\n      dup3\n        /* \"#utility.yul\":15379:15393   */\n      add\n        /* \"#utility.yul\":15372:15429   */\n      mstore\n        /* \"#utility.yul\":15255:15436   */\n      pop\n      jump\t// out\n        /* \"#utility.yul\":15442:15808   */\n    tag_295:\n        /* \"#utility.yul\":15584:15587   */\n      0x00\n        /* \"#utility.yul\":15605:15672   */\n      tag_434\n        /* \"#utility.yul\":15669:15671   */\n      0x1f\n        /* \"#utility.yul\":15664:15667   */\n      dup4\n        /* \"#utility.yul\":15605:15672   */\n      tag_271\n      jump\t// in\n    tag_434:\n        /* \"#utility.yul\":15598:15672   */\n      swap2\n      pop\n        /* \"#utility.yul\":15681:15774   */\n      tag_435\n        /* \"#utility.yul\":15770:15773   */\n      dup3\n        /* \"#utility.yul\":15681:15774   */\n      tag_294\n      jump\t// in\n    tag_435:\n        /* \"#utility.yul\":15799:15801   */\n      0x20\n        /* \"#utility.yul\":15794:15797   */\n      dup3\n        /* \"#utility.yul\":15790:15802   */\n      add\n        /* \"#utility.yul\":15783:15802   */\n      swap1\n      pop\n        /* \"#utility.yul\":15442:15808   */\n      swap2\n      swap1\n      pop\n      jump\t// out\n        /* \"#utility.yul\":15814:16233   */\n    tag_243:\n        /* \"#utility.yul\":15980:15984   */\n      0x00\n        /* \"#utility.yul\":16018:16020   */\n      0x20\n        /* \"#utility.yul\":16007:16016   */\n      dup3\n        /* \"#utility.yul\":16003:16021   */\n      add\n        /* \"#utility.yul\":15995:16021   */\n      swap1\n      pop\n        /* \"#utility.yul\":16067:16076   */\n      dup2\n        /* \"#utility.yul\":16061:16065   */\n      dup2\n        /* \"#utility.yul\":16057:16077   */\n      sub\n        /* \"#utility.yul\":16053:16054   */\n      0x00\n        /* \"#utility.yul\":16042:16051   */\n      dup4\n        /* \"#utility.yul\":16038:16055   */\n      add\n        /* \"#utility.yul\":16031:16078   */\n      mstore\n        /* \"#utility.yul\":16095:16226   */\n      tag_437\n        /* \"#utility.yul\":16221:16225   */\n      dup2\n        /* \"#utility.yul\":16095:16226   */\n      tag_295\n      jump\t// in\n    tag_437:\n        /* \"#utility.yul\":16087:16226   */\n      swap1\n      pop\n        /* \"#utility.yul\":15814:16233   */\n      swap2\n      swap1\n      pop\n      jump\t// out\n        /* \"#utility.yul\":16239:16681   */\n    tag_247:\n        /* \"#utility.yul\":16388:16392   */\n      0x00\n        /* \"#utility.yul\":16426:16428   */\n      0x60\n        /* \"#utility.yul\":16415:16424   */\n      dup3\n        /* \"#utility.yul\":16411:16429   */\n      add\n        /* \"#utility.yul\":16403:16429   */\n      swap1\n      pop\n        /* \"#utility.yul\":16439:16510   */\n      tag_439\n        /* \"#utility.yul\":16507:16508   */\n      0x00\n        /* \"#utility.yul\":16496:16505   */\n      dup4\n        /* \"#utility.yul\":16492:16509   */\n      add\n        /* \"#utility.yul\":16483:16489   */\n      dup7\n        /* \"#utility.yul\":16439:16510   */\n      tag_265\n      jump\t// in\n    tag_439:\n        /* \"#utility.yul\":16520:16592   */\n      tag_440\n        /* \"#utility.yul\":16588:16590   */\n      0x20\n        /* \"#utility.yul\":16577:16586   */\n      dup4\n        /* \"#utility.yul\":16573:16591   */\n      add\n        /* \"#utility.yul\":16564:16570   */\n      dup6\n        /* \"#utility.yul\":16520:16592   */\n      tag_265\n      jump\t// in\n    tag_440:\n        /* \"#utility.yul\":16602:16674   */\n      tag_441\n        /* \"#utility.yul\":16670:16672   */\n      0x40\n        /* \"#utility.yul\":16659:16668   */\n      dup4\n        /* \"#utility.yul\":16655:16673   */\n      add\n        /* \"#utility.yul\":16646:16652   */\n      dup5\n        /* \"#utility.yul\":16602:16674   */\n      tag_264\n      jump\t// in\n    tag_441:\n        /* \"#utility.yul\":16239:16681   */\n      swap5\n      swap4\n      pop\n      pop\n      pop\n      pop\n      jump\t// out\n\n    auxdata: 0xa2646970667358221220ca69c730efa3f6f49a286d82d0a3b17e7ae3462e63ff71dca463704244ef566b64736f6c634300081a0033\n}\n",
				"bytecode": {
					"linkReferences": {},
					"object": "608060405234801561000f575f80fd5b5060405161284f38038061284f833981810160405281019061003191906104c4565b5f805f6101000a81548160ff021916908315150217905550600180819055505f73ffffffffffffffffffffffffffffffffffffffff168773ffffffffffffffffffffffffffffffffffffffff16036100be576040517f08c379a00000000000000000000000000000000000000000000000000000000081526004016100b5906105bb565b60405180910390fd5b5f73ffffffffffffffffffffffffffffffffffffffff168673ffffffffffffffffffffffffffffffffffffffff160361012c576040517f08c379a000000000000000000000000000000000000000000000000000000000815260040161012390610623565b60405180910390fd5b5f73ffffffffffffffffffffffffffffffffffffffff168573ffffffffffffffffffffffffffffffffffffffff160361019a576040517f08c379a00000000000000000000000000000000000000000000000000000000081526004016101919061068b565b60405180910390fd5b5f73ffffffffffffffffffffffffffffffffffffffff168473ffffffffffffffffffffffffffffffffffffffff1603610208576040517f08c379a00000000000000000000000000000000000000000000000000000000081526004016101ff906106f3565b60405180910390fd5b6064831061024b576040517f08c379a00000000000000000000000000000000000000000000000000000000081526004016102429061075b565b60405180910390fd5b5f821161028d576040517f08c379a0000000000000000000000000000000000000000000000000000000008152600401610284906107c3565b60405180910390fd5b6103e88111156102d2576040517f08c379a00000000000000000000000000000000000000000000000000000000081526004016102c99061082b565b60405180910390fd5b3360025f6101000a81548173ffffffffffffffffffffffffffffffffffffffff021916908373ffffffffffffffffffffffffffffffffffffffff1602179055508660035f6101000a81548173ffffffffffffffffffffffffffffffffffffffff021916908373ffffffffffffffffffffffffffffffffffffffff1602179055508560045f6101000a81548173ffffffffffffffffffffffffffffffffffffffff021916908373ffffffffffffffffffffffffffffffffffffffff1602179055508460055f6101000a81548173ffffffffffffffffffffffffffffffffffffffff021916908373ffffffffffffffffffffffffffffffffffffffff1602179055508360065f6101000a81548173ffffffffffffffffffffffffffffffffffffffff021916908373ffffffffffffffffffffffffffffffffffffffff16021790555082600781905550816008819055508060098190555050505050505050610849565b5f80fd5b5f73ffffffffffffffffffffffffffffffffffffffff82169050919050565b5f61046082610437565b9050919050565b61047081610456565b811461047a575f80fd5b50565b5f8151905061048b81610467565b92915050565b5f819050919050565b6104a381610491565b81146104ad575f80fd5b50565b5f815190506104be8161049a565b92915050565b5f805f805f805f60e0888a0312156104df576104de610433565b5b5f6104ec8a828b0161047d565b97505060206104fd8a828b0161047d565b965050604061050e8a828b0161047d565b955050606061051f8a828b0161047d565b94505060806105308a828b016104b0565b93505060a06105418a828b016104b0565b92505060c06105528a828b016104b0565b91505092959891949750929550565b5f82825260208201905092915050565b7f496e76616c6964207061796d656e7420746f6b656e20616464726573730000005f82015250565b5f6105a5601d83610561565b91506105b082610571565b602082019050919050565b5f6020820190508181035f8301526105d281610599565b9050919050565b7f496e76616c696420526f626f4d6f6e657920746f6b656e2061646472657373005f82015250565b5f61060d601f83610561565b9150610618826105d9565b602082019050919050565b5f6020820190508181035f83015261063a81610601565b9050919050565b7f496e76616c696420626f6e6420726563656976657220616464726573730000005f82015250565b5f610675601d83610561565b915061068082610641565b602082019050919050565b5f6020820190508181035f8301526106a281610669565b9050919050565b7f496e76616c6964206761732072657365727665206164647265737300000000005f82015250565b5f6106dd601b83610561565b91506106e8826106a9565b602082019050919050565b5f6020820190508181035f83015261070a816106d1565b9050919050565b7f446973636f756e742072617465206d757374206265203c2031303025000000005f82015250565b5f610745601c83610561565b915061075082610711565b602082019050919050565b5f6020820190508181035f83015261077281610739565b9050919050565b7f546172676574207072696365206d757374206265203e203000000000000000005f82015250565b5f6107ad601883610561565b91506107b882610779565b602082019050919050565b5f6020820190508181035f8301526107da816107a1565b9050919050565b7f546178207261746520746f6f20686967680000000000000000000000000000005f82015250565b5f610815601183610561565b9150610820826107e1565b602082019050919050565b5f6020820190508181035f83015261084281610809565b9050919050565b611ff9806108565f395ff3fe608060405234801561000f575f80fd5b5060043610610135575f3560e01c80639170b135116100b6578063cc7fffbe1161007a578063cc7fffbe146102ef578063d4a49c171461031f578063dc38679c1461033b578063e6c0e6d514610359578063eea7570e14610377578063f2fde38b1461039557610135565b80639170b1351461025f5780639940686e1461027b578063a933ac7414610297578063c404836b146102b5578063c6d69a30146102d357610135565b8063771a3a1d116100fd578063771a3a1d146101cb5780637ef7ba20146101e95780638456cb591461020757806389f1aa22146102115780638da5cb5b1461024157610135565b8063126cbe60146101395780633013ce29146101695780633f4ba83a146101875780635c975abb146101915780636a64eff8146101af575b5f80fd5b610153600480360381019061014e919061185b565b6103b1565b604051610160919061189e565b60405180910390f35b610171610452565b60405161017e91906118c6565b60405180910390f35b61018f610477565b005b610199610510565b6040516101a691906118f9565b60405180910390f35b6101c960048036038101906101c4919061193c565b610524565b005b6101d36105bd565b6040516101e0919061189e565b60405180910390f35b6101f16105c3565b6040516101fe91906118c6565b60405180910390f35b61020f6105e8565b005b61022b6004803603810190610226919061185b565b610681565b604051610238919061189e565b60405180910390f35b610249610724565b60405161025691906118c6565b60405180910390f35b6102796004803603810190610274919061185b565b610749565b005b6102956004803603810190610290919061193c565b610904565b005b61029f610f31565b6040516102ac919061189e565b60405180910390f35b6102bd610fd0565b6040516102ca91906118c6565b60405180910390f35b6102ed60048036038101906102e8919061193c565b610ff5565b005b6103096004803603810190610304919061185b565b61110e565b604051610316919061189e565b60405180910390f35b6103396004803603810190610334919061185b565b6111af565b005b61034361136a565b604051610350919061189e565b60405180910390f35b610361611370565b60405161036e919061189e565b60405180910390f35b61037f611376565b60405161038c91906118c6565b60405180910390f35b6103af60048036038101906103aa919061185b565b61139b565b005b5f60035f9054906101000a900473ffffffffffffffffffffffffffffffffffffffff1673ffffffffffffffffffffffffffffffffffffffff166370a08231836040518263ffffffff1660e01b815260040161040c91906118c6565b602060405180830381865afa158015610427573d5f803e3d5ffd5b505050506040513d601f19601f8201168201806040525081019061044b919061197b565b9050919050565b60035f9054906101000a900473ffffffffffffffffffffffffffffffffffffffff1681565b60025f9054906101000a900473ffffffffffffffffffffffffffffffffffffffff1673ffffffffffffffffffffffffffffffffffffffff163373ffffffffffffffffffffffffffffffffffffffff1614610506576040517f08c379a00000000000000000000000000000000000000000000000000000000081526004016104fd90611a00565b60405180910390fd5b61050e611556565b565b5f805f9054906101000a900460ff16905090565b60025f9054906101000a900473ffffffffffffffffffffffffffffffffffffffff1673ffffffffffffffffffffffffffffffffffffffff163373ffffffffffffffffffffffffffffffffffffffff16146105b3576040517f08c379a00000000000000000000000000000000000000000000000000000000081526004016105aa90611a00565b60405180910390fd5b8060088190555050565b60095481565b60045f9054906101000a900473ffffffffffffffffffffffffffffffffffffffff1681565b60025f9054906101000a900473ffffffffffffffffffffffffffffffffffffffff1673ffffffffffffffffffffffffffffffffffffffff163373ffffffffffffffffffffffffffffffffffffffff1614610677576040517f08c379a000000000000000000000000000000000000000000000000000000000815260040161066e90611a00565b60405180910390fd5b61067f6115ee565b565b5f60035f9054906101000a900473ffffffffffffffffffffffffffffffffffffffff1673ffffffffffffffffffffffffffffffffffffffff1663dd62ed3e83306040518363ffffffff1660e01b81526004016106de929190611a1e565b602060405180830381865afa1580156106f9573d5f803e3d5ffd5b505050506040513d601f19601f8201168201806040525081019061071d919061197b565b9050919050565b60025f9054906101000a900473ffffffffffffffffffffffffffffffffffffffff1681565b60025f9054906101000a900473ffffffffffffffffffffffffffffffffffffffff1673ffffffffffffffffffffffffffffffffffffffff163373ffffffffffffffffffffffffffffffffffffffff16146107d8576040517f08c379a00000000000000000000000000000000000000000000000000000000081526004016107cf90611a00565b60405180910390fd5b5f73ffffffffffffffffffffffffffffffffffffffff168173ffffffffffffffffffffffffffffffffffffffff1603610846576040517f08c379a000000000000000000000000000000000000000000000000000000000815260040161083d90611a8f565b60405180910390fd5b8073ffffffffffffffffffffffffffffffffffffffff1660055f9054906101000a900473ffffffffffffffffffffffffffffffffffffffff1673ffffffffffffffffffffffffffffffffffffffff167fde68b7b5773e2e7f3e935c77c66ee03cce19588a596dc3e0629ff3a9fe94138160405160405180910390a38060055f6101000a81548173ffffffffffffffffffffffffffffffffffffffff021916908373ffffffffffffffffffffffffffffffffffffffff16021790555050565b61090c610510565b1561094c576040517f08c379a000000000000000000000000000000000000000000000000000000000815260040161094390611af7565b60405180910390fd5b610954611688565b5f8111610996576040517f08c379a000000000000000000000000000000000000000000000000000000000815260040161098d90611b5f565b60405180910390fd5b5f612710600954836109a89190611baa565b6109b29190611c18565b90505f81836109c19190611c48565b90505f60035f9054906101000a900473ffffffffffffffffffffffffffffffffffffffff1673ffffffffffffffffffffffffffffffffffffffff1663dd62ed3e33306040518363ffffffff1660e01b8152600401610a20929190611a1e565b602060405180830381865afa158015610a3b573d5f803e3d5ffd5b505050506040513d601f19601f82011682018060405250810190610a5f919061197b565b905083811015610aa4576040517f08c379a0000000000000000000000000000000000000000000000000000000008152600401610a9b90611cc5565b60405180910390fd5b610b133360065f9054906101000a900473ffffffffffffffffffffffffffffffffffffffff168560035f9054906101000a900473ffffffffffffffffffffffffffffffffffffffff1673ffffffffffffffffffffffffffffffffffffffff166116d7909392919063ffffffff16565b610b823360055f9054906101000a900473ffffffffffffffffffffffffffffffffffffffff168460035f9054906101000a900473ffffffffffffffffffffffffffffffffffffffff1673ffffffffffffffffffffffffffffffffffffffff166116d7909392919063ffffffff16565b5f60646007546064610b949190611c48565b600854610ba19190611baa565b610bab9190611c18565b90505f81670de0b6b3a764000087610bc39190611baa565b610bcd9190611c18565b90505f60045f9054906101000a900473ffffffffffffffffffffffffffffffffffffffff1673ffffffffffffffffffffffffffffffffffffffff166370a08231306040518263ffffffff1660e01b8152600401610c2a91906118c6565b602060405180830381865afa158015610c45573d5f803e3d5ffd5b505050506040513d601f19601f82011682018060405250810190610c69919061197b565b905081811015610e33575f8183610c809190611c48565b90505f60045f9054906101000a900473ffffffffffffffffffffffffffffffffffffffff1673ffffffffffffffffffffffffffffffffffffffff166318160ddd6040518163ffffffff1660e01b8152600401602060405180830381865afa158015610ced573d5f803e3d5ffd5b505050506040513d601f19601f82011682018060405250810190610d11919061197b565b90505f8103610da65760045f9054906101000a900473ffffffffffffffffffffffffffffffffffffffff1673ffffffffffffffffffffffffffffffffffffffff1663d9e63bb1836040518263ffffffff1660e01b8152600401610d74919061189e565b5f604051808303815f87803b158015610d8b575f80fd5b505af1158015610d9d573d5f803e3d5ffd5b50505050610e30565b60045f9054906101000a900473ffffffffffffffffffffffffffffffffffffffff1673ffffffffffffffffffffffffffffffffffffffff166340c10f1930846040518363ffffffff1660e01b8152600401610e02929190611ce3565b5f604051808303815f87803b158015610e19575f80fd5b505af1158015610e2b573d5f803e3d5ffd5b505050505b50505b60045f9054906101000a900473ffffffffffffffffffffffffffffffffffffffff1673ffffffffffffffffffffffffffffffffffffffff1663a9059cbb33846040518363ffffffff1660e01b8152600401610e8f929190611ce3565b6020604051808303815f875af1158015610eab573d5f803e3d5ffd5b505050506040513d601f19601f82011682018060405250810190610ecf9190611d34565b503373ffffffffffffffffffffffffffffffffffffffff167f0db13e87b3f9c3b8f5f3acad928df55c52ba6bf7795af4ec069de5e23caacb378884604051610f18929190611d5f565b60405180910390a2505050505050610f2e611759565b50565b5f60045f9054906101000a900473ffffffffffffffffffffffffffffffffffffffff1673ffffffffffffffffffffffffffffffffffffffff166370a08231306040518263ffffffff1660e01b8152600401610f8c91906118c6565b602060405180830381865afa158015610fa7573d5f803e3d5ffd5b505050506040513d601f19601f82011682018060405250810190610fcb919061197b565b905090565b60055f9054906101000a900473ffffffffffffffffffffffffffffffffffffffff1681565b60025f9054906101000a900473ffffffffffffffffffffffffffffffffffffffff1673ffffffffffffffffffffffffffffffffffffffff163373ffffffffffffffffffffffffffffffffffffffff1614611084576040517f08c379a000000000000000000000000000000000000000000000000000000000815260040161107b90611a00565b60405180910390fd5b6103e88111156110c9576040517f08c379a00000000000000000000000000000000000000000000000000000000081526004016110c090611dd0565b60405180910390fd5b7fa8ee157eb2a9aa895d74df4d2d3bc0ad165ff3162f8ec46a4ecf602dd5c48fda600954826040516110fc929190611d5f565b60405180910390a18060098190555050565b5f60045f9054906101000a900473ffffffffffffffffffffffffffffffffffffffff1673ffffffffffffffffffffffffffffffffffffffff166370a08231836040518263ffffffff1660e01b815260040161116991906118c6565b602060405180830381865afa158015611184573d5f803e3d5ffd5b505050506040513d601f19601f820116820180604052508101906111a8919061197b565b9050919050565b60025f9054906101000a900473ffffffffffffffffffffffffffffffffffffffff1673ffffffffffffffffffffffffffffffffffffffff163373ffffffffffffffffffffffffffffffffffffffff161461123e576040517f08c379a000000000000000000000000000000000000000000000000000000000815260040161123590611a00565b60405180910390fd5b5f73ffffffffffffffffffffffffffffffffffffffff168173ffffffffffffffffffffffffffffffffffffffff16036112ac576040517f08c379a00000000000000000000000000000000000000000000000000000000081526004016112a390611e38565b60405180910390fd5b8073ffffffffffffffffffffffffffffffffffffffff1660065f9054906101000a900473ffffffffffffffffffffffffffffffffffffffff1673ffffffffffffffffffffffffffffffffffffffff167fb4281bb17cdc594e3cf6d419da95f70a6b02d856b26438d381ee1246a8e89f1260405160405180910390a38060065f6101000a81548173ffffffffffffffffffffffffffffffffffffffff021916908373ffffffffffffffffffffffffffffffffffffffff16021790555050565b60085481565b60075481565b60065f9054906101000a900473ffffffffffffffffffffffffffffffffffffffff1681565b60025f9054906101000a900473ffffffffffffffffffffffffffffffffffffffff1673ffffffffffffffffffffffffffffffffffffffff163373ffffffffffffffffffffffffffffffffffffffff161461142a576040517f08c379a000000000000000000000000000000000000000000000000000000000815260040161142190611a00565b60405180910390fd5b5f73ffffffffffffffffffffffffffffffffffffffff168173ffffffffffffffffffffffffffffffffffffffff1603611498576040517f08c379a000000000000000000000000000000000000000000000000000000000815260040161148f90611ea0565b60405180910390fd5b8073ffffffffffffffffffffffffffffffffffffffff1660025f9054906101000a900473ffffffffffffffffffffffffffffffffffffffff1673ffffffffffffffffffffffffffffffffffffffff167f8be0079c531659141344cd1fd0a4f28419497f9722a3daafe3b4186f6b6457e060405160405180910390a38060025f6101000a81548173ffffffffffffffffffffffffffffffffffffffff021916908373ffffffffffffffffffffffffffffffffffffffff16021790555050565b61155e610510565b61159d576040517f08c379a000000000000000000000000000000000000000000000000000000000815260040161159490611f08565b60405180910390fd5b5f805f6101000a81548160ff0219169083151502179055507f5db9ee0a495bf2e6ff9c91a7834c1ba4fdd244a5e8aa4e537bd38aeae4b073aa336040516115e491906118c6565b60405180910390a1565b6115f6610510565b15611636576040517f08c379a000000000000000000000000000000000000000000000000000000000815260040161162d90611af7565b60405180910390fd5b60015f806101000a81548160ff0219169083151502179055507f62e78cea01bee320cd4e420270b5ea74000d11b0c9f74754ebdbfc544b05a2583360405161167e91906118c6565b60405180910390a1565b6002600154036116cd576040517f08c379a00000000000000000000000000000000000000000000000000000000081526004016116c490611f70565b60405180910390fd5b6002600181905550565b611753848573ffffffffffffffffffffffffffffffffffffffff166323b872dd86868660405160240161170c93929190611f8e565b604051602081830303815290604052915060e01b6020820180517bffffffffffffffffffffffffffffffffffffffffffffffffffffffff8381831617835250505050611762565b50505050565b60018081905550565b5f8060205f8451602086015f885af180611781576040513d5f823e3d81fd5b3d92505f519150505f821461179a5760018114156117b5565b5f8473ffffffffffffffffffffffffffffffffffffffff163b145b156117f757836040517f5274afe70000000000000000000000000000000000000000000000000000000081526004016117ee91906118c6565b60405180910390fd5b50505050565b5f80fd5b5f73ffffffffffffffffffffffffffffffffffffffff82169050919050565b5f61182a82611801565b9050919050565b61183a81611820565b8114611844575f80fd5b50565b5f8135905061185581611831565b92915050565b5f602082840312156118705761186f6117fd565b5b5f61187d84828501611847565b91505092915050565b5f819050919050565b61189881611886565b82525050565b5f6020820190506118b15f83018461188f565b92915050565b6118c081611820565b82525050565b5f6020820190506118d95f8301846118b7565b92915050565b5f8115159050919050565b6118f3816118df565b82525050565b5f60208201905061190c5f8301846118ea565b92915050565b61191b81611886565b8114611925575f80fd5b50565b5f8135905061193681611912565b92915050565b5f60208284031215611951576119506117fd565b5b5f61195e84828501611928565b91505092915050565b5f8151905061197581611912565b92915050565b5f602082840312156119905761198f6117fd565b5b5f61199d84828501611967565b91505092915050565b5f82825260208201905092915050565b7f4e6f7420617574686f72697a65640000000000000000000000000000000000005f82015250565b5f6119ea600e836119a6565b91506119f5826119b6565b602082019050919050565b5f6020820190508181035f830152611a17816119de565b9050919050565b5f604082019050611a315f8301856118b7565b611a3e60208301846118b7565b9392505050565b7f496e76616c696420626f6e6420726563656976657220616464726573730000005f82015250565b5f611a79601d836119a6565b9150611a8482611a45565b602082019050919050565b5f6020820190508181035f830152611aa681611a6d565b9050919050565b7f5061757361626c653a20706175736564000000000000000000000000000000005f82015250565b5f611ae16010836119a6565b9150611aec82611aad565b602082019050919050565b5f6020820190508181035f830152611b0e81611ad5565b9050919050565b7f4d757374206465706f73697420746f6b656e416d6f756e74203e2030000000005f82015250565b5f611b49601c836119a6565b9150611b5482611b15565b602082019050919050565b5f6020820190508181035f830152611b7681611b3d565b9050919050565b7f4e487b71000000000000000000000000000000000000000000000000000000005f52601160045260245ffd5b5f611bb482611886565b9150611bbf83611886565b9250828202611bcd81611886565b91508282048414831517611be457611be3611b7d565b5b5092915050565b7f4e487b71000000000000000000000000000000000000000000000000000000005f52601260045260245ffd5b5f611c2282611886565b9150611c2d83611886565b925082611c3d57611c3c611beb565b5b828204905092915050565b5f611c5282611886565b9150611c5d83611886565b9250828203905081811115611c7557611c74611b7d565b5b92915050565b7f416c6c6f77616e6365206e6f742073756666696369656e7400000000000000005f82015250565b5f611caf6018836119a6565b9150611cba82611c7b565b602082019050919050565b5f6020820190508181035f830152611cdc81611ca3565b9050919050565b5f604082019050611cf65f8301856118b7565b611d03602083018461188f565b9392505050565b611d13816118df565b8114611d1d575f80fd5b50565b5f81519050611d2e81611d0a565b92915050565b5f60208284031215611d4957611d486117fd565b5b5f611d5684828501611d20565b91505092915050565b5f604082019050611d725f83018561188f565b611d7f602083018461188f565b9392505050565b7f54617820746f6f206869676800000000000000000000000000000000000000005f82015250565b5f611dba600c836119a6565b9150611dc582611d86565b602082019050919050565b5f6020820190508181035f830152611de781611dae565b9050919050565b7f496e76616c6964206164647265737300000000000000000000000000000000005f82015250565b5f611e22600f836119a6565b9150611e2d82611dee565b602082019050919050565b5f6020820190508181035f830152611e4f81611e16565b9050919050565b7f4e6577206f776e65722063616e6e6f74206265207a65726f20616464726573735f82015250565b5f611e8a6020836119a6565b9150611e9582611e56565b602082019050919050565b5f6020820190508181035f830152611eb781611e7e565b9050919050565b7f5061757361626c653a206e6f74207061757365640000000000000000000000005f82015250565b5f611ef26014836119a6565b9150611efd82611ebe565b602082019050919050565b5f6020820190508181035f830152611f1f81611ee6565b9050919050565b7f5265656e7472616e637947756172643a207265656e7472616e742063616c6c005f82015250565b5f611f5a601f836119a6565b9150611f6582611f26565b602082019050919050565b5f6020820190508181035f830152611f8781611f4e565b9050919050565b5f606082019050611fa15f8301866118b7565b611fae60208301856118b7565b611fbb604083018461188f565b94935050505056fea2646970667358221220ca69c730efa3f6f49a286d82d0a3b17e7ae3462e63ff71dca463704244ef566b64736f6c634300081a0033",
					"opcodes": "PUSH1 0x80 PUSH1 0x40 MSTORE CALLVALUE DUP1 ISZERO PUSH2 0xF JUMPI PUSH0 DUP1 REVERT JUMPDEST POP PUSH1 0x40 MLOAD PUSH2 0x284F CODESIZE SUB DUP1 PUSH2 0x284F DUP4 CODECOPY DUP2 DUP2 ADD PUSH1 0x40 MSTORE DUP2 ADD SWAP1 PUSH2 0x31 SWAP2 SWAP1 PUSH2 0x4C4 JUMP JUMPDEST PUSH0 DUP1 PUSH0 PUSH2 0x100 EXP DUP2 SLOAD DUP2 PUSH1 0xFF MUL NOT AND SWAP1 DUP4 ISZERO ISZERO MUL OR SWAP1 SSTORE POP PUSH1 0x1 DUP1 DUP2 SWAP1 SSTORE POP PUSH0 PUSH20 0xFFFFFFFFFFFFFFFFFFFFFFFFFFFFFFFFFFFFFFFF AND DUP8 PUSH20 0xFFFFFFFFFFFFFFFFFFFFFFFFFFFFFFFFFFFFFFFF AND SUB PUSH2 0xBE JUMPI PUSH1 0x40 MLOAD PUSH32 0x8C379A000000000000000000000000000000000000000000000000000000000 DUP2 MSTORE PUSH1 0x4 ADD PUSH2 0xB5 SWAP1 PUSH2 0x5BB JUMP JUMPDEST PUSH1 0x40 MLOAD DUP1 SWAP2 SUB SWAP1 REVERT JUMPDEST PUSH0 PUSH20 0xFFFFFFFFFFFFFFFFFFFFFFFFFFFFFFFFFFFFFFFF AND DUP7 PUSH20 0xFFFFFFFFFFFFFFFFFFFFFFFFFFFFFFFFFFFFFFFF AND SUB PUSH2 0x12C JUMPI PUSH1 0x40 MLOAD PUSH32 0x8C379A000000000000000000000000000000000000000000000000000000000 DUP2 MSTORE PUSH1 0x4 ADD PUSH2 0x123 SWAP1 PUSH2 0x623 JUMP JUMPDEST PUSH1 0x40 MLOAD DUP1 SWAP2 SUB SWAP1 REVERT JUMPDEST PUSH0 PUSH20 0xFFFFFFFFFFFFFFFFFFFFFFFFFFFFFFFFFFFFFFFF AND DUP6 PUSH20 0xFFFFFFFFFFFFFFFFFFFFFFFFFFFFFFFFFFFFFFFF AND SUB PUSH2 0x19A JUMPI PUSH1 0x40 MLOAD PUSH32 0x8C379A000000000000000000000000000000000000000000000000000000000 DUP2 MSTORE PUSH1 0x4 ADD PUSH2 0x191 SWAP1 PUSH2 0x68B JUMP JUMPDEST PUSH1 0x40 MLOAD DUP1 SWAP2 SUB SWAP1 REVERT JUMPDEST PUSH0 PUSH20 0xFFFFFFFFFFFFFFFFFFFFFFFFFFFFFFFFFFFFFFFF AND DUP5 PUSH20 0xFFFFFFFFFFFFFFFFFFFFFFFFFFFFFFFFFFFFFFFF AND SUB PUSH2 0x208 JUMPI PUSH1 0x40 MLOAD PUSH32 0x8C379A000000000000000000000000000000000000000000000000000000000 DUP2 MSTORE PUSH1 0x4 ADD PUSH2 0x1FF SWAP1 PUSH2 0x6F3 JUMP JUMPDEST PUSH1 0x40 MLOAD DUP1 SWAP2 SUB SWAP1 REVERT JUMPDEST PUSH1 0x64 DUP4 LT PUSH2 0x24B JUMPI PUSH1 0x40 MLOAD PUSH32 0x8C379A000000000000000000000000000000000000000000000000000000000 DUP2 MSTORE PUSH1 0x4 ADD PUSH2 0x242 SWAP1 PUSH2 0x75B JUMP JUMPDEST PUSH1 0x40 MLOAD DUP1 SWAP2 SUB SWAP1 REVERT JUMPDEST PUSH0 DUP3 GT PUSH2 0x28D JUMPI PUSH1 0x40 MLOAD PUSH32 0x8C379A000000000000000000000000000000000000000000000000000000000 DUP2 MSTORE PUSH1 0x4 ADD PUSH2 0x284 SWAP1 PUSH2 0x7C3 JUMP JUMPDEST PUSH1 0x40 MLOAD DUP1 SWAP2 SUB SWAP1 REVERT JUMPDEST PUSH2 0x3E8 DUP2 GT ISZERO PUSH2 0x2D2 JUMPI PUSH1 0x40 MLOAD PUSH32 0x8C379A000000000000000000000000000000000000000000000000000000000 DUP2 MSTORE PUSH1 0x4 ADD PUSH2 0x2C9 SWAP1 PUSH2 0x82B JUMP JUMPDEST PUSH1 0x40 MLOAD DUP1 SWAP2 SUB SWAP1 REVERT JUMPDEST CALLER PUSH1 0x2 PUSH0 PUSH2 0x100 EXP DUP2 SLOAD DUP2 PUSH20 0xFFFFFFFFFFFFFFFFFFFFFFFFFFFFFFFFFFFFFFFF MUL NOT AND SWAP1 DUP4 PUSH20 0xFFFFFFFFFFFFFFFFFFFFFFFFFFFFFFFFFFFFFFFF AND MUL OR SWAP1 SSTORE POP DUP7 PUSH1 0x3 PUSH0 PUSH2 0x100 EXP DUP2 SLOAD DUP2 PUSH20 0xFFFFFFFFFFFFFFFFFFFFFFFFFFFFFFFFFFFFFFFF MUL NOT AND SWAP1 DUP4 PUSH20 0xFFFFFFFFFFFFFFFFFFFFFFFFFFFFFFFFFFFFFFFF AND MUL OR SWAP1 SSTORE POP DUP6 PUSH1 0x4 PUSH0 PUSH2 0x100 EXP DUP2 SLOAD DUP2 PUSH20 0xFFFFFFFFFFFFFFFFFFFFFFFFFFFFFFFFFFFFFFFF MUL NOT AND SWAP1 DUP4 PUSH20 0xFFFFFFFFFFFFFFFFFFFFFFFFFFFFFFFFFFFFFFFF AND MUL OR SWAP1 SSTORE POP DUP5 PUSH1 0x5 PUSH0 PUSH2 0x100 EXP DUP2 SLOAD DUP2 PUSH20 0xFFFFFFFFFFFFFFFFFFFFFFFFFFFFFFFFFFFFFFFF MUL NOT AND SWAP1 DUP4 PUSH20 0xFFFFFFFFFFFFFFFFFFFFFFFFFFFFFFFFFFFFFFFF AND MUL OR SWAP1 SSTORE POP DUP4 PUSH1 0x6 PUSH0 PUSH2 0x100 EXP DUP2 SLOAD DUP2 PUSH20 0xFFFFFFFFFFFFFFFFFFFFFFFFFFFFFFFFFFFFFFFF MUL NOT AND SWAP1 DUP4 PUSH20 0xFFFFFFFFFFFFFFFFFFFFFFFFFFFFFFFFFFFFFFFF AND MUL OR SWAP1 SSTORE POP DUP3 PUSH1 0x7 DUP2 SWAP1 SSTORE POP DUP2 PUSH1 0x8 DUP2 SWAP1 SSTORE POP DUP1 PUSH1 0x9 DUP2 SWAP1 SSTORE POP POP POP POP POP POP POP POP PUSH2 0x849 JUMP JUMPDEST PUSH0 DUP1 REVERT JUMPDEST PUSH0 PUSH20 0xFFFFFFFFFFFFFFFFFFFFFFFFFFFFFFFFFFFFFFFF DUP3 AND SWAP1 POP SWAP2 SWAP1 POP JUMP JUMPDEST PUSH0 PUSH2 0x460 DUP3 PUSH2 0x437 JUMP JUMPDEST SWAP1 POP SWAP2 SWAP1 POP JUMP JUMPDEST PUSH2 0x470 DUP2 PUSH2 0x456 JUMP JUMPDEST DUP2 EQ PUSH2 0x47A JUMPI PUSH0 DUP1 REVERT JUMPDEST POP JUMP JUMPDEST PUSH0 DUP2 MLOAD SWAP1 POP PUSH2 0x48B DUP2 PUSH2 0x467 JUMP JUMPDEST SWAP3 SWAP2 POP POP JUMP JUMPDEST PUSH0 DUP2 SWAP1 POP SWAP2 SWAP1 POP JUMP JUMPDEST PUSH2 0x4A3 DUP2 PUSH2 0x491 JUMP JUMPDEST DUP2 EQ PUSH2 0x4AD JUMPI PUSH0 DUP1 REVERT JUMPDEST POP JUMP JUMPDEST PUSH0 DUP2 MLOAD SWAP1 POP PUSH2 0x4BE DUP2 PUSH2 0x49A JUMP JUMPDEST SWAP3 SWAP2 POP POP JUMP JUMPDEST PUSH0 DUP1 PUSH0 DUP1 PUSH0 DUP1 PUSH0 PUSH1 0xE0 DUP9 DUP11 SUB SLT ISZERO PUSH2 0x4DF JUMPI PUSH2 0x4DE PUSH2 0x433 JUMP JUMPDEST JUMPDEST PUSH0 PUSH2 0x4EC DUP11 DUP3 DUP12 ADD PUSH2 0x47D JUMP JUMPDEST SWAP8 POP POP PUSH1 0x20 PUSH2 0x4FD DUP11 DUP3 DUP12 ADD PUSH2 0x47D JUMP JUMPDEST SWAP7 POP POP PUSH1 0x40 PUSH2 0x50E DUP11 DUP3 DUP12 ADD PUSH2 0x47D JUMP JUMPDEST SWAP6 POP POP PUSH1 0x60 PUSH2 0x51F DUP11 DUP3 DUP12 ADD PUSH2 0x47D JUMP JUMPDEST SWAP5 POP POP PUSH1 0x80 PUSH2 0x530 DUP11 DUP3 DUP12 ADD PUSH2 0x4B0 JUMP JUMPDEST SWAP4 POP POP PUSH1 0xA0 PUSH2 0x541 DUP11 DUP3 DUP12 ADD PUSH2 0x4B0 JUMP JUMPDEST SWAP3 POP POP PUSH1 0xC0 PUSH2 0x552 DUP11 DUP3 DUP12 ADD PUSH2 0x4B0 JUMP JUMPDEST SWAP2 POP POP SWAP3 SWAP6 SWAP9 SWAP2 SWAP5 SWAP8 POP SWAP3 SWAP6 POP JUMP JUMPDEST PUSH0 DUP3 DUP3 MSTORE PUSH1 0x20 DUP3 ADD SWAP1 POP SWAP3 SWAP2 POP POP JUMP JUMPDEST PUSH32 0x496E76616C6964207061796D656E7420746F6B656E2061646472657373000000 PUSH0 DUP3 ADD MSTORE POP JUMP JUMPDEST PUSH0 PUSH2 0x5A5 PUSH1 0x1D DUP4 PUSH2 0x561 JUMP JUMPDEST SWAP2 POP PUSH2 0x5B0 DUP3 PUSH2 0x571 JUMP JUMPDEST PUSH1 0x20 DUP3 ADD SWAP1 POP SWAP2 SWAP1 POP JUMP JUMPDEST PUSH0 PUSH1 0x20 DUP3 ADD SWAP1 POP DUP2 DUP2 SUB PUSH0 DUP4 ADD MSTORE PUSH2 0x5D2 DUP2 PUSH2 0x599 JUMP JUMPDEST SWAP1 POP SWAP2 SWAP1 POP JUMP JUMPDEST PUSH32 0x496E76616C696420526F626F4D6F6E657920746F6B656E206164647265737300 PUSH0 DUP3 ADD MSTORE POP JUMP JUMPDEST PUSH0 PUSH2 0x60D PUSH1 0x1F DUP4 PUSH2 0x561 JUMP JUMPDEST SWAP2 POP PUSH2 0x618 DUP3 PUSH2 0x5D9 JUMP JUMPDEST PUSH1 0x20 DUP3 ADD SWAP1 POP SWAP2 SWAP1 POP JUMP JUMPDEST PUSH0 PUSH1 0x20 DUP3 ADD SWAP1 POP DUP2 DUP2 SUB PUSH0 DUP4 ADD MSTORE PUSH2 0x63A DUP2 PUSH2 0x601 JUMP JUMPDEST SWAP1 POP SWAP2 SWAP1 POP JUMP JUMPDEST PUSH32 0x496E76616C696420626F6E642072656365697665722061646472657373000000 PUSH0 DUP3 ADD MSTORE POP JUMP JUMPDEST PUSH0 PUSH2 0x675 PUSH1 0x1D DUP4 PUSH2 0x561 JUMP JUMPDEST SWAP2 POP PUSH2 0x680 DUP3 PUSH2 0x641 JUMP JUMPDEST PUSH1 0x20 DUP3 ADD SWAP1 POP SWAP2 SWAP1 POP JUMP JUMPDEST PUSH0 PUSH1 0x20 DUP3 ADD SWAP1 POP DUP2 DUP2 SUB PUSH0 DUP4 ADD MSTORE PUSH2 0x6A2 DUP2 PUSH2 0x669 JUMP JUMPDEST SWAP1 POP SWAP2 SWAP1 POP JUMP JUMPDEST PUSH32 0x496E76616C696420676173207265736572766520616464726573730000000000 PUSH0 DUP3 ADD MSTORE POP JUMP JUMPDEST PUSH0 PUSH2 0x6DD PUSH1 0x1B DUP4 PUSH2 0x561 JUMP JUMPDEST SWAP2 POP PUSH2 0x6E8 DUP3 PUSH2 0x6A9 JUMP JUMPDEST PUSH1 0x20 DUP3 ADD SWAP1 POP SWAP2 SWAP1 POP JUMP JUMPDEST PUSH0 PUSH1 0x20 DUP3 ADD SWAP1 POP DUP2 DUP2 SUB PUSH0 DUP4 ADD MSTORE PUSH2 0x70A DUP2 PUSH2 0x6D1 JUMP JUMPDEST SWAP1 POP SWAP2 SWAP1 POP JUMP JUMPDEST PUSH32 0x446973636F756E742072617465206D757374206265203C203130302500000000 PUSH0 DUP3 ADD MSTORE POP JUMP JUMPDEST PUSH0 PUSH2 0x745 PUSH1 0x1C DUP4 PUSH2 0x561 JUMP JUMPDEST SWAP2 POP PUSH2 0x750 DUP3 PUSH2 0x711 JUMP JUMPDEST PUSH1 0x20 DUP3 ADD SWAP1 POP SWAP2 SWAP1 POP JUMP JUMPDEST PUSH0 PUSH1 0x20 DUP3 ADD SWAP1 POP DUP2 DUP2 SUB PUSH0 DUP4 ADD MSTORE PUSH2 0x772 DUP2 PUSH2 0x739 JUMP JUMPDEST SWAP1 POP SWAP2 SWAP1 POP JUMP JUMPDEST PUSH32 0x546172676574207072696365206D757374206265203E20300000000000000000 PUSH0 DUP3 ADD MSTORE POP JUMP JUMPDEST PUSH0 PUSH2 0x7AD PUSH1 0x18 DUP4 PUSH2 0x561 JUMP JUMPDEST SWAP2 POP PUSH2 0x7B8 DUP3 PUSH2 0x779 JUMP JUMPDEST PUSH1 0x20 DUP3 ADD SWAP1 POP SWAP2 SWAP1 POP JUMP JUMPDEST PUSH0 PUSH1 0x20 DUP3 ADD SWAP1 POP DUP2 DUP2 SUB PUSH0 DUP4 ADD MSTORE PUSH2 0x7DA DUP2 PUSH2 0x7A1 JUMP JUMPDEST SWAP1 POP SWAP2 SWAP1 POP JUMP JUMPDEST PUSH32 0x546178207261746520746F6F2068696768000000000000000000000000000000 PUSH0 DUP3 ADD MSTORE POP JUMP JUMPDEST PUSH0 PUSH2 0x815 PUSH1 0x11 DUP4 PUSH2 0x561 JUMP JUMPDEST SWAP2 POP PUSH2 0x820 DUP3 PUSH2 0x7E1 JUMP JUMPDEST PUSH1 0x20 DUP3 ADD SWAP1 POP SWAP2 SWAP1 POP JUMP JUMPDEST PUSH0 PUSH1 0x20 DUP3 ADD SWAP1 POP DUP2 DUP2 SUB PUSH0 DUP4 ADD MSTORE PUSH2 0x842 DUP2 PUSH2 0x809 JUMP JUMPDEST SWAP1 POP SWAP2 SWAP1 POP JUMP JUMPDEST PUSH2 0x1FF9 DUP1 PUSH2 0x856 PUSH0 CODECOPY PUSH0 RETURN INVALID PUSH1 0x80 PUSH1 0x40 MSTORE CALLVALUE DUP1 ISZERO PUSH2 0xF JUMPI PUSH0 DUP1 REVERT JUMPDEST POP PUSH1 0x4 CALLDATASIZE LT PUSH2 0x135 JUMPI PUSH0 CALLDATALOAD PUSH1 0xE0 SHR DUP1 PUSH4 0x9170B135 GT PUSH2 0xB6 JUMPI DUP1 PUSH4 0xCC7FFFBE GT PUSH2 0x7A JUMPI DUP1 PUSH4 0xCC7FFFBE EQ PUSH2 0x2EF JUMPI DUP1 PUSH4 0xD4A49C17 EQ PUSH2 0x31F JUMPI DUP1 PUSH4 0xDC38679C EQ PUSH2 0x33B JUMPI DUP1 PUSH4 0xE6C0E6D5 EQ PUSH2 0x359 JUMPI DUP1 PUSH4 0xEEA7570E EQ PUSH2 0x377 JUMPI DUP1 PUSH4 0xF2FDE38B EQ PUSH2 0x395 JUMPI PUSH2 0x135 JUMP JUMPDEST DUP1 PUSH4 0x9170B135 EQ PUSH2 0x25F JUMPI DUP1 PUSH4 0x9940686E EQ PUSH2 0x27B JUMPI DUP1 PUSH4 0xA933AC74 EQ PUSH2 0x297 JUMPI DUP1 PUSH4 0xC404836B EQ PUSH2 0x2B5 JUMPI DUP1 PUSH4 0xC6D69A30 EQ PUSH2 0x2D3 JUMPI PUSH2 0x135 JUMP JUMPDEST DUP1 PUSH4 0x771A3A1D GT PUSH2 0xFD JUMPI DUP1 PUSH4 0x771A3A1D EQ PUSH2 0x1CB JUMPI DUP1 PUSH4 0x7EF7BA20 EQ PUSH2 0x1E9 JUMPI DUP1 PUSH4 0x8456CB59 EQ PUSH2 0x207 JUMPI DUP1 PUSH4 0x89F1AA22 EQ PUSH2 0x211 JUMPI DUP1 PUSH4 0x8DA5CB5B EQ PUSH2 0x241 JUMPI PUSH2 0x135 JUMP JUMPDEST DUP1 PUSH4 0x126CBE60 EQ PUSH2 0x139 JUMPI DUP1 PUSH4 0x3013CE29 EQ PUSH2 0x169 JUMPI DUP1 PUSH4 0x3F4BA83A EQ PUSH2 0x187 JUMPI DUP1 PUSH4 0x5C975ABB EQ PUSH2 0x191 JUMPI DUP1 PUSH4 0x6A64EFF8 EQ PUSH2 0x1AF JUMPI JUMPDEST PUSH0 DUP1 REVERT JUMPDEST PUSH2 0x153 PUSH1 0x4 DUP1 CALLDATASIZE SUB DUP2 ADD SWAP1 PUSH2 0x14E SWAP2 SWAP1 PUSH2 0x185B JUMP JUMPDEST PUSH2 0x3B1 JUMP JUMPDEST PUSH1 0x40 MLOAD PUSH2 0x160 SWAP2 SWAP1 PUSH2 0x189E JUMP JUMPDEST PUSH1 0x40 MLOAD DUP1 SWAP2 SUB SWAP1 RETURN JUMPDEST PUSH2 0x171 PUSH2 0x452 JUMP JUMPDEST PUSH1 0x40 MLOAD PUSH2 0x17E SWAP2 SWAP1 PUSH2 0x18C6 JUMP JUMPDEST PUSH1 0x40 MLOAD DUP1 SWAP2 SUB SWAP1 RETURN JUMPDEST PUSH2 0x18F PUSH2 0x477 JUMP JUMPDEST STOP JUMPDEST PUSH2 0x199 PUSH2 0x510 JUMP JUMPDEST PUSH1 0x40 MLOAD PUSH2 0x1A6 SWAP2 SWAP1 PUSH2 0x18F9 JUMP JUMPDEST PUSH1 0x40 MLOAD DUP1 SWAP2 SUB SWAP1 RETURN JUMPDEST PUSH2 0x1C9 PUSH1 0x4 DUP1 CALLDATASIZE SUB DUP2 ADD SWAP1 PUSH2 0x1C4 SWAP2 SWAP1 PUSH2 0x193C JUMP JUMPDEST PUSH2 0x524 JUMP JUMPDEST STOP JUMPDEST PUSH2 0x1D3 PUSH2 0x5BD JUMP JUMPDEST PUSH1 0x40 MLOAD PUSH2 0x1E0 SWAP2 SWAP1 PUSH2 0x189E JUMP JUMPDEST PUSH1 0x40 MLOAD DUP1 SWAP2 SUB SWAP1 RETURN JUMPDEST PUSH2 0x1F1 PUSH2 0x5C3 JUMP JUMPDEST PUSH1 0x40 MLOAD PUSH2 0x1FE SWAP2 SWAP1 PUSH2 0x18C6 JUMP JUMPDEST PUSH1 0x40 MLOAD DUP1 SWAP2 SUB SWAP1 RETURN JUMPDEST PUSH2 0x20F PUSH2 0x5E8 JUMP JUMPDEST STOP JUMPDEST PUSH2 0x22B PUSH1 0x4 DUP1 CALLDATASIZE SUB DUP2 ADD SWAP1 PUSH2 0x226 SWAP2 SWAP1 PUSH2 0x185B JUMP JUMPDEST PUSH2 0x681 JUMP JUMPDEST PUSH1 0x40 MLOAD PUSH2 0x238 SWAP2 SWAP1 PUSH2 0x189E JUMP JUMPDEST PUSH1 0x40 MLOAD DUP1 SWAP2 SUB SWAP1 RETURN JUMPDEST PUSH2 0x249 PUSH2 0x724 JUMP JUMPDEST PUSH1 0x40 MLOAD PUSH2 0x256 SWAP2 SWAP1 PUSH2 0x18C6 JUMP JUMPDEST PUSH1 0x40 MLOAD DUP1 SWAP2 SUB SWAP1 RETURN JUMPDEST PUSH2 0x279 PUSH1 0x4 DUP1 CALLDATASIZE SUB DUP2 ADD SWAP1 PUSH2 0x274 SWAP2 SWAP1 PUSH2 0x185B JUMP JUMPDEST PUSH2 0x749 JUMP JUMPDEST STOP JUMPDEST PUSH2 0x295 PUSH1 0x4 DUP1 CALLDATASIZE SUB DUP2 ADD SWAP1 PUSH2 0x290 SWAP2 SWAP1 PUSH2 0x193C JUMP JUMPDEST PUSH2 0x904 JUMP JUMPDEST STOP JUMPDEST PUSH2 0x29F PUSH2 0xF31 JUMP JUMPDEST PUSH1 0x40 MLOAD PUSH2 0x2AC SWAP2 SWAP1 PUSH2 0x189E JUMP JUMPDEST PUSH1 0x40 MLOAD DUP1 SWAP2 SUB SWAP1 RETURN JUMPDEST PUSH2 0x2BD PUSH2 0xFD0 JUMP JUMPDEST PUSH1 0x40 MLOAD PUSH2 0x2CA SWAP2 SWAP1 PUSH2 0x18C6 JUMP JUMPDEST PUSH1 0x40 MLOAD DUP1 SWAP2 SUB SWAP1 RETURN JUMPDEST PUSH2 0x2ED PUSH1 0x4 DUP1 CALLDATASIZE SUB DUP2 ADD SWAP1 PUSH2 0x2E8 SWAP2 SWAP1 PUSH2 0x193C JUMP JUMPDEST PUSH2 0xFF5 JUMP JUMPDEST STOP JUMPDEST PUSH2 0x309 PUSH1 0x4 DUP1 CALLDATASIZE SUB DUP2 ADD SWAP1 PUSH2 0x304 SWAP2 SWAP1 PUSH2 0x185B JUMP JUMPDEST PUSH2 0x110E JUMP JUMPDEST PUSH1 0x40 MLOAD PUSH2 0x316 SWAP2 SWAP1 PUSH2 0x189E JUMP JUMPDEST PUSH1 0x40 MLOAD DUP1 SWAP2 SUB SWAP1 RETURN JUMPDEST PUSH2 0x339 PUSH1 0x4 DUP1 CALLDATASIZE SUB DUP2 ADD SWAP1 PUSH2 0x334 SWAP2 SWAP1 PUSH2 0x185B JUMP JUMPDEST PUSH2 0x11AF JUMP JUMPDEST STOP JUMPDEST PUSH2 0x343 PUSH2 0x136A JUMP JUMPDEST PUSH1 0x40 MLOAD PUSH2 0x350 SWAP2 SWAP1 PUSH2 0x189E JUMP JUMPDEST PUSH1 0x40 MLOAD DUP1 SWAP2 SUB SWAP1 RETURN JUMPDEST PUSH2 0x361 PUSH2 0x1370 JUMP JUMPDEST PUSH1 0x40 MLOAD PUSH2 0x36E SWAP2 SWAP1 PUSH2 0x189E JUMP JUMPDEST PUSH1 0x40 MLOAD DUP1 SWAP2 SUB SWAP1 RETURN JUMPDEST PUSH2 0x37F PUSH2 0x1376 JUMP JUMPDEST PUSH1 0x40 MLOAD PUSH2 0x38C SWAP2 SWAP1 PUSH2 0x18C6 JUMP JUMPDEST PUSH1 0x40 MLOAD DUP1 SWAP2 SUB SWAP1 RETURN JUMPDEST PUSH2 0x3AF PUSH1 0x4 DUP1 CALLDATASIZE SUB DUP2 ADD SWAP1 PUSH2 0x3AA SWAP2 SWAP1 PUSH2 0x185B JUMP JUMPDEST PUSH2 0x139B JUMP JUMPDEST STOP JUMPDEST PUSH0 PUSH1 0x3 PUSH0 SWAP1 SLOAD SWAP1 PUSH2 0x100 EXP SWAP1 DIV PUSH20 0xFFFFFFFFFFFFFFFFFFFFFFFFFFFFFFFFFFFFFFFF AND PUSH20 0xFFFFFFFFFFFFFFFFFFFFFFFFFFFFFFFFFFFFFFFF AND PUSH4 0x70A08231 DUP4 PUSH1 0x40 MLOAD DUP3 PUSH4 0xFFFFFFFF AND PUSH1 0xE0 SHL DUP2 MSTORE PUSH1 0x4 ADD PUSH2 0x40C SWAP2 SWAP1 PUSH2 0x18C6 JUMP JUMPDEST PUSH1 0x20 PUSH1 0x40 MLOAD DUP1 DUP4 SUB DUP2 DUP7 GAS STATICCALL ISZERO DUP1 ISZERO PUSH2 0x427 JUMPI RETURNDATASIZE PUSH0 DUP1 RETURNDATACOPY RETURNDATASIZE PUSH0 REVERT JUMPDEST POP POP POP POP PUSH1 0x40 MLOAD RETURNDATASIZE PUSH1 0x1F NOT PUSH1 0x1F DUP3 ADD AND DUP3 ADD DUP1 PUSH1 0x40 MSTORE POP DUP2 ADD SWAP1 PUSH2 0x44B SWAP2 SWAP1 PUSH2 0x197B JUMP JUMPDEST SWAP1 POP SWAP2 SWAP1 POP JUMP JUMPDEST PUSH1 0x3 PUSH0 SWAP1 SLOAD SWAP1 PUSH2 0x100 EXP SWAP1 DIV PUSH20 0xFFFFFFFFFFFFFFFFFFFFFFFFFFFFFFFFFFFFFFFF AND DUP2 JUMP JUMPDEST PUSH1 0x2 PUSH0 SWAP1 SLOAD SWAP1 PUSH2 0x100 EXP SWAP1 DIV PUSH20 0xFFFFFFFFFFFFFFFFFFFFFFFFFFFFFFFFFFFFFFFF AND PUSH20 0xFFFFFFFFFFFFFFFFFFFFFFFFFFFFFFFFFFFFFFFF AND CALLER PUSH20 0xFFFFFFFFFFFFFFFFFFFFFFFFFFFFFFFFFFFFFFFF AND EQ PUSH2 0x506 JUMPI PUSH1 0x40 MLOAD PUSH32 0x8C379A000000000000000000000000000000000000000000000000000000000 DUP2 MSTORE PUSH1 0x4 ADD PUSH2 0x4FD SWAP1 PUSH2 0x1A00 JUMP JUMPDEST PUSH1 0x40 MLOAD DUP1 SWAP2 SUB SWAP1 REVERT JUMPDEST PUSH2 0x50E PUSH2 0x1556 JUMP JUMPDEST JUMP JUMPDEST PUSH0 DUP1 PUSH0 SWAP1 SLOAD SWAP1 PUSH2 0x100 EXP SWAP1 DIV PUSH1 0xFF AND SWAP1 POP SWAP1 JUMP JUMPDEST PUSH1 0x2 PUSH0 SWAP1 SLOAD SWAP1 PUSH2 0x100 EXP SWAP1 DIV PUSH20 0xFFFFFFFFFFFFFFFFFFFFFFFFFFFFFFFFFFFFFFFF AND PUSH20 0xFFFFFFFFFFFFFFFFFFFFFFFFFFFFFFFFFFFFFFFF AND CALLER PUSH20 0xFFFFFFFFFFFFFFFFFFFFFFFFFFFFFFFFFFFFFFFF AND EQ PUSH2 0x5B3 JUMPI PUSH1 0x40 MLOAD PUSH32 0x8C379A000000000000000000000000000000000000000000000000000000000 DUP2 MSTORE PUSH1 0x4 ADD PUSH2 0x5AA SWAP1 PUSH2 0x1A00 JUMP JUMPDEST PUSH1 0x40 MLOAD DUP1 SWAP2 SUB SWAP1 REVERT JUMPDEST DUP1 PUSH1 0x8 DUP2 SWAP1 SSTORE POP POP JUMP JUMPDEST PUSH1 0x9 SLOAD DUP2 JUMP JUMPDEST PUSH1 0x4 PUSH0 SWAP1 SLOAD SWAP1 PUSH2 0x100 EXP SWAP1 DIV PUSH20 0xFFFFFFFFFFFFFFFFFFFFFFFFFFFFFFFFFFFFFFFF AND DUP2 JUMP JUMPDEST PUSH1 0x2 PUSH0 SWAP1 SLOAD SWAP1 PUSH2 0x100 EXP SWAP1 DIV PUSH20 0xFFFFFFFFFFFFFFFFFFFFFFFFFFFFFFFFFFFFFFFF AND PUSH20 0xFFFFFFFFFFFFFFFFFFFFFFFFFFFFFFFFFFFFFFFF AND CALLER PUSH20 0xFFFFFFFFFFFFFFFFFFFFFFFFFFFFFFFFFFFFFFFF AND EQ PUSH2 0x677 JUMPI PUSH1 0x40 MLOAD PUSH32 0x8C379A000000000000000000000000000000000000000000000000000000000 DUP2 MSTORE PUSH1 0x4 ADD PUSH2 0x66E SWAP1 PUSH2 0x1A00 JUMP JUMPDEST PUSH1 0x40 MLOAD DUP1 SWAP2 SUB SWAP1 REVERT JUMPDEST PUSH2 0x67F PUSH2 0x15EE JUMP JUMPDEST JUMP JUMPDEST PUSH0 PUSH1 0x3 PUSH0 SWAP1 SLOAD SWAP1 PUSH2 0x100 EXP SWAP1 DIV PUSH20 0xFFFFFFFFFFFFFFFFFFFFFFFFFFFFFFFFFFFFFFFF AND PUSH20 0xFFFFFFFFFFFFFFFFFFFFFFFFFFFFFFFFFFFFFFFF AND PUSH4 0xDD62ED3E DUP4 ADDRESS PUSH1 0x40 MLOAD DUP4 PUSH4 0xFFFFFFFF AND PUSH1 0xE0 SHL DUP2 MSTORE PUSH1 0x4 ADD PUSH2 0x6DE SWAP3 SWAP2 SWAP1 PUSH2 0x1A1E JUMP JUMPDEST PUSH1 0x20 PUSH1 0x40 MLOAD DUP1 DUP4 SUB DUP2 DUP7 GAS STATICCALL ISZERO DUP1 ISZERO PUSH2 0x6F9 JUMPI RETURNDATASIZE PUSH0 DUP1 RETURNDATACOPY RETURNDATASIZE PUSH0 REVERT JUMPDEST POP POP POP POP PUSH1 0x40 MLOAD RETURNDATASIZE PUSH1 0x1F NOT PUSH1 0x1F DUP3 ADD AND DUP3 ADD DUP1 PUSH1 0x40 MSTORE POP DUP2 ADD SWAP1 PUSH2 0x71D SWAP2 SWAP1 PUSH2 0x197B JUMP JUMPDEST SWAP1 POP SWAP2 SWAP1 POP JUMP JUMPDEST PUSH1 0x2 PUSH0 SWAP1 SLOAD SWAP1 PUSH2 0x100 EXP SWAP1 DIV PUSH20 0xFFFFFFFFFFFFFFFFFFFFFFFFFFFFFFFFFFFFFFFF AND DUP2 JUMP JUMPDEST PUSH1 0x2 PUSH0 SWAP1 SLOAD SWAP1 PUSH2 0x100 EXP SWAP1 DIV PUSH20 0xFFFFFFFFFFFFFFFFFFFFFFFFFFFFFFFFFFFFFFFF AND PUSH20 0xFFFFFFFFFFFFFFFFFFFFFFFFFFFFFFFFFFFFFFFF AND CALLER PUSH20 0xFFFFFFFFFFFFFFFFFFFFFFFFFFFFFFFFFFFFFFFF AND EQ PUSH2 0x7D8 JUMPI PUSH1 0x40 MLOAD PUSH32 0x8C379A000000000000000000000000000000000000000000000000000000000 DUP2 MSTORE PUSH1 0x4 ADD PUSH2 0x7CF SWAP1 PUSH2 0x1A00 JUMP JUMPDEST PUSH1 0x40 MLOAD DUP1 SWAP2 SUB SWAP1 REVERT JUMPDEST PUSH0 PUSH20 0xFFFFFFFFFFFFFFFFFFFFFFFFFFFFFFFFFFFFFFFF AND DUP2 PUSH20 0xFFFFFFFFFFFFFFFFFFFFFFFFFFFFFFFFFFFFFFFF AND SUB PUSH2 0x846 JUMPI PUSH1 0x40 MLOAD PUSH32 0x8C379A000000000000000000000000000000000000000000000000000000000 DUP2 MSTORE PUSH1 0x4 ADD PUSH2 0x83D SWAP1 PUSH2 0x1A8F JUMP JUMPDEST PUSH1 0x40 MLOAD DUP1 SWAP2 SUB SWAP1 REVERT JUMPDEST DUP1 PUSH20 0xFFFFFFFFFFFFFFFFFFFFFFFFFFFFFFFFFFFFFFFF AND PUSH1 0x5 PUSH0 SWAP1 SLOAD SWAP1 PUSH2 0x100 EXP SWAP1 DIV PUSH20 0xFFFFFFFFFFFFFFFFFFFFFFFFFFFFFFFFFFFFFFFF AND PUSH20 0xFFFFFFFFFFFFFFFFFFFFFFFFFFFFFFFFFFFFFFFF AND PUSH32 0xDE68B7B5773E2E7F3E935C77C66EE03CCE19588A596DC3E0629FF3A9FE941381 PUSH1 0x40 MLOAD PUSH1 0x40 MLOAD DUP1 SWAP2 SUB SWAP1 LOG3 DUP1 PUSH1 0x5 PUSH0 PUSH2 0x100 EXP DUP2 SLOAD DUP2 PUSH20 0xFFFFFFFFFFFFFFFFFFFFFFFFFFFFFFFFFFFFFFFF MUL NOT AND SWAP1 DUP4 PUSH20 0xFFFFFFFFFFFFFFFFFFFFFFFFFFFFFFFFFFFFFFFF AND MUL OR SWAP1 SSTORE POP POP JUMP JUMPDEST PUSH2 0x90C PUSH2 0x510 JUMP JUMPDEST ISZERO PUSH2 0x94C JUMPI PUSH1 0x40 MLOAD PUSH32 0x8C379A000000000000000000000000000000000000000000000000000000000 DUP2 MSTORE PUSH1 0x4 ADD PUSH2 0x943 SWAP1 PUSH2 0x1AF7 JUMP JUMPDEST PUSH1 0x40 MLOAD DUP1 SWAP2 SUB SWAP1 REVERT JUMPDEST PUSH2 0x954 PUSH2 0x1688 JUMP JUMPDEST PUSH0 DUP2 GT PUSH2 0x996 JUMPI PUSH1 0x40 MLOAD PUSH32 0x8C379A000000000000000000000000000000000000000000000000000000000 DUP2 MSTORE PUSH1 0x4 ADD PUSH2 0x98D SWAP1 PUSH2 0x1B5F JUMP JUMPDEST PUSH1 0x40 MLOAD DUP1 SWAP2 SUB SWAP1 REVERT JUMPDEST PUSH0 PUSH2 0x2710 PUSH1 0x9 SLOAD DUP4 PUSH2 0x9A8 SWAP2 SWAP1 PUSH2 0x1BAA JUMP JUMPDEST PUSH2 0x9B2 SWAP2 SWAP1 PUSH2 0x1C18 JUMP JUMPDEST SWAP1 POP PUSH0 DUP2 DUP4 PUSH2 0x9C1 SWAP2 SWAP1 PUSH2 0x1C48 JUMP JUMPDEST SWAP1 POP PUSH0 PUSH1 0x3 PUSH0 SWAP1 SLOAD SWAP1 PUSH2 0x100 EXP SWAP1 DIV PUSH20 0xFFFFFFFFFFFFFFFFFFFFFFFFFFFFFFFFFFFFFFFF AND PUSH20 0xFFFFFFFFFFFFFFFFFFFFFFFFFFFFFFFFFFFFFFFF AND PUSH4 0xDD62ED3E CALLER ADDRESS PUSH1 0x40 MLOAD DUP4 PUSH4 0xFFFFFFFF AND PUSH1 0xE0 SHL DUP2 MSTORE PUSH1 0x4 ADD PUSH2 0xA20 SWAP3 SWAP2 SWAP1 PUSH2 0x1A1E JUMP JUMPDEST PUSH1 0x20 PUSH1 0x40 MLOAD DUP1 DUP4 SUB DUP2 DUP7 GAS STATICCALL ISZERO DUP1 ISZERO PUSH2 0xA3B JUMPI RETURNDATASIZE PUSH0 DUP1 RETURNDATACOPY RETURNDATASIZE PUSH0 REVERT JUMPDEST POP POP POP POP PUSH1 0x40 MLOAD RETURNDATASIZE PUSH1 0x1F NOT PUSH1 0x1F DUP3 ADD AND DUP3 ADD DUP1 PUSH1 0x40 MSTORE POP DUP2 ADD SWAP1 PUSH2 0xA5F SWAP2 SWAP1 PUSH2 0x197B JUMP JUMPDEST SWAP1 POP DUP4 DUP2 LT ISZERO PUSH2 0xAA4 JUMPI PUSH1 0x40 MLOAD PUSH32 0x8C379A000000000000000000000000000000000000000000000000000000000 DUP2 MSTORE PUSH1 0x4 ADD PUSH2 0xA9B SWAP1 PUSH2 0x1CC5 JUMP JUMPDEST PUSH1 0x40 MLOAD DUP1 SWAP2 SUB SWAP1 REVERT JUMPDEST PUSH2 0xB13 CALLER PUSH1 0x6 PUSH0 SWAP1 SLOAD SWAP1 PUSH2 0x100 EXP SWAP1 DIV PUSH20 0xFFFFFFFFFFFFFFFFFFFFFFFFFFFFFFFFFFFFFFFF AND DUP6 PUSH1 0x3 PUSH0 SWAP1 SLOAD SWAP1 PUSH2 0x100 EXP SWAP1 DIV PUSH20 0xFFFFFFFFFFFFFFFFFFFFFFFFFFFFFFFFFFFFFFFF AND PUSH20 0xFFFFFFFFFFFFFFFFFFFFFFFFFFFFFFFFFFFFFFFF AND PUSH2 0x16D7 SWAP1 SWAP4 SWAP3 SWAP2 SWAP1 PUSH4 0xFFFFFFFF AND JUMP JUMPDEST PUSH2 0xB82 CALLER PUSH1 0x5 PUSH0 SWAP1 SLOAD SWAP1 PUSH2 0x100 EXP SWAP1 DIV PUSH20 0xFFFFFFFFFFFFFFFFFFFFFFFFFFFFFFFFFFFFFFFF AND DUP5 PUSH1 0x3 PUSH0 SWAP1 SLOAD SWAP1 PUSH2 0x100 EXP SWAP1 DIV PUSH20 0xFFFFFFFFFFFFFFFFFFFFFFFFFFFFFFFFFFFFFFFF AND PUSH20 0xFFFFFFFFFFFFFFFFFFFFFFFFFFFFFFFFFFFFFFFF AND PUSH2 0x16D7 SWAP1 SWAP4 SWAP3 SWAP2 SWAP1 PUSH4 0xFFFFFFFF AND JUMP JUMPDEST PUSH0 PUSH1 0x64 PUSH1 0x7 SLOAD PUSH1 0x64 PUSH2 0xB94 SWAP2 SWAP1 PUSH2 0x1C48 JUMP JUMPDEST PUSH1 0x8 SLOAD PUSH2 0xBA1 SWAP2 SWAP1 PUSH2 0x1BAA JUMP JUMPDEST PUSH2 0xBAB SWAP2 SWAP1 PUSH2 0x1C18 JUMP JUMPDEST SWAP1 POP PUSH0 DUP2 PUSH8 0xDE0B6B3A7640000 DUP8 PUSH2 0xBC3 SWAP2 SWAP1 PUSH2 0x1BAA JUMP JUMPDEST PUSH2 0xBCD SWAP2 SWAP1 PUSH2 0x1C18 JUMP JUMPDEST SWAP1 POP PUSH0 PUSH1 0x4 PUSH0 SWAP1 SLOAD SWAP1 PUSH2 0x100 EXP SWAP1 DIV PUSH20 0xFFFFFFFFFFFFFFFFFFFFFFFFFFFFFFFFFFFFFFFF AND PUSH20 0xFFFFFFFFFFFFFFFFFFFFFFFFFFFFFFFFFFFFFFFF AND PUSH4 0x70A08231 ADDRESS PUSH1 0x40 MLOAD DUP3 PUSH4 0xFFFFFFFF AND PUSH1 0xE0 SHL DUP2 MSTORE PUSH1 0x4 ADD PUSH2 0xC2A SWAP2 SWAP1 PUSH2 0x18C6 JUMP JUMPDEST PUSH1 0x20 PUSH1 0x40 MLOAD DUP1 DUP4 SUB DUP2 DUP7 GAS STATICCALL ISZERO DUP1 ISZERO PUSH2 0xC45 JUMPI RETURNDATASIZE PUSH0 DUP1 RETURNDATACOPY RETURNDATASIZE PUSH0 REVERT JUMPDEST POP POP POP POP PUSH1 0x40 MLOAD RETURNDATASIZE PUSH1 0x1F NOT PUSH1 0x1F DUP3 ADD AND DUP3 ADD DUP1 PUSH1 0x40 MSTORE POP DUP2 ADD SWAP1 PUSH2 0xC69 SWAP2 SWAP1 PUSH2 0x197B JUMP JUMPDEST SWAP1 POP DUP2 DUP2 LT ISZERO PUSH2 0xE33 JUMPI PUSH0 DUP2 DUP4 PUSH2 0xC80 SWAP2 SWAP1 PUSH2 0x1C48 JUMP JUMPDEST SWAP1 POP PUSH0 PUSH1 0x4 PUSH0 SWAP1 SLOAD SWAP1 PUSH2 0x100 EXP SWAP1 DIV PUSH20 0xFFFFFFFFFFFFFFFFFFFFFFFFFFFFFFFFFFFFFFFF AND PUSH20 0xFFFFFFFFFFFFFFFFFFFFFFFFFFFFFFFFFFFFFFFF AND PUSH4 0x18160DDD PUSH1 0x40 MLOAD DUP2 PUSH4 0xFFFFFFFF AND PUSH1 0xE0 SHL DUP2 MSTORE PUSH1 0x4 ADD PUSH1 0x20 PUSH1 0x40 MLOAD DUP1 DUP4 SUB DUP2 DUP7 GAS STATICCALL ISZERO DUP1 ISZERO PUSH2 0xCED JUMPI RETURNDATASIZE PUSH0 DUP1 RETURNDATACOPY RETURNDATASIZE PUSH0 REVERT JUMPDEST POP POP POP POP PUSH1 0x40 MLOAD RETURNDATASIZE PUSH1 0x1F NOT PUSH1 0x1F DUP3 ADD AND DUP3 ADD DUP1 PUSH1 0x40 MSTORE POP DUP2 ADD SWAP1 PUSH2 0xD11 SWAP2 SWAP1 PUSH2 0x197B JUMP JUMPDEST SWAP1 POP PUSH0 DUP2 SUB PUSH2 0xDA6 JUMPI PUSH1 0x4 PUSH0 SWAP1 SLOAD SWAP1 PUSH2 0x100 EXP SWAP1 DIV PUSH20 0xFFFFFFFFFFFFFFFFFFFFFFFFFFFFFFFFFFFFFFFF AND PUSH20 0xFFFFFFFFFFFFFFFFFFFFFFFFFFFFFFFFFFFFFFFF AND PUSH4 0xD9E63BB1 DUP4 PUSH1 0x40 MLOAD DUP3 PUSH4 0xFFFFFFFF AND PUSH1 0xE0 SHL DUP2 MSTORE PUSH1 0x4 ADD PUSH2 0xD74 SWAP2 SWAP1 PUSH2 0x189E JUMP JUMPDEST PUSH0 PUSH1 0x40 MLOAD DUP1 DUP4 SUB DUP2 PUSH0 DUP8 DUP1 EXTCODESIZE ISZERO DUP1 ISZERO PUSH2 0xD8B JUMPI PUSH0 DUP1 REVERT JUMPDEST POP GAS CALL ISZERO DUP1 ISZERO PUSH2 0xD9D JUMPI RETURNDATASIZE PUSH0 DUP1 RETURNDATACOPY RETURNDATASIZE PUSH0 REVERT JUMPDEST POP POP POP POP PUSH2 0xE30 JUMP JUMPDEST PUSH1 0x4 PUSH0 SWAP1 SLOAD SWAP1 PUSH2 0x100 EXP SWAP1 DIV PUSH20 0xFFFFFFFFFFFFFFFFFFFFFFFFFFFFFFFFFFFFFFFF AND PUSH20 0xFFFFFFFFFFFFFFFFFFFFFFFFFFFFFFFFFFFFFFFF AND PUSH4 0x40C10F19 ADDRESS DUP5 PUSH1 0x40 MLOAD DUP4 PUSH4 0xFFFFFFFF AND PUSH1 0xE0 SHL DUP2 MSTORE PUSH1 0x4 ADD PUSH2 0xE02 SWAP3 SWAP2 SWAP1 PUSH2 0x1CE3 JUMP JUMPDEST PUSH0 PUSH1 0x40 MLOAD DUP1 DUP4 SUB DUP2 PUSH0 DUP8 DUP1 EXTCODESIZE ISZERO DUP1 ISZERO PUSH2 0xE19 JUMPI PUSH0 DUP1 REVERT JUMPDEST POP GAS CALL ISZERO DUP1 ISZERO PUSH2 0xE2B JUMPI RETURNDATASIZE PUSH0 DUP1 RETURNDATACOPY RETURNDATASIZE PUSH0 REVERT JUMPDEST POP POP POP POP JUMPDEST POP POP JUMPDEST PUSH1 0x4 PUSH0 SWAP1 SLOAD SWAP1 PUSH2 0x100 EXP SWAP1 DIV PUSH20 0xFFFFFFFFFFFFFFFFFFFFFFFFFFFFFFFFFFFFFFFF AND PUSH20 0xFFFFFFFFFFFFFFFFFFFFFFFFFFFFFFFFFFFFFFFF AND PUSH4 0xA9059CBB CALLER DUP5 PUSH1 0x40 MLOAD DUP4 PUSH4 0xFFFFFFFF AND PUSH1 0xE0 SHL DUP2 MSTORE PUSH1 0x4 ADD PUSH2 0xE8F SWAP3 SWAP2 SWAP1 PUSH2 0x1CE3 JUMP JUMPDEST PUSH1 0x20 PUSH1 0x40 MLOAD DUP1 DUP4 SUB DUP2 PUSH0 DUP8 GAS CALL ISZERO DUP1 ISZERO PUSH2 0xEAB JUMPI RETURNDATASIZE PUSH0 DUP1 RETURNDATACOPY RETURNDATASIZE PUSH0 REVERT JUMPDEST POP POP POP POP PUSH1 0x40 MLOAD RETURNDATASIZE PUSH1 0x1F NOT PUSH1 0x1F DUP3 ADD AND DUP3 ADD DUP1 PUSH1 0x40 MSTORE POP DUP2 ADD SWAP1 PUSH2 0xECF SWAP2 SWAP1 PUSH2 0x1D34 JUMP JUMPDEST POP CALLER PUSH20 0xFFFFFFFFFFFFFFFFFFFFFFFFFFFFFFFFFFFFFFFF AND PUSH32 0xDB13E87B3F9C3B8F5F3ACAD928DF55C52BA6BF7795AF4EC069DE5E23CAACB37 DUP9 DUP5 PUSH1 0x40 MLOAD PUSH2 0xF18 SWAP3 SWAP2 SWAP1 PUSH2 0x1D5F JUMP JUMPDEST PUSH1 0x40 MLOAD DUP1 SWAP2 SUB SWAP1 LOG2 POP POP POP POP POP POP PUSH2 0xF2E PUSH2 0x1759 JUMP JUMPDEST POP JUMP JUMPDEST PUSH0 PUSH1 0x4 PUSH0 SWAP1 SLOAD SWAP1 PUSH2 0x100 EXP SWAP1 DIV PUSH20 0xFFFFFFFFFFFFFFFFFFFFFFFFFFFFFFFFFFFFFFFF AND PUSH20 0xFFFFFFFFFFFFFFFFFFFFFFFFFFFFFFFFFFFFFFFF AND PUSH4 0x70A08231 ADDRESS PUSH1 0x40 MLOAD DUP3 PUSH4 0xFFFFFFFF AND PUSH1 0xE0 SHL DUP2 MSTORE PUSH1 0x4 ADD PUSH2 0xF8C SWAP2 SWAP1 PUSH2 0x18C6 JUMP JUMPDEST PUSH1 0x20 PUSH1 0x40 MLOAD DUP1 DUP4 SUB DUP2 DUP7 GAS STATICCALL ISZERO DUP1 ISZERO PUSH2 0xFA7 JUMPI RETURNDATASIZE PUSH0 DUP1 RETURNDATACOPY RETURNDATASIZE PUSH0 REVERT JUMPDEST POP POP POP POP PUSH1 0x40 MLOAD RETURNDATASIZE PUSH1 0x1F NOT PUSH1 0x1F DUP3 ADD AND DUP3 ADD DUP1 PUSH1 0x40 MSTORE POP DUP2 ADD SWAP1 PUSH2 0xFCB SWAP2 SWAP1 PUSH2 0x197B JUMP JUMPDEST SWAP1 POP SWAP1 JUMP JUMPDEST PUSH1 0x5 PUSH0 SWAP1 SLOAD SWAP1 PUSH2 0x100 EXP SWAP1 DIV PUSH20 0xFFFFFFFFFFFFFFFFFFFFFFFFFFFFFFFFFFFFFFFF AND DUP2 JUMP JUMPDEST PUSH1 0x2 PUSH0 SWAP1 SLOAD SWAP1 PUSH2 0x100 EXP SWAP1 DIV PUSH20 0xFFFFFFFFFFFFFFFFFFFFFFFFFFFFFFFFFFFFFFFF AND PUSH20 0xFFFFFFFFFFFFFFFFFFFFFFFFFFFFFFFFFFFFFFFF AND CALLER PUSH20 0xFFFFFFFFFFFFFFFFFFFFFFFFFFFFFFFFFFFFFFFF AND EQ PUSH2 0x1084 JUMPI PUSH1 0x40 MLOAD PUSH32 0x8C379A000000000000000000000000000000000000000000000000000000000 DUP2 MSTORE PUSH1 0x4 ADD PUSH2 0x107B SWAP1 PUSH2 0x1A00 JUMP JUMPDEST PUSH1 0x40 MLOAD DUP1 SWAP2 SUB SWAP1 REVERT JUMPDEST PUSH2 0x3E8 DUP2 GT ISZERO PUSH2 0x10C9 JUMPI PUSH1 0x40 MLOAD PUSH32 0x8C379A000000000000000000000000000000000000000000000000000000000 DUP2 MSTORE PUSH1 0x4 ADD PUSH2 0x10C0 SWAP1 PUSH2 0x1DD0 JUMP JUMPDEST PUSH1 0x40 MLOAD DUP1 SWAP2 SUB SWAP1 REVERT JUMPDEST PUSH32 0xA8EE157EB2A9AA895D74DF4D2D3BC0AD165FF3162F8EC46A4ECF602DD5C48FDA PUSH1 0x9 SLOAD DUP3 PUSH1 0x40 MLOAD PUSH2 0x10FC SWAP3 SWAP2 SWAP1 PUSH2 0x1D5F JUMP JUMPDEST PUSH1 0x40 MLOAD DUP1 SWAP2 SUB SWAP1 LOG1 DUP1 PUSH1 0x9 DUP2 SWAP1 SSTORE POP POP JUMP JUMPDEST PUSH0 PUSH1 0x4 PUSH0 SWAP1 SLOAD SWAP1 PUSH2 0x100 EXP SWAP1 DIV PUSH20 0xFFFFFFFFFFFFFFFFFFFFFFFFFFFFFFFFFFFFFFFF AND PUSH20 0xFFFFFFFFFFFFFFFFFFFFFFFFFFFFFFFFFFFFFFFF AND PUSH4 0x70A08231 DUP4 PUSH1 0x40 MLOAD DUP3 PUSH4 0xFFFFFFFF AND PUSH1 0xE0 SHL DUP2 MSTORE PUSH1 0x4 ADD PUSH2 0x1169 SWAP2 SWAP1 PUSH2 0x18C6 JUMP JUMPDEST PUSH1 0x20 PUSH1 0x40 MLOAD DUP1 DUP4 SUB DUP2 DUP7 GAS STATICCALL ISZERO DUP1 ISZERO PUSH2 0x1184 JUMPI RETURNDATASIZE PUSH0 DUP1 RETURNDATACOPY RETURNDATASIZE PUSH0 REVERT JUMPDEST POP POP POP POP PUSH1 0x40 MLOAD RETURNDATASIZE PUSH1 0x1F NOT PUSH1 0x1F DUP3 ADD AND DUP3 ADD DUP1 PUSH1 0x40 MSTORE POP DUP2 ADD SWAP1 PUSH2 0x11A8 SWAP2 SWAP1 PUSH2 0x197B JUMP JUMPDEST SWAP1 POP SWAP2 SWAP1 POP JUMP JUMPDEST PUSH1 0x2 PUSH0 SWAP1 SLOAD SWAP1 PUSH2 0x100 EXP SWAP1 DIV PUSH20 0xFFFFFFFFFFFFFFFFFFFFFFFFFFFFFFFFFFFFFFFF AND PUSH20 0xFFFFFFFFFFFFFFFFFFFFFFFFFFFFFFFFFFFFFFFF AND CALLER PUSH20 0xFFFFFFFFFFFFFFFFFFFFFFFFFFFFFFFFFFFFFFFF AND EQ PUSH2 0x123E JUMPI PUSH1 0x40 MLOAD PUSH32 0x8C379A000000000000000000000000000000000000000000000000000000000 DUP2 MSTORE PUSH1 0x4 ADD PUSH2 0x1235 SWAP1 PUSH2 0x1A00 JUMP JUMPDEST PUSH1 0x40 MLOAD DUP1 SWAP2 SUB SWAP1 REVERT JUMPDEST PUSH0 PUSH20 0xFFFFFFFFFFFFFFFFFFFFFFFFFFFFFFFFFFFFFFFF AND DUP2 PUSH20 0xFFFFFFFFFFFFFFFFFFFFFFFFFFFFFFFFFFFFFFFF AND SUB PUSH2 0x12AC JUMPI PUSH1 0x40 MLOAD PUSH32 0x8C379A000000000000000000000000000000000000000000000000000000000 DUP2 MSTORE PUSH1 0x4 ADD PUSH2 0x12A3 SWAP1 PUSH2 0x1E38 JUMP JUMPDEST PUSH1 0x40 MLOAD DUP1 SWAP2 SUB SWAP1 REVERT JUMPDEST DUP1 PUSH20 0xFFFFFFFFFFFFFFFFFFFFFFFFFFFFFFFFFFFFFFFF AND PUSH1 0x6 PUSH0 SWAP1 SLOAD SWAP1 PUSH2 0x100 EXP SWAP1 DIV PUSH20 0xFFFFFFFFFFFFFFFFFFFFFFFFFFFFFFFFFFFFFFFF AND PUSH20 0xFFFFFFFFFFFFFFFFFFFFFFFFFFFFFFFFFFFFFFFF AND PUSH32 0xB4281BB17CDC594E3CF6D419DA95F70A6B02D856B26438D381EE1246A8E89F12 PUSH1 0x40 MLOAD PUSH1 0x40 MLOAD DUP1 SWAP2 SUB SWAP1 LOG3 DUP1 PUSH1 0x6 PUSH0 PUSH2 0x100 EXP DUP2 SLOAD DUP2 PUSH20 0xFFFFFFFFFFFFFFFFFFFFFFFFFFFFFFFFFFFFFFFF MUL NOT AND SWAP1 DUP4 PUSH20 0xFFFFFFFFFFFFFFFFFFFFFFFFFFFFFFFFFFFFFFFF AND MUL OR SWAP1 SSTORE POP POP JUMP JUMPDEST PUSH1 0x8 SLOAD DUP2 JUMP JUMPDEST PUSH1 0x7 SLOAD DUP2 JUMP JUMPDEST PUSH1 0x6 PUSH0 SWAP1 SLOAD SWAP1 PUSH2 0x100 EXP SWAP1 DIV PUSH20 0xFFFFFFFFFFFFFFFFFFFFFFFFFFFFFFFFFFFFFFFF AND DUP2 JUMP JUMPDEST PUSH1 0x2 PUSH0 SWAP1 SLOAD SWAP1 PUSH2 0x100 EXP SWAP1 DIV PUSH20 0xFFFFFFFFFFFFFFFFFFFFFFFFFFFFFFFFFFFFFFFF AND PUSH20 0xFFFFFFFFFFFFFFFFFFFFFFFFFFFFFFFFFFFFFFFF AND CALLER PUSH20 0xFFFFFFFFFFFFFFFFFFFFFFFFFFFFFFFFFFFFFFFF AND EQ PUSH2 0x142A JUMPI PUSH1 0x40 MLOAD PUSH32 0x8C379A000000000000000000000000000000000000000000000000000000000 DUP2 MSTORE PUSH1 0x4 ADD PUSH2 0x1421 SWAP1 PUSH2 0x1A00 JUMP JUMPDEST PUSH1 0x40 MLOAD DUP1 SWAP2 SUB SWAP1 REVERT JUMPDEST PUSH0 PUSH20 0xFFFFFFFFFFFFFFFFFFFFFFFFFFFFFFFFFFFFFFFF AND DUP2 PUSH20 0xFFFFFFFFFFFFFFFFFFFFFFFFFFFFFFFFFFFFFFFF AND SUB PUSH2 0x1498 JUMPI PUSH1 0x40 MLOAD PUSH32 0x8C379A000000000000000000000000000000000000000000000000000000000 DUP2 MSTORE PUSH1 0x4 ADD PUSH2 0x148F SWAP1 PUSH2 0x1EA0 JUMP JUMPDEST PUSH1 0x40 MLOAD DUP1 SWAP2 SUB SWAP1 REVERT JUMPDEST DUP1 PUSH20 0xFFFFFFFFFFFFFFFFFFFFFFFFFFFFFFFFFFFFFFFF AND PUSH1 0x2 PUSH0 SWAP1 SLOAD SWAP1 PUSH2 0x100 EXP SWAP1 DIV PUSH20 0xFFFFFFFFFFFFFFFFFFFFFFFFFFFFFFFFFFFFFFFF AND PUSH20 0xFFFFFFFFFFFFFFFFFFFFFFFFFFFFFFFFFFFFFFFF AND PUSH32 0x8BE0079C531659141344CD1FD0A4F28419497F9722A3DAAFE3B4186F6B6457E0 PUSH1 0x40 MLOAD PUSH1 0x40 MLOAD DUP1 SWAP2 SUB SWAP1 LOG3 DUP1 PUSH1 0x2 PUSH0 PUSH2 0x100 EXP DUP2 SLOAD DUP2 PUSH20 0xFFFFFFFFFFFFFFFFFFFFFFFFFFFFFFFFFFFFFFFF MUL NOT AND SWAP1 DUP4 PUSH20 0xFFFFFFFFFFFFFFFFFFFFFFFFFFFFFFFFFFFFFFFF AND MUL OR SWAP1 SSTORE POP POP JUMP JUMPDEST PUSH2 0x155E PUSH2 0x510 JUMP JUMPDEST PUSH2 0x159D JUMPI PUSH1 0x40 MLOAD PUSH32 0x8C379A000000000000000000000000000000000000000000000000000000000 DUP2 MSTORE PUSH1 0x4 ADD PUSH2 0x1594 SWAP1 PUSH2 0x1F08 JUMP JUMPDEST PUSH1 0x40 MLOAD DUP1 SWAP2 SUB SWAP1 REVERT JUMPDEST PUSH0 DUP1 PUSH0 PUSH2 0x100 EXP DUP2 SLOAD DUP2 PUSH1 0xFF MUL NOT AND SWAP1 DUP4 ISZERO ISZERO MUL OR SWAP1 SSTORE POP PUSH32 0x5DB9EE0A495BF2E6FF9C91A7834C1BA4FDD244A5E8AA4E537BD38AEAE4B073AA CALLER PUSH1 0x40 MLOAD PUSH2 0x15E4 SWAP2 SWAP1 PUSH2 0x18C6 JUMP JUMPDEST PUSH1 0x40 MLOAD DUP1 SWAP2 SUB SWAP1 LOG1 JUMP JUMPDEST PUSH2 0x15F6 PUSH2 0x510 JUMP JUMPDEST ISZERO PUSH2 0x1636 JUMPI PUSH1 0x40 MLOAD PUSH32 0x8C379A000000000000000000000000000000000000000000000000000000000 DUP2 MSTORE PUSH1 0x4 ADD PUSH2 0x162D SWAP1 PUSH2 0x1AF7 JUMP JUMPDEST PUSH1 0x40 MLOAD DUP1 SWAP2 SUB SWAP1 REVERT JUMPDEST PUSH1 0x1 PUSH0 DUP1 PUSH2 0x100 EXP DUP2 SLOAD DUP2 PUSH1 0xFF MUL NOT AND SWAP1 DUP4 ISZERO ISZERO MUL OR SWAP1 SSTORE POP PUSH32 0x62E78CEA01BEE320CD4E420270B5EA74000D11B0C9F74754EBDBFC544B05A258 CALLER PUSH1 0x40 MLOAD PUSH2 0x167E SWAP2 SWAP1 PUSH2 0x18C6 JUMP JUMPDEST PUSH1 0x40 MLOAD DUP1 SWAP2 SUB SWAP1 LOG1 JUMP JUMPDEST PUSH1 0x2 PUSH1 0x1 SLOAD SUB PUSH2 0x16CD JUMPI PUSH1 0x40 MLOAD PUSH32 0x8C379A000000000000000000000000000000000000000000000000000000000 DUP2 MSTORE PUSH1 0x4 ADD PUSH2 0x16C4 SWAP1 PUSH2 0x1F70 JUMP JUMPDEST PUSH1 0x40 MLOAD DUP1 SWAP2 SUB SWAP1 REVERT JUMPDEST PUSH1 0x2 PUSH1 0x1 DUP2 SWAP1 SSTORE POP JUMP JUMPDEST PUSH2 0x1753 DUP5 DUP6 PUSH20 0xFFFFFFFFFFFFFFFFFFFFFFFFFFFFFFFFFFFFFFFF AND PUSH4 0x23B872DD DUP7 DUP7 DUP7 PUSH1 0x40 MLOAD PUSH1 0x24 ADD PUSH2 0x170C SWAP4 SWAP3 SWAP2 SWAP1 PUSH2 0x1F8E JUMP JUMPDEST PUSH1 0x40 MLOAD PUSH1 0x20 DUP2 DUP4 SUB SUB DUP2 MSTORE SWAP1 PUSH1 0x40 MSTORE SWAP2 POP PUSH1 0xE0 SHL PUSH1 0x20 DUP3 ADD DUP1 MLOAD PUSH28 0xFFFFFFFFFFFFFFFFFFFFFFFFFFFFFFFFFFFFFFFFFFFFFFFFFFFFFFFF DUP4 DUP2 DUP4 AND OR DUP4 MSTORE POP POP POP POP PUSH2 0x1762 JUMP JUMPDEST POP POP POP POP JUMP JUMPDEST PUSH1 0x1 DUP1 DUP2 SWAP1 SSTORE POP JUMP JUMPDEST PUSH0 DUP1 PUSH1 0x20 PUSH0 DUP5 MLOAD PUSH1 0x20 DUP7 ADD PUSH0 DUP9 GAS CALL DUP1 PUSH2 0x1781 JUMPI PUSH1 0x40 MLOAD RETURNDATASIZE PUSH0 DUP3 RETURNDATACOPY RETURNDATASIZE DUP2 REVERT JUMPDEST RETURNDATASIZE SWAP3 POP PUSH0 MLOAD SWAP2 POP POP PUSH0 DUP3 EQ PUSH2 0x179A JUMPI PUSH1 0x1 DUP2 EQ ISZERO PUSH2 0x17B5 JUMP JUMPDEST PUSH0 DUP5 PUSH20 0xFFFFFFFFFFFFFFFFFFFFFFFFFFFFFFFFFFFFFFFF AND EXTCODESIZE EQ JUMPDEST ISZERO PUSH2 0x17F7 JUMPI DUP4 PUSH1 0x40 MLOAD PUSH32 0x5274AFE700000000000000000000000000000000000000000000000000000000 DUP2 MSTORE PUSH1 0x4 ADD PUSH2 0x17EE SWAP2 SWAP1 PUSH2 0x18C6 JUMP JUMPDEST PUSH1 0x40 MLOAD DUP1 SWAP2 SUB SWAP1 REVERT JUMPDEST POP POP POP POP JUMP JUMPDEST PUSH0 DUP1 REVERT JUMPDEST PUSH0 PUSH20 0xFFFFFFFFFFFFFFFFFFFFFFFFFFFFFFFFFFFFFFFF DUP3 AND SWAP1 POP SWAP2 SWAP1 POP JUMP JUMPDEST PUSH0 PUSH2 0x182A DUP3 PUSH2 0x1801 JUMP JUMPDEST SWAP1 POP SWAP2 SWAP1 POP JUMP JUMPDEST PUSH2 0x183A DUP2 PUSH2 0x1820 JUMP JUMPDEST DUP2 EQ PUSH2 0x1844 JUMPI PUSH0 DUP1 REVERT JUMPDEST POP JUMP JUMPDEST PUSH0 DUP2 CALLDATALOAD SWAP1 POP PUSH2 0x1855 DUP2 PUSH2 0x1831 JUMP JUMPDEST SWAP3 SWAP2 POP POP JUMP JUMPDEST PUSH0 PUSH1 0x20 DUP3 DUP5 SUB SLT ISZERO PUSH2 0x1870 JUMPI PUSH2 0x186F PUSH2 0x17FD JUMP JUMPDEST JUMPDEST PUSH0 PUSH2 0x187D DUP5 DUP3 DUP6 ADD PUSH2 0x1847 JUMP JUMPDEST SWAP2 POP POP SWAP3 SWAP2 POP POP JUMP JUMPDEST PUSH0 DUP2 SWAP1 POP SWAP2 SWAP1 POP JUMP JUMPDEST PUSH2 0x1898 DUP2 PUSH2 0x1886 JUMP JUMPDEST DUP3 MSTORE POP POP JUMP JUMPDEST PUSH0 PUSH1 0x20 DUP3 ADD SWAP1 POP PUSH2 0x18B1 PUSH0 DUP4 ADD DUP5 PUSH2 0x188F JUMP JUMPDEST SWAP3 SWAP2 POP POP JUMP JUMPDEST PUSH2 0x18C0 DUP2 PUSH2 0x1820 JUMP JUMPDEST DUP3 MSTORE POP POP JUMP JUMPDEST PUSH0 PUSH1 0x20 DUP3 ADD SWAP1 POP PUSH2 0x18D9 PUSH0 DUP4 ADD DUP5 PUSH2 0x18B7 JUMP JUMPDEST SWAP3 SWAP2 POP POP JUMP JUMPDEST PUSH0 DUP2 ISZERO ISZERO SWAP1 POP SWAP2 SWAP1 POP JUMP JUMPDEST PUSH2 0x18F3 DUP2 PUSH2 0x18DF JUMP JUMPDEST DUP3 MSTORE POP POP JUMP JUMPDEST PUSH0 PUSH1 0x20 DUP3 ADD SWAP1 POP PUSH2 0x190C PUSH0 DUP4 ADD DUP5 PUSH2 0x18EA JUMP JUMPDEST SWAP3 SWAP2 POP POP JUMP JUMPDEST PUSH2 0x191B DUP2 PUSH2 0x1886 JUMP JUMPDEST DUP2 EQ PUSH2 0x1925 JUMPI PUSH0 DUP1 REVERT JUMPDEST POP JUMP JUMPDEST PUSH0 DUP2 CALLDATALOAD SWAP1 POP PUSH2 0x1936 DUP2 PUSH2 0x1912 JUMP JUMPDEST SWAP3 SWAP2 POP POP JUMP JUMPDEST PUSH0 PUSH1 0x20 DUP3 DUP5 SUB SLT ISZERO PUSH2 0x1951 JUMPI PUSH2 0x1950 PUSH2 0x17FD JUMP JUMPDEST JUMPDEST PUSH0 PUSH2 0x195E DUP5 DUP3 DUP6 ADD PUSH2 0x1928 JUMP JUMPDEST SWAP2 POP POP SWAP3 SWAP2 POP POP JUMP JUMPDEST PUSH0 DUP2 MLOAD SWAP1 POP PUSH2 0x1975 DUP2 PUSH2 0x1912 JUMP JUMPDEST SWAP3 SWAP2 POP POP JUMP JUMPDEST PUSH0 PUSH1 0x20 DUP3 DUP5 SUB SLT ISZERO PUSH2 0x1990 JUMPI PUSH2 0x198F PUSH2 0x17FD JUMP JUMPDEST JUMPDEST PUSH0 PUSH2 0x199D DUP5 DUP3 DUP6 ADD PUSH2 0x1967 JUMP JUMPDEST SWAP2 POP POP SWAP3 SWAP2 POP POP JUMP JUMPDEST PUSH0 DUP3 DUP3 MSTORE PUSH1 0x20 DUP3 ADD SWAP1 POP SWAP3 SWAP2 POP POP JUMP JUMPDEST PUSH32 0x4E6F7420617574686F72697A6564000000000000000000000000000000000000 PUSH0 DUP3 ADD MSTORE POP JUMP JUMPDEST PUSH0 PUSH2 0x19EA PUSH1 0xE DUP4 PUSH2 0x19A6 JUMP JUMPDEST SWAP2 POP PUSH2 0x19F5 DUP3 PUSH2 0x19B6 JUMP JUMPDEST PUSH1 0x20 DUP3 ADD SWAP1 POP SWAP2 SWAP1 POP JUMP JUMPDEST PUSH0 PUSH1 0x20 DUP3 ADD SWAP1 POP DUP2 DUP2 SUB PUSH0 DUP4 ADD MSTORE PUSH2 0x1A17 DUP2 PUSH2 0x19DE JUMP JUMPDEST SWAP1 POP SWAP2 SWAP1 POP JUMP JUMPDEST PUSH0 PUSH1 0x40 DUP3 ADD SWAP1 POP PUSH2 0x1A31 PUSH0 DUP4 ADD DUP6 PUSH2 0x18B7 JUMP JUMPDEST PUSH2 0x1A3E PUSH1 0x20 DUP4 ADD DUP5 PUSH2 0x18B7 JUMP JUMPDEST SWAP4 SWAP3 POP POP POP JUMP JUMPDEST PUSH32 0x496E76616C696420626F6E642072656365697665722061646472657373000000 PUSH0 DUP3 ADD MSTORE POP JUMP JUMPDEST PUSH0 PUSH2 0x1A79 PUSH1 0x1D DUP4 PUSH2 0x19A6 JUMP JUMPDEST SWAP2 POP PUSH2 0x1A84 DUP3 PUSH2 0x1A45 JUMP JUMPDEST PUSH1 0x20 DUP3 ADD SWAP1 POP SWAP2 SWAP1 POP JUMP JUMPDEST PUSH0 PUSH1 0x20 DUP3 ADD SWAP1 POP DUP2 DUP2 SUB PUSH0 DUP4 ADD MSTORE PUSH2 0x1AA6 DUP2 PUSH2 0x1A6D JUMP JUMPDEST SWAP1 POP SWAP2 SWAP1 POP JUMP JUMPDEST PUSH32 0x5061757361626C653A2070617573656400000000000000000000000000000000 PUSH0 DUP3 ADD MSTORE POP JUMP JUMPDEST PUSH0 PUSH2 0x1AE1 PUSH1 0x10 DUP4 PUSH2 0x19A6 JUMP JUMPDEST SWAP2 POP PUSH2 0x1AEC DUP3 PUSH2 0x1AAD JUMP JUMPDEST PUSH1 0x20 DUP3 ADD SWAP1 POP SWAP2 SWAP1 POP JUMP JUMPDEST PUSH0 PUSH1 0x20 DUP3 ADD SWAP1 POP DUP2 DUP2 SUB PUSH0 DUP4 ADD MSTORE PUSH2 0x1B0E DUP2 PUSH2 0x1AD5 JUMP JUMPDEST SWAP1 POP SWAP2 SWAP1 POP JUMP JUMPDEST PUSH32 0x4D757374206465706F73697420746F6B656E416D6F756E74203E203000000000 PUSH0 DUP3 ADD MSTORE POP JUMP JUMPDEST PUSH0 PUSH2 0x1B49 PUSH1 0x1C DUP4 PUSH2 0x19A6 JUMP JUMPDEST SWAP2 POP PUSH2 0x1B54 DUP3 PUSH2 0x1B15 JUMP JUMPDEST PUSH1 0x20 DUP3 ADD SWAP1 POP SWAP2 SWAP1 POP JUMP JUMPDEST PUSH0 PUSH1 0x20 DUP3 ADD SWAP1 POP DUP2 DUP2 SUB PUSH0 DUP4 ADD MSTORE PUSH2 0x1B76 DUP2 PUSH2 0x1B3D JUMP JUMPDEST SWAP1 POP SWAP2 SWAP1 POP JUMP JUMPDEST PUSH32 0x4E487B7100000000000000000000000000000000000000000000000000000000 PUSH0 MSTORE PUSH1 0x11 PUSH1 0x4 MSTORE PUSH1 0x24 PUSH0 REVERT JUMPDEST PUSH0 PUSH2 0x1BB4 DUP3 PUSH2 0x1886 JUMP JUMPDEST SWAP2 POP PUSH2 0x1BBF DUP4 PUSH2 0x1886 JUMP JUMPDEST SWAP3 POP DUP3 DUP3 MUL PUSH2 0x1BCD DUP2 PUSH2 0x1886 JUMP JUMPDEST SWAP2 POP DUP3 DUP3 DIV DUP5 EQ DUP4 ISZERO OR PUSH2 0x1BE4 JUMPI PUSH2 0x1BE3 PUSH2 0x1B7D JUMP JUMPDEST JUMPDEST POP SWAP3 SWAP2 POP POP JUMP JUMPDEST PUSH32 0x4E487B7100000000000000000000000000000000000000000000000000000000 PUSH0 MSTORE PUSH1 0x12 PUSH1 0x4 MSTORE PUSH1 0x24 PUSH0 REVERT JUMPDEST PUSH0 PUSH2 0x1C22 DUP3 PUSH2 0x1886 JUMP JUMPDEST SWAP2 POP PUSH2 0x1C2D DUP4 PUSH2 0x1886 JUMP JUMPDEST SWAP3 POP DUP3 PUSH2 0x1C3D JUMPI PUSH2 0x1C3C PUSH2 0x1BEB JUMP JUMPDEST JUMPDEST DUP3 DUP3 DIV SWAP1 POP SWAP3 SWAP2 POP POP JUMP JUMPDEST PUSH0 PUSH2 0x1C52 DUP3 PUSH2 0x1886 JUMP JUMPDEST SWAP2 POP PUSH2 0x1C5D DUP4 PUSH2 0x1886 JUMP JUMPDEST SWAP3 POP DUP3 DUP3 SUB SWAP1 POP DUP2 DUP2 GT ISZERO PUSH2 0x1C75 JUMPI PUSH2 0x1C74 PUSH2 0x1B7D JUMP JUMPDEST JUMPDEST SWAP3 SWAP2 POP POP JUMP JUMPDEST PUSH32 0x416C6C6F77616E6365206E6F742073756666696369656E740000000000000000 PUSH0 DUP3 ADD MSTORE POP JUMP JUMPDEST PUSH0 PUSH2 0x1CAF PUSH1 0x18 DUP4 PUSH2 0x19A6 JUMP JUMPDEST SWAP2 POP PUSH2 0x1CBA DUP3 PUSH2 0x1C7B JUMP JUMPDEST PUSH1 0x20 DUP3 ADD SWAP1 POP SWAP2 SWAP1 POP JUMP JUMPDEST PUSH0 PUSH1 0x20 DUP3 ADD SWAP1 POP DUP2 DUP2 SUB PUSH0 DUP4 ADD MSTORE PUSH2 0x1CDC DUP2 PUSH2 0x1CA3 JUMP JUMPDEST SWAP1 POP SWAP2 SWAP1 POP JUMP JUMPDEST PUSH0 PUSH1 0x40 DUP3 ADD SWAP1 POP PUSH2 0x1CF6 PUSH0 DUP4 ADD DUP6 PUSH2 0x18B7 JUMP JUMPDEST PUSH2 0x1D03 PUSH1 0x20 DUP4 ADD DUP5 PUSH2 0x188F JUMP JUMPDEST SWAP4 SWAP3 POP POP POP JUMP JUMPDEST PUSH2 0x1D13 DUP2 PUSH2 0x18DF JUMP JUMPDEST DUP2 EQ PUSH2 0x1D1D JUMPI PUSH0 DUP1 REVERT JUMPDEST POP JUMP JUMPDEST PUSH0 DUP2 MLOAD SWAP1 POP PUSH2 0x1D2E DUP2 PUSH2 0x1D0A JUMP JUMPDEST SWAP3 SWAP2 POP POP JUMP JUMPDEST PUSH0 PUSH1 0x20 DUP3 DUP5 SUB SLT ISZERO PUSH2 0x1D49 JUMPI PUSH2 0x1D48 PUSH2 0x17FD JUMP JUMPDEST JUMPDEST PUSH0 PUSH2 0x1D56 DUP5 DUP3 DUP6 ADD PUSH2 0x1D20 JUMP JUMPDEST SWAP2 POP POP SWAP3 SWAP2 POP POP JUMP JUMPDEST PUSH0 PUSH1 0x40 DUP3 ADD SWAP1 POP PUSH2 0x1D72 PUSH0 DUP4 ADD DUP6 PUSH2 0x188F JUMP JUMPDEST PUSH2 0x1D7F PUSH1 0x20 DUP4 ADD DUP5 PUSH2 0x188F JUMP JUMPDEST SWAP4 SWAP3 POP POP POP JUMP JUMPDEST PUSH32 0x54617820746F6F20686967680000000000000000000000000000000000000000 PUSH0 DUP3 ADD MSTORE POP JUMP JUMPDEST PUSH0 PUSH2 0x1DBA PUSH1 0xC DUP4 PUSH2 0x19A6 JUMP JUMPDEST SWAP2 POP PUSH2 0x1DC5 DUP3 PUSH2 0x1D86 JUMP JUMPDEST PUSH1 0x20 DUP3 ADD SWAP1 POP SWAP2 SWAP1 POP JUMP JUMPDEST PUSH0 PUSH1 0x20 DUP3 ADD SWAP1 POP DUP2 DUP2 SUB PUSH0 DUP4 ADD MSTORE PUSH2 0x1DE7 DUP2 PUSH2 0x1DAE JUMP JUMPDEST SWAP1 POP SWAP2 SWAP1 POP JUMP JUMPDEST PUSH32 0x496E76616C696420616464726573730000000000000000000000000000000000 PUSH0 DUP3 ADD MSTORE POP JUMP JUMPDEST PUSH0 PUSH2 0x1E22 PUSH1 0xF DUP4 PUSH2 0x19A6 JUMP JUMPDEST SWAP2 POP PUSH2 0x1E2D DUP3 PUSH2 0x1DEE JUMP JUMPDEST PUSH1 0x20 DUP3 ADD SWAP1 POP SWAP2 SWAP1 POP JUMP JUMPDEST PUSH0 PUSH1 0x20 DUP3 ADD SWAP1 POP DUP2 DUP2 SUB PUSH0 DUP4 ADD MSTORE PUSH2 0x1E4F DUP2 PUSH2 0x1E16 JUMP JUMPDEST SWAP1 POP SWAP2 SWAP1 POP JUMP JUMPDEST PUSH32 0x4E6577206F776E65722063616E6E6F74206265207A65726F2061646472657373 PUSH0 DUP3 ADD MSTORE POP JUMP JUMPDEST PUSH0 PUSH2 0x1E8A PUSH1 0x20 DUP4 PUSH2 0x19A6 JUMP JUMPDEST SWAP2 POP PUSH2 0x1E95 DUP3 PUSH2 0x1E56 JUMP JUMPDEST PUSH1 0x20 DUP3 ADD SWAP1 POP SWAP2 SWAP1 POP JUMP JUMPDEST PUSH0 PUSH1 0x20 DUP3 ADD SWAP1 POP DUP2 DUP2 SUB PUSH0 DUP4 ADD MSTORE PUSH2 0x1EB7 DUP2 PUSH2 0x1E7E JUMP JUMPDEST SWAP1 POP SWAP2 SWAP1 POP JUMP JUMPDEST PUSH32 0x5061757361626C653A206E6F7420706175736564000000000000000000000000 PUSH0 DUP3 ADD MSTORE POP JUMP JUMPDEST PUSH0 PUSH2 0x1EF2 PUSH1 0x14 DUP4 PUSH2 0x19A6 JUMP JUMPDEST SWAP2 POP PUSH2 0x1EFD DUP3 PUSH2 0x1EBE JUMP JUMPDEST PUSH1 0x20 DUP3 ADD SWAP1 POP SWAP2 SWAP1 POP JUMP JUMPDEST PUSH0 PUSH1 0x20 DUP3 ADD SWAP1 POP DUP2 DUP2 SUB PUSH0 DUP4 ADD MSTORE PUSH2 0x1F1F DUP2 PUSH2 0x1EE6 JUMP JUMPDEST SWAP1 POP SWAP2 SWAP1 POP JUMP JUMPDEST PUSH32 0x5265656E7472616E637947756172643A207265656E7472616E742063616C6C00 PUSH0 DUP3 ADD MSTORE POP JUMP JUMPDEST PUSH0 PUSH2 0x1F5A PUSH1 0x1F DUP4 PUSH2 0x19A6 JUMP JUMPDEST SWAP2 POP PUSH2 0x1F65 DUP3 PUSH2 0x1F26 JUMP JUMPDEST PUSH1 0x20 DUP3 ADD SWAP1 POP SWAP2 SWAP1 POP JUMP JUMPDEST PUSH0 PUSH1 0x20 DUP3 ADD SWAP1 POP DUP2 DUP2 SUB PUSH0 DUP4 ADD MSTORE PUSH2 0x1F87 DUP2 PUSH2 0x1F4E JUMP JUMPDEST SWAP1 POP SWAP2 SWAP1 POP JUMP JUMPDEST PUSH0 PUSH1 0x60 DUP3 ADD SWAP1 POP PUSH2 0x1FA1 PUSH0 DUP4 ADD DUP7 PUSH2 0x18B7 JUMP JUMPDEST PUSH2 0x1FAE PUSH1 0x20 DUP4 ADD DUP6 PUSH2 0x18B7 JUMP JUMPDEST PUSH2 0x1FBB PUSH1 0x40 DUP4 ADD DUP5 PUSH2 0x188F JUMP JUMPDEST SWAP5 SWAP4 POP POP POP POP JUMP INVALID LOG2 PUSH5 0x6970667358 0x22 SLT KECCAK256 0xCA PUSH10 0xC730EFA3F6F49A286D82 0xD0 LOG3 0xB1 PUSH31 0x7AE3462E63FF71DCA463704244EF566B64736F6C634300081A003300000000 "
				},
				"gasEstimates": {
					"creation": {
						"codeDepositCost": "1637000",
						"executionCost": "infinite",
						"totalCost": "infinite"
					},
					"external": {
						"bond(uint256)": "infinite",
						"bondReceiver()": "2597",
						"checkContractRoboMoneyBalance()": "infinite",
						"checkRoboMoneyBalance(address)": "infinite",
						"checkTokenAllowance(address)": "infinite",
						"checkTokenBalance(address)": "infinite",
						"discountRate()": "2513",
						"gasReserve()": "2618",
						"owner()": "2619",
						"pause()": "30093",
						"paused()": "2563",
						"paymentToken()": "2554",
						"roboMoney()": "2553",
						"setBondReceiver(address)": "30621",
						"setGasReserve(address)": "30642",
						"setTargetPrice(uint256)": "24796",
						"setTaxRate(uint256)": "infinite",
						"targetPrice()": "2491",
						"taxRate()": "2448",
						"transferOwnership(address)": "30730",
						"unpause()": "30090"
					}
				},
				"methodIdentifiers": {
					"bond(uint256)": "9940686e",
					"bondReceiver()": "c404836b",
					"checkContractRoboMoneyBalance()": "a933ac74",
					"checkRoboMoneyBalance(address)": "cc7fffbe",
					"checkTokenAllowance(address)": "89f1aa22",
					"checkTokenBalance(address)": "126cbe60",
					"discountRate()": "e6c0e6d5",
					"gasReserve()": "eea7570e",
					"owner()": "8da5cb5b",
					"pause()": "8456cb59",
					"paused()": "5c975abb",
					"paymentToken()": "3013ce29",
					"roboMoney()": "7ef7ba20",
					"setBondReceiver(address)": "9170b135",
					"setGasReserve(address)": "d4a49c17",
					"setTargetPrice(uint256)": "6a64eff8",
					"setTaxRate(uint256)": "c6d69a30",
					"targetPrice()": "dc38679c",
					"taxRate()": "771a3a1d",
					"transferOwnership(address)": "f2fde38b",
					"unpause()": "3f4ba83a"
				}
			},
			"storageLayout": {
				"storage": [
					{
						"astId": 666,
						"contract": "contracts/bonding_contract.sol:Bonding",
						"label": "_paused",
						"offset": 0,
						"slot": "0",
						"type": "t_bool"
					},
					{
						"astId": 100,
						"contract": "contracts/bonding_contract.sol:Bonding",
						"label": "_status",
						"offset": 0,
						"slot": "1",
						"type": "t_uint256"
					},
					{
						"astId": 784,
						"contract": "contracts/bonding_contract.sol:Bonding",
						"label": "owner",
						"offset": 0,
						"slot": "2",
						"type": "t_address"
					},
					{
						"astId": 786,
						"contract": "contracts/bonding_contract.sol:Bonding",
						"label": "paymentToken",
						"offset": 0,
						"slot": "3",
						"type": "t_address"
					},
					{
						"astId": 788,
						"contract": "contracts/bonding_contract.sol:Bonding",
						"label": "roboMoney",
						"offset": 0,
						"slot": "4",
						"type": "t_address"
					},
					{
						"astId": 790,
						"contract": "contracts/bonding_contract.sol:Bonding",
						"label": "bondReceiver",
						"offset": 0,
						"slot": "5",
						"type": "t_address"
					},
					{
						"astId": 792,
						"contract": "contracts/bonding_contract.sol:Bonding",
						"label": "gasReserve",
						"offset": 0,
						"slot": "6",
						"type": "t_address"
					},
					{
						"astId": 794,
						"contract": "contracts/bonding_contract.sol:Bonding",
						"label": "discountRate",
						"offset": 0,
						"slot": "7",
						"type": "t_uint256"
					},
					{
						"astId": 796,
						"contract": "contracts/bonding_contract.sol:Bonding",
						"label": "targetPrice",
						"offset": 0,
						"slot": "8",
						"type": "t_uint256"
					},
					{
						"astId": 798,
						"contract": "contracts/bonding_contract.sol:Bonding",
						"label": "taxRate",
						"offset": 0,
						"slot": "9",
						"type": "t_uint256"
					}
				],
				"types": {
					"t_address": {
						"encoding": "inplace",
						"label": "address",
						"numberOfBytes": "20"
					},
					"t_bool": {
						"encoding": "inplace",
						"label": "bool",
						"numberOfBytes": "1"
					},
					"t_uint256": {
						"encoding": "inplace",
						"label": "uint256",
						"numberOfBytes": "32"
					}
				}
			},
			"userdoc": {
				"kind": "user",
				"methods": {
					"bond(uint256)": {
						"notice": "The main bonding function: user deposits paymentToken to receive RoboMoney at a discount."
					}
				},
				"version": 1
			}
		}
	}
}