{
	"contracts/bonding_contract.sol": {
		"Bonding": {
			"abi": [
				{
					"inputs": [
						{
							"internalType": "address",
							"name": "_paymentToken",
							"type": "address"
						},
						{
							"internalType": "address",
							"name": "_roboMoney",
							"type": "address"
						},
						{
							"internalType": "uint256",
							"name": "_discountRate",
							"type": "uint256"
						},
						{
							"internalType": "uint256",
							"name": "_targetPrice",
							"type": "uint256"
						}
					],
					"stateMutability": "nonpayable",
					"type": "constructor"
				},
				{
					"anonymous": false,
					"inputs": [
						{
							"indexed": true,
							"internalType": "address",
							"name": "user",
							"type": "address"
						},
						{
							"indexed": false,
							"internalType": "uint256",
							"name": "tokenAmount",
							"type": "uint256"
						},
						{
							"indexed": false,
							"internalType": "uint256",
							"name": "roboMoneyAmount",
							"type": "uint256"
						}
					],
					"name": "BondPurchased",
					"type": "event"
				},
				{
					"anonymous": false,
					"inputs": [
						{
							"indexed": false,
							"internalType": "string",
							"name": "message",
							"type": "string"
						},
						{
							"indexed": false,
							"internalType": "uint256",
							"name": "value",
							"type": "uint256"
						}
					],
					"name": "Debug",
					"type": "event"
				},
				{
					"anonymous": false,
					"inputs": [
						{
							"indexed": true,
							"internalType": "address",
							"name": "oldOwner",
							"type": "address"
						},
						{
							"indexed": true,
							"internalType": "address",
							"name": "newOwner",
							"type": "address"
						}
					],
					"name": "OwnershipTransferred",
					"type": "event"
				},
				{
					"anonymous": false,
					"inputs": [
						{
							"indexed": false,
							"internalType": "address",
							"name": "account",
							"type": "address"
						}
					],
					"name": "Paused",
					"type": "event"
				},
				{
					"anonymous": false,
					"inputs": [
						{
							"indexed": false,
							"internalType": "address",
							"name": "account",
							"type": "address"
						}
					],
					"name": "Unpaused",
					"type": "event"
				},
				{
					"anonymous": false,
					"inputs": [
						{
							"indexed": true,
							"internalType": "address",
							"name": "token",
							"type": "address"
						},
						{
							"indexed": true,
							"internalType": "address",
							"name": "recipient",
							"type": "address"
						},
						{
							"indexed": false,
							"internalType": "uint256",
							"name": "amount",
							"type": "uint256"
						}
					],
					"name": "Withdrawn",
					"type": "event"
				},
				{
					"inputs": [
						{
							"internalType": "uint256",
							"name": "tokenAmount",
							"type": "uint256"
						}
					],
					"name": "bond",
					"outputs": [],
					"stateMutability": "nonpayable",
					"type": "function"
				},
				{
					"inputs": [],
					"name": "checkContractRoboMoneyBalance",
					"outputs": [
						{
							"internalType": "uint256",
							"name": "",
							"type": "uint256"
						}
					],
					"stateMutability": "view",
					"type": "function"
				},
				{
					"inputs": [
						{
							"internalType": "address",
							"name": "user",
							"type": "address"
						}
					],
					"name": "checkRoboMoneyBalance",
					"outputs": [
						{
							"internalType": "uint256",
							"name": "",
							"type": "uint256"
						}
					],
					"stateMutability": "view",
					"type": "function"
				},
				{
					"inputs": [
						{
							"internalType": "address",
							"name": "user",
							"type": "address"
						}
					],
					"name": "checkTokenAllowance",
					"outputs": [
						{
							"internalType": "uint256",
							"name": "",
							"type": "uint256"
						}
					],
					"stateMutability": "view",
					"type": "function"
				},
				{
					"inputs": [
						{
							"internalType": "address",
							"name": "user",
							"type": "address"
						}
					],
					"name": "checkTokenBalance",
					"outputs": [
						{
							"internalType": "uint256",
							"name": "",
							"type": "uint256"
						}
					],
					"stateMutability": "view",
					"type": "function"
				},
				{
					"inputs": [],
					"name": "discountRate",
					"outputs": [
						{
							"internalType": "uint256",
							"name": "",
							"type": "uint256"
						}
					],
					"stateMutability": "view",
					"type": "function"
				},
				{
					"inputs": [],
					"name": "owner",
					"outputs": [
						{
							"internalType": "address",
							"name": "",
							"type": "address"
						}
					],
					"stateMutability": "view",
					"type": "function"
				},
				{
					"inputs": [],
					"name": "pause",
					"outputs": [],
					"stateMutability": "nonpayable",
					"type": "function"
				},
				{
					"inputs": [],
					"name": "paused",
					"outputs": [
						{
							"internalType": "bool",
							"name": "",
							"type": "bool"
						}
					],
					"stateMutability": "view",
					"type": "function"
				},
				{
					"inputs": [],
					"name": "paymentToken",
					"outputs": [
						{
							"internalType": "address",
							"name": "",
							"type": "address"
						}
					],
					"stateMutability": "view",
					"type": "function"
				},
				{
					"inputs": [],
					"name": "roboMoney",
					"outputs": [
						{
							"internalType": "address",
							"name": "",
							"type": "address"
						}
					],
					"stateMutability": "view",
					"type": "function"
				},
				{
					"inputs": [],
					"name": "targetPrice",
					"outputs": [
						{
							"internalType": "uint256",
							"name": "",
							"type": "uint256"
						}
					],
					"stateMutability": "view",
					"type": "function"
				},
				{
					"inputs": [
						{
							"internalType": "address",
							"name": "newOwner",
							"type": "address"
						}
					],
					"name": "transferOwnership",
					"outputs": [],
					"stateMutability": "nonpayable",
					"type": "function"
				},
				{
					"inputs": [],
					"name": "unpause",
					"outputs": [],
					"stateMutability": "nonpayable",
					"type": "function"
				},
				{
					"inputs": [
						{
							"internalType": "address",
							"name": "token",
							"type": "address"
						},
						{
							"internalType": "uint256",
							"name": "amount",
							"type": "uint256"
						},
						{
							"internalType": "address",
							"name": "recipient",
							"type": "address"
						}
					],
					"name": "withdraw",
					"outputs": [],
					"stateMutability": "nonpayable",
					"type": "function"
				}
			],
			"devdoc": {
				"details": "Demonstrates how to add pausing to the Bonding contract.",
				"kind": "dev",
				"methods": {
					"bond(uint256)": {
						"details": "Marked `whenNotPaused`. If the contract is paused, this function      will revert. The owner can call `pause()`/`unpause()` as needed.",
						"params": {
							"tokenAmount": "The amount of `paymentToken` the user is depositing."
						}
					},
					"constructor": {
						"params": {
							"_discountRate": "Discount in percent (0–100).",
							"_paymentToken": "Address of the ERC20 token used for bonding (DAI, USDC, etc.).",
							"_roboMoney": "Address of the RoboMoney token (replaces mlAMPL).",
							"_targetPrice": "Base price ratio for RoboMoney vs. payment token."
						}
					},
					"pause()": {
						"details": "Owner can pause contract functions protected by `whenNotPaused`."
					},
					"unpause()": {
						"details": "Owner can unpause contract functions."
					},
					"withdraw(address,uint256,address)": {
						"details": "Owner can withdraw any ERC20 tokens (e.g. leftover paymentToken or minted RoboMoney).Not protected by `whenNotPaused`, since an owner might need       to withdraw tokens even if contract is paused for bonding.",
						"params": {
							"amount": "Amount to withdraw.",
							"recipient": "Recipient address to receive the tokens.",
							"token": "Address of the ERC20 token to withdraw."
						}
					}
				},
				"title": "Bonding",
				"version": 1
			},
			"evm": {
				"assembly": "    /* \"contracts/bonding_contract.sol\":2486:9188  contract Bonding is Pausable {... */\n  mstore(0x40, 0x80)\n    /* \"contracts/bonding_contract.sol\":3494:3822  constructor(... */\n  callvalue\n  dup1\n  iszero\n  tag_1\n  jumpi\n  revert(0x00, 0x00)\ntag_1:\n  pop\n  mload(0x40)\n  sub(codesize, bytecodeSize)\n  dup1\n  bytecodeSize\n  dup4\n  codecopy\n  dup2\n  add\n  0x40\n  dup2\n  swap1\n  mstore\n  tag_2\n  swap2\n  tag_3\n  jump\t// in\ntag_2:\n    /* \"contracts/bonding_contract.sol\":649:654  false */\n  0x00\n    /* \"contracts/bonding_contract.sol\":639:654  _paused = false */\n  dup1\n  sload\n  not(sub(shl(0xa8, 0x01), 0x01))\n    /* \"contracts/bonding_contract.sol\":3648:3666  owner = msg.sender */\n  and\n    /* \"contracts/bonding_contract.sol\":639:654  _paused = false */\n  0x0100\n    /* \"contracts/bonding_contract.sol\":3656:3666  msg.sender */\n  caller\n    /* \"contracts/bonding_contract.sol\":3648:3666  owner = msg.sender */\n  mul\n  or\n  swap1\n  sstore\n  0x01\n    /* \"contracts/bonding_contract.sol\":3677:3705  paymentToken = _paymentToken */\n  dup1\n  sload\n  not(sub(shl(0xa0, 0x01), 0x01))\n  swap1\n  dup2\n  and\n  sub(shl(0xa0, 0x01), 0x01)\n  swap7\n  dup8\n  and\n  or\n  swap1\n  swap2\n  sstore\n    /* \"contracts/bonding_contract.sol\":3716:3725  roboMoney */\n  0x02\n    /* \"contracts/bonding_contract.sol\":3716:3738  roboMoney = _roboMoney */\n  dup1\n  sload\n  swap1\n  swap2\n  and\n  swap4\n  swap1\n  swap5\n  and\n  swap3\n  swap1\n  swap3\n  or\n  swap1\n  swap3\n  sstore\n    /* \"contracts/bonding_contract.sol\":3749:3761  discountRate */\n  0x03\n    /* \"contracts/bonding_contract.sol\":3749:3777  discountRate = _discountRate */\n  swap2\n  swap1\n  swap2\n  sstore\n    /* \"contracts/bonding_contract.sol\":3788:3799  targetPrice */\n  0x04\n    /* \"contracts/bonding_contract.sol\":3788:3814  targetPrice = _targetPrice */\n  sstore\n    /* \"contracts/bonding_contract.sol\":2486:9188  contract Bonding is Pausable {... */\n  jump(tag_10)\n    /* \"#utility.yul\":14:191   */\ntag_9:\n    /* \"#utility.yul\":93:106   */\n  dup1\n  mload\n  sub(shl(0xa0, 0x01), 0x01)\n    /* \"#utility.yul\":135:166   */\n  dup2\n  and\n    /* \"#utility.yul\":125:167   */\n  dup2\n  eq\n    /* \"#utility.yul\":115:185   */\n  tag_12\n  jumpi\n    /* \"#utility.yul\":181:182   */\n  0x00\n    /* \"#utility.yul\":178:179   */\n  0x00\n    /* \"#utility.yul\":171:183   */\n  revert\n    /* \"#utility.yul\":115:185   */\ntag_12:\n    /* \"#utility.yul\":14:191   */\n  swap2\n  swap1\n  pop\n  jump\t// out\n    /* \"#utility.yul\":196:710   */\ntag_3:\n    /* \"#utility.yul\":293:299   */\n  0x00\n    /* \"#utility.yul\":301:307   */\n  0x00\n    /* \"#utility.yul\":309:315   */\n  0x00\n    /* \"#utility.yul\":317:323   */\n  0x00\n    /* \"#utility.yul\":370:373   */\n  0x80\n    /* \"#utility.yul\":358:367   */\n  dup6\n    /* \"#utility.yul\":349:356   */\n  dup8\n    /* \"#utility.yul\":345:368   */\n  sub\n    /* \"#utility.yul\":341:374   */\n  slt\n    /* \"#utility.yul\":338:391   */\n  iszero\n  tag_14\n  jumpi\n    /* \"#utility.yul\":387:388   */\n  0x00\n    /* \"#utility.yul\":384:385   */\n  0x00\n    /* \"#utility.yul\":377:389   */\n  revert\n    /* \"#utility.yul\":338:391   */\ntag_14:\n    /* \"#utility.yul\":410:450   */\n  tag_15\n    /* \"#utility.yul\":440:449   */\n  dup6\n    /* \"#utility.yul\":410:450   */\n  tag_9\n  jump\t// in\ntag_15:\n    /* \"#utility.yul\":400:450   */\n  swap4\n  pop\n    /* \"#utility.yul\":469:518   */\n  tag_16\n    /* \"#utility.yul\":514:516   */\n  0x20\n    /* \"#utility.yul\":503:512   */\n  dup7\n    /* \"#utility.yul\":499:517   */\n  add\n    /* \"#utility.yul\":469:518   */\n  tag_9\n  jump\t// in\ntag_16:\n    /* \"#utility.yul\":580:582   */\n  0x40\n    /* \"#utility.yul\":565:583   */\n  dup7\n  add\n    /* \"#utility.yul\":559:584   */\n  mload\n    /* \"#utility.yul\":674:676   */\n  0x60\n    /* \"#utility.yul\":659:677   */\n  swap1\n  swap7\n  add\n    /* \"#utility.yul\":653:678   */\n  mload\n    /* \"#utility.yul\":196:710   */\n  swap5\n  swap8\n    /* \"#utility.yul\":459:518   */\n  swap1\n  swap7\n  pop\n    /* \"#utility.yul\":196:710   */\n  swap3\n  pop\n  pop\n  pop\n  jump\t// out\ntag_10:\n    /* \"contracts/bonding_contract.sol\":2486:9188  contract Bonding is Pausable {... */\n  dataSize(sub_0)\n  dup1\n  dataOffset(sub_0)\n  0x00\n  codecopy\n  0x00\n  return\nstop\n\nsub_0: assembly {\n        /* \"contracts/bonding_contract.sol\":2486:9188  contract Bonding is Pausable {... */\n      mstore(0x40, 0x80)\n      callvalue\n      dup1\n      iszero\n      tag_1\n      jumpi\n      revert(0x00, 0x00)\n    tag_1:\n      pop\n      jumpi(tag_2, lt(calldatasize, 0x04))\n      shr(0xe0, calldataload(0x00))\n      dup1\n      0x89f1aa22\n      gt\n      tag_18\n      jumpi\n      dup1\n      0xcc7fffbe\n      gt\n      tag_19\n      jumpi\n      dup1\n      0xcc7fffbe\n      eq\n      tag_14\n      jumpi\n      dup1\n      0xdc38679c\n      eq\n      tag_15\n      jumpi\n      dup1\n      0xe6c0e6d5\n      eq\n      tag_16\n      jumpi\n      dup1\n      0xf2fde38b\n      eq\n      tag_17\n      jumpi\n      revert(0x00, 0x00)\n    tag_19:\n      dup1\n      0x89f1aa22\n      eq\n      tag_10\n      jumpi\n      dup1\n      0x8da5cb5b\n      eq\n      tag_11\n      jumpi\n      dup1\n      0x9940686e\n      eq\n      tag_12\n      jumpi\n      dup1\n      0xa933ac74\n      eq\n      tag_13\n      jumpi\n      revert(0x00, 0x00)\n    tag_18:\n      dup1\n      0x5c975abb\n      gt\n      tag_20\n      jumpi\n      dup1\n      0x5c975abb\n      eq\n      tag_6\n      jumpi\n      dup1\n      0x69328dec\n      eq\n      tag_7\n      jumpi\n      dup1\n      0x7ef7ba20\n      eq\n      tag_8\n      jumpi\n      dup1\n      0x8456cb59\n      eq\n      tag_9\n      jumpi\n      revert(0x00, 0x00)\n    tag_20:\n      dup1\n      0x126cbe60\n      eq\n      tag_3\n      jumpi\n      dup1\n      0x3013ce29\n      eq\n      tag_4\n      jumpi\n      dup1\n      0x3f4ba83a\n      eq\n      tag_5\n      jumpi\n    tag_2:\n      revert(0x00, 0x00)\n        /* \"contracts/bonding_contract.sol\":8749:8884  function checkTokenBalance(address user) external view returns (uint256) {... */\n    tag_3:\n      tag_21\n      tag_22\n      calldatasize\n      0x04\n      tag_23\n      jump\t// in\n    tag_22:\n      tag_24\n      jump\t// in\n    tag_21:\n      mload(0x40)\n        /* \"#utility.yul\":529:554   */\n      swap1\n      dup2\n      mstore\n        /* \"#utility.yul\":517:519   */\n      0x20\n        /* \"#utility.yul\":502:520   */\n      add\n        /* \"contracts/bonding_contract.sol\":8749:8884  function checkTokenBalance(address user) external view returns (uint256) {... */\n    tag_25:\n      mload(0x40)\n      dup1\n      swap2\n      sub\n      swap1\n      return\n        /* \"contracts/bonding_contract.sol\":2549:2576  address public paymentToken */\n    tag_4:\n      sload(0x01)\n      tag_27\n      swap1\n      sub(shl(0xa0, 0x01), 0x01)\n      and\n      dup2\n      jump\n    tag_27:\n      mload(0x40)\n      sub(shl(0xa0, 0x01), 0x01)\n        /* \"#utility.yul\":729:761   */\n      swap1\n      swap2\n      and\n        /* \"#utility.yul\":711:762   */\n      dup2\n      mstore\n        /* \"#utility.yul\":699:701   */\n      0x20\n        /* \"#utility.yul\":684:702   */\n      add\n        /* \"contracts/bonding_contract.sol\":2549:2576  address public paymentToken */\n      tag_25\n        /* \"#utility.yul\":565:768   */\n      jump\n        /* \"contracts/bonding_contract.sol\":4377:4444  function unpause() external onlyOwner {... */\n    tag_5:\n      tag_31\n      tag_32\n      jump\t// in\n    tag_31:\n      stop\n        /* \"contracts/bonding_contract.sol\":874:960  function paused() public view virtual returns (bool) {... */\n    tag_6:\n        /* \"contracts/bonding_contract.sol\":921:925  bool */\n      0x00\n        /* \"contracts/bonding_contract.sol\":945:952  _paused */\n      sload\n      0xff\n      and\n        /* \"contracts/bonding_contract.sol\":874:960  function paused() public view virtual returns (bool) {... */\n      mload(0x40)\n        /* \"#utility.yul\":938:952   */\n      swap1\n      iszero\n        /* \"#utility.yul\":931:953   */\n      iszero\n        /* \"#utility.yul\":913:954   */\n      dup2\n      mstore\n        /* \"#utility.yul\":901:903   */\n      0x20\n        /* \"#utility.yul\":886:904   */\n      add\n        /* \"contracts/bonding_contract.sol\":874:960  function paused() public view virtual returns (bool) {... */\n      tag_25\n        /* \"#utility.yul\":773:960   */\n      jump\n        /* \"contracts/bonding_contract.sol\":7496:7964  function withdraw(address token, uint256 amount, address recipient) external onlyOwner {... */\n    tag_7:\n      tag_31\n      tag_38\n      calldatasize\n      0x04\n      tag_39\n      jump\t// in\n    tag_38:\n      tag_40\n      jump\t// in\n        /* \"contracts/bonding_contract.sol\":2626:2650  address public roboMoney */\n    tag_8:\n      sload(0x02)\n      tag_27\n      swap1\n      sub(shl(0xa0, 0x01), 0x01)\n      and\n      dup2\n      jump\n        /* \"contracts/bonding_contract.sol\":4237:4300  function pause() external onlyOwner {... */\n    tag_9:\n      tag_31\n      tag_45\n      jump\t// in\n        /* \"contracts/bonding_contract.sol\":8589:8741  function checkTokenAllowance(address user) external view returns (uint256) {... */\n    tag_10:\n      tag_21\n      tag_47\n      calldatasize\n      0x04\n      tag_23\n      jump\t// in\n    tag_47:\n      tag_48\n      jump\t// in\n        /* \"contracts/bonding_contract.sol\":2522:2542  address public owner */\n    tag_11:\n      sload(0x00)\n      tag_27\n      swap1\n      0x0100\n      swap1\n      div\n      sub(shl(0xa0, 0x01), 0x01)\n      and\n      dup2\n      jump\n        /* \"contracts/bonding_contract.sol\":5023:6850  function bond(uint256 tokenAmount) external whenNotPaused {... */\n    tag_12:\n      tag_31\n      tag_54\n      calldatasize\n      0x04\n      tag_55\n      jump\t// in\n    tag_54:\n      tag_56\n      jump\t// in\n        /* \"contracts/bonding_contract.sol\":9040:9185  function checkContractRoboMoneyBalance() external view returns (uint256) {... */\n    tag_13:\n      tag_21\n      tag_58\n      jump\t// in\n        /* \"contracts/bonding_contract.sol\":8892:9032  function checkRoboMoneyBalance(address user) external view returns (uint256) {... */\n    tag_14:\n      tag_21\n      tag_61\n      calldatasize\n      0x04\n      tag_23\n      jump\t// in\n    tag_61:\n      tag_62\n      jump\t// in\n        /* \"contracts/bonding_contract.sol\":2751:2777  uint256 public targetPrice */\n    tag_15:\n      tag_21\n      sload(0x04)\n      dup2\n      jump\n        /* \"contracts/bonding_contract.sol\":2690:2717  uint256 public discountRate */\n    tag_16:\n      tag_21\n      sload(0x03)\n      dup2\n      jump\n        /* \"contracts/bonding_contract.sol\":8156:8386  function transferOwnership(address newOwner) external onlyOwner {... */\n    tag_17:\n      tag_31\n      tag_71\n      calldatasize\n      0x04\n      tag_23\n      jump\t// in\n    tag_71:\n      tag_72\n      jump\t// in\n        /* \"contracts/bonding_contract.sol\":8749:8884  function checkTokenBalance(address user) external view returns (uint256) {... */\n    tag_24:\n        /* \"contracts/bonding_contract.sol\":8847:8859  paymentToken */\n      sload(0x01)\n        /* \"contracts/bonding_contract.sol\":8840:8876  IERC20(paymentToken).balanceOf(user) */\n      mload(0x40)\n      shl(0xe0, 0x70a08231)\n      dup2\n      mstore\n      sub(shl(0xa0, 0x01), 0x01)\n        /* \"#utility.yul\":729:761   */\n      dup4\n      dup2\n      and\n        /* \"contracts/bonding_contract.sol\":8840:8876  IERC20(paymentToken).balanceOf(user) */\n      0x04\n      dup4\n      add\n        /* \"#utility.yul\":711:762   */\n      mstore\n        /* \"contracts/bonding_contract.sol\":8813:8820  uint256 */\n      0x00\n      swap3\n        /* \"contracts/bonding_contract.sol\":8847:8859  paymentToken */\n      and\n      swap1\n        /* \"contracts/bonding_contract.sol\":8840:8870  IERC20(paymentToken).balanceOf */\n      0x70a08231\n      swap1\n        /* \"#utility.yul\":684:702   */\n      0x24\n      add\n        /* \"contracts/bonding_contract.sol\":8840:8876  IERC20(paymentToken).balanceOf(user) */\n    tag_74:\n      0x20\n      mload(0x40)\n      dup1\n      dup4\n      sub\n      dup2\n      dup7\n      gas\n      staticcall\n      iszero\n      dup1\n      iszero\n      tag_76\n      jumpi\n      returndatacopy(0x00, 0x00, returndatasize)\n      revert(0x00, returndatasize)\n    tag_76:\n      pop\n      pop\n      pop\n      pop\n      mload(0x40)\n      returndatasize\n      not(0x1f)\n      0x1f\n      dup3\n      add\n      and\n      dup3\n      add\n      dup1\n      0x40\n      mstore\n      pop\n      dup2\n      add\n      swap1\n      tag_77\n      swap2\n      swap1\n      tag_78\n      jump\t// in\n    tag_77:\n        /* \"contracts/bonding_contract.sol\":8833:8876  return IERC20(paymentToken).balanceOf(user) */\n      swap3\n        /* \"contracts/bonding_contract.sol\":8749:8884  function checkTokenBalance(address user) external view returns (uint256) {... */\n      swap2\n      pop\n      pop\n      jump\t// out\n        /* \"contracts/bonding_contract.sol\":4377:4444  function unpause() external onlyOwner {... */\n    tag_32:\n        /* \"contracts/bonding_contract.sol\":3884:3889  owner */\n      sload(0x00)\n      0x0100\n      swap1\n      div\n      sub(shl(0xa0, 0x01), 0x01)\n      and\n        /* \"contracts/bonding_contract.sol\":3870:3880  msg.sender */\n      caller\n        /* \"contracts/bonding_contract.sol\":3870:3889  msg.sender == owner */\n      eq\n        /* \"contracts/bonding_contract.sol\":3862:3908  require(msg.sender == owner, \"Not authorized\") */\n      tag_80\n      jumpi\n      mload(0x40)\n      shl(0xe5, 0x461bcd)\n      dup2\n      mstore\n      0x04\n      add\n      tag_81\n      swap1\n      tag_82\n      jump\t// in\n    tag_81:\n      mload(0x40)\n      dup1\n      swap2\n      sub\n      swap1\n      revert\n    tag_80:\n        /* \"contracts/bonding_contract.sol\":4426:4436  _unpause() */\n      tag_84\n        /* \"contracts/bonding_contract.sol\":4426:4434  _unpause */\n      tag_85\n        /* \"contracts/bonding_contract.sol\":4426:4436  _unpause() */\n      jump\t// in\n    tag_84:\n        /* \"contracts/bonding_contract.sol\":4377:4444  function unpause() external onlyOwner {... */\n      jump\t// out\n        /* \"contracts/bonding_contract.sol\":7496:7964  function withdraw(address token, uint256 amount, address recipient) external onlyOwner {... */\n    tag_40:\n        /* \"contracts/bonding_contract.sol\":3884:3889  owner */\n      sload(0x00)\n      0x0100\n      swap1\n      div\n      sub(shl(0xa0, 0x01), 0x01)\n      and\n        /* \"contracts/bonding_contract.sol\":3870:3880  msg.sender */\n      caller\n        /* \"contracts/bonding_contract.sol\":3870:3889  msg.sender == owner */\n      eq\n        /* \"contracts/bonding_contract.sol\":3862:3908  require(msg.sender == owner, \"Not authorized\") */\n      tag_88\n      jumpi\n      mload(0x40)\n      shl(0xe5, 0x461bcd)\n      dup2\n      mstore\n      0x04\n      add\n      tag_81\n      swap1\n      tag_82\n      jump\t// in\n    tag_88:\n      sub(shl(0xa0, 0x01), 0x01)\n        /* \"contracts/bonding_contract.sol\":7602:7625  recipient != address(0) */\n      dup2\n      and\n        /* \"contracts/bonding_contract.sol\":7594:7655  require(recipient != address(0), \"Invalid recipient address\") */\n      tag_91\n      jumpi\n      mload(0x40)\n      shl(0xe5, 0x461bcd)\n      dup2\n      mstore\n        /* \"#utility.yul\":2309:2311   */\n      0x20\n        /* \"contracts/bonding_contract.sol\":7594:7655  require(recipient != address(0), \"Invalid recipient address\") */\n      0x04\n      dup3\n      add\n        /* \"#utility.yul\":2291:2312   */\n      mstore\n        /* \"#utility.yul\":2348:2350   */\n      0x19\n        /* \"#utility.yul\":2328:2346   */\n      0x24\n      dup3\n      add\n        /* \"#utility.yul\":2321:2351   */\n      mstore\n        /* \"#utility.yul\":2387:2414   */\n      0x496e76616c696420726563697069656e74206164647265737300000000000000\n        /* \"#utility.yul\":2367:2385   */\n      0x44\n      dup3\n      add\n        /* \"#utility.yul\":2360:2415   */\n      mstore\n        /* \"#utility.yul\":2432:2450   */\n      0x64\n      add\n        /* \"contracts/bonding_contract.sol\":7594:7655  require(recipient != address(0), \"Invalid recipient address\") */\n      tag_81\n        /* \"#utility.yul\":2107:2456   */\n      jump\n        /* \"contracts/bonding_contract.sol\":7594:7655  require(recipient != address(0), \"Invalid recipient address\") */\n    tag_91:\n        /* \"contracts/bonding_contract.sol\":7683:7684  0 */\n      0x00\n        /* \"contracts/bonding_contract.sol\":7674:7680  amount */\n      dup3\n        /* \"contracts/bonding_contract.sol\":7674:7684  amount > 0 */\n      gt\n        /* \"contracts/bonding_contract.sol\":7666:7721  require(amount > 0, \"Amount must be greater than zero\") */\n      tag_94\n      jumpi\n      mload(0x40)\n      shl(0xe5, 0x461bcd)\n      dup2\n      mstore\n        /* \"#utility.yul\":2663:2665   */\n      0x20\n        /* \"contracts/bonding_contract.sol\":7666:7721  require(amount > 0, \"Amount must be greater than zero\") */\n      0x04\n      dup3\n      add\n        /* \"#utility.yul\":2645:2666   */\n      dup2\n      swap1\n      mstore\n        /* \"#utility.yul\":2682:2700   */\n      0x24\n      dup3\n      add\n        /* \"#utility.yul\":2675:2705   */\n      mstore\n        /* \"#utility.yul\":2741:2775   */\n      0x416d6f756e74206d7573742062652067726561746572207468616e207a65726f\n        /* \"#utility.yul\":2721:2739   */\n      0x44\n      dup3\n      add\n        /* \"#utility.yul\":2714:2776   */\n      mstore\n        /* \"#utility.yul\":2793:2811   */\n      0x64\n      add\n        /* \"contracts/bonding_contract.sol\":7666:7721  require(amount > 0, \"Amount must be greater than zero\") */\n      tag_81\n        /* \"#utility.yul\":2461:2817   */\n      jump\n        /* \"contracts/bonding_contract.sol\":7666:7721  require(amount > 0, \"Amount must be greater than zero\") */\n    tag_94:\n        /* \"contracts/bonding_contract.sol\":7752:7790  IERC20(token).balanceOf(address(this)) */\n      mload(0x40)\n      shl(0xe0, 0x70a08231)\n      dup2\n      mstore\n        /* \"contracts/bonding_contract.sol\":7784:7788  this */\n      address\n        /* \"contracts/bonding_contract.sol\":7752:7790  IERC20(token).balanceOf(address(this)) */\n      0x04\n      dup3\n      add\n        /* \"#utility.yul\":711:762   */\n      mstore\n        /* \"contracts/bonding_contract.sol\":7734:7749  uint256 balance */\n      0x00\n      swap1\n      sub(shl(0xa0, 0x01), 0x01)\n        /* \"contracts/bonding_contract.sol\":7752:7775  IERC20(token).balanceOf */\n      dup6\n      and\n      swap1\n      0x70a08231\n      swap1\n        /* \"#utility.yul\":684:702   */\n      0x24\n      add\n        /* \"contracts/bonding_contract.sol\":7752:7790  IERC20(token).balanceOf(address(this)) */\n      0x20\n      mload(0x40)\n      dup1\n      dup4\n      sub\n      dup2\n      dup7\n      gas\n      staticcall\n      iszero\n      dup1\n      iszero\n      tag_99\n      jumpi\n      returndatacopy(0x00, 0x00, returndatasize)\n      revert(0x00, returndatasize)\n    tag_99:\n      pop\n      pop\n      pop\n      pop\n      mload(0x40)\n      returndatasize\n      not(0x1f)\n      0x1f\n      dup3\n      add\n      and\n      dup3\n      add\n      dup1\n      0x40\n      mstore\n      pop\n      dup2\n      add\n      swap1\n      tag_100\n      swap2\n      swap1\n      tag_78\n      jump\t// in\n    tag_100:\n        /* \"contracts/bonding_contract.sol\":7734:7790  uint256 balance = IERC20(token).balanceOf(address(this)) */\n      swap1\n      pop\n        /* \"contracts/bonding_contract.sol\":7820:7826  amount */\n      dup3\n        /* \"contracts/bonding_contract.sol\":7809:7816  balance */\n      dup2\n        /* \"contracts/bonding_contract.sol\":7809:7826  balance >= amount */\n      lt\n      iszero\n        /* \"contracts/bonding_contract.sol\":7801:7851  require(balance >= amount, \"Insufficient balance\") */\n      tag_101\n      jumpi\n      mload(0x40)\n      shl(0xe5, 0x461bcd)\n      dup2\n      mstore\n        /* \"#utility.yul\":3024:3026   */\n      0x20\n        /* \"contracts/bonding_contract.sol\":7801:7851  require(balance >= amount, \"Insufficient balance\") */\n      0x04\n      dup3\n      add\n        /* \"#utility.yul\":3006:3027   */\n      mstore\n        /* \"#utility.yul\":3063:3065   */\n      0x14\n        /* \"#utility.yul\":3043:3061   */\n      0x24\n      dup3\n      add\n        /* \"#utility.yul\":3036:3066   */\n      mstore\n      shl(0x60, 0x496e73756666696369656e742062616c616e6365)\n        /* \"#utility.yul\":3082:3100   */\n      0x44\n      dup3\n      add\n        /* \"#utility.yul\":3075:3125   */\n      mstore\n        /* \"#utility.yul\":3142:3160   */\n      0x64\n      add\n        /* \"contracts/bonding_contract.sol\":7801:7851  require(balance >= amount, \"Insufficient balance\") */\n      tag_81\n        /* \"#utility.yul\":2822:3166   */\n      jump\n        /* \"contracts/bonding_contract.sol\":7801:7851  require(balance >= amount, \"Insufficient balance\") */\n    tag_101:\n        /* \"contracts/bonding_contract.sol\":7864:7905  IERC20(token).transfer(recipient, amount) */\n      mload(0x40)\n      shl(0xe0, 0xa9059cbb)\n      dup2\n      mstore\n      sub(shl(0xa0, 0x01), 0x01)\n        /* \"#utility.yul\":3363:3395   */\n      dup4\n      dup2\n      and\n        /* \"contracts/bonding_contract.sol\":7864:7905  IERC20(token).transfer(recipient, amount) */\n      0x04\n      dup4\n      add\n        /* \"#utility.yul\":3345:3396   */\n      mstore\n        /* \"#utility.yul\":3412:3430   */\n      0x24\n      dup3\n      add\n        /* \"#utility.yul\":3405:3439   */\n      dup6\n      swap1\n      mstore\n        /* \"contracts/bonding_contract.sol\":7864:7886  IERC20(token).transfer */\n      dup6\n      and\n      swap1\n      0xa9059cbb\n      swap1\n        /* \"#utility.yul\":3318:3336   */\n      0x44\n      add\n        /* \"contracts/bonding_contract.sol\":7864:7905  IERC20(token).transfer(recipient, amount) */\n      0x20\n      mload(0x40)\n      dup1\n      dup4\n      sub\n      dup2\n      0x00\n      dup8\n      gas\n      call\n      iszero\n      dup1\n      iszero\n      tag_107\n      jumpi\n      returndatacopy(0x00, 0x00, returndatasize)\n      revert(0x00, returndatasize)\n    tag_107:\n      pop\n      pop\n      pop\n      pop\n      mload(0x40)\n      returndatasize\n      not(0x1f)\n      0x1f\n      dup3\n      add\n      and\n      dup3\n      add\n      dup1\n      0x40\n      mstore\n      pop\n      dup2\n      add\n      swap1\n      tag_108\n      swap2\n      swap1\n      tag_109\n      jump\t// in\n    tag_108:\n      pop\n        /* \"contracts/bonding_contract.sol\":7938:7947  recipient */\n      dup2\n      sub(shl(0xa0, 0x01), 0x01)\n        /* \"contracts/bonding_contract.sol\":7921:7956  Withdrawn(token, recipient, amount) */\n      and\n        /* \"contracts/bonding_contract.sol\":7931:7936  token */\n      dup5\n      sub(shl(0xa0, 0x01), 0x01)\n        /* \"contracts/bonding_contract.sol\":7921:7956  Withdrawn(token, recipient, amount) */\n      and\n      0xd1c19fbcd4551a5edfb66d43d2e337c04837afda3482b42bdf569a8fccdae5fb\n        /* \"contracts/bonding_contract.sol\":7949:7955  amount */\n      dup6\n        /* \"contracts/bonding_contract.sol\":7921:7956  Withdrawn(token, recipient, amount) */\n      mload(0x40)\n      tag_110\n      swap2\n        /* \"#utility.yul\":529:554   */\n      dup2\n      mstore\n        /* \"#utility.yul\":517:519   */\n      0x20\n        /* \"#utility.yul\":502:520   */\n      add\n      swap1\n        /* \"#utility.yul\":383:560   */\n      jump\n        /* \"contracts/bonding_contract.sol\":7921:7956  Withdrawn(token, recipient, amount) */\n    tag_110:\n      mload(0x40)\n      dup1\n      swap2\n      sub\n      swap1\n      log3\n        /* \"contracts/bonding_contract.sol\":7583:7964  {... */\n      pop\n        /* \"contracts/bonding_contract.sol\":7496:7964  function withdraw(address token, uint256 amount, address recipient) external onlyOwner {... */\n      pop\n      pop\n      pop\n      jump\t// out\n        /* \"contracts/bonding_contract.sol\":4237:4300  function pause() external onlyOwner {... */\n    tag_45:\n        /* \"contracts/bonding_contract.sol\":3884:3889  owner */\n      sload(0x00)\n      0x0100\n      swap1\n      div\n      sub(shl(0xa0, 0x01), 0x01)\n      and\n        /* \"contracts/bonding_contract.sol\":3870:3880  msg.sender */\n      caller\n        /* \"contracts/bonding_contract.sol\":3870:3889  msg.sender == owner */\n      eq\n        /* \"contracts/bonding_contract.sol\":3862:3908  require(msg.sender == owner, \"Not authorized\") */\n      tag_112\n      jumpi\n      mload(0x40)\n      shl(0xe5, 0x461bcd)\n      dup2\n      mstore\n      0x04\n      add\n      tag_81\n      swap1\n      tag_82\n      jump\t// in\n    tag_112:\n        /* \"contracts/bonding_contract.sol\":4284:4292  _pause() */\n      tag_84\n        /* \"contracts/bonding_contract.sol\":4284:4290  _pause */\n      tag_116\n        /* \"contracts/bonding_contract.sol\":4284:4292  _pause() */\n      jump\t// in\n        /* \"contracts/bonding_contract.sol\":8589:8741  function checkTokenAllowance(address user) external view returns (uint256) {... */\n    tag_48:\n        /* \"contracts/bonding_contract.sol\":8689:8701  paymentToken */\n      sload(0x01)\n        /* \"contracts/bonding_contract.sol\":8682:8733  IERC20(paymentToken).allowance(user, address(this)) */\n      mload(0x40)\n      shl(0xe1, 0x6eb1769f)\n      dup2\n      mstore\n      sub(shl(0xa0, 0x01), 0x01)\n        /* \"#utility.yul\":3924:3956   */\n      dup4\n      dup2\n      and\n        /* \"contracts/bonding_contract.sol\":8682:8733  IERC20(paymentToken).allowance(user, address(this)) */\n      0x04\n      dup4\n      add\n        /* \"#utility.yul\":3906:3957   */\n      mstore\n        /* \"contracts/bonding_contract.sol\":8727:8731  this */\n      address\n        /* \"#utility.yul\":3973:3991   */\n      0x24\n      dup4\n      add\n        /* \"#utility.yul\":3966:4026   */\n      mstore\n        /* \"contracts/bonding_contract.sol\":8655:8662  uint256 */\n      0x00\n      swap3\n        /* \"contracts/bonding_contract.sol\":8689:8701  paymentToken */\n      and\n      swap1\n        /* \"contracts/bonding_contract.sol\":8682:8712  IERC20(paymentToken).allowance */\n      0xdd62ed3e\n      swap1\n        /* \"#utility.yul\":3879:3897   */\n      0x44\n      add\n        /* \"contracts/bonding_contract.sol\":8682:8733  IERC20(paymentToken).allowance(user, address(this)) */\n      tag_74\n        /* \"#utility.yul\":3732:4032   */\n      jump\n        /* \"contracts/bonding_contract.sol\":5023:6850  function bond(uint256 tokenAmount) external whenNotPaused {... */\n    tag_56:\n        /* \"contracts/bonding_contract.sol\":921:925  bool */\n      0x00\n        /* \"contracts/bonding_contract.sol\":945:952  _paused */\n      sload\n      0xff\n      and\n        /* \"contracts/bonding_contract.sol\":714:723  !paused() */\n      iszero\n        /* \"contracts/bonding_contract.sol\":706:744  require(!paused(), \"Pausable: paused\") */\n      tag_125\n      jumpi\n      mload(0x40)\n      shl(0xe5, 0x461bcd)\n      dup2\n      mstore\n        /* \"#utility.yul\":4239:4241   */\n      0x20\n        /* \"contracts/bonding_contract.sol\":706:744  require(!paused(), \"Pausable: paused\") */\n      0x04\n      dup3\n      add\n        /* \"#utility.yul\":4221:4242   */\n      mstore\n        /* \"#utility.yul\":4278:4280   */\n      0x10\n        /* \"#utility.yul\":4258:4276   */\n      0x24\n      dup3\n      add\n        /* \"#utility.yul\":4251:4281   */\n      mstore\n      shl(0x82, 0x14185d5cd8589b194e881c185d5cd959)\n        /* \"#utility.yul\":4297:4315   */\n      0x44\n      dup3\n      add\n        /* \"#utility.yul\":4290:4336   */\n      mstore\n        /* \"#utility.yul\":4353:4371   */\n      0x64\n      add\n        /* \"contracts/bonding_contract.sol\":706:744  require(!paused(), \"Pausable: paused\") */\n      tag_81\n        /* \"#utility.yul\":4037:4377   */\n      jump\n        /* \"contracts/bonding_contract.sol\":706:744  require(!paused(), \"Pausable: paused\") */\n    tag_125:\n        /* \"contracts/bonding_contract.sol\":5114:5115  0 */\n      0x00\n        /* \"contracts/bonding_contract.sol\":5100:5111  tokenAmount */\n      dup2\n        /* \"contracts/bonding_contract.sol\":5100:5115  tokenAmount > 0 */\n      gt\n        /* \"contracts/bonding_contract.sol\":5092:5148  require(tokenAmount > 0, \"Must deposit tokenAmount > 0\") */\n      tag_129\n      jumpi\n      mload(0x40)\n      shl(0xe5, 0x461bcd)\n      dup2\n      mstore\n        /* \"#utility.yul\":4584:4586   */\n      0x20\n        /* \"contracts/bonding_contract.sol\":5092:5148  require(tokenAmount > 0, \"Must deposit tokenAmount > 0\") */\n      0x04\n      dup3\n      add\n        /* \"#utility.yul\":4566:4587   */\n      mstore\n        /* \"#utility.yul\":4623:4625   */\n      0x1c\n        /* \"#utility.yul\":4603:4621   */\n      0x24\n      dup3\n      add\n        /* \"#utility.yul\":4596:4626   */\n      mstore\n        /* \"#utility.yul\":4662:4692   */\n      0x4d757374206465706f73697420746f6b656e416d6f756e74203e203000000000\n        /* \"#utility.yul\":4642:4660   */\n      0x44\n      dup3\n      add\n        /* \"#utility.yul\":4635:4693   */\n      mstore\n        /* \"#utility.yul\":4710:4728   */\n      0x64\n      add\n        /* \"contracts/bonding_contract.sol\":5092:5148  require(tokenAmount > 0, \"Must deposit tokenAmount > 0\") */\n      tag_81\n        /* \"#utility.yul\":4382:4734   */\n      jump\n        /* \"contracts/bonding_contract.sol\":5092:5148  require(tokenAmount > 0, \"Must deposit tokenAmount > 0\") */\n    tag_129:\n        /* \"contracts/bonding_contract.sol\":5231:5243  paymentToken */\n      sload(0x01)\n        /* \"contracts/bonding_contract.sol\":5224:5281  IERC20(paymentToken).allowance(msg.sender, address(this)) */\n      mload(0x40)\n      shl(0xe1, 0x6eb1769f)\n      dup2\n      mstore\n        /* \"contracts/bonding_contract.sol\":5255:5265  msg.sender */\n      caller\n        /* \"contracts/bonding_contract.sol\":5224:5281  IERC20(paymentToken).allowance(msg.sender, address(this)) */\n      0x04\n      dup3\n      add\n        /* \"#utility.yul\":3906:3957   */\n      mstore\n        /* \"contracts/bonding_contract.sol\":5275:5279  this */\n      address\n        /* \"#utility.yul\":3973:3991   */\n      0x24\n      dup3\n      add\n        /* \"#utility.yul\":3966:4026   */\n      mstore\n        /* \"contracts/bonding_contract.sol\":5206:5221  uint256 allowed */\n      0x00\n      swap2\n      sub(shl(0xa0, 0x01), 0x01)\n        /* \"contracts/bonding_contract.sol\":5231:5243  paymentToken */\n      and\n      swap1\n        /* \"contracts/bonding_contract.sol\":5224:5254  IERC20(paymentToken).allowance */\n      0xdd62ed3e\n      swap1\n        /* \"#utility.yul\":3879:3897   */\n      0x44\n      add\n        /* \"contracts/bonding_contract.sol\":5224:5281  IERC20(paymentToken).allowance(msg.sender, address(this)) */\n      0x20\n      mload(0x40)\n      dup1\n      dup4\n      sub\n      dup2\n      dup7\n      gas\n      staticcall\n      iszero\n      dup1\n      iszero\n      tag_134\n      jumpi\n      returndatacopy(0x00, 0x00, returndatasize)\n      revert(0x00, returndatasize)\n    tag_134:\n      pop\n      pop\n      pop\n      pop\n      mload(0x40)\n      returndatasize\n      not(0x1f)\n      0x1f\n      dup3\n      add\n      and\n      dup3\n      add\n      dup1\n      0x40\n      mstore\n      pop\n      dup2\n      add\n      swap1\n      tag_135\n      swap2\n      swap1\n      tag_78\n      jump\t// in\n    tag_135:\n        /* \"contracts/bonding_contract.sol\":5206:5281  uint256 allowed = IERC20(paymentToken).allowance(msg.sender, address(this)) */\n      swap1\n      pop\n        /* \"contracts/bonding_contract.sol\":5311:5322  tokenAmount */\n      dup2\n        /* \"contracts/bonding_contract.sol\":5300:5307  allowed */\n      dup2\n        /* \"contracts/bonding_contract.sol\":5300:5322  allowed >= tokenAmount */\n      lt\n      iszero\n        /* \"contracts/bonding_contract.sol\":5292:5351  require(allowed >= tokenAmount, \"Allowance not sufficient\") */\n      tag_136\n      jumpi\n      mload(0x40)\n      shl(0xe5, 0x461bcd)\n      dup2\n      mstore\n        /* \"#utility.yul\":4941:4943   */\n      0x20\n        /* \"contracts/bonding_contract.sol\":5292:5351  require(allowed >= tokenAmount, \"Allowance not sufficient\") */\n      0x04\n      dup3\n      add\n        /* \"#utility.yul\":4923:4944   */\n      mstore\n        /* \"#utility.yul\":4980:4982   */\n      0x18\n        /* \"#utility.yul\":4960:4978   */\n      0x24\n      dup3\n      add\n        /* \"#utility.yul\":4953:4983   */\n      mstore\n        /* \"#utility.yul\":5019:5045   */\n      0x416c6c6f77616e6365206e6f742073756666696369656e740000000000000000\n        /* \"#utility.yul\":4999:5017   */\n      0x44\n      dup3\n      add\n        /* \"#utility.yul\":4992:5046   */\n      mstore\n        /* \"#utility.yul\":5063:5081   */\n      0x64\n      add\n        /* \"contracts/bonding_contract.sol\":5292:5351  require(allowed >= tokenAmount, \"Allowance not sufficient\") */\n      tag_81\n        /* \"#utility.yul\":4739:5087   */\n      jump\n        /* \"contracts/bonding_contract.sol\":5292:5351  require(allowed >= tokenAmount, \"Allowance not sufficient\") */\n    tag_136:\n        /* \"contracts/bonding_contract.sol\":5451:5463  paymentToken */\n      sload(0x01)\n        /* \"contracts/bonding_contract.sol\":5444:5517  IERC20(paymentToken).transferFrom(msg.sender, address(this), tokenAmount) */\n      mload(0x40)\n      shl(0xe0, 0x23b872dd)\n      dup2\n      mstore\n        /* \"contracts/bonding_contract.sol\":5478:5488  msg.sender */\n      caller\n        /* \"contracts/bonding_contract.sol\":5444:5517  IERC20(paymentToken).transferFrom(msg.sender, address(this), tokenAmount) */\n      0x04\n      dup3\n      add\n        /* \"#utility.yul\":5294:5345   */\n      mstore\n        /* \"contracts/bonding_contract.sol\":5498:5502  this */\n      address\n        /* \"#utility.yul\":5361:5379   */\n      0x24\n      dup3\n      add\n        /* \"#utility.yul\":5354:5414   */\n      mstore\n        /* \"#utility.yul\":5430:5448   */\n      0x44\n      dup2\n      add\n        /* \"#utility.yul\":5423:5457   */\n      dup5\n      swap1\n      mstore\n        /* \"contracts/bonding_contract.sol\":5429:5441  bool success */\n      0x00\n      swap2\n      sub(shl(0xa0, 0x01), 0x01)\n        /* \"contracts/bonding_contract.sol\":5451:5463  paymentToken */\n      and\n      swap1\n        /* \"contracts/bonding_contract.sol\":5444:5477  IERC20(paymentToken).transferFrom */\n      0x23b872dd\n      swap1\n        /* \"#utility.yul\":5267:5285   */\n      0x64\n      add\n        /* \"contracts/bonding_contract.sol\":5444:5517  IERC20(paymentToken).transferFrom(msg.sender, address(this), tokenAmount) */\n      0x20\n      mload(0x40)\n      dup1\n      dup4\n      sub\n      dup2\n      0x00\n      dup8\n      gas\n      call\n      iszero\n      dup1\n      iszero\n      tag_142\n      jumpi\n      returndatacopy(0x00, 0x00, returndatasize)\n      revert(0x00, returndatasize)\n    tag_142:\n      pop\n      pop\n      pop\n      pop\n      mload(0x40)\n      returndatasize\n      not(0x1f)\n      0x1f\n      dup3\n      add\n      and\n      dup3\n      add\n      dup1\n      0x40\n      mstore\n      pop\n      dup2\n      add\n      swap1\n      tag_143\n      swap2\n      swap1\n      tag_109\n      jump\t// in\n    tag_143:\n        /* \"contracts/bonding_contract.sol\":5429:5517  bool success = IERC20(paymentToken).transferFrom(msg.sender, address(this), tokenAmount) */\n      swap1\n      pop\n        /* \"contracts/bonding_contract.sol\":5536:5543  success */\n      dup1\n        /* \"contracts/bonding_contract.sol\":5528:5577  require(success, \"Payment token transfer failed\") */\n      tag_144\n      jumpi\n      mload(0x40)\n      shl(0xe5, 0x461bcd)\n      dup2\n      mstore\n        /* \"#utility.yul\":5670:5672   */\n      0x20\n        /* \"contracts/bonding_contract.sol\":5528:5577  require(success, \"Payment token transfer failed\") */\n      0x04\n      dup3\n      add\n        /* \"#utility.yul\":5652:5673   */\n      mstore\n        /* \"#utility.yul\":5709:5711   */\n      0x1d\n        /* \"#utility.yul\":5689:5707   */\n      0x24\n      dup3\n      add\n        /* \"#utility.yul\":5682:5712   */\n      mstore\n        /* \"#utility.yul\":5748:5779   */\n      0x5061796d656e7420746f6b656e207472616e73666572206661696c6564000000\n        /* \"#utility.yul\":5728:5746   */\n      0x44\n      dup3\n      add\n        /* \"#utility.yul\":5721:5780   */\n      mstore\n        /* \"#utility.yul\":5797:5815   */\n      0x64\n      add\n        /* \"contracts/bonding_contract.sol\":5528:5577  require(success, \"Payment token transfer failed\") */\n      tag_81\n        /* \"#utility.yul\":5468:5821   */\n      jump\n        /* \"contracts/bonding_contract.sol\":5528:5577  require(success, \"Payment token transfer failed\") */\n    tag_144:\n        /* \"contracts/bonding_contract.sol\":5640:5663  uint256 discountedPrice */\n      0x00\n        /* \"contracts/bonding_contract.sol\":5705:5708  100 */\n      0x64\n        /* \"contracts/bonding_contract.sol\":5688:5700  discountRate */\n      sload(0x03)\n        /* \"contracts/bonding_contract.sol\":5682:5685  100 */\n      0x64\n        /* \"contracts/bonding_contract.sol\":5682:5700  100 - discountRate */\n      tag_147\n      swap2\n      swap1\n      tag_148\n      jump\t// in\n    tag_147:\n        /* \"contracts/bonding_contract.sol\":5667:5678  targetPrice */\n      sload(0x04)\n        /* \"contracts/bonding_contract.sol\":5667:5701  targetPrice * (100 - discountRate) */\n      tag_149\n      swap2\n      swap1\n      tag_150\n      jump\t// in\n    tag_149:\n        /* \"contracts/bonding_contract.sol\":5666:5708  (targetPrice * (100 - discountRate)) / 100 */\n      tag_151\n      swap2\n      swap1\n      tag_152\n      jump\t// in\n    tag_151:\n        /* \"contracts/bonding_contract.sol\":5640:5708  uint256 discountedPrice = (targetPrice * (100 - discountRate)) / 100 */\n      swap1\n      pop\n        /* \"contracts/bonding_contract.sol\":5719:5742  uint256 roboMoneyAmount */\n      0x00\n        /* \"contracts/bonding_contract.sol\":5640:5708  uint256 discountedPrice = (targetPrice * (100 - discountRate)) / 100 */\n      dup2\n        /* \"contracts/bonding_contract.sol\":5746:5764  tokenAmount * 1e18 */\n      tag_153\n        /* \"contracts/bonding_contract.sol\":5746:5757  tokenAmount */\n      dup7\n        /* \"contracts/bonding_contract.sol\":5760:5764  1e18 */\n      0x0de0b6b3a7640000\n        /* \"contracts/bonding_contract.sol\":5746:5764  tokenAmount * 1e18 */\n      tag_150\n      jump\t// in\n    tag_153:\n        /* \"contracts/bonding_contract.sol\":5745:5783  (tokenAmount * 1e18) / discountedPrice */\n      tag_154\n      swap2\n      swap1\n      tag_152\n      jump\t// in\n    tag_154:\n        /* \"contracts/bonding_contract.sol\":5918:5927  roboMoney */\n      sload(0x02)\n        /* \"contracts/bonding_contract.sol\":5907:5953  IRoboMoney(roboMoney).balanceOf(address(this)) */\n      mload(0x40)\n      shl(0xe0, 0x70a08231)\n      dup2\n      mstore\n        /* \"contracts/bonding_contract.sol\":5947:5951  this */\n      address\n        /* \"contracts/bonding_contract.sol\":5907:5953  IRoboMoney(roboMoney).balanceOf(address(this)) */\n      0x04\n      dup3\n      add\n        /* \"#utility.yul\":711:762   */\n      mstore\n        /* \"contracts/bonding_contract.sol\":5719:5783  uint256 roboMoneyAmount = (tokenAmount * 1e18) / discountedPrice */\n      swap2\n      swap3\n      pop\n        /* \"contracts/bonding_contract.sol\":5882:5904  uint256 currentBalance */\n      0x00\n      swap2\n      sub(shl(0xa0, 0x01), 0x01)\n        /* \"contracts/bonding_contract.sol\":5918:5927  roboMoney */\n      swap1\n      swap2\n      and\n      swap1\n        /* \"contracts/bonding_contract.sol\":5907:5938  IRoboMoney(roboMoney).balanceOf */\n      0x70a08231\n      swap1\n        /* \"#utility.yul\":684:702   */\n      0x24\n      add\n        /* \"contracts/bonding_contract.sol\":5907:5953  IRoboMoney(roboMoney).balanceOf(address(this)) */\n      0x20\n      mload(0x40)\n      dup1\n      dup4\n      sub\n      dup2\n      dup7\n      gas\n      staticcall\n      iszero\n      dup1\n      iszero\n      tag_157\n      jumpi\n      returndatacopy(0x00, 0x00, returndatasize)\n      revert(0x00, returndatasize)\n    tag_157:\n      pop\n      pop\n      pop\n      pop\n      mload(0x40)\n      returndatasize\n      not(0x1f)\n      0x1f\n      dup3\n      add\n      and\n      dup3\n      add\n      dup1\n      0x40\n      mstore\n      pop\n      dup2\n      add\n      swap1\n      tag_158\n      swap2\n      swap1\n      tag_78\n      jump\t// in\n    tag_158:\n        /* \"contracts/bonding_contract.sol\":5882:5953  uint256 currentBalance = IRoboMoney(roboMoney).balanceOf(address(this)) */\n      swap1\n      pop\n        /* \"contracts/bonding_contract.sol\":5985:6000  roboMoneyAmount */\n      dup2\n        /* \"contracts/bonding_contract.sol\":5968:5982  currentBalance */\n      dup2\n        /* \"contracts/bonding_contract.sol\":5968:6000  currentBalance < roboMoneyAmount */\n      lt\n        /* \"contracts/bonding_contract.sol\":5964:6651  if (currentBalance < roboMoneyAmount) {... */\n      iszero\n      tag_159\n      jumpi\n        /* \"contracts/bonding_contract.sol\":6017:6035  uint256 mintAmount */\n      0x00\n        /* \"contracts/bonding_contract.sol\":6038:6070  roboMoneyAmount - currentBalance */\n      tag_160\n        /* \"contracts/bonding_contract.sol\":6056:6070  currentBalance */\n      dup3\n        /* \"contracts/bonding_contract.sol\":6038:6053  roboMoneyAmount */\n      dup5\n        /* \"contracts/bonding_contract.sol\":6038:6070  roboMoneyAmount - currentBalance */\n      tag_148\n      jump\t// in\n    tag_160:\n        /* \"contracts/bonding_contract.sol\":6017:6070  uint256 mintAmount = roboMoneyAmount - currentBalance */\n      swap1\n      pop\n        /* \"contracts/bonding_contract.sol\":6146:6165  uint256 totalSupply */\n      0x00\n        /* \"contracts/bonding_contract.sol\":6179:6188  roboMoney */\n      0x02\n      0x00\n      swap1\n      sload\n      swap1\n      0x0100\n      exp\n      swap1\n      div\n      sub(shl(0xa0, 0x01), 0x01)\n      and\n      sub(shl(0xa0, 0x01), 0x01)\n        /* \"contracts/bonding_contract.sol\":6168:6201  IRoboMoney(roboMoney).totalSupply */\n      and\n      0x18160ddd\n        /* \"contracts/bonding_contract.sol\":6168:6203  IRoboMoney(roboMoney).totalSupply() */\n      mload(0x40)\n      dup2\n      0xffffffff\n      and\n      0xe0\n      shl\n      dup2\n      mstore\n      0x04\n      add\n      0x20\n      mload(0x40)\n      dup1\n      dup4\n      sub\n      dup2\n      dup7\n      gas\n      staticcall\n      iszero\n      dup1\n      iszero\n      tag_162\n      jumpi\n      returndatacopy(0x00, 0x00, returndatasize)\n      revert(0x00, returndatasize)\n    tag_162:\n      pop\n      pop\n      pop\n      pop\n      mload(0x40)\n      returndatasize\n      not(0x1f)\n      0x1f\n      dup3\n      add\n      and\n      dup3\n      add\n      dup1\n      0x40\n      mstore\n      pop\n      dup2\n      add\n      swap1\n      tag_163\n      swap2\n      swap1\n      tag_78\n      jump\t// in\n    tag_163:\n        /* \"contracts/bonding_contract.sol\":6146:6203  uint256 totalSupply = IRoboMoney(roboMoney).totalSupply() */\n      swap1\n      pop\n        /* \"contracts/bonding_contract.sol\":6222:6233  totalSupply */\n      dup1\n        /* \"contracts/bonding_contract.sol\":6237:6238  0 */\n      0x00\n        /* \"contracts/bonding_contract.sol\":6222:6238  totalSupply == 0 */\n      sub\n        /* \"contracts/bonding_contract.sol\":6218:6640  if (totalSupply == 0) {... */\n      tag_164\n      jumpi\n        /* \"contracts/bonding_contract.sol\":6308:6317  roboMoney */\n      sload(0x02)\n        /* \"contracts/bonding_contract.sol\":6297:6347  IRoboMoney(roboMoney).initializeSupply(mintAmount) */\n      mload(0x40)\n      shl(0xe0, 0xd9e63bb1)\n      dup2\n      mstore\n      0x04\n      dup2\n      add\n        /* \"#utility.yul\":529:554   */\n      dup5\n      swap1\n      mstore\n      sub(shl(0xa0, 0x01), 0x01)\n        /* \"contracts/bonding_contract.sol\":6308:6317  roboMoney */\n      swap1\n      swap2\n      and\n      swap1\n        /* \"contracts/bonding_contract.sol\":6297:6335  IRoboMoney(roboMoney).initializeSupply */\n      0xd9e63bb1\n      swap1\n        /* \"#utility.yul\":502:520   */\n      0x24\n      add\n        /* \"contracts/bonding_contract.sol\":6297:6347  IRoboMoney(roboMoney).initializeSupply(mintAmount) */\n      0x00\n      mload(0x40)\n      dup1\n      dup4\n      sub\n      dup2\n      0x00\n      dup8\n      dup1\n      extcodesize\n      iszero\n      dup1\n      iszero\n      tag_166\n      jumpi\n      revert(0x00, 0x00)\n    tag_166:\n      pop\n      gas\n      call\n      iszero\n      dup1\n      iszero\n      tag_168\n      jumpi\n      returndatacopy(0x00, 0x00, returndatasize)\n      revert(0x00, returndatasize)\n    tag_168:\n      pop\n      pop\n      pop\n      pop\n        /* \"contracts/bonding_contract.sol\":6371:6410  Debug(\"Initialized Supply\", mintAmount) */\n      0x3c5ad147104e56be34a9176a6692f7df8d2f4b29a5af06bc6b98970d329d6577\n        /* \"contracts/bonding_contract.sol\":6399:6409  mintAmount */\n      dup3\n        /* \"contracts/bonding_contract.sol\":6371:6410  Debug(\"Initialized Supply\", mintAmount) */\n      mload(0x40)\n      tag_169\n      swap2\n      swap1\n        /* \"#utility.yul\":6716:6718   */\n      0x40\n        /* \"#utility.yul\":6698:6719   */\n      dup1\n      dup3\n      mstore\n        /* \"#utility.yul\":6755:6757   */\n      0x12\n        /* \"#utility.yul\":6735:6753   */\n      swap1\n      dup3\n      add\n        /* \"#utility.yul\":6728:6758   */\n      mstore\n      shl(0x70, 0x496e697469616c697a656420537570706c79)\n        /* \"#utility.yul\":6789:6791   */\n      0x60\n        /* \"#utility.yul\":6774:6792   */\n      dup3\n      add\n        /* \"#utility.yul\":6767:6815   */\n      mstore\n        /* \"#utility.yul\":6882:6886   */\n      0x20\n        /* \"#utility.yul\":6867:6887   */\n      dup2\n      add\n        /* \"#utility.yul\":6860:6896   */\n      swap2\n      swap1\n      swap2\n      mstore\n        /* \"#utility.yul\":6847:6850   */\n      0x80\n        /* \"#utility.yul\":6832:6851   */\n      add\n      swap1\n        /* \"#utility.yul\":6486:6902   */\n      jump\n        /* \"contracts/bonding_contract.sol\":6371:6410  Debug(\"Initialized Supply\", mintAmount) */\n    tag_169:\n      mload(0x40)\n      dup1\n      swap2\n      sub\n      swap1\n      log1\n        /* \"contracts/bonding_contract.sol\":6218:6640  if (totalSupply == 0) {... */\n      jump(tag_171)\n    tag_164:\n        /* \"contracts/bonding_contract.sol\":6524:6533  roboMoney */\n      sload(0x02)\n        /* \"contracts/bonding_contract.sol\":6513:6566  IRoboMoney(roboMoney).mint(address(this), mintAmount) */\n      mload(0x40)\n      shl(0xe0, 0x40c10f19)\n      dup2\n      mstore\n        /* \"contracts/bonding_contract.sol\":6548:6552  this */\n      address\n        /* \"contracts/bonding_contract.sol\":6513:6566  IRoboMoney(roboMoney).mint(address(this), mintAmount) */\n      0x04\n      dup3\n      add\n        /* \"#utility.yul\":3345:3396   */\n      mstore\n        /* \"#utility.yul\":3412:3430   */\n      0x24\n      dup2\n      add\n        /* \"#utility.yul\":3405:3439   */\n      dup5\n      swap1\n      mstore\n      sub(shl(0xa0, 0x01), 0x01)\n        /* \"contracts/bonding_contract.sol\":6524:6533  roboMoney */\n      swap1\n      swap2\n      and\n      swap1\n        /* \"contracts/bonding_contract.sol\":6513:6539  IRoboMoney(roboMoney).mint */\n      0x40c10f19\n      swap1\n        /* \"#utility.yul\":3318:3336   */\n      0x44\n      add\n        /* \"contracts/bonding_contract.sol\":6513:6566  IRoboMoney(roboMoney).mint(address(this), mintAmount) */\n      0x00\n      mload(0x40)\n      dup1\n      dup4\n      sub\n      dup2\n      0x00\n      dup8\n      dup1\n      extcodesize\n      iszero\n      dup1\n      iszero\n      tag_173\n      jumpi\n      revert(0x00, 0x00)\n    tag_173:\n      pop\n      gas\n      call\n      iszero\n      dup1\n      iszero\n      tag_175\n      jumpi\n      returndatacopy(0x00, 0x00, returndatasize)\n      revert(0x00, returndatasize)\n    tag_175:\n      pop\n      pop\n      pop\n      pop\n        /* \"contracts/bonding_contract.sol\":6590:6624  Debug(\"Minted Tokens\", mintAmount) */\n      0x3c5ad147104e56be34a9176a6692f7df8d2f4b29a5af06bc6b98970d329d6577\n        /* \"contracts/bonding_contract.sol\":6613:6623  mintAmount */\n      dup3\n        /* \"contracts/bonding_contract.sol\":6590:6624  Debug(\"Minted Tokens\", mintAmount) */\n      mload(0x40)\n      tag_176\n      swap2\n      swap1\n        /* \"#utility.yul\":7137:7139   */\n      0x40\n        /* \"#utility.yul\":7119:7140   */\n      dup1\n      dup3\n      mstore\n        /* \"#utility.yul\":7176:7178   */\n      0x0d\n        /* \"#utility.yul\":7156:7174   */\n      swap1\n      dup3\n      add\n        /* \"#utility.yul\":7149:7179   */\n      mstore\n      shl(0x98, 0x4d696e74656420546f6b656e73)\n        /* \"#utility.yul\":7210:7212   */\n      0x60\n        /* \"#utility.yul\":7195:7213   */\n      dup3\n      add\n        /* \"#utility.yul\":7188:7231   */\n      mstore\n        /* \"#utility.yul\":7298:7302   */\n      0x20\n        /* \"#utility.yul\":7283:7303   */\n      dup2\n      add\n        /* \"#utility.yul\":7276:7312   */\n      swap2\n      swap1\n      swap2\n      mstore\n        /* \"#utility.yul\":7263:7266   */\n      0x80\n        /* \"#utility.yul\":7248:7267   */\n      add\n      swap1\n        /* \"#utility.yul\":6907:7318   */\n      jump\n        /* \"contracts/bonding_contract.sol\":6590:6624  Debug(\"Minted Tokens\", mintAmount) */\n    tag_176:\n      mload(0x40)\n      dup1\n      swap2\n      sub\n      swap1\n      log1\n        /* \"contracts/bonding_contract.sol\":6218:6640  if (totalSupply == 0) {... */\n    tag_171:\n        /* \"contracts/bonding_contract.sol\":6002:6651  {... */\n      pop\n      pop\n        /* \"contracts/bonding_contract.sol\":5964:6651  if (currentBalance < roboMoneyAmount) {... */\n    tag_159:\n        /* \"contracts/bonding_contract.sol\":6721:6730  roboMoney */\n      sload(0x02)\n        /* \"contracts/bonding_contract.sol\":6710:6769  IRoboMoney(roboMoney).transfer(msg.sender, roboMoneyAmount) */\n      mload(0x40)\n      shl(0xe0, 0xa9059cbb)\n      dup2\n      mstore\n        /* \"contracts/bonding_contract.sol\":6741:6751  msg.sender */\n      caller\n        /* \"contracts/bonding_contract.sol\":6710:6769  IRoboMoney(roboMoney).transfer(msg.sender, roboMoneyAmount) */\n      0x04\n      dup3\n      add\n        /* \"#utility.yul\":3345:3396   */\n      mstore\n        /* \"#utility.yul\":3412:3430   */\n      0x24\n      dup2\n      add\n        /* \"#utility.yul\":3405:3439   */\n      dup5\n      swap1\n      mstore\n      sub(shl(0xa0, 0x01), 0x01)\n        /* \"contracts/bonding_contract.sol\":6721:6730  roboMoney */\n      swap1\n      swap2\n      and\n      swap1\n        /* \"contracts/bonding_contract.sol\":6710:6740  IRoboMoney(roboMoney).transfer */\n      0xa9059cbb\n      swap1\n        /* \"#utility.yul\":3318:3336   */\n      0x44\n      add\n        /* \"contracts/bonding_contract.sol\":6710:6769  IRoboMoney(roboMoney).transfer(msg.sender, roboMoneyAmount) */\n      0x20\n      mload(0x40)\n      dup1\n      dup4\n      sub\n      dup2\n      0x00\n      dup8\n      gas\n      call\n      iszero\n      dup1\n      iszero\n      tag_180\n      jumpi\n      returndatacopy(0x00, 0x00, returndatasize)\n      revert(0x00, returndatasize)\n    tag_180:\n      pop\n      pop\n      pop\n      pop\n      mload(0x40)\n      returndatasize\n      not(0x1f)\n      0x1f\n      dup3\n      add\n      and\n      dup3\n      add\n      dup1\n      0x40\n      mstore\n      pop\n      dup2\n      add\n      swap1\n      tag_181\n      swap2\n      swap1\n      tag_109\n      jump\t// in\n    tag_181:\n      pop\n        /* \"contracts/bonding_contract.sol\":6787:6842  BondPurchased(msg.sender, tokenAmount, roboMoneyAmount) */\n      0x40\n      dup1\n      mload\n        /* \"#utility.yul\":7497:7522   */\n      dup8\n      dup2\n      mstore\n        /* \"#utility.yul\":7553:7555   */\n      0x20\n        /* \"#utility.yul\":7538:7556   */\n      dup2\n      add\n        /* \"#utility.yul\":7531:7565   */\n      dup5\n      swap1\n      mstore\n        /* \"contracts/bonding_contract.sol\":6801:6811  msg.sender */\n      caller\n      swap2\n        /* \"contracts/bonding_contract.sol\":6787:6842  BondPurchased(msg.sender, tokenAmount, roboMoneyAmount) */\n      0x0db13e87b3f9c3b8f5f3acad928df55c52ba6bf7795af4ec069de5e23caacb37\n      swap2\n        /* \"#utility.yul\":7470:7488   */\n      add\n        /* \"contracts/bonding_contract.sol\":6787:6842  BondPurchased(msg.sender, tokenAmount, roboMoneyAmount) */\n      mload(0x40)\n      dup1\n      swap2\n      sub\n      swap1\n      log2\n        /* \"contracts/bonding_contract.sol\":5081:6850  {... */\n      pop\n      pop\n      pop\n      pop\n      pop\n        /* \"contracts/bonding_contract.sol\":5023:6850  function bond(uint256 tokenAmount) external whenNotPaused {... */\n      pop\n      jump\t// out\n        /* \"contracts/bonding_contract.sol\":9040:9185  function checkContractRoboMoneyBalance() external view returns (uint256) {... */\n    tag_58:\n        /* \"contracts/bonding_contract.sol\":9142:9151  roboMoney */\n      sload(0x02)\n        /* \"contracts/bonding_contract.sol\":9131:9177  IRoboMoney(roboMoney).balanceOf(address(this)) */\n      mload(0x40)\n      shl(0xe0, 0x70a08231)\n      dup2\n      mstore\n        /* \"contracts/bonding_contract.sol\":9171:9175  this */\n      address\n        /* \"contracts/bonding_contract.sol\":9131:9177  IRoboMoney(roboMoney).balanceOf(address(this)) */\n      0x04\n      dup3\n      add\n        /* \"#utility.yul\":711:762   */\n      mstore\n        /* \"contracts/bonding_contract.sol\":9104:9111  uint256 */\n      0x00\n      swap2\n      sub(shl(0xa0, 0x01), 0x01)\n        /* \"contracts/bonding_contract.sol\":9142:9151  roboMoney */\n      and\n      swap1\n        /* \"contracts/bonding_contract.sol\":9131:9162  IRoboMoney(roboMoney).balanceOf */\n      0x70a08231\n      swap1\n        /* \"#utility.yul\":684:702   */\n      0x24\n      add\n        /* \"contracts/bonding_contract.sol\":9131:9177  IRoboMoney(roboMoney).balanceOf(address(this)) */\n      0x20\n      mload(0x40)\n      dup1\n      dup4\n      sub\n      dup2\n      dup7\n      gas\n      staticcall\n      iszero\n      dup1\n      iszero\n      tag_187\n      jumpi\n      returndatacopy(0x00, 0x00, returndatasize)\n      revert(0x00, returndatasize)\n    tag_187:\n      pop\n      pop\n      pop\n      pop\n      mload(0x40)\n      returndatasize\n      not(0x1f)\n      0x1f\n      dup3\n      add\n      and\n      dup3\n      add\n      dup1\n      0x40\n      mstore\n      pop\n      dup2\n      add\n      swap1\n      tag_188\n      swap2\n      swap1\n      tag_78\n      jump\t// in\n    tag_188:\n        /* \"contracts/bonding_contract.sol\":9124:9177  return IRoboMoney(roboMoney).balanceOf(address(this)) */\n      swap1\n      pop\n        /* \"contracts/bonding_contract.sol\":9040:9185  function checkContractRoboMoneyBalance() external view returns (uint256) {... */\n      swap1\n      jump\t// out\n        /* \"contracts/bonding_contract.sol\":8892:9032  function checkRoboMoneyBalance(address user) external view returns (uint256) {... */\n    tag_62:\n        /* \"contracts/bonding_contract.sol\":8998:9007  roboMoney */\n      sload(0x02)\n        /* \"contracts/bonding_contract.sol\":8987:9024  IRoboMoney(roboMoney).balanceOf(user) */\n      mload(0x40)\n      shl(0xe0, 0x70a08231)\n      dup2\n      mstore\n      sub(shl(0xa0, 0x01), 0x01)\n        /* \"#utility.yul\":729:761   */\n      dup4\n      dup2\n      and\n        /* \"contracts/bonding_contract.sol\":8987:9024  IRoboMoney(roboMoney).balanceOf(user) */\n      0x04\n      dup4\n      add\n        /* \"#utility.yul\":711:762   */\n      mstore\n        /* \"contracts/bonding_contract.sol\":8960:8967  uint256 */\n      0x00\n      swap3\n        /* \"contracts/bonding_contract.sol\":8998:9007  roboMoney */\n      and\n      swap1\n        /* \"contracts/bonding_contract.sol\":8987:9018  IRoboMoney(roboMoney).balanceOf */\n      0x70a08231\n      swap1\n        /* \"#utility.yul\":684:702   */\n      0x24\n      add\n        /* \"contracts/bonding_contract.sol\":8987:9024  IRoboMoney(roboMoney).balanceOf(user) */\n      tag_74\n        /* \"#utility.yul\":565:768   */\n      jump\n        /* \"contracts/bonding_contract.sol\":8156:8386  function transferOwnership(address newOwner) external onlyOwner {... */\n    tag_72:\n        /* \"contracts/bonding_contract.sol\":3884:3889  owner */\n      sload(0x00)\n      0x0100\n      swap1\n      div\n      sub(shl(0xa0, 0x01), 0x01)\n      and\n        /* \"contracts/bonding_contract.sol\":3870:3880  msg.sender */\n      caller\n        /* \"contracts/bonding_contract.sol\":3870:3889  msg.sender == owner */\n      eq\n        /* \"contracts/bonding_contract.sol\":3862:3908  require(msg.sender == owner, \"Not authorized\") */\n      tag_195\n      jumpi\n      mload(0x40)\n      shl(0xe5, 0x461bcd)\n      dup2\n      mstore\n      0x04\n      add\n      tag_81\n      swap1\n      tag_82\n      jump\t// in\n    tag_195:\n      sub(shl(0xa0, 0x01), 0x01)\n        /* \"contracts/bonding_contract.sol\":8239:8261  newOwner != address(0) */\n      dup2\n      and\n        /* \"contracts/bonding_contract.sol\":8231:8298  require(newOwner != address(0), \"New owner cannot be zero address\") */\n      tag_198\n      jumpi\n      mload(0x40)\n      shl(0xe5, 0x461bcd)\n      dup2\n      mstore\n        /* \"#utility.yul\":7778:7780   */\n      0x20\n        /* \"contracts/bonding_contract.sol\":8231:8298  require(newOwner != address(0), \"New owner cannot be zero address\") */\n      0x04\n      dup3\n      add\n        /* \"#utility.yul\":7760:7781   */\n      dup2\n      swap1\n      mstore\n        /* \"#utility.yul\":7797:7815   */\n      0x24\n      dup3\n      add\n        /* \"#utility.yul\":7790:7820   */\n      mstore\n        /* \"#utility.yul\":7856:7890   */\n      0x4e6577206f776e65722063616e6e6f74206265207a65726f2061646472657373\n        /* \"#utility.yul\":7836:7854   */\n      0x44\n      dup3\n      add\n        /* \"#utility.yul\":7829:7891   */\n      mstore\n        /* \"#utility.yul\":7908:7926   */\n      0x64\n      add\n        /* \"contracts/bonding_contract.sol\":8231:8298  require(newOwner != address(0), \"New owner cannot be zero address\") */\n      tag_81\n        /* \"#utility.yul\":7576:7932   */\n      jump\n        /* \"contracts/bonding_contract.sol\":8231:8298  require(newOwner != address(0), \"New owner cannot be zero address\") */\n    tag_198:\n        /* \"contracts/bonding_contract.sol\":8335:8340  owner */\n      0x00\n      dup1\n      sload\n        /* \"contracts/bonding_contract.sol\":8314:8351  OwnershipTransferred(owner, newOwner) */\n      mload(0x40)\n      sub(shl(0xa0, 0x01), 0x01)\n      dup1\n      dup6\n      and\n      swap4\n        /* \"contracts/bonding_contract.sol\":8335:8340  owner */\n      0x0100\n      swap1\n      swap4\n      div\n      and\n      swap2\n        /* \"contracts/bonding_contract.sol\":8314:8351  OwnershipTransferred(owner, newOwner) */\n      0x8be0079c531659141344cd1fd0a4f28419497f9722a3daafe3b4186f6b6457e0\n      swap2\n      log3\n        /* \"contracts/bonding_contract.sol\":8362:8367  owner */\n      0x00\n        /* \"contracts/bonding_contract.sol\":8362:8378  owner = newOwner */\n      dup1\n      sload\n      sub(shl(0xa0, 0x01), 0x01)\n      swap1\n      swap3\n      and\n      0x0100\n      mul\n      not(sub(shl(0xa8, 0x01), 0x0100))\n      swap1\n      swap3\n      and\n      swap2\n      swap1\n      swap2\n      or\n      swap1\n      sstore\n        /* \"contracts/bonding_contract.sol\":8156:8386  function transferOwnership(address newOwner) external onlyOwner {... */\n      jump\t// out\n        /* \"contracts/bonding_contract.sol\":1092:1210  function _unpause() internal virtual whenPaused {... */\n    tag_85:\n        /* \"contracts/bonding_contract.sol\":921:925  bool */\n      0x00\n        /* \"contracts/bonding_contract.sol\":945:952  _paused */\n      sload\n      0xff\n      and\n        /* \"contracts/bonding_contract.sol\":805:846  require(paused(), \"Pausable: not paused\") */\n      tag_203\n      jumpi\n      mload(0x40)\n      shl(0xe5, 0x461bcd)\n      dup2\n      mstore\n        /* \"#utility.yul\":8139:8141   */\n      0x20\n        /* \"contracts/bonding_contract.sol\":805:846  require(paused(), \"Pausable: not paused\") */\n      0x04\n      dup3\n      add\n        /* \"#utility.yul\":8121:8142   */\n      mstore\n        /* \"#utility.yul\":8178:8180   */\n      0x14\n        /* \"#utility.yul\":8158:8176   */\n      0x24\n      dup3\n      add\n        /* \"#utility.yul\":8151:8181   */\n      mstore\n      shl(0x62, 0x14185d5cd8589b194e881b9bdd081c185d5cd959)\n        /* \"#utility.yul\":8197:8215   */\n      0x44\n      dup3\n      add\n        /* \"#utility.yul\":8190:8240   */\n      mstore\n        /* \"#utility.yul\":8257:8275   */\n      0x64\n      add\n        /* \"contracts/bonding_contract.sol\":805:846  require(paused(), \"Pausable: not paused\") */\n      tag_81\n        /* \"#utility.yul\":7937:8281   */\n      jump\n        /* \"contracts/bonding_contract.sol\":805:846  require(paused(), \"Pausable: not paused\") */\n    tag_203:\n        /* \"contracts/bonding_contract.sol\":1161:1166  false */\n      0x00\n        /* \"contracts/bonding_contract.sol\":1151:1166  _paused = false */\n      dup1\n      sload\n      not(0xff)\n      and\n      swap1\n      sstore\n        /* \"contracts/bonding_contract.sol\":1182:1202  Unpaused(msg.sender) */\n      mload(0x40)\n        /* \"contracts/bonding_contract.sol\":1191:1201  msg.sender */\n      caller\n        /* \"#utility.yul\":711:762   */\n      dup2\n      mstore\n        /* \"contracts/bonding_contract.sol\":1182:1202  Unpaused(msg.sender) */\n      0x5db9ee0a495bf2e6ff9c91a7834c1ba4fdd244a5e8aa4e537bd38aeae4b073aa\n      swap1\n        /* \"#utility.yul\":699:701   */\n      0x20\n        /* \"#utility.yul\":684:702   */\n      add\n        /* \"contracts/bonding_contract.sol\":1182:1202  Unpaused(msg.sender) */\n    tag_207:\n      mload(0x40)\n      dup1\n      swap2\n      sub\n      swap1\n      log1\n        /* \"contracts/bonding_contract.sol\":1092:1210  function _unpause() internal virtual whenPaused {... */\n      jump\t// out\n        /* \"contracts/bonding_contract.sol\":968:1084  function _pause() internal virtual whenNotPaused {... */\n    tag_116:\n        /* \"contracts/bonding_contract.sol\":921:925  bool */\n      0x00\n        /* \"contracts/bonding_contract.sol\":945:952  _paused */\n      sload\n      0xff\n      and\n        /* \"contracts/bonding_contract.sol\":714:723  !paused() */\n      iszero\n        /* \"contracts/bonding_contract.sol\":706:744  require(!paused(), \"Pausable: paused\") */\n      tag_210\n      jumpi\n      mload(0x40)\n      shl(0xe5, 0x461bcd)\n      dup2\n      mstore\n        /* \"#utility.yul\":4239:4241   */\n      0x20\n        /* \"contracts/bonding_contract.sol\":706:744  require(!paused(), \"Pausable: paused\") */\n      0x04\n      dup3\n      add\n        /* \"#utility.yul\":4221:4242   */\n      mstore\n        /* \"#utility.yul\":4278:4280   */\n      0x10\n        /* \"#utility.yul\":4258:4276   */\n      0x24\n      dup3\n      add\n        /* \"#utility.yul\":4251:4281   */\n      mstore\n      shl(0x82, 0x14185d5cd8589b194e881c185d5cd959)\n        /* \"#utility.yul\":4297:4315   */\n      0x44\n      dup3\n      add\n        /* \"#utility.yul\":4290:4336   */\n      mstore\n        /* \"#utility.yul\":4353:4371   */\n      0x64\n      add\n        /* \"contracts/bonding_contract.sol\":706:744  require(!paused(), \"Pausable: paused\") */\n      tag_81\n        /* \"#utility.yul\":4037:4377   */\n      jump\n        /* \"contracts/bonding_contract.sol\":706:744  require(!paused(), \"Pausable: paused\") */\n    tag_210:\n        /* \"contracts/bonding_contract.sol\":1028:1035  _paused */\n      0x00\n        /* \"contracts/bonding_contract.sol\":1028:1042  _paused = true */\n      dup1\n      sload\n      not(0xff)\n      and\n        /* \"contracts/bonding_contract.sol\":1038:1042  true */\n      0x01\n        /* \"contracts/bonding_contract.sol\":1028:1042  _paused = true */\n      or\n      swap1\n      sstore\n        /* \"contracts/bonding_contract.sol\":1058:1076  Paused(msg.sender) */\n      mload(0x40)\n        /* \"contracts/bonding_contract.sol\":1065:1075  msg.sender */\n      caller\n        /* \"#utility.yul\":711:762   */\n      dup2\n      mstore\n        /* \"contracts/bonding_contract.sol\":1058:1076  Paused(msg.sender) */\n      0x62e78cea01bee320cd4e420270b5ea74000d11b0c9f74754ebdbfc544b05a258\n      swap1\n        /* \"#utility.yul\":699:701   */\n      0x20\n        /* \"#utility.yul\":684:702   */\n      add\n        /* \"contracts/bonding_contract.sol\":1058:1076  Paused(msg.sender) */\n      tag_207\n        /* \"#utility.yul\":565:768   */\n      jump\n        /* \"#utility.yul\":14:187   */\n    tag_214:\n        /* \"#utility.yul\":82:102   */\n      dup1\n      calldataload\n      sub(shl(0xa0, 0x01), 0x01)\n        /* \"#utility.yul\":131:162   */\n      dup2\n      and\n        /* \"#utility.yul\":121:163   */\n      dup2\n      eq\n        /* \"#utility.yul\":111:181   */\n      tag_218\n      jumpi\n        /* \"#utility.yul\":177:178   */\n      0x00\n        /* \"#utility.yul\":174:175   */\n      0x00\n        /* \"#utility.yul\":167:179   */\n      revert\n        /* \"#utility.yul\":111:181   */\n    tag_218:\n        /* \"#utility.yul\":14:187   */\n      swap2\n      swap1\n      pop\n      jump\t// out\n        /* \"#utility.yul\":192:378   */\n    tag_23:\n        /* \"#utility.yul\":251:257   */\n      0x00\n        /* \"#utility.yul\":304:306   */\n      0x20\n        /* \"#utility.yul\":292:301   */\n      dup3\n        /* \"#utility.yul\":283:290   */\n      dup5\n        /* \"#utility.yul\":279:302   */\n      sub\n        /* \"#utility.yul\":275:307   */\n      slt\n        /* \"#utility.yul\":272:324   */\n      iszero\n      tag_220\n      jumpi\n        /* \"#utility.yul\":320:321   */\n      0x00\n        /* \"#utility.yul\":317:318   */\n      0x00\n        /* \"#utility.yul\":310:322   */\n      revert\n        /* \"#utility.yul\":272:324   */\n    tag_220:\n        /* \"#utility.yul\":343:372   */\n      tag_221\n        /* \"#utility.yul\":362:371   */\n      dup3\n        /* \"#utility.yul\":343:372   */\n      tag_214\n      jump\t// in\n    tag_221:\n        /* \"#utility.yul\":333:372   */\n      swap4\n        /* \"#utility.yul\":192:378   */\n      swap3\n      pop\n      pop\n      pop\n      jump\t// out\n        /* \"#utility.yul\":965:1339   */\n    tag_39:\n        /* \"#utility.yul\":1042:1048   */\n      0x00\n        /* \"#utility.yul\":1050:1056   */\n      0x00\n        /* \"#utility.yul\":1058:1064   */\n      0x00\n        /* \"#utility.yul\":1111:1113   */\n      0x60\n        /* \"#utility.yul\":1099:1108   */\n      dup5\n        /* \"#utility.yul\":1090:1097   */\n      dup7\n        /* \"#utility.yul\":1086:1109   */\n      sub\n        /* \"#utility.yul\":1082:1114   */\n      slt\n        /* \"#utility.yul\":1079:1131   */\n      iszero\n      tag_226\n      jumpi\n        /* \"#utility.yul\":1127:1128   */\n      0x00\n        /* \"#utility.yul\":1124:1125   */\n      0x00\n        /* \"#utility.yul\":1117:1129   */\n      revert\n        /* \"#utility.yul\":1079:1131   */\n    tag_226:\n        /* \"#utility.yul\":1150:1179   */\n      tag_227\n        /* \"#utility.yul\":1169:1178   */\n      dup5\n        /* \"#utility.yul\":1150:1179   */\n      tag_214\n      jump\t// in\n    tag_227:\n        /* \"#utility.yul\":1140:1179   */\n      swap3\n      pop\n        /* \"#utility.yul\":1248:1250   */\n      0x20\n        /* \"#utility.yul\":1233:1251   */\n      dup5\n      add\n        /* \"#utility.yul\":1220:1252   */\n      calldataload\n      swap2\n      pop\n        /* \"#utility.yul\":1295:1333   */\n      tag_228\n        /* \"#utility.yul\":1329:1331   */\n      0x40\n        /* \"#utility.yul\":1314:1332   */\n      dup6\n      add\n        /* \"#utility.yul\":1295:1333   */\n      tag_214\n      jump\t// in\n    tag_228:\n        /* \"#utility.yul\":1285:1333   */\n      swap1\n      pop\n        /* \"#utility.yul\":965:1339   */\n      swap3\n      pop\n      swap3\n      pop\n      swap3\n      jump\t// out\n        /* \"#utility.yul\":1344:1570   */\n    tag_55:\n        /* \"#utility.yul\":1403:1409   */\n      0x00\n        /* \"#utility.yul\":1456:1458   */\n      0x20\n        /* \"#utility.yul\":1444:1453   */\n      dup3\n        /* \"#utility.yul\":1435:1442   */\n      dup5\n        /* \"#utility.yul\":1431:1454   */\n      sub\n        /* \"#utility.yul\":1427:1459   */\n      slt\n        /* \"#utility.yul\":1424:1476   */\n      iszero\n      tag_230\n      jumpi\n        /* \"#utility.yul\":1472:1473   */\n      0x00\n        /* \"#utility.yul\":1469:1470   */\n      0x00\n        /* \"#utility.yul\":1462:1474   */\n      revert\n        /* \"#utility.yul\":1424:1476   */\n    tag_230:\n      pop\n        /* \"#utility.yul\":1517:1540   */\n      calldataload\n      swap2\n        /* \"#utility.yul\":1344:1570   */\n      swap1\n      pop\n      jump\t// out\n        /* \"#utility.yul\":1575:1759   */\n    tag_78:\n        /* \"#utility.yul\":1645:1651   */\n      0x00\n        /* \"#utility.yul\":1698:1700   */\n      0x20\n        /* \"#utility.yul\":1686:1695   */\n      dup3\n        /* \"#utility.yul\":1677:1684   */\n      dup5\n        /* \"#utility.yul\":1673:1696   */\n      sub\n        /* \"#utility.yul\":1669:1701   */\n      slt\n        /* \"#utility.yul\":1666:1718   */\n      iszero\n      tag_232\n      jumpi\n        /* \"#utility.yul\":1714:1715   */\n      0x00\n        /* \"#utility.yul\":1711:1712   */\n      0x00\n        /* \"#utility.yul\":1704:1716   */\n      revert\n        /* \"#utility.yul\":1666:1718   */\n    tag_232:\n      pop\n        /* \"#utility.yul\":1737:1753   */\n      mload\n      swap2\n        /* \"#utility.yul\":1575:1759   */\n      swap1\n      pop\n      jump\t// out\n        /* \"#utility.yul\":1764:2102   */\n    tag_82:\n        /* \"#utility.yul\":1966:1968   */\n      0x20\n        /* \"#utility.yul\":1948:1969   */\n      dup1\n      dup3\n      mstore\n        /* \"#utility.yul\":2005:2007   */\n      0x0e\n        /* \"#utility.yul\":1985:2003   */\n      swap1\n      dup3\n      add\n        /* \"#utility.yul\":1978:2008   */\n      mstore\n      shl(0x92, 0x139bdd08185d5d1a1bdc9a5e9959)\n        /* \"#utility.yul\":2039:2041   */\n      0x40\n        /* \"#utility.yul\":2024:2042   */\n      dup3\n      add\n        /* \"#utility.yul\":2017:2061   */\n      mstore\n        /* \"#utility.yul\":2093:2095   */\n      0x60\n        /* \"#utility.yul\":2078:2096   */\n      add\n      swap1\n        /* \"#utility.yul\":1764:2102   */\n      jump\t// out\n        /* \"#utility.yul\":3450:3727   */\n    tag_109:\n        /* \"#utility.yul\":3517:3523   */\n      0x00\n        /* \"#utility.yul\":3570:3572   */\n      0x20\n        /* \"#utility.yul\":3558:3567   */\n      dup3\n        /* \"#utility.yul\":3549:3556   */\n      dup5\n        /* \"#utility.yul\":3545:3568   */\n      sub\n        /* \"#utility.yul\":3541:3573   */\n      slt\n        /* \"#utility.yul\":3538:3590   */\n      iszero\n      tag_239\n      jumpi\n        /* \"#utility.yul\":3586:3587   */\n      0x00\n        /* \"#utility.yul\":3583:3584   */\n      0x00\n        /* \"#utility.yul\":3576:3588   */\n      revert\n        /* \"#utility.yul\":3538:3590   */\n    tag_239:\n        /* \"#utility.yul\":3618:3627   */\n      dup2\n        /* \"#utility.yul\":3612:3628   */\n      mload\n        /* \"#utility.yul\":3671:3676   */\n      dup1\n        /* \"#utility.yul\":3664:3677   */\n      iszero\n        /* \"#utility.yul\":3657:3678   */\n      iszero\n        /* \"#utility.yul\":3650:3655   */\n      dup2\n        /* \"#utility.yul\":3647:3679   */\n      eq\n        /* \"#utility.yul\":3637:3697   */\n      tag_221\n      jumpi\n        /* \"#utility.yul\":3693:3694   */\n      0x00\n        /* \"#utility.yul\":3690:3691   */\n      0x00\n        /* \"#utility.yul\":3683:3695   */\n      revert\n        /* \"#utility.yul\":5826:5953   */\n    tag_215:\n        /* \"#utility.yul\":5887:5897   */\n      0x4e487b71\n        /* \"#utility.yul\":5882:5885   */\n      0xe0\n        /* \"#utility.yul\":5878:5898   */\n      shl\n        /* \"#utility.yul\":5875:5876   */\n      0x00\n        /* \"#utility.yul\":5868:5899   */\n      mstore\n        /* \"#utility.yul\":5918:5922   */\n      0x11\n        /* \"#utility.yul\":5915:5916   */\n      0x04\n        /* \"#utility.yul\":5908:5923   */\n      mstore\n        /* \"#utility.yul\":5942:5946   */\n      0x24\n        /* \"#utility.yul\":5939:5940   */\n      0x00\n        /* \"#utility.yul\":5932:5947   */\n      revert\n        /* \"#utility.yul\":5958:6086   */\n    tag_148:\n        /* \"#utility.yul\":6025:6034   */\n      dup2\n      dup2\n      sub\n        /* \"#utility.yul\":6046:6057   */\n      dup2\n      dup2\n      gt\n        /* \"#utility.yul\":6043:6080   */\n      iszero\n      tag_77\n      jumpi\n        /* \"#utility.yul\":6060:6078   */\n      tag_77\n      tag_215\n      jump\t// in\n        /* \"#utility.yul\":6091:6259   */\n    tag_150:\n        /* \"#utility.yul\":6164:6173   */\n      dup1\n      dup3\n      mul\n        /* \"#utility.yul\":6195:6204   */\n      dup2\n      iszero\n        /* \"#utility.yul\":6212:6227   */\n      dup3\n      dup3\n      div\n        /* \"#utility.yul\":6206:6228   */\n      dup5\n      eq\n        /* \"#utility.yul\":6192:6229   */\n      or\n        /* \"#utility.yul\":6182:6253   */\n      tag_77\n      jumpi\n        /* \"#utility.yul\":6233:6251   */\n      tag_77\n      tag_215\n      jump\t// in\n        /* \"#utility.yul\":6264:6481   */\n    tag_152:\n        /* \"#utility.yul\":6304:6305   */\n      0x00\n        /* \"#utility.yul\":6330:6331   */\n      dup3\n        /* \"#utility.yul\":6320:6452   */\n      tag_255\n      jumpi\n        /* \"#utility.yul\":6374:6384   */\n      0x4e487b71\n        /* \"#utility.yul\":6369:6372   */\n      0xe0\n        /* \"#utility.yul\":6365:6385   */\n      shl\n        /* \"#utility.yul\":6362:6363   */\n      0x00\n        /* \"#utility.yul\":6355:6386   */\n      mstore\n        /* \"#utility.yul\":6409:6413   */\n      0x12\n        /* \"#utility.yul\":6406:6407   */\n      0x04\n        /* \"#utility.yul\":6399:6414   */\n      mstore\n        /* \"#utility.yul\":6437:6441   */\n      0x24\n        /* \"#utility.yul\":6434:6435   */\n      0x00\n        /* \"#utility.yul\":6427:6442   */\n      revert\n        /* \"#utility.yul\":6320:6452   */\n    tag_255:\n      pop\n        /* \"#utility.yul\":6466:6475   */\n      div\n      swap1\n        /* \"#utility.yul\":6264:6481   */\n      jump\t// out\n\n    auxdata: 0xa264697066735822122092d76aa83bfaa39a393d0241903f0a1993bf56b4dbd700c3d7ef3cebabad181064736f6c634300081c0033\n}\n",
				"bytecode": {
					"linkReferences": {},
					"object": "6080604052348015600e575f5ffd5b5060405161100e38038061100e833981016040819052602b916098565b5f80546001600160a81b0319166101003302179055600180546001600160a01b03199081166001600160a01b039687161790915560028054909116939094169290921790925560039190915560045560d3565b80516001600160a01b03811681146093575f5ffd5b919050565b5f5f5f5f6080858703121560aa575f5ffd5b60b185607e565b935060bd60208601607e565b6040860151606090960151949790965092505050565b610f2e806100e05f395ff3fe608060405234801561000f575f5ffd5b50600436106100f0575f3560e01c806389f1aa2211610093578063cc7fffbe11610063578063cc7fffbe146101d7578063dc38679c146101ea578063e6c0e6d5146101f3578063f2fde38b146101fc575f5ffd5b806389f1aa22146101925780638da5cb5b146101a55780639940686e146101bc578063a933ac74146101cf575f5ffd5b80635c975abb116100ce5780635c975abb1461014f57806369328dec146101645780637ef7ba20146101775780638456cb591461018a575f5ffd5b8063126cbe60146100f45780633013ce291461011a5780633f4ba83a14610145575b5f5ffd5b610107610102366004610dcd565b61020f565b6040519081526020015b60405180910390f35b60015461012d906001600160a01b031681565b6040516001600160a01b039091168152602001610111565b61014d610282565b005b5f5460ff166040519015158152602001610111565b61014d610172366004610ded565b6102c3565b60025461012d906001600160a01b031681565b61014d61050b565b6101076101a0366004610dcd565b610541565b5f5461012d9061010090046001600160a01b031681565b61014d6101ca366004610e26565b610579565b610107610b21565b6101076101e5366004610dcd565b610b90565b61010760045481565b61010760035481565b61014d61020a366004610dcd565b610bc2565b6001546040516370a0823160e01b81526001600160a01b0383811660048301525f9216906370a08231906024015b602060405180830381865afa158015610258573d5f5f3e3d5ffd5b505050506040513d601f19601f8201168201806040525081019061027c9190610e3d565b92915050565b5f5461010090046001600160a01b031633146102b95760405162461bcd60e51b81526004016102b090610e54565b60405180910390fd5b6102c1610caa565b565b5f5461010090046001600160a01b031633146102f15760405162461bcd60e51b81526004016102b090610e54565b6001600160a01b0381166103475760405162461bcd60e51b815260206004820152601960248201527f496e76616c696420726563697069656e7420616464726573730000000000000060448201526064016102b0565b5f82116103965760405162461bcd60e51b815260206004820181905260248201527f416d6f756e74206d7573742062652067726561746572207468616e207a65726f60448201526064016102b0565b6040516370a0823160e01b81523060048201525f906001600160a01b038516906370a0823190602401602060405180830381865afa1580156103da573d5f5f3e3d5ffd5b505050506040513d601f19601f820116820180604052508101906103fe9190610e3d565b9050828110156104475760405162461bcd60e51b8152602060048201526014602482015273496e73756666696369656e742062616c616e636560601b60448201526064016102b0565b60405163a9059cbb60e01b81526001600160a01b0383811660048301526024820185905285169063a9059cbb906044016020604051808303815f875af1158015610493573d5f5f3e3d5ffd5b505050506040513d601f19601f820116820180604052508101906104b79190610e7c565b50816001600160a01b0316846001600160a01b03167fd1c19fbcd4551a5edfb66d43d2e337c04837afda3482b42bdf569a8fccdae5fb856040516104fd91815260200190565b60405180910390a350505050565b5f5461010090046001600160a01b031633146105395760405162461bcd60e51b81526004016102b090610e54565b6102c1610d31565b600154604051636eb1769f60e11b81526001600160a01b0383811660048301523060248301525f92169063dd62ed3e9060440161023d565b5f5460ff16156105be5760405162461bcd60e51b815260206004820152601060248201526f14185d5cd8589b194e881c185d5cd95960821b60448201526064016102b0565b5f811161060d5760405162461bcd60e51b815260206004820152601c60248201527f4d757374206465706f73697420746f6b656e416d6f756e74203e20300000000060448201526064016102b0565b600154604051636eb1769f60e11b81523360048201523060248201525f916001600160a01b03169063dd62ed3e90604401602060405180830381865afa158015610659573d5f5f3e3d5ffd5b505050506040513d601f19601f8201168201806040525081019061067d9190610e3d565b9050818110156106cf5760405162461bcd60e51b815260206004820152601860248201527f416c6c6f77616e6365206e6f742073756666696369656e74000000000000000060448201526064016102b0565b6001546040516323b872dd60e01b8152336004820152306024820152604481018490525f916001600160a01b0316906323b872dd906064016020604051808303815f875af1158015610723573d5f5f3e3d5ffd5b505050506040513d601f19601f820116820180604052508101906107479190610e7c565b9050806107965760405162461bcd60e51b815260206004820152601d60248201527f5061796d656e7420746f6b656e207472616e73666572206661696c656400000060448201526064016102b0565b5f606460035460646107a89190610eaf565b6004546107b59190610ec2565b6107bf9190610ed9565b90505f816107d586670de0b6b3a7640000610ec2565b6107df9190610ed9565b6002546040516370a0823160e01b81523060048201529192505f916001600160a01b03909116906370a0823190602401602060405180830381865afa15801561082a573d5f5f3e3d5ffd5b505050506040513d601f19601f8201168201806040525081019061084e9190610e3d565b905081811015610a6b575f6108638284610eaf565b90505f60025f9054906101000a90046001600160a01b03166001600160a01b03166318160ddd6040518163ffffffff1660e01b8152600401602060405180830381865afa1580156108b6573d5f5f3e3d5ffd5b505050506040513d601f19601f820116820180604052508101906108da9190610e3d565b9050805f036109a75760025460405163d9e63bb160e01b8152600481018490526001600160a01b039091169063d9e63bb1906024015f604051808303815f87803b158015610926575f5ffd5b505af1158015610938573d5f5f3e3d5ffd5b505050507f3c5ad147104e56be34a9176a6692f7df8d2f4b29a5af06bc6b98970d329d65778260405161099a9190604080825260129082015271496e697469616c697a656420537570706c7960701b6060820152602081019190915260800190565b60405180910390a1610a68565b6002546040516340c10f1960e01b8152306004820152602481018490526001600160a01b03909116906340c10f19906044015f604051808303815f87803b1580156109f0575f5ffd5b505af1158015610a02573d5f5f3e3d5ffd5b505050507f3c5ad147104e56be34a9176a6692f7df8d2f4b29a5af06bc6b98970d329d657782604051610a5f91906040808252600d908201526c4d696e74656420546f6b656e7360981b6060820152602081019190915260800190565b60405180910390a15b50505b60025460405163a9059cbb60e01b8152336004820152602481018490526001600160a01b039091169063a9059cbb906044016020604051808303815f875af1158015610ab9573d5f5f3e3d5ffd5b505050506040513d601f19601f82011682018060405250810190610add9190610e7c565b50604080518781526020810184905233917f0db13e87b3f9c3b8f5f3acad928df55c52ba6bf7795af4ec069de5e23caacb37910160405180910390a2505050505050565b6002546040516370a0823160e01b81523060048201525f916001600160a01b0316906370a0823190602401602060405180830381865afa158015610b67573d5f5f3e3d5ffd5b505050506040513d601f19601f82011682018060405250810190610b8b9190610e3d565b905090565b6002546040516370a0823160e01b81526001600160a01b0383811660048301525f9216906370a082319060240161023d565b5f5461010090046001600160a01b03163314610bf05760405162461bcd60e51b81526004016102b090610e54565b6001600160a01b038116610c465760405162461bcd60e51b815260206004820181905260248201527f4e6577206f776e65722063616e6e6f74206265207a65726f206164647265737360448201526064016102b0565b5f80546040516001600160a01b038085169361010090930416917f8be0079c531659141344cd1fd0a4f28419497f9722a3daafe3b4186f6b6457e091a35f80546001600160a01b0390921661010002610100600160a81b0319909216919091179055565b5f5460ff16610cf25760405162461bcd60e51b815260206004820152601460248201527314185d5cd8589b194e881b9bdd081c185d5cd95960621b60448201526064016102b0565b5f805460ff191690556040513381527f5db9ee0a495bf2e6ff9c91a7834c1ba4fdd244a5e8aa4e537bd38aeae4b073aa906020015b60405180910390a1565b5f5460ff1615610d765760405162461bcd60e51b815260206004820152601060248201526f14185d5cd8589b194e881c185d5cd95960821b60448201526064016102b0565b5f805460ff191660011790556040513381527f62e78cea01bee320cd4e420270b5ea74000d11b0c9f74754ebdbfc544b05a25890602001610d27565b80356001600160a01b0381168114610dc8575f5ffd5b919050565b5f60208284031215610ddd575f5ffd5b610de682610db2565b9392505050565b5f5f5f60608486031215610dff575f5ffd5b610e0884610db2565b925060208401359150610e1d60408501610db2565b90509250925092565b5f60208284031215610e36575f5ffd5b5035919050565b5f60208284031215610e4d575f5ffd5b5051919050565b6020808252600e908201526d139bdd08185d5d1a1bdc9a5e995960921b604082015260600190565b5f60208284031215610e8c575f5ffd5b81518015158114610de6575f5ffd5b634e487b7160e01b5f52601160045260245ffd5b8181038181111561027c5761027c610e9b565b808202811582820484141761027c5761027c610e9b565b5f82610ef357634e487b7160e01b5f52601260045260245ffd5b50049056fea264697066735822122092d76aa83bfaa39a393d0241903f0a1993bf56b4dbd700c3d7ef3cebabad181064736f6c634300081c0033",
					"opcodes": "PUSH1 0x80 PUSH1 0x40 MSTORE CALLVALUE DUP1 ISZERO PUSH1 0xE JUMPI PUSH0 PUSH0 REVERT JUMPDEST POP PUSH1 0x40 MLOAD PUSH2 0x100E CODESIZE SUB DUP1 PUSH2 0x100E DUP4 CODECOPY DUP2 ADD PUSH1 0x40 DUP2 SWAP1 MSTORE PUSH1 0x2B SWAP2 PUSH1 0x98 JUMP JUMPDEST PUSH0 DUP1 SLOAD PUSH1 0x1 PUSH1 0x1 PUSH1 0xA8 SHL SUB NOT AND PUSH2 0x100 CALLER MUL OR SWAP1 SSTORE PUSH1 0x1 DUP1 SLOAD PUSH1 0x1 PUSH1 0x1 PUSH1 0xA0 SHL SUB NOT SWAP1 DUP2 AND PUSH1 0x1 PUSH1 0x1 PUSH1 0xA0 SHL SUB SWAP7 DUP8 AND OR SWAP1 SWAP2 SSTORE PUSH1 0x2 DUP1 SLOAD SWAP1 SWAP2 AND SWAP4 SWAP1 SWAP5 AND SWAP3 SWAP1 SWAP3 OR SWAP1 SWAP3 SSTORE PUSH1 0x3 SWAP2 SWAP1 SWAP2 SSTORE PUSH1 0x4 SSTORE PUSH1 0xD3 JUMP JUMPDEST DUP1 MLOAD PUSH1 0x1 PUSH1 0x1 PUSH1 0xA0 SHL SUB DUP2 AND DUP2 EQ PUSH1 0x93 JUMPI PUSH0 PUSH0 REVERT JUMPDEST SWAP2 SWAP1 POP JUMP JUMPDEST PUSH0 PUSH0 PUSH0 PUSH0 PUSH1 0x80 DUP6 DUP8 SUB SLT ISZERO PUSH1 0xAA JUMPI PUSH0 PUSH0 REVERT JUMPDEST PUSH1 0xB1 DUP6 PUSH1 0x7E JUMP JUMPDEST SWAP4 POP PUSH1 0xBD PUSH1 0x20 DUP7 ADD PUSH1 0x7E JUMP JUMPDEST PUSH1 0x40 DUP7 ADD MLOAD PUSH1 0x60 SWAP1 SWAP7 ADD MLOAD SWAP5 SWAP8 SWAP1 SWAP7 POP SWAP3 POP POP POP JUMP JUMPDEST PUSH2 0xF2E DUP1 PUSH2 0xE0 PUSH0 CODECOPY PUSH0 RETURN INVALID PUSH1 0x80 PUSH1 0x40 MSTORE CALLVALUE DUP1 ISZERO PUSH2 0xF JUMPI PUSH0 PUSH0 REVERT JUMPDEST POP PUSH1 0x4 CALLDATASIZE LT PUSH2 0xF0 JUMPI PUSH0 CALLDATALOAD PUSH1 0xE0 SHR DUP1 PUSH4 0x89F1AA22 GT PUSH2 0x93 JUMPI DUP1 PUSH4 0xCC7FFFBE GT PUSH2 0x63 JUMPI DUP1 PUSH4 0xCC7FFFBE EQ PUSH2 0x1D7 JUMPI DUP1 PUSH4 0xDC38679C EQ PUSH2 0x1EA JUMPI DUP1 PUSH4 0xE6C0E6D5 EQ PUSH2 0x1F3 JUMPI DUP1 PUSH4 0xF2FDE38B EQ PUSH2 0x1FC JUMPI PUSH0 PUSH0 REVERT JUMPDEST DUP1 PUSH4 0x89F1AA22 EQ PUSH2 0x192 JUMPI DUP1 PUSH4 0x8DA5CB5B EQ PUSH2 0x1A5 JUMPI DUP1 PUSH4 0x9940686E EQ PUSH2 0x1BC JUMPI DUP1 PUSH4 0xA933AC74 EQ PUSH2 0x1CF JUMPI PUSH0 PUSH0 REVERT JUMPDEST DUP1 PUSH4 0x5C975ABB GT PUSH2 0xCE JUMPI DUP1 PUSH4 0x5C975ABB EQ PUSH2 0x14F JUMPI DUP1 PUSH4 0x69328DEC EQ PUSH2 0x164 JUMPI DUP1 PUSH4 0x7EF7BA20 EQ PUSH2 0x177 JUMPI DUP1 PUSH4 0x8456CB59 EQ PUSH2 0x18A JUMPI PUSH0 PUSH0 REVERT JUMPDEST DUP1 PUSH4 0x126CBE60 EQ PUSH2 0xF4 JUMPI DUP1 PUSH4 0x3013CE29 EQ PUSH2 0x11A JUMPI DUP1 PUSH4 0x3F4BA83A EQ PUSH2 0x145 JUMPI JUMPDEST PUSH0 PUSH0 REVERT JUMPDEST PUSH2 0x107 PUSH2 0x102 CALLDATASIZE PUSH1 0x4 PUSH2 0xDCD JUMP JUMPDEST PUSH2 0x20F JUMP JUMPDEST PUSH1 0x40 MLOAD SWAP1 DUP2 MSTORE PUSH1 0x20 ADD JUMPDEST PUSH1 0x40 MLOAD DUP1 SWAP2 SUB SWAP1 RETURN JUMPDEST PUSH1 0x1 SLOAD PUSH2 0x12D SWAP1 PUSH1 0x1 PUSH1 0x1 PUSH1 0xA0 SHL SUB AND DUP2 JUMP JUMPDEST PUSH1 0x40 MLOAD PUSH1 0x1 PUSH1 0x1 PUSH1 0xA0 SHL SUB SWAP1 SWAP2 AND DUP2 MSTORE PUSH1 0x20 ADD PUSH2 0x111 JUMP JUMPDEST PUSH2 0x14D PUSH2 0x282 JUMP JUMPDEST STOP JUMPDEST PUSH0 SLOAD PUSH1 0xFF AND PUSH1 0x40 MLOAD SWAP1 ISZERO ISZERO DUP2 MSTORE PUSH1 0x20 ADD PUSH2 0x111 JUMP JUMPDEST PUSH2 0x14D PUSH2 0x172 CALLDATASIZE PUSH1 0x4 PUSH2 0xDED JUMP JUMPDEST PUSH2 0x2C3 JUMP JUMPDEST PUSH1 0x2 SLOAD PUSH2 0x12D SWAP1 PUSH1 0x1 PUSH1 0x1 PUSH1 0xA0 SHL SUB AND DUP2 JUMP JUMPDEST PUSH2 0x14D PUSH2 0x50B JUMP JUMPDEST PUSH2 0x107 PUSH2 0x1A0 CALLDATASIZE PUSH1 0x4 PUSH2 0xDCD JUMP JUMPDEST PUSH2 0x541 JUMP JUMPDEST PUSH0 SLOAD PUSH2 0x12D SWAP1 PUSH2 0x100 SWAP1 DIV PUSH1 0x1 PUSH1 0x1 PUSH1 0xA0 SHL SUB AND DUP2 JUMP JUMPDEST PUSH2 0x14D PUSH2 0x1CA CALLDATASIZE PUSH1 0x4 PUSH2 0xE26 JUMP JUMPDEST PUSH2 0x579 JUMP JUMPDEST PUSH2 0x107 PUSH2 0xB21 JUMP JUMPDEST PUSH2 0x107 PUSH2 0x1E5 CALLDATASIZE PUSH1 0x4 PUSH2 0xDCD JUMP JUMPDEST PUSH2 0xB90 JUMP JUMPDEST PUSH2 0x107 PUSH1 0x4 SLOAD DUP2 JUMP JUMPDEST PUSH2 0x107 PUSH1 0x3 SLOAD DUP2 JUMP JUMPDEST PUSH2 0x14D PUSH2 0x20A CALLDATASIZE PUSH1 0x4 PUSH2 0xDCD JUMP JUMPDEST PUSH2 0xBC2 JUMP JUMPDEST PUSH1 0x1 SLOAD PUSH1 0x40 MLOAD PUSH4 0x70A08231 PUSH1 0xE0 SHL DUP2 MSTORE PUSH1 0x1 PUSH1 0x1 PUSH1 0xA0 SHL SUB DUP4 DUP2 AND PUSH1 0x4 DUP4 ADD MSTORE PUSH0 SWAP3 AND SWAP1 PUSH4 0x70A08231 SWAP1 PUSH1 0x24 ADD JUMPDEST PUSH1 0x20 PUSH1 0x40 MLOAD DUP1 DUP4 SUB DUP2 DUP7 GAS STATICCALL ISZERO DUP1 ISZERO PUSH2 0x258 JUMPI RETURNDATASIZE PUSH0 PUSH0 RETURNDATACOPY RETURNDATASIZE PUSH0 REVERT JUMPDEST POP POP POP POP PUSH1 0x40 MLOAD RETURNDATASIZE PUSH1 0x1F NOT PUSH1 0x1F DUP3 ADD AND DUP3 ADD DUP1 PUSH1 0x40 MSTORE POP DUP2 ADD SWAP1 PUSH2 0x27C SWAP2 SWAP1 PUSH2 0xE3D JUMP JUMPDEST SWAP3 SWAP2 POP POP JUMP JUMPDEST PUSH0 SLOAD PUSH2 0x100 SWAP1 DIV PUSH1 0x1 PUSH1 0x1 PUSH1 0xA0 SHL SUB AND CALLER EQ PUSH2 0x2B9 JUMPI PUSH1 0x40 MLOAD PUSH3 0x461BCD PUSH1 0xE5 SHL DUP2 MSTORE PUSH1 0x4 ADD PUSH2 0x2B0 SWAP1 PUSH2 0xE54 JUMP JUMPDEST PUSH1 0x40 MLOAD DUP1 SWAP2 SUB SWAP1 REVERT JUMPDEST PUSH2 0x2C1 PUSH2 0xCAA JUMP JUMPDEST JUMP JUMPDEST PUSH0 SLOAD PUSH2 0x100 SWAP1 DIV PUSH1 0x1 PUSH1 0x1 PUSH1 0xA0 SHL SUB AND CALLER EQ PUSH2 0x2F1 JUMPI PUSH1 0x40 MLOAD PUSH3 0x461BCD PUSH1 0xE5 SHL DUP2 MSTORE PUSH1 0x4 ADD PUSH2 0x2B0 SWAP1 PUSH2 0xE54 JUMP JUMPDEST PUSH1 0x1 PUSH1 0x1 PUSH1 0xA0 SHL SUB DUP2 AND PUSH2 0x347 JUMPI PUSH1 0x40 MLOAD PUSH3 0x461BCD PUSH1 0xE5 SHL DUP2 MSTORE PUSH1 0x20 PUSH1 0x4 DUP3 ADD MSTORE PUSH1 0x19 PUSH1 0x24 DUP3 ADD MSTORE PUSH32 0x496E76616C696420726563697069656E74206164647265737300000000000000 PUSH1 0x44 DUP3 ADD MSTORE PUSH1 0x64 ADD PUSH2 0x2B0 JUMP JUMPDEST PUSH0 DUP3 GT PUSH2 0x396 JUMPI PUSH1 0x40 MLOAD PUSH3 0x461BCD PUSH1 0xE5 SHL DUP2 MSTORE PUSH1 0x20 PUSH1 0x4 DUP3 ADD DUP2 SWAP1 MSTORE PUSH1 0x24 DUP3 ADD MSTORE PUSH32 0x416D6F756E74206D7573742062652067726561746572207468616E207A65726F PUSH1 0x44 DUP3 ADD MSTORE PUSH1 0x64 ADD PUSH2 0x2B0 JUMP JUMPDEST PUSH1 0x40 MLOAD PUSH4 0x70A08231 PUSH1 0xE0 SHL DUP2 MSTORE ADDRESS PUSH1 0x4 DUP3 ADD MSTORE PUSH0 SWAP1 PUSH1 0x1 PUSH1 0x1 PUSH1 0xA0 SHL SUB DUP6 AND SWAP1 PUSH4 0x70A08231 SWAP1 PUSH1 0x24 ADD PUSH1 0x20 PUSH1 0x40 MLOAD DUP1 DUP4 SUB DUP2 DUP7 GAS STATICCALL ISZERO DUP1 ISZERO PUSH2 0x3DA JUMPI RETURNDATASIZE PUSH0 PUSH0 RETURNDATACOPY RETURNDATASIZE PUSH0 REVERT JUMPDEST POP POP POP POP PUSH1 0x40 MLOAD RETURNDATASIZE PUSH1 0x1F NOT PUSH1 0x1F DUP3 ADD AND DUP3 ADD DUP1 PUSH1 0x40 MSTORE POP DUP2 ADD SWAP1 PUSH2 0x3FE SWAP2 SWAP1 PUSH2 0xE3D JUMP JUMPDEST SWAP1 POP DUP3 DUP2 LT ISZERO PUSH2 0x447 JUMPI PUSH1 0x40 MLOAD PUSH3 0x461BCD PUSH1 0xE5 SHL DUP2 MSTORE PUSH1 0x20 PUSH1 0x4 DUP3 ADD MSTORE PUSH1 0x14 PUSH1 0x24 DUP3 ADD MSTORE PUSH20 0x496E73756666696369656E742062616C616E6365 PUSH1 0x60 SHL PUSH1 0x44 DUP3 ADD MSTORE PUSH1 0x64 ADD PUSH2 0x2B0 JUMP JUMPDEST PUSH1 0x40 MLOAD PUSH4 0xA9059CBB PUSH1 0xE0 SHL DUP2 MSTORE PUSH1 0x1 PUSH1 0x1 PUSH1 0xA0 SHL SUB DUP4 DUP2 AND PUSH1 0x4 DUP4 ADD MSTORE PUSH1 0x24 DUP3 ADD DUP6 SWAP1 MSTORE DUP6 AND SWAP1 PUSH4 0xA9059CBB SWAP1 PUSH1 0x44 ADD PUSH1 0x20 PUSH1 0x40 MLOAD DUP1 DUP4 SUB DUP2 PUSH0 DUP8 GAS CALL ISZERO DUP1 ISZERO PUSH2 0x493 JUMPI RETURNDATASIZE PUSH0 PUSH0 RETURNDATACOPY RETURNDATASIZE PUSH0 REVERT JUMPDEST POP POP POP POP PUSH1 0x40 MLOAD RETURNDATASIZE PUSH1 0x1F NOT PUSH1 0x1F DUP3 ADD AND DUP3 ADD DUP1 PUSH1 0x40 MSTORE POP DUP2 ADD SWAP1 PUSH2 0x4B7 SWAP2 SWAP1 PUSH2 0xE7C JUMP JUMPDEST POP DUP2 PUSH1 0x1 PUSH1 0x1 PUSH1 0xA0 SHL SUB AND DUP5 PUSH1 0x1 PUSH1 0x1 PUSH1 0xA0 SHL SUB AND PUSH32 0xD1C19FBCD4551A5EDFB66D43D2E337C04837AFDA3482B42BDF569A8FCCDAE5FB DUP6 PUSH1 0x40 MLOAD PUSH2 0x4FD SWAP2 DUP2 MSTORE PUSH1 0x20 ADD SWAP1 JUMP JUMPDEST PUSH1 0x40 MLOAD DUP1 SWAP2 SUB SWAP1 LOG3 POP POP POP POP JUMP JUMPDEST PUSH0 SLOAD PUSH2 0x100 SWAP1 DIV PUSH1 0x1 PUSH1 0x1 PUSH1 0xA0 SHL SUB AND CALLER EQ PUSH2 0x539 JUMPI PUSH1 0x40 MLOAD PUSH3 0x461BCD PUSH1 0xE5 SHL DUP2 MSTORE PUSH1 0x4 ADD PUSH2 0x2B0 SWAP1 PUSH2 0xE54 JUMP JUMPDEST PUSH2 0x2C1 PUSH2 0xD31 JUMP JUMPDEST PUSH1 0x1 SLOAD PUSH1 0x40 MLOAD PUSH4 0x6EB1769F PUSH1 0xE1 SHL DUP2 MSTORE PUSH1 0x1 PUSH1 0x1 PUSH1 0xA0 SHL SUB DUP4 DUP2 AND PUSH1 0x4 DUP4 ADD MSTORE ADDRESS PUSH1 0x24 DUP4 ADD MSTORE PUSH0 SWAP3 AND SWAP1 PUSH4 0xDD62ED3E SWAP1 PUSH1 0x44 ADD PUSH2 0x23D JUMP JUMPDEST PUSH0 SLOAD PUSH1 0xFF AND ISZERO PUSH2 0x5BE JUMPI PUSH1 0x40 MLOAD PUSH3 0x461BCD PUSH1 0xE5 SHL DUP2 MSTORE PUSH1 0x20 PUSH1 0x4 DUP3 ADD MSTORE PUSH1 0x10 PUSH1 0x24 DUP3 ADD MSTORE PUSH16 0x14185D5CD8589B194E881C185D5CD959 PUSH1 0x82 SHL PUSH1 0x44 DUP3 ADD MSTORE PUSH1 0x64 ADD PUSH2 0x2B0 JUMP JUMPDEST PUSH0 DUP2 GT PUSH2 0x60D JUMPI PUSH1 0x40 MLOAD PUSH3 0x461BCD PUSH1 0xE5 SHL DUP2 MSTORE PUSH1 0x20 PUSH1 0x4 DUP3 ADD MSTORE PUSH1 0x1C PUSH1 0x24 DUP3 ADD MSTORE PUSH32 0x4D757374206465706F73697420746F6B656E416D6F756E74203E203000000000 PUSH1 0x44 DUP3 ADD MSTORE PUSH1 0x64 ADD PUSH2 0x2B0 JUMP JUMPDEST PUSH1 0x1 SLOAD PUSH1 0x40 MLOAD PUSH4 0x6EB1769F PUSH1 0xE1 SHL DUP2 MSTORE CALLER PUSH1 0x4 DUP3 ADD MSTORE ADDRESS PUSH1 0x24 DUP3 ADD MSTORE PUSH0 SWAP2 PUSH1 0x1 PUSH1 0x1 PUSH1 0xA0 SHL SUB AND SWAP1 PUSH4 0xDD62ED3E SWAP1 PUSH1 0x44 ADD PUSH1 0x20 PUSH1 0x40 MLOAD DUP1 DUP4 SUB DUP2 DUP7 GAS STATICCALL ISZERO DUP1 ISZERO PUSH2 0x659 JUMPI RETURNDATASIZE PUSH0 PUSH0 RETURNDATACOPY RETURNDATASIZE PUSH0 REVERT JUMPDEST POP POP POP POP PUSH1 0x40 MLOAD RETURNDATASIZE PUSH1 0x1F NOT PUSH1 0x1F DUP3 ADD AND DUP3 ADD DUP1 PUSH1 0x40 MSTORE POP DUP2 ADD SWAP1 PUSH2 0x67D SWAP2 SWAP1 PUSH2 0xE3D JUMP JUMPDEST SWAP1 POP DUP2 DUP2 LT ISZERO PUSH2 0x6CF JUMPI PUSH1 0x40 MLOAD PUSH3 0x461BCD PUSH1 0xE5 SHL DUP2 MSTORE PUSH1 0x20 PUSH1 0x4 DUP3 ADD MSTORE PUSH1 0x18 PUSH1 0x24 DUP3 ADD MSTORE PUSH32 0x416C6C6F77616E6365206E6F742073756666696369656E740000000000000000 PUSH1 0x44 DUP3 ADD MSTORE PUSH1 0x64 ADD PUSH2 0x2B0 JUMP JUMPDEST PUSH1 0x1 SLOAD PUSH1 0x40 MLOAD PUSH4 0x23B872DD PUSH1 0xE0 SHL DUP2 MSTORE CALLER PUSH1 0x4 DUP3 ADD MSTORE ADDRESS PUSH1 0x24 DUP3 ADD MSTORE PUSH1 0x44 DUP2 ADD DUP5 SWAP1 MSTORE PUSH0 SWAP2 PUSH1 0x1 PUSH1 0x1 PUSH1 0xA0 SHL SUB AND SWAP1 PUSH4 0x23B872DD SWAP1 PUSH1 0x64 ADD PUSH1 0x20 PUSH1 0x40 MLOAD DUP1 DUP4 SUB DUP2 PUSH0 DUP8 GAS CALL ISZERO DUP1 ISZERO PUSH2 0x723 JUMPI RETURNDATASIZE PUSH0 PUSH0 RETURNDATACOPY RETURNDATASIZE PUSH0 REVERT JUMPDEST POP POP POP POP PUSH1 0x40 MLOAD RETURNDATASIZE PUSH1 0x1F NOT PUSH1 0x1F DUP3 ADD AND DUP3 ADD DUP1 PUSH1 0x40 MSTORE POP DUP2 ADD SWAP1 PUSH2 0x747 SWAP2 SWAP1 PUSH2 0xE7C JUMP JUMPDEST SWAP1 POP DUP1 PUSH2 0x796 JUMPI PUSH1 0x40 MLOAD PUSH3 0x461BCD PUSH1 0xE5 SHL DUP2 MSTORE PUSH1 0x20 PUSH1 0x4 DUP3 ADD MSTORE PUSH1 0x1D PUSH1 0x24 DUP3 ADD MSTORE PUSH32 0x5061796D656E7420746F6B656E207472616E73666572206661696C6564000000 PUSH1 0x44 DUP3 ADD MSTORE PUSH1 0x64 ADD PUSH2 0x2B0 JUMP JUMPDEST PUSH0 PUSH1 0x64 PUSH1 0x3 SLOAD PUSH1 0x64 PUSH2 0x7A8 SWAP2 SWAP1 PUSH2 0xEAF JUMP JUMPDEST PUSH1 0x4 SLOAD PUSH2 0x7B5 SWAP2 SWAP1 PUSH2 0xEC2 JUMP JUMPDEST PUSH2 0x7BF SWAP2 SWAP1 PUSH2 0xED9 JUMP JUMPDEST SWAP1 POP PUSH0 DUP2 PUSH2 0x7D5 DUP7 PUSH8 0xDE0B6B3A7640000 PUSH2 0xEC2 JUMP JUMPDEST PUSH2 0x7DF SWAP2 SWAP1 PUSH2 0xED9 JUMP JUMPDEST PUSH1 0x2 SLOAD PUSH1 0x40 MLOAD PUSH4 0x70A08231 PUSH1 0xE0 SHL DUP2 MSTORE ADDRESS PUSH1 0x4 DUP3 ADD MSTORE SWAP2 SWAP3 POP PUSH0 SWAP2 PUSH1 0x1 PUSH1 0x1 PUSH1 0xA0 SHL SUB SWAP1 SWAP2 AND SWAP1 PUSH4 0x70A08231 SWAP1 PUSH1 0x24 ADD PUSH1 0x20 PUSH1 0x40 MLOAD DUP1 DUP4 SUB DUP2 DUP7 GAS STATICCALL ISZERO DUP1 ISZERO PUSH2 0x82A JUMPI RETURNDATASIZE PUSH0 PUSH0 RETURNDATACOPY RETURNDATASIZE PUSH0 REVERT JUMPDEST POP POP POP POP PUSH1 0x40 MLOAD RETURNDATASIZE PUSH1 0x1F NOT PUSH1 0x1F DUP3 ADD AND DUP3 ADD DUP1 PUSH1 0x40 MSTORE POP DUP2 ADD SWAP1 PUSH2 0x84E SWAP2 SWAP1 PUSH2 0xE3D JUMP JUMPDEST SWAP1 POP DUP2 DUP2 LT ISZERO PUSH2 0xA6B JUMPI PUSH0 PUSH2 0x863 DUP3 DUP5 PUSH2 0xEAF JUMP JUMPDEST SWAP1 POP PUSH0 PUSH1 0x2 PUSH0 SWAP1 SLOAD SWAP1 PUSH2 0x100 EXP SWAP1 DIV PUSH1 0x1 PUSH1 0x1 PUSH1 0xA0 SHL SUB AND PUSH1 0x1 PUSH1 0x1 PUSH1 0xA0 SHL SUB AND PUSH4 0x18160DDD PUSH1 0x40 MLOAD DUP2 PUSH4 0xFFFFFFFF AND PUSH1 0xE0 SHL DUP2 MSTORE PUSH1 0x4 ADD PUSH1 0x20 PUSH1 0x40 MLOAD DUP1 DUP4 SUB DUP2 DUP7 GAS STATICCALL ISZERO DUP1 ISZERO PUSH2 0x8B6 JUMPI RETURNDATASIZE PUSH0 PUSH0 RETURNDATACOPY RETURNDATASIZE PUSH0 REVERT JUMPDEST POP POP POP POP PUSH1 0x40 MLOAD RETURNDATASIZE PUSH1 0x1F NOT PUSH1 0x1F DUP3 ADD AND DUP3 ADD DUP1 PUSH1 0x40 MSTORE POP DUP2 ADD SWAP1 PUSH2 0x8DA SWAP2 SWAP1 PUSH2 0xE3D JUMP JUMPDEST SWAP1 POP DUP1 PUSH0 SUB PUSH2 0x9A7 JUMPI PUSH1 0x2 SLOAD PUSH1 0x40 MLOAD PUSH4 0xD9E63BB1 PUSH1 0xE0 SHL DUP2 MSTORE PUSH1 0x4 DUP2 ADD DUP5 SWAP1 MSTORE PUSH1 0x1 PUSH1 0x1 PUSH1 0xA0 SHL SUB SWAP1 SWAP2 AND SWAP1 PUSH4 0xD9E63BB1 SWAP1 PUSH1 0x24 ADD PUSH0 PUSH1 0x40 MLOAD DUP1 DUP4 SUB DUP2 PUSH0 DUP8 DUP1 EXTCODESIZE ISZERO DUP1 ISZERO PUSH2 0x926 JUMPI PUSH0 PUSH0 REVERT JUMPDEST POP GAS CALL ISZERO DUP1 ISZERO PUSH2 0x938 JUMPI RETURNDATASIZE PUSH0 PUSH0 RETURNDATACOPY RETURNDATASIZE PUSH0 REVERT JUMPDEST POP POP POP POP PUSH32 0x3C5AD147104E56BE34A9176A6692F7DF8D2F4B29A5AF06BC6B98970D329D6577 DUP3 PUSH1 0x40 MLOAD PUSH2 0x99A SWAP2 SWAP1 PUSH1 0x40 DUP1 DUP3 MSTORE PUSH1 0x12 SWAP1 DUP3 ADD MSTORE PUSH18 0x496E697469616C697A656420537570706C79 PUSH1 0x70 SHL PUSH1 0x60 DUP3 ADD MSTORE PUSH1 0x20 DUP2 ADD SWAP2 SWAP1 SWAP2 MSTORE PUSH1 0x80 ADD SWAP1 JUMP JUMPDEST PUSH1 0x40 MLOAD DUP1 SWAP2 SUB SWAP1 LOG1 PUSH2 0xA68 JUMP JUMPDEST PUSH1 0x2 SLOAD PUSH1 0x40 MLOAD PUSH4 0x40C10F19 PUSH1 0xE0 SHL DUP2 MSTORE ADDRESS PUSH1 0x4 DUP3 ADD MSTORE PUSH1 0x24 DUP2 ADD DUP5 SWAP1 MSTORE PUSH1 0x1 PUSH1 0x1 PUSH1 0xA0 SHL SUB SWAP1 SWAP2 AND SWAP1 PUSH4 0x40C10F19 SWAP1 PUSH1 0x44 ADD PUSH0 PUSH1 0x40 MLOAD DUP1 DUP4 SUB DUP2 PUSH0 DUP8 DUP1 EXTCODESIZE ISZERO DUP1 ISZERO PUSH2 0x9F0 JUMPI PUSH0 PUSH0 REVERT JUMPDEST POP GAS CALL ISZERO DUP1 ISZERO PUSH2 0xA02 JUMPI RETURNDATASIZE PUSH0 PUSH0 RETURNDATACOPY RETURNDATASIZE PUSH0 REVERT JUMPDEST POP POP POP POP PUSH32 0x3C5AD147104E56BE34A9176A6692F7DF8D2F4B29A5AF06BC6B98970D329D6577 DUP3 PUSH1 0x40 MLOAD PUSH2 0xA5F SWAP2 SWAP1 PUSH1 0x40 DUP1 DUP3 MSTORE PUSH1 0xD SWAP1 DUP3 ADD MSTORE PUSH13 0x4D696E74656420546F6B656E73 PUSH1 0x98 SHL PUSH1 0x60 DUP3 ADD MSTORE PUSH1 0x20 DUP2 ADD SWAP2 SWAP1 SWAP2 MSTORE PUSH1 0x80 ADD SWAP1 JUMP JUMPDEST PUSH1 0x40 MLOAD DUP1 SWAP2 SUB SWAP1 LOG1 JUMPDEST POP POP JUMPDEST PUSH1 0x2 SLOAD PUSH1 0x40 MLOAD PUSH4 0xA9059CBB PUSH1 0xE0 SHL DUP2 MSTORE CALLER PUSH1 0x4 DUP3 ADD MSTORE PUSH1 0x24 DUP2 ADD DUP5 SWAP1 MSTORE PUSH1 0x1 PUSH1 0x1 PUSH1 0xA0 SHL SUB SWAP1 SWAP2 AND SWAP1 PUSH4 0xA9059CBB SWAP1 PUSH1 0x44 ADD PUSH1 0x20 PUSH1 0x40 MLOAD DUP1 DUP4 SUB DUP2 PUSH0 DUP8 GAS CALL ISZERO DUP1 ISZERO PUSH2 0xAB9 JUMPI RETURNDATASIZE PUSH0 PUSH0 RETURNDATACOPY RETURNDATASIZE PUSH0 REVERT JUMPDEST POP POP POP POP PUSH1 0x40 MLOAD RETURNDATASIZE PUSH1 0x1F NOT PUSH1 0x1F DUP3 ADD AND DUP3 ADD DUP1 PUSH1 0x40 MSTORE POP DUP2 ADD SWAP1 PUSH2 0xADD SWAP2 SWAP1 PUSH2 0xE7C JUMP JUMPDEST POP PUSH1 0x40 DUP1 MLOAD DUP8 DUP2 MSTORE PUSH1 0x20 DUP2 ADD DUP5 SWAP1 MSTORE CALLER SWAP2 PUSH32 0xDB13E87B3F9C3B8F5F3ACAD928DF55C52BA6BF7795AF4EC069DE5E23CAACB37 SWAP2 ADD PUSH1 0x40 MLOAD DUP1 SWAP2 SUB SWAP1 LOG2 POP POP POP POP POP POP JUMP JUMPDEST PUSH1 0x2 SLOAD PUSH1 0x40 MLOAD PUSH4 0x70A08231 PUSH1 0xE0 SHL DUP2 MSTORE ADDRESS PUSH1 0x4 DUP3 ADD MSTORE PUSH0 SWAP2 PUSH1 0x1 PUSH1 0x1 PUSH1 0xA0 SHL SUB AND SWAP1 PUSH4 0x70A08231 SWAP1 PUSH1 0x24 ADD PUSH1 0x20 PUSH1 0x40 MLOAD DUP1 DUP4 SUB DUP2 DUP7 GAS STATICCALL ISZERO DUP1 ISZERO PUSH2 0xB67 JUMPI RETURNDATASIZE PUSH0 PUSH0 RETURNDATACOPY RETURNDATASIZE PUSH0 REVERT JUMPDEST POP POP POP POP PUSH1 0x40 MLOAD RETURNDATASIZE PUSH1 0x1F NOT PUSH1 0x1F DUP3 ADD AND DUP3 ADD DUP1 PUSH1 0x40 MSTORE POP DUP2 ADD SWAP1 PUSH2 0xB8B SWAP2 SWAP1 PUSH2 0xE3D JUMP JUMPDEST SWAP1 POP SWAP1 JUMP JUMPDEST PUSH1 0x2 SLOAD PUSH1 0x40 MLOAD PUSH4 0x70A08231 PUSH1 0xE0 SHL DUP2 MSTORE PUSH1 0x1 PUSH1 0x1 PUSH1 0xA0 SHL SUB DUP4 DUP2 AND PUSH1 0x4 DUP4 ADD MSTORE PUSH0 SWAP3 AND SWAP1 PUSH4 0x70A08231 SWAP1 PUSH1 0x24 ADD PUSH2 0x23D JUMP JUMPDEST PUSH0 SLOAD PUSH2 0x100 SWAP1 DIV PUSH1 0x1 PUSH1 0x1 PUSH1 0xA0 SHL SUB AND CALLER EQ PUSH2 0xBF0 JUMPI PUSH1 0x40 MLOAD PUSH3 0x461BCD PUSH1 0xE5 SHL DUP2 MSTORE PUSH1 0x4 ADD PUSH2 0x2B0 SWAP1 PUSH2 0xE54 JUMP JUMPDEST PUSH1 0x1 PUSH1 0x1 PUSH1 0xA0 SHL SUB DUP2 AND PUSH2 0xC46 JUMPI PUSH1 0x40 MLOAD PUSH3 0x461BCD PUSH1 0xE5 SHL DUP2 MSTORE PUSH1 0x20 PUSH1 0x4 DUP3 ADD DUP2 SWAP1 MSTORE PUSH1 0x24 DUP3 ADD MSTORE PUSH32 0x4E6577206F776E65722063616E6E6F74206265207A65726F2061646472657373 PUSH1 0x44 DUP3 ADD MSTORE PUSH1 0x64 ADD PUSH2 0x2B0 JUMP JUMPDEST PUSH0 DUP1 SLOAD PUSH1 0x40 MLOAD PUSH1 0x1 PUSH1 0x1 PUSH1 0xA0 SHL SUB DUP1 DUP6 AND SWAP4 PUSH2 0x100 SWAP1 SWAP4 DIV AND SWAP2 PUSH32 0x8BE0079C531659141344CD1FD0A4F28419497F9722A3DAAFE3B4186F6B6457E0 SWAP2 LOG3 PUSH0 DUP1 SLOAD PUSH1 0x1 PUSH1 0x1 PUSH1 0xA0 SHL SUB SWAP1 SWAP3 AND PUSH2 0x100 MUL PUSH2 0x100 PUSH1 0x1 PUSH1 0xA8 SHL SUB NOT SWAP1 SWAP3 AND SWAP2 SWAP1 SWAP2 OR SWAP1 SSTORE JUMP JUMPDEST PUSH0 SLOAD PUSH1 0xFF AND PUSH2 0xCF2 JUMPI PUSH1 0x40 MLOAD PUSH3 0x461BCD PUSH1 0xE5 SHL DUP2 MSTORE PUSH1 0x20 PUSH1 0x4 DUP3 ADD MSTORE PUSH1 0x14 PUSH1 0x24 DUP3 ADD MSTORE PUSH20 0x14185D5CD8589B194E881B9BDD081C185D5CD959 PUSH1 0x62 SHL PUSH1 0x44 DUP3 ADD MSTORE PUSH1 0x64 ADD PUSH2 0x2B0 JUMP JUMPDEST PUSH0 DUP1 SLOAD PUSH1 0xFF NOT AND SWAP1 SSTORE PUSH1 0x40 MLOAD CALLER DUP2 MSTORE PUSH32 0x5DB9EE0A495BF2E6FF9C91A7834C1BA4FDD244A5E8AA4E537BD38AEAE4B073AA SWAP1 PUSH1 0x20 ADD JUMPDEST PUSH1 0x40 MLOAD DUP1 SWAP2 SUB SWAP1 LOG1 JUMP JUMPDEST PUSH0 SLOAD PUSH1 0xFF AND ISZERO PUSH2 0xD76 JUMPI PUSH1 0x40 MLOAD PUSH3 0x461BCD PUSH1 0xE5 SHL DUP2 MSTORE PUSH1 0x20 PUSH1 0x4 DUP3 ADD MSTORE PUSH1 0x10 PUSH1 0x24 DUP3 ADD MSTORE PUSH16 0x14185D5CD8589B194E881C185D5CD959 PUSH1 0x82 SHL PUSH1 0x44 DUP3 ADD MSTORE PUSH1 0x64 ADD PUSH2 0x2B0 JUMP JUMPDEST PUSH0 DUP1 SLOAD PUSH1 0xFF NOT AND PUSH1 0x1 OR SWAP1 SSTORE PUSH1 0x40 MLOAD CALLER DUP2 MSTORE PUSH32 0x62E78CEA01BEE320CD4E420270B5EA74000D11B0C9F74754EBDBFC544B05A258 SWAP1 PUSH1 0x20 ADD PUSH2 0xD27 JUMP JUMPDEST DUP1 CALLDATALOAD PUSH1 0x1 PUSH1 0x1 PUSH1 0xA0 SHL SUB DUP2 AND DUP2 EQ PUSH2 0xDC8 JUMPI PUSH0 PUSH0 REVERT JUMPDEST SWAP2 SWAP1 POP JUMP JUMPDEST PUSH0 PUSH1 0x20 DUP3 DUP5 SUB SLT ISZERO PUSH2 0xDDD JUMPI PUSH0 PUSH0 REVERT JUMPDEST PUSH2 0xDE6 DUP3 PUSH2 0xDB2 JUMP JUMPDEST SWAP4 SWAP3 POP POP POP JUMP JUMPDEST PUSH0 PUSH0 PUSH0 PUSH1 0x60 DUP5 DUP7 SUB SLT ISZERO PUSH2 0xDFF JUMPI PUSH0 PUSH0 REVERT JUMPDEST PUSH2 0xE08 DUP5 PUSH2 0xDB2 JUMP JUMPDEST SWAP3 POP PUSH1 0x20 DUP5 ADD CALLDATALOAD SWAP2 POP PUSH2 0xE1D PUSH1 0x40 DUP6 ADD PUSH2 0xDB2 JUMP JUMPDEST SWAP1 POP SWAP3 POP SWAP3 POP SWAP3 JUMP JUMPDEST PUSH0 PUSH1 0x20 DUP3 DUP5 SUB SLT ISZERO PUSH2 0xE36 JUMPI PUSH0 PUSH0 REVERT JUMPDEST POP CALLDATALOAD SWAP2 SWAP1 POP JUMP JUMPDEST PUSH0 PUSH1 0x20 DUP3 DUP5 SUB SLT ISZERO PUSH2 0xE4D JUMPI PUSH0 PUSH0 REVERT JUMPDEST POP MLOAD SWAP2 SWAP1 POP JUMP JUMPDEST PUSH1 0x20 DUP1 DUP3 MSTORE PUSH1 0xE SWAP1 DUP3 ADD MSTORE PUSH14 0x139BDD08185D5D1A1BDC9A5E9959 PUSH1 0x92 SHL PUSH1 0x40 DUP3 ADD MSTORE PUSH1 0x60 ADD SWAP1 JUMP JUMPDEST PUSH0 PUSH1 0x20 DUP3 DUP5 SUB SLT ISZERO PUSH2 0xE8C JUMPI PUSH0 PUSH0 REVERT JUMPDEST DUP2 MLOAD DUP1 ISZERO ISZERO DUP2 EQ PUSH2 0xDE6 JUMPI PUSH0 PUSH0 REVERT JUMPDEST PUSH4 0x4E487B71 PUSH1 0xE0 SHL PUSH0 MSTORE PUSH1 0x11 PUSH1 0x4 MSTORE PUSH1 0x24 PUSH0 REVERT JUMPDEST DUP2 DUP2 SUB DUP2 DUP2 GT ISZERO PUSH2 0x27C JUMPI PUSH2 0x27C PUSH2 0xE9B JUMP JUMPDEST DUP1 DUP3 MUL DUP2 ISZERO DUP3 DUP3 DIV DUP5 EQ OR PUSH2 0x27C JUMPI PUSH2 0x27C PUSH2 0xE9B JUMP JUMPDEST PUSH0 DUP3 PUSH2 0xEF3 JUMPI PUSH4 0x4E487B71 PUSH1 0xE0 SHL PUSH0 MSTORE PUSH1 0x12 PUSH1 0x4 MSTORE PUSH1 0x24 PUSH0 REVERT JUMPDEST POP DIV SWAP1 JUMP INVALID LOG2 PUSH5 0x6970667358 0x22 SLT KECCAK256 SWAP3 0xD7 PUSH11 0xA83BFAA39A393D0241903F EXP NOT SWAP4 0xBF JUMP 0xB4 0xDB 0xD7 STOP 0xC3 0xD7 0xEF EXTCODECOPY 0xEB 0xAB 0xAD XOR LT PUSH5 0x736F6C6343 STOP ADDMOD SHR STOP CALLER "
				},
				"gasEstimates": {
					"creation": {
						"codeDepositCost": "777200",
						"executionCost": "infinite",
						"totalCost": "infinite"
					},
					"external": {
						"bond(uint256)": "infinite",
						"checkContractRoboMoneyBalance()": "infinite",
						"checkRoboMoneyBalance(address)": "infinite",
						"checkTokenAllowance(address)": "infinite",
						"checkTokenBalance(address)": "infinite",
						"discountRate()": "2349",
						"owner()": "2391",
						"pause()": "29822",
						"paused()": "2313",
						"paymentToken()": "2382",
						"roboMoney()": "2403",
						"targetPrice()": "2327",
						"transferOwnership(address)": "30516",
						"unpause()": "29781",
						"withdraw(address,uint256,address)": "infinite"
					}
				},
				"methodIdentifiers": {
					"bond(uint256)": "9940686e",
					"checkContractRoboMoneyBalance()": "a933ac74",
					"checkRoboMoneyBalance(address)": "cc7fffbe",
					"checkTokenAllowance(address)": "89f1aa22",
					"checkTokenBalance(address)": "126cbe60",
					"discountRate()": "e6c0e6d5",
					"owner()": "8da5cb5b",
					"pause()": "8456cb59",
					"paused()": "5c975abb",
					"paymentToken()": "3013ce29",
					"roboMoney()": "7ef7ba20",
					"targetPrice()": "dc38679c",
					"transferOwnership(address)": "f2fde38b",
					"unpause()": "3f4ba83a",
					"withdraw(address,uint256,address)": "69328dec"
				}
			},
			"storageLayout": {
				"storage": [
					{
						"astId": 4,
						"contract": "contracts/bonding_contract.sol:Bonding",
						"label": "_paused",
						"offset": 0,
						"slot": "0",
						"type": "t_bool"
					},
					{
						"astId": 188,
						"contract": "contracts/bonding_contract.sol:Bonding",
						"label": "owner",
						"offset": 1,
						"slot": "0",
						"type": "t_address"
					},
					{
						"astId": 190,
						"contract": "contracts/bonding_contract.sol:Bonding",
						"label": "paymentToken",
						"offset": 0,
						"slot": "1",
						"type": "t_address"
					},
					{
						"astId": 192,
						"contract": "contracts/bonding_contract.sol:Bonding",
						"label": "roboMoney",
						"offset": 0,
						"slot": "2",
						"type": "t_address"
					},
					{
						"astId": 194,
						"contract": "contracts/bonding_contract.sol:Bonding",
						"label": "discountRate",
						"offset": 0,
						"slot": "3",
						"type": "t_uint256"
					},
					{
						"astId": 196,
						"contract": "contracts/bonding_contract.sol:Bonding",
						"label": "targetPrice",
						"offset": 0,
						"slot": "4",
						"type": "t_uint256"
					}
				],
				"types": {
					"t_address": {
						"encoding": "inplace",
						"label": "address",
						"numberOfBytes": "20"
					},
					"t_bool": {
						"encoding": "inplace",
						"label": "bool",
						"numberOfBytes": "1"
					},
					"t_uint256": {
						"encoding": "inplace",
						"label": "uint256",
						"numberOfBytes": "32"
					}
				}
			},
			"userdoc": {
				"kind": "user",
				"methods": {
					"bond(uint256)": {
						"notice": "The main bonding function: user deposits `paymentToken` to receive RoboMoney at a discount."
					}
				},
				"version": 1
			}
		}
	}
}