{
	"contracts/3_Ballot.sol": {
		"Ballot": {
			"abi": [
				{
					"inputs": [
						{
							"internalType": "bytes32[]",
							"name": "proposalNames",
							"type": "bytes32[]"
						}
					],
					"stateMutability": "nonpayable",
					"type": "constructor"
				},
				{
					"inputs": [],
					"name": "chairperson",
					"outputs": [
						{
							"internalType": "address",
							"name": "",
							"type": "address"
						}
					],
					"stateMutability": "view",
					"type": "function"
				},
				{
					"inputs": [
						{
							"internalType": "address",
							"name": "to",
							"type": "address"
						}
					],
					"name": "delegate",
					"outputs": [],
					"stateMutability": "nonpayable",
					"type": "function"
				},
				{
					"inputs": [
						{
							"internalType": "address",
							"name": "voter",
							"type": "address"
						}
					],
					"name": "giveRightToVote",
					"outputs": [],
					"stateMutability": "nonpayable",
					"type": "function"
				},
				{
					"inputs": [
						{
							"internalType": "uint256",
							"name": "",
							"type": "uint256"
						}
					],
					"name": "proposals",
					"outputs": [
						{
							"internalType": "bytes32",
							"name": "name",
							"type": "bytes32"
						},
						{
							"internalType": "uint256",
							"name": "voteCount",
							"type": "uint256"
						}
					],
					"stateMutability": "view",
					"type": "function"
				},
				{
					"inputs": [
						{
							"internalType": "uint256",
							"name": "proposal",
							"type": "uint256"
						}
					],
					"name": "vote",
					"outputs": [],
					"stateMutability": "nonpayable",
					"type": "function"
				},
				{
					"inputs": [
						{
							"internalType": "address",
							"name": "",
							"type": "address"
						}
					],
					"name": "voters",
					"outputs": [
						{
							"internalType": "uint256",
							"name": "weight",
							"type": "uint256"
						},
						{
							"internalType": "bool",
							"name": "voted",
							"type": "bool"
						},
						{
							"internalType": "address",
							"name": "delegate",
							"type": "address"
						},
						{
							"internalType": "uint256",
							"name": "vote",
							"type": "uint256"
						}
					],
					"stateMutability": "view",
					"type": "function"
				},
				{
					"inputs": [],
					"name": "winnerName",
					"outputs": [
						{
							"internalType": "bytes32",
							"name": "winnerName_",
							"type": "bytes32"
						}
					],
					"stateMutability": "view",
					"type": "function"
				},
				{
					"inputs": [],
					"name": "winningProposal",
					"outputs": [
						{
							"internalType": "uint256",
							"name": "winningProposal_",
							"type": "uint256"
						}
					],
					"stateMutability": "view",
					"type": "function"
				}
			],
			"devdoc": {
				"details": "Implements voting process along with vote delegation",
				"kind": "dev",
				"methods": {
					"constructor": {
						"details": "Create a new ballot to choose one of 'proposalNames'.",
						"params": {
							"proposalNames": "names of proposals"
						}
					},
					"delegate(address)": {
						"details": "Delegate your vote to the voter 'to'.",
						"params": {
							"to": "address to which vote is delegated"
						}
					},
					"giveRightToVote(address)": {
						"details": "Give 'voter' the right to vote on this ballot. May only be called by 'chairperson'.",
						"params": {
							"voter": "address of voter"
						}
					},
					"vote(uint256)": {
						"details": "Give your vote (including votes delegated to you) to proposal 'proposals[proposal].name'.",
						"params": {
							"proposal": "index of proposal in the proposals array"
						}
					},
					"winnerName()": {
						"details": "Calls winningProposal() function to get the index of the winner contained in the proposals array and then",
						"returns": {
							"winnerName_": "the name of the winner"
						}
					},
					"winningProposal()": {
						"details": "Computes the winning proposal taking all previous votes into account.",
						"returns": {
							"winningProposal_": "index of winning proposal in the proposals array"
						}
					}
				},
				"title": "Ballot",
				"version": 1
			},
			"evm": {
				"assembly": "    /* \"contracts/3_Ballot.sol\":157:6216  contract Ballot {... */\n  mstore(0x40, 0x80)\n    /* \"contracts/3_Ballot.sol\":1284:1904  constructor(bytes32[] memory proposalNames) {... */\n  callvalue\n  dup1\n  iszero\n  tag_1\n  jumpi\n  revert(0x00, 0x00)\ntag_1:\n  pop\n  mload(0x40)\n  sub(codesize, bytecodeSize)\n  dup1\n  bytecodeSize\n  dup4\n  codecopy\n  dup2\n  add\n  0x40\n  dup2\n  swap1\n  mstore\n  tag_2\n  swap2\n  tag_3\n  jump\t// in\ntag_2:\n    /* \"contracts/3_Ballot.sol\":1338:1349  chairperson */\n  0x00\n    /* \"contracts/3_Ballot.sol\":1338:1362  chairperson = msg.sender */\n  dup1\n  sload\n  not(sub(shl(0xa0, 0x01), 0x01))\n  and\n    /* \"contracts/3_Ballot.sol\":1352:1362  msg.sender */\n  caller\n    /* \"contracts/3_Ballot.sol\":1338:1362  chairperson = msg.sender */\n  swap1\n  dup2\n  or\n  dup3\n  sstore\n    /* \"contracts/3_Ballot.sol\":1372:1391  voters[chairperson] */\n  dup2\n  mstore\n    /* \"contracts/3_Ballot.sol\":1338:1362  chairperson = msg.sender */\n  0x01\n    /* \"contracts/3_Ballot.sol\":1372:1391  voters[chairperson] */\n  0x20\n  dup2\n  swap1\n  mstore\n  0x40\n  dup3\n  keccak256\n    /* \"contracts/3_Ballot.sol\":1372:1402  voters[chairperson].weight = 1 */\n  sstore\n    /* \"contracts/3_Ballot.sol\":1552:1898  for (uint i = 0; i < proposalNames.length; i++) {... */\ntag_6:\n    /* \"contracts/3_Ballot.sol\":1573:1586  proposalNames */\n  dup2\n    /* \"contracts/3_Ballot.sol\":1573:1593  proposalNames.length */\n  mload\n    /* \"contracts/3_Ballot.sol\":1569:1570  i */\n  dup2\n    /* \"contracts/3_Ballot.sol\":1569:1593  i < proposalNames.length */\n  lt\n    /* \"contracts/3_Ballot.sol\":1552:1898  for (uint i = 0; i < proposalNames.length; i++) {... */\n  iszero\n  tag_7\n  jumpi\n    /* \"contracts/3_Ballot.sol\":1777:1786  proposals */\n  0x02\n    /* \"contracts/3_Ballot.sol\":1792:1886  Proposal({... */\n  mload(0x40)\n  dup1\n  0x40\n  add\n  0x40\n  mstore\n  dup1\n    /* \"contracts/3_Ballot.sol\":1825:1838  proposalNames */\n  dup5\n    /* \"contracts/3_Ballot.sol\":1839:1840  i */\n  dup5\n    /* \"contracts/3_Ballot.sol\":1825:1841  proposalNames[i] */\n  dup2\n  mload\n  dup2\n  lt\n  tag_10\n  jumpi\n  tag_10\n  tag_11\n  jump\t// in\ntag_10:\n  0x20\n  swap1\n  dup2\n  mul\n  swap2\n  swap1\n  swap2\n  add\n  dup2\n  add\n  mload\n    /* \"contracts/3_Ballot.sol\":1792:1886  Proposal({... */\n  dup3\n  mstore\n    /* \"contracts/3_Ballot.sol\":1870:1871  0 */\n  0x00\n    /* \"contracts/3_Ballot.sol\":1792:1886  Proposal({... */\n  swap2\n  dup2\n  add\n  dup3\n  swap1\n  mstore\n    /* \"contracts/3_Ballot.sol\":1777:1887  proposals.push(Proposal({... */\n  dup4\n  sload\n  0x01\n  dup2\n  dup2\n  add\n  dup7\n  sstore\n  swap5\n  dup4\n  mstore\n  swap2\n  dup2\n  swap1\n  keccak256\n  dup4\n  mload\n  0x02\n  swap1\n  swap4\n  mul\n  add\n  swap2\n  dup3\n  sstore\n  swap2\n  swap1\n  swap2\n  add\n  mload\n  swap1\n  dup3\n  add\n  sstore\n    /* \"contracts/3_Ballot.sol\":1595:1598  i++ */\n  add\n    /* \"contracts/3_Ballot.sol\":1552:1898  for (uint i = 0; i < proposalNames.length; i++) {... */\n  jump(tag_6)\ntag_7:\n  pop\n    /* \"contracts/3_Ballot.sol\":1284:1904  constructor(bytes32[] memory proposalNames) {... */\n  pop\n    /* \"contracts/3_Ballot.sol\":157:6216  contract Ballot {... */\n  jump(tag_15)\n    /* \"#utility.yul\":14:141   */\ntag_14:\n    /* \"#utility.yul\":75:85   */\n  0x4e487b71\n    /* \"#utility.yul\":70:73   */\n  0xe0\n    /* \"#utility.yul\":66:86   */\n  shl\n    /* \"#utility.yul\":63:64   */\n  0x00\n    /* \"#utility.yul\":56:87   */\n  mstore\n    /* \"#utility.yul\":106:110   */\n  0x41\n    /* \"#utility.yul\":103:104   */\n  0x04\n    /* \"#utility.yul\":96:111   */\n  mstore\n    /* \"#utility.yul\":130:134   */\n  0x24\n    /* \"#utility.yul\":127:128   */\n  0x00\n    /* \"#utility.yul\":120:135   */\n  revert\n    /* \"#utility.yul\":146:1311   */\ntag_3:\n    /* \"#utility.yul\":241:247   */\n  0x00\n    /* \"#utility.yul\":294:296   */\n  0x20\n    /* \"#utility.yul\":282:291   */\n  dup3\n    /* \"#utility.yul\":273:280   */\n  dup5\n    /* \"#utility.yul\":269:292   */\n  sub\n    /* \"#utility.yul\":265:297   */\n  slt\n    /* \"#utility.yul\":262:314   */\n  iszero\n  tag_18\n  jumpi\n    /* \"#utility.yul\":310:311   */\n  0x00\n    /* \"#utility.yul\":307:308   */\n  0x00\n    /* \"#utility.yul\":300:312   */\n  revert\n    /* \"#utility.yul\":262:314   */\ntag_18:\n    /* \"#utility.yul\":337:353   */\n  dup2\n  mload\n  sub(shl(0x40, 0x01), 0x01)\n    /* \"#utility.yul\":365:395   */\n  dup2\n  gt\n    /* \"#utility.yul\":362:412   */\n  iszero\n  tag_19\n  jumpi\n    /* \"#utility.yul\":408:409   */\n  0x00\n    /* \"#utility.yul\":405:406   */\n  0x00\n    /* \"#utility.yul\":398:410   */\n  revert\n    /* \"#utility.yul\":362:412   */\ntag_19:\n    /* \"#utility.yul\":431:453   */\n  dup3\n  add\n    /* \"#utility.yul\":484:488   */\n  0x1f\n    /* \"#utility.yul\":476:489   */\n  dup2\n  add\n    /* \"#utility.yul\":472:499   */\n  dup5\n  sgt\n    /* \"#utility.yul\":462:517   */\n  tag_20\n  jumpi\n    /* \"#utility.yul\":513:514   */\n  0x00\n    /* \"#utility.yul\":510:511   */\n  0x00\n    /* \"#utility.yul\":503:515   */\n  revert\n    /* \"#utility.yul\":462:517   */\ntag_20:\n    /* \"#utility.yul\":540:549   */\n  dup1\n  mload\n  sub(shl(0x40, 0x01), 0x01)\n    /* \"#utility.yul\":561:591   */\n  dup2\n  gt\n    /* \"#utility.yul\":558:614   */\n  iszero\n  tag_22\n  jumpi\n    /* \"#utility.yul\":594:612   */\n  tag_22\n  tag_14\n  jump\t// in\ntag_22:\n    /* \"#utility.yul\":676:678   */\n  0x40\n    /* \"#utility.yul\":670:679   */\n  mload\n    /* \"#utility.yul\":637:638   */\n  0x05\n    /* \"#utility.yul\":633:647   */\n  dup3\n  swap1\n  shl\n  swap1\n    /* \"#utility.yul\":730:732   */\n  0x3f\n    /* \"#utility.yul\":722:733   */\n  dup3\n  add\n  not(0x1f)\n    /* \"#utility.yul\":718:743   */\n  and\n    /* \"#utility.yul\":706:744   */\n  dup2\n  add\n  sub(shl(0x40, 0x01), 0x01)\n    /* \"#utility.yul\":759:793   */\n  dup2\n  gt\n    /* \"#utility.yul\":795:817   */\n  dup3\n  dup3\n  lt\n    /* \"#utility.yul\":756:818   */\n  or\n    /* \"#utility.yul\":753:841   */\n  iszero\n  tag_24\n  jumpi\n    /* \"#utility.yul\":821:839   */\n  tag_24\n  tag_14\n  jump\t// in\ntag_24:\n    /* \"#utility.yul\":857:859   */\n  0x40\n    /* \"#utility.yul\":850:872   */\n  mstore\n    /* \"#utility.yul\":907:929   */\n  swap2\n  dup3\n  mstore\n    /* \"#utility.yul\":957:959   */\n  0x20\n    /* \"#utility.yul\":987:998   */\n  dup2\n  dup5\n  add\n    /* \"#utility.yul\":983:1003   */\n  dup2\n  add\n  swap3\n    /* \"#utility.yul\":907:929   */\n  swap1\n    /* \"#utility.yul\":945:960   */\n  dup2\n  add\n    /* \"#utility.yul\":1015:1034   */\n  dup8\n  dup5\n  gt\n    /* \"#utility.yul\":1012:1051   */\n  iszero\n  tag_25\n  jumpi\n    /* \"#utility.yul\":1047:1048   */\n  0x00\n    /* \"#utility.yul\":1044:1045   */\n  0x00\n    /* \"#utility.yul\":1037:1049   */\n  revert\n    /* \"#utility.yul\":1012:1051   */\ntag_25:\n    /* \"#utility.yul\":1079:1081   */\n  0x20\n    /* \"#utility.yul\":1075:1077   */\n  dup6\n    /* \"#utility.yul\":1071:1082   */\n  add\n    /* \"#utility.yul\":1060:1082   */\n  swap5\n  pop\n    /* \"#utility.yul\":1091:1280   */\ntag_26:\n    /* \"#utility.yul\":1107:1113   */\n  dup4\n    /* \"#utility.yul\":1102:1105   */\n  dup6\n    /* \"#utility.yul\":1099:1114   */\n  lt\n    /* \"#utility.yul\":1091:1280   */\n  iszero\n  tag_28\n  jumpi\n    /* \"#utility.yul\":1197:1207   */\n  dup5\n  mload\n    /* \"#utility.yul\":1220:1238   */\n  dup1\n  dup3\n  mstore\n    /* \"#utility.yul\":1267:1269   */\n  0x20\n    /* \"#utility.yul\":1124:1136   */\n  swap6\n  dup7\n  add\n  swap6\n    /* \"#utility.yul\":1197:1207   */\n  swap1\n  swap4\n  pop\n    /* \"#utility.yul\":1258:1270   */\n  add\n    /* \"#utility.yul\":1091:1280   */\n  jump(tag_26)\ntag_28:\n  pop\n    /* \"#utility.yul\":1299:1305   */\n  swap7\n    /* \"#utility.yul\":146:1311   */\n  swap6\n  pop\n  pop\n  pop\n  pop\n  pop\n  pop\n  jump\t// out\n    /* \"#utility.yul\":1316:1443   */\ntag_11:\n    /* \"#utility.yul\":1377:1387   */\n  0x4e487b71\n    /* \"#utility.yul\":1372:1375   */\n  0xe0\n    /* \"#utility.yul\":1368:1388   */\n  shl\n    /* \"#utility.yul\":1365:1366   */\n  0x00\n    /* \"#utility.yul\":1358:1389   */\n  mstore\n    /* \"#utility.yul\":1408:1412   */\n  0x32\n    /* \"#utility.yul\":1405:1406   */\n  0x04\n    /* \"#utility.yul\":1398:1413   */\n  mstore\n    /* \"#utility.yul\":1432:1436   */\n  0x24\n    /* \"#utility.yul\":1429:1430   */\n  0x00\n    /* \"#utility.yul\":1422:1437   */\n  revert\n    /* \"#utility.yul\":1316:1443   */\ntag_15:\n    /* \"contracts/3_Ballot.sol\":157:6216  contract Ballot {... */\n  dataSize(sub_0)\n  dup1\n  dataOffset(sub_0)\n  0x00\n  codecopy\n  0x00\n  return\nstop\n\nsub_0: assembly {\n        /* \"contracts/3_Ballot.sol\":157:6216  contract Ballot {... */\n      mstore(0x40, 0x80)\n      callvalue\n      dup1\n      iszero\n      tag_1\n      jumpi\n      revert(0x00, 0x00)\n    tag_1:\n      pop\n      jumpi(tag_2, lt(calldatasize, 0x04))\n      shr(0xe0, calldataload(0x00))\n      dup1\n      0x609ff1bd\n      gt\n      tag_11\n      jumpi\n      dup1\n      0x609ff1bd\n      eq\n      tag_7\n      jumpi\n      dup1\n      0x9e7b8d61\n      eq\n      tag_8\n      jumpi\n      dup1\n      0xa3ec138d\n      eq\n      tag_9\n      jumpi\n      dup1\n      0xe2ba53f0\n      eq\n      tag_10\n      jumpi\n      revert(0x00, 0x00)\n    tag_11:\n      dup1\n      0x0121b93f\n      eq\n      tag_3\n      jumpi\n      dup1\n      0x013cf08b\n      eq\n      tag_4\n      jumpi\n      dup1\n      0x2e4176cf\n      eq\n      tag_5\n      jumpi\n      dup1\n      0x5c19a95c\n      eq\n      tag_6\n      jumpi\n    tag_2:\n      revert(0x00, 0x00)\n        /* \"contracts/3_Ballot.sol\":4866:5326  function vote(uint proposal) external {... */\n    tag_3:\n      tag_12\n      tag_13\n      calldatasize\n      0x04\n      tag_14\n      jump\t// in\n    tag_13:\n      tag_15\n      jump\t// in\n    tag_12:\n      stop\n        /* \"contracts/3_Ballot.sol\":1120:1147  Proposal[] public proposals */\n    tag_4:\n      tag_16\n      tag_17\n      calldatasize\n      0x04\n      tag_14\n      jump\t// in\n    tag_17:\n      tag_18\n      jump\t// in\n    tag_16:\n      0x40\n      dup1\n      mload\n        /* \"#utility.yul\":373:398   */\n      swap3\n      dup4\n      mstore\n        /* \"#utility.yul\":429:431   */\n      0x20\n        /* \"#utility.yul\":414:432   */\n      dup4\n      add\n        /* \"#utility.yul\":407:441   */\n      swap2\n      swap1\n      swap2\n      mstore\n        /* \"#utility.yul\":346:364   */\n      add\n        /* \"contracts/3_Ballot.sol\":1120:1147  Proposal[] public proposals */\n    tag_19:\n      mload(0x40)\n      dup1\n      swap2\n      sub\n      swap1\n      return\n        /* \"contracts/3_Ballot.sol\":884:910  address public chairperson */\n    tag_5:\n      sload(0x00)\n      tag_21\n      swap1\n      sub(shl(0xa0, 0x01), 0x01)\n      and\n      dup2\n      jump\n    tag_21:\n      mload(0x40)\n      sub(shl(0xa0, 0x01), 0x01)\n        /* \"#utility.yul\":616:648   */\n      swap1\n      swap2\n      and\n        /* \"#utility.yul\":598:649   */\n      dup2\n      mstore\n        /* \"#utility.yul\":586:588   */\n      0x20\n        /* \"#utility.yul\":571:589   */\n      add\n        /* \"contracts/3_Ballot.sol\":884:910  address public chairperson */\n      tag_19\n        /* \"#utility.yul\":452:655   */\n      jump\n        /* \"contracts/3_Ballot.sol\":3068:4678  function delegate(address to) external {... */\n    tag_6:\n      tag_12\n      tag_26\n      calldatasize\n      0x04\n      tag_27\n      jump\t// in\n    tag_26:\n      tag_28\n      jump\t// in\n        /* \"contracts/3_Ballot.sol\":5512:5877  function winningProposal() public view... */\n    tag_7:\n      tag_29\n      tag_30\n      jump\t// in\n    tag_29:\n      mload(0x40)\n        /* \"#utility.yul\":1097:1122   */\n      swap1\n      dup2\n      mstore\n        /* \"#utility.yul\":1085:1087   */\n      0x20\n        /* \"#utility.yul\":1070:1088   */\n      add\n        /* \"contracts/3_Ballot.sol\":5512:5877  function winningProposal() public view... */\n      tag_19\n        /* \"#utility.yul\":951:1128   */\n      jump\n        /* \"contracts/3_Ballot.sol\":2061:2944  function giveRightToVote(address voter) external {... */\n    tag_8:\n      tag_12\n      tag_34\n      calldatasize\n      0x04\n      tag_27\n      jump\t// in\n    tag_34:\n      tag_35\n      jump\t// in\n        /* \"contracts/3_Ballot.sol\":1018:1057  mapping(address => Voter) public voters */\n    tag_9:\n      tag_36\n      tag_37\n      calldatasize\n      0x04\n      tag_27\n      jump\t// in\n    tag_37:\n      0x01\n      0x20\n      dup2\n      swap1\n      mstore\n      0x00\n      swap2\n      dup3\n      mstore\n      0x40\n      swap1\n      swap2\n      keccak256\n      dup1\n      sload\n      swap2\n      dup2\n      add\n      sload\n      0x02\n      swap1\n      swap2\n      add\n      sload\n      0xff\n      dup3\n      and\n      swap2\n      0x0100\n      swap1\n      div\n      sub(shl(0xa0, 0x01), 0x01)\n      and\n      swap1\n      dup5\n      jump\n    tag_36:\n      mload(0x40)\n      tag_19\n      swap5\n      swap4\n      swap3\n      swap2\n      swap1\n        /* \"#utility.yul\":1358:1383   */\n      swap4\n      dup5\n      mstore\n        /* \"#utility.yul\":1426:1440   */\n      swap2\n      iszero\n        /* \"#utility.yul\":1419:1441   */\n      iszero\n        /* \"#utility.yul\":1414:1416   */\n      0x20\n        /* \"#utility.yul\":1399:1417   */\n      dup5\n      add\n        /* \"#utility.yul\":1392:1442   */\n      mstore\n      sub(shl(0xa0, 0x01), 0x01)\n        /* \"#utility.yul\":1478:1510   */\n      and\n        /* \"#utility.yul\":1473:1475   */\n      0x40\n        /* \"#utility.yul\":1458:1476   */\n      dup4\n      add\n        /* \"#utility.yul\":1451:1511   */\n      mstore\n        /* \"#utility.yul\":1542:1544   */\n      0x60\n        /* \"#utility.yul\":1527:1545   */\n      dup3\n      add\n        /* \"#utility.yul\":1520:1554   */\n      mstore\n        /* \"#utility.yul\":1345:1348   */\n      0x80\n        /* \"#utility.yul\":1330:1349   */\n      add\n      swap1\n        /* \"#utility.yul\":1133:1560   */\n      jump\n        /* \"contracts/3_Ballot.sol\":6068:6214  function winnerName() external view... */\n    tag_10:\n      tag_29\n      tag_42\n      jump\t// in\n        /* \"contracts/3_Ballot.sol\":4866:5326  function vote(uint proposal) external {... */\n    tag_15:\n        /* \"contracts/3_Ballot.sol\":4944:4954  msg.sender */\n      caller\n        /* \"contracts/3_Ballot.sol\":4914:4934  Voter storage sender */\n      0x00\n        /* \"contracts/3_Ballot.sol\":4937:4955  voters[msg.sender] */\n      swap1\n      dup2\n      mstore\n        /* \"contracts/3_Ballot.sol\":4937:4943  voters */\n      0x01\n        /* \"contracts/3_Ballot.sol\":4937:4955  voters[msg.sender] */\n      0x20\n      mstore\n      0x40\n      dup2\n      keccak256\n        /* \"contracts/3_Ballot.sol\":4973:4986  sender.weight */\n      dup1\n      sload\n        /* \"contracts/3_Ballot.sol\":4937:4955  voters[msg.sender] */\n      swap1\n      swap2\n        /* \"contracts/3_Ballot.sol\":4973:4991  sender.weight != 0 */\n      sub\n        /* \"contracts/3_Ballot.sol\":4965:5016  require(sender.weight != 0, \"Has no right to vote\") */\n      tag_46\n      jumpi\n      mload(0x40)\n      shl(0xe5, 0x461bcd)\n      dup2\n      mstore\n        /* \"#utility.yul\":1949:1951   */\n      0x20\n        /* \"contracts/3_Ballot.sol\":4965:5016  require(sender.weight != 0, \"Has no right to vote\") */\n      0x04\n      dup3\n      add\n        /* \"#utility.yul\":1931:1952   */\n      mstore\n        /* \"#utility.yul\":1988:1990   */\n      0x14\n        /* \"#utility.yul\":1968:1986   */\n      0x24\n      dup3\n      add\n        /* \"#utility.yul\":1961:1991   */\n      mstore\n      shl(0x60, 0x486173206e6f20726967687420746f20766f7465)\n        /* \"#utility.yul\":2007:2025   */\n      0x44\n      dup3\n      add\n        /* \"#utility.yul\":2000:2050   */\n      mstore\n        /* \"#utility.yul\":2067:2085   */\n      0x64\n      add\n        /* \"contracts/3_Ballot.sol\":4965:5016  require(sender.weight != 0, \"Has no right to vote\") */\n    tag_47:\n      mload(0x40)\n      dup1\n      swap2\n      sub\n      swap1\n      revert\n    tag_46:\n        /* \"contracts/3_Ballot.sol\":5035:5047  sender.voted */\n      0x01\n      dup2\n      add\n      sload\n      0xff\n      and\n        /* \"contracts/3_Ballot.sol\":5034:5047  !sender.voted */\n      iszero\n        /* \"contracts/3_Ballot.sol\":5026:5066  require(!sender.voted, \"Already voted.\") */\n      tag_49\n      jumpi\n      mload(0x40)\n      shl(0xe5, 0x461bcd)\n      dup2\n      mstore\n        /* \"#utility.yul\":2298:2300   */\n      0x20\n        /* \"contracts/3_Ballot.sol\":5026:5066  require(!sender.voted, \"Already voted.\") */\n      0x04\n      dup3\n      add\n        /* \"#utility.yul\":2280:2301   */\n      mstore\n        /* \"#utility.yul\":2337:2339   */\n      0x0e\n        /* \"#utility.yul\":2317:2335   */\n      0x24\n      dup3\n      add\n        /* \"#utility.yul\":2310:2340   */\n      mstore\n      shl(0x91, 0x20b63932b0b23c903b37ba32b217)\n        /* \"#utility.yul\":2356:2374   */\n      0x44\n      dup3\n      add\n        /* \"#utility.yul\":2349:2393   */\n      mstore\n        /* \"#utility.yul\":2410:2428   */\n      0x64\n      add\n        /* \"contracts/3_Ballot.sol\":5026:5066  require(!sender.voted, \"Already voted.\") */\n      tag_47\n        /* \"#utility.yul\":2096:2434   */\n      jump\n        /* \"contracts/3_Ballot.sol\":5026:5066  require(!sender.voted, \"Already voted.\") */\n    tag_49:\n        /* \"contracts/3_Ballot.sol\":5091:5095  true */\n      0x01\n        /* \"contracts/3_Ballot.sol\":5076:5088  sender.voted */\n      dup2\n      dup2\n      add\n        /* \"contracts/3_Ballot.sol\":5076:5095  sender.voted = true */\n      dup1\n      sload\n      not(0xff)\n      and\n      swap1\n      swap2\n      or\n      swap1\n      sstore\n        /* \"contracts/3_Ballot.sol\":5105:5116  sender.vote */\n      0x02\n      dup1\n      dup3\n      add\n        /* \"contracts/3_Ballot.sol\":5105:5127  sender.vote = proposal */\n      dup4\n      swap1\n      sstore\n        /* \"contracts/3_Ballot.sol\":5306:5319  sender.weight */\n      dup2\n      sload\n        /* \"contracts/3_Ballot.sol\":5273:5292  proposals[proposal] */\n      dup2\n      sload\n        /* \"contracts/3_Ballot.sol\":5306:5319  sender.weight */\n      swap1\n      swap2\n        /* \"contracts/3_Ballot.sol\":5105:5116  sender.vote */\n      swap1\n        /* \"contracts/3_Ballot.sol\":5119:5127  proposal */\n      dup5\n      swap1\n        /* \"contracts/3_Ballot.sol\":5273:5292  proposals[proposal] */\n      dup2\n      lt\n      tag_53\n      jumpi\n      tag_53\n      tag_54\n      jump\t// in\n    tag_53:\n      swap1\n      0x00\n      mstore\n      keccak256(0x00, 0x20)\n      swap1\n      0x02\n      mul\n      add\n        /* \"contracts/3_Ballot.sol\":5273:5302  proposals[proposal].voteCount */\n      0x01\n      add\n      0x00\n        /* \"contracts/3_Ballot.sol\":5273:5319  proposals[proposal].voteCount += sender.weight */\n      dup3\n      dup3\n      sload\n      tag_56\n      swap2\n      swap1\n      tag_57\n      jump\t// in\n    tag_56:\n      swap1\n      swap2\n      sstore\n      pop\n      pop\n      pop\n      pop\n        /* \"contracts/3_Ballot.sol\":4866:5326  function vote(uint proposal) external {... */\n      jump\t// out\n        /* \"contracts/3_Ballot.sol\":1120:1147  Proposal[] public proposals */\n    tag_18:\n      0x02\n      dup2\n      dup2\n      sload\n      dup2\n      lt\n      tag_58\n      jumpi\n      0x00\n      dup1\n      revert\n    tag_58:\n      0x00\n      swap2\n      dup3\n      mstore\n      0x20\n      swap1\n      swap2\n      keccak256\n      0x02\n      swap1\n      swap2\n      mul\n      add\n      dup1\n      sload\n      0x01\n      swap1\n      swap2\n      add\n      sload\n      swap1\n      swap2\n      pop\n      dup3\n      jump\t// out\n        /* \"contracts/3_Ballot.sol\":3068:4678  function delegate(address to) external {... */\n    tag_28:\n        /* \"contracts/3_Ballot.sol\":3176:3186  msg.sender */\n      caller\n        /* \"contracts/3_Ballot.sol\":3146:3166  Voter storage sender */\n      0x00\n        /* \"contracts/3_Ballot.sol\":3169:3187  voters[msg.sender] */\n      swap1\n      dup2\n      mstore\n        /* \"contracts/3_Ballot.sol\":3169:3175  voters */\n      0x01\n        /* \"contracts/3_Ballot.sol\":3169:3187  voters[msg.sender] */\n      0x20\n      mstore\n      0x40\n      dup2\n      keccak256\n        /* \"contracts/3_Ballot.sol\":3205:3218  sender.weight */\n      dup1\n      sload\n        /* \"contracts/3_Ballot.sol\":3169:3187  voters[msg.sender] */\n      swap1\n      swap2\n        /* \"contracts/3_Ballot.sol\":3205:3223  sender.weight != 0 */\n      sub\n        /* \"contracts/3_Ballot.sol\":3197:3253  require(sender.weight != 0, \"You have no right to vote\") */\n      tag_61\n      jumpi\n      mload(0x40)\n      shl(0xe5, 0x461bcd)\n      dup2\n      mstore\n        /* \"#utility.yul\":3000:3002   */\n      0x20\n        /* \"contracts/3_Ballot.sol\":3197:3253  require(sender.weight != 0, \"You have no right to vote\") */\n      0x04\n      dup3\n      add\n        /* \"#utility.yul\":2982:3003   */\n      mstore\n        /* \"#utility.yul\":3039:3041   */\n      0x19\n        /* \"#utility.yul\":3019:3037   */\n      0x24\n      dup3\n      add\n        /* \"#utility.yul\":3012:3042   */\n      mstore\n        /* \"#utility.yul\":3078:3105   */\n      0x596f752068617665206e6f20726967687420746f20766f746500000000000000\n        /* \"#utility.yul\":3058:3076   */\n      0x44\n      dup3\n      add\n        /* \"#utility.yul\":3051:3106   */\n      mstore\n        /* \"#utility.yul\":3123:3141   */\n      0x64\n      add\n        /* \"contracts/3_Ballot.sol\":3197:3253  require(sender.weight != 0, \"You have no right to vote\") */\n      tag_47\n        /* \"#utility.yul\":2798:3147   */\n      jump\n        /* \"contracts/3_Ballot.sol\":3197:3253  require(sender.weight != 0, \"You have no right to vote\") */\n    tag_61:\n        /* \"contracts/3_Ballot.sol\":3272:3284  sender.voted */\n      0x01\n      dup2\n      add\n      sload\n      0xff\n      and\n        /* \"contracts/3_Ballot.sol\":3271:3284  !sender.voted */\n      iszero\n        /* \"contracts/3_Ballot.sol\":3263:3307  require(!sender.voted, \"You already voted.\") */\n      tag_64\n      jumpi\n      mload(0x40)\n      shl(0xe5, 0x461bcd)\n      dup2\n      mstore\n        /* \"#utility.yul\":3354:3356   */\n      0x20\n        /* \"contracts/3_Ballot.sol\":3263:3307  require(!sender.voted, \"You already voted.\") */\n      0x04\n      dup3\n      add\n        /* \"#utility.yul\":3336:3357   */\n      mstore\n        /* \"#utility.yul\":3393:3395   */\n      0x12\n        /* \"#utility.yul\":3373:3391   */\n      0x24\n      dup3\n      add\n        /* \"#utility.yul\":3366:3396   */\n      mstore\n      shl(0x71, 0x2cb7ba9030b63932b0b23c903b37ba32b217)\n        /* \"#utility.yul\":3412:3430   */\n      0x44\n      dup3\n      add\n        /* \"#utility.yul\":3405:3453   */\n      mstore\n        /* \"#utility.yul\":3470:3488   */\n      0x64\n      add\n        /* \"contracts/3_Ballot.sol\":3263:3307  require(!sender.voted, \"You already voted.\") */\n      tag_47\n        /* \"#utility.yul\":3152:3494   */\n      jump\n        /* \"contracts/3_Ballot.sol\":3263:3307  require(!sender.voted, \"You already voted.\") */\n    tag_64:\n        /* \"contracts/3_Ballot.sol\":3332:3342  msg.sender */\n      caller\n      sub(shl(0xa0, 0x01), 0x01)\n        /* \"contracts/3_Ballot.sol\":3326:3342  to != msg.sender */\n      dup4\n      and\n      sub\n        /* \"contracts/3_Ballot.sol\":3318:3377  require(to != msg.sender, \"Self-delegation is disallowed.\") */\n      tag_67\n      jumpi\n      mload(0x40)\n      shl(0xe5, 0x461bcd)\n      dup2\n      mstore\n        /* \"#utility.yul\":3701:3703   */\n      0x20\n        /* \"contracts/3_Ballot.sol\":3318:3377  require(to != msg.sender, \"Self-delegation is disallowed.\") */\n      0x04\n      dup3\n      add\n        /* \"#utility.yul\":3683:3704   */\n      mstore\n        /* \"#utility.yul\":3740:3742   */\n      0x1e\n        /* \"#utility.yul\":3720:3738   */\n      0x24\n      dup3\n      add\n        /* \"#utility.yul\":3713:3743   */\n      mstore\n        /* \"#utility.yul\":3779:3811   */\n      0x53656c662d64656c65676174696f6e20697320646973616c6c6f7765642e0000\n        /* \"#utility.yul\":3759:3777   */\n      0x44\n      dup3\n      add\n        /* \"#utility.yul\":3752:3812   */\n      mstore\n        /* \"#utility.yul\":3829:3847   */\n      0x64\n      add\n        /* \"contracts/3_Ballot.sol\":3318:3377  require(to != msg.sender, \"Self-delegation is disallowed.\") */\n      tag_47\n        /* \"#utility.yul\":3499:3853   */\n      jump\n        /* \"contracts/3_Ballot.sol\":3318:3377  require(to != msg.sender, \"Self-delegation is disallowed.\") */\n    tag_67:\n      sub(shl(0xa0, 0x01), 0x01)\n        /* \"contracts/3_Ballot.sol\":3803:3813  voters[to] */\n      dup3\n      dup2\n      and\n        /* \"contracts/3_Ballot.sol\":3834:3835  0 */\n      0x00\n        /* \"contracts/3_Ballot.sol\":3803:3813  voters[to] */\n      swap1\n      dup2\n      mstore\n        /* \"contracts/3_Ballot.sol\":3803:3809  voters */\n      0x01\n        /* \"contracts/3_Ballot.sol\":3803:3813  voters[to] */\n      0x20\n      dup2\n      swap1\n      mstore\n      0x40\n      swap1\n      swap2\n      keccak256\n        /* \"contracts/3_Ballot.sol\":3803:3822  voters[to].delegate */\n      add\n      sload\n      0x0100\n      swap1\n      div\n      and\n        /* \"contracts/3_Ballot.sol\":3803:3836  voters[to].delegate != address(0) */\n      iszero\n        /* \"contracts/3_Ballot.sol\":3796:4019  while (voters[to].delegate != address(0)) {... */\n      tag_71\n      jumpi\n      sub(shl(0xa0, 0x01), 0x01)\n        /* \"contracts/3_Ballot.sol\":3857:3867  voters[to] */\n      swap2\n      dup3\n      and\n      0x00\n      swap1\n      dup2\n      mstore\n        /* \"contracts/3_Ballot.sol\":3857:3863  voters */\n      0x01\n        /* \"contracts/3_Ballot.sol\":3857:3867  voters[to] */\n      0x20\n      dup2\n      swap1\n      mstore\n      0x40\n      swap1\n      swap2\n      keccak256\n        /* \"contracts/3_Ballot.sol\":3857:3876  voters[to].delegate */\n      add\n      sload\n      0x0100\n      swap1\n      div\n      swap1\n      swap2\n      and\n      swap1\n        /* \"contracts/3_Ballot.sol\":3968:3978  msg.sender */\n      caller\n        /* \"contracts/3_Ballot.sol\":3962:3978  to != msg.sender */\n      dup3\n      sub\n        /* \"contracts/3_Ballot.sol\":3954:4008  require(to != msg.sender, \"Found loop in delegation.\") */\n      tag_72\n      jumpi\n      mload(0x40)\n      shl(0xe5, 0x461bcd)\n      dup2\n      mstore\n        /* \"#utility.yul\":4060:4062   */\n      0x20\n        /* \"contracts/3_Ballot.sol\":3954:4008  require(to != msg.sender, \"Found loop in delegation.\") */\n      0x04\n      dup3\n      add\n        /* \"#utility.yul\":4042:4063   */\n      mstore\n        /* \"#utility.yul\":4099:4101   */\n      0x19\n        /* \"#utility.yul\":4079:4097   */\n      0x24\n      dup3\n      add\n        /* \"#utility.yul\":4072:4102   */\n      mstore\n        /* \"#utility.yul\":4138:4165   */\n      0x466f756e64206c6f6f7020696e2064656c65676174696f6e2e00000000000000\n        /* \"#utility.yul\":4118:4136   */\n      0x44\n      dup3\n      add\n        /* \"#utility.yul\":4111:4166   */\n      mstore\n        /* \"#utility.yul\":4183:4201   */\n      0x64\n      add\n        /* \"contracts/3_Ballot.sol\":3954:4008  require(to != msg.sender, \"Found loop in delegation.\") */\n      tag_47\n        /* \"#utility.yul\":3858:4207   */\n      jump\n        /* \"contracts/3_Ballot.sol\":3954:4008  require(to != msg.sender, \"Found loop in delegation.\") */\n    tag_72:\n        /* \"contracts/3_Ballot.sol\":3796:4019  while (voters[to].delegate != address(0)) {... */\n      jump(tag_67)\n    tag_71:\n      sub(shl(0xa0, 0x01), 0x01)\n        /* \"contracts/3_Ballot.sol\":4055:4065  voters[to] */\n      dup3\n      and\n        /* \"contracts/3_Ballot.sol\":4029:4052  Voter storage delegate_ */\n      0x00\n        /* \"contracts/3_Ballot.sol\":4055:4065  voters[to] */\n      swap1\n      dup2\n      mstore\n        /* \"contracts/3_Ballot.sol\":4055:4061  voters */\n      0x01\n        /* \"contracts/3_Ballot.sol\":4055:4065  voters[to] */\n      0x20\n      dup2\n      swap1\n      mstore\n      0x40\n      swap1\n      swap2\n      keccak256\n        /* \"contracts/3_Ballot.sol\":4148:4164  delegate_.weight */\n      dup1\n      sload\n        /* \"contracts/3_Ballot.sol\":4055:4065  voters[to] */\n      swap1\n      swap2\n      gt\n        /* \"contracts/3_Ballot.sol\":4148:4169  delegate_.weight >= 1 */\n      iszero\n        /* \"contracts/3_Ballot.sol\":4140:4170  require(delegate_.weight >= 1) */\n      tag_75\n      jumpi\n      revert(0x00, 0x00)\n    tag_75:\n        /* \"contracts/3_Ballot.sol\":4285:4289  true */\n      0x01\n        /* \"contracts/3_Ballot.sol\":4270:4282  sender.voted */\n      dup3\n      dup2\n      add\n        /* \"contracts/3_Ballot.sol\":4270:4289  sender.voted = true */\n      dup1\n      sload\n      not(sub(shl(0xa8, 0x01), 0x01))\n        /* \"contracts/3_Ballot.sol\":4299:4319  sender.delegate = to */\n      and\n        /* \"contracts/3_Ballot.sol\":4270:4289  sender.voted = true */\n      0x0100\n      sub(shl(0xa0, 0x01), 0x01)\n        /* \"contracts/3_Ballot.sol\":4299:4319  sender.delegate = to */\n      dup8\n      and\n      mul\n      or\n      dup3\n      or\n      swap1\n      sstore\n        /* \"contracts/3_Ballot.sol\":4334:4349  delegate_.voted */\n      dup2\n      add\n      sload\n        /* \"contracts/3_Ballot.sol\":4270:4289  sender.voted = true */\n      0xff\n        /* \"contracts/3_Ballot.sol\":4334:4349  delegate_.voted */\n      and\n        /* \"contracts/3_Ballot.sol\":4330:4672  if (delegate_.voted) {... */\n      iszero\n      tag_76\n      jumpi\n        /* \"contracts/3_Ballot.sol\":4501:4514  sender.weight */\n      dup2\n      sload\n        /* \"contracts/3_Ballot.sol\":4462:4471  proposals */\n      0x02\n        /* \"contracts/3_Ballot.sol\":4472:4486  delegate_.vote */\n      dup3\n      dup2\n      add\n      sload\n        /* \"contracts/3_Ballot.sol\":4462:4487  proposals[delegate_.vote] */\n      dup2\n      sload\n      dup2\n      lt\n      tag_78\n      jumpi\n      tag_78\n      tag_54\n      jump\t// in\n    tag_78:\n      swap1\n      0x00\n      mstore\n      keccak256(0x00, 0x20)\n      swap1\n      0x02\n      mul\n      add\n        /* \"contracts/3_Ballot.sol\":4462:4497  proposals[delegate_.vote].voteCount */\n      0x01\n      add\n      0x00\n        /* \"contracts/3_Ballot.sol\":4462:4514  proposals[delegate_.vote].voteCount += sender.weight */\n      dup3\n      dup3\n      sload\n      tag_80\n      swap2\n      swap1\n      tag_57\n      jump\t// in\n    tag_80:\n      swap1\n      swap2\n      sstore\n      pop\n        /* \"contracts/3_Ballot.sol\":4330:4672  if (delegate_.voted) {... */\n      tag_81\n      swap1\n      pop\n      jump\n    tag_76:\n        /* \"contracts/3_Ballot.sol\":4648:4661  sender.weight */\n      dup2\n      sload\n        /* \"contracts/3_Ballot.sol\":4628:4661  delegate_.weight += sender.weight */\n      dup2\n      sload\n        /* \"contracts/3_Ballot.sol\":4628:4637  delegate_ */\n      dup3\n      swap1\n        /* \"contracts/3_Ballot.sol\":4648:4661  sender.weight */\n      0x00\n      swap1\n        /* \"contracts/3_Ballot.sol\":4628:4661  delegate_.weight += sender.weight */\n      tag_82\n      swap1\n        /* \"contracts/3_Ballot.sol\":4648:4661  sender.weight */\n      dup5\n      swap1\n        /* \"contracts/3_Ballot.sol\":4628:4661  delegate_.weight += sender.weight */\n      tag_57\n      jump\t// in\n    tag_82:\n      swap1\n      swap2\n      sstore\n      pop\n      pop\n        /* \"contracts/3_Ballot.sol\":4330:4672  if (delegate_.voted) {... */\n    tag_81:\n        /* \"contracts/3_Ballot.sol\":3107:4678  {... */\n      pop\n      pop\n        /* \"contracts/3_Ballot.sol\":3068:4678  function delegate(address to) external {... */\n      pop\n      jump\t// out\n        /* \"contracts/3_Ballot.sol\":5512:5877  function winningProposal() public view... */\n    tag_30:\n        /* \"contracts/3_Ballot.sol\":5572:5593  uint winningProposal_ */\n      0x00\n      dup1\n      dup1\n        /* \"contracts/3_Ballot.sol\":5644:5871  for (uint p = 0; p < proposals.length; p++) {... */\n    tag_84:\n        /* \"contracts/3_Ballot.sol\":5665:5674  proposals */\n      0x02\n        /* \"contracts/3_Ballot.sol\":5665:5681  proposals.length */\n      sload\n        /* \"contracts/3_Ballot.sol\":5661:5681  p < proposals.length */\n      dup2\n      lt\n        /* \"contracts/3_Ballot.sol\":5644:5871  for (uint p = 0; p < proposals.length; p++) {... */\n      iszero\n      tag_85\n      jumpi\n        /* \"contracts/3_Ballot.sol\":5731:5747  winningVoteCount */\n      dup2\n        /* \"contracts/3_Ballot.sol\":5706:5715  proposals */\n      0x02\n        /* \"contracts/3_Ballot.sol\":5716:5717  p */\n      dup3\n        /* \"contracts/3_Ballot.sol\":5706:5718  proposals[p] */\n      dup2\n      sload\n      dup2\n      lt\n      tag_88\n      jumpi\n      tag_88\n      tag_54\n      jump\t// in\n    tag_88:\n      swap1\n      0x00\n      mstore\n      keccak256(0x00, 0x20)\n      swap1\n      0x02\n      mul\n      add\n        /* \"contracts/3_Ballot.sol\":5706:5728  proposals[p].voteCount */\n      0x01\n      add\n      sload\n        /* \"contracts/3_Ballot.sol\":5706:5747  proposals[p].voteCount > winningVoteCount */\n      gt\n        /* \"contracts/3_Ballot.sol\":5702:5861  if (proposals[p].voteCount > winningVoteCount) {... */\n      iszero\n      tag_90\n      jumpi\n        /* \"contracts/3_Ballot.sol\":5786:5795  proposals */\n      0x02\n        /* \"contracts/3_Ballot.sol\":5796:5797  p */\n      dup2\n        /* \"contracts/3_Ballot.sol\":5786:5798  proposals[p] */\n      dup2\n      sload\n      dup2\n      lt\n      tag_92\n      jumpi\n      tag_92\n      tag_54\n      jump\t// in\n    tag_92:\n      swap1\n      0x00\n      mstore\n      keccak256(0x00, 0x20)\n      swap1\n      0x02\n      mul\n      add\n        /* \"contracts/3_Ballot.sol\":5786:5808  proposals[p].voteCount */\n      0x01\n      add\n      sload\n        /* \"contracts/3_Ballot.sol\":5767:5808  winningVoteCount = proposals[p].voteCount */\n      swap2\n      pop\n        /* \"contracts/3_Ballot.sol\":5845:5846  p */\n      dup1\n        /* \"contracts/3_Ballot.sol\":5826:5846  winningProposal_ = p */\n      swap3\n      pop\n        /* \"contracts/3_Ballot.sol\":5702:5861  if (proposals[p].voteCount > winningVoteCount) {... */\n    tag_90:\n        /* \"contracts/3_Ballot.sol\":5683:5686  p++ */\n      0x01\n      add\n        /* \"contracts/3_Ballot.sol\":5644:5871  for (uint p = 0; p < proposals.length; p++) {... */\n      jump(tag_84)\n    tag_85:\n      pop\n        /* \"contracts/3_Ballot.sol\":5599:5877  {... */\n      pop\n        /* \"contracts/3_Ballot.sol\":5512:5877  function winningProposal() public view... */\n      swap1\n      jump\t// out\n        /* \"contracts/3_Ballot.sol\":2061:2944  function giveRightToVote(address voter) external {... */\n    tag_35:\n        /* \"contracts/3_Ballot.sol\":2641:2652  chairperson */\n      and(sub(shl(0xa0, 0x01), 0x01), sload(0x00))\n        /* \"contracts/3_Ballot.sol\":2627:2637  msg.sender */\n      caller\n        /* \"contracts/3_Ballot.sol\":2627:2652  msg.sender == chairperson */\n      eq\n        /* \"contracts/3_Ballot.sol\":2606:2718  require(... */\n      tag_95\n      jumpi\n      mload(0x40)\n      shl(0xe5, 0x461bcd)\n      dup2\n      mstore\n        /* \"#utility.yul\":4414:4416   */\n      0x20\n        /* \"contracts/3_Ballot.sol\":2606:2718  require(... */\n      0x04\n      dup3\n      add\n        /* \"#utility.yul\":4396:4417   */\n      mstore\n        /* \"#utility.yul\":4453:4455   */\n      0x28\n        /* \"#utility.yul\":4433:4451   */\n      0x24\n      dup3\n      add\n        /* \"#utility.yul\":4426:4456   */\n      mstore\n        /* \"#utility.yul\":4492:4526   */\n      0x4f6e6c79206368616972706572736f6e2063616e206769766520726967687420\n        /* \"#utility.yul\":4472:4490   */\n      0x44\n      dup3\n      add\n        /* \"#utility.yul\":4465:4527   */\n      mstore\n      shl(0xc1, 0x3a37903b37ba3297)\n        /* \"#utility.yul\":4543:4561   */\n      0x64\n      dup3\n      add\n        /* \"#utility.yul\":4536:4574   */\n      mstore\n        /* \"#utility.yul\":4591:4610   */\n      0x84\n      add\n        /* \"contracts/3_Ballot.sol\":2606:2718  require(... */\n      tag_47\n        /* \"#utility.yul\":4212:4616   */\n      jump\n        /* \"contracts/3_Ballot.sol\":2606:2718  require(... */\n    tag_95:\n      sub(shl(0xa0, 0x01), 0x01)\n        /* \"contracts/3_Ballot.sol\":2750:2763  voters[voter] */\n      dup2\n      and\n      0x00\n      swap1\n      dup2\n      mstore\n        /* \"contracts/3_Ballot.sol\":2750:2756  voters */\n      0x01\n        /* \"contracts/3_Ballot.sol\":2750:2763  voters[voter] */\n      0x20\n      dup2\n      swap1\n      mstore\n      0x40\n      swap1\n      swap2\n      keccak256\n        /* \"contracts/3_Ballot.sol\":2750:2769  voters[voter].voted */\n      add\n      sload\n      0xff\n      and\n        /* \"contracts/3_Ballot.sol\":2749:2769  !voters[voter].voted */\n      iszero\n        /* \"contracts/3_Ballot.sol\":2728:2819  require(... */\n      tag_98\n      jumpi\n      mload(0x40)\n      shl(0xe5, 0x461bcd)\n      dup2\n      mstore\n        /* \"#utility.yul\":4823:4825   */\n      0x20\n        /* \"contracts/3_Ballot.sol\":2728:2819  require(... */\n      0x04\n      dup3\n      add\n        /* \"#utility.yul\":4805:4826   */\n      mstore\n        /* \"#utility.yul\":4862:4864   */\n      0x18\n        /* \"#utility.yul\":4842:4860   */\n      0x24\n      dup3\n      add\n        /* \"#utility.yul\":4835:4865   */\n      mstore\n        /* \"#utility.yul\":4901:4927   */\n      0x54686520766f74657220616c726561647920766f7465642e0000000000000000\n        /* \"#utility.yul\":4881:4899   */\n      0x44\n      dup3\n      add\n        /* \"#utility.yul\":4874:4928   */\n      mstore\n        /* \"#utility.yul\":4945:4963   */\n      0x64\n      add\n        /* \"contracts/3_Ballot.sol\":2728:2819  require(... */\n      tag_47\n        /* \"#utility.yul\":4621:4969   */\n      jump\n        /* \"contracts/3_Ballot.sol\":2728:2819  require(... */\n    tag_98:\n      sub(shl(0xa0, 0x01), 0x01)\n        /* \"contracts/3_Ballot.sol\":2837:2850  voters[voter] */\n      dup2\n      and\n      0x00\n      swap1\n      dup2\n      mstore\n        /* \"contracts/3_Ballot.sol\":2837:2843  voters */\n      0x01\n        /* \"contracts/3_Ballot.sol\":2837:2850  voters[voter] */\n      0x20\n      mstore\n      0x40\n      swap1\n      keccak256\n        /* \"contracts/3_Ballot.sol\":2837:2857  voters[voter].weight */\n      sload\n        /* \"contracts/3_Ballot.sol\":2837:2862  voters[voter].weight == 0 */\n      iszero\n        /* \"contracts/3_Ballot.sol\":2829:2903  require(voters[voter].weight == 0, \"Voter already has the right to vote.\") */\n      tag_101\n      jumpi\n      mload(0x40)\n      shl(0xe5, 0x461bcd)\n      dup2\n      mstore\n        /* \"#utility.yul\":5176:5178   */\n      0x20\n        /* \"contracts/3_Ballot.sol\":2829:2903  require(voters[voter].weight == 0, \"Voter already has the right to vote.\") */\n      0x04\n      dup3\n      add\n        /* \"#utility.yul\":5158:5179   */\n      mstore\n        /* \"#utility.yul\":5215:5217   */\n      0x24\n        /* \"#utility.yul\":5195:5213   */\n      dup1\n      dup3\n      add\n        /* \"#utility.yul\":5188:5218   */\n      mstore\n        /* \"#utility.yul\":5254:5288   */\n      0x566f74657220616c7265616479206861732074686520726967687420746f2076\n        /* \"#utility.yul\":5234:5252   */\n      0x44\n      dup3\n      add\n        /* \"#utility.yul\":5227:5289   */\n      mstore\n      shl(0xe1, 0x37ba3297)\n        /* \"#utility.yul\":5305:5323   */\n      0x64\n      dup3\n      add\n        /* \"#utility.yul\":5298:5332   */\n      mstore\n        /* \"#utility.yul\":5349:5368   */\n      0x84\n      add\n        /* \"contracts/3_Ballot.sol\":2829:2903  require(voters[voter].weight == 0, \"Voter already has the right to vote.\") */\n      tag_47\n        /* \"#utility.yul\":4974:5374   */\n      jump\n        /* \"contracts/3_Ballot.sol\":2829:2903  require(voters[voter].weight == 0, \"Voter already has the right to vote.\") */\n    tag_101:\n      sub(shl(0xa0, 0x01), 0x01)\n        /* \"contracts/3_Ballot.sol\":2913:2926  voters[voter] */\n      and\n      0x00\n      swap1\n      dup2\n      mstore\n        /* \"contracts/3_Ballot.sol\":2936:2937  1 */\n      0x01\n        /* \"contracts/3_Ballot.sol\":2913:2926  voters[voter] */\n      0x20\n      dup2\n      swap1\n      mstore\n      0x40\n      swap1\n      swap2\n      keccak256\n        /* \"contracts/3_Ballot.sol\":2913:2937  voters[voter].weight = 1 */\n      sstore\n        /* \"contracts/3_Ballot.sol\":2061:2944  function giveRightToVote(address voter) external {... */\n      jump\t// out\n        /* \"contracts/3_Ballot.sol\":6068:6214  function winnerName() external view... */\n    tag_42:\n        /* \"contracts/3_Ballot.sol\":6125:6144  bytes32 winnerName_ */\n      0x00\n        /* \"contracts/3_Ballot.sol\":6174:6183  proposals */\n      0x02\n        /* \"contracts/3_Ballot.sol\":6184:6201  winningProposal() */\n      tag_105\n        /* \"contracts/3_Ballot.sol\":6184:6199  winningProposal */\n      tag_30\n        /* \"contracts/3_Ballot.sol\":6184:6201  winningProposal() */\n      jump\t// in\n    tag_105:\n        /* \"contracts/3_Ballot.sol\":6174:6202  proposals[winningProposal()] */\n      dup2\n      sload\n      dup2\n      lt\n      tag_107\n      jumpi\n      tag_107\n      tag_54\n      jump\t// in\n    tag_107:\n      swap1\n      0x00\n      mstore\n      keccak256(0x00, 0x20)\n      swap1\n      0x02\n      mul\n      add\n        /* \"contracts/3_Ballot.sol\":6174:6207  proposals[winningProposal()].name */\n      0x00\n      add\n      sload\n        /* \"contracts/3_Ballot.sol\":6160:6207  winnerName_ = proposals[winningProposal()].name */\n      swap1\n      pop\n        /* \"contracts/3_Ballot.sol\":6068:6214  function winnerName() external view... */\n      swap1\n      jump\t// out\n        /* \"#utility.yul\":14:194   */\n    tag_14:\n        /* \"#utility.yul\":73:79   */\n      0x00\n        /* \"#utility.yul\":126:128   */\n      0x20\n        /* \"#utility.yul\":114:123   */\n      dup3\n        /* \"#utility.yul\":105:112   */\n      dup5\n        /* \"#utility.yul\":101:124   */\n      sub\n        /* \"#utility.yul\":97:129   */\n      slt\n        /* \"#utility.yul\":94:146   */\n      iszero\n      tag_111\n      jumpi\n        /* \"#utility.yul\":142:143   */\n      0x00\n        /* \"#utility.yul\":139:140   */\n      0x00\n        /* \"#utility.yul\":132:144   */\n      revert\n        /* \"#utility.yul\":94:146   */\n    tag_111:\n      pop\n        /* \"#utility.yul\":165:188   */\n      calldataload\n      swap2\n        /* \"#utility.yul\":14:194   */\n      swap1\n      pop\n      jump\t// out\n        /* \"#utility.yul\":660:946   */\n    tag_27:\n        /* \"#utility.yul\":719:725   */\n      0x00\n        /* \"#utility.yul\":772:774   */\n      0x20\n        /* \"#utility.yul\":760:769   */\n      dup3\n        /* \"#utility.yul\":751:758   */\n      dup5\n        /* \"#utility.yul\":747:770   */\n      sub\n        /* \"#utility.yul\":743:775   */\n      slt\n        /* \"#utility.yul\":740:792   */\n      iszero\n      tag_115\n      jumpi\n        /* \"#utility.yul\":788:789   */\n      0x00\n        /* \"#utility.yul\":785:786   */\n      0x00\n        /* \"#utility.yul\":778:790   */\n      revert\n        /* \"#utility.yul\":740:792   */\n    tag_115:\n        /* \"#utility.yul\":814:837   */\n      dup2\n      calldataload\n      sub(shl(0xa0, 0x01), 0x01)\n        /* \"#utility.yul\":866:897   */\n      dup2\n      and\n        /* \"#utility.yul\":856:898   */\n      dup2\n      eq\n        /* \"#utility.yul\":846:916   */\n      tag_116\n      jumpi\n        /* \"#utility.yul\":912:913   */\n      0x00\n        /* \"#utility.yul\":909:910   */\n      0x00\n        /* \"#utility.yul\":902:914   */\n      revert\n        /* \"#utility.yul\":846:916   */\n    tag_116:\n        /* \"#utility.yul\":935:940   */\n      swap4\n        /* \"#utility.yul\":660:946   */\n      swap3\n      pop\n      pop\n      pop\n      jump\t// out\n        /* \"#utility.yul\":2439:2566   */\n    tag_54:\n        /* \"#utility.yul\":2500:2510   */\n      0x4e487b71\n        /* \"#utility.yul\":2495:2498   */\n      0xe0\n        /* \"#utility.yul\":2491:2511   */\n      shl\n        /* \"#utility.yul\":2488:2489   */\n      0x00\n        /* \"#utility.yul\":2481:2512   */\n      mstore\n        /* \"#utility.yul\":2531:2535   */\n      0x32\n        /* \"#utility.yul\":2528:2529   */\n      0x04\n        /* \"#utility.yul\":2521:2536   */\n      mstore\n        /* \"#utility.yul\":2555:2559   */\n      0x24\n        /* \"#utility.yul\":2552:2553   */\n      0x00\n        /* \"#utility.yul\":2545:2560   */\n      revert\n        /* \"#utility.yul\":2571:2793   */\n    tag_57:\n        /* \"#utility.yul\":2636:2645   */\n      dup1\n      dup3\n      add\n        /* \"#utility.yul\":2657:2667   */\n      dup1\n      dup3\n      gt\n        /* \"#utility.yul\":2654:2787   */\n      iszero\n      tag_124\n      jumpi\n        /* \"#utility.yul\":2709:2719   */\n      0x4e487b71\n        /* \"#utility.yul\":2704:2707   */\n      0xe0\n        /* \"#utility.yul\":2700:2720   */\n      shl\n        /* \"#utility.yul\":2697:2698   */\n      0x00\n        /* \"#utility.yul\":2690:2721   */\n      mstore\n        /* \"#utility.yul\":2744:2748   */\n      0x11\n        /* \"#utility.yul\":2741:2742   */\n      0x04\n        /* \"#utility.yul\":2734:2749   */\n      mstore\n        /* \"#utility.yul\":2772:2776   */\n      0x24\n        /* \"#utility.yul\":2769:2770   */\n      0x00\n        /* \"#utility.yul\":2762:2777   */\n      revert\n        /* \"#utility.yul\":2654:2787   */\n    tag_124:\n        /* \"#utility.yul\":2571:2793   */\n      swap3\n      swap2\n      pop\n      pop\n      jump\t// out\n\n    auxdata: 0xa2646970667358221220d5995a3007cc1e27400b85836c81d8795a96af5166822a32866115f4e5654bf664736f6c634300081c0033\n}\n",
				"bytecode": {
					"linkReferences": {},
					"object": "608060405234801561000f575f5ffd5b5060405161099038038061099083398101604081905261002e916100d2565b5f80546001600160a01b03191633908117825581526001602081905260408220555b81518110156100b7576002604051806040016040528084848151811061007857610078610199565b60209081029190910181015182525f91810182905283546001818101865594835291819020835160029093020191825591909101519082015501610050565b50506101ad565b634e487b7160e01b5f52604160045260245ffd5b5f602082840312156100e2575f5ffd5b81516001600160401b038111156100f7575f5ffd5b8201601f81018413610107575f5ffd5b80516001600160401b03811115610120576101206100be565b604051600582901b90603f8201601f191681016001600160401b038111828210171561014e5761014e6100be565b60405291825260208184018101929081018784111561016b575f5ffd5b6020850194505b8385101561018e57845180825260209586019590935001610172565b509695505050505050565b634e487b7160e01b5f52603260045260245ffd5b6107d6806101ba5f395ff3fe608060405234801561000f575f5ffd5b5060043610610085575f3560e01c8063609ff1bd11610058578063609ff1bd146101085780639e7b8d611461011e578063a3ec138d14610131578063e2ba53f0146101a1575f5ffd5b80630121b93f14610089578063013cf08b1461009e5780632e4176cf146100cb5780635c19a95c146100f5575b5f5ffd5b61009c610097366004610723565b6101a9565b005b6100b16100ac366004610723565b61029f565b604080519283526020830191909152015b60405180910390f35b5f546100dd906001600160a01b031681565b6040516001600160a01b0390911681526020016100c2565b61009c61010336600461073a565b6102cb565b610110610523565b6040519081526020016100c2565b61009c61012c36600461073a565b610591565b61017261013f36600461073a565b600160208190525f918252604090912080549181015460029091015460ff82169161010090046001600160a01b03169084565b6040516100c2949392919093845291151560208401526001600160a01b03166040830152606082015260800190565b6101106106f4565b335f90815260016020526040812080549091036102045760405162461bcd60e51b8152602060048201526014602482015273486173206e6f20726967687420746f20766f746560601b60448201526064015b60405180910390fd5b600181015460ff161561024a5760405162461bcd60e51b815260206004820152600e60248201526d20b63932b0b23c903b37ba32b21760911b60448201526064016101fb565b6001818101805460ff191690911790556002808201839055815481549091908490811061027957610279610767565b905f5260205f2090600202016001015f828254610296919061077b565b90915550505050565b600281815481106102ae575f80fd5b5f9182526020909120600290910201805460019091015490915082565b335f908152600160205260408120805490910361032a5760405162461bcd60e51b815260206004820152601960248201527f596f752068617665206e6f20726967687420746f20766f74650000000000000060448201526064016101fb565b600181015460ff16156103745760405162461bcd60e51b81526020600482015260126024820152712cb7ba9030b63932b0b23c903b37ba32b21760711b60448201526064016101fb565b336001600160a01b038316036103cc5760405162461bcd60e51b815260206004820152601e60248201527f53656c662d64656c65676174696f6e20697320646973616c6c6f7765642e000060448201526064016101fb565b6001600160a01b038281165f90815260016020819052604090912001546101009004161561046e576001600160a01b039182165f90815260016020819052604090912001546101009004909116903382036104695760405162461bcd60e51b815260206004820152601960248201527f466f756e64206c6f6f7020696e2064656c65676174696f6e2e0000000000000060448201526064016101fb565b6103cc565b6001600160a01b0382165f908152600160208190526040909120805490911115610496575f5ffd5b600182810180546001600160a81b0319166101006001600160a01b03871602178217905581015460ff1615610505578154600282810154815481106104dd576104dd610767565b905f5260205f2090600202016001015f8282546104fa919061077b565b9091555061051e9050565b8154815482905f9061051890849061077b565b90915550505b505050565b5f80805b60025481101561058c57816002828154811061054557610545610767565b905f5260205f209060020201600101541115610584576002818154811061056e5761056e610767565b905f5260205f2090600202016001015491508092505b600101610527565b505090565b5f546001600160a01b031633146105fb5760405162461bcd60e51b815260206004820152602860248201527f4f6e6c79206368616972706572736f6e2063616e2067697665207269676874206044820152673a37903b37ba329760c11b60648201526084016101fb565b6001600160a01b0381165f908152600160208190526040909120015460ff16156106675760405162461bcd60e51b815260206004820152601860248201527f54686520766f74657220616c726561647920766f7465642e000000000000000060448201526064016101fb565b6001600160a01b0381165f90815260016020526040902054156106d85760405162461bcd60e51b8152602060048201526024808201527f566f74657220616c7265616479206861732074686520726967687420746f207660448201526337ba329760e11b60648201526084016101fb565b6001600160a01b03165f90815260016020819052604090912055565b5f60026106ff610523565b8154811061070f5761070f610767565b905f5260205f2090600202015f0154905090565b5f60208284031215610733575f5ffd5b5035919050565b5f6020828403121561074a575f5ffd5b81356001600160a01b0381168114610760575f5ffd5b9392505050565b634e487b7160e01b5f52603260045260245ffd5b8082018082111561079a57634e487b7160e01b5f52601160045260245ffd5b9291505056fea2646970667358221220d5995a3007cc1e27400b85836c81d8795a96af5166822a32866115f4e5654bf664736f6c634300081c0033",
					"opcodes": "PUSH1 0x80 PUSH1 0x40 MSTORE CALLVALUE DUP1 ISZERO PUSH2 0xF JUMPI PUSH0 PUSH0 REVERT JUMPDEST POP PUSH1 0x40 MLOAD PUSH2 0x990 CODESIZE SUB DUP1 PUSH2 0x990 DUP4 CODECOPY DUP2 ADD PUSH1 0x40 DUP2 SWAP1 MSTORE PUSH2 0x2E SWAP2 PUSH2 0xD2 JUMP JUMPDEST PUSH0 DUP1 SLOAD PUSH1 0x1 PUSH1 0x1 PUSH1 0xA0 SHL SUB NOT AND CALLER SWAP1 DUP2 OR DUP3 SSTORE DUP2 MSTORE PUSH1 0x1 PUSH1 0x20 DUP2 SWAP1 MSTORE PUSH1 0x40 DUP3 KECCAK256 SSTORE JUMPDEST DUP2 MLOAD DUP2 LT ISZERO PUSH2 0xB7 JUMPI PUSH1 0x2 PUSH1 0x40 MLOAD DUP1 PUSH1 0x40 ADD PUSH1 0x40 MSTORE DUP1 DUP5 DUP5 DUP2 MLOAD DUP2 LT PUSH2 0x78 JUMPI PUSH2 0x78 PUSH2 0x199 JUMP JUMPDEST PUSH1 0x20 SWAP1 DUP2 MUL SWAP2 SWAP1 SWAP2 ADD DUP2 ADD MLOAD DUP3 MSTORE PUSH0 SWAP2 DUP2 ADD DUP3 SWAP1 MSTORE DUP4 SLOAD PUSH1 0x1 DUP2 DUP2 ADD DUP7 SSTORE SWAP5 DUP4 MSTORE SWAP2 DUP2 SWAP1 KECCAK256 DUP4 MLOAD PUSH1 0x2 SWAP1 SWAP4 MUL ADD SWAP2 DUP3 SSTORE SWAP2 SWAP1 SWAP2 ADD MLOAD SWAP1 DUP3 ADD SSTORE ADD PUSH2 0x50 JUMP JUMPDEST POP POP PUSH2 0x1AD JUMP JUMPDEST PUSH4 0x4E487B71 PUSH1 0xE0 SHL PUSH0 MSTORE PUSH1 0x41 PUSH1 0x4 MSTORE PUSH1 0x24 PUSH0 REVERT JUMPDEST PUSH0 PUSH1 0x20 DUP3 DUP5 SUB SLT ISZERO PUSH2 0xE2 JUMPI PUSH0 PUSH0 REVERT JUMPDEST DUP2 MLOAD PUSH1 0x1 PUSH1 0x1 PUSH1 0x40 SHL SUB DUP2 GT ISZERO PUSH2 0xF7 JUMPI PUSH0 PUSH0 REVERT JUMPDEST DUP3 ADD PUSH1 0x1F DUP2 ADD DUP5 SGT PUSH2 0x107 JUMPI PUSH0 PUSH0 REVERT JUMPDEST DUP1 MLOAD PUSH1 0x1 PUSH1 0x1 PUSH1 0x40 SHL SUB DUP2 GT ISZERO PUSH2 0x120 JUMPI PUSH2 0x120 PUSH2 0xBE JUMP JUMPDEST PUSH1 0x40 MLOAD PUSH1 0x5 DUP3 SWAP1 SHL SWAP1 PUSH1 0x3F DUP3 ADD PUSH1 0x1F NOT AND DUP2 ADD PUSH1 0x1 PUSH1 0x1 PUSH1 0x40 SHL SUB DUP2 GT DUP3 DUP3 LT OR ISZERO PUSH2 0x14E JUMPI PUSH2 0x14E PUSH2 0xBE JUMP JUMPDEST PUSH1 0x40 MSTORE SWAP2 DUP3 MSTORE PUSH1 0x20 DUP2 DUP5 ADD DUP2 ADD SWAP3 SWAP1 DUP2 ADD DUP8 DUP5 GT ISZERO PUSH2 0x16B JUMPI PUSH0 PUSH0 REVERT JUMPDEST PUSH1 0x20 DUP6 ADD SWAP5 POP JUMPDEST DUP4 DUP6 LT ISZERO PUSH2 0x18E JUMPI DUP5 MLOAD DUP1 DUP3 MSTORE PUSH1 0x20 SWAP6 DUP7 ADD SWAP6 SWAP1 SWAP4 POP ADD PUSH2 0x172 JUMP JUMPDEST POP SWAP7 SWAP6 POP POP POP POP POP POP JUMP JUMPDEST PUSH4 0x4E487B71 PUSH1 0xE0 SHL PUSH0 MSTORE PUSH1 0x32 PUSH1 0x4 MSTORE PUSH1 0x24 PUSH0 REVERT JUMPDEST PUSH2 0x7D6 DUP1 PUSH2 0x1BA PUSH0 CODECOPY PUSH0 RETURN INVALID PUSH1 0x80 PUSH1 0x40 MSTORE CALLVALUE DUP1 ISZERO PUSH2 0xF JUMPI PUSH0 PUSH0 REVERT JUMPDEST POP PUSH1 0x4 CALLDATASIZE LT PUSH2 0x85 JUMPI PUSH0 CALLDATALOAD PUSH1 0xE0 SHR DUP1 PUSH4 0x609FF1BD GT PUSH2 0x58 JUMPI DUP1 PUSH4 0x609FF1BD EQ PUSH2 0x108 JUMPI DUP1 PUSH4 0x9E7B8D61 EQ PUSH2 0x11E JUMPI DUP1 PUSH4 0xA3EC138D EQ PUSH2 0x131 JUMPI DUP1 PUSH4 0xE2BA53F0 EQ PUSH2 0x1A1 JUMPI PUSH0 PUSH0 REVERT JUMPDEST DUP1 PUSH4 0x121B93F EQ PUSH2 0x89 JUMPI DUP1 PUSH4 0x13CF08B EQ PUSH2 0x9E JUMPI DUP1 PUSH4 0x2E4176CF EQ PUSH2 0xCB JUMPI DUP1 PUSH4 0x5C19A95C EQ PUSH2 0xF5 JUMPI JUMPDEST PUSH0 PUSH0 REVERT JUMPDEST PUSH2 0x9C PUSH2 0x97 CALLDATASIZE PUSH1 0x4 PUSH2 0x723 JUMP JUMPDEST PUSH2 0x1A9 JUMP JUMPDEST STOP JUMPDEST PUSH2 0xB1 PUSH2 0xAC CALLDATASIZE PUSH1 0x4 PUSH2 0x723 JUMP JUMPDEST PUSH2 0x29F JUMP JUMPDEST PUSH1 0x40 DUP1 MLOAD SWAP3 DUP4 MSTORE PUSH1 0x20 DUP4 ADD SWAP2 SWAP1 SWAP2 MSTORE ADD JUMPDEST PUSH1 0x40 MLOAD DUP1 SWAP2 SUB SWAP1 RETURN JUMPDEST PUSH0 SLOAD PUSH2 0xDD SWAP1 PUSH1 0x1 PUSH1 0x1 PUSH1 0xA0 SHL SUB AND DUP2 JUMP JUMPDEST PUSH1 0x40 MLOAD PUSH1 0x1 PUSH1 0x1 PUSH1 0xA0 SHL SUB SWAP1 SWAP2 AND DUP2 MSTORE PUSH1 0x20 ADD PUSH2 0xC2 JUMP JUMPDEST PUSH2 0x9C PUSH2 0x103 CALLDATASIZE PUSH1 0x4 PUSH2 0x73A JUMP JUMPDEST PUSH2 0x2CB JUMP JUMPDEST PUSH2 0x110 PUSH2 0x523 JUMP JUMPDEST PUSH1 0x40 MLOAD SWAP1 DUP2 MSTORE PUSH1 0x20 ADD PUSH2 0xC2 JUMP JUMPDEST PUSH2 0x9C PUSH2 0x12C CALLDATASIZE PUSH1 0x4 PUSH2 0x73A JUMP JUMPDEST PUSH2 0x591 JUMP JUMPDEST PUSH2 0x172 PUSH2 0x13F CALLDATASIZE PUSH1 0x4 PUSH2 0x73A JUMP JUMPDEST PUSH1 0x1 PUSH1 0x20 DUP2 SWAP1 MSTORE PUSH0 SWAP2 DUP3 MSTORE PUSH1 0x40 SWAP1 SWAP2 KECCAK256 DUP1 SLOAD SWAP2 DUP2 ADD SLOAD PUSH1 0x2 SWAP1 SWAP2 ADD SLOAD PUSH1 0xFF DUP3 AND SWAP2 PUSH2 0x100 SWAP1 DIV PUSH1 0x1 PUSH1 0x1 PUSH1 0xA0 SHL SUB AND SWAP1 DUP5 JUMP JUMPDEST PUSH1 0x40 MLOAD PUSH2 0xC2 SWAP5 SWAP4 SWAP3 SWAP2 SWAP1 SWAP4 DUP5 MSTORE SWAP2 ISZERO ISZERO PUSH1 0x20 DUP5 ADD MSTORE PUSH1 0x1 PUSH1 0x1 PUSH1 0xA0 SHL SUB AND PUSH1 0x40 DUP4 ADD MSTORE PUSH1 0x60 DUP3 ADD MSTORE PUSH1 0x80 ADD SWAP1 JUMP JUMPDEST PUSH2 0x110 PUSH2 0x6F4 JUMP JUMPDEST CALLER PUSH0 SWAP1 DUP2 MSTORE PUSH1 0x1 PUSH1 0x20 MSTORE PUSH1 0x40 DUP2 KECCAK256 DUP1 SLOAD SWAP1 SWAP2 SUB PUSH2 0x204 JUMPI PUSH1 0x40 MLOAD PUSH3 0x461BCD PUSH1 0xE5 SHL DUP2 MSTORE PUSH1 0x20 PUSH1 0x4 DUP3 ADD MSTORE PUSH1 0x14 PUSH1 0x24 DUP3 ADD MSTORE PUSH20 0x486173206E6F20726967687420746F20766F7465 PUSH1 0x60 SHL PUSH1 0x44 DUP3 ADD MSTORE PUSH1 0x64 ADD JUMPDEST PUSH1 0x40 MLOAD DUP1 SWAP2 SUB SWAP1 REVERT JUMPDEST PUSH1 0x1 DUP2 ADD SLOAD PUSH1 0xFF AND ISZERO PUSH2 0x24A JUMPI PUSH1 0x40 MLOAD PUSH3 0x461BCD PUSH1 0xE5 SHL DUP2 MSTORE PUSH1 0x20 PUSH1 0x4 DUP3 ADD MSTORE PUSH1 0xE PUSH1 0x24 DUP3 ADD MSTORE PUSH14 0x20B63932B0B23C903B37BA32B217 PUSH1 0x91 SHL PUSH1 0x44 DUP3 ADD MSTORE PUSH1 0x64 ADD PUSH2 0x1FB JUMP JUMPDEST PUSH1 0x1 DUP2 DUP2 ADD DUP1 SLOAD PUSH1 0xFF NOT AND SWAP1 SWAP2 OR SWAP1 SSTORE PUSH1 0x2 DUP1 DUP3 ADD DUP4 SWAP1 SSTORE DUP2 SLOAD DUP2 SLOAD SWAP1 SWAP2 SWAP1 DUP5 SWAP1 DUP2 LT PUSH2 0x279 JUMPI PUSH2 0x279 PUSH2 0x767 JUMP JUMPDEST SWAP1 PUSH0 MSTORE PUSH1 0x20 PUSH0 KECCAK256 SWAP1 PUSH1 0x2 MUL ADD PUSH1 0x1 ADD PUSH0 DUP3 DUP3 SLOAD PUSH2 0x296 SWAP2 SWAP1 PUSH2 0x77B JUMP JUMPDEST SWAP1 SWAP2 SSTORE POP POP POP POP JUMP JUMPDEST PUSH1 0x2 DUP2 DUP2 SLOAD DUP2 LT PUSH2 0x2AE JUMPI PUSH0 DUP1 REVERT JUMPDEST PUSH0 SWAP2 DUP3 MSTORE PUSH1 0x20 SWAP1 SWAP2 KECCAK256 PUSH1 0x2 SWAP1 SWAP2 MUL ADD DUP1 SLOAD PUSH1 0x1 SWAP1 SWAP2 ADD SLOAD SWAP1 SWAP2 POP DUP3 JUMP JUMPDEST CALLER PUSH0 SWAP1 DUP2 MSTORE PUSH1 0x1 PUSH1 0x20 MSTORE PUSH1 0x40 DUP2 KECCAK256 DUP1 SLOAD SWAP1 SWAP2 SUB PUSH2 0x32A JUMPI PUSH1 0x40 MLOAD PUSH3 0x461BCD PUSH1 0xE5 SHL DUP2 MSTORE PUSH1 0x20 PUSH1 0x4 DUP3 ADD MSTORE PUSH1 0x19 PUSH1 0x24 DUP3 ADD MSTORE PUSH32 0x596F752068617665206E6F20726967687420746F20766F746500000000000000 PUSH1 0x44 DUP3 ADD MSTORE PUSH1 0x64 ADD PUSH2 0x1FB JUMP JUMPDEST PUSH1 0x1 DUP2 ADD SLOAD PUSH1 0xFF AND ISZERO PUSH2 0x374 JUMPI PUSH1 0x40 MLOAD PUSH3 0x461BCD PUSH1 0xE5 SHL DUP2 MSTORE PUSH1 0x20 PUSH1 0x4 DUP3 ADD MSTORE PUSH1 0x12 PUSH1 0x24 DUP3 ADD MSTORE PUSH18 0x2CB7BA9030B63932B0B23C903B37BA32B217 PUSH1 0x71 SHL PUSH1 0x44 DUP3 ADD MSTORE PUSH1 0x64 ADD PUSH2 0x1FB JUMP JUMPDEST CALLER PUSH1 0x1 PUSH1 0x1 PUSH1 0xA0 SHL SUB DUP4 AND SUB PUSH2 0x3CC JUMPI PUSH1 0x40 MLOAD PUSH3 0x461BCD PUSH1 0xE5 SHL DUP2 MSTORE PUSH1 0x20 PUSH1 0x4 DUP3 ADD MSTORE PUSH1 0x1E PUSH1 0x24 DUP3 ADD MSTORE PUSH32 0x53656C662D64656C65676174696F6E20697320646973616C6C6F7765642E0000 PUSH1 0x44 DUP3 ADD MSTORE PUSH1 0x64 ADD PUSH2 0x1FB JUMP JUMPDEST PUSH1 0x1 PUSH1 0x1 PUSH1 0xA0 SHL SUB DUP3 DUP2 AND PUSH0 SWAP1 DUP2 MSTORE PUSH1 0x1 PUSH1 0x20 DUP2 SWAP1 MSTORE PUSH1 0x40 SWAP1 SWAP2 KECCAK256 ADD SLOAD PUSH2 0x100 SWAP1 DIV AND ISZERO PUSH2 0x46E JUMPI PUSH1 0x1 PUSH1 0x1 PUSH1 0xA0 SHL SUB SWAP2 DUP3 AND PUSH0 SWAP1 DUP2 MSTORE PUSH1 0x1 PUSH1 0x20 DUP2 SWAP1 MSTORE PUSH1 0x40 SWAP1 SWAP2 KECCAK256 ADD SLOAD PUSH2 0x100 SWAP1 DIV SWAP1 SWAP2 AND SWAP1 CALLER DUP3 SUB PUSH2 0x469 JUMPI PUSH1 0x40 MLOAD PUSH3 0x461BCD PUSH1 0xE5 SHL DUP2 MSTORE PUSH1 0x20 PUSH1 0x4 DUP3 ADD MSTORE PUSH1 0x19 PUSH1 0x24 DUP3 ADD MSTORE PUSH32 0x466F756E64206C6F6F7020696E2064656C65676174696F6E2E00000000000000 PUSH1 0x44 DUP3 ADD MSTORE PUSH1 0x64 ADD PUSH2 0x1FB JUMP JUMPDEST PUSH2 0x3CC JUMP JUMPDEST PUSH1 0x1 PUSH1 0x1 PUSH1 0xA0 SHL SUB DUP3 AND PUSH0 SWAP1 DUP2 MSTORE PUSH1 0x1 PUSH1 0x20 DUP2 SWAP1 MSTORE PUSH1 0x40 SWAP1 SWAP2 KECCAK256 DUP1 SLOAD SWAP1 SWAP2 GT ISZERO PUSH2 0x496 JUMPI PUSH0 PUSH0 REVERT JUMPDEST PUSH1 0x1 DUP3 DUP2 ADD DUP1 SLOAD PUSH1 0x1 PUSH1 0x1 PUSH1 0xA8 SHL SUB NOT AND PUSH2 0x100 PUSH1 0x1 PUSH1 0x1 PUSH1 0xA0 SHL SUB DUP8 AND MUL OR DUP3 OR SWAP1 SSTORE DUP2 ADD SLOAD PUSH1 0xFF AND ISZERO PUSH2 0x505 JUMPI DUP2 SLOAD PUSH1 0x2 DUP3 DUP2 ADD SLOAD DUP2 SLOAD DUP2 LT PUSH2 0x4DD JUMPI PUSH2 0x4DD PUSH2 0x767 JUMP JUMPDEST SWAP1 PUSH0 MSTORE PUSH1 0x20 PUSH0 KECCAK256 SWAP1 PUSH1 0x2 MUL ADD PUSH1 0x1 ADD PUSH0 DUP3 DUP3 SLOAD PUSH2 0x4FA SWAP2 SWAP1 PUSH2 0x77B JUMP JUMPDEST SWAP1 SWAP2 SSTORE POP PUSH2 0x51E SWAP1 POP JUMP JUMPDEST DUP2 SLOAD DUP2 SLOAD DUP3 SWAP1 PUSH0 SWAP1 PUSH2 0x518 SWAP1 DUP5 SWAP1 PUSH2 0x77B JUMP JUMPDEST SWAP1 SWAP2 SSTORE POP POP JUMPDEST POP POP POP JUMP JUMPDEST PUSH0 DUP1 DUP1 JUMPDEST PUSH1 0x2 SLOAD DUP2 LT ISZERO PUSH2 0x58C JUMPI DUP2 PUSH1 0x2 DUP3 DUP2 SLOAD DUP2 LT PUSH2 0x545 JUMPI PUSH2 0x545 PUSH2 0x767 JUMP JUMPDEST SWAP1 PUSH0 MSTORE PUSH1 0x20 PUSH0 KECCAK256 SWAP1 PUSH1 0x2 MUL ADD PUSH1 0x1 ADD SLOAD GT ISZERO PUSH2 0x584 JUMPI PUSH1 0x2 DUP2 DUP2 SLOAD DUP2 LT PUSH2 0x56E JUMPI PUSH2 0x56E PUSH2 0x767 JUMP JUMPDEST SWAP1 PUSH0 MSTORE PUSH1 0x20 PUSH0 KECCAK256 SWAP1 PUSH1 0x2 MUL ADD PUSH1 0x1 ADD SLOAD SWAP2 POP DUP1 SWAP3 POP JUMPDEST PUSH1 0x1 ADD PUSH2 0x527 JUMP JUMPDEST POP POP SWAP1 JUMP JUMPDEST PUSH0 SLOAD PUSH1 0x1 PUSH1 0x1 PUSH1 0xA0 SHL SUB AND CALLER EQ PUSH2 0x5FB JUMPI PUSH1 0x40 MLOAD PUSH3 0x461BCD PUSH1 0xE5 SHL DUP2 MSTORE PUSH1 0x20 PUSH1 0x4 DUP3 ADD MSTORE PUSH1 0x28 PUSH1 0x24 DUP3 ADD MSTORE PUSH32 0x4F6E6C79206368616972706572736F6E2063616E206769766520726967687420 PUSH1 0x44 DUP3 ADD MSTORE PUSH8 0x3A37903B37BA3297 PUSH1 0xC1 SHL PUSH1 0x64 DUP3 ADD MSTORE PUSH1 0x84 ADD PUSH2 0x1FB JUMP JUMPDEST PUSH1 0x1 PUSH1 0x1 PUSH1 0xA0 SHL SUB DUP2 AND PUSH0 SWAP1 DUP2 MSTORE PUSH1 0x1 PUSH1 0x20 DUP2 SWAP1 MSTORE PUSH1 0x40 SWAP1 SWAP2 KECCAK256 ADD SLOAD PUSH1 0xFF AND ISZERO PUSH2 0x667 JUMPI PUSH1 0x40 MLOAD PUSH3 0x461BCD PUSH1 0xE5 SHL DUP2 MSTORE PUSH1 0x20 PUSH1 0x4 DUP3 ADD MSTORE PUSH1 0x18 PUSH1 0x24 DUP3 ADD MSTORE PUSH32 0x54686520766F74657220616C726561647920766F7465642E0000000000000000 PUSH1 0x44 DUP3 ADD MSTORE PUSH1 0x64 ADD PUSH2 0x1FB JUMP JUMPDEST PUSH1 0x1 PUSH1 0x1 PUSH1 0xA0 SHL SUB DUP2 AND PUSH0 SWAP1 DUP2 MSTORE PUSH1 0x1 PUSH1 0x20 MSTORE PUSH1 0x40 SWAP1 KECCAK256 SLOAD ISZERO PUSH2 0x6D8 JUMPI PUSH1 0x40 MLOAD PUSH3 0x461BCD PUSH1 0xE5 SHL DUP2 MSTORE PUSH1 0x20 PUSH1 0x4 DUP3 ADD MSTORE PUSH1 0x24 DUP1 DUP3 ADD MSTORE PUSH32 0x566F74657220616C7265616479206861732074686520726967687420746F2076 PUSH1 0x44 DUP3 ADD MSTORE PUSH4 0x37BA3297 PUSH1 0xE1 SHL PUSH1 0x64 DUP3 ADD MSTORE PUSH1 0x84 ADD PUSH2 0x1FB JUMP JUMPDEST PUSH1 0x1 PUSH1 0x1 PUSH1 0xA0 SHL SUB AND PUSH0 SWAP1 DUP2 MSTORE PUSH1 0x1 PUSH1 0x20 DUP2 SWAP1 MSTORE PUSH1 0x40 SWAP1 SWAP2 KECCAK256 SSTORE JUMP JUMPDEST PUSH0 PUSH1 0x2 PUSH2 0x6FF PUSH2 0x523 JUMP JUMPDEST DUP2 SLOAD DUP2 LT PUSH2 0x70F JUMPI PUSH2 0x70F PUSH2 0x767 JUMP JUMPDEST SWAP1 PUSH0 MSTORE PUSH1 0x20 PUSH0 KECCAK256 SWAP1 PUSH1 0x2 MUL ADD PUSH0 ADD SLOAD SWAP1 POP SWAP1 JUMP JUMPDEST PUSH0 PUSH1 0x20 DUP3 DUP5 SUB SLT ISZERO PUSH2 0x733 JUMPI PUSH0 PUSH0 REVERT JUMPDEST POP CALLDATALOAD SWAP2 SWAP1 POP JUMP JUMPDEST PUSH0 PUSH1 0x20 DUP3 DUP5 SUB SLT ISZERO PUSH2 0x74A JUMPI PUSH0 PUSH0 REVERT JUMPDEST DUP2 CALLDATALOAD PUSH1 0x1 PUSH1 0x1 PUSH1 0xA0 SHL SUB DUP2 AND DUP2 EQ PUSH2 0x760 JUMPI PUSH0 PUSH0 REVERT JUMPDEST SWAP4 SWAP3 POP POP POP JUMP JUMPDEST PUSH4 0x4E487B71 PUSH1 0xE0 SHL PUSH0 MSTORE PUSH1 0x32 PUSH1 0x4 MSTORE PUSH1 0x24 PUSH0 REVERT JUMPDEST DUP1 DUP3 ADD DUP1 DUP3 GT ISZERO PUSH2 0x79A JUMPI PUSH4 0x4E487B71 PUSH1 0xE0 SHL PUSH0 MSTORE PUSH1 0x11 PUSH1 0x4 MSTORE PUSH1 0x24 PUSH0 REVERT JUMPDEST SWAP3 SWAP2 POP POP JUMP INVALID LOG2 PUSH5 0x6970667358 0x22 SLT KECCAK256 0xD5 SWAP10 GAS ADDRESS SMOD 0xCC 0x1E 0x27 BLOCKHASH SIGNEXTEND DUP6 DUP4 PUSH13 0x81D8795A96AF5166822A328661 ISZERO DELEGATECALL 0xE5 PUSH6 0x4BF664736F6C PUSH4 0x4300081C STOP CALLER "
				},
				"gasEstimates": {
					"creation": {
						"codeDepositCost": "401200",
						"executionCost": "infinite",
						"totalCost": "infinite"
					},
					"external": {
						"chairperson()": "2380",
						"delegate(address)": "infinite",
						"giveRightToVote(address)": "29051",
						"proposals(uint256)": "6740",
						"vote(uint256)": "79509",
						"voters(address)": "6892",
						"winnerName()": "infinite",
						"winningProposal()": "infinite"
					}
				},
				"methodIdentifiers": {
					"chairperson()": "2e4176cf",
					"delegate(address)": "5c19a95c",
					"giveRightToVote(address)": "9e7b8d61",
					"proposals(uint256)": "013cf08b",
					"vote(uint256)": "0121b93f",
					"voters(address)": "a3ec138d",
					"winnerName()": "e2ba53f0",
					"winningProposal()": "609ff1bd"
				}
			},
			"storageLayout": {
				"storage": [
					{
						"astId": 18,
						"contract": "contracts/3_Ballot.sol:Ballot",
						"label": "chairperson",
						"offset": 0,
						"slot": "0",
						"type": "t_address"
					},
					{
						"astId": 23,
						"contract": "contracts/3_Ballot.sol:Ballot",
						"label": "voters",
						"offset": 0,
						"slot": "1",
						"type": "t_mapping(t_address,t_struct(Voter)11_storage)"
					},
					{
						"astId": 27,
						"contract": "contracts/3_Ballot.sol:Ballot",
						"label": "proposals",
						"offset": 0,
						"slot": "2",
						"type": "t_array(t_struct(Proposal)16_storage)dyn_storage"
					}
				],
				"types": {
					"t_address": {
						"encoding": "inplace",
						"label": "address",
						"numberOfBytes": "20"
					},
					"t_array(t_struct(Proposal)16_storage)dyn_storage": {
						"base": "t_struct(Proposal)16_storage",
						"encoding": "dynamic_array",
						"label": "struct Ballot.Proposal[]",
						"numberOfBytes": "32"
					},
					"t_bool": {
						"encoding": "inplace",
						"label": "bool",
						"numberOfBytes": "1"
					},
					"t_bytes32": {
						"encoding": "inplace",
						"label": "bytes32",
						"numberOfBytes": "32"
					},
					"t_mapping(t_address,t_struct(Voter)11_storage)": {
						"encoding": "mapping",
						"key": "t_address",
						"label": "mapping(address => struct Ballot.Voter)",
						"numberOfBytes": "32",
						"value": "t_struct(Voter)11_storage"
					},
					"t_struct(Proposal)16_storage": {
						"encoding": "inplace",
						"label": "struct Ballot.Proposal",
						"members": [
							{
								"astId": 13,
								"contract": "contracts/3_Ballot.sol:Ballot",
								"label": "name",
								"offset": 0,
								"slot": "0",
								"type": "t_bytes32"
							},
							{
								"astId": 15,
								"contract": "contracts/3_Ballot.sol:Ballot",
								"label": "voteCount",
								"offset": 0,
								"slot": "1",
								"type": "t_uint256"
							}
						],
						"numberOfBytes": "64"
					},
					"t_struct(Voter)11_storage": {
						"encoding": "inplace",
						"label": "struct Ballot.Voter",
						"members": [
							{
								"astId": 4,
								"contract": "contracts/3_Ballot.sol:Ballot",
								"label": "weight",
								"offset": 0,
								"slot": "0",
								"type": "t_uint256"
							},
							{
								"astId": 6,
								"contract": "contracts/3_Ballot.sol:Ballot",
								"label": "voted",
								"offset": 0,
								"slot": "1",
								"type": "t_bool"
							},
							{
								"astId": 8,
								"contract": "contracts/3_Ballot.sol:Ballot",
								"label": "delegate",
								"offset": 1,
								"slot": "1",
								"type": "t_address"
							},
							{
								"astId": 10,
								"contract": "contracts/3_Ballot.sol:Ballot",
								"label": "vote",
								"offset": 0,
								"slot": "2",
								"type": "t_uint256"
							}
						],
						"numberOfBytes": "96"
					},
					"t_uint256": {
						"encoding": "inplace",
						"label": "uint256",
						"numberOfBytes": "32"
					}
				}
			},
			"userdoc": {
				"kind": "user",
				"methods": {},
				"version": 1
			}
		}
	}
}