{
	"contracts/bonding_full.sol": {
		"Bonding": {
			"abi": [
				{
					"inputs": [
						{
							"internalType": "address",
							"name": "_weth",
							"type": "address"
						},
						{
							"internalType": "address",
							"name": "_mlAMPL",
							"type": "address"
						},
						{
							"internalType": "uint256",
							"name": "_discountRate",
							"type": "uint256"
						},
						{
							"internalType": "uint256",
							"name": "_targetPrice",
							"type": "uint256"
						}
					],
					"stateMutability": "nonpayable",
					"type": "constructor"
				},
				{
					"anonymous": false,
					"inputs": [
						{
							"indexed": true,
							"internalType": "address",
							"name": "user",
							"type": "address"
						},
						{
							"indexed": false,
							"internalType": "uint256",
							"name": "wethAmount",
							"type": "uint256"
						},
						{
							"indexed": false,
							"internalType": "uint256",
							"name": "mlAMPLAmount",
							"type": "uint256"
						}
					],
					"name": "BondPurchased",
					"type": "event"
				},
				{
					"anonymous": false,
					"inputs": [
						{
							"indexed": false,
							"internalType": "string",
							"name": "message",
							"type": "string"
						},
						{
							"indexed": false,
							"internalType": "uint256",
							"name": "value",
							"type": "uint256"
						}
					],
					"name": "Debug",
					"type": "event"
				},
				{
					"anonymous": false,
					"inputs": [
						{
							"indexed": true,
							"internalType": "address",
							"name": "oldOwner",
							"type": "address"
						},
						{
							"indexed": true,
							"internalType": "address",
							"name": "newOwner",
							"type": "address"
						}
					],
					"name": "OwnershipTransferred",
					"type": "event"
				},
				{
					"anonymous": false,
					"inputs": [
						{
							"indexed": true,
							"internalType": "address",
							"name": "token",
							"type": "address"
						},
						{
							"indexed": true,
							"internalType": "address",
							"name": "recipient",
							"type": "address"
						},
						{
							"indexed": false,
							"internalType": "uint256",
							"name": "amount",
							"type": "uint256"
						}
					],
					"name": "Withdrawn",
					"type": "event"
				},
				{
					"inputs": [
						{
							"internalType": "uint256",
							"name": "wethAmount",
							"type": "uint256"
						}
					],
					"name": "bond",
					"outputs": [],
					"stateMutability": "nonpayable",
					"type": "function"
				},
				{
					"inputs": [],
					"name": "checkContractMLAMPLBalance",
					"outputs": [
						{
							"internalType": "uint256",
							"name": "",
							"type": "uint256"
						}
					],
					"stateMutability": "view",
					"type": "function"
				},
				{
					"inputs": [
						{
							"internalType": "address",
							"name": "user",
							"type": "address"
						}
					],
					"name": "checkMLAMPLBalance",
					"outputs": [
						{
							"internalType": "uint256",
							"name": "",
							"type": "uint256"
						}
					],
					"stateMutability": "view",
					"type": "function"
				},
				{
					"inputs": [
						{
							"internalType": "address",
							"name": "user",
							"type": "address"
						}
					],
					"name": "checkWETHAllowance",
					"outputs": [
						{
							"internalType": "uint256",
							"name": "",
							"type": "uint256"
						}
					],
					"stateMutability": "view",
					"type": "function"
				},
				{
					"inputs": [
						{
							"internalType": "address",
							"name": "user",
							"type": "address"
						}
					],
					"name": "checkWETHBalance",
					"outputs": [
						{
							"internalType": "uint256",
							"name": "",
							"type": "uint256"
						}
					],
					"stateMutability": "view",
					"type": "function"
				},
				{
					"inputs": [],
					"name": "discountRate",
					"outputs": [
						{
							"internalType": "uint256",
							"name": "",
							"type": "uint256"
						}
					],
					"stateMutability": "view",
					"type": "function"
				},
				{
					"inputs": [],
					"name": "mlAMPL",
					"outputs": [
						{
							"internalType": "address",
							"name": "",
							"type": "address"
						}
					],
					"stateMutability": "view",
					"type": "function"
				},
				{
					"inputs": [],
					"name": "owner",
					"outputs": [
						{
							"internalType": "address",
							"name": "",
							"type": "address"
						}
					],
					"stateMutability": "view",
					"type": "function"
				},
				{
					"inputs": [
						{
							"internalType": "uint256",
							"name": "_discountRate",
							"type": "uint256"
						}
					],
					"name": "setDiscountRate",
					"outputs": [],
					"stateMutability": "nonpayable",
					"type": "function"
				},
				{
					"inputs": [
						{
							"internalType": "uint256",
							"name": "_targetPrice",
							"type": "uint256"
						}
					],
					"name": "setTargetPrice",
					"outputs": [],
					"stateMutability": "nonpayable",
					"type": "function"
				},
				{
					"inputs": [],
					"name": "targetPrice",
					"outputs": [
						{
							"internalType": "uint256",
							"name": "",
							"type": "uint256"
						}
					],
					"stateMutability": "view",
					"type": "function"
				},
				{
					"inputs": [
						{
							"internalType": "address",
							"name": "newOwner",
							"type": "address"
						}
					],
					"name": "transferOwnership",
					"outputs": [],
					"stateMutability": "nonpayable",
					"type": "function"
				},
				{
					"inputs": [],
					"name": "weth",
					"outputs": [
						{
							"internalType": "address",
							"name": "",
							"type": "address"
						}
					],
					"stateMutability": "view",
					"type": "function"
				},
				{
					"inputs": [
						{
							"internalType": "address",
							"name": "token",
							"type": "address"
						},
						{
							"internalType": "uint256",
							"name": "amount",
							"type": "uint256"
						},
						{
							"internalType": "address",
							"name": "recipient",
							"type": "address"
						}
					],
					"name": "withdraw",
					"outputs": [],
					"stateMutability": "nonpayable",
					"type": "function"
				}
			],
			"devdoc": {
				"kind": "dev",
				"methods": {},
				"version": 1
			},
			"evm": {
				"assembly": "    /* \"contracts/bonding_full.sol\":1569:5720  contract Bonding {... */\n  mstore(0x40, 0x80)\n    /* \"contracts/bonding_full.sol\":2111:2373  constructor(address _weth, address _mlAMPL, uint256 _discountRate, uint256 _targetPrice) {... */\n  callvalue\n  dup1\n  iszero\n  tag_1\n  jumpi\n  revert(0x00, 0x00)\ntag_1:\n  pop\n  mload(0x40)\n  sub(codesize, bytecodeSize)\n  dup1\n  bytecodeSize\n  dup4\n  codecopy\n  dup2\n  add\n  0x40\n  dup2\n  swap1\n  mstore\n  tag_2\n  swap2\n  tag_3\n  jump\t// in\ntag_2:\n    /* \"contracts/bonding_full.sol\":2211:2216  owner */\n  0x00\n    /* \"contracts/bonding_full.sol\":2211:2229  owner = msg.sender */\n  dup1\n  sload\n  not(sub(shl(0xa0, 0x01), 0x01))\n  swap1\n  dup2\n  and\n    /* \"contracts/bonding_full.sol\":2219:2229  msg.sender */\n  caller\n    /* \"contracts/bonding_full.sol\":2211:2229  owner = msg.sender */\n  or\n  swap1\n  swap2\n  sstore\n  0x01\n    /* \"contracts/bonding_full.sol\":2240:2252  weth = _weth */\n  dup1\n  sload\n  sub(shl(0xa0, 0x01), 0x01)\n  swap7\n  dup8\n  and\n  swap1\n  dup4\n  and\n  or\n  swap1\n  sstore\n    /* \"contracts/bonding_full.sol\":2263:2269  mlAMPL */\n  0x02\n    /* \"contracts/bonding_full.sol\":2263:2279  mlAMPL = _mlAMPL */\n  dup1\n  sload\n  swap5\n  swap1\n  swap6\n  and\n  swap4\n  and\n  swap3\n  swap1\n  swap3\n  or\n  swap1\n  swap3\n  sstore\n    /* \"contracts/bonding_full.sol\":2290:2302  discountRate */\n  0x03\n    /* \"contracts/bonding_full.sol\":2290:2318  discountRate = _discountRate */\n  swap2\n  swap1\n  swap2\n  sstore\n    /* \"contracts/bonding_full.sol\":2329:2340  targetPrice */\n  0x04\n    /* \"contracts/bonding_full.sol\":2329:2355  targetPrice = _targetPrice */\n  sstore\n    /* \"contracts/bonding_full.sol\":1569:5720  contract Bonding {... */\n  jump(tag_8)\n    /* \"#utility.yul\":14:191   */\ntag_7:\n    /* \"#utility.yul\":93:106   */\n  dup1\n  mload\n  sub(shl(0xa0, 0x01), 0x01)\n    /* \"#utility.yul\":135:166   */\n  dup2\n  and\n    /* \"#utility.yul\":125:167   */\n  dup2\n  eq\n    /* \"#utility.yul\":115:185   */\n  tag_10\n  jumpi\n    /* \"#utility.yul\":181:182   */\n  0x00\n    /* \"#utility.yul\":178:179   */\n  0x00\n    /* \"#utility.yul\":171:183   */\n  revert\n    /* \"#utility.yul\":115:185   */\ntag_10:\n    /* \"#utility.yul\":14:191   */\n  swap2\n  swap1\n  pop\n  jump\t// out\n    /* \"#utility.yul\":196:710   */\ntag_3:\n    /* \"#utility.yul\":293:299   */\n  0x00\n    /* \"#utility.yul\":301:307   */\n  0x00\n    /* \"#utility.yul\":309:315   */\n  0x00\n    /* \"#utility.yul\":317:323   */\n  0x00\n    /* \"#utility.yul\":370:373   */\n  0x80\n    /* \"#utility.yul\":358:367   */\n  dup6\n    /* \"#utility.yul\":349:356   */\n  dup8\n    /* \"#utility.yul\":345:368   */\n  sub\n    /* \"#utility.yul\":341:374   */\n  slt\n    /* \"#utility.yul\":338:391   */\n  iszero\n  tag_12\n  jumpi\n    /* \"#utility.yul\":387:388   */\n  0x00\n    /* \"#utility.yul\":384:385   */\n  0x00\n    /* \"#utility.yul\":377:389   */\n  revert\n    /* \"#utility.yul\":338:391   */\ntag_12:\n    /* \"#utility.yul\":410:450   */\n  tag_13\n    /* \"#utility.yul\":440:449   */\n  dup6\n    /* \"#utility.yul\":410:450   */\n  tag_7\n  jump\t// in\ntag_13:\n    /* \"#utility.yul\":400:450   */\n  swap4\n  pop\n    /* \"#utility.yul\":469:518   */\n  tag_14\n    /* \"#utility.yul\":514:516   */\n  0x20\n    /* \"#utility.yul\":503:512   */\n  dup7\n    /* \"#utility.yul\":499:517   */\n  add\n    /* \"#utility.yul\":469:518   */\n  tag_7\n  jump\t// in\ntag_14:\n    /* \"#utility.yul\":580:582   */\n  0x40\n    /* \"#utility.yul\":565:583   */\n  dup7\n  add\n    /* \"#utility.yul\":559:584   */\n  mload\n    /* \"#utility.yul\":674:676   */\n  0x60\n    /* \"#utility.yul\":659:677   */\n  swap1\n  swap7\n  add\n    /* \"#utility.yul\":653:678   */\n  mload\n    /* \"#utility.yul\":196:710   */\n  swap5\n  swap8\n    /* \"#utility.yul\":459:518   */\n  swap1\n  swap7\n  pop\n    /* \"#utility.yul\":196:710   */\n  swap3\n  pop\n  pop\n  pop\n  jump\t// out\ntag_8:\n    /* \"contracts/bonding_full.sol\":1569:5720  contract Bonding {... */\n  dataSize(sub_0)\n  dup1\n  dataOffset(sub_0)\n  0x00\n  codecopy\n  0x00\n  return\nstop\n\nsub_0: assembly {\n        /* \"contracts/bonding_full.sol\":1569:5720  contract Bonding {... */\n      mstore(0x40, 0x80)\n      callvalue\n      dup1\n      iszero\n      tag_1\n      jumpi\n      revert(0x00, 0x00)\n    tag_1:\n      pop\n      jumpi(tag_2, lt(calldatasize, 0x04))\n      shr(0xe0, calldataload(0x00))\n      dup1\n      0x8da5cb5b\n      gt\n      tag_17\n      jumpi\n      dup1\n      0xbbf6119a\n      gt\n      tag_18\n      jumpi\n      dup1\n      0xbbf6119a\n      eq\n      tag_13\n      jumpi\n      dup1\n      0xdc38679c\n      eq\n      tag_14\n      jumpi\n      dup1\n      0xe6c0e6d5\n      eq\n      tag_15\n      jumpi\n      dup1\n      0xf2fde38b\n      eq\n      tag_16\n      jumpi\n      revert(0x00, 0x00)\n    tag_18:\n      dup1\n      0x8da5cb5b\n      eq\n      tag_10\n      jumpi\n      dup1\n      0x9940686e\n      eq\n      tag_11\n      jumpi\n      dup1\n      0xb357964b\n      eq\n      tag_12\n      jumpi\n      revert(0x00, 0x00)\n    tag_17:\n      dup1\n      0x69328dec\n      gt\n      tag_19\n      jumpi\n      dup1\n      0x69328dec\n      eq\n      tag_6\n      jumpi\n      dup1\n      0x6a64eff8\n      eq\n      tag_7\n      jumpi\n      dup1\n      0x7c69febd\n      eq\n      tag_8\n      jumpi\n      dup1\n      0x861b67ab\n      eq\n      tag_9\n      jumpi\n      revert(0x00, 0x00)\n    tag_19:\n      dup1\n      0x3a6eb3df\n      eq\n      tag_3\n      jumpi\n      dup1\n      0x3fc8cef3\n      eq\n      tag_4\n      jumpi\n      dup1\n      0x5e3124ed\n      eq\n      tag_5\n      jumpi\n    tag_2:\n      revert(0x00, 0x00)\n        /* \"contracts/bonding_full.sol\":1671:1692  address public mlAMPL */\n    tag_3:\n      sload(0x02)\n      tag_20\n      swap1\n      sub(shl(0xa0, 0x01), 0x01)\n      and\n      dup2\n      jump\n    tag_20:\n      mload(0x40)\n      sub(shl(0xa0, 0x01), 0x01)\n        /* \"#utility.yul\":178:210   */\n      swap1\n      swap2\n      and\n        /* \"#utility.yul\":160:211   */\n      dup2\n      mstore\n        /* \"#utility.yul\":148:150   */\n      0x20\n        /* \"#utility.yul\":133:151   */\n      add\n        /* \"contracts/bonding_full.sol\":1671:1692  address public mlAMPL */\n    tag_22:\n      mload(0x40)\n      dup1\n      swap2\n      sub\n      swap1\n      return\n        /* \"contracts/bonding_full.sol\":1620:1639  address public weth */\n    tag_4:\n      sload(0x01)\n      tag_20\n      swap1\n      sub(shl(0xa0, 0x01), 0x01)\n      and\n      dup2\n      jump\n        /* \"contracts/bonding_full.sol\":5581:5717  function checkContractMLAMPLBalance() external view returns (uint256) {... */\n    tag_5:\n      tag_27\n      tag_28\n      jump\t// in\n    tag_27:\n      mload(0x40)\n        /* \"#utility.yul\":368:393   */\n      swap1\n      dup2\n      mstore\n        /* \"#utility.yul\":356:358   */\n      0x20\n        /* \"#utility.yul\":341:359   */\n      add\n        /* \"contracts/bonding_full.sol\":5581:5717  function checkContractMLAMPLBalance() external view returns (uint256) {... */\n      tag_22\n        /* \"#utility.yul\":222:399   */\n      jump\n        /* \"contracts/bonding_full.sol\":4659:5127  function withdraw(address token, uint256 amount, address recipient) external onlyOwner {... */\n    tag_6:\n      tag_31\n      tag_32\n      calldatasize\n      0x04\n      tag_33\n      jump\t// in\n    tag_32:\n      tag_34\n      jump\t// in\n    tag_31:\n      stop\n        /* \"contracts/bonding_full.sol\":2674:2784  function setTargetPrice(uint256 _targetPrice) external onlyOwner {... */\n    tag_7:\n      tag_31\n      tag_36\n      calldatasize\n      0x04\n      tag_37\n      jump\t// in\n    tag_36:\n      tag_38\n      jump\t// in\n        /* \"contracts/bonding_full.sol\":2487:2666  function setDiscountRate(uint256 _discountRate) external onlyOwner {... */\n    tag_8:\n      tag_31\n      tag_40\n      calldatasize\n      0x04\n      tag_37\n      jump\t// in\n    tag_40:\n      tag_41\n      jump\t// in\n        /* \"contracts/bonding_full.sol\":5442:5573  function checkMLAMPLBalance(address user) external view returns (uint256) {... */\n    tag_9:\n      tag_27\n      tag_43\n      calldatasize\n      0x04\n      tag_44\n      jump\t// in\n    tag_43:\n      tag_45\n      jump\t// in\n        /* \"contracts/bonding_full.sol\":1593:1613  address public owner */\n    tag_10:\n      sload(0x00)\n      tag_20\n      swap1\n      sub(shl(0xa0, 0x01), 0x01)\n      and\n      dup2\n      jump\n        /* \"contracts/bonding_full.sol\":3030:4651  function bond(uint256 wethAmount) external {... */\n    tag_11:\n      tag_31\n      tag_51\n      calldatasize\n      0x04\n      tag_37\n      jump\t// in\n    tag_51:\n      tag_52\n      jump\t// in\n        /* \"contracts/bonding_full.sol\":5159:5301  function checkWETHAllowance(address user) external view returns (uint256) {... */\n    tag_12:\n      tag_27\n      tag_54\n      calldatasize\n      0x04\n      tag_44\n      jump\t// in\n    tag_54:\n      tag_55\n      jump\t// in\n        /* \"contracts/bonding_full.sol\":5309:5434  function checkWETHBalance(address user) external view returns (uint256) {... */\n    tag_13:\n      tag_27\n      tag_58\n      calldatasize\n      0x04\n      tag_44\n      jump\t// in\n    tag_58:\n      tag_59\n      jump\t// in\n        /* \"contracts/bonding_full.sol\":1762:1788  uint256 public targetPrice */\n    tag_14:\n      tag_27\n      sload(0x04)\n      dup2\n      jump\n        /* \"contracts/bonding_full.sol\":1728:1755  uint256 public discountRate */\n    tag_15:\n      tag_27\n      sload(0x03)\n      dup2\n      jump\n        /* \"contracts/bonding_full.sol\":2792:3022  function transferOwnership(address newOwner) external onlyOwner {... */\n    tag_16:\n      tag_31\n      tag_68\n      calldatasize\n      0x04\n      tag_44\n      jump\t// in\n    tag_68:\n      tag_69\n      jump\t// in\n        /* \"contracts/bonding_full.sol\":5581:5717  function checkContractMLAMPLBalance() external view returns (uint256) {... */\n    tag_28:\n        /* \"contracts/bonding_full.sol\":5677:5683  mlAMPL */\n      sload(0x02)\n        /* \"contracts/bonding_full.sol\":5669:5709  IMLAMPL(mlAMPL).balanceOf(address(this)) */\n      mload(0x40)\n      shl(0xe0, 0x70a08231)\n      dup2\n      mstore\n        /* \"contracts/bonding_full.sol\":5703:5707  this */\n      address\n        /* \"contracts/bonding_full.sol\":5669:5709  IMLAMPL(mlAMPL).balanceOf(address(this)) */\n      0x04\n      dup3\n      add\n        /* \"#utility.yul\":160:211   */\n      mstore\n        /* \"contracts/bonding_full.sol\":5642:5649  uint256 */\n      0x00\n      swap2\n      sub(shl(0xa0, 0x01), 0x01)\n        /* \"contracts/bonding_full.sol\":5677:5683  mlAMPL */\n      and\n      swap1\n        /* \"contracts/bonding_full.sol\":5669:5694  IMLAMPL(mlAMPL).balanceOf */\n      0x70a08231\n      swap1\n        /* \"#utility.yul\":133:151   */\n      0x24\n      add\n        /* \"contracts/bonding_full.sol\":5669:5709  IMLAMPL(mlAMPL).balanceOf(address(this)) */\n      0x20\n      mload(0x40)\n      dup1\n      dup4\n      sub\n      dup2\n      dup7\n      gas\n      staticcall\n      iszero\n      dup1\n      iszero\n      tag_73\n      jumpi\n      returndatacopy(0x00, 0x00, returndatasize)\n      revert(0x00, returndatasize)\n    tag_73:\n      pop\n      pop\n      pop\n      pop\n      mload(0x40)\n      returndatasize\n      not(0x1f)\n      0x1f\n      dup3\n      add\n      and\n      dup3\n      add\n      dup1\n      0x40\n      mstore\n      pop\n      dup2\n      add\n      swap1\n      tag_74\n      swap2\n      swap1\n      tag_75\n      jump\t// in\n    tag_74:\n        /* \"contracts/bonding_full.sol\":5662:5709  return IMLAMPL(mlAMPL).balanceOf(address(this)) */\n      swap1\n      pop\n        /* \"contracts/bonding_full.sol\":5581:5717  function checkContractMLAMPLBalance() external view returns (uint256) {... */\n      swap1\n      jump\t// out\n        /* \"contracts/bonding_full.sol\":4659:5127  function withdraw(address token, uint256 amount, address recipient) external onlyOwner {... */\n    tag_34:\n        /* \"contracts/bonding_full.sol\":2435:2440  owner */\n      and(sub(shl(0xa0, 0x01), 0x01), sload(0x00))\n        /* \"contracts/bonding_full.sol\":2421:2431  msg.sender */\n      caller\n        /* \"contracts/bonding_full.sol\":2421:2440  msg.sender == owner */\n      eq\n        /* \"contracts/bonding_full.sol\":2413:2459  require(msg.sender == owner, \"Not authorized\") */\n      tag_77\n      jumpi\n      mload(0x40)\n      shl(0xe5, 0x461bcd)\n      dup2\n      mstore\n      0x04\n      add\n      tag_78\n      swap1\n      tag_79\n      jump\t// in\n    tag_78:\n      mload(0x40)\n      dup1\n      swap2\n      sub\n      swap1\n      revert\n    tag_77:\n      sub(shl(0xa0, 0x01), 0x01)\n        /* \"contracts/bonding_full.sol\":4765:4788  recipient != address(0) */\n      dup2\n      and\n        /* \"contracts/bonding_full.sol\":4757:4818  require(recipient != address(0), \"Invalid recipient address\") */\n      tag_81\n      jumpi\n      mload(0x40)\n      shl(0xe5, 0x461bcd)\n      dup2\n      mstore\n        /* \"#utility.yul\":2117:2119   */\n      0x20\n        /* \"contracts/bonding_full.sol\":4757:4818  require(recipient != address(0), \"Invalid recipient address\") */\n      0x04\n      dup3\n      add\n        /* \"#utility.yul\":2099:2120   */\n      mstore\n        /* \"#utility.yul\":2156:2158   */\n      0x19\n        /* \"#utility.yul\":2136:2154   */\n      0x24\n      dup3\n      add\n        /* \"#utility.yul\":2129:2159   */\n      mstore\n        /* \"#utility.yul\":2195:2222   */\n      0x496e76616c696420726563697069656e74206164647265737300000000000000\n        /* \"#utility.yul\":2175:2193   */\n      0x44\n      dup3\n      add\n        /* \"#utility.yul\":2168:2223   */\n      mstore\n        /* \"#utility.yul\":2240:2258   */\n      0x64\n      add\n        /* \"contracts/bonding_full.sol\":4757:4818  require(recipient != address(0), \"Invalid recipient address\") */\n      tag_78\n        /* \"#utility.yul\":1915:2264   */\n      jump\n        /* \"contracts/bonding_full.sol\":4757:4818  require(recipient != address(0), \"Invalid recipient address\") */\n    tag_81:\n        /* \"contracts/bonding_full.sol\":4846:4847  0 */\n      0x00\n        /* \"contracts/bonding_full.sol\":4837:4843  amount */\n      dup3\n        /* \"contracts/bonding_full.sol\":4837:4847  amount > 0 */\n      gt\n        /* \"contracts/bonding_full.sol\":4829:4884  require(amount > 0, \"Amount must be greater than zero\") */\n      tag_84\n      jumpi\n      mload(0x40)\n      shl(0xe5, 0x461bcd)\n      dup2\n      mstore\n        /* \"#utility.yul\":2471:2473   */\n      0x20\n        /* \"contracts/bonding_full.sol\":4829:4884  require(amount > 0, \"Amount must be greater than zero\") */\n      0x04\n      dup3\n      add\n        /* \"#utility.yul\":2453:2474   */\n      dup2\n      swap1\n      mstore\n        /* \"#utility.yul\":2490:2508   */\n      0x24\n      dup3\n      add\n        /* \"#utility.yul\":2483:2513   */\n      mstore\n        /* \"#utility.yul\":2549:2583   */\n      0x416d6f756e74206d7573742062652067726561746572207468616e207a65726f\n        /* \"#utility.yul\":2529:2547   */\n      0x44\n      dup3\n      add\n        /* \"#utility.yul\":2522:2584   */\n      mstore\n        /* \"#utility.yul\":2601:2619   */\n      0x64\n      add\n        /* \"contracts/bonding_full.sol\":4829:4884  require(amount > 0, \"Amount must be greater than zero\") */\n      tag_78\n        /* \"#utility.yul\":2269:2625   */\n      jump\n        /* \"contracts/bonding_full.sol\":4829:4884  require(amount > 0, \"Amount must be greater than zero\") */\n    tag_84:\n        /* \"contracts/bonding_full.sol\":4915:4953  IERC20(token).balanceOf(address(this)) */\n      mload(0x40)\n      shl(0xe0, 0x70a08231)\n      dup2\n      mstore\n        /* \"contracts/bonding_full.sol\":4947:4951  this */\n      address\n        /* \"contracts/bonding_full.sol\":4915:4953  IERC20(token).balanceOf(address(this)) */\n      0x04\n      dup3\n      add\n        /* \"#utility.yul\":160:211   */\n      mstore\n        /* \"contracts/bonding_full.sol\":4897:4912  uint256 balance */\n      0x00\n      swap1\n      sub(shl(0xa0, 0x01), 0x01)\n        /* \"contracts/bonding_full.sol\":4915:4938  IERC20(token).balanceOf */\n      dup6\n      and\n      swap1\n      0x70a08231\n      swap1\n        /* \"#utility.yul\":133:151   */\n      0x24\n      add\n        /* \"contracts/bonding_full.sol\":4915:4953  IERC20(token).balanceOf(address(this)) */\n      0x20\n      mload(0x40)\n      dup1\n      dup4\n      sub\n      dup2\n      dup7\n      gas\n      staticcall\n      iszero\n      dup1\n      iszero\n      tag_89\n      jumpi\n      returndatacopy(0x00, 0x00, returndatasize)\n      revert(0x00, returndatasize)\n    tag_89:\n      pop\n      pop\n      pop\n      pop\n      mload(0x40)\n      returndatasize\n      not(0x1f)\n      0x1f\n      dup3\n      add\n      and\n      dup3\n      add\n      dup1\n      0x40\n      mstore\n      pop\n      dup2\n      add\n      swap1\n      tag_90\n      swap2\n      swap1\n      tag_75\n      jump\t// in\n    tag_90:\n        /* \"contracts/bonding_full.sol\":4897:4953  uint256 balance = IERC20(token).balanceOf(address(this)) */\n      swap1\n      pop\n        /* \"contracts/bonding_full.sol\":4983:4989  amount */\n      dup3\n        /* \"contracts/bonding_full.sol\":4972:4979  balance */\n      dup2\n        /* \"contracts/bonding_full.sol\":4972:4989  balance >= amount */\n      lt\n      iszero\n        /* \"contracts/bonding_full.sol\":4964:5014  require(balance >= amount, \"Insufficient balance\") */\n      tag_91\n      jumpi\n      mload(0x40)\n      shl(0xe5, 0x461bcd)\n      dup2\n      mstore\n        /* \"#utility.yul\":2832:2834   */\n      0x20\n        /* \"contracts/bonding_full.sol\":4964:5014  require(balance >= amount, \"Insufficient balance\") */\n      0x04\n      dup3\n      add\n        /* \"#utility.yul\":2814:2835   */\n      mstore\n        /* \"#utility.yul\":2871:2873   */\n      0x14\n        /* \"#utility.yul\":2851:2869   */\n      0x24\n      dup3\n      add\n        /* \"#utility.yul\":2844:2874   */\n      mstore\n      shl(0x60, 0x496e73756666696369656e742062616c616e6365)\n        /* \"#utility.yul\":2890:2908   */\n      0x44\n      dup3\n      add\n        /* \"#utility.yul\":2883:2933   */\n      mstore\n        /* \"#utility.yul\":2950:2968   */\n      0x64\n      add\n        /* \"contracts/bonding_full.sol\":4964:5014  require(balance >= amount, \"Insufficient balance\") */\n      tag_78\n        /* \"#utility.yul\":2630:2974   */\n      jump\n        /* \"contracts/bonding_full.sol\":4964:5014  require(balance >= amount, \"Insufficient balance\") */\n    tag_91:\n        /* \"contracts/bonding_full.sol\":5027:5068  IERC20(token).transfer(recipient, amount) */\n      mload(0x40)\n      shl(0xe0, 0xa9059cbb)\n      dup2\n      mstore\n      sub(shl(0xa0, 0x01), 0x01)\n        /* \"#utility.yul\":3171:3203   */\n      dup4\n      dup2\n      and\n        /* \"contracts/bonding_full.sol\":5027:5068  IERC20(token).transfer(recipient, amount) */\n      0x04\n      dup4\n      add\n        /* \"#utility.yul\":3153:3204   */\n      mstore\n        /* \"#utility.yul\":3220:3238   */\n      0x24\n      dup3\n      add\n        /* \"#utility.yul\":3213:3247   */\n      dup6\n      swap1\n      mstore\n        /* \"contracts/bonding_full.sol\":5027:5049  IERC20(token).transfer */\n      dup6\n      and\n      swap1\n      0xa9059cbb\n      swap1\n        /* \"#utility.yul\":3126:3144   */\n      0x44\n      add\n        /* \"contracts/bonding_full.sol\":5027:5068  IERC20(token).transfer(recipient, amount) */\n      0x20\n      mload(0x40)\n      dup1\n      dup4\n      sub\n      dup2\n      0x00\n      dup8\n      gas\n      call\n      iszero\n      dup1\n      iszero\n      tag_97\n      jumpi\n      returndatacopy(0x00, 0x00, returndatasize)\n      revert(0x00, returndatasize)\n    tag_97:\n      pop\n      pop\n      pop\n      pop\n      mload(0x40)\n      returndatasize\n      not(0x1f)\n      0x1f\n      dup3\n      add\n      and\n      dup3\n      add\n      dup1\n      0x40\n      mstore\n      pop\n      dup2\n      add\n      swap1\n      tag_98\n      swap2\n      swap1\n      tag_99\n      jump\t// in\n    tag_98:\n      pop\n        /* \"contracts/bonding_full.sol\":5101:5110  recipient */\n      dup2\n      sub(shl(0xa0, 0x01), 0x01)\n        /* \"contracts/bonding_full.sol\":5084:5119  Withdrawn(token, recipient, amount) */\n      and\n        /* \"contracts/bonding_full.sol\":5094:5099  token */\n      dup5\n      sub(shl(0xa0, 0x01), 0x01)\n        /* \"contracts/bonding_full.sol\":5084:5119  Withdrawn(token, recipient, amount) */\n      and\n      0xd1c19fbcd4551a5edfb66d43d2e337c04837afda3482b42bdf569a8fccdae5fb\n        /* \"contracts/bonding_full.sol\":5112:5118  amount */\n      dup6\n        /* \"contracts/bonding_full.sol\":5084:5119  Withdrawn(token, recipient, amount) */\n      mload(0x40)\n      tag_100\n      swap2\n        /* \"#utility.yul\":368:393   */\n      dup2\n      mstore\n        /* \"#utility.yul\":356:358   */\n      0x20\n        /* \"#utility.yul\":341:359   */\n      add\n      swap1\n        /* \"#utility.yul\":222:399   */\n      jump\n        /* \"contracts/bonding_full.sol\":5084:5119  Withdrawn(token, recipient, amount) */\n    tag_100:\n      mload(0x40)\n      dup1\n      swap2\n      sub\n      swap1\n      log3\n        /* \"contracts/bonding_full.sol\":4746:5127  {... */\n      pop\n        /* \"contracts/bonding_full.sol\":4659:5127  function withdraw(address token, uint256 amount, address recipient) external onlyOwner {... */\n      pop\n      pop\n      pop\n      jump\t// out\n        /* \"contracts/bonding_full.sol\":2674:2784  function setTargetPrice(uint256 _targetPrice) external onlyOwner {... */\n    tag_38:\n        /* \"contracts/bonding_full.sol\":2435:2440  owner */\n      and(sub(shl(0xa0, 0x01), 0x01), sload(0x00))\n        /* \"contracts/bonding_full.sol\":2421:2431  msg.sender */\n      caller\n        /* \"contracts/bonding_full.sol\":2421:2440  msg.sender == owner */\n      eq\n        /* \"contracts/bonding_full.sol\":2413:2459  require(msg.sender == owner, \"Not authorized\") */\n      tag_102\n      jumpi\n      mload(0x40)\n      shl(0xe5, 0x461bcd)\n      dup2\n      mstore\n      0x04\n      add\n      tag_78\n      swap1\n      tag_79\n      jump\t// in\n    tag_102:\n        /* \"contracts/bonding_full.sol\":2750:2761  targetPrice */\n      0x04\n        /* \"contracts/bonding_full.sol\":2750:2776  targetPrice = _targetPrice */\n      sstore\n        /* \"contracts/bonding_full.sol\":2674:2784  function setTargetPrice(uint256 _targetPrice) external onlyOwner {... */\n      jump\t// out\n        /* \"contracts/bonding_full.sol\":2487:2666  function setDiscountRate(uint256 _discountRate) external onlyOwner {... */\n    tag_41:\n        /* \"contracts/bonding_full.sol\":2435:2440  owner */\n      and(sub(shl(0xa0, 0x01), 0x01), sload(0x00))\n        /* \"contracts/bonding_full.sol\":2421:2431  msg.sender */\n      caller\n        /* \"contracts/bonding_full.sol\":2421:2440  msg.sender == owner */\n      eq\n        /* \"contracts/bonding_full.sol\":2413:2459  require(msg.sender == owner, \"Not authorized\") */\n      tag_106\n      jumpi\n      mload(0x40)\n      shl(0xe5, 0x461bcd)\n      dup2\n      mstore\n      0x04\n      add\n      tag_78\n      swap1\n      tag_79\n      jump\t// in\n    tag_106:\n        /* \"contracts/bonding_full.sol\":2590:2593  100 */\n      0x64\n        /* \"contracts/bonding_full.sol\":2573:2586  _discountRate */\n      dup2\n        /* \"contracts/bonding_full.sol\":2573:2593  _discountRate <= 100 */\n      gt\n      iszero\n        /* \"contracts/bonding_full.sol\":2565:2619  require(_discountRate <= 100, \"Invalid discount rate\") */\n      tag_109\n      jumpi\n      mload(0x40)\n      shl(0xe5, 0x461bcd)\n      dup2\n      mstore\n        /* \"#utility.yul\":3742:3744   */\n      0x20\n        /* \"contracts/bonding_full.sol\":2565:2619  require(_discountRate <= 100, \"Invalid discount rate\") */\n      0x04\n      dup3\n      add\n        /* \"#utility.yul\":3724:3745   */\n      mstore\n        /* \"#utility.yul\":3781:3783   */\n      0x15\n        /* \"#utility.yul\":3761:3779   */\n      0x24\n      dup3\n      add\n        /* \"#utility.yul\":3754:3784   */\n      mstore\n      shl(0x58, 0x496e76616c696420646973636f756e742072617465)\n        /* \"#utility.yul\":3800:3818   */\n      0x44\n      dup3\n      add\n        /* \"#utility.yul\":3793:3844   */\n      mstore\n        /* \"#utility.yul\":3861:3879   */\n      0x64\n      add\n        /* \"contracts/bonding_full.sol\":2565:2619  require(_discountRate <= 100, \"Invalid discount rate\") */\n      tag_78\n        /* \"#utility.yul\":3540:3885   */\n      jump\n        /* \"contracts/bonding_full.sol\":2565:2619  require(_discountRate <= 100, \"Invalid discount rate\") */\n    tag_109:\n        /* \"contracts/bonding_full.sol\":2630:2642  discountRate */\n      0x03\n        /* \"contracts/bonding_full.sol\":2630:2658  discountRate = _discountRate */\n      sstore\n        /* \"contracts/bonding_full.sol\":2487:2666  function setDiscountRate(uint256 _discountRate) external onlyOwner {... */\n      jump\t// out\n        /* \"contracts/bonding_full.sol\":5442:5573  function checkMLAMPLBalance(address user) external view returns (uint256) {... */\n    tag_45:\n        /* \"contracts/bonding_full.sol\":5542:5548  mlAMPL */\n      sload(0x02)\n        /* \"contracts/bonding_full.sol\":5534:5565  IMLAMPL(mlAMPL).balanceOf(user) */\n      mload(0x40)\n      shl(0xe0, 0x70a08231)\n      dup2\n      mstore\n      sub(shl(0xa0, 0x01), 0x01)\n        /* \"#utility.yul\":178:210   */\n      dup4\n      dup2\n      and\n        /* \"contracts/bonding_full.sol\":5534:5565  IMLAMPL(mlAMPL).balanceOf(user) */\n      0x04\n      dup4\n      add\n        /* \"#utility.yul\":160:211   */\n      mstore\n        /* \"contracts/bonding_full.sol\":5507:5514  uint256 */\n      0x00\n      swap3\n        /* \"contracts/bonding_full.sol\":5542:5548  mlAMPL */\n      and\n      swap1\n        /* \"contracts/bonding_full.sol\":5534:5559  IMLAMPL(mlAMPL).balanceOf */\n      0x70a08231\n      swap1\n        /* \"#utility.yul\":133:151   */\n      0x24\n      add\n        /* \"contracts/bonding_full.sol\":5534:5565  IMLAMPL(mlAMPL).balanceOf(user) */\n    tag_113:\n      0x20\n      mload(0x40)\n      dup1\n      dup4\n      sub\n      dup2\n      dup7\n      gas\n      staticcall\n      iszero\n      dup1\n      iszero\n      tag_115\n      jumpi\n      returndatacopy(0x00, 0x00, returndatasize)\n      revert(0x00, returndatasize)\n    tag_115:\n      pop\n      pop\n      pop\n      pop\n      mload(0x40)\n      returndatasize\n      not(0x1f)\n      0x1f\n      dup3\n      add\n      and\n      dup3\n      add\n      dup1\n      0x40\n      mstore\n      pop\n      dup2\n      add\n      swap1\n      tag_116\n      swap2\n      swap1\n      tag_75\n      jump\t// in\n    tag_116:\n        /* \"contracts/bonding_full.sol\":5527:5565  return IMLAMPL(mlAMPL).balanceOf(user) */\n      swap3\n        /* \"contracts/bonding_full.sol\":5442:5573  function checkMLAMPLBalance(address user) external view returns (uint256) {... */\n      swap2\n      pop\n      pop\n      jump\t// out\n        /* \"contracts/bonding_full.sol\":3030:4651  function bond(uint256 wethAmount) external {... */\n    tag_52:\n        /* \"contracts/bonding_full.sol\":3105:3106  0 */\n      0x00\n        /* \"contracts/bonding_full.sol\":3092:3102  wethAmount */\n      dup2\n        /* \"contracts/bonding_full.sol\":3092:3106  wethAmount > 0 */\n      gt\n        /* \"contracts/bonding_full.sol\":3084:3128  require(wethAmount > 0, \"Must deposit WETH\") */\n      tag_118\n      jumpi\n      mload(0x40)\n      shl(0xe5, 0x461bcd)\n      dup2\n      mstore\n        /* \"#utility.yul\":4092:4094   */\n      0x20\n        /* \"contracts/bonding_full.sol\":3084:3128  require(wethAmount > 0, \"Must deposit WETH\") */\n      0x04\n      dup3\n      add\n        /* \"#utility.yul\":4074:4095   */\n      mstore\n        /* \"#utility.yul\":4131:4133   */\n      0x11\n        /* \"#utility.yul\":4111:4129   */\n      0x24\n      dup3\n      add\n        /* \"#utility.yul\":4104:4134   */\n      mstore\n      shl(0x7b, 0x09aeae6e840c8cae0dee6d2e840ae8aa89)\n        /* \"#utility.yul\":4150:4168   */\n      0x44\n      dup3\n      add\n        /* \"#utility.yul\":4143:4190   */\n      mstore\n        /* \"#utility.yul\":4207:4225   */\n      0x64\n      add\n        /* \"contracts/bonding_full.sol\":3084:3128  require(wethAmount > 0, \"Must deposit WETH\") */\n      tag_78\n        /* \"#utility.yul\":3890:4231   */\n      jump\n        /* \"contracts/bonding_full.sol\":3084:3128  require(wethAmount > 0, \"Must deposit WETH\") */\n    tag_118:\n        /* \"contracts/bonding_full.sol\":3210:3214  weth */\n      sload(0x01)\n        /* \"contracts/bonding_full.sol\":3204:3252  IWETH(weth).allowance(msg.sender, address(this)) */\n      mload(0x40)\n      shl(0xe1, 0x6eb1769f)\n      dup2\n      mstore\n        /* \"contracts/bonding_full.sol\":3226:3236  msg.sender */\n      caller\n        /* \"contracts/bonding_full.sol\":3204:3252  IWETH(weth).allowance(msg.sender, address(this)) */\n      0x04\n      dup3\n      add\n        /* \"#utility.yul\":4410:4461   */\n      mstore\n        /* \"contracts/bonding_full.sol\":3246:3250  this */\n      address\n        /* \"#utility.yul\":4477:4495   */\n      0x24\n      dup3\n      add\n        /* \"#utility.yul\":4470:4530   */\n      mstore\n        /* \"contracts/bonding_full.sol\":3184:3201  uint256 allowance */\n      0x00\n      swap2\n      sub(shl(0xa0, 0x01), 0x01)\n        /* \"contracts/bonding_full.sol\":3210:3214  weth */\n      and\n      swap1\n        /* \"contracts/bonding_full.sol\":3204:3225  IWETH(weth).allowance */\n      0xdd62ed3e\n      swap1\n        /* \"#utility.yul\":4383:4401   */\n      0x44\n      add\n        /* \"contracts/bonding_full.sol\":3204:3252  IWETH(weth).allowance(msg.sender, address(this)) */\n      0x20\n      mload(0x40)\n      dup1\n      dup4\n      sub\n      dup2\n      dup7\n      gas\n      staticcall\n      iszero\n      dup1\n      iszero\n      tag_124\n      jumpi\n      returndatacopy(0x00, 0x00, returndatasize)\n      revert(0x00, returndatasize)\n    tag_124:\n      pop\n      pop\n      pop\n      pop\n      mload(0x40)\n      returndatasize\n      not(0x1f)\n      0x1f\n      dup3\n      add\n      and\n      dup3\n      add\n      dup1\n      0x40\n      mstore\n      pop\n      dup2\n      add\n      swap1\n      tag_125\n      swap2\n      swap1\n      tag_75\n      jump\t// in\n    tag_125:\n        /* \"contracts/bonding_full.sol\":3184:3252  uint256 allowance = IWETH(weth).allowance(msg.sender, address(this)) */\n      swap1\n      pop\n        /* \"contracts/bonding_full.sol\":3284:3294  wethAmount */\n      dup2\n        /* \"contracts/bonding_full.sol\":3271:3280  allowance */\n      dup2\n        /* \"contracts/bonding_full.sol\":3271:3294  allowance >= wethAmount */\n      lt\n      iszero\n        /* \"contracts/bonding_full.sol\":3263:3323  require(allowance >= wethAmount, \"Allowance not sufficient\") */\n      tag_126\n      jumpi\n      mload(0x40)\n      shl(0xe5, 0x461bcd)\n      dup2\n      mstore\n        /* \"#utility.yul\":4743:4745   */\n      0x20\n        /* \"contracts/bonding_full.sol\":3263:3323  require(allowance >= wethAmount, \"Allowance not sufficient\") */\n      0x04\n      dup3\n      add\n        /* \"#utility.yul\":4725:4746   */\n      mstore\n        /* \"#utility.yul\":4782:4784   */\n      0x18\n        /* \"#utility.yul\":4762:4780   */\n      0x24\n      dup3\n      add\n        /* \"#utility.yul\":4755:4785   */\n      mstore\n        /* \"#utility.yul\":4821:4847   */\n      0x416c6c6f77616e6365206e6f742073756666696369656e740000000000000000\n        /* \"#utility.yul\":4801:4819   */\n      0x44\n      dup3\n      add\n        /* \"#utility.yul\":4794:4848   */\n      mstore\n        /* \"#utility.yul\":4865:4883   */\n      0x64\n      add\n        /* \"contracts/bonding_full.sol\":3263:3323  require(allowance >= wethAmount, \"Allowance not sufficient\") */\n      tag_78\n        /* \"#utility.yul\":4541:4889   */\n      jump\n        /* \"contracts/bonding_full.sol\":3263:3323  require(allowance >= wethAmount, \"Allowance not sufficient\") */\n    tag_126:\n        /* \"contracts/bonding_full.sol\":3399:3403  weth */\n      sload(0x01)\n        /* \"contracts/bonding_full.sol\":3393:3456  IWETH(weth).transferFrom(msg.sender, address(this), wethAmount) */\n      mload(0x40)\n      shl(0xe0, 0x23b872dd)\n      dup2\n      mstore\n        /* \"contracts/bonding_full.sol\":3418:3428  msg.sender */\n      caller\n        /* \"contracts/bonding_full.sol\":3393:3456  IWETH(weth).transferFrom(msg.sender, address(this), wethAmount) */\n      0x04\n      dup3\n      add\n        /* \"#utility.yul\":5096:5147   */\n      mstore\n        /* \"contracts/bonding_full.sol\":3438:3442  this */\n      address\n        /* \"#utility.yul\":5163:5181   */\n      0x24\n      dup3\n      add\n        /* \"#utility.yul\":5156:5216   */\n      mstore\n        /* \"#utility.yul\":5232:5250   */\n      0x44\n      dup2\n      add\n        /* \"#utility.yul\":5225:5259   */\n      dup5\n      swap1\n      mstore\n      sub(shl(0xa0, 0x01), 0x01)\n        /* \"contracts/bonding_full.sol\":3399:3403  weth */\n      swap1\n      swap2\n      and\n      swap1\n        /* \"contracts/bonding_full.sol\":3393:3417  IWETH(weth).transferFrom */\n      0x23b872dd\n      swap1\n        /* \"#utility.yul\":5069:5087   */\n      0x64\n      add\n        /* \"contracts/bonding_full.sol\":3393:3456  IWETH(weth).transferFrom(msg.sender, address(this), wethAmount) */\n      0x20\n      mload(0x40)\n      dup1\n      dup4\n      sub\n      dup2\n      0x00\n      dup8\n      gas\n      call\n      iszero\n      dup1\n      iszero\n      tag_132\n      jumpi\n      returndatacopy(0x00, 0x00, returndatasize)\n      revert(0x00, returndatasize)\n    tag_132:\n      pop\n      pop\n      pop\n      pop\n      mload(0x40)\n      returndatasize\n      not(0x1f)\n      0x1f\n      dup3\n      add\n      and\n      dup3\n      add\n      dup1\n      0x40\n      mstore\n      pop\n      dup2\n      add\n      swap1\n      tag_133\n      swap2\n      swap1\n      tag_99\n      jump\t// in\n    tag_133:\n      pop\n        /* \"contracts/bonding_full.sol\":3520:3543  uint256 discountedPrice */\n      0x00\n        /* \"contracts/bonding_full.sol\":3585:3588  100 */\n      0x64\n        /* \"contracts/bonding_full.sol\":3568:3580  discountRate */\n      sload(0x03)\n        /* \"contracts/bonding_full.sol\":3562:3565  100 */\n      0x64\n        /* \"contracts/bonding_full.sol\":3562:3580  100 - discountRate */\n      tag_134\n      swap2\n      swap1\n      tag_135\n      jump\t// in\n    tag_134:\n        /* \"contracts/bonding_full.sol\":3547:3558  targetPrice */\n      sload(0x04)\n        /* \"contracts/bonding_full.sol\":3547:3581  targetPrice * (100 - discountRate) */\n      tag_136\n      swap2\n      swap1\n      tag_137\n      jump\t// in\n    tag_136:\n        /* \"contracts/bonding_full.sol\":3546:3588  (targetPrice * (100 - discountRate)) / 100 */\n      tag_138\n      swap2\n      swap1\n      tag_139\n      jump\t// in\n    tag_138:\n        /* \"contracts/bonding_full.sol\":3520:3588  uint256 discountedPrice = (targetPrice * (100 - discountRate)) / 100 */\n      swap1\n      pop\n        /* \"contracts/bonding_full.sol\":3599:3619  uint256 mlAMPLAmount */\n      0x00\n        /* \"contracts/bonding_full.sol\":3520:3588  uint256 discountedPrice = (targetPrice * (100 - discountRate)) / 100 */\n      dup2\n        /* \"contracts/bonding_full.sol\":3623:3640  wethAmount * 1e18 */\n      tag_140\n        /* \"contracts/bonding_full.sol\":3623:3633  wethAmount */\n      dup6\n        /* \"contracts/bonding_full.sol\":3636:3640  1e18 */\n      0x0de0b6b3a7640000\n        /* \"contracts/bonding_full.sol\":3623:3640  wethAmount * 1e18 */\n      tag_137\n      jump\t// in\n    tag_140:\n        /* \"contracts/bonding_full.sol\":3622:3659  (wethAmount * 1e18) / discountedPrice */\n      tag_141\n      swap2\n      swap1\n      tag_139\n      jump\t// in\n    tag_141:\n        /* \"contracts/bonding_full.sol\":3758:3764  mlAMPL */\n      sload(0x02)\n        /* \"contracts/bonding_full.sol\":3750:3790  IMLAMPL(mlAMPL).balanceOf(address(this)) */\n      mload(0x40)\n      shl(0xe0, 0x70a08231)\n      dup2\n      mstore\n        /* \"contracts/bonding_full.sol\":3784:3788  this */\n      address\n        /* \"contracts/bonding_full.sol\":3750:3790  IMLAMPL(mlAMPL).balanceOf(address(this)) */\n      0x04\n      dup3\n      add\n        /* \"#utility.yul\":160:211   */\n      mstore\n        /* \"contracts/bonding_full.sol\":3599:3659  uint256 mlAMPLAmount = (wethAmount * 1e18) / discountedPrice */\n      swap2\n      swap3\n      pop\n        /* \"contracts/bonding_full.sol\":3725:3747  uint256 currentBalance */\n      0x00\n      swap2\n      sub(shl(0xa0, 0x01), 0x01)\n        /* \"contracts/bonding_full.sol\":3758:3764  mlAMPL */\n      swap1\n      swap2\n      and\n      swap1\n        /* \"contracts/bonding_full.sol\":3750:3775  IMLAMPL(mlAMPL).balanceOf */\n      0x70a08231\n      swap1\n        /* \"#utility.yul\":133:151   */\n      0x24\n      add\n        /* \"contracts/bonding_full.sol\":3750:3790  IMLAMPL(mlAMPL).balanceOf(address(this)) */\n      0x20\n      mload(0x40)\n      dup1\n      dup4\n      sub\n      dup2\n      dup7\n      gas\n      staticcall\n      iszero\n      dup1\n      iszero\n      tag_144\n      jumpi\n      returndatacopy(0x00, 0x00, returndatasize)\n      revert(0x00, returndatasize)\n    tag_144:\n      pop\n      pop\n      pop\n      pop\n      mload(0x40)\n      returndatasize\n      not(0x1f)\n      0x1f\n      dup3\n      add\n      and\n      dup3\n      add\n      dup1\n      0x40\n      mstore\n      pop\n      dup2\n      add\n      swap1\n      tag_145\n      swap2\n      swap1\n      tag_75\n      jump\t// in\n    tag_145:\n        /* \"contracts/bonding_full.sol\":3725:3790  uint256 currentBalance = IMLAMPL(mlAMPL).balanceOf(address(this)) */\n      swap1\n      pop\n        /* \"contracts/bonding_full.sol\":3822:3834  mlAMPLAmount */\n      dup2\n        /* \"contracts/bonding_full.sol\":3805:3819  currentBalance */\n      dup2\n        /* \"contracts/bonding_full.sol\":3805:3834  currentBalance < mlAMPLAmount */\n      lt\n        /* \"contracts/bonding_full.sol\":3801:4472  if (currentBalance < mlAMPLAmount) {... */\n      iszero\n      tag_146\n      jumpi\n        /* \"contracts/bonding_full.sol\":3851:3869  uint256 mintAmount */\n      0x00\n        /* \"contracts/bonding_full.sol\":3872:3901  mlAMPLAmount - currentBalance */\n      tag_147\n        /* \"contracts/bonding_full.sol\":3887:3901  currentBalance */\n      dup3\n        /* \"contracts/bonding_full.sol\":3872:3884  mlAMPLAmount */\n      dup5\n        /* \"contracts/bonding_full.sol\":3872:3901  mlAMPLAmount - currentBalance */\n      tag_135\n      jump\t// in\n    tag_147:\n        /* \"contracts/bonding_full.sol\":3851:3901  uint256 mintAmount = mlAMPLAmount - currentBalance */\n      swap1\n      pop\n        /* \"contracts/bonding_full.sol\":3977:3996  uint256 totalSupply */\n      0x00\n        /* \"contracts/bonding_full.sol\":4007:4013  mlAMPL */\n      0x02\n      0x00\n      swap1\n      sload\n      swap1\n      0x0100\n      exp\n      swap1\n      div\n      sub(shl(0xa0, 0x01), 0x01)\n      and\n      sub(shl(0xa0, 0x01), 0x01)\n        /* \"contracts/bonding_full.sol\":3999:4026  IMLAMPL(mlAMPL).totalSupply */\n      and\n      0x18160ddd\n        /* \"contracts/bonding_full.sol\":3999:4028  IMLAMPL(mlAMPL).totalSupply() */\n      mload(0x40)\n      dup2\n      0xffffffff\n      and\n      0xe0\n      shl\n      dup2\n      mstore\n      0x04\n      add\n      0x20\n      mload(0x40)\n      dup1\n      dup4\n      sub\n      dup2\n      dup7\n      gas\n      staticcall\n      iszero\n      dup1\n      iszero\n      tag_149\n      jumpi\n      returndatacopy(0x00, 0x00, returndatasize)\n      revert(0x00, returndatasize)\n    tag_149:\n      pop\n      pop\n      pop\n      pop\n      mload(0x40)\n      returndatasize\n      not(0x1f)\n      0x1f\n      dup3\n      add\n      and\n      dup3\n      add\n      dup1\n      0x40\n      mstore\n      pop\n      dup2\n      add\n      swap1\n      tag_150\n      swap2\n      swap1\n      tag_75\n      jump\t// in\n    tag_150:\n        /* \"contracts/bonding_full.sol\":3977:4028  uint256 totalSupply = IMLAMPL(mlAMPL).totalSupply() */\n      swap1\n      pop\n        /* \"contracts/bonding_full.sol\":4047:4058  totalSupply */\n      dup1\n        /* \"contracts/bonding_full.sol\":4062:4063  0 */\n      0x00\n        /* \"contracts/bonding_full.sol\":4047:4063  totalSupply == 0 */\n      sub\n        /* \"contracts/bonding_full.sol\":4043:4461  if (totalSupply == 0) {... */\n      tag_151\n      jumpi\n        /* \"contracts/bonding_full.sol\":4130:4136  mlAMPL */\n      sload(0x02)\n        /* \"contracts/bonding_full.sol\":4122:4166  IMLAMPL(mlAMPL).initializeSupply(mintAmount) */\n      mload(0x40)\n      shl(0xe0, 0xd9e63bb1)\n      dup2\n      mstore\n      0x04\n      dup2\n      add\n        /* \"#utility.yul\":368:393   */\n      dup5\n      swap1\n      mstore\n      sub(shl(0xa0, 0x01), 0x01)\n        /* \"contracts/bonding_full.sol\":4130:4136  mlAMPL */\n      swap1\n      swap2\n      and\n      swap1\n        /* \"contracts/bonding_full.sol\":4122:4154  IMLAMPL(mlAMPL).initializeSupply */\n      0xd9e63bb1\n      swap1\n        /* \"#utility.yul\":341:359   */\n      0x24\n      add\n        /* \"contracts/bonding_full.sol\":4122:4166  IMLAMPL(mlAMPL).initializeSupply(mintAmount) */\n      0x00\n      mload(0x40)\n      dup1\n      dup4\n      sub\n      dup2\n      0x00\n      dup8\n      dup1\n      extcodesize\n      iszero\n      dup1\n      iszero\n      tag_153\n      jumpi\n      revert(0x00, 0x00)\n    tag_153:\n      pop\n      gas\n      call\n      iszero\n      dup1\n      iszero\n      tag_155\n      jumpi\n      returndatacopy(0x00, 0x00, returndatasize)\n      revert(0x00, returndatasize)\n    tag_155:\n      pop\n      pop\n      pop\n      pop\n        /* \"contracts/bonding_full.sol\":4190:4229  Debug(\"Initialized Supply\", mintAmount) */\n      0x3c5ad147104e56be34a9176a6692f7df8d2f4b29a5af06bc6b98970d329d6577\n        /* \"contracts/bonding_full.sol\":4218:4228  mintAmount */\n      dup3\n        /* \"contracts/bonding_full.sol\":4190:4229  Debug(\"Initialized Supply\", mintAmount) */\n      mload(0x40)\n      tag_156\n      swap2\n      swap1\n        /* \"#utility.yul\":6160:6162   */\n      0x40\n        /* \"#utility.yul\":6142:6163   */\n      dup1\n      dup3\n      mstore\n        /* \"#utility.yul\":6199:6201   */\n      0x12\n        /* \"#utility.yul\":6179:6197   */\n      swap1\n      dup3\n      add\n        /* \"#utility.yul\":6172:6202   */\n      mstore\n      shl(0x70, 0x496e697469616c697a656420537570706c79)\n        /* \"#utility.yul\":6233:6235   */\n      0x60\n        /* \"#utility.yul\":6218:6236   */\n      dup3\n      add\n        /* \"#utility.yul\":6211:6259   */\n      mstore\n        /* \"#utility.yul\":6326:6330   */\n      0x20\n        /* \"#utility.yul\":6311:6331   */\n      dup2\n      add\n        /* \"#utility.yul\":6304:6340   */\n      swap2\n      swap1\n      swap2\n      mstore\n        /* \"#utility.yul\":6291:6294   */\n      0x80\n        /* \"#utility.yul\":6276:6295   */\n      add\n      swap1\n        /* \"#utility.yul\":5930:6346   */\n      jump\n        /* \"contracts/bonding_full.sol\":4190:4229  Debug(\"Initialized Supply\", mintAmount) */\n    tag_156:\n      mload(0x40)\n      dup1\n      swap2\n      sub\n      swap1\n      log1\n        /* \"contracts/bonding_full.sol\":4043:4461  if (totalSupply == 0) {... */\n      jump(tag_158)\n    tag_151:\n        /* \"contracts/bonding_full.sol\":4348:4354  mlAMPL */\n      sload(0x02)\n        /* \"contracts/bonding_full.sol\":4340:4387  IMLAMPL(mlAMPL).mint(address(this), mintAmount) */\n      mload(0x40)\n      shl(0xe0, 0x40c10f19)\n      dup2\n      mstore\n        /* \"contracts/bonding_full.sol\":4369:4373  this */\n      address\n        /* \"contracts/bonding_full.sol\":4340:4387  IMLAMPL(mlAMPL).mint(address(this), mintAmount) */\n      0x04\n      dup3\n      add\n        /* \"#utility.yul\":3153:3204   */\n      mstore\n        /* \"#utility.yul\":3220:3238   */\n      0x24\n      dup2\n      add\n        /* \"#utility.yul\":3213:3247   */\n      dup5\n      swap1\n      mstore\n      sub(shl(0xa0, 0x01), 0x01)\n        /* \"contracts/bonding_full.sol\":4348:4354  mlAMPL */\n      swap1\n      swap2\n      and\n      swap1\n        /* \"contracts/bonding_full.sol\":4340:4360  IMLAMPL(mlAMPL).mint */\n      0x40c10f19\n      swap1\n        /* \"#utility.yul\":3126:3144   */\n      0x44\n      add\n        /* \"contracts/bonding_full.sol\":4340:4387  IMLAMPL(mlAMPL).mint(address(this), mintAmount) */\n      0x00\n      mload(0x40)\n      dup1\n      dup4\n      sub\n      dup2\n      0x00\n      dup8\n      dup1\n      extcodesize\n      iszero\n      dup1\n      iszero\n      tag_160\n      jumpi\n      revert(0x00, 0x00)\n    tag_160:\n      pop\n      gas\n      call\n      iszero\n      dup1\n      iszero\n      tag_162\n      jumpi\n      returndatacopy(0x00, 0x00, returndatasize)\n      revert(0x00, returndatasize)\n    tag_162:\n      pop\n      pop\n      pop\n      pop\n        /* \"contracts/bonding_full.sol\":4411:4445  Debug(\"Minted Tokens\", mintAmount) */\n      0x3c5ad147104e56be34a9176a6692f7df8d2f4b29a5af06bc6b98970d329d6577\n        /* \"contracts/bonding_full.sol\":4434:4444  mintAmount */\n      dup3\n        /* \"contracts/bonding_full.sol\":4411:4445  Debug(\"Minted Tokens\", mintAmount) */\n      mload(0x40)\n      tag_163\n      swap2\n      swap1\n        /* \"#utility.yul\":6581:6583   */\n      0x40\n        /* \"#utility.yul\":6563:6584   */\n      dup1\n      dup3\n      mstore\n        /* \"#utility.yul\":6620:6622   */\n      0x0d\n        /* \"#utility.yul\":6600:6618   */\n      swap1\n      dup3\n      add\n        /* \"#utility.yul\":6593:6623   */\n      mstore\n      shl(0x98, 0x4d696e74656420546f6b656e73)\n        /* \"#utility.yul\":6654:6656   */\n      0x60\n        /* \"#utility.yul\":6639:6657   */\n      dup3\n      add\n        /* \"#utility.yul\":6632:6675   */\n      mstore\n        /* \"#utility.yul\":6742:6746   */\n      0x20\n        /* \"#utility.yul\":6727:6747   */\n      dup2\n      add\n        /* \"#utility.yul\":6720:6756   */\n      swap2\n      swap1\n      swap2\n      mstore\n        /* \"#utility.yul\":6707:6710   */\n      0x80\n        /* \"#utility.yul\":6692:6711   */\n      add\n      swap1\n        /* \"#utility.yul\":6351:6762   */\n      jump\n        /* \"contracts/bonding_full.sol\":4411:4445  Debug(\"Minted Tokens\", mintAmount) */\n    tag_163:\n      mload(0x40)\n      dup1\n      swap2\n      sub\n      swap1\n      log1\n        /* \"contracts/bonding_full.sol\":4043:4461  if (totalSupply == 0) {... */\n    tag_158:\n        /* \"contracts/bonding_full.sol\":3836:4472  {... */\n      pop\n      pop\n        /* \"contracts/bonding_full.sol\":3801:4472  if (currentBalance < mlAMPLAmount) {... */\n    tag_146:\n        /* \"contracts/bonding_full.sol\":4532:4538  mlAMPL */\n      sload(0x02)\n        /* \"contracts/bonding_full.sol\":4524:4574  IMLAMPL(mlAMPL).transfer(msg.sender, mlAMPLAmount) */\n      mload(0x40)\n      shl(0xe0, 0xa9059cbb)\n      dup2\n      mstore\n        /* \"contracts/bonding_full.sol\":4549:4559  msg.sender */\n      caller\n        /* \"contracts/bonding_full.sol\":4524:4574  IMLAMPL(mlAMPL).transfer(msg.sender, mlAMPLAmount) */\n      0x04\n      dup3\n      add\n        /* \"#utility.yul\":3153:3204   */\n      mstore\n        /* \"#utility.yul\":3220:3238   */\n      0x24\n      dup2\n      add\n        /* \"#utility.yul\":3213:3247   */\n      dup5\n      swap1\n      mstore\n      sub(shl(0xa0, 0x01), 0x01)\n        /* \"contracts/bonding_full.sol\":4532:4538  mlAMPL */\n      swap1\n      swap2\n      and\n      swap1\n        /* \"contracts/bonding_full.sol\":4524:4548  IMLAMPL(mlAMPL).transfer */\n      0xa9059cbb\n      swap1\n        /* \"#utility.yul\":3126:3144   */\n      0x44\n      add\n        /* \"contracts/bonding_full.sol\":4524:4574  IMLAMPL(mlAMPL).transfer(msg.sender, mlAMPLAmount) */\n      0x20\n      mload(0x40)\n      dup1\n      dup4\n      sub\n      dup2\n      0x00\n      dup8\n      gas\n      call\n      iszero\n      dup1\n      iszero\n      tag_167\n      jumpi\n      returndatacopy(0x00, 0x00, returndatasize)\n      revert(0x00, returndatasize)\n    tag_167:\n      pop\n      pop\n      pop\n      pop\n      mload(0x40)\n      returndatasize\n      not(0x1f)\n      0x1f\n      dup3\n      add\n      and\n      dup3\n      add\n      dup1\n      0x40\n      mstore\n      pop\n      dup2\n      add\n      swap1\n      tag_168\n      swap2\n      swap1\n      tag_99\n      jump\t// in\n    tag_168:\n      pop\n        /* \"contracts/bonding_full.sol\":4592:4643  BondPurchased(msg.sender, wethAmount, mlAMPLAmount) */\n      0x40\n      dup1\n      mload\n        /* \"#utility.yul\":6941:6966   */\n      dup7\n      dup2\n      mstore\n        /* \"#utility.yul\":6997:6999   */\n      0x20\n        /* \"#utility.yul\":6982:7000   */\n      dup2\n      add\n        /* \"#utility.yul\":6975:7009   */\n      dup5\n      swap1\n      mstore\n        /* \"contracts/bonding_full.sol\":4606:4616  msg.sender */\n      caller\n      swap2\n        /* \"contracts/bonding_full.sol\":4592:4643  BondPurchased(msg.sender, wethAmount, mlAMPLAmount) */\n      0x0db13e87b3f9c3b8f5f3acad928df55c52ba6bf7795af4ec069de5e23caacb37\n      swap2\n        /* \"#utility.yul\":6914:6932   */\n      add\n        /* \"contracts/bonding_full.sol\":4592:4643  BondPurchased(msg.sender, wethAmount, mlAMPLAmount) */\n      mload(0x40)\n      dup1\n      swap2\n      sub\n      swap1\n      log2\n        /* \"contracts/bonding_full.sol\":3073:4651  {... */\n      pop\n      pop\n      pop\n      pop\n        /* \"contracts/bonding_full.sol\":3030:4651  function bond(uint256 wethAmount) external {... */\n      pop\n      jump\t// out\n        /* \"contracts/bonding_full.sol\":5159:5301  function checkWETHAllowance(address user) external view returns (uint256) {... */\n    tag_55:\n        /* \"contracts/bonding_full.sol\":5257:5261  weth */\n      sload(0x01)\n        /* \"contracts/bonding_full.sol\":5251:5293  IWETH(weth).allowance(user, address(this)) */\n      mload(0x40)\n      shl(0xe1, 0x6eb1769f)\n      dup2\n      mstore\n      sub(shl(0xa0, 0x01), 0x01)\n        /* \"#utility.yul\":4428:4460   */\n      dup4\n      dup2\n      and\n        /* \"contracts/bonding_full.sol\":5251:5293  IWETH(weth).allowance(user, address(this)) */\n      0x04\n      dup4\n      add\n        /* \"#utility.yul\":4410:4461   */\n      mstore\n        /* \"contracts/bonding_full.sol\":5287:5291  this */\n      address\n        /* \"#utility.yul\":4477:4495   */\n      0x24\n      dup4\n      add\n        /* \"#utility.yul\":4470:4530   */\n      mstore\n        /* \"contracts/bonding_full.sol\":5224:5231  uint256 */\n      0x00\n      swap3\n        /* \"contracts/bonding_full.sol\":5257:5261  weth */\n      and\n      swap1\n        /* \"contracts/bonding_full.sol\":5251:5272  IWETH(weth).allowance */\n      0xdd62ed3e\n      swap1\n        /* \"#utility.yul\":4383:4401   */\n      0x44\n      add\n        /* \"contracts/bonding_full.sol\":5251:5293  IWETH(weth).allowance(user, address(this)) */\n      tag_113\n        /* \"#utility.yul\":4236:4536   */\n      jump\n        /* \"contracts/bonding_full.sol\":5309:5434  function checkWETHBalance(address user) external view returns (uint256) {... */\n    tag_59:\n        /* \"contracts/bonding_full.sol\":5405:5409  weth */\n      sload(0x01)\n        /* \"contracts/bonding_full.sol\":5399:5426  IWETH(weth).balanceOf(user) */\n      mload(0x40)\n      shl(0xe0, 0x70a08231)\n      dup2\n      mstore\n      sub(shl(0xa0, 0x01), 0x01)\n        /* \"#utility.yul\":178:210   */\n      dup4\n      dup2\n      and\n        /* \"contracts/bonding_full.sol\":5399:5426  IWETH(weth).balanceOf(user) */\n      0x04\n      dup4\n      add\n        /* \"#utility.yul\":160:211   */\n      mstore\n        /* \"contracts/bonding_full.sol\":5372:5379  uint256 */\n      0x00\n      swap3\n        /* \"contracts/bonding_full.sol\":5405:5409  weth */\n      and\n      swap1\n        /* \"contracts/bonding_full.sol\":5399:5420  IWETH(weth).balanceOf */\n      0x70a08231\n      swap1\n        /* \"#utility.yul\":133:151   */\n      0x24\n      add\n        /* \"contracts/bonding_full.sol\":5399:5426  IWETH(weth).balanceOf(user) */\n      tag_113\n        /* \"#utility.yul\":14:217   */\n      jump\n        /* \"contracts/bonding_full.sol\":2792:3022  function transferOwnership(address newOwner) external onlyOwner {... */\n    tag_69:\n        /* \"contracts/bonding_full.sol\":2435:2440  owner */\n      and(sub(shl(0xa0, 0x01), 0x01), sload(0x00))\n        /* \"contracts/bonding_full.sol\":2421:2431  msg.sender */\n      caller\n        /* \"contracts/bonding_full.sol\":2421:2440  msg.sender == owner */\n      eq\n        /* \"contracts/bonding_full.sol\":2413:2459  require(msg.sender == owner, \"Not authorized\") */\n      tag_182\n      jumpi\n      mload(0x40)\n      shl(0xe5, 0x461bcd)\n      dup2\n      mstore\n      0x04\n      add\n      tag_78\n      swap1\n      tag_79\n      jump\t// in\n    tag_182:\n      sub(shl(0xa0, 0x01), 0x01)\n        /* \"contracts/bonding_full.sol\":2875:2897  newOwner != address(0) */\n      dup2\n      and\n        /* \"contracts/bonding_full.sol\":2867:2934  require(newOwner != address(0), \"New owner cannot be zero address\") */\n      tag_185\n      jumpi\n      mload(0x40)\n      shl(0xe5, 0x461bcd)\n      dup2\n      mstore\n        /* \"#utility.yul\":7222:7224   */\n      0x20\n        /* \"contracts/bonding_full.sol\":2867:2934  require(newOwner != address(0), \"New owner cannot be zero address\") */\n      0x04\n      dup3\n      add\n        /* \"#utility.yul\":7204:7225   */\n      dup2\n      swap1\n      mstore\n        /* \"#utility.yul\":7241:7259   */\n      0x24\n      dup3\n      add\n        /* \"#utility.yul\":7234:7264   */\n      mstore\n        /* \"#utility.yul\":7300:7334   */\n      0x4e6577206f776e65722063616e6e6f74206265207a65726f2061646472657373\n        /* \"#utility.yul\":7280:7298   */\n      0x44\n      dup3\n      add\n        /* \"#utility.yul\":7273:7335   */\n      mstore\n        /* \"#utility.yul\":7352:7370   */\n      0x64\n      add\n        /* \"contracts/bonding_full.sol\":2867:2934  require(newOwner != address(0), \"New owner cannot be zero address\") */\n      tag_78\n        /* \"#utility.yul\":7020:7376   */\n      jump\n        /* \"contracts/bonding_full.sol\":2867:2934  require(newOwner != address(0), \"New owner cannot be zero address\") */\n    tag_185:\n        /* \"contracts/bonding_full.sol\":2971:2976  owner */\n      0x00\n      dup1\n      sload\n        /* \"contracts/bonding_full.sol\":2950:2987  OwnershipTransferred(owner, newOwner) */\n      mload(0x40)\n      sub(shl(0xa0, 0x01), 0x01)\n      dup1\n      dup6\n      and\n      swap4\n        /* \"contracts/bonding_full.sol\":2971:2976  owner */\n      swap3\n      and\n      swap2\n        /* \"contracts/bonding_full.sol\":2950:2987  OwnershipTransferred(owner, newOwner) */\n      0x8be0079c531659141344cd1fd0a4f28419497f9722a3daafe3b4186f6b6457e0\n      swap2\n      log3\n        /* \"contracts/bonding_full.sol\":2998:3003  owner */\n      0x00\n        /* \"contracts/bonding_full.sol\":2998:3014  owner = newOwner */\n      dup1\n      sload\n      not(sub(shl(0xa0, 0x01), 0x01))\n      and\n      sub(shl(0xa0, 0x01), 0x01)\n      swap3\n      swap1\n      swap3\n      and\n      swap2\n      swap1\n      swap2\n      or\n      swap1\n      sstore\n        /* \"contracts/bonding_full.sol\":2792:3022  function transferOwnership(address newOwner) external onlyOwner {... */\n      jump\t// out\n        /* \"#utility.yul\":404:577   */\n    tag_188:\n        /* \"#utility.yul\":472:492   */\n      dup1\n      calldataload\n      sub(shl(0xa0, 0x01), 0x01)\n        /* \"#utility.yul\":521:552   */\n      dup2\n      and\n        /* \"#utility.yul\":511:553   */\n      dup2\n      eq\n        /* \"#utility.yul\":501:571   */\n      tag_194\n      jumpi\n        /* \"#utility.yul\":567:568   */\n      0x00\n        /* \"#utility.yul\":564:565   */\n      0x00\n        /* \"#utility.yul\":557:569   */\n      revert\n        /* \"#utility.yul\":501:571   */\n    tag_194:\n        /* \"#utility.yul\":404:577   */\n      swap2\n      swap1\n      pop\n      jump\t// out\n        /* \"#utility.yul\":582:956   */\n    tag_33:\n        /* \"#utility.yul\":659:665   */\n      0x00\n        /* \"#utility.yul\":667:673   */\n      0x00\n        /* \"#utility.yul\":675:681   */\n      0x00\n        /* \"#utility.yul\":728:730   */\n      0x60\n        /* \"#utility.yul\":716:725   */\n      dup5\n        /* \"#utility.yul\":707:714   */\n      dup7\n        /* \"#utility.yul\":703:726   */\n      sub\n        /* \"#utility.yul\":699:731   */\n      slt\n        /* \"#utility.yul\":696:748   */\n      iszero\n      tag_196\n      jumpi\n        /* \"#utility.yul\":744:745   */\n      0x00\n        /* \"#utility.yul\":741:742   */\n      0x00\n        /* \"#utility.yul\":734:746   */\n      revert\n        /* \"#utility.yul\":696:748   */\n    tag_196:\n        /* \"#utility.yul\":767:796   */\n      tag_197\n        /* \"#utility.yul\":786:795   */\n      dup5\n        /* \"#utility.yul\":767:796   */\n      tag_188\n      jump\t// in\n    tag_197:\n        /* \"#utility.yul\":757:796   */\n      swap3\n      pop\n        /* \"#utility.yul\":865:867   */\n      0x20\n        /* \"#utility.yul\":850:868   */\n      dup5\n      add\n        /* \"#utility.yul\":837:869   */\n      calldataload\n      swap2\n      pop\n        /* \"#utility.yul\":912:950   */\n      tag_198\n        /* \"#utility.yul\":946:948   */\n      0x40\n        /* \"#utility.yul\":931:949   */\n      dup6\n      add\n        /* \"#utility.yul\":912:950   */\n      tag_188\n      jump\t// in\n    tag_198:\n        /* \"#utility.yul\":902:950   */\n      swap1\n      pop\n        /* \"#utility.yul\":582:956   */\n      swap3\n      pop\n      swap3\n      pop\n      swap3\n      jump\t// out\n        /* \"#utility.yul\":961:1187   */\n    tag_37:\n        /* \"#utility.yul\":1020:1026   */\n      0x00\n        /* \"#utility.yul\":1073:1075   */\n      0x20\n        /* \"#utility.yul\":1061:1070   */\n      dup3\n        /* \"#utility.yul\":1052:1059   */\n      dup5\n        /* \"#utility.yul\":1048:1071   */\n      sub\n        /* \"#utility.yul\":1044:1076   */\n      slt\n        /* \"#utility.yul\":1041:1093   */\n      iszero\n      tag_200\n      jumpi\n        /* \"#utility.yul\":1089:1090   */\n      0x00\n        /* \"#utility.yul\":1086:1087   */\n      0x00\n        /* \"#utility.yul\":1079:1091   */\n      revert\n        /* \"#utility.yul\":1041:1093   */\n    tag_200:\n      pop\n        /* \"#utility.yul\":1134:1157   */\n      calldataload\n      swap2\n        /* \"#utility.yul\":961:1187   */\n      swap1\n      pop\n      jump\t// out\n        /* \"#utility.yul\":1192:1378   */\n    tag_44:\n        /* \"#utility.yul\":1251:1257   */\n      0x00\n        /* \"#utility.yul\":1304:1306   */\n      0x20\n        /* \"#utility.yul\":1292:1301   */\n      dup3\n        /* \"#utility.yul\":1283:1290   */\n      dup5\n        /* \"#utility.yul\":1279:1302   */\n      sub\n        /* \"#utility.yul\":1275:1307   */\n      slt\n        /* \"#utility.yul\":1272:1324   */\n      iszero\n      tag_202\n      jumpi\n        /* \"#utility.yul\":1320:1321   */\n      0x00\n        /* \"#utility.yul\":1317:1318   */\n      0x00\n        /* \"#utility.yul\":1310:1322   */\n      revert\n        /* \"#utility.yul\":1272:1324   */\n    tag_202:\n        /* \"#utility.yul\":1343:1372   */\n      tag_203\n        /* \"#utility.yul\":1362:1371   */\n      dup3\n        /* \"#utility.yul\":1343:1372   */\n      tag_188\n      jump\t// in\n    tag_203:\n        /* \"#utility.yul\":1333:1372   */\n      swap4\n        /* \"#utility.yul\":1192:1378   */\n      swap3\n      pop\n      pop\n      pop\n      jump\t// out\n        /* \"#utility.yul\":1383:1567   */\n    tag_75:\n        /* \"#utility.yul\":1453:1459   */\n      0x00\n        /* \"#utility.yul\":1506:1508   */\n      0x20\n        /* \"#utility.yul\":1494:1503   */\n      dup3\n        /* \"#utility.yul\":1485:1492   */\n      dup5\n        /* \"#utility.yul\":1481:1504   */\n      sub\n        /* \"#utility.yul\":1477:1509   */\n      slt\n        /* \"#utility.yul\":1474:1526   */\n      iszero\n      tag_205\n      jumpi\n        /* \"#utility.yul\":1522:1523   */\n      0x00\n        /* \"#utility.yul\":1519:1520   */\n      0x00\n        /* \"#utility.yul\":1512:1524   */\n      revert\n        /* \"#utility.yul\":1474:1526   */\n    tag_205:\n      pop\n        /* \"#utility.yul\":1545:1561   */\n      mload\n      swap2\n        /* \"#utility.yul\":1383:1567   */\n      swap1\n      pop\n      jump\t// out\n        /* \"#utility.yul\":1572:1910   */\n    tag_79:\n        /* \"#utility.yul\":1774:1776   */\n      0x20\n        /* \"#utility.yul\":1756:1777   */\n      dup1\n      dup3\n      mstore\n        /* \"#utility.yul\":1813:1815   */\n      0x0e\n        /* \"#utility.yul\":1793:1811   */\n      swap1\n      dup3\n      add\n        /* \"#utility.yul\":1786:1816   */\n      mstore\n      shl(0x92, 0x139bdd08185d5d1a1bdc9a5e9959)\n        /* \"#utility.yul\":1847:1849   */\n      0x40\n        /* \"#utility.yul\":1832:1850   */\n      dup3\n      add\n        /* \"#utility.yul\":1825:1869   */\n      mstore\n        /* \"#utility.yul\":1901:1903   */\n      0x60\n        /* \"#utility.yul\":1886:1904   */\n      add\n      swap1\n        /* \"#utility.yul\":1572:1910   */\n      jump\t// out\n        /* \"#utility.yul\":3258:3535   */\n    tag_99:\n        /* \"#utility.yul\":3325:3331   */\n      0x00\n        /* \"#utility.yul\":3378:3380   */\n      0x20\n        /* \"#utility.yul\":3366:3375   */\n      dup3\n        /* \"#utility.yul\":3357:3364   */\n      dup5\n        /* \"#utility.yul\":3353:3376   */\n      sub\n        /* \"#utility.yul\":3349:3381   */\n      slt\n        /* \"#utility.yul\":3346:3398   */\n      iszero\n      tag_212\n      jumpi\n        /* \"#utility.yul\":3394:3395   */\n      0x00\n        /* \"#utility.yul\":3391:3392   */\n      0x00\n        /* \"#utility.yul\":3384:3396   */\n      revert\n        /* \"#utility.yul\":3346:3398   */\n    tag_212:\n        /* \"#utility.yul\":3426:3435   */\n      dup2\n        /* \"#utility.yul\":3420:3436   */\n      mload\n        /* \"#utility.yul\":3479:3484   */\n      dup1\n        /* \"#utility.yul\":3472:3485   */\n      iszero\n        /* \"#utility.yul\":3465:3486   */\n      iszero\n        /* \"#utility.yul\":3458:3463   */\n      dup2\n        /* \"#utility.yul\":3455:3487   */\n      eq\n        /* \"#utility.yul\":3445:3505   */\n      tag_203\n      jumpi\n        /* \"#utility.yul\":3501:3502   */\n      0x00\n        /* \"#utility.yul\":3498:3499   */\n      0x00\n        /* \"#utility.yul\":3491:3503   */\n      revert\n        /* \"#utility.yul\":5270:5397   */\n    tag_189:\n        /* \"#utility.yul\":5331:5341   */\n      0x4e487b71\n        /* \"#utility.yul\":5326:5329   */\n      0xe0\n        /* \"#utility.yul\":5322:5342   */\n      shl\n        /* \"#utility.yul\":5319:5320   */\n      0x00\n        /* \"#utility.yul\":5312:5343   */\n      mstore\n        /* \"#utility.yul\":5362:5366   */\n      0x11\n        /* \"#utility.yul\":5359:5360   */\n      0x04\n        /* \"#utility.yul\":5352:5367   */\n      mstore\n        /* \"#utility.yul\":5386:5390   */\n      0x24\n        /* \"#utility.yul\":5383:5384   */\n      0x00\n        /* \"#utility.yul\":5376:5391   */\n      revert\n        /* \"#utility.yul\":5402:5530   */\n    tag_135:\n        /* \"#utility.yul\":5469:5478   */\n      dup2\n      dup2\n      sub\n        /* \"#utility.yul\":5490:5501   */\n      dup2\n      dup2\n      gt\n        /* \"#utility.yul\":5487:5524   */\n      iszero\n      tag_116\n      jumpi\n        /* \"#utility.yul\":5504:5522   */\n      tag_116\n      tag_189\n      jump\t// in\n        /* \"#utility.yul\":5535:5703   */\n    tag_137:\n        /* \"#utility.yul\":5608:5617   */\n      dup1\n      dup3\n      mul\n        /* \"#utility.yul\":5639:5648   */\n      dup2\n      iszero\n        /* \"#utility.yul\":5656:5671   */\n      dup3\n      dup3\n      div\n        /* \"#utility.yul\":5650:5672   */\n      dup5\n      eq\n        /* \"#utility.yul\":5636:5673   */\n      or\n        /* \"#utility.yul\":5626:5697   */\n      tag_116\n      jumpi\n        /* \"#utility.yul\":5677:5695   */\n      tag_116\n      tag_189\n      jump\t// in\n        /* \"#utility.yul\":5708:5925   */\n    tag_139:\n        /* \"#utility.yul\":5748:5749   */\n      0x00\n        /* \"#utility.yul\":5774:5775   */\n      dup3\n        /* \"#utility.yul\":5764:5896   */\n      tag_227\n      jumpi\n        /* \"#utility.yul\":5818:5828   */\n      0x4e487b71\n        /* \"#utility.yul\":5813:5816   */\n      0xe0\n        /* \"#utility.yul\":5809:5829   */\n      shl\n        /* \"#utility.yul\":5806:5807   */\n      0x00\n        /* \"#utility.yul\":5799:5830   */\n      mstore\n        /* \"#utility.yul\":5853:5857   */\n      0x12\n        /* \"#utility.yul\":5850:5851   */\n      0x04\n        /* \"#utility.yul\":5843:5858   */\n      mstore\n        /* \"#utility.yul\":5881:5885   */\n      0x24\n        /* \"#utility.yul\":5878:5879   */\n      0x00\n        /* \"#utility.yul\":5871:5886   */\n      revert\n        /* \"#utility.yul\":5764:5896   */\n    tag_227:\n      pop\n        /* \"#utility.yul\":5910:5919   */\n      div\n      swap1\n        /* \"#utility.yul\":5708:5925   */\n      jump\t// out\n\n    auxdata: 0xa26469706673582212200ae4bf7e6d856d671c3798a160859fd39c4ace19d3a2f2c7d050a79d5bf0184664736f6c634300081c0033\n}\n",
				"bytecode": {
					"linkReferences": {},
					"object": "6080604052348015600e575f5ffd5b50604051610e6d380380610e6d833981016040819052602b91608c565b5f80546001600160a01b03199081163317909155600180546001600160a01b03968716908316179055600280549490951693169290921790925560039190915560045560c7565b80516001600160a01b03811681146087575f5ffd5b919050565b5f5f5f5f60808587031215609e575f5ffd5b60a5856072565b935060b1602086016072565b6040860151606090960151949790965092505050565b610d99806100d45f395ff3fe608060405234801561000f575f5ffd5b50600436106100e5575f3560e01c80638da5cb5b11610088578063bbf6119a11610063578063bbf6119a146101c8578063dc38679c146101db578063e6c0e6d5146101e4578063f2fde38b146101ed575f5ffd5b80638da5cb5b146101905780639940686e146101a2578063b357964b146101b5575f5ffd5b806369328dec116100c357806369328dec146101425780636a64eff8146101575780637c69febd1461016a578063861b67ab1461017d575f5ffd5b80633a6eb3df146100e95780633fc8cef3146101195780635e3124ed1461012c575b5f5ffd5b6002546100fc906001600160a01b031681565b6040516001600160a01b0390911681526020015b60405180910390f35b6001546100fc906001600160a01b031681565b610134610200565b604051908152602001610110565b610155610150366004610c38565b61026f565b005b610155610165366004610c71565b6104bb565b610155610178366004610c71565b6104e9565b61013461018b366004610c88565b610560565b5f546100fc906001600160a01b031681565b6101556101b0366004610c71565b6105d3565b6101346101c3366004610c88565b610adb565b6101346101d6366004610c88565b610b13565b61013460045481565b61013460035481565b6101556101fb366004610c88565b610b45565b6002546040516370a0823160e01b81523060048201525f916001600160a01b0316906370a0823190602401602060405180830381865afa158015610246573d5f5f3e3d5ffd5b505050506040513d601f19601f8201168201806040525081019061026a9190610ca8565b905090565b5f546001600160a01b031633146102a15760405162461bcd60e51b815260040161029890610cbf565b60405180910390fd5b6001600160a01b0381166102f75760405162461bcd60e51b815260206004820152601960248201527f496e76616c696420726563697069656e742061646472657373000000000000006044820152606401610298565b5f82116103465760405162461bcd60e51b815260206004820181905260248201527f416d6f756e74206d7573742062652067726561746572207468616e207a65726f6044820152606401610298565b6040516370a0823160e01b81523060048201525f906001600160a01b038516906370a0823190602401602060405180830381865afa15801561038a573d5f5f3e3d5ffd5b505050506040513d601f19601f820116820180604052508101906103ae9190610ca8565b9050828110156103f75760405162461bcd60e51b8152602060048201526014602482015273496e73756666696369656e742062616c616e636560601b6044820152606401610298565b60405163a9059cbb60e01b81526001600160a01b0383811660048301526024820185905285169063a9059cbb906044016020604051808303815f875af1158015610443573d5f5f3e3d5ffd5b505050506040513d601f19601f820116820180604052508101906104679190610ce7565b50816001600160a01b0316846001600160a01b03167fd1c19fbcd4551a5edfb66d43d2e337c04837afda3482b42bdf569a8fccdae5fb856040516104ad91815260200190565b60405180910390a350505050565b5f546001600160a01b031633146104e45760405162461bcd60e51b815260040161029890610cbf565b600455565b5f546001600160a01b031633146105125760405162461bcd60e51b815260040161029890610cbf565b606481111561055b5760405162461bcd60e51b8152602060048201526015602482015274496e76616c696420646973636f756e74207261746560581b6044820152606401610298565b600355565b6002546040516370a0823160e01b81526001600160a01b0383811660048301525f9216906370a08231906024015b602060405180830381865afa1580156105a9573d5f5f3e3d5ffd5b505050506040513d601f19601f820116820180604052508101906105cd9190610ca8565b92915050565b5f81116106165760405162461bcd60e51b815260206004820152601160248201527009aeae6e840c8cae0dee6d2e840ae8aa89607b1b6044820152606401610298565b600154604051636eb1769f60e11b81523360048201523060248201525f916001600160a01b03169063dd62ed3e90604401602060405180830381865afa158015610662573d5f5f3e3d5ffd5b505050506040513d601f19601f820116820180604052508101906106869190610ca8565b9050818110156106d85760405162461bcd60e51b815260206004820152601860248201527f416c6c6f77616e6365206e6f742073756666696369656e7400000000000000006044820152606401610298565b6001546040516323b872dd60e01b8152336004820152306024820152604481018490526001600160a01b03909116906323b872dd906064016020604051808303815f875af115801561072c573d5f5f3e3d5ffd5b505050506040513d601f19601f820116820180604052508101906107509190610ce7565b505f606460035460646107639190610d1a565b6004546107709190610d2d565b61077a9190610d44565b90505f8161079085670de0b6b3a7640000610d2d565b61079a9190610d44565b6002546040516370a0823160e01b81523060048201529192505f916001600160a01b03909116906370a0823190602401602060405180830381865afa1580156107e5573d5f5f3e3d5ffd5b505050506040513d601f19601f820116820180604052508101906108099190610ca8565b905081811015610a26575f61081e8284610d1a565b90505f60025f9054906101000a90046001600160a01b03166001600160a01b03166318160ddd6040518163ffffffff1660e01b8152600401602060405180830381865afa158015610871573d5f5f3e3d5ffd5b505050506040513d601f19601f820116820180604052508101906108959190610ca8565b9050805f036109625760025460405163d9e63bb160e01b8152600481018490526001600160a01b039091169063d9e63bb1906024015f604051808303815f87803b1580156108e1575f5ffd5b505af11580156108f3573d5f5f3e3d5ffd5b505050507f3c5ad147104e56be34a9176a6692f7df8d2f4b29a5af06bc6b98970d329d6577826040516109559190604080825260129082015271496e697469616c697a656420537570706c7960701b6060820152602081019190915260800190565b60405180910390a1610a23565b6002546040516340c10f1960e01b8152306004820152602481018490526001600160a01b03909116906340c10f19906044015f604051808303815f87803b1580156109ab575f5ffd5b505af11580156109bd573d5f5f3e3d5ffd5b505050507f3c5ad147104e56be34a9176a6692f7df8d2f4b29a5af06bc6b98970d329d657782604051610a1a91906040808252600d908201526c4d696e74656420546f6b656e7360981b6060820152602081019190915260800190565b60405180910390a15b50505b60025460405163a9059cbb60e01b8152336004820152602481018490526001600160a01b039091169063a9059cbb906044016020604051808303815f875af1158015610a74573d5f5f3e3d5ffd5b505050506040513d601f19601f82011682018060405250810190610a989190610ce7565b50604080518681526020810184905233917f0db13e87b3f9c3b8f5f3acad928df55c52ba6bf7795af4ec069de5e23caacb37910160405180910390a25050505050565b600154604051636eb1769f60e11b81526001600160a01b0383811660048301523060248301525f92169063dd62ed3e9060440161058e565b6001546040516370a0823160e01b81526001600160a01b0383811660048301525f9216906370a082319060240161058e565b5f546001600160a01b03163314610b6e5760405162461bcd60e51b815260040161029890610cbf565b6001600160a01b038116610bc45760405162461bcd60e51b815260206004820181905260248201527f4e6577206f776e65722063616e6e6f74206265207a65726f20616464726573736044820152606401610298565b5f80546040516001600160a01b03808516939216917f8be0079c531659141344cd1fd0a4f28419497f9722a3daafe3b4186f6b6457e091a35f80546001600160a01b0319166001600160a01b0392909216919091179055565b80356001600160a01b0381168114610c33575f5ffd5b919050565b5f5f5f60608486031215610c4a575f5ffd5b610c5384610c1d565b925060208401359150610c6860408501610c1d565b90509250925092565b5f60208284031215610c81575f5ffd5b5035919050565b5f60208284031215610c98575f5ffd5b610ca182610c1d565b9392505050565b5f60208284031215610cb8575f5ffd5b5051919050565b6020808252600e908201526d139bdd08185d5d1a1bdc9a5e995960921b604082015260600190565b5f60208284031215610cf7575f5ffd5b81518015158114610ca1575f5ffd5b634e487b7160e01b5f52601160045260245ffd5b818103818111156105cd576105cd610d06565b80820281158282048414176105cd576105cd610d06565b5f82610d5e57634e487b7160e01b5f52601260045260245ffd5b50049056fea26469706673582212200ae4bf7e6d856d671c3798a160859fd39c4ace19d3a2f2c7d050a79d5bf0184664736f6c634300081c0033",
					"opcodes": "PUSH1 0x80 PUSH1 0x40 MSTORE CALLVALUE DUP1 ISZERO PUSH1 0xE JUMPI PUSH0 PUSH0 REVERT JUMPDEST POP PUSH1 0x40 MLOAD PUSH2 0xE6D CODESIZE SUB DUP1 PUSH2 0xE6D DUP4 CODECOPY DUP2 ADD PUSH1 0x40 DUP2 SWAP1 MSTORE PUSH1 0x2B SWAP2 PUSH1 0x8C JUMP JUMPDEST PUSH0 DUP1 SLOAD PUSH1 0x1 PUSH1 0x1 PUSH1 0xA0 SHL SUB NOT SWAP1 DUP2 AND CALLER OR SWAP1 SWAP2 SSTORE PUSH1 0x1 DUP1 SLOAD PUSH1 0x1 PUSH1 0x1 PUSH1 0xA0 SHL SUB SWAP7 DUP8 AND SWAP1 DUP4 AND OR SWAP1 SSTORE PUSH1 0x2 DUP1 SLOAD SWAP5 SWAP1 SWAP6 AND SWAP4 AND SWAP3 SWAP1 SWAP3 OR SWAP1 SWAP3 SSTORE PUSH1 0x3 SWAP2 SWAP1 SWAP2 SSTORE PUSH1 0x4 SSTORE PUSH1 0xC7 JUMP JUMPDEST DUP1 MLOAD PUSH1 0x1 PUSH1 0x1 PUSH1 0xA0 SHL SUB DUP2 AND DUP2 EQ PUSH1 0x87 JUMPI PUSH0 PUSH0 REVERT JUMPDEST SWAP2 SWAP1 POP JUMP JUMPDEST PUSH0 PUSH0 PUSH0 PUSH0 PUSH1 0x80 DUP6 DUP8 SUB SLT ISZERO PUSH1 0x9E JUMPI PUSH0 PUSH0 REVERT JUMPDEST PUSH1 0xA5 DUP6 PUSH1 0x72 JUMP JUMPDEST SWAP4 POP PUSH1 0xB1 PUSH1 0x20 DUP7 ADD PUSH1 0x72 JUMP JUMPDEST PUSH1 0x40 DUP7 ADD MLOAD PUSH1 0x60 SWAP1 SWAP7 ADD MLOAD SWAP5 SWAP8 SWAP1 SWAP7 POP SWAP3 POP POP POP JUMP JUMPDEST PUSH2 0xD99 DUP1 PUSH2 0xD4 PUSH0 CODECOPY PUSH0 RETURN INVALID PUSH1 0x80 PUSH1 0x40 MSTORE CALLVALUE DUP1 ISZERO PUSH2 0xF JUMPI PUSH0 PUSH0 REVERT JUMPDEST POP PUSH1 0x4 CALLDATASIZE LT PUSH2 0xE5 JUMPI PUSH0 CALLDATALOAD PUSH1 0xE0 SHR DUP1 PUSH4 0x8DA5CB5B GT PUSH2 0x88 JUMPI DUP1 PUSH4 0xBBF6119A GT PUSH2 0x63 JUMPI DUP1 PUSH4 0xBBF6119A EQ PUSH2 0x1C8 JUMPI DUP1 PUSH4 0xDC38679C EQ PUSH2 0x1DB JUMPI DUP1 PUSH4 0xE6C0E6D5 EQ PUSH2 0x1E4 JUMPI DUP1 PUSH4 0xF2FDE38B EQ PUSH2 0x1ED JUMPI PUSH0 PUSH0 REVERT JUMPDEST DUP1 PUSH4 0x8DA5CB5B EQ PUSH2 0x190 JUMPI DUP1 PUSH4 0x9940686E EQ PUSH2 0x1A2 JUMPI DUP1 PUSH4 0xB357964B EQ PUSH2 0x1B5 JUMPI PUSH0 PUSH0 REVERT JUMPDEST DUP1 PUSH4 0x69328DEC GT PUSH2 0xC3 JUMPI DUP1 PUSH4 0x69328DEC EQ PUSH2 0x142 JUMPI DUP1 PUSH4 0x6A64EFF8 EQ PUSH2 0x157 JUMPI DUP1 PUSH4 0x7C69FEBD EQ PUSH2 0x16A JUMPI DUP1 PUSH4 0x861B67AB EQ PUSH2 0x17D JUMPI PUSH0 PUSH0 REVERT JUMPDEST DUP1 PUSH4 0x3A6EB3DF EQ PUSH2 0xE9 JUMPI DUP1 PUSH4 0x3FC8CEF3 EQ PUSH2 0x119 JUMPI DUP1 PUSH4 0x5E3124ED EQ PUSH2 0x12C JUMPI JUMPDEST PUSH0 PUSH0 REVERT JUMPDEST PUSH1 0x2 SLOAD PUSH2 0xFC SWAP1 PUSH1 0x1 PUSH1 0x1 PUSH1 0xA0 SHL SUB AND DUP2 JUMP JUMPDEST PUSH1 0x40 MLOAD PUSH1 0x1 PUSH1 0x1 PUSH1 0xA0 SHL SUB SWAP1 SWAP2 AND DUP2 MSTORE PUSH1 0x20 ADD JUMPDEST PUSH1 0x40 MLOAD DUP1 SWAP2 SUB SWAP1 RETURN JUMPDEST PUSH1 0x1 SLOAD PUSH2 0xFC SWAP1 PUSH1 0x1 PUSH1 0x1 PUSH1 0xA0 SHL SUB AND DUP2 JUMP JUMPDEST PUSH2 0x134 PUSH2 0x200 JUMP JUMPDEST PUSH1 0x40 MLOAD SWAP1 DUP2 MSTORE PUSH1 0x20 ADD PUSH2 0x110 JUMP JUMPDEST PUSH2 0x155 PUSH2 0x150 CALLDATASIZE PUSH1 0x4 PUSH2 0xC38 JUMP JUMPDEST PUSH2 0x26F JUMP JUMPDEST STOP JUMPDEST PUSH2 0x155 PUSH2 0x165 CALLDATASIZE PUSH1 0x4 PUSH2 0xC71 JUMP JUMPDEST PUSH2 0x4BB JUMP JUMPDEST PUSH2 0x155 PUSH2 0x178 CALLDATASIZE PUSH1 0x4 PUSH2 0xC71 JUMP JUMPDEST PUSH2 0x4E9 JUMP JUMPDEST PUSH2 0x134 PUSH2 0x18B CALLDATASIZE PUSH1 0x4 PUSH2 0xC88 JUMP JUMPDEST PUSH2 0x560 JUMP JUMPDEST PUSH0 SLOAD PUSH2 0xFC SWAP1 PUSH1 0x1 PUSH1 0x1 PUSH1 0xA0 SHL SUB AND DUP2 JUMP JUMPDEST PUSH2 0x155 PUSH2 0x1B0 CALLDATASIZE PUSH1 0x4 PUSH2 0xC71 JUMP JUMPDEST PUSH2 0x5D3 JUMP JUMPDEST PUSH2 0x134 PUSH2 0x1C3 CALLDATASIZE PUSH1 0x4 PUSH2 0xC88 JUMP JUMPDEST PUSH2 0xADB JUMP JUMPDEST PUSH2 0x134 PUSH2 0x1D6 CALLDATASIZE PUSH1 0x4 PUSH2 0xC88 JUMP JUMPDEST PUSH2 0xB13 JUMP JUMPDEST PUSH2 0x134 PUSH1 0x4 SLOAD DUP2 JUMP JUMPDEST PUSH2 0x134 PUSH1 0x3 SLOAD DUP2 JUMP JUMPDEST PUSH2 0x155 PUSH2 0x1FB CALLDATASIZE PUSH1 0x4 PUSH2 0xC88 JUMP JUMPDEST PUSH2 0xB45 JUMP JUMPDEST PUSH1 0x2 SLOAD PUSH1 0x40 MLOAD PUSH4 0x70A08231 PUSH1 0xE0 SHL DUP2 MSTORE ADDRESS PUSH1 0x4 DUP3 ADD MSTORE PUSH0 SWAP2 PUSH1 0x1 PUSH1 0x1 PUSH1 0xA0 SHL SUB AND SWAP1 PUSH4 0x70A08231 SWAP1 PUSH1 0x24 ADD PUSH1 0x20 PUSH1 0x40 MLOAD DUP1 DUP4 SUB DUP2 DUP7 GAS STATICCALL ISZERO DUP1 ISZERO PUSH2 0x246 JUMPI RETURNDATASIZE PUSH0 PUSH0 RETURNDATACOPY RETURNDATASIZE PUSH0 REVERT JUMPDEST POP POP POP POP PUSH1 0x40 MLOAD RETURNDATASIZE PUSH1 0x1F NOT PUSH1 0x1F DUP3 ADD AND DUP3 ADD DUP1 PUSH1 0x40 MSTORE POP DUP2 ADD SWAP1 PUSH2 0x26A SWAP2 SWAP1 PUSH2 0xCA8 JUMP JUMPDEST SWAP1 POP SWAP1 JUMP JUMPDEST PUSH0 SLOAD PUSH1 0x1 PUSH1 0x1 PUSH1 0xA0 SHL SUB AND CALLER EQ PUSH2 0x2A1 JUMPI PUSH1 0x40 MLOAD PUSH3 0x461BCD PUSH1 0xE5 SHL DUP2 MSTORE PUSH1 0x4 ADD PUSH2 0x298 SWAP1 PUSH2 0xCBF JUMP JUMPDEST PUSH1 0x40 MLOAD DUP1 SWAP2 SUB SWAP1 REVERT JUMPDEST PUSH1 0x1 PUSH1 0x1 PUSH1 0xA0 SHL SUB DUP2 AND PUSH2 0x2F7 JUMPI PUSH1 0x40 MLOAD PUSH3 0x461BCD PUSH1 0xE5 SHL DUP2 MSTORE PUSH1 0x20 PUSH1 0x4 DUP3 ADD MSTORE PUSH1 0x19 PUSH1 0x24 DUP3 ADD MSTORE PUSH32 0x496E76616C696420726563697069656E74206164647265737300000000000000 PUSH1 0x44 DUP3 ADD MSTORE PUSH1 0x64 ADD PUSH2 0x298 JUMP JUMPDEST PUSH0 DUP3 GT PUSH2 0x346 JUMPI PUSH1 0x40 MLOAD PUSH3 0x461BCD PUSH1 0xE5 SHL DUP2 MSTORE PUSH1 0x20 PUSH1 0x4 DUP3 ADD DUP2 SWAP1 MSTORE PUSH1 0x24 DUP3 ADD MSTORE PUSH32 0x416D6F756E74206D7573742062652067726561746572207468616E207A65726F PUSH1 0x44 DUP3 ADD MSTORE PUSH1 0x64 ADD PUSH2 0x298 JUMP JUMPDEST PUSH1 0x40 MLOAD PUSH4 0x70A08231 PUSH1 0xE0 SHL DUP2 MSTORE ADDRESS PUSH1 0x4 DUP3 ADD MSTORE PUSH0 SWAP1 PUSH1 0x1 PUSH1 0x1 PUSH1 0xA0 SHL SUB DUP6 AND SWAP1 PUSH4 0x70A08231 SWAP1 PUSH1 0x24 ADD PUSH1 0x20 PUSH1 0x40 MLOAD DUP1 DUP4 SUB DUP2 DUP7 GAS STATICCALL ISZERO DUP1 ISZERO PUSH2 0x38A JUMPI RETURNDATASIZE PUSH0 PUSH0 RETURNDATACOPY RETURNDATASIZE PUSH0 REVERT JUMPDEST POP POP POP POP PUSH1 0x40 MLOAD RETURNDATASIZE PUSH1 0x1F NOT PUSH1 0x1F DUP3 ADD AND DUP3 ADD DUP1 PUSH1 0x40 MSTORE POP DUP2 ADD SWAP1 PUSH2 0x3AE SWAP2 SWAP1 PUSH2 0xCA8 JUMP JUMPDEST SWAP1 POP DUP3 DUP2 LT ISZERO PUSH2 0x3F7 JUMPI PUSH1 0x40 MLOAD PUSH3 0x461BCD PUSH1 0xE5 SHL DUP2 MSTORE PUSH1 0x20 PUSH1 0x4 DUP3 ADD MSTORE PUSH1 0x14 PUSH1 0x24 DUP3 ADD MSTORE PUSH20 0x496E73756666696369656E742062616C616E6365 PUSH1 0x60 SHL PUSH1 0x44 DUP3 ADD MSTORE PUSH1 0x64 ADD PUSH2 0x298 JUMP JUMPDEST PUSH1 0x40 MLOAD PUSH4 0xA9059CBB PUSH1 0xE0 SHL DUP2 MSTORE PUSH1 0x1 PUSH1 0x1 PUSH1 0xA0 SHL SUB DUP4 DUP2 AND PUSH1 0x4 DUP4 ADD MSTORE PUSH1 0x24 DUP3 ADD DUP6 SWAP1 MSTORE DUP6 AND SWAP1 PUSH4 0xA9059CBB SWAP1 PUSH1 0x44 ADD PUSH1 0x20 PUSH1 0x40 MLOAD DUP1 DUP4 SUB DUP2 PUSH0 DUP8 GAS CALL ISZERO DUP1 ISZERO PUSH2 0x443 JUMPI RETURNDATASIZE PUSH0 PUSH0 RETURNDATACOPY RETURNDATASIZE PUSH0 REVERT JUMPDEST POP POP POP POP PUSH1 0x40 MLOAD RETURNDATASIZE PUSH1 0x1F NOT PUSH1 0x1F DUP3 ADD AND DUP3 ADD DUP1 PUSH1 0x40 MSTORE POP DUP2 ADD SWAP1 PUSH2 0x467 SWAP2 SWAP1 PUSH2 0xCE7 JUMP JUMPDEST POP DUP2 PUSH1 0x1 PUSH1 0x1 PUSH1 0xA0 SHL SUB AND DUP5 PUSH1 0x1 PUSH1 0x1 PUSH1 0xA0 SHL SUB AND PUSH32 0xD1C19FBCD4551A5EDFB66D43D2E337C04837AFDA3482B42BDF569A8FCCDAE5FB DUP6 PUSH1 0x40 MLOAD PUSH2 0x4AD SWAP2 DUP2 MSTORE PUSH1 0x20 ADD SWAP1 JUMP JUMPDEST PUSH1 0x40 MLOAD DUP1 SWAP2 SUB SWAP1 LOG3 POP POP POP POP JUMP JUMPDEST PUSH0 SLOAD PUSH1 0x1 PUSH1 0x1 PUSH1 0xA0 SHL SUB AND CALLER EQ PUSH2 0x4E4 JUMPI PUSH1 0x40 MLOAD PUSH3 0x461BCD PUSH1 0xE5 SHL DUP2 MSTORE PUSH1 0x4 ADD PUSH2 0x298 SWAP1 PUSH2 0xCBF JUMP JUMPDEST PUSH1 0x4 SSTORE JUMP JUMPDEST PUSH0 SLOAD PUSH1 0x1 PUSH1 0x1 PUSH1 0xA0 SHL SUB AND CALLER EQ PUSH2 0x512 JUMPI PUSH1 0x40 MLOAD PUSH3 0x461BCD PUSH1 0xE5 SHL DUP2 MSTORE PUSH1 0x4 ADD PUSH2 0x298 SWAP1 PUSH2 0xCBF JUMP JUMPDEST PUSH1 0x64 DUP2 GT ISZERO PUSH2 0x55B JUMPI PUSH1 0x40 MLOAD PUSH3 0x461BCD PUSH1 0xE5 SHL DUP2 MSTORE PUSH1 0x20 PUSH1 0x4 DUP3 ADD MSTORE PUSH1 0x15 PUSH1 0x24 DUP3 ADD MSTORE PUSH21 0x496E76616C696420646973636F756E742072617465 PUSH1 0x58 SHL PUSH1 0x44 DUP3 ADD MSTORE PUSH1 0x64 ADD PUSH2 0x298 JUMP JUMPDEST PUSH1 0x3 SSTORE JUMP JUMPDEST PUSH1 0x2 SLOAD PUSH1 0x40 MLOAD PUSH4 0x70A08231 PUSH1 0xE0 SHL DUP2 MSTORE PUSH1 0x1 PUSH1 0x1 PUSH1 0xA0 SHL SUB DUP4 DUP2 AND PUSH1 0x4 DUP4 ADD MSTORE PUSH0 SWAP3 AND SWAP1 PUSH4 0x70A08231 SWAP1 PUSH1 0x24 ADD JUMPDEST PUSH1 0x20 PUSH1 0x40 MLOAD DUP1 DUP4 SUB DUP2 DUP7 GAS STATICCALL ISZERO DUP1 ISZERO PUSH2 0x5A9 JUMPI RETURNDATASIZE PUSH0 PUSH0 RETURNDATACOPY RETURNDATASIZE PUSH0 REVERT JUMPDEST POP POP POP POP PUSH1 0x40 MLOAD RETURNDATASIZE PUSH1 0x1F NOT PUSH1 0x1F DUP3 ADD AND DUP3 ADD DUP1 PUSH1 0x40 MSTORE POP DUP2 ADD SWAP1 PUSH2 0x5CD SWAP2 SWAP1 PUSH2 0xCA8 JUMP JUMPDEST SWAP3 SWAP2 POP POP JUMP JUMPDEST PUSH0 DUP2 GT PUSH2 0x616 JUMPI PUSH1 0x40 MLOAD PUSH3 0x461BCD PUSH1 0xE5 SHL DUP2 MSTORE PUSH1 0x20 PUSH1 0x4 DUP3 ADD MSTORE PUSH1 0x11 PUSH1 0x24 DUP3 ADD MSTORE PUSH17 0x9AEAE6E840C8CAE0DEE6D2E840AE8AA89 PUSH1 0x7B SHL PUSH1 0x44 DUP3 ADD MSTORE PUSH1 0x64 ADD PUSH2 0x298 JUMP JUMPDEST PUSH1 0x1 SLOAD PUSH1 0x40 MLOAD PUSH4 0x6EB1769F PUSH1 0xE1 SHL DUP2 MSTORE CALLER PUSH1 0x4 DUP3 ADD MSTORE ADDRESS PUSH1 0x24 DUP3 ADD MSTORE PUSH0 SWAP2 PUSH1 0x1 PUSH1 0x1 PUSH1 0xA0 SHL SUB AND SWAP1 PUSH4 0xDD62ED3E SWAP1 PUSH1 0x44 ADD PUSH1 0x20 PUSH1 0x40 MLOAD DUP1 DUP4 SUB DUP2 DUP7 GAS STATICCALL ISZERO DUP1 ISZERO PUSH2 0x662 JUMPI RETURNDATASIZE PUSH0 PUSH0 RETURNDATACOPY RETURNDATASIZE PUSH0 REVERT JUMPDEST POP POP POP POP PUSH1 0x40 MLOAD RETURNDATASIZE PUSH1 0x1F NOT PUSH1 0x1F DUP3 ADD AND DUP3 ADD DUP1 PUSH1 0x40 MSTORE POP DUP2 ADD SWAP1 PUSH2 0x686 SWAP2 SWAP1 PUSH2 0xCA8 JUMP JUMPDEST SWAP1 POP DUP2 DUP2 LT ISZERO PUSH2 0x6D8 JUMPI PUSH1 0x40 MLOAD PUSH3 0x461BCD PUSH1 0xE5 SHL DUP2 MSTORE PUSH1 0x20 PUSH1 0x4 DUP3 ADD MSTORE PUSH1 0x18 PUSH1 0x24 DUP3 ADD MSTORE PUSH32 0x416C6C6F77616E6365206E6F742073756666696369656E740000000000000000 PUSH1 0x44 DUP3 ADD MSTORE PUSH1 0x64 ADD PUSH2 0x298 JUMP JUMPDEST PUSH1 0x1 SLOAD PUSH1 0x40 MLOAD PUSH4 0x23B872DD PUSH1 0xE0 SHL DUP2 MSTORE CALLER PUSH1 0x4 DUP3 ADD MSTORE ADDRESS PUSH1 0x24 DUP3 ADD MSTORE PUSH1 0x44 DUP2 ADD DUP5 SWAP1 MSTORE PUSH1 0x1 PUSH1 0x1 PUSH1 0xA0 SHL SUB SWAP1 SWAP2 AND SWAP1 PUSH4 0x23B872DD SWAP1 PUSH1 0x64 ADD PUSH1 0x20 PUSH1 0x40 MLOAD DUP1 DUP4 SUB DUP2 PUSH0 DUP8 GAS CALL ISZERO DUP1 ISZERO PUSH2 0x72C JUMPI RETURNDATASIZE PUSH0 PUSH0 RETURNDATACOPY RETURNDATASIZE PUSH0 REVERT JUMPDEST POP POP POP POP PUSH1 0x40 MLOAD RETURNDATASIZE PUSH1 0x1F NOT PUSH1 0x1F DUP3 ADD AND DUP3 ADD DUP1 PUSH1 0x40 MSTORE POP DUP2 ADD SWAP1 PUSH2 0x750 SWAP2 SWAP1 PUSH2 0xCE7 JUMP JUMPDEST POP PUSH0 PUSH1 0x64 PUSH1 0x3 SLOAD PUSH1 0x64 PUSH2 0x763 SWAP2 SWAP1 PUSH2 0xD1A JUMP JUMPDEST PUSH1 0x4 SLOAD PUSH2 0x770 SWAP2 SWAP1 PUSH2 0xD2D JUMP JUMPDEST PUSH2 0x77A SWAP2 SWAP1 PUSH2 0xD44 JUMP JUMPDEST SWAP1 POP PUSH0 DUP2 PUSH2 0x790 DUP6 PUSH8 0xDE0B6B3A7640000 PUSH2 0xD2D JUMP JUMPDEST PUSH2 0x79A SWAP2 SWAP1 PUSH2 0xD44 JUMP JUMPDEST PUSH1 0x2 SLOAD PUSH1 0x40 MLOAD PUSH4 0x70A08231 PUSH1 0xE0 SHL DUP2 MSTORE ADDRESS PUSH1 0x4 DUP3 ADD MSTORE SWAP2 SWAP3 POP PUSH0 SWAP2 PUSH1 0x1 PUSH1 0x1 PUSH1 0xA0 SHL SUB SWAP1 SWAP2 AND SWAP1 PUSH4 0x70A08231 SWAP1 PUSH1 0x24 ADD PUSH1 0x20 PUSH1 0x40 MLOAD DUP1 DUP4 SUB DUP2 DUP7 GAS STATICCALL ISZERO DUP1 ISZERO PUSH2 0x7E5 JUMPI RETURNDATASIZE PUSH0 PUSH0 RETURNDATACOPY RETURNDATASIZE PUSH0 REVERT JUMPDEST POP POP POP POP PUSH1 0x40 MLOAD RETURNDATASIZE PUSH1 0x1F NOT PUSH1 0x1F DUP3 ADD AND DUP3 ADD DUP1 PUSH1 0x40 MSTORE POP DUP2 ADD SWAP1 PUSH2 0x809 SWAP2 SWAP1 PUSH2 0xCA8 JUMP JUMPDEST SWAP1 POP DUP2 DUP2 LT ISZERO PUSH2 0xA26 JUMPI PUSH0 PUSH2 0x81E DUP3 DUP5 PUSH2 0xD1A JUMP JUMPDEST SWAP1 POP PUSH0 PUSH1 0x2 PUSH0 SWAP1 SLOAD SWAP1 PUSH2 0x100 EXP SWAP1 DIV PUSH1 0x1 PUSH1 0x1 PUSH1 0xA0 SHL SUB AND PUSH1 0x1 PUSH1 0x1 PUSH1 0xA0 SHL SUB AND PUSH4 0x18160DDD PUSH1 0x40 MLOAD DUP2 PUSH4 0xFFFFFFFF AND PUSH1 0xE0 SHL DUP2 MSTORE PUSH1 0x4 ADD PUSH1 0x20 PUSH1 0x40 MLOAD DUP1 DUP4 SUB DUP2 DUP7 GAS STATICCALL ISZERO DUP1 ISZERO PUSH2 0x871 JUMPI RETURNDATASIZE PUSH0 PUSH0 RETURNDATACOPY RETURNDATASIZE PUSH0 REVERT JUMPDEST POP POP POP POP PUSH1 0x40 MLOAD RETURNDATASIZE PUSH1 0x1F NOT PUSH1 0x1F DUP3 ADD AND DUP3 ADD DUP1 PUSH1 0x40 MSTORE POP DUP2 ADD SWAP1 PUSH2 0x895 SWAP2 SWAP1 PUSH2 0xCA8 JUMP JUMPDEST SWAP1 POP DUP1 PUSH0 SUB PUSH2 0x962 JUMPI PUSH1 0x2 SLOAD PUSH1 0x40 MLOAD PUSH4 0xD9E63BB1 PUSH1 0xE0 SHL DUP2 MSTORE PUSH1 0x4 DUP2 ADD DUP5 SWAP1 MSTORE PUSH1 0x1 PUSH1 0x1 PUSH1 0xA0 SHL SUB SWAP1 SWAP2 AND SWAP1 PUSH4 0xD9E63BB1 SWAP1 PUSH1 0x24 ADD PUSH0 PUSH1 0x40 MLOAD DUP1 DUP4 SUB DUP2 PUSH0 DUP8 DUP1 EXTCODESIZE ISZERO DUP1 ISZERO PUSH2 0x8E1 JUMPI PUSH0 PUSH0 REVERT JUMPDEST POP GAS CALL ISZERO DUP1 ISZERO PUSH2 0x8F3 JUMPI RETURNDATASIZE PUSH0 PUSH0 RETURNDATACOPY RETURNDATASIZE PUSH0 REVERT JUMPDEST POP POP POP POP PUSH32 0x3C5AD147104E56BE34A9176A6692F7DF8D2F4B29A5AF06BC6B98970D329D6577 DUP3 PUSH1 0x40 MLOAD PUSH2 0x955 SWAP2 SWAP1 PUSH1 0x40 DUP1 DUP3 MSTORE PUSH1 0x12 SWAP1 DUP3 ADD MSTORE PUSH18 0x496E697469616C697A656420537570706C79 PUSH1 0x70 SHL PUSH1 0x60 DUP3 ADD MSTORE PUSH1 0x20 DUP2 ADD SWAP2 SWAP1 SWAP2 MSTORE PUSH1 0x80 ADD SWAP1 JUMP JUMPDEST PUSH1 0x40 MLOAD DUP1 SWAP2 SUB SWAP1 LOG1 PUSH2 0xA23 JUMP JUMPDEST PUSH1 0x2 SLOAD PUSH1 0x40 MLOAD PUSH4 0x40C10F19 PUSH1 0xE0 SHL DUP2 MSTORE ADDRESS PUSH1 0x4 DUP3 ADD MSTORE PUSH1 0x24 DUP2 ADD DUP5 SWAP1 MSTORE PUSH1 0x1 PUSH1 0x1 PUSH1 0xA0 SHL SUB SWAP1 SWAP2 AND SWAP1 PUSH4 0x40C10F19 SWAP1 PUSH1 0x44 ADD PUSH0 PUSH1 0x40 MLOAD DUP1 DUP4 SUB DUP2 PUSH0 DUP8 DUP1 EXTCODESIZE ISZERO DUP1 ISZERO PUSH2 0x9AB JUMPI PUSH0 PUSH0 REVERT JUMPDEST POP GAS CALL ISZERO DUP1 ISZERO PUSH2 0x9BD JUMPI RETURNDATASIZE PUSH0 PUSH0 RETURNDATACOPY RETURNDATASIZE PUSH0 REVERT JUMPDEST POP POP POP POP PUSH32 0x3C5AD147104E56BE34A9176A6692F7DF8D2F4B29A5AF06BC6B98970D329D6577 DUP3 PUSH1 0x40 MLOAD PUSH2 0xA1A SWAP2 SWAP1 PUSH1 0x40 DUP1 DUP3 MSTORE PUSH1 0xD SWAP1 DUP3 ADD MSTORE PUSH13 0x4D696E74656420546F6B656E73 PUSH1 0x98 SHL PUSH1 0x60 DUP3 ADD MSTORE PUSH1 0x20 DUP2 ADD SWAP2 SWAP1 SWAP2 MSTORE PUSH1 0x80 ADD SWAP1 JUMP JUMPDEST PUSH1 0x40 MLOAD DUP1 SWAP2 SUB SWAP1 LOG1 JUMPDEST POP POP JUMPDEST PUSH1 0x2 SLOAD PUSH1 0x40 MLOAD PUSH4 0xA9059CBB PUSH1 0xE0 SHL DUP2 MSTORE CALLER PUSH1 0x4 DUP3 ADD MSTORE PUSH1 0x24 DUP2 ADD DUP5 SWAP1 MSTORE PUSH1 0x1 PUSH1 0x1 PUSH1 0xA0 SHL SUB SWAP1 SWAP2 AND SWAP1 PUSH4 0xA9059CBB SWAP1 PUSH1 0x44 ADD PUSH1 0x20 PUSH1 0x40 MLOAD DUP1 DUP4 SUB DUP2 PUSH0 DUP8 GAS CALL ISZERO DUP1 ISZERO PUSH2 0xA74 JUMPI RETURNDATASIZE PUSH0 PUSH0 RETURNDATACOPY RETURNDATASIZE PUSH0 REVERT JUMPDEST POP POP POP POP PUSH1 0x40 MLOAD RETURNDATASIZE PUSH1 0x1F NOT PUSH1 0x1F DUP3 ADD AND DUP3 ADD DUP1 PUSH1 0x40 MSTORE POP DUP2 ADD SWAP1 PUSH2 0xA98 SWAP2 SWAP1 PUSH2 0xCE7 JUMP JUMPDEST POP PUSH1 0x40 DUP1 MLOAD DUP7 DUP2 MSTORE PUSH1 0x20 DUP2 ADD DUP5 SWAP1 MSTORE CALLER SWAP2 PUSH32 0xDB13E87B3F9C3B8F5F3ACAD928DF55C52BA6BF7795AF4EC069DE5E23CAACB37 SWAP2 ADD PUSH1 0x40 MLOAD DUP1 SWAP2 SUB SWAP1 LOG2 POP POP POP POP POP JUMP JUMPDEST PUSH1 0x1 SLOAD PUSH1 0x40 MLOAD PUSH4 0x6EB1769F PUSH1 0xE1 SHL DUP2 MSTORE PUSH1 0x1 PUSH1 0x1 PUSH1 0xA0 SHL SUB DUP4 DUP2 AND PUSH1 0x4 DUP4 ADD MSTORE ADDRESS PUSH1 0x24 DUP4 ADD MSTORE PUSH0 SWAP3 AND SWAP1 PUSH4 0xDD62ED3E SWAP1 PUSH1 0x44 ADD PUSH2 0x58E JUMP JUMPDEST PUSH1 0x1 SLOAD PUSH1 0x40 MLOAD PUSH4 0x70A08231 PUSH1 0xE0 SHL DUP2 MSTORE PUSH1 0x1 PUSH1 0x1 PUSH1 0xA0 SHL SUB DUP4 DUP2 AND PUSH1 0x4 DUP4 ADD MSTORE PUSH0 SWAP3 AND SWAP1 PUSH4 0x70A08231 SWAP1 PUSH1 0x24 ADD PUSH2 0x58E JUMP JUMPDEST PUSH0 SLOAD PUSH1 0x1 PUSH1 0x1 PUSH1 0xA0 SHL SUB AND CALLER EQ PUSH2 0xB6E JUMPI PUSH1 0x40 MLOAD PUSH3 0x461BCD PUSH1 0xE5 SHL DUP2 MSTORE PUSH1 0x4 ADD PUSH2 0x298 SWAP1 PUSH2 0xCBF JUMP JUMPDEST PUSH1 0x1 PUSH1 0x1 PUSH1 0xA0 SHL SUB DUP2 AND PUSH2 0xBC4 JUMPI PUSH1 0x40 MLOAD PUSH3 0x461BCD PUSH1 0xE5 SHL DUP2 MSTORE PUSH1 0x20 PUSH1 0x4 DUP3 ADD DUP2 SWAP1 MSTORE PUSH1 0x24 DUP3 ADD MSTORE PUSH32 0x4E6577206F776E65722063616E6E6F74206265207A65726F2061646472657373 PUSH1 0x44 DUP3 ADD MSTORE PUSH1 0x64 ADD PUSH2 0x298 JUMP JUMPDEST PUSH0 DUP1 SLOAD PUSH1 0x40 MLOAD PUSH1 0x1 PUSH1 0x1 PUSH1 0xA0 SHL SUB DUP1 DUP6 AND SWAP4 SWAP3 AND SWAP2 PUSH32 0x8BE0079C531659141344CD1FD0A4F28419497F9722A3DAAFE3B4186F6B6457E0 SWAP2 LOG3 PUSH0 DUP1 SLOAD PUSH1 0x1 PUSH1 0x1 PUSH1 0xA0 SHL SUB NOT AND PUSH1 0x1 PUSH1 0x1 PUSH1 0xA0 SHL SUB SWAP3 SWAP1 SWAP3 AND SWAP2 SWAP1 SWAP2 OR SWAP1 SSTORE JUMP JUMPDEST DUP1 CALLDATALOAD PUSH1 0x1 PUSH1 0x1 PUSH1 0xA0 SHL SUB DUP2 AND DUP2 EQ PUSH2 0xC33 JUMPI PUSH0 PUSH0 REVERT JUMPDEST SWAP2 SWAP1 POP JUMP JUMPDEST PUSH0 PUSH0 PUSH0 PUSH1 0x60 DUP5 DUP7 SUB SLT ISZERO PUSH2 0xC4A JUMPI PUSH0 PUSH0 REVERT JUMPDEST PUSH2 0xC53 DUP5 PUSH2 0xC1D JUMP JUMPDEST SWAP3 POP PUSH1 0x20 DUP5 ADD CALLDATALOAD SWAP2 POP PUSH2 0xC68 PUSH1 0x40 DUP6 ADD PUSH2 0xC1D JUMP JUMPDEST SWAP1 POP SWAP3 POP SWAP3 POP SWAP3 JUMP JUMPDEST PUSH0 PUSH1 0x20 DUP3 DUP5 SUB SLT ISZERO PUSH2 0xC81 JUMPI PUSH0 PUSH0 REVERT JUMPDEST POP CALLDATALOAD SWAP2 SWAP1 POP JUMP JUMPDEST PUSH0 PUSH1 0x20 DUP3 DUP5 SUB SLT ISZERO PUSH2 0xC98 JUMPI PUSH0 PUSH0 REVERT JUMPDEST PUSH2 0xCA1 DUP3 PUSH2 0xC1D JUMP JUMPDEST SWAP4 SWAP3 POP POP POP JUMP JUMPDEST PUSH0 PUSH1 0x20 DUP3 DUP5 SUB SLT ISZERO PUSH2 0xCB8 JUMPI PUSH0 PUSH0 REVERT JUMPDEST POP MLOAD SWAP2 SWAP1 POP JUMP JUMPDEST PUSH1 0x20 DUP1 DUP3 MSTORE PUSH1 0xE SWAP1 DUP3 ADD MSTORE PUSH14 0x139BDD08185D5D1A1BDC9A5E9959 PUSH1 0x92 SHL PUSH1 0x40 DUP3 ADD MSTORE PUSH1 0x60 ADD SWAP1 JUMP JUMPDEST PUSH0 PUSH1 0x20 DUP3 DUP5 SUB SLT ISZERO PUSH2 0xCF7 JUMPI PUSH0 PUSH0 REVERT JUMPDEST DUP2 MLOAD DUP1 ISZERO ISZERO DUP2 EQ PUSH2 0xCA1 JUMPI PUSH0 PUSH0 REVERT JUMPDEST PUSH4 0x4E487B71 PUSH1 0xE0 SHL PUSH0 MSTORE PUSH1 0x11 PUSH1 0x4 MSTORE PUSH1 0x24 PUSH0 REVERT JUMPDEST DUP2 DUP2 SUB DUP2 DUP2 GT ISZERO PUSH2 0x5CD JUMPI PUSH2 0x5CD PUSH2 0xD06 JUMP JUMPDEST DUP1 DUP3 MUL DUP2 ISZERO DUP3 DUP3 DIV DUP5 EQ OR PUSH2 0x5CD JUMPI PUSH2 0x5CD PUSH2 0xD06 JUMP JUMPDEST PUSH0 DUP3 PUSH2 0xD5E JUMPI PUSH4 0x4E487B71 PUSH1 0xE0 SHL PUSH0 MSTORE PUSH1 0x12 PUSH1 0x4 MSTORE PUSH1 0x24 PUSH0 REVERT JUMPDEST POP DIV SWAP1 JUMP INVALID LOG2 PUSH5 0x6970667358 0x22 SLT KECCAK256 EXP 0xE4 0xBF PUSH31 0x6D856D671C3798A160859FD39C4ACE19D3A2F2C7D050A79D5BF0184664736F PUSH13 0x634300081C0033000000000000 "
				},
				"gasEstimates": {
					"creation": {
						"codeDepositCost": "696200",
						"executionCost": "infinite",
						"totalCost": "infinite"
					},
					"external": {
						"bond(uint256)": "infinite",
						"checkContractMLAMPLBalance()": "infinite",
						"checkMLAMPLBalance(address)": "infinite",
						"checkWETHAllowance(address)": "infinite",
						"checkWETHBalance(address)": "infinite",
						"discountRate()": "2360",
						"mlAMPL()": "2349",
						"owner()": "2347",
						"setDiscountRate(uint256)": "24554",
						"setTargetPrice(uint256)": "24506",
						"targetPrice()": "2338",
						"transferOwnership(address)": "30483",
						"weth()": "2371",
						"withdraw(address,uint256,address)": "infinite"
					}
				},
				"methodIdentifiers": {
					"bond(uint256)": "9940686e",
					"checkContractMLAMPLBalance()": "5e3124ed",
					"checkMLAMPLBalance(address)": "861b67ab",
					"checkWETHAllowance(address)": "b357964b",
					"checkWETHBalance(address)": "bbf6119a",
					"discountRate()": "e6c0e6d5",
					"mlAMPL()": "3a6eb3df",
					"owner()": "8da5cb5b",
					"setDiscountRate(uint256)": "7c69febd",
					"setTargetPrice(uint256)": "6a64eff8",
					"targetPrice()": "dc38679c",
					"transferOwnership(address)": "f2fde38b",
					"weth()": "3fc8cef3",
					"withdraw(address,uint256,address)": "69328dec"
				}
			},
			"storageLayout": {
				"storage": [
					{
						"astId": 150,
						"contract": "contracts/bonding_full.sol:Bonding",
						"label": "owner",
						"offset": 0,
						"slot": "0",
						"type": "t_address"
					},
					{
						"astId": 152,
						"contract": "contracts/bonding_full.sol:Bonding",
						"label": "weth",
						"offset": 0,
						"slot": "1",
						"type": "t_address"
					},
					{
						"astId": 154,
						"contract": "contracts/bonding_full.sol:Bonding",
						"label": "mlAMPL",
						"offset": 0,
						"slot": "2",
						"type": "t_address"
					},
					{
						"astId": 156,
						"contract": "contracts/bonding_full.sol:Bonding",
						"label": "discountRate",
						"offset": 0,
						"slot": "3",
						"type": "t_uint256"
					},
					{
						"astId": 158,
						"contract": "contracts/bonding_full.sol:Bonding",
						"label": "targetPrice",
						"offset": 0,
						"slot": "4",
						"type": "t_uint256"
					}
				],
				"types": {
					"t_address": {
						"encoding": "inplace",
						"label": "address",
						"numberOfBytes": "20"
					},
					"t_uint256": {
						"encoding": "inplace",
						"label": "uint256",
						"numberOfBytes": "32"
					}
				}
			},
			"userdoc": {
				"kind": "user",
				"methods": {},
				"version": 1
			}
		}
	}
}