{
	"contracts/buy_back.sol": {
		"BuyBack": {
			"abi": [
				{
					"inputs": [
						{
							"internalType": "address",
							"name": "_paymentToken",
							"type": "address"
						},
						{
							"internalType": "address",
							"name": "_roboMoney",
							"type": "address"
						},
						{
							"internalType": "address",
							"name": "_gasReserve",
							"type": "address"
						},
						{
							"internalType": "uint256",
							"name": "_premiumRate",
							"type": "uint256"
						},
						{
							"internalType": "uint256",
							"name": "_targetPrice",
							"type": "uint256"
						},
						{
							"internalType": "uint256",
							"name": "_taxRate",
							"type": "uint256"
						}
					],
					"stateMutability": "nonpayable",
					"type": "constructor"
				},
				{
					"inputs": [
						{
							"internalType": "address",
							"name": "token",
							"type": "address"
						}
					],
					"name": "SafeERC20FailedOperation",
					"type": "error"
				},
				{
					"anonymous": false,
					"inputs": [
						{
							"indexed": true,
							"internalType": "address",
							"name": "buyer",
							"type": "address"
						},
						{
							"indexed": false,
							"internalType": "uint256",
							"name": "roboMoneyAmount",
							"type": "uint256"
						},
						{
							"indexed": false,
							"internalType": "uint256",
							"name": "tokenSpent",
							"type": "uint256"
						}
					],
					"name": "BuyBackExecuted",
					"type": "event"
				},
				{
					"anonymous": false,
					"inputs": [
						{
							"indexed": true,
							"internalType": "address",
							"name": "oldGasReserve",
							"type": "address"
						},
						{
							"indexed": true,
							"internalType": "address",
							"name": "newGasReserve",
							"type": "address"
						}
					],
					"name": "GasReserveUpdated",
					"type": "event"
				},
				{
					"anonymous": false,
					"inputs": [
						{
							"indexed": true,
							"internalType": "address",
							"name": "previousOwner",
							"type": "address"
						},
						{
							"indexed": true,
							"internalType": "address",
							"name": "newOwner",
							"type": "address"
						}
					],
					"name": "OwnershipTransferred",
					"type": "event"
				},
				{
					"anonymous": false,
					"inputs": [
						{
							"indexed": false,
							"internalType": "address",
							"name": "account",
							"type": "address"
						}
					],
					"name": "Paused",
					"type": "event"
				},
				{
					"anonymous": false,
					"inputs": [
						{
							"indexed": false,
							"internalType": "uint256",
							"name": "oldTaxRate",
							"type": "uint256"
						},
						{
							"indexed": false,
							"internalType": "uint256",
							"name": "newTaxRate",
							"type": "uint256"
						}
					],
					"name": "TaxRateUpdated",
					"type": "event"
				},
				{
					"anonymous": false,
					"inputs": [
						{
							"indexed": false,
							"internalType": "address",
							"name": "account",
							"type": "address"
						}
					],
					"name": "Unpaused",
					"type": "event"
				},
				{
					"inputs": [
						{
							"internalType": "uint256",
							"name": "roboMoneyAmount",
							"type": "uint256"
						}
					],
					"name": "buyback",
					"outputs": [],
					"stateMutability": "nonpayable",
					"type": "function"
				},
				{
					"inputs": [
						{
							"internalType": "uint256",
							"name": "roboMoneyAmount",
							"type": "uint256"
						}
					],
					"name": "canExecuteBuyback",
					"outputs": [
						{
							"internalType": "bool",
							"name": "",
							"type": "bool"
						}
					],
					"stateMutability": "view",
					"type": "function"
				},
				{
					"inputs": [],
					"name": "contractTokenBalance",
					"outputs": [
						{
							"internalType": "uint256",
							"name": "",
							"type": "uint256"
						}
					],
					"stateMutability": "view",
					"type": "function"
				},
				{
					"inputs": [
						{
							"internalType": "uint256",
							"name": "amount",
							"type": "uint256"
						}
					],
					"name": "depositPaymentToken",
					"outputs": [],
					"stateMutability": "nonpayable",
					"type": "function"
				},
				{
					"inputs": [],
					"name": "gasReserve",
					"outputs": [
						{
							"internalType": "address",
							"name": "",
							"type": "address"
						}
					],
					"stateMutability": "view",
					"type": "function"
				},
				{
					"inputs": [],
					"name": "maxBuyableRoboMoney",
					"outputs": [
						{
							"internalType": "uint256",
							"name": "",
							"type": "uint256"
						}
					],
					"stateMutability": "view",
					"type": "function"
				},
				{
					"inputs": [],
					"name": "owner",
					"outputs": [
						{
							"internalType": "address",
							"name": "",
							"type": "address"
						}
					],
					"stateMutability": "view",
					"type": "function"
				},
				{
					"inputs": [],
					"name": "pause",
					"outputs": [],
					"stateMutability": "nonpayable",
					"type": "function"
				},
				{
					"inputs": [],
					"name": "paused",
					"outputs": [
						{
							"internalType": "bool",
							"name": "",
							"type": "bool"
						}
					],
					"stateMutability": "view",
					"type": "function"
				},
				{
					"inputs": [],
					"name": "paymentToken",
					"outputs": [
						{
							"internalType": "address",
							"name": "",
							"type": "address"
						}
					],
					"stateMutability": "view",
					"type": "function"
				},
				{
					"inputs": [],
					"name": "premiumRate",
					"outputs": [
						{
							"internalType": "uint256",
							"name": "",
							"type": "uint256"
						}
					],
					"stateMutability": "view",
					"type": "function"
				},
				{
					"inputs": [],
					"name": "roboMoney",
					"outputs": [
						{
							"internalType": "address",
							"name": "",
							"type": "address"
						}
					],
					"stateMutability": "view",
					"type": "function"
				},
				{
					"inputs": [
						{
							"internalType": "address",
							"name": "_newGasReserve",
							"type": "address"
						}
					],
					"name": "setGasReserve",
					"outputs": [],
					"stateMutability": "nonpayable",
					"type": "function"
				},
				{
					"inputs": [
						{
							"internalType": "uint256",
							"name": "_premiumRate",
							"type": "uint256"
						}
					],
					"name": "setPremiumRate",
					"outputs": [],
					"stateMutability": "nonpayable",
					"type": "function"
				},
				{
					"inputs": [
						{
							"internalType": "uint256",
							"name": "_targetPrice",
							"type": "uint256"
						}
					],
					"name": "setTargetPrice",
					"outputs": [],
					"stateMutability": "nonpayable",
					"type": "function"
				},
				{
					"inputs": [
						{
							"internalType": "uint256",
							"name": "_newTaxRate",
							"type": "uint256"
						}
					],
					"name": "setTaxRate",
					"outputs": [],
					"stateMutability": "nonpayable",
					"type": "function"
				},
				{
					"inputs": [],
					"name": "targetPrice",
					"outputs": [
						{
							"internalType": "uint256",
							"name": "",
							"type": "uint256"
						}
					],
					"stateMutability": "view",
					"type": "function"
				},
				{
					"inputs": [],
					"name": "taxRate",
					"outputs": [
						{
							"internalType": "uint256",
							"name": "",
							"type": "uint256"
						}
					],
					"stateMutability": "view",
					"type": "function"
				},
				{
					"inputs": [
						{
							"internalType": "address",
							"name": "newOwner",
							"type": "address"
						}
					],
					"name": "transferOwnership",
					"outputs": [],
					"stateMutability": "nonpayable",
					"type": "function"
				},
				{
					"inputs": [],
					"name": "unpause",
					"outputs": [],
					"stateMutability": "nonpayable",
					"type": "function"
				},
				{
					"inputs": [
						{
							"internalType": "uint256",
							"name": "amount",
							"type": "uint256"
						}
					],
					"name": "withdrawPaymentToken",
					"outputs": [],
					"stateMutability": "nonpayable",
					"type": "function"
				}
			],
			"devdoc": {
				"details": "A contract that lets users sell (buy back) RoboMoney tokens for a paymentToken,      and then burns the RoboMoney tokens.      Now includes Pausable functionality so the owner can temporarily halt deposits or buybacks.",
				"errors": {
					"SafeERC20FailedOperation(address)": [
						{
							"details": "An operation with an ERC-20 token failed."
						}
					]
				},
				"kind": "dev",
				"methods": {
					"buyback(uint256)": {
						"details": "whenNotPaused ensures no buybacks are processed if contract is paused.",
						"params": {
							"roboMoneyAmount": "Amount of RoboMoney tokens to sell/buy back."
						}
					},
					"canExecuteBuyback(uint256)": {
						"details": "Checks if the contract has enough payment tokens to buy back roboMoneyAmount      at the current premium rate."
					},
					"contractTokenBalance()": {
						"details": "Returns the current contract balance of the payment token."
					},
					"depositPaymentToken(uint256)": {
						"details": "Owner can deposit payment tokens into the contract to fund future buybacks.Protected by whenNotPaused so you can prevent deposits if needed."
					},
					"maxBuyableRoboMoney()": {
						"details": "Returns the maximum amount of RoboMoney the contract can buy back given its current payment token balance and the premium rate."
					},
					"pause()": {
						"details": "Owner can pause the contract (disables buyback & deposit)."
					},
					"setPremiumRate(uint256)": {
						"details": "Sets the premium rate (in %). e.g., 5 => 5% premium."
					},
					"setTargetPrice(uint256)": {
						"details": "Sets the base price ratio for RoboMoney vs. payment token."
					},
					"transferOwnership(address)": {
						"details": "Owner can transfer ownership."
					},
					"unpause()": {
						"details": "Owner can unpause the contract (re-enables buyback & deposit)."
					},
					"withdrawPaymentToken(uint256)": {
						"details": "Owner can withdraw payment tokens from the contract (for leftover tokens, etc.).      This is still allowed even if paused, in case you need to remove funds in an emergency."
					}
				},
				"title": "BuyBack",
				"version": 1
			},
			"evm": {
				"assembly": "    /* \"contracts/buy_back.sol\":2873:10336  contract BuyBack is Pausable, ReentrancyGuard {... */\n  mstore(0x40, 0x80)\n    /* \"contracts/buy_back.sol\":3785:4231  constructor(... */\n  callvalue\n  dup1\n  iszero\n  tag_1\n  jumpi\n  0x00\n  dup1\n  revert\ntag_1:\n  pop\n  mload(0x40)\n  sub(codesize, bytecodeSize)\n  dup1\n  bytecodeSize\n  dup4\n  codecopy\n  dup2\n  dup2\n  add\n  0x40\n  mstore\n  dup2\n  add\n  swap1\n  tag_2\n  swap2\n  swap1\n  tag_3\n  jump\t// in\ntag_2:\n    /* \"contracts/buy_back.sol\":851:856  false */\n  0x00\n    /* \"contracts/buy_back.sol\":841:848  _paused */\n  dup1\n  0x00\n    /* \"contracts/buy_back.sol\":841:856  _paused = false */\n  0x0100\n  exp\n  dup2\n  sload\n  dup2\n  0xff\n  mul\n  not\n  and\n  swap1\n  dup4\n  iszero\n  iszero\n  mul\n  or\n  swap1\n  sstore\n  pop\n    /* \"@openzeppelin/contracts/security/ReentrancyGuard.sol\":1716:1717  1 */\n  0x01\n    /* \"@openzeppelin/contracts/security/ReentrancyGuard.sol\":1821:1828  _status */\n  dup1\n    /* \"@openzeppelin/contracts/security/ReentrancyGuard.sol\":1821:1843  _status = _NOT_ENTERED */\n  dup2\n  swap1\n  sstore\n  pop\n    /* \"contracts/buy_back.sol\":4003:4013  msg.sender */\n  caller\n    /* \"contracts/buy_back.sol\":3995:4000  owner */\n  0x02\n  0x00\n    /* \"contracts/buy_back.sol\":3995:4013  owner = msg.sender */\n  0x0100\n  exp\n  dup2\n  sload\n  dup2\n  0xffffffffffffffffffffffffffffffffffffffff\n  mul\n  not\n  and\n  swap1\n  dup4\n  0xffffffffffffffffffffffffffffffffffffffff\n  and\n  mul\n  or\n  swap1\n  sstore\n  pop\n    /* \"contracts/buy_back.sol\":4039:4052  _paymentToken */\n  dup6\n    /* \"contracts/buy_back.sol\":4024:4036  paymentToken */\n  0x03\n  0x00\n    /* \"contracts/buy_back.sol\":4024:4052  paymentToken = _paymentToken */\n  0x0100\n  exp\n  dup2\n  sload\n  dup2\n  0xffffffffffffffffffffffffffffffffffffffff\n  mul\n  not\n  and\n  swap1\n  dup4\n  0xffffffffffffffffffffffffffffffffffffffff\n  and\n  mul\n  or\n  swap1\n  sstore\n  pop\n    /* \"contracts/buy_back.sol\":4076:4087  _gasReserve */\n  dup4\n    /* \"contracts/buy_back.sol\":4063:4073  gasReserve */\n  0x05\n  0x00\n    /* \"contracts/buy_back.sol\":4063:4087  gasReserve = _gasReserve */\n  0x0100\n  exp\n  dup2\n  sload\n  dup2\n  0xffffffffffffffffffffffffffffffffffffffff\n  mul\n  not\n  and\n  swap1\n  dup4\n  0xffffffffffffffffffffffffffffffffffffffff\n  and\n  mul\n  or\n  swap1\n  sstore\n  pop\n    /* \"contracts/buy_back.sol\":4110:4120  _roboMoney */\n  dup5\n    /* \"contracts/buy_back.sol\":4098:4107  roboMoney */\n  0x04\n  0x00\n    /* \"contracts/buy_back.sol\":4098:4120  roboMoney = _roboMoney */\n  0x0100\n  exp\n  dup2\n  sload\n  dup2\n  0xffffffffffffffffffffffffffffffffffffffff\n  mul\n  not\n  and\n  swap1\n  dup4\n  0xffffffffffffffffffffffffffffffffffffffff\n  and\n  mul\n  or\n  swap1\n  sstore\n  pop\n    /* \"contracts/buy_back.sol\":4145:4157  _premiumRate */\n  dup3\n    /* \"contracts/buy_back.sol\":4131:4142  premiumRate */\n  0x06\n    /* \"contracts/buy_back.sol\":4131:4157  premiumRate = _premiumRate */\n  dup2\n  swap1\n  sstore\n  pop\n    /* \"contracts/buy_back.sol\":4182:4194  _targetPrice */\n  dup2\n    /* \"contracts/buy_back.sol\":4168:4179  targetPrice */\n  0x07\n    /* \"contracts/buy_back.sol\":4168:4194  targetPrice = _targetPrice */\n  dup2\n  swap1\n  sstore\n  pop\n    /* \"contracts/buy_back.sol\":4215:4223  _taxRate */\n  dup1\n    /* \"contracts/buy_back.sol\":4205:4212  taxRate */\n  0x08\n    /* \"contracts/buy_back.sol\":4205:4223  taxRate = _taxRate */\n  dup2\n  swap1\n  sstore\n  pop\n    /* \"contracts/buy_back.sol\":3785:4231  constructor(... */\n  pop\n  pop\n  pop\n  pop\n  pop\n  pop\n    /* \"contracts/buy_back.sol\":2873:10336  contract BuyBack is Pausable, ReentrancyGuard {... */\n  jump(tag_10)\n    /* \"#utility.yul\":88:205   */\ntag_12:\n    /* \"#utility.yul\":197:198   */\n  0x00\n    /* \"#utility.yul\":194:195   */\n  dup1\n    /* \"#utility.yul\":187:199   */\n  revert\n    /* \"#utility.yul\":334:460   */\ntag_14:\n    /* \"#utility.yul\":371:378   */\n  0x00\n    /* \"#utility.yul\":411:453   */\n  0xffffffffffffffffffffffffffffffffffffffff\n    /* \"#utility.yul\":404:409   */\n  dup3\n    /* \"#utility.yul\":400:454   */\n  and\n    /* \"#utility.yul\":389:454   */\n  swap1\n  pop\n    /* \"#utility.yul\":334:460   */\n  swap2\n  swap1\n  pop\n  jump\t// out\n    /* \"#utility.yul\":466:562   */\ntag_15:\n    /* \"#utility.yul\":503:510   */\n  0x00\n    /* \"#utility.yul\":532:556   */\n  tag_27\n    /* \"#utility.yul\":550:555   */\n  dup3\n    /* \"#utility.yul\":532:556   */\n  tag_14\n  jump\t// in\ntag_27:\n    /* \"#utility.yul\":521:556   */\n  swap1\n  pop\n    /* \"#utility.yul\":466:562   */\n  swap2\n  swap1\n  pop\n  jump\t// out\n    /* \"#utility.yul\":568:690   */\ntag_16:\n    /* \"#utility.yul\":641:665   */\n  tag_29\n    /* \"#utility.yul\":659:664   */\n  dup2\n    /* \"#utility.yul\":641:665   */\n  tag_15\n  jump\t// in\ntag_29:\n    /* \"#utility.yul\":634:639   */\n  dup2\n    /* \"#utility.yul\":631:666   */\n  eq\n    /* \"#utility.yul\":621:684   */\n  tag_30\n  jumpi\n    /* \"#utility.yul\":680:681   */\n  0x00\n    /* \"#utility.yul\":677:678   */\n  dup1\n    /* \"#utility.yul\":670:682   */\n  revert\n    /* \"#utility.yul\":621:684   */\ntag_30:\n    /* \"#utility.yul\":568:690   */\n  pop\n  jump\t// out\n    /* \"#utility.yul\":696:839   */\ntag_17:\n    /* \"#utility.yul\":753:758   */\n  0x00\n    /* \"#utility.yul\":784:790   */\n  dup2\n    /* \"#utility.yul\":778:791   */\n  mload\n    /* \"#utility.yul\":769:791   */\n  swap1\n  pop\n    /* \"#utility.yul\":800:833   */\n  tag_32\n    /* \"#utility.yul\":827:832   */\n  dup2\n    /* \"#utility.yul\":800:833   */\n  tag_16\n  jump\t// in\ntag_32:\n    /* \"#utility.yul\":696:839   */\n  swap3\n  swap2\n  pop\n  pop\n  jump\t// out\n    /* \"#utility.yul\":845:922   */\ntag_18:\n    /* \"#utility.yul\":882:889   */\n  0x00\n    /* \"#utility.yul\":911:916   */\n  dup2\n    /* \"#utility.yul\":900:916   */\n  swap1\n  pop\n    /* \"#utility.yul\":845:922   */\n  swap2\n  swap1\n  pop\n  jump\t// out\n    /* \"#utility.yul\":928:1050   */\ntag_19:\n    /* \"#utility.yul\":1001:1025   */\n  tag_35\n    /* \"#utility.yul\":1019:1024   */\n  dup2\n    /* \"#utility.yul\":1001:1025   */\n  tag_18\n  jump\t// in\ntag_35:\n    /* \"#utility.yul\":994:999   */\n  dup2\n    /* \"#utility.yul\":991:1026   */\n  eq\n    /* \"#utility.yul\":981:1044   */\n  tag_36\n  jumpi\n    /* \"#utility.yul\":1040:1041   */\n  0x00\n    /* \"#utility.yul\":1037:1038   */\n  dup1\n    /* \"#utility.yul\":1030:1042   */\n  revert\n    /* \"#utility.yul\":981:1044   */\ntag_36:\n    /* \"#utility.yul\":928:1050   */\n  pop\n  jump\t// out\n    /* \"#utility.yul\":1056:1199   */\ntag_20:\n    /* \"#utility.yul\":1113:1118   */\n  0x00\n    /* \"#utility.yul\":1144:1150   */\n  dup2\n    /* \"#utility.yul\":1138:1151   */\n  mload\n    /* \"#utility.yul\":1129:1151   */\n  swap1\n  pop\n    /* \"#utility.yul\":1160:1193   */\n  tag_38\n    /* \"#utility.yul\":1187:1192   */\n  dup2\n    /* \"#utility.yul\":1160:1193   */\n  tag_19\n  jump\t// in\ntag_38:\n    /* \"#utility.yul\":1056:1199   */\n  swap3\n  swap2\n  pop\n  pop\n  jump\t// out\n    /* \"#utility.yul\":1205:2339   */\ntag_3:\n    /* \"#utility.yul\":1320:1326   */\n  0x00\n    /* \"#utility.yul\":1328:1334   */\n  dup1\n    /* \"#utility.yul\":1336:1342   */\n  0x00\n    /* \"#utility.yul\":1344:1350   */\n  dup1\n    /* \"#utility.yul\":1352:1358   */\n  0x00\n    /* \"#utility.yul\":1360:1366   */\n  dup1\n    /* \"#utility.yul\":1409:1412   */\n  0xc0\n    /* \"#utility.yul\":1397:1406   */\n  dup8\n    /* \"#utility.yul\":1388:1395   */\n  dup10\n    /* \"#utility.yul\":1384:1407   */\n  sub\n    /* \"#utility.yul\":1380:1413   */\n  slt\n    /* \"#utility.yul\":1377:1497   */\n  iszero\n  tag_40\n  jumpi\n    /* \"#utility.yul\":1416:1495   */\n  tag_41\n  tag_12\n  jump\t// in\ntag_41:\n    /* \"#utility.yul\":1377:1497   */\ntag_40:\n    /* \"#utility.yul\":1536:1537   */\n  0x00\n    /* \"#utility.yul\":1561:1625   */\n  tag_42\n    /* \"#utility.yul\":1617:1624   */\n  dup10\n    /* \"#utility.yul\":1608:1614   */\n  dup3\n    /* \"#utility.yul\":1597:1606   */\n  dup11\n    /* \"#utility.yul\":1593:1615   */\n  add\n    /* \"#utility.yul\":1561:1625   */\n  tag_17\n  jump\t// in\ntag_42:\n    /* \"#utility.yul\":1551:1625   */\n  swap7\n  pop\n    /* \"#utility.yul\":1507:1635   */\n  pop\n    /* \"#utility.yul\":1674:1676   */\n  0x20\n    /* \"#utility.yul\":1700:1764   */\n  tag_43\n    /* \"#utility.yul\":1756:1763   */\n  dup10\n    /* \"#utility.yul\":1747:1753   */\n  dup3\n    /* \"#utility.yul\":1736:1745   */\n  dup11\n    /* \"#utility.yul\":1732:1754   */\n  add\n    /* \"#utility.yul\":1700:1764   */\n  tag_17\n  jump\t// in\ntag_43:\n    /* \"#utility.yul\":1690:1764   */\n  swap6\n  pop\n    /* \"#utility.yul\":1645:1774   */\n  pop\n    /* \"#utility.yul\":1813:1815   */\n  0x40\n    /* \"#utility.yul\":1839:1903   */\n  tag_44\n    /* \"#utility.yul\":1895:1902   */\n  dup10\n    /* \"#utility.yul\":1886:1892   */\n  dup3\n    /* \"#utility.yul\":1875:1884   */\n  dup11\n    /* \"#utility.yul\":1871:1893   */\n  add\n    /* \"#utility.yul\":1839:1903   */\n  tag_17\n  jump\t// in\ntag_44:\n    /* \"#utility.yul\":1829:1903   */\n  swap5\n  pop\n    /* \"#utility.yul\":1784:1913   */\n  pop\n    /* \"#utility.yul\":1952:1954   */\n  0x60\n    /* \"#utility.yul\":1978:2042   */\n  tag_45\n    /* \"#utility.yul\":2034:2041   */\n  dup10\n    /* \"#utility.yul\":2025:2031   */\n  dup3\n    /* \"#utility.yul\":2014:2023   */\n  dup11\n    /* \"#utility.yul\":2010:2032   */\n  add\n    /* \"#utility.yul\":1978:2042   */\n  tag_20\n  jump\t// in\ntag_45:\n    /* \"#utility.yul\":1968:2042   */\n  swap4\n  pop\n    /* \"#utility.yul\":1923:2052   */\n  pop\n    /* \"#utility.yul\":2091:2094   */\n  0x80\n    /* \"#utility.yul\":2118:2182   */\n  tag_46\n    /* \"#utility.yul\":2174:2181   */\n  dup10\n    /* \"#utility.yul\":2165:2171   */\n  dup3\n    /* \"#utility.yul\":2154:2163   */\n  dup11\n    /* \"#utility.yul\":2150:2172   */\n  add\n    /* \"#utility.yul\":2118:2182   */\n  tag_20\n  jump\t// in\ntag_46:\n    /* \"#utility.yul\":2108:2182   */\n  swap3\n  pop\n    /* \"#utility.yul\":2062:2192   */\n  pop\n    /* \"#utility.yul\":2231:2234   */\n  0xa0\n    /* \"#utility.yul\":2258:2322   */\n  tag_47\n    /* \"#utility.yul\":2314:2321   */\n  dup10\n    /* \"#utility.yul\":2305:2311   */\n  dup3\n    /* \"#utility.yul\":2294:2303   */\n  dup11\n    /* \"#utility.yul\":2290:2312   */\n  add\n    /* \"#utility.yul\":2258:2322   */\n  tag_20\n  jump\t// in\ntag_47:\n    /* \"#utility.yul\":2248:2322   */\n  swap2\n  pop\n    /* \"#utility.yul\":2202:2332   */\n  pop\n    /* \"#utility.yul\":1205:2339   */\n  swap3\n  swap6\n  pop\n  swap3\n  swap6\n  pop\n  swap3\n  swap6\n  jump\t// out\n    /* \"contracts/buy_back.sol\":2873:10336  contract BuyBack is Pausable, ReentrancyGuard {... */\ntag_10:\n  dataSize(sub_0)\n  dup1\n  dataOffset(sub_0)\n  0x00\n  codecopy\n  0x00\n  return\nstop\n\nsub_0: assembly {\n        /* \"contracts/buy_back.sol\":2873:10336  contract BuyBack is Pausable, ReentrancyGuard {... */\n      mstore(0x40, 0x80)\n      callvalue\n      dup1\n      iszero\n      tag_1\n      jumpi\n      0x00\n      dup1\n      revert\n    tag_1:\n      pop\n      jumpi(tag_2, lt(calldatasize, 0x04))\n      shr(0xe0, calldataload(0x00))\n      dup1\n      0x839ea2d9\n      gt\n      tag_24\n      jumpi\n      dup1\n      0xc6d69a30\n      gt\n      tag_25\n      jumpi\n      dup1\n      0xc6d69a30\n      eq\n      tag_18\n      jumpi\n      dup1\n      0xce1d1f1f\n      eq\n      tag_19\n      jumpi\n      dup1\n      0xd4a49c17\n      eq\n      tag_20\n      jumpi\n      dup1\n      0xdc38679c\n      eq\n      tag_21\n      jumpi\n      dup1\n      0xeea7570e\n      eq\n      tag_22\n      jumpi\n      dup1\n      0xf2fde38b\n      eq\n      tag_23\n      jumpi\n      jump(tag_2)\n    tag_25:\n      dup1\n      0x839ea2d9\n      eq\n      tag_13\n      jumpi\n      dup1\n      0x8456cb59\n      eq\n      tag_14\n      jumpi\n      dup1\n      0x8da5cb5b\n      eq\n      tag_15\n      jumpi\n      dup1\n      0x9063ee20\n      eq\n      tag_16\n      jumpi\n      dup1\n      0x9e9aed62\n      eq\n      tag_17\n      jumpi\n      jump(tag_2)\n    tag_24:\n      dup1\n      0x6a64eff8\n      gt\n      tag_26\n      jumpi\n      dup1\n      0x6a64eff8\n      eq\n      tag_8\n      jumpi\n      dup1\n      0x771a3a1d\n      eq\n      tag_9\n      jumpi\n      dup1\n      0x79a9fa1c\n      eq\n      tag_10\n      jumpi\n      dup1\n      0x7ef7ba20\n      eq\n      tag_11\n      jumpi\n      dup1\n      0x7ff8b57a\n      eq\n      tag_12\n      jumpi\n      jump(tag_2)\n    tag_26:\n      dup1\n      0x07e675fa\n      eq\n      tag_3\n      jumpi\n      dup1\n      0x3013ce29\n      eq\n      tag_4\n      jumpi\n      dup1\n      0x3f4ba83a\n      eq\n      tag_5\n      jumpi\n      dup1\n      0x5c975abb\n      eq\n      tag_6\n      jumpi\n      dup1\n      0x5d0040d3\n      eq\n      tag_7\n      jumpi\n    tag_2:\n      0x00\n      dup1\n      revert\n        /* \"contracts/buy_back.sol\":8542:8959  function withdrawPaymentToken(uint256 amount) external onlyOwner {... */\n    tag_3:\n      tag_27\n      0x04\n      dup1\n      calldatasize\n      sub\n      dup2\n      add\n      swap1\n      tag_28\n      swap2\n      swap1\n      tag_29\n      jump\t// in\n    tag_28:\n      tag_30\n      jump\t// in\n    tag_27:\n      stop\n        /* \"contracts/buy_back.sol\":2953:2980  address public paymentToken */\n    tag_4:\n      tag_31\n      tag_32\n      jump\t// in\n    tag_31:\n      mload(0x40)\n      tag_33\n      swap2\n      swap1\n      tag_34\n      jump\t// in\n    tag_33:\n      mload(0x40)\n      dup1\n      swap2\n      sub\n      swap1\n      return\n        /* \"contracts/buy_back.sol\":4600:4667  function unpause() external onlyOwner {... */\n    tag_5:\n      tag_35\n      tag_36\n      jump\t// in\n    tag_35:\n      stop\n        /* \"contracts/buy_back.sol\":872:958  function paused() public view virtual returns (bool) {... */\n    tag_6:\n      tag_37\n      tag_38\n      jump\t// in\n    tag_37:\n      mload(0x40)\n      tag_39\n      swap2\n      swap1\n      tag_40\n      jump\t// in\n    tag_39:\n      mload(0x40)\n      dup1\n      swap2\n      sub\n      swap1\n      return\n        /* \"contracts/buy_back.sol\":3273:3299  uint256 public premiumRate */\n    tag_7:\n      tag_41\n      tag_42\n      jump\t// in\n    tag_41:\n      mload(0x40)\n      tag_43\n      swap2\n      swap1\n      tag_44\n      jump\t// in\n    tag_43:\n      mload(0x40)\n      dup1\n      swap2\n      sub\n      swap1\n      return\n        /* \"contracts/buy_back.sol\":5082:5192  function setTargetPrice(uint256 _targetPrice) external onlyOwner {... */\n    tag_8:\n      tag_45\n      0x04\n      dup1\n      calldatasize\n      sub\n      dup2\n      add\n      swap1\n      tag_46\n      swap2\n      swap1\n      tag_29\n      jump\t// in\n    tag_46:\n      tag_47\n      jump\t// in\n    tag_45:\n      stop\n        /* \"contracts/buy_back.sol\":3407:3429  uint256 public taxRate */\n    tag_9:\n      tag_48\n      tag_49\n      jump\t// in\n    tag_48:\n      mload(0x40)\n      tag_50\n      swap2\n      swap1\n      tag_44\n      jump\t// in\n    tag_50:\n      mload(0x40)\n      dup1\n      swap2\n      sub\n      swap1\n      return\n        /* \"contracts/buy_back.sol\":5852:7372  function buyback(uint256 roboMoneyAmount) external whenNotPaused nonReentrant {... */\n    tag_10:\n      tag_51\n      0x04\n      dup1\n      calldatasize\n      sub\n      dup2\n      add\n      swap1\n      tag_52\n      swap2\n      swap1\n      tag_29\n      jump\t// in\n    tag_52:\n      tag_53\n      jump\t// in\n    tag_51:\n      stop\n        /* \"contracts/buy_back.sol\":3031:3055  address public roboMoney */\n    tag_11:\n      tag_54\n      tag_55\n      jump\t// in\n    tag_54:\n      mload(0x40)\n      tag_56\n      swap2\n      swap1\n      tag_34\n      jump\t// in\n    tag_56:\n      mload(0x40)\n      dup1\n      swap2\n      sub\n      swap1\n      return\n        /* \"contracts/buy_back.sol\":4759:4984  function setPremiumRate(uint256 _premiumRate) external onlyOwner {... */\n    tag_12:\n      tag_57\n      0x04\n      dup1\n      calldatasize\n      sub\n      dup2\n      add\n      swap1\n      tag_58\n      swap2\n      swap1\n      tag_29\n      jump\t// in\n    tag_58:\n      tag_59\n      jump\t// in\n    tag_57:\n      stop\n        /* \"contracts/buy_back.sol\":9967:10333  function canExecuteBuyback(uint256 roboMoneyAmount) external view returns (bool) {... */\n    tag_13:\n      tag_60\n      0x04\n      dup1\n      calldatasize\n      sub\n      dup2\n      add\n      swap1\n      tag_61\n      swap2\n      swap1\n      tag_29\n      jump\t// in\n    tag_61:\n      tag_62\n      jump\t// in\n    tag_60:\n      mload(0x40)\n      tag_63\n      swap2\n      swap1\n      tag_40\n      jump\t// in\n    tag_63:\n      mload(0x40)\n      dup1\n      swap2\n      sub\n      swap1\n      return\n        /* \"contracts/buy_back.sol\":4435:4498  function pause() external onlyOwner {... */\n    tag_14:\n      tag_64\n      tag_65\n      jump\t// in\n    tag_64:\n      stop\n        /* \"contracts/buy_back.sol\":2926:2946  address public owner */\n    tag_15:\n      tag_66\n      tag_67\n      jump\t// in\n    tag_66:\n      mload(0x40)\n      tag_68\n      swap2\n      swap1\n      tag_34\n      jump\t// in\n    tag_68:\n      mload(0x40)\n      dup1\n      swap2\n      sub\n      swap1\n      return\n        /* \"contracts/buy_back.sol\":7566:7858  function depositPaymentToken(uint256 amount) external onlyOwner whenNotPaused {... */\n    tag_16:\n      tag_69\n      0x04\n      dup1\n      calldatasize\n      sub\n      dup2\n      add\n      swap1\n      tag_70\n      swap2\n      swap1\n      tag_29\n      jump\t// in\n    tag_70:\n      tag_71\n      jump\t// in\n    tag_69:\n      stop\n        /* \"contracts/buy_back.sol\":9057:9192  function contractTokenBalance() external view returns (uint256) {... */\n    tag_17:\n      tag_72\n      tag_73\n      jump\t// in\n    tag_72:\n      mload(0x40)\n      tag_74\n      swap2\n      swap1\n      tag_44\n      jump\t// in\n    tag_74:\n      mload(0x40)\n      dup1\n      swap2\n      sub\n      swap1\n      return\n        /* \"contracts/buy_back.sol\":8114:8321  function setTaxRate(uint256 _newTaxRate) external onlyOwner {... */\n    tag_18:\n      tag_75\n      0x04\n      dup1\n      calldatasize\n      sub\n      dup2\n      add\n      swap1\n      tag_76\n      swap2\n      swap1\n      tag_29\n      jump\t// in\n    tag_76:\n      tag_77\n      jump\t// in\n    tag_75:\n      stop\n        /* \"contracts/buy_back.sol\":9367:9809  function maxBuyableRoboMoney() external view returns (uint256) {... */\n    tag_19:\n      tag_78\n      tag_79\n      jump\t// in\n    tag_78:\n      mload(0x40)\n      tag_80\n      swap2\n      swap1\n      tag_44\n      jump\t// in\n    tag_80:\n      mload(0x40)\n      dup1\n      swap2\n      sub\n      swap1\n      return\n        /* \"contracts/buy_back.sol\":7866:8106  function setGasReserve(address _newGasReserve) external onlyOwner {... */\n    tag_20:\n      tag_81\n      0x04\n      dup1\n      calldatasize\n      sub\n      dup2\n      add\n      swap1\n      tag_82\n      swap2\n      swap1\n      tag_83\n      jump\t// in\n    tag_82:\n      tag_84\n      jump\t// in\n    tag_81:\n      stop\n        /* \"contracts/buy_back.sol\":3325:3351  uint256 public targetPrice */\n    tag_21:\n      tag_85\n      tag_86\n      jump\t// in\n    tag_85:\n      mload(0x40)\n      tag_87\n      swap2\n      swap1\n      tag_44\n      jump\t// in\n    tag_87:\n      mload(0x40)\n      dup1\n      swap2\n      sub\n      swap1\n      return\n        /* \"contracts/buy_back.sol\":3121:3146  address public gasReserve */\n    tag_22:\n      tag_88\n      tag_89\n      jump\t// in\n    tag_88:\n      mload(0x40)\n      tag_90\n      swap2\n      swap1\n      tag_34\n      jump\t// in\n    tag_90:\n      mload(0x40)\n      dup1\n      swap2\n      sub\n      swap1\n      return\n        /* \"contracts/buy_back.sol\":5261:5491  function transferOwnership(address newOwner) external onlyOwner {... */\n    tag_23:\n      tag_91\n      0x04\n      dup1\n      calldatasize\n      sub\n      dup2\n      add\n      swap1\n      tag_92\n      swap2\n      swap1\n      tag_83\n      jump\t// in\n    tag_92:\n      tag_93\n      jump\t// in\n    tag_91:\n      stop\n        /* \"contracts/buy_back.sol\":8542:8959  function withdrawPaymentToken(uint256 amount) external onlyOwner {... */\n    tag_30:\n        /* \"contracts/buy_back.sol\":4293:4298  owner */\n      0x02\n      0x00\n      swap1\n      sload\n      swap1\n      0x0100\n      exp\n      swap1\n      div\n      0xffffffffffffffffffffffffffffffffffffffff\n      and\n        /* \"contracts/buy_back.sol\":4279:4298  msg.sender == owner */\n      0xffffffffffffffffffffffffffffffffffffffff\n      and\n        /* \"contracts/buy_back.sol\":4279:4289  msg.sender */\n      caller\n        /* \"contracts/buy_back.sol\":4279:4298  msg.sender == owner */\n      0xffffffffffffffffffffffffffffffffffffffff\n      and\n      eq\n        /* \"contracts/buy_back.sol\":4271:4317  require(msg.sender == owner, \"Not authorized\") */\n      tag_95\n      jumpi\n      mload(0x40)\n      0x08c379a000000000000000000000000000000000000000000000000000000000\n      dup2\n      mstore\n      0x04\n      add\n      tag_96\n      swap1\n      tag_97\n      jump\t// in\n    tag_96:\n      mload(0x40)\n      dup1\n      swap2\n      sub\n      swap1\n      revert\n    tag_95:\n        /* \"contracts/buy_back.sol\":8635:8636  0 */\n      0x00\n        /* \"contracts/buy_back.sol\":8626:8632  amount */\n      dup2\n        /* \"contracts/buy_back.sol\":8626:8636  amount > 0 */\n      gt\n        /* \"contracts/buy_back.sol\":8618:8661  require(amount > 0, \"Withdraw must be > 0\") */\n      tag_99\n      jumpi\n      mload(0x40)\n      0x08c379a000000000000000000000000000000000000000000000000000000000\n      dup2\n      mstore\n      0x04\n      add\n      tag_100\n      swap1\n      tag_101\n      jump\t// in\n    tag_100:\n      mload(0x40)\n      dup1\n      swap2\n      sub\n      swap1\n      revert\n    tag_99:\n        /* \"contracts/buy_back.sol\":8672:8694  uint256 currentBalance */\n      0x00\n        /* \"contracts/buy_back.sol\":8704:8716  paymentToken */\n      0x03\n      0x00\n      swap1\n      sload\n      swap1\n      0x0100\n      exp\n      swap1\n      div\n      0xffffffffffffffffffffffffffffffffffffffff\n      and\n        /* \"contracts/buy_back.sol\":8697:8727  IERC20(paymentToken).balanceOf */\n      0xffffffffffffffffffffffffffffffffffffffff\n      and\n      0x70a08231\n        /* \"contracts/buy_back.sol\":8736:8740  this */\n      address\n        /* \"contracts/buy_back.sol\":8697:8742  IERC20(paymentToken).balanceOf(address(this)) */\n      mload(0x40)\n      dup3\n      0xffffffff\n      and\n      0xe0\n      shl\n      dup2\n      mstore\n      0x04\n      add\n      tag_102\n      swap2\n      swap1\n      tag_34\n      jump\t// in\n    tag_102:\n      0x20\n      mload(0x40)\n      dup1\n      dup4\n      sub\n      dup2\n      dup7\n      gas\n      staticcall\n      iszero\n      dup1\n      iszero\n      tag_104\n      jumpi\n      returndatasize\n      0x00\n      dup1\n      returndatacopy\n      revert(0x00, returndatasize)\n    tag_104:\n      pop\n      pop\n      pop\n      pop\n      mload(0x40)\n      returndatasize\n      not(0x1f)\n      0x1f\n      dup3\n      add\n      and\n      dup3\n      add\n      dup1\n      0x40\n      mstore\n      pop\n      dup2\n      add\n      swap1\n      tag_105\n      swap2\n      swap1\n      tag_106\n      jump\t// in\n    tag_105:\n        /* \"contracts/buy_back.sol\":8672:8742  uint256 currentBalance = IERC20(paymentToken).balanceOf(address(this)) */\n      swap1\n      pop\n        /* \"contracts/buy_back.sol\":8771:8785  currentBalance */\n      dup1\n        /* \"contracts/buy_back.sol\":8761:8767  amount */\n      dup3\n        /* \"contracts/buy_back.sol\":8761:8785  amount <= currentBalance */\n      gt\n      iszero\n        /* \"contracts/buy_back.sol\":8753:8819  require(amount <= currentBalance, \"Not enough tokens in contract\") */\n      tag_107\n      jumpi\n      mload(0x40)\n      0x08c379a000000000000000000000000000000000000000000000000000000000\n      dup2\n      mstore\n      0x04\n      add\n      tag_108\n      swap1\n      tag_109\n      jump\t// in\n    tag_108:\n      mload(0x40)\n      dup1\n      swap2\n      sub\n      swap1\n      revert\n    tag_107:\n        /* \"contracts/buy_back.sol\":8830:8842  bool success */\n      0x00\n        /* \"contracts/buy_back.sol\":8852:8864  paymentToken */\n      0x03\n      0x00\n      swap1\n      sload\n      swap1\n      0x0100\n      exp\n      swap1\n      div\n      0xffffffffffffffffffffffffffffffffffffffff\n      and\n        /* \"contracts/buy_back.sol\":8845:8874  IERC20(paymentToken).transfer */\n      0xffffffffffffffffffffffffffffffffffffffff\n      and\n      0xa9059cbb\n        /* \"contracts/buy_back.sol\":8875:8880  owner */\n      0x02\n      0x00\n      swap1\n      sload\n      swap1\n      0x0100\n      exp\n      swap1\n      div\n      0xffffffffffffffffffffffffffffffffffffffff\n      and\n        /* \"contracts/buy_back.sol\":8882:8888  amount */\n      dup6\n        /* \"contracts/buy_back.sol\":8845:8889  IERC20(paymentToken).transfer(owner, amount) */\n      mload(0x40)\n      dup4\n      0xffffffff\n      and\n      0xe0\n      shl\n      dup2\n      mstore\n      0x04\n      add\n      tag_110\n      swap3\n      swap2\n      swap1\n      tag_111\n      jump\t// in\n    tag_110:\n      0x20\n      mload(0x40)\n      dup1\n      dup4\n      sub\n      dup2\n      0x00\n      dup8\n      gas\n      call\n      iszero\n      dup1\n      iszero\n      tag_113\n      jumpi\n      returndatasize\n      0x00\n      dup1\n      returndatacopy\n      revert(0x00, returndatasize)\n    tag_113:\n      pop\n      pop\n      pop\n      pop\n      mload(0x40)\n      returndatasize\n      not(0x1f)\n      0x1f\n      dup3\n      add\n      and\n      dup3\n      add\n      dup1\n      0x40\n      mstore\n      pop\n      dup2\n      add\n      swap1\n      tag_114\n      swap2\n      swap1\n      tag_115\n      jump\t// in\n    tag_114:\n        /* \"contracts/buy_back.sol\":8830:8889  bool success = IERC20(paymentToken).transfer(owner, amount) */\n      swap1\n      pop\n        /* \"contracts/buy_back.sol\":8908:8915  success */\n      dup1\n        /* \"contracts/buy_back.sol\":8900:8951  require(success, \"Payment token withdrawal failed\") */\n      tag_116\n      jumpi\n      mload(0x40)\n      0x08c379a000000000000000000000000000000000000000000000000000000000\n      dup2\n      mstore\n      0x04\n      add\n      tag_117\n      swap1\n      tag_118\n      jump\t// in\n    tag_117:\n      mload(0x40)\n      dup1\n      swap2\n      sub\n      swap1\n      revert\n    tag_116:\n        /* \"contracts/buy_back.sol\":8607:8959  {... */\n      pop\n      pop\n        /* \"contracts/buy_back.sol\":8542:8959  function withdrawPaymentToken(uint256 amount) external onlyOwner {... */\n      pop\n      jump\t// out\n        /* \"contracts/buy_back.sol\":2953:2980  address public paymentToken */\n    tag_32:\n      0x03\n      0x00\n      swap1\n      sload\n      swap1\n      0x0100\n      exp\n      swap1\n      div\n      0xffffffffffffffffffffffffffffffffffffffff\n      and\n      dup2\n      jump\t// out\n        /* \"contracts/buy_back.sol\":4600:4667  function unpause() external onlyOwner {... */\n    tag_36:\n        /* \"contracts/buy_back.sol\":4293:4298  owner */\n      0x02\n      0x00\n      swap1\n      sload\n      swap1\n      0x0100\n      exp\n      swap1\n      div\n      0xffffffffffffffffffffffffffffffffffffffff\n      and\n        /* \"contracts/buy_back.sol\":4279:4298  msg.sender == owner */\n      0xffffffffffffffffffffffffffffffffffffffff\n      and\n        /* \"contracts/buy_back.sol\":4279:4289  msg.sender */\n      caller\n        /* \"contracts/buy_back.sol\":4279:4298  msg.sender == owner */\n      0xffffffffffffffffffffffffffffffffffffffff\n      and\n      eq\n        /* \"contracts/buy_back.sol\":4271:4317  require(msg.sender == owner, \"Not authorized\") */\n      tag_120\n      jumpi\n      mload(0x40)\n      0x08c379a000000000000000000000000000000000000000000000000000000000\n      dup2\n      mstore\n      0x04\n      add\n      tag_121\n      swap1\n      tag_97\n      jump\t// in\n    tag_121:\n      mload(0x40)\n      dup1\n      swap2\n      sub\n      swap1\n      revert\n    tag_120:\n        /* \"contracts/buy_back.sol\":4649:4659  _unpause() */\n      tag_123\n        /* \"contracts/buy_back.sol\":4649:4657  _unpause */\n      tag_124\n        /* \"contracts/buy_back.sol\":4649:4659  _unpause() */\n      jump\t// in\n    tag_123:\n        /* \"contracts/buy_back.sol\":4600:4667  function unpause() external onlyOwner {... */\n      jump\t// out\n        /* \"contracts/buy_back.sol\":872:958  function paused() public view virtual returns (bool) {... */\n    tag_38:\n        /* \"contracts/buy_back.sol\":919:923  bool */\n      0x00\n        /* \"contracts/buy_back.sol\":943:950  _paused */\n      dup1\n      0x00\n      swap1\n      sload\n      swap1\n      0x0100\n      exp\n      swap1\n      div\n      0xff\n      and\n        /* \"contracts/buy_back.sol\":936:950  return _paused */\n      swap1\n      pop\n        /* \"contracts/buy_back.sol\":872:958  function paused() public view virtual returns (bool) {... */\n      swap1\n      jump\t// out\n        /* \"contracts/buy_back.sol\":3273:3299  uint256 public premiumRate */\n    tag_42:\n      sload(0x06)\n      dup2\n      jump\t// out\n        /* \"contracts/buy_back.sol\":5082:5192  function setTargetPrice(uint256 _targetPrice) external onlyOwner {... */\n    tag_47:\n        /* \"contracts/buy_back.sol\":4293:4298  owner */\n      0x02\n      0x00\n      swap1\n      sload\n      swap1\n      0x0100\n      exp\n      swap1\n      div\n      0xffffffffffffffffffffffffffffffffffffffff\n      and\n        /* \"contracts/buy_back.sol\":4279:4298  msg.sender == owner */\n      0xffffffffffffffffffffffffffffffffffffffff\n      and\n        /* \"contracts/buy_back.sol\":4279:4289  msg.sender */\n      caller\n        /* \"contracts/buy_back.sol\":4279:4298  msg.sender == owner */\n      0xffffffffffffffffffffffffffffffffffffffff\n      and\n      eq\n        /* \"contracts/buy_back.sol\":4271:4317  require(msg.sender == owner, \"Not authorized\") */\n      tag_127\n      jumpi\n      mload(0x40)\n      0x08c379a000000000000000000000000000000000000000000000000000000000\n      dup2\n      mstore\n      0x04\n      add\n      tag_128\n      swap1\n      tag_97\n      jump\t// in\n    tag_128:\n      mload(0x40)\n      dup1\n      swap2\n      sub\n      swap1\n      revert\n    tag_127:\n        /* \"contracts/buy_back.sol\":5172:5184  _targetPrice */\n      dup1\n        /* \"contracts/buy_back.sol\":5158:5169  targetPrice */\n      0x07\n        /* \"contracts/buy_back.sol\":5158:5184  targetPrice = _targetPrice */\n      dup2\n      swap1\n      sstore\n      pop\n        /* \"contracts/buy_back.sol\":5082:5192  function setTargetPrice(uint256 _targetPrice) external onlyOwner {... */\n      pop\n      jump\t// out\n        /* \"contracts/buy_back.sol\":3407:3429  uint256 public taxRate */\n    tag_49:\n      sload(0x08)\n      dup2\n      jump\t// out\n        /* \"contracts/buy_back.sol\":5852:7372  function buyback(uint256 roboMoneyAmount) external whenNotPaused nonReentrant {... */\n    tag_53:\n        /* \"contracts/buy_back.sol\":1011:1019  paused() */\n      tag_131\n        /* \"contracts/buy_back.sol\":1011:1017  paused */\n      tag_38\n        /* \"contracts/buy_back.sol\":1011:1019  paused() */\n      jump\t// in\n    tag_131:\n        /* \"contracts/buy_back.sol\":1010:1019  !paused() */\n      iszero\n        /* \"contracts/buy_back.sol\":1002:1040  require(!paused(), \"Pausable: paused\") */\n      tag_132\n      jumpi\n      mload(0x40)\n      0x08c379a000000000000000000000000000000000000000000000000000000000\n      dup2\n      mstore\n      0x04\n      add\n      tag_133\n      swap1\n      tag_134\n      jump\t// in\n    tag_133:\n      mload(0x40)\n      dup1\n      swap2\n      sub\n      swap1\n      revert\n    tag_132:\n        /* \"@openzeppelin/contracts/security/ReentrancyGuard.sol\":2261:2282  _nonReentrantBefore() */\n      tag_136\n        /* \"@openzeppelin/contracts/security/ReentrancyGuard.sol\":2261:2280  _nonReentrantBefore */\n      tag_137\n        /* \"@openzeppelin/contracts/security/ReentrancyGuard.sol\":2261:2282  _nonReentrantBefore() */\n      jump\t// in\n    tag_136:\n        /* \"contracts/buy_back.sol\":5967:5968  0 */\n      0x00\n        /* \"contracts/buy_back.sol\":5949:5964  roboMoneyAmount */\n      dup2\n        /* \"contracts/buy_back.sol\":5949:5968  roboMoneyAmount > 0 */\n      gt\n        /* \"contracts/buy_back.sol\":5941:5995  require(roboMoneyAmount > 0, \"Must deposit RoboMoney\") */\n      tag_139\n      jumpi\n      mload(0x40)\n      0x08c379a000000000000000000000000000000000000000000000000000000000\n      dup2\n      mstore\n      0x04\n      add\n      tag_140\n      swap1\n      tag_141\n      jump\t// in\n    tag_140:\n      mload(0x40)\n      dup1\n      swap2\n      sub\n      swap1\n      revert\n    tag_139:\n        /* \"contracts/buy_back.sol\":6050:6065  uint256 allowed */\n      0x00\n        /* \"contracts/buy_back.sol\":6079:6088  roboMoney */\n      0x04\n      0x00\n      swap1\n      sload\n      swap1\n      0x0100\n      exp\n      swap1\n      div\n      0xffffffffffffffffffffffffffffffffffffffff\n      and\n        /* \"contracts/buy_back.sol\":6068:6099  IRoboMoney(roboMoney).allowance */\n      0xffffffffffffffffffffffffffffffffffffffff\n      and\n      0xdd62ed3e\n        /* \"contracts/buy_back.sol\":6100:6110  msg.sender */\n      caller\n        /* \"contracts/buy_back.sol\":6120:6124  this */\n      address\n        /* \"contracts/buy_back.sol\":6068:6126  IRoboMoney(roboMoney).allowance(msg.sender, address(this)) */\n      mload(0x40)\n      dup4\n      0xffffffff\n      and\n      0xe0\n      shl\n      dup2\n      mstore\n      0x04\n      add\n      tag_142\n      swap3\n      swap2\n      swap1\n      tag_143\n      jump\t// in\n    tag_142:\n      0x20\n      mload(0x40)\n      dup1\n      dup4\n      sub\n      dup2\n      dup7\n      gas\n      staticcall\n      iszero\n      dup1\n      iszero\n      tag_145\n      jumpi\n      returndatasize\n      0x00\n      dup1\n      returndatacopy\n      revert(0x00, returndatasize)\n    tag_145:\n      pop\n      pop\n      pop\n      pop\n      mload(0x40)\n      returndatasize\n      not(0x1f)\n      0x1f\n      dup3\n      add\n      and\n      dup3\n      add\n      dup1\n      0x40\n      mstore\n      pop\n      dup2\n      add\n      swap1\n      tag_146\n      swap2\n      swap1\n      tag_106\n      jump\t// in\n    tag_146:\n        /* \"contracts/buy_back.sol\":6050:6126  uint256 allowed = IRoboMoney(roboMoney).allowance(msg.sender, address(this)) */\n      swap1\n      pop\n        /* \"contracts/buy_back.sol\":6156:6171  roboMoneyAmount */\n      dup2\n        /* \"contracts/buy_back.sol\":6145:6152  allowed */\n      dup2\n        /* \"contracts/buy_back.sol\":6145:6171  allowed >= roboMoneyAmount */\n      lt\n      iszero\n        /* \"contracts/buy_back.sol\":6137:6208  require(allowed >= roboMoneyAmount, \"Insufficient RoboMoney allowance\") */\n      tag_147\n      jumpi\n      mload(0x40)\n      0x08c379a000000000000000000000000000000000000000000000000000000000\n      dup2\n      mstore\n      0x04\n      add\n      tag_148\n      swap1\n      tag_149\n      jump\t// in\n    tag_148:\n      mload(0x40)\n      dup1\n      swap2\n      sub\n      swap1\n      revert\n    tag_147:\n        /* \"contracts/buy_back.sol\":6274:6352  IERC20(roboMoney).safeTransferFrom(msg.sender, address(this), roboMoneyAmount) */\n      tag_150\n        /* \"contracts/buy_back.sol\":6309:6319  msg.sender */\n      caller\n        /* \"contracts/buy_back.sol\":6329:6333  this */\n      address\n        /* \"contracts/buy_back.sol\":6336:6351  roboMoneyAmount */\n      dup5\n        /* \"contracts/buy_back.sol\":6281:6290  roboMoney */\n      0x04\n      0x00\n      swap1\n      sload\n      swap1\n      0x0100\n      exp\n      swap1\n      div\n      0xffffffffffffffffffffffffffffffffffffffff\n      and\n        /* \"contracts/buy_back.sol\":6274:6308  IERC20(roboMoney).safeTransferFrom */\n      0xffffffffffffffffffffffffffffffffffffffff\n      and\n      tag_151\n      swap1\n        /* \"contracts/buy_back.sol\":6274:6352  IERC20(roboMoney).safeTransferFrom(msg.sender, address(this), roboMoneyAmount) */\n      swap4\n      swap3\n      swap2\n      swap1\n      0xffffffff\n      and\n      jump\t// in\n    tag_150:\n        /* \"contracts/buy_back.sol\":6503:6523  uint256 premiumPrice */\n      0x00\n        /* \"contracts/buy_back.sol\":6564:6567  100 */\n      0x64\n        /* \"contracts/buy_back.sol\":6548:6559  premiumRate */\n      sload(0x06)\n        /* \"contracts/buy_back.sol\":6542:6545  100 */\n      0x64\n        /* \"contracts/buy_back.sol\":6542:6559  100 + premiumRate */\n      tag_152\n      swap2\n      swap1\n      tag_153\n      jump\t// in\n    tag_152:\n        /* \"contracts/buy_back.sol\":6527:6538  targetPrice */\n      sload(0x07)\n        /* \"contracts/buy_back.sol\":6527:6560  targetPrice * (100 + premiumRate) */\n      tag_154\n      swap2\n      swap1\n      tag_155\n      jump\t// in\n    tag_154:\n        /* \"contracts/buy_back.sol\":6526:6567  (targetPrice * (100 + premiumRate)) / 100 */\n      tag_156\n      swap2\n      swap1\n      tag_157\n      jump\t// in\n    tag_156:\n        /* \"contracts/buy_back.sol\":6503:6567  uint256 premiumPrice = (targetPrice * (100 + premiumRate)) / 100 */\n      swap1\n      pop\n        /* \"contracts/buy_back.sol\":6578:6597  uint256 tokenAmount */\n      0x00\n        /* \"contracts/buy_back.sol\":6635:6639  1e18 */\n      0x0de0b6b3a7640000\n        /* \"contracts/buy_back.sol\":6619:6631  premiumPrice */\n      dup3\n        /* \"contracts/buy_back.sol\":6601:6616  roboMoneyAmount */\n      dup6\n        /* \"contracts/buy_back.sol\":6601:6631  roboMoneyAmount * premiumPrice */\n      tag_158\n      swap2\n      swap1\n      tag_155\n      jump\t// in\n    tag_158:\n        /* \"contracts/buy_back.sol\":6600:6639  (roboMoneyAmount * premiumPrice) / 1e18 */\n      tag_159\n      swap2\n      swap1\n      tag_157\n      jump\t// in\n    tag_159:\n        /* \"contracts/buy_back.sol\":6578:6639  uint256 tokenAmount = (roboMoneyAmount * premiumPrice) / 1e18 */\n      swap1\n      pop\n        /* \"contracts/buy_back.sol\":6708:6730  uint256 currentBalance */\n      0x00\n        /* \"contracts/buy_back.sol\":6740:6752  paymentToken */\n      0x03\n      0x00\n      swap1\n      sload\n      swap1\n      0x0100\n      exp\n      swap1\n      div\n      0xffffffffffffffffffffffffffffffffffffffff\n      and\n        /* \"contracts/buy_back.sol\":6733:6763  IERC20(paymentToken).balanceOf */\n      0xffffffffffffffffffffffffffffffffffffffff\n      and\n      0x70a08231\n        /* \"contracts/buy_back.sol\":6772:6776  this */\n      address\n        /* \"contracts/buy_back.sol\":6733:6778  IERC20(paymentToken).balanceOf(address(this)) */\n      mload(0x40)\n      dup3\n      0xffffffff\n      and\n      0xe0\n      shl\n      dup2\n      mstore\n      0x04\n      add\n      tag_160\n      swap2\n      swap1\n      tag_34\n      jump\t// in\n    tag_160:\n      0x20\n      mload(0x40)\n      dup1\n      dup4\n      sub\n      dup2\n      dup7\n      gas\n      staticcall\n      iszero\n      dup1\n      iszero\n      tag_162\n      jumpi\n      returndatasize\n      0x00\n      dup1\n      returndatacopy\n      revert(0x00, returndatasize)\n    tag_162:\n      pop\n      pop\n      pop\n      pop\n      mload(0x40)\n      returndatasize\n      not(0x1f)\n      0x1f\n      dup3\n      add\n      and\n      dup3\n      add\n      dup1\n      0x40\n      mstore\n      pop\n      dup2\n      add\n      swap1\n      tag_163\n      swap2\n      swap1\n      tag_106\n      jump\t// in\n    tag_163:\n        /* \"contracts/buy_back.sol\":6708:6778  uint256 currentBalance = IERC20(paymentToken).balanceOf(address(this)) */\n      swap1\n      pop\n        /* \"contracts/buy_back.sol\":6815:6826  tokenAmount */\n      dup2\n        /* \"contracts/buy_back.sol\":6797:6811  currentBalance */\n      dup2\n        /* \"contracts/buy_back.sol\":6797:6826  currentBalance >= tokenAmount */\n      lt\n      iszero\n        /* \"contracts/buy_back.sol\":6789:6866  require(currentBalance >= tokenAmount, \"Not enough paymentToken in contract\") */\n      tag_164\n      jumpi\n      mload(0x40)\n      0x08c379a000000000000000000000000000000000000000000000000000000000\n      dup2\n      mstore\n      0x04\n      add\n      tag_165\n      swap1\n      tag_166\n      jump\t// in\n    tag_165:\n      mload(0x40)\n      dup1\n      swap2\n      sub\n      swap1\n      revert\n    tag_164:\n        /* \"contracts/buy_back.sol\":6921:6938  uint256 taxAmount */\n      0x00\n        /* \"contracts/buy_back.sol\":6967:6972  10000 */\n      0x2710\n        /* \"contracts/buy_back.sol\":6956:6963  taxRate */\n      sload(0x08)\n        /* \"contracts/buy_back.sol\":6942:6953  tokenAmount */\n      dup5\n        /* \"contracts/buy_back.sol\":6942:6963  tokenAmount * taxRate */\n      tag_167\n      swap2\n      swap1\n      tag_155\n      jump\t// in\n    tag_167:\n        /* \"contracts/buy_back.sol\":6941:6972  (tokenAmount * taxRate) / 10000 */\n      tag_168\n      swap2\n      swap1\n      tag_157\n      jump\t// in\n    tag_168:\n        /* \"contracts/buy_back.sol\":6921:6972  uint256 taxAmount = (tokenAmount * taxRate) / 10000 */\n      swap1\n      pop\n        /* \"contracts/buy_back.sol\":6983:7001  uint256 userAmount */\n      0x00\n        /* \"contracts/buy_back.sol\":7018:7027  taxAmount */\n      dup2\n        /* \"contracts/buy_back.sol\":7004:7015  tokenAmount */\n      dup5\n        /* \"contracts/buy_back.sol\":7004:7027  tokenAmount - taxAmount */\n      tag_169\n      swap2\n      swap1\n      tag_170\n      jump\t// in\n    tag_169:\n        /* \"contracts/buy_back.sol\":6983:7027  uint256 userAmount = tokenAmount - taxAmount */\n      swap1\n      pop\n        /* \"contracts/buy_back.sol\":7040:7096  IERC20(paymentToken).safeTransfer(gasReserve, taxAmount) */\n      tag_171\n        /* \"contracts/buy_back.sol\":7074:7084  gasReserve */\n      0x05\n      0x00\n      swap1\n      sload\n      swap1\n      0x0100\n      exp\n      swap1\n      div\n      0xffffffffffffffffffffffffffffffffffffffff\n      and\n        /* \"contracts/buy_back.sol\":7086:7095  taxAmount */\n      dup4\n        /* \"contracts/buy_back.sol\":7047:7059  paymentToken */\n      0x03\n      0x00\n      swap1\n      sload\n      swap1\n      0x0100\n      exp\n      swap1\n      div\n      0xffffffffffffffffffffffffffffffffffffffff\n      and\n        /* \"contracts/buy_back.sol\":7040:7073  IERC20(paymentToken).safeTransfer */\n      0xffffffffffffffffffffffffffffffffffffffff\n      and\n      tag_172\n      swap1\n        /* \"contracts/buy_back.sol\":7040:7096  IERC20(paymentToken).safeTransfer(gasReserve, taxAmount) */\n      swap3\n      swap2\n      swap1\n      0xffffffff\n      and\n      jump\t// in\n    tag_171:\n        /* \"contracts/buy_back.sol\":7107:7164  IERC20(paymentToken).safeTransfer(msg.sender, userAmount) */\n      tag_173\n        /* \"contracts/buy_back.sol\":7141:7151  msg.sender */\n      caller\n        /* \"contracts/buy_back.sol\":7153:7163  userAmount */\n      dup3\n        /* \"contracts/buy_back.sol\":7114:7126  paymentToken */\n      0x03\n      0x00\n      swap1\n      sload\n      swap1\n      0x0100\n      exp\n      swap1\n      div\n      0xffffffffffffffffffffffffffffffffffffffff\n      and\n        /* \"contracts/buy_back.sol\":7107:7140  IERC20(paymentToken).safeTransfer */\n      0xffffffffffffffffffffffffffffffffffffffff\n      and\n      tag_172\n      swap1\n        /* \"contracts/buy_back.sol\":7107:7164  IERC20(paymentToken).safeTransfer(msg.sender, userAmount) */\n      swap3\n      swap2\n      swap1\n      0xffffffff\n      and\n      jump\t// in\n    tag_173:\n        /* \"contracts/buy_back.sol\":7242:7251  roboMoney */\n      0x04\n      0x00\n      swap1\n      sload\n      swap1\n      0x0100\n      exp\n      swap1\n      div\n      0xffffffffffffffffffffffffffffffffffffffff\n      and\n        /* \"contracts/buy_back.sol\":7231:7257  IRoboMoney(roboMoney).burn */\n      0xffffffffffffffffffffffffffffffffffffffff\n      and\n      0x9dc29fac\n        /* \"contracts/buy_back.sol\":7266:7270  this */\n      address\n        /* \"contracts/buy_back.sol\":7273:7288  roboMoneyAmount */\n      dup10\n        /* \"contracts/buy_back.sol\":7231:7289  IRoboMoney(roboMoney).burn(address(this), roboMoneyAmount) */\n      mload(0x40)\n      dup4\n      0xffffffff\n      and\n      0xe0\n      shl\n      dup2\n      mstore\n      0x04\n      add\n      tag_174\n      swap3\n      swap2\n      swap1\n      tag_111\n      jump\t// in\n    tag_174:\n      0x00\n      mload(0x40)\n      dup1\n      dup4\n      sub\n      dup2\n      0x00\n      dup8\n      dup1\n      extcodesize\n      iszero\n      dup1\n      iszero\n      tag_175\n      jumpi\n      0x00\n      dup1\n      revert\n    tag_175:\n      pop\n      gas\n      call\n      iszero\n      dup1\n      iszero\n      tag_177\n      jumpi\n      returndatasize\n      0x00\n      dup1\n      returndatacopy\n      revert(0x00, returndatasize)\n    tag_177:\n      pop\n      pop\n      pop\n      pop\n        /* \"contracts/buy_back.sol\":7323:7333  msg.sender */\n      caller\n        /* \"contracts/buy_back.sol\":7307:7364  BuyBackExecuted(msg.sender, roboMoneyAmount, tokenAmount) */\n      0xffffffffffffffffffffffffffffffffffffffff\n      and\n      0xcb7f55d0b91628d4520b789339dae4803ab07182ea89d138acbd965dac51dc65\n        /* \"contracts/buy_back.sol\":7335:7350  roboMoneyAmount */\n      dup9\n        /* \"contracts/buy_back.sol\":7352:7363  tokenAmount */\n      dup7\n        /* \"contracts/buy_back.sol\":7307:7364  BuyBackExecuted(msg.sender, roboMoneyAmount, tokenAmount) */\n      mload(0x40)\n      tag_178\n      swap3\n      swap2\n      swap1\n      tag_179\n      jump\t// in\n    tag_178:\n      mload(0x40)\n      dup1\n      swap2\n      sub\n      swap1\n      log2\n        /* \"contracts/buy_back.sol\":5930:7372  {... */\n      pop\n      pop\n      pop\n      pop\n      pop\n      pop\n        /* \"@openzeppelin/contracts/security/ReentrancyGuard.sol\":2303:2323  _nonReentrantAfter() */\n      tag_180\n        /* \"@openzeppelin/contracts/security/ReentrancyGuard.sol\":2303:2321  _nonReentrantAfter */\n      tag_181\n        /* \"@openzeppelin/contracts/security/ReentrancyGuard.sol\":2303:2323  _nonReentrantAfter() */\n      jump\t// in\n    tag_180:\n        /* \"contracts/buy_back.sol\":5852:7372  function buyback(uint256 roboMoneyAmount) external whenNotPaused nonReentrant {... */\n      pop\n      jump\t// out\n        /* \"contracts/buy_back.sol\":3031:3055  address public roboMoney */\n    tag_55:\n      0x04\n      0x00\n      swap1\n      sload\n      swap1\n      0x0100\n      exp\n      swap1\n      div\n      0xffffffffffffffffffffffffffffffffffffffff\n      and\n      dup2\n      jump\t// out\n        /* \"contracts/buy_back.sol\":4759:4984  function setPremiumRate(uint256 _premiumRate) external onlyOwner {... */\n    tag_59:\n        /* \"contracts/buy_back.sol\":4293:4298  owner */\n      0x02\n      0x00\n      swap1\n      sload\n      swap1\n      0x0100\n      exp\n      swap1\n      div\n      0xffffffffffffffffffffffffffffffffffffffff\n      and\n        /* \"contracts/buy_back.sol\":4279:4298  msg.sender == owner */\n      0xffffffffffffffffffffffffffffffffffffffff\n      and\n        /* \"contracts/buy_back.sol\":4279:4289  msg.sender */\n      caller\n        /* \"contracts/buy_back.sol\":4279:4298  msg.sender == owner */\n      0xffffffffffffffffffffffffffffffffffffffff\n      and\n      eq\n        /* \"contracts/buy_back.sol\":4271:4317  require(msg.sender == owner, \"Not authorized\") */\n      tag_183\n      jumpi\n      mload(0x40)\n      0x08c379a000000000000000000000000000000000000000000000000000000000\n      dup2\n      mstore\n      0x04\n      add\n      tag_184\n      swap1\n      tag_97\n      jump\t// in\n    tag_184:\n      mload(0x40)\n      dup1\n      swap2\n      sub\n      swap1\n      revert\n    tag_183:\n        /* \"contracts/buy_back.sol\":4911:4914  100 */\n      0x64\n        /* \"contracts/buy_back.sol\":4895:4907  _premiumRate */\n      dup2\n        /* \"contracts/buy_back.sol\":4895:4914  _premiumRate <= 100 */\n      gt\n      iszero\n        /* \"contracts/buy_back.sol\":4887:4939  require(_premiumRate <= 100, \"Invalid premium rate\") */\n      tag_186\n      jumpi\n      mload(0x40)\n      0x08c379a000000000000000000000000000000000000000000000000000000000\n      dup2\n      mstore\n      0x04\n      add\n      tag_187\n      swap1\n      tag_188\n      jump\t// in\n    tag_187:\n      mload(0x40)\n      dup1\n      swap2\n      sub\n      swap1\n      revert\n    tag_186:\n        /* \"contracts/buy_back.sol\":4964:4976  _premiumRate */\n      dup1\n        /* \"contracts/buy_back.sol\":4950:4961  premiumRate */\n      0x06\n        /* \"contracts/buy_back.sol\":4950:4976  premiumRate = _premiumRate */\n      dup2\n      swap1\n      sstore\n      pop\n        /* \"contracts/buy_back.sol\":4759:4984  function setPremiumRate(uint256 _premiumRate) external onlyOwner {... */\n      pop\n      jump\t// out\n        /* \"contracts/buy_back.sol\":9967:10333  function canExecuteBuyback(uint256 roboMoneyAmount) external view returns (bool) {... */\n    tag_62:\n        /* \"contracts/buy_back.sol\":10042:10046  bool */\n      0x00\n        /* \"contracts/buy_back.sol\":10059:10079  uint256 premiumPrice */\n      dup1\n        /* \"contracts/buy_back.sol\":10120:10123  100 */\n      0x64\n        /* \"contracts/buy_back.sol\":10104:10115  premiumRate */\n      sload(0x06)\n        /* \"contracts/buy_back.sol\":10098:10101  100 */\n      0x64\n        /* \"contracts/buy_back.sol\":10098:10115  100 + premiumRate */\n      tag_190\n      swap2\n      swap1\n      tag_153\n      jump\t// in\n    tag_190:\n        /* \"contracts/buy_back.sol\":10083:10094  targetPrice */\n      sload(0x07)\n        /* \"contracts/buy_back.sol\":10083:10116  targetPrice * (100 + premiumRate) */\n      tag_191\n      swap2\n      swap1\n      tag_155\n      jump\t// in\n    tag_191:\n        /* \"contracts/buy_back.sol\":10082:10123  (targetPrice * (100 + premiumRate)) / 100 */\n      tag_192\n      swap2\n      swap1\n      tag_157\n      jump\t// in\n    tag_192:\n        /* \"contracts/buy_back.sol\":10059:10123  uint256 premiumPrice = (targetPrice * (100 + premiumRate)) / 100 */\n      swap1\n      pop\n        /* \"contracts/buy_back.sol\":10134:10153  uint256 tokenAmount */\n      0x00\n        /* \"contracts/buy_back.sol\":10191:10195  1e18 */\n      0x0de0b6b3a7640000\n        /* \"contracts/buy_back.sol\":10175:10187  premiumPrice */\n      dup3\n        /* \"contracts/buy_back.sol\":10157:10172  roboMoneyAmount */\n      dup6\n        /* \"contracts/buy_back.sol\":10157:10187  roboMoneyAmount * premiumPrice */\n      tag_193\n      swap2\n      swap1\n      tag_155\n      jump\t// in\n    tag_193:\n        /* \"contracts/buy_back.sol\":10156:10195  (roboMoneyAmount * premiumPrice) / 1e18 */\n      tag_194\n      swap2\n      swap1\n      tag_157\n      jump\t// in\n    tag_194:\n        /* \"contracts/buy_back.sol\":10134:10195  uint256 tokenAmount = (roboMoneyAmount * premiumPrice) / 1e18 */\n      swap1\n      pop\n        /* \"contracts/buy_back.sol\":10206:10228  uint256 currentBalance */\n      0x00\n        /* \"contracts/buy_back.sol\":10238:10250  paymentToken */\n      0x03\n      0x00\n      swap1\n      sload\n      swap1\n      0x0100\n      exp\n      swap1\n      div\n      0xffffffffffffffffffffffffffffffffffffffff\n      and\n        /* \"contracts/buy_back.sol\":10231:10261  IERC20(paymentToken).balanceOf */\n      0xffffffffffffffffffffffffffffffffffffffff\n      and\n      0x70a08231\n        /* \"contracts/buy_back.sol\":10270:10274  this */\n      address\n        /* \"contracts/buy_back.sol\":10231:10276  IERC20(paymentToken).balanceOf(address(this)) */\n      mload(0x40)\n      dup3\n      0xffffffff\n      and\n      0xe0\n      shl\n      dup2\n      mstore\n      0x04\n      add\n      tag_195\n      swap2\n      swap1\n      tag_34\n      jump\t// in\n    tag_195:\n      0x20\n      mload(0x40)\n      dup1\n      dup4\n      sub\n      dup2\n      dup7\n      gas\n      staticcall\n      iszero\n      dup1\n      iszero\n      tag_197\n      jumpi\n      returndatasize\n      0x00\n      dup1\n      returndatacopy\n      revert(0x00, returndatasize)\n    tag_197:\n      pop\n      pop\n      pop\n      pop\n      mload(0x40)\n      returndatasize\n      not(0x1f)\n      0x1f\n      dup3\n      add\n      and\n      dup3\n      add\n      dup1\n      0x40\n      mstore\n      pop\n      dup2\n      add\n      swap1\n      tag_198\n      swap2\n      swap1\n      tag_106\n      jump\t// in\n    tag_198:\n        /* \"contracts/buy_back.sol\":10206:10276  uint256 currentBalance = IERC20(paymentToken).balanceOf(address(this)) */\n      swap1\n      pop\n        /* \"contracts/buy_back.sol\":10313:10324  tokenAmount */\n      dup2\n        /* \"contracts/buy_back.sol\":10295:10309  currentBalance */\n      dup2\n        /* \"contracts/buy_back.sol\":10295:10324  currentBalance >= tokenAmount */\n      lt\n      iszero\n        /* \"contracts/buy_back.sol\":10287:10325  return (currentBalance >= tokenAmount) */\n      swap4\n      pop\n      pop\n      pop\n      pop\n        /* \"contracts/buy_back.sol\":9967:10333  function canExecuteBuyback(uint256 roboMoneyAmount) external view returns (bool) {... */\n      swap2\n      swap1\n      pop\n      jump\t// out\n        /* \"contracts/buy_back.sol\":4435:4498  function pause() external onlyOwner {... */\n    tag_65:\n        /* \"contracts/buy_back.sol\":4293:4298  owner */\n      0x02\n      0x00\n      swap1\n      sload\n      swap1\n      0x0100\n      exp\n      swap1\n      div\n      0xffffffffffffffffffffffffffffffffffffffff\n      and\n        /* \"contracts/buy_back.sol\":4279:4298  msg.sender == owner */\n      0xffffffffffffffffffffffffffffffffffffffff\n      and\n        /* \"contracts/buy_back.sol\":4279:4289  msg.sender */\n      caller\n        /* \"contracts/buy_back.sol\":4279:4298  msg.sender == owner */\n      0xffffffffffffffffffffffffffffffffffffffff\n      and\n      eq\n        /* \"contracts/buy_back.sol\":4271:4317  require(msg.sender == owner, \"Not authorized\") */\n      tag_200\n      jumpi\n      mload(0x40)\n      0x08c379a000000000000000000000000000000000000000000000000000000000\n      dup2\n      mstore\n      0x04\n      add\n      tag_201\n      swap1\n      tag_97\n      jump\t// in\n    tag_201:\n      mload(0x40)\n      dup1\n      swap2\n      sub\n      swap1\n      revert\n    tag_200:\n        /* \"contracts/buy_back.sol\":4482:4490  _pause() */\n      tag_203\n        /* \"contracts/buy_back.sol\":4482:4488  _pause */\n      tag_204\n        /* \"contracts/buy_back.sol\":4482:4490  _pause() */\n      jump\t// in\n    tag_203:\n        /* \"contracts/buy_back.sol\":4435:4498  function pause() external onlyOwner {... */\n      jump\t// out\n        /* \"contracts/buy_back.sol\":2926:2946  address public owner */\n    tag_67:\n      0x02\n      0x00\n      swap1\n      sload\n      swap1\n      0x0100\n      exp\n      swap1\n      div\n      0xffffffffffffffffffffffffffffffffffffffff\n      and\n      dup2\n      jump\t// out\n        /* \"contracts/buy_back.sol\":7566:7858  function depositPaymentToken(uint256 amount) external onlyOwner whenNotPaused {... */\n    tag_71:\n        /* \"contracts/buy_back.sol\":4293:4298  owner */\n      0x02\n      0x00\n      swap1\n      sload\n      swap1\n      0x0100\n      exp\n      swap1\n      div\n      0xffffffffffffffffffffffffffffffffffffffff\n      and\n        /* \"contracts/buy_back.sol\":4279:4298  msg.sender == owner */\n      0xffffffffffffffffffffffffffffffffffffffff\n      and\n        /* \"contracts/buy_back.sol\":4279:4289  msg.sender */\n      caller\n        /* \"contracts/buy_back.sol\":4279:4298  msg.sender == owner */\n      0xffffffffffffffffffffffffffffffffffffffff\n      and\n      eq\n        /* \"contracts/buy_back.sol\":4271:4317  require(msg.sender == owner, \"Not authorized\") */\n      tag_206\n      jumpi\n      mload(0x40)\n      0x08c379a000000000000000000000000000000000000000000000000000000000\n      dup2\n      mstore\n      0x04\n      add\n      tag_207\n      swap1\n      tag_97\n      jump\t// in\n    tag_207:\n      mload(0x40)\n      dup1\n      swap2\n      sub\n      swap1\n      revert\n    tag_206:\n        /* \"contracts/buy_back.sol\":1011:1019  paused() */\n      tag_209\n        /* \"contracts/buy_back.sol\":1011:1017  paused */\n      tag_38\n        /* \"contracts/buy_back.sol\":1011:1019  paused() */\n      jump\t// in\n    tag_209:\n        /* \"contracts/buy_back.sol\":1010:1019  !paused() */\n      iszero\n        /* \"contracts/buy_back.sol\":1002:1040  require(!paused(), \"Pausable: paused\") */\n      tag_210\n      jumpi\n      mload(0x40)\n      0x08c379a000000000000000000000000000000000000000000000000000000000\n      dup2\n      mstore\n      0x04\n      add\n      tag_211\n      swap1\n      tag_134\n      jump\t// in\n    tag_211:\n      mload(0x40)\n      dup1\n      swap2\n      sub\n      swap1\n      revert\n    tag_210:\n        /* \"contracts/buy_back.sol\":7672:7673  0 */\n      0x00\n        /* \"contracts/buy_back.sol\":7663:7669  amount */\n      dup2\n        /* \"contracts/buy_back.sol\":7663:7673  amount > 0 */\n      gt\n        /* \"contracts/buy_back.sol\":7655:7697  require(amount > 0, \"Deposit must be > 0\") */\n      tag_213\n      jumpi\n      mload(0x40)\n      0x08c379a000000000000000000000000000000000000000000000000000000000\n      dup2\n      mstore\n      0x04\n      add\n      tag_214\n      swap1\n      tag_215\n      jump\t// in\n    tag_214:\n      mload(0x40)\n      dup1\n      swap2\n      sub\n      swap1\n      revert\n    tag_213:\n        /* \"contracts/buy_back.sol\":7708:7720  bool success */\n      0x00\n        /* \"contracts/buy_back.sol\":7730:7742  paymentToken */\n      0x03\n      0x00\n      swap1\n      sload\n      swap1\n      0x0100\n      exp\n      swap1\n      div\n      0xffffffffffffffffffffffffffffffffffffffff\n      and\n        /* \"contracts/buy_back.sol\":7723:7756  IERC20(paymentToken).transferFrom */\n      0xffffffffffffffffffffffffffffffffffffffff\n      and\n      0x23b872dd\n        /* \"contracts/buy_back.sol\":7757:7767  msg.sender */\n      caller\n        /* \"contracts/buy_back.sol\":7777:7781  this */\n      address\n        /* \"contracts/buy_back.sol\":7784:7790  amount */\n      dup6\n        /* \"contracts/buy_back.sol\":7723:7791  IERC20(paymentToken).transferFrom(msg.sender, address(this), amount) */\n      mload(0x40)\n      dup5\n      0xffffffff\n      and\n      0xe0\n      shl\n      dup2\n      mstore\n      0x04\n      add\n      tag_216\n      swap4\n      swap3\n      swap2\n      swap1\n      tag_217\n      jump\t// in\n    tag_216:\n      0x20\n      mload(0x40)\n      dup1\n      dup4\n      sub\n      dup2\n      0x00\n      dup8\n      gas\n      call\n      iszero\n      dup1\n      iszero\n      tag_219\n      jumpi\n      returndatasize\n      0x00\n      dup1\n      returndatacopy\n      revert(0x00, returndatasize)\n    tag_219:\n      pop\n      pop\n      pop\n      pop\n      mload(0x40)\n      returndatasize\n      not(0x1f)\n      0x1f\n      dup3\n      add\n      and\n      dup3\n      add\n      dup1\n      0x40\n      mstore\n      pop\n      dup2\n      add\n      swap1\n      tag_220\n      swap2\n      swap1\n      tag_115\n      jump\t// in\n    tag_220:\n        /* \"contracts/buy_back.sol\":7708:7791  bool success = IERC20(paymentToken).transferFrom(msg.sender, address(this), amount) */\n      swap1\n      pop\n        /* \"contracts/buy_back.sol\":7810:7817  success */\n      dup1\n        /* \"contracts/buy_back.sol\":7802:7850  require(success, \"Payment token deposit failed\") */\n      tag_221\n      jumpi\n      mload(0x40)\n      0x08c379a000000000000000000000000000000000000000000000000000000000\n      dup2\n      mstore\n      0x04\n      add\n      tag_222\n      swap1\n      tag_223\n      jump\t// in\n    tag_222:\n      mload(0x40)\n      dup1\n      swap2\n      sub\n      swap1\n      revert\n    tag_221:\n        /* \"contracts/buy_back.sol\":7644:7858  {... */\n      pop\n        /* \"contracts/buy_back.sol\":7566:7858  function depositPaymentToken(uint256 amount) external onlyOwner whenNotPaused {... */\n      pop\n      jump\t// out\n        /* \"contracts/buy_back.sol\":9057:9192  function contractTokenBalance() external view returns (uint256) {... */\n    tag_73:\n        /* \"contracts/buy_back.sol\":9112:9119  uint256 */\n      0x00\n        /* \"contracts/buy_back.sol\":9146:9158  paymentToken */\n      0x03\n      0x00\n      swap1\n      sload\n      swap1\n      0x0100\n      exp\n      swap1\n      div\n      0xffffffffffffffffffffffffffffffffffffffff\n      and\n        /* \"contracts/buy_back.sol\":9139:9169  IERC20(paymentToken).balanceOf */\n      0xffffffffffffffffffffffffffffffffffffffff\n      and\n      0x70a08231\n        /* \"contracts/buy_back.sol\":9178:9182  this */\n      address\n        /* \"contracts/buy_back.sol\":9139:9184  IERC20(paymentToken).balanceOf(address(this)) */\n      mload(0x40)\n      dup3\n      0xffffffff\n      and\n      0xe0\n      shl\n      dup2\n      mstore\n      0x04\n      add\n      tag_225\n      swap2\n      swap1\n      tag_34\n      jump\t// in\n    tag_225:\n      0x20\n      mload(0x40)\n      dup1\n      dup4\n      sub\n      dup2\n      dup7\n      gas\n      staticcall\n      iszero\n      dup1\n      iszero\n      tag_227\n      jumpi\n      returndatasize\n      0x00\n      dup1\n      returndatacopy\n      revert(0x00, returndatasize)\n    tag_227:\n      pop\n      pop\n      pop\n      pop\n      mload(0x40)\n      returndatasize\n      not(0x1f)\n      0x1f\n      dup3\n      add\n      and\n      dup3\n      add\n      dup1\n      0x40\n      mstore\n      pop\n      dup2\n      add\n      swap1\n      tag_228\n      swap2\n      swap1\n      tag_106\n      jump\t// in\n    tag_228:\n        /* \"contracts/buy_back.sol\":9132:9184  return IERC20(paymentToken).balanceOf(address(this)) */\n      swap1\n      pop\n        /* \"contracts/buy_back.sol\":9057:9192  function contractTokenBalance() external view returns (uint256) {... */\n      swap1\n      jump\t// out\n        /* \"contracts/buy_back.sol\":8114:8321  function setTaxRate(uint256 _newTaxRate) external onlyOwner {... */\n    tag_77:\n        /* \"contracts/buy_back.sol\":4293:4298  owner */\n      0x02\n      0x00\n      swap1\n      sload\n      swap1\n      0x0100\n      exp\n      swap1\n      div\n      0xffffffffffffffffffffffffffffffffffffffff\n      and\n        /* \"contracts/buy_back.sol\":4279:4298  msg.sender == owner */\n      0xffffffffffffffffffffffffffffffffffffffff\n      and\n        /* \"contracts/buy_back.sol\":4279:4289  msg.sender */\n      caller\n        /* \"contracts/buy_back.sol\":4279:4298  msg.sender == owner */\n      0xffffffffffffffffffffffffffffffffffffffff\n      and\n      eq\n        /* \"contracts/buy_back.sol\":4271:4317  require(msg.sender == owner, \"Not authorized\") */\n      tag_230\n      jumpi\n      mload(0x40)\n      0x08c379a000000000000000000000000000000000000000000000000000000000\n      dup2\n      mstore\n      0x04\n      add\n      tag_231\n      swap1\n      tag_97\n      jump\t// in\n    tag_231:\n      mload(0x40)\n      dup1\n      swap2\n      sub\n      swap1\n      revert\n    tag_230:\n        /* \"contracts/buy_back.sol\":8208:8212  1000 */\n      0x03e8\n        /* \"contracts/buy_back.sol\":8193:8204  _newTaxRate */\n      dup2\n        /* \"contracts/buy_back.sol\":8193:8212  _newTaxRate <= 1000 */\n      gt\n      iszero\n        /* \"contracts/buy_back.sol\":8185:8229  require(_newTaxRate <= 1000, \"Tax too high\") */\n      tag_233\n      jumpi\n      mload(0x40)\n      0x08c379a000000000000000000000000000000000000000000000000000000000\n      dup2\n      mstore\n      0x04\n      add\n      tag_234\n      swap1\n      tag_235\n      jump\t// in\n    tag_234:\n      mload(0x40)\n      dup1\n      swap2\n      sub\n      swap1\n      revert\n    tag_233:\n        /* \"contracts/buy_back.sol\":8245:8281  TaxRateUpdated(taxRate, _newTaxRate) */\n      0xa8ee157eb2a9aa895d74df4d2d3bc0ad165ff3162f8ec46a4ecf602dd5c48fda\n        /* \"contracts/buy_back.sol\":8260:8267  taxRate */\n      sload(0x08)\n        /* \"contracts/buy_back.sol\":8269:8280  _newTaxRate */\n      dup3\n        /* \"contracts/buy_back.sol\":8245:8281  TaxRateUpdated(taxRate, _newTaxRate) */\n      mload(0x40)\n      tag_236\n      swap3\n      swap2\n      swap1\n      tag_179\n      jump\t// in\n    tag_236:\n      mload(0x40)\n      dup1\n      swap2\n      sub\n      swap1\n      log1\n        /* \"contracts/buy_back.sol\":8302:8313  _newTaxRate */\n      dup1\n        /* \"contracts/buy_back.sol\":8292:8299  taxRate */\n      0x08\n        /* \"contracts/buy_back.sol\":8292:8313  taxRate = _newTaxRate */\n      dup2\n      swap1\n      sstore\n      pop\n        /* \"contracts/buy_back.sol\":8114:8321  function setTaxRate(uint256 _newTaxRate) external onlyOwner {... */\n      pop\n      jump\t// out\n        /* \"contracts/buy_back.sol\":9367:9809  function maxBuyableRoboMoney() external view returns (uint256) {... */\n    tag_79:\n        /* \"contracts/buy_back.sol\":9421:9428  uint256 */\n      0x00\n        /* \"contracts/buy_back.sol\":9441:9463  uint256 currentBalance */\n      dup1\n        /* \"contracts/buy_back.sol\":9473:9485  paymentToken */\n      0x03\n      0x00\n      swap1\n      sload\n      swap1\n      0x0100\n      exp\n      swap1\n      div\n      0xffffffffffffffffffffffffffffffffffffffff\n      and\n        /* \"contracts/buy_back.sol\":9466:9496  IERC20(paymentToken).balanceOf */\n      0xffffffffffffffffffffffffffffffffffffffff\n      and\n      0x70a08231\n        /* \"contracts/buy_back.sol\":9505:9509  this */\n      address\n        /* \"contracts/buy_back.sol\":9466:9511  IERC20(paymentToken).balanceOf(address(this)) */\n      mload(0x40)\n      dup3\n      0xffffffff\n      and\n      0xe0\n      shl\n      dup2\n      mstore\n      0x04\n      add\n      tag_238\n      swap2\n      swap1\n      tag_34\n      jump\t// in\n    tag_238:\n      0x20\n      mload(0x40)\n      dup1\n      dup4\n      sub\n      dup2\n      dup7\n      gas\n      staticcall\n      iszero\n      dup1\n      iszero\n      tag_240\n      jumpi\n      returndatasize\n      0x00\n      dup1\n      returndatacopy\n      revert(0x00, returndatasize)\n    tag_240:\n      pop\n      pop\n      pop\n      pop\n      mload(0x40)\n      returndatasize\n      not(0x1f)\n      0x1f\n      dup3\n      add\n      and\n      dup3\n      add\n      dup1\n      0x40\n      mstore\n      pop\n      dup2\n      add\n      swap1\n      tag_241\n      swap2\n      swap1\n      tag_106\n      jump\t// in\n    tag_241:\n        /* \"contracts/buy_back.sol\":9441:9511  uint256 currentBalance = IERC20(paymentToken).balanceOf(address(this)) */\n      swap1\n      pop\n        /* \"contracts/buy_back.sol\":9522:9542  uint256 premiumPrice */\n      0x00\n        /* \"contracts/buy_back.sol\":9583:9586  100 */\n      0x64\n        /* \"contracts/buy_back.sol\":9567:9578  premiumRate */\n      sload(0x06)\n        /* \"contracts/buy_back.sol\":9561:9564  100 */\n      0x64\n        /* \"contracts/buy_back.sol\":9561:9578  100 + premiumRate */\n      tag_242\n      swap2\n      swap1\n      tag_153\n      jump\t// in\n    tag_242:\n        /* \"contracts/buy_back.sol\":9546:9557  targetPrice */\n      sload(0x07)\n        /* \"contracts/buy_back.sol\":9546:9579  targetPrice * (100 + premiumRate) */\n      tag_243\n      swap2\n      swap1\n      tag_155\n      jump\t// in\n    tag_243:\n        /* \"contracts/buy_back.sol\":9545:9586  (targetPrice * (100 + premiumRate)) / 100 */\n      tag_244\n      swap2\n      swap1\n      tag_157\n      jump\t// in\n    tag_244:\n        /* \"contracts/buy_back.sol\":9522:9586  uint256 premiumPrice = (targetPrice * (100 + premiumRate)) / 100 */\n      swap1\n      pop\n        /* \"contracts/buy_back.sol\":9619:9620  0 */\n      0x00\n        /* \"contracts/buy_back.sol\":9603:9615  premiumPrice */\n      dup2\n        /* \"contracts/buy_back.sol\":9603:9620  premiumPrice == 0 */\n      sub\n        /* \"contracts/buy_back.sol\":9599:9657  if (premiumPrice == 0) {... */\n      tag_245\n      jumpi\n        /* \"contracts/buy_back.sol\":9644:9645  0 */\n      0x00\n        /* \"contracts/buy_back.sol\":9637:9645  return 0 */\n      swap3\n      pop\n      pop\n      pop\n      jump(tag_237)\n        /* \"contracts/buy_back.sol\":9599:9657  if (premiumPrice == 0) {... */\n    tag_245:\n        /* \"contracts/buy_back.sol\":9789:9801  premiumPrice */\n      dup1\n        /* \"contracts/buy_back.sol\":9781:9785  1e18 */\n      0x0de0b6b3a7640000\n        /* \"contracts/buy_back.sol\":9764:9778  currentBalance */\n      dup4\n        /* \"contracts/buy_back.sol\":9764:9785  currentBalance * 1e18 */\n      tag_246\n      swap2\n      swap1\n      tag_155\n      jump\t// in\n    tag_246:\n        /* \"contracts/buy_back.sol\":9763:9801  (currentBalance * 1e18) / premiumPrice */\n      tag_247\n      swap2\n      swap1\n      tag_157\n      jump\t// in\n    tag_247:\n        /* \"contracts/buy_back.sol\":9756:9801  return (currentBalance * 1e18) / premiumPrice */\n      swap3\n      pop\n      pop\n      pop\n        /* \"contracts/buy_back.sol\":9367:9809  function maxBuyableRoboMoney() external view returns (uint256) {... */\n    tag_237:\n      swap1\n      jump\t// out\n        /* \"contracts/buy_back.sol\":7866:8106  function setGasReserve(address _newGasReserve) external onlyOwner {... */\n    tag_84:\n        /* \"contracts/buy_back.sol\":4293:4298  owner */\n      0x02\n      0x00\n      swap1\n      sload\n      swap1\n      0x0100\n      exp\n      swap1\n      div\n      0xffffffffffffffffffffffffffffffffffffffff\n      and\n        /* \"contracts/buy_back.sol\":4279:4298  msg.sender == owner */\n      0xffffffffffffffffffffffffffffffffffffffff\n      and\n        /* \"contracts/buy_back.sol\":4279:4289  msg.sender */\n      caller\n        /* \"contracts/buy_back.sol\":4279:4298  msg.sender == owner */\n      0xffffffffffffffffffffffffffffffffffffffff\n      and\n      eq\n        /* \"contracts/buy_back.sol\":4271:4317  require(msg.sender == owner, \"Not authorized\") */\n      tag_249\n      jumpi\n      mload(0x40)\n      0x08c379a000000000000000000000000000000000000000000000000000000000\n      dup2\n      mstore\n      0x04\n      add\n      tag_250\n      swap1\n      tag_97\n      jump\t// in\n    tag_250:\n      mload(0x40)\n      dup1\n      swap2\n      sub\n      swap1\n      revert\n    tag_249:\n        /* \"contracts/buy_back.sol\":7977:7978  0 */\n      0x00\n        /* \"contracts/buy_back.sol\":7951:7979  _newGasReserve != address(0) */\n      0xffffffffffffffffffffffffffffffffffffffff\n      and\n        /* \"contracts/buy_back.sol\":7951:7965  _newGasReserve */\n      dup2\n        /* \"contracts/buy_back.sol\":7951:7979  _newGasReserve != address(0) */\n      0xffffffffffffffffffffffffffffffffffffffff\n      and\n      sub\n        /* \"contracts/buy_back.sol\":7943:7999  require(_newGasReserve != address(0), \"Invalid address\") */\n      tag_252\n      jumpi\n      mload(0x40)\n      0x08c379a000000000000000000000000000000000000000000000000000000000\n      dup2\n      mstore\n      0x04\n      add\n      tag_253\n      swap1\n      tag_254\n      jump\t// in\n    tag_253:\n      mload(0x40)\n      dup1\n      swap2\n      sub\n      swap1\n      revert\n    tag_252:\n        /* \"contracts/buy_back.sol\":8045:8059  _newGasReserve */\n      dup1\n        /* \"contracts/buy_back.sol\":8015:8060  GasReserveUpdated(gasReserve, _newGasReserve) */\n      0xffffffffffffffffffffffffffffffffffffffff\n      and\n        /* \"contracts/buy_back.sol\":8033:8043  gasReserve */\n      0x05\n      0x00\n      swap1\n      sload\n      swap1\n      0x0100\n      exp\n      swap1\n      div\n      0xffffffffffffffffffffffffffffffffffffffff\n      and\n        /* \"contracts/buy_back.sol\":8015:8060  GasReserveUpdated(gasReserve, _newGasReserve) */\n      0xffffffffffffffffffffffffffffffffffffffff\n      and\n      0xb4281bb17cdc594e3cf6d419da95f70a6b02d856b26438d381ee1246a8e89f12\n      mload(0x40)\n      mload(0x40)\n      dup1\n      swap2\n      sub\n      swap1\n      log3\n        /* \"contracts/buy_back.sol\":8084:8098  _newGasReserve */\n      dup1\n        /* \"contracts/buy_back.sol\":8071:8081  gasReserve */\n      0x05\n      0x00\n        /* \"contracts/buy_back.sol\":8071:8098  gasReserve = _newGasReserve */\n      0x0100\n      exp\n      dup2\n      sload\n      dup2\n      0xffffffffffffffffffffffffffffffffffffffff\n      mul\n      not\n      and\n      swap1\n      dup4\n      0xffffffffffffffffffffffffffffffffffffffff\n      and\n      mul\n      or\n      swap1\n      sstore\n      pop\n        /* \"contracts/buy_back.sol\":7866:8106  function setGasReserve(address _newGasReserve) external onlyOwner {... */\n      pop\n      jump\t// out\n        /* \"contracts/buy_back.sol\":3325:3351  uint256 public targetPrice */\n    tag_86:\n      sload(0x07)\n      dup2\n      jump\t// out\n        /* \"contracts/buy_back.sol\":3121:3146  address public gasReserve */\n    tag_89:\n      0x05\n      0x00\n      swap1\n      sload\n      swap1\n      0x0100\n      exp\n      swap1\n      div\n      0xffffffffffffffffffffffffffffffffffffffff\n      and\n      dup2\n      jump\t// out\n        /* \"contracts/buy_back.sol\":5261:5491  function transferOwnership(address newOwner) external onlyOwner {... */\n    tag_93:\n        /* \"contracts/buy_back.sol\":4293:4298  owner */\n      0x02\n      0x00\n      swap1\n      sload\n      swap1\n      0x0100\n      exp\n      swap1\n      div\n      0xffffffffffffffffffffffffffffffffffffffff\n      and\n        /* \"contracts/buy_back.sol\":4279:4298  msg.sender == owner */\n      0xffffffffffffffffffffffffffffffffffffffff\n      and\n        /* \"contracts/buy_back.sol\":4279:4289  msg.sender */\n      caller\n        /* \"contracts/buy_back.sol\":4279:4298  msg.sender == owner */\n      0xffffffffffffffffffffffffffffffffffffffff\n      and\n      eq\n        /* \"contracts/buy_back.sol\":4271:4317  require(msg.sender == owner, \"Not authorized\") */\n      tag_256\n      jumpi\n      mload(0x40)\n      0x08c379a000000000000000000000000000000000000000000000000000000000\n      dup2\n      mstore\n      0x04\n      add\n      tag_257\n      swap1\n      tag_97\n      jump\t// in\n    tag_257:\n      mload(0x40)\n      dup1\n      swap2\n      sub\n      swap1\n      revert\n    tag_256:\n        /* \"contracts/buy_back.sol\":5364:5365  0 */\n      0x00\n        /* \"contracts/buy_back.sol\":5344:5366  newOwner != address(0) */\n      0xffffffffffffffffffffffffffffffffffffffff\n      and\n        /* \"contracts/buy_back.sol\":5344:5352  newOwner */\n      dup2\n        /* \"contracts/buy_back.sol\":5344:5366  newOwner != address(0) */\n      0xffffffffffffffffffffffffffffffffffffffff\n      and\n      sub\n        /* \"contracts/buy_back.sol\":5336:5403  require(newOwner != address(0), \"New owner cannot be zero address\") */\n      tag_259\n      jumpi\n      mload(0x40)\n      0x08c379a000000000000000000000000000000000000000000000000000000000\n      dup2\n      mstore\n      0x04\n      add\n      tag_260\n      swap1\n      tag_261\n      jump\t// in\n    tag_260:\n      mload(0x40)\n      dup1\n      swap2\n      sub\n      swap1\n      revert\n    tag_259:\n        /* \"contracts/buy_back.sol\":5447:5455  newOwner */\n      dup1\n        /* \"contracts/buy_back.sol\":5419:5456  OwnershipTransferred(owner, newOwner) */\n      0xffffffffffffffffffffffffffffffffffffffff\n      and\n        /* \"contracts/buy_back.sol\":5440:5445  owner */\n      0x02\n      0x00\n      swap1\n      sload\n      swap1\n      0x0100\n      exp\n      swap1\n      div\n      0xffffffffffffffffffffffffffffffffffffffff\n      and\n        /* \"contracts/buy_back.sol\":5419:5456  OwnershipTransferred(owner, newOwner) */\n      0xffffffffffffffffffffffffffffffffffffffff\n      and\n      0x8be0079c531659141344cd1fd0a4f28419497f9722a3daafe3b4186f6b6457e0\n      mload(0x40)\n      mload(0x40)\n      dup1\n      swap2\n      sub\n      swap1\n      log3\n        /* \"contracts/buy_back.sol\":5475:5483  newOwner */\n      dup1\n        /* \"contracts/buy_back.sol\":5467:5472  owner */\n      0x02\n      0x00\n        /* \"contracts/buy_back.sol\":5467:5483  owner = newOwner */\n      0x0100\n      exp\n      dup2\n      sload\n      dup2\n      0xffffffffffffffffffffffffffffffffffffffff\n      mul\n      not\n      and\n      swap1\n      dup4\n      0xffffffffffffffffffffffffffffffffffffffff\n      and\n      mul\n      or\n      swap1\n      sstore\n      pop\n        /* \"contracts/buy_back.sol\":5261:5491  function transferOwnership(address newOwner) external onlyOwner {... */\n      pop\n      jump\t// out\n        /* \"contracts/buy_back.sol\":1294:1412  function _unpause() internal virtual whenPaused {... */\n    tag_124:\n        /* \"contracts/buy_back.sol\":1109:1117  paused() */\n      tag_263\n        /* \"contracts/buy_back.sol\":1109:1115  paused */\n      tag_38\n        /* \"contracts/buy_back.sol\":1109:1117  paused() */\n      jump\t// in\n    tag_263:\n        /* \"contracts/buy_back.sol\":1101:1142  require(paused(), \"Pausable: not paused\") */\n      tag_264\n      jumpi\n      mload(0x40)\n      0x08c379a000000000000000000000000000000000000000000000000000000000\n      dup2\n      mstore\n      0x04\n      add\n      tag_265\n      swap1\n      tag_266\n      jump\t// in\n    tag_265:\n      mload(0x40)\n      dup1\n      swap2\n      sub\n      swap1\n      revert\n    tag_264:\n        /* \"contracts/buy_back.sol\":1363:1368  false */\n      0x00\n        /* \"contracts/buy_back.sol\":1353:1360  _paused */\n      dup1\n      0x00\n        /* \"contracts/buy_back.sol\":1353:1368  _paused = false */\n      0x0100\n      exp\n      dup2\n      sload\n      dup2\n      0xff\n      mul\n      not\n      and\n      swap1\n      dup4\n      iszero\n      iszero\n      mul\n      or\n      swap1\n      sstore\n      pop\n        /* \"contracts/buy_back.sol\":1384:1404  Unpaused(msg.sender) */\n      0x5db9ee0a495bf2e6ff9c91a7834c1ba4fdd244a5e8aa4e537bd38aeae4b073aa\n        /* \"contracts/buy_back.sol\":1393:1403  msg.sender */\n      caller\n        /* \"contracts/buy_back.sol\":1384:1404  Unpaused(msg.sender) */\n      mload(0x40)\n      tag_268\n      swap2\n      swap1\n      tag_34\n      jump\t// in\n    tag_268:\n      mload(0x40)\n      dup1\n      swap2\n      sub\n      swap1\n      log1\n        /* \"contracts/buy_back.sol\":1294:1412  function _unpause() internal virtual whenPaused {... */\n      jump\t// out\n        /* \"@openzeppelin/contracts/security/ReentrancyGuard.sol\":2336:2623  function _nonReentrantBefore() private {... */\n    tag_137:\n        /* \"@openzeppelin/contracts/security/ReentrancyGuard.sol\":1759:1760  2 */\n      0x02\n        /* \"@openzeppelin/contracts/security/ReentrancyGuard.sol\":2468:2475  _status */\n      sload(0x01)\n        /* \"@openzeppelin/contracts/security/ReentrancyGuard.sol\":2468:2487  _status != _ENTERED */\n      sub\n        /* \"@openzeppelin/contracts/security/ReentrancyGuard.sol\":2460:2523  require(_status != _ENTERED, \"ReentrancyGuard: reentrant call\") */\n      tag_270\n      jumpi\n      mload(0x40)\n      0x08c379a000000000000000000000000000000000000000000000000000000000\n      dup2\n      mstore\n      0x04\n      add\n      tag_271\n      swap1\n      tag_272\n      jump\t// in\n    tag_271:\n      mload(0x40)\n      dup1\n      swap2\n      sub\n      swap1\n      revert\n    tag_270:\n        /* \"@openzeppelin/contracts/security/ReentrancyGuard.sol\":1759:1760  2 */\n      0x02\n        /* \"@openzeppelin/contracts/security/ReentrancyGuard.sol\":2598:2605  _status */\n      0x01\n        /* \"@openzeppelin/contracts/security/ReentrancyGuard.sol\":2598:2616  _status = _ENTERED */\n      dup2\n      swap1\n      sstore\n      pop\n        /* \"@openzeppelin/contracts/security/ReentrancyGuard.sol\":2336:2623  function _nonReentrantBefore() private {... */\n      jump\t// out\n        /* \"@openzeppelin/contracts/token/ERC20/utils/SafeERC20.sol\":1618:1806  function safeTransferFrom(IERC20 token, address from, address to, uint256 value) internal {... */\n    tag_151:\n        /* \"@openzeppelin/contracts/token/ERC20/utils/SafeERC20.sol\":1718:1799  _callOptionalReturn(token, abi.encodeCall(token.transferFrom, (from, to, value))) */\n      tag_274\n        /* \"@openzeppelin/contracts/token/ERC20/utils/SafeERC20.sol\":1738:1743  token */\n      dup5\n        /* \"@openzeppelin/contracts/token/ERC20/utils/SafeERC20.sol\":1760:1765  token */\n      dup6\n        /* \"@openzeppelin/contracts/token/ERC20/utils/SafeERC20.sol\":1760:1778  token.transferFrom */\n      0xffffffffffffffffffffffffffffffffffffffff\n      and\n      0x23b872dd\n        /* \"@openzeppelin/contracts/token/ERC20/utils/SafeERC20.sol\":1781:1785  from */\n      dup7\n        /* \"@openzeppelin/contracts/token/ERC20/utils/SafeERC20.sol\":1787:1789  to */\n      dup7\n        /* \"@openzeppelin/contracts/token/ERC20/utils/SafeERC20.sol\":1791:1796  value */\n      dup7\n        /* \"@openzeppelin/contracts/token/ERC20/utils/SafeERC20.sol\":1745:1798  abi.encodeCall(token.transferFrom, (from, to, value)) */\n      add(0x24, mload(0x40))\n      tag_275\n      swap4\n      swap3\n      swap2\n      swap1\n      tag_217\n      jump\t// in\n    tag_275:\n      mload(0x40)\n      0x20\n      dup2\n      dup4\n      sub\n      sub\n      dup2\n      mstore\n      swap1\n      0x40\n      mstore\n      swap2\n      pop\n      0xe0\n      shl\n      0x20\n      dup3\n      add\n      dup1\n      mload\n      0xffffffffffffffffffffffffffffffffffffffffffffffffffffffff\n      dup4\n      dup2\n      dup4\n      and\n      or\n      dup4\n      mstore\n      pop\n      pop\n      pop\n      pop\n        /* \"@openzeppelin/contracts/token/ERC20/utils/SafeERC20.sol\":1718:1737  _callOptionalReturn */\n      tag_276\n        /* \"@openzeppelin/contracts/token/ERC20/utils/SafeERC20.sol\":1718:1799  _callOptionalReturn(token, abi.encodeCall(token.transferFrom, (from, to, value))) */\n      jump\t// in\n    tag_274:\n        /* \"@openzeppelin/contracts/token/ERC20/utils/SafeERC20.sol\":1618:1806  function safeTransferFrom(IERC20 token, address from, address to, uint256 value) internal {... */\n      pop\n      pop\n      pop\n      pop\n      jump\t// out\n        /* \"@openzeppelin/contracts/token/ERC20/utils/SafeERC20.sol\":1219:1379  function safeTransfer(IERC20 token, address to, uint256 value) internal {... */\n    tag_172:\n        /* \"@openzeppelin/contracts/token/ERC20/utils/SafeERC20.sol\":1301:1372  _callOptionalReturn(token, abi.encodeCall(token.transfer, (to, value))) */\n      tag_278\n        /* \"@openzeppelin/contracts/token/ERC20/utils/SafeERC20.sol\":1321:1326  token */\n      dup4\n        /* \"@openzeppelin/contracts/token/ERC20/utils/SafeERC20.sol\":1343:1348  token */\n      dup5\n        /* \"@openzeppelin/contracts/token/ERC20/utils/SafeERC20.sol\":1343:1357  token.transfer */\n      0xffffffffffffffffffffffffffffffffffffffff\n      and\n      0xa9059cbb\n        /* \"@openzeppelin/contracts/token/ERC20/utils/SafeERC20.sol\":1360:1362  to */\n      dup6\n        /* \"@openzeppelin/contracts/token/ERC20/utils/SafeERC20.sol\":1364:1369  value */\n      dup6\n        /* \"@openzeppelin/contracts/token/ERC20/utils/SafeERC20.sol\":1328:1371  abi.encodeCall(token.transfer, (to, value)) */\n      add(0x24, mload(0x40))\n      tag_279\n      swap3\n      swap2\n      swap1\n      tag_111\n      jump\t// in\n    tag_279:\n      mload(0x40)\n      0x20\n      dup2\n      dup4\n      sub\n      sub\n      dup2\n      mstore\n      swap1\n      0x40\n      mstore\n      swap2\n      pop\n      0xe0\n      shl\n      0x20\n      dup3\n      add\n      dup1\n      mload\n      0xffffffffffffffffffffffffffffffffffffffffffffffffffffffff\n      dup4\n      dup2\n      dup4\n      and\n      or\n      dup4\n      mstore\n      pop\n      pop\n      pop\n      pop\n        /* \"@openzeppelin/contracts/token/ERC20/utils/SafeERC20.sol\":1301:1320  _callOptionalReturn */\n      tag_276\n        /* \"@openzeppelin/contracts/token/ERC20/utils/SafeERC20.sol\":1301:1372  _callOptionalReturn(token, abi.encodeCall(token.transfer, (to, value))) */\n      jump\t// in\n    tag_278:\n        /* \"@openzeppelin/contracts/token/ERC20/utils/SafeERC20.sol\":1219:1379  function safeTransfer(IERC20 token, address to, uint256 value) internal {... */\n      pop\n      pop\n      pop\n      jump\t// out\n        /* \"@openzeppelin/contracts/security/ReentrancyGuard.sol\":2629:2838  function _nonReentrantAfter() private {... */\n    tag_181:\n        /* \"@openzeppelin/contracts/security/ReentrancyGuard.sol\":1716:1717  1 */\n      0x01\n        /* \"@openzeppelin/contracts/security/ReentrancyGuard.sol\":2809:2816  _status */\n      dup1\n        /* \"@openzeppelin/contracts/security/ReentrancyGuard.sol\":2809:2831  _status = _NOT_ENTERED */\n      dup2\n      swap1\n      sstore\n      pop\n        /* \"@openzeppelin/contracts/security/ReentrancyGuard.sol\":2629:2838  function _nonReentrantAfter() private {... */\n      jump\t// out\n        /* \"contracts/buy_back.sol\":1170:1286  function _pause() internal virtual whenNotPaused {... */\n    tag_204:\n        /* \"contracts/buy_back.sol\":1011:1019  paused() */\n      tag_282\n        /* \"contracts/buy_back.sol\":1011:1017  paused */\n      tag_38\n        /* \"contracts/buy_back.sol\":1011:1019  paused() */\n      jump\t// in\n    tag_282:\n        /* \"contracts/buy_back.sol\":1010:1019  !paused() */\n      iszero\n        /* \"contracts/buy_back.sol\":1002:1040  require(!paused(), \"Pausable: paused\") */\n      tag_283\n      jumpi\n      mload(0x40)\n      0x08c379a000000000000000000000000000000000000000000000000000000000\n      dup2\n      mstore\n      0x04\n      add\n      tag_284\n      swap1\n      tag_134\n      jump\t// in\n    tag_284:\n      mload(0x40)\n      dup1\n      swap2\n      sub\n      swap1\n      revert\n    tag_283:\n        /* \"contracts/buy_back.sol\":1240:1244  true */\n      0x01\n        /* \"contracts/buy_back.sol\":1230:1237  _paused */\n      0x00\n      dup1\n        /* \"contracts/buy_back.sol\":1230:1244  _paused = true */\n      0x0100\n      exp\n      dup2\n      sload\n      dup2\n      0xff\n      mul\n      not\n      and\n      swap1\n      dup4\n      iszero\n      iszero\n      mul\n      or\n      swap1\n      sstore\n      pop\n        /* \"contracts/buy_back.sol\":1260:1278  Paused(msg.sender) */\n      0x62e78cea01bee320cd4e420270b5ea74000d11b0c9f74754ebdbfc544b05a258\n        /* \"contracts/buy_back.sol\":1267:1277  msg.sender */\n      caller\n        /* \"contracts/buy_back.sol\":1260:1278  Paused(msg.sender) */\n      mload(0x40)\n      tag_286\n      swap2\n      swap1\n      tag_34\n      jump\t// in\n    tag_286:\n      mload(0x40)\n      dup1\n      swap2\n      sub\n      swap1\n      log1\n        /* \"contracts/buy_back.sol\":1170:1286  function _pause() internal virtual whenNotPaused {... */\n      jump\t// out\n        /* \"@openzeppelin/contracts/token/ERC20/utils/SafeERC20.sol\":7686:8406  function _callOptionalReturn(IERC20 token, bytes memory data) private {... */\n    tag_276:\n        /* \"@openzeppelin/contracts/token/ERC20/utils/SafeERC20.sol\":7766:7784  uint256 returnSize */\n      0x00\n        /* \"@openzeppelin/contracts/token/ERC20/utils/SafeERC20.sol\":7794:7813  uint256 returnValue */\n      dup1\n        /* \"@openzeppelin/contracts/token/ERC20/utils/SafeERC20.sol\":7932:7936  0x20 */\n      0x20\n        /* \"@openzeppelin/contracts/token/ERC20/utils/SafeERC20.sol\":7929:7930  0 */\n      0x00\n        /* \"@openzeppelin/contracts/token/ERC20/utils/SafeERC20.sol\":7922:7926  data */\n      dup5\n        /* \"@openzeppelin/contracts/token/ERC20/utils/SafeERC20.sol\":7916:7927  mload(data) */\n      mload\n        /* \"@openzeppelin/contracts/token/ERC20/utils/SafeERC20.sol\":7909:7913  0x20 */\n      0x20\n        /* \"@openzeppelin/contracts/token/ERC20/utils/SafeERC20.sol\":7903:7907  data */\n      dup7\n        /* \"@openzeppelin/contracts/token/ERC20/utils/SafeERC20.sol\":7899:7914  add(data, 0x20) */\n      add\n        /* \"@openzeppelin/contracts/token/ERC20/utils/SafeERC20.sol\":7896:7897  0 */\n      0x00\n        /* \"@openzeppelin/contracts/token/ERC20/utils/SafeERC20.sol\":7889:7894  token */\n      dup9\n        /* \"@openzeppelin/contracts/token/ERC20/utils/SafeERC20.sol\":7882:7887  gas() */\n      gas\n        /* \"@openzeppelin/contracts/token/ERC20/utils/SafeERC20.sol\":7877:7937  call(gas(), token, 0, add(data, 0x20), mload(data), 0, 0x20) */\n      call\n        /* \"@openzeppelin/contracts/token/ERC20/utils/SafeERC20.sol\":7989:7996  success */\n      dup1\n        /* \"@openzeppelin/contracts/token/ERC20/utils/SafeERC20.sol\":7979:8155  if iszero(success) {... */\n      tag_288\n      jumpi\n        /* \"@openzeppelin/contracts/token/ERC20/utils/SafeERC20.sol\":8033:8037  0x40 */\n      0x40\n        /* \"@openzeppelin/contracts/token/ERC20/utils/SafeERC20.sol\":8027:8038  mload(0x40) */\n      mload\n        /* \"@openzeppelin/contracts/token/ERC20/utils/SafeERC20.sol\":8078:8094  returndatasize() */\n      returndatasize\n        /* \"@openzeppelin/contracts/token/ERC20/utils/SafeERC20.sol\":8075:8076  0 */\n      0x00\n        /* \"@openzeppelin/contracts/token/ERC20/utils/SafeERC20.sol\":8070:8073  ptr */\n      dup3\n        /* \"@openzeppelin/contracts/token/ERC20/utils/SafeERC20.sol\":8055:8095  returndatacopy(ptr, 0, returndatasize()) */\n      returndatacopy\n        /* \"@openzeppelin/contracts/token/ERC20/utils/SafeERC20.sol\":8124:8140  returndatasize() */\n      returndatasize\n        /* \"@openzeppelin/contracts/token/ERC20/utils/SafeERC20.sol\":8119:8122  ptr */\n      dup2\n        /* \"@openzeppelin/contracts/token/ERC20/utils/SafeERC20.sol\":8112:8141  revert(ptr, returndatasize()) */\n      revert\n        /* \"@openzeppelin/contracts/token/ERC20/utils/SafeERC20.sol\":7979:8155  if iszero(success) {... */\n    tag_288:\n        /* \"@openzeppelin/contracts/token/ERC20/utils/SafeERC20.sol\":8182:8198  returndatasize() */\n      returndatasize\n        /* \"@openzeppelin/contracts/token/ERC20/utils/SafeERC20.sol\":8168:8198  returnSize := returndatasize() */\n      swap3\n      pop\n        /* \"@openzeppelin/contracts/token/ERC20/utils/SafeERC20.sol\":8232:8233  0 */\n      0x00\n        /* \"@openzeppelin/contracts/token/ERC20/utils/SafeERC20.sol\":8226:8234  mload(0) */\n      mload\n        /* \"@openzeppelin/contracts/token/ERC20/utils/SafeERC20.sol\":8211:8234  returnValue := mload(0) */\n      swap2\n      pop\n        /* \"@openzeppelin/contracts/token/ERC20/utils/SafeERC20.sol\":7848:8244  {... */\n      pop\n        /* \"@openzeppelin/contracts/token/ERC20/utils/SafeERC20.sol\":8272:8273  0 */\n      0x00\n        /* \"@openzeppelin/contracts/token/ERC20/utils/SafeERC20.sol\":8258:8268  returnSize */\n      dup3\n        /* \"@openzeppelin/contracts/token/ERC20/utils/SafeERC20.sol\":8258:8273  returnSize == 0 */\n      eq\n        /* \"@openzeppelin/contracts/token/ERC20/utils/SafeERC20.sol\":8258:8326  returnSize == 0 ? address(token).code.length == 0 : returnValue != 1 */\n      tag_289\n      jumpi\n        /* \"@openzeppelin/contracts/token/ERC20/utils/SafeERC20.sol\":8325:8326  1 */\n      0x01\n        /* \"@openzeppelin/contracts/token/ERC20/utils/SafeERC20.sol\":8310:8321  returnValue */\n      dup2\n        /* \"@openzeppelin/contracts/token/ERC20/utils/SafeERC20.sol\":8310:8326  returnValue != 1 */\n      eq\n      iszero\n        /* \"@openzeppelin/contracts/token/ERC20/utils/SafeERC20.sol\":8258:8326  returnSize == 0 ? address(token).code.length == 0 : returnValue != 1 */\n      jump(tag_290)\n    tag_289:\n        /* \"@openzeppelin/contracts/token/ERC20/utils/SafeERC20.sol\":8306:8307  0 */\n      0x00\n        /* \"@openzeppelin/contracts/token/ERC20/utils/SafeERC20.sol\":8284:8289  token */\n      dup5\n        /* \"@openzeppelin/contracts/token/ERC20/utils/SafeERC20.sol\":8276:8302  address(token).code.length */\n      0xffffffffffffffffffffffffffffffffffffffff\n      and\n      extcodesize\n        /* \"@openzeppelin/contracts/token/ERC20/utils/SafeERC20.sol\":8276:8307  address(token).code.length == 0 */\n      eq\n        /* \"@openzeppelin/contracts/token/ERC20/utils/SafeERC20.sol\":8258:8326  returnSize == 0 ? address(token).code.length == 0 : returnValue != 1 */\n    tag_290:\n        /* \"@openzeppelin/contracts/token/ERC20/utils/SafeERC20.sol\":8254:8400  if (returnSize == 0 ? address(token).code.length == 0 : returnValue != 1) {... */\n      iszero\n      tag_291\n      jumpi\n        /* \"@openzeppelin/contracts/token/ERC20/utils/SafeERC20.sol\":8382:8387  token */\n      dup4\n        /* \"@openzeppelin/contracts/token/ERC20/utils/SafeERC20.sol\":8349:8389  SafeERC20FailedOperation(address(token)) */\n      mload(0x40)\n      0x5274afe700000000000000000000000000000000000000000000000000000000\n      dup2\n      mstore\n      0x04\n      add\n      tag_292\n      swap2\n      swap1\n      tag_34\n      jump\t// in\n    tag_292:\n      mload(0x40)\n      dup1\n      swap2\n      sub\n      swap1\n      revert\n        /* \"@openzeppelin/contracts/token/ERC20/utils/SafeERC20.sol\":8254:8400  if (returnSize == 0 ? address(token).code.length == 0 : returnValue != 1) {... */\n    tag_291:\n        /* \"@openzeppelin/contracts/token/ERC20/utils/SafeERC20.sol\":7756:8406  {... */\n      pop\n      pop\n        /* \"@openzeppelin/contracts/token/ERC20/utils/SafeERC20.sol\":7686:8406  function _callOptionalReturn(IERC20 token, bytes memory data) private {... */\n      pop\n      pop\n      jump\t// out\n        /* \"#utility.yul\":88:205   */\n    tag_294:\n        /* \"#utility.yul\":197:198   */\n      0x00\n        /* \"#utility.yul\":194:195   */\n      dup1\n        /* \"#utility.yul\":187:199   */\n      revert\n        /* \"#utility.yul\":334:411   */\n    tag_296:\n        /* \"#utility.yul\":371:378   */\n      0x00\n        /* \"#utility.yul\":400:405   */\n      dup2\n        /* \"#utility.yul\":389:405   */\n      swap1\n      pop\n        /* \"#utility.yul\":334:411   */\n      swap2\n      swap1\n      pop\n      jump\t// out\n        /* \"#utility.yul\":417:539   */\n    tag_297:\n        /* \"#utility.yul\":490:514   */\n      tag_351\n        /* \"#utility.yul\":508:513   */\n      dup2\n        /* \"#utility.yul\":490:514   */\n      tag_296\n      jump\t// in\n    tag_351:\n        /* \"#utility.yul\":483:488   */\n      dup2\n        /* \"#utility.yul\":480:515   */\n      eq\n        /* \"#utility.yul\":470:533   */\n      tag_352\n      jumpi\n        /* \"#utility.yul\":529:530   */\n      0x00\n        /* \"#utility.yul\":526:527   */\n      dup1\n        /* \"#utility.yul\":519:531   */\n      revert\n        /* \"#utility.yul\":470:533   */\n    tag_352:\n        /* \"#utility.yul\":417:539   */\n      pop\n      jump\t// out\n        /* \"#utility.yul\":545:684   */\n    tag_298:\n        /* \"#utility.yul\":591:596   */\n      0x00\n        /* \"#utility.yul\":629:635   */\n      dup2\n        /* \"#utility.yul\":616:636   */\n      calldataload\n        /* \"#utility.yul\":607:636   */\n      swap1\n      pop\n        /* \"#utility.yul\":645:678   */\n      tag_354\n        /* \"#utility.yul\":672:677   */\n      dup2\n        /* \"#utility.yul\":645:678   */\n      tag_297\n      jump\t// in\n    tag_354:\n        /* \"#utility.yul\":545:684   */\n      swap3\n      swap2\n      pop\n      pop\n      jump\t// out\n        /* \"#utility.yul\":690:1019   */\n    tag_29:\n        /* \"#utility.yul\":749:755   */\n      0x00\n        /* \"#utility.yul\":798:800   */\n      0x20\n        /* \"#utility.yul\":786:795   */\n      dup3\n        /* \"#utility.yul\":777:784   */\n      dup5\n        /* \"#utility.yul\":773:796   */\n      sub\n        /* \"#utility.yul\":769:801   */\n      slt\n        /* \"#utility.yul\":766:885   */\n      iszero\n      tag_356\n      jumpi\n        /* \"#utility.yul\":804:883   */\n      tag_357\n      tag_294\n      jump\t// in\n    tag_357:\n        /* \"#utility.yul\":766:885   */\n    tag_356:\n        /* \"#utility.yul\":924:925   */\n      0x00\n        /* \"#utility.yul\":949:1002   */\n      tag_358\n        /* \"#utility.yul\":994:1001   */\n      dup5\n        /* \"#utility.yul\":985:991   */\n      dup3\n        /* \"#utility.yul\":974:983   */\n      dup6\n        /* \"#utility.yul\":970:992   */\n      add\n        /* \"#utility.yul\":949:1002   */\n      tag_298\n      jump\t// in\n    tag_358:\n        /* \"#utility.yul\":939:1002   */\n      swap2\n      pop\n        /* \"#utility.yul\":895:1012   */\n      pop\n        /* \"#utility.yul\":690:1019   */\n      swap3\n      swap2\n      pop\n      pop\n      jump\t// out\n        /* \"#utility.yul\":1025:1151   */\n    tag_299:\n        /* \"#utility.yul\":1062:1069   */\n      0x00\n        /* \"#utility.yul\":1102:1144   */\n      0xffffffffffffffffffffffffffffffffffffffff\n        /* \"#utility.yul\":1095:1100   */\n      dup3\n        /* \"#utility.yul\":1091:1145   */\n      and\n        /* \"#utility.yul\":1080:1145   */\n      swap1\n      pop\n        /* \"#utility.yul\":1025:1151   */\n      swap2\n      swap1\n      pop\n      jump\t// out\n        /* \"#utility.yul\":1157:1253   */\n    tag_300:\n        /* \"#utility.yul\":1194:1201   */\n      0x00\n        /* \"#utility.yul\":1223:1247   */\n      tag_361\n        /* \"#utility.yul\":1241:1246   */\n      dup3\n        /* \"#utility.yul\":1223:1247   */\n      tag_299\n      jump\t// in\n    tag_361:\n        /* \"#utility.yul\":1212:1247   */\n      swap1\n      pop\n        /* \"#utility.yul\":1157:1253   */\n      swap2\n      swap1\n      pop\n      jump\t// out\n        /* \"#utility.yul\":1259:1377   */\n    tag_301:\n        /* \"#utility.yul\":1346:1370   */\n      tag_363\n        /* \"#utility.yul\":1364:1369   */\n      dup2\n        /* \"#utility.yul\":1346:1370   */\n      tag_300\n      jump\t// in\n    tag_363:\n        /* \"#utility.yul\":1341:1344   */\n      dup3\n        /* \"#utility.yul\":1334:1371   */\n      mstore\n        /* \"#utility.yul\":1259:1377   */\n      pop\n      pop\n      jump\t// out\n        /* \"#utility.yul\":1383:1605   */\n    tag_34:\n        /* \"#utility.yul\":1476:1480   */\n      0x00\n        /* \"#utility.yul\":1514:1516   */\n      0x20\n        /* \"#utility.yul\":1503:1512   */\n      dup3\n        /* \"#utility.yul\":1499:1517   */\n      add\n        /* \"#utility.yul\":1491:1517   */\n      swap1\n      pop\n        /* \"#utility.yul\":1527:1598   */\n      tag_365\n        /* \"#utility.yul\":1595:1596   */\n      0x00\n        /* \"#utility.yul\":1584:1593   */\n      dup4\n        /* \"#utility.yul\":1580:1597   */\n      add\n        /* \"#utility.yul\":1571:1577   */\n      dup5\n        /* \"#utility.yul\":1527:1598   */\n      tag_301\n      jump\t// in\n    tag_365:\n        /* \"#utility.yul\":1383:1605   */\n      swap3\n      swap2\n      pop\n      pop\n      jump\t// out\n        /* \"#utility.yul\":1611:1701   */\n    tag_302:\n        /* \"#utility.yul\":1645:1652   */\n      0x00\n        /* \"#utility.yul\":1688:1693   */\n      dup2\n        /* \"#utility.yul\":1681:1694   */\n      iszero\n        /* \"#utility.yul\":1674:1695   */\n      iszero\n        /* \"#utility.yul\":1663:1695   */\n      swap1\n      pop\n        /* \"#utility.yul\":1611:1701   */\n      swap2\n      swap1\n      pop\n      jump\t// out\n        /* \"#utility.yul\":1707:1816   */\n    tag_303:\n        /* \"#utility.yul\":1788:1809   */\n      tag_368\n        /* \"#utility.yul\":1803:1808   */\n      dup2\n        /* \"#utility.yul\":1788:1809   */\n      tag_302\n      jump\t// in\n    tag_368:\n        /* \"#utility.yul\":1783:1786   */\n      dup3\n        /* \"#utility.yul\":1776:1810   */\n      mstore\n        /* \"#utility.yul\":1707:1816   */\n      pop\n      pop\n      jump\t// out\n        /* \"#utility.yul\":1822:2032   */\n    tag_40:\n        /* \"#utility.yul\":1909:1913   */\n      0x00\n        /* \"#utility.yul\":1947:1949   */\n      0x20\n        /* \"#utility.yul\":1936:1945   */\n      dup3\n        /* \"#utility.yul\":1932:1950   */\n      add\n        /* \"#utility.yul\":1924:1950   */\n      swap1\n      pop\n        /* \"#utility.yul\":1960:2025   */\n      tag_370\n        /* \"#utility.yul\":2022:2023   */\n      0x00\n        /* \"#utility.yul\":2011:2020   */\n      dup4\n        /* \"#utility.yul\":2007:2024   */\n      add\n        /* \"#utility.yul\":1998:2004   */\n      dup5\n        /* \"#utility.yul\":1960:2025   */\n      tag_303\n      jump\t// in\n    tag_370:\n        /* \"#utility.yul\":1822:2032   */\n      swap3\n      swap2\n      pop\n      pop\n      jump\t// out\n        /* \"#utility.yul\":2038:2156   */\n    tag_304:\n        /* \"#utility.yul\":2125:2149   */\n      tag_372\n        /* \"#utility.yul\":2143:2148   */\n      dup2\n        /* \"#utility.yul\":2125:2149   */\n      tag_296\n      jump\t// in\n    tag_372:\n        /* \"#utility.yul\":2120:2123   */\n      dup3\n        /* \"#utility.yul\":2113:2150   */\n      mstore\n        /* \"#utility.yul\":2038:2156   */\n      pop\n      pop\n      jump\t// out\n        /* \"#utility.yul\":2162:2384   */\n    tag_44:\n        /* \"#utility.yul\":2255:2259   */\n      0x00\n        /* \"#utility.yul\":2293:2295   */\n      0x20\n        /* \"#utility.yul\":2282:2291   */\n      dup3\n        /* \"#utility.yul\":2278:2296   */\n      add\n        /* \"#utility.yul\":2270:2296   */\n      swap1\n      pop\n        /* \"#utility.yul\":2306:2377   */\n      tag_374\n        /* \"#utility.yul\":2374:2375   */\n      0x00\n        /* \"#utility.yul\":2363:2372   */\n      dup4\n        /* \"#utility.yul\":2359:2376   */\n      add\n        /* \"#utility.yul\":2350:2356   */\n      dup5\n        /* \"#utility.yul\":2306:2377   */\n      tag_304\n      jump\t// in\n    tag_374:\n        /* \"#utility.yul\":2162:2384   */\n      swap3\n      swap2\n      pop\n      pop\n      jump\t// out\n        /* \"#utility.yul\":2390:2512   */\n    tag_305:\n        /* \"#utility.yul\":2463:2487   */\n      tag_376\n        /* \"#utility.yul\":2481:2486   */\n      dup2\n        /* \"#utility.yul\":2463:2487   */\n      tag_300\n      jump\t// in\n    tag_376:\n        /* \"#utility.yul\":2456:2461   */\n      dup2\n        /* \"#utility.yul\":2453:2488   */\n      eq\n        /* \"#utility.yul\":2443:2506   */\n      tag_377\n      jumpi\n        /* \"#utility.yul\":2502:2503   */\n      0x00\n        /* \"#utility.yul\":2499:2500   */\n      dup1\n        /* \"#utility.yul\":2492:2504   */\n      revert\n        /* \"#utility.yul\":2443:2506   */\n    tag_377:\n        /* \"#utility.yul\":2390:2512   */\n      pop\n      jump\t// out\n        /* \"#utility.yul\":2518:2657   */\n    tag_306:\n        /* \"#utility.yul\":2564:2569   */\n      0x00\n        /* \"#utility.yul\":2602:2608   */\n      dup2\n        /* \"#utility.yul\":2589:2609   */\n      calldataload\n        /* \"#utility.yul\":2580:2609   */\n      swap1\n      pop\n        /* \"#utility.yul\":2618:2651   */\n      tag_379\n        /* \"#utility.yul\":2645:2650   */\n      dup2\n        /* \"#utility.yul\":2618:2651   */\n      tag_305\n      jump\t// in\n    tag_379:\n        /* \"#utility.yul\":2518:2657   */\n      swap3\n      swap2\n      pop\n      pop\n      jump\t// out\n        /* \"#utility.yul\":2663:2992   */\n    tag_83:\n        /* \"#utility.yul\":2722:2728   */\n      0x00\n        /* \"#utility.yul\":2771:2773   */\n      0x20\n        /* \"#utility.yul\":2759:2768   */\n      dup3\n        /* \"#utility.yul\":2750:2757   */\n      dup5\n        /* \"#utility.yul\":2746:2769   */\n      sub\n        /* \"#utility.yul\":2742:2774   */\n      slt\n        /* \"#utility.yul\":2739:2858   */\n      iszero\n      tag_381\n      jumpi\n        /* \"#utility.yul\":2777:2856   */\n      tag_382\n      tag_294\n      jump\t// in\n    tag_382:\n        /* \"#utility.yul\":2739:2858   */\n    tag_381:\n        /* \"#utility.yul\":2897:2898   */\n      0x00\n        /* \"#utility.yul\":2922:2975   */\n      tag_383\n        /* \"#utility.yul\":2967:2974   */\n      dup5\n        /* \"#utility.yul\":2958:2964   */\n      dup3\n        /* \"#utility.yul\":2947:2956   */\n      dup6\n        /* \"#utility.yul\":2943:2965   */\n      add\n        /* \"#utility.yul\":2922:2975   */\n      tag_306\n      jump\t// in\n    tag_383:\n        /* \"#utility.yul\":2912:2975   */\n      swap2\n      pop\n        /* \"#utility.yul\":2868:2985   */\n      pop\n        /* \"#utility.yul\":2663:2992   */\n      swap3\n      swap2\n      pop\n      pop\n      jump\t// out\n        /* \"#utility.yul\":2998:3167   */\n    tag_307:\n        /* \"#utility.yul\":3082:3093   */\n      0x00\n        /* \"#utility.yul\":3116:3122   */\n      dup3\n        /* \"#utility.yul\":3111:3114   */\n      dup3\n        /* \"#utility.yul\":3104:3123   */\n      mstore\n        /* \"#utility.yul\":3156:3160   */\n      0x20\n        /* \"#utility.yul\":3151:3154   */\n      dup3\n        /* \"#utility.yul\":3147:3161   */\n      add\n        /* \"#utility.yul\":3132:3161   */\n      swap1\n      pop\n        /* \"#utility.yul\":2998:3167   */\n      swap3\n      swap2\n      pop\n      pop\n      jump\t// out\n        /* \"#utility.yul\":3173:3337   */\n    tag_308:\n        /* \"#utility.yul\":3313:3329   */\n      0x4e6f7420617574686f72697a6564000000000000000000000000000000000000\n        /* \"#utility.yul\":3309:3310   */\n      0x00\n        /* \"#utility.yul\":3301:3307   */\n      dup3\n        /* \"#utility.yul\":3297:3311   */\n      add\n        /* \"#utility.yul\":3290:3330   */\n      mstore\n        /* \"#utility.yul\":3173:3337   */\n      pop\n      jump\t// out\n        /* \"#utility.yul\":3343:3709   */\n    tag_309:\n        /* \"#utility.yul\":3485:3488   */\n      0x00\n        /* \"#utility.yul\":3506:3573   */\n      tag_387\n        /* \"#utility.yul\":3570:3572   */\n      0x0e\n        /* \"#utility.yul\":3565:3568   */\n      dup4\n        /* \"#utility.yul\":3506:3573   */\n      tag_307\n      jump\t// in\n    tag_387:\n        /* \"#utility.yul\":3499:3573   */\n      swap2\n      pop\n        /* \"#utility.yul\":3582:3675   */\n      tag_388\n        /* \"#utility.yul\":3671:3674   */\n      dup3\n        /* \"#utility.yul\":3582:3675   */\n      tag_308\n      jump\t// in\n    tag_388:\n        /* \"#utility.yul\":3700:3702   */\n      0x20\n        /* \"#utility.yul\":3695:3698   */\n      dup3\n        /* \"#utility.yul\":3691:3703   */\n      add\n        /* \"#utility.yul\":3684:3703   */\n      swap1\n      pop\n        /* \"#utility.yul\":3343:3709   */\n      swap2\n      swap1\n      pop\n      jump\t// out\n        /* \"#utility.yul\":3715:4134   */\n    tag_97:\n        /* \"#utility.yul\":3881:3885   */\n      0x00\n        /* \"#utility.yul\":3919:3921   */\n      0x20\n        /* \"#utility.yul\":3908:3917   */\n      dup3\n        /* \"#utility.yul\":3904:3922   */\n      add\n        /* \"#utility.yul\":3896:3922   */\n      swap1\n      pop\n        /* \"#utility.yul\":3968:3977   */\n      dup2\n        /* \"#utility.yul\":3962:3966   */\n      dup2\n        /* \"#utility.yul\":3958:3978   */\n      sub\n        /* \"#utility.yul\":3954:3955   */\n      0x00\n        /* \"#utility.yul\":3943:3952   */\n      dup4\n        /* \"#utility.yul\":3939:3956   */\n      add\n        /* \"#utility.yul\":3932:3979   */\n      mstore\n        /* \"#utility.yul\":3996:4127   */\n      tag_390\n        /* \"#utility.yul\":4122:4126   */\n      dup2\n        /* \"#utility.yul\":3996:4127   */\n      tag_309\n      jump\t// in\n    tag_390:\n        /* \"#utility.yul\":3988:4127   */\n      swap1\n      pop\n        /* \"#utility.yul\":3715:4134   */\n      swap2\n      swap1\n      pop\n      jump\t// out\n        /* \"#utility.yul\":4140:4310   */\n    tag_310:\n        /* \"#utility.yul\":4280:4302   */\n      0x5769746864726177206d757374206265203e2030000000000000000000000000\n        /* \"#utility.yul\":4276:4277   */\n      0x00\n        /* \"#utility.yul\":4268:4274   */\n      dup3\n        /* \"#utility.yul\":4264:4278   */\n      add\n        /* \"#utility.yul\":4257:4303   */\n      mstore\n        /* \"#utility.yul\":4140:4310   */\n      pop\n      jump\t// out\n        /* \"#utility.yul\":4316:4682   */\n    tag_311:\n        /* \"#utility.yul\":4458:4461   */\n      0x00\n        /* \"#utility.yul\":4479:4546   */\n      tag_393\n        /* \"#utility.yul\":4543:4545   */\n      0x14\n        /* \"#utility.yul\":4538:4541   */\n      dup4\n        /* \"#utility.yul\":4479:4546   */\n      tag_307\n      jump\t// in\n    tag_393:\n        /* \"#utility.yul\":4472:4546   */\n      swap2\n      pop\n        /* \"#utility.yul\":4555:4648   */\n      tag_394\n        /* \"#utility.yul\":4644:4647   */\n      dup3\n        /* \"#utility.yul\":4555:4648   */\n      tag_310\n      jump\t// in\n    tag_394:\n        /* \"#utility.yul\":4673:4675   */\n      0x20\n        /* \"#utility.yul\":4668:4671   */\n      dup3\n        /* \"#utility.yul\":4664:4676   */\n      add\n        /* \"#utility.yul\":4657:4676   */\n      swap1\n      pop\n        /* \"#utility.yul\":4316:4682   */\n      swap2\n      swap1\n      pop\n      jump\t// out\n        /* \"#utility.yul\":4688:5107   */\n    tag_101:\n        /* \"#utility.yul\":4854:4858   */\n      0x00\n        /* \"#utility.yul\":4892:4894   */\n      0x20\n        /* \"#utility.yul\":4881:4890   */\n      dup3\n        /* \"#utility.yul\":4877:4895   */\n      add\n        /* \"#utility.yul\":4869:4895   */\n      swap1\n      pop\n        /* \"#utility.yul\":4941:4950   */\n      dup2\n        /* \"#utility.yul\":4935:4939   */\n      dup2\n        /* \"#utility.yul\":4931:4951   */\n      sub\n        /* \"#utility.yul\":4927:4928   */\n      0x00\n        /* \"#utility.yul\":4916:4925   */\n      dup4\n        /* \"#utility.yul\":4912:4929   */\n      add\n        /* \"#utility.yul\":4905:4952   */\n      mstore\n        /* \"#utility.yul\":4969:5100   */\n      tag_396\n        /* \"#utility.yul\":5095:5099   */\n      dup2\n        /* \"#utility.yul\":4969:5100   */\n      tag_311\n      jump\t// in\n    tag_396:\n        /* \"#utility.yul\":4961:5100   */\n      swap1\n      pop\n        /* \"#utility.yul\":4688:5107   */\n      swap2\n      swap1\n      pop\n      jump\t// out\n        /* \"#utility.yul\":5113:5256   */\n    tag_312:\n        /* \"#utility.yul\":5170:5175   */\n      0x00\n        /* \"#utility.yul\":5201:5207   */\n      dup2\n        /* \"#utility.yul\":5195:5208   */\n      mload\n        /* \"#utility.yul\":5186:5208   */\n      swap1\n      pop\n        /* \"#utility.yul\":5217:5250   */\n      tag_398\n        /* \"#utility.yul\":5244:5249   */\n      dup2\n        /* \"#utility.yul\":5217:5250   */\n      tag_297\n      jump\t// in\n    tag_398:\n        /* \"#utility.yul\":5113:5256   */\n      swap3\n      swap2\n      pop\n      pop\n      jump\t// out\n        /* \"#utility.yul\":5262:5613   */\n    tag_106:\n        /* \"#utility.yul\":5332:5338   */\n      0x00\n        /* \"#utility.yul\":5381:5383   */\n      0x20\n        /* \"#utility.yul\":5369:5378   */\n      dup3\n        /* \"#utility.yul\":5360:5367   */\n      dup5\n        /* \"#utility.yul\":5356:5379   */\n      sub\n        /* \"#utility.yul\":5352:5384   */\n      slt\n        /* \"#utility.yul\":5349:5468   */\n      iszero\n      tag_400\n      jumpi\n        /* \"#utility.yul\":5387:5466   */\n      tag_401\n      tag_294\n      jump\t// in\n    tag_401:\n        /* \"#utility.yul\":5349:5468   */\n    tag_400:\n        /* \"#utility.yul\":5507:5508   */\n      0x00\n        /* \"#utility.yul\":5532:5596   */\n      tag_402\n        /* \"#utility.yul\":5588:5595   */\n      dup5\n        /* \"#utility.yul\":5579:5585   */\n      dup3\n        /* \"#utility.yul\":5568:5577   */\n      dup6\n        /* \"#utility.yul\":5564:5586   */\n      add\n        /* \"#utility.yul\":5532:5596   */\n      tag_312\n      jump\t// in\n    tag_402:\n        /* \"#utility.yul\":5522:5596   */\n      swap2\n      pop\n        /* \"#utility.yul\":5478:5606   */\n      pop\n        /* \"#utility.yul\":5262:5613   */\n      swap3\n      swap2\n      pop\n      pop\n      jump\t// out\n        /* \"#utility.yul\":5619:5798   */\n    tag_313:\n        /* \"#utility.yul\":5759:5790   */\n      0x4e6f7420656e6f75676820746f6b656e7320696e20636f6e7472616374000000\n        /* \"#utility.yul\":5755:5756   */\n      0x00\n        /* \"#utility.yul\":5747:5753   */\n      dup3\n        /* \"#utility.yul\":5743:5757   */\n      add\n        /* \"#utility.yul\":5736:5791   */\n      mstore\n        /* \"#utility.yul\":5619:5798   */\n      pop\n      jump\t// out\n        /* \"#utility.yul\":5804:6170   */\n    tag_314:\n        /* \"#utility.yul\":5946:5949   */\n      0x00\n        /* \"#utility.yul\":5967:6034   */\n      tag_405\n        /* \"#utility.yul\":6031:6033   */\n      0x1d\n        /* \"#utility.yul\":6026:6029   */\n      dup4\n        /* \"#utility.yul\":5967:6034   */\n      tag_307\n      jump\t// in\n    tag_405:\n        /* \"#utility.yul\":5960:6034   */\n      swap2\n      pop\n        /* \"#utility.yul\":6043:6136   */\n      tag_406\n        /* \"#utility.yul\":6132:6135   */\n      dup3\n        /* \"#utility.yul\":6043:6136   */\n      tag_313\n      jump\t// in\n    tag_406:\n        /* \"#utility.yul\":6161:6163   */\n      0x20\n        /* \"#utility.yul\":6156:6159   */\n      dup3\n        /* \"#utility.yul\":6152:6164   */\n      add\n        /* \"#utility.yul\":6145:6164   */\n      swap1\n      pop\n        /* \"#utility.yul\":5804:6170   */\n      swap2\n      swap1\n      pop\n      jump\t// out\n        /* \"#utility.yul\":6176:6595   */\n    tag_109:\n        /* \"#utility.yul\":6342:6346   */\n      0x00\n        /* \"#utility.yul\":6380:6382   */\n      0x20\n        /* \"#utility.yul\":6369:6378   */\n      dup3\n        /* \"#utility.yul\":6365:6383   */\n      add\n        /* \"#utility.yul\":6357:6383   */\n      swap1\n      pop\n        /* \"#utility.yul\":6429:6438   */\n      dup2\n        /* \"#utility.yul\":6423:6427   */\n      dup2\n        /* \"#utility.yul\":6419:6439   */\n      sub\n        /* \"#utility.yul\":6415:6416   */\n      0x00\n        /* \"#utility.yul\":6404:6413   */\n      dup4\n        /* \"#utility.yul\":6400:6417   */\n      add\n        /* \"#utility.yul\":6393:6440   */\n      mstore\n        /* \"#utility.yul\":6457:6588   */\n      tag_408\n        /* \"#utility.yul\":6583:6587   */\n      dup2\n        /* \"#utility.yul\":6457:6588   */\n      tag_314\n      jump\t// in\n    tag_408:\n        /* \"#utility.yul\":6449:6588   */\n      swap1\n      pop\n        /* \"#utility.yul\":6176:6595   */\n      swap2\n      swap1\n      pop\n      jump\t// out\n        /* \"#utility.yul\":6601:6933   */\n    tag_111:\n        /* \"#utility.yul\":6722:6726   */\n      0x00\n        /* \"#utility.yul\":6760:6762   */\n      0x40\n        /* \"#utility.yul\":6749:6758   */\n      dup3\n        /* \"#utility.yul\":6745:6763   */\n      add\n        /* \"#utility.yul\":6737:6763   */\n      swap1\n      pop\n        /* \"#utility.yul\":6773:6844   */\n      tag_410\n        /* \"#utility.yul\":6841:6842   */\n      0x00\n        /* \"#utility.yul\":6830:6839   */\n      dup4\n        /* \"#utility.yul\":6826:6843   */\n      add\n        /* \"#utility.yul\":6817:6823   */\n      dup6\n        /* \"#utility.yul\":6773:6844   */\n      tag_301\n      jump\t// in\n    tag_410:\n        /* \"#utility.yul\":6854:6926   */\n      tag_411\n        /* \"#utility.yul\":6922:6924   */\n      0x20\n        /* \"#utility.yul\":6911:6920   */\n      dup4\n        /* \"#utility.yul\":6907:6925   */\n      add\n        /* \"#utility.yul\":6898:6904   */\n      dup5\n        /* \"#utility.yul\":6854:6926   */\n      tag_304\n      jump\t// in\n    tag_411:\n        /* \"#utility.yul\":6601:6933   */\n      swap4\n      swap3\n      pop\n      pop\n      pop\n      jump\t// out\n        /* \"#utility.yul\":6939:7055   */\n    tag_315:\n        /* \"#utility.yul\":7009:7030   */\n      tag_413\n        /* \"#utility.yul\":7024:7029   */\n      dup2\n        /* \"#utility.yul\":7009:7030   */\n      tag_302\n      jump\t// in\n    tag_413:\n        /* \"#utility.yul\":7002:7007   */\n      dup2\n        /* \"#utility.yul\":6999:7031   */\n      eq\n        /* \"#utility.yul\":6989:7049   */\n      tag_414\n      jumpi\n        /* \"#utility.yul\":7045:7046   */\n      0x00\n        /* \"#utility.yul\":7042:7043   */\n      dup1\n        /* \"#utility.yul\":7035:7047   */\n      revert\n        /* \"#utility.yul\":6989:7049   */\n    tag_414:\n        /* \"#utility.yul\":6939:7055   */\n      pop\n      jump\t// out\n        /* \"#utility.yul\":7061:7198   */\n    tag_316:\n        /* \"#utility.yul\":7115:7120   */\n      0x00\n        /* \"#utility.yul\":7146:7152   */\n      dup2\n        /* \"#utility.yul\":7140:7153   */\n      mload\n        /* \"#utility.yul\":7131:7153   */\n      swap1\n      pop\n        /* \"#utility.yul\":7162:7192   */\n      tag_416\n        /* \"#utility.yul\":7186:7191   */\n      dup2\n        /* \"#utility.yul\":7162:7192   */\n      tag_315\n      jump\t// in\n    tag_416:\n        /* \"#utility.yul\":7061:7198   */\n      swap3\n      swap2\n      pop\n      pop\n      jump\t// out\n        /* \"#utility.yul\":7204:7549   */\n    tag_115:\n        /* \"#utility.yul\":7271:7277   */\n      0x00\n        /* \"#utility.yul\":7320:7322   */\n      0x20\n        /* \"#utility.yul\":7308:7317   */\n      dup3\n        /* \"#utility.yul\":7299:7306   */\n      dup5\n        /* \"#utility.yul\":7295:7318   */\n      sub\n        /* \"#utility.yul\":7291:7323   */\n      slt\n        /* \"#utility.yul\":7288:7407   */\n      iszero\n      tag_418\n      jumpi\n        /* \"#utility.yul\":7326:7405   */\n      tag_419\n      tag_294\n      jump\t// in\n    tag_419:\n        /* \"#utility.yul\":7288:7407   */\n    tag_418:\n        /* \"#utility.yul\":7446:7447   */\n      0x00\n        /* \"#utility.yul\":7471:7532   */\n      tag_420\n        /* \"#utility.yul\":7524:7531   */\n      dup5\n        /* \"#utility.yul\":7515:7521   */\n      dup3\n        /* \"#utility.yul\":7504:7513   */\n      dup6\n        /* \"#utility.yul\":7500:7522   */\n      add\n        /* \"#utility.yul\":7471:7532   */\n      tag_316\n      jump\t// in\n    tag_420:\n        /* \"#utility.yul\":7461:7532   */\n      swap2\n      pop\n        /* \"#utility.yul\":7417:7542   */\n      pop\n        /* \"#utility.yul\":7204:7549   */\n      swap3\n      swap2\n      pop\n      pop\n      jump\t// out\n        /* \"#utility.yul\":7555:7736   */\n    tag_317:\n        /* \"#utility.yul\":7695:7728   */\n      0x5061796d656e7420746f6b656e207769746864726177616c206661696c656400\n        /* \"#utility.yul\":7691:7692   */\n      0x00\n        /* \"#utility.yul\":7683:7689   */\n      dup3\n        /* \"#utility.yul\":7679:7693   */\n      add\n        /* \"#utility.yul\":7672:7729   */\n      mstore\n        /* \"#utility.yul\":7555:7736   */\n      pop\n      jump\t// out\n        /* \"#utility.yul\":7742:8108   */\n    tag_318:\n        /* \"#utility.yul\":7884:7887   */\n      0x00\n        /* \"#utility.yul\":7905:7972   */\n      tag_423\n        /* \"#utility.yul\":7969:7971   */\n      0x1f\n        /* \"#utility.yul\":7964:7967   */\n      dup4\n        /* \"#utility.yul\":7905:7972   */\n      tag_307\n      jump\t// in\n    tag_423:\n        /* \"#utility.yul\":7898:7972   */\n      swap2\n      pop\n        /* \"#utility.yul\":7981:8074   */\n      tag_424\n        /* \"#utility.yul\":8070:8073   */\n      dup3\n        /* \"#utility.yul\":7981:8074   */\n      tag_317\n      jump\t// in\n    tag_424:\n        /* \"#utility.yul\":8099:8101   */\n      0x20\n        /* \"#utility.yul\":8094:8097   */\n      dup3\n        /* \"#utility.yul\":8090:8102   */\n      add\n        /* \"#utility.yul\":8083:8102   */\n      swap1\n      pop\n        /* \"#utility.yul\":7742:8108   */\n      swap2\n      swap1\n      pop\n      jump\t// out\n        /* \"#utility.yul\":8114:8533   */\n    tag_118:\n        /* \"#utility.yul\":8280:8284   */\n      0x00\n        /* \"#utility.yul\":8318:8320   */\n      0x20\n        /* \"#utility.yul\":8307:8316   */\n      dup3\n        /* \"#utility.yul\":8303:8321   */\n      add\n        /* \"#utility.yul\":8295:8321   */\n      swap1\n      pop\n        /* \"#utility.yul\":8367:8376   */\n      dup2\n        /* \"#utility.yul\":8361:8365   */\n      dup2\n        /* \"#utility.yul\":8357:8377   */\n      sub\n        /* \"#utility.yul\":8353:8354   */\n      0x00\n        /* \"#utility.yul\":8342:8351   */\n      dup4\n        /* \"#utility.yul\":8338:8355   */\n      add\n        /* \"#utility.yul\":8331:8378   */\n      mstore\n        /* \"#utility.yul\":8395:8526   */\n      tag_426\n        /* \"#utility.yul\":8521:8525   */\n      dup2\n        /* \"#utility.yul\":8395:8526   */\n      tag_318\n      jump\t// in\n    tag_426:\n        /* \"#utility.yul\":8387:8526   */\n      swap1\n      pop\n        /* \"#utility.yul\":8114:8533   */\n      swap2\n      swap1\n      pop\n      jump\t// out\n        /* \"#utility.yul\":8539:8705   */\n    tag_319:\n        /* \"#utility.yul\":8679:8697   */\n      0x5061757361626c653a2070617573656400000000000000000000000000000000\n        /* \"#utility.yul\":8675:8676   */\n      0x00\n        /* \"#utility.yul\":8667:8673   */\n      dup3\n        /* \"#utility.yul\":8663:8677   */\n      add\n        /* \"#utility.yul\":8656:8698   */\n      mstore\n        /* \"#utility.yul\":8539:8705   */\n      pop\n      jump\t// out\n        /* \"#utility.yul\":8711:9077   */\n    tag_320:\n        /* \"#utility.yul\":8853:8856   */\n      0x00\n        /* \"#utility.yul\":8874:8941   */\n      tag_429\n        /* \"#utility.yul\":8938:8940   */\n      0x10\n        /* \"#utility.yul\":8933:8936   */\n      dup4\n        /* \"#utility.yul\":8874:8941   */\n      tag_307\n      jump\t// in\n    tag_429:\n        /* \"#utility.yul\":8867:8941   */\n      swap2\n      pop\n        /* \"#utility.yul\":8950:9043   */\n      tag_430\n        /* \"#utility.yul\":9039:9042   */\n      dup3\n        /* \"#utility.yul\":8950:9043   */\n      tag_319\n      jump\t// in\n    tag_430:\n        /* \"#utility.yul\":9068:9070   */\n      0x20\n        /* \"#utility.yul\":9063:9066   */\n      dup3\n        /* \"#utility.yul\":9059:9071   */\n      add\n        /* \"#utility.yul\":9052:9071   */\n      swap1\n      pop\n        /* \"#utility.yul\":8711:9077   */\n      swap2\n      swap1\n      pop\n      jump\t// out\n        /* \"#utility.yul\":9083:9502   */\n    tag_134:\n        /* \"#utility.yul\":9249:9253   */\n      0x00\n        /* \"#utility.yul\":9287:9289   */\n      0x20\n        /* \"#utility.yul\":9276:9285   */\n      dup3\n        /* \"#utility.yul\":9272:9290   */\n      add\n        /* \"#utility.yul\":9264:9290   */\n      swap1\n      pop\n        /* \"#utility.yul\":9336:9345   */\n      dup2\n        /* \"#utility.yul\":9330:9334   */\n      dup2\n        /* \"#utility.yul\":9326:9346   */\n      sub\n        /* \"#utility.yul\":9322:9323   */\n      0x00\n        /* \"#utility.yul\":9311:9320   */\n      dup4\n        /* \"#utility.yul\":9307:9324   */\n      add\n        /* \"#utility.yul\":9300:9347   */\n      mstore\n        /* \"#utility.yul\":9364:9495   */\n      tag_432\n        /* \"#utility.yul\":9490:9494   */\n      dup2\n        /* \"#utility.yul\":9364:9495   */\n      tag_320\n      jump\t// in\n    tag_432:\n        /* \"#utility.yul\":9356:9495   */\n      swap1\n      pop\n        /* \"#utility.yul\":9083:9502   */\n      swap2\n      swap1\n      pop\n      jump\t// out\n        /* \"#utility.yul\":9508:9680   */\n    tag_321:\n        /* \"#utility.yul\":9648:9672   */\n      0x4d757374206465706f73697420526f626f4d6f6e657900000000000000000000\n        /* \"#utility.yul\":9644:9645   */\n      0x00\n        /* \"#utility.yul\":9636:9642   */\n      dup3\n        /* \"#utility.yul\":9632:9646   */\n      add\n        /* \"#utility.yul\":9625:9673   */\n      mstore\n        /* \"#utility.yul\":9508:9680   */\n      pop\n      jump\t// out\n        /* \"#utility.yul\":9686:10052   */\n    tag_322:\n        /* \"#utility.yul\":9828:9831   */\n      0x00\n        /* \"#utility.yul\":9849:9916   */\n      tag_435\n        /* \"#utility.yul\":9913:9915   */\n      0x16\n        /* \"#utility.yul\":9908:9911   */\n      dup4\n        /* \"#utility.yul\":9849:9916   */\n      tag_307\n      jump\t// in\n    tag_435:\n        /* \"#utility.yul\":9842:9916   */\n      swap2\n      pop\n        /* \"#utility.yul\":9925:10018   */\n      tag_436\n        /* \"#utility.yul\":10014:10017   */\n      dup3\n        /* \"#utility.yul\":9925:10018   */\n      tag_321\n      jump\t// in\n    tag_436:\n        /* \"#utility.yul\":10043:10045   */\n      0x20\n        /* \"#utility.yul\":10038:10041   */\n      dup3\n        /* \"#utility.yul\":10034:10046   */\n      add\n        /* \"#utility.yul\":10027:10046   */\n      swap1\n      pop\n        /* \"#utility.yul\":9686:10052   */\n      swap2\n      swap1\n      pop\n      jump\t// out\n        /* \"#utility.yul\":10058:10477   */\n    tag_141:\n        /* \"#utility.yul\":10224:10228   */\n      0x00\n        /* \"#utility.yul\":10262:10264   */\n      0x20\n        /* \"#utility.yul\":10251:10260   */\n      dup3\n        /* \"#utility.yul\":10247:10265   */\n      add\n        /* \"#utility.yul\":10239:10265   */\n      swap1\n      pop\n        /* \"#utility.yul\":10311:10320   */\n      dup2\n        /* \"#utility.yul\":10305:10309   */\n      dup2\n        /* \"#utility.yul\":10301:10321   */\n      sub\n        /* \"#utility.yul\":10297:10298   */\n      0x00\n        /* \"#utility.yul\":10286:10295   */\n      dup4\n        /* \"#utility.yul\":10282:10299   */\n      add\n        /* \"#utility.yul\":10275:10322   */\n      mstore\n        /* \"#utility.yul\":10339:10470   */\n      tag_438\n        /* \"#utility.yul\":10465:10469   */\n      dup2\n        /* \"#utility.yul\":10339:10470   */\n      tag_322\n      jump\t// in\n    tag_438:\n        /* \"#utility.yul\":10331:10470   */\n      swap1\n      pop\n        /* \"#utility.yul\":10058:10477   */\n      swap2\n      swap1\n      pop\n      jump\t// out\n        /* \"#utility.yul\":10483:10815   */\n    tag_143:\n        /* \"#utility.yul\":10604:10608   */\n      0x00\n        /* \"#utility.yul\":10642:10644   */\n      0x40\n        /* \"#utility.yul\":10631:10640   */\n      dup3\n        /* \"#utility.yul\":10627:10645   */\n      add\n        /* \"#utility.yul\":10619:10645   */\n      swap1\n      pop\n        /* \"#utility.yul\":10655:10726   */\n      tag_440\n        /* \"#utility.yul\":10723:10724   */\n      0x00\n        /* \"#utility.yul\":10712:10721   */\n      dup4\n        /* \"#utility.yul\":10708:10725   */\n      add\n        /* \"#utility.yul\":10699:10705   */\n      dup6\n        /* \"#utility.yul\":10655:10726   */\n      tag_301\n      jump\t// in\n    tag_440:\n        /* \"#utility.yul\":10736:10808   */\n      tag_441\n        /* \"#utility.yul\":10804:10806   */\n      0x20\n        /* \"#utility.yul\":10793:10802   */\n      dup4\n        /* \"#utility.yul\":10789:10807   */\n      add\n        /* \"#utility.yul\":10780:10786   */\n      dup5\n        /* \"#utility.yul\":10736:10808   */\n      tag_301\n      jump\t// in\n    tag_441:\n        /* \"#utility.yul\":10483:10815   */\n      swap4\n      swap3\n      pop\n      pop\n      pop\n      jump\t// out\n        /* \"#utility.yul\":10821:11003   */\n    tag_323:\n        /* \"#utility.yul\":10961:10995   */\n      0x496e73756666696369656e7420526f626f4d6f6e657920616c6c6f77616e6365\n        /* \"#utility.yul\":10957:10958   */\n      0x00\n        /* \"#utility.yul\":10949:10955   */\n      dup3\n        /* \"#utility.yul\":10945:10959   */\n      add\n        /* \"#utility.yul\":10938:10996   */\n      mstore\n        /* \"#utility.yul\":10821:11003   */\n      pop\n      jump\t// out\n        /* \"#utility.yul\":11009:11375   */\n    tag_324:\n        /* \"#utility.yul\":11151:11154   */\n      0x00\n        /* \"#utility.yul\":11172:11239   */\n      tag_444\n        /* \"#utility.yul\":11236:11238   */\n      0x20\n        /* \"#utility.yul\":11231:11234   */\n      dup4\n        /* \"#utility.yul\":11172:11239   */\n      tag_307\n      jump\t// in\n    tag_444:\n        /* \"#utility.yul\":11165:11239   */\n      swap2\n      pop\n        /* \"#utility.yul\":11248:11341   */\n      tag_445\n        /* \"#utility.yul\":11337:11340   */\n      dup3\n        /* \"#utility.yul\":11248:11341   */\n      tag_323\n      jump\t// in\n    tag_445:\n        /* \"#utility.yul\":11366:11368   */\n      0x20\n        /* \"#utility.yul\":11361:11364   */\n      dup3\n        /* \"#utility.yul\":11357:11369   */\n      add\n        /* \"#utility.yul\":11350:11369   */\n      swap1\n      pop\n        /* \"#utility.yul\":11009:11375   */\n      swap2\n      swap1\n      pop\n      jump\t// out\n        /* \"#utility.yul\":11381:11800   */\n    tag_149:\n        /* \"#utility.yul\":11547:11551   */\n      0x00\n        /* \"#utility.yul\":11585:11587   */\n      0x20\n        /* \"#utility.yul\":11574:11583   */\n      dup3\n        /* \"#utility.yul\":11570:11588   */\n      add\n        /* \"#utility.yul\":11562:11588   */\n      swap1\n      pop\n        /* \"#utility.yul\":11634:11643   */\n      dup2\n        /* \"#utility.yul\":11628:11632   */\n      dup2\n        /* \"#utility.yul\":11624:11644   */\n      sub\n        /* \"#utility.yul\":11620:11621   */\n      0x00\n        /* \"#utility.yul\":11609:11618   */\n      dup4\n        /* \"#utility.yul\":11605:11622   */\n      add\n        /* \"#utility.yul\":11598:11645   */\n      mstore\n        /* \"#utility.yul\":11662:11793   */\n      tag_447\n        /* \"#utility.yul\":11788:11792   */\n      dup2\n        /* \"#utility.yul\":11662:11793   */\n      tag_324\n      jump\t// in\n    tag_447:\n        /* \"#utility.yul\":11654:11793   */\n      swap1\n      pop\n        /* \"#utility.yul\":11381:11800   */\n      swap2\n      swap1\n      pop\n      jump\t// out\n        /* \"#utility.yul\":11806:11986   */\n    tag_325:\n        /* \"#utility.yul\":11854:11931   */\n      0x4e487b7100000000000000000000000000000000000000000000000000000000\n        /* \"#utility.yul\":11851:11852   */\n      0x00\n        /* \"#utility.yul\":11844:11932   */\n      mstore\n        /* \"#utility.yul\":11951:11955   */\n      0x11\n        /* \"#utility.yul\":11948:11949   */\n      0x04\n        /* \"#utility.yul\":11941:11956   */\n      mstore\n        /* \"#utility.yul\":11975:11979   */\n      0x24\n        /* \"#utility.yul\":11972:11973   */\n      0x00\n        /* \"#utility.yul\":11965:11980   */\n      revert\n        /* \"#utility.yul\":11992:12183   */\n    tag_153:\n        /* \"#utility.yul\":12032:12035   */\n      0x00\n        /* \"#utility.yul\":12051:12071   */\n      tag_450\n        /* \"#utility.yul\":12069:12070   */\n      dup3\n        /* \"#utility.yul\":12051:12071   */\n      tag_296\n      jump\t// in\n    tag_450:\n        /* \"#utility.yul\":12046:12071   */\n      swap2\n      pop\n        /* \"#utility.yul\":12085:12105   */\n      tag_451\n        /* \"#utility.yul\":12103:12104   */\n      dup4\n        /* \"#utility.yul\":12085:12105   */\n      tag_296\n      jump\t// in\n    tag_451:\n        /* \"#utility.yul\":12080:12105   */\n      swap3\n      pop\n        /* \"#utility.yul\":12128:12129   */\n      dup3\n        /* \"#utility.yul\":12125:12126   */\n      dup3\n        /* \"#utility.yul\":12121:12130   */\n      add\n        /* \"#utility.yul\":12114:12130   */\n      swap1\n      pop\n        /* \"#utility.yul\":12149:12152   */\n      dup1\n        /* \"#utility.yul\":12146:12147   */\n      dup3\n        /* \"#utility.yul\":12143:12153   */\n      gt\n        /* \"#utility.yul\":12140:12176   */\n      iszero\n      tag_452\n      jumpi\n        /* \"#utility.yul\":12156:12174   */\n      tag_453\n      tag_325\n      jump\t// in\n    tag_453:\n        /* \"#utility.yul\":12140:12176   */\n    tag_452:\n        /* \"#utility.yul\":11992:12183   */\n      swap3\n      swap2\n      pop\n      pop\n      jump\t// out\n        /* \"#utility.yul\":12189:12599   */\n    tag_155:\n        /* \"#utility.yul\":12229:12236   */\n      0x00\n        /* \"#utility.yul\":12252:12272   */\n      tag_455\n        /* \"#utility.yul\":12270:12271   */\n      dup3\n        /* \"#utility.yul\":12252:12272   */\n      tag_296\n      jump\t// in\n    tag_455:\n        /* \"#utility.yul\":12247:12272   */\n      swap2\n      pop\n        /* \"#utility.yul\":12286:12306   */\n      tag_456\n        /* \"#utility.yul\":12304:12305   */\n      dup4\n        /* \"#utility.yul\":12286:12306   */\n      tag_296\n      jump\t// in\n    tag_456:\n        /* \"#utility.yul\":12281:12306   */\n      swap3\n      pop\n        /* \"#utility.yul\":12341:12342   */\n      dup3\n        /* \"#utility.yul\":12338:12339   */\n      dup3\n        /* \"#utility.yul\":12334:12343   */\n      mul\n        /* \"#utility.yul\":12363:12393   */\n      tag_457\n        /* \"#utility.yul\":12381:12392   */\n      dup2\n        /* \"#utility.yul\":12363:12393   */\n      tag_296\n      jump\t// in\n    tag_457:\n        /* \"#utility.yul\":12352:12393   */\n      swap2\n      pop\n        /* \"#utility.yul\":12542:12543   */\n      dup3\n        /* \"#utility.yul\":12533:12540   */\n      dup3\n        /* \"#utility.yul\":12529:12544   */\n      div\n        /* \"#utility.yul\":12526:12527   */\n      dup5\n        /* \"#utility.yul\":12523:12545   */\n      eq\n        /* \"#utility.yul\":12503:12504   */\n      dup4\n        /* \"#utility.yul\":12496:12505   */\n      iszero\n        /* \"#utility.yul\":12476:12559   */\n      or\n        /* \"#utility.yul\":12453:12592   */\n      tag_458\n      jumpi\n        /* \"#utility.yul\":12572:12590   */\n      tag_459\n      tag_325\n      jump\t// in\n    tag_459:\n        /* \"#utility.yul\":12453:12592   */\n    tag_458:\n        /* \"#utility.yul\":12237:12599   */\n      pop\n        /* \"#utility.yul\":12189:12599   */\n      swap3\n      swap2\n      pop\n      pop\n      jump\t// out\n        /* \"#utility.yul\":12605:12785   */\n    tag_326:\n        /* \"#utility.yul\":12653:12730   */\n      0x4e487b7100000000000000000000000000000000000000000000000000000000\n        /* \"#utility.yul\":12650:12651   */\n      0x00\n        /* \"#utility.yul\":12643:12731   */\n      mstore\n        /* \"#utility.yul\":12750:12754   */\n      0x12\n        /* \"#utility.yul\":12747:12748   */\n      0x04\n        /* \"#utility.yul\":12740:12755   */\n      mstore\n        /* \"#utility.yul\":12774:12778   */\n      0x24\n        /* \"#utility.yul\":12771:12772   */\n      0x00\n        /* \"#utility.yul\":12764:12779   */\n      revert\n        /* \"#utility.yul\":12791:12976   */\n    tag_157:\n        /* \"#utility.yul\":12831:12832   */\n      0x00\n        /* \"#utility.yul\":12848:12868   */\n      tag_462\n        /* \"#utility.yul\":12866:12867   */\n      dup3\n        /* \"#utility.yul\":12848:12868   */\n      tag_296\n      jump\t// in\n    tag_462:\n        /* \"#utility.yul\":12843:12868   */\n      swap2\n      pop\n        /* \"#utility.yul\":12882:12902   */\n      tag_463\n        /* \"#utility.yul\":12900:12901   */\n      dup4\n        /* \"#utility.yul\":12882:12902   */\n      tag_296\n      jump\t// in\n    tag_463:\n        /* \"#utility.yul\":12877:12902   */\n      swap3\n      pop\n        /* \"#utility.yul\":12921:12922   */\n      dup3\n        /* \"#utility.yul\":12911:12946   */\n      tag_464\n      jumpi\n        /* \"#utility.yul\":12926:12944   */\n      tag_465\n      tag_326\n      jump\t// in\n    tag_465:\n        /* \"#utility.yul\":12911:12946   */\n    tag_464:\n        /* \"#utility.yul\":12968:12969   */\n      dup3\n        /* \"#utility.yul\":12965:12966   */\n      dup3\n        /* \"#utility.yul\":12961:12970   */\n      div\n        /* \"#utility.yul\":12956:12970   */\n      swap1\n      pop\n        /* \"#utility.yul\":12791:12976   */\n      swap3\n      swap2\n      pop\n      pop\n      jump\t// out\n        /* \"#utility.yul\":12982:13204   */\n    tag_327:\n        /* \"#utility.yul\":13122:13156   */\n      0x4e6f7420656e6f756768207061796d656e74546f6b656e20696e20636f6e7472\n        /* \"#utility.yul\":13118:13119   */\n      0x00\n        /* \"#utility.yul\":13110:13116   */\n      dup3\n        /* \"#utility.yul\":13106:13120   */\n      add\n        /* \"#utility.yul\":13099:13157   */\n      mstore\n        /* \"#utility.yul\":13191:13196   */\n      0x6163740000000000000000000000000000000000000000000000000000000000\n        /* \"#utility.yul\":13186:13188   */\n      0x20\n        /* \"#utility.yul\":13178:13184   */\n      dup3\n        /* \"#utility.yul\":13174:13189   */\n      add\n        /* \"#utility.yul\":13167:13197   */\n      mstore\n        /* \"#utility.yul\":12982:13204   */\n      pop\n      jump\t// out\n        /* \"#utility.yul\":13210:13576   */\n    tag_328:\n        /* \"#utility.yul\":13352:13355   */\n      0x00\n        /* \"#utility.yul\":13373:13440   */\n      tag_468\n        /* \"#utility.yul\":13437:13439   */\n      0x23\n        /* \"#utility.yul\":13432:13435   */\n      dup4\n        /* \"#utility.yul\":13373:13440   */\n      tag_307\n      jump\t// in\n    tag_468:\n        /* \"#utility.yul\":13366:13440   */\n      swap2\n      pop\n        /* \"#utility.yul\":13449:13542   */\n      tag_469\n        /* \"#utility.yul\":13538:13541   */\n      dup3\n        /* \"#utility.yul\":13449:13542   */\n      tag_327\n      jump\t// in\n    tag_469:\n        /* \"#utility.yul\":13567:13569   */\n      0x40\n        /* \"#utility.yul\":13562:13565   */\n      dup3\n        /* \"#utility.yul\":13558:13570   */\n      add\n        /* \"#utility.yul\":13551:13570   */\n      swap1\n      pop\n        /* \"#utility.yul\":13210:13576   */\n      swap2\n      swap1\n      pop\n      jump\t// out\n        /* \"#utility.yul\":13582:14001   */\n    tag_166:\n        /* \"#utility.yul\":13748:13752   */\n      0x00\n        /* \"#utility.yul\":13786:13788   */\n      0x20\n        /* \"#utility.yul\":13775:13784   */\n      dup3\n        /* \"#utility.yul\":13771:13789   */\n      add\n        /* \"#utility.yul\":13763:13789   */\n      swap1\n      pop\n        /* \"#utility.yul\":13835:13844   */\n      dup2\n        /* \"#utility.yul\":13829:13833   */\n      dup2\n        /* \"#utility.yul\":13825:13845   */\n      sub\n        /* \"#utility.yul\":13821:13822   */\n      0x00\n        /* \"#utility.yul\":13810:13819   */\n      dup4\n        /* \"#utility.yul\":13806:13823   */\n      add\n        /* \"#utility.yul\":13799:13846   */\n      mstore\n        /* \"#utility.yul\":13863:13994   */\n      tag_471\n        /* \"#utility.yul\":13989:13993   */\n      dup2\n        /* \"#utility.yul\":13863:13994   */\n      tag_328\n      jump\t// in\n    tag_471:\n        /* \"#utility.yul\":13855:13994   */\n      swap1\n      pop\n        /* \"#utility.yul\":13582:14001   */\n      swap2\n      swap1\n      pop\n      jump\t// out\n        /* \"#utility.yul\":14007:14201   */\n    tag_170:\n        /* \"#utility.yul\":14047:14051   */\n      0x00\n        /* \"#utility.yul\":14067:14087   */\n      tag_473\n        /* \"#utility.yul\":14085:14086   */\n      dup3\n        /* \"#utility.yul\":14067:14087   */\n      tag_296\n      jump\t// in\n    tag_473:\n        /* \"#utility.yul\":14062:14087   */\n      swap2\n      pop\n        /* \"#utility.yul\":14101:14121   */\n      tag_474\n        /* \"#utility.yul\":14119:14120   */\n      dup4\n        /* \"#utility.yul\":14101:14121   */\n      tag_296\n      jump\t// in\n    tag_474:\n        /* \"#utility.yul\":14096:14121   */\n      swap3\n      pop\n        /* \"#utility.yul\":14145:14146   */\n      dup3\n        /* \"#utility.yul\":14142:14143   */\n      dup3\n        /* \"#utility.yul\":14138:14147   */\n      sub\n        /* \"#utility.yul\":14130:14147   */\n      swap1\n      pop\n        /* \"#utility.yul\":14169:14170   */\n      dup2\n        /* \"#utility.yul\":14163:14167   */\n      dup2\n        /* \"#utility.yul\":14160:14171   */\n      gt\n        /* \"#utility.yul\":14157:14194   */\n      iszero\n      tag_475\n      jumpi\n        /* \"#utility.yul\":14174:14192   */\n      tag_476\n      tag_325\n      jump\t// in\n    tag_476:\n        /* \"#utility.yul\":14157:14194   */\n    tag_475:\n        /* \"#utility.yul\":14007:14201   */\n      swap3\n      swap2\n      pop\n      pop\n      jump\t// out\n        /* \"#utility.yul\":14207:14539   */\n    tag_179:\n        /* \"#utility.yul\":14328:14332   */\n      0x00\n        /* \"#utility.yul\":14366:14368   */\n      0x40\n        /* \"#utility.yul\":14355:14364   */\n      dup3\n        /* \"#utility.yul\":14351:14369   */\n      add\n        /* \"#utility.yul\":14343:14369   */\n      swap1\n      pop\n        /* \"#utility.yul\":14379:14450   */\n      tag_478\n        /* \"#utility.yul\":14447:14448   */\n      0x00\n        /* \"#utility.yul\":14436:14445   */\n      dup4\n        /* \"#utility.yul\":14432:14449   */\n      add\n        /* \"#utility.yul\":14423:14429   */\n      dup6\n        /* \"#utility.yul\":14379:14450   */\n      tag_304\n      jump\t// in\n    tag_478:\n        /* \"#utility.yul\":14460:14532   */\n      tag_479\n        /* \"#utility.yul\":14528:14530   */\n      0x20\n        /* \"#utility.yul\":14517:14526   */\n      dup4\n        /* \"#utility.yul\":14513:14531   */\n      add\n        /* \"#utility.yul\":14504:14510   */\n      dup5\n        /* \"#utility.yul\":14460:14532   */\n      tag_304\n      jump\t// in\n    tag_479:\n        /* \"#utility.yul\":14207:14539   */\n      swap4\n      swap3\n      pop\n      pop\n      pop\n      jump\t// out\n        /* \"#utility.yul\":14545:14715   */\n    tag_329:\n        /* \"#utility.yul\":14685:14707   */\n      0x496e76616c6964207072656d69756d2072617465000000000000000000000000\n        /* \"#utility.yul\":14681:14682   */\n      0x00\n        /* \"#utility.yul\":14673:14679   */\n      dup3\n        /* \"#utility.yul\":14669:14683   */\n      add\n        /* \"#utility.yul\":14662:14708   */\n      mstore\n        /* \"#utility.yul\":14545:14715   */\n      pop\n      jump\t// out\n        /* \"#utility.yul\":14721:15087   */\n    tag_330:\n        /* \"#utility.yul\":14863:14866   */\n      0x00\n        /* \"#utility.yul\":14884:14951   */\n      tag_482\n        /* \"#utility.yul\":14948:14950   */\n      0x14\n        /* \"#utility.yul\":14943:14946   */\n      dup4\n        /* \"#utility.yul\":14884:14951   */\n      tag_307\n      jump\t// in\n    tag_482:\n        /* \"#utility.yul\":14877:14951   */\n      swap2\n      pop\n        /* \"#utility.yul\":14960:15053   */\n      tag_483\n        /* \"#utility.yul\":15049:15052   */\n      dup3\n        /* \"#utility.yul\":14960:15053   */\n      tag_329\n      jump\t// in\n    tag_483:\n        /* \"#utility.yul\":15078:15080   */\n      0x20\n        /* \"#utility.yul\":15073:15076   */\n      dup3\n        /* \"#utility.yul\":15069:15081   */\n      add\n        /* \"#utility.yul\":15062:15081   */\n      swap1\n      pop\n        /* \"#utility.yul\":14721:15087   */\n      swap2\n      swap1\n      pop\n      jump\t// out\n        /* \"#utility.yul\":15093:15512   */\n    tag_188:\n        /* \"#utility.yul\":15259:15263   */\n      0x00\n        /* \"#utility.yul\":15297:15299   */\n      0x20\n        /* \"#utility.yul\":15286:15295   */\n      dup3\n        /* \"#utility.yul\":15282:15300   */\n      add\n        /* \"#utility.yul\":15274:15300   */\n      swap1\n      pop\n        /* \"#utility.yul\":15346:15355   */\n      dup2\n        /* \"#utility.yul\":15340:15344   */\n      dup2\n        /* \"#utility.yul\":15336:15356   */\n      sub\n        /* \"#utility.yul\":15332:15333   */\n      0x00\n        /* \"#utility.yul\":15321:15330   */\n      dup4\n        /* \"#utility.yul\":15317:15334   */\n      add\n        /* \"#utility.yul\":15310:15357   */\n      mstore\n        /* \"#utility.yul\":15374:15505   */\n      tag_485\n        /* \"#utility.yul\":15500:15504   */\n      dup2\n        /* \"#utility.yul\":15374:15505   */\n      tag_330\n      jump\t// in\n    tag_485:\n        /* \"#utility.yul\":15366:15505   */\n      swap1\n      pop\n        /* \"#utility.yul\":15093:15512   */\n      swap2\n      swap1\n      pop\n      jump\t// out\n        /* \"#utility.yul\":15518:15687   */\n    tag_331:\n        /* \"#utility.yul\":15658:15679   */\n      0x4465706f736974206d757374206265203e203000000000000000000000000000\n        /* \"#utility.yul\":15654:15655   */\n      0x00\n        /* \"#utility.yul\":15646:15652   */\n      dup3\n        /* \"#utility.yul\":15642:15656   */\n      add\n        /* \"#utility.yul\":15635:15680   */\n      mstore\n        /* \"#utility.yul\":15518:15687   */\n      pop\n      jump\t// out\n        /* \"#utility.yul\":15693:16059   */\n    tag_332:\n        /* \"#utility.yul\":15835:15838   */\n      0x00\n        /* \"#utility.yul\":15856:15923   */\n      tag_488\n        /* \"#utility.yul\":15920:15922   */\n      0x13\n        /* \"#utility.yul\":15915:15918   */\n      dup4\n        /* \"#utility.yul\":15856:15923   */\n      tag_307\n      jump\t// in\n    tag_488:\n        /* \"#utility.yul\":15849:15923   */\n      swap2\n      pop\n        /* \"#utility.yul\":15932:16025   */\n      tag_489\n        /* \"#utility.yul\":16021:16024   */\n      dup3\n        /* \"#utility.yul\":15932:16025   */\n      tag_331\n      jump\t// in\n    tag_489:\n        /* \"#utility.yul\":16050:16052   */\n      0x20\n        /* \"#utility.yul\":16045:16048   */\n      dup3\n        /* \"#utility.yul\":16041:16053   */\n      add\n        /* \"#utility.yul\":16034:16053   */\n      swap1\n      pop\n        /* \"#utility.yul\":15693:16059   */\n      swap2\n      swap1\n      pop\n      jump\t// out\n        /* \"#utility.yul\":16065:16484   */\n    tag_215:\n        /* \"#utility.yul\":16231:16235   */\n      0x00\n        /* \"#utility.yul\":16269:16271   */\n      0x20\n        /* \"#utility.yul\":16258:16267   */\n      dup3\n        /* \"#utility.yul\":16254:16272   */\n      add\n        /* \"#utility.yul\":16246:16272   */\n      swap1\n      pop\n        /* \"#utility.yul\":16318:16327   */\n      dup2\n        /* \"#utility.yul\":16312:16316   */\n      dup2\n        /* \"#utility.yul\":16308:16328   */\n      sub\n        /* \"#utility.yul\":16304:16305   */\n      0x00\n        /* \"#utility.yul\":16293:16302   */\n      dup4\n        /* \"#utility.yul\":16289:16306   */\n      add\n        /* \"#utility.yul\":16282:16329   */\n      mstore\n        /* \"#utility.yul\":16346:16477   */\n      tag_491\n        /* \"#utility.yul\":16472:16476   */\n      dup2\n        /* \"#utility.yul\":16346:16477   */\n      tag_332\n      jump\t// in\n    tag_491:\n        /* \"#utility.yul\":16338:16477   */\n      swap1\n      pop\n        /* \"#utility.yul\":16065:16484   */\n      swap2\n      swap1\n      pop\n      jump\t// out\n        /* \"#utility.yul\":16490:16932   */\n    tag_217:\n        /* \"#utility.yul\":16639:16643   */\n      0x00\n        /* \"#utility.yul\":16677:16679   */\n      0x60\n        /* \"#utility.yul\":16666:16675   */\n      dup3\n        /* \"#utility.yul\":16662:16680   */\n      add\n        /* \"#utility.yul\":16654:16680   */\n      swap1\n      pop\n        /* \"#utility.yul\":16690:16761   */\n      tag_493\n        /* \"#utility.yul\":16758:16759   */\n      0x00\n        /* \"#utility.yul\":16747:16756   */\n      dup4\n        /* \"#utility.yul\":16743:16760   */\n      add\n        /* \"#utility.yul\":16734:16740   */\n      dup7\n        /* \"#utility.yul\":16690:16761   */\n      tag_301\n      jump\t// in\n    tag_493:\n        /* \"#utility.yul\":16771:16843   */\n      tag_494\n        /* \"#utility.yul\":16839:16841   */\n      0x20\n        /* \"#utility.yul\":16828:16837   */\n      dup4\n        /* \"#utility.yul\":16824:16842   */\n      add\n        /* \"#utility.yul\":16815:16821   */\n      dup6\n        /* \"#utility.yul\":16771:16843   */\n      tag_301\n      jump\t// in\n    tag_494:\n        /* \"#utility.yul\":16853:16925   */\n      tag_495\n        /* \"#utility.yul\":16921:16923   */\n      0x40\n        /* \"#utility.yul\":16910:16919   */\n      dup4\n        /* \"#utility.yul\":16906:16924   */\n      add\n        /* \"#utility.yul\":16897:16903   */\n      dup5\n        /* \"#utility.yul\":16853:16925   */\n      tag_304\n      jump\t// in\n    tag_495:\n        /* \"#utility.yul\":16490:16932   */\n      swap5\n      swap4\n      pop\n      pop\n      pop\n      pop\n      jump\t// out\n        /* \"#utility.yul\":16938:17116   */\n    tag_333:\n        /* \"#utility.yul\":17078:17108   */\n      0x5061796d656e7420746f6b656e206465706f736974206661696c656400000000\n        /* \"#utility.yul\":17074:17075   */\n      0x00\n        /* \"#utility.yul\":17066:17072   */\n      dup3\n        /* \"#utility.yul\":17062:17076   */\n      add\n        /* \"#utility.yul\":17055:17109   */\n      mstore\n        /* \"#utility.yul\":16938:17116   */\n      pop\n      jump\t// out\n        /* \"#utility.yul\":17122:17488   */\n    tag_334:\n        /* \"#utility.yul\":17264:17267   */\n      0x00\n        /* \"#utility.yul\":17285:17352   */\n      tag_498\n        /* \"#utility.yul\":17349:17351   */\n      0x1c\n        /* \"#utility.yul\":17344:17347   */\n      dup4\n        /* \"#utility.yul\":17285:17352   */\n      tag_307\n      jump\t// in\n    tag_498:\n        /* \"#utility.yul\":17278:17352   */\n      swap2\n      pop\n        /* \"#utility.yul\":17361:17454   */\n      tag_499\n        /* \"#utility.yul\":17450:17453   */\n      dup3\n        /* \"#utility.yul\":17361:17454   */\n      tag_333\n      jump\t// in\n    tag_499:\n        /* \"#utility.yul\":17479:17481   */\n      0x20\n        /* \"#utility.yul\":17474:17477   */\n      dup3\n        /* \"#utility.yul\":17470:17482   */\n      add\n        /* \"#utility.yul\":17463:17482   */\n      swap1\n      pop\n        /* \"#utility.yul\":17122:17488   */\n      swap2\n      swap1\n      pop\n      jump\t// out\n        /* \"#utility.yul\":17494:17913   */\n    tag_223:\n        /* \"#utility.yul\":17660:17664   */\n      0x00\n        /* \"#utility.yul\":17698:17700   */\n      0x20\n        /* \"#utility.yul\":17687:17696   */\n      dup3\n        /* \"#utility.yul\":17683:17701   */\n      add\n        /* \"#utility.yul\":17675:17701   */\n      swap1\n      pop\n        /* \"#utility.yul\":17747:17756   */\n      dup2\n        /* \"#utility.yul\":17741:17745   */\n      dup2\n        /* \"#utility.yul\":17737:17757   */\n      sub\n        /* \"#utility.yul\":17733:17734   */\n      0x00\n        /* \"#utility.yul\":17722:17731   */\n      dup4\n        /* \"#utility.yul\":17718:17735   */\n      add\n        /* \"#utility.yul\":17711:17758   */\n      mstore\n        /* \"#utility.yul\":17775:17906   */\n      tag_501\n        /* \"#utility.yul\":17901:17905   */\n      dup2\n        /* \"#utility.yul\":17775:17906   */\n      tag_334\n      jump\t// in\n    tag_501:\n        /* \"#utility.yul\":17767:17906   */\n      swap1\n      pop\n        /* \"#utility.yul\":17494:17913   */\n      swap2\n      swap1\n      pop\n      jump\t// out\n        /* \"#utility.yul\":17919:18081   */\n    tag_335:\n        /* \"#utility.yul\":18059:18073   */\n      0x54617820746f6f20686967680000000000000000000000000000000000000000\n        /* \"#utility.yul\":18055:18056   */\n      0x00\n        /* \"#utility.yul\":18047:18053   */\n      dup3\n        /* \"#utility.yul\":18043:18057   */\n      add\n        /* \"#utility.yul\":18036:18074   */\n      mstore\n        /* \"#utility.yul\":17919:18081   */\n      pop\n      jump\t// out\n        /* \"#utility.yul\":18087:18453   */\n    tag_336:\n        /* \"#utility.yul\":18229:18232   */\n      0x00\n        /* \"#utility.yul\":18250:18317   */\n      tag_504\n        /* \"#utility.yul\":18314:18316   */\n      0x0c\n        /* \"#utility.yul\":18309:18312   */\n      dup4\n        /* \"#utility.yul\":18250:18317   */\n      tag_307\n      jump\t// in\n    tag_504:\n        /* \"#utility.yul\":18243:18317   */\n      swap2\n      pop\n        /* \"#utility.yul\":18326:18419   */\n      tag_505\n        /* \"#utility.yul\":18415:18418   */\n      dup3\n        /* \"#utility.yul\":18326:18419   */\n      tag_335\n      jump\t// in\n    tag_505:\n        /* \"#utility.yul\":18444:18446   */\n      0x20\n        /* \"#utility.yul\":18439:18442   */\n      dup3\n        /* \"#utility.yul\":18435:18447   */\n      add\n        /* \"#utility.yul\":18428:18447   */\n      swap1\n      pop\n        /* \"#utility.yul\":18087:18453   */\n      swap2\n      swap1\n      pop\n      jump\t// out\n        /* \"#utility.yul\":18459:18878   */\n    tag_235:\n        /* \"#utility.yul\":18625:18629   */\n      0x00\n        /* \"#utility.yul\":18663:18665   */\n      0x20\n        /* \"#utility.yul\":18652:18661   */\n      dup3\n        /* \"#utility.yul\":18648:18666   */\n      add\n        /* \"#utility.yul\":18640:18666   */\n      swap1\n      pop\n        /* \"#utility.yul\":18712:18721   */\n      dup2\n        /* \"#utility.yul\":18706:18710   */\n      dup2\n        /* \"#utility.yul\":18702:18722   */\n      sub\n        /* \"#utility.yul\":18698:18699   */\n      0x00\n        /* \"#utility.yul\":18687:18696   */\n      dup4\n        /* \"#utility.yul\":18683:18700   */\n      add\n        /* \"#utility.yul\":18676:18723   */\n      mstore\n        /* \"#utility.yul\":18740:18871   */\n      tag_507\n        /* \"#utility.yul\":18866:18870   */\n      dup2\n        /* \"#utility.yul\":18740:18871   */\n      tag_336\n      jump\t// in\n    tag_507:\n        /* \"#utility.yul\":18732:18871   */\n      swap1\n      pop\n        /* \"#utility.yul\":18459:18878   */\n      swap2\n      swap1\n      pop\n      jump\t// out\n        /* \"#utility.yul\":18884:19049   */\n    tag_337:\n        /* \"#utility.yul\":19024:19041   */\n      0x496e76616c696420616464726573730000000000000000000000000000000000\n        /* \"#utility.yul\":19020:19021   */\n      0x00\n        /* \"#utility.yul\":19012:19018   */\n      dup3\n        /* \"#utility.yul\":19008:19022   */\n      add\n        /* \"#utility.yul\":19001:19042   */\n      mstore\n        /* \"#utility.yul\":18884:19049   */\n      pop\n      jump\t// out\n        /* \"#utility.yul\":19055:19421   */\n    tag_338:\n        /* \"#utility.yul\":19197:19200   */\n      0x00\n        /* \"#utility.yul\":19218:19285   */\n      tag_510\n        /* \"#utility.yul\":19282:19284   */\n      0x0f\n        /* \"#utility.yul\":19277:19280   */\n      dup4\n        /* \"#utility.yul\":19218:19285   */\n      tag_307\n      jump\t// in\n    tag_510:\n        /* \"#utility.yul\":19211:19285   */\n      swap2\n      pop\n        /* \"#utility.yul\":19294:19387   */\n      tag_511\n        /* \"#utility.yul\":19383:19386   */\n      dup3\n        /* \"#utility.yul\":19294:19387   */\n      tag_337\n      jump\t// in\n    tag_511:\n        /* \"#utility.yul\":19412:19414   */\n      0x20\n        /* \"#utility.yul\":19407:19410   */\n      dup3\n        /* \"#utility.yul\":19403:19415   */\n      add\n        /* \"#utility.yul\":19396:19415   */\n      swap1\n      pop\n        /* \"#utility.yul\":19055:19421   */\n      swap2\n      swap1\n      pop\n      jump\t// out\n        /* \"#utility.yul\":19427:19846   */\n    tag_254:\n        /* \"#utility.yul\":19593:19597   */\n      0x00\n        /* \"#utility.yul\":19631:19633   */\n      0x20\n        /* \"#utility.yul\":19620:19629   */\n      dup3\n        /* \"#utility.yul\":19616:19634   */\n      add\n        /* \"#utility.yul\":19608:19634   */\n      swap1\n      pop\n        /* \"#utility.yul\":19680:19689   */\n      dup2\n        /* \"#utility.yul\":19674:19678   */\n      dup2\n        /* \"#utility.yul\":19670:19690   */\n      sub\n        /* \"#utility.yul\":19666:19667   */\n      0x00\n        /* \"#utility.yul\":19655:19664   */\n      dup4\n        /* \"#utility.yul\":19651:19668   */\n      add\n        /* \"#utility.yul\":19644:19691   */\n      mstore\n        /* \"#utility.yul\":19708:19839   */\n      tag_513\n        /* \"#utility.yul\":19834:19838   */\n      dup2\n        /* \"#utility.yul\":19708:19839   */\n      tag_338\n      jump\t// in\n    tag_513:\n        /* \"#utility.yul\":19700:19839   */\n      swap1\n      pop\n        /* \"#utility.yul\":19427:19846   */\n      swap2\n      swap1\n      pop\n      jump\t// out\n        /* \"#utility.yul\":19852:20034   */\n    tag_339:\n        /* \"#utility.yul\":19992:20026   */\n      0x4e6577206f776e65722063616e6e6f74206265207a65726f2061646472657373\n        /* \"#utility.yul\":19988:19989   */\n      0x00\n        /* \"#utility.yul\":19980:19986   */\n      dup3\n        /* \"#utility.yul\":19976:19990   */\n      add\n        /* \"#utility.yul\":19969:20027   */\n      mstore\n        /* \"#utility.yul\":19852:20034   */\n      pop\n      jump\t// out\n        /* \"#utility.yul\":20040:20406   */\n    tag_340:\n        /* \"#utility.yul\":20182:20185   */\n      0x00\n        /* \"#utility.yul\":20203:20270   */\n      tag_516\n        /* \"#utility.yul\":20267:20269   */\n      0x20\n        /* \"#utility.yul\":20262:20265   */\n      dup4\n        /* \"#utility.yul\":20203:20270   */\n      tag_307\n      jump\t// in\n    tag_516:\n        /* \"#utility.yul\":20196:20270   */\n      swap2\n      pop\n        /* \"#utility.yul\":20279:20372   */\n      tag_517\n        /* \"#utility.yul\":20368:20371   */\n      dup3\n        /* \"#utility.yul\":20279:20372   */\n      tag_339\n      jump\t// in\n    tag_517:\n        /* \"#utility.yul\":20397:20399   */\n      0x20\n        /* \"#utility.yul\":20392:20395   */\n      dup3\n        /* \"#utility.yul\":20388:20400   */\n      add\n        /* \"#utility.yul\":20381:20400   */\n      swap1\n      pop\n        /* \"#utility.yul\":20040:20406   */\n      swap2\n      swap1\n      pop\n      jump\t// out\n        /* \"#utility.yul\":20412:20831   */\n    tag_261:\n        /* \"#utility.yul\":20578:20582   */\n      0x00\n        /* \"#utility.yul\":20616:20618   */\n      0x20\n        /* \"#utility.yul\":20605:20614   */\n      dup3\n        /* \"#utility.yul\":20601:20619   */\n      add\n        /* \"#utility.yul\":20593:20619   */\n      swap1\n      pop\n        /* \"#utility.yul\":20665:20674   */\n      dup2\n        /* \"#utility.yul\":20659:20663   */\n      dup2\n        /* \"#utility.yul\":20655:20675   */\n      sub\n        /* \"#utility.yul\":20651:20652   */\n      0x00\n        /* \"#utility.yul\":20640:20649   */\n      dup4\n        /* \"#utility.yul\":20636:20653   */\n      add\n        /* \"#utility.yul\":20629:20676   */\n      mstore\n        /* \"#utility.yul\":20693:20824   */\n      tag_519\n        /* \"#utility.yul\":20819:20823   */\n      dup2\n        /* \"#utility.yul\":20693:20824   */\n      tag_340\n      jump\t// in\n    tag_519:\n        /* \"#utility.yul\":20685:20824   */\n      swap1\n      pop\n        /* \"#utility.yul\":20412:20831   */\n      swap2\n      swap1\n      pop\n      jump\t// out\n        /* \"#utility.yul\":20837:21007   */\n    tag_341:\n        /* \"#utility.yul\":20977:20999   */\n      0x5061757361626c653a206e6f7420706175736564000000000000000000000000\n        /* \"#utility.yul\":20973:20974   */\n      0x00\n        /* \"#utility.yul\":20965:20971   */\n      dup3\n        /* \"#utility.yul\":20961:20975   */\n      add\n        /* \"#utility.yul\":20954:21000   */\n      mstore\n        /* \"#utility.yul\":20837:21007   */\n      pop\n      jump\t// out\n        /* \"#utility.yul\":21013:21379   */\n    tag_342:\n        /* \"#utility.yul\":21155:21158   */\n      0x00\n        /* \"#utility.yul\":21176:21243   */\n      tag_522\n        /* \"#utility.yul\":21240:21242   */\n      0x14\n        /* \"#utility.yul\":21235:21238   */\n      dup4\n        /* \"#utility.yul\":21176:21243   */\n      tag_307\n      jump\t// in\n    tag_522:\n        /* \"#utility.yul\":21169:21243   */\n      swap2\n      pop\n        /* \"#utility.yul\":21252:21345   */\n      tag_523\n        /* \"#utility.yul\":21341:21344   */\n      dup3\n        /* \"#utility.yul\":21252:21345   */\n      tag_341\n      jump\t// in\n    tag_523:\n        /* \"#utility.yul\":21370:21372   */\n      0x20\n        /* \"#utility.yul\":21365:21368   */\n      dup3\n        /* \"#utility.yul\":21361:21373   */\n      add\n        /* \"#utility.yul\":21354:21373   */\n      swap1\n      pop\n        /* \"#utility.yul\":21013:21379   */\n      swap2\n      swap1\n      pop\n      jump\t// out\n        /* \"#utility.yul\":21385:21804   */\n    tag_266:\n        /* \"#utility.yul\":21551:21555   */\n      0x00\n        /* \"#utility.yul\":21589:21591   */\n      0x20\n        /* \"#utility.yul\":21578:21587   */\n      dup3\n        /* \"#utility.yul\":21574:21592   */\n      add\n        /* \"#utility.yul\":21566:21592   */\n      swap1\n      pop\n        /* \"#utility.yul\":21638:21647   */\n      dup2\n        /* \"#utility.yul\":21632:21636   */\n      dup2\n        /* \"#utility.yul\":21628:21648   */\n      sub\n        /* \"#utility.yul\":21624:21625   */\n      0x00\n        /* \"#utility.yul\":21613:21622   */\n      dup4\n        /* \"#utility.yul\":21609:21626   */\n      add\n        /* \"#utility.yul\":21602:21649   */\n      mstore\n        /* \"#utility.yul\":21666:21797   */\n      tag_525\n        /* \"#utility.yul\":21792:21796   */\n      dup2\n        /* \"#utility.yul\":21666:21797   */\n      tag_342\n      jump\t// in\n    tag_525:\n        /* \"#utility.yul\":21658:21797   */\n      swap1\n      pop\n        /* \"#utility.yul\":21385:21804   */\n      swap2\n      swap1\n      pop\n      jump\t// out\n        /* \"#utility.yul\":21810:21991   */\n    tag_343:\n        /* \"#utility.yul\":21950:21983   */\n      0x5265656e7472616e637947756172643a207265656e7472616e742063616c6c00\n        /* \"#utility.yul\":21946:21947   */\n      0x00\n        /* \"#utility.yul\":21938:21944   */\n      dup3\n        /* \"#utility.yul\":21934:21948   */\n      add\n        /* \"#utility.yul\":21927:21984   */\n      mstore\n        /* \"#utility.yul\":21810:21991   */\n      pop\n      jump\t// out\n        /* \"#utility.yul\":21997:22363   */\n    tag_344:\n        /* \"#utility.yul\":22139:22142   */\n      0x00\n        /* \"#utility.yul\":22160:22227   */\n      tag_528\n        /* \"#utility.yul\":22224:22226   */\n      0x1f\n        /* \"#utility.yul\":22219:22222   */\n      dup4\n        /* \"#utility.yul\":22160:22227   */\n      tag_307\n      jump\t// in\n    tag_528:\n        /* \"#utility.yul\":22153:22227   */\n      swap2\n      pop\n        /* \"#utility.yul\":22236:22329   */\n      tag_529\n        /* \"#utility.yul\":22325:22328   */\n      dup3\n        /* \"#utility.yul\":22236:22329   */\n      tag_343\n      jump\t// in\n    tag_529:\n        /* \"#utility.yul\":22354:22356   */\n      0x20\n        /* \"#utility.yul\":22349:22352   */\n      dup3\n        /* \"#utility.yul\":22345:22357   */\n      add\n        /* \"#utility.yul\":22338:22357   */\n      swap1\n      pop\n        /* \"#utility.yul\":21997:22363   */\n      swap2\n      swap1\n      pop\n      jump\t// out\n        /* \"#utility.yul\":22369:22788   */\n    tag_272:\n        /* \"#utility.yul\":22535:22539   */\n      0x00\n        /* \"#utility.yul\":22573:22575   */\n      0x20\n        /* \"#utility.yul\":22562:22571   */\n      dup3\n        /* \"#utility.yul\":22558:22576   */\n      add\n        /* \"#utility.yul\":22550:22576   */\n      swap1\n      pop\n        /* \"#utility.yul\":22622:22631   */\n      dup2\n        /* \"#utility.yul\":22616:22620   */\n      dup2\n        /* \"#utility.yul\":22612:22632   */\n      sub\n        /* \"#utility.yul\":22608:22609   */\n      0x00\n        /* \"#utility.yul\":22597:22606   */\n      dup4\n        /* \"#utility.yul\":22593:22610   */\n      add\n        /* \"#utility.yul\":22586:22633   */\n      mstore\n        /* \"#utility.yul\":22650:22781   */\n      tag_531\n        /* \"#utility.yul\":22776:22780   */\n      dup2\n        /* \"#utility.yul\":22650:22781   */\n      tag_344\n      jump\t// in\n    tag_531:\n        /* \"#utility.yul\":22642:22781   */\n      swap1\n      pop\n        /* \"#utility.yul\":22369:22788   */\n      swap2\n      swap1\n      pop\n      jump\t// out\n\n    auxdata: 0xa26469706673582212200e82806939aa7bf411d046859c68b496b4060d259dfb4a25587c1310d726c68464736f6c634300081a0033\n}\n",
				"bytecode": {
					"linkReferences": {},
					"object": "608060405234801561000f575f80fd5b5060405161280338038061280383398181016040528101906100319190610201565b5f805f6101000a81548160ff021916908315150217905550600180819055503360025f6101000a81548173ffffffffffffffffffffffffffffffffffffffff021916908373ffffffffffffffffffffffffffffffffffffffff1602179055508560035f6101000a81548173ffffffffffffffffffffffffffffffffffffffff021916908373ffffffffffffffffffffffffffffffffffffffff1602179055508360055f6101000a81548173ffffffffffffffffffffffffffffffffffffffff021916908373ffffffffffffffffffffffffffffffffffffffff1602179055508460045f6101000a81548173ffffffffffffffffffffffffffffffffffffffff021916908373ffffffffffffffffffffffffffffffffffffffff16021790555082600681905550816007819055508060088190555050505050505061028a565b5f80fd5b5f73ffffffffffffffffffffffffffffffffffffffff82169050919050565b5f61019d82610174565b9050919050565b6101ad81610193565b81146101b7575f80fd5b50565b5f815190506101c8816101a4565b92915050565b5f819050919050565b6101e0816101ce565b81146101ea575f80fd5b50565b5f815190506101fb816101d7565b92915050565b5f805f805f8060c0878903121561021b5761021a610170565b5b5f61022889828a016101ba565b965050602061023989828a016101ba565b955050604061024a89828a016101ba565b945050606061025b89828a016101ed565b935050608061026c89828a016101ed565b92505060a061027d89828a016101ed565b9150509295509295509295565b61256c806102975f395ff3fe608060405234801561000f575f80fd5b5060043610610135575f3560e01c8063839ea2d9116100b6578063c6d69a301161007a578063c6d69a30146102db578063ce1d1f1f146102f7578063d4a49c1714610315578063dc38679c14610331578063eea7570e1461034f578063f2fde38b1461036d57610135565b8063839ea2d9146102495780638456cb59146102795780638da5cb5b146102835780639063ee20146102a15780639e9aed62146102bd57610135565b80636a64eff8116100fd5780636a64eff8146101b9578063771a3a1d146101d557806379a9fa1c146101f35780637ef7ba201461020f5780637ff8b57a1461022d57610135565b806307e675fa146101395780633013ce29146101555780633f4ba83a146101735780635c975abb1461017d5780635d0040d31461019b575b5f80fd5b610153600480360381019061014e9190611ade565b610389565b005b61015d61063e565b60405161016a9190611b48565b60405180910390f35b61017b610663565b005b6101856106fc565b6040516101929190611b7b565b60405180910390f35b6101a3610710565b6040516101b09190611ba3565b60405180910390f35b6101d360048036038101906101ce9190611ade565b610716565b005b6101dd6107af565b6040516101ea9190611ba3565b60405180910390f35b61020d60048036038101906102089190611ade565b6107b5565b005b610217610c72565b6040516102249190611b48565b60405180910390f35b61024760048036038101906102429190611ade565b610c97565b005b610263600480360381019061025e9190611ade565b610d74565b6040516102709190611b7b565b60405180910390f35b610281610e6c565b005b61028b610f05565b6040516102989190611b48565b60405180910390f35b6102bb60048036038101906102b69190611ade565b610f2a565b005b6102c5611128565b6040516102d29190611ba3565b60405180910390f35b6102f560048036038101906102f09190611ade565b6111c7565b005b6102ff6112e0565b60405161030c9190611ba3565b60405180910390f35b61032f600480360381019061032a9190611be6565b6113e0565b005b61033961159b565b6040516103469190611ba3565b60405180910390f35b6103576115a1565b6040516103649190611b48565b60405180910390f35b61038760048036038101906103829190611be6565b6115c6565b005b60025f9054906101000a900473ffffffffffffffffffffffffffffffffffffffff1673ffffffffffffffffffffffffffffffffffffffff163373ffffffffffffffffffffffffffffffffffffffff1614610418576040517f08c379a000000000000000000000000000000000000000000000000000000000815260040161040f90611c6b565b60405180910390fd5b5f811161045a576040517f08c379a000000000000000000000000000000000000000000000000000000000815260040161045190611cd3565b60405180910390fd5b5f60035f9054906101000a900473ffffffffffffffffffffffffffffffffffffffff1673ffffffffffffffffffffffffffffffffffffffff166370a08231306040518263ffffffff1660e01b81526004016104b59190611b48565b602060405180830381865afa1580156104d0573d5f803e3d5ffd5b505050506040513d601f19601f820116820180604052508101906104f49190611d05565b905080821115610539576040517f08c379a000000000000000000000000000000000000000000000000000000000815260040161053090611d7a565b60405180910390fd5b5f60035f9054906101000a900473ffffffffffffffffffffffffffffffffffffffff1673ffffffffffffffffffffffffffffffffffffffff1663a9059cbb60025f9054906101000a900473ffffffffffffffffffffffffffffffffffffffff16856040518363ffffffff1660e01b81526004016105b7929190611d98565b6020604051808303815f875af11580156105d3573d5f803e3d5ffd5b505050506040513d601f19601f820116820180604052508101906105f79190611de9565b905080610639576040517f08c379a000000000000000000000000000000000000000000000000000000000815260040161063090611e5e565b60405180910390fd5b505050565b60035f9054906101000a900473ffffffffffffffffffffffffffffffffffffffff1681565b60025f9054906101000a900473ffffffffffffffffffffffffffffffffffffffff1673ffffffffffffffffffffffffffffffffffffffff163373ffffffffffffffffffffffffffffffffffffffff16146106f2576040517f08c379a00000000000000000000000000000000000000000000000000000000081526004016106e990611c6b565b60405180910390fd5b6106fa611781565b565b5f805f9054906101000a900460ff16905090565b60065481565b60025f9054906101000a900473ffffffffffffffffffffffffffffffffffffffff1673ffffffffffffffffffffffffffffffffffffffff163373ffffffffffffffffffffffffffffffffffffffff16146107a5576040517f08c379a000000000000000000000000000000000000000000000000000000000815260040161079c90611c6b565b60405180910390fd5b8060078190555050565b60085481565b6107bd6106fc565b156107fd576040517f08c379a00000000000000000000000000000000000000000000000000000000081526004016107f490611ec6565b60405180910390fd5b610805611819565b5f8111610847576040517f08c379a000000000000000000000000000000000000000000000000000000000815260040161083e90611f2e565b60405180910390fd5b5f60045f9054906101000a900473ffffffffffffffffffffffffffffffffffffffff1673ffffffffffffffffffffffffffffffffffffffff1663dd62ed3e33306040518363ffffffff1660e01b81526004016108a4929190611f4c565b602060405180830381865afa1580156108bf573d5f803e3d5ffd5b505050506040513d601f19601f820116820180604052508101906108e39190611d05565b905081811015610928576040517f08c379a000000000000000000000000000000000000000000000000000000000815260040161091f90611fbd565b60405180910390fd5b61097633308460045f9054906101000a900473ffffffffffffffffffffffffffffffffffffffff1673ffffffffffffffffffffffffffffffffffffffff16611868909392919063ffffffff16565b5f606460065460646109889190612008565b600754610995919061203b565b61099f91906120a9565b90505f670de0b6b3a764000082856109b7919061203b565b6109c191906120a9565b90505f60035f9054906101000a900473ffffffffffffffffffffffffffffffffffffffff1673ffffffffffffffffffffffffffffffffffffffff166370a08231306040518263ffffffff1660e01b8152600401610a1e9190611b48565b602060405180830381865afa158015610a39573d5f803e3d5ffd5b505050506040513d601f19601f82011682018060405250810190610a5d9190611d05565b905081811015610aa2576040517f08c379a0000000000000000000000000000000000000000000000000000000008152600401610a9990612149565b60405180910390fd5b5f61271060085484610ab4919061203b565b610abe91906120a9565b90505f8184610acd9190612167565b9050610b3c60055f9054906101000a900473ffffffffffffffffffffffffffffffffffffffff168360035f9054906101000a900473ffffffffffffffffffffffffffffffffffffffff1673ffffffffffffffffffffffffffffffffffffffff166118ea9092919063ffffffff16565b610b88338260035f9054906101000a900473ffffffffffffffffffffffffffffffffffffffff1673ffffffffffffffffffffffffffffffffffffffff166118ea9092919063ffffffff16565b60045f9054906101000a900473ffffffffffffffffffffffffffffffffffffffff1673ffffffffffffffffffffffffffffffffffffffff16639dc29fac30896040518363ffffffff1660e01b8152600401610be4929190611d98565b5f604051808303815f87803b158015610bfb575f80fd5b505af1158015610c0d573d5f803e3d5ffd5b505050503373ffffffffffffffffffffffffffffffffffffffff167fcb7f55d0b91628d4520b789339dae4803ab07182ea89d138acbd965dac51dc658886604051610c5992919061219a565b60405180910390a2505050505050610c6f611969565b50565b60045f9054906101000a900473ffffffffffffffffffffffffffffffffffffffff1681565b60025f9054906101000a900473ffffffffffffffffffffffffffffffffffffffff1673ffffffffffffffffffffffffffffffffffffffff163373ffffffffffffffffffffffffffffffffffffffff1614610d26576040517f08c379a0000000000000000000000000000000000000000000000000000000008152600401610d1d90611c6b565b60405180910390fd5b6064811115610d6a576040517f08c379a0000000000000000000000000000000000000000000000000000000008152600401610d619061220b565b60405180910390fd5b8060068190555050565b5f8060646006546064610d879190612008565b600754610d94919061203b565b610d9e91906120a9565b90505f670de0b6b3a76400008285610db6919061203b565b610dc091906120a9565b90505f60035f9054906101000a900473ffffffffffffffffffffffffffffffffffffffff1673ffffffffffffffffffffffffffffffffffffffff166370a08231306040518263ffffffff1660e01b8152600401610e1d9190611b48565b602060405180830381865afa158015610e38573d5f803e3d5ffd5b505050506040513d601f19601f82011682018060405250810190610e5c9190611d05565b9050818110159350505050919050565b60025f9054906101000a900473ffffffffffffffffffffffffffffffffffffffff1673ffffffffffffffffffffffffffffffffffffffff163373ffffffffffffffffffffffffffffffffffffffff1614610efb576040517f08c379a0000000000000000000000000000000000000000000000000000000008152600401610ef290611c6b565b60405180910390fd5b610f03611972565b565b60025f9054906101000a900473ffffffffffffffffffffffffffffffffffffffff1681565b60025f9054906101000a900473ffffffffffffffffffffffffffffffffffffffff1673ffffffffffffffffffffffffffffffffffffffff163373ffffffffffffffffffffffffffffffffffffffff1614610fb9576040517f08c379a0000000000000000000000000000000000000000000000000000000008152600401610fb090611c6b565b60405180910390fd5b610fc16106fc565b15611001576040517f08c379a0000000000000000000000000000000000000000000000000000000008152600401610ff890611ec6565b60405180910390fd5b5f8111611043576040517f08c379a000000000000000000000000000000000000000000000000000000000815260040161103a90612273565b60405180910390fd5b5f60035f9054906101000a900473ffffffffffffffffffffffffffffffffffffffff1673ffffffffffffffffffffffffffffffffffffffff166323b872dd3330856040518463ffffffff1660e01b81526004016110a293929190612291565b6020604051808303815f875af11580156110be573d5f803e3d5ffd5b505050506040513d601f19601f820116820180604052508101906110e29190611de9565b905080611124576040517f08c379a000000000000000000000000000000000000000000000000000000000815260040161111b90612310565b60405180910390fd5b5050565b5f60035f9054906101000a900473ffffffffffffffffffffffffffffffffffffffff1673ffffffffffffffffffffffffffffffffffffffff166370a08231306040518263ffffffff1660e01b81526004016111839190611b48565b602060405180830381865afa15801561119e573d5f803e3d5ffd5b505050506040513d601f19601f820116820180604052508101906111c29190611d05565b905090565b60025f9054906101000a900473ffffffffffffffffffffffffffffffffffffffff1673ffffffffffffffffffffffffffffffffffffffff163373ffffffffffffffffffffffffffffffffffffffff1614611256576040517f08c379a000000000000000000000000000000000000000000000000000000000815260040161124d90611c6b565b60405180910390fd5b6103e881111561129b576040517f08c379a000000000000000000000000000000000000000000000000000000000815260040161129290612378565b60405180910390fd5b7fa8ee157eb2a9aa895d74df4d2d3bc0ad165ff3162f8ec46a4ecf602dd5c48fda600854826040516112ce92919061219a565b60405180910390a18060088190555050565b5f8060035f9054906101000a900473ffffffffffffffffffffffffffffffffffffffff1673ffffffffffffffffffffffffffffffffffffffff166370a08231306040518263ffffffff1660e01b815260040161133c9190611b48565b602060405180830381865afa158015611357573d5f803e3d5ffd5b505050506040513d601f19601f8201168201806040525081019061137b9190611d05565b90505f6064600654606461138f9190612008565b60075461139c919061203b565b6113a691906120a9565b90505f81036113b9575f925050506113dd565b80670de0b6b3a7640000836113ce919061203b565b6113d891906120a9565b925050505b90565b60025f9054906101000a900473ffffffffffffffffffffffffffffffffffffffff1673ffffffffffffffffffffffffffffffffffffffff163373ffffffffffffffffffffffffffffffffffffffff161461146f576040517f08c379a000000000000000000000000000000000000000000000000000000000815260040161146690611c6b565b60405180910390fd5b5f73ffffffffffffffffffffffffffffffffffffffff168173ffffffffffffffffffffffffffffffffffffffff16036114dd576040517f08c379a00000000000000000000000000000000000000000000000000000000081526004016114d4906123e0565b60405180910390fd5b8073ffffffffffffffffffffffffffffffffffffffff1660055f9054906101000a900473ffffffffffffffffffffffffffffffffffffffff1673ffffffffffffffffffffffffffffffffffffffff167fb4281bb17cdc594e3cf6d419da95f70a6b02d856b26438d381ee1246a8e89f1260405160405180910390a38060055f6101000a81548173ffffffffffffffffffffffffffffffffffffffff021916908373ffffffffffffffffffffffffffffffffffffffff16021790555050565b60075481565b60055f9054906101000a900473ffffffffffffffffffffffffffffffffffffffff1681565b60025f9054906101000a900473ffffffffffffffffffffffffffffffffffffffff1673ffffffffffffffffffffffffffffffffffffffff163373ffffffffffffffffffffffffffffffffffffffff1614611655576040517f08c379a000000000000000000000000000000000000000000000000000000000815260040161164c90611c6b565b60405180910390fd5b5f73ffffffffffffffffffffffffffffffffffffffff168173ffffffffffffffffffffffffffffffffffffffff16036116c3576040517f08c379a00000000000000000000000000000000000000000000000000000000081526004016116ba90612448565b60405180910390fd5b8073ffffffffffffffffffffffffffffffffffffffff1660025f9054906101000a900473ffffffffffffffffffffffffffffffffffffffff1673ffffffffffffffffffffffffffffffffffffffff167f8be0079c531659141344cd1fd0a4f28419497f9722a3daafe3b4186f6b6457e060405160405180910390a38060025f6101000a81548173ffffffffffffffffffffffffffffffffffffffff021916908373ffffffffffffffffffffffffffffffffffffffff16021790555050565b6117896106fc565b6117c8576040517f08c379a00000000000000000000000000000000000000000000000000000000081526004016117bf906124b0565b60405180910390fd5b5f805f6101000a81548160ff0219169083151502179055507f5db9ee0a495bf2e6ff9c91a7834c1ba4fdd244a5e8aa4e537bd38aeae4b073aa3360405161180f9190611b48565b60405180910390a1565b60026001540361185e576040517f08c379a000000000000000000000000000000000000000000000000000000000815260040161185590612518565b60405180910390fd5b6002600181905550565b6118e4848573ffffffffffffffffffffffffffffffffffffffff166323b872dd86868660405160240161189d93929190612291565b604051602081830303815290604052915060e01b6020820180517bffffffffffffffffffffffffffffffffffffffffffffffffffffffff8381831617835250505050611a0c565b50505050565b611964838473ffffffffffffffffffffffffffffffffffffffff1663a9059cbb858560405160240161191d929190611d98565b604051602081830303815290604052915060e01b6020820180517bffffffffffffffffffffffffffffffffffffffffffffffffffffffff8381831617835250505050611a0c565b505050565b60018081905550565b61197a6106fc565b156119ba576040517f08c379a00000000000000000000000000000000000000000000000000000000081526004016119b190611ec6565b60405180910390fd5b60015f806101000a81548160ff0219169083151502179055507f62e78cea01bee320cd4e420270b5ea74000d11b0c9f74754ebdbfc544b05a25833604051611a029190611b48565b60405180910390a1565b5f8060205f8451602086015f885af180611a2b576040513d5f823e3d81fd5b3d92505f519150505f8214611a44576001811415611a5f565b5f8473ffffffffffffffffffffffffffffffffffffffff163b145b15611aa157836040517f5274afe7000000000000000000000000000000000000000000000000000000008152600401611a989190611b48565b60405180910390fd5b50505050565b5f80fd5b5f819050919050565b611abd81611aab565b8114611ac7575f80fd5b50565b5f81359050611ad881611ab4565b92915050565b5f60208284031215611af357611af2611aa7565b5b5f611b0084828501611aca565b91505092915050565b5f73ffffffffffffffffffffffffffffffffffffffff82169050919050565b5f611b3282611b09565b9050919050565b611b4281611b28565b82525050565b5f602082019050611b5b5f830184611b39565b92915050565b5f8115159050919050565b611b7581611b61565b82525050565b5f602082019050611b8e5f830184611b6c565b92915050565b611b9d81611aab565b82525050565b5f602082019050611bb65f830184611b94565b92915050565b611bc581611b28565b8114611bcf575f80fd5b50565b5f81359050611be081611bbc565b92915050565b5f60208284031215611bfb57611bfa611aa7565b5b5f611c0884828501611bd2565b91505092915050565b5f82825260208201905092915050565b7f4e6f7420617574686f72697a65640000000000000000000000000000000000005f82015250565b5f611c55600e83611c11565b9150611c6082611c21565b602082019050919050565b5f6020820190508181035f830152611c8281611c49565b9050919050565b7f5769746864726177206d757374206265203e20300000000000000000000000005f82015250565b5f611cbd601483611c11565b9150611cc882611c89565b602082019050919050565b5f6020820190508181035f830152611cea81611cb1565b9050919050565b5f81519050611cff81611ab4565b92915050565b5f60208284031215611d1a57611d19611aa7565b5b5f611d2784828501611cf1565b91505092915050565b7f4e6f7420656e6f75676820746f6b656e7320696e20636f6e74726163740000005f82015250565b5f611d64601d83611c11565b9150611d6f82611d30565b602082019050919050565b5f6020820190508181035f830152611d9181611d58565b9050919050565b5f604082019050611dab5f830185611b39565b611db86020830184611b94565b9392505050565b611dc881611b61565b8114611dd2575f80fd5b50565b5f81519050611de381611dbf565b92915050565b5f60208284031215611dfe57611dfd611aa7565b5b5f611e0b84828501611dd5565b91505092915050565b7f5061796d656e7420746f6b656e207769746864726177616c206661696c6564005f82015250565b5f611e48601f83611c11565b9150611e5382611e14565b602082019050919050565b5f6020820190508181035f830152611e7581611e3c565b9050919050565b7f5061757361626c653a20706175736564000000000000000000000000000000005f82015250565b5f611eb0601083611c11565b9150611ebb82611e7c565b602082019050919050565b5f6020820190508181035f830152611edd81611ea4565b9050919050565b7f4d757374206465706f73697420526f626f4d6f6e6579000000000000000000005f82015250565b5f611f18601683611c11565b9150611f2382611ee4565b602082019050919050565b5f6020820190508181035f830152611f4581611f0c565b9050919050565b5f604082019050611f5f5f830185611b39565b611f6c6020830184611b39565b9392505050565b7f496e73756666696369656e7420526f626f4d6f6e657920616c6c6f77616e63655f82015250565b5f611fa7602083611c11565b9150611fb282611f73565b602082019050919050565b5f6020820190508181035f830152611fd481611f9b565b9050919050565b7f4e487b71000000000000000000000000000000000000000000000000000000005f52601160045260245ffd5b5f61201282611aab565b915061201d83611aab565b925082820190508082111561203557612034611fdb565b5b92915050565b5f61204582611aab565b915061205083611aab565b925082820261205e81611aab565b9150828204841483151761207557612074611fdb565b5b5092915050565b7f4e487b71000000000000000000000000000000000000000000000000000000005f52601260045260245ffd5b5f6120b382611aab565b91506120be83611aab565b9250826120ce576120cd61207c565b5b828204905092915050565b7f4e6f7420656e6f756768207061796d656e74546f6b656e20696e20636f6e74725f8201527f6163740000000000000000000000000000000000000000000000000000000000602082015250565b5f612133602383611c11565b915061213e826120d9565b604082019050919050565b5f6020820190508181035f83015261216081612127565b9050919050565b5f61217182611aab565b915061217c83611aab565b925082820390508181111561219457612193611fdb565b5b92915050565b5f6040820190506121ad5f830185611b94565b6121ba6020830184611b94565b9392505050565b7f496e76616c6964207072656d69756d20726174650000000000000000000000005f82015250565b5f6121f5601483611c11565b9150612200826121c1565b602082019050919050565b5f6020820190508181035f830152612222816121e9565b9050919050565b7f4465706f736974206d757374206265203e2030000000000000000000000000005f82015250565b5f61225d601383611c11565b915061226882612229565b602082019050919050565b5f6020820190508181035f83015261228a81612251565b9050919050565b5f6060820190506122a45f830186611b39565b6122b16020830185611b39565b6122be6040830184611b94565b949350505050565b7f5061796d656e7420746f6b656e206465706f736974206661696c6564000000005f82015250565b5f6122fa601c83611c11565b9150612305826122c6565b602082019050919050565b5f6020820190508181035f830152612327816122ee565b9050919050565b7f54617820746f6f206869676800000000000000000000000000000000000000005f82015250565b5f612362600c83611c11565b915061236d8261232e565b602082019050919050565b5f6020820190508181035f83015261238f81612356565b9050919050565b7f496e76616c6964206164647265737300000000000000000000000000000000005f82015250565b5f6123ca600f83611c11565b91506123d582612396565b602082019050919050565b5f6020820190508181035f8301526123f7816123be565b9050919050565b7f4e6577206f776e65722063616e6e6f74206265207a65726f20616464726573735f82015250565b5f612432602083611c11565b915061243d826123fe565b602082019050919050565b5f6020820190508181035f83015261245f81612426565b9050919050565b7f5061757361626c653a206e6f74207061757365640000000000000000000000005f82015250565b5f61249a601483611c11565b91506124a582612466565b602082019050919050565b5f6020820190508181035f8301526124c78161248e565b9050919050565b7f5265656e7472616e637947756172643a207265656e7472616e742063616c6c005f82015250565b5f612502601f83611c11565b915061250d826124ce565b602082019050919050565b5f6020820190508181035f83015261252f816124f6565b905091905056fea26469706673582212200e82806939aa7bf411d046859c68b496b4060d259dfb4a25587c1310d726c68464736f6c634300081a0033",
					"opcodes": "PUSH1 0x80 PUSH1 0x40 MSTORE CALLVALUE DUP1 ISZERO PUSH2 0xF JUMPI PUSH0 DUP1 REVERT JUMPDEST POP PUSH1 0x40 MLOAD PUSH2 0x2803 CODESIZE SUB DUP1 PUSH2 0x2803 DUP4 CODECOPY DUP2 DUP2 ADD PUSH1 0x40 MSTORE DUP2 ADD SWAP1 PUSH2 0x31 SWAP2 SWAP1 PUSH2 0x201 JUMP JUMPDEST PUSH0 DUP1 PUSH0 PUSH2 0x100 EXP DUP2 SLOAD DUP2 PUSH1 0xFF MUL NOT AND SWAP1 DUP4 ISZERO ISZERO MUL OR SWAP1 SSTORE POP PUSH1 0x1 DUP1 DUP2 SWAP1 SSTORE POP CALLER PUSH1 0x2 PUSH0 PUSH2 0x100 EXP DUP2 SLOAD DUP2 PUSH20 0xFFFFFFFFFFFFFFFFFFFFFFFFFFFFFFFFFFFFFFFF MUL NOT AND SWAP1 DUP4 PUSH20 0xFFFFFFFFFFFFFFFFFFFFFFFFFFFFFFFFFFFFFFFF AND MUL OR SWAP1 SSTORE POP DUP6 PUSH1 0x3 PUSH0 PUSH2 0x100 EXP DUP2 SLOAD DUP2 PUSH20 0xFFFFFFFFFFFFFFFFFFFFFFFFFFFFFFFFFFFFFFFF MUL NOT AND SWAP1 DUP4 PUSH20 0xFFFFFFFFFFFFFFFFFFFFFFFFFFFFFFFFFFFFFFFF AND MUL OR SWAP1 SSTORE POP DUP4 PUSH1 0x5 PUSH0 PUSH2 0x100 EXP DUP2 SLOAD DUP2 PUSH20 0xFFFFFFFFFFFFFFFFFFFFFFFFFFFFFFFFFFFFFFFF MUL NOT AND SWAP1 DUP4 PUSH20 0xFFFFFFFFFFFFFFFFFFFFFFFFFFFFFFFFFFFFFFFF AND MUL OR SWAP1 SSTORE POP DUP5 PUSH1 0x4 PUSH0 PUSH2 0x100 EXP DUP2 SLOAD DUP2 PUSH20 0xFFFFFFFFFFFFFFFFFFFFFFFFFFFFFFFFFFFFFFFF MUL NOT AND SWAP1 DUP4 PUSH20 0xFFFFFFFFFFFFFFFFFFFFFFFFFFFFFFFFFFFFFFFF AND MUL OR SWAP1 SSTORE POP DUP3 PUSH1 0x6 DUP2 SWAP1 SSTORE POP DUP2 PUSH1 0x7 DUP2 SWAP1 SSTORE POP DUP1 PUSH1 0x8 DUP2 SWAP1 SSTORE POP POP POP POP POP POP POP PUSH2 0x28A JUMP JUMPDEST PUSH0 DUP1 REVERT JUMPDEST PUSH0 PUSH20 0xFFFFFFFFFFFFFFFFFFFFFFFFFFFFFFFFFFFFFFFF DUP3 AND SWAP1 POP SWAP2 SWAP1 POP JUMP JUMPDEST PUSH0 PUSH2 0x19D DUP3 PUSH2 0x174 JUMP JUMPDEST SWAP1 POP SWAP2 SWAP1 POP JUMP JUMPDEST PUSH2 0x1AD DUP2 PUSH2 0x193 JUMP JUMPDEST DUP2 EQ PUSH2 0x1B7 JUMPI PUSH0 DUP1 REVERT JUMPDEST POP JUMP JUMPDEST PUSH0 DUP2 MLOAD SWAP1 POP PUSH2 0x1C8 DUP2 PUSH2 0x1A4 JUMP JUMPDEST SWAP3 SWAP2 POP POP JUMP JUMPDEST PUSH0 DUP2 SWAP1 POP SWAP2 SWAP1 POP JUMP JUMPDEST PUSH2 0x1E0 DUP2 PUSH2 0x1CE JUMP JUMPDEST DUP2 EQ PUSH2 0x1EA JUMPI PUSH0 DUP1 REVERT JUMPDEST POP JUMP JUMPDEST PUSH0 DUP2 MLOAD SWAP1 POP PUSH2 0x1FB DUP2 PUSH2 0x1D7 JUMP JUMPDEST SWAP3 SWAP2 POP POP JUMP JUMPDEST PUSH0 DUP1 PUSH0 DUP1 PUSH0 DUP1 PUSH1 0xC0 DUP8 DUP10 SUB SLT ISZERO PUSH2 0x21B JUMPI PUSH2 0x21A PUSH2 0x170 JUMP JUMPDEST JUMPDEST PUSH0 PUSH2 0x228 DUP10 DUP3 DUP11 ADD PUSH2 0x1BA JUMP JUMPDEST SWAP7 POP POP PUSH1 0x20 PUSH2 0x239 DUP10 DUP3 DUP11 ADD PUSH2 0x1BA JUMP JUMPDEST SWAP6 POP POP PUSH1 0x40 PUSH2 0x24A DUP10 DUP3 DUP11 ADD PUSH2 0x1BA JUMP JUMPDEST SWAP5 POP POP PUSH1 0x60 PUSH2 0x25B DUP10 DUP3 DUP11 ADD PUSH2 0x1ED JUMP JUMPDEST SWAP4 POP POP PUSH1 0x80 PUSH2 0x26C DUP10 DUP3 DUP11 ADD PUSH2 0x1ED JUMP JUMPDEST SWAP3 POP POP PUSH1 0xA0 PUSH2 0x27D DUP10 DUP3 DUP11 ADD PUSH2 0x1ED JUMP JUMPDEST SWAP2 POP POP SWAP3 SWAP6 POP SWAP3 SWAP6 POP SWAP3 SWAP6 JUMP JUMPDEST PUSH2 0x256C DUP1 PUSH2 0x297 PUSH0 CODECOPY PUSH0 RETURN INVALID PUSH1 0x80 PUSH1 0x40 MSTORE CALLVALUE DUP1 ISZERO PUSH2 0xF JUMPI PUSH0 DUP1 REVERT JUMPDEST POP PUSH1 0x4 CALLDATASIZE LT PUSH2 0x135 JUMPI PUSH0 CALLDATALOAD PUSH1 0xE0 SHR DUP1 PUSH4 0x839EA2D9 GT PUSH2 0xB6 JUMPI DUP1 PUSH4 0xC6D69A30 GT PUSH2 0x7A JUMPI DUP1 PUSH4 0xC6D69A30 EQ PUSH2 0x2DB JUMPI DUP1 PUSH4 0xCE1D1F1F EQ PUSH2 0x2F7 JUMPI DUP1 PUSH4 0xD4A49C17 EQ PUSH2 0x315 JUMPI DUP1 PUSH4 0xDC38679C EQ PUSH2 0x331 JUMPI DUP1 PUSH4 0xEEA7570E EQ PUSH2 0x34F JUMPI DUP1 PUSH4 0xF2FDE38B EQ PUSH2 0x36D JUMPI PUSH2 0x135 JUMP JUMPDEST DUP1 PUSH4 0x839EA2D9 EQ PUSH2 0x249 JUMPI DUP1 PUSH4 0x8456CB59 EQ PUSH2 0x279 JUMPI DUP1 PUSH4 0x8DA5CB5B EQ PUSH2 0x283 JUMPI DUP1 PUSH4 0x9063EE20 EQ PUSH2 0x2A1 JUMPI DUP1 PUSH4 0x9E9AED62 EQ PUSH2 0x2BD JUMPI PUSH2 0x135 JUMP JUMPDEST DUP1 PUSH4 0x6A64EFF8 GT PUSH2 0xFD JUMPI DUP1 PUSH4 0x6A64EFF8 EQ PUSH2 0x1B9 JUMPI DUP1 PUSH4 0x771A3A1D EQ PUSH2 0x1D5 JUMPI DUP1 PUSH4 0x79A9FA1C EQ PUSH2 0x1F3 JUMPI DUP1 PUSH4 0x7EF7BA20 EQ PUSH2 0x20F JUMPI DUP1 PUSH4 0x7FF8B57A EQ PUSH2 0x22D JUMPI PUSH2 0x135 JUMP JUMPDEST DUP1 PUSH4 0x7E675FA EQ PUSH2 0x139 JUMPI DUP1 PUSH4 0x3013CE29 EQ PUSH2 0x155 JUMPI DUP1 PUSH4 0x3F4BA83A EQ PUSH2 0x173 JUMPI DUP1 PUSH4 0x5C975ABB EQ PUSH2 0x17D JUMPI DUP1 PUSH4 0x5D0040D3 EQ PUSH2 0x19B JUMPI JUMPDEST PUSH0 DUP1 REVERT JUMPDEST PUSH2 0x153 PUSH1 0x4 DUP1 CALLDATASIZE SUB DUP2 ADD SWAP1 PUSH2 0x14E SWAP2 SWAP1 PUSH2 0x1ADE JUMP JUMPDEST PUSH2 0x389 JUMP JUMPDEST STOP JUMPDEST PUSH2 0x15D PUSH2 0x63E JUMP JUMPDEST PUSH1 0x40 MLOAD PUSH2 0x16A SWAP2 SWAP1 PUSH2 0x1B48 JUMP JUMPDEST PUSH1 0x40 MLOAD DUP1 SWAP2 SUB SWAP1 RETURN JUMPDEST PUSH2 0x17B PUSH2 0x663 JUMP JUMPDEST STOP JUMPDEST PUSH2 0x185 PUSH2 0x6FC JUMP JUMPDEST PUSH1 0x40 MLOAD PUSH2 0x192 SWAP2 SWAP1 PUSH2 0x1B7B JUMP JUMPDEST PUSH1 0x40 MLOAD DUP1 SWAP2 SUB SWAP1 RETURN JUMPDEST PUSH2 0x1A3 PUSH2 0x710 JUMP JUMPDEST PUSH1 0x40 MLOAD PUSH2 0x1B0 SWAP2 SWAP1 PUSH2 0x1BA3 JUMP JUMPDEST PUSH1 0x40 MLOAD DUP1 SWAP2 SUB SWAP1 RETURN JUMPDEST PUSH2 0x1D3 PUSH1 0x4 DUP1 CALLDATASIZE SUB DUP2 ADD SWAP1 PUSH2 0x1CE SWAP2 SWAP1 PUSH2 0x1ADE JUMP JUMPDEST PUSH2 0x716 JUMP JUMPDEST STOP JUMPDEST PUSH2 0x1DD PUSH2 0x7AF JUMP JUMPDEST PUSH1 0x40 MLOAD PUSH2 0x1EA SWAP2 SWAP1 PUSH2 0x1BA3 JUMP JUMPDEST PUSH1 0x40 MLOAD DUP1 SWAP2 SUB SWAP1 RETURN JUMPDEST PUSH2 0x20D PUSH1 0x4 DUP1 CALLDATASIZE SUB DUP2 ADD SWAP1 PUSH2 0x208 SWAP2 SWAP1 PUSH2 0x1ADE JUMP JUMPDEST PUSH2 0x7B5 JUMP JUMPDEST STOP JUMPDEST PUSH2 0x217 PUSH2 0xC72 JUMP JUMPDEST PUSH1 0x40 MLOAD PUSH2 0x224 SWAP2 SWAP1 PUSH2 0x1B48 JUMP JUMPDEST PUSH1 0x40 MLOAD DUP1 SWAP2 SUB SWAP1 RETURN JUMPDEST PUSH2 0x247 PUSH1 0x4 DUP1 CALLDATASIZE SUB DUP2 ADD SWAP1 PUSH2 0x242 SWAP2 SWAP1 PUSH2 0x1ADE JUMP JUMPDEST PUSH2 0xC97 JUMP JUMPDEST STOP JUMPDEST PUSH2 0x263 PUSH1 0x4 DUP1 CALLDATASIZE SUB DUP2 ADD SWAP1 PUSH2 0x25E SWAP2 SWAP1 PUSH2 0x1ADE JUMP JUMPDEST PUSH2 0xD74 JUMP JUMPDEST PUSH1 0x40 MLOAD PUSH2 0x270 SWAP2 SWAP1 PUSH2 0x1B7B JUMP JUMPDEST PUSH1 0x40 MLOAD DUP1 SWAP2 SUB SWAP1 RETURN JUMPDEST PUSH2 0x281 PUSH2 0xE6C JUMP JUMPDEST STOP JUMPDEST PUSH2 0x28B PUSH2 0xF05 JUMP JUMPDEST PUSH1 0x40 MLOAD PUSH2 0x298 SWAP2 SWAP1 PUSH2 0x1B48 JUMP JUMPDEST PUSH1 0x40 MLOAD DUP1 SWAP2 SUB SWAP1 RETURN JUMPDEST PUSH2 0x2BB PUSH1 0x4 DUP1 CALLDATASIZE SUB DUP2 ADD SWAP1 PUSH2 0x2B6 SWAP2 SWAP1 PUSH2 0x1ADE JUMP JUMPDEST PUSH2 0xF2A JUMP JUMPDEST STOP JUMPDEST PUSH2 0x2C5 PUSH2 0x1128 JUMP JUMPDEST PUSH1 0x40 MLOAD PUSH2 0x2D2 SWAP2 SWAP1 PUSH2 0x1BA3 JUMP JUMPDEST PUSH1 0x40 MLOAD DUP1 SWAP2 SUB SWAP1 RETURN JUMPDEST PUSH2 0x2F5 PUSH1 0x4 DUP1 CALLDATASIZE SUB DUP2 ADD SWAP1 PUSH2 0x2F0 SWAP2 SWAP1 PUSH2 0x1ADE JUMP JUMPDEST PUSH2 0x11C7 JUMP JUMPDEST STOP JUMPDEST PUSH2 0x2FF PUSH2 0x12E0 JUMP JUMPDEST PUSH1 0x40 MLOAD PUSH2 0x30C SWAP2 SWAP1 PUSH2 0x1BA3 JUMP JUMPDEST PUSH1 0x40 MLOAD DUP1 SWAP2 SUB SWAP1 RETURN JUMPDEST PUSH2 0x32F PUSH1 0x4 DUP1 CALLDATASIZE SUB DUP2 ADD SWAP1 PUSH2 0x32A SWAP2 SWAP1 PUSH2 0x1BE6 JUMP JUMPDEST PUSH2 0x13E0 JUMP JUMPDEST STOP JUMPDEST PUSH2 0x339 PUSH2 0x159B JUMP JUMPDEST PUSH1 0x40 MLOAD PUSH2 0x346 SWAP2 SWAP1 PUSH2 0x1BA3 JUMP JUMPDEST PUSH1 0x40 MLOAD DUP1 SWAP2 SUB SWAP1 RETURN JUMPDEST PUSH2 0x357 PUSH2 0x15A1 JUMP JUMPDEST PUSH1 0x40 MLOAD PUSH2 0x364 SWAP2 SWAP1 PUSH2 0x1B48 JUMP JUMPDEST PUSH1 0x40 MLOAD DUP1 SWAP2 SUB SWAP1 RETURN JUMPDEST PUSH2 0x387 PUSH1 0x4 DUP1 CALLDATASIZE SUB DUP2 ADD SWAP1 PUSH2 0x382 SWAP2 SWAP1 PUSH2 0x1BE6 JUMP JUMPDEST PUSH2 0x15C6 JUMP JUMPDEST STOP JUMPDEST PUSH1 0x2 PUSH0 SWAP1 SLOAD SWAP1 PUSH2 0x100 EXP SWAP1 DIV PUSH20 0xFFFFFFFFFFFFFFFFFFFFFFFFFFFFFFFFFFFFFFFF AND PUSH20 0xFFFFFFFFFFFFFFFFFFFFFFFFFFFFFFFFFFFFFFFF AND CALLER PUSH20 0xFFFFFFFFFFFFFFFFFFFFFFFFFFFFFFFFFFFFFFFF AND EQ PUSH2 0x418 JUMPI PUSH1 0x40 MLOAD PUSH32 0x8C379A000000000000000000000000000000000000000000000000000000000 DUP2 MSTORE PUSH1 0x4 ADD PUSH2 0x40F SWAP1 PUSH2 0x1C6B JUMP JUMPDEST PUSH1 0x40 MLOAD DUP1 SWAP2 SUB SWAP1 REVERT JUMPDEST PUSH0 DUP2 GT PUSH2 0x45A JUMPI PUSH1 0x40 MLOAD PUSH32 0x8C379A000000000000000000000000000000000000000000000000000000000 DUP2 MSTORE PUSH1 0x4 ADD PUSH2 0x451 SWAP1 PUSH2 0x1CD3 JUMP JUMPDEST PUSH1 0x40 MLOAD DUP1 SWAP2 SUB SWAP1 REVERT JUMPDEST PUSH0 PUSH1 0x3 PUSH0 SWAP1 SLOAD SWAP1 PUSH2 0x100 EXP SWAP1 DIV PUSH20 0xFFFFFFFFFFFFFFFFFFFFFFFFFFFFFFFFFFFFFFFF AND PUSH20 0xFFFFFFFFFFFFFFFFFFFFFFFFFFFFFFFFFFFFFFFF AND PUSH4 0x70A08231 ADDRESS PUSH1 0x40 MLOAD DUP3 PUSH4 0xFFFFFFFF AND PUSH1 0xE0 SHL DUP2 MSTORE PUSH1 0x4 ADD PUSH2 0x4B5 SWAP2 SWAP1 PUSH2 0x1B48 JUMP JUMPDEST PUSH1 0x20 PUSH1 0x40 MLOAD DUP1 DUP4 SUB DUP2 DUP7 GAS STATICCALL ISZERO DUP1 ISZERO PUSH2 0x4D0 JUMPI RETURNDATASIZE PUSH0 DUP1 RETURNDATACOPY RETURNDATASIZE PUSH0 REVERT JUMPDEST POP POP POP POP PUSH1 0x40 MLOAD RETURNDATASIZE PUSH1 0x1F NOT PUSH1 0x1F DUP3 ADD AND DUP3 ADD DUP1 PUSH1 0x40 MSTORE POP DUP2 ADD SWAP1 PUSH2 0x4F4 SWAP2 SWAP1 PUSH2 0x1D05 JUMP JUMPDEST SWAP1 POP DUP1 DUP3 GT ISZERO PUSH2 0x539 JUMPI PUSH1 0x40 MLOAD PUSH32 0x8C379A000000000000000000000000000000000000000000000000000000000 DUP2 MSTORE PUSH1 0x4 ADD PUSH2 0x530 SWAP1 PUSH2 0x1D7A JUMP JUMPDEST PUSH1 0x40 MLOAD DUP1 SWAP2 SUB SWAP1 REVERT JUMPDEST PUSH0 PUSH1 0x3 PUSH0 SWAP1 SLOAD SWAP1 PUSH2 0x100 EXP SWAP1 DIV PUSH20 0xFFFFFFFFFFFFFFFFFFFFFFFFFFFFFFFFFFFFFFFF AND PUSH20 0xFFFFFFFFFFFFFFFFFFFFFFFFFFFFFFFFFFFFFFFF AND PUSH4 0xA9059CBB PUSH1 0x2 PUSH0 SWAP1 SLOAD SWAP1 PUSH2 0x100 EXP SWAP1 DIV PUSH20 0xFFFFFFFFFFFFFFFFFFFFFFFFFFFFFFFFFFFFFFFF AND DUP6 PUSH1 0x40 MLOAD DUP4 PUSH4 0xFFFFFFFF AND PUSH1 0xE0 SHL DUP2 MSTORE PUSH1 0x4 ADD PUSH2 0x5B7 SWAP3 SWAP2 SWAP1 PUSH2 0x1D98 JUMP JUMPDEST PUSH1 0x20 PUSH1 0x40 MLOAD DUP1 DUP4 SUB DUP2 PUSH0 DUP8 GAS CALL ISZERO DUP1 ISZERO PUSH2 0x5D3 JUMPI RETURNDATASIZE PUSH0 DUP1 RETURNDATACOPY RETURNDATASIZE PUSH0 REVERT JUMPDEST POP POP POP POP PUSH1 0x40 MLOAD RETURNDATASIZE PUSH1 0x1F NOT PUSH1 0x1F DUP3 ADD AND DUP3 ADD DUP1 PUSH1 0x40 MSTORE POP DUP2 ADD SWAP1 PUSH2 0x5F7 SWAP2 SWAP1 PUSH2 0x1DE9 JUMP JUMPDEST SWAP1 POP DUP1 PUSH2 0x639 JUMPI PUSH1 0x40 MLOAD PUSH32 0x8C379A000000000000000000000000000000000000000000000000000000000 DUP2 MSTORE PUSH1 0x4 ADD PUSH2 0x630 SWAP1 PUSH2 0x1E5E JUMP JUMPDEST PUSH1 0x40 MLOAD DUP1 SWAP2 SUB SWAP1 REVERT JUMPDEST POP POP POP JUMP JUMPDEST PUSH1 0x3 PUSH0 SWAP1 SLOAD SWAP1 PUSH2 0x100 EXP SWAP1 DIV PUSH20 0xFFFFFFFFFFFFFFFFFFFFFFFFFFFFFFFFFFFFFFFF AND DUP2 JUMP JUMPDEST PUSH1 0x2 PUSH0 SWAP1 SLOAD SWAP1 PUSH2 0x100 EXP SWAP1 DIV PUSH20 0xFFFFFFFFFFFFFFFFFFFFFFFFFFFFFFFFFFFFFFFF AND PUSH20 0xFFFFFFFFFFFFFFFFFFFFFFFFFFFFFFFFFFFFFFFF AND CALLER PUSH20 0xFFFFFFFFFFFFFFFFFFFFFFFFFFFFFFFFFFFFFFFF AND EQ PUSH2 0x6F2 JUMPI PUSH1 0x40 MLOAD PUSH32 0x8C379A000000000000000000000000000000000000000000000000000000000 DUP2 MSTORE PUSH1 0x4 ADD PUSH2 0x6E9 SWAP1 PUSH2 0x1C6B JUMP JUMPDEST PUSH1 0x40 MLOAD DUP1 SWAP2 SUB SWAP1 REVERT JUMPDEST PUSH2 0x6FA PUSH2 0x1781 JUMP JUMPDEST JUMP JUMPDEST PUSH0 DUP1 PUSH0 SWAP1 SLOAD SWAP1 PUSH2 0x100 EXP SWAP1 DIV PUSH1 0xFF AND SWAP1 POP SWAP1 JUMP JUMPDEST PUSH1 0x6 SLOAD DUP2 JUMP JUMPDEST PUSH1 0x2 PUSH0 SWAP1 SLOAD SWAP1 PUSH2 0x100 EXP SWAP1 DIV PUSH20 0xFFFFFFFFFFFFFFFFFFFFFFFFFFFFFFFFFFFFFFFF AND PUSH20 0xFFFFFFFFFFFFFFFFFFFFFFFFFFFFFFFFFFFFFFFF AND CALLER PUSH20 0xFFFFFFFFFFFFFFFFFFFFFFFFFFFFFFFFFFFFFFFF AND EQ PUSH2 0x7A5 JUMPI PUSH1 0x40 MLOAD PUSH32 0x8C379A000000000000000000000000000000000000000000000000000000000 DUP2 MSTORE PUSH1 0x4 ADD PUSH2 0x79C SWAP1 PUSH2 0x1C6B JUMP JUMPDEST PUSH1 0x40 MLOAD DUP1 SWAP2 SUB SWAP1 REVERT JUMPDEST DUP1 PUSH1 0x7 DUP2 SWAP1 SSTORE POP POP JUMP JUMPDEST PUSH1 0x8 SLOAD DUP2 JUMP JUMPDEST PUSH2 0x7BD PUSH2 0x6FC JUMP JUMPDEST ISZERO PUSH2 0x7FD JUMPI PUSH1 0x40 MLOAD PUSH32 0x8C379A000000000000000000000000000000000000000000000000000000000 DUP2 MSTORE PUSH1 0x4 ADD PUSH2 0x7F4 SWAP1 PUSH2 0x1EC6 JUMP JUMPDEST PUSH1 0x40 MLOAD DUP1 SWAP2 SUB SWAP1 REVERT JUMPDEST PUSH2 0x805 PUSH2 0x1819 JUMP JUMPDEST PUSH0 DUP2 GT PUSH2 0x847 JUMPI PUSH1 0x40 MLOAD PUSH32 0x8C379A000000000000000000000000000000000000000000000000000000000 DUP2 MSTORE PUSH1 0x4 ADD PUSH2 0x83E SWAP1 PUSH2 0x1F2E JUMP JUMPDEST PUSH1 0x40 MLOAD DUP1 SWAP2 SUB SWAP1 REVERT JUMPDEST PUSH0 PUSH1 0x4 PUSH0 SWAP1 SLOAD SWAP1 PUSH2 0x100 EXP SWAP1 DIV PUSH20 0xFFFFFFFFFFFFFFFFFFFFFFFFFFFFFFFFFFFFFFFF AND PUSH20 0xFFFFFFFFFFFFFFFFFFFFFFFFFFFFFFFFFFFFFFFF AND PUSH4 0xDD62ED3E CALLER ADDRESS PUSH1 0x40 MLOAD DUP4 PUSH4 0xFFFFFFFF AND PUSH1 0xE0 SHL DUP2 MSTORE PUSH1 0x4 ADD PUSH2 0x8A4 SWAP3 SWAP2 SWAP1 PUSH2 0x1F4C JUMP JUMPDEST PUSH1 0x20 PUSH1 0x40 MLOAD DUP1 DUP4 SUB DUP2 DUP7 GAS STATICCALL ISZERO DUP1 ISZERO PUSH2 0x8BF JUMPI RETURNDATASIZE PUSH0 DUP1 RETURNDATACOPY RETURNDATASIZE PUSH0 REVERT JUMPDEST POP POP POP POP PUSH1 0x40 MLOAD RETURNDATASIZE PUSH1 0x1F NOT PUSH1 0x1F DUP3 ADD AND DUP3 ADD DUP1 PUSH1 0x40 MSTORE POP DUP2 ADD SWAP1 PUSH2 0x8E3 SWAP2 SWAP1 PUSH2 0x1D05 JUMP JUMPDEST SWAP1 POP DUP2 DUP2 LT ISZERO PUSH2 0x928 JUMPI PUSH1 0x40 MLOAD PUSH32 0x8C379A000000000000000000000000000000000000000000000000000000000 DUP2 MSTORE PUSH1 0x4 ADD PUSH2 0x91F SWAP1 PUSH2 0x1FBD JUMP JUMPDEST PUSH1 0x40 MLOAD DUP1 SWAP2 SUB SWAP1 REVERT JUMPDEST PUSH2 0x976 CALLER ADDRESS DUP5 PUSH1 0x4 PUSH0 SWAP1 SLOAD SWAP1 PUSH2 0x100 EXP SWAP1 DIV PUSH20 0xFFFFFFFFFFFFFFFFFFFFFFFFFFFFFFFFFFFFFFFF AND PUSH20 0xFFFFFFFFFFFFFFFFFFFFFFFFFFFFFFFFFFFFFFFF AND PUSH2 0x1868 SWAP1 SWAP4 SWAP3 SWAP2 SWAP1 PUSH4 0xFFFFFFFF AND JUMP JUMPDEST PUSH0 PUSH1 0x64 PUSH1 0x6 SLOAD PUSH1 0x64 PUSH2 0x988 SWAP2 SWAP1 PUSH2 0x2008 JUMP JUMPDEST PUSH1 0x7 SLOAD PUSH2 0x995 SWAP2 SWAP1 PUSH2 0x203B JUMP JUMPDEST PUSH2 0x99F SWAP2 SWAP1 PUSH2 0x20A9 JUMP JUMPDEST SWAP1 POP PUSH0 PUSH8 0xDE0B6B3A7640000 DUP3 DUP6 PUSH2 0x9B7 SWAP2 SWAP1 PUSH2 0x203B JUMP JUMPDEST PUSH2 0x9C1 SWAP2 SWAP1 PUSH2 0x20A9 JUMP JUMPDEST SWAP1 POP PUSH0 PUSH1 0x3 PUSH0 SWAP1 SLOAD SWAP1 PUSH2 0x100 EXP SWAP1 DIV PUSH20 0xFFFFFFFFFFFFFFFFFFFFFFFFFFFFFFFFFFFFFFFF AND PUSH20 0xFFFFFFFFFFFFFFFFFFFFFFFFFFFFFFFFFFFFFFFF AND PUSH4 0x70A08231 ADDRESS PUSH1 0x40 MLOAD DUP3 PUSH4 0xFFFFFFFF AND PUSH1 0xE0 SHL DUP2 MSTORE PUSH1 0x4 ADD PUSH2 0xA1E SWAP2 SWAP1 PUSH2 0x1B48 JUMP JUMPDEST PUSH1 0x20 PUSH1 0x40 MLOAD DUP1 DUP4 SUB DUP2 DUP7 GAS STATICCALL ISZERO DUP1 ISZERO PUSH2 0xA39 JUMPI RETURNDATASIZE PUSH0 DUP1 RETURNDATACOPY RETURNDATASIZE PUSH0 REVERT JUMPDEST POP POP POP POP PUSH1 0x40 MLOAD RETURNDATASIZE PUSH1 0x1F NOT PUSH1 0x1F DUP3 ADD AND DUP3 ADD DUP1 PUSH1 0x40 MSTORE POP DUP2 ADD SWAP1 PUSH2 0xA5D SWAP2 SWAP1 PUSH2 0x1D05 JUMP JUMPDEST SWAP1 POP DUP2 DUP2 LT ISZERO PUSH2 0xAA2 JUMPI PUSH1 0x40 MLOAD PUSH32 0x8C379A000000000000000000000000000000000000000000000000000000000 DUP2 MSTORE PUSH1 0x4 ADD PUSH2 0xA99 SWAP1 PUSH2 0x2149 JUMP JUMPDEST PUSH1 0x40 MLOAD DUP1 SWAP2 SUB SWAP1 REVERT JUMPDEST PUSH0 PUSH2 0x2710 PUSH1 0x8 SLOAD DUP5 PUSH2 0xAB4 SWAP2 SWAP1 PUSH2 0x203B JUMP JUMPDEST PUSH2 0xABE SWAP2 SWAP1 PUSH2 0x20A9 JUMP JUMPDEST SWAP1 POP PUSH0 DUP2 DUP5 PUSH2 0xACD SWAP2 SWAP1 PUSH2 0x2167 JUMP JUMPDEST SWAP1 POP PUSH2 0xB3C PUSH1 0x5 PUSH0 SWAP1 SLOAD SWAP1 PUSH2 0x100 EXP SWAP1 DIV PUSH20 0xFFFFFFFFFFFFFFFFFFFFFFFFFFFFFFFFFFFFFFFF AND DUP4 PUSH1 0x3 PUSH0 SWAP1 SLOAD SWAP1 PUSH2 0x100 EXP SWAP1 DIV PUSH20 0xFFFFFFFFFFFFFFFFFFFFFFFFFFFFFFFFFFFFFFFF AND PUSH20 0xFFFFFFFFFFFFFFFFFFFFFFFFFFFFFFFFFFFFFFFF AND PUSH2 0x18EA SWAP1 SWAP3 SWAP2 SWAP1 PUSH4 0xFFFFFFFF AND JUMP JUMPDEST PUSH2 0xB88 CALLER DUP3 PUSH1 0x3 PUSH0 SWAP1 SLOAD SWAP1 PUSH2 0x100 EXP SWAP1 DIV PUSH20 0xFFFFFFFFFFFFFFFFFFFFFFFFFFFFFFFFFFFFFFFF AND PUSH20 0xFFFFFFFFFFFFFFFFFFFFFFFFFFFFFFFFFFFFFFFF AND PUSH2 0x18EA SWAP1 SWAP3 SWAP2 SWAP1 PUSH4 0xFFFFFFFF AND JUMP JUMPDEST PUSH1 0x4 PUSH0 SWAP1 SLOAD SWAP1 PUSH2 0x100 EXP SWAP1 DIV PUSH20 0xFFFFFFFFFFFFFFFFFFFFFFFFFFFFFFFFFFFFFFFF AND PUSH20 0xFFFFFFFFFFFFFFFFFFFFFFFFFFFFFFFFFFFFFFFF AND PUSH4 0x9DC29FAC ADDRESS DUP10 PUSH1 0x40 MLOAD DUP4 PUSH4 0xFFFFFFFF AND PUSH1 0xE0 SHL DUP2 MSTORE PUSH1 0x4 ADD PUSH2 0xBE4 SWAP3 SWAP2 SWAP1 PUSH2 0x1D98 JUMP JUMPDEST PUSH0 PUSH1 0x40 MLOAD DUP1 DUP4 SUB DUP2 PUSH0 DUP8 DUP1 EXTCODESIZE ISZERO DUP1 ISZERO PUSH2 0xBFB JUMPI PUSH0 DUP1 REVERT JUMPDEST POP GAS CALL ISZERO DUP1 ISZERO PUSH2 0xC0D JUMPI RETURNDATASIZE PUSH0 DUP1 RETURNDATACOPY RETURNDATASIZE PUSH0 REVERT JUMPDEST POP POP POP POP CALLER PUSH20 0xFFFFFFFFFFFFFFFFFFFFFFFFFFFFFFFFFFFFFFFF AND PUSH32 0xCB7F55D0B91628D4520B789339DAE4803AB07182EA89D138ACBD965DAC51DC65 DUP9 DUP7 PUSH1 0x40 MLOAD PUSH2 0xC59 SWAP3 SWAP2 SWAP1 PUSH2 0x219A JUMP JUMPDEST PUSH1 0x40 MLOAD DUP1 SWAP2 SUB SWAP1 LOG2 POP POP POP POP POP POP PUSH2 0xC6F PUSH2 0x1969 JUMP JUMPDEST POP JUMP JUMPDEST PUSH1 0x4 PUSH0 SWAP1 SLOAD SWAP1 PUSH2 0x100 EXP SWAP1 DIV PUSH20 0xFFFFFFFFFFFFFFFFFFFFFFFFFFFFFFFFFFFFFFFF AND DUP2 JUMP JUMPDEST PUSH1 0x2 PUSH0 SWAP1 SLOAD SWAP1 PUSH2 0x100 EXP SWAP1 DIV PUSH20 0xFFFFFFFFFFFFFFFFFFFFFFFFFFFFFFFFFFFFFFFF AND PUSH20 0xFFFFFFFFFFFFFFFFFFFFFFFFFFFFFFFFFFFFFFFF AND CALLER PUSH20 0xFFFFFFFFFFFFFFFFFFFFFFFFFFFFFFFFFFFFFFFF AND EQ PUSH2 0xD26 JUMPI PUSH1 0x40 MLOAD PUSH32 0x8C379A000000000000000000000000000000000000000000000000000000000 DUP2 MSTORE PUSH1 0x4 ADD PUSH2 0xD1D SWAP1 PUSH2 0x1C6B JUMP JUMPDEST PUSH1 0x40 MLOAD DUP1 SWAP2 SUB SWAP1 REVERT JUMPDEST PUSH1 0x64 DUP2 GT ISZERO PUSH2 0xD6A JUMPI PUSH1 0x40 MLOAD PUSH32 0x8C379A000000000000000000000000000000000000000000000000000000000 DUP2 MSTORE PUSH1 0x4 ADD PUSH2 0xD61 SWAP1 PUSH2 0x220B JUMP JUMPDEST PUSH1 0x40 MLOAD DUP1 SWAP2 SUB SWAP1 REVERT JUMPDEST DUP1 PUSH1 0x6 DUP2 SWAP1 SSTORE POP POP JUMP JUMPDEST PUSH0 DUP1 PUSH1 0x64 PUSH1 0x6 SLOAD PUSH1 0x64 PUSH2 0xD87 SWAP2 SWAP1 PUSH2 0x2008 JUMP JUMPDEST PUSH1 0x7 SLOAD PUSH2 0xD94 SWAP2 SWAP1 PUSH2 0x203B JUMP JUMPDEST PUSH2 0xD9E SWAP2 SWAP1 PUSH2 0x20A9 JUMP JUMPDEST SWAP1 POP PUSH0 PUSH8 0xDE0B6B3A7640000 DUP3 DUP6 PUSH2 0xDB6 SWAP2 SWAP1 PUSH2 0x203B JUMP JUMPDEST PUSH2 0xDC0 SWAP2 SWAP1 PUSH2 0x20A9 JUMP JUMPDEST SWAP1 POP PUSH0 PUSH1 0x3 PUSH0 SWAP1 SLOAD SWAP1 PUSH2 0x100 EXP SWAP1 DIV PUSH20 0xFFFFFFFFFFFFFFFFFFFFFFFFFFFFFFFFFFFFFFFF AND PUSH20 0xFFFFFFFFFFFFFFFFFFFFFFFFFFFFFFFFFFFFFFFF AND PUSH4 0x70A08231 ADDRESS PUSH1 0x40 MLOAD DUP3 PUSH4 0xFFFFFFFF AND PUSH1 0xE0 SHL DUP2 MSTORE PUSH1 0x4 ADD PUSH2 0xE1D SWAP2 SWAP1 PUSH2 0x1B48 JUMP JUMPDEST PUSH1 0x20 PUSH1 0x40 MLOAD DUP1 DUP4 SUB DUP2 DUP7 GAS STATICCALL ISZERO DUP1 ISZERO PUSH2 0xE38 JUMPI RETURNDATASIZE PUSH0 DUP1 RETURNDATACOPY RETURNDATASIZE PUSH0 REVERT JUMPDEST POP POP POP POP PUSH1 0x40 MLOAD RETURNDATASIZE PUSH1 0x1F NOT PUSH1 0x1F DUP3 ADD AND DUP3 ADD DUP1 PUSH1 0x40 MSTORE POP DUP2 ADD SWAP1 PUSH2 0xE5C SWAP2 SWAP1 PUSH2 0x1D05 JUMP JUMPDEST SWAP1 POP DUP2 DUP2 LT ISZERO SWAP4 POP POP POP POP SWAP2 SWAP1 POP JUMP JUMPDEST PUSH1 0x2 PUSH0 SWAP1 SLOAD SWAP1 PUSH2 0x100 EXP SWAP1 DIV PUSH20 0xFFFFFFFFFFFFFFFFFFFFFFFFFFFFFFFFFFFFFFFF AND PUSH20 0xFFFFFFFFFFFFFFFFFFFFFFFFFFFFFFFFFFFFFFFF AND CALLER PUSH20 0xFFFFFFFFFFFFFFFFFFFFFFFFFFFFFFFFFFFFFFFF AND EQ PUSH2 0xEFB JUMPI PUSH1 0x40 MLOAD PUSH32 0x8C379A000000000000000000000000000000000000000000000000000000000 DUP2 MSTORE PUSH1 0x4 ADD PUSH2 0xEF2 SWAP1 PUSH2 0x1C6B JUMP JUMPDEST PUSH1 0x40 MLOAD DUP1 SWAP2 SUB SWAP1 REVERT JUMPDEST PUSH2 0xF03 PUSH2 0x1972 JUMP JUMPDEST JUMP JUMPDEST PUSH1 0x2 PUSH0 SWAP1 SLOAD SWAP1 PUSH2 0x100 EXP SWAP1 DIV PUSH20 0xFFFFFFFFFFFFFFFFFFFFFFFFFFFFFFFFFFFFFFFF AND DUP2 JUMP JUMPDEST PUSH1 0x2 PUSH0 SWAP1 SLOAD SWAP1 PUSH2 0x100 EXP SWAP1 DIV PUSH20 0xFFFFFFFFFFFFFFFFFFFFFFFFFFFFFFFFFFFFFFFF AND PUSH20 0xFFFFFFFFFFFFFFFFFFFFFFFFFFFFFFFFFFFFFFFF AND CALLER PUSH20 0xFFFFFFFFFFFFFFFFFFFFFFFFFFFFFFFFFFFFFFFF AND EQ PUSH2 0xFB9 JUMPI PUSH1 0x40 MLOAD PUSH32 0x8C379A000000000000000000000000000000000000000000000000000000000 DUP2 MSTORE PUSH1 0x4 ADD PUSH2 0xFB0 SWAP1 PUSH2 0x1C6B JUMP JUMPDEST PUSH1 0x40 MLOAD DUP1 SWAP2 SUB SWAP1 REVERT JUMPDEST PUSH2 0xFC1 PUSH2 0x6FC JUMP JUMPDEST ISZERO PUSH2 0x1001 JUMPI PUSH1 0x40 MLOAD PUSH32 0x8C379A000000000000000000000000000000000000000000000000000000000 DUP2 MSTORE PUSH1 0x4 ADD PUSH2 0xFF8 SWAP1 PUSH2 0x1EC6 JUMP JUMPDEST PUSH1 0x40 MLOAD DUP1 SWAP2 SUB SWAP1 REVERT JUMPDEST PUSH0 DUP2 GT PUSH2 0x1043 JUMPI PUSH1 0x40 MLOAD PUSH32 0x8C379A000000000000000000000000000000000000000000000000000000000 DUP2 MSTORE PUSH1 0x4 ADD PUSH2 0x103A SWAP1 PUSH2 0x2273 JUMP JUMPDEST PUSH1 0x40 MLOAD DUP1 SWAP2 SUB SWAP1 REVERT JUMPDEST PUSH0 PUSH1 0x3 PUSH0 SWAP1 SLOAD SWAP1 PUSH2 0x100 EXP SWAP1 DIV PUSH20 0xFFFFFFFFFFFFFFFFFFFFFFFFFFFFFFFFFFFFFFFF AND PUSH20 0xFFFFFFFFFFFFFFFFFFFFFFFFFFFFFFFFFFFFFFFF AND PUSH4 0x23B872DD CALLER ADDRESS DUP6 PUSH1 0x40 MLOAD DUP5 PUSH4 0xFFFFFFFF AND PUSH1 0xE0 SHL DUP2 MSTORE PUSH1 0x4 ADD PUSH2 0x10A2 SWAP4 SWAP3 SWAP2 SWAP1 PUSH2 0x2291 JUMP JUMPDEST PUSH1 0x20 PUSH1 0x40 MLOAD DUP1 DUP4 SUB DUP2 PUSH0 DUP8 GAS CALL ISZERO DUP1 ISZERO PUSH2 0x10BE JUMPI RETURNDATASIZE PUSH0 DUP1 RETURNDATACOPY RETURNDATASIZE PUSH0 REVERT JUMPDEST POP POP POP POP PUSH1 0x40 MLOAD RETURNDATASIZE PUSH1 0x1F NOT PUSH1 0x1F DUP3 ADD AND DUP3 ADD DUP1 PUSH1 0x40 MSTORE POP DUP2 ADD SWAP1 PUSH2 0x10E2 SWAP2 SWAP1 PUSH2 0x1DE9 JUMP JUMPDEST SWAP1 POP DUP1 PUSH2 0x1124 JUMPI PUSH1 0x40 MLOAD PUSH32 0x8C379A000000000000000000000000000000000000000000000000000000000 DUP2 MSTORE PUSH1 0x4 ADD PUSH2 0x111B SWAP1 PUSH2 0x2310 JUMP JUMPDEST PUSH1 0x40 MLOAD DUP1 SWAP2 SUB SWAP1 REVERT JUMPDEST POP POP JUMP JUMPDEST PUSH0 PUSH1 0x3 PUSH0 SWAP1 SLOAD SWAP1 PUSH2 0x100 EXP SWAP1 DIV PUSH20 0xFFFFFFFFFFFFFFFFFFFFFFFFFFFFFFFFFFFFFFFF AND PUSH20 0xFFFFFFFFFFFFFFFFFFFFFFFFFFFFFFFFFFFFFFFF AND PUSH4 0x70A08231 ADDRESS PUSH1 0x40 MLOAD DUP3 PUSH4 0xFFFFFFFF AND PUSH1 0xE0 SHL DUP2 MSTORE PUSH1 0x4 ADD PUSH2 0x1183 SWAP2 SWAP1 PUSH2 0x1B48 JUMP JUMPDEST PUSH1 0x20 PUSH1 0x40 MLOAD DUP1 DUP4 SUB DUP2 DUP7 GAS STATICCALL ISZERO DUP1 ISZERO PUSH2 0x119E JUMPI RETURNDATASIZE PUSH0 DUP1 RETURNDATACOPY RETURNDATASIZE PUSH0 REVERT JUMPDEST POP POP POP POP PUSH1 0x40 MLOAD RETURNDATASIZE PUSH1 0x1F NOT PUSH1 0x1F DUP3 ADD AND DUP3 ADD DUP1 PUSH1 0x40 MSTORE POP DUP2 ADD SWAP1 PUSH2 0x11C2 SWAP2 SWAP1 PUSH2 0x1D05 JUMP JUMPDEST SWAP1 POP SWAP1 JUMP JUMPDEST PUSH1 0x2 PUSH0 SWAP1 SLOAD SWAP1 PUSH2 0x100 EXP SWAP1 DIV PUSH20 0xFFFFFFFFFFFFFFFFFFFFFFFFFFFFFFFFFFFFFFFF AND PUSH20 0xFFFFFFFFFFFFFFFFFFFFFFFFFFFFFFFFFFFFFFFF AND CALLER PUSH20 0xFFFFFFFFFFFFFFFFFFFFFFFFFFFFFFFFFFFFFFFF AND EQ PUSH2 0x1256 JUMPI PUSH1 0x40 MLOAD PUSH32 0x8C379A000000000000000000000000000000000000000000000000000000000 DUP2 MSTORE PUSH1 0x4 ADD PUSH2 0x124D SWAP1 PUSH2 0x1C6B JUMP JUMPDEST PUSH1 0x40 MLOAD DUP1 SWAP2 SUB SWAP1 REVERT JUMPDEST PUSH2 0x3E8 DUP2 GT ISZERO PUSH2 0x129B JUMPI PUSH1 0x40 MLOAD PUSH32 0x8C379A000000000000000000000000000000000000000000000000000000000 DUP2 MSTORE PUSH1 0x4 ADD PUSH2 0x1292 SWAP1 PUSH2 0x2378 JUMP JUMPDEST PUSH1 0x40 MLOAD DUP1 SWAP2 SUB SWAP1 REVERT JUMPDEST PUSH32 0xA8EE157EB2A9AA895D74DF4D2D3BC0AD165FF3162F8EC46A4ECF602DD5C48FDA PUSH1 0x8 SLOAD DUP3 PUSH1 0x40 MLOAD PUSH2 0x12CE SWAP3 SWAP2 SWAP1 PUSH2 0x219A JUMP JUMPDEST PUSH1 0x40 MLOAD DUP1 SWAP2 SUB SWAP1 LOG1 DUP1 PUSH1 0x8 DUP2 SWAP1 SSTORE POP POP JUMP JUMPDEST PUSH0 DUP1 PUSH1 0x3 PUSH0 SWAP1 SLOAD SWAP1 PUSH2 0x100 EXP SWAP1 DIV PUSH20 0xFFFFFFFFFFFFFFFFFFFFFFFFFFFFFFFFFFFFFFFF AND PUSH20 0xFFFFFFFFFFFFFFFFFFFFFFFFFFFFFFFFFFFFFFFF AND PUSH4 0x70A08231 ADDRESS PUSH1 0x40 MLOAD DUP3 PUSH4 0xFFFFFFFF AND PUSH1 0xE0 SHL DUP2 MSTORE PUSH1 0x4 ADD PUSH2 0x133C SWAP2 SWAP1 PUSH2 0x1B48 JUMP JUMPDEST PUSH1 0x20 PUSH1 0x40 MLOAD DUP1 DUP4 SUB DUP2 DUP7 GAS STATICCALL ISZERO DUP1 ISZERO PUSH2 0x1357 JUMPI RETURNDATASIZE PUSH0 DUP1 RETURNDATACOPY RETURNDATASIZE PUSH0 REVERT JUMPDEST POP POP POP POP PUSH1 0x40 MLOAD RETURNDATASIZE PUSH1 0x1F NOT PUSH1 0x1F DUP3 ADD AND DUP3 ADD DUP1 PUSH1 0x40 MSTORE POP DUP2 ADD SWAP1 PUSH2 0x137B SWAP2 SWAP1 PUSH2 0x1D05 JUMP JUMPDEST SWAP1 POP PUSH0 PUSH1 0x64 PUSH1 0x6 SLOAD PUSH1 0x64 PUSH2 0x138F SWAP2 SWAP1 PUSH2 0x2008 JUMP JUMPDEST PUSH1 0x7 SLOAD PUSH2 0x139C SWAP2 SWAP1 PUSH2 0x203B JUMP JUMPDEST PUSH2 0x13A6 SWAP2 SWAP1 PUSH2 0x20A9 JUMP JUMPDEST SWAP1 POP PUSH0 DUP2 SUB PUSH2 0x13B9 JUMPI PUSH0 SWAP3 POP POP POP PUSH2 0x13DD JUMP JUMPDEST DUP1 PUSH8 0xDE0B6B3A7640000 DUP4 PUSH2 0x13CE SWAP2 SWAP1 PUSH2 0x203B JUMP JUMPDEST PUSH2 0x13D8 SWAP2 SWAP1 PUSH2 0x20A9 JUMP JUMPDEST SWAP3 POP POP POP JUMPDEST SWAP1 JUMP JUMPDEST PUSH1 0x2 PUSH0 SWAP1 SLOAD SWAP1 PUSH2 0x100 EXP SWAP1 DIV PUSH20 0xFFFFFFFFFFFFFFFFFFFFFFFFFFFFFFFFFFFFFFFF AND PUSH20 0xFFFFFFFFFFFFFFFFFFFFFFFFFFFFFFFFFFFFFFFF AND CALLER PUSH20 0xFFFFFFFFFFFFFFFFFFFFFFFFFFFFFFFFFFFFFFFF AND EQ PUSH2 0x146F JUMPI PUSH1 0x40 MLOAD PUSH32 0x8C379A000000000000000000000000000000000000000000000000000000000 DUP2 MSTORE PUSH1 0x4 ADD PUSH2 0x1466 SWAP1 PUSH2 0x1C6B JUMP JUMPDEST PUSH1 0x40 MLOAD DUP1 SWAP2 SUB SWAP1 REVERT JUMPDEST PUSH0 PUSH20 0xFFFFFFFFFFFFFFFFFFFFFFFFFFFFFFFFFFFFFFFF AND DUP2 PUSH20 0xFFFFFFFFFFFFFFFFFFFFFFFFFFFFFFFFFFFFFFFF AND SUB PUSH2 0x14DD JUMPI PUSH1 0x40 MLOAD PUSH32 0x8C379A000000000000000000000000000000000000000000000000000000000 DUP2 MSTORE PUSH1 0x4 ADD PUSH2 0x14D4 SWAP1 PUSH2 0x23E0 JUMP JUMPDEST PUSH1 0x40 MLOAD DUP1 SWAP2 SUB SWAP1 REVERT JUMPDEST DUP1 PUSH20 0xFFFFFFFFFFFFFFFFFFFFFFFFFFFFFFFFFFFFFFFF AND PUSH1 0x5 PUSH0 SWAP1 SLOAD SWAP1 PUSH2 0x100 EXP SWAP1 DIV PUSH20 0xFFFFFFFFFFFFFFFFFFFFFFFFFFFFFFFFFFFFFFFF AND PUSH20 0xFFFFFFFFFFFFFFFFFFFFFFFFFFFFFFFFFFFFFFFF AND PUSH32 0xB4281BB17CDC594E3CF6D419DA95F70A6B02D856B26438D381EE1246A8E89F12 PUSH1 0x40 MLOAD PUSH1 0x40 MLOAD DUP1 SWAP2 SUB SWAP1 LOG3 DUP1 PUSH1 0x5 PUSH0 PUSH2 0x100 EXP DUP2 SLOAD DUP2 PUSH20 0xFFFFFFFFFFFFFFFFFFFFFFFFFFFFFFFFFFFFFFFF MUL NOT AND SWAP1 DUP4 PUSH20 0xFFFFFFFFFFFFFFFFFFFFFFFFFFFFFFFFFFFFFFFF AND MUL OR SWAP1 SSTORE POP POP JUMP JUMPDEST PUSH1 0x7 SLOAD DUP2 JUMP JUMPDEST PUSH1 0x5 PUSH0 SWAP1 SLOAD SWAP1 PUSH2 0x100 EXP SWAP1 DIV PUSH20 0xFFFFFFFFFFFFFFFFFFFFFFFFFFFFFFFFFFFFFFFF AND DUP2 JUMP JUMPDEST PUSH1 0x2 PUSH0 SWAP1 SLOAD SWAP1 PUSH2 0x100 EXP SWAP1 DIV PUSH20 0xFFFFFFFFFFFFFFFFFFFFFFFFFFFFFFFFFFFFFFFF AND PUSH20 0xFFFFFFFFFFFFFFFFFFFFFFFFFFFFFFFFFFFFFFFF AND CALLER PUSH20 0xFFFFFFFFFFFFFFFFFFFFFFFFFFFFFFFFFFFFFFFF AND EQ PUSH2 0x1655 JUMPI PUSH1 0x40 MLOAD PUSH32 0x8C379A000000000000000000000000000000000000000000000000000000000 DUP2 MSTORE PUSH1 0x4 ADD PUSH2 0x164C SWAP1 PUSH2 0x1C6B JUMP JUMPDEST PUSH1 0x40 MLOAD DUP1 SWAP2 SUB SWAP1 REVERT JUMPDEST PUSH0 PUSH20 0xFFFFFFFFFFFFFFFFFFFFFFFFFFFFFFFFFFFFFFFF AND DUP2 PUSH20 0xFFFFFFFFFFFFFFFFFFFFFFFFFFFFFFFFFFFFFFFF AND SUB PUSH2 0x16C3 JUMPI PUSH1 0x40 MLOAD PUSH32 0x8C379A000000000000000000000000000000000000000000000000000000000 DUP2 MSTORE PUSH1 0x4 ADD PUSH2 0x16BA SWAP1 PUSH2 0x2448 JUMP JUMPDEST PUSH1 0x40 MLOAD DUP1 SWAP2 SUB SWAP1 REVERT JUMPDEST DUP1 PUSH20 0xFFFFFFFFFFFFFFFFFFFFFFFFFFFFFFFFFFFFFFFF AND PUSH1 0x2 PUSH0 SWAP1 SLOAD SWAP1 PUSH2 0x100 EXP SWAP1 DIV PUSH20 0xFFFFFFFFFFFFFFFFFFFFFFFFFFFFFFFFFFFFFFFF AND PUSH20 0xFFFFFFFFFFFFFFFFFFFFFFFFFFFFFFFFFFFFFFFF AND PUSH32 0x8BE0079C531659141344CD1FD0A4F28419497F9722A3DAAFE3B4186F6B6457E0 PUSH1 0x40 MLOAD PUSH1 0x40 MLOAD DUP1 SWAP2 SUB SWAP1 LOG3 DUP1 PUSH1 0x2 PUSH0 PUSH2 0x100 EXP DUP2 SLOAD DUP2 PUSH20 0xFFFFFFFFFFFFFFFFFFFFFFFFFFFFFFFFFFFFFFFF MUL NOT AND SWAP1 DUP4 PUSH20 0xFFFFFFFFFFFFFFFFFFFFFFFFFFFFFFFFFFFFFFFF AND MUL OR SWAP1 SSTORE POP POP JUMP JUMPDEST PUSH2 0x1789 PUSH2 0x6FC JUMP JUMPDEST PUSH2 0x17C8 JUMPI PUSH1 0x40 MLOAD PUSH32 0x8C379A000000000000000000000000000000000000000000000000000000000 DUP2 MSTORE PUSH1 0x4 ADD PUSH2 0x17BF SWAP1 PUSH2 0x24B0 JUMP JUMPDEST PUSH1 0x40 MLOAD DUP1 SWAP2 SUB SWAP1 REVERT JUMPDEST PUSH0 DUP1 PUSH0 PUSH2 0x100 EXP DUP2 SLOAD DUP2 PUSH1 0xFF MUL NOT AND SWAP1 DUP4 ISZERO ISZERO MUL OR SWAP1 SSTORE POP PUSH32 0x5DB9EE0A495BF2E6FF9C91A7834C1BA4FDD244A5E8AA4E537BD38AEAE4B073AA CALLER PUSH1 0x40 MLOAD PUSH2 0x180F SWAP2 SWAP1 PUSH2 0x1B48 JUMP JUMPDEST PUSH1 0x40 MLOAD DUP1 SWAP2 SUB SWAP1 LOG1 JUMP JUMPDEST PUSH1 0x2 PUSH1 0x1 SLOAD SUB PUSH2 0x185E JUMPI PUSH1 0x40 MLOAD PUSH32 0x8C379A000000000000000000000000000000000000000000000000000000000 DUP2 MSTORE PUSH1 0x4 ADD PUSH2 0x1855 SWAP1 PUSH2 0x2518 JUMP JUMPDEST PUSH1 0x40 MLOAD DUP1 SWAP2 SUB SWAP1 REVERT JUMPDEST PUSH1 0x2 PUSH1 0x1 DUP2 SWAP1 SSTORE POP JUMP JUMPDEST PUSH2 0x18E4 DUP5 DUP6 PUSH20 0xFFFFFFFFFFFFFFFFFFFFFFFFFFFFFFFFFFFFFFFF AND PUSH4 0x23B872DD DUP7 DUP7 DUP7 PUSH1 0x40 MLOAD PUSH1 0x24 ADD PUSH2 0x189D SWAP4 SWAP3 SWAP2 SWAP1 PUSH2 0x2291 JUMP JUMPDEST PUSH1 0x40 MLOAD PUSH1 0x20 DUP2 DUP4 SUB SUB DUP2 MSTORE SWAP1 PUSH1 0x40 MSTORE SWAP2 POP PUSH1 0xE0 SHL PUSH1 0x20 DUP3 ADD DUP1 MLOAD PUSH28 0xFFFFFFFFFFFFFFFFFFFFFFFFFFFFFFFFFFFFFFFFFFFFFFFFFFFFFFFF DUP4 DUP2 DUP4 AND OR DUP4 MSTORE POP POP POP POP PUSH2 0x1A0C JUMP JUMPDEST POP POP POP POP JUMP JUMPDEST PUSH2 0x1964 DUP4 DUP5 PUSH20 0xFFFFFFFFFFFFFFFFFFFFFFFFFFFFFFFFFFFFFFFF AND PUSH4 0xA9059CBB DUP6 DUP6 PUSH1 0x40 MLOAD PUSH1 0x24 ADD PUSH2 0x191D SWAP3 SWAP2 SWAP1 PUSH2 0x1D98 JUMP JUMPDEST PUSH1 0x40 MLOAD PUSH1 0x20 DUP2 DUP4 SUB SUB DUP2 MSTORE SWAP1 PUSH1 0x40 MSTORE SWAP2 POP PUSH1 0xE0 SHL PUSH1 0x20 DUP3 ADD DUP1 MLOAD PUSH28 0xFFFFFFFFFFFFFFFFFFFFFFFFFFFFFFFFFFFFFFFFFFFFFFFFFFFFFFFF DUP4 DUP2 DUP4 AND OR DUP4 MSTORE POP POP POP POP PUSH2 0x1A0C JUMP JUMPDEST POP POP POP JUMP JUMPDEST PUSH1 0x1 DUP1 DUP2 SWAP1 SSTORE POP JUMP JUMPDEST PUSH2 0x197A PUSH2 0x6FC JUMP JUMPDEST ISZERO PUSH2 0x19BA JUMPI PUSH1 0x40 MLOAD PUSH32 0x8C379A000000000000000000000000000000000000000000000000000000000 DUP2 MSTORE PUSH1 0x4 ADD PUSH2 0x19B1 SWAP1 PUSH2 0x1EC6 JUMP JUMPDEST PUSH1 0x40 MLOAD DUP1 SWAP2 SUB SWAP1 REVERT JUMPDEST PUSH1 0x1 PUSH0 DUP1 PUSH2 0x100 EXP DUP2 SLOAD DUP2 PUSH1 0xFF MUL NOT AND SWAP1 DUP4 ISZERO ISZERO MUL OR SWAP1 SSTORE POP PUSH32 0x62E78CEA01BEE320CD4E420270B5EA74000D11B0C9F74754EBDBFC544B05A258 CALLER PUSH1 0x40 MLOAD PUSH2 0x1A02 SWAP2 SWAP1 PUSH2 0x1B48 JUMP JUMPDEST PUSH1 0x40 MLOAD DUP1 SWAP2 SUB SWAP1 LOG1 JUMP JUMPDEST PUSH0 DUP1 PUSH1 0x20 PUSH0 DUP5 MLOAD PUSH1 0x20 DUP7 ADD PUSH0 DUP9 GAS CALL DUP1 PUSH2 0x1A2B JUMPI PUSH1 0x40 MLOAD RETURNDATASIZE PUSH0 DUP3 RETURNDATACOPY RETURNDATASIZE DUP2 REVERT JUMPDEST RETURNDATASIZE SWAP3 POP PUSH0 MLOAD SWAP2 POP POP PUSH0 DUP3 EQ PUSH2 0x1A44 JUMPI PUSH1 0x1 DUP2 EQ ISZERO PUSH2 0x1A5F JUMP JUMPDEST PUSH0 DUP5 PUSH20 0xFFFFFFFFFFFFFFFFFFFFFFFFFFFFFFFFFFFFFFFF AND EXTCODESIZE EQ JUMPDEST ISZERO PUSH2 0x1AA1 JUMPI DUP4 PUSH1 0x40 MLOAD PUSH32 0x5274AFE700000000000000000000000000000000000000000000000000000000 DUP2 MSTORE PUSH1 0x4 ADD PUSH2 0x1A98 SWAP2 SWAP1 PUSH2 0x1B48 JUMP JUMPDEST PUSH1 0x40 MLOAD DUP1 SWAP2 SUB SWAP1 REVERT JUMPDEST POP POP POP POP JUMP JUMPDEST PUSH0 DUP1 REVERT JUMPDEST PUSH0 DUP2 SWAP1 POP SWAP2 SWAP1 POP JUMP JUMPDEST PUSH2 0x1ABD DUP2 PUSH2 0x1AAB JUMP JUMPDEST DUP2 EQ PUSH2 0x1AC7 JUMPI PUSH0 DUP1 REVERT JUMPDEST POP JUMP JUMPDEST PUSH0 DUP2 CALLDATALOAD SWAP1 POP PUSH2 0x1AD8 DUP2 PUSH2 0x1AB4 JUMP JUMPDEST SWAP3 SWAP2 POP POP JUMP JUMPDEST PUSH0 PUSH1 0x20 DUP3 DUP5 SUB SLT ISZERO PUSH2 0x1AF3 JUMPI PUSH2 0x1AF2 PUSH2 0x1AA7 JUMP JUMPDEST JUMPDEST PUSH0 PUSH2 0x1B00 DUP5 DUP3 DUP6 ADD PUSH2 0x1ACA JUMP JUMPDEST SWAP2 POP POP SWAP3 SWAP2 POP POP JUMP JUMPDEST PUSH0 PUSH20 0xFFFFFFFFFFFFFFFFFFFFFFFFFFFFFFFFFFFFFFFF DUP3 AND SWAP1 POP SWAP2 SWAP1 POP JUMP JUMPDEST PUSH0 PUSH2 0x1B32 DUP3 PUSH2 0x1B09 JUMP JUMPDEST SWAP1 POP SWAP2 SWAP1 POP JUMP JUMPDEST PUSH2 0x1B42 DUP2 PUSH2 0x1B28 JUMP JUMPDEST DUP3 MSTORE POP POP JUMP JUMPDEST PUSH0 PUSH1 0x20 DUP3 ADD SWAP1 POP PUSH2 0x1B5B PUSH0 DUP4 ADD DUP5 PUSH2 0x1B39 JUMP JUMPDEST SWAP3 SWAP2 POP POP JUMP JUMPDEST PUSH0 DUP2 ISZERO ISZERO SWAP1 POP SWAP2 SWAP1 POP JUMP JUMPDEST PUSH2 0x1B75 DUP2 PUSH2 0x1B61 JUMP JUMPDEST DUP3 MSTORE POP POP JUMP JUMPDEST PUSH0 PUSH1 0x20 DUP3 ADD SWAP1 POP PUSH2 0x1B8E PUSH0 DUP4 ADD DUP5 PUSH2 0x1B6C JUMP JUMPDEST SWAP3 SWAP2 POP POP JUMP JUMPDEST PUSH2 0x1B9D DUP2 PUSH2 0x1AAB JUMP JUMPDEST DUP3 MSTORE POP POP JUMP JUMPDEST PUSH0 PUSH1 0x20 DUP3 ADD SWAP1 POP PUSH2 0x1BB6 PUSH0 DUP4 ADD DUP5 PUSH2 0x1B94 JUMP JUMPDEST SWAP3 SWAP2 POP POP JUMP JUMPDEST PUSH2 0x1BC5 DUP2 PUSH2 0x1B28 JUMP JUMPDEST DUP2 EQ PUSH2 0x1BCF JUMPI PUSH0 DUP1 REVERT JUMPDEST POP JUMP JUMPDEST PUSH0 DUP2 CALLDATALOAD SWAP1 POP PUSH2 0x1BE0 DUP2 PUSH2 0x1BBC JUMP JUMPDEST SWAP3 SWAP2 POP POP JUMP JUMPDEST PUSH0 PUSH1 0x20 DUP3 DUP5 SUB SLT ISZERO PUSH2 0x1BFB JUMPI PUSH2 0x1BFA PUSH2 0x1AA7 JUMP JUMPDEST JUMPDEST PUSH0 PUSH2 0x1C08 DUP5 DUP3 DUP6 ADD PUSH2 0x1BD2 JUMP JUMPDEST SWAP2 POP POP SWAP3 SWAP2 POP POP JUMP JUMPDEST PUSH0 DUP3 DUP3 MSTORE PUSH1 0x20 DUP3 ADD SWAP1 POP SWAP3 SWAP2 POP POP JUMP JUMPDEST PUSH32 0x4E6F7420617574686F72697A6564000000000000000000000000000000000000 PUSH0 DUP3 ADD MSTORE POP JUMP JUMPDEST PUSH0 PUSH2 0x1C55 PUSH1 0xE DUP4 PUSH2 0x1C11 JUMP JUMPDEST SWAP2 POP PUSH2 0x1C60 DUP3 PUSH2 0x1C21 JUMP JUMPDEST PUSH1 0x20 DUP3 ADD SWAP1 POP SWAP2 SWAP1 POP JUMP JUMPDEST PUSH0 PUSH1 0x20 DUP3 ADD SWAP1 POP DUP2 DUP2 SUB PUSH0 DUP4 ADD MSTORE PUSH2 0x1C82 DUP2 PUSH2 0x1C49 JUMP JUMPDEST SWAP1 POP SWAP2 SWAP1 POP JUMP JUMPDEST PUSH32 0x5769746864726177206D757374206265203E2030000000000000000000000000 PUSH0 DUP3 ADD MSTORE POP JUMP JUMPDEST PUSH0 PUSH2 0x1CBD PUSH1 0x14 DUP4 PUSH2 0x1C11 JUMP JUMPDEST SWAP2 POP PUSH2 0x1CC8 DUP3 PUSH2 0x1C89 JUMP JUMPDEST PUSH1 0x20 DUP3 ADD SWAP1 POP SWAP2 SWAP1 POP JUMP JUMPDEST PUSH0 PUSH1 0x20 DUP3 ADD SWAP1 POP DUP2 DUP2 SUB PUSH0 DUP4 ADD MSTORE PUSH2 0x1CEA DUP2 PUSH2 0x1CB1 JUMP JUMPDEST SWAP1 POP SWAP2 SWAP1 POP JUMP JUMPDEST PUSH0 DUP2 MLOAD SWAP1 POP PUSH2 0x1CFF DUP2 PUSH2 0x1AB4 JUMP JUMPDEST SWAP3 SWAP2 POP POP JUMP JUMPDEST PUSH0 PUSH1 0x20 DUP3 DUP5 SUB SLT ISZERO PUSH2 0x1D1A JUMPI PUSH2 0x1D19 PUSH2 0x1AA7 JUMP JUMPDEST JUMPDEST PUSH0 PUSH2 0x1D27 DUP5 DUP3 DUP6 ADD PUSH2 0x1CF1 JUMP JUMPDEST SWAP2 POP POP SWAP3 SWAP2 POP POP JUMP JUMPDEST PUSH32 0x4E6F7420656E6F75676820746F6B656E7320696E20636F6E7472616374000000 PUSH0 DUP3 ADD MSTORE POP JUMP JUMPDEST PUSH0 PUSH2 0x1D64 PUSH1 0x1D DUP4 PUSH2 0x1C11 JUMP JUMPDEST SWAP2 POP PUSH2 0x1D6F DUP3 PUSH2 0x1D30 JUMP JUMPDEST PUSH1 0x20 DUP3 ADD SWAP1 POP SWAP2 SWAP1 POP JUMP JUMPDEST PUSH0 PUSH1 0x20 DUP3 ADD SWAP1 POP DUP2 DUP2 SUB PUSH0 DUP4 ADD MSTORE PUSH2 0x1D91 DUP2 PUSH2 0x1D58 JUMP JUMPDEST SWAP1 POP SWAP2 SWAP1 POP JUMP JUMPDEST PUSH0 PUSH1 0x40 DUP3 ADD SWAP1 POP PUSH2 0x1DAB PUSH0 DUP4 ADD DUP6 PUSH2 0x1B39 JUMP JUMPDEST PUSH2 0x1DB8 PUSH1 0x20 DUP4 ADD DUP5 PUSH2 0x1B94 JUMP JUMPDEST SWAP4 SWAP3 POP POP POP JUMP JUMPDEST PUSH2 0x1DC8 DUP2 PUSH2 0x1B61 JUMP JUMPDEST DUP2 EQ PUSH2 0x1DD2 JUMPI PUSH0 DUP1 REVERT JUMPDEST POP JUMP JUMPDEST PUSH0 DUP2 MLOAD SWAP1 POP PUSH2 0x1DE3 DUP2 PUSH2 0x1DBF JUMP JUMPDEST SWAP3 SWAP2 POP POP JUMP JUMPDEST PUSH0 PUSH1 0x20 DUP3 DUP5 SUB SLT ISZERO PUSH2 0x1DFE JUMPI PUSH2 0x1DFD PUSH2 0x1AA7 JUMP JUMPDEST JUMPDEST PUSH0 PUSH2 0x1E0B DUP5 DUP3 DUP6 ADD PUSH2 0x1DD5 JUMP JUMPDEST SWAP2 POP POP SWAP3 SWAP2 POP POP JUMP JUMPDEST PUSH32 0x5061796D656E7420746F6B656E207769746864726177616C206661696C656400 PUSH0 DUP3 ADD MSTORE POP JUMP JUMPDEST PUSH0 PUSH2 0x1E48 PUSH1 0x1F DUP4 PUSH2 0x1C11 JUMP JUMPDEST SWAP2 POP PUSH2 0x1E53 DUP3 PUSH2 0x1E14 JUMP JUMPDEST PUSH1 0x20 DUP3 ADD SWAP1 POP SWAP2 SWAP1 POP JUMP JUMPDEST PUSH0 PUSH1 0x20 DUP3 ADD SWAP1 POP DUP2 DUP2 SUB PUSH0 DUP4 ADD MSTORE PUSH2 0x1E75 DUP2 PUSH2 0x1E3C JUMP JUMPDEST SWAP1 POP SWAP2 SWAP1 POP JUMP JUMPDEST PUSH32 0x5061757361626C653A2070617573656400000000000000000000000000000000 PUSH0 DUP3 ADD MSTORE POP JUMP JUMPDEST PUSH0 PUSH2 0x1EB0 PUSH1 0x10 DUP4 PUSH2 0x1C11 JUMP JUMPDEST SWAP2 POP PUSH2 0x1EBB DUP3 PUSH2 0x1E7C JUMP JUMPDEST PUSH1 0x20 DUP3 ADD SWAP1 POP SWAP2 SWAP1 POP JUMP JUMPDEST PUSH0 PUSH1 0x20 DUP3 ADD SWAP1 POP DUP2 DUP2 SUB PUSH0 DUP4 ADD MSTORE PUSH2 0x1EDD DUP2 PUSH2 0x1EA4 JUMP JUMPDEST SWAP1 POP SWAP2 SWAP1 POP JUMP JUMPDEST PUSH32 0x4D757374206465706F73697420526F626F4D6F6E657900000000000000000000 PUSH0 DUP3 ADD MSTORE POP JUMP JUMPDEST PUSH0 PUSH2 0x1F18 PUSH1 0x16 DUP4 PUSH2 0x1C11 JUMP JUMPDEST SWAP2 POP PUSH2 0x1F23 DUP3 PUSH2 0x1EE4 JUMP JUMPDEST PUSH1 0x20 DUP3 ADD SWAP1 POP SWAP2 SWAP1 POP JUMP JUMPDEST PUSH0 PUSH1 0x20 DUP3 ADD SWAP1 POP DUP2 DUP2 SUB PUSH0 DUP4 ADD MSTORE PUSH2 0x1F45 DUP2 PUSH2 0x1F0C JUMP JUMPDEST SWAP1 POP SWAP2 SWAP1 POP JUMP JUMPDEST PUSH0 PUSH1 0x40 DUP3 ADD SWAP1 POP PUSH2 0x1F5F PUSH0 DUP4 ADD DUP6 PUSH2 0x1B39 JUMP JUMPDEST PUSH2 0x1F6C PUSH1 0x20 DUP4 ADD DUP5 PUSH2 0x1B39 JUMP JUMPDEST SWAP4 SWAP3 POP POP POP JUMP JUMPDEST PUSH32 0x496E73756666696369656E7420526F626F4D6F6E657920616C6C6F77616E6365 PUSH0 DUP3 ADD MSTORE POP JUMP JUMPDEST PUSH0 PUSH2 0x1FA7 PUSH1 0x20 DUP4 PUSH2 0x1C11 JUMP JUMPDEST SWAP2 POP PUSH2 0x1FB2 DUP3 PUSH2 0x1F73 JUMP JUMPDEST PUSH1 0x20 DUP3 ADD SWAP1 POP SWAP2 SWAP1 POP JUMP JUMPDEST PUSH0 PUSH1 0x20 DUP3 ADD SWAP1 POP DUP2 DUP2 SUB PUSH0 DUP4 ADD MSTORE PUSH2 0x1FD4 DUP2 PUSH2 0x1F9B JUMP JUMPDEST SWAP1 POP SWAP2 SWAP1 POP JUMP JUMPDEST PUSH32 0x4E487B7100000000000000000000000000000000000000000000000000000000 PUSH0 MSTORE PUSH1 0x11 PUSH1 0x4 MSTORE PUSH1 0x24 PUSH0 REVERT JUMPDEST PUSH0 PUSH2 0x2012 DUP3 PUSH2 0x1AAB JUMP JUMPDEST SWAP2 POP PUSH2 0x201D DUP4 PUSH2 0x1AAB JUMP JUMPDEST SWAP3 POP DUP3 DUP3 ADD SWAP1 POP DUP1 DUP3 GT ISZERO PUSH2 0x2035 JUMPI PUSH2 0x2034 PUSH2 0x1FDB JUMP JUMPDEST JUMPDEST SWAP3 SWAP2 POP POP JUMP JUMPDEST PUSH0 PUSH2 0x2045 DUP3 PUSH2 0x1AAB JUMP JUMPDEST SWAP2 POP PUSH2 0x2050 DUP4 PUSH2 0x1AAB JUMP JUMPDEST SWAP3 POP DUP3 DUP3 MUL PUSH2 0x205E DUP2 PUSH2 0x1AAB JUMP JUMPDEST SWAP2 POP DUP3 DUP3 DIV DUP5 EQ DUP4 ISZERO OR PUSH2 0x2075 JUMPI PUSH2 0x2074 PUSH2 0x1FDB JUMP JUMPDEST JUMPDEST POP SWAP3 SWAP2 POP POP JUMP JUMPDEST PUSH32 0x4E487B7100000000000000000000000000000000000000000000000000000000 PUSH0 MSTORE PUSH1 0x12 PUSH1 0x4 MSTORE PUSH1 0x24 PUSH0 REVERT JUMPDEST PUSH0 PUSH2 0x20B3 DUP3 PUSH2 0x1AAB JUMP JUMPDEST SWAP2 POP PUSH2 0x20BE DUP4 PUSH2 0x1AAB JUMP JUMPDEST SWAP3 POP DUP3 PUSH2 0x20CE JUMPI PUSH2 0x20CD PUSH2 0x207C JUMP JUMPDEST JUMPDEST DUP3 DUP3 DIV SWAP1 POP SWAP3 SWAP2 POP POP JUMP JUMPDEST PUSH32 0x4E6F7420656E6F756768207061796D656E74546F6B656E20696E20636F6E7472 PUSH0 DUP3 ADD MSTORE PUSH32 0x6163740000000000000000000000000000000000000000000000000000000000 PUSH1 0x20 DUP3 ADD MSTORE POP JUMP JUMPDEST PUSH0 PUSH2 0x2133 PUSH1 0x23 DUP4 PUSH2 0x1C11 JUMP JUMPDEST SWAP2 POP PUSH2 0x213E DUP3 PUSH2 0x20D9 JUMP JUMPDEST PUSH1 0x40 DUP3 ADD SWAP1 POP SWAP2 SWAP1 POP JUMP JUMPDEST PUSH0 PUSH1 0x20 DUP3 ADD SWAP1 POP DUP2 DUP2 SUB PUSH0 DUP4 ADD MSTORE PUSH2 0x2160 DUP2 PUSH2 0x2127 JUMP JUMPDEST SWAP1 POP SWAP2 SWAP1 POP JUMP JUMPDEST PUSH0 PUSH2 0x2171 DUP3 PUSH2 0x1AAB JUMP JUMPDEST SWAP2 POP PUSH2 0x217C DUP4 PUSH2 0x1AAB JUMP JUMPDEST SWAP3 POP DUP3 DUP3 SUB SWAP1 POP DUP2 DUP2 GT ISZERO PUSH2 0x2194 JUMPI PUSH2 0x2193 PUSH2 0x1FDB JUMP JUMPDEST JUMPDEST SWAP3 SWAP2 POP POP JUMP JUMPDEST PUSH0 PUSH1 0x40 DUP3 ADD SWAP1 POP PUSH2 0x21AD PUSH0 DUP4 ADD DUP6 PUSH2 0x1B94 JUMP JUMPDEST PUSH2 0x21BA PUSH1 0x20 DUP4 ADD DUP5 PUSH2 0x1B94 JUMP JUMPDEST SWAP4 SWAP3 POP POP POP JUMP JUMPDEST PUSH32 0x496E76616C6964207072656D69756D2072617465000000000000000000000000 PUSH0 DUP3 ADD MSTORE POP JUMP JUMPDEST PUSH0 PUSH2 0x21F5 PUSH1 0x14 DUP4 PUSH2 0x1C11 JUMP JUMPDEST SWAP2 POP PUSH2 0x2200 DUP3 PUSH2 0x21C1 JUMP JUMPDEST PUSH1 0x20 DUP3 ADD SWAP1 POP SWAP2 SWAP1 POP JUMP JUMPDEST PUSH0 PUSH1 0x20 DUP3 ADD SWAP1 POP DUP2 DUP2 SUB PUSH0 DUP4 ADD MSTORE PUSH2 0x2222 DUP2 PUSH2 0x21E9 JUMP JUMPDEST SWAP1 POP SWAP2 SWAP1 POP JUMP JUMPDEST PUSH32 0x4465706F736974206D757374206265203E203000000000000000000000000000 PUSH0 DUP3 ADD MSTORE POP JUMP JUMPDEST PUSH0 PUSH2 0x225D PUSH1 0x13 DUP4 PUSH2 0x1C11 JUMP JUMPDEST SWAP2 POP PUSH2 0x2268 DUP3 PUSH2 0x2229 JUMP JUMPDEST PUSH1 0x20 DUP3 ADD SWAP1 POP SWAP2 SWAP1 POP JUMP JUMPDEST PUSH0 PUSH1 0x20 DUP3 ADD SWAP1 POP DUP2 DUP2 SUB PUSH0 DUP4 ADD MSTORE PUSH2 0x228A DUP2 PUSH2 0x2251 JUMP JUMPDEST SWAP1 POP SWAP2 SWAP1 POP JUMP JUMPDEST PUSH0 PUSH1 0x60 DUP3 ADD SWAP1 POP PUSH2 0x22A4 PUSH0 DUP4 ADD DUP7 PUSH2 0x1B39 JUMP JUMPDEST PUSH2 0x22B1 PUSH1 0x20 DUP4 ADD DUP6 PUSH2 0x1B39 JUMP JUMPDEST PUSH2 0x22BE PUSH1 0x40 DUP4 ADD DUP5 PUSH2 0x1B94 JUMP JUMPDEST SWAP5 SWAP4 POP POP POP POP JUMP JUMPDEST PUSH32 0x5061796D656E7420746F6B656E206465706F736974206661696C656400000000 PUSH0 DUP3 ADD MSTORE POP JUMP JUMPDEST PUSH0 PUSH2 0x22FA PUSH1 0x1C DUP4 PUSH2 0x1C11 JUMP JUMPDEST SWAP2 POP PUSH2 0x2305 DUP3 PUSH2 0x22C6 JUMP JUMPDEST PUSH1 0x20 DUP3 ADD SWAP1 POP SWAP2 SWAP1 POP JUMP JUMPDEST PUSH0 PUSH1 0x20 DUP3 ADD SWAP1 POP DUP2 DUP2 SUB PUSH0 DUP4 ADD MSTORE PUSH2 0x2327 DUP2 PUSH2 0x22EE JUMP JUMPDEST SWAP1 POP SWAP2 SWAP1 POP JUMP JUMPDEST PUSH32 0x54617820746F6F20686967680000000000000000000000000000000000000000 PUSH0 DUP3 ADD MSTORE POP JUMP JUMPDEST PUSH0 PUSH2 0x2362 PUSH1 0xC DUP4 PUSH2 0x1C11 JUMP JUMPDEST SWAP2 POP PUSH2 0x236D DUP3 PUSH2 0x232E JUMP JUMPDEST PUSH1 0x20 DUP3 ADD SWAP1 POP SWAP2 SWAP1 POP JUMP JUMPDEST PUSH0 PUSH1 0x20 DUP3 ADD SWAP1 POP DUP2 DUP2 SUB PUSH0 DUP4 ADD MSTORE PUSH2 0x238F DUP2 PUSH2 0x2356 JUMP JUMPDEST SWAP1 POP SWAP2 SWAP1 POP JUMP JUMPDEST PUSH32 0x496E76616C696420616464726573730000000000000000000000000000000000 PUSH0 DUP3 ADD MSTORE POP JUMP JUMPDEST PUSH0 PUSH2 0x23CA PUSH1 0xF DUP4 PUSH2 0x1C11 JUMP JUMPDEST SWAP2 POP PUSH2 0x23D5 DUP3 PUSH2 0x2396 JUMP JUMPDEST PUSH1 0x20 DUP3 ADD SWAP1 POP SWAP2 SWAP1 POP JUMP JUMPDEST PUSH0 PUSH1 0x20 DUP3 ADD SWAP1 POP DUP2 DUP2 SUB PUSH0 DUP4 ADD MSTORE PUSH2 0x23F7 DUP2 PUSH2 0x23BE JUMP JUMPDEST SWAP1 POP SWAP2 SWAP1 POP JUMP JUMPDEST PUSH32 0x4E6577206F776E65722063616E6E6F74206265207A65726F2061646472657373 PUSH0 DUP3 ADD MSTORE POP JUMP JUMPDEST PUSH0 PUSH2 0x2432 PUSH1 0x20 DUP4 PUSH2 0x1C11 JUMP JUMPDEST SWAP2 POP PUSH2 0x243D DUP3 PUSH2 0x23FE JUMP JUMPDEST PUSH1 0x20 DUP3 ADD SWAP1 POP SWAP2 SWAP1 POP JUMP JUMPDEST PUSH0 PUSH1 0x20 DUP3 ADD SWAP1 POP DUP2 DUP2 SUB PUSH0 DUP4 ADD MSTORE PUSH2 0x245F DUP2 PUSH2 0x2426 JUMP JUMPDEST SWAP1 POP SWAP2 SWAP1 POP JUMP JUMPDEST PUSH32 0x5061757361626C653A206E6F7420706175736564000000000000000000000000 PUSH0 DUP3 ADD MSTORE POP JUMP JUMPDEST PUSH0 PUSH2 0x249A PUSH1 0x14 DUP4 PUSH2 0x1C11 JUMP JUMPDEST SWAP2 POP PUSH2 0x24A5 DUP3 PUSH2 0x2466 JUMP JUMPDEST PUSH1 0x20 DUP3 ADD SWAP1 POP SWAP2 SWAP1 POP JUMP JUMPDEST PUSH0 PUSH1 0x20 DUP3 ADD SWAP1 POP DUP2 DUP2 SUB PUSH0 DUP4 ADD MSTORE PUSH2 0x24C7 DUP2 PUSH2 0x248E JUMP JUMPDEST SWAP1 POP SWAP2 SWAP1 POP JUMP JUMPDEST PUSH32 0x5265656E7472616E637947756172643A207265656E7472616E742063616C6C00 PUSH0 DUP3 ADD MSTORE POP JUMP JUMPDEST PUSH0 PUSH2 0x2502 PUSH1 0x1F DUP4 PUSH2 0x1C11 JUMP JUMPDEST SWAP2 POP PUSH2 0x250D DUP3 PUSH2 0x24CE JUMP JUMPDEST PUSH1 0x20 DUP3 ADD SWAP1 POP SWAP2 SWAP1 POP JUMP JUMPDEST PUSH0 PUSH1 0x20 DUP3 ADD SWAP1 POP DUP2 DUP2 SUB PUSH0 DUP4 ADD MSTORE PUSH2 0x252F DUP2 PUSH2 0x24F6 JUMP JUMPDEST SWAP1 POP SWAP2 SWAP1 POP JUMP INVALID LOG2 PUSH5 0x6970667358 0x22 SLT KECCAK256 0xE DUP3 DUP1 PUSH10 0x39AA7BF411D046859C68 0xB4 SWAP7 0xB4 MOD 0xD 0x25 SWAP14 0xFB BLOBBASEFEE 0x25 PC PUSH29 0x1310D726C68464736F6C634300081A0033000000000000000000000000 "
				},
				"gasEstimates": {
					"creation": {
						"codeDepositCost": "1916000",
						"executionCost": "infinite",
						"totalCost": "infinite"
					},
					"external": {
						"buyback(uint256)": "infinite",
						"canExecuteBuyback(uint256)": "infinite",
						"contractTokenBalance()": "infinite",
						"depositPaymentToken(uint256)": "infinite",
						"gasReserve()": "2618",
						"maxBuyableRoboMoney()": "infinite",
						"owner()": "2575",
						"pause()": "30071",
						"paused()": "2563",
						"paymentToken()": "2554",
						"premiumRate()": "2537",
						"roboMoney()": "2597",
						"setGasReserve(address)": "30664",
						"setPremiumRate(uint256)": "24821",
						"setTargetPrice(uint256)": "24707",
						"setTaxRate(uint256)": "infinite",
						"targetPrice()": "2513",
						"taxRate()": "2470",
						"transferOwnership(address)": "30730",
						"unpause()": "30090",
						"withdrawPaymentToken(uint256)": "infinite"
					}
				},
				"methodIdentifiers": {
					"buyback(uint256)": "79a9fa1c",
					"canExecuteBuyback(uint256)": "839ea2d9",
					"contractTokenBalance()": "9e9aed62",
					"depositPaymentToken(uint256)": "9063ee20",
					"gasReserve()": "eea7570e",
					"maxBuyableRoboMoney()": "ce1d1f1f",
					"owner()": "8da5cb5b",
					"pause()": "8456cb59",
					"paused()": "5c975abb",
					"paymentToken()": "3013ce29",
					"premiumRate()": "5d0040d3",
					"roboMoney()": "7ef7ba20",
					"setGasReserve(address)": "d4a49c17",
					"setPremiumRate(uint256)": "7ff8b57a",
					"setTargetPrice(uint256)": "6a64eff8",
					"setTaxRate(uint256)": "c6d69a30",
					"targetPrice()": "dc38679c",
					"taxRate()": "771a3a1d",
					"transferOwnership(address)": "f2fde38b",
					"unpause()": "3f4ba83a",
					"withdrawPaymentToken(uint256)": "07e675fa"
				}
			},
			"storageLayout": {
				"storage": [
					{
						"astId": 666,
						"contract": "contracts/buy_back.sol:BuyBack",
						"label": "_paused",
						"offset": 0,
						"slot": "0",
						"type": "t_bool"
					},
					{
						"astId": 100,
						"contract": "contracts/buy_back.sol:BuyBack",
						"label": "_status",
						"offset": 0,
						"slot": "1",
						"type": "t_uint256"
					},
					{
						"astId": 811,
						"contract": "contracts/buy_back.sol:BuyBack",
						"label": "owner",
						"offset": 0,
						"slot": "2",
						"type": "t_address"
					},
					{
						"astId": 813,
						"contract": "contracts/buy_back.sol:BuyBack",
						"label": "paymentToken",
						"offset": 0,
						"slot": "3",
						"type": "t_address"
					},
					{
						"astId": 815,
						"contract": "contracts/buy_back.sol:BuyBack",
						"label": "roboMoney",
						"offset": 0,
						"slot": "4",
						"type": "t_address"
					},
					{
						"astId": 817,
						"contract": "contracts/buy_back.sol:BuyBack",
						"label": "gasReserve",
						"offset": 0,
						"slot": "5",
						"type": "t_address"
					},
					{
						"astId": 819,
						"contract": "contracts/buy_back.sol:BuyBack",
						"label": "premiumRate",
						"offset": 0,
						"slot": "6",
						"type": "t_uint256"
					},
					{
						"astId": 821,
						"contract": "contracts/buy_back.sol:BuyBack",
						"label": "targetPrice",
						"offset": 0,
						"slot": "7",
						"type": "t_uint256"
					},
					{
						"astId": 823,
						"contract": "contracts/buy_back.sol:BuyBack",
						"label": "taxRate",
						"offset": 0,
						"slot": "8",
						"type": "t_uint256"
					}
				],
				"types": {
					"t_address": {
						"encoding": "inplace",
						"label": "address",
						"numberOfBytes": "20"
					},
					"t_bool": {
						"encoding": "inplace",
						"label": "bool",
						"numberOfBytes": "1"
					},
					"t_uint256": {
						"encoding": "inplace",
						"label": "uint256",
						"numberOfBytes": "32"
					}
				}
			},
			"userdoc": {
				"kind": "user",
				"methods": {
					"buyback(uint256)": {
						"notice": "Buys back RoboMoney from msg.sender at the configured premium rate, paying out the specified ERC20 paymentToken, and then burns the RoboMoney."
					}
				},
				"version": 1
			}
		}
	}
}