{
	"contracts/buy_back.sol": {
		"BuyBack": {
			"abi": [
				{
					"inputs": [
						{
							"internalType": "address",
							"name": "_paymentToken",
							"type": "address"
						},
						{
							"internalType": "address",
							"name": "_roboMoney",
							"type": "address"
						},
						{
							"internalType": "address",
							"name": "_gasReserve",
							"type": "address"
						},
						{
							"internalType": "uint256",
							"name": "_premiumRate",
							"type": "uint256"
						},
						{
							"internalType": "uint256",
							"name": "_targetPrice",
							"type": "uint256"
						},
						{
							"internalType": "uint256",
							"name": "_taxRate",
							"type": "uint256"
						}
					],
					"stateMutability": "nonpayable",
					"type": "constructor"
				},
				{
					"inputs": [
						{
							"internalType": "address",
							"name": "token",
							"type": "address"
						}
					],
					"name": "SafeERC20FailedOperation",
					"type": "error"
				},
				{
					"anonymous": false,
					"inputs": [
						{
							"indexed": true,
							"internalType": "address",
							"name": "buyer",
							"type": "address"
						},
						{
							"indexed": false,
							"internalType": "uint256",
							"name": "roboMoneyAmount",
							"type": "uint256"
						},
						{
							"indexed": false,
							"internalType": "uint256",
							"name": "tokenSpent",
							"type": "uint256"
						}
					],
					"name": "BuyBackExecuted",
					"type": "event"
				},
				{
					"anonymous": false,
					"inputs": [
						{
							"indexed": true,
							"internalType": "address",
							"name": "oldGasReserve",
							"type": "address"
						},
						{
							"indexed": true,
							"internalType": "address",
							"name": "newGasReserve",
							"type": "address"
						}
					],
					"name": "GasReserveUpdated",
					"type": "event"
				},
				{
					"anonymous": false,
					"inputs": [
						{
							"indexed": true,
							"internalType": "address",
							"name": "previousOwner",
							"type": "address"
						},
						{
							"indexed": true,
							"internalType": "address",
							"name": "newOwner",
							"type": "address"
						}
					],
					"name": "OwnershipTransferred",
					"type": "event"
				},
				{
					"anonymous": false,
					"inputs": [
						{
							"indexed": false,
							"internalType": "address",
							"name": "account",
							"type": "address"
						}
					],
					"name": "Paused",
					"type": "event"
				},
				{
					"anonymous": false,
					"inputs": [
						{
							"indexed": false,
							"internalType": "uint256",
							"name": "oldTaxRate",
							"type": "uint256"
						},
						{
							"indexed": false,
							"internalType": "uint256",
							"name": "newTaxRate",
							"type": "uint256"
						}
					],
					"name": "TaxRateUpdated",
					"type": "event"
				},
				{
					"anonymous": false,
					"inputs": [
						{
							"indexed": false,
							"internalType": "address",
							"name": "account",
							"type": "address"
						}
					],
					"name": "Unpaused",
					"type": "event"
				},
				{
					"inputs": [
						{
							"internalType": "uint256",
							"name": "roboMoneyAmount",
							"type": "uint256"
						}
					],
					"name": "buyback",
					"outputs": [],
					"stateMutability": "nonpayable",
					"type": "function"
				},
				{
					"inputs": [
						{
							"internalType": "uint256",
							"name": "roboMoneyAmount",
							"type": "uint256"
						}
					],
					"name": "canExecuteBuyback",
					"outputs": [
						{
							"internalType": "bool",
							"name": "",
							"type": "bool"
						}
					],
					"stateMutability": "view",
					"type": "function"
				},
				{
					"inputs": [],
					"name": "contractTokenBalance",
					"outputs": [
						{
							"internalType": "uint256",
							"name": "",
							"type": "uint256"
						}
					],
					"stateMutability": "view",
					"type": "function"
				},
				{
					"inputs": [
						{
							"internalType": "uint256",
							"name": "amount",
							"type": "uint256"
						}
					],
					"name": "depositPaymentToken",
					"outputs": [],
					"stateMutability": "nonpayable",
					"type": "function"
				},
				{
					"inputs": [],
					"name": "gasReserve",
					"outputs": [
						{
							"internalType": "address",
							"name": "",
							"type": "address"
						}
					],
					"stateMutability": "view",
					"type": "function"
				},
				{
					"inputs": [],
					"name": "maxBuyableRoboMoney",
					"outputs": [
						{
							"internalType": "uint256",
							"name": "",
							"type": "uint256"
						}
					],
					"stateMutability": "view",
					"type": "function"
				},
				{
					"inputs": [],
					"name": "owner",
					"outputs": [
						{
							"internalType": "address",
							"name": "",
							"type": "address"
						}
					],
					"stateMutability": "view",
					"type": "function"
				},
				{
					"inputs": [],
					"name": "pause",
					"outputs": [],
					"stateMutability": "nonpayable",
					"type": "function"
				},
				{
					"inputs": [],
					"name": "paused",
					"outputs": [
						{
							"internalType": "bool",
							"name": "",
							"type": "bool"
						}
					],
					"stateMutability": "view",
					"type": "function"
				},
				{
					"inputs": [],
					"name": "paymentToken",
					"outputs": [
						{
							"internalType": "address",
							"name": "",
							"type": "address"
						}
					],
					"stateMutability": "view",
					"type": "function"
				},
				{
					"inputs": [],
					"name": "premiumRate",
					"outputs": [
						{
							"internalType": "uint256",
							"name": "",
							"type": "uint256"
						}
					],
					"stateMutability": "view",
					"type": "function"
				},
				{
					"inputs": [],
					"name": "roboMoney",
					"outputs": [
						{
							"internalType": "address",
							"name": "",
							"type": "address"
						}
					],
					"stateMutability": "view",
					"type": "function"
				},
				{
					"inputs": [
						{
							"internalType": "address",
							"name": "_newGasReserve",
							"type": "address"
						}
					],
					"name": "setGasReserve",
					"outputs": [],
					"stateMutability": "nonpayable",
					"type": "function"
				},
				{
					"inputs": [
						{
							"internalType": "uint256",
							"name": "_premiumRate",
							"type": "uint256"
						}
					],
					"name": "setPremiumRate",
					"outputs": [],
					"stateMutability": "nonpayable",
					"type": "function"
				},
				{
					"inputs": [
						{
							"internalType": "uint256",
							"name": "_targetPrice",
							"type": "uint256"
						}
					],
					"name": "setTargetPrice",
					"outputs": [],
					"stateMutability": "nonpayable",
					"type": "function"
				},
				{
					"inputs": [
						{
							"internalType": "uint256",
							"name": "_newTaxRate",
							"type": "uint256"
						}
					],
					"name": "setTaxRate",
					"outputs": [],
					"stateMutability": "nonpayable",
					"type": "function"
				},
				{
					"inputs": [],
					"name": "targetPrice",
					"outputs": [
						{
							"internalType": "uint256",
							"name": "",
							"type": "uint256"
						}
					],
					"stateMutability": "view",
					"type": "function"
				},
				{
					"inputs": [],
					"name": "taxRate",
					"outputs": [
						{
							"internalType": "uint256",
							"name": "",
							"type": "uint256"
						}
					],
					"stateMutability": "view",
					"type": "function"
				},
				{
					"inputs": [
						{
							"internalType": "address",
							"name": "newOwner",
							"type": "address"
						}
					],
					"name": "transferOwnership",
					"outputs": [],
					"stateMutability": "nonpayable",
					"type": "function"
				},
				{
					"inputs": [],
					"name": "unpause",
					"outputs": [],
					"stateMutability": "nonpayable",
					"type": "function"
				},
				{
					"inputs": [
						{
							"internalType": "uint256",
							"name": "amount",
							"type": "uint256"
						}
					],
					"name": "withdrawPaymentToken",
					"outputs": [],
					"stateMutability": "nonpayable",
					"type": "function"
				}
			],
			"devdoc": {
				"details": "A contract that lets users sell (buy back) RoboMoney tokens for a paymentToken,      and then burns the RoboMoney tokens.      Now includes Pausable functionality so the owner can temporarily halt deposits or buybacks.",
				"errors": {
					"SafeERC20FailedOperation(address)": [
						{
							"details": "An operation with an ERC-20 token failed."
						}
					]
				},
				"kind": "dev",
				"methods": {
					"buyback(uint256)": {
						"details": "whenNotPaused ensures no buybacks are processed if contract is paused.",
						"params": {
							"roboMoneyAmount": "Amount of RoboMoney tokens to sell/buy back."
						}
					},
					"canExecuteBuyback(uint256)": {
						"details": "Checks if the contract has enough payment tokens to buy back roboMoneyAmount      at the current premium rate."
					},
					"contractTokenBalance()": {
						"details": "Returns the current contract balance of the payment token."
					},
					"depositPaymentToken(uint256)": {
						"details": "Owner can deposit payment tokens into the contract to fund future buybacks.Protected by whenNotPaused so you can prevent deposits if needed."
					},
					"maxBuyableRoboMoney()": {
						"details": "Returns the maximum amount of RoboMoney the contract can buy back given its current payment token balance and the premium rate."
					},
					"pause()": {
						"details": "Owner can pause the contract (disables buyback & deposit)."
					},
					"setPremiumRate(uint256)": {
						"details": "Sets the premium rate (in %). e.g., 5 => 5% premium."
					},
					"setTargetPrice(uint256)": {
						"details": "Sets the base price ratio for RoboMoney vs. payment token."
					},
					"transferOwnership(address)": {
						"details": "Owner can transfer ownership."
					},
					"unpause()": {
						"details": "Owner can unpause the contract (re-enables buyback & deposit)."
					},
					"withdrawPaymentToken(uint256)": {
						"details": "Owner can withdraw payment tokens from the contract (for leftover tokens, etc.).      This is still allowed even if paused, in case you need to remove funds in an emergency."
					}
				},
				"title": "BuyBack",
				"version": 1
			},
			"evm": {
				"assembly": "    /* \"contracts/buy_back.sol\":2873:10336  contract BuyBack is Pausable, ReentrancyGuard {... */\n  mstore(0x40, 0x80)\n    /* \"contracts/buy_back.sol\":3785:4231  constructor(... */\n  callvalue\n  dup1\n  iszero\n  tag_1\n  jumpi\n  revert(0x00, 0x00)\ntag_1:\n  pop\n  mload(0x40)\n  sub(codesize, bytecodeSize)\n  dup1\n  bytecodeSize\n  dup4\n  codecopy\n  dup2\n  add\n  0x40\n  dup2\n  swap1\n  mstore\n  tag_2\n  swap2\n  tag_3\n  jump\t// in\ntag_2:\n    /* \"contracts/buy_back.sol\":851:856  false */\n  0x00\n    /* \"contracts/buy_back.sol\":841:856  _paused = false */\n  dup1\n  sload\n  not(0xff)\n  and\n  swap1\n  sstore\n  0x01\n    /* \"@openzeppelin/contracts/security/ReentrancyGuard.sol\":1821:1843  _status = _NOT_ENTERED */\n  dup1\n  sstore\n    /* \"contracts/buy_back.sol\":3995:4000  owner */\n  0x02\n    /* \"contracts/buy_back.sol\":3995:4013  owner = msg.sender */\n  dup1\n  sload\n    /* \"contracts/buy_back.sol\":4003:4013  msg.sender */\n  caller\n  not(sub(shl(0xa0, 0x01), 0x01))\n    /* \"contracts/buy_back.sol\":3995:4013  owner = msg.sender */\n  swap2\n  dup3\n  and\n  or\n  swap1\n  swap2\n  sstore\n    /* \"contracts/buy_back.sol\":4024:4036  paymentToken */\n  0x03\n    /* \"contracts/buy_back.sol\":4024:4052  paymentToken = _paymentToken */\n  dup1\n  sload\n  dup3\n  and\n  sub(shl(0xa0, 0x01), 0x01)\n  swap9\n  dup10\n  and\n  or\n  swap1\n  sstore\n    /* \"contracts/buy_back.sol\":4063:4073  gasReserve */\n  0x05\n    /* \"contracts/buy_back.sol\":4063:4087  gasReserve = _gasReserve */\n  dup1\n  sload\n  dup3\n  and\n  swap6\n  dup9\n  and\n  swap6\n  swap1\n  swap6\n  or\n  swap1\n  swap5\n  sstore\n    /* \"contracts/buy_back.sol\":4098:4107  roboMoney */\n  0x04\n    /* \"contracts/buy_back.sol\":4098:4120  roboMoney = _roboMoney */\n  dup1\n  sload\n  swap1\n  swap5\n  and\n  swap5\n  swap1\n  swap6\n  and\n  swap4\n  swap1\n  swap4\n  or\n  swap1\n  swap2\n  sstore\n    /* \"contracts/buy_back.sol\":4131:4142  premiumRate */\n  0x06\n    /* \"contracts/buy_back.sol\":4131:4157  premiumRate = _premiumRate */\n  sstore\n    /* \"contracts/buy_back.sol\":4168:4179  targetPrice */\n  0x07\n    /* \"contracts/buy_back.sol\":4168:4194  targetPrice = _targetPrice */\n  sstore\n    /* \"contracts/buy_back.sol\":4205:4212  taxRate */\n  0x08\n    /* \"contracts/buy_back.sol\":4205:4223  taxRate = _taxRate */\n  sstore\n    /* \"contracts/buy_back.sol\":2873:10336  contract BuyBack is Pausable, ReentrancyGuard {... */\n  jump(tag_12)\n    /* \"#utility.yul\":14:191   */\ntag_11:\n    /* \"#utility.yul\":93:106   */\n  dup1\n  mload\n  sub(shl(0xa0, 0x01), 0x01)\n    /* \"#utility.yul\":135:166   */\n  dup2\n  and\n    /* \"#utility.yul\":125:167   */\n  dup2\n  eq\n    /* \"#utility.yul\":115:185   */\n  tag_14\n  jumpi\n    /* \"#utility.yul\":181:182   */\n  0x00\n    /* \"#utility.yul\":178:179   */\n  0x00\n    /* \"#utility.yul\":171:183   */\n  revert\n    /* \"#utility.yul\":115:185   */\ntag_14:\n    /* \"#utility.yul\":14:191   */\n  swap2\n  swap1\n  pop\n  jump\t// out\n    /* \"#utility.yul\":196:910   */\ntag_3:\n    /* \"#utility.yul\":311:317   */\n  0x00\n    /* \"#utility.yul\":319:325   */\n  0x00\n    /* \"#utility.yul\":327:333   */\n  0x00\n    /* \"#utility.yul\":335:341   */\n  0x00\n    /* \"#utility.yul\":343:349   */\n  0x00\n    /* \"#utility.yul\":351:357   */\n  0x00\n    /* \"#utility.yul\":404:407   */\n  0xc0\n    /* \"#utility.yul\":392:401   */\n  dup8\n    /* \"#utility.yul\":383:390   */\n  dup10\n    /* \"#utility.yul\":379:402   */\n  sub\n    /* \"#utility.yul\":375:408   */\n  slt\n    /* \"#utility.yul\":372:425   */\n  iszero\n  tag_16\n  jumpi\n    /* \"#utility.yul\":421:422   */\n  0x00\n    /* \"#utility.yul\":418:419   */\n  0x00\n    /* \"#utility.yul\":411:423   */\n  revert\n    /* \"#utility.yul\":372:425   */\ntag_16:\n    /* \"#utility.yul\":444:484   */\n  tag_17\n    /* \"#utility.yul\":474:483   */\n  dup8\n    /* \"#utility.yul\":444:484   */\n  tag_11\n  jump\t// in\ntag_17:\n    /* \"#utility.yul\":434:484   */\n  swap6\n  pop\n    /* \"#utility.yul\":503:552   */\n  tag_18\n    /* \"#utility.yul\":548:550   */\n  0x20\n    /* \"#utility.yul\":537:546   */\n  dup9\n    /* \"#utility.yul\":533:551   */\n  add\n    /* \"#utility.yul\":503:552   */\n  tag_11\n  jump\t// in\ntag_18:\n    /* \"#utility.yul\":493:552   */\n  swap5\n  pop\n    /* \"#utility.yul\":571:620   */\n  tag_19\n    /* \"#utility.yul\":616:618   */\n  0x40\n    /* \"#utility.yul\":605:614   */\n  dup9\n    /* \"#utility.yul\":601:619   */\n  add\n    /* \"#utility.yul\":571:620   */\n  tag_11\n  jump\t// in\ntag_19:\n    /* \"#utility.yul\":682:684   */\n  0x60\n    /* \"#utility.yul\":667:685   */\n  dup9\n  add\n    /* \"#utility.yul\":661:686   */\n  mload\n    /* \"#utility.yul\":776:779   */\n  0x80\n    /* \"#utility.yul\":761:780   */\n  dup10\n  add\n    /* \"#utility.yul\":755:781   */\n  mload\n    /* \"#utility.yul\":873:876   */\n  0xa0\n    /* \"#utility.yul\":858:877   */\n  swap1\n  swap10\n  add\n    /* \"#utility.yul\":852:878   */\n  mload\n    /* \"#utility.yul\":196:910   */\n  swap8\n  swap11\n  swap7\n  swap10\n  pop\n    /* \"#utility.yul\":561:620   */\n  swap1\n  swap8\n    /* \"#utility.yul\":661:686   */\n  swap1\n  swap7\n    /* \"#utility.yul\":755:781   */\n  swap1\n  swap6\n    /* \"#utility.yul\":852:878   */\n  swap1\n  swap5\n  pop\n    /* \"#utility.yul\":196:910   */\n  swap3\n  pop\n  pop\n  pop\n  jump\t// out\ntag_12:\n    /* \"contracts/buy_back.sol\":2873:10336  contract BuyBack is Pausable, ReentrancyGuard {... */\n  dataSize(sub_0)\n  dup1\n  dataOffset(sub_0)\n  0x00\n  codecopy\n  0x00\n  return\nstop\n\nsub_0: assembly {\n        /* \"contracts/buy_back.sol\":2873:10336  contract BuyBack is Pausable, ReentrancyGuard {... */\n      mstore(0x40, 0x80)\n      callvalue\n      dup1\n      iszero\n      tag_1\n      jumpi\n      revert(0x00, 0x00)\n    tag_1:\n      pop\n      jumpi(tag_2, lt(calldatasize, 0x04))\n      shr(0xe0, calldataload(0x00))\n      dup1\n      0x839ea2d9\n      gt\n      tag_24\n      jumpi\n      dup1\n      0xc6d69a30\n      gt\n      tag_25\n      jumpi\n      dup1\n      0xc6d69a30\n      eq\n      tag_18\n      jumpi\n      dup1\n      0xce1d1f1f\n      eq\n      tag_19\n      jumpi\n      dup1\n      0xd4a49c17\n      eq\n      tag_20\n      jumpi\n      dup1\n      0xdc38679c\n      eq\n      tag_21\n      jumpi\n      dup1\n      0xeea7570e\n      eq\n      tag_22\n      jumpi\n      dup1\n      0xf2fde38b\n      eq\n      tag_23\n      jumpi\n      revert(0x00, 0x00)\n    tag_25:\n      dup1\n      0x839ea2d9\n      eq\n      tag_13\n      jumpi\n      dup1\n      0x8456cb59\n      eq\n      tag_14\n      jumpi\n      dup1\n      0x8da5cb5b\n      eq\n      tag_15\n      jumpi\n      dup1\n      0x9063ee20\n      eq\n      tag_16\n      jumpi\n      dup1\n      0x9e9aed62\n      eq\n      tag_17\n      jumpi\n      revert(0x00, 0x00)\n    tag_24:\n      dup1\n      0x6a64eff8\n      gt\n      tag_26\n      jumpi\n      dup1\n      0x6a64eff8\n      eq\n      tag_8\n      jumpi\n      dup1\n      0x771a3a1d\n      eq\n      tag_9\n      jumpi\n      dup1\n      0x79a9fa1c\n      eq\n      tag_10\n      jumpi\n      dup1\n      0x7ef7ba20\n      eq\n      tag_11\n      jumpi\n      dup1\n      0x7ff8b57a\n      eq\n      tag_12\n      jumpi\n      revert(0x00, 0x00)\n    tag_26:\n      dup1\n      0x07e675fa\n      eq\n      tag_3\n      jumpi\n      dup1\n      0x3013ce29\n      eq\n      tag_4\n      jumpi\n      dup1\n      0x3f4ba83a\n      eq\n      tag_5\n      jumpi\n      dup1\n      0x5c975abb\n      eq\n      tag_6\n      jumpi\n      dup1\n      0x5d0040d3\n      eq\n      tag_7\n      jumpi\n    tag_2:\n      revert(0x00, 0x00)\n        /* \"contracts/buy_back.sol\":8542:8959  function withdrawPaymentToken(uint256 amount) external onlyOwner {... */\n    tag_3:\n      tag_27\n      tag_28\n      calldatasize\n      0x04\n      tag_29\n      jump\t// in\n    tag_28:\n      tag_30\n      jump\t// in\n    tag_27:\n      stop\n        /* \"contracts/buy_back.sol\":2953:2980  address public paymentToken */\n    tag_4:\n      sload(0x03)\n      tag_31\n      swap1\n      sub(shl(0xa0, 0x01), 0x01)\n      and\n      dup2\n      jump\n    tag_31:\n      mload(0x40)\n      sub(shl(0xa0, 0x01), 0x01)\n        /* \"#utility.yul\":363:395   */\n      swap1\n      swap2\n      and\n        /* \"#utility.yul\":345:396   */\n      dup2\n      mstore\n        /* \"#utility.yul\":333:335   */\n      0x20\n        /* \"#utility.yul\":318:336   */\n      add\n        /* \"contracts/buy_back.sol\":2953:2980  address public paymentToken */\n    tag_33:\n      mload(0x40)\n      dup1\n      swap2\n      sub\n      swap1\n      return\n        /* \"contracts/buy_back.sol\":4600:4667  function unpause() external onlyOwner {... */\n    tag_5:\n      tag_27\n      tag_36\n      jump\t// in\n        /* \"contracts/buy_back.sol\":872:958  function paused() public view virtual returns (bool) {... */\n    tag_6:\n        /* \"contracts/buy_back.sol\":919:923  bool */\n      0x00\n        /* \"contracts/buy_back.sol\":943:950  _paused */\n      sload\n      0xff\n      and\n        /* \"contracts/buy_back.sol\":872:958  function paused() public view virtual returns (bool) {... */\n    tag_37:\n      mload(0x40)\n        /* \"#utility.yul\":572:586   */\n      swap1\n      iszero\n        /* \"#utility.yul\":565:587   */\n      iszero\n        /* \"#utility.yul\":547:588   */\n      dup2\n      mstore\n        /* \"#utility.yul\":535:537   */\n      0x20\n        /* \"#utility.yul\":520:538   */\n      add\n        /* \"contracts/buy_back.sol\":872:958  function paused() public view virtual returns (bool) {... */\n      tag_33\n        /* \"#utility.yul\":407:594   */\n      jump\n        /* \"contracts/buy_back.sol\":3273:3299  uint256 public premiumRate */\n    tag_7:\n      tag_41\n      sload(0x06)\n      dup2\n      jump\n    tag_41:\n      mload(0x40)\n        /* \"#utility.yul\":745:770   */\n      swap1\n      dup2\n      mstore\n        /* \"#utility.yul\":733:735   */\n      0x20\n        /* \"#utility.yul\":718:736   */\n      add\n        /* \"contracts/buy_back.sol\":3273:3299  uint256 public premiumRate */\n      tag_33\n        /* \"#utility.yul\":599:776   */\n      jump\n        /* \"contracts/buy_back.sol\":5082:5192  function setTargetPrice(uint256 _targetPrice) external onlyOwner {... */\n    tag_8:\n      tag_27\n      tag_46\n      calldatasize\n      0x04\n      tag_29\n      jump\t// in\n    tag_46:\n      tag_47\n      jump\t// in\n        /* \"contracts/buy_back.sol\":3407:3429  uint256 public taxRate */\n    tag_9:\n      tag_41\n      sload(0x08)\n      dup2\n      jump\n        /* \"contracts/buy_back.sol\":5852:7372  function buyback(uint256 roboMoneyAmount) external whenNotPaused nonReentrant {... */\n    tag_10:\n      tag_27\n      tag_52\n      calldatasize\n      0x04\n      tag_29\n      jump\t// in\n    tag_52:\n      tag_53\n      jump\t// in\n        /* \"contracts/buy_back.sol\":3031:3055  address public roboMoney */\n    tag_11:\n      sload(0x04)\n      tag_31\n      swap1\n      sub(shl(0xa0, 0x01), 0x01)\n      and\n      dup2\n      jump\n        /* \"contracts/buy_back.sol\":4759:4984  function setPremiumRate(uint256 _premiumRate) external onlyOwner {... */\n    tag_12:\n      tag_27\n      tag_58\n      calldatasize\n      0x04\n      tag_29\n      jump\t// in\n    tag_58:\n      tag_59\n      jump\t// in\n        /* \"contracts/buy_back.sol\":9967:10333  function canExecuteBuyback(uint256 roboMoneyAmount) external view returns (bool) {... */\n    tag_13:\n      tag_37\n      tag_61\n      calldatasize\n      0x04\n      tag_29\n      jump\t// in\n    tag_61:\n      tag_62\n      jump\t// in\n        /* \"contracts/buy_back.sol\":4435:4498  function pause() external onlyOwner {... */\n    tag_14:\n      tag_27\n      tag_65\n      jump\t// in\n        /* \"contracts/buy_back.sol\":2926:2946  address public owner */\n    tag_15:\n      sload(0x02)\n      tag_31\n      swap1\n      sub(shl(0xa0, 0x01), 0x01)\n      and\n      dup2\n      jump\n        /* \"contracts/buy_back.sol\":7566:7858  function depositPaymentToken(uint256 amount) external onlyOwner whenNotPaused {... */\n    tag_16:\n      tag_27\n      tag_70\n      calldatasize\n      0x04\n      tag_29\n      jump\t// in\n    tag_70:\n      tag_71\n      jump\t// in\n        /* \"contracts/buy_back.sol\":9057:9192  function contractTokenBalance() external view returns (uint256) {... */\n    tag_17:\n      tag_41\n      tag_73\n      jump\t// in\n        /* \"contracts/buy_back.sol\":8114:8321  function setTaxRate(uint256 _newTaxRate) external onlyOwner {... */\n    tag_18:\n      tag_27\n      tag_76\n      calldatasize\n      0x04\n      tag_29\n      jump\t// in\n    tag_76:\n      tag_77\n      jump\t// in\n        /* \"contracts/buy_back.sol\":9367:9809  function maxBuyableRoboMoney() external view returns (uint256) {... */\n    tag_19:\n      tag_41\n      tag_79\n      jump\t// in\n        /* \"contracts/buy_back.sol\":7866:8106  function setGasReserve(address _newGasReserve) external onlyOwner {... */\n    tag_20:\n      tag_27\n      tag_82\n      calldatasize\n      0x04\n      tag_83\n      jump\t// in\n    tag_82:\n      tag_84\n      jump\t// in\n        /* \"contracts/buy_back.sol\":3325:3351  uint256 public targetPrice */\n    tag_21:\n      tag_41\n      sload(0x07)\n      dup2\n      jump\n        /* \"contracts/buy_back.sol\":3121:3146  address public gasReserve */\n    tag_22:\n      sload(0x05)\n      tag_31\n      swap1\n      sub(shl(0xa0, 0x01), 0x01)\n      and\n      dup2\n      jump\n        /* \"contracts/buy_back.sol\":5261:5491  function transferOwnership(address newOwner) external onlyOwner {... */\n    tag_23:\n      tag_27\n      tag_92\n      calldatasize\n      0x04\n      tag_83\n      jump\t// in\n    tag_92:\n      tag_93\n      jump\t// in\n        /* \"contracts/buy_back.sol\":8542:8959  function withdrawPaymentToken(uint256 amount) external onlyOwner {... */\n    tag_30:\n        /* \"contracts/buy_back.sol\":4293:4298  owner */\n      and(sub(shl(0xa0, 0x01), 0x01), sload(0x02))\n        /* \"contracts/buy_back.sol\":4279:4289  msg.sender */\n      caller\n        /* \"contracts/buy_back.sol\":4279:4298  msg.sender == owner */\n      eq\n        /* \"contracts/buy_back.sol\":4271:4317  require(msg.sender == owner, \"Not authorized\") */\n      tag_95\n      jumpi\n      mload(0x40)\n      shl(0xe5, 0x461bcd)\n      dup2\n      mstore\n      0x04\n      add\n      tag_96\n      swap1\n      tag_97\n      jump\t// in\n    tag_96:\n      mload(0x40)\n      dup1\n      swap2\n      sub\n      swap1\n      revert\n    tag_95:\n        /* \"contracts/buy_back.sol\":8635:8636  0 */\n      0x00\n        /* \"contracts/buy_back.sol\":8626:8632  amount */\n      dup2\n        /* \"contracts/buy_back.sol\":8626:8636  amount > 0 */\n      gt\n        /* \"contracts/buy_back.sol\":8618:8661  require(amount > 0, \"Withdraw must be > 0\") */\n      tag_99\n      jumpi\n      mload(0x40)\n      shl(0xe5, 0x461bcd)\n      dup2\n      mstore\n        /* \"#utility.yul\":1617:1619   */\n      0x20\n        /* \"contracts/buy_back.sol\":8618:8661  require(amount > 0, \"Withdraw must be > 0\") */\n      0x04\n      dup3\n      add\n        /* \"#utility.yul\":1599:1620   */\n      mstore\n        /* \"#utility.yul\":1656:1658   */\n      0x14\n        /* \"#utility.yul\":1636:1654   */\n      0x24\n      dup3\n      add\n        /* \"#utility.yul\":1629:1659   */\n      mstore\n      shl(0x64, 0x05769746864726177206d757374206265203e203)\n        /* \"#utility.yul\":1675:1693   */\n      0x44\n      dup3\n      add\n        /* \"#utility.yul\":1668:1718   */\n      mstore\n        /* \"#utility.yul\":1735:1753   */\n      0x64\n      add\n        /* \"contracts/buy_back.sol\":8618:8661  require(amount > 0, \"Withdraw must be > 0\") */\n      tag_96\n        /* \"#utility.yul\":1415:1759   */\n      jump\n        /* \"contracts/buy_back.sol\":8618:8661  require(amount > 0, \"Withdraw must be > 0\") */\n    tag_99:\n        /* \"contracts/buy_back.sol\":8704:8716  paymentToken */\n      sload(0x03)\n        /* \"contracts/buy_back.sol\":8697:8742  IERC20(paymentToken).balanceOf(address(this)) */\n      mload(0x40)\n      shl(0xe0, 0x70a08231)\n      dup2\n      mstore\n        /* \"contracts/buy_back.sol\":8736:8740  this */\n      address\n        /* \"contracts/buy_back.sol\":8697:8742  IERC20(paymentToken).balanceOf(address(this)) */\n      0x04\n      dup3\n      add\n        /* \"#utility.yul\":345:396   */\n      mstore\n        /* \"contracts/buy_back.sol\":8672:8694  uint256 currentBalance */\n      0x00\n      swap2\n      sub(shl(0xa0, 0x01), 0x01)\n        /* \"contracts/buy_back.sol\":8704:8716  paymentToken */\n      and\n      swap1\n        /* \"contracts/buy_back.sol\":8697:8727  IERC20(paymentToken).balanceOf */\n      0x70a08231\n      swap1\n        /* \"#utility.yul\":318:336   */\n      0x24\n      add\n        /* \"contracts/buy_back.sol\":8697:8742  IERC20(paymentToken).balanceOf(address(this)) */\n      0x20\n      mload(0x40)\n      dup1\n      dup4\n      sub\n      dup2\n      dup7\n      gas\n      staticcall\n      iszero\n      dup1\n      iszero\n      tag_104\n      jumpi\n      returndatacopy(0x00, 0x00, returndatasize)\n      revert(0x00, returndatasize)\n    tag_104:\n      pop\n      pop\n      pop\n      pop\n      mload(0x40)\n      returndatasize\n      not(0x1f)\n      0x1f\n      dup3\n      add\n      and\n      dup3\n      add\n      dup1\n      0x40\n      mstore\n      pop\n      dup2\n      add\n      swap1\n      tag_105\n      swap2\n      swap1\n      tag_106\n      jump\t// in\n    tag_105:\n        /* \"contracts/buy_back.sol\":8672:8742  uint256 currentBalance = IERC20(paymentToken).balanceOf(address(this)) */\n      swap1\n      pop\n        /* \"contracts/buy_back.sol\":8771:8785  currentBalance */\n      dup1\n        /* \"contracts/buy_back.sol\":8761:8767  amount */\n      dup3\n        /* \"contracts/buy_back.sol\":8761:8785  amount <= currentBalance */\n      gt\n      iszero\n        /* \"contracts/buy_back.sol\":8753:8819  require(amount <= currentBalance, \"Not enough tokens in contract\") */\n      tag_107\n      jumpi\n      mload(0x40)\n      shl(0xe5, 0x461bcd)\n      dup2\n      mstore\n        /* \"#utility.yul\":2155:2157   */\n      0x20\n        /* \"contracts/buy_back.sol\":8753:8819  require(amount <= currentBalance, \"Not enough tokens in contract\") */\n      0x04\n      dup3\n      add\n        /* \"#utility.yul\":2137:2158   */\n      mstore\n        /* \"#utility.yul\":2194:2196   */\n      0x1d\n        /* \"#utility.yul\":2174:2192   */\n      0x24\n      dup3\n      add\n        /* \"#utility.yul\":2167:2197   */\n      mstore\n        /* \"#utility.yul\":2233:2264   */\n      0x4e6f7420656e6f75676820746f6b656e7320696e20636f6e7472616374000000\n        /* \"#utility.yul\":2213:2231   */\n      0x44\n      dup3\n      add\n        /* \"#utility.yul\":2206:2265   */\n      mstore\n        /* \"#utility.yul\":2282:2300   */\n      0x64\n      add\n        /* \"contracts/buy_back.sol\":8753:8819  require(amount <= currentBalance, \"Not enough tokens in contract\") */\n      tag_96\n        /* \"#utility.yul\":1953:2306   */\n      jump\n        /* \"contracts/buy_back.sol\":8753:8819  require(amount <= currentBalance, \"Not enough tokens in contract\") */\n    tag_107:\n        /* \"contracts/buy_back.sol\":8852:8864  paymentToken */\n      sload(0x03)\n        /* \"contracts/buy_back.sol\":8875:8880  owner */\n      sload(0x02)\n        /* \"contracts/buy_back.sol\":8845:8889  IERC20(paymentToken).transfer(owner, amount) */\n      mload(0x40)\n      shl(0xe0, 0xa9059cbb)\n      dup2\n      mstore\n      sub(shl(0xa0, 0x01), 0x01)\n        /* \"contracts/buy_back.sol\":8875:8880  owner */\n      swap2\n      dup3\n      and\n        /* \"contracts/buy_back.sol\":8845:8889  IERC20(paymentToken).transfer(owner, amount) */\n      0x04\n      dup3\n      add\n        /* \"#utility.yul\":2485:2536   */\n      mstore\n        /* \"#utility.yul\":2552:2570   */\n      0x24\n      dup2\n      add\n        /* \"#utility.yul\":2545:2579   */\n      dup6\n      swap1\n      mstore\n        /* \"contracts/buy_back.sol\":8830:8842  bool success */\n      0x00\n      swap3\n        /* \"contracts/buy_back.sol\":8852:8864  paymentToken */\n      swap2\n      swap1\n      swap2\n      and\n      swap1\n        /* \"contracts/buy_back.sol\":8845:8874  IERC20(paymentToken).transfer */\n      0xa9059cbb\n      swap1\n        /* \"#utility.yul\":2458:2476   */\n      0x44\n      add\n        /* \"contracts/buy_back.sol\":8845:8889  IERC20(paymentToken).transfer(owner, amount) */\n      0x20\n      mload(0x40)\n      dup1\n      dup4\n      sub\n      dup2\n      0x00\n      dup8\n      gas\n      call\n      iszero\n      dup1\n      iszero\n      tag_113\n      jumpi\n      returndatacopy(0x00, 0x00, returndatasize)\n      revert(0x00, returndatasize)\n    tag_113:\n      pop\n      pop\n      pop\n      pop\n      mload(0x40)\n      returndatasize\n      not(0x1f)\n      0x1f\n      dup3\n      add\n      and\n      dup3\n      add\n      dup1\n      0x40\n      mstore\n      pop\n      dup2\n      add\n      swap1\n      tag_114\n      swap2\n      swap1\n      tag_115\n      jump\t// in\n    tag_114:\n        /* \"contracts/buy_back.sol\":8830:8889  bool success = IERC20(paymentToken).transfer(owner, amount) */\n      swap1\n      pop\n        /* \"contracts/buy_back.sol\":8908:8915  success */\n      dup1\n        /* \"contracts/buy_back.sol\":8900:8951  require(success, \"Payment token withdrawal failed\") */\n      tag_116\n      jumpi\n      mload(0x40)\n      shl(0xe5, 0x461bcd)\n      dup2\n      mstore\n        /* \"#utility.yul\":3074:3076   */\n      0x20\n        /* \"contracts/buy_back.sol\":8900:8951  require(success, \"Payment token withdrawal failed\") */\n      0x04\n      dup3\n      add\n        /* \"#utility.yul\":3056:3077   */\n      mstore\n        /* \"#utility.yul\":3113:3115   */\n      0x1f\n        /* \"#utility.yul\":3093:3111   */\n      0x24\n      dup3\n      add\n        /* \"#utility.yul\":3086:3116   */\n      mstore\n        /* \"#utility.yul\":3152:3185   */\n      0x5061796d656e7420746f6b656e207769746864726177616c206661696c656400\n        /* \"#utility.yul\":3132:3150   */\n      0x44\n      dup3\n      add\n        /* \"#utility.yul\":3125:3186   */\n      mstore\n        /* \"#utility.yul\":3203:3221   */\n      0x64\n      add\n        /* \"contracts/buy_back.sol\":8900:8951  require(success, \"Payment token withdrawal failed\") */\n      tag_96\n        /* \"#utility.yul\":2872:3227   */\n      jump\n        /* \"contracts/buy_back.sol\":8900:8951  require(success, \"Payment token withdrawal failed\") */\n    tag_116:\n        /* \"contracts/buy_back.sol\":8607:8959  {... */\n      pop\n      pop\n        /* \"contracts/buy_back.sol\":8542:8959  function withdrawPaymentToken(uint256 amount) external onlyOwner {... */\n      pop\n      jump\t// out\n        /* \"contracts/buy_back.sol\":4600:4667  function unpause() external onlyOwner {... */\n    tag_36:\n        /* \"contracts/buy_back.sol\":4293:4298  owner */\n      and(sub(shl(0xa0, 0x01), 0x01), sload(0x02))\n        /* \"contracts/buy_back.sol\":4279:4289  msg.sender */\n      caller\n        /* \"contracts/buy_back.sol\":4279:4298  msg.sender == owner */\n      eq\n        /* \"contracts/buy_back.sol\":4271:4317  require(msg.sender == owner, \"Not authorized\") */\n      tag_120\n      jumpi\n      mload(0x40)\n      shl(0xe5, 0x461bcd)\n      dup2\n      mstore\n      0x04\n      add\n      tag_96\n      swap1\n      tag_97\n      jump\t// in\n    tag_120:\n        /* \"contracts/buy_back.sol\":4649:4659  _unpause() */\n      tag_123\n        /* \"contracts/buy_back.sol\":4649:4657  _unpause */\n      tag_124\n        /* \"contracts/buy_back.sol\":4649:4659  _unpause() */\n      jump\t// in\n    tag_123:\n        /* \"contracts/buy_back.sol\":4600:4667  function unpause() external onlyOwner {... */\n      jump\t// out\n        /* \"contracts/buy_back.sol\":5082:5192  function setTargetPrice(uint256 _targetPrice) external onlyOwner {... */\n    tag_47:\n        /* \"contracts/buy_back.sol\":4293:4298  owner */\n      and(sub(shl(0xa0, 0x01), 0x01), sload(0x02))\n        /* \"contracts/buy_back.sol\":4279:4289  msg.sender */\n      caller\n        /* \"contracts/buy_back.sol\":4279:4298  msg.sender == owner */\n      eq\n        /* \"contracts/buy_back.sol\":4271:4317  require(msg.sender == owner, \"Not authorized\") */\n      tag_127\n      jumpi\n      mload(0x40)\n      shl(0xe5, 0x461bcd)\n      dup2\n      mstore\n      0x04\n      add\n      tag_96\n      swap1\n      tag_97\n      jump\t// in\n    tag_127:\n        /* \"contracts/buy_back.sol\":5158:5169  targetPrice */\n      0x07\n        /* \"contracts/buy_back.sol\":5158:5184  targetPrice = _targetPrice */\n      sstore\n        /* \"contracts/buy_back.sol\":5082:5192  function setTargetPrice(uint256 _targetPrice) external onlyOwner {... */\n      jump\t// out\n        /* \"contracts/buy_back.sol\":5852:7372  function buyback(uint256 roboMoneyAmount) external whenNotPaused nonReentrant {... */\n    tag_53:\n        /* \"contracts/buy_back.sol\":919:923  bool */\n      0x00\n        /* \"contracts/buy_back.sol\":943:950  _paused */\n      sload\n      0xff\n      and\n        /* \"contracts/buy_back.sol\":1010:1019  !paused() */\n      iszero\n        /* \"contracts/buy_back.sol\":1002:1040  require(!paused(), \"Pausable: paused\") */\n      tag_132\n      jumpi\n      mload(0x40)\n      shl(0xe5, 0x461bcd)\n      dup2\n      mstore\n      0x04\n      add\n      tag_96\n      swap1\n      tag_134\n      jump\t// in\n    tag_132:\n        /* \"@openzeppelin/contracts/security/ReentrancyGuard.sol\":2261:2282  _nonReentrantBefore() */\n      tag_136\n        /* \"@openzeppelin/contracts/security/ReentrancyGuard.sol\":2261:2280  _nonReentrantBefore */\n      tag_137\n        /* \"@openzeppelin/contracts/security/ReentrancyGuard.sol\":2261:2282  _nonReentrantBefore() */\n      jump\t// in\n    tag_136:\n        /* \"contracts/buy_back.sol\":5967:5968  0 */\n      0x00\n        /* \"contracts/buy_back.sol\":5949:5964  roboMoneyAmount */\n      dup2\n        /* \"contracts/buy_back.sol\":5949:5968  roboMoneyAmount > 0 */\n      gt\n        /* \"contracts/buy_back.sol\":5941:5995  require(roboMoneyAmount > 0, \"Must deposit RoboMoney\") */\n      tag_139\n      jumpi\n      mload(0x40)\n      shl(0xe5, 0x461bcd)\n      dup2\n      mstore\n        /* \"#utility.yul\":3779:3781   */\n      0x20\n        /* \"contracts/buy_back.sol\":5941:5995  require(roboMoneyAmount > 0, \"Must deposit RoboMoney\") */\n      0x04\n      dup3\n      add\n        /* \"#utility.yul\":3761:3782   */\n      mstore\n        /* \"#utility.yul\":3818:3820   */\n      0x16\n        /* \"#utility.yul\":3798:3816   */\n      0x24\n      dup3\n      add\n        /* \"#utility.yul\":3791:3821   */\n      mstore\n      shl(0x50, 0x4d757374206465706f73697420526f626f4d6f6e6579)\n        /* \"#utility.yul\":3837:3855   */\n      0x44\n      dup3\n      add\n        /* \"#utility.yul\":3830:3882   */\n      mstore\n        /* \"#utility.yul\":3899:3917   */\n      0x64\n      add\n        /* \"contracts/buy_back.sol\":5941:5995  require(roboMoneyAmount > 0, \"Must deposit RoboMoney\") */\n      tag_96\n        /* \"#utility.yul\":3577:3923   */\n      jump\n        /* \"contracts/buy_back.sol\":5941:5995  require(roboMoneyAmount > 0, \"Must deposit RoboMoney\") */\n    tag_139:\n        /* \"contracts/buy_back.sol\":6079:6088  roboMoney */\n      0x04\n      dup1\n      sload\n        /* \"contracts/buy_back.sol\":6068:6126  IRoboMoney(roboMoney).allowance(msg.sender, address(this)) */\n      mload(0x40)\n      shl(0xe1, 0x6eb1769f)\n      dup2\n      mstore\n        /* \"contracts/buy_back.sol\":6100:6110  msg.sender */\n      caller\n        /* \"contracts/buy_back.sol\":6068:6126  IRoboMoney(roboMoney).allowance(msg.sender, address(this)) */\n      swap3\n      dup2\n      add\n        /* \"#utility.yul\":4102:4153   */\n      swap3\n      swap1\n      swap3\n      mstore\n        /* \"contracts/buy_back.sol\":6120:6124  this */\n      address\n        /* \"#utility.yul\":4169:4187   */\n      0x24\n      dup4\n      add\n        /* \"#utility.yul\":4162:4222   */\n      mstore\n        /* \"contracts/buy_back.sol\":6050:6065  uint256 allowed */\n      0x00\n      swap2\n      sub(shl(0xa0, 0x01), 0x01)\n        /* \"contracts/buy_back.sol\":6079:6088  roboMoney */\n      swap1\n      swap2\n      and\n      swap1\n        /* \"contracts/buy_back.sol\":6068:6099  IRoboMoney(roboMoney).allowance */\n      0xdd62ed3e\n      swap1\n        /* \"#utility.yul\":4075:4093   */\n      0x44\n      add\n        /* \"contracts/buy_back.sol\":6068:6126  IRoboMoney(roboMoney).allowance(msg.sender, address(this)) */\n      0x20\n      mload(0x40)\n      dup1\n      dup4\n      sub\n      dup2\n      dup7\n      gas\n      staticcall\n      iszero\n      dup1\n      iszero\n      tag_145\n      jumpi\n      returndatacopy(0x00, 0x00, returndatasize)\n      revert(0x00, returndatasize)\n    tag_145:\n      pop\n      pop\n      pop\n      pop\n      mload(0x40)\n      returndatasize\n      not(0x1f)\n      0x1f\n      dup3\n      add\n      and\n      dup3\n      add\n      dup1\n      0x40\n      mstore\n      pop\n      dup2\n      add\n      swap1\n      tag_146\n      swap2\n      swap1\n      tag_106\n      jump\t// in\n    tag_146:\n        /* \"contracts/buy_back.sol\":6050:6126  uint256 allowed = IRoboMoney(roboMoney).allowance(msg.sender, address(this)) */\n      swap1\n      pop\n        /* \"contracts/buy_back.sol\":6156:6171  roboMoneyAmount */\n      dup2\n        /* \"contracts/buy_back.sol\":6145:6152  allowed */\n      dup2\n        /* \"contracts/buy_back.sol\":6145:6171  allowed >= roboMoneyAmount */\n      lt\n      iszero\n        /* \"contracts/buy_back.sol\":6137:6208  require(allowed >= roboMoneyAmount, \"Insufficient RoboMoney allowance\") */\n      tag_147\n      jumpi\n      mload(0x40)\n      shl(0xe5, 0x461bcd)\n      dup2\n      mstore\n        /* \"#utility.yul\":4435:4437   */\n      0x20\n        /* \"contracts/buy_back.sol\":6137:6208  require(allowed >= roboMoneyAmount, \"Insufficient RoboMoney allowance\") */\n      0x04\n      dup3\n      add\n        /* \"#utility.yul\":4417:4438   */\n      dup2\n      swap1\n      mstore\n        /* \"#utility.yul\":4454:4472   */\n      0x24\n      dup3\n      add\n        /* \"#utility.yul\":4447:4477   */\n      mstore\n        /* \"#utility.yul\":4513:4547   */\n      0x496e73756666696369656e7420526f626f4d6f6e657920616c6c6f77616e6365\n        /* \"#utility.yul\":4493:4511   */\n      0x44\n      dup3\n      add\n        /* \"#utility.yul\":4486:4548   */\n      mstore\n        /* \"#utility.yul\":4565:4583   */\n      0x64\n      add\n        /* \"contracts/buy_back.sol\":6137:6208  require(allowed >= roboMoneyAmount, \"Insufficient RoboMoney allowance\") */\n      tag_96\n        /* \"#utility.yul\":4233:4589   */\n      jump\n        /* \"contracts/buy_back.sol\":6137:6208  require(allowed >= roboMoneyAmount, \"Insufficient RoboMoney allowance\") */\n    tag_147:\n        /* \"contracts/buy_back.sol\":6281:6290  roboMoney */\n      sload(0x04)\n        /* \"contracts/buy_back.sol\":6274:6352  IERC20(roboMoney).safeTransferFrom(msg.sender, address(this), roboMoneyAmount) */\n      tag_150\n      swap1\n      sub(shl(0xa0, 0x01), 0x01)\n        /* \"contracts/buy_back.sol\":6281:6290  roboMoney */\n      and\n        /* \"contracts/buy_back.sol\":6309:6319  msg.sender */\n      caller\n        /* \"contracts/buy_back.sol\":6329:6333  this */\n      address\n        /* \"contracts/buy_back.sol\":6336:6351  roboMoneyAmount */\n      dup6\n        /* \"contracts/buy_back.sol\":6274:6308  IERC20(roboMoney).safeTransferFrom */\n      tag_151\n        /* \"contracts/buy_back.sol\":6274:6352  IERC20(roboMoney).safeTransferFrom(msg.sender, address(this), roboMoneyAmount) */\n      jump\t// in\n    tag_150:\n        /* \"contracts/buy_back.sol\":6503:6523  uint256 premiumPrice */\n      0x00\n        /* \"contracts/buy_back.sol\":6564:6567  100 */\n      0x64\n        /* \"contracts/buy_back.sol\":6548:6559  premiumRate */\n      sload(0x06)\n        /* \"contracts/buy_back.sol\":6542:6545  100 */\n      0x64\n        /* \"contracts/buy_back.sol\":6542:6559  100 + premiumRate */\n      tag_152\n      swap2\n      swap1\n      tag_153\n      jump\t// in\n    tag_152:\n        /* \"contracts/buy_back.sol\":6527:6538  targetPrice */\n      sload(0x07)\n        /* \"contracts/buy_back.sol\":6527:6560  targetPrice * (100 + premiumRate) */\n      tag_154\n      swap2\n      swap1\n      tag_155\n      jump\t// in\n    tag_154:\n        /* \"contracts/buy_back.sol\":6526:6567  (targetPrice * (100 + premiumRate)) / 100 */\n      tag_156\n      swap2\n      swap1\n      tag_157\n      jump\t// in\n    tag_156:\n        /* \"contracts/buy_back.sol\":6503:6567  uint256 premiumPrice = (targetPrice * (100 + premiumRate)) / 100 */\n      swap1\n      pop\n        /* \"contracts/buy_back.sol\":6578:6597  uint256 tokenAmount */\n      0x00\n        /* \"contracts/buy_back.sol\":6635:6639  1e18 */\n      0x0de0b6b3a7640000\n        /* \"contracts/buy_back.sol\":6601:6631  roboMoneyAmount * premiumPrice */\n      tag_158\n        /* \"contracts/buy_back.sol\":6503:6567  uint256 premiumPrice = (targetPrice * (100 + premiumRate)) / 100 */\n      dup4\n        /* \"contracts/buy_back.sol\":6601:6616  roboMoneyAmount */\n      dup7\n        /* \"contracts/buy_back.sol\":6601:6631  roboMoneyAmount * premiumPrice */\n      tag_155\n      jump\t// in\n    tag_158:\n        /* \"contracts/buy_back.sol\":6600:6639  (roboMoneyAmount * premiumPrice) / 1e18 */\n      tag_159\n      swap2\n      swap1\n      tag_157\n      jump\t// in\n    tag_159:\n        /* \"contracts/buy_back.sol\":6740:6752  paymentToken */\n      sload(0x03)\n        /* \"contracts/buy_back.sol\":6733:6778  IERC20(paymentToken).balanceOf(address(this)) */\n      mload(0x40)\n      shl(0xe0, 0x70a08231)\n      dup2\n      mstore\n        /* \"contracts/buy_back.sol\":6772:6776  this */\n      address\n        /* \"contracts/buy_back.sol\":6733:6778  IERC20(paymentToken).balanceOf(address(this)) */\n      0x04\n      dup3\n      add\n        /* \"#utility.yul\":345:396   */\n      mstore\n        /* \"contracts/buy_back.sol\":6578:6639  uint256 tokenAmount = (roboMoneyAmount * premiumPrice) / 1e18 */\n      swap2\n      swap3\n      pop\n        /* \"contracts/buy_back.sol\":6708:6730  uint256 currentBalance */\n      0x00\n      swap2\n      sub(shl(0xa0, 0x01), 0x01)\n        /* \"contracts/buy_back.sol\":6740:6752  paymentToken */\n      swap1\n      swap2\n      and\n      swap1\n        /* \"contracts/buy_back.sol\":6733:6763  IERC20(paymentToken).balanceOf */\n      0x70a08231\n      swap1\n        /* \"#utility.yul\":318:336   */\n      0x24\n      add\n        /* \"contracts/buy_back.sol\":6733:6778  IERC20(paymentToken).balanceOf(address(this)) */\n      0x20\n      mload(0x40)\n      dup1\n      dup4\n      sub\n      dup2\n      dup7\n      gas\n      staticcall\n      iszero\n      dup1\n      iszero\n      tag_162\n      jumpi\n      returndatacopy(0x00, 0x00, returndatasize)\n      revert(0x00, returndatasize)\n    tag_162:\n      pop\n      pop\n      pop\n      pop\n      mload(0x40)\n      returndatasize\n      not(0x1f)\n      0x1f\n      dup3\n      add\n      and\n      dup3\n      add\n      dup1\n      0x40\n      mstore\n      pop\n      dup2\n      add\n      swap1\n      tag_163\n      swap2\n      swap1\n      tag_106\n      jump\t// in\n    tag_163:\n        /* \"contracts/buy_back.sol\":6708:6778  uint256 currentBalance = IERC20(paymentToken).balanceOf(address(this)) */\n      swap1\n      pop\n        /* \"contracts/buy_back.sol\":6815:6826  tokenAmount */\n      dup2\n        /* \"contracts/buy_back.sol\":6797:6811  currentBalance */\n      dup2\n        /* \"contracts/buy_back.sol\":6797:6826  currentBalance >= tokenAmount */\n      lt\n      iszero\n        /* \"contracts/buy_back.sol\":6789:6866  require(currentBalance >= tokenAmount, \"Not enough paymentToken in contract\") */\n      tag_164\n      jumpi\n      mload(0x40)\n      shl(0xe5, 0x461bcd)\n      dup2\n      mstore\n        /* \"#utility.yul\":5453:5455   */\n      0x20\n        /* \"contracts/buy_back.sol\":6789:6866  require(currentBalance >= tokenAmount, \"Not enough paymentToken in contract\") */\n      0x04\n      dup3\n      add\n        /* \"#utility.yul\":5435:5456   */\n      mstore\n        /* \"#utility.yul\":5492:5494   */\n      0x23\n        /* \"#utility.yul\":5472:5490   */\n      0x24\n      dup3\n      add\n        /* \"#utility.yul\":5465:5495   */\n      mstore\n        /* \"#utility.yul\":5531:5565   */\n      0x4e6f7420656e6f756768207061796d656e74546f6b656e20696e20636f6e7472\n        /* \"#utility.yul\":5511:5529   */\n      0x44\n      dup3\n      add\n        /* \"#utility.yul\":5504:5566   */\n      mstore\n      shl(0xea, 0x1858dd)\n        /* \"#utility.yul\":5582:5600   */\n      0x64\n      dup3\n      add\n        /* \"#utility.yul\":5575:5608   */\n      mstore\n        /* \"#utility.yul\":5625:5644   */\n      0x84\n      add\n        /* \"contracts/buy_back.sol\":6789:6866  require(currentBalance >= tokenAmount, \"Not enough paymentToken in contract\") */\n      tag_96\n        /* \"#utility.yul\":5251:5650   */\n      jump\n        /* \"contracts/buy_back.sol\":6789:6866  require(currentBalance >= tokenAmount, \"Not enough paymentToken in contract\") */\n    tag_164:\n        /* \"contracts/buy_back.sol\":6921:6938  uint256 taxAmount */\n      0x00\n        /* \"contracts/buy_back.sol\":6967:6972  10000 */\n      0x2710\n        /* \"contracts/buy_back.sol\":6956:6963  taxRate */\n      sload(0x08)\n        /* \"contracts/buy_back.sol\":6942:6953  tokenAmount */\n      dup5\n        /* \"contracts/buy_back.sol\":6942:6963  tokenAmount * taxRate */\n      tag_167\n      swap2\n      swap1\n      tag_155\n      jump\t// in\n    tag_167:\n        /* \"contracts/buy_back.sol\":6941:6972  (tokenAmount * taxRate) / 10000 */\n      tag_168\n      swap2\n      swap1\n      tag_157\n      jump\t// in\n    tag_168:\n        /* \"contracts/buy_back.sol\":6921:6972  uint256 taxAmount = (tokenAmount * taxRate) / 10000 */\n      swap1\n      pop\n        /* \"contracts/buy_back.sol\":6983:7001  uint256 userAmount */\n      0x00\n        /* \"contracts/buy_back.sol\":7004:7027  tokenAmount - taxAmount */\n      tag_169\n        /* \"contracts/buy_back.sol\":6921:6972  uint256 taxAmount = (tokenAmount * taxRate) / 10000 */\n      dup3\n        /* \"contracts/buy_back.sol\":7004:7015  tokenAmount */\n      dup6\n        /* \"contracts/buy_back.sol\":7004:7027  tokenAmount - taxAmount */\n      tag_170\n      jump\t// in\n    tag_169:\n        /* \"contracts/buy_back.sol\":7074:7084  gasReserve */\n      sload(0x05)\n        /* \"contracts/buy_back.sol\":7047:7059  paymentToken */\n      sload(0x03)\n        /* \"contracts/buy_back.sol\":6983:7027  uint256 userAmount = tokenAmount - taxAmount */\n      swap2\n      swap3\n      pop\n        /* \"contracts/buy_back.sol\":7040:7096  IERC20(paymentToken).safeTransfer(gasReserve, taxAmount) */\n      tag_171\n      swap2\n      sub(shl(0xa0, 0x01), 0x01)\n        /* \"contracts/buy_back.sol\":7047:7059  paymentToken */\n      swap1\n      dup2\n      and\n      swap2\n        /* \"contracts/buy_back.sol\":7074:7084  gasReserve */\n      and\n        /* \"contracts/buy_back.sol\":7086:7095  taxAmount */\n      dup5\n        /* \"contracts/buy_back.sol\":7040:7073  IERC20(paymentToken).safeTransfer */\n      tag_172\n        /* \"contracts/buy_back.sol\":7040:7096  IERC20(paymentToken).safeTransfer(gasReserve, taxAmount) */\n      jump\t// in\n    tag_171:\n        /* \"contracts/buy_back.sol\":7114:7126  paymentToken */\n      sload(0x03)\n        /* \"contracts/buy_back.sol\":7107:7164  IERC20(paymentToken).safeTransfer(msg.sender, userAmount) */\n      tag_173\n      swap1\n      sub(shl(0xa0, 0x01), 0x01)\n        /* \"contracts/buy_back.sol\":7114:7126  paymentToken */\n      and\n        /* \"contracts/buy_back.sol\":7141:7151  msg.sender */\n      caller\n        /* \"contracts/buy_back.sol\":7153:7163  userAmount */\n      dup4\n        /* \"contracts/buy_back.sol\":7107:7140  IERC20(paymentToken).safeTransfer */\n      tag_172\n        /* \"contracts/buy_back.sol\":7107:7164  IERC20(paymentToken).safeTransfer(msg.sender, userAmount) */\n      jump\t// in\n    tag_173:\n        /* \"contracts/buy_back.sol\":7242:7251  roboMoney */\n      0x04\n      dup1\n      sload\n        /* \"contracts/buy_back.sol\":7231:7289  IRoboMoney(roboMoney).burn(address(this), roboMoneyAmount) */\n      mload(0x40)\n      shl(0xe2, 0x2770a7eb)\n      dup2\n      mstore\n        /* \"contracts/buy_back.sol\":7266:7270  this */\n      address\n        /* \"contracts/buy_back.sol\":7231:7289  IRoboMoney(roboMoney).burn(address(this), roboMoneyAmount) */\n      swap3\n      dup2\n      add\n        /* \"#utility.yul\":2485:2536   */\n      swap3\n      swap1\n      swap3\n      mstore\n        /* \"#utility.yul\":2552:2570   */\n      0x24\n      dup3\n      add\n        /* \"#utility.yul\":2545:2579   */\n      dup10\n      swap1\n      mstore\n      sub(shl(0xa0, 0x01), 0x01)\n        /* \"contracts/buy_back.sol\":7242:7251  roboMoney */\n      and\n      swap1\n        /* \"contracts/buy_back.sol\":7231:7257  IRoboMoney(roboMoney).burn */\n      0x9dc29fac\n      swap1\n        /* \"#utility.yul\":2458:2476   */\n      0x44\n      add\n        /* \"contracts/buy_back.sol\":7231:7289  IRoboMoney(roboMoney).burn(address(this), roboMoneyAmount) */\n      0x00\n      mload(0x40)\n      dup1\n      dup4\n      sub\n      dup2\n      0x00\n      dup8\n      dup1\n      extcodesize\n      iszero\n      dup1\n      iszero\n      tag_175\n      jumpi\n      revert(0x00, 0x00)\n    tag_175:\n      pop\n      gas\n      call\n      iszero\n      dup1\n      iszero\n      tag_177\n      jumpi\n      returndatacopy(0x00, 0x00, returndatasize)\n      revert(0x00, returndatasize)\n    tag_177:\n      pop\n      pop\n        /* \"contracts/buy_back.sol\":7307:7364  BuyBackExecuted(msg.sender, roboMoneyAmount, tokenAmount) */\n      0x40\n      dup1\n      mload\n        /* \"#utility.yul\":5962:5987   */\n      dup11\n      dup2\n      mstore\n        /* \"#utility.yul\":6018:6020   */\n      0x20\n        /* \"#utility.yul\":6003:6021   */\n      dup2\n      add\n        /* \"#utility.yul\":5996:6030   */\n      dup9\n      swap1\n      mstore\n        /* \"contracts/buy_back.sol\":7323:7333  msg.sender */\n      caller\n      swap4\n      pop\n        /* \"contracts/buy_back.sol\":7307:7364  BuyBackExecuted(msg.sender, roboMoneyAmount, tokenAmount) */\n      0xcb7f55d0b91628d4520b789339dae4803ab07182ea89d138acbd965dac51dc65\n      swap3\n      pop\n        /* \"#utility.yul\":5935:5953   */\n      add\n        /* \"contracts/buy_back.sol\":7307:7364  BuyBackExecuted(msg.sender, roboMoneyAmount, tokenAmount) */\n      mload(0x40)\n      dup1\n      swap2\n      sub\n      swap1\n      log2\n        /* \"contracts/buy_back.sol\":5930:7372  {... */\n      pop\n      pop\n      pop\n      pop\n      pop\n      pop\n        /* \"@openzeppelin/contracts/security/ReentrancyGuard.sol\":2303:2323  _nonReentrantAfter() */\n      tag_180\n        /* \"@openzeppelin/contracts/security/ReentrancyGuard.sol\":1716:1717  1 */\n      0x01\n        /* \"@openzeppelin/contracts/security/ReentrancyGuard.sol\":2809:2831  _status = _NOT_ENTERED */\n      dup1\n      sstore\n        /* \"@openzeppelin/contracts/security/ReentrancyGuard.sol\":2629:2838  function _nonReentrantAfter() private {... */\n      jump\n        /* \"@openzeppelin/contracts/security/ReentrancyGuard.sol\":2303:2323  _nonReentrantAfter() */\n    tag_180:\n        /* \"contracts/buy_back.sol\":5852:7372  function buyback(uint256 roboMoneyAmount) external whenNotPaused nonReentrant {... */\n      pop\n      jump\t// out\n        /* \"contracts/buy_back.sol\":4759:4984  function setPremiumRate(uint256 _premiumRate) external onlyOwner {... */\n    tag_59:\n        /* \"contracts/buy_back.sol\":4293:4298  owner */\n      and(sub(shl(0xa0, 0x01), 0x01), sload(0x02))\n        /* \"contracts/buy_back.sol\":4279:4289  msg.sender */\n      caller\n        /* \"contracts/buy_back.sol\":4279:4298  msg.sender == owner */\n      eq\n        /* \"contracts/buy_back.sol\":4271:4317  require(msg.sender == owner, \"Not authorized\") */\n      tag_183\n      jumpi\n      mload(0x40)\n      shl(0xe5, 0x461bcd)\n      dup2\n      mstore\n      0x04\n      add\n      tag_96\n      swap1\n      tag_97\n      jump\t// in\n    tag_183:\n        /* \"contracts/buy_back.sol\":4911:4914  100 */\n      0x64\n        /* \"contracts/buy_back.sol\":4895:4907  _premiumRate */\n      dup2\n        /* \"contracts/buy_back.sol\":4895:4914  _premiumRate <= 100 */\n      gt\n      iszero\n        /* \"contracts/buy_back.sol\":4887:4939  require(_premiumRate <= 100, \"Invalid premium rate\") */\n      tag_186\n      jumpi\n      mload(0x40)\n      shl(0xe5, 0x461bcd)\n      dup2\n      mstore\n        /* \"#utility.yul\":6243:6245   */\n      0x20\n        /* \"contracts/buy_back.sol\":4887:4939  require(_premiumRate <= 100, \"Invalid premium rate\") */\n      0x04\n      dup3\n      add\n        /* \"#utility.yul\":6225:6246   */\n      mstore\n        /* \"#utility.yul\":6282:6284   */\n      0x14\n        /* \"#utility.yul\":6262:6280   */\n      0x24\n      dup3\n      add\n        /* \"#utility.yul\":6255:6285   */\n      mstore\n      shl(0x60, 0x496e76616c6964207072656d69756d2072617465)\n        /* \"#utility.yul\":6301:6319   */\n      0x44\n      dup3\n      add\n        /* \"#utility.yul\":6294:6344   */\n      mstore\n        /* \"#utility.yul\":6361:6379   */\n      0x64\n      add\n        /* \"contracts/buy_back.sol\":4887:4939  require(_premiumRate <= 100, \"Invalid premium rate\") */\n      tag_96\n        /* \"#utility.yul\":6041:6385   */\n      jump\n        /* \"contracts/buy_back.sol\":4887:4939  require(_premiumRate <= 100, \"Invalid premium rate\") */\n    tag_186:\n        /* \"contracts/buy_back.sol\":4950:4961  premiumRate */\n      0x06\n        /* \"contracts/buy_back.sol\":4950:4976  premiumRate = _premiumRate */\n      sstore\n        /* \"contracts/buy_back.sol\":4759:4984  function setPremiumRate(uint256 _premiumRate) external onlyOwner {... */\n      jump\t// out\n        /* \"contracts/buy_back.sol\":9967:10333  function canExecuteBuyback(uint256 roboMoneyAmount) external view returns (bool) {... */\n    tag_62:\n        /* \"contracts/buy_back.sol\":10042:10046  bool */\n      0x00\n        /* \"contracts/buy_back.sol\":10059:10079  uint256 premiumPrice */\n      0x00\n        /* \"contracts/buy_back.sol\":10120:10123  100 */\n      0x64\n        /* \"contracts/buy_back.sol\":10104:10115  premiumRate */\n      sload(0x06)\n        /* \"contracts/buy_back.sol\":10098:10101  100 */\n      0x64\n        /* \"contracts/buy_back.sol\":10098:10115  100 + premiumRate */\n      tag_190\n      swap2\n      swap1\n      tag_153\n      jump\t// in\n    tag_190:\n        /* \"contracts/buy_back.sol\":10083:10094  targetPrice */\n      sload(0x07)\n        /* \"contracts/buy_back.sol\":10083:10116  targetPrice * (100 + premiumRate) */\n      tag_191\n      swap2\n      swap1\n      tag_155\n      jump\t// in\n    tag_191:\n        /* \"contracts/buy_back.sol\":10082:10123  (targetPrice * (100 + premiumRate)) / 100 */\n      tag_192\n      swap2\n      swap1\n      tag_157\n      jump\t// in\n    tag_192:\n        /* \"contracts/buy_back.sol\":10059:10123  uint256 premiumPrice = (targetPrice * (100 + premiumRate)) / 100 */\n      swap1\n      pop\n        /* \"contracts/buy_back.sol\":10134:10153  uint256 tokenAmount */\n      0x00\n        /* \"contracts/buy_back.sol\":10191:10195  1e18 */\n      0x0de0b6b3a7640000\n        /* \"contracts/buy_back.sol\":10157:10187  roboMoneyAmount * premiumPrice */\n      tag_193\n        /* \"contracts/buy_back.sol\":10059:10123  uint256 premiumPrice = (targetPrice * (100 + premiumRate)) / 100 */\n      dup4\n        /* \"contracts/buy_back.sol\":10157:10172  roboMoneyAmount */\n      dup7\n        /* \"contracts/buy_back.sol\":10157:10187  roboMoneyAmount * premiumPrice */\n      tag_155\n      jump\t// in\n    tag_193:\n        /* \"contracts/buy_back.sol\":10156:10195  (roboMoneyAmount * premiumPrice) / 1e18 */\n      tag_194\n      swap2\n      swap1\n      tag_157\n      jump\t// in\n    tag_194:\n        /* \"contracts/buy_back.sol\":10238:10250  paymentToken */\n      sload(0x03)\n        /* \"contracts/buy_back.sol\":10231:10276  IERC20(paymentToken).balanceOf(address(this)) */\n      mload(0x40)\n      shl(0xe0, 0x70a08231)\n      dup2\n      mstore\n        /* \"contracts/buy_back.sol\":10270:10274  this */\n      address\n        /* \"contracts/buy_back.sol\":10231:10276  IERC20(paymentToken).balanceOf(address(this)) */\n      0x04\n      dup3\n      add\n        /* \"#utility.yul\":345:396   */\n      mstore\n        /* \"contracts/buy_back.sol\":10134:10195  uint256 tokenAmount = (roboMoneyAmount * premiumPrice) / 1e18 */\n      swap2\n      swap3\n      pop\n        /* \"contracts/buy_back.sol\":10206:10228  uint256 currentBalance */\n      0x00\n      swap2\n      sub(shl(0xa0, 0x01), 0x01)\n        /* \"contracts/buy_back.sol\":10238:10250  paymentToken */\n      swap1\n      swap2\n      and\n      swap1\n        /* \"contracts/buy_back.sol\":10231:10261  IERC20(paymentToken).balanceOf */\n      0x70a08231\n      swap1\n        /* \"#utility.yul\":318:336   */\n      0x24\n      add\n        /* \"contracts/buy_back.sol\":10231:10276  IERC20(paymentToken).balanceOf(address(this)) */\n      0x20\n      mload(0x40)\n      dup1\n      dup4\n      sub\n      dup2\n      dup7\n      gas\n      staticcall\n      iszero\n      dup1\n      iszero\n      tag_197\n      jumpi\n      returndatacopy(0x00, 0x00, returndatasize)\n      revert(0x00, returndatasize)\n    tag_197:\n      pop\n      pop\n      pop\n      pop\n      mload(0x40)\n      returndatasize\n      not(0x1f)\n      0x1f\n      dup3\n      add\n      and\n      dup3\n      add\n      dup1\n      0x40\n      mstore\n      pop\n      dup2\n      add\n      swap1\n      tag_198\n      swap2\n      swap1\n      tag_106\n      jump\t// in\n    tag_198:\n        /* \"contracts/buy_back.sol\":10295:10324  currentBalance >= tokenAmount */\n      swap2\n      swap1\n      swap2\n      lt\n      iszero\n      swap5\n        /* \"contracts/buy_back.sol\":9967:10333  function canExecuteBuyback(uint256 roboMoneyAmount) external view returns (bool) {... */\n      swap4\n      pop\n      pop\n      pop\n      pop\n      jump\t// out\n        /* \"contracts/buy_back.sol\":4435:4498  function pause() external onlyOwner {... */\n    tag_65:\n        /* \"contracts/buy_back.sol\":4293:4298  owner */\n      and(sub(shl(0xa0, 0x01), 0x01), sload(0x02))\n        /* \"contracts/buy_back.sol\":4279:4289  msg.sender */\n      caller\n        /* \"contracts/buy_back.sol\":4279:4298  msg.sender == owner */\n      eq\n        /* \"contracts/buy_back.sol\":4271:4317  require(msg.sender == owner, \"Not authorized\") */\n      tag_200\n      jumpi\n      mload(0x40)\n      shl(0xe5, 0x461bcd)\n      dup2\n      mstore\n      0x04\n      add\n      tag_96\n      swap1\n      tag_97\n      jump\t// in\n    tag_200:\n        /* \"contracts/buy_back.sol\":4482:4490  _pause() */\n      tag_123\n        /* \"contracts/buy_back.sol\":4482:4488  _pause */\n      tag_204\n        /* \"contracts/buy_back.sol\":4482:4490  _pause() */\n      jump\t// in\n        /* \"contracts/buy_back.sol\":7566:7858  function depositPaymentToken(uint256 amount) external onlyOwner whenNotPaused {... */\n    tag_71:\n        /* \"contracts/buy_back.sol\":4293:4298  owner */\n      and(sub(shl(0xa0, 0x01), 0x01), sload(0x02))\n        /* \"contracts/buy_back.sol\":4279:4289  msg.sender */\n      caller\n        /* \"contracts/buy_back.sol\":4279:4298  msg.sender == owner */\n      eq\n        /* \"contracts/buy_back.sol\":4271:4317  require(msg.sender == owner, \"Not authorized\") */\n      tag_206\n      jumpi\n      mload(0x40)\n      shl(0xe5, 0x461bcd)\n      dup2\n      mstore\n      0x04\n      add\n      tag_96\n      swap1\n      tag_97\n      jump\t// in\n    tag_206:\n        /* \"contracts/buy_back.sol\":919:923  bool */\n      0x00\n        /* \"contracts/buy_back.sol\":943:950  _paused */\n      sload\n      0xff\n      and\n        /* \"contracts/buy_back.sol\":1010:1019  !paused() */\n      iszero\n        /* \"contracts/buy_back.sol\":1002:1040  require(!paused(), \"Pausable: paused\") */\n      tag_210\n      jumpi\n      mload(0x40)\n      shl(0xe5, 0x461bcd)\n      dup2\n      mstore\n      0x04\n      add\n      tag_96\n      swap1\n      tag_134\n      jump\t// in\n    tag_210:\n        /* \"contracts/buy_back.sol\":7672:7673  0 */\n      0x00\n        /* \"contracts/buy_back.sol\":7663:7669  amount */\n      dup2\n        /* \"contracts/buy_back.sol\":7663:7673  amount > 0 */\n      gt\n        /* \"contracts/buy_back.sol\":7655:7697  require(amount > 0, \"Deposit must be > 0\") */\n      tag_213\n      jumpi\n      mload(0x40)\n      shl(0xe5, 0x461bcd)\n      dup2\n      mstore\n        /* \"#utility.yul\":6592:6594   */\n      0x20\n        /* \"contracts/buy_back.sol\":7655:7697  require(amount > 0, \"Deposit must be > 0\") */\n      0x04\n      dup3\n      add\n        /* \"#utility.yul\":6574:6595   */\n      mstore\n        /* \"#utility.yul\":6631:6633   */\n      0x13\n        /* \"#utility.yul\":6611:6629   */\n      0x24\n      dup3\n      add\n        /* \"#utility.yul\":6604:6634   */\n      mstore\n      shl(0x6c, 0x04465706f736974206d757374206265203e203)\n        /* \"#utility.yul\":6650:6668   */\n      0x44\n      dup3\n      add\n        /* \"#utility.yul\":6643:6692   */\n      mstore\n        /* \"#utility.yul\":6709:6727   */\n      0x64\n      add\n        /* \"contracts/buy_back.sol\":7655:7697  require(amount > 0, \"Deposit must be > 0\") */\n      tag_96\n        /* \"#utility.yul\":6390:6733   */\n      jump\n        /* \"contracts/buy_back.sol\":7655:7697  require(amount > 0, \"Deposit must be > 0\") */\n    tag_213:\n        /* \"contracts/buy_back.sol\":7730:7742  paymentToken */\n      sload(0x03)\n        /* \"contracts/buy_back.sol\":7723:7791  IERC20(paymentToken).transferFrom(msg.sender, address(this), amount) */\n      mload(0x40)\n      shl(0xe0, 0x23b872dd)\n      dup2\n      mstore\n        /* \"contracts/buy_back.sol\":7757:7767  msg.sender */\n      caller\n        /* \"contracts/buy_back.sol\":7723:7791  IERC20(paymentToken).transferFrom(msg.sender, address(this), amount) */\n      0x04\n      dup3\n      add\n        /* \"#utility.yul\":6940:6991   */\n      mstore\n        /* \"contracts/buy_back.sol\":7777:7781  this */\n      address\n        /* \"#utility.yul\":7007:7025   */\n      0x24\n      dup3\n      add\n        /* \"#utility.yul\":7000:7060   */\n      mstore\n        /* \"#utility.yul\":7076:7094   */\n      0x44\n      dup2\n      add\n        /* \"#utility.yul\":7069:7103   */\n      dup4\n      swap1\n      mstore\n        /* \"contracts/buy_back.sol\":7708:7720  bool success */\n      0x00\n      swap2\n      sub(shl(0xa0, 0x01), 0x01)\n        /* \"contracts/buy_back.sol\":7730:7742  paymentToken */\n      and\n      swap1\n        /* \"contracts/buy_back.sol\":7723:7756  IERC20(paymentToken).transferFrom */\n      0x23b872dd\n      swap1\n        /* \"#utility.yul\":6913:6931   */\n      0x64\n      add\n        /* \"contracts/buy_back.sol\":7723:7791  IERC20(paymentToken).transferFrom(msg.sender, address(this), amount) */\n      0x20\n      mload(0x40)\n      dup1\n      dup4\n      sub\n      dup2\n      0x00\n      dup8\n      gas\n      call\n      iszero\n      dup1\n      iszero\n      tag_219\n      jumpi\n      returndatacopy(0x00, 0x00, returndatasize)\n      revert(0x00, returndatasize)\n    tag_219:\n      pop\n      pop\n      pop\n      pop\n      mload(0x40)\n      returndatasize\n      not(0x1f)\n      0x1f\n      dup3\n      add\n      and\n      dup3\n      add\n      dup1\n      0x40\n      mstore\n      pop\n      dup2\n      add\n      swap1\n      tag_220\n      swap2\n      swap1\n      tag_115\n      jump\t// in\n    tag_220:\n        /* \"contracts/buy_back.sol\":7708:7791  bool success = IERC20(paymentToken).transferFrom(msg.sender, address(this), amount) */\n      swap1\n      pop\n        /* \"contracts/buy_back.sol\":7810:7817  success */\n      dup1\n        /* \"contracts/buy_back.sol\":7802:7850  require(success, \"Payment token deposit failed\") */\n      tag_221\n      jumpi\n      mload(0x40)\n      shl(0xe5, 0x461bcd)\n      dup2\n      mstore\n        /* \"#utility.yul\":7316:7318   */\n      0x20\n        /* \"contracts/buy_back.sol\":7802:7850  require(success, \"Payment token deposit failed\") */\n      0x04\n      dup3\n      add\n        /* \"#utility.yul\":7298:7319   */\n      mstore\n        /* \"#utility.yul\":7355:7357   */\n      0x1c\n        /* \"#utility.yul\":7335:7353   */\n      0x24\n      dup3\n      add\n        /* \"#utility.yul\":7328:7358   */\n      mstore\n        /* \"#utility.yul\":7394:7424   */\n      0x5061796d656e7420746f6b656e206465706f736974206661696c656400000000\n        /* \"#utility.yul\":7374:7392   */\n      0x44\n      dup3\n      add\n        /* \"#utility.yul\":7367:7425   */\n      mstore\n        /* \"#utility.yul\":7442:7460   */\n      0x64\n      add\n        /* \"contracts/buy_back.sol\":7802:7850  require(success, \"Payment token deposit failed\") */\n      tag_96\n        /* \"#utility.yul\":7114:7466   */\n      jump\n        /* \"contracts/buy_back.sol\":7802:7850  require(success, \"Payment token deposit failed\") */\n    tag_221:\n        /* \"contracts/buy_back.sol\":7644:7858  {... */\n      pop\n        /* \"contracts/buy_back.sol\":7566:7858  function depositPaymentToken(uint256 amount) external onlyOwner whenNotPaused {... */\n      pop\n      jump\t// out\n        /* \"contracts/buy_back.sol\":9057:9192  function contractTokenBalance() external view returns (uint256) {... */\n    tag_73:\n        /* \"contracts/buy_back.sol\":9146:9158  paymentToken */\n      sload(0x03)\n        /* \"contracts/buy_back.sol\":9139:9184  IERC20(paymentToken).balanceOf(address(this)) */\n      mload(0x40)\n      shl(0xe0, 0x70a08231)\n      dup2\n      mstore\n        /* \"contracts/buy_back.sol\":9178:9182  this */\n      address\n        /* \"contracts/buy_back.sol\":9139:9184  IERC20(paymentToken).balanceOf(address(this)) */\n      0x04\n      dup3\n      add\n        /* \"#utility.yul\":345:396   */\n      mstore\n        /* \"contracts/buy_back.sol\":9112:9119  uint256 */\n      0x00\n      swap2\n      sub(shl(0xa0, 0x01), 0x01)\n        /* \"contracts/buy_back.sol\":9146:9158  paymentToken */\n      and\n      swap1\n        /* \"contracts/buy_back.sol\":9139:9169  IERC20(paymentToken).balanceOf */\n      0x70a08231\n      swap1\n        /* \"#utility.yul\":318:336   */\n      0x24\n      add\n        /* \"contracts/buy_back.sol\":9139:9184  IERC20(paymentToken).balanceOf(address(this)) */\n      0x20\n      mload(0x40)\n      dup1\n      dup4\n      sub\n      dup2\n      dup7\n      gas\n      staticcall\n      iszero\n      dup1\n      iszero\n      tag_227\n      jumpi\n      returndatacopy(0x00, 0x00, returndatasize)\n      revert(0x00, returndatasize)\n    tag_227:\n      pop\n      pop\n      pop\n      pop\n      mload(0x40)\n      returndatasize\n      not(0x1f)\n      0x1f\n      dup3\n      add\n      and\n      dup3\n      add\n      dup1\n      0x40\n      mstore\n      pop\n      dup2\n      add\n      swap1\n      tag_228\n      swap2\n      swap1\n      tag_106\n      jump\t// in\n    tag_228:\n        /* \"contracts/buy_back.sol\":9132:9184  return IERC20(paymentToken).balanceOf(address(this)) */\n      swap1\n      pop\n        /* \"contracts/buy_back.sol\":9057:9192  function contractTokenBalance() external view returns (uint256) {... */\n      swap1\n      jump\t// out\n        /* \"contracts/buy_back.sol\":8114:8321  function setTaxRate(uint256 _newTaxRate) external onlyOwner {... */\n    tag_77:\n        /* \"contracts/buy_back.sol\":4293:4298  owner */\n      and(sub(shl(0xa0, 0x01), 0x01), sload(0x02))\n        /* \"contracts/buy_back.sol\":4279:4289  msg.sender */\n      caller\n        /* \"contracts/buy_back.sol\":4279:4298  msg.sender == owner */\n      eq\n        /* \"contracts/buy_back.sol\":4271:4317  require(msg.sender == owner, \"Not authorized\") */\n      tag_230\n      jumpi\n      mload(0x40)\n      shl(0xe5, 0x461bcd)\n      dup2\n      mstore\n      0x04\n      add\n      tag_96\n      swap1\n      tag_97\n      jump\t// in\n    tag_230:\n        /* \"contracts/buy_back.sol\":8208:8212  1000 */\n      0x03e8\n        /* \"contracts/buy_back.sol\":8193:8204  _newTaxRate */\n      dup2\n        /* \"contracts/buy_back.sol\":8193:8212  _newTaxRate <= 1000 */\n      gt\n      iszero\n        /* \"contracts/buy_back.sol\":8185:8229  require(_newTaxRate <= 1000, \"Tax too high\") */\n      tag_233\n      jumpi\n      mload(0x40)\n      shl(0xe5, 0x461bcd)\n      dup2\n      mstore\n        /* \"#utility.yul\":7673:7675   */\n      0x20\n        /* \"contracts/buy_back.sol\":8185:8229  require(_newTaxRate <= 1000, \"Tax too high\") */\n      0x04\n      dup3\n      add\n        /* \"#utility.yul\":7655:7676   */\n      mstore\n        /* \"#utility.yul\":7712:7714   */\n      0x0c\n        /* \"#utility.yul\":7692:7710   */\n      0x24\n      dup3\n      add\n        /* \"#utility.yul\":7685:7715   */\n      mstore\n      shl(0xa3, 0x0a8c2f040e8dede40d0d2ced)\n        /* \"#utility.yul\":7731:7749   */\n      0x44\n      dup3\n      add\n        /* \"#utility.yul\":7724:7766   */\n      mstore\n        /* \"#utility.yul\":7783:7801   */\n      0x64\n      add\n        /* \"contracts/buy_back.sol\":8185:8229  require(_newTaxRate <= 1000, \"Tax too high\") */\n      tag_96\n        /* \"#utility.yul\":7471:7807   */\n      jump\n        /* \"contracts/buy_back.sol\":8185:8229  require(_newTaxRate <= 1000, \"Tax too high\") */\n    tag_233:\n        /* \"contracts/buy_back.sol\":8260:8267  taxRate */\n      sload(0x08)\n        /* \"contracts/buy_back.sol\":8245:8281  TaxRateUpdated(taxRate, _newTaxRate) */\n      0x40\n      dup1\n      mload\n        /* \"#utility.yul\":5962:5987   */\n      swap2\n      dup3\n      mstore\n        /* \"#utility.yul\":6018:6020   */\n      0x20\n        /* \"#utility.yul\":6003:6021   */\n      dup3\n      add\n        /* \"#utility.yul\":5996:6030   */\n      dup4\n      swap1\n      mstore\n        /* \"contracts/buy_back.sol\":8245:8281  TaxRateUpdated(taxRate, _newTaxRate) */\n      0xa8ee157eb2a9aa895d74df4d2d3bc0ad165ff3162f8ec46a4ecf602dd5c48fda\n      swap2\n        /* \"#utility.yul\":5935:5953   */\n      add\n        /* \"contracts/buy_back.sol\":8245:8281  TaxRateUpdated(taxRate, _newTaxRate) */\n      mload(0x40)\n      dup1\n      swap2\n      sub\n      swap1\n      log1\n        /* \"contracts/buy_back.sol\":8292:8299  taxRate */\n      0x08\n        /* \"contracts/buy_back.sol\":8292:8313  taxRate = _newTaxRate */\n      sstore\n        /* \"contracts/buy_back.sol\":8114:8321  function setTaxRate(uint256 _newTaxRate) external onlyOwner {... */\n      jump\t// out\n        /* \"contracts/buy_back.sol\":9367:9809  function maxBuyableRoboMoney() external view returns (uint256) {... */\n    tag_79:\n        /* \"contracts/buy_back.sol\":9473:9485  paymentToken */\n      sload(0x03)\n        /* \"contracts/buy_back.sol\":9466:9511  IERC20(paymentToken).balanceOf(address(this)) */\n      mload(0x40)\n      shl(0xe0, 0x70a08231)\n      dup2\n      mstore\n        /* \"contracts/buy_back.sol\":9505:9509  this */\n      address\n        /* \"contracts/buy_back.sol\":9466:9511  IERC20(paymentToken).balanceOf(address(this)) */\n      0x04\n      dup3\n      add\n        /* \"#utility.yul\":345:396   */\n      mstore\n        /* \"contracts/buy_back.sol\":9421:9428  uint256 */\n      0x00\n      swap2\n      dup3\n      swap2\n      sub(shl(0xa0, 0x01), 0x01)\n        /* \"contracts/buy_back.sol\":9473:9485  paymentToken */\n      swap1\n      swap2\n      and\n      swap1\n        /* \"contracts/buy_back.sol\":9466:9496  IERC20(paymentToken).balanceOf */\n      0x70a08231\n      swap1\n        /* \"#utility.yul\":318:336   */\n      0x24\n      add\n        /* \"contracts/buy_back.sol\":9466:9511  IERC20(paymentToken).balanceOf(address(this)) */\n      0x20\n      mload(0x40)\n      dup1\n      dup4\n      sub\n      dup2\n      dup7\n      gas\n      staticcall\n      iszero\n      dup1\n      iszero\n      tag_240\n      jumpi\n      returndatacopy(0x00, 0x00, returndatasize)\n      revert(0x00, returndatasize)\n    tag_240:\n      pop\n      pop\n      pop\n      pop\n      mload(0x40)\n      returndatasize\n      not(0x1f)\n      0x1f\n      dup3\n      add\n      and\n      dup3\n      add\n      dup1\n      0x40\n      mstore\n      pop\n      dup2\n      add\n      swap1\n      tag_241\n      swap2\n      swap1\n      tag_106\n      jump\t// in\n    tag_241:\n        /* \"contracts/buy_back.sol\":9441:9511  uint256 currentBalance = IERC20(paymentToken).balanceOf(address(this)) */\n      swap1\n      pop\n        /* \"contracts/buy_back.sol\":9522:9542  uint256 premiumPrice */\n      0x00\n        /* \"contracts/buy_back.sol\":9583:9586  100 */\n      0x64\n        /* \"contracts/buy_back.sol\":9567:9578  premiumRate */\n      sload(0x06)\n        /* \"contracts/buy_back.sol\":9561:9564  100 */\n      0x64\n        /* \"contracts/buy_back.sol\":9561:9578  100 + premiumRate */\n      tag_242\n      swap2\n      swap1\n      tag_153\n      jump\t// in\n    tag_242:\n        /* \"contracts/buy_back.sol\":9546:9557  targetPrice */\n      sload(0x07)\n        /* \"contracts/buy_back.sol\":9546:9579  targetPrice * (100 + premiumRate) */\n      tag_243\n      swap2\n      swap1\n      tag_155\n      jump\t// in\n    tag_243:\n        /* \"contracts/buy_back.sol\":9545:9586  (targetPrice * (100 + premiumRate)) / 100 */\n      tag_244\n      swap2\n      swap1\n      tag_157\n      jump\t// in\n    tag_244:\n        /* \"contracts/buy_back.sol\":9522:9586  uint256 premiumPrice = (targetPrice * (100 + premiumRate)) / 100 */\n      swap1\n      pop\n        /* \"contracts/buy_back.sol\":9603:9615  premiumPrice */\n      dup1\n        /* \"contracts/buy_back.sol\":9619:9620  0 */\n      0x00\n        /* \"contracts/buy_back.sol\":9603:9620  premiumPrice == 0 */\n      sub\n        /* \"contracts/buy_back.sol\":9599:9657  if (premiumPrice == 0) {... */\n      tag_245\n      jumpi\n        /* \"contracts/buy_back.sol\":9644:9645  0 */\n      0x00\n        /* \"contracts/buy_back.sol\":9637:9645  return 0 */\n      swap3\n      pop\n      pop\n      pop\n        /* \"contracts/buy_back.sol\":9367:9809  function maxBuyableRoboMoney() external view returns (uint256) {... */\n      swap1\n      jump\t// out\n        /* \"contracts/buy_back.sol\":9599:9657  if (premiumPrice == 0) {... */\n    tag_245:\n        /* \"contracts/buy_back.sol\":9789:9801  premiumPrice */\n      dup1\n        /* \"contracts/buy_back.sol\":9764:9785  currentBalance * 1e18 */\n      tag_246\n        /* \"contracts/buy_back.sol\":9764:9778  currentBalance */\n      dup4\n        /* \"contracts/buy_back.sol\":9781:9785  1e18 */\n      0x0de0b6b3a7640000\n        /* \"contracts/buy_back.sol\":9764:9785  currentBalance * 1e18 */\n      tag_155\n      jump\t// in\n    tag_246:\n        /* \"contracts/buy_back.sol\":9763:9801  (currentBalance * 1e18) / premiumPrice */\n      tag_247\n      swap2\n      swap1\n      tag_157\n      jump\t// in\n    tag_247:\n        /* \"contracts/buy_back.sol\":9756:9801  return (currentBalance * 1e18) / premiumPrice */\n      swap3\n      pop\n      pop\n      pop\n        /* \"contracts/buy_back.sol\":9367:9809  function maxBuyableRoboMoney() external view returns (uint256) {... */\n      swap1\n      jump\t// out\n        /* \"contracts/buy_back.sol\":7866:8106  function setGasReserve(address _newGasReserve) external onlyOwner {... */\n    tag_84:\n        /* \"contracts/buy_back.sol\":4293:4298  owner */\n      and(sub(shl(0xa0, 0x01), 0x01), sload(0x02))\n        /* \"contracts/buy_back.sol\":4279:4289  msg.sender */\n      caller\n        /* \"contracts/buy_back.sol\":4279:4298  msg.sender == owner */\n      eq\n        /* \"contracts/buy_back.sol\":4271:4317  require(msg.sender == owner, \"Not authorized\") */\n      tag_249\n      jumpi\n      mload(0x40)\n      shl(0xe5, 0x461bcd)\n      dup2\n      mstore\n      0x04\n      add\n      tag_96\n      swap1\n      tag_97\n      jump\t// in\n    tag_249:\n      sub(shl(0xa0, 0x01), 0x01)\n        /* \"contracts/buy_back.sol\":7951:7979  _newGasReserve != address(0) */\n      dup2\n      and\n        /* \"contracts/buy_back.sol\":7943:7999  require(_newGasReserve != address(0), \"Invalid address\") */\n      tag_252\n      jumpi\n      mload(0x40)\n      shl(0xe5, 0x461bcd)\n      dup2\n      mstore\n        /* \"#utility.yul\":8014:8016   */\n      0x20\n        /* \"contracts/buy_back.sol\":7943:7999  require(_newGasReserve != address(0), \"Invalid address\") */\n      0x04\n      dup3\n      add\n        /* \"#utility.yul\":7996:8017   */\n      mstore\n        /* \"#utility.yul\":8053:8055   */\n      0x0f\n        /* \"#utility.yul\":8033:8051   */\n      0x24\n      dup3\n      add\n        /* \"#utility.yul\":8026:8056   */\n      mstore\n      shl(0x88, 0x496e76616c69642061646472657373)\n        /* \"#utility.yul\":8072:8090   */\n      0x44\n      dup3\n      add\n        /* \"#utility.yul\":8065:8110   */\n      mstore\n        /* \"#utility.yul\":8127:8145   */\n      0x64\n      add\n        /* \"contracts/buy_back.sol\":7943:7999  require(_newGasReserve != address(0), \"Invalid address\") */\n      tag_96\n        /* \"#utility.yul\":7812:8151   */\n      jump\n        /* \"contracts/buy_back.sol\":7943:7999  require(_newGasReserve != address(0), \"Invalid address\") */\n    tag_252:\n        /* \"contracts/buy_back.sol\":8033:8043  gasReserve */\n      sload(0x05)\n        /* \"contracts/buy_back.sol\":8015:8060  GasReserveUpdated(gasReserve, _newGasReserve) */\n      mload(0x40)\n      sub(shl(0xa0, 0x01), 0x01)\n      dup1\n      dup5\n      and\n      swap3\n        /* \"contracts/buy_back.sol\":8033:8043  gasReserve */\n      and\n      swap1\n        /* \"contracts/buy_back.sol\":8015:8060  GasReserveUpdated(gasReserve, _newGasReserve) */\n      0xb4281bb17cdc594e3cf6d419da95f70a6b02d856b26438d381ee1246a8e89f12\n      swap1\n        /* \"contracts/buy_back.sol\":8033:8043  gasReserve */\n      0x00\n      swap1\n        /* \"contracts/buy_back.sol\":8015:8060  GasReserveUpdated(gasReserve, _newGasReserve) */\n      log3\n        /* \"contracts/buy_back.sol\":8071:8081  gasReserve */\n      0x05\n        /* \"contracts/buy_back.sol\":8071:8098  gasReserve = _newGasReserve */\n      dup1\n      sload\n      not(sub(shl(0xa0, 0x01), 0x01))\n      and\n      sub(shl(0xa0, 0x01), 0x01)\n      swap3\n      swap1\n      swap3\n      and\n      swap2\n      swap1\n      swap2\n      or\n      swap1\n      sstore\n        /* \"contracts/buy_back.sol\":7866:8106  function setGasReserve(address _newGasReserve) external onlyOwner {... */\n      jump\t// out\n        /* \"contracts/buy_back.sol\":5261:5491  function transferOwnership(address newOwner) external onlyOwner {... */\n    tag_93:\n        /* \"contracts/buy_back.sol\":4293:4298  owner */\n      and(sub(shl(0xa0, 0x01), 0x01), sload(0x02))\n        /* \"contracts/buy_back.sol\":4279:4289  msg.sender */\n      caller\n        /* \"contracts/buy_back.sol\":4279:4298  msg.sender == owner */\n      eq\n        /* \"contracts/buy_back.sol\":4271:4317  require(msg.sender == owner, \"Not authorized\") */\n      tag_256\n      jumpi\n      mload(0x40)\n      shl(0xe5, 0x461bcd)\n      dup2\n      mstore\n      0x04\n      add\n      tag_96\n      swap1\n      tag_97\n      jump\t// in\n    tag_256:\n      sub(shl(0xa0, 0x01), 0x01)\n        /* \"contracts/buy_back.sol\":5344:5366  newOwner != address(0) */\n      dup2\n      and\n        /* \"contracts/buy_back.sol\":5336:5403  require(newOwner != address(0), \"New owner cannot be zero address\") */\n      tag_259\n      jumpi\n      mload(0x40)\n      shl(0xe5, 0x461bcd)\n      dup2\n      mstore\n        /* \"#utility.yul\":8358:8360   */\n      0x20\n        /* \"contracts/buy_back.sol\":5336:5403  require(newOwner != address(0), \"New owner cannot be zero address\") */\n      0x04\n      dup3\n      add\n        /* \"#utility.yul\":8340:8361   */\n      dup2\n      swap1\n      mstore\n        /* \"#utility.yul\":8377:8395   */\n      0x24\n      dup3\n      add\n        /* \"#utility.yul\":8370:8400   */\n      mstore\n        /* \"#utility.yul\":8436:8470   */\n      0x4e6577206f776e65722063616e6e6f74206265207a65726f2061646472657373\n        /* \"#utility.yul\":8416:8434   */\n      0x44\n      dup3\n      add\n        /* \"#utility.yul\":8409:8471   */\n      mstore\n        /* \"#utility.yul\":8488:8506   */\n      0x64\n      add\n        /* \"contracts/buy_back.sol\":5336:5403  require(newOwner != address(0), \"New owner cannot be zero address\") */\n      tag_96\n        /* \"#utility.yul\":8156:8512   */\n      jump\n        /* \"contracts/buy_back.sol\":5336:5403  require(newOwner != address(0), \"New owner cannot be zero address\") */\n    tag_259:\n        /* \"contracts/buy_back.sol\":5440:5445  owner */\n      sload(0x02)\n        /* \"contracts/buy_back.sol\":5419:5456  OwnershipTransferred(owner, newOwner) */\n      mload(0x40)\n      sub(shl(0xa0, 0x01), 0x01)\n      dup1\n      dup5\n      and\n      swap3\n        /* \"contracts/buy_back.sol\":5440:5445  owner */\n      and\n      swap1\n        /* \"contracts/buy_back.sol\":5419:5456  OwnershipTransferred(owner, newOwner) */\n      0x8be0079c531659141344cd1fd0a4f28419497f9722a3daafe3b4186f6b6457e0\n      swap1\n        /* \"contracts/buy_back.sol\":5440:5445  owner */\n      0x00\n      swap1\n        /* \"contracts/buy_back.sol\":5419:5456  OwnershipTransferred(owner, newOwner) */\n      log3\n        /* \"contracts/buy_back.sol\":5467:5472  owner */\n      0x02\n        /* \"contracts/buy_back.sol\":5467:5483  owner = newOwner */\n      dup1\n      sload\n      not(sub(shl(0xa0, 0x01), 0x01))\n      and\n      sub(shl(0xa0, 0x01), 0x01)\n      swap3\n      swap1\n      swap3\n      and\n      swap2\n      swap1\n      swap2\n      or\n      swap1\n      sstore\n        /* \"contracts/buy_back.sol\":5261:5491  function transferOwnership(address newOwner) external onlyOwner {... */\n      jump\t// out\n        /* \"contracts/buy_back.sol\":1294:1412  function _unpause() internal virtual whenPaused {... */\n    tag_124:\n        /* \"contracts/buy_back.sol\":919:923  bool */\n      0x00\n        /* \"contracts/buy_back.sol\":943:950  _paused */\n      sload\n      0xff\n      and\n        /* \"contracts/buy_back.sol\":1101:1142  require(paused(), \"Pausable: not paused\") */\n      tag_264\n      jumpi\n      mload(0x40)\n      shl(0xe5, 0x461bcd)\n      dup2\n      mstore\n        /* \"#utility.yul\":8719:8721   */\n      0x20\n        /* \"contracts/buy_back.sol\":1101:1142  require(paused(), \"Pausable: not paused\") */\n      0x04\n      dup3\n      add\n        /* \"#utility.yul\":8701:8722   */\n      mstore\n        /* \"#utility.yul\":8758:8760   */\n      0x14\n        /* \"#utility.yul\":8738:8756   */\n      0x24\n      dup3\n      add\n        /* \"#utility.yul\":8731:8761   */\n      mstore\n      shl(0x62, 0x14185d5cd8589b194e881b9bdd081c185d5cd959)\n        /* \"#utility.yul\":8777:8795   */\n      0x44\n      dup3\n      add\n        /* \"#utility.yul\":8770:8820   */\n      mstore\n        /* \"#utility.yul\":8837:8855   */\n      0x64\n      add\n        /* \"contracts/buy_back.sol\":1101:1142  require(paused(), \"Pausable: not paused\") */\n      tag_96\n        /* \"#utility.yul\":8517:8861   */\n      jump\n        /* \"contracts/buy_back.sol\":1101:1142  require(paused(), \"Pausable: not paused\") */\n    tag_264:\n        /* \"contracts/buy_back.sol\":1363:1368  false */\n      0x00\n        /* \"contracts/buy_back.sol\":1353:1368  _paused = false */\n      dup1\n      sload\n      not(0xff)\n      and\n      swap1\n      sstore\n        /* \"contracts/buy_back.sol\":1384:1404  Unpaused(msg.sender) */\n      mload(0x40)\n        /* \"contracts/buy_back.sol\":1393:1403  msg.sender */\n      caller\n        /* \"#utility.yul\":345:396   */\n      dup2\n      mstore\n        /* \"contracts/buy_back.sol\":1384:1404  Unpaused(msg.sender) */\n      0x5db9ee0a495bf2e6ff9c91a7834c1ba4fdd244a5e8aa4e537bd38aeae4b073aa\n      swap1\n        /* \"#utility.yul\":333:335   */\n      0x20\n        /* \"#utility.yul\":318:336   */\n      add\n        /* \"contracts/buy_back.sol\":1384:1404  Unpaused(msg.sender) */\n    tag_268:\n      mload(0x40)\n      dup1\n      swap2\n      sub\n      swap1\n      log1\n        /* \"contracts/buy_back.sol\":1294:1412  function _unpause() internal virtual whenPaused {... */\n      jump\t// out\n        /* \"@openzeppelin/contracts/security/ReentrancyGuard.sol\":2336:2623  function _nonReentrantBefore() private {... */\n    tag_137:\n        /* \"@openzeppelin/contracts/security/ReentrancyGuard.sol\":1759:1760  2 */\n      0x02\n        /* \"@openzeppelin/contracts/security/ReentrancyGuard.sol\":2468:2475  _status */\n      sload(0x01)\n        /* \"@openzeppelin/contracts/security/ReentrancyGuard.sol\":2468:2487  _status != _ENTERED */\n      sub\n        /* \"@openzeppelin/contracts/security/ReentrancyGuard.sol\":2460:2523  require(_status != _ENTERED, \"ReentrancyGuard: reentrant call\") */\n      tag_270\n      jumpi\n      mload(0x40)\n      shl(0xe5, 0x461bcd)\n      dup2\n      mstore\n        /* \"#utility.yul\":9068:9070   */\n      0x20\n        /* \"@openzeppelin/contracts/security/ReentrancyGuard.sol\":2460:2523  require(_status != _ENTERED, \"ReentrancyGuard: reentrant call\") */\n      0x04\n      dup3\n      add\n        /* \"#utility.yul\":9050:9071   */\n      mstore\n        /* \"#utility.yul\":9107:9109   */\n      0x1f\n        /* \"#utility.yul\":9087:9105   */\n      0x24\n      dup3\n      add\n        /* \"#utility.yul\":9080:9110   */\n      mstore\n        /* \"#utility.yul\":9146:9179   */\n      0x5265656e7472616e637947756172643a207265656e7472616e742063616c6c00\n        /* \"#utility.yul\":9126:9144   */\n      0x44\n      dup3\n      add\n        /* \"#utility.yul\":9119:9180   */\n      mstore\n        /* \"#utility.yul\":9197:9215   */\n      0x64\n      add\n        /* \"@openzeppelin/contracts/security/ReentrancyGuard.sol\":2460:2523  require(_status != _ENTERED, \"ReentrancyGuard: reentrant call\") */\n      tag_96\n        /* \"#utility.yul\":8866:9221   */\n      jump\n        /* \"@openzeppelin/contracts/security/ReentrancyGuard.sol\":2460:2523  require(_status != _ENTERED, \"ReentrancyGuard: reentrant call\") */\n    tag_270:\n        /* \"@openzeppelin/contracts/security/ReentrancyGuard.sol\":1759:1760  2 */\n      0x02\n        /* \"@openzeppelin/contracts/security/ReentrancyGuard.sol\":2598:2605  _status */\n      0x01\n        /* \"@openzeppelin/contracts/security/ReentrancyGuard.sol\":2598:2616  _status = _ENTERED */\n      sstore\n        /* \"@openzeppelin/contracts/security/ReentrancyGuard.sol\":2336:2623  function _nonReentrantBefore() private {... */\n      jump\t// out\n        /* \"@openzeppelin/contracts/token/ERC20/utils/SafeERC20.sol\":1670:1858  function safeTransferFrom(IERC20 token, address from, address to, uint256 value) internal {... */\n    tag_151:\n        /* \"@openzeppelin/contracts/token/ERC20/utils/SafeERC20.sol\":1797:1850  abi.encodeCall(token.transferFrom, (from, to, value)) */\n      mload(0x40)\n      sub(shl(0xa0, 0x01), 0x01)\n        /* \"#utility.yul\":6958:6990   */\n      dup5\n      dup2\n      and\n        /* \"@openzeppelin/contracts/token/ERC20/utils/SafeERC20.sol\":1797:1850  abi.encodeCall(token.transferFrom, (from, to, value)) */\n      0x24\n      dup4\n      add\n        /* \"#utility.yul\":6940:6991   */\n      mstore\n        /* \"#utility.yul\":7027:7059   */\n      dup4\n      dup2\n      and\n        /* \"#utility.yul\":7007:7025   */\n      0x44\n      dup4\n      add\n        /* \"#utility.yul\":7000:7060   */\n      mstore\n        /* \"#utility.yul\":7076:7094   */\n      0x64\n      dup3\n      add\n        /* \"#utility.yul\":7069:7103   */\n      dup4\n      swap1\n      mstore\n        /* \"@openzeppelin/contracts/token/ERC20/utils/SafeERC20.sol\":1770:1851  _callOptionalReturn(token, abi.encodeCall(token.transferFrom, (from, to, value))) */\n      tag_274\n      swap2\n        /* \"@openzeppelin/contracts/token/ERC20/utils/SafeERC20.sol\":1790:1795  token */\n      dup7\n      swap2\n        /* \"@openzeppelin/contracts/token/ERC20/utils/SafeERC20.sol\":1812:1830  token.transferFrom */\n      dup3\n      and\n      swap1\n      0x23b872dd\n      swap1\n        /* \"#utility.yul\":6913:6931   */\n      0x84\n      add\n        /* \"@openzeppelin/contracts/token/ERC20/utils/SafeERC20.sol\":1797:1850  abi.encodeCall(token.transferFrom, (from, to, value)) */\n    tag_275:\n      mload(0x40)\n      0x20\n      dup2\n      dup4\n      sub\n      sub\n      dup2\n      mstore\n      swap1\n      0x40\n      mstore\n      swap2\n      pop\n      0xe0\n      shl\n      0x20\n      dup3\n      add\n      dup1\n      mload\n      sub(shl(0xe0, 0x01), 0x01)\n      dup4\n      dup2\n      dup4\n      and\n      or\n      dup4\n      mstore\n      pop\n      pop\n      pop\n      pop\n        /* \"@openzeppelin/contracts/token/ERC20/utils/SafeERC20.sol\":1770:1789  _callOptionalReturn */\n      tag_276\n        /* \"@openzeppelin/contracts/token/ERC20/utils/SafeERC20.sol\":1770:1851  _callOptionalReturn(token, abi.encodeCall(token.transferFrom, (from, to, value))) */\n      jump\t// in\n    tag_274:\n        /* \"@openzeppelin/contracts/token/ERC20/utils/SafeERC20.sol\":1670:1858  function safeTransferFrom(IERC20 token, address from, address to, uint256 value) internal {... */\n      pop\n      pop\n      pop\n      pop\n      jump\t// out\n        /* \"@openzeppelin/contracts/token/ERC20/utils/SafeERC20.sol\":1271:1431  function safeTransfer(IERC20 token, address to, uint256 value) internal {... */\n    tag_172:\n        /* \"@openzeppelin/contracts/token/ERC20/utils/SafeERC20.sol\":1380:1423  abi.encodeCall(token.transfer, (to, value)) */\n      mload(0x40)\n      sub(shl(0xa0, 0x01), 0x01)\n        /* \"#utility.yul\":2503:2535   */\n      dup4\n      dup2\n      and\n        /* \"@openzeppelin/contracts/token/ERC20/utils/SafeERC20.sol\":1380:1423  abi.encodeCall(token.transfer, (to, value)) */\n      0x24\n      dup4\n      add\n        /* \"#utility.yul\":2485:2536   */\n      mstore\n        /* \"#utility.yul\":2552:2570   */\n      0x44\n      dup3\n      add\n        /* \"#utility.yul\":2545:2579   */\n      dup4\n      swap1\n      mstore\n        /* \"@openzeppelin/contracts/token/ERC20/utils/SafeERC20.sol\":1353:1424  _callOptionalReturn(token, abi.encodeCall(token.transfer, (to, value))) */\n      tag_116\n      swap2\n        /* \"@openzeppelin/contracts/token/ERC20/utils/SafeERC20.sol\":1373:1378  token */\n      dup6\n      swap2\n        /* \"@openzeppelin/contracts/token/ERC20/utils/SafeERC20.sol\":1395:1409  token.transfer */\n      dup3\n      and\n      swap1\n      0xa9059cbb\n      swap1\n        /* \"#utility.yul\":2458:2476   */\n      0x64\n      add\n        /* \"@openzeppelin/contracts/token/ERC20/utils/SafeERC20.sol\":1380:1423  abi.encodeCall(token.transfer, (to, value)) */\n      tag_275\n        /* \"#utility.yul\":2311:2585   */\n      jump\n        /* \"contracts/buy_back.sol\":1170:1286  function _pause() internal virtual whenNotPaused {... */\n    tag_204:\n        /* \"contracts/buy_back.sol\":919:923  bool */\n      0x00\n        /* \"contracts/buy_back.sol\":943:950  _paused */\n      sload\n      0xff\n      and\n        /* \"contracts/buy_back.sol\":1010:1019  !paused() */\n      iszero\n        /* \"contracts/buy_back.sol\":1002:1040  require(!paused(), \"Pausable: paused\") */\n      tag_283\n      jumpi\n      mload(0x40)\n      shl(0xe5, 0x461bcd)\n      dup2\n      mstore\n      0x04\n      add\n      tag_96\n      swap1\n      tag_134\n      jump\t// in\n    tag_283:\n        /* \"contracts/buy_back.sol\":1230:1237  _paused */\n      0x00\n        /* \"contracts/buy_back.sol\":1230:1244  _paused = true */\n      dup1\n      sload\n      not(0xff)\n      and\n        /* \"contracts/buy_back.sol\":1240:1244  true */\n      0x01\n        /* \"contracts/buy_back.sol\":1230:1244  _paused = true */\n      or\n      swap1\n      sstore\n        /* \"contracts/buy_back.sol\":1260:1278  Paused(msg.sender) */\n      mload(0x40)\n        /* \"contracts/buy_back.sol\":1267:1277  msg.sender */\n      caller\n        /* \"#utility.yul\":345:396   */\n      dup2\n      mstore\n        /* \"contracts/buy_back.sol\":1260:1278  Paused(msg.sender) */\n      0x62e78cea01bee320cd4e420270b5ea74000d11b0c9f74754ebdbfc544b05a258\n      swap1\n        /* \"#utility.yul\":333:335   */\n      0x20\n        /* \"#utility.yul\":318:336   */\n      add\n        /* \"contracts/buy_back.sol\":1260:1278  Paused(msg.sender) */\n      tag_268\n        /* \"#utility.yul\":199:402   */\n      jump\n        /* \"@openzeppelin/contracts/token/ERC20/utils/SafeERC20.sol\":7738:8458  function _callOptionalReturn(IERC20 token, bytes memory data) private {... */\n    tag_276:\n        /* \"@openzeppelin/contracts/token/ERC20/utils/SafeERC20.sol\":7818:7836  uint256 returnSize */\n      0x00\n        /* \"@openzeppelin/contracts/token/ERC20/utils/SafeERC20.sol\":7846:7865  uint256 returnValue */\n      0x00\n        /* \"@openzeppelin/contracts/token/ERC20/utils/SafeERC20.sol\":7984:7988  0x20 */\n      0x20\n        /* \"@openzeppelin/contracts/token/ERC20/utils/SafeERC20.sol\":7981:7982  0 */\n      0x00\n        /* \"@openzeppelin/contracts/token/ERC20/utils/SafeERC20.sol\":7974:7978  data */\n      dup5\n        /* \"@openzeppelin/contracts/token/ERC20/utils/SafeERC20.sol\":7968:7979  mload(data) */\n      mload\n        /* \"@openzeppelin/contracts/token/ERC20/utils/SafeERC20.sol\":7961:7965  0x20 */\n      0x20\n        /* \"@openzeppelin/contracts/token/ERC20/utils/SafeERC20.sol\":7955:7959  data */\n      dup7\n        /* \"@openzeppelin/contracts/token/ERC20/utils/SafeERC20.sol\":7951:7966  add(data, 0x20) */\n      add\n        /* \"@openzeppelin/contracts/token/ERC20/utils/SafeERC20.sol\":7948:7949  0 */\n      0x00\n        /* \"@openzeppelin/contracts/token/ERC20/utils/SafeERC20.sol\":7941:7946  token */\n      dup9\n        /* \"@openzeppelin/contracts/token/ERC20/utils/SafeERC20.sol\":7934:7939  gas() */\n      gas\n        /* \"@openzeppelin/contracts/token/ERC20/utils/SafeERC20.sol\":7929:7989  call(gas(), token, 0, add(data, 0x20), mload(data), 0, 0x20) */\n      call\n        /* \"@openzeppelin/contracts/token/ERC20/utils/SafeERC20.sol\":8041:8048  success */\n      dup1\n        /* \"@openzeppelin/contracts/token/ERC20/utils/SafeERC20.sol\":8031:8207  if iszero(success) {... */\n      tag_288\n      jumpi\n        /* \"@openzeppelin/contracts/token/ERC20/utils/SafeERC20.sol\":8085:8089  0x40 */\n      0x40\n        /* \"@openzeppelin/contracts/token/ERC20/utils/SafeERC20.sol\":8079:8090  mload(0x40) */\n      mload\n        /* \"@openzeppelin/contracts/token/ERC20/utils/SafeERC20.sol\":8130:8146  returndatasize() */\n      returndatasize\n        /* \"@openzeppelin/contracts/token/ERC20/utils/SafeERC20.sol\":8127:8128  0 */\n      0x00\n        /* \"@openzeppelin/contracts/token/ERC20/utils/SafeERC20.sol\":8122:8125  ptr */\n      dup3\n        /* \"@openzeppelin/contracts/token/ERC20/utils/SafeERC20.sol\":8107:8147  returndatacopy(ptr, 0, returndatasize()) */\n      returndatacopy\n        /* \"@openzeppelin/contracts/token/ERC20/utils/SafeERC20.sol\":8176:8192  returndatasize() */\n      returndatasize\n        /* \"@openzeppelin/contracts/token/ERC20/utils/SafeERC20.sol\":8171:8174  ptr */\n      dup2\n        /* \"@openzeppelin/contracts/token/ERC20/utils/SafeERC20.sol\":8164:8193  revert(ptr, returndatasize()) */\n      revert\n        /* \"@openzeppelin/contracts/token/ERC20/utils/SafeERC20.sol\":8031:8207  if iszero(success) {... */\n    tag_288:\n      pop\n      pop\n        /* \"@openzeppelin/contracts/token/ERC20/utils/SafeERC20.sol\":8284:8285  0 */\n      0x00\n        /* \"@openzeppelin/contracts/token/ERC20/utils/SafeERC20.sol\":8278:8286  mload(0) */\n      mload\n        /* \"@openzeppelin/contracts/token/ERC20/utils/SafeERC20.sol\":8234:8250  returndatasize() */\n      returndatasize\n      swap2\n      pop\n        /* \"@openzeppelin/contracts/token/ERC20/utils/SafeERC20.sol\":8310:8325  returnSize == 0 */\n      dup2\n      iszero\n        /* \"@openzeppelin/contracts/token/ERC20/utils/SafeERC20.sol\":8310:8378  returnSize == 0 ? address(token).code.length == 0 : returnValue != 1 */\n      tag_289\n      jumpi\n        /* \"@openzeppelin/contracts/token/ERC20/utils/SafeERC20.sol\":8362:8373  returnValue */\n      dup1\n        /* \"@openzeppelin/contracts/token/ERC20/utils/SafeERC20.sol\":8377:8378  1 */\n      0x01\n        /* \"@openzeppelin/contracts/token/ERC20/utils/SafeERC20.sol\":8362:8378  returnValue != 1 */\n      eq\n      iszero\n        /* \"@openzeppelin/contracts/token/ERC20/utils/SafeERC20.sol\":8310:8378  returnSize == 0 ? address(token).code.length == 0 : returnValue != 1 */\n      jump(tag_290)\n    tag_289:\n      sub(shl(0xa0, 0x01), 0x01)\n        /* \"@openzeppelin/contracts/token/ERC20/utils/SafeERC20.sol\":8328:8354  address(token).code.length */\n      dup5\n      and\n      extcodesize\n        /* \"@openzeppelin/contracts/token/ERC20/utils/SafeERC20.sol\":8328:8359  address(token).code.length == 0 */\n      iszero\n        /* \"@openzeppelin/contracts/token/ERC20/utils/SafeERC20.sol\":8310:8378  returnSize == 0 ? address(token).code.length == 0 : returnValue != 1 */\n    tag_290:\n        /* \"@openzeppelin/contracts/token/ERC20/utils/SafeERC20.sol\":8306:8452  if (returnSize == 0 ? address(token).code.length == 0 : returnValue != 1) {... */\n      iszero\n      tag_274\n      jumpi\n        /* \"@openzeppelin/contracts/token/ERC20/utils/SafeERC20.sol\":8401:8441  SafeERC20FailedOperation(address(token)) */\n      mload(0x40)\n      shl(0xe0, 0x5274afe7)\n      dup2\n      mstore\n      sub(shl(0xa0, 0x01), 0x01)\n        /* \"#utility.yul\":363:395   */\n      dup6\n      and\n        /* \"@openzeppelin/contracts/token/ERC20/utils/SafeERC20.sol\":8401:8441  SafeERC20FailedOperation(address(token)) */\n      0x04\n      dup3\n      add\n        /* \"#utility.yul\":345:396   */\n      mstore\n        /* \"#utility.yul\":318:336   */\n      0x24\n      add\n        /* \"@openzeppelin/contracts/token/ERC20/utils/SafeERC20.sol\":8401:8441  SafeERC20FailedOperation(address(token)) */\n      tag_96\n        /* \"#utility.yul\":199:402   */\n      jump\n        /* \"#utility.yul\":14:194   */\n    tag_29:\n        /* \"#utility.yul\":73:79   */\n      0x00\n        /* \"#utility.yul\":126:128   */\n      0x20\n        /* \"#utility.yul\":114:123   */\n      dup3\n        /* \"#utility.yul\":105:112   */\n      dup5\n        /* \"#utility.yul\":101:124   */\n      sub\n        /* \"#utility.yul\":97:129   */\n      slt\n        /* \"#utility.yul\":94:146   */\n      iszero\n      tag_296\n      jumpi\n        /* \"#utility.yul\":142:143   */\n      0x00\n        /* \"#utility.yul\":139:140   */\n      0x00\n        /* \"#utility.yul\":132:144   */\n      revert\n        /* \"#utility.yul\":94:146   */\n    tag_296:\n      pop\n        /* \"#utility.yul\":165:188   */\n      calldataload\n      swap2\n        /* \"#utility.yul\":14:194   */\n      swap1\n      pop\n      jump\t// out\n        /* \"#utility.yul\":781:1067   */\n    tag_83:\n        /* \"#utility.yul\":840:846   */\n      0x00\n        /* \"#utility.yul\":893:895   */\n      0x20\n        /* \"#utility.yul\":881:890   */\n      dup3\n        /* \"#utility.yul\":872:879   */\n      dup5\n        /* \"#utility.yul\":868:891   */\n      sub\n        /* \"#utility.yul\":864:896   */\n      slt\n        /* \"#utility.yul\":861:913   */\n      iszero\n      tag_301\n      jumpi\n        /* \"#utility.yul\":909:910   */\n      0x00\n        /* \"#utility.yul\":906:907   */\n      0x00\n        /* \"#utility.yul\":899:911   */\n      revert\n        /* \"#utility.yul\":861:913   */\n    tag_301:\n        /* \"#utility.yul\":935:958   */\n      dup2\n      calldataload\n      sub(shl(0xa0, 0x01), 0x01)\n        /* \"#utility.yul\":987:1018   */\n      dup2\n      and\n        /* \"#utility.yul\":977:1019   */\n      dup2\n      eq\n        /* \"#utility.yul\":967:1037   */\n      tag_302\n      jumpi\n        /* \"#utility.yul\":1033:1034   */\n      0x00\n        /* \"#utility.yul\":1030:1031   */\n      0x00\n        /* \"#utility.yul\":1023:1035   */\n      revert\n        /* \"#utility.yul\":967:1037   */\n    tag_302:\n        /* \"#utility.yul\":1056:1061   */\n      swap4\n        /* \"#utility.yul\":781:1067   */\n      swap3\n      pop\n      pop\n      pop\n      jump\t// out\n        /* \"#utility.yul\":1072:1410   */\n    tag_97:\n        /* \"#utility.yul\":1274:1276   */\n      0x20\n        /* \"#utility.yul\":1256:1277   */\n      dup1\n      dup3\n      mstore\n        /* \"#utility.yul\":1313:1315   */\n      0x0e\n        /* \"#utility.yul\":1293:1311   */\n      swap1\n      dup3\n      add\n        /* \"#utility.yul\":1286:1316   */\n      mstore\n      shl(0x92, 0x139bdd08185d5d1a1bdc9a5e9959)\n        /* \"#utility.yul\":1347:1349   */\n      0x40\n        /* \"#utility.yul\":1332:1350   */\n      dup3\n      add\n        /* \"#utility.yul\":1325:1369   */\n      mstore\n        /* \"#utility.yul\":1401:1403   */\n      0x60\n        /* \"#utility.yul\":1386:1404   */\n      add\n      swap1\n        /* \"#utility.yul\":1072:1410   */\n      jump\t// out\n        /* \"#utility.yul\":1764:1948   */\n    tag_106:\n        /* \"#utility.yul\":1834:1840   */\n      0x00\n        /* \"#utility.yul\":1887:1889   */\n      0x20\n        /* \"#utility.yul\":1875:1884   */\n      dup3\n        /* \"#utility.yul\":1866:1873   */\n      dup5\n        /* \"#utility.yul\":1862:1885   */\n      sub\n        /* \"#utility.yul\":1858:1890   */\n      slt\n        /* \"#utility.yul\":1855:1907   */\n      iszero\n      tag_306\n      jumpi\n        /* \"#utility.yul\":1903:1904   */\n      0x00\n        /* \"#utility.yul\":1900:1901   */\n      0x00\n        /* \"#utility.yul\":1893:1905   */\n      revert\n        /* \"#utility.yul\":1855:1907   */\n    tag_306:\n      pop\n        /* \"#utility.yul\":1926:1942   */\n      mload\n      swap2\n        /* \"#utility.yul\":1764:1948   */\n      swap1\n      pop\n      jump\t// out\n        /* \"#utility.yul\":2590:2867   */\n    tag_115:\n        /* \"#utility.yul\":2657:2663   */\n      0x00\n        /* \"#utility.yul\":2710:2712   */\n      0x20\n        /* \"#utility.yul\":2698:2707   */\n      dup3\n        /* \"#utility.yul\":2689:2696   */\n      dup5\n        /* \"#utility.yul\":2685:2708   */\n      sub\n        /* \"#utility.yul\":2681:2713   */\n      slt\n        /* \"#utility.yul\":2678:2730   */\n      iszero\n      tag_310\n      jumpi\n        /* \"#utility.yul\":2726:2727   */\n      0x00\n        /* \"#utility.yul\":2723:2724   */\n      0x00\n        /* \"#utility.yul\":2716:2728   */\n      revert\n        /* \"#utility.yul\":2678:2730   */\n    tag_310:\n        /* \"#utility.yul\":2758:2767   */\n      dup2\n        /* \"#utility.yul\":2752:2768   */\n      mload\n        /* \"#utility.yul\":2811:2816   */\n      dup1\n        /* \"#utility.yul\":2804:2817   */\n      iszero\n        /* \"#utility.yul\":2797:2818   */\n      iszero\n        /* \"#utility.yul\":2790:2795   */\n      dup2\n        /* \"#utility.yul\":2787:2819   */\n      eq\n        /* \"#utility.yul\":2777:2837   */\n      tag_302\n      jumpi\n        /* \"#utility.yul\":2833:2834   */\n      0x00\n        /* \"#utility.yul\":2830:2831   */\n      0x00\n        /* \"#utility.yul\":2823:2835   */\n      revert\n        /* \"#utility.yul\":3232:3572   */\n    tag_134:\n        /* \"#utility.yul\":3434:3436   */\n      0x20\n        /* \"#utility.yul\":3416:3437   */\n      dup1\n      dup3\n      mstore\n        /* \"#utility.yul\":3473:3475   */\n      0x10\n        /* \"#utility.yul\":3453:3471   */\n      swap1\n      dup3\n      add\n        /* \"#utility.yul\":3446:3476   */\n      mstore\n      shl(0x82, 0x14185d5cd8589b194e881c185d5cd959)\n        /* \"#utility.yul\":3507:3509   */\n      0x40\n        /* \"#utility.yul\":3492:3510   */\n      dup3\n      add\n        /* \"#utility.yul\":3485:3531   */\n      mstore\n        /* \"#utility.yul\":3563:3565   */\n      0x60\n        /* \"#utility.yul\":3548:3566   */\n      add\n      swap1\n        /* \"#utility.yul\":3232:3572   */\n      jump\t// out\n        /* \"#utility.yul\":4594:4721   */\n    tag_293:\n        /* \"#utility.yul\":4655:4665   */\n      0x4e487b71\n        /* \"#utility.yul\":4650:4653   */\n      0xe0\n        /* \"#utility.yul\":4646:4666   */\n      shl\n        /* \"#utility.yul\":4643:4644   */\n      0x00\n        /* \"#utility.yul\":4636:4667   */\n      mstore\n        /* \"#utility.yul\":4686:4690   */\n      0x11\n        /* \"#utility.yul\":4683:4684   */\n      0x04\n        /* \"#utility.yul\":4676:4691   */\n      mstore\n        /* \"#utility.yul\":4710:4714   */\n      0x24\n        /* \"#utility.yul\":4707:4708   */\n      0x00\n        /* \"#utility.yul\":4700:4715   */\n      revert\n        /* \"#utility.yul\":4726:4851   */\n    tag_153:\n        /* \"#utility.yul\":4791:4800   */\n      dup1\n      dup3\n      add\n        /* \"#utility.yul\":4812:4822   */\n      dup1\n      dup3\n      gt\n        /* \"#utility.yul\":4809:4845   */\n      iszero\n      tag_320\n      jumpi\n        /* \"#utility.yul\":4825:4843   */\n      tag_320\n      tag_293\n      jump\t// in\n    tag_320:\n        /* \"#utility.yul\":4726:4851   */\n      swap3\n      swap2\n      pop\n      pop\n      jump\t// out\n        /* \"#utility.yul\":4856:5024   */\n    tag_155:\n        /* \"#utility.yul\":4929:4938   */\n      dup1\n      dup3\n      mul\n        /* \"#utility.yul\":4960:4969   */\n      dup2\n      iszero\n        /* \"#utility.yul\":4977:4992   */\n      dup3\n      dup3\n      div\n        /* \"#utility.yul\":4971:4993   */\n      dup5\n      eq\n        /* \"#utility.yul\":4957:4994   */\n      or\n        /* \"#utility.yul\":4947:5018   */\n      tag_320\n      jumpi\n        /* \"#utility.yul\":4998:5016   */\n      tag_320\n      tag_293\n      jump\t// in\n        /* \"#utility.yul\":5029:5246   */\n    tag_157:\n        /* \"#utility.yul\":5069:5070   */\n      0x00\n        /* \"#utility.yul\":5095:5096   */\n      dup3\n        /* \"#utility.yul\":5085:5217   */\n      tag_325\n      jumpi\n        /* \"#utility.yul\":5139:5149   */\n      0x4e487b71\n        /* \"#utility.yul\":5134:5137   */\n      0xe0\n        /* \"#utility.yul\":5130:5150   */\n      shl\n        /* \"#utility.yul\":5127:5128   */\n      0x00\n        /* \"#utility.yul\":5120:5151   */\n      mstore\n        /* \"#utility.yul\":5174:5178   */\n      0x12\n        /* \"#utility.yul\":5171:5172   */\n      0x04\n        /* \"#utility.yul\":5164:5179   */\n      mstore\n        /* \"#utility.yul\":5202:5206   */\n      0x24\n        /* \"#utility.yul\":5199:5200   */\n      0x00\n        /* \"#utility.yul\":5192:5207   */\n      revert\n        /* \"#utility.yul\":5085:5217   */\n    tag_325:\n      pop\n        /* \"#utility.yul\":5231:5240   */\n      div\n      swap1\n        /* \"#utility.yul\":5029:5246   */\n      jump\t// out\n        /* \"#utility.yul\":5655:5783   */\n    tag_170:\n        /* \"#utility.yul\":5722:5731   */\n      dup2\n      dup2\n      sub\n        /* \"#utility.yul\":5743:5754   */\n      dup2\n      dup2\n      gt\n        /* \"#utility.yul\":5740:5777   */\n      iszero\n      tag_320\n      jumpi\n        /* \"#utility.yul\":5757:5775   */\n      tag_320\n      tag_293\n      jump\t// in\n\n    auxdata: 0xa2646970667358221220a5b0c788fff17ecdc5cfae3ea7428ed550f741409bdcec4dfd35e0051f14d42d64736f6c634300081c0033\n}\n",
				"bytecode": {
					"linkReferences": {},
					"object": "608060405234801561000f575f5ffd5b506040516113bb3803806113bb83398101604081905261002e916100af565b5f805460ff191690556001805560028054336001600160a01b0319918216179091556003805482166001600160a01b039889161790556005805482169588169590951790945560048054909416949095169390931790915560065560075560085561010d565b80516001600160a01b03811681146100aa575f5ffd5b919050565b5f5f5f5f5f5f60c087890312156100c4575f5ffd5b6100cd87610094565b95506100db60208801610094565b94506100e960408801610094565b6060880151608089015160a090990151979a96995090979096909590945092505050565b6112a18061011a5f395ff3fe608060405234801561000f575f5ffd5b5060043610610132575f3560e01c8063839ea2d9116100b4578063c6d69a3011610079578063c6d69a301461024e578063ce1d1f1f14610261578063d4a49c1714610269578063dc38679c1461027c578063eea7570e14610285578063f2fde38b14610298575f5ffd5b8063839ea2d9146102055780638456cb59146102185780638da5cb5b146102205780639063ee20146102335780639e9aed6214610246575f5ffd5b80636a64eff8116100fa5780636a64eff8146101b0578063771a3a1d146101c357806379a9fa1c146101cc5780637ef7ba20146101df5780637ff8b57a146101f2575f5ffd5b806307e675fa146101365780633013ce291461014b5780633f4ba83a1461017b5780635c975abb146101835780635d0040d314610199575b5f5ffd5b610149610144366004611129565b6102ab565b005b60035461015e906001600160a01b031681565b6040516001600160a01b0390911681526020015b60405180910390f35b6101496104ae565b5f5460ff165b6040519015158152602001610172565b6101a260065481565b604051908152602001610172565b6101496101be366004611129565b6104e2565b6101a260085481565b6101496101da366004611129565b610511565b60045461015e906001600160a01b031681565b610149610200366004611129565b610885565b610189610213366004611129565b6108fc565b6101496109c2565b60025461015e906001600160a01b031681565b610149610241366004611129565b6109f4565b6101a2610b50565b61014961025c366004611129565b610bbf565b6101a2610c6b565b610149610277366004611140565b610d39565b6101a260075481565b60055461015e906001600160a01b031681565b6101496102a6366004611140565b610e06565b6002546001600160a01b031633146102de5760405162461bcd60e51b81526004016102d59061116d565b60405180910390fd5b5f81116103245760405162461bcd60e51b815260206004820152601460248201527305769746864726177206d757374206265203e20360641b60448201526064016102d5565b6003546040516370a0823160e01b81523060048201525f916001600160a01b0316906370a0823190602401602060405180830381865afa15801561036a573d5f5f3e3d5ffd5b505050506040513d601f19601f8201168201806040525081019061038e9190611195565b9050808211156103e05760405162461bcd60e51b815260206004820152601d60248201527f4e6f7420656e6f75676820746f6b656e7320696e20636f6e747261637400000060448201526064016102d5565b60035460025460405163a9059cbb60e01b81526001600160a01b039182166004820152602481018590525f92919091169063a9059cbb906044016020604051808303815f875af1158015610436573d5f5f3e3d5ffd5b505050506040513d601f19601f8201168201806040525081019061045a91906111ac565b9050806104a95760405162461bcd60e51b815260206004820152601f60248201527f5061796d656e7420746f6b656e207769746864726177616c206661696c65640060448201526064016102d5565b505050565b6002546001600160a01b031633146104d85760405162461bcd60e51b81526004016102d59061116d565b6104e0610ee1565b565b6002546001600160a01b0316331461050c5760405162461bcd60e51b81526004016102d59061116d565b600755565b5f5460ff16156105335760405162461bcd60e51b81526004016102d5906111cb565b61053b610f68565b5f81116105835760405162461bcd60e51b81526020600482015260166024820152754d757374206465706f73697420526f626f4d6f6e657960501b60448201526064016102d5565b60048054604051636eb1769f60e11b815233928101929092523060248301525f916001600160a01b039091169063dd62ed3e90604401602060405180830381865afa1580156105d4573d5f5f3e3d5ffd5b505050506040513d601f19601f820116820180604052508101906105f89190611195565b90508181101561064a5760405162461bcd60e51b815260206004820181905260248201527f496e73756666696369656e7420526f626f4d6f6e657920616c6c6f77616e636560448201526064016102d5565b600454610662906001600160a01b0316333085610fc1565b5f606460065460646106749190611209565b6007546106819190611222565b61068b9190611239565b90505f670de0b6b3a76400006106a18386611222565b6106ab9190611239565b6003546040516370a0823160e01b81523060048201529192505f916001600160a01b03909116906370a0823190602401602060405180830381865afa1580156106f6573d5f5f3e3d5ffd5b505050506040513d601f19601f8201168201806040525081019061071a9190611195565b9050818110156107785760405162461bcd60e51b815260206004820152602360248201527f4e6f7420656e6f756768207061796d656e74546f6b656e20696e20636f6e74726044820152621858dd60ea1b60648201526084016102d5565b5f6127106008548461078a9190611222565b6107949190611239565b90505f6107a18285611258565b6005546003549192506107c1916001600160a01b0390811691168461102e565b6003546107d8906001600160a01b0316338361102e565b60048054604051632770a7eb60e21b81523092810192909252602482018990526001600160a01b031690639dc29fac906044015f604051808303815f87803b158015610822575f5ffd5b505af1158015610834573d5f5f3e3d5ffd5b5050604080518a8152602081018890523393507fcb7f55d0b91628d4520b789339dae4803ab07182ea89d138acbd965dac51dc6592500160405180910390a250505050505061088260018055565b50565b6002546001600160a01b031633146108af5760405162461bcd60e51b81526004016102d59061116d565b60648111156108f75760405162461bcd60e51b8152602060048201526014602482015273496e76616c6964207072656d69756d207261746560601b60448201526064016102d5565b600655565b5f5f6064600654606461090f9190611209565b60075461091c9190611222565b6109269190611239565b90505f670de0b6b3a764000061093c8386611222565b6109469190611239565b6003546040516370a0823160e01b81523060048201529192505f916001600160a01b03909116906370a0823190602401602060405180830381865afa158015610991573d5f5f3e3d5ffd5b505050506040513d601f19601f820116820180604052508101906109b59190611195565b9190911015949350505050565b6002546001600160a01b031633146109ec5760405162461bcd60e51b81526004016102d59061116d565b6104e061105f565b6002546001600160a01b03163314610a1e5760405162461bcd60e51b81526004016102d59061116d565b5f5460ff1615610a405760405162461bcd60e51b81526004016102d5906111cb565b5f8111610a855760405162461bcd60e51b815260206004820152601360248201527204465706f736974206d757374206265203e203606c1b60448201526064016102d5565b6003546040516323b872dd60e01b8152336004820152306024820152604481018390525f916001600160a01b0316906323b872dd906064016020604051808303815f875af1158015610ad9573d5f5f3e3d5ffd5b505050506040513d601f19601f82011682018060405250810190610afd91906111ac565b905080610b4c5760405162461bcd60e51b815260206004820152601c60248201527f5061796d656e7420746f6b656e206465706f736974206661696c65640000000060448201526064016102d5565b5050565b6003546040516370a0823160e01b81523060048201525f916001600160a01b0316906370a0823190602401602060405180830381865afa158015610b96573d5f5f3e3d5ffd5b505050506040513d601f19601f82011682018060405250810190610bba9190611195565b905090565b6002546001600160a01b03163314610be95760405162461bcd60e51b81526004016102d59061116d565b6103e8811115610c2a5760405162461bcd60e51b815260206004820152600c60248201526b0a8c2f040e8dede40d0d2ced60a31b60448201526064016102d5565b60085460408051918252602082018390527fa8ee157eb2a9aa895d74df4d2d3bc0ad165ff3162f8ec46a4ecf602dd5c48fda910160405180910390a1600855565b6003546040516370a0823160e01b81523060048201525f9182916001600160a01b03909116906370a0823190602401602060405180830381865afa158015610cb5573d5f5f3e3d5ffd5b505050506040513d601f19601f82011682018060405250810190610cd99190611195565b90505f60646006546064610ced9190611209565b600754610cfa9190611222565b610d049190611239565b9050805f03610d15575f9250505090565b80610d2883670de0b6b3a7640000611222565b610d329190611239565b9250505090565b6002546001600160a01b03163314610d635760405162461bcd60e51b81526004016102d59061116d565b6001600160a01b038116610dab5760405162461bcd60e51b815260206004820152600f60248201526e496e76616c6964206164647265737360881b60448201526064016102d5565b6005546040516001600160a01b038084169216907fb4281bb17cdc594e3cf6d419da95f70a6b02d856b26438d381ee1246a8e89f12905f90a3600580546001600160a01b0319166001600160a01b0392909216919091179055565b6002546001600160a01b03163314610e305760405162461bcd60e51b81526004016102d59061116d565b6001600160a01b038116610e865760405162461bcd60e51b815260206004820181905260248201527f4e6577206f776e65722063616e6e6f74206265207a65726f206164647265737360448201526064016102d5565b6002546040516001600160a01b038084169216907f8be0079c531659141344cd1fd0a4f28419497f9722a3daafe3b4186f6b6457e0905f90a3600280546001600160a01b0319166001600160a01b0392909216919091179055565b5f5460ff16610f295760405162461bcd60e51b815260206004820152601460248201527314185d5cd8589b194e881b9bdd081c185d5cd95960621b60448201526064016102d5565b5f805460ff191690556040513381527f5db9ee0a495bf2e6ff9c91a7834c1ba4fdd244a5e8aa4e537bd38aeae4b073aa906020015b60405180910390a1565b600260015403610fba5760405162461bcd60e51b815260206004820152601f60248201527f5265656e7472616e637947756172643a207265656e7472616e742063616c6c0060448201526064016102d5565b6002600155565b6040516001600160a01b0384811660248301528381166044830152606482018390526110289186918216906323b872dd906084015b604051602081830303815290604052915060e01b6020820180516001600160e01b0383818316178352505050506110bd565b50505050565b6040516001600160a01b038381166024830152604482018390526104a991859182169063a9059cbb90606401610ff6565b5f5460ff16156110815760405162461bcd60e51b81526004016102d5906111cb565b5f805460ff191660011790556040513381527f62e78cea01bee320cd4e420270b5ea74000d11b0c9f74754ebdbfc544b05a25890602001610f5e565b5f5f60205f8451602086015f885af1806110dc576040513d5f823e3d81fd5b50505f513d915081156110f3578060011415611100565b6001600160a01b0384163b155b1561102857604051635274afe760e01b81526001600160a01b03851660048201526024016102d5565b5f60208284031215611139575f5ffd5b5035919050565b5f60208284031215611150575f5ffd5b81356001600160a01b0381168114611166575f5ffd5b9392505050565b6020808252600e908201526d139bdd08185d5d1a1bdc9a5e995960921b604082015260600190565b5f602082840312156111a5575f5ffd5b5051919050565b5f602082840312156111bc575f5ffd5b81518015158114611166575f5ffd5b60208082526010908201526f14185d5cd8589b194e881c185d5cd95960821b604082015260600190565b634e487b7160e01b5f52601160045260245ffd5b8082018082111561121c5761121c6111f5565b92915050565b808202811582820484141761121c5761121c6111f5565b5f8261125357634e487b7160e01b5f52601260045260245ffd5b500490565b8181038181111561121c5761121c6111f556fea2646970667358221220a5b0c788fff17ecdc5cfae3ea7428ed550f741409bdcec4dfd35e0051f14d42d64736f6c634300081c0033",
					"opcodes": "PUSH1 0x80 PUSH1 0x40 MSTORE CALLVALUE DUP1 ISZERO PUSH2 0xF JUMPI PUSH0 PUSH0 REVERT JUMPDEST POP PUSH1 0x40 MLOAD PUSH2 0x13BB CODESIZE SUB DUP1 PUSH2 0x13BB DUP4 CODECOPY DUP2 ADD PUSH1 0x40 DUP2 SWAP1 MSTORE PUSH2 0x2E SWAP2 PUSH2 0xAF JUMP JUMPDEST PUSH0 DUP1 SLOAD PUSH1 0xFF NOT AND SWAP1 SSTORE PUSH1 0x1 DUP1 SSTORE PUSH1 0x2 DUP1 SLOAD CALLER PUSH1 0x1 PUSH1 0x1 PUSH1 0xA0 SHL SUB NOT SWAP2 DUP3 AND OR SWAP1 SWAP2 SSTORE PUSH1 0x3 DUP1 SLOAD DUP3 AND PUSH1 0x1 PUSH1 0x1 PUSH1 0xA0 SHL SUB SWAP9 DUP10 AND OR SWAP1 SSTORE PUSH1 0x5 DUP1 SLOAD DUP3 AND SWAP6 DUP9 AND SWAP6 SWAP1 SWAP6 OR SWAP1 SWAP5 SSTORE PUSH1 0x4 DUP1 SLOAD SWAP1 SWAP5 AND SWAP5 SWAP1 SWAP6 AND SWAP4 SWAP1 SWAP4 OR SWAP1 SWAP2 SSTORE PUSH1 0x6 SSTORE PUSH1 0x7 SSTORE PUSH1 0x8 SSTORE PUSH2 0x10D JUMP JUMPDEST DUP1 MLOAD PUSH1 0x1 PUSH1 0x1 PUSH1 0xA0 SHL SUB DUP2 AND DUP2 EQ PUSH2 0xAA JUMPI PUSH0 PUSH0 REVERT JUMPDEST SWAP2 SWAP1 POP JUMP JUMPDEST PUSH0 PUSH0 PUSH0 PUSH0 PUSH0 PUSH0 PUSH1 0xC0 DUP8 DUP10 SUB SLT ISZERO PUSH2 0xC4 JUMPI PUSH0 PUSH0 REVERT JUMPDEST PUSH2 0xCD DUP8 PUSH2 0x94 JUMP JUMPDEST SWAP6 POP PUSH2 0xDB PUSH1 0x20 DUP9 ADD PUSH2 0x94 JUMP JUMPDEST SWAP5 POP PUSH2 0xE9 PUSH1 0x40 DUP9 ADD PUSH2 0x94 JUMP JUMPDEST PUSH1 0x60 DUP9 ADD MLOAD PUSH1 0x80 DUP10 ADD MLOAD PUSH1 0xA0 SWAP1 SWAP10 ADD MLOAD SWAP8 SWAP11 SWAP7 SWAP10 POP SWAP1 SWAP8 SWAP1 SWAP7 SWAP1 SWAP6 SWAP1 SWAP5 POP SWAP3 POP POP POP JUMP JUMPDEST PUSH2 0x12A1 DUP1 PUSH2 0x11A PUSH0 CODECOPY PUSH0 RETURN INVALID PUSH1 0x80 PUSH1 0x40 MSTORE CALLVALUE DUP1 ISZERO PUSH2 0xF JUMPI PUSH0 PUSH0 REVERT JUMPDEST POP PUSH1 0x4 CALLDATASIZE LT PUSH2 0x132 JUMPI PUSH0 CALLDATALOAD PUSH1 0xE0 SHR DUP1 PUSH4 0x839EA2D9 GT PUSH2 0xB4 JUMPI DUP1 PUSH4 0xC6D69A30 GT PUSH2 0x79 JUMPI DUP1 PUSH4 0xC6D69A30 EQ PUSH2 0x24E JUMPI DUP1 PUSH4 0xCE1D1F1F EQ PUSH2 0x261 JUMPI DUP1 PUSH4 0xD4A49C17 EQ PUSH2 0x269 JUMPI DUP1 PUSH4 0xDC38679C EQ PUSH2 0x27C JUMPI DUP1 PUSH4 0xEEA7570E EQ PUSH2 0x285 JUMPI DUP1 PUSH4 0xF2FDE38B EQ PUSH2 0x298 JUMPI PUSH0 PUSH0 REVERT JUMPDEST DUP1 PUSH4 0x839EA2D9 EQ PUSH2 0x205 JUMPI DUP1 PUSH4 0x8456CB59 EQ PUSH2 0x218 JUMPI DUP1 PUSH4 0x8DA5CB5B EQ PUSH2 0x220 JUMPI DUP1 PUSH4 0x9063EE20 EQ PUSH2 0x233 JUMPI DUP1 PUSH4 0x9E9AED62 EQ PUSH2 0x246 JUMPI PUSH0 PUSH0 REVERT JUMPDEST DUP1 PUSH4 0x6A64EFF8 GT PUSH2 0xFA JUMPI DUP1 PUSH4 0x6A64EFF8 EQ PUSH2 0x1B0 JUMPI DUP1 PUSH4 0x771A3A1D EQ PUSH2 0x1C3 JUMPI DUP1 PUSH4 0x79A9FA1C EQ PUSH2 0x1CC JUMPI DUP1 PUSH4 0x7EF7BA20 EQ PUSH2 0x1DF JUMPI DUP1 PUSH4 0x7FF8B57A EQ PUSH2 0x1F2 JUMPI PUSH0 PUSH0 REVERT JUMPDEST DUP1 PUSH4 0x7E675FA EQ PUSH2 0x136 JUMPI DUP1 PUSH4 0x3013CE29 EQ PUSH2 0x14B JUMPI DUP1 PUSH4 0x3F4BA83A EQ PUSH2 0x17B JUMPI DUP1 PUSH4 0x5C975ABB EQ PUSH2 0x183 JUMPI DUP1 PUSH4 0x5D0040D3 EQ PUSH2 0x199 JUMPI JUMPDEST PUSH0 PUSH0 REVERT JUMPDEST PUSH2 0x149 PUSH2 0x144 CALLDATASIZE PUSH1 0x4 PUSH2 0x1129 JUMP JUMPDEST PUSH2 0x2AB JUMP JUMPDEST STOP JUMPDEST PUSH1 0x3 SLOAD PUSH2 0x15E SWAP1 PUSH1 0x1 PUSH1 0x1 PUSH1 0xA0 SHL SUB AND DUP2 JUMP JUMPDEST PUSH1 0x40 MLOAD PUSH1 0x1 PUSH1 0x1 PUSH1 0xA0 SHL SUB SWAP1 SWAP2 AND DUP2 MSTORE PUSH1 0x20 ADD JUMPDEST PUSH1 0x40 MLOAD DUP1 SWAP2 SUB SWAP1 RETURN JUMPDEST PUSH2 0x149 PUSH2 0x4AE JUMP JUMPDEST PUSH0 SLOAD PUSH1 0xFF AND JUMPDEST PUSH1 0x40 MLOAD SWAP1 ISZERO ISZERO DUP2 MSTORE PUSH1 0x20 ADD PUSH2 0x172 JUMP JUMPDEST PUSH2 0x1A2 PUSH1 0x6 SLOAD DUP2 JUMP JUMPDEST PUSH1 0x40 MLOAD SWAP1 DUP2 MSTORE PUSH1 0x20 ADD PUSH2 0x172 JUMP JUMPDEST PUSH2 0x149 PUSH2 0x1BE CALLDATASIZE PUSH1 0x4 PUSH2 0x1129 JUMP JUMPDEST PUSH2 0x4E2 JUMP JUMPDEST PUSH2 0x1A2 PUSH1 0x8 SLOAD DUP2 JUMP JUMPDEST PUSH2 0x149 PUSH2 0x1DA CALLDATASIZE PUSH1 0x4 PUSH2 0x1129 JUMP JUMPDEST PUSH2 0x511 JUMP JUMPDEST PUSH1 0x4 SLOAD PUSH2 0x15E SWAP1 PUSH1 0x1 PUSH1 0x1 PUSH1 0xA0 SHL SUB AND DUP2 JUMP JUMPDEST PUSH2 0x149 PUSH2 0x200 CALLDATASIZE PUSH1 0x4 PUSH2 0x1129 JUMP JUMPDEST PUSH2 0x885 JUMP JUMPDEST PUSH2 0x189 PUSH2 0x213 CALLDATASIZE PUSH1 0x4 PUSH2 0x1129 JUMP JUMPDEST PUSH2 0x8FC JUMP JUMPDEST PUSH2 0x149 PUSH2 0x9C2 JUMP JUMPDEST PUSH1 0x2 SLOAD PUSH2 0x15E SWAP1 PUSH1 0x1 PUSH1 0x1 PUSH1 0xA0 SHL SUB AND DUP2 JUMP JUMPDEST PUSH2 0x149 PUSH2 0x241 CALLDATASIZE PUSH1 0x4 PUSH2 0x1129 JUMP JUMPDEST PUSH2 0x9F4 JUMP JUMPDEST PUSH2 0x1A2 PUSH2 0xB50 JUMP JUMPDEST PUSH2 0x149 PUSH2 0x25C CALLDATASIZE PUSH1 0x4 PUSH2 0x1129 JUMP JUMPDEST PUSH2 0xBBF JUMP JUMPDEST PUSH2 0x1A2 PUSH2 0xC6B JUMP JUMPDEST PUSH2 0x149 PUSH2 0x277 CALLDATASIZE PUSH1 0x4 PUSH2 0x1140 JUMP JUMPDEST PUSH2 0xD39 JUMP JUMPDEST PUSH2 0x1A2 PUSH1 0x7 SLOAD DUP2 JUMP JUMPDEST PUSH1 0x5 SLOAD PUSH2 0x15E SWAP1 PUSH1 0x1 PUSH1 0x1 PUSH1 0xA0 SHL SUB AND DUP2 JUMP JUMPDEST PUSH2 0x149 PUSH2 0x2A6 CALLDATASIZE PUSH1 0x4 PUSH2 0x1140 JUMP JUMPDEST PUSH2 0xE06 JUMP JUMPDEST PUSH1 0x2 SLOAD PUSH1 0x1 PUSH1 0x1 PUSH1 0xA0 SHL SUB AND CALLER EQ PUSH2 0x2DE JUMPI PUSH1 0x40 MLOAD PUSH3 0x461BCD PUSH1 0xE5 SHL DUP2 MSTORE PUSH1 0x4 ADD PUSH2 0x2D5 SWAP1 PUSH2 0x116D JUMP JUMPDEST PUSH1 0x40 MLOAD DUP1 SWAP2 SUB SWAP1 REVERT JUMPDEST PUSH0 DUP2 GT PUSH2 0x324 JUMPI PUSH1 0x40 MLOAD PUSH3 0x461BCD PUSH1 0xE5 SHL DUP2 MSTORE PUSH1 0x20 PUSH1 0x4 DUP3 ADD MSTORE PUSH1 0x14 PUSH1 0x24 DUP3 ADD MSTORE PUSH20 0x5769746864726177206D757374206265203E203 PUSH1 0x64 SHL PUSH1 0x44 DUP3 ADD MSTORE PUSH1 0x64 ADD PUSH2 0x2D5 JUMP JUMPDEST PUSH1 0x3 SLOAD PUSH1 0x40 MLOAD PUSH4 0x70A08231 PUSH1 0xE0 SHL DUP2 MSTORE ADDRESS PUSH1 0x4 DUP3 ADD MSTORE PUSH0 SWAP2 PUSH1 0x1 PUSH1 0x1 PUSH1 0xA0 SHL SUB AND SWAP1 PUSH4 0x70A08231 SWAP1 PUSH1 0x24 ADD PUSH1 0x20 PUSH1 0x40 MLOAD DUP1 DUP4 SUB DUP2 DUP7 GAS STATICCALL ISZERO DUP1 ISZERO PUSH2 0x36A JUMPI RETURNDATASIZE PUSH0 PUSH0 RETURNDATACOPY RETURNDATASIZE PUSH0 REVERT JUMPDEST POP POP POP POP PUSH1 0x40 MLOAD RETURNDATASIZE PUSH1 0x1F NOT PUSH1 0x1F DUP3 ADD AND DUP3 ADD DUP1 PUSH1 0x40 MSTORE POP DUP2 ADD SWAP1 PUSH2 0x38E SWAP2 SWAP1 PUSH2 0x1195 JUMP JUMPDEST SWAP1 POP DUP1 DUP3 GT ISZERO PUSH2 0x3E0 JUMPI PUSH1 0x40 MLOAD PUSH3 0x461BCD PUSH1 0xE5 SHL DUP2 MSTORE PUSH1 0x20 PUSH1 0x4 DUP3 ADD MSTORE PUSH1 0x1D PUSH1 0x24 DUP3 ADD MSTORE PUSH32 0x4E6F7420656E6F75676820746F6B656E7320696E20636F6E7472616374000000 PUSH1 0x44 DUP3 ADD MSTORE PUSH1 0x64 ADD PUSH2 0x2D5 JUMP JUMPDEST PUSH1 0x3 SLOAD PUSH1 0x2 SLOAD PUSH1 0x40 MLOAD PUSH4 0xA9059CBB PUSH1 0xE0 SHL DUP2 MSTORE PUSH1 0x1 PUSH1 0x1 PUSH1 0xA0 SHL SUB SWAP2 DUP3 AND PUSH1 0x4 DUP3 ADD MSTORE PUSH1 0x24 DUP2 ADD DUP6 SWAP1 MSTORE PUSH0 SWAP3 SWAP2 SWAP1 SWAP2 AND SWAP1 PUSH4 0xA9059CBB SWAP1 PUSH1 0x44 ADD PUSH1 0x20 PUSH1 0x40 MLOAD DUP1 DUP4 SUB DUP2 PUSH0 DUP8 GAS CALL ISZERO DUP1 ISZERO PUSH2 0x436 JUMPI RETURNDATASIZE PUSH0 PUSH0 RETURNDATACOPY RETURNDATASIZE PUSH0 REVERT JUMPDEST POP POP POP POP PUSH1 0x40 MLOAD RETURNDATASIZE PUSH1 0x1F NOT PUSH1 0x1F DUP3 ADD AND DUP3 ADD DUP1 PUSH1 0x40 MSTORE POP DUP2 ADD SWAP1 PUSH2 0x45A SWAP2 SWAP1 PUSH2 0x11AC JUMP JUMPDEST SWAP1 POP DUP1 PUSH2 0x4A9 JUMPI PUSH1 0x40 MLOAD PUSH3 0x461BCD PUSH1 0xE5 SHL DUP2 MSTORE PUSH1 0x20 PUSH1 0x4 DUP3 ADD MSTORE PUSH1 0x1F PUSH1 0x24 DUP3 ADD MSTORE PUSH32 0x5061796D656E7420746F6B656E207769746864726177616C206661696C656400 PUSH1 0x44 DUP3 ADD MSTORE PUSH1 0x64 ADD PUSH2 0x2D5 JUMP JUMPDEST POP POP POP JUMP JUMPDEST PUSH1 0x2 SLOAD PUSH1 0x1 PUSH1 0x1 PUSH1 0xA0 SHL SUB AND CALLER EQ PUSH2 0x4D8 JUMPI PUSH1 0x40 MLOAD PUSH3 0x461BCD PUSH1 0xE5 SHL DUP2 MSTORE PUSH1 0x4 ADD PUSH2 0x2D5 SWAP1 PUSH2 0x116D JUMP JUMPDEST PUSH2 0x4E0 PUSH2 0xEE1 JUMP JUMPDEST JUMP JUMPDEST PUSH1 0x2 SLOAD PUSH1 0x1 PUSH1 0x1 PUSH1 0xA0 SHL SUB AND CALLER EQ PUSH2 0x50C JUMPI PUSH1 0x40 MLOAD PUSH3 0x461BCD PUSH1 0xE5 SHL DUP2 MSTORE PUSH1 0x4 ADD PUSH2 0x2D5 SWAP1 PUSH2 0x116D JUMP JUMPDEST PUSH1 0x7 SSTORE JUMP JUMPDEST PUSH0 SLOAD PUSH1 0xFF AND ISZERO PUSH2 0x533 JUMPI PUSH1 0x40 MLOAD PUSH3 0x461BCD PUSH1 0xE5 SHL DUP2 MSTORE PUSH1 0x4 ADD PUSH2 0x2D5 SWAP1 PUSH2 0x11CB JUMP JUMPDEST PUSH2 0x53B PUSH2 0xF68 JUMP JUMPDEST PUSH0 DUP2 GT PUSH2 0x583 JUMPI PUSH1 0x40 MLOAD PUSH3 0x461BCD PUSH1 0xE5 SHL DUP2 MSTORE PUSH1 0x20 PUSH1 0x4 DUP3 ADD MSTORE PUSH1 0x16 PUSH1 0x24 DUP3 ADD MSTORE PUSH22 0x4D757374206465706F73697420526F626F4D6F6E6579 PUSH1 0x50 SHL PUSH1 0x44 DUP3 ADD MSTORE PUSH1 0x64 ADD PUSH2 0x2D5 JUMP JUMPDEST PUSH1 0x4 DUP1 SLOAD PUSH1 0x40 MLOAD PUSH4 0x6EB1769F PUSH1 0xE1 SHL DUP2 MSTORE CALLER SWAP3 DUP2 ADD SWAP3 SWAP1 SWAP3 MSTORE ADDRESS PUSH1 0x24 DUP4 ADD MSTORE PUSH0 SWAP2 PUSH1 0x1 PUSH1 0x1 PUSH1 0xA0 SHL SUB SWAP1 SWAP2 AND SWAP1 PUSH4 0xDD62ED3E SWAP1 PUSH1 0x44 ADD PUSH1 0x20 PUSH1 0x40 MLOAD DUP1 DUP4 SUB DUP2 DUP7 GAS STATICCALL ISZERO DUP1 ISZERO PUSH2 0x5D4 JUMPI RETURNDATASIZE PUSH0 PUSH0 RETURNDATACOPY RETURNDATASIZE PUSH0 REVERT JUMPDEST POP POP POP POP PUSH1 0x40 MLOAD RETURNDATASIZE PUSH1 0x1F NOT PUSH1 0x1F DUP3 ADD AND DUP3 ADD DUP1 PUSH1 0x40 MSTORE POP DUP2 ADD SWAP1 PUSH2 0x5F8 SWAP2 SWAP1 PUSH2 0x1195 JUMP JUMPDEST SWAP1 POP DUP2 DUP2 LT ISZERO PUSH2 0x64A JUMPI PUSH1 0x40 MLOAD PUSH3 0x461BCD PUSH1 0xE5 SHL DUP2 MSTORE PUSH1 0x20 PUSH1 0x4 DUP3 ADD DUP2 SWAP1 MSTORE PUSH1 0x24 DUP3 ADD MSTORE PUSH32 0x496E73756666696369656E7420526F626F4D6F6E657920616C6C6F77616E6365 PUSH1 0x44 DUP3 ADD MSTORE PUSH1 0x64 ADD PUSH2 0x2D5 JUMP JUMPDEST PUSH1 0x4 SLOAD PUSH2 0x662 SWAP1 PUSH1 0x1 PUSH1 0x1 PUSH1 0xA0 SHL SUB AND CALLER ADDRESS DUP6 PUSH2 0xFC1 JUMP JUMPDEST PUSH0 PUSH1 0x64 PUSH1 0x6 SLOAD PUSH1 0x64 PUSH2 0x674 SWAP2 SWAP1 PUSH2 0x1209 JUMP JUMPDEST PUSH1 0x7 SLOAD PUSH2 0x681 SWAP2 SWAP1 PUSH2 0x1222 JUMP JUMPDEST PUSH2 0x68B SWAP2 SWAP1 PUSH2 0x1239 JUMP JUMPDEST SWAP1 POP PUSH0 PUSH8 0xDE0B6B3A7640000 PUSH2 0x6A1 DUP4 DUP7 PUSH2 0x1222 JUMP JUMPDEST PUSH2 0x6AB SWAP2 SWAP1 PUSH2 0x1239 JUMP JUMPDEST PUSH1 0x3 SLOAD PUSH1 0x40 MLOAD PUSH4 0x70A08231 PUSH1 0xE0 SHL DUP2 MSTORE ADDRESS PUSH1 0x4 DUP3 ADD MSTORE SWAP2 SWAP3 POP PUSH0 SWAP2 PUSH1 0x1 PUSH1 0x1 PUSH1 0xA0 SHL SUB SWAP1 SWAP2 AND SWAP1 PUSH4 0x70A08231 SWAP1 PUSH1 0x24 ADD PUSH1 0x20 PUSH1 0x40 MLOAD DUP1 DUP4 SUB DUP2 DUP7 GAS STATICCALL ISZERO DUP1 ISZERO PUSH2 0x6F6 JUMPI RETURNDATASIZE PUSH0 PUSH0 RETURNDATACOPY RETURNDATASIZE PUSH0 REVERT JUMPDEST POP POP POP POP PUSH1 0x40 MLOAD RETURNDATASIZE PUSH1 0x1F NOT PUSH1 0x1F DUP3 ADD AND DUP3 ADD DUP1 PUSH1 0x40 MSTORE POP DUP2 ADD SWAP1 PUSH2 0x71A SWAP2 SWAP1 PUSH2 0x1195 JUMP JUMPDEST SWAP1 POP DUP2 DUP2 LT ISZERO PUSH2 0x778 JUMPI PUSH1 0x40 MLOAD PUSH3 0x461BCD PUSH1 0xE5 SHL DUP2 MSTORE PUSH1 0x20 PUSH1 0x4 DUP3 ADD MSTORE PUSH1 0x23 PUSH1 0x24 DUP3 ADD MSTORE PUSH32 0x4E6F7420656E6F756768207061796D656E74546F6B656E20696E20636F6E7472 PUSH1 0x44 DUP3 ADD MSTORE PUSH3 0x1858DD PUSH1 0xEA SHL PUSH1 0x64 DUP3 ADD MSTORE PUSH1 0x84 ADD PUSH2 0x2D5 JUMP JUMPDEST PUSH0 PUSH2 0x2710 PUSH1 0x8 SLOAD DUP5 PUSH2 0x78A SWAP2 SWAP1 PUSH2 0x1222 JUMP JUMPDEST PUSH2 0x794 SWAP2 SWAP1 PUSH2 0x1239 JUMP JUMPDEST SWAP1 POP PUSH0 PUSH2 0x7A1 DUP3 DUP6 PUSH2 0x1258 JUMP JUMPDEST PUSH1 0x5 SLOAD PUSH1 0x3 SLOAD SWAP2 SWAP3 POP PUSH2 0x7C1 SWAP2 PUSH1 0x1 PUSH1 0x1 PUSH1 0xA0 SHL SUB SWAP1 DUP2 AND SWAP2 AND DUP5 PUSH2 0x102E JUMP JUMPDEST PUSH1 0x3 SLOAD PUSH2 0x7D8 SWAP1 PUSH1 0x1 PUSH1 0x1 PUSH1 0xA0 SHL SUB AND CALLER DUP4 PUSH2 0x102E JUMP JUMPDEST PUSH1 0x4 DUP1 SLOAD PUSH1 0x40 MLOAD PUSH4 0x2770A7EB PUSH1 0xE2 SHL DUP2 MSTORE ADDRESS SWAP3 DUP2 ADD SWAP3 SWAP1 SWAP3 MSTORE PUSH1 0x24 DUP3 ADD DUP10 SWAP1 MSTORE PUSH1 0x1 PUSH1 0x1 PUSH1 0xA0 SHL SUB AND SWAP1 PUSH4 0x9DC29FAC SWAP1 PUSH1 0x44 ADD PUSH0 PUSH1 0x40 MLOAD DUP1 DUP4 SUB DUP2 PUSH0 DUP8 DUP1 EXTCODESIZE ISZERO DUP1 ISZERO PUSH2 0x822 JUMPI PUSH0 PUSH0 REVERT JUMPDEST POP GAS CALL ISZERO DUP1 ISZERO PUSH2 0x834 JUMPI RETURNDATASIZE PUSH0 PUSH0 RETURNDATACOPY RETURNDATASIZE PUSH0 REVERT JUMPDEST POP POP PUSH1 0x40 DUP1 MLOAD DUP11 DUP2 MSTORE PUSH1 0x20 DUP2 ADD DUP9 SWAP1 MSTORE CALLER SWAP4 POP PUSH32 0xCB7F55D0B91628D4520B789339DAE4803AB07182EA89D138ACBD965DAC51DC65 SWAP3 POP ADD PUSH1 0x40 MLOAD DUP1 SWAP2 SUB SWAP1 LOG2 POP POP POP POP POP POP PUSH2 0x882 PUSH1 0x1 DUP1 SSTORE JUMP JUMPDEST POP JUMP JUMPDEST PUSH1 0x2 SLOAD PUSH1 0x1 PUSH1 0x1 PUSH1 0xA0 SHL SUB AND CALLER EQ PUSH2 0x8AF JUMPI PUSH1 0x40 MLOAD PUSH3 0x461BCD PUSH1 0xE5 SHL DUP2 MSTORE PUSH1 0x4 ADD PUSH2 0x2D5 SWAP1 PUSH2 0x116D JUMP JUMPDEST PUSH1 0x64 DUP2 GT ISZERO PUSH2 0x8F7 JUMPI PUSH1 0x40 MLOAD PUSH3 0x461BCD PUSH1 0xE5 SHL DUP2 MSTORE PUSH1 0x20 PUSH1 0x4 DUP3 ADD MSTORE PUSH1 0x14 PUSH1 0x24 DUP3 ADD MSTORE PUSH20 0x496E76616C6964207072656D69756D2072617465 PUSH1 0x60 SHL PUSH1 0x44 DUP3 ADD MSTORE PUSH1 0x64 ADD PUSH2 0x2D5 JUMP JUMPDEST PUSH1 0x6 SSTORE JUMP JUMPDEST PUSH0 PUSH0 PUSH1 0x64 PUSH1 0x6 SLOAD PUSH1 0x64 PUSH2 0x90F SWAP2 SWAP1 PUSH2 0x1209 JUMP JUMPDEST PUSH1 0x7 SLOAD PUSH2 0x91C SWAP2 SWAP1 PUSH2 0x1222 JUMP JUMPDEST PUSH2 0x926 SWAP2 SWAP1 PUSH2 0x1239 JUMP JUMPDEST SWAP1 POP PUSH0 PUSH8 0xDE0B6B3A7640000 PUSH2 0x93C DUP4 DUP7 PUSH2 0x1222 JUMP JUMPDEST PUSH2 0x946 SWAP2 SWAP1 PUSH2 0x1239 JUMP JUMPDEST PUSH1 0x3 SLOAD PUSH1 0x40 MLOAD PUSH4 0x70A08231 PUSH1 0xE0 SHL DUP2 MSTORE ADDRESS PUSH1 0x4 DUP3 ADD MSTORE SWAP2 SWAP3 POP PUSH0 SWAP2 PUSH1 0x1 PUSH1 0x1 PUSH1 0xA0 SHL SUB SWAP1 SWAP2 AND SWAP1 PUSH4 0x70A08231 SWAP1 PUSH1 0x24 ADD PUSH1 0x20 PUSH1 0x40 MLOAD DUP1 DUP4 SUB DUP2 DUP7 GAS STATICCALL ISZERO DUP1 ISZERO PUSH2 0x991 JUMPI RETURNDATASIZE PUSH0 PUSH0 RETURNDATACOPY RETURNDATASIZE PUSH0 REVERT JUMPDEST POP POP POP POP PUSH1 0x40 MLOAD RETURNDATASIZE PUSH1 0x1F NOT PUSH1 0x1F DUP3 ADD AND DUP3 ADD DUP1 PUSH1 0x40 MSTORE POP DUP2 ADD SWAP1 PUSH2 0x9B5 SWAP2 SWAP1 PUSH2 0x1195 JUMP JUMPDEST SWAP2 SWAP1 SWAP2 LT ISZERO SWAP5 SWAP4 POP POP POP POP JUMP JUMPDEST PUSH1 0x2 SLOAD PUSH1 0x1 PUSH1 0x1 PUSH1 0xA0 SHL SUB AND CALLER EQ PUSH2 0x9EC JUMPI PUSH1 0x40 MLOAD PUSH3 0x461BCD PUSH1 0xE5 SHL DUP2 MSTORE PUSH1 0x4 ADD PUSH2 0x2D5 SWAP1 PUSH2 0x116D JUMP JUMPDEST PUSH2 0x4E0 PUSH2 0x105F JUMP JUMPDEST PUSH1 0x2 SLOAD PUSH1 0x1 PUSH1 0x1 PUSH1 0xA0 SHL SUB AND CALLER EQ PUSH2 0xA1E JUMPI PUSH1 0x40 MLOAD PUSH3 0x461BCD PUSH1 0xE5 SHL DUP2 MSTORE PUSH1 0x4 ADD PUSH2 0x2D5 SWAP1 PUSH2 0x116D JUMP JUMPDEST PUSH0 SLOAD PUSH1 0xFF AND ISZERO PUSH2 0xA40 JUMPI PUSH1 0x40 MLOAD PUSH3 0x461BCD PUSH1 0xE5 SHL DUP2 MSTORE PUSH1 0x4 ADD PUSH2 0x2D5 SWAP1 PUSH2 0x11CB JUMP JUMPDEST PUSH0 DUP2 GT PUSH2 0xA85 JUMPI PUSH1 0x40 MLOAD PUSH3 0x461BCD PUSH1 0xE5 SHL DUP2 MSTORE PUSH1 0x20 PUSH1 0x4 DUP3 ADD MSTORE PUSH1 0x13 PUSH1 0x24 DUP3 ADD MSTORE PUSH19 0x4465706F736974206D757374206265203E203 PUSH1 0x6C SHL PUSH1 0x44 DUP3 ADD MSTORE PUSH1 0x64 ADD PUSH2 0x2D5 JUMP JUMPDEST PUSH1 0x3 SLOAD PUSH1 0x40 MLOAD PUSH4 0x23B872DD PUSH1 0xE0 SHL DUP2 MSTORE CALLER PUSH1 0x4 DUP3 ADD MSTORE ADDRESS PUSH1 0x24 DUP3 ADD MSTORE PUSH1 0x44 DUP2 ADD DUP4 SWAP1 MSTORE PUSH0 SWAP2 PUSH1 0x1 PUSH1 0x1 PUSH1 0xA0 SHL SUB AND SWAP1 PUSH4 0x23B872DD SWAP1 PUSH1 0x64 ADD PUSH1 0x20 PUSH1 0x40 MLOAD DUP1 DUP4 SUB DUP2 PUSH0 DUP8 GAS CALL ISZERO DUP1 ISZERO PUSH2 0xAD9 JUMPI RETURNDATASIZE PUSH0 PUSH0 RETURNDATACOPY RETURNDATASIZE PUSH0 REVERT JUMPDEST POP POP POP POP PUSH1 0x40 MLOAD RETURNDATASIZE PUSH1 0x1F NOT PUSH1 0x1F DUP3 ADD AND DUP3 ADD DUP1 PUSH1 0x40 MSTORE POP DUP2 ADD SWAP1 PUSH2 0xAFD SWAP2 SWAP1 PUSH2 0x11AC JUMP JUMPDEST SWAP1 POP DUP1 PUSH2 0xB4C JUMPI PUSH1 0x40 MLOAD PUSH3 0x461BCD PUSH1 0xE5 SHL DUP2 MSTORE PUSH1 0x20 PUSH1 0x4 DUP3 ADD MSTORE PUSH1 0x1C PUSH1 0x24 DUP3 ADD MSTORE PUSH32 0x5061796D656E7420746F6B656E206465706F736974206661696C656400000000 PUSH1 0x44 DUP3 ADD MSTORE PUSH1 0x64 ADD PUSH2 0x2D5 JUMP JUMPDEST POP POP JUMP JUMPDEST PUSH1 0x3 SLOAD PUSH1 0x40 MLOAD PUSH4 0x70A08231 PUSH1 0xE0 SHL DUP2 MSTORE ADDRESS PUSH1 0x4 DUP3 ADD MSTORE PUSH0 SWAP2 PUSH1 0x1 PUSH1 0x1 PUSH1 0xA0 SHL SUB AND SWAP1 PUSH4 0x70A08231 SWAP1 PUSH1 0x24 ADD PUSH1 0x20 PUSH1 0x40 MLOAD DUP1 DUP4 SUB DUP2 DUP7 GAS STATICCALL ISZERO DUP1 ISZERO PUSH2 0xB96 JUMPI RETURNDATASIZE PUSH0 PUSH0 RETURNDATACOPY RETURNDATASIZE PUSH0 REVERT JUMPDEST POP POP POP POP PUSH1 0x40 MLOAD RETURNDATASIZE PUSH1 0x1F NOT PUSH1 0x1F DUP3 ADD AND DUP3 ADD DUP1 PUSH1 0x40 MSTORE POP DUP2 ADD SWAP1 PUSH2 0xBBA SWAP2 SWAP1 PUSH2 0x1195 JUMP JUMPDEST SWAP1 POP SWAP1 JUMP JUMPDEST PUSH1 0x2 SLOAD PUSH1 0x1 PUSH1 0x1 PUSH1 0xA0 SHL SUB AND CALLER EQ PUSH2 0xBE9 JUMPI PUSH1 0x40 MLOAD PUSH3 0x461BCD PUSH1 0xE5 SHL DUP2 MSTORE PUSH1 0x4 ADD PUSH2 0x2D5 SWAP1 PUSH2 0x116D JUMP JUMPDEST PUSH2 0x3E8 DUP2 GT ISZERO PUSH2 0xC2A JUMPI PUSH1 0x40 MLOAD PUSH3 0x461BCD PUSH1 0xE5 SHL DUP2 MSTORE PUSH1 0x20 PUSH1 0x4 DUP3 ADD MSTORE PUSH1 0xC PUSH1 0x24 DUP3 ADD MSTORE PUSH12 0xA8C2F040E8DEDE40D0D2CED PUSH1 0xA3 SHL PUSH1 0x44 DUP3 ADD MSTORE PUSH1 0x64 ADD PUSH2 0x2D5 JUMP JUMPDEST PUSH1 0x8 SLOAD PUSH1 0x40 DUP1 MLOAD SWAP2 DUP3 MSTORE PUSH1 0x20 DUP3 ADD DUP4 SWAP1 MSTORE PUSH32 0xA8EE157EB2A9AA895D74DF4D2D3BC0AD165FF3162F8EC46A4ECF602DD5C48FDA SWAP2 ADD PUSH1 0x40 MLOAD DUP1 SWAP2 SUB SWAP1 LOG1 PUSH1 0x8 SSTORE JUMP JUMPDEST PUSH1 0x3 SLOAD PUSH1 0x40 MLOAD PUSH4 0x70A08231 PUSH1 0xE0 SHL DUP2 MSTORE ADDRESS PUSH1 0x4 DUP3 ADD MSTORE PUSH0 SWAP2 DUP3 SWAP2 PUSH1 0x1 PUSH1 0x1 PUSH1 0xA0 SHL SUB SWAP1 SWAP2 AND SWAP1 PUSH4 0x70A08231 SWAP1 PUSH1 0x24 ADD PUSH1 0x20 PUSH1 0x40 MLOAD DUP1 DUP4 SUB DUP2 DUP7 GAS STATICCALL ISZERO DUP1 ISZERO PUSH2 0xCB5 JUMPI RETURNDATASIZE PUSH0 PUSH0 RETURNDATACOPY RETURNDATASIZE PUSH0 REVERT JUMPDEST POP POP POP POP PUSH1 0x40 MLOAD RETURNDATASIZE PUSH1 0x1F NOT PUSH1 0x1F DUP3 ADD AND DUP3 ADD DUP1 PUSH1 0x40 MSTORE POP DUP2 ADD SWAP1 PUSH2 0xCD9 SWAP2 SWAP1 PUSH2 0x1195 JUMP JUMPDEST SWAP1 POP PUSH0 PUSH1 0x64 PUSH1 0x6 SLOAD PUSH1 0x64 PUSH2 0xCED SWAP2 SWAP1 PUSH2 0x1209 JUMP JUMPDEST PUSH1 0x7 SLOAD PUSH2 0xCFA SWAP2 SWAP1 PUSH2 0x1222 JUMP JUMPDEST PUSH2 0xD04 SWAP2 SWAP1 PUSH2 0x1239 JUMP JUMPDEST SWAP1 POP DUP1 PUSH0 SUB PUSH2 0xD15 JUMPI PUSH0 SWAP3 POP POP POP SWAP1 JUMP JUMPDEST DUP1 PUSH2 0xD28 DUP4 PUSH8 0xDE0B6B3A7640000 PUSH2 0x1222 JUMP JUMPDEST PUSH2 0xD32 SWAP2 SWAP1 PUSH2 0x1239 JUMP JUMPDEST SWAP3 POP POP POP SWAP1 JUMP JUMPDEST PUSH1 0x2 SLOAD PUSH1 0x1 PUSH1 0x1 PUSH1 0xA0 SHL SUB AND CALLER EQ PUSH2 0xD63 JUMPI PUSH1 0x40 MLOAD PUSH3 0x461BCD PUSH1 0xE5 SHL DUP2 MSTORE PUSH1 0x4 ADD PUSH2 0x2D5 SWAP1 PUSH2 0x116D JUMP JUMPDEST PUSH1 0x1 PUSH1 0x1 PUSH1 0xA0 SHL SUB DUP2 AND PUSH2 0xDAB JUMPI PUSH1 0x40 MLOAD PUSH3 0x461BCD PUSH1 0xE5 SHL DUP2 MSTORE PUSH1 0x20 PUSH1 0x4 DUP3 ADD MSTORE PUSH1 0xF PUSH1 0x24 DUP3 ADD MSTORE PUSH15 0x496E76616C69642061646472657373 PUSH1 0x88 SHL PUSH1 0x44 DUP3 ADD MSTORE PUSH1 0x64 ADD PUSH2 0x2D5 JUMP JUMPDEST PUSH1 0x5 SLOAD PUSH1 0x40 MLOAD PUSH1 0x1 PUSH1 0x1 PUSH1 0xA0 SHL SUB DUP1 DUP5 AND SWAP3 AND SWAP1 PUSH32 0xB4281BB17CDC594E3CF6D419DA95F70A6B02D856B26438D381EE1246A8E89F12 SWAP1 PUSH0 SWAP1 LOG3 PUSH1 0x5 DUP1 SLOAD PUSH1 0x1 PUSH1 0x1 PUSH1 0xA0 SHL SUB NOT AND PUSH1 0x1 PUSH1 0x1 PUSH1 0xA0 SHL SUB SWAP3 SWAP1 SWAP3 AND SWAP2 SWAP1 SWAP2 OR SWAP1 SSTORE JUMP JUMPDEST PUSH1 0x2 SLOAD PUSH1 0x1 PUSH1 0x1 PUSH1 0xA0 SHL SUB AND CALLER EQ PUSH2 0xE30 JUMPI PUSH1 0x40 MLOAD PUSH3 0x461BCD PUSH1 0xE5 SHL DUP2 MSTORE PUSH1 0x4 ADD PUSH2 0x2D5 SWAP1 PUSH2 0x116D JUMP JUMPDEST PUSH1 0x1 PUSH1 0x1 PUSH1 0xA0 SHL SUB DUP2 AND PUSH2 0xE86 JUMPI PUSH1 0x40 MLOAD PUSH3 0x461BCD PUSH1 0xE5 SHL DUP2 MSTORE PUSH1 0x20 PUSH1 0x4 DUP3 ADD DUP2 SWAP1 MSTORE PUSH1 0x24 DUP3 ADD MSTORE PUSH32 0x4E6577206F776E65722063616E6E6F74206265207A65726F2061646472657373 PUSH1 0x44 DUP3 ADD MSTORE PUSH1 0x64 ADD PUSH2 0x2D5 JUMP JUMPDEST PUSH1 0x2 SLOAD PUSH1 0x40 MLOAD PUSH1 0x1 PUSH1 0x1 PUSH1 0xA0 SHL SUB DUP1 DUP5 AND SWAP3 AND SWAP1 PUSH32 0x8BE0079C531659141344CD1FD0A4F28419497F9722A3DAAFE3B4186F6B6457E0 SWAP1 PUSH0 SWAP1 LOG3 PUSH1 0x2 DUP1 SLOAD PUSH1 0x1 PUSH1 0x1 PUSH1 0xA0 SHL SUB NOT AND PUSH1 0x1 PUSH1 0x1 PUSH1 0xA0 SHL SUB SWAP3 SWAP1 SWAP3 AND SWAP2 SWAP1 SWAP2 OR SWAP1 SSTORE JUMP JUMPDEST PUSH0 SLOAD PUSH1 0xFF AND PUSH2 0xF29 JUMPI PUSH1 0x40 MLOAD PUSH3 0x461BCD PUSH1 0xE5 SHL DUP2 MSTORE PUSH1 0x20 PUSH1 0x4 DUP3 ADD MSTORE PUSH1 0x14 PUSH1 0x24 DUP3 ADD MSTORE PUSH20 0x14185D5CD8589B194E881B9BDD081C185D5CD959 PUSH1 0x62 SHL PUSH1 0x44 DUP3 ADD MSTORE PUSH1 0x64 ADD PUSH2 0x2D5 JUMP JUMPDEST PUSH0 DUP1 SLOAD PUSH1 0xFF NOT AND SWAP1 SSTORE PUSH1 0x40 MLOAD CALLER DUP2 MSTORE PUSH32 0x5DB9EE0A495BF2E6FF9C91A7834C1BA4FDD244A5E8AA4E537BD38AEAE4B073AA SWAP1 PUSH1 0x20 ADD JUMPDEST PUSH1 0x40 MLOAD DUP1 SWAP2 SUB SWAP1 LOG1 JUMP JUMPDEST PUSH1 0x2 PUSH1 0x1 SLOAD SUB PUSH2 0xFBA JUMPI PUSH1 0x40 MLOAD PUSH3 0x461BCD PUSH1 0xE5 SHL DUP2 MSTORE PUSH1 0x20 PUSH1 0x4 DUP3 ADD MSTORE PUSH1 0x1F PUSH1 0x24 DUP3 ADD MSTORE PUSH32 0x5265656E7472616E637947756172643A207265656E7472616E742063616C6C00 PUSH1 0x44 DUP3 ADD MSTORE PUSH1 0x64 ADD PUSH2 0x2D5 JUMP JUMPDEST PUSH1 0x2 PUSH1 0x1 SSTORE JUMP JUMPDEST PUSH1 0x40 MLOAD PUSH1 0x1 PUSH1 0x1 PUSH1 0xA0 SHL SUB DUP5 DUP2 AND PUSH1 0x24 DUP4 ADD MSTORE DUP4 DUP2 AND PUSH1 0x44 DUP4 ADD MSTORE PUSH1 0x64 DUP3 ADD DUP4 SWAP1 MSTORE PUSH2 0x1028 SWAP2 DUP7 SWAP2 DUP3 AND SWAP1 PUSH4 0x23B872DD SWAP1 PUSH1 0x84 ADD JUMPDEST PUSH1 0x40 MLOAD PUSH1 0x20 DUP2 DUP4 SUB SUB DUP2 MSTORE SWAP1 PUSH1 0x40 MSTORE SWAP2 POP PUSH1 0xE0 SHL PUSH1 0x20 DUP3 ADD DUP1 MLOAD PUSH1 0x1 PUSH1 0x1 PUSH1 0xE0 SHL SUB DUP4 DUP2 DUP4 AND OR DUP4 MSTORE POP POP POP POP PUSH2 0x10BD JUMP JUMPDEST POP POP POP POP JUMP JUMPDEST PUSH1 0x40 MLOAD PUSH1 0x1 PUSH1 0x1 PUSH1 0xA0 SHL SUB DUP4 DUP2 AND PUSH1 0x24 DUP4 ADD MSTORE PUSH1 0x44 DUP3 ADD DUP4 SWAP1 MSTORE PUSH2 0x4A9 SWAP2 DUP6 SWAP2 DUP3 AND SWAP1 PUSH4 0xA9059CBB SWAP1 PUSH1 0x64 ADD PUSH2 0xFF6 JUMP JUMPDEST PUSH0 SLOAD PUSH1 0xFF AND ISZERO PUSH2 0x1081 JUMPI PUSH1 0x40 MLOAD PUSH3 0x461BCD PUSH1 0xE5 SHL DUP2 MSTORE PUSH1 0x4 ADD PUSH2 0x2D5 SWAP1 PUSH2 0x11CB JUMP JUMPDEST PUSH0 DUP1 SLOAD PUSH1 0xFF NOT AND PUSH1 0x1 OR SWAP1 SSTORE PUSH1 0x40 MLOAD CALLER DUP2 MSTORE PUSH32 0x62E78CEA01BEE320CD4E420270B5EA74000D11B0C9F74754EBDBFC544B05A258 SWAP1 PUSH1 0x20 ADD PUSH2 0xF5E JUMP JUMPDEST PUSH0 PUSH0 PUSH1 0x20 PUSH0 DUP5 MLOAD PUSH1 0x20 DUP7 ADD PUSH0 DUP9 GAS CALL DUP1 PUSH2 0x10DC JUMPI PUSH1 0x40 MLOAD RETURNDATASIZE PUSH0 DUP3 RETURNDATACOPY RETURNDATASIZE DUP2 REVERT JUMPDEST POP POP PUSH0 MLOAD RETURNDATASIZE SWAP2 POP DUP2 ISZERO PUSH2 0x10F3 JUMPI DUP1 PUSH1 0x1 EQ ISZERO PUSH2 0x1100 JUMP JUMPDEST PUSH1 0x1 PUSH1 0x1 PUSH1 0xA0 SHL SUB DUP5 AND EXTCODESIZE ISZERO JUMPDEST ISZERO PUSH2 0x1028 JUMPI PUSH1 0x40 MLOAD PUSH4 0x5274AFE7 PUSH1 0xE0 SHL DUP2 MSTORE PUSH1 0x1 PUSH1 0x1 PUSH1 0xA0 SHL SUB DUP6 AND PUSH1 0x4 DUP3 ADD MSTORE PUSH1 0x24 ADD PUSH2 0x2D5 JUMP JUMPDEST PUSH0 PUSH1 0x20 DUP3 DUP5 SUB SLT ISZERO PUSH2 0x1139 JUMPI PUSH0 PUSH0 REVERT JUMPDEST POP CALLDATALOAD SWAP2 SWAP1 POP JUMP JUMPDEST PUSH0 PUSH1 0x20 DUP3 DUP5 SUB SLT ISZERO PUSH2 0x1150 JUMPI PUSH0 PUSH0 REVERT JUMPDEST DUP2 CALLDATALOAD PUSH1 0x1 PUSH1 0x1 PUSH1 0xA0 SHL SUB DUP2 AND DUP2 EQ PUSH2 0x1166 JUMPI PUSH0 PUSH0 REVERT JUMPDEST SWAP4 SWAP3 POP POP POP JUMP JUMPDEST PUSH1 0x20 DUP1 DUP3 MSTORE PUSH1 0xE SWAP1 DUP3 ADD MSTORE PUSH14 0x139BDD08185D5D1A1BDC9A5E9959 PUSH1 0x92 SHL PUSH1 0x40 DUP3 ADD MSTORE PUSH1 0x60 ADD SWAP1 JUMP JUMPDEST PUSH0 PUSH1 0x20 DUP3 DUP5 SUB SLT ISZERO PUSH2 0x11A5 JUMPI PUSH0 PUSH0 REVERT JUMPDEST POP MLOAD SWAP2 SWAP1 POP JUMP JUMPDEST PUSH0 PUSH1 0x20 DUP3 DUP5 SUB SLT ISZERO PUSH2 0x11BC JUMPI PUSH0 PUSH0 REVERT JUMPDEST DUP2 MLOAD DUP1 ISZERO ISZERO DUP2 EQ PUSH2 0x1166 JUMPI PUSH0 PUSH0 REVERT JUMPDEST PUSH1 0x20 DUP1 DUP3 MSTORE PUSH1 0x10 SWAP1 DUP3 ADD MSTORE PUSH16 0x14185D5CD8589B194E881C185D5CD959 PUSH1 0x82 SHL PUSH1 0x40 DUP3 ADD MSTORE PUSH1 0x60 ADD SWAP1 JUMP JUMPDEST PUSH4 0x4E487B71 PUSH1 0xE0 SHL PUSH0 MSTORE PUSH1 0x11 PUSH1 0x4 MSTORE PUSH1 0x24 PUSH0 REVERT JUMPDEST DUP1 DUP3 ADD DUP1 DUP3 GT ISZERO PUSH2 0x121C JUMPI PUSH2 0x121C PUSH2 0x11F5 JUMP JUMPDEST SWAP3 SWAP2 POP POP JUMP JUMPDEST DUP1 DUP3 MUL DUP2 ISZERO DUP3 DUP3 DIV DUP5 EQ OR PUSH2 0x121C JUMPI PUSH2 0x121C PUSH2 0x11F5 JUMP JUMPDEST PUSH0 DUP3 PUSH2 0x1253 JUMPI PUSH4 0x4E487B71 PUSH1 0xE0 SHL PUSH0 MSTORE PUSH1 0x12 PUSH1 0x4 MSTORE PUSH1 0x24 PUSH0 REVERT JUMPDEST POP DIV SWAP1 JUMP JUMPDEST DUP2 DUP2 SUB DUP2 DUP2 GT ISZERO PUSH2 0x121C JUMPI PUSH2 0x121C PUSH2 0x11F5 JUMP INVALID LOG2 PUSH5 0x6970667358 0x22 SLT KECCAK256 0xA5 0xB0 0xC7 DUP9 SELFDESTRUCT CALL PUSH31 0xCDC5CFAE3EA7428ED550F741409BDCEC4DFD35E0051F14D42D64736F6C6343 STOP ADDMOD SHR STOP CALLER "
				},
				"gasEstimates": {
					"creation": {
						"codeDepositCost": "953800",
						"executionCost": "infinite",
						"totalCost": "infinite"
					},
					"external": {
						"buyback(uint256)": "infinite",
						"canExecuteBuyback(uint256)": "infinite",
						"contractTokenBalance()": "infinite",
						"depositPaymentToken(uint256)": "infinite",
						"gasReserve()": "2435",
						"maxBuyableRoboMoney()": "infinite",
						"owner()": "2392",
						"pause()": "29768",
						"paused()": "2381",
						"paymentToken()": "2371",
						"premiumRate()": "2406",
						"roboMoney()": "2414",
						"setGasReserve(address)": "30428",
						"setPremiumRate(uint256)": "24599",
						"setTargetPrice(uint256)": "24485",
						"setTaxRate(uint256)": "27947",
						"targetPrice()": "2382",
						"taxRate()": "2339",
						"transferOwnership(address)": "30494",
						"unpause()": "29771",
						"withdrawPaymentToken(uint256)": "infinite"
					}
				},
				"methodIdentifiers": {
					"buyback(uint256)": "79a9fa1c",
					"canExecuteBuyback(uint256)": "839ea2d9",
					"contractTokenBalance()": "9e9aed62",
					"depositPaymentToken(uint256)": "9063ee20",
					"gasReserve()": "eea7570e",
					"maxBuyableRoboMoney()": "ce1d1f1f",
					"owner()": "8da5cb5b",
					"pause()": "8456cb59",
					"paused()": "5c975abb",
					"paymentToken()": "3013ce29",
					"premiumRate()": "5d0040d3",
					"roboMoney()": "7ef7ba20",
					"setGasReserve(address)": "d4a49c17",
					"setPremiumRate(uint256)": "7ff8b57a",
					"setTargetPrice(uint256)": "6a64eff8",
					"setTaxRate(uint256)": "c6d69a30",
					"targetPrice()": "dc38679c",
					"taxRate()": "771a3a1d",
					"transferOwnership(address)": "f2fde38b",
					"unpause()": "3f4ba83a",
					"withdrawPaymentToken(uint256)": "07e675fa"
				}
			},
			"storageLayout": {
				"storage": [
					{
						"astId": 949,
						"contract": "contracts/buy_back.sol:BuyBack",
						"label": "_paused",
						"offset": 0,
						"slot": "0",
						"type": "t_bool"
					},
					{
						"astId": 100,
						"contract": "contracts/buy_back.sol:BuyBack",
						"label": "_status",
						"offset": 0,
						"slot": "1",
						"type": "t_uint256"
					},
					{
						"astId": 1094,
						"contract": "contracts/buy_back.sol:BuyBack",
						"label": "owner",
						"offset": 0,
						"slot": "2",
						"type": "t_address"
					},
					{
						"astId": 1096,
						"contract": "contracts/buy_back.sol:BuyBack",
						"label": "paymentToken",
						"offset": 0,
						"slot": "3",
						"type": "t_address"
					},
					{
						"astId": 1098,
						"contract": "contracts/buy_back.sol:BuyBack",
						"label": "roboMoney",
						"offset": 0,
						"slot": "4",
						"type": "t_address"
					},
					{
						"astId": 1100,
						"contract": "contracts/buy_back.sol:BuyBack",
						"label": "gasReserve",
						"offset": 0,
						"slot": "5",
						"type": "t_address"
					},
					{
						"astId": 1102,
						"contract": "contracts/buy_back.sol:BuyBack",
						"label": "premiumRate",
						"offset": 0,
						"slot": "6",
						"type": "t_uint256"
					},
					{
						"astId": 1104,
						"contract": "contracts/buy_back.sol:BuyBack",
						"label": "targetPrice",
						"offset": 0,
						"slot": "7",
						"type": "t_uint256"
					},
					{
						"astId": 1106,
						"contract": "contracts/buy_back.sol:BuyBack",
						"label": "taxRate",
						"offset": 0,
						"slot": "8",
						"type": "t_uint256"
					}
				],
				"types": {
					"t_address": {
						"encoding": "inplace",
						"label": "address",
						"numberOfBytes": "20"
					},
					"t_bool": {
						"encoding": "inplace",
						"label": "bool",
						"numberOfBytes": "1"
					},
					"t_uint256": {
						"encoding": "inplace",
						"label": "uint256",
						"numberOfBytes": "32"
					}
				}
			},
			"userdoc": {
				"kind": "user",
				"methods": {
					"buyback(uint256)": {
						"notice": "Buys back RoboMoney from msg.sender at the configured premium rate, paying out the specified ERC20 paymentToken, and then burns the RoboMoney."
					}
				},
				"version": 1
			}
		}
	}
}