{
	"data": {
		"bytecode": {
			"linkReferences": {},
			"object": "6101606040526009805460ff1916905534801561001a575f5ffd5b5060405161238c38038061238c833981016040819052610039916102c4565b60405180604001604052806009815260200168526f626f4d6f6e657960b81b81525080604051806040016040528060018152602001603160f81b8152508360405180604001604052806009815260200168526f626f4d6f6e657960b81b8152506040518060400160405280600f81526020016e726f626f6d6f6e65795f616c70686160881b81525081600390816100d09190610389565b5060046100dd8282610389565b5050506001600160a01b03811661010e57604051631e4fbdf760e01b81525f60048201526024015b60405180910390fd5b61011781610204565b50610123826006610255565b61012052610132816007610255565b61014052815160208084019190912060e052815190820120610100524660a0526101be60e05161010051604080517f8b73c3c69bb8fe3d512ecc4cf759cc79239f7b179b0ffacaa9a75d522b39400f60208201529081019290925260608201524660808201523060a08201525f9060c00160405160208183030381529060405280519060200120905090565b60805250503060c0525060098054610100600160a81b0319166101006001600160a01b0393909316928302179055600a80546001600160a01b031916909117905561049b565b600580546001600160a01b038381166001600160a01b0319831681179093556040519116919082907f8be0079c531659141344cd1fd0a4f28419497f9722a3daafe3b4186f6b6457e0905f90a35050565b5f6020835110156102705761026983610287565b9050610281565b8161027b8482610389565b5060ff90505b92915050565b5f5f829050601f815111156102b1578260405163305a27a960e01b81526004016101059190610443565b80516102bc82610478565b179392505050565b5f602082840312156102d4575f5ffd5b81516001600160a01b03811681146102ea575f5ffd5b9392505050565b634e487b7160e01b5f52604160045260245ffd5b600181811c9082168061031957607f821691505b60208210810361033757634e487b7160e01b5f52602260045260245ffd5b50919050565b601f82111561038457805f5260205f20601f840160051c810160208510156103625750805b601f840160051c820191505b81811015610381575f815560010161036e565b50505b505050565b81516001600160401b038111156103a2576103a26102f1565b6103b6816103b08454610305565b8461033d565b6020601f8211600181146103e8575f83156103d15750848201515b5f19600385901b1c1916600184901b178455610381565b5f84815260208120601f198516915b8281101561041757878501518255602094850194600190920191016103f7565b508482101561043457868401515f19600387901b60f8161c191681555b50505050600190811b01905550565b602081525f82518060208401528060208501604085015e5f604082850101526040601f19601f83011684010191505092915050565b80516020808301519190811015610337575f1960209190910360031b1b16919050565b60805160a05160c05160e051610100516101205161014051611ea06104ec5f395f61163201525f61160501525f61155d01525f61153501525f61149001525f6114ba01525f6114e40152611ea05ff3fe608060405234801561000f575f5ffd5b5060043610610233575f3560e01c80637ecebe0011610135578063a9059cbb116100b4578063dd62ed3e11610079578063dd62ed3e146104cc578063df136d6514610504578063e49bcc881461050d578063e56a9ed114610525578063f2fde38b14610538575f5ffd5b8063a9059cbb14610482578063c8f33c9114610495578063cd3daf9d1461049e578063d505accf146104a6578063d9e63bb1146104b9575f5ffd5b80638e0fc6e9116100fa5780638e0fc6e91461043957806395d89b41146104415780639a303684146104495780639dc29fac1461045c578063a694fc3a1461046f575f5ffd5b80637ecebe00146103d2578063817b1cd2146103e557806384b0196e146103ee5780638b876347146104095780638da5cb5b14610428575f5ffd5b80632e17de78116101c157806342966c681161018657806342966c681461037357806370a0823114610386578063715018a6146103ae57806379cc6790146103b65780637b0a47ee146103c9575f5ffd5b80632e17de781461032e578063313ce567146103415780633644e51514610350578063372500ab1461035857806340c10f1914610360575f5ffd5b80630ab114f9116102075780630ab114f9146102b457806316934fc4146102c957806318160ddd146102e8578063227c749c146102f057806323b872dd1461031b575f5ffd5b80628cc2621461023757806306fdde031461025d5780630700037d14610272578063095ea7b314610291575b5f5ffd5b61024a610245366004611b50565b61054b565b6040519081526020015b60405180910390f35b6102656105c6565b6040516102549190611b9e565b61024a610280366004611b50565b60116020525f908152604090205481565b6102a461029f366004611bb0565b610656565b6040519015158152602001610254565b6102c76102c2366004611bd8565b61066d565b005b61024a6102d7366004611b50565b600f6020525f908152604090205481565b60025461024a565b600a54610303906001600160a01b031681565b6040516001600160a01b039091168152602001610254565b6102a4610329366004611bef565b6108ad565b6102c761033c366004611bd8565b6108d0565b60405160128152602001610254565b61024a610a44565b6102c7610a52565b6102c761036e366004611bb0565b610b4c565b6102c7610381366004611bd8565b610bfb565b61024a610394366004611b50565b6001600160a01b03165f9081526020819052604090205490565b6102c7610c08565b6102c76103c4366004611bb0565b610c1b565b61024a600c5481565b61024a6103e0366004611b50565b610c30565b61024a600b5481565b6103f6610c4d565b6040516102549796959493929190611c29565b61024a610417366004611b50565b60106020525f908152604090205481565b6005546001600160a01b0316610303565b61024a610c8f565b610265610cc2565b6102c7610457366004611b50565b610cd1565b6102c761046a366004611bb0565b610d51565b6102c761047d366004611bd8565b610ded565b6102a4610490366004611bb0565b610f4d565b61024a600d5481565b61024a610f5a565b6102c76104b4366004611cbf565b610fba565b6102c76104c7366004611bd8565b6110f0565b61024a6104da366004611d2c565b6001600160a01b039182165f90815260016020908152604080832093909416825291909152205490565b61024a600e5481565b6009546103039061010090046001600160a01b031681565b6102c7610533366004611b50565b6111ba565b6102c7610546366004611b50565b611271565b6001600160a01b0381165f908152601160209081526040808320546010909252822054670de0b6b3a764000090610580610f5a565b61058a9190611d71565b6001600160a01b0385165f908152600f60205260409020546105ac9190611d84565b6105b69190611d9b565b6105c09190611dba565b92915050565b6060600380546105d590611dcd565b80601f016020809104026020016040519081016040528092919081815260200182805461060190611dcd565b801561064c5780601f106106235761010080835404028352916020019161064c565b820191905f5260205f20905b81548152906001019060200180831161062f57829003601f168201915b5050505050905090565b5f336106638185856112ab565b5060019392505050565b6106756112bd565b5f61067e610f5a565b600e5542600d556001600160a01b038116156106c85761069d8161054b565b6001600160a01b0382165f90815260116020908152604080832093909355600e546010909152919020555b815f0361071c5760405162461bcd60e51b815260206004820152601a60248201527f52656261736520726174652063616e6e6f74206265207a65726f00000000000060448201526064015b60405180910390fd5b5f61072660025490565b90505f5f841315610768575f620f42406107408685611d84565b61074a9190611d9b565b90506107568184611dba565b915061076230826112ea565b50610866565b5f620f424061077686611e05565b6107809085611d84565b61078a9190611d9b565b90505f610795610c8f565b9050818110156107e75760405162461bcd60e51b815260206004820152601c60248201527f496e73756666696369656e74207265776172647320746f206275726e000000006044820152606401610713565b8184116107f4575f6107fe565b6107fe8285611d71565b92505f83116108595760405162461bcd60e51b815260206004820152602160248201527f546f74616c20737570706c79206d7573742072656d61696e20706f73697469766044820152606560f81b6064820152608401610713565b610863308361131e565b50505b61086e611352565b60408051858152602081018390527fa014a2a01abec59b9c83e6461d1a6826c67c124614b88f84c882d53f70d966d3910160405180910390a150505050565b5f336108ba8582856113ac565b6108c5858585611427565b506001949350505050565b336108d9610f5a565b600e5542600d556001600160a01b03811615610923576108f88161054b565b6001600160a01b0382165f90815260116020908152604080832093909355600e546010909152919020555b5f82116109655760405162461bcd60e51b815260206004820152601060248201526f043616e6e6f7420756e7374616b6520360841b6044820152606401610713565b335f908152600f60205260409020548211156109c35760405162461bcd60e51b815260206004820152601f60248201527f43616e6e6f7420756e7374616b65206d6f7265207468616e207374616b6564006044820152606401610713565b335f908152600f6020526040812080548492906109e1908490611d71565b9250508190555081600b5f8282546109f99190611d71565b90915550610a0a9050303384611427565b60405182815233907f85082129d87b2fe11527cb1b3b7a520aeb5aa6913f88a3d8757fe40d1db02fdd906020015b60405180910390a25050565b5f610a4d611484565b905090565b33610a5b610f5a565b600e5542600d556001600160a01b03811615610aa557610a7a8161054b565b6001600160a01b0382165f90815260116020908152604080832093909355600e546010909152919020555b610aad611352565b335f9081526011602052604090205480610aff5760405162461bcd60e51b81526020600482015260136024820152724e6f207265776172647320746f20636c61696d60681b6044820152606401610713565b335f81815260116020526040812055610b1a90309083611427565b60405181815233907f1f89f96333d3133000ee447473151fa9606543368f02271c9d95ae14f13bcc6790602001610a38565b6005546001600160a01b0316331480610b74575060095461010090046001600160a01b031633145b610b905760405162461bcd60e51b815260040161071390611e1f565b5f8111610bed5760405162461bcd60e51b815260206004820152602560248201527f4d696e7420616d6f756e74206d7573742062652067726561746572207468616e604482015264207a65726f60d81b6064820152608401610713565b610bf782826112ea565b5050565b610c05338261131e565b50565b610c106112bd565b610c195f6115ad565b565b610c268233836113ac565b610bf7828261131e565b6001600160a01b0381165f908152600860205260408120546105c0565b5f6060805f5f5f6060610c5e6115fe565b610c6661162b565b604080515f80825260208201909252600f60f81b9b939a50919850469750309650945092509050565b305f90815260208190526040812054600b5480821115610cba57610cb38183611d71565b9250505090565b5f9250505090565b6060600480546105d590611dcd565b610cd96112bd565b6001600160a01b038116610d2f5760405162461bcd60e51b815260206004820181905260248201527f496e76616c6964206275796261636b20636f6e747261637420616464726573736044820152606401610713565b600a80546001600160a01b0319166001600160a01b0392909216919091179055565b6005546001600160a01b0316331480610d745750600a546001600160a01b031633145b610d905760405162461bcd60e51b815260040161071390611e1f565b5f8111610c265760405162461bcd60e51b815260206004820152602560248201527f4275726e20616d6f756e74206d7573742062652067726561746572207468616e604482015264207a65726f60d81b6064820152608401610713565b33610df6610f5a565b600e5542600d556001600160a01b03811615610e4057610e158161054b565b6001600160a01b0382165f90815260116020908152604080832093909355600e546010909152919020555b5f8211610e805760405162461bcd60e51b815260206004820152600e60248201526d043616e6e6f74207374616b6520360941b6044820152606401610713565b335f90815260208190526040902054821115610ed55760405162461bcd60e51b8152602060048201526014602482015273496e73756666696369656e742062616c616e636560601b6044820152606401610713565b610ee0333084611427565b335f908152600f602052604081208054849290610efe908490611dba565b9250508190555081600b5f828254610f169190611dba565b909155505060405182815233907febedb8b3c678666e7f36970bc8f57abf6d8fa2e828c0da91ea5b75bf68ed101a90602001610a38565b5f33610663818585611427565b5f600b545f03610f6b5750600e5490565b5f600d5442610f7a9190611d71565b90505f600b54600c5483610f8e9190611d84565b610fa090670de0b6b3a7640000611d84565b610faa9190611d9b565b905080600e54610cb39190611dba565b83421115610fde5760405163313c898160e11b815260048101859052602401610713565b5f7f6e71edae12b1b97f4d1f60370fef10105fa2faae0126114a169c64845d6126c98888886110298c6001600160a01b03165f90815260086020526040902080546001810190915590565b6040805160208101969096526001600160a01b0394851690860152929091166060840152608083015260a082015260c0810186905260e0016040516020818303038152906040528051906020012090505f61108382611658565b90505f61109282878787611684565b9050896001600160a01b0316816001600160a01b0316146110d9576040516325c0072360e11b81526001600160a01b0380831660048301528b166024820152604401610713565b6110e48a8a8a6112ab565b50505050505050505050565b6005546001600160a01b0316331480611118575060095461010090046001600160a01b031633145b6111345760405162461bcd60e51b815260040161071390611e1f565b60095460ff16156111875760405162461bcd60e51b815260206004820152601a60248201527f537570706c7920616c726561647920696e697469616c697a65640000000000006044820152606401610713565b6009546111a29061010090046001600160a01b0316826112ea565b506009805460ff191660011790555f600e5542600d55565b6111c26112bd565b6001600160a01b0381166112185760405162461bcd60e51b815260206004820152601960248201527f496e76616c696420726563697069656e742061646472657373000000000000006044820152606401610713565b600980546001600160a01b03838116610100818102610100600160a81b031985161790945560405193909204169182907f4cc4248ac27ad92e14fb2f7aba38f441917171c041d0a883a56b3b58798dbe82905f90a35050565b6112796112bd565b6001600160a01b0381166112a257604051631e4fbdf760e01b81525f6004820152602401610713565b610c05816115ad565b6112b883838360016116b0565b505050565b6005546001600160a01b03163314610c195760405163118cdaa760e01b8152336004820152602401610713565b6001600160a01b0382166113135760405163ec442f0560e01b81525f6004820152602401610713565b610bf75f8383611782565b6001600160a01b03821661134757604051634b637e8f60e11b81525f6004820152602401610713565b610bf7825f83611782565b5f61135b610c8f565b905061136b6301e1338082611d9b565b600c81905560408051918252602082018390527ffcceac460a055190ae11d78fd7e26b1b65d10f82d2ccec3f13b7f2a3f183fb97910160405180910390a150565b6001600160a01b038381165f908152600160209081526040808320938616835292905220545f198114611421578181101561141357604051637dc7a0d960e11b81526001600160a01b03841660048201526024810182905260448101839052606401610713565b61142184848484035f6116b0565b50505050565b6001600160a01b03831661145057604051634b637e8f60e11b81525f6004820152602401610713565b6001600160a01b0382166114795760405163ec442f0560e01b81525f6004820152602401610713565b6112b8838383611782565b5f306001600160a01b037f0000000000000000000000000000000000000000000000000000000000000000161480156114dc57507f000000000000000000000000000000000000000000000000000000000000000046145b1561150657507f000000000000000000000000000000000000000000000000000000000000000090565b610a4d604080517f8b73c3c69bb8fe3d512ecc4cf759cc79239f7b179b0ffacaa9a75d522b39400f60208201527f0000000000000000000000000000000000000000000000000000000000000000918101919091527f000000000000000000000000000000000000000000000000000000000000000060608201524660808201523060a08201525f9060c00160405160208183030381529060405280519060200120905090565b600580546001600160a01b038381166001600160a01b0319831681179093556040519116919082907f8be0079c531659141344cd1fd0a4f28419497f9722a3daafe3b4186f6b6457e0905f90a35050565b6060610a4d7f000000000000000000000000000000000000000000000000000000000000000060066118a8565b6060610a4d7f000000000000000000000000000000000000000000000000000000000000000060076118a8565b5f6105c0611664611484565b8360405161190160f01b8152600281019290925260228201526042902090565b5f5f5f5f61169488888888611951565b9250925092506116a48282611a19565b50909695505050505050565b6001600160a01b0384166116d95760405163e602df0560e01b81525f6004820152602401610713565b6001600160a01b03831661170257604051634a1406b160e11b81525f6004820152602401610713565b6001600160a01b038085165f908152600160209081526040808320938716835292905220829055801561142157826001600160a01b0316846001600160a01b03167f8c5be1e5ebec7d5bd14f71427d1e84f3dd0314c0f7b2291e5b200ac8c7c3b9258460405161177491815260200190565b60405180910390a350505050565b6001600160a01b0383166117ac578060025f8282546117a19190611dba565b9091555061181c9050565b6001600160a01b0383165f90815260208190526040902054818110156117fe5760405163391434e360e21b81526001600160a01b03851660048201526024810182905260448101839052606401610713565b6001600160a01b0384165f9081526020819052604090209082900390555b6001600160a01b03821661183857600280548290039055611856565b6001600160a01b0382165f9081526020819052604090208054820190555b816001600160a01b0316836001600160a01b03167fddf252ad1be2c89b69c2b068fc378daa952ba7f163c4a11628f55a4df523b3ef8360405161189b91815260200190565b60405180910390a3505050565b606060ff83146118c2576118bb83611ad1565b90506105c0565b8180546118ce90611dcd565b80601f01602080910402602001604051908101604052809291908181526020018280546118fa90611dcd565b80156119455780601f1061191c57610100808354040283529160200191611945565b820191905f5260205f20905b81548152906001019060200180831161192857829003601f168201915b505050505090506105c0565b5f80807f7fffffffffffffffffffffffffffffff5d576e7357a4501ddfe92f46681b20a084111561198a57505f91506003905082611a0f565b604080515f808252602082018084528a905260ff891692820192909252606081018790526080810186905260019060a0016020604051602081039080840390855afa1580156119db573d5f5f3e3d5ffd5b5050604051601f1901519150506001600160a01b038116611a0657505f925060019150829050611a0f565b92505f91508190505b9450945094915050565b5f826003811115611a2c57611a2c611e56565b03611a35575050565b6001826003811115611a4957611a49611e56565b03611a675760405163f645eedf60e01b815260040160405180910390fd5b6002826003811115611a7b57611a7b611e56565b03611a9c5760405163fce698f760e01b815260048101829052602401610713565b6003826003811115611ab057611ab0611e56565b03610bf7576040516335e2f38360e21b815260048101829052602401610713565b60605f611add83611b0e565b6040805160208082528183019092529192505f91906020820181803683375050509182525060208101929092525090565b5f60ff8216601f8111156105c057604051632cd44ac360e21b815260040160405180910390fd5b80356001600160a01b0381168114611b4b575f5ffd5b919050565b5f60208284031215611b60575f5ffd5b611b6982611b35565b9392505050565b5f81518084528060208401602086015e5f602082860101526020601f19601f83011685010191505092915050565b602081525f611b696020830184611b70565b5f5f60408385031215611bc1575f5ffd5b611bca83611b35565b946020939093013593505050565b5f60208284031215611be8575f5ffd5b5035919050565b5f5f5f60608486031215611c01575f5ffd5b611c0a84611b35565b9250611c1860208501611b35565b929592945050506040919091013590565b60ff60f81b8816815260e060208201525f611c4760e0830189611b70565b8281036040840152611c598189611b70565b606084018890526001600160a01b038716608085015260a0840186905283810360c0850152845180825260208087019350909101905f5b81811015611cae578351835260209384019390920191600101611c90565b50909b9a5050505050505050505050565b5f5f5f5f5f5f5f60e0888a031215611cd5575f5ffd5b611cde88611b35565b9650611cec60208901611b35565b95506040880135945060608801359350608088013560ff81168114611d0f575f5ffd5b9699959850939692959460a0840135945060c09093013592915050565b5f5f60408385031215611d3d575f5ffd5b611d4683611b35565b9150611d5460208401611b35565b90509250929050565b634e487b7160e01b5f52601160045260245ffd5b818103818111156105c0576105c0611d5d565b80820281158282048414176105c0576105c0611d5d565b5f82611db557634e487b7160e01b5f52601260045260245ffd5b500490565b808201808211156105c0576105c0611d5d565b600181811c90821680611de157607f821691505b602082108103611dff57634e487b7160e01b5f52602260045260245ffd5b50919050565b5f600160ff1b8201611e1957611e19611d5d565b505f0390565b60208082526018908201527f43616c6c6572206973206e6f7420617574686f72697a65640000000000000000604082015260600190565b634e487b7160e01b5f52602160045260245ffdfea26469706673582212209ceb0563f35f17d3bd187185201da962a91f83b66e931f5d45a5f294073b8d2464736f6c634300081c0033",
			"opcodes": "PUSH2 0x160 PUSH1 0x40 MSTORE PUSH1 0x9 DUP1 SLOAD PUSH1 0xFF NOT AND SWAP1 SSTORE CALLVALUE DUP1 ISZERO PUSH2 0x1A JUMPI PUSH0 PUSH0 REVERT JUMPDEST POP PUSH1 0x40 MLOAD PUSH2 0x238C CODESIZE SUB DUP1 PUSH2 0x238C DUP4 CODECOPY DUP2 ADD PUSH1 0x40 DUP2 SWAP1 MSTORE PUSH2 0x39 SWAP2 PUSH2 0x2C4 JUMP JUMPDEST PUSH1 0x40 MLOAD DUP1 PUSH1 0x40 ADD PUSH1 0x40 MSTORE DUP1 PUSH1 0x9 DUP2 MSTORE PUSH1 0x20 ADD PUSH9 0x526F626F4D6F6E6579 PUSH1 0xB8 SHL DUP2 MSTORE POP DUP1 PUSH1 0x40 MLOAD DUP1 PUSH1 0x40 ADD PUSH1 0x40 MSTORE DUP1 PUSH1 0x1 DUP2 MSTORE PUSH1 0x20 ADD PUSH1 0x31 PUSH1 0xF8 SHL DUP2 MSTORE POP DUP4 PUSH1 0x40 MLOAD DUP1 PUSH1 0x40 ADD PUSH1 0x40 MSTORE DUP1 PUSH1 0x9 DUP2 MSTORE PUSH1 0x20 ADD PUSH9 0x526F626F4D6F6E6579 PUSH1 0xB8 SHL DUP2 MSTORE POP PUSH1 0x40 MLOAD DUP1 PUSH1 0x40 ADD PUSH1 0x40 MSTORE DUP1 PUSH1 0xF DUP2 MSTORE PUSH1 0x20 ADD PUSH15 0x726F626F6D6F6E65795F616C706861 PUSH1 0x88 SHL DUP2 MSTORE POP DUP2 PUSH1 0x3 SWAP1 DUP2 PUSH2 0xD0 SWAP2 SWAP1 PUSH2 0x389 JUMP JUMPDEST POP PUSH1 0x4 PUSH2 0xDD DUP3 DUP3 PUSH2 0x389 JUMP JUMPDEST POP POP POP PUSH1 0x1 PUSH1 0x1 PUSH1 0xA0 SHL SUB DUP2 AND PUSH2 0x10E JUMPI PUSH1 0x40 MLOAD PUSH4 0x1E4FBDF7 PUSH1 0xE0 SHL DUP2 MSTORE PUSH0 PUSH1 0x4 DUP3 ADD MSTORE PUSH1 0x24 ADD JUMPDEST PUSH1 0x40 MLOAD DUP1 SWAP2 SUB SWAP1 REVERT JUMPDEST PUSH2 0x117 DUP2 PUSH2 0x204 JUMP JUMPDEST POP PUSH2 0x123 DUP3 PUSH1 0x6 PUSH2 0x255 JUMP JUMPDEST PUSH2 0x120 MSTORE PUSH2 0x132 DUP2 PUSH1 0x7 PUSH2 0x255 JUMP JUMPDEST PUSH2 0x140 MSTORE DUP2 MLOAD PUSH1 0x20 DUP1 DUP5 ADD SWAP2 SWAP1 SWAP2 KECCAK256 PUSH1 0xE0 MSTORE DUP2 MLOAD SWAP1 DUP3 ADD KECCAK256 PUSH2 0x100 MSTORE CHAINID PUSH1 0xA0 MSTORE PUSH2 0x1BE PUSH1 0xE0 MLOAD PUSH2 0x100 MLOAD PUSH1 0x40 DUP1 MLOAD PUSH32 0x8B73C3C69BB8FE3D512ECC4CF759CC79239F7B179B0FFACAA9A75D522B39400F PUSH1 0x20 DUP3 ADD MSTORE SWAP1 DUP2 ADD SWAP3 SWAP1 SWAP3 MSTORE PUSH1 0x60 DUP3 ADD MSTORE CHAINID PUSH1 0x80 DUP3 ADD MSTORE ADDRESS PUSH1 0xA0 DUP3 ADD MSTORE PUSH0 SWAP1 PUSH1 0xC0 ADD PUSH1 0x40 MLOAD PUSH1 0x20 DUP2 DUP4 SUB SUB DUP2 MSTORE SWAP1 PUSH1 0x40 MSTORE DUP1 MLOAD SWAP1 PUSH1 0x20 ADD KECCAK256 SWAP1 POP SWAP1 JUMP JUMPDEST PUSH1 0x80 MSTORE POP POP ADDRESS PUSH1 0xC0 MSTORE POP PUSH1 0x9 DUP1 SLOAD PUSH2 0x100 PUSH1 0x1 PUSH1 0xA8 SHL SUB NOT AND PUSH2 0x100 PUSH1 0x1 PUSH1 0x1 PUSH1 0xA0 SHL SUB SWAP4 SWAP1 SWAP4 AND SWAP3 DUP4 MUL OR SWAP1 SSTORE PUSH1 0xA DUP1 SLOAD PUSH1 0x1 PUSH1 0x1 PUSH1 0xA0 SHL SUB NOT AND SWAP1 SWAP2 OR SWAP1 SSTORE PUSH2 0x49B JUMP JUMPDEST PUSH1 0x5 DUP1 SLOAD PUSH1 0x1 PUSH1 0x1 PUSH1 0xA0 SHL SUB DUP4 DUP2 AND PUSH1 0x1 PUSH1 0x1 PUSH1 0xA0 SHL SUB NOT DUP4 AND DUP2 OR SWAP1 SWAP4 SSTORE PUSH1 0x40 MLOAD SWAP2 AND SWAP2 SWAP1 DUP3 SWAP1 PUSH32 0x8BE0079C531659141344CD1FD0A4F28419497F9722A3DAAFE3B4186F6B6457E0 SWAP1 PUSH0 SWAP1 LOG3 POP POP JUMP JUMPDEST PUSH0 PUSH1 0x20 DUP4 MLOAD LT ISZERO PUSH2 0x270 JUMPI PUSH2 0x269 DUP4 PUSH2 0x287 JUMP JUMPDEST SWAP1 POP PUSH2 0x281 JUMP JUMPDEST DUP2 PUSH2 0x27B DUP5 DUP3 PUSH2 0x389 JUMP JUMPDEST POP PUSH1 0xFF SWAP1 POP JUMPDEST SWAP3 SWAP2 POP POP JUMP JUMPDEST PUSH0 PUSH0 DUP3 SWAP1 POP PUSH1 0x1F DUP2 MLOAD GT ISZERO PUSH2 0x2B1 JUMPI DUP3 PUSH1 0x40 MLOAD PUSH4 0x305A27A9 PUSH1 0xE0 SHL DUP2 MSTORE PUSH1 0x4 ADD PUSH2 0x105 SWAP2 SWAP1 PUSH2 0x443 JUMP JUMPDEST DUP1 MLOAD PUSH2 0x2BC DUP3 PUSH2 0x478 JUMP JUMPDEST OR SWAP4 SWAP3 POP POP POP JUMP JUMPDEST PUSH0 PUSH1 0x20 DUP3 DUP5 SUB SLT ISZERO PUSH2 0x2D4 JUMPI PUSH0 PUSH0 REVERT JUMPDEST DUP2 MLOAD PUSH1 0x1 PUSH1 0x1 PUSH1 0xA0 SHL SUB DUP2 AND DUP2 EQ PUSH2 0x2EA JUMPI PUSH0 PUSH0 REVERT JUMPDEST SWAP4 SWAP3 POP POP POP JUMP JUMPDEST PUSH4 0x4E487B71 PUSH1 0xE0 SHL PUSH0 MSTORE PUSH1 0x41 PUSH1 0x4 MSTORE PUSH1 0x24 PUSH0 REVERT JUMPDEST PUSH1 0x1 DUP2 DUP2 SHR SWAP1 DUP3 AND DUP1 PUSH2 0x319 JUMPI PUSH1 0x7F DUP3 AND SWAP2 POP JUMPDEST PUSH1 0x20 DUP3 LT DUP2 SUB PUSH2 0x337 JUMPI PUSH4 0x4E487B71 PUSH1 0xE0 SHL PUSH0 MSTORE PUSH1 0x22 PUSH1 0x4 MSTORE PUSH1 0x24 PUSH0 REVERT JUMPDEST POP SWAP2 SWAP1 POP JUMP JUMPDEST PUSH1 0x1F DUP3 GT ISZERO PUSH2 0x384 JUMPI DUP1 PUSH0 MSTORE PUSH1 0x20 PUSH0 KECCAK256 PUSH1 0x1F DUP5 ADD PUSH1 0x5 SHR DUP2 ADD PUSH1 0x20 DUP6 LT ISZERO PUSH2 0x362 JUMPI POP DUP1 JUMPDEST PUSH1 0x1F DUP5 ADD PUSH1 0x5 SHR DUP3 ADD SWAP2 POP JUMPDEST DUP2 DUP2 LT ISZERO PUSH2 0x381 JUMPI PUSH0 DUP2 SSTORE PUSH1 0x1 ADD PUSH2 0x36E JUMP JUMPDEST POP POP JUMPDEST POP POP POP JUMP JUMPDEST DUP2 MLOAD PUSH1 0x1 PUSH1 0x1 PUSH1 0x40 SHL SUB DUP2 GT ISZERO PUSH2 0x3A2 JUMPI PUSH2 0x3A2 PUSH2 0x2F1 JUMP JUMPDEST PUSH2 0x3B6 DUP2 PUSH2 0x3B0 DUP5 SLOAD PUSH2 0x305 JUMP JUMPDEST DUP5 PUSH2 0x33D JUMP JUMPDEST PUSH1 0x20 PUSH1 0x1F DUP3 GT PUSH1 0x1 DUP2 EQ PUSH2 0x3E8 JUMPI PUSH0 DUP4 ISZERO PUSH2 0x3D1 JUMPI POP DUP5 DUP3 ADD MLOAD JUMPDEST PUSH0 NOT PUSH1 0x3 DUP6 SWAP1 SHL SHR NOT AND PUSH1 0x1 DUP5 SWAP1 SHL OR DUP5 SSTORE PUSH2 0x381 JUMP JUMPDEST PUSH0 DUP5 DUP2 MSTORE PUSH1 0x20 DUP2 KECCAK256 PUSH1 0x1F NOT DUP6 AND SWAP2 JUMPDEST DUP3 DUP2 LT ISZERO PUSH2 0x417 JUMPI DUP8 DUP6 ADD MLOAD DUP3 SSTORE PUSH1 0x20 SWAP5 DUP6 ADD SWAP5 PUSH1 0x1 SWAP1 SWAP3 ADD SWAP2 ADD PUSH2 0x3F7 JUMP JUMPDEST POP DUP5 DUP3 LT ISZERO PUSH2 0x434 JUMPI DUP7 DUP5 ADD MLOAD PUSH0 NOT PUSH1 0x3 DUP8 SWAP1 SHL PUSH1 0xF8 AND SHR NOT AND DUP2 SSTORE JUMPDEST POP POP POP POP PUSH1 0x1 SWAP1 DUP2 SHL ADD SWAP1 SSTORE POP JUMP JUMPDEST PUSH1 0x20 DUP2 MSTORE PUSH0 DUP3 MLOAD DUP1 PUSH1 0x20 DUP5 ADD MSTORE DUP1 PUSH1 0x20 DUP6 ADD PUSH1 0x40 DUP6 ADD MCOPY PUSH0 PUSH1 0x40 DUP3 DUP6 ADD ADD MSTORE PUSH1 0x40 PUSH1 0x1F NOT PUSH1 0x1F DUP4 ADD AND DUP5 ADD ADD SWAP2 POP POP SWAP3 SWAP2 POP POP JUMP JUMPDEST DUP1 MLOAD PUSH1 0x20 DUP1 DUP4 ADD MLOAD SWAP2 SWAP1 DUP2 LT ISZERO PUSH2 0x337 JUMPI PUSH0 NOT PUSH1 0x20 SWAP2 SWAP1 SWAP2 SUB PUSH1 0x3 SHL SHL AND SWAP2 SWAP1 POP JUMP JUMPDEST PUSH1 0x80 MLOAD PUSH1 0xA0 MLOAD PUSH1 0xC0 MLOAD PUSH1 0xE0 MLOAD PUSH2 0x100 MLOAD PUSH2 0x120 MLOAD PUSH2 0x140 MLOAD PUSH2 0x1EA0 PUSH2 0x4EC PUSH0 CODECOPY PUSH0 PUSH2 0x1632 ADD MSTORE PUSH0 PUSH2 0x1605 ADD MSTORE PUSH0 PUSH2 0x155D ADD MSTORE PUSH0 PUSH2 0x1535 ADD MSTORE PUSH0 PUSH2 0x1490 ADD MSTORE PUSH0 PUSH2 0x14BA ADD MSTORE PUSH0 PUSH2 0x14E4 ADD MSTORE PUSH2 0x1EA0 PUSH0 RETURN INVALID PUSH1 0x80 PUSH1 0x40 MSTORE CALLVALUE DUP1 ISZERO PUSH2 0xF JUMPI PUSH0 PUSH0 REVERT JUMPDEST POP PUSH1 0x4 CALLDATASIZE LT PUSH2 0x233 JUMPI PUSH0 CALLDATALOAD PUSH1 0xE0 SHR DUP1 PUSH4 0x7ECEBE00 GT PUSH2 0x135 JUMPI DUP1 PUSH4 0xA9059CBB GT PUSH2 0xB4 JUMPI DUP1 PUSH4 0xDD62ED3E GT PUSH2 0x79 JUMPI DUP1 PUSH4 0xDD62ED3E EQ PUSH2 0x4CC JUMPI DUP1 PUSH4 0xDF136D65 EQ PUSH2 0x504 JUMPI DUP1 PUSH4 0xE49BCC88 EQ PUSH2 0x50D JUMPI DUP1 PUSH4 0xE56A9ED1 EQ PUSH2 0x525 JUMPI DUP1 PUSH4 0xF2FDE38B EQ PUSH2 0x538 JUMPI PUSH0 PUSH0 REVERT JUMPDEST DUP1 PUSH4 0xA9059CBB EQ PUSH2 0x482 JUMPI DUP1 PUSH4 0xC8F33C91 EQ PUSH2 0x495 JUMPI DUP1 PUSH4 0xCD3DAF9D EQ PUSH2 0x49E JUMPI DUP1 PUSH4 0xD505ACCF EQ PUSH2 0x4A6 JUMPI DUP1 PUSH4 0xD9E63BB1 EQ PUSH2 0x4B9 JUMPI PUSH0 PUSH0 REVERT JUMPDEST DUP1 PUSH4 0x8E0FC6E9 GT PUSH2 0xFA JUMPI DUP1 PUSH4 0x8E0FC6E9 EQ PUSH2 0x439 JUMPI DUP1 PUSH4 0x95D89B41 EQ PUSH2 0x441 JUMPI DUP1 PUSH4 0x9A303684 EQ PUSH2 0x449 JUMPI DUP1 PUSH4 0x9DC29FAC EQ PUSH2 0x45C JUMPI DUP1 PUSH4 0xA694FC3A EQ PUSH2 0x46F JUMPI PUSH0 PUSH0 REVERT JUMPDEST DUP1 PUSH4 0x7ECEBE00 EQ PUSH2 0x3D2 JUMPI DUP1 PUSH4 0x817B1CD2 EQ PUSH2 0x3E5 JUMPI DUP1 PUSH4 0x84B0196E EQ PUSH2 0x3EE JUMPI DUP1 PUSH4 0x8B876347 EQ PUSH2 0x409 JUMPI DUP1 PUSH4 0x8DA5CB5B EQ PUSH2 0x428 JUMPI PUSH0 PUSH0 REVERT JUMPDEST DUP1 PUSH4 0x2E17DE78 GT PUSH2 0x1C1 JUMPI DUP1 PUSH4 0x42966C68 GT PUSH2 0x186 JUMPI DUP1 PUSH4 0x42966C68 EQ PUSH2 0x373 JUMPI DUP1 PUSH4 0x70A08231 EQ PUSH2 0x386 JUMPI DUP1 PUSH4 0x715018A6 EQ PUSH2 0x3AE JUMPI DUP1 PUSH4 0x79CC6790 EQ PUSH2 0x3B6 JUMPI DUP1 PUSH4 0x7B0A47EE EQ PUSH2 0x3C9 JUMPI PUSH0 PUSH0 REVERT JUMPDEST DUP1 PUSH4 0x2E17DE78 EQ PUSH2 0x32E JUMPI DUP1 PUSH4 0x313CE567 EQ PUSH2 0x341 JUMPI DUP1 PUSH4 0x3644E515 EQ PUSH2 0x350 JUMPI DUP1 PUSH4 0x372500AB EQ PUSH2 0x358 JUMPI DUP1 PUSH4 0x40C10F19 EQ PUSH2 0x360 JUMPI PUSH0 PUSH0 REVERT JUMPDEST DUP1 PUSH4 0xAB114F9 GT PUSH2 0x207 JUMPI DUP1 PUSH4 0xAB114F9 EQ PUSH2 0x2B4 JUMPI DUP1 PUSH4 0x16934FC4 EQ PUSH2 0x2C9 JUMPI DUP1 PUSH4 0x18160DDD EQ PUSH2 0x2E8 JUMPI DUP1 PUSH4 0x227C749C EQ PUSH2 0x2F0 JUMPI DUP1 PUSH4 0x23B872DD EQ PUSH2 0x31B JUMPI PUSH0 PUSH0 REVERT JUMPDEST DUP1 PUSH3 0x8CC262 EQ PUSH2 0x237 JUMPI DUP1 PUSH4 0x6FDDE03 EQ PUSH2 0x25D JUMPI DUP1 PUSH4 0x700037D EQ PUSH2 0x272 JUMPI DUP1 PUSH4 0x95EA7B3 EQ PUSH2 0x291 JUMPI JUMPDEST PUSH0 PUSH0 REVERT JUMPDEST PUSH2 0x24A PUSH2 0x245 CALLDATASIZE PUSH1 0x4 PUSH2 0x1B50 JUMP JUMPDEST PUSH2 0x54B JUMP JUMPDEST PUSH1 0x40 MLOAD SWAP1 DUP2 MSTORE PUSH1 0x20 ADD JUMPDEST PUSH1 0x40 MLOAD DUP1 SWAP2 SUB SWAP1 RETURN JUMPDEST PUSH2 0x265 PUSH2 0x5C6 JUMP JUMPDEST PUSH1 0x40 MLOAD PUSH2 0x254 SWAP2 SWAP1 PUSH2 0x1B9E JUMP JUMPDEST PUSH2 0x24A PUSH2 0x280 CALLDATASIZE PUSH1 0x4 PUSH2 0x1B50 JUMP JUMPDEST PUSH1 0x11 PUSH1 0x20 MSTORE PUSH0 SWAP1 DUP2 MSTORE PUSH1 0x40 SWAP1 KECCAK256 SLOAD DUP2 JUMP JUMPDEST PUSH2 0x2A4 PUSH2 0x29F CALLDATASIZE PUSH1 0x4 PUSH2 0x1BB0 JUMP JUMPDEST PUSH2 0x656 JUMP JUMPDEST PUSH1 0x40 MLOAD SWAP1 ISZERO ISZERO DUP2 MSTORE PUSH1 0x20 ADD PUSH2 0x254 JUMP JUMPDEST PUSH2 0x2C7 PUSH2 0x2C2 CALLDATASIZE PUSH1 0x4 PUSH2 0x1BD8 JUMP JUMPDEST PUSH2 0x66D JUMP JUMPDEST STOP JUMPDEST PUSH2 0x24A PUSH2 0x2D7 CALLDATASIZE PUSH1 0x4 PUSH2 0x1B50 JUMP JUMPDEST PUSH1 0xF PUSH1 0x20 MSTORE PUSH0 SWAP1 DUP2 MSTORE PUSH1 0x40 SWAP1 KECCAK256 SLOAD DUP2 JUMP JUMPDEST PUSH1 0x2 SLOAD PUSH2 0x24A JUMP JUMPDEST PUSH1 0xA SLOAD PUSH2 0x303 SWAP1 PUSH1 0x1 PUSH1 0x1 PUSH1 0xA0 SHL SUB AND DUP2 JUMP JUMPDEST PUSH1 0x40 MLOAD PUSH1 0x1 PUSH1 0x1 PUSH1 0xA0 SHL SUB SWAP1 SWAP2 AND DUP2 MSTORE PUSH1 0x20 ADD PUSH2 0x254 JUMP JUMPDEST PUSH2 0x2A4 PUSH2 0x329 CALLDATASIZE PUSH1 0x4 PUSH2 0x1BEF JUMP JUMPDEST PUSH2 0x8AD JUMP JUMPDEST PUSH2 0x2C7 PUSH2 0x33C CALLDATASIZE PUSH1 0x4 PUSH2 0x1BD8 JUMP JUMPDEST PUSH2 0x8D0 JUMP JUMPDEST PUSH1 0x40 MLOAD PUSH1 0x12 DUP2 MSTORE PUSH1 0x20 ADD PUSH2 0x254 JUMP JUMPDEST PUSH2 0x24A PUSH2 0xA44 JUMP JUMPDEST PUSH2 0x2C7 PUSH2 0xA52 JUMP JUMPDEST PUSH2 0x2C7 PUSH2 0x36E CALLDATASIZE PUSH1 0x4 PUSH2 0x1BB0 JUMP JUMPDEST PUSH2 0xB4C JUMP JUMPDEST PUSH2 0x2C7 PUSH2 0x381 CALLDATASIZE PUSH1 0x4 PUSH2 0x1BD8 JUMP JUMPDEST PUSH2 0xBFB JUMP JUMPDEST PUSH2 0x24A PUSH2 0x394 CALLDATASIZE PUSH1 0x4 PUSH2 0x1B50 JUMP JUMPDEST PUSH1 0x1 PUSH1 0x1 PUSH1 0xA0 SHL SUB AND PUSH0 SWAP1 DUP2 MSTORE PUSH1 0x20 DUP2 SWAP1 MSTORE PUSH1 0x40 SWAP1 KECCAK256 SLOAD SWAP1 JUMP JUMPDEST PUSH2 0x2C7 PUSH2 0xC08 JUMP JUMPDEST PUSH2 0x2C7 PUSH2 0x3C4 CALLDATASIZE PUSH1 0x4 PUSH2 0x1BB0 JUMP JUMPDEST PUSH2 0xC1B JUMP JUMPDEST PUSH2 0x24A PUSH1 0xC SLOAD DUP2 JUMP JUMPDEST PUSH2 0x24A PUSH2 0x3E0 CALLDATASIZE PUSH1 0x4 PUSH2 0x1B50 JUMP JUMPDEST PUSH2 0xC30 JUMP JUMPDEST PUSH2 0x24A PUSH1 0xB SLOAD DUP2 JUMP JUMPDEST PUSH2 0x3F6 PUSH2 0xC4D JUMP JUMPDEST PUSH1 0x40 MLOAD PUSH2 0x254 SWAP8 SWAP7 SWAP6 SWAP5 SWAP4 SWAP3 SWAP2 SWAP1 PUSH2 0x1C29 JUMP JUMPDEST PUSH2 0x24A PUSH2 0x417 CALLDATASIZE PUSH1 0x4 PUSH2 0x1B50 JUMP JUMPDEST PUSH1 0x10 PUSH1 0x20 MSTORE PUSH0 SWAP1 DUP2 MSTORE PUSH1 0x40 SWAP1 KECCAK256 SLOAD DUP2 JUMP JUMPDEST PUSH1 0x5 SLOAD PUSH1 0x1 PUSH1 0x1 PUSH1 0xA0 SHL SUB AND PUSH2 0x303 JUMP JUMPDEST PUSH2 0x24A PUSH2 0xC8F JUMP JUMPDEST PUSH2 0x265 PUSH2 0xCC2 JUMP JUMPDEST PUSH2 0x2C7 PUSH2 0x457 CALLDATASIZE PUSH1 0x4 PUSH2 0x1B50 JUMP JUMPDEST PUSH2 0xCD1 JUMP JUMPDEST PUSH2 0x2C7 PUSH2 0x46A CALLDATASIZE PUSH1 0x4 PUSH2 0x1BB0 JUMP JUMPDEST PUSH2 0xD51 JUMP JUMPDEST PUSH2 0x2C7 PUSH2 0x47D CALLDATASIZE PUSH1 0x4 PUSH2 0x1BD8 JUMP JUMPDEST PUSH2 0xDED JUMP JUMPDEST PUSH2 0x2A4 PUSH2 0x490 CALLDATASIZE PUSH1 0x4 PUSH2 0x1BB0 JUMP JUMPDEST PUSH2 0xF4D JUMP JUMPDEST PUSH2 0x24A PUSH1 0xD SLOAD DUP2 JUMP JUMPDEST PUSH2 0x24A PUSH2 0xF5A JUMP JUMPDEST PUSH2 0x2C7 PUSH2 0x4B4 CALLDATASIZE PUSH1 0x4 PUSH2 0x1CBF JUMP JUMPDEST PUSH2 0xFBA JUMP JUMPDEST PUSH2 0x2C7 PUSH2 0x4C7 CALLDATASIZE PUSH1 0x4 PUSH2 0x1BD8 JUMP JUMPDEST PUSH2 0x10F0 JUMP JUMPDEST PUSH2 0x24A PUSH2 0x4DA CALLDATASIZE PUSH1 0x4 PUSH2 0x1D2C JUMP JUMPDEST PUSH1 0x1 PUSH1 0x1 PUSH1 0xA0 SHL SUB SWAP2 DUP3 AND PUSH0 SWAP1 DUP2 MSTORE PUSH1 0x1 PUSH1 0x20 SWAP1 DUP2 MSTORE PUSH1 0x40 DUP1 DUP4 KECCAK256 SWAP4 SWAP1 SWAP5 AND DUP3 MSTORE SWAP2 SWAP1 SWAP2 MSTORE KECCAK256 SLOAD SWAP1 JUMP JUMPDEST PUSH2 0x24A PUSH1 0xE SLOAD DUP2 JUMP JUMPDEST PUSH1 0x9 SLOAD PUSH2 0x303 SWAP1 PUSH2 0x100 SWAP1 DIV PUSH1 0x1 PUSH1 0x1 PUSH1 0xA0 SHL SUB AND DUP2 JUMP JUMPDEST PUSH2 0x2C7 PUSH2 0x533 CALLDATASIZE PUSH1 0x4 PUSH2 0x1B50 JUMP JUMPDEST PUSH2 0x11BA JUMP JUMPDEST PUSH2 0x2C7 PUSH2 0x546 CALLDATASIZE PUSH1 0x4 PUSH2 0x1B50 JUMP JUMPDEST PUSH2 0x1271 JUMP JUMPDEST PUSH1 0x1 PUSH1 0x1 PUSH1 0xA0 SHL SUB DUP2 AND PUSH0 SWAP1 DUP2 MSTORE PUSH1 0x11 PUSH1 0x20 SWAP1 DUP2 MSTORE PUSH1 0x40 DUP1 DUP4 KECCAK256 SLOAD PUSH1 0x10 SWAP1 SWAP3 MSTORE DUP3 KECCAK256 SLOAD PUSH8 0xDE0B6B3A7640000 SWAP1 PUSH2 0x580 PUSH2 0xF5A JUMP JUMPDEST PUSH2 0x58A SWAP2 SWAP1 PUSH2 0x1D71 JUMP JUMPDEST PUSH1 0x1 PUSH1 0x1 PUSH1 0xA0 SHL SUB DUP6 AND PUSH0 SWAP1 DUP2 MSTORE PUSH1 0xF PUSH1 0x20 MSTORE PUSH1 0x40 SWAP1 KECCAK256 SLOAD PUSH2 0x5AC SWAP2 SWAP1 PUSH2 0x1D84 JUMP JUMPDEST PUSH2 0x5B6 SWAP2 SWAP1 PUSH2 0x1D9B JUMP JUMPDEST PUSH2 0x5C0 SWAP2 SWAP1 PUSH2 0x1DBA JUMP JUMPDEST SWAP3 SWAP2 POP POP JUMP JUMPDEST PUSH1 0x60 PUSH1 0x3 DUP1 SLOAD PUSH2 0x5D5 SWAP1 PUSH2 0x1DCD JUMP JUMPDEST DUP1 PUSH1 0x1F ADD PUSH1 0x20 DUP1 SWAP2 DIV MUL PUSH1 0x20 ADD PUSH1 0x40 MLOAD SWAP1 DUP2 ADD PUSH1 0x40 MSTORE DUP1 SWAP3 SWAP2 SWAP1 DUP2 DUP2 MSTORE PUSH1 0x20 ADD DUP3 DUP1 SLOAD PUSH2 0x601 SWAP1 PUSH2 0x1DCD JUMP JUMPDEST DUP1 ISZERO PUSH2 0x64C JUMPI DUP1 PUSH1 0x1F LT PUSH2 0x623 JUMPI PUSH2 0x100 DUP1 DUP4 SLOAD DIV MUL DUP4 MSTORE SWAP2 PUSH1 0x20 ADD SWAP2 PUSH2 0x64C JUMP JUMPDEST DUP3 ADD SWAP2 SWAP1 PUSH0 MSTORE PUSH1 0x20 PUSH0 KECCAK256 SWAP1 JUMPDEST DUP2 SLOAD DUP2 MSTORE SWAP1 PUSH1 0x1 ADD SWAP1 PUSH1 0x20 ADD DUP1 DUP4 GT PUSH2 0x62F JUMPI DUP3 SWAP1 SUB PUSH1 0x1F AND DUP3 ADD SWAP2 JUMPDEST POP POP POP POP POP SWAP1 POP SWAP1 JUMP JUMPDEST PUSH0 CALLER PUSH2 0x663 DUP2 DUP6 DUP6 PUSH2 0x12AB JUMP JUMPDEST POP PUSH1 0x1 SWAP4 SWAP3 POP POP POP JUMP JUMPDEST PUSH2 0x675 PUSH2 0x12BD JUMP JUMPDEST PUSH0 PUSH2 0x67E PUSH2 0xF5A JUMP JUMPDEST PUSH1 0xE SSTORE TIMESTAMP PUSH1 0xD SSTORE PUSH1 0x1 PUSH1 0x1 PUSH1 0xA0 SHL SUB DUP2 AND ISZERO PUSH2 0x6C8 JUMPI PUSH2 0x69D DUP2 PUSH2 0x54B JUMP JUMPDEST PUSH1 0x1 PUSH1 0x1 PUSH1 0xA0 SHL SUB DUP3 AND PUSH0 SWAP1 DUP2 MSTORE PUSH1 0x11 PUSH1 0x20 SWAP1 DUP2 MSTORE PUSH1 0x40 DUP1 DUP4 KECCAK256 SWAP4 SWAP1 SWAP4 SSTORE PUSH1 0xE SLOAD PUSH1 0x10 SWAP1 SWAP2 MSTORE SWAP2 SWAP1 KECCAK256 SSTORE JUMPDEST DUP2 PUSH0 SUB PUSH2 0x71C JUMPI PUSH1 0x40 MLOAD PUSH3 0x461BCD PUSH1 0xE5 SHL DUP2 MSTORE PUSH1 0x20 PUSH1 0x4 DUP3 ADD MSTORE PUSH1 0x1A PUSH1 0x24 DUP3 ADD MSTORE PUSH32 0x52656261736520726174652063616E6E6F74206265207A65726F000000000000 PUSH1 0x44 DUP3 ADD MSTORE PUSH1 0x64 ADD JUMPDEST PUSH1 0x40 MLOAD DUP1 SWAP2 SUB SWAP1 REVERT JUMPDEST PUSH0 PUSH2 0x726 PUSH1 0x2 SLOAD SWAP1 JUMP JUMPDEST SWAP1 POP PUSH0 PUSH0 DUP5 SGT ISZERO PUSH2 0x768 JUMPI PUSH0 PUSH3 0xF4240 PUSH2 0x740 DUP7 DUP6 PUSH2 0x1D84 JUMP JUMPDEST PUSH2 0x74A SWAP2 SWAP1 PUSH2 0x1D9B JUMP JUMPDEST SWAP1 POP PUSH2 0x756 DUP2 DUP5 PUSH2 0x1DBA JUMP JUMPDEST SWAP2 POP PUSH2 0x762 ADDRESS DUP3 PUSH2 0x12EA JUMP JUMPDEST POP PUSH2 0x866 JUMP JUMPDEST PUSH0 PUSH3 0xF4240 PUSH2 0x776 DUP7 PUSH2 0x1E05 JUMP JUMPDEST PUSH2 0x780 SWAP1 DUP6 PUSH2 0x1D84 JUMP JUMPDEST PUSH2 0x78A SWAP2 SWAP1 PUSH2 0x1D9B JUMP JUMPDEST SWAP1 POP PUSH0 PUSH2 0x795 PUSH2 0xC8F JUMP JUMPDEST SWAP1 POP DUP2 DUP2 LT ISZERO PUSH2 0x7E7 JUMPI PUSH1 0x40 MLOAD PUSH3 0x461BCD PUSH1 0xE5 SHL DUP2 MSTORE PUSH1 0x20 PUSH1 0x4 DUP3 ADD MSTORE PUSH1 0x1C PUSH1 0x24 DUP3 ADD MSTORE PUSH32 0x496E73756666696369656E74207265776172647320746F206275726E00000000 PUSH1 0x44 DUP3 ADD MSTORE PUSH1 0x64 ADD PUSH2 0x713 JUMP JUMPDEST DUP2 DUP5 GT PUSH2 0x7F4 JUMPI PUSH0 PUSH2 0x7FE JUMP JUMPDEST PUSH2 0x7FE DUP3 DUP6 PUSH2 0x1D71 JUMP JUMPDEST SWAP3 POP PUSH0 DUP4 GT PUSH2 0x859 JUMPI PUSH1 0x40 MLOAD PUSH3 0x461BCD PUSH1 0xE5 SHL DUP2 MSTORE PUSH1 0x20 PUSH1 0x4 DUP3 ADD MSTORE PUSH1 0x21 PUSH1 0x24 DUP3 ADD MSTORE PUSH32 0x546F74616C20737570706C79206D7573742072656D61696E20706F7369746976 PUSH1 0x44 DUP3 ADD MSTORE PUSH1 0x65 PUSH1 0xF8 SHL PUSH1 0x64 DUP3 ADD MSTORE PUSH1 0x84 ADD PUSH2 0x713 JUMP JUMPDEST PUSH2 0x863 ADDRESS DUP4 PUSH2 0x131E JUMP JUMPDEST POP POP JUMPDEST PUSH2 0x86E PUSH2 0x1352 JUMP JUMPDEST PUSH1 0x40 DUP1 MLOAD DUP6 DUP2 MSTORE PUSH1 0x20 DUP2 ADD DUP4 SWAP1 MSTORE PUSH32 0xA014A2A01ABEC59B9C83E6461D1A6826C67C124614B88F84C882D53F70D966D3 SWAP2 ADD PUSH1 0x40 MLOAD DUP1 SWAP2 SUB SWAP1 LOG1 POP POP POP POP JUMP JUMPDEST PUSH0 CALLER PUSH2 0x8BA DUP6 DUP3 DUP6 PUSH2 0x13AC JUMP JUMPDEST PUSH2 0x8C5 DUP6 DUP6 DUP6 PUSH2 0x1427 JUMP JUMPDEST POP PUSH1 0x1 SWAP5 SWAP4 POP POP POP POP JUMP JUMPDEST CALLER PUSH2 0x8D9 PUSH2 0xF5A JUMP JUMPDEST PUSH1 0xE SSTORE TIMESTAMP PUSH1 0xD SSTORE PUSH1 0x1 PUSH1 0x1 PUSH1 0xA0 SHL SUB DUP2 AND ISZERO PUSH2 0x923 JUMPI PUSH2 0x8F8 DUP2 PUSH2 0x54B JUMP JUMPDEST PUSH1 0x1 PUSH1 0x1 PUSH1 0xA0 SHL SUB DUP3 AND PUSH0 SWAP1 DUP2 MSTORE PUSH1 0x11 PUSH1 0x20 SWAP1 DUP2 MSTORE PUSH1 0x40 DUP1 DUP4 KECCAK256 SWAP4 SWAP1 SWAP4 SSTORE PUSH1 0xE SLOAD PUSH1 0x10 SWAP1 SWAP2 MSTORE SWAP2 SWAP1 KECCAK256 SSTORE JUMPDEST PUSH0 DUP3 GT PUSH2 0x965 JUMPI PUSH1 0x40 MLOAD PUSH3 0x461BCD PUSH1 0xE5 SHL DUP2 MSTORE PUSH1 0x20 PUSH1 0x4 DUP3 ADD MSTORE PUSH1 0x10 PUSH1 0x24 DUP3 ADD MSTORE PUSH16 0x43616E6E6F7420756E7374616B65203 PUSH1 0x84 SHL PUSH1 0x44 DUP3 ADD MSTORE PUSH1 0x64 ADD PUSH2 0x713 JUMP JUMPDEST CALLER PUSH0 SWAP1 DUP2 MSTORE PUSH1 0xF PUSH1 0x20 MSTORE PUSH1 0x40 SWAP1 KECCAK256 SLOAD DUP3 GT ISZERO PUSH2 0x9C3 JUMPI PUSH1 0x40 MLOAD PUSH3 0x461BCD PUSH1 0xE5 SHL DUP2 MSTORE PUSH1 0x20 PUSH1 0x4 DUP3 ADD MSTORE PUSH1 0x1F PUSH1 0x24 DUP3 ADD MSTORE PUSH32 0x43616E6E6F7420756E7374616B65206D6F7265207468616E207374616B656400 PUSH1 0x44 DUP3 ADD MSTORE PUSH1 0x64 ADD PUSH2 0x713 JUMP JUMPDEST CALLER PUSH0 SWAP1 DUP2 MSTORE PUSH1 0xF PUSH1 0x20 MSTORE PUSH1 0x40 DUP2 KECCAK256 DUP1 SLOAD DUP5 SWAP3 SWAP1 PUSH2 0x9E1 SWAP1 DUP5 SWAP1 PUSH2 0x1D71 JUMP JUMPDEST SWAP3 POP POP DUP2 SWAP1 SSTORE POP DUP2 PUSH1 0xB PUSH0 DUP3 DUP3 SLOAD PUSH2 0x9F9 SWAP2 SWAP1 PUSH2 0x1D71 JUMP JUMPDEST SWAP1 SWAP2 SSTORE POP PUSH2 0xA0A SWAP1 POP ADDRESS CALLER DUP5 PUSH2 0x1427 JUMP JUMPDEST PUSH1 0x40 MLOAD DUP3 DUP2 MSTORE CALLER SWAP1 PUSH32 0x85082129D87B2FE11527CB1B3B7A520AEB5AA6913F88A3D8757FE40D1DB02FDD SWAP1 PUSH1 0x20 ADD JUMPDEST PUSH1 0x40 MLOAD DUP1 SWAP2 SUB SWAP1 LOG2 POP POP JUMP JUMPDEST PUSH0 PUSH2 0xA4D PUSH2 0x1484 JUMP JUMPDEST SWAP1 POP SWAP1 JUMP JUMPDEST CALLER PUSH2 0xA5B PUSH2 0xF5A JUMP JUMPDEST PUSH1 0xE SSTORE TIMESTAMP PUSH1 0xD SSTORE PUSH1 0x1 PUSH1 0x1 PUSH1 0xA0 SHL SUB DUP2 AND ISZERO PUSH2 0xAA5 JUMPI PUSH2 0xA7A DUP2 PUSH2 0x54B JUMP JUMPDEST PUSH1 0x1 PUSH1 0x1 PUSH1 0xA0 SHL SUB DUP3 AND PUSH0 SWAP1 DUP2 MSTORE PUSH1 0x11 PUSH1 0x20 SWAP1 DUP2 MSTORE PUSH1 0x40 DUP1 DUP4 KECCAK256 SWAP4 SWAP1 SWAP4 SSTORE PUSH1 0xE SLOAD PUSH1 0x10 SWAP1 SWAP2 MSTORE SWAP2 SWAP1 KECCAK256 SSTORE JUMPDEST PUSH2 0xAAD PUSH2 0x1352 JUMP JUMPDEST CALLER PUSH0 SWAP1 DUP2 MSTORE PUSH1 0x11 PUSH1 0x20 MSTORE PUSH1 0x40 SWAP1 KECCAK256 SLOAD DUP1 PUSH2 0xAFF JUMPI PUSH1 0x40 MLOAD PUSH3 0x461BCD PUSH1 0xE5 SHL DUP2 MSTORE PUSH1 0x20 PUSH1 0x4 DUP3 ADD MSTORE PUSH1 0x13 PUSH1 0x24 DUP3 ADD MSTORE PUSH19 0x4E6F207265776172647320746F20636C61696D PUSH1 0x68 SHL PUSH1 0x44 DUP3 ADD MSTORE PUSH1 0x64 ADD PUSH2 0x713 JUMP JUMPDEST CALLER PUSH0 DUP2 DUP2 MSTORE PUSH1 0x11 PUSH1 0x20 MSTORE PUSH1 0x40 DUP2 KECCAK256 SSTORE PUSH2 0xB1A SWAP1 ADDRESS SWAP1 DUP4 PUSH2 0x1427 JUMP JUMPDEST PUSH1 0x40 MLOAD DUP2 DUP2 MSTORE CALLER SWAP1 PUSH32 0x1F89F96333D3133000EE447473151FA9606543368F02271C9D95AE14F13BCC67 SWAP1 PUSH1 0x20 ADD PUSH2 0xA38 JUMP JUMPDEST PUSH1 0x5 SLOAD PUSH1 0x1 PUSH1 0x1 PUSH1 0xA0 SHL SUB AND CALLER EQ DUP1 PUSH2 0xB74 JUMPI POP PUSH1 0x9 SLOAD PUSH2 0x100 SWAP1 DIV PUSH1 0x1 PUSH1 0x1 PUSH1 0xA0 SHL SUB AND CALLER EQ JUMPDEST PUSH2 0xB90 JUMPI PUSH1 0x40 MLOAD PUSH3 0x461BCD PUSH1 0xE5 SHL DUP2 MSTORE PUSH1 0x4 ADD PUSH2 0x713 SWAP1 PUSH2 0x1E1F JUMP JUMPDEST PUSH0 DUP2 GT PUSH2 0xBED JUMPI PUSH1 0x40 MLOAD PUSH3 0x461BCD PUSH1 0xE5 SHL DUP2 MSTORE PUSH1 0x20 PUSH1 0x4 DUP3 ADD MSTORE PUSH1 0x25 PUSH1 0x24 DUP3 ADD MSTORE PUSH32 0x4D696E7420616D6F756E74206D7573742062652067726561746572207468616E PUSH1 0x44 DUP3 ADD MSTORE PUSH5 0x207A65726F PUSH1 0xD8 SHL PUSH1 0x64 DUP3 ADD MSTORE PUSH1 0x84 ADD PUSH2 0x713 JUMP JUMPDEST PUSH2 0xBF7 DUP3 DUP3 PUSH2 0x12EA JUMP JUMPDEST POP POP JUMP JUMPDEST PUSH2 0xC05 CALLER DUP3 PUSH2 0x131E JUMP JUMPDEST POP JUMP JUMPDEST PUSH2 0xC10 PUSH2 0x12BD JUMP JUMPDEST PUSH2 0xC19 PUSH0 PUSH2 0x15AD JUMP JUMPDEST JUMP JUMPDEST PUSH2 0xC26 DUP3 CALLER DUP4 PUSH2 0x13AC JUMP JUMPDEST PUSH2 0xBF7 DUP3 DUP3 PUSH2 0x131E JUMP JUMPDEST PUSH1 0x1 PUSH1 0x1 PUSH1 0xA0 SHL SUB DUP2 AND PUSH0 SWAP1 DUP2 MSTORE PUSH1 0x8 PUSH1 0x20 MSTORE PUSH1 0x40 DUP2 KECCAK256 SLOAD PUSH2 0x5C0 JUMP JUMPDEST PUSH0 PUSH1 0x60 DUP1 PUSH0 PUSH0 PUSH0 PUSH1 0x60 PUSH2 0xC5E PUSH2 0x15FE JUMP JUMPDEST PUSH2 0xC66 PUSH2 0x162B JUMP JUMPDEST PUSH1 0x40 DUP1 MLOAD PUSH0 DUP1 DUP3 MSTORE PUSH1 0x20 DUP3 ADD SWAP1 SWAP3 MSTORE PUSH1 0xF PUSH1 0xF8 SHL SWAP12 SWAP4 SWAP11 POP SWAP2 SWAP9 POP CHAINID SWAP8 POP ADDRESS SWAP7 POP SWAP5 POP SWAP3 POP SWAP1 POP JUMP JUMPDEST ADDRESS PUSH0 SWAP1 DUP2 MSTORE PUSH1 0x20 DUP2 SWAP1 MSTORE PUSH1 0x40 DUP2 KECCAK256 SLOAD PUSH1 0xB SLOAD DUP1 DUP3 GT ISZERO PUSH2 0xCBA JUMPI PUSH2 0xCB3 DUP2 DUP4 PUSH2 0x1D71 JUMP JUMPDEST SWAP3 POP POP POP SWAP1 JUMP JUMPDEST PUSH0 SWAP3 POP POP POP SWAP1 JUMP JUMPDEST PUSH1 0x60 PUSH1 0x4 DUP1 SLOAD PUSH2 0x5D5 SWAP1 PUSH2 0x1DCD JUMP JUMPDEST PUSH2 0xCD9 PUSH2 0x12BD JUMP JUMPDEST PUSH1 0x1 PUSH1 0x1 PUSH1 0xA0 SHL SUB DUP2 AND PUSH2 0xD2F JUMPI PUSH1 0x40 MLOAD PUSH3 0x461BCD PUSH1 0xE5 SHL DUP2 MSTORE PUSH1 0x20 PUSH1 0x4 DUP3 ADD DUP2 SWAP1 MSTORE PUSH1 0x24 DUP3 ADD MSTORE PUSH32 0x496E76616C6964206275796261636B20636F6E74726163742061646472657373 PUSH1 0x44 DUP3 ADD MSTORE PUSH1 0x64 ADD PUSH2 0x713 JUMP JUMPDEST PUSH1 0xA DUP1 SLOAD PUSH1 0x1 PUSH1 0x1 PUSH1 0xA0 SHL SUB NOT AND PUSH1 0x1 PUSH1 0x1 PUSH1 0xA0 SHL SUB SWAP3 SWAP1 SWAP3 AND SWAP2 SWAP1 SWAP2 OR SWAP1 SSTORE JUMP JUMPDEST PUSH1 0x5 SLOAD PUSH1 0x1 PUSH1 0x1 PUSH1 0xA0 SHL SUB AND CALLER EQ DUP1 PUSH2 0xD74 JUMPI POP PUSH1 0xA SLOAD PUSH1 0x1 PUSH1 0x1 PUSH1 0xA0 SHL SUB AND CALLER EQ JUMPDEST PUSH2 0xD90 JUMPI PUSH1 0x40 MLOAD PUSH3 0x461BCD PUSH1 0xE5 SHL DUP2 MSTORE PUSH1 0x4 ADD PUSH2 0x713 SWAP1 PUSH2 0x1E1F JUMP JUMPDEST PUSH0 DUP2 GT PUSH2 0xC26 JUMPI PUSH1 0x40 MLOAD PUSH3 0x461BCD PUSH1 0xE5 SHL DUP2 MSTORE PUSH1 0x20 PUSH1 0x4 DUP3 ADD MSTORE PUSH1 0x25 PUSH1 0x24 DUP3 ADD MSTORE PUSH32 0x4275726E20616D6F756E74206D7573742062652067726561746572207468616E PUSH1 0x44 DUP3 ADD MSTORE PUSH5 0x207A65726F PUSH1 0xD8 SHL PUSH1 0x64 DUP3 ADD MSTORE PUSH1 0x84 ADD PUSH2 0x713 JUMP JUMPDEST CALLER PUSH2 0xDF6 PUSH2 0xF5A JUMP JUMPDEST PUSH1 0xE SSTORE TIMESTAMP PUSH1 0xD SSTORE PUSH1 0x1 PUSH1 0x1 PUSH1 0xA0 SHL SUB DUP2 AND ISZERO PUSH2 0xE40 JUMPI PUSH2 0xE15 DUP2 PUSH2 0x54B JUMP JUMPDEST PUSH1 0x1 PUSH1 0x1 PUSH1 0xA0 SHL SUB DUP3 AND PUSH0 SWAP1 DUP2 MSTORE PUSH1 0x11 PUSH1 0x20 SWAP1 DUP2 MSTORE PUSH1 0x40 DUP1 DUP4 KECCAK256 SWAP4 SWAP1 SWAP4 SSTORE PUSH1 0xE SLOAD PUSH1 0x10 SWAP1 SWAP2 MSTORE SWAP2 SWAP1 KECCAK256 SSTORE JUMPDEST PUSH0 DUP3 GT PUSH2 0xE80 JUMPI PUSH1 0x40 MLOAD PUSH3 0x461BCD PUSH1 0xE5 SHL DUP2 MSTORE PUSH1 0x20 PUSH1 0x4 DUP3 ADD MSTORE PUSH1 0xE PUSH1 0x24 DUP3 ADD MSTORE PUSH14 0x43616E6E6F74207374616B65203 PUSH1 0x94 SHL PUSH1 0x44 DUP3 ADD MSTORE PUSH1 0x64 ADD PUSH2 0x713 JUMP JUMPDEST CALLER PUSH0 SWAP1 DUP2 MSTORE PUSH1 0x20 DUP2 SWAP1 MSTORE PUSH1 0x40 SWAP1 KECCAK256 SLOAD DUP3 GT ISZERO PUSH2 0xED5 JUMPI PUSH1 0x40 MLOAD PUSH3 0x461BCD PUSH1 0xE5 SHL DUP2 MSTORE PUSH1 0x20 PUSH1 0x4 DUP3 ADD MSTORE PUSH1 0x14 PUSH1 0x24 DUP3 ADD MSTORE PUSH20 0x496E73756666696369656E742062616C616E6365 PUSH1 0x60 SHL PUSH1 0x44 DUP3 ADD MSTORE PUSH1 0x64 ADD PUSH2 0x713 JUMP JUMPDEST PUSH2 0xEE0 CALLER ADDRESS DUP5 PUSH2 0x1427 JUMP JUMPDEST CALLER PUSH0 SWAP1 DUP2 MSTORE PUSH1 0xF PUSH1 0x20 MSTORE PUSH1 0x40 DUP2 KECCAK256 DUP1 SLOAD DUP5 SWAP3 SWAP1 PUSH2 0xEFE SWAP1 DUP5 SWAP1 PUSH2 0x1DBA JUMP JUMPDEST SWAP3 POP POP DUP2 SWAP1 SSTORE POP DUP2 PUSH1 0xB PUSH0 DUP3 DUP3 SLOAD PUSH2 0xF16 SWAP2 SWAP1 PUSH2 0x1DBA JUMP JUMPDEST SWAP1 SWAP2 SSTORE POP POP PUSH1 0x40 MLOAD DUP3 DUP2 MSTORE CALLER SWAP1 PUSH32 0xEBEDB8B3C678666E7F36970BC8F57ABF6D8FA2E828C0DA91EA5B75BF68ED101A SWAP1 PUSH1 0x20 ADD PUSH2 0xA38 JUMP JUMPDEST PUSH0 CALLER PUSH2 0x663 DUP2 DUP6 DUP6 PUSH2 0x1427 JUMP JUMPDEST PUSH0 PUSH1 0xB SLOAD PUSH0 SUB PUSH2 0xF6B JUMPI POP PUSH1 0xE SLOAD SWAP1 JUMP JUMPDEST PUSH0 PUSH1 0xD SLOAD TIMESTAMP PUSH2 0xF7A SWAP2 SWAP1 PUSH2 0x1D71 JUMP JUMPDEST SWAP1 POP PUSH0 PUSH1 0xB SLOAD PUSH1 0xC SLOAD DUP4 PUSH2 0xF8E SWAP2 SWAP1 PUSH2 0x1D84 JUMP JUMPDEST PUSH2 0xFA0 SWAP1 PUSH8 0xDE0B6B3A7640000 PUSH2 0x1D84 JUMP JUMPDEST PUSH2 0xFAA SWAP2 SWAP1 PUSH2 0x1D9B JUMP JUMPDEST SWAP1 POP DUP1 PUSH1 0xE SLOAD PUSH2 0xCB3 SWAP2 SWAP1 PUSH2 0x1DBA JUMP JUMPDEST DUP4 TIMESTAMP GT ISZERO PUSH2 0xFDE JUMPI PUSH1 0x40 MLOAD PUSH4 0x313C8981 PUSH1 0xE1 SHL DUP2 MSTORE PUSH1 0x4 DUP2 ADD DUP6 SWAP1 MSTORE PUSH1 0x24 ADD PUSH2 0x713 JUMP JUMPDEST PUSH0 PUSH32 0x6E71EDAE12B1B97F4D1F60370FEF10105FA2FAAE0126114A169C64845D6126C9 DUP9 DUP9 DUP9 PUSH2 0x1029 DUP13 PUSH1 0x1 PUSH1 0x1 PUSH1 0xA0 SHL SUB AND PUSH0 SWAP1 DUP2 MSTORE PUSH1 0x8 PUSH1 0x20 MSTORE PUSH1 0x40 SWAP1 KECCAK256 DUP1 SLOAD PUSH1 0x1 DUP2 ADD SWAP1 SWAP2 SSTORE SWAP1 JUMP JUMPDEST PUSH1 0x40 DUP1 MLOAD PUSH1 0x20 DUP2 ADD SWAP7 SWAP1 SWAP7 MSTORE PUSH1 0x1 PUSH1 0x1 PUSH1 0xA0 SHL SUB SWAP5 DUP6 AND SWAP1 DUP7 ADD MSTORE SWAP3 SWAP1 SWAP2 AND PUSH1 0x60 DUP5 ADD MSTORE PUSH1 0x80 DUP4 ADD MSTORE PUSH1 0xA0 DUP3 ADD MSTORE PUSH1 0xC0 DUP2 ADD DUP7 SWAP1 MSTORE PUSH1 0xE0 ADD PUSH1 0x40 MLOAD PUSH1 0x20 DUP2 DUP4 SUB SUB DUP2 MSTORE SWAP1 PUSH1 0x40 MSTORE DUP1 MLOAD SWAP1 PUSH1 0x20 ADD KECCAK256 SWAP1 POP PUSH0 PUSH2 0x1083 DUP3 PUSH2 0x1658 JUMP JUMPDEST SWAP1 POP PUSH0 PUSH2 0x1092 DUP3 DUP8 DUP8 DUP8 PUSH2 0x1684 JUMP JUMPDEST SWAP1 POP DUP10 PUSH1 0x1 PUSH1 0x1 PUSH1 0xA0 SHL SUB AND DUP2 PUSH1 0x1 PUSH1 0x1 PUSH1 0xA0 SHL SUB AND EQ PUSH2 0x10D9 JUMPI PUSH1 0x40 MLOAD PUSH4 0x25C00723 PUSH1 0xE1 SHL DUP2 MSTORE PUSH1 0x1 PUSH1 0x1 PUSH1 0xA0 SHL SUB DUP1 DUP4 AND PUSH1 0x4 DUP4 ADD MSTORE DUP12 AND PUSH1 0x24 DUP3 ADD MSTORE PUSH1 0x44 ADD PUSH2 0x713 JUMP JUMPDEST PUSH2 0x10E4 DUP11 DUP11 DUP11 PUSH2 0x12AB JUMP JUMPDEST POP POP POP POP POP POP POP POP POP POP JUMP JUMPDEST PUSH1 0x5 SLOAD PUSH1 0x1 PUSH1 0x1 PUSH1 0xA0 SHL SUB AND CALLER EQ DUP1 PUSH2 0x1118 JUMPI POP PUSH1 0x9 SLOAD PUSH2 0x100 SWAP1 DIV PUSH1 0x1 PUSH1 0x1 PUSH1 0xA0 SHL SUB AND CALLER EQ JUMPDEST PUSH2 0x1134 JUMPI PUSH1 0x40 MLOAD PUSH3 0x461BCD PUSH1 0xE5 SHL DUP2 MSTORE PUSH1 0x4 ADD PUSH2 0x713 SWAP1 PUSH2 0x1E1F JUMP JUMPDEST PUSH1 0x9 SLOAD PUSH1 0xFF AND ISZERO PUSH2 0x1187 JUMPI PUSH1 0x40 MLOAD PUSH3 0x461BCD PUSH1 0xE5 SHL DUP2 MSTORE PUSH1 0x20 PUSH1 0x4 DUP3 ADD MSTORE PUSH1 0x1A PUSH1 0x24 DUP3 ADD MSTORE PUSH32 0x537570706C7920616C726561647920696E697469616C697A6564000000000000 PUSH1 0x44 DUP3 ADD MSTORE PUSH1 0x64 ADD PUSH2 0x713 JUMP JUMPDEST PUSH1 0x9 SLOAD PUSH2 0x11A2 SWAP1 PUSH2 0x100 SWAP1 DIV PUSH1 0x1 PUSH1 0x1 PUSH1 0xA0 SHL SUB AND DUP3 PUSH2 0x12EA JUMP JUMPDEST POP PUSH1 0x9 DUP1 SLOAD PUSH1 0xFF NOT AND PUSH1 0x1 OR SWAP1 SSTORE PUSH0 PUSH1 0xE SSTORE TIMESTAMP PUSH1 0xD SSTORE JUMP JUMPDEST PUSH2 0x11C2 PUSH2 0x12BD JUMP JUMPDEST PUSH1 0x1 PUSH1 0x1 PUSH1 0xA0 SHL SUB DUP2 AND PUSH2 0x1218 JUMPI PUSH1 0x40 MLOAD PUSH3 0x461BCD PUSH1 0xE5 SHL DUP2 MSTORE PUSH1 0x20 PUSH1 0x4 DUP3 ADD MSTORE PUSH1 0x19 PUSH1 0x24 DUP3 ADD MSTORE PUSH32 0x496E76616C696420726563697069656E74206164647265737300000000000000 PUSH1 0x44 DUP3 ADD MSTORE PUSH1 0x64 ADD PUSH2 0x713 JUMP JUMPDEST PUSH1 0x9 DUP1 SLOAD PUSH1 0x1 PUSH1 0x1 PUSH1 0xA0 SHL SUB DUP4 DUP2 AND PUSH2 0x100 DUP2 DUP2 MUL PUSH2 0x100 PUSH1 0x1 PUSH1 0xA8 SHL SUB NOT DUP6 AND OR SWAP1 SWAP5 SSTORE PUSH1 0x40 MLOAD SWAP4 SWAP1 SWAP3 DIV AND SWAP2 DUP3 SWAP1 PUSH32 0x4CC4248AC27AD92E14FB2F7ABA38F441917171C041D0A883A56B3B58798DBE82 SWAP1 PUSH0 SWAP1 LOG3 POP POP JUMP JUMPDEST PUSH2 0x1279 PUSH2 0x12BD JUMP JUMPDEST PUSH1 0x1 PUSH1 0x1 PUSH1 0xA0 SHL SUB DUP2 AND PUSH2 0x12A2 JUMPI PUSH1 0x40 MLOAD PUSH4 0x1E4FBDF7 PUSH1 0xE0 SHL DUP2 MSTORE PUSH0 PUSH1 0x4 DUP3 ADD MSTORE PUSH1 0x24 ADD PUSH2 0x713 JUMP JUMPDEST PUSH2 0xC05 DUP2 PUSH2 0x15AD JUMP JUMPDEST PUSH2 0x12B8 DUP4 DUP4 DUP4 PUSH1 0x1 PUSH2 0x16B0 JUMP JUMPDEST POP POP POP JUMP JUMPDEST PUSH1 0x5 SLOAD PUSH1 0x1 PUSH1 0x1 PUSH1 0xA0 SHL SUB AND CALLER EQ PUSH2 0xC19 JUMPI PUSH1 0x40 MLOAD PUSH4 0x118CDAA7 PUSH1 0xE0 SHL DUP2 MSTORE CALLER PUSH1 0x4 DUP3 ADD MSTORE PUSH1 0x24 ADD PUSH2 0x713 JUMP JUMPDEST PUSH1 0x1 PUSH1 0x1 PUSH1 0xA0 SHL SUB DUP3 AND PUSH2 0x1313 JUMPI PUSH1 0x40 MLOAD PUSH4 0xEC442F05 PUSH1 0xE0 SHL DUP2 MSTORE PUSH0 PUSH1 0x4 DUP3 ADD MSTORE PUSH1 0x24 ADD PUSH2 0x713 JUMP JUMPDEST PUSH2 0xBF7 PUSH0 DUP4 DUP4 PUSH2 0x1782 JUMP JUMPDEST PUSH1 0x1 PUSH1 0x1 PUSH1 0xA0 SHL SUB DUP3 AND PUSH2 0x1347 JUMPI PUSH1 0x40 MLOAD PUSH4 0x4B637E8F PUSH1 0xE1 SHL DUP2 MSTORE PUSH0 PUSH1 0x4 DUP3 ADD MSTORE PUSH1 0x24 ADD PUSH2 0x713 JUMP JUMPDEST PUSH2 0xBF7 DUP3 PUSH0 DUP4 PUSH2 0x1782 JUMP JUMPDEST PUSH0 PUSH2 0x135B PUSH2 0xC8F JUMP JUMPDEST SWAP1 POP PUSH2 0x136B PUSH4 0x1E13380 DUP3 PUSH2 0x1D9B JUMP JUMPDEST PUSH1 0xC DUP2 SWAP1 SSTORE PUSH1 0x40 DUP1 MLOAD SWAP2 DUP3 MSTORE PUSH1 0x20 DUP3 ADD DUP4 SWAP1 MSTORE PUSH32 0xFCCEAC460A055190AE11D78FD7E26B1B65D10F82D2CCEC3F13B7F2A3F183FB97 SWAP2 ADD PUSH1 0x40 MLOAD DUP1 SWAP2 SUB SWAP1 LOG1 POP JUMP JUMPDEST PUSH1 0x1 PUSH1 0x1 PUSH1 0xA0 SHL SUB DUP4 DUP2 AND PUSH0 SWAP1 DUP2 MSTORE PUSH1 0x1 PUSH1 0x20 SWAP1 DUP2 MSTORE PUSH1 0x40 DUP1 DUP4 KECCAK256 SWAP4 DUP7 AND DUP4 MSTORE SWAP3 SWAP1 MSTORE KECCAK256 SLOAD PUSH0 NOT DUP2 EQ PUSH2 0x1421 JUMPI DUP2 DUP2 LT ISZERO PUSH2 0x1413 JUMPI PUSH1 0x40 MLOAD PUSH4 0x7DC7A0D9 PUSH1 0xE1 SHL DUP2 MSTORE PUSH1 0x1 PUSH1 0x1 PUSH1 0xA0 SHL SUB DUP5 AND PUSH1 0x4 DUP3 ADD MSTORE PUSH1 0x24 DUP2 ADD DUP3 SWAP1 MSTORE PUSH1 0x44 DUP2 ADD DUP4 SWAP1 MSTORE PUSH1 0x64 ADD PUSH2 0x713 JUMP JUMPDEST PUSH2 0x1421 DUP5 DUP5 DUP5 DUP5 SUB PUSH0 PUSH2 0x16B0 JUMP JUMPDEST POP POP POP POP JUMP JUMPDEST PUSH1 0x1 PUSH1 0x1 PUSH1 0xA0 SHL SUB DUP4 AND PUSH2 0x1450 JUMPI PUSH1 0x40 MLOAD PUSH4 0x4B637E8F PUSH1 0xE1 SHL DUP2 MSTORE PUSH0 PUSH1 0x4 DUP3 ADD MSTORE PUSH1 0x24 ADD PUSH2 0x713 JUMP JUMPDEST PUSH1 0x1 PUSH1 0x1 PUSH1 0xA0 SHL SUB DUP3 AND PUSH2 0x1479 JUMPI PUSH1 0x40 MLOAD PUSH4 0xEC442F05 PUSH1 0xE0 SHL DUP2 MSTORE PUSH0 PUSH1 0x4 DUP3 ADD MSTORE PUSH1 0x24 ADD PUSH2 0x713 JUMP JUMPDEST PUSH2 0x12B8 DUP4 DUP4 DUP4 PUSH2 0x1782 JUMP JUMPDEST PUSH0 ADDRESS PUSH1 0x1 PUSH1 0x1 PUSH1 0xA0 SHL SUB PUSH32 0x0 AND EQ DUP1 ISZERO PUSH2 0x14DC JUMPI POP PUSH32 0x0 CHAINID EQ JUMPDEST ISZERO PUSH2 0x1506 JUMPI POP PUSH32 0x0 SWAP1 JUMP JUMPDEST PUSH2 0xA4D PUSH1 0x40 DUP1 MLOAD PUSH32 0x8B73C3C69BB8FE3D512ECC4CF759CC79239F7B179B0FFACAA9A75D522B39400F PUSH1 0x20 DUP3 ADD MSTORE PUSH32 0x0 SWAP2 DUP2 ADD SWAP2 SWAP1 SWAP2 MSTORE PUSH32 0x0 PUSH1 0x60 DUP3 ADD MSTORE CHAINID PUSH1 0x80 DUP3 ADD MSTORE ADDRESS PUSH1 0xA0 DUP3 ADD MSTORE PUSH0 SWAP1 PUSH1 0xC0 ADD PUSH1 0x40 MLOAD PUSH1 0x20 DUP2 DUP4 SUB SUB DUP2 MSTORE SWAP1 PUSH1 0x40 MSTORE DUP1 MLOAD SWAP1 PUSH1 0x20 ADD KECCAK256 SWAP1 POP SWAP1 JUMP JUMPDEST PUSH1 0x5 DUP1 SLOAD PUSH1 0x1 PUSH1 0x1 PUSH1 0xA0 SHL SUB DUP4 DUP2 AND PUSH1 0x1 PUSH1 0x1 PUSH1 0xA0 SHL SUB NOT DUP4 AND DUP2 OR SWAP1 SWAP4 SSTORE PUSH1 0x40 MLOAD SWAP2 AND SWAP2 SWAP1 DUP3 SWAP1 PUSH32 0x8BE0079C531659141344CD1FD0A4F28419497F9722A3DAAFE3B4186F6B6457E0 SWAP1 PUSH0 SWAP1 LOG3 POP POP JUMP JUMPDEST PUSH1 0x60 PUSH2 0xA4D PUSH32 0x0 PUSH1 0x6 PUSH2 0x18A8 JUMP JUMPDEST PUSH1 0x60 PUSH2 0xA4D PUSH32 0x0 PUSH1 0x7 PUSH2 0x18A8 JUMP JUMPDEST PUSH0 PUSH2 0x5C0 PUSH2 0x1664 PUSH2 0x1484 JUMP JUMPDEST DUP4 PUSH1 0x40 MLOAD PUSH2 0x1901 PUSH1 0xF0 SHL DUP2 MSTORE PUSH1 0x2 DUP2 ADD SWAP3 SWAP1 SWAP3 MSTORE PUSH1 0x22 DUP3 ADD MSTORE PUSH1 0x42 SWAP1 KECCAK256 SWAP1 JUMP JUMPDEST PUSH0 PUSH0 PUSH0 PUSH0 PUSH2 0x1694 DUP9 DUP9 DUP9 DUP9 PUSH2 0x1951 JUMP JUMPDEST SWAP3 POP SWAP3 POP SWAP3 POP PUSH2 0x16A4 DUP3 DUP3 PUSH2 0x1A19 JUMP JUMPDEST POP SWAP1 SWAP7 SWAP6 POP POP POP POP POP POP JUMP JUMPDEST PUSH1 0x1 PUSH1 0x1 PUSH1 0xA0 SHL SUB DUP5 AND PUSH2 0x16D9 JUMPI PUSH1 0x40 MLOAD PUSH4 0xE602DF05 PUSH1 0xE0 SHL DUP2 MSTORE PUSH0 PUSH1 0x4 DUP3 ADD MSTORE PUSH1 0x24 ADD PUSH2 0x713 JUMP JUMPDEST PUSH1 0x1 PUSH1 0x1 PUSH1 0xA0 SHL SUB DUP4 AND PUSH2 0x1702 JUMPI PUSH1 0x40 MLOAD PUSH4 0x4A1406B1 PUSH1 0xE1 SHL DUP2 MSTORE PUSH0 PUSH1 0x4 DUP3 ADD MSTORE PUSH1 0x24 ADD PUSH2 0x713 JUMP JUMPDEST PUSH1 0x1 PUSH1 0x1 PUSH1 0xA0 SHL SUB DUP1 DUP6 AND PUSH0 SWAP1 DUP2 MSTORE PUSH1 0x1 PUSH1 0x20 SWAP1 DUP2 MSTORE PUSH1 0x40 DUP1 DUP4 KECCAK256 SWAP4 DUP8 AND DUP4 MSTORE SWAP3 SWAP1 MSTORE KECCAK256 DUP3 SWAP1 SSTORE DUP1 ISZERO PUSH2 0x1421 JUMPI DUP3 PUSH1 0x1 PUSH1 0x1 PUSH1 0xA0 SHL SUB AND DUP5 PUSH1 0x1 PUSH1 0x1 PUSH1 0xA0 SHL SUB AND PUSH32 0x8C5BE1E5EBEC7D5BD14F71427D1E84F3DD0314C0F7B2291E5B200AC8C7C3B925 DUP5 PUSH1 0x40 MLOAD PUSH2 0x1774 SWAP2 DUP2 MSTORE PUSH1 0x20 ADD SWAP1 JUMP JUMPDEST PUSH1 0x40 MLOAD DUP1 SWAP2 SUB SWAP1 LOG3 POP POP POP POP JUMP JUMPDEST PUSH1 0x1 PUSH1 0x1 PUSH1 0xA0 SHL SUB DUP4 AND PUSH2 0x17AC JUMPI DUP1 PUSH1 0x2 PUSH0 DUP3 DUP3 SLOAD PUSH2 0x17A1 SWAP2 SWAP1 PUSH2 0x1DBA JUMP JUMPDEST SWAP1 SWAP2 SSTORE POP PUSH2 0x181C SWAP1 POP JUMP JUMPDEST PUSH1 0x1 PUSH1 0x1 PUSH1 0xA0 SHL SUB DUP4 AND PUSH0 SWAP1 DUP2 MSTORE PUSH1 0x20 DUP2 SWAP1 MSTORE PUSH1 0x40 SWAP1 KECCAK256 SLOAD DUP2 DUP2 LT ISZERO PUSH2 0x17FE JUMPI PUSH1 0x40 MLOAD PUSH4 0x391434E3 PUSH1 0xE2 SHL DUP2 MSTORE PUSH1 0x1 PUSH1 0x1 PUSH1 0xA0 SHL SUB DUP6 AND PUSH1 0x4 DUP3 ADD MSTORE PUSH1 0x24 DUP2 ADD DUP3 SWAP1 MSTORE PUSH1 0x44 DUP2 ADD DUP4 SWAP1 MSTORE PUSH1 0x64 ADD PUSH2 0x713 JUMP JUMPDEST PUSH1 0x1 PUSH1 0x1 PUSH1 0xA0 SHL SUB DUP5 AND PUSH0 SWAP1 DUP2 MSTORE PUSH1 0x20 DUP2 SWAP1 MSTORE PUSH1 0x40 SWAP1 KECCAK256 SWAP1 DUP3 SWAP1 SUB SWAP1 SSTORE JUMPDEST PUSH1 0x1 PUSH1 0x1 PUSH1 0xA0 SHL SUB DUP3 AND PUSH2 0x1838 JUMPI PUSH1 0x2 DUP1 SLOAD DUP3 SWAP1 SUB SWAP1 SSTORE PUSH2 0x1856 JUMP JUMPDEST PUSH1 0x1 PUSH1 0x1 PUSH1 0xA0 SHL SUB DUP3 AND PUSH0 SWAP1 DUP2 MSTORE PUSH1 0x20 DUP2 SWAP1 MSTORE PUSH1 0x40 SWAP1 KECCAK256 DUP1 SLOAD DUP3 ADD SWAP1 SSTORE JUMPDEST DUP2 PUSH1 0x1 PUSH1 0x1 PUSH1 0xA0 SHL SUB AND DUP4 PUSH1 0x1 PUSH1 0x1 PUSH1 0xA0 SHL SUB AND PUSH32 0xDDF252AD1BE2C89B69C2B068FC378DAA952BA7F163C4A11628F55A4DF523B3EF DUP4 PUSH1 0x40 MLOAD PUSH2 0x189B SWAP2 DUP2 MSTORE PUSH1 0x20 ADD SWAP1 JUMP JUMPDEST PUSH1 0x40 MLOAD DUP1 SWAP2 SUB SWAP1 LOG3 POP POP POP JUMP JUMPDEST PUSH1 0x60 PUSH1 0xFF DUP4 EQ PUSH2 0x18C2 JUMPI PUSH2 0x18BB DUP4 PUSH2 0x1AD1 JUMP JUMPDEST SWAP1 POP PUSH2 0x5C0 JUMP JUMPDEST DUP2 DUP1 SLOAD PUSH2 0x18CE SWAP1 PUSH2 0x1DCD JUMP JUMPDEST DUP1 PUSH1 0x1F ADD PUSH1 0x20 DUP1 SWAP2 DIV MUL PUSH1 0x20 ADD PUSH1 0x40 MLOAD SWAP1 DUP2 ADD PUSH1 0x40 MSTORE DUP1 SWAP3 SWAP2 SWAP1 DUP2 DUP2 MSTORE PUSH1 0x20 ADD DUP3 DUP1 SLOAD PUSH2 0x18FA SWAP1 PUSH2 0x1DCD JUMP JUMPDEST DUP1 ISZERO PUSH2 0x1945 JUMPI DUP1 PUSH1 0x1F LT PUSH2 0x191C JUMPI PUSH2 0x100 DUP1 DUP4 SLOAD DIV MUL DUP4 MSTORE SWAP2 PUSH1 0x20 ADD SWAP2 PUSH2 0x1945 JUMP JUMPDEST DUP3 ADD SWAP2 SWAP1 PUSH0 MSTORE PUSH1 0x20 PUSH0 KECCAK256 SWAP1 JUMPDEST DUP2 SLOAD DUP2 MSTORE SWAP1 PUSH1 0x1 ADD SWAP1 PUSH1 0x20 ADD DUP1 DUP4 GT PUSH2 0x1928 JUMPI DUP3 SWAP1 SUB PUSH1 0x1F AND DUP3 ADD SWAP2 JUMPDEST POP POP POP POP POP SWAP1 POP PUSH2 0x5C0 JUMP JUMPDEST PUSH0 DUP1 DUP1 PUSH32 0x7FFFFFFFFFFFFFFFFFFFFFFFFFFFFFFF5D576E7357A4501DDFE92F46681B20A0 DUP5 GT ISZERO PUSH2 0x198A JUMPI POP PUSH0 SWAP2 POP PUSH1 0x3 SWAP1 POP DUP3 PUSH2 0x1A0F JUMP JUMPDEST PUSH1 0x40 DUP1 MLOAD PUSH0 DUP1 DUP3 MSTORE PUSH1 0x20 DUP3 ADD DUP1 DUP5 MSTORE DUP11 SWAP1 MSTORE PUSH1 0xFF DUP10 AND SWAP3 DUP3 ADD SWAP3 SWAP1 SWAP3 MSTORE PUSH1 0x60 DUP2 ADD DUP8 SWAP1 MSTORE PUSH1 0x80 DUP2 ADD DUP7 SWAP1 MSTORE PUSH1 0x1 SWAP1 PUSH1 0xA0 ADD PUSH1 0x20 PUSH1 0x40 MLOAD PUSH1 0x20 DUP2 SUB SWAP1 DUP1 DUP5 SUB SWAP1 DUP6 GAS STATICCALL ISZERO DUP1 ISZERO PUSH2 0x19DB JUMPI RETURNDATASIZE PUSH0 PUSH0 RETURNDATACOPY RETURNDATASIZE PUSH0 REVERT JUMPDEST POP POP PUSH1 0x40 MLOAD PUSH1 0x1F NOT ADD MLOAD SWAP2 POP POP PUSH1 0x1 PUSH1 0x1 PUSH1 0xA0 SHL SUB DUP2 AND PUSH2 0x1A06 JUMPI POP PUSH0 SWAP3 POP PUSH1 0x1 SWAP2 POP DUP3 SWAP1 POP PUSH2 0x1A0F JUMP JUMPDEST SWAP3 POP PUSH0 SWAP2 POP DUP2 SWAP1 POP JUMPDEST SWAP5 POP SWAP5 POP SWAP5 SWAP2 POP POP JUMP JUMPDEST PUSH0 DUP3 PUSH1 0x3 DUP2 GT ISZERO PUSH2 0x1A2C JUMPI PUSH2 0x1A2C PUSH2 0x1E56 JUMP JUMPDEST SUB PUSH2 0x1A35 JUMPI POP POP JUMP JUMPDEST PUSH1 0x1 DUP3 PUSH1 0x3 DUP2 GT ISZERO PUSH2 0x1A49 JUMPI PUSH2 0x1A49 PUSH2 0x1E56 JUMP JUMPDEST SUB PUSH2 0x1A67 JUMPI PUSH1 0x40 MLOAD PUSH4 0xF645EEDF PUSH1 0xE0 SHL DUP2 MSTORE PUSH1 0x4 ADD PUSH1 0x40 MLOAD DUP1 SWAP2 SUB SWAP1 REVERT JUMPDEST PUSH1 0x2 DUP3 PUSH1 0x3 DUP2 GT ISZERO PUSH2 0x1A7B JUMPI PUSH2 0x1A7B PUSH2 0x1E56 JUMP JUMPDEST SUB PUSH2 0x1A9C JUMPI PUSH1 0x40 MLOAD PUSH4 0xFCE698F7 PUSH1 0xE0 SHL DUP2 MSTORE PUSH1 0x4 DUP2 ADD DUP3 SWAP1 MSTORE PUSH1 0x24 ADD PUSH2 0x713 JUMP JUMPDEST PUSH1 0x3 DUP3 PUSH1 0x3 DUP2 GT ISZERO PUSH2 0x1AB0 JUMPI PUSH2 0x1AB0 PUSH2 0x1E56 JUMP JUMPDEST SUB PUSH2 0xBF7 JUMPI PUSH1 0x40 MLOAD PUSH4 0x35E2F383 PUSH1 0xE2 SHL DUP2 MSTORE PUSH1 0x4 DUP2 ADD DUP3 SWAP1 MSTORE PUSH1 0x24 ADD PUSH2 0x713 JUMP JUMPDEST PUSH1 0x60 PUSH0 PUSH2 0x1ADD DUP4 PUSH2 0x1B0E JUMP JUMPDEST PUSH1 0x40 DUP1 MLOAD PUSH1 0x20 DUP1 DUP3 MSTORE DUP2 DUP4 ADD SWAP1 SWAP3 MSTORE SWAP2 SWAP3 POP PUSH0 SWAP2 SWAP1 PUSH1 0x20 DUP3 ADD DUP2 DUP1 CALLDATASIZE DUP4 CALLDATACOPY POP POP POP SWAP2 DUP3 MSTORE POP PUSH1 0x20 DUP2 ADD SWAP3 SWAP1 SWAP3 MSTORE POP SWAP1 JUMP JUMPDEST PUSH0 PUSH1 0xFF DUP3 AND PUSH1 0x1F DUP2 GT ISZERO PUSH2 0x5C0 JUMPI PUSH1 0x40 MLOAD PUSH4 0x2CD44AC3 PUSH1 0xE2 SHL DUP2 MSTORE PUSH1 0x4 ADD PUSH1 0x40 MLOAD DUP1 SWAP2 SUB SWAP1 REVERT JUMPDEST DUP1 CALLDATALOAD PUSH1 0x1 PUSH1 0x1 PUSH1 0xA0 SHL SUB DUP2 AND DUP2 EQ PUSH2 0x1B4B JUMPI PUSH0 PUSH0 REVERT JUMPDEST SWAP2 SWAP1 POP JUMP JUMPDEST PUSH0 PUSH1 0x20 DUP3 DUP5 SUB SLT ISZERO PUSH2 0x1B60 JUMPI PUSH0 PUSH0 REVERT JUMPDEST PUSH2 0x1B69 DUP3 PUSH2 0x1B35 JUMP JUMPDEST SWAP4 SWAP3 POP POP POP JUMP JUMPDEST PUSH0 DUP2 MLOAD DUP1 DUP5 MSTORE DUP1 PUSH1 0x20 DUP5 ADD PUSH1 0x20 DUP7 ADD MCOPY PUSH0 PUSH1 0x20 DUP3 DUP7 ADD ADD MSTORE PUSH1 0x20 PUSH1 0x1F NOT PUSH1 0x1F DUP4 ADD AND DUP6 ADD ADD SWAP2 POP POP SWAP3 SWAP2 POP POP JUMP JUMPDEST PUSH1 0x20 DUP2 MSTORE PUSH0 PUSH2 0x1B69 PUSH1 0x20 DUP4 ADD DUP5 PUSH2 0x1B70 JUMP JUMPDEST PUSH0 PUSH0 PUSH1 0x40 DUP4 DUP6 SUB SLT ISZERO PUSH2 0x1BC1 JUMPI PUSH0 PUSH0 REVERT JUMPDEST PUSH2 0x1BCA DUP4 PUSH2 0x1B35 JUMP JUMPDEST SWAP5 PUSH1 0x20 SWAP4 SWAP1 SWAP4 ADD CALLDATALOAD SWAP4 POP POP POP JUMP JUMPDEST PUSH0 PUSH1 0x20 DUP3 DUP5 SUB SLT ISZERO PUSH2 0x1BE8 JUMPI PUSH0 PUSH0 REVERT JUMPDEST POP CALLDATALOAD SWAP2 SWAP1 POP JUMP JUMPDEST PUSH0 PUSH0 PUSH0 PUSH1 0x60 DUP5 DUP7 SUB SLT ISZERO PUSH2 0x1C01 JUMPI PUSH0 PUSH0 REVERT JUMPDEST PUSH2 0x1C0A DUP5 PUSH2 0x1B35 JUMP JUMPDEST SWAP3 POP PUSH2 0x1C18 PUSH1 0x20 DUP6 ADD PUSH2 0x1B35 JUMP JUMPDEST SWAP3 SWAP6 SWAP3 SWAP5 POP POP POP PUSH1 0x40 SWAP2 SWAP1 SWAP2 ADD CALLDATALOAD SWAP1 JUMP JUMPDEST PUSH1 0xFF PUSH1 0xF8 SHL DUP9 AND DUP2 MSTORE PUSH1 0xE0 PUSH1 0x20 DUP3 ADD MSTORE PUSH0 PUSH2 0x1C47 PUSH1 0xE0 DUP4 ADD DUP10 PUSH2 0x1B70 JUMP JUMPDEST DUP3 DUP2 SUB PUSH1 0x40 DUP5 ADD MSTORE PUSH2 0x1C59 DUP2 DUP10 PUSH2 0x1B70 JUMP JUMPDEST PUSH1 0x60 DUP5 ADD DUP9 SWAP1 MSTORE PUSH1 0x1 PUSH1 0x1 PUSH1 0xA0 SHL SUB DUP8 AND PUSH1 0x80 DUP6 ADD MSTORE PUSH1 0xA0 DUP5 ADD DUP7 SWAP1 MSTORE DUP4 DUP2 SUB PUSH1 0xC0 DUP6 ADD MSTORE DUP5 MLOAD DUP1 DUP3 MSTORE PUSH1 0x20 DUP1 DUP8 ADD SWAP4 POP SWAP1 SWAP2 ADD SWAP1 PUSH0 JUMPDEST DUP2 DUP2 LT ISZERO PUSH2 0x1CAE JUMPI DUP4 MLOAD DUP4 MSTORE PUSH1 0x20 SWAP4 DUP5 ADD SWAP4 SWAP1 SWAP3 ADD SWAP2 PUSH1 0x1 ADD PUSH2 0x1C90 JUMP JUMPDEST POP SWAP1 SWAP12 SWAP11 POP POP POP POP POP POP POP POP POP POP POP JUMP JUMPDEST PUSH0 PUSH0 PUSH0 PUSH0 PUSH0 PUSH0 PUSH0 PUSH1 0xE0 DUP9 DUP11 SUB SLT ISZERO PUSH2 0x1CD5 JUMPI PUSH0 PUSH0 REVERT JUMPDEST PUSH2 0x1CDE DUP9 PUSH2 0x1B35 JUMP JUMPDEST SWAP7 POP PUSH2 0x1CEC PUSH1 0x20 DUP10 ADD PUSH2 0x1B35 JUMP JUMPDEST SWAP6 POP PUSH1 0x40 DUP9 ADD CALLDATALOAD SWAP5 POP PUSH1 0x60 DUP9 ADD CALLDATALOAD SWAP4 POP PUSH1 0x80 DUP9 ADD CALLDATALOAD PUSH1 0xFF DUP2 AND DUP2 EQ PUSH2 0x1D0F JUMPI PUSH0 PUSH0 REVERT JUMPDEST SWAP7 SWAP10 SWAP6 SWAP9 POP SWAP4 SWAP7 SWAP3 SWAP6 SWAP5 PUSH1 0xA0 DUP5 ADD CALLDATALOAD SWAP5 POP PUSH1 0xC0 SWAP1 SWAP4 ADD CALLDATALOAD SWAP3 SWAP2 POP POP JUMP JUMPDEST PUSH0 PUSH0 PUSH1 0x40 DUP4 DUP6 SUB SLT ISZERO PUSH2 0x1D3D JUMPI PUSH0 PUSH0 REVERT JUMPDEST PUSH2 0x1D46 DUP4 PUSH2 0x1B35 JUMP JUMPDEST SWAP2 POP PUSH2 0x1D54 PUSH1 0x20 DUP5 ADD PUSH2 0x1B35 JUMP JUMPDEST SWAP1 POP SWAP3 POP SWAP3 SWAP1 POP JUMP JUMPDEST PUSH4 0x4E487B71 PUSH1 0xE0 SHL PUSH0 MSTORE PUSH1 0x11 PUSH1 0x4 MSTORE PUSH1 0x24 PUSH0 REVERT JUMPDEST DUP2 DUP2 SUB DUP2 DUP2 GT ISZERO PUSH2 0x5C0 JUMPI PUSH2 0x5C0 PUSH2 0x1D5D JUMP JUMPDEST DUP1 DUP3 MUL DUP2 ISZERO DUP3 DUP3 DIV DUP5 EQ OR PUSH2 0x5C0 JUMPI PUSH2 0x5C0 PUSH2 0x1D5D JUMP JUMPDEST PUSH0 DUP3 PUSH2 0x1DB5 JUMPI PUSH4 0x4E487B71 PUSH1 0xE0 SHL PUSH0 MSTORE PUSH1 0x12 PUSH1 0x4 MSTORE PUSH1 0x24 PUSH0 REVERT JUMPDEST POP DIV SWAP1 JUMP JUMPDEST DUP1 DUP3 ADD DUP1 DUP3 GT ISZERO PUSH2 0x5C0 JUMPI PUSH2 0x5C0 PUSH2 0x1D5D JUMP JUMPDEST PUSH1 0x1 DUP2 DUP2 SHR SWAP1 DUP3 AND DUP1 PUSH2 0x1DE1 JUMPI PUSH1 0x7F DUP3 AND SWAP2 POP JUMPDEST PUSH1 0x20 DUP3 LT DUP2 SUB PUSH2 0x1DFF JUMPI PUSH4 0x4E487B71 PUSH1 0xE0 SHL PUSH0 MSTORE PUSH1 0x22 PUSH1 0x4 MSTORE PUSH1 0x24 PUSH0 REVERT JUMPDEST POP SWAP2 SWAP1 POP JUMP JUMPDEST PUSH0 PUSH1 0x1 PUSH1 0xFF SHL DUP3 ADD PUSH2 0x1E19 JUMPI PUSH2 0x1E19 PUSH2 0x1D5D JUMP JUMPDEST POP PUSH0 SUB SWAP1 JUMP JUMPDEST PUSH1 0x20 DUP1 DUP3 MSTORE PUSH1 0x18 SWAP1 DUP3 ADD MSTORE PUSH32 0x43616C6C6572206973206E6F7420617574686F72697A65640000000000000000 PUSH1 0x40 DUP3 ADD MSTORE PUSH1 0x60 ADD SWAP1 JUMP JUMPDEST PUSH4 0x4E487B71 PUSH1 0xE0 SHL PUSH0 MSTORE PUSH1 0x21 PUSH1 0x4 MSTORE PUSH1 0x24 PUSH0 REVERT INVALID LOG2 PUSH5 0x6970667358 0x22 SLT KECCAK256 SWAP13 0xEB SDIV PUSH4 0xF35F17D3 0xBD XOR PUSH18 0x85201DA962A91F83B66E931F5D45A5F29407 EXTCODESIZE DUP14 0x24 PUSH5 0x736F6C6343 STOP ADDMOD SHR STOP CALLER "
		},
		"gasEstimates": {
			"creation": {
				"codeDepositCost": "1568000",
				"executionCost": "infinite",
				"totalCost": "infinite"
			},
			"external": {
				"DOMAIN_SEPARATOR()": "infinite",
				"allowance(address,address)": "infinite",
				"approve(address,uint256)": "24820",
				"availableRewards_view()": "4622",
				"balanceOf(address)": "2593",
				"burn(address,uint256)": "infinite",
				"burn(uint256)": "50961",
				"burnFrom(address,uint256)": "infinite",
				"buyback_contract()": "2448",
				"claimRewards()": "infinite",
				"decimals()": "244",
				"earned(address)": "infinite",
				"eip712Domain()": "infinite",
				"initializeSupply(uint256)": "110901",
				"lastUpdateTime()": "2350",
				"mint(address,uint256)": "infinite",
				"name()": "infinite",
				"nonces(address)": "2603",
				"owner()": "2464",
				"permit(address,address,uint256,uint256,uint8,bytes32,bytes32)": "infinite",
				"rebase(int256)": "infinite",
				"rebaseRecipient()": "2435",
				"renounceOwnership()": "infinite",
				"rewardPerToken()": "infinite",
				"rewardPerTokenStored()": "2349",
				"rewardRate()": "2416",
				"rewards(address)": "2596",
				"setBuybackContract(address)": "26857",
				"setRebaseRecipient(address)": "28433",
				"stake(uint256)": "infinite",
				"stakes(address)": "2573",
				"symbol()": "infinite",
				"totalStaked()": "2351",
				"totalSupply()": "2370",
				"transfer(address,uint256)": "51256",
				"transferFrom(address,address,uint256)": "infinite",
				"transferOwnership(address)": "28465",
				"unstake(uint256)": "infinite",
				"userRewardPerTokenPaid(address)": "2617"
			},
			"internal": {
				"updateRewardPool()": "infinite"
			}
		},
		"methodIdentifiers": {
			"DOMAIN_SEPARATOR()": "3644e515",
			"allowance(address,address)": "dd62ed3e",
			"approve(address,uint256)": "095ea7b3",
			"availableRewards_view()": "8e0fc6e9",
			"balanceOf(address)": "70a08231",
			"burn(address,uint256)": "9dc29fac",
			"burn(uint256)": "42966c68",
			"burnFrom(address,uint256)": "79cc6790",
			"buyback_contract()": "227c749c",
			"claimRewards()": "372500ab",
			"decimals()": "313ce567",
			"earned(address)": "008cc262",
			"eip712Domain()": "84b0196e",
			"initializeSupply(uint256)": "d9e63bb1",
			"lastUpdateTime()": "c8f33c91",
			"mint(address,uint256)": "40c10f19",
			"name()": "06fdde03",
			"nonces(address)": "7ecebe00",
			"owner()": "8da5cb5b",
			"permit(address,address,uint256,uint256,uint8,bytes32,bytes32)": "d505accf",
			"rebase(int256)": "0ab114f9",
			"rebaseRecipient()": "e49bcc88",
			"renounceOwnership()": "715018a6",
			"rewardPerToken()": "cd3daf9d",
			"rewardPerTokenStored()": "df136d65",
			"rewardRate()": "7b0a47ee",
			"rewards(address)": "0700037d",
			"setBuybackContract(address)": "9a303684",
			"setRebaseRecipient(address)": "e56a9ed1",
			"stake(uint256)": "a694fc3a",
			"stakes(address)": "16934fc4",
			"symbol()": "95d89b41",
			"totalStaked()": "817b1cd2",
			"totalSupply()": "18160ddd",
			"transfer(address,uint256)": "a9059cbb",
			"transferFrom(address,address,uint256)": "23b872dd",
			"transferOwnership(address)": "f2fde38b",
			"unstake(uint256)": "2e17de78",
			"userRewardPerTokenPaid(address)": "8b876347"
		}
	},
	"abi": [
		{
			"inputs": [
				{
					"internalType": "address",
					"name": "initialOwner",
					"type": "address"
				}
			],
			"stateMutability": "nonpayable",
			"type": "constructor"
		},
		{
			"inputs": [],
			"name": "ECDSAInvalidSignature",
			"type": "error"
		},
		{
			"inputs": [
				{
					"internalType": "uint256",
					"name": "length",
					"type": "uint256"
				}
			],
			"name": "ECDSAInvalidSignatureLength",
			"type": "error"
		},
		{
			"inputs": [
				{
					"internalType": "bytes32",
					"name": "s",
					"type": "bytes32"
				}
			],
			"name": "ECDSAInvalidSignatureS",
			"type": "error"
		},
		{
			"inputs": [
				{
					"internalType": "address",
					"name": "spender",
					"type": "address"
				},
				{
					"internalType": "uint256",
					"name": "allowance",
					"type": "uint256"
				},
				{
					"internalType": "uint256",
					"name": "needed",
					"type": "uint256"
				}
			],
			"name": "ERC20InsufficientAllowance",
			"type": "error"
		},
		{
			"inputs": [
				{
					"internalType": "address",
					"name": "sender",
					"type": "address"
				},
				{
					"internalType": "uint256",
					"name": "balance",
					"type": "uint256"
				},
				{
					"internalType": "uint256",
					"name": "needed",
					"type": "uint256"
				}
			],
			"name": "ERC20InsufficientBalance",
			"type": "error"
		},
		{
			"inputs": [
				{
					"internalType": "address",
					"name": "approver",
					"type": "address"
				}
			],
			"name": "ERC20InvalidApprover",
			"type": "error"
		},
		{
			"inputs": [
				{
					"internalType": "address",
					"name": "receiver",
					"type": "address"
				}
			],
			"name": "ERC20InvalidReceiver",
			"type": "error"
		},
		{
			"inputs": [
				{
					"internalType": "address",
					"name": "sender",
					"type": "address"
				}
			],
			"name": "ERC20InvalidSender",
			"type": "error"
		},
		{
			"inputs": [
				{
					"internalType": "address",
					"name": "spender",
					"type": "address"
				}
			],
			"name": "ERC20InvalidSpender",
			"type": "error"
		},
		{
			"inputs": [
				{
					"internalType": "uint256",
					"name": "deadline",
					"type": "uint256"
				}
			],
			"name": "ERC2612ExpiredSignature",
			"type": "error"
		},
		{
			"inputs": [
				{
					"internalType": "address",
					"name": "signer",
					"type": "address"
				},
				{
					"internalType": "address",
					"name": "owner",
					"type": "address"
				}
			],
			"name": "ERC2612InvalidSigner",
			"type": "error"
		},
		{
			"inputs": [
				{
					"internalType": "address",
					"name": "account",
					"type": "address"
				},
				{
					"internalType": "uint256",
					"name": "currentNonce",
					"type": "uint256"
				}
			],
			"name": "InvalidAccountNonce",
			"type": "error"
		},
		{
			"inputs": [],
			"name": "InvalidShortString",
			"type": "error"
		},
		{
			"inputs": [
				{
					"internalType": "address",
					"name": "owner",
					"type": "address"
				}
			],
			"name": "OwnableInvalidOwner",
			"type": "error"
		},
		{
			"inputs": [
				{
					"internalType": "address",
					"name": "account",
					"type": "address"
				}
			],
			"name": "OwnableUnauthorizedAccount",
			"type": "error"
		},
		{
			"inputs": [
				{
					"internalType": "string",
					"name": "str",
					"type": "string"
				}
			],
			"name": "StringTooLong",
			"type": "error"
		},
		{
			"anonymous": false,
			"inputs": [
				{
					"indexed": true,
					"internalType": "address",
					"name": "owner",
					"type": "address"
				},
				{
					"indexed": true,
					"internalType": "address",
					"name": "spender",
					"type": "address"
				},
				{
					"indexed": false,
					"internalType": "uint256",
					"name": "value",
					"type": "uint256"
				}
			],
			"name": "Approval",
			"type": "event"
		},
		{
			"anonymous": false,
			"inputs": [
				{
					"indexed": true,
					"internalType": "address",
					"name": "user",
					"type": "address"
				},
				{
					"indexed": false,
					"internalType": "uint256",
					"name": "amount",
					"type": "uint256"
				}
			],
			"name": "ClaimRewards",
			"type": "event"
		},
		{
			"anonymous": false,
			"inputs": [],
			"name": "EIP712DomainChanged",
			"type": "event"
		},
		{
			"anonymous": false,
			"inputs": [
				{
					"indexed": true,
					"internalType": "address",
					"name": "previousOwner",
					"type": "address"
				},
				{
					"indexed": true,
					"internalType": "address",
					"name": "newOwner",
					"type": "address"
				}
			],
			"name": "OwnershipTransferred",
			"type": "event"
		},
		{
			"anonymous": false,
			"inputs": [
				{
					"indexed": false,
					"internalType": "int256",
					"name": "rebaseRate",
					"type": "int256"
				},
				{
					"indexed": false,
					"internalType": "uint256",
					"name": "newTotalSupply",
					"type": "uint256"
				}
			],
			"name": "Rebase",
			"type": "event"
		},
		{
			"anonymous": false,
			"inputs": [
				{
					"indexed": true,
					"internalType": "address",
					"name": "oldRecipient",
					"type": "address"
				},
				{
					"indexed": true,
					"internalType": "address",
					"name": "newRecipient",
					"type": "address"
				}
			],
			"name": "RebaseRecipientUpdated",
			"type": "event"
		},
		{
			"anonymous": false,
			"inputs": [
				{
					"indexed": true,
					"internalType": "address",
					"name": "user",
					"type": "address"
				},
				{
					"indexed": false,
					"internalType": "uint256",
					"name": "amount",
					"type": "uint256"
				}
			],
			"name": "Stake",
			"type": "event"
		},
		{
			"anonymous": false,
			"inputs": [
				{
					"indexed": false,
					"internalType": "uint256",
					"name": "rewardRate",
					"type": "uint256"
				},
				{
					"indexed": false,
					"internalType": "uint256",
					"name": "newRewardPool",
					"type": "uint256"
				}
			],
			"name": "StakingRewardUpdated",
			"type": "event"
		},
		{
			"anonymous": false,
			"inputs": [
				{
					"indexed": true,
					"internalType": "address",
					"name": "from",
					"type": "address"
				},
				{
					"indexed": true,
					"internalType": "address",
					"name": "to",
					"type": "address"
				},
				{
					"indexed": false,
					"internalType": "uint256",
					"name": "value",
					"type": "uint256"
				}
			],
			"name": "Transfer",
			"type": "event"
		},
		{
			"anonymous": false,
			"inputs": [
				{
					"indexed": true,
					"internalType": "address",
					"name": "user",
					"type": "address"
				},
				{
					"indexed": false,
					"internalType": "uint256",
					"name": "amount",
					"type": "uint256"
				}
			],
			"name": "Unstake",
			"type": "event"
		},
		{
			"inputs": [],
			"name": "DOMAIN_SEPARATOR",
			"outputs": [
				{
					"internalType": "bytes32",
					"name": "",
					"type": "bytes32"
				}
			],
			"stateMutability": "view",
			"type": "function"
		},
		{
			"inputs": [
				{
					"internalType": "address",
					"name": "owner",
					"type": "address"
				},
				{
					"internalType": "address",
					"name": "spender",
					"type": "address"
				}
			],
			"name": "allowance",
			"outputs": [
				{
					"internalType": "uint256",
					"name": "",
					"type": "uint256"
				}
			],
			"stateMutability": "view",
			"type": "function"
		},
		{
			"inputs": [
				{
					"internalType": "address",
					"name": "spender",
					"type": "address"
				},
				{
					"internalType": "uint256",
					"name": "value",
					"type": "uint256"
				}
			],
			"name": "approve",
			"outputs": [
				{
					"internalType": "bool",
					"name": "",
					"type": "bool"
				}
			],
			"stateMutability": "nonpayable",
			"type": "function"
		},
		{
			"inputs": [],
			"name": "availableRewards_view",
			"outputs": [
				{
					"internalType": "uint256",
					"name": "",
					"type": "uint256"
				}
			],
			"stateMutability": "view",
			"type": "function"
		},
		{
			"inputs": [
				{
					"internalType": "address",
					"name": "account",
					"type": "address"
				}
			],
			"name": "balanceOf",
			"outputs": [
				{
					"internalType": "uint256",
					"name": "",
					"type": "uint256"
				}
			],
			"stateMutability": "view",
			"type": "function"
		},
		{
			"inputs": [
				{
					"internalType": "uint256",
					"name": "value",
					"type": "uint256"
				}
			],
			"name": "burn",
			"outputs": [],
			"stateMutability": "nonpayable",
			"type": "function"
		},
		{
			"inputs": [
				{
					"internalType": "address",
					"name": "to",
					"type": "address"
				},
				{
					"internalType": "uint256",
					"name": "amount",
					"type": "uint256"
				}
			],
			"name": "burn",
			"outputs": [],
			"stateMutability": "nonpayable",
			"type": "function"
		},
		{
			"inputs": [
				{
					"internalType": "address",
					"name": "account",
					"type": "address"
				},
				{
					"internalType": "uint256",
					"name": "value",
					"type": "uint256"
				}
			],
			"name": "burnFrom",
			"outputs": [],
			"stateMutability": "nonpayable",
			"type": "function"
		},
		{
			"inputs": [],
			"name": "buyback_contract",
			"outputs": [
				{
					"internalType": "address",
					"name": "",
					"type": "address"
				}
			],
			"stateMutability": "view",
			"type": "function"
		},
		{
			"inputs": [],
			"name": "claimRewards",
			"outputs": [],
			"stateMutability": "nonpayable",
			"type": "function"
		},
		{
			"inputs": [],
			"name": "decimals",
			"outputs": [
				{
					"internalType": "uint8",
					"name": "",
					"type": "uint8"
				}
			],
			"stateMutability": "view",
			"type": "function"
		},
		{
			"inputs": [
				{
					"internalType": "address",
					"name": "account",
					"type": "address"
				}
			],
			"name": "earned",
			"outputs": [
				{
					"internalType": "uint256",
					"name": "",
					"type": "uint256"
				}
			],
			"stateMutability": "view",
			"type": "function"
		},
		{
			"inputs": [],
			"name": "eip712Domain",
			"outputs": [
				{
					"internalType": "bytes1",
					"name": "fields",
					"type": "bytes1"
				},
				{
					"internalType": "string",
					"name": "name",
					"type": "string"
				},
				{
					"internalType": "string",
					"name": "version",
					"type": "string"
				},
				{
					"internalType": "uint256",
					"name": "chainId",
					"type": "uint256"
				},
				{
					"internalType": "address",
					"name": "verifyingContract",
					"type": "address"
				},
				{
					"internalType": "bytes32",
					"name": "salt",
					"type": "bytes32"
				},
				{
					"internalType": "uint256[]",
					"name": "extensions",
					"type": "uint256[]"
				}
			],
			"stateMutability": "view",
			"type": "function"
		},
		{
			"inputs": [
				{
					"internalType": "uint256",
					"name": "amount",
					"type": "uint256"
				}
			],
			"name": "initializeSupply",
			"outputs": [],
			"stateMutability": "nonpayable",
			"type": "function"
		},
		{
			"inputs": [],
			"name": "lastUpdateTime",
			"outputs": [
				{
					"internalType": "uint256",
					"name": "",
					"type": "uint256"
				}
			],
			"stateMutability": "view",
			"type": "function"
		},
		{
			"inputs": [
				{
					"internalType": "address",
					"name": "to",
					"type": "address"
				},
				{
					"internalType": "uint256",
					"name": "amount",
					"type": "uint256"
				}
			],
			"name": "mint",
			"outputs": [],
			"stateMutability": "nonpayable",
			"type": "function"
		},
		{
			"inputs": [],
			"name": "name",
			"outputs": [
				{
					"internalType": "string",
					"name": "",
					"type": "string"
				}
			],
			"stateMutability": "view",
			"type": "function"
		},
		{
			"inputs": [
				{
					"internalType": "address",
					"name": "owner",
					"type": "address"
				}
			],
			"name": "nonces",
			"outputs": [
				{
					"internalType": "uint256",
					"name": "",
					"type": "uint256"
				}
			],
			"stateMutability": "view",
			"type": "function"
		},
		{
			"inputs": [],
			"name": "owner",
			"outputs": [
				{
					"internalType": "address",
					"name": "",
					"type": "address"
				}
			],
			"stateMutability": "view",
			"type": "function"
		},
		{
			"inputs": [
				{
					"internalType": "address",
					"name": "owner",
					"type": "address"
				},
				{
					"internalType": "address",
					"name": "spender",
					"type": "address"
				},
				{
					"internalType": "uint256",
					"name": "value",
					"type": "uint256"
				},
				{
					"internalType": "uint256",
					"name": "deadline",
					"type": "uint256"
				},
				{
					"internalType": "uint8",
					"name": "v",
					"type": "uint8"
				},
				{
					"internalType": "bytes32",
					"name": "r",
					"type": "bytes32"
				},
				{
					"internalType": "bytes32",
					"name": "s",
					"type": "bytes32"
				}
			],
			"name": "permit",
			"outputs": [],
			"stateMutability": "nonpayable",
			"type": "function"
		},
		{
			"inputs": [
				{
					"internalType": "int256",
					"name": "rebaseRate",
					"type": "int256"
				}
			],
			"name": "rebase",
			"outputs": [],
			"stateMutability": "nonpayable",
			"type": "function"
		},
		{
			"inputs": [],
			"name": "rebaseRecipient",
			"outputs": [
				{
					"internalType": "address",
					"name": "",
					"type": "address"
				}
			],
			"stateMutability": "view",
			"type": "function"
		},
		{
			"inputs": [],
			"name": "renounceOwnership",
			"outputs": [],
			"stateMutability": "nonpayable",
			"type": "function"
		},
		{
			"inputs": [],
			"name": "rewardPerToken",
			"outputs": [
				{
					"internalType": "uint256",
					"name": "",
					"type": "uint256"
				}
			],
			"stateMutability": "view",
			"type": "function"
		},
		{
			"inputs": [],
			"name": "rewardPerTokenStored",
			"outputs": [
				{
					"internalType": "uint256",
					"name": "",
					"type": "uint256"
				}
			],
			"stateMutability": "view",
			"type": "function"
		},
		{
			"inputs": [],
			"name": "rewardRate",
			"outputs": [
				{
					"internalType": "uint256",
					"name": "",
					"type": "uint256"
				}
			],
			"stateMutability": "view",
			"type": "function"
		},
		{
			"inputs": [
				{
					"internalType": "address",
					"name": "",
					"type": "address"
				}
			],
			"name": "rewards",
			"outputs": [
				{
					"internalType": "uint256",
					"name": "",
					"type": "uint256"
				}
			],
			"stateMutability": "view",
			"type": "function"
		},
		{
			"inputs": [
				{
					"internalType": "address",
					"name": "_buybackContract",
					"type": "address"
				}
			],
			"name": "setBuybackContract",
			"outputs": [],
			"stateMutability": "nonpayable",
			"type": "function"
		},
		{
			"inputs": [
				{
					"internalType": "address",
					"name": "newRecipient",
					"type": "address"
				}
			],
			"name": "setRebaseRecipient",
			"outputs": [],
			"stateMutability": "nonpayable",
			"type": "function"
		},
		{
			"inputs": [
				{
					"internalType": "uint256",
					"name": "amount",
					"type": "uint256"
				}
			],
			"name": "stake",
			"outputs": [],
			"stateMutability": "nonpayable",
			"type": "function"
		},
		{
			"inputs": [
				{
					"internalType": "address",
					"name": "",
					"type": "address"
				}
			],
			"name": "stakes",
			"outputs": [
				{
					"internalType": "uint256",
					"name": "",
					"type": "uint256"
				}
			],
			"stateMutability": "view",
			"type": "function"
		},
		{
			"inputs": [],
			"name": "symbol",
			"outputs": [
				{
					"internalType": "string",
					"name": "",
					"type": "string"
				}
			],
			"stateMutability": "view",
			"type": "function"
		},
		{
			"inputs": [],
			"name": "totalStaked",
			"outputs": [
				{
					"internalType": "uint256",
					"name": "",
					"type": "uint256"
				}
			],
			"stateMutability": "view",
			"type": "function"
		},
		{
			"inputs": [],
			"name": "totalSupply",
			"outputs": [
				{
					"internalType": "uint256",
					"name": "",
					"type": "uint256"
				}
			],
			"stateMutability": "view",
			"type": "function"
		},
		{
			"inputs": [
				{
					"internalType": "address",
					"name": "to",
					"type": "address"
				},
				{
					"internalType": "uint256",
					"name": "value",
					"type": "uint256"
				}
			],
			"name": "transfer",
			"outputs": [
				{
					"internalType": "bool",
					"name": "",
					"type": "bool"
				}
			],
			"stateMutability": "nonpayable",
			"type": "function"
		},
		{
			"inputs": [
				{
					"internalType": "address",
					"name": "from",
					"type": "address"
				},
				{
					"internalType": "address",
					"name": "to",
					"type": "address"
				},
				{
					"internalType": "uint256",
					"name": "value",
					"type": "uint256"
				}
			],
			"name": "transferFrom",
			"outputs": [
				{
					"internalType": "bool",
					"name": "",
					"type": "bool"
				}
			],
			"stateMutability": "nonpayable",
			"type": "function"
		},
		{
			"inputs": [
				{
					"internalType": "address",
					"name": "newOwner",
					"type": "address"
				}
			],
			"name": "transferOwnership",
			"outputs": [],
			"stateMutability": "nonpayable",
			"type": "function"
		},
		{
			"inputs": [
				{
					"internalType": "uint256",
					"name": "amount",
					"type": "uint256"
				}
			],
			"name": "unstake",
			"outputs": [],
			"stateMutability": "nonpayable",
			"type": "function"
		},
		{
			"inputs": [
				{
					"internalType": "address",
					"name": "",
					"type": "address"
				}
			],
			"name": "userRewardPerTokenPaid",
			"outputs": [
				{
					"internalType": "uint256",
					"name": "",
					"type": "uint256"
				}
			],
			"stateMutability": "view",
			"type": "function"
		}
	]
}